{
	"contracts/Judge.sol": {
		"Judge": {
			"abi": [
				{
					"anonymous": false,
					"inputs": [
						{
							"indexed": false,
							"internalType": "address",
							"name": "blockedUser",
							"type": "address"
						},
						{
							"indexed": false,
							"internalType": "uint256",
							"name": "ToLB",
							"type": "uint256"
						}
					],
					"name": "BlockUserInfo",
					"type": "event"
				},
				{
					"inputs": [
						{
							"internalType": "address",
							"name": "_userAddr",
							"type": "address"
						}
					],
					"name": "getBLUByAddr",
					"outputs": [
						{
							"internalType": "uint256",
							"name": "_ToLB",
							"type": "uint256"
						},
						{
							"internalType": "bool",
							"name": "_blocked",
							"type": "bool"
						}
					],
					"stateMutability": "view",
					"type": "function"
				},
				{
					"inputs": [],
					"name": "getCurTime",
					"outputs": [
						{
							"internalType": "uint256",
							"name": "curTime",
							"type": "uint256"
						}
					],
					"stateMutability": "view",
					"type": "function"
				},
				{
					"inputs": [
						{
							"internalType": "address",
							"name": "_userAddr",
							"type": "address"
						}
					],
					"name": "setBlackList",
					"outputs": [],
					"stateMutability": "nonpayable",
					"type": "function"
				},
				{
					"inputs": [
						{
							"internalType": "address",
							"name": "_userAddr",
							"type": "address"
						}
					],
					"name": "unblockUser",
					"outputs": [],
					"stateMutability": "nonpayable",
					"type": "function"
				}
			],
			"devdoc": {
				"kind": "dev",
				"methods": {},
				"version": 1
			},
			"evm": {
				"assembly": "    /* \"contracts/Judge.sol\":68:1346  contract Judge {\r... */\n  mstore(0x40, 0x80)\n  callvalue\n  dup1\n  iszero\n  tag_1\n  jumpi\n  0x00\n  dup1\n  revert\ntag_1:\n  pop\n  dataSize(sub_0)\n  dup1\n  dataOffset(sub_0)\n  0x00\n  codecopy\n  0x00\n  return\nstop\n\nsub_0: assembly {\n        /* \"contracts/Judge.sol\":68:1346  contract Judge {\r... */\n      mstore(0x40, 0x80)\n      callvalue\n      dup1\n      iszero\n      tag_1\n      jumpi\n      0x00\n      dup1\n      revert\n    tag_1:\n      pop\n      jumpi(tag_2, lt(calldatasize, 0x04))\n      shr(0xe0, calldataload(0x00))\n      dup1\n      0x169c9de0\n      eq\n      tag_3\n      jumpi\n      dup1\n      0x39d319e5\n      eq\n      tag_4\n      jumpi\n      dup1\n      0x72700241\n      eq\n      tag_5\n      jumpi\n      dup1\n      0xc0821da3\n      eq\n      tag_6\n      jumpi\n    tag_2:\n      0x00\n      dup1\n      revert\n        /* \"contracts/Judge.sol\":1035:1229  function getBLUByAddr(address _userAddr) public view returns (uint256 _ToLB, bool _blocked) {\r... */\n    tag_3:\n      tag_7\n      0x04\n      dup1\n      calldatasize\n      sub\n      dup2\n      add\n      swap1\n      tag_8\n      swap2\n      swap1\n      tag_9\n      jump\t// in\n    tag_8:\n      tag_10\n      jump\t// in\n    tag_7:\n      mload(0x40)\n      tag_11\n      swap3\n      swap2\n      swap1\n      tag_12\n      jump\t// in\n    tag_11:\n      mload(0x40)\n      dup1\n      swap2\n      sub\n      swap1\n      return\n        /* \"contracts/Judge.sol\":894:996  function unblockUser(address _userAddr) public {\r... */\n    tag_4:\n      tag_13\n      0x04\n      dup1\n      calldatasize\n      sub\n      dup2\n      add\n      swap1\n      tag_14\n      swap2\n      swap1\n      tag_9\n      jump\t// in\n    tag_14:\n      tag_15\n      jump\t// in\n    tag_13:\n      stop\n        /* \"contracts/Judge.sol\":575:886  function setBlackList(address _userAddr) public {\r... */\n    tag_5:\n      tag_16\n      0x04\n      dup1\n      calldatasize\n      sub\n      dup2\n      add\n      swap1\n      tag_17\n      swap2\n      swap1\n      tag_9\n      jump\t// in\n    tag_17:\n      tag_18\n      jump\t// in\n    tag_16:\n      stop\n        /* \"contracts/Judge.sol\":1237:1341  function getCurTime() public view returns (uint256 curTime) {\r... */\n    tag_6:\n      tag_19\n      tag_20\n      jump\t// in\n    tag_19:\n      mload(0x40)\n      tag_21\n      swap2\n      swap1\n      tag_22\n      jump\t// in\n    tag_21:\n      mload(0x40)\n      dup1\n      swap2\n      sub\n      swap1\n      return\n        /* \"contracts/Judge.sol\":1035:1229  function getBLUByAddr(address _userAddr) public view returns (uint256 _ToLB, bool _blocked) {\r... */\n    tag_10:\n        /* \"contracts/Judge.sol\":1097:1110  uint256 _ToLB */\n      0x00\n        /* \"contracts/Judge.sol\":1112:1125  bool _blocked */\n      dup1\n        /* \"contracts/Judge.sol\":1146:1155  blackList */\n      0x00\n        /* \"contracts/Judge.sol\":1146:1166  blackList[_userAddr] */\n      dup1\n        /* \"contracts/Judge.sol\":1156:1165  _userAddr */\n      dup5\n        /* \"contracts/Judge.sol\":1146:1166  blackList[_userAddr] */\n      0xffffffffffffffffffffffffffffffffffffffff\n      and\n      0xffffffffffffffffffffffffffffffffffffffff\n      and\n      dup2\n      mstore\n      0x20\n      add\n      swap1\n      dup2\n      mstore\n      0x20\n      add\n      0x00\n      keccak256\n        /* \"contracts/Judge.sol\":1146:1171  blackList[_userAddr].ToLB */\n      0x01\n      add\n      sload\n        /* \"contracts/Judge.sol\":1138:1171  _ToLB = blackList[_userAddr].ToLB */\n      swap2\n      pop\n        /* \"contracts/Judge.sol\":1193:1202  blackList */\n      0x00\n        /* \"contracts/Judge.sol\":1193:1213  blackList[_userAddr] */\n      dup1\n        /* \"contracts/Judge.sol\":1203:1212  _userAddr */\n      dup5\n        /* \"contracts/Judge.sol\":1193:1213  blackList[_userAddr] */\n      0xffffffffffffffffffffffffffffffffffffffff\n      and\n      0xffffffffffffffffffffffffffffffffffffffff\n      and\n      dup2\n      mstore\n      0x20\n      add\n      swap1\n      dup2\n      mstore\n      0x20\n      add\n      0x00\n      keccak256\n        /* \"contracts/Judge.sol\":1193:1221  blackList[_userAddr].blocked */\n      0x02\n      add\n      0x00\n      swap1\n      sload\n      swap1\n      0x0100\n      exp\n      swap1\n      div\n      0xff\n      and\n        /* \"contracts/Judge.sol\":1182:1221  _blocked = blackList[_userAddr].blocked */\n      swap1\n      pop\n        /* \"contracts/Judge.sol\":1035:1229  function getBLUByAddr(address _userAddr) public view returns (uint256 _ToLB, bool _blocked) {\r... */\n      swap2\n      pop\n      swap2\n      jump\t// out\n        /* \"contracts/Judge.sol\":894:996  function unblockUser(address _userAddr) public {\r... */\n    tag_15:\n        /* \"contracts/Judge.sol\":983:988  false */\n      0x00\n        /* \"contracts/Judge.sol\":952:961  blackList */\n      dup1\n        /* \"contracts/Judge.sol\":952:972  blackList[_userAddr] */\n      0x00\n        /* \"contracts/Judge.sol\":962:971  _userAddr */\n      dup4\n        /* \"contracts/Judge.sol\":952:972  blackList[_userAddr] */\n      0xffffffffffffffffffffffffffffffffffffffff\n      and\n      0xffffffffffffffffffffffffffffffffffffffff\n      and\n      dup2\n      mstore\n      0x20\n      add\n      swap1\n      dup2\n      mstore\n      0x20\n      add\n      0x00\n      keccak256\n        /* \"contracts/Judge.sol\":952:980  blackList[_userAddr].blocked */\n      0x02\n      add\n      0x00\n        /* \"contracts/Judge.sol\":952:988  blackList[_userAddr].blocked = false */\n      0x0100\n      exp\n      dup2\n      sload\n      dup2\n      0xff\n      mul\n      not\n      and\n      swap1\n      dup4\n      iszero\n      iszero\n      mul\n      or\n      swap1\n      sstore\n      pop\n        /* \"contracts/Judge.sol\":894:996  function unblockUser(address _userAddr) public {\r... */\n      pop\n      jump\t// out\n        /* \"contracts/Judge.sol\":575:886  function setBlackList(address _userAddr) public {\r... */\n    tag_18:\n        /* \"contracts/Judge.sol\":662:671  _userAddr */\n      dup1\n        /* \"contracts/Judge.sol\":634:643  blackList */\n      0x00\n        /* \"contracts/Judge.sol\":634:654  blackList[_userAddr] */\n      dup1\n        /* \"contracts/Judge.sol\":644:653  _userAddr */\n      dup4\n        /* \"contracts/Judge.sol\":634:654  blackList[_userAddr] */\n      0xffffffffffffffffffffffffffffffffffffffff\n      and\n      0xffffffffffffffffffffffffffffffffffffffff\n      and\n      dup2\n      mstore\n      0x20\n      add\n      swap1\n      dup2\n      mstore\n      0x20\n      add\n      0x00\n      keccak256\n        /* \"contracts/Judge.sol\":634:659  blackList[_userAddr].addr */\n      0x00\n      add\n      0x00\n        /* \"contracts/Judge.sol\":634:671  blackList[_userAddr].addr = _userAddr */\n      0x0100\n      exp\n      dup2\n      sload\n      dup2\n      0xffffffffffffffffffffffffffffffffffffffff\n      mul\n      not\n      and\n      swap1\n      dup4\n      0xffffffffffffffffffffffffffffffffffffffff\n      and\n      mul\n      or\n      swap1\n      sstore\n      pop\n        /* \"contracts/Judge.sol\":761:763  10 */\n      0x0a\n        /* \"contracts/Judge.sol\":743:758  block.timestamp */\n      timestamp\n        /* \"contracts/Judge.sol\":743:763  block.timestamp + 10 */\n      tag_26\n      swap2\n      swap1\n      tag_27\n      jump\t// in\n    tag_26:\n        /* \"contracts/Judge.sol\":715:724  blackList */\n      0x00\n        /* \"contracts/Judge.sol\":715:735  blackList[_userAddr] */\n      dup1\n        /* \"contracts/Judge.sol\":725:734  _userAddr */\n      dup4\n        /* \"contracts/Judge.sol\":715:735  blackList[_userAddr] */\n      0xffffffffffffffffffffffffffffffffffffffff\n      and\n      0xffffffffffffffffffffffffffffffffffffffff\n      and\n      dup2\n      mstore\n      0x20\n      add\n      swap1\n      dup2\n      mstore\n      0x20\n      add\n      0x00\n      keccak256\n        /* \"contracts/Judge.sol\":715:740  blackList[_userAddr].ToLB */\n      0x01\n      add\n        /* \"contracts/Judge.sol\":715:763  blackList[_userAddr].ToLB = block.timestamp + 10 */\n      dup2\n      swap1\n      sstore\n      pop\n        /* \"contracts/Judge.sol\":805:809  true */\n      0x01\n        /* \"contracts/Judge.sol\":774:783  blackList */\n      0x00\n        /* \"contracts/Judge.sol\":774:794  blackList[_userAddr] */\n      dup1\n        /* \"contracts/Judge.sol\":784:793  _userAddr */\n      dup4\n        /* \"contracts/Judge.sol\":774:794  blackList[_userAddr] */\n      0xffffffffffffffffffffffffffffffffffffffff\n      and\n      0xffffffffffffffffffffffffffffffffffffffff\n      and\n      dup2\n      mstore\n      0x20\n      add\n      swap1\n      dup2\n      mstore\n      0x20\n      add\n      0x00\n      keccak256\n        /* \"contracts/Judge.sol\":774:802  blackList[_userAddr].blocked */\n      0x02\n      add\n      0x00\n        /* \"contracts/Judge.sol\":774:809  blackList[_userAddr].blocked = true */\n      0x0100\n      exp\n      dup2\n      sload\n      dup2\n      0xff\n      mul\n      not\n      and\n      swap1\n      dup4\n      iszero\n      iszero\n      mul\n      or\n      swap1\n      sstore\n      pop\n        /* \"contracts/Judge.sol\":827:878  BlockUserInfo(_userAddr, blackList[_userAddr].ToLB) */\n      0xff4258f29aa7a78befd6a7ca5a3f3287a86ba46d68bdd9af2a091d117ba0ab68\n        /* \"contracts/Judge.sol\":841:850  _userAddr */\n      dup2\n        /* \"contracts/Judge.sol\":852:861  blackList */\n      0x00\n        /* \"contracts/Judge.sol\":852:872  blackList[_userAddr] */\n      dup1\n        /* \"contracts/Judge.sol\":862:871  _userAddr */\n      dup5\n        /* \"contracts/Judge.sol\":852:872  blackList[_userAddr] */\n      0xffffffffffffffffffffffffffffffffffffffff\n      and\n      0xffffffffffffffffffffffffffffffffffffffff\n      and\n      dup2\n      mstore\n      0x20\n      add\n      swap1\n      dup2\n      mstore\n      0x20\n      add\n      0x00\n      keccak256\n        /* \"contracts/Judge.sol\":852:877  blackList[_userAddr].ToLB */\n      0x01\n      add\n      sload\n        /* \"contracts/Judge.sol\":827:878  BlockUserInfo(_userAddr, blackList[_userAddr].ToLB) */\n      mload(0x40)\n      tag_28\n      swap3\n      swap2\n      swap1\n      tag_29\n      jump\t// in\n    tag_28:\n      mload(0x40)\n      dup1\n      swap2\n      sub\n      swap1\n      log1\n        /* \"contracts/Judge.sol\":575:886  function setBlackList(address _userAddr) public {\r... */\n      pop\n      jump\t// out\n        /* \"contracts/Judge.sol\":1237:1341  function getCurTime() public view returns (uint256 curTime) {\r... */\n    tag_20:\n        /* \"contracts/Judge.sol\":1280:1295  uint256 curTime */\n      0x00\n        /* \"contracts/Judge.sol\":1318:1333  block.timestamp */\n      timestamp\n        /* \"contracts/Judge.sol\":1308:1333  curTime = block.timestamp */\n      swap1\n      pop\n        /* \"contracts/Judge.sol\":1237:1341  function getCurTime() public view returns (uint256 curTime) {\r... */\n      swap1\n      jump\t// out\n        /* \"#utility.yul\":7:146   */\n    tag_32:\n        /* \"#utility.yul\":53:58   */\n      0x00\n        /* \"#utility.yul\":91:97   */\n      dup2\n        /* \"#utility.yul\":78:98   */\n      calldataload\n        /* \"#utility.yul\":69:98   */\n      swap1\n      pop\n        /* \"#utility.yul\":107:140   */\n      tag_34\n        /* \"#utility.yul\":134:139   */\n      dup2\n        /* \"#utility.yul\":107:140   */\n      tag_35\n      jump\t// in\n    tag_34:\n        /* \"#utility.yul\":7:146   */\n      swap3\n      swap2\n      pop\n      pop\n      jump\t// out\n        /* \"#utility.yul\":152:481   */\n    tag_9:\n        /* \"#utility.yul\":211:217   */\n      0x00\n        /* \"#utility.yul\":260:262   */\n      0x20\n        /* \"#utility.yul\":248:257   */\n      dup3\n        /* \"#utility.yul\":239:246   */\n      dup5\n        /* \"#utility.yul\":235:258   */\n      sub\n        /* \"#utility.yul\":231:263   */\n      slt\n        /* \"#utility.yul\":228:347   */\n      iszero\n      tag_37\n      jumpi\n        /* \"#utility.yul\":266:345   */\n      tag_38\n      tag_39\n      jump\t// in\n    tag_38:\n        /* \"#utility.yul\":228:347   */\n    tag_37:\n        /* \"#utility.yul\":386:387   */\n      0x00\n        /* \"#utility.yul\":411:464   */\n      tag_40\n        /* \"#utility.yul\":456:463   */\n      dup5\n        /* \"#utility.yul\":447:453   */\n      dup3\n        /* \"#utility.yul\":436:445   */\n      dup6\n        /* \"#utility.yul\":432:454   */\n      add\n        /* \"#utility.yul\":411:464   */\n      tag_32\n      jump\t// in\n    tag_40:\n        /* \"#utility.yul\":401:464   */\n      swap2\n      pop\n        /* \"#utility.yul\":357:474   */\n      pop\n        /* \"#utility.yul\":152:481   */\n      swap3\n      swap2\n      pop\n      pop\n      jump\t// out\n        /* \"#utility.yul\":487:605   */\n    tag_41:\n        /* \"#utility.yul\":574:598   */\n      tag_43\n        /* \"#utility.yul\":592:597   */\n      dup2\n        /* \"#utility.yul\":574:598   */\n      tag_44\n      jump\t// in\n    tag_43:\n        /* \"#utility.yul\":569:572   */\n      dup3\n        /* \"#utility.yul\":562:599   */\n      mstore\n        /* \"#utility.yul\":487:605   */\n      pop\n      pop\n      jump\t// out\n        /* \"#utility.yul\":611:720   */\n    tag_45:\n        /* \"#utility.yul\":692:713   */\n      tag_47\n        /* \"#utility.yul\":707:712   */\n      dup2\n        /* \"#utility.yul\":692:713   */\n      tag_48\n      jump\t// in\n    tag_47:\n        /* \"#utility.yul\":687:690   */\n      dup3\n        /* \"#utility.yul\":680:714   */\n      mstore\n        /* \"#utility.yul\":611:720   */\n      pop\n      pop\n      jump\t// out\n        /* \"#utility.yul\":726:844   */\n    tag_49:\n        /* \"#utility.yul\":813:837   */\n      tag_51\n        /* \"#utility.yul\":831:836   */\n      dup2\n        /* \"#utility.yul\":813:837   */\n      tag_52\n      jump\t// in\n    tag_51:\n        /* \"#utility.yul\":808:811   */\n      dup3\n        /* \"#utility.yul\":801:838   */\n      mstore\n        /* \"#utility.yul\":726:844   */\n      pop\n      pop\n      jump\t// out\n        /* \"#utility.yul\":850:1182   */\n    tag_29:\n        /* \"#utility.yul\":971:975   */\n      0x00\n        /* \"#utility.yul\":1009:1011   */\n      0x40\n        /* \"#utility.yul\":998:1007   */\n      dup3\n        /* \"#utility.yul\":994:1012   */\n      add\n        /* \"#utility.yul\":986:1012   */\n      swap1\n      pop\n        /* \"#utility.yul\":1022:1093   */\n      tag_54\n        /* \"#utility.yul\":1090:1091   */\n      0x00\n        /* \"#utility.yul\":1079:1088   */\n      dup4\n        /* \"#utility.yul\":1075:1092   */\n      add\n        /* \"#utility.yul\":1066:1072   */\n      dup6\n        /* \"#utility.yul\":1022:1093   */\n      tag_41\n      jump\t// in\n    tag_54:\n        /* \"#utility.yul\":1103:1175   */\n      tag_55\n        /* \"#utility.yul\":1171:1173   */\n      0x20\n        /* \"#utility.yul\":1160:1169   */\n      dup4\n        /* \"#utility.yul\":1156:1174   */\n      add\n        /* \"#utility.yul\":1147:1153   */\n      dup5\n        /* \"#utility.yul\":1103:1175   */\n      tag_49\n      jump\t// in\n    tag_55:\n        /* \"#utility.yul\":850:1182   */\n      swap4\n      swap3\n      pop\n      pop\n      pop\n      jump\t// out\n        /* \"#utility.yul\":1188:1410   */\n    tag_22:\n        /* \"#utility.yul\":1281:1285   */\n      0x00\n        /* \"#utility.yul\":1319:1321   */\n      0x20\n        /* \"#utility.yul\":1308:1317   */\n      dup3\n        /* \"#utility.yul\":1304:1322   */\n      add\n        /* \"#utility.yul\":1296:1322   */\n      swap1\n      pop\n        /* \"#utility.yul\":1332:1403   */\n      tag_57\n        /* \"#utility.yul\":1400:1401   */\n      0x00\n        /* \"#utility.yul\":1389:1398   */\n      dup4\n        /* \"#utility.yul\":1385:1402   */\n      add\n        /* \"#utility.yul\":1376:1382   */\n      dup5\n        /* \"#utility.yul\":1332:1403   */\n      tag_49\n      jump\t// in\n    tag_57:\n        /* \"#utility.yul\":1188:1410   */\n      swap3\n      swap2\n      pop\n      pop\n      jump\t// out\n        /* \"#utility.yul\":1416:1736   */\n    tag_12:\n        /* \"#utility.yul\":1531:1535   */\n      0x00\n        /* \"#utility.yul\":1569:1571   */\n      0x40\n        /* \"#utility.yul\":1558:1567   */\n      dup3\n        /* \"#utility.yul\":1554:1572   */\n      add\n        /* \"#utility.yul\":1546:1572   */\n      swap1\n      pop\n        /* \"#utility.yul\":1582:1653   */\n      tag_59\n        /* \"#utility.yul\":1650:1651   */\n      0x00\n        /* \"#utility.yul\":1639:1648   */\n      dup4\n        /* \"#utility.yul\":1635:1652   */\n      add\n        /* \"#utility.yul\":1626:1632   */\n      dup6\n        /* \"#utility.yul\":1582:1653   */\n      tag_49\n      jump\t// in\n    tag_59:\n        /* \"#utility.yul\":1663:1729   */\n      tag_60\n        /* \"#utility.yul\":1725:1727   */\n      0x20\n        /* \"#utility.yul\":1714:1723   */\n      dup4\n        /* \"#utility.yul\":1710:1728   */\n      add\n        /* \"#utility.yul\":1701:1707   */\n      dup5\n        /* \"#utility.yul\":1663:1729   */\n      tag_45\n      jump\t// in\n    tag_60:\n        /* \"#utility.yul\":1416:1736   */\n      swap4\n      swap3\n      pop\n      pop\n      pop\n      jump\t// out\n        /* \"#utility.yul\":1823:2128   */\n    tag_27:\n        /* \"#utility.yul\":1863:1866   */\n      0x00\n        /* \"#utility.yul\":1882:1902   */\n      tag_64\n        /* \"#utility.yul\":1900:1901   */\n      dup3\n        /* \"#utility.yul\":1882:1902   */\n      tag_52\n      jump\t// in\n    tag_64:\n        /* \"#utility.yul\":1877:1902   */\n      swap2\n      pop\n        /* \"#utility.yul\":1916:1936   */\n      tag_65\n        /* \"#utility.yul\":1934:1935   */\n      dup4\n        /* \"#utility.yul\":1916:1936   */\n      tag_52\n      jump\t// in\n    tag_65:\n        /* \"#utility.yul\":1911:1936   */\n      swap3\n      pop\n        /* \"#utility.yul\":2070:2071   */\n      dup3\n        /* \"#utility.yul\":2002:2068   */\n      0xffffffffffffffffffffffffffffffffffffffffffffffffffffffffffffffff\n        /* \"#utility.yul\":1998:2072   */\n      sub\n        /* \"#utility.yul\":1995:1996   */\n      dup3\n        /* \"#utility.yul\":1992:2073   */\n      gt\n        /* \"#utility.yul\":1989:2096   */\n      iszero\n      tag_66\n      jumpi\n        /* \"#utility.yul\":2076:2094   */\n      tag_67\n      tag_68\n      jump\t// in\n    tag_67:\n        /* \"#utility.yul\":1989:2096   */\n    tag_66:\n        /* \"#utility.yul\":2120:2121   */\n      dup3\n        /* \"#utility.yul\":2117:2118   */\n      dup3\n        /* \"#utility.yul\":2113:2122   */\n      add\n        /* \"#utility.yul\":2106:2122   */\n      swap1\n      pop\n        /* \"#utility.yul\":1823:2128   */\n      swap3\n      swap2\n      pop\n      pop\n      jump\t// out\n        /* \"#utility.yul\":2134:2230   */\n    tag_44:\n        /* \"#utility.yul\":2171:2178   */\n      0x00\n        /* \"#utility.yul\":2200:2224   */\n      tag_70\n        /* \"#utility.yul\":2218:2223   */\n      dup3\n        /* \"#utility.yul\":2200:2224   */\n      tag_71\n      jump\t// in\n    tag_70:\n        /* \"#utility.yul\":2189:2224   */\n      swap1\n      pop\n        /* \"#utility.yul\":2134:2230   */\n      swap2\n      swap1\n      pop\n      jump\t// out\n        /* \"#utility.yul\":2236:2326   */\n    tag_48:\n        /* \"#utility.yul\":2270:2277   */\n      0x00\n        /* \"#utility.yul\":2313:2318   */\n      dup2\n        /* \"#utility.yul\":2306:2319   */\n      iszero\n        /* \"#utility.yul\":2299:2320   */\n      iszero\n        /* \"#utility.yul\":2288:2320   */\n      swap1\n      pop\n        /* \"#utility.yul\":2236:2326   */\n      swap2\n      swap1\n      pop\n      jump\t// out\n        /* \"#utility.yul\":2332:2458   */\n    tag_71:\n        /* \"#utility.yul\":2369:2376   */\n      0x00\n        /* \"#utility.yul\":2409:2451   */\n      0xffffffffffffffffffffffffffffffffffffffff\n        /* \"#utility.yul\":2402:2407   */\n      dup3\n        /* \"#utility.yul\":2398:2452   */\n      and\n        /* \"#utility.yul\":2387:2452   */\n      swap1\n      pop\n        /* \"#utility.yul\":2332:2458   */\n      swap2\n      swap1\n      pop\n      jump\t// out\n        /* \"#utility.yul\":2464:2541   */\n    tag_52:\n        /* \"#utility.yul\":2501:2508   */\n      0x00\n        /* \"#utility.yul\":2530:2535   */\n      dup2\n        /* \"#utility.yul\":2519:2535   */\n      swap1\n      pop\n        /* \"#utility.yul\":2464:2541   */\n      swap2\n      swap1\n      pop\n      jump\t// out\n        /* \"#utility.yul\":2547:2727   */\n    tag_68:\n        /* \"#utility.yul\":2595:2672   */\n      0x4e487b7100000000000000000000000000000000000000000000000000000000\n        /* \"#utility.yul\":2592:2593   */\n      0x00\n        /* \"#utility.yul\":2585:2673   */\n      mstore\n        /* \"#utility.yul\":2692:2696   */\n      0x11\n        /* \"#utility.yul\":2689:2690   */\n      0x04\n        /* \"#utility.yul\":2682:2697   */\n      mstore\n        /* \"#utility.yul\":2716:2720   */\n      0x24\n        /* \"#utility.yul\":2713:2714   */\n      0x00\n        /* \"#utility.yul\":2706:2721   */\n      revert\n        /* \"#utility.yul\":2856:2973   */\n    tag_39:\n        /* \"#utility.yul\":2965:2966   */\n      0x00\n        /* \"#utility.yul\":2962:2963   */\n      dup1\n        /* \"#utility.yul\":2955:2967   */\n      revert\n        /* \"#utility.yul\":2979:3101   */\n    tag_35:\n        /* \"#utility.yul\":3052:3076   */\n      tag_80\n        /* \"#utility.yul\":3070:3075   */\n      dup2\n        /* \"#utility.yul\":3052:3076   */\n      tag_44\n      jump\t// in\n    tag_80:\n        /* \"#utility.yul\":3045:3050   */\n      dup2\n        /* \"#utility.yul\":3042:3077   */\n      eq\n        /* \"#utility.yul\":3032:3095   */\n      tag_81\n      jumpi\n        /* \"#utility.yul\":3091:3092   */\n      0x00\n        /* \"#utility.yul\":3088:3089   */\n      dup1\n        /* \"#utility.yul\":3081:3093   */\n      revert\n        /* \"#utility.yul\":3032:3095   */\n    tag_81:\n        /* \"#utility.yul\":2979:3101   */\n      pop\n      jump\t// out\n\n    auxdata: 0xa2646970667358221220a36e655a6ff4ade5a06bb15da01cbf424ab0e33529a9ed06fe9f00e2c1200df464736f6c63430008070033\n}\n",
				"bytecode": {
					"linkReferences": {},
					"object": "608060405234801561001057600080fd5b5061057e806100206000396000f3fe608060405234801561001057600080fd5b506004361061004c5760003560e01c8063169c9de01461005157806339d319e514610082578063727002411461009e578063c0821da3146100ba575b600080fd5b61006b60048036038101906100669190610398565b6100d8565b604051610079929190610436565b60405180910390f35b61009c60048036038101906100979190610398565b610175565b005b6100b860048036038101906100b39190610398565b6101d2565b005b6100c261037b565b6040516100cf919061041b565b60405180910390f35b6000806000808473ffffffffffffffffffffffffffffffffffffffff1673ffffffffffffffffffffffffffffffffffffffff1681526020019081526020016000206001015491506000808473ffffffffffffffffffffffffffffffffffffffff1673ffffffffffffffffffffffffffffffffffffffff16815260200190815260200160002060020160009054906101000a900460ff169050915091565b60008060008373ffffffffffffffffffffffffffffffffffffffff1673ffffffffffffffffffffffffffffffffffffffff16815260200190815260200160002060020160006101000a81548160ff02191690831515021790555050565b806000808373ffffffffffffffffffffffffffffffffffffffff1673ffffffffffffffffffffffffffffffffffffffff16815260200190815260200160002060000160006101000a81548173ffffffffffffffffffffffffffffffffffffffff021916908373ffffffffffffffffffffffffffffffffffffffff160217905550600a4261025f919061045f565b6000808373ffffffffffffffffffffffffffffffffffffffff1673ffffffffffffffffffffffffffffffffffffffff1681526020019081526020016000206001018190555060016000808373ffffffffffffffffffffffffffffffffffffffff1673ffffffffffffffffffffffffffffffffffffffff16815260200190815260200160002060020160006101000a81548160ff0219169083151502179055507fff4258f29aa7a78befd6a7ca5a3f3287a86ba46d68bdd9af2a091d117ba0ab68816000808473ffffffffffffffffffffffffffffffffffffffff1673ffffffffffffffffffffffffffffffffffffffff168152602001908152602001600020600101546040516103709291906103f2565b60405180910390a150565b600042905090565b60008135905061039281610531565b92915050565b6000602082840312156103ae576103ad61052c565b5b60006103bc84828501610383565b91505092915050565b6103ce816104b5565b82525050565b6103dd816104c7565b82525050565b6103ec816104f3565b82525050565b600060408201905061040760008301856103c5565b61041460208301846103e3565b9392505050565b600060208201905061043060008301846103e3565b92915050565b600060408201905061044b60008301856103e3565b61045860208301846103d4565b9392505050565b600061046a826104f3565b9150610475836104f3565b9250827fffffffffffffffffffffffffffffffffffffffffffffffffffffffffffffffff038211156104aa576104a96104fd565b5b828201905092915050565b60006104c0826104d3565b9050919050565b60008115159050919050565b600073ffffffffffffffffffffffffffffffffffffffff82169050919050565b6000819050919050565b7f4e487b7100000000000000000000000000000000000000000000000000000000600052601160045260246000fd5b600080fd5b61053a816104b5565b811461054557600080fd5b5056fea2646970667358221220a36e655a6ff4ade5a06bb15da01cbf424ab0e33529a9ed06fe9f00e2c1200df464736f6c63430008070033",
					"opcodes": "PUSH1 0x80 PUSH1 0x40 MSTORE CALLVALUE DUP1 ISZERO PUSH2 0x10 JUMPI PUSH1 0x0 DUP1 REVERT JUMPDEST POP PUSH2 0x57E DUP1 PUSH2 0x20 PUSH1 0x0 CODECOPY PUSH1 0x0 RETURN INVALID PUSH1 0x80 PUSH1 0x40 MSTORE CALLVALUE DUP1 ISZERO PUSH2 0x10 JUMPI PUSH1 0x0 DUP1 REVERT JUMPDEST POP PUSH1 0x4 CALLDATASIZE LT PUSH2 0x4C JUMPI PUSH1 0x0 CALLDATALOAD PUSH1 0xE0 SHR DUP1 PUSH4 0x169C9DE0 EQ PUSH2 0x51 JUMPI DUP1 PUSH4 0x39D319E5 EQ PUSH2 0x82 JUMPI DUP1 PUSH4 0x72700241 EQ PUSH2 0x9E JUMPI DUP1 PUSH4 0xC0821DA3 EQ PUSH2 0xBA JUMPI JUMPDEST PUSH1 0x0 DUP1 REVERT JUMPDEST PUSH2 0x6B PUSH1 0x4 DUP1 CALLDATASIZE SUB DUP2 ADD SWAP1 PUSH2 0x66 SWAP2 SWAP1 PUSH2 0x398 JUMP JUMPDEST PUSH2 0xD8 JUMP JUMPDEST PUSH1 0x40 MLOAD PUSH2 0x79 SWAP3 SWAP2 SWAP1 PUSH2 0x436 JUMP JUMPDEST PUSH1 0x40 MLOAD DUP1 SWAP2 SUB SWAP1 RETURN JUMPDEST PUSH2 0x9C PUSH1 0x4 DUP1 CALLDATASIZE SUB DUP2 ADD SWAP1 PUSH2 0x97 SWAP2 SWAP1 PUSH2 0x398 JUMP JUMPDEST PUSH2 0x175 JUMP JUMPDEST STOP JUMPDEST PUSH2 0xB8 PUSH1 0x4 DUP1 CALLDATASIZE SUB DUP2 ADD SWAP1 PUSH2 0xB3 SWAP2 SWAP1 PUSH2 0x398 JUMP JUMPDEST PUSH2 0x1D2 JUMP JUMPDEST STOP JUMPDEST PUSH2 0xC2 PUSH2 0x37B JUMP JUMPDEST PUSH1 0x40 MLOAD PUSH2 0xCF SWAP2 SWAP1 PUSH2 0x41B JUMP JUMPDEST PUSH1 0x40 MLOAD DUP1 SWAP2 SUB SWAP1 RETURN JUMPDEST PUSH1 0x0 DUP1 PUSH1 0x0 DUP1 DUP5 PUSH20 0xFFFFFFFFFFFFFFFFFFFFFFFFFFFFFFFFFFFFFFFF AND PUSH20 0xFFFFFFFFFFFFFFFFFFFFFFFFFFFFFFFFFFFFFFFF AND DUP2 MSTORE PUSH1 0x20 ADD SWAP1 DUP2 MSTORE PUSH1 0x20 ADD PUSH1 0x0 KECCAK256 PUSH1 0x1 ADD SLOAD SWAP2 POP PUSH1 0x0 DUP1 DUP5 PUSH20 0xFFFFFFFFFFFFFFFFFFFFFFFFFFFFFFFFFFFFFFFF AND PUSH20 0xFFFFFFFFFFFFFFFFFFFFFFFFFFFFFFFFFFFFFFFF AND DUP2 MSTORE PUSH1 0x20 ADD SWAP1 DUP2 MSTORE PUSH1 0x20 ADD PUSH1 0x0 KECCAK256 PUSH1 0x2 ADD PUSH1 0x0 SWAP1 SLOAD SWAP1 PUSH2 0x100 EXP SWAP1 DIV PUSH1 0xFF AND SWAP1 POP SWAP2 POP SWAP2 JUMP JUMPDEST PUSH1 0x0 DUP1 PUSH1 0x0 DUP4 PUSH20 0xFFFFFFFFFFFFFFFFFFFFFFFFFFFFFFFFFFFFFFFF AND PUSH20 0xFFFFFFFFFFFFFFFFFFFFFFFFFFFFFFFFFFFFFFFF AND DUP2 MSTORE PUSH1 0x20 ADD SWAP1 DUP2 MSTORE PUSH1 0x20 ADD PUSH1 0x0 KECCAK256 PUSH1 0x2 ADD PUSH1 0x0 PUSH2 0x100 EXP DUP2 SLOAD DUP2 PUSH1 0xFF MUL NOT AND SWAP1 DUP4 ISZERO ISZERO MUL OR SWAP1 SSTORE POP POP JUMP JUMPDEST DUP1 PUSH1 0x0 DUP1 DUP4 PUSH20 0xFFFFFFFFFFFFFFFFFFFFFFFFFFFFFFFFFFFFFFFF AND PUSH20 0xFFFFFFFFFFFFFFFFFFFFFFFFFFFFFFFFFFFFFFFF AND DUP2 MSTORE PUSH1 0x20 ADD SWAP1 DUP2 MSTORE PUSH1 0x20 ADD PUSH1 0x0 KECCAK256 PUSH1 0x0 ADD PUSH1 0x0 PUSH2 0x100 EXP DUP2 SLOAD DUP2 PUSH20 0xFFFFFFFFFFFFFFFFFFFFFFFFFFFFFFFFFFFFFFFF MUL NOT AND SWAP1 DUP4 PUSH20 0xFFFFFFFFFFFFFFFFFFFFFFFFFFFFFFFFFFFFFFFF AND MUL OR SWAP1 SSTORE POP PUSH1 0xA TIMESTAMP PUSH2 0x25F SWAP2 SWAP1 PUSH2 0x45F JUMP JUMPDEST PUSH1 0x0 DUP1 DUP4 PUSH20 0xFFFFFFFFFFFFFFFFFFFFFFFFFFFFFFFFFFFFFFFF AND PUSH20 0xFFFFFFFFFFFFFFFFFFFFFFFFFFFFFFFFFFFFFFFF AND DUP2 MSTORE PUSH1 0x20 ADD SWAP1 DUP2 MSTORE PUSH1 0x20 ADD PUSH1 0x0 KECCAK256 PUSH1 0x1 ADD DUP2 SWAP1 SSTORE POP PUSH1 0x1 PUSH1 0x0 DUP1 DUP4 PUSH20 0xFFFFFFFFFFFFFFFFFFFFFFFFFFFFFFFFFFFFFFFF AND PUSH20 0xFFFFFFFFFFFFFFFFFFFFFFFFFFFFFFFFFFFFFFFF AND DUP2 MSTORE PUSH1 0x20 ADD SWAP1 DUP2 MSTORE PUSH1 0x20 ADD PUSH1 0x0 KECCAK256 PUSH1 0x2 ADD PUSH1 0x0 PUSH2 0x100 EXP DUP2 SLOAD DUP2 PUSH1 0xFF MUL NOT AND SWAP1 DUP4 ISZERO ISZERO MUL OR SWAP1 SSTORE POP PUSH32 0xFF4258F29AA7A78BEFD6A7CA5A3F3287A86BA46D68BDD9AF2A091D117BA0AB68 DUP2 PUSH1 0x0 DUP1 DUP5 PUSH20 0xFFFFFFFFFFFFFFFFFFFFFFFFFFFFFFFFFFFFFFFF AND PUSH20 0xFFFFFFFFFFFFFFFFFFFFFFFFFFFFFFFFFFFFFFFF AND DUP2 MSTORE PUSH1 0x20 ADD SWAP1 DUP2 MSTORE PUSH1 0x20 ADD PUSH1 0x0 KECCAK256 PUSH1 0x1 ADD SLOAD PUSH1 0x40 MLOAD PUSH2 0x370 SWAP3 SWAP2 SWAP1 PUSH2 0x3F2 JUMP JUMPDEST PUSH1 0x40 MLOAD DUP1 SWAP2 SUB SWAP1 LOG1 POP JUMP JUMPDEST PUSH1 0x0 TIMESTAMP SWAP1 POP SWAP1 JUMP JUMPDEST PUSH1 0x0 DUP2 CALLDATALOAD SWAP1 POP PUSH2 0x392 DUP2 PUSH2 0x531 JUMP JUMPDEST SWAP3 SWAP2 POP POP JUMP JUMPDEST PUSH1 0x0 PUSH1 0x20 DUP3 DUP5 SUB SLT ISZERO PUSH2 0x3AE JUMPI PUSH2 0x3AD PUSH2 0x52C JUMP JUMPDEST JUMPDEST PUSH1 0x0 PUSH2 0x3BC DUP5 DUP3 DUP6 ADD PUSH2 0x383 JUMP JUMPDEST SWAP2 POP POP SWAP3 SWAP2 POP POP JUMP JUMPDEST PUSH2 0x3CE DUP2 PUSH2 0x4B5 JUMP JUMPDEST DUP3 MSTORE POP POP JUMP JUMPDEST PUSH2 0x3DD DUP2 PUSH2 0x4C7 JUMP JUMPDEST DUP3 MSTORE POP POP JUMP JUMPDEST PUSH2 0x3EC DUP2 PUSH2 0x4F3 JUMP JUMPDEST DUP3 MSTORE POP POP JUMP JUMPDEST PUSH1 0x0 PUSH1 0x40 DUP3 ADD SWAP1 POP PUSH2 0x407 PUSH1 0x0 DUP4 ADD DUP6 PUSH2 0x3C5 JUMP JUMPDEST PUSH2 0x414 PUSH1 0x20 DUP4 ADD DUP5 PUSH2 0x3E3 JUMP JUMPDEST SWAP4 SWAP3 POP POP POP JUMP JUMPDEST PUSH1 0x0 PUSH1 0x20 DUP3 ADD SWAP1 POP PUSH2 0x430 PUSH1 0x0 DUP4 ADD DUP5 PUSH2 0x3E3 JUMP JUMPDEST SWAP3 SWAP2 POP POP JUMP JUMPDEST PUSH1 0x0 PUSH1 0x40 DUP3 ADD SWAP1 POP PUSH2 0x44B PUSH1 0x0 DUP4 ADD DUP6 PUSH2 0x3E3 JUMP JUMPDEST PUSH2 0x458 PUSH1 0x20 DUP4 ADD DUP5 PUSH2 0x3D4 JUMP JUMPDEST SWAP4 SWAP3 POP POP POP JUMP JUMPDEST PUSH1 0x0 PUSH2 0x46A DUP3 PUSH2 0x4F3 JUMP JUMPDEST SWAP2 POP PUSH2 0x475 DUP4 PUSH2 0x4F3 JUMP JUMPDEST SWAP3 POP DUP3 PUSH32 0xFFFFFFFFFFFFFFFFFFFFFFFFFFFFFFFFFFFFFFFFFFFFFFFFFFFFFFFFFFFFFFFF SUB DUP3 GT ISZERO PUSH2 0x4AA JUMPI PUSH2 0x4A9 PUSH2 0x4FD JUMP JUMPDEST JUMPDEST DUP3 DUP3 ADD SWAP1 POP SWAP3 SWAP2 POP POP JUMP JUMPDEST PUSH1 0x0 PUSH2 0x4C0 DUP3 PUSH2 0x4D3 JUMP JUMPDEST SWAP1 POP SWAP2 SWAP1 POP JUMP JUMPDEST PUSH1 0x0 DUP2 ISZERO ISZERO SWAP1 POP SWAP2 SWAP1 POP JUMP JUMPDEST PUSH1 0x0 PUSH20 0xFFFFFFFFFFFFFFFFFFFFFFFFFFFFFFFFFFFFFFFF DUP3 AND SWAP1 POP SWAP2 SWAP1 POP JUMP JUMPDEST PUSH1 0x0 DUP2 SWAP1 POP SWAP2 SWAP1 POP JUMP JUMPDEST PUSH32 0x4E487B7100000000000000000000000000000000000000000000000000000000 PUSH1 0x0 MSTORE PUSH1 0x11 PUSH1 0x4 MSTORE PUSH1 0x24 PUSH1 0x0 REVERT JUMPDEST PUSH1 0x0 DUP1 REVERT JUMPDEST PUSH2 0x53A DUP2 PUSH2 0x4B5 JUMP JUMPDEST DUP2 EQ PUSH2 0x545 JUMPI PUSH1 0x0 DUP1 REVERT JUMPDEST POP JUMP INVALID LOG2 PUSH5 0x6970667358 0x22 SLT KECCAK256 LOG3 PUSH15 0x655A6FF4ADE5A06BB15DA01CBF424A 0xB0 0xE3 CALLDATALOAD 0x29 0xA9 0xED MOD INVALID SWAP16 STOP 0xE2 0xC1 KECCAK256 0xD DELEGATECALL PUSH5 0x736F6C6343 STOP ADDMOD SMOD STOP CALLER "
				},
				"gasEstimates": {
					"creation": {
						"codeDepositCost": "281200",
						"executionCost": "318",
						"totalCost": "281518"
					},
					"external": {
						"getBLUByAddr(address)": "5174",
						"getCurTime()": "380",
						"setBlackList(address)": "infinite",
						"unblockUser(address)": "24818"
					}
				},
				"methodIdentifiers": {
					"getBLUByAddr(address)": "169c9de0",
					"getCurTime()": "c0821da3",
					"setBlackList(address)": "72700241",
					"unblockUser(address)": "39d319e5"
				}
			},
			"storageLayout": {
				"storage": [
					{
						"astId": 13,
						"contract": "contracts/Judge.sol:Judge",
						"label": "blackList",
						"offset": 0,
						"slot": "0",
						"type": "t_mapping(t_address,t_struct(BlackListUser)8_storage)"
					}
				],
				"types": {
					"t_address": {
						"encoding": "inplace",
						"label": "address",
						"numberOfBytes": "20"
					},
					"t_bool": {
						"encoding": "inplace",
						"label": "bool",
						"numberOfBytes": "1"
					},
					"t_mapping(t_address,t_struct(BlackListUser)8_storage)": {
						"encoding": "mapping",
						"key": "t_address",
						"label": "mapping(address => struct Judge.BlackListUser)",
						"numberOfBytes": "32",
						"value": "t_struct(BlackListUser)8_storage"
					},
					"t_struct(BlackListUser)8_storage": {
						"encoding": "inplace",
						"label": "struct Judge.BlackListUser",
						"members": [
							{
								"astId": 3,
								"contract": "contracts/Judge.sol:Judge",
								"label": "addr",
								"offset": 0,
								"slot": "0",
								"type": "t_address"
							},
							{
								"astId": 5,
								"contract": "contracts/Judge.sol:Judge",
								"label": "ToLB",
								"offset": 0,
								"slot": "1",
								"type": "t_uint256"
							},
							{
								"astId": 7,
								"contract": "contracts/Judge.sol:Judge",
								"label": "blocked",
								"offset": 0,
								"slot": "2",
								"type": "t_bool"
							}
						],
						"numberOfBytes": "96"
					},
					"t_uint256": {
						"encoding": "inplace",
						"label": "uint256",
						"numberOfBytes": "32"
					}
				}
			},
			"userdoc": {
				"kind": "user",
				"methods": {},
				"version": 1
			}
		}
	}
}