{
	"contracts/Management.sol": {
		"Management": {
			"abi": [
				{
					"inputs": [
						{
							"internalType": "address",
							"name": "_addr",
							"type": "address"
						}
					],
					"name": "getDeviceInfoByAddr",
					"outputs": [
						{
							"components": [
								{
									"internalType": "address",
									"name": "deviceAddr",
									"type": "address"
								},
								{
									"internalType": "string",
									"name": "deviceName",
									"type": "string"
								},
								{
									"internalType": "string",
									"name": "deviceType",
									"type": "string"
								}
							],
							"internalType": "struct Management.DeviceInfo",
							"name": "",
							"type": "tuple"
						}
					],
					"stateMutability": "view",
					"type": "function"
				},
				{
					"inputs": [
						{
							"internalType": "address",
							"name": "_subjectAddr",
							"type": "address"
						},
						{
							"internalType": "address",
							"name": "_objectAddr",
							"type": "address"
						}
					],
					"name": "getRight",
					"outputs": [
						{
							"internalType": "string",
							"name": "",
							"type": "string"
						}
					],
					"stateMutability": "view",
					"type": "function"
				},
				{
					"inputs": [
						{
							"internalType": "address",
							"name": "_deviceAddr",
							"type": "address"
						},
						{
							"internalType": "string",
							"name": "right",
							"type": "string"
						}
					],
					"name": "register4Right",
					"outputs": [],
					"stateMutability": "nonpayable",
					"type": "function"
				},
				{
					"inputs": [
						{
							"internalType": "address",
							"name": "_deviceAddr",
							"type": "address"
						},
						{
							"internalType": "string",
							"name": "_deviceName",
							"type": "string"
						},
						{
							"internalType": "string",
							"name": "_deviceType",
							"type": "string"
						}
					],
					"name": "setDeviceInfo",
					"outputs": [],
					"stateMutability": "nonpayable",
					"type": "function"
				},
				{
					"inputs": [
						{
							"internalType": "string",
							"name": "_subjectName",
							"type": "string"
						},
						{
							"internalType": "string",
							"name": "_ipAddr",
							"type": "string"
						}
					],
					"name": "setSubjInfo",
					"outputs": [],
					"stateMutability": "nonpayable",
					"type": "function"
				},
				{
					"inputs": [
						{
							"internalType": "address",
							"name": "",
							"type": "address"
						}
					],
					"name": "subjInfoMap",
					"outputs": [
						{
							"internalType": "address",
							"name": "subjectAddr",
							"type": "address"
						},
						{
							"internalType": "string",
							"name": "subjectName",
							"type": "string"
						},
						{
							"internalType": "string",
							"name": "ipAddr",
							"type": "string"
						}
					],
					"stateMutability": "view",
					"type": "function"
				}
			],
			"devdoc": {
				"kind": "dev",
				"methods": {},
				"version": 1
			},
			"evm": {
				"assembly": "    /* \"contracts/Management.sol\":68:1800  contract Management {\r... */\n  mstore(0x40, 0x80)\n  callvalue\n  dup1\n  iszero\n  tag_1\n  jumpi\n  0x00\n  dup1\n  revert\ntag_1:\n  pop\n  dataSize(sub_0)\n  dup1\n  dataOffset(sub_0)\n  0x00\n  codecopy\n  0x00\n  return\nstop\n\nsub_0: assembly {\n        /* \"contracts/Management.sol\":68:1800  contract Management {\r... */\n      mstore(0x40, 0x80)\n      callvalue\n      dup1\n      iszero\n      tag_1\n      jumpi\n      0x00\n      dup1\n      revert\n    tag_1:\n      pop\n      jumpi(tag_2, lt(calldatasize, 0x04))\n      shr(0xe0, calldataload(0x00))\n      dup1\n      0x11ef4171\n      eq\n      tag_3\n      jumpi\n      dup1\n      0x6c477035\n      eq\n      tag_4\n      jumpi\n      dup1\n      0x8749774f\n      eq\n      tag_5\n      jumpi\n      dup1\n      0xb9e0ad10\n      eq\n      tag_6\n      jumpi\n      dup1\n      0xde1e23b7\n      eq\n      tag_7\n      jumpi\n      dup1\n      0xf2c3c745\n      eq\n      tag_8\n      jumpi\n    tag_2:\n      0x00\n      dup1\n      revert\n        /* \"contracts/Management.sol\":1387:1615  function register4Right(address _deviceAddr, string memory right) public {\r... */\n    tag_3:\n      tag_9\n      0x04\n      dup1\n      calldatasize\n      sub\n      dup2\n      add\n      swap1\n      tag_10\n      swap2\n      swap1\n      tag_11\n      jump\t// in\n    tag_10:\n      tag_12\n      jump\t// in\n    tag_9:\n      stop\n        /* \"contracts/Management.sol\":583:882  function setDeviceInfo(address _deviceAddr, string memory _deviceName, string memory _deviceType) public {\r... */\n    tag_4:\n      tag_13\n      0x04\n      dup1\n      calldatasize\n      sub\n      dup2\n      add\n      swap1\n      tag_14\n      swap2\n      swap1\n      tag_15\n      jump\t// in\n    tag_14:\n      tag_16\n      jump\t// in\n    tag_13:\n      stop\n        /* \"contracts/Management.sol\":1623:1795  function getRight(address _subjectAddr, address _objectAddr) public view returns (string memory) {\r... */\n    tag_5:\n      tag_17\n      0x04\n      dup1\n      calldatasize\n      sub\n      dup2\n      add\n      swap1\n      tag_18\n      swap2\n      swap1\n      tag_19\n      jump\t// in\n    tag_18:\n      tag_20\n      jump\t// in\n    tag_17:\n      mload(0x40)\n      tag_21\n      swap2\n      swap1\n      tag_22\n      jump\t// in\n    tag_21:\n      mload(0x40)\n      dup1\n      swap2\n      sub\n      swap1\n      return\n        /* \"contracts/Management.sol\":527:574  mapping(address => SubjInfo) public subjInfoMap */\n    tag_6:\n      tag_23\n      0x04\n      dup1\n      calldatasize\n      sub\n      dup2\n      add\n      swap1\n      tag_24\n      swap2\n      swap1\n      tag_25\n      jump\t// in\n    tag_24:\n      tag_26\n      jump\t// in\n    tag_23:\n      mload(0x40)\n      tag_27\n      swap4\n      swap3\n      swap2\n      swap1\n      tag_28\n      jump\t// in\n    tag_27:\n      mload(0x40)\n      dup1\n      swap2\n      sub\n      swap1\n      return\n        /* \"contracts/Management.sol\":890:1020  function getDeviceInfoByAddr(address _addr) public view returns (DeviceInfo memory) {\r... */\n    tag_7:\n      tag_29\n      0x04\n      dup1\n      calldatasize\n      sub\n      dup2\n      add\n      swap1\n      tag_30\n      swap2\n      swap1\n      tag_25\n      jump\t// in\n    tag_30:\n      tag_31\n      jump\t// in\n    tag_29:\n      mload(0x40)\n      tag_32\n      swap2\n      swap1\n      tag_33\n      jump\t// in\n    tag_32:\n      mload(0x40)\n      dup1\n      swap2\n      sub\n      swap1\n      return\n        /* \"contracts/Management.sol\":1028:1338  function setSubjInfo(string memory _subjectName, string memory _ipAddr) public {\r... */\n    tag_8:\n      tag_34\n      0x04\n      dup1\n      calldatasize\n      sub\n      dup2\n      add\n      swap1\n      tag_35\n      swap2\n      swap1\n      tag_36\n      jump\t// in\n    tag_35:\n      tag_37\n      jump\t// in\n    tag_34:\n      stop\n        /* \"contracts/Management.sol\":1387:1615  function register4Right(address _deviceAddr, string memory right) public {\r... */\n    tag_12:\n        /* \"contracts/Management.sol\":1602:1607  right */\n      dup1\n        /* \"contracts/Management.sol\":1552:1563  subjInfoMap */\n      0x01\n        /* \"contracts/Management.sol\":1552:1575  subjInfoMap[msg.sender] */\n      0x00\n        /* \"contracts/Management.sol\":1564:1574  msg.sender */\n      caller\n        /* \"contracts/Management.sol\":1552:1575  subjInfoMap[msg.sender] */\n      0xffffffffffffffffffffffffffffffffffffffff\n      and\n      0xffffffffffffffffffffffffffffffffffffffff\n      and\n      dup2\n      mstore\n      0x20\n      add\n      swap1\n      dup2\n      mstore\n      0x20\n      add\n      0x00\n      keccak256\n        /* \"contracts/Management.sol\":1552:1586  subjInfoMap[msg.sender].rightTable */\n      0x02\n      add\n        /* \"contracts/Management.sol\":1552:1599  subjInfoMap[msg.sender].rightTable[_deviceAddr] */\n      0x00\n        /* \"contracts/Management.sol\":1587:1598  _deviceAddr */\n      dup5\n        /* \"contracts/Management.sol\":1552:1599  subjInfoMap[msg.sender].rightTable[_deviceAddr] */\n      0xffffffffffffffffffffffffffffffffffffffff\n      and\n      0xffffffffffffffffffffffffffffffffffffffff\n      and\n      dup2\n      mstore\n      0x20\n      add\n      swap1\n      dup2\n      mstore\n      0x20\n      add\n      0x00\n      keccak256\n        /* \"contracts/Management.sol\":1552:1607  subjInfoMap[msg.sender].rightTable[_deviceAddr] = right */\n      swap1\n      dup1\n      mload\n      swap1\n      0x20\n      add\n      swap1\n      tag_39\n      swap3\n      swap2\n      swap1\n      tag_40\n      jump\t// in\n    tag_39:\n      pop\n        /* \"contracts/Management.sol\":1387:1615  function register4Right(address _deviceAddr, string memory right) public {\r... */\n      pop\n      pop\n      jump\t// out\n        /* \"contracts/Management.sol\":583:882  function setDeviceInfo(address _deviceAddr, string memory _deviceName, string memory _deviceType) public {\r... */\n    tag_16:\n        /* \"contracts/Management.sol\":739:750  _deviceAddr */\n      dup3\n        /* \"contracts/Management.sol\":699:712  deviceInfoMap */\n      0x00\n        /* \"contracts/Management.sol\":699:725  deviceInfoMap[_deviceAddr] */\n      dup1\n        /* \"contracts/Management.sol\":713:724  _deviceAddr */\n      dup6\n        /* \"contracts/Management.sol\":699:725  deviceInfoMap[_deviceAddr] */\n      0xffffffffffffffffffffffffffffffffffffffff\n      and\n      0xffffffffffffffffffffffffffffffffffffffff\n      and\n      dup2\n      mstore\n      0x20\n      add\n      swap1\n      dup2\n      mstore\n      0x20\n      add\n      0x00\n      keccak256\n        /* \"contracts/Management.sol\":699:736  deviceInfoMap[_deviceAddr].deviceAddr */\n      0x00\n      add\n      0x00\n        /* \"contracts/Management.sol\":699:750  deviceInfoMap[_deviceAddr].deviceAddr = _deviceAddr */\n      0x0100\n      exp\n      dup2\n      sload\n      dup2\n      0xffffffffffffffffffffffffffffffffffffffff\n      mul\n      not\n      and\n      swap1\n      dup4\n      0xffffffffffffffffffffffffffffffffffffffff\n      and\n      mul\n      or\n      swap1\n      sstore\n      pop\n        /* \"contracts/Management.sol\":801:812  _deviceName */\n      dup2\n        /* \"contracts/Management.sol\":761:774  deviceInfoMap */\n      0x00\n        /* \"contracts/Management.sol\":761:787  deviceInfoMap[_deviceAddr] */\n      dup1\n        /* \"contracts/Management.sol\":775:786  _deviceAddr */\n      dup6\n        /* \"contracts/Management.sol\":761:787  deviceInfoMap[_deviceAddr] */\n      0xffffffffffffffffffffffffffffffffffffffff\n      and\n      0xffffffffffffffffffffffffffffffffffffffff\n      and\n      dup2\n      mstore\n      0x20\n      add\n      swap1\n      dup2\n      mstore\n      0x20\n      add\n      0x00\n      keccak256\n        /* \"contracts/Management.sol\":761:798  deviceInfoMap[_deviceAddr].deviceName */\n      0x01\n      add\n        /* \"contracts/Management.sol\":761:812  deviceInfoMap[_deviceAddr].deviceName = _deviceName */\n      swap1\n      dup1\n      mload\n      swap1\n      0x20\n      add\n      swap1\n      tag_42\n      swap3\n      swap2\n      swap1\n      tag_40\n      jump\t// in\n    tag_42:\n      pop\n        /* \"contracts/Management.sol\":863:874  _deviceType */\n      dup1\n        /* \"contracts/Management.sol\":823:836  deviceInfoMap */\n      0x00\n        /* \"contracts/Management.sol\":823:849  deviceInfoMap[_deviceAddr] */\n      dup1\n        /* \"contracts/Management.sol\":837:848  _deviceAddr */\n      dup6\n        /* \"contracts/Management.sol\":823:849  deviceInfoMap[_deviceAddr] */\n      0xffffffffffffffffffffffffffffffffffffffff\n      and\n      0xffffffffffffffffffffffffffffffffffffffff\n      and\n      dup2\n      mstore\n      0x20\n      add\n      swap1\n      dup2\n      mstore\n      0x20\n      add\n      0x00\n      keccak256\n        /* \"contracts/Management.sol\":823:860  deviceInfoMap[_deviceAddr].deviceType */\n      0x02\n      add\n        /* \"contracts/Management.sol\":823:874  deviceInfoMap[_deviceAddr].deviceType = _deviceType */\n      swap1\n      dup1\n      mload\n      swap1\n      0x20\n      add\n      swap1\n      tag_43\n      swap3\n      swap2\n      swap1\n      tag_40\n      jump\t// in\n    tag_43:\n      pop\n        /* \"contracts/Management.sol\":583:882  function setDeviceInfo(address _deviceAddr, string memory _deviceName, string memory _deviceType) public {\r... */\n      pop\n      pop\n      pop\n      jump\t// out\n        /* \"contracts/Management.sol\":1623:1795  function getRight(address _subjectAddr, address _objectAddr) public view returns (string memory) {\r... */\n    tag_20:\n        /* \"contracts/Management.sol\":1705:1718  string memory */\n      0x60\n        /* \"contracts/Management.sol\":1738:1749  subjInfoMap */\n      0x01\n        /* \"contracts/Management.sol\":1738:1763  subjInfoMap[_subjectAddr] */\n      0x00\n        /* \"contracts/Management.sol\":1750:1762  _subjectAddr */\n      dup5\n        /* \"contracts/Management.sol\":1738:1763  subjInfoMap[_subjectAddr] */\n      0xffffffffffffffffffffffffffffffffffffffff\n      and\n      0xffffffffffffffffffffffffffffffffffffffff\n      and\n      dup2\n      mstore\n      0x20\n      add\n      swap1\n      dup2\n      mstore\n      0x20\n      add\n      0x00\n      keccak256\n        /* \"contracts/Management.sol\":1738:1774  subjInfoMap[_subjectAddr].rightTable */\n      0x02\n      add\n        /* \"contracts/Management.sol\":1738:1787  subjInfoMap[_subjectAddr].rightTable[_objectAddr] */\n      0x00\n        /* \"contracts/Management.sol\":1775:1786  _objectAddr */\n      dup4\n        /* \"contracts/Management.sol\":1738:1787  subjInfoMap[_subjectAddr].rightTable[_objectAddr] */\n      0xffffffffffffffffffffffffffffffffffffffff\n      and\n      0xffffffffffffffffffffffffffffffffffffffff\n      and\n      dup2\n      mstore\n      0x20\n      add\n      swap1\n      dup2\n      mstore\n      0x20\n      add\n      0x00\n      keccak256\n        /* \"contracts/Management.sol\":1731:1787  return subjInfoMap[_subjectAddr].rightTable[_objectAddr] */\n      dup1\n      sload\n      tag_45\n      swap1\n      tag_46\n      jump\t// in\n    tag_45:\n      dup1\n      0x1f\n      add\n      0x20\n      dup1\n      swap2\n      div\n      mul\n      0x20\n      add\n      mload(0x40)\n      swap1\n      dup2\n      add\n      0x40\n      mstore\n      dup1\n      swap3\n      swap2\n      swap1\n      dup2\n      dup2\n      mstore\n      0x20\n      add\n      dup3\n      dup1\n      sload\n      tag_47\n      swap1\n      tag_46\n      jump\t// in\n    tag_47:\n      dup1\n      iszero\n      tag_48\n      jumpi\n      dup1\n      0x1f\n      lt\n      tag_49\n      jumpi\n      0x0100\n      dup1\n      dup4\n      sload\n      div\n      mul\n      dup4\n      mstore\n      swap2\n      0x20\n      add\n      swap2\n      jump(tag_48)\n    tag_49:\n      dup3\n      add\n      swap2\n      swap1\n      0x00\n      mstore\n      keccak256(0x00, 0x20)\n      swap1\n    tag_50:\n      dup2\n      sload\n      dup2\n      mstore\n      swap1\n      0x01\n      add\n      swap1\n      0x20\n      add\n      dup1\n      dup4\n      gt\n      tag_50\n      jumpi\n      dup3\n      swap1\n      sub\n      0x1f\n      and\n      dup3\n      add\n      swap2\n    tag_48:\n      pop\n      pop\n      pop\n      pop\n      pop\n      swap1\n      pop\n        /* \"contracts/Management.sol\":1623:1795  function getRight(address _subjectAddr, address _objectAddr) public view returns (string memory) {\r... */\n      swap3\n      swap2\n      pop\n      pop\n      jump\t// out\n        /* \"contracts/Management.sol\":527:574  mapping(address => SubjInfo) public subjInfoMap */\n    tag_26:\n      mstore(0x20, 0x01)\n      dup1\n      0x00\n      mstore\n      keccak256(0x00, 0x40)\n      0x00\n      swap2\n      pop\n      swap1\n      pop\n      dup1\n      0x00\n      add\n      0x00\n      swap1\n      sload\n      swap1\n      0x0100\n      exp\n      swap1\n      div\n      0xffffffffffffffffffffffffffffffffffffffff\n      and\n      swap1\n      dup1\n      0x01\n      add\n      dup1\n      sload\n      tag_51\n      swap1\n      tag_46\n      jump\t// in\n    tag_51:\n      dup1\n      0x1f\n      add\n      0x20\n      dup1\n      swap2\n      div\n      mul\n      0x20\n      add\n      mload(0x40)\n      swap1\n      dup2\n      add\n      0x40\n      mstore\n      dup1\n      swap3\n      swap2\n      swap1\n      dup2\n      dup2\n      mstore\n      0x20\n      add\n      dup3\n      dup1\n      sload\n      tag_52\n      swap1\n      tag_46\n      jump\t// in\n    tag_52:\n      dup1\n      iszero\n      tag_53\n      jumpi\n      dup1\n      0x1f\n      lt\n      tag_54\n      jumpi\n      0x0100\n      dup1\n      dup4\n      sload\n      div\n      mul\n      dup4\n      mstore\n      swap2\n      0x20\n      add\n      swap2\n      jump(tag_53)\n    tag_54:\n      dup3\n      add\n      swap2\n      swap1\n      0x00\n      mstore\n      keccak256(0x00, 0x20)\n      swap1\n    tag_55:\n      dup2\n      sload\n      dup2\n      mstore\n      swap1\n      0x01\n      add\n      swap1\n      0x20\n      add\n      dup1\n      dup4\n      gt\n      tag_55\n      jumpi\n      dup3\n      swap1\n      sub\n      0x1f\n      and\n      dup3\n      add\n      swap2\n    tag_53:\n      pop\n      pop\n      pop\n      pop\n      pop\n      swap1\n      dup1\n      0x03\n      add\n      dup1\n      sload\n      tag_56\n      swap1\n      tag_46\n      jump\t// in\n    tag_56:\n      dup1\n      0x1f\n      add\n      0x20\n      dup1\n      swap2\n      div\n      mul\n      0x20\n      add\n      mload(0x40)\n      swap1\n      dup2\n      add\n      0x40\n      mstore\n      dup1\n      swap3\n      swap2\n      swap1\n      dup2\n      dup2\n      mstore\n      0x20\n      add\n      dup3\n      dup1\n      sload\n      tag_57\n      swap1\n      tag_46\n      jump\t// in\n    tag_57:\n      dup1\n      iszero\n      tag_58\n      jumpi\n      dup1\n      0x1f\n      lt\n      tag_59\n      jumpi\n      0x0100\n      dup1\n      dup4\n      sload\n      div\n      mul\n      dup4\n      mstore\n      swap2\n      0x20\n      add\n      swap2\n      jump(tag_58)\n    tag_59:\n      dup3\n      add\n      swap2\n      swap1\n      0x00\n      mstore\n      keccak256(0x00, 0x20)\n      swap1\n    tag_60:\n      dup2\n      sload\n      dup2\n      mstore\n      swap1\n      0x01\n      add\n      swap1\n      0x20\n      add\n      dup1\n      dup4\n      gt\n      tag_60\n      jumpi\n      dup3\n      swap1\n      sub\n      0x1f\n      and\n      dup3\n      add\n      swap2\n    tag_58:\n      pop\n      pop\n      pop\n      pop\n      pop\n      swap1\n      pop\n      dup4\n      jump\t// out\n        /* \"contracts/Management.sol\":890:1020  function getDeviceInfoByAddr(address _addr) public view returns (DeviceInfo memory) {\r... */\n    tag_31:\n        /* \"contracts/Management.sol\":955:972  DeviceInfo memory */\n      tag_61\n      tag_62\n      jump\t// in\n    tag_61:\n        /* \"contracts/Management.sol\":992:1005  deviceInfoMap */\n      0x00\n        /* \"contracts/Management.sol\":992:1012  deviceInfoMap[_addr] */\n      dup1\n        /* \"contracts/Management.sol\":1006:1011  _addr */\n      dup4\n        /* \"contracts/Management.sol\":992:1012  deviceInfoMap[_addr] */\n      0xffffffffffffffffffffffffffffffffffffffff\n      and\n      0xffffffffffffffffffffffffffffffffffffffff\n      and\n      dup2\n      mstore\n      0x20\n      add\n      swap1\n      dup2\n      mstore\n      0x20\n      add\n      0x00\n      keccak256\n        /* \"contracts/Management.sol\":985:1012  return deviceInfoMap[_addr] */\n      mload(0x40)\n      dup1\n      0x60\n      add\n      0x40\n      mstore\n      swap1\n      dup2\n      0x00\n      dup3\n      add\n      0x00\n      swap1\n      sload\n      swap1\n      0x0100\n      exp\n      swap1\n      div\n      0xffffffffffffffffffffffffffffffffffffffff\n      and\n      0xffffffffffffffffffffffffffffffffffffffff\n      and\n      0xffffffffffffffffffffffffffffffffffffffff\n      and\n      dup2\n      mstore\n      0x20\n      add\n      0x01\n      dup3\n      add\n      dup1\n      sload\n      tag_64\n      swap1\n      tag_46\n      jump\t// in\n    tag_64:\n      dup1\n      0x1f\n      add\n      0x20\n      dup1\n      swap2\n      div\n      mul\n      0x20\n      add\n      mload(0x40)\n      swap1\n      dup2\n      add\n      0x40\n      mstore\n      dup1\n      swap3\n      swap2\n      swap1\n      dup2\n      dup2\n      mstore\n      0x20\n      add\n      dup3\n      dup1\n      sload\n      tag_65\n      swap1\n      tag_46\n      jump\t// in\n    tag_65:\n      dup1\n      iszero\n      tag_66\n      jumpi\n      dup1\n      0x1f\n      lt\n      tag_67\n      jumpi\n      0x0100\n      dup1\n      dup4\n      sload\n      div\n      mul\n      dup4\n      mstore\n      swap2\n      0x20\n      add\n      swap2\n      jump(tag_66)\n    tag_67:\n      dup3\n      add\n      swap2\n      swap1\n      0x00\n      mstore\n      keccak256(0x00, 0x20)\n      swap1\n    tag_68:\n      dup2\n      sload\n      dup2\n      mstore\n      swap1\n      0x01\n      add\n      swap1\n      0x20\n      add\n      dup1\n      dup4\n      gt\n      tag_68\n      jumpi\n      dup3\n      swap1\n      sub\n      0x1f\n      and\n      dup3\n      add\n      swap2\n    tag_66:\n      pop\n      pop\n      pop\n      pop\n      pop\n      dup2\n      mstore\n      0x20\n      add\n      0x02\n      dup3\n      add\n      dup1\n      sload\n      tag_69\n      swap1\n      tag_46\n      jump\t// in\n    tag_69:\n      dup1\n      0x1f\n      add\n      0x20\n      dup1\n      swap2\n      div\n      mul\n      0x20\n      add\n      mload(0x40)\n      swap1\n      dup2\n      add\n      0x40\n      mstore\n      dup1\n      swap3\n      swap2\n      swap1\n      dup2\n      dup2\n      mstore\n      0x20\n      add\n      dup3\n      dup1\n      sload\n      tag_70\n      swap1\n      tag_46\n      jump\t// in\n    tag_70:\n      dup1\n      iszero\n      tag_71\n      jumpi\n      dup1\n      0x1f\n      lt\n      tag_72\n      jumpi\n      0x0100\n      dup1\n      dup4\n      sload\n      div\n      mul\n      dup4\n      mstore\n      swap2\n      0x20\n      add\n      swap2\n      jump(tag_71)\n    tag_72:\n      dup3\n      add\n      swap2\n      swap1\n      0x00\n      mstore\n      keccak256(0x00, 0x20)\n      swap1\n    tag_73:\n      dup2\n      sload\n      dup2\n      mstore\n      swap1\n      0x01\n      add\n      swap1\n      0x20\n      add\n      dup1\n      dup4\n      gt\n      tag_73\n      jumpi\n      dup3\n      swap1\n      sub\n      0x1f\n      and\n      dup3\n      add\n      swap2\n    tag_71:\n      pop\n      pop\n      pop\n      pop\n      pop\n      dup2\n      mstore\n      pop\n      pop\n      swap1\n      pop\n        /* \"contracts/Management.sol\":890:1020  function getDeviceInfoByAddr(address _addr) public view returns (DeviceInfo memory) {\r... */\n      swap2\n      swap1\n      pop\n      jump\t// out\n        /* \"contracts/Management.sol\":1028:1338  function setSubjInfo(string memory _subjectName, string memory _ipAddr) public {\r... */\n    tag_37:\n        /* \"contracts/Management.sol\":1118:1138  address _subjectAddr */\n      0x00\n        /* \"contracts/Management.sol\":1141:1151  msg.sender */\n      caller\n        /* \"contracts/Management.sol\":1118:1151  address _subjectAddr = msg.sender */\n      swap1\n      pop\n        /* \"contracts/Management.sol\":1202:1214  _subjectAddr */\n      dup1\n        /* \"contracts/Management.sol\":1162:1173  subjInfoMap */\n      0x01\n        /* \"contracts/Management.sol\":1162:1187  subjInfoMap[_subjectAddr] */\n      0x00\n        /* \"contracts/Management.sol\":1174:1186  _subjectAddr */\n      dup4\n        /* \"contracts/Management.sol\":1162:1187  subjInfoMap[_subjectAddr] */\n      0xffffffffffffffffffffffffffffffffffffffff\n      and\n      0xffffffffffffffffffffffffffffffffffffffff\n      and\n      dup2\n      mstore\n      0x20\n      add\n      swap1\n      dup2\n      mstore\n      0x20\n      add\n      0x00\n      keccak256\n        /* \"contracts/Management.sol\":1162:1199  subjInfoMap[_subjectAddr].subjectAddr */\n      0x00\n      add\n      0x00\n        /* \"contracts/Management.sol\":1162:1214  subjInfoMap[_subjectAddr].subjectAddr = _subjectAddr */\n      0x0100\n      exp\n      dup2\n      sload\n      dup2\n      0xffffffffffffffffffffffffffffffffffffffff\n      mul\n      not\n      and\n      swap1\n      dup4\n      0xffffffffffffffffffffffffffffffffffffffff\n      and\n      mul\n      or\n      swap1\n      sstore\n      pop\n        /* \"contracts/Management.sol\":1265:1277  _subjectName */\n      dup3\n        /* \"contracts/Management.sol\":1225:1236  subjInfoMap */\n      0x01\n        /* \"contracts/Management.sol\":1225:1250  subjInfoMap[_subjectAddr] */\n      0x00\n        /* \"contracts/Management.sol\":1237:1249  _subjectAddr */\n      dup4\n        /* \"contracts/Management.sol\":1225:1250  subjInfoMap[_subjectAddr] */\n      0xffffffffffffffffffffffffffffffffffffffff\n      and\n      0xffffffffffffffffffffffffffffffffffffffff\n      and\n      dup2\n      mstore\n      0x20\n      add\n      swap1\n      dup2\n      mstore\n      0x20\n      add\n      0x00\n      keccak256\n        /* \"contracts/Management.sol\":1225:1262  subjInfoMap[_subjectAddr].subjectName */\n      0x01\n      add\n        /* \"contracts/Management.sol\":1225:1277  subjInfoMap[_subjectAddr].subjectName = _subjectName */\n      swap1\n      dup1\n      mload\n      swap1\n      0x20\n      add\n      swap1\n      tag_75\n      swap3\n      swap2\n      swap1\n      tag_40\n      jump\t// in\n    tag_75:\n      pop\n        /* \"contracts/Management.sol\":1323:1330  _ipAddr */\n      dup2\n        /* \"contracts/Management.sol\":1288:1299  subjInfoMap */\n      0x01\n        /* \"contracts/Management.sol\":1288:1313  subjInfoMap[_subjectAddr] */\n      0x00\n        /* \"contracts/Management.sol\":1300:1312  _subjectAddr */\n      dup4\n        /* \"contracts/Management.sol\":1288:1313  subjInfoMap[_subjectAddr] */\n      0xffffffffffffffffffffffffffffffffffffffff\n      and\n      0xffffffffffffffffffffffffffffffffffffffff\n      and\n      dup2\n      mstore\n      0x20\n      add\n      swap1\n      dup2\n      mstore\n      0x20\n      add\n      0x00\n      keccak256\n        /* \"contracts/Management.sol\":1288:1320  subjInfoMap[_subjectAddr].ipAddr */\n      0x03\n      add\n        /* \"contracts/Management.sol\":1288:1330  subjInfoMap[_subjectAddr].ipAddr = _ipAddr */\n      swap1\n      dup1\n      mload\n      swap1\n      0x20\n      add\n      swap1\n      tag_76\n      swap3\n      swap2\n      swap1\n      tag_40\n      jump\t// in\n    tag_76:\n      pop\n        /* \"contracts/Management.sol\":1107:1338  {\r... */\n      pop\n        /* \"contracts/Management.sol\":1028:1338  function setSubjInfo(string memory _subjectName, string memory _ipAddr) public {\r... */\n      pop\n      pop\n      jump\t// out\n    tag_40:\n      dup3\n      dup1\n      sload\n      tag_77\n      swap1\n      tag_46\n      jump\t// in\n    tag_77:\n      swap1\n      0x00\n      mstore\n      keccak256(0x00, 0x20)\n      swap1\n      0x1f\n      add\n      0x20\n      swap1\n      div\n      dup2\n      add\n      swap3\n      dup3\n      tag_79\n      jumpi\n      0x00\n      dup6\n      sstore\n      jump(tag_78)\n    tag_79:\n      dup3\n      0x1f\n      lt\n      tag_80\n      jumpi\n      dup1\n      mload\n      not(0xff)\n      and\n      dup4\n      dup1\n      add\n      or\n      dup6\n      sstore\n      jump(tag_78)\n    tag_80:\n      dup3\n      dup1\n      add\n      0x01\n      add\n      dup6\n      sstore\n      dup3\n      iszero\n      tag_78\n      jumpi\n      swap2\n      dup3\n      add\n    tag_81:\n      dup3\n      dup2\n      gt\n      iszero\n      tag_82\n      jumpi\n      dup3\n      mload\n      dup3\n      sstore\n      swap2\n      0x20\n      add\n      swap2\n      swap1\n      0x01\n      add\n      swap1\n      jump(tag_81)\n    tag_82:\n    tag_78:\n      pop\n      swap1\n      pop\n      tag_83\n      swap2\n      swap1\n      tag_84\n      jump\t// in\n    tag_83:\n      pop\n      swap1\n      jump\t// out\n    tag_62:\n      mload(0x40)\n      dup1\n      0x60\n      add\n      0x40\n      mstore\n      dup1\n      and(0xffffffffffffffffffffffffffffffffffffffff, 0x00)\n      dup2\n      mstore\n      0x20\n      add\n      0x60\n      dup2\n      mstore\n      0x20\n      add\n      0x60\n      dup2\n      mstore\n      pop\n      swap1\n      jump\t// out\n    tag_84:\n    tag_85:\n      dup1\n      dup3\n      gt\n      iszero\n      tag_86\n      jumpi\n      0x00\n      dup2\n      0x00\n      swap1\n      sstore\n      pop\n      0x01\n      add\n      jump(tag_85)\n    tag_86:\n      pop\n      swap1\n      jump\t// out\n        /* \"#utility.yul\":7:419   */\n    tag_88:\n        /* \"#utility.yul\":85:90   */\n      0x00\n        /* \"#utility.yul\":110:176   */\n      tag_90\n        /* \"#utility.yul\":126:175   */\n      tag_91\n        /* \"#utility.yul\":168:174   */\n      dup5\n        /* \"#utility.yul\":126:175   */\n      tag_92\n      jump\t// in\n    tag_91:\n        /* \"#utility.yul\":110:176   */\n      tag_93\n      jump\t// in\n    tag_90:\n        /* \"#utility.yul\":101:176   */\n      swap1\n      pop\n        /* \"#utility.yul\":199:205   */\n      dup3\n        /* \"#utility.yul\":192:197   */\n      dup2\n        /* \"#utility.yul\":185:206   */\n      mstore\n        /* \"#utility.yul\":237:241   */\n      0x20\n        /* \"#utility.yul\":230:235   */\n      dup2\n        /* \"#utility.yul\":226:242   */\n      add\n        /* \"#utility.yul\":275:278   */\n      dup5\n        /* \"#utility.yul\":266:272   */\n      dup5\n        /* \"#utility.yul\":261:264   */\n      dup5\n        /* \"#utility.yul\":257:273   */\n      add\n        /* \"#utility.yul\":254:279   */\n      gt\n        /* \"#utility.yul\":251:363   */\n      iszero\n      tag_94\n      jumpi\n        /* \"#utility.yul\":282:361   */\n      tag_95\n      tag_96\n      jump\t// in\n    tag_95:\n        /* \"#utility.yul\":251:363   */\n    tag_94:\n        /* \"#utility.yul\":372:413   */\n      tag_97\n        /* \"#utility.yul\":406:412   */\n      dup5\n        /* \"#utility.yul\":401:404   */\n      dup3\n        /* \"#utility.yul\":396:399   */\n      dup6\n        /* \"#utility.yul\":372:413   */\n      tag_98\n      jump\t// in\n    tag_97:\n        /* \"#utility.yul\":91:419   */\n      pop\n        /* \"#utility.yul\":7:419   */\n      swap4\n      swap3\n      pop\n      pop\n      pop\n      jump\t// out\n        /* \"#utility.yul\":425:564   */\n    tag_99:\n        /* \"#utility.yul\":471:476   */\n      0x00\n        /* \"#utility.yul\":509:515   */\n      dup2\n        /* \"#utility.yul\":496:516   */\n      calldataload\n        /* \"#utility.yul\":487:516   */\n      swap1\n      pop\n        /* \"#utility.yul\":525:558   */\n      tag_101\n        /* \"#utility.yul\":552:557   */\n      dup2\n        /* \"#utility.yul\":525:558   */\n      tag_102\n      jump\t// in\n    tag_101:\n        /* \"#utility.yul\":425:564   */\n      swap3\n      swap2\n      pop\n      pop\n      jump\t// out\n        /* \"#utility.yul\":584:924   */\n    tag_103:\n        /* \"#utility.yul\":640:645   */\n      0x00\n        /* \"#utility.yul\":689:692   */\n      dup3\n        /* \"#utility.yul\":682:686   */\n      0x1f\n        /* \"#utility.yul\":674:680   */\n      dup4\n        /* \"#utility.yul\":670:687   */\n      add\n        /* \"#utility.yul\":666:693   */\n      slt\n        /* \"#utility.yul\":656:778   */\n      tag_105\n      jumpi\n        /* \"#utility.yul\":697:776   */\n      tag_106\n      tag_107\n      jump\t// in\n    tag_106:\n        /* \"#utility.yul\":656:778   */\n    tag_105:\n        /* \"#utility.yul\":814:820   */\n      dup2\n        /* \"#utility.yul\":801:821   */\n      calldataload\n        /* \"#utility.yul\":839:918   */\n      tag_108\n        /* \"#utility.yul\":914:917   */\n      dup5\n        /* \"#utility.yul\":906:912   */\n      dup3\n        /* \"#utility.yul\":899:903   */\n      0x20\n        /* \"#utility.yul\":891:897   */\n      dup7\n        /* \"#utility.yul\":887:904   */\n      add\n        /* \"#utility.yul\":839:918   */\n      tag_88\n      jump\t// in\n    tag_108:\n        /* \"#utility.yul\":830:918   */\n      swap2\n      pop\n        /* \"#utility.yul\":646:924   */\n      pop\n        /* \"#utility.yul\":584:924   */\n      swap3\n      swap2\n      pop\n      pop\n      jump\t// out\n        /* \"#utility.yul\":930:1259   */\n    tag_25:\n        /* \"#utility.yul\":989:995   */\n      0x00\n        /* \"#utility.yul\":1038:1040   */\n      0x20\n        /* \"#utility.yul\":1026:1035   */\n      dup3\n        /* \"#utility.yul\":1017:1024   */\n      dup5\n        /* \"#utility.yul\":1013:1036   */\n      sub\n        /* \"#utility.yul\":1009:1041   */\n      slt\n        /* \"#utility.yul\":1006:1125   */\n      iszero\n      tag_110\n      jumpi\n        /* \"#utility.yul\":1044:1123   */\n      tag_111\n      tag_112\n      jump\t// in\n    tag_111:\n        /* \"#utility.yul\":1006:1125   */\n    tag_110:\n        /* \"#utility.yul\":1164:1165   */\n      0x00\n        /* \"#utility.yul\":1189:1242   */\n      tag_113\n        /* \"#utility.yul\":1234:1241   */\n      dup5\n        /* \"#utility.yul\":1225:1231   */\n      dup3\n        /* \"#utility.yul\":1214:1223   */\n      dup6\n        /* \"#utility.yul\":1210:1232   */\n      add\n        /* \"#utility.yul\":1189:1242   */\n      tag_99\n      jump\t// in\n    tag_113:\n        /* \"#utility.yul\":1179:1242   */\n      swap2\n      pop\n        /* \"#utility.yul\":1135:1252   */\n      pop\n        /* \"#utility.yul\":930:1259   */\n      swap3\n      swap2\n      pop\n      pop\n      jump\t// out\n        /* \"#utility.yul\":1265:1739   */\n    tag_19:\n        /* \"#utility.yul\":1333:1339   */\n      0x00\n        /* \"#utility.yul\":1341:1347   */\n      dup1\n        /* \"#utility.yul\":1390:1392   */\n      0x40\n        /* \"#utility.yul\":1378:1387   */\n      dup4\n        /* \"#utility.yul\":1369:1376   */\n      dup6\n        /* \"#utility.yul\":1365:1388   */\n      sub\n        /* \"#utility.yul\":1361:1393   */\n      slt\n        /* \"#utility.yul\":1358:1477   */\n      iszero\n      tag_115\n      jumpi\n        /* \"#utility.yul\":1396:1475   */\n      tag_116\n      tag_112\n      jump\t// in\n    tag_116:\n        /* \"#utility.yul\":1358:1477   */\n    tag_115:\n        /* \"#utility.yul\":1516:1517   */\n      0x00\n        /* \"#utility.yul\":1541:1594   */\n      tag_117\n        /* \"#utility.yul\":1586:1593   */\n      dup6\n        /* \"#utility.yul\":1577:1583   */\n      dup3\n        /* \"#utility.yul\":1566:1575   */\n      dup7\n        /* \"#utility.yul\":1562:1584   */\n      add\n        /* \"#utility.yul\":1541:1594   */\n      tag_99\n      jump\t// in\n    tag_117:\n        /* \"#utility.yul\":1531:1594   */\n      swap3\n      pop\n        /* \"#utility.yul\":1487:1604   */\n      pop\n        /* \"#utility.yul\":1643:1645   */\n      0x20\n        /* \"#utility.yul\":1669:1722   */\n      tag_118\n        /* \"#utility.yul\":1714:1721   */\n      dup6\n        /* \"#utility.yul\":1705:1711   */\n      dup3\n        /* \"#utility.yul\":1694:1703   */\n      dup7\n        /* \"#utility.yul\":1690:1712   */\n      add\n        /* \"#utility.yul\":1669:1722   */\n      tag_99\n      jump\t// in\n    tag_118:\n        /* \"#utility.yul\":1659:1722   */\n      swap2\n      pop\n        /* \"#utility.yul\":1614:1732   */\n      pop\n        /* \"#utility.yul\":1265:1739   */\n      swap3\n      pop\n      swap3\n      swap1\n      pop\n      jump\t// out\n        /* \"#utility.yul\":1745:2399   */\n    tag_11:\n        /* \"#utility.yul\":1823:1829   */\n      0x00\n        /* \"#utility.yul\":1831:1837   */\n      dup1\n        /* \"#utility.yul\":1880:1882   */\n      0x40\n        /* \"#utility.yul\":1868:1877   */\n      dup4\n        /* \"#utility.yul\":1859:1866   */\n      dup6\n        /* \"#utility.yul\":1855:1878   */\n      sub\n        /* \"#utility.yul\":1851:1883   */\n      slt\n        /* \"#utility.yul\":1848:1967   */\n      iszero\n      tag_120\n      jumpi\n        /* \"#utility.yul\":1886:1965   */\n      tag_121\n      tag_112\n      jump\t// in\n    tag_121:\n        /* \"#utility.yul\":1848:1967   */\n    tag_120:\n        /* \"#utility.yul\":2006:2007   */\n      0x00\n        /* \"#utility.yul\":2031:2084   */\n      tag_122\n        /* \"#utility.yul\":2076:2083   */\n      dup6\n        /* \"#utility.yul\":2067:2073   */\n      dup3\n        /* \"#utility.yul\":2056:2065   */\n      dup7\n        /* \"#utility.yul\":2052:2074   */\n      add\n        /* \"#utility.yul\":2031:2084   */\n      tag_99\n      jump\t// in\n    tag_122:\n        /* \"#utility.yul\":2021:2084   */\n      swap3\n      pop\n        /* \"#utility.yul\":1977:2094   */\n      pop\n        /* \"#utility.yul\":2161:2163   */\n      0x20\n        /* \"#utility.yul\":2150:2159   */\n      dup4\n        /* \"#utility.yul\":2146:2164   */\n      add\n        /* \"#utility.yul\":2133:2165   */\n      calldataload\n        /* \"#utility.yul\":2192:2210   */\n      0xffffffffffffffff\n        /* \"#utility.yul\":2184:2190   */\n      dup2\n        /* \"#utility.yul\":2181:2211   */\n      gt\n        /* \"#utility.yul\":2178:2295   */\n      iszero\n      tag_123\n      jumpi\n        /* \"#utility.yul\":2214:2293   */\n      tag_124\n      tag_125\n      jump\t// in\n    tag_124:\n        /* \"#utility.yul\":2178:2295   */\n    tag_123:\n        /* \"#utility.yul\":2319:2382   */\n      tag_126\n        /* \"#utility.yul\":2374:2381   */\n      dup6\n        /* \"#utility.yul\":2365:2371   */\n      dup3\n        /* \"#utility.yul\":2354:2363   */\n      dup7\n        /* \"#utility.yul\":2350:2372   */\n      add\n        /* \"#utility.yul\":2319:2382   */\n      tag_103\n      jump\t// in\n    tag_126:\n        /* \"#utility.yul\":2309:2382   */\n      swap2\n      pop\n        /* \"#utility.yul\":2104:2392   */\n      pop\n        /* \"#utility.yul\":1745:2399   */\n      swap3\n      pop\n      swap3\n      swap1\n      pop\n      jump\t// out\n        /* \"#utility.yul\":2405:3384   */\n    tag_15:\n        /* \"#utility.yul\":2502:2508   */\n      0x00\n        /* \"#utility.yul\":2510:2516   */\n      dup1\n        /* \"#utility.yul\":2518:2524   */\n      0x00\n        /* \"#utility.yul\":2567:2569   */\n      0x60\n        /* \"#utility.yul\":2555:2564   */\n      dup5\n        /* \"#utility.yul\":2546:2553   */\n      dup7\n        /* \"#utility.yul\":2542:2565   */\n      sub\n        /* \"#utility.yul\":2538:2570   */\n      slt\n        /* \"#utility.yul\":2535:2654   */\n      iszero\n      tag_128\n      jumpi\n        /* \"#utility.yul\":2573:2652   */\n      tag_129\n      tag_112\n      jump\t// in\n    tag_129:\n        /* \"#utility.yul\":2535:2654   */\n    tag_128:\n        /* \"#utility.yul\":2693:2694   */\n      0x00\n        /* \"#utility.yul\":2718:2771   */\n      tag_130\n        /* \"#utility.yul\":2763:2770   */\n      dup7\n        /* \"#utility.yul\":2754:2760   */\n      dup3\n        /* \"#utility.yul\":2743:2752   */\n      dup8\n        /* \"#utility.yul\":2739:2761   */\n      add\n        /* \"#utility.yul\":2718:2771   */\n      tag_99\n      jump\t// in\n    tag_130:\n        /* \"#utility.yul\":2708:2771   */\n      swap4\n      pop\n        /* \"#utility.yul\":2664:2781   */\n      pop\n        /* \"#utility.yul\":2848:2850   */\n      0x20\n        /* \"#utility.yul\":2837:2846   */\n      dup5\n        /* \"#utility.yul\":2833:2851   */\n      add\n        /* \"#utility.yul\":2820:2852   */\n      calldataload\n        /* \"#utility.yul\":2879:2897   */\n      0xffffffffffffffff\n        /* \"#utility.yul\":2871:2877   */\n      dup2\n        /* \"#utility.yul\":2868:2898   */\n      gt\n        /* \"#utility.yul\":2865:2982   */\n      iszero\n      tag_131\n      jumpi\n        /* \"#utility.yul\":2901:2980   */\n      tag_132\n      tag_125\n      jump\t// in\n    tag_132:\n        /* \"#utility.yul\":2865:2982   */\n    tag_131:\n        /* \"#utility.yul\":3006:3069   */\n      tag_133\n        /* \"#utility.yul\":3061:3068   */\n      dup7\n        /* \"#utility.yul\":3052:3058   */\n      dup3\n        /* \"#utility.yul\":3041:3050   */\n      dup8\n        /* \"#utility.yul\":3037:3059   */\n      add\n        /* \"#utility.yul\":3006:3069   */\n      tag_103\n      jump\t// in\n    tag_133:\n        /* \"#utility.yul\":2996:3069   */\n      swap3\n      pop\n        /* \"#utility.yul\":2791:3079   */\n      pop\n        /* \"#utility.yul\":3146:3148   */\n      0x40\n        /* \"#utility.yul\":3135:3144   */\n      dup5\n        /* \"#utility.yul\":3131:3149   */\n      add\n        /* \"#utility.yul\":3118:3150   */\n      calldataload\n        /* \"#utility.yul\":3177:3195   */\n      0xffffffffffffffff\n        /* \"#utility.yul\":3169:3175   */\n      dup2\n        /* \"#utility.yul\":3166:3196   */\n      gt\n        /* \"#utility.yul\":3163:3280   */\n      iszero\n      tag_134\n      jumpi\n        /* \"#utility.yul\":3199:3278   */\n      tag_135\n      tag_125\n      jump\t// in\n    tag_135:\n        /* \"#utility.yul\":3163:3280   */\n    tag_134:\n        /* \"#utility.yul\":3304:3367   */\n      tag_136\n        /* \"#utility.yul\":3359:3366   */\n      dup7\n        /* \"#utility.yul\":3350:3356   */\n      dup3\n        /* \"#utility.yul\":3339:3348   */\n      dup8\n        /* \"#utility.yul\":3335:3357   */\n      add\n        /* \"#utility.yul\":3304:3367   */\n      tag_103\n      jump\t// in\n    tag_136:\n        /* \"#utility.yul\":3294:3367   */\n      swap2\n      pop\n        /* \"#utility.yul\":3089:3377   */\n      pop\n        /* \"#utility.yul\":2405:3384   */\n      swap3\n      pop\n      swap3\n      pop\n      swap3\n      jump\t// out\n        /* \"#utility.yul\":3390:4224   */\n    tag_36:\n        /* \"#utility.yul\":3478:3484   */\n      0x00\n        /* \"#utility.yul\":3486:3492   */\n      dup1\n        /* \"#utility.yul\":3535:3537   */\n      0x40\n        /* \"#utility.yul\":3523:3532   */\n      dup4\n        /* \"#utility.yul\":3514:3521   */\n      dup6\n        /* \"#utility.yul\":3510:3533   */\n      sub\n        /* \"#utility.yul\":3506:3538   */\n      slt\n        /* \"#utility.yul\":3503:3622   */\n      iszero\n      tag_138\n      jumpi\n        /* \"#utility.yul\":3541:3620   */\n      tag_139\n      tag_112\n      jump\t// in\n    tag_139:\n        /* \"#utility.yul\":3503:3622   */\n    tag_138:\n        /* \"#utility.yul\":3689:3690   */\n      0x00\n        /* \"#utility.yul\":3678:3687   */\n      dup4\n        /* \"#utility.yul\":3674:3691   */\n      add\n        /* \"#utility.yul\":3661:3692   */\n      calldataload\n        /* \"#utility.yul\":3719:3737   */\n      0xffffffffffffffff\n        /* \"#utility.yul\":3711:3717   */\n      dup2\n        /* \"#utility.yul\":3708:3738   */\n      gt\n        /* \"#utility.yul\":3705:3822   */\n      iszero\n      tag_140\n      jumpi\n        /* \"#utility.yul\":3741:3820   */\n      tag_141\n      tag_125\n      jump\t// in\n    tag_141:\n        /* \"#utility.yul\":3705:3822   */\n    tag_140:\n        /* \"#utility.yul\":3846:3909   */\n      tag_142\n        /* \"#utility.yul\":3901:3908   */\n      dup6\n        /* \"#utility.yul\":3892:3898   */\n      dup3\n        /* \"#utility.yul\":3881:3890   */\n      dup7\n        /* \"#utility.yul\":3877:3899   */\n      add\n        /* \"#utility.yul\":3846:3909   */\n      tag_103\n      jump\t// in\n    tag_142:\n        /* \"#utility.yul\":3836:3909   */\n      swap3\n      pop\n        /* \"#utility.yul\":3632:3919   */\n      pop\n        /* \"#utility.yul\":3986:3988   */\n      0x20\n        /* \"#utility.yul\":3975:3984   */\n      dup4\n        /* \"#utility.yul\":3971:3989   */\n      add\n        /* \"#utility.yul\":3958:3990   */\n      calldataload\n        /* \"#utility.yul\":4017:4035   */\n      0xffffffffffffffff\n        /* \"#utility.yul\":4009:4015   */\n      dup2\n        /* \"#utility.yul\":4006:4036   */\n      gt\n        /* \"#utility.yul\":4003:4120   */\n      iszero\n      tag_143\n      jumpi\n        /* \"#utility.yul\":4039:4118   */\n      tag_144\n      tag_125\n      jump\t// in\n    tag_144:\n        /* \"#utility.yul\":4003:4120   */\n    tag_143:\n        /* \"#utility.yul\":4144:4207   */\n      tag_145\n        /* \"#utility.yul\":4199:4206   */\n      dup6\n        /* \"#utility.yul\":4190:4196   */\n      dup3\n        /* \"#utility.yul\":4179:4188   */\n      dup7\n        /* \"#utility.yul\":4175:4197   */\n      add\n        /* \"#utility.yul\":4144:4207   */\n      tag_103\n      jump\t// in\n    tag_145:\n        /* \"#utility.yul\":4134:4207   */\n      swap2\n      pop\n        /* \"#utility.yul\":3929:4217   */\n      pop\n        /* \"#utility.yul\":3390:4224   */\n      swap3\n      pop\n      swap3\n      swap1\n      pop\n      jump\t// out\n        /* \"#utility.yul\":4230:4338   */\n    tag_146:\n        /* \"#utility.yul\":4307:4331   */\n      tag_148\n        /* \"#utility.yul\":4325:4330   */\n      dup2\n        /* \"#utility.yul\":4307:4331   */\n      tag_149\n      jump\t// in\n    tag_148:\n        /* \"#utility.yul\":4302:4305   */\n      dup3\n        /* \"#utility.yul\":4295:4332   */\n      mstore\n        /* \"#utility.yul\":4230:4338   */\n      pop\n      pop\n      jump\t// out\n        /* \"#utility.yul\":4344:4462   */\n    tag_150:\n        /* \"#utility.yul\":4431:4455   */\n      tag_152\n        /* \"#utility.yul\":4449:4454   */\n      dup2\n        /* \"#utility.yul\":4431:4455   */\n      tag_149\n      jump\t// in\n    tag_152:\n        /* \"#utility.yul\":4426:4429   */\n      dup3\n        /* \"#utility.yul\":4419:4456   */\n      mstore\n        /* \"#utility.yul\":4344:4462   */\n      pop\n      pop\n      jump\t// out\n        /* \"#utility.yul\":4468:4812   */\n    tag_153:\n        /* \"#utility.yul\":4546:4549   */\n      0x00\n        /* \"#utility.yul\":4574:4613   */\n      tag_155\n        /* \"#utility.yul\":4607:4612   */\n      dup3\n        /* \"#utility.yul\":4574:4613   */\n      tag_156\n      jump\t// in\n    tag_155:\n        /* \"#utility.yul\":4629:4690   */\n      tag_157\n        /* \"#utility.yul\":4683:4689   */\n      dup2\n        /* \"#utility.yul\":4678:4681   */\n      dup6\n        /* \"#utility.yul\":4629:4690   */\n      tag_158\n      jump\t// in\n    tag_157:\n        /* \"#utility.yul\":4622:4690   */\n      swap4\n      pop\n        /* \"#utility.yul\":4699:4751   */\n      tag_159\n        /* \"#utility.yul\":4744:4750   */\n      dup2\n        /* \"#utility.yul\":4739:4742   */\n      dup6\n        /* \"#utility.yul\":4732:4736   */\n      0x20\n        /* \"#utility.yul\":4725:4730   */\n      dup7\n        /* \"#utility.yul\":4721:4737   */\n      add\n        /* \"#utility.yul\":4699:4751   */\n      tag_160\n      jump\t// in\n    tag_159:\n        /* \"#utility.yul\":4776:4805   */\n      tag_161\n        /* \"#utility.yul\":4798:4804   */\n      dup2\n        /* \"#utility.yul\":4776:4805   */\n      tag_162\n      jump\t// in\n    tag_161:\n        /* \"#utility.yul\":4771:4774   */\n      dup5\n        /* \"#utility.yul\":4767:4806   */\n      add\n        /* \"#utility.yul\":4760:4806   */\n      swap2\n      pop\n        /* \"#utility.yul\":4550:4812   */\n      pop\n        /* \"#utility.yul\":4468:4812   */\n      swap3\n      swap2\n      pop\n      pop\n      jump\t// out\n        /* \"#utility.yul\":4818:5182   */\n    tag_163:\n        /* \"#utility.yul\":4906:4909   */\n      0x00\n        /* \"#utility.yul\":4934:4973   */\n      tag_165\n        /* \"#utility.yul\":4967:4972   */\n      dup3\n        /* \"#utility.yul\":4934:4973   */\n      tag_156\n      jump\t// in\n    tag_165:\n        /* \"#utility.yul\":4989:5060   */\n      tag_166\n        /* \"#utility.yul\":5053:5059   */\n      dup2\n        /* \"#utility.yul\":5048:5051   */\n      dup6\n        /* \"#utility.yul\":4989:5060   */\n      tag_167\n      jump\t// in\n    tag_166:\n        /* \"#utility.yul\":4982:5060   */\n      swap4\n      pop\n        /* \"#utility.yul\":5069:5121   */\n      tag_168\n        /* \"#utility.yul\":5114:5120   */\n      dup2\n        /* \"#utility.yul\":5109:5112   */\n      dup6\n        /* \"#utility.yul\":5102:5106   */\n      0x20\n        /* \"#utility.yul\":5095:5100   */\n      dup7\n        /* \"#utility.yul\":5091:5107   */\n      add\n        /* \"#utility.yul\":5069:5121   */\n      tag_160\n      jump\t// in\n    tag_168:\n        /* \"#utility.yul\":5146:5175   */\n      tag_169\n        /* \"#utility.yul\":5168:5174   */\n      dup2\n        /* \"#utility.yul\":5146:5175   */\n      tag_162\n      jump\t// in\n    tag_169:\n        /* \"#utility.yul\":5141:5144   */\n      dup5\n        /* \"#utility.yul\":5137:5176   */\n      add\n        /* \"#utility.yul\":5130:5176   */\n      swap2\n      pop\n        /* \"#utility.yul\":4910:5182   */\n      pop\n        /* \"#utility.yul\":4818:5182   */\n      swap3\n      swap2\n      pop\n      pop\n      jump\t// out\n        /* \"#utility.yul\":5256:6127   */\n    tag_170:\n        /* \"#utility.yul\":5377:5380   */\n      0x00\n        /* \"#utility.yul\":5413:5417   */\n      0x60\n        /* \"#utility.yul\":5408:5411   */\n      dup4\n        /* \"#utility.yul\":5404:5418   */\n      add\n        /* \"#utility.yul\":5506:5510   */\n      0x00\n        /* \"#utility.yul\":5499:5504   */\n      dup4\n        /* \"#utility.yul\":5495:5511   */\n      add\n        /* \"#utility.yul\":5489:5512   */\n      mload\n        /* \"#utility.yul\":5525:5588   */\n      tag_172\n        /* \"#utility.yul\":5582:5586   */\n      0x00\n        /* \"#utility.yul\":5577:5580   */\n      dup7\n        /* \"#utility.yul\":5573:5587   */\n      add\n        /* \"#utility.yul\":5559:5571   */\n      dup3\n        /* \"#utility.yul\":5525:5588   */\n      tag_146\n      jump\t// in\n    tag_172:\n        /* \"#utility.yul\":5428:5598   */\n      pop\n        /* \"#utility.yul\":5686:5690   */\n      0x20\n        /* \"#utility.yul\":5679:5684   */\n      dup4\n        /* \"#utility.yul\":5675:5691   */\n      add\n        /* \"#utility.yul\":5669:5692   */\n      mload\n        /* \"#utility.yul\":5739:5742   */\n      dup5\n        /* \"#utility.yul\":5733:5737   */\n      dup3\n        /* \"#utility.yul\":5729:5743   */\n      sub\n        /* \"#utility.yul\":5722:5726   */\n      0x20\n        /* \"#utility.yul\":5717:5720   */\n      dup7\n        /* \"#utility.yul\":5713:5727   */\n      add\n        /* \"#utility.yul\":5706:5744   */\n      mstore\n        /* \"#utility.yul\":5765:5838   */\n      tag_173\n        /* \"#utility.yul\":5833:5837   */\n      dup3\n        /* \"#utility.yul\":5819:5831   */\n      dup3\n        /* \"#utility.yul\":5765:5838   */\n      tag_153\n      jump\t// in\n    tag_173:\n        /* \"#utility.yul\":5757:5838   */\n      swap2\n      pop\n        /* \"#utility.yul\":5608:5849   */\n      pop\n        /* \"#utility.yul\":5937:5941   */\n      0x40\n        /* \"#utility.yul\":5930:5935   */\n      dup4\n        /* \"#utility.yul\":5926:5942   */\n      add\n        /* \"#utility.yul\":5920:5943   */\n      mload\n        /* \"#utility.yul\":5990:5993   */\n      dup5\n        /* \"#utility.yul\":5984:5988   */\n      dup3\n        /* \"#utility.yul\":5980:5994   */\n      sub\n        /* \"#utility.yul\":5973:5977   */\n      0x40\n        /* \"#utility.yul\":5968:5971   */\n      dup7\n        /* \"#utility.yul\":5964:5978   */\n      add\n        /* \"#utility.yul\":5957:5995   */\n      mstore\n        /* \"#utility.yul\":6016:6089   */\n      tag_174\n        /* \"#utility.yul\":6084:6088   */\n      dup3\n        /* \"#utility.yul\":6070:6082   */\n      dup3\n        /* \"#utility.yul\":6016:6089   */\n      tag_153\n      jump\t// in\n    tag_174:\n        /* \"#utility.yul\":6008:6089   */\n      swap2\n      pop\n        /* \"#utility.yul\":5859:6100   */\n      pop\n        /* \"#utility.yul\":6117:6121   */\n      dup1\n        /* \"#utility.yul\":6110:6121   */\n      swap2\n      pop\n        /* \"#utility.yul\":5382:6127   */\n      pop\n        /* \"#utility.yul\":5256:6127   */\n      swap3\n      swap2\n      pop\n      pop\n      jump\t// out\n        /* \"#utility.yul\":6133:6757   */\n    tag_28:\n        /* \"#utility.yul\":6322:6326   */\n      0x00\n        /* \"#utility.yul\":6360:6362   */\n      0x60\n        /* \"#utility.yul\":6349:6358   */\n      dup3\n        /* \"#utility.yul\":6345:6363   */\n      add\n        /* \"#utility.yul\":6337:6363   */\n      swap1\n      pop\n        /* \"#utility.yul\":6373:6444   */\n      tag_176\n        /* \"#utility.yul\":6441:6442   */\n      0x00\n        /* \"#utility.yul\":6430:6439   */\n      dup4\n        /* \"#utility.yul\":6426:6443   */\n      add\n        /* \"#utility.yul\":6417:6423   */\n      dup7\n        /* \"#utility.yul\":6373:6444   */\n      tag_150\n      jump\t// in\n    tag_176:\n        /* \"#utility.yul\":6491:6500   */\n      dup2\n        /* \"#utility.yul\":6485:6489   */\n      dup2\n        /* \"#utility.yul\":6481:6501   */\n      sub\n        /* \"#utility.yul\":6476:6478   */\n      0x20\n        /* \"#utility.yul\":6465:6474   */\n      dup4\n        /* \"#utility.yul\":6461:6479   */\n      add\n        /* \"#utility.yul\":6454:6502   */\n      mstore\n        /* \"#utility.yul\":6519:6597   */\n      tag_177\n        /* \"#utility.yul\":6592:6596   */\n      dup2\n        /* \"#utility.yul\":6583:6589   */\n      dup6\n        /* \"#utility.yul\":6519:6597   */\n      tag_163\n      jump\t// in\n    tag_177:\n        /* \"#utility.yul\":6511:6597   */\n      swap1\n      pop\n        /* \"#utility.yul\":6644:6653   */\n      dup2\n        /* \"#utility.yul\":6638:6642   */\n      dup2\n        /* \"#utility.yul\":6634:6654   */\n      sub\n        /* \"#utility.yul\":6629:6631   */\n      0x40\n        /* \"#utility.yul\":6618:6627   */\n      dup4\n        /* \"#utility.yul\":6614:6632   */\n      add\n        /* \"#utility.yul\":6607:6655   */\n      mstore\n        /* \"#utility.yul\":6672:6750   */\n      tag_178\n        /* \"#utility.yul\":6745:6749   */\n      dup2\n        /* \"#utility.yul\":6736:6742   */\n      dup5\n        /* \"#utility.yul\":6672:6750   */\n      tag_163\n      jump\t// in\n    tag_178:\n        /* \"#utility.yul\":6664:6750   */\n      swap1\n      pop\n        /* \"#utility.yul\":6133:6757   */\n      swap5\n      swap4\n      pop\n      pop\n      pop\n      pop\n      jump\t// out\n        /* \"#utility.yul\":6763:7076   */\n    tag_22:\n        /* \"#utility.yul\":6876:6880   */\n      0x00\n        /* \"#utility.yul\":6914:6916   */\n      0x20\n        /* \"#utility.yul\":6903:6912   */\n      dup3\n        /* \"#utility.yul\":6899:6917   */\n      add\n        /* \"#utility.yul\":6891:6917   */\n      swap1\n      pop\n        /* \"#utility.yul\":6963:6972   */\n      dup2\n        /* \"#utility.yul\":6957:6961   */\n      dup2\n        /* \"#utility.yul\":6953:6973   */\n      sub\n        /* \"#utility.yul\":6949:6950   */\n      0x00\n        /* \"#utility.yul\":6938:6947   */\n      dup4\n        /* \"#utility.yul\":6934:6951   */\n      add\n        /* \"#utility.yul\":6927:6974   */\n      mstore\n        /* \"#utility.yul\":6991:7069   */\n      tag_180\n        /* \"#utility.yul\":7064:7068   */\n      dup2\n        /* \"#utility.yul\":7055:7061   */\n      dup5\n        /* \"#utility.yul\":6991:7069   */\n      tag_163\n      jump\t// in\n    tag_180:\n        /* \"#utility.yul\":6983:7069   */\n      swap1\n      pop\n        /* \"#utility.yul\":6763:7076   */\n      swap3\n      swap2\n      pop\n      pop\n      jump\t// out\n        /* \"#utility.yul\":7082:7459   */\n    tag_33:\n        /* \"#utility.yul\":7227:7231   */\n      0x00\n        /* \"#utility.yul\":7265:7267   */\n      0x20\n        /* \"#utility.yul\":7254:7263   */\n      dup3\n        /* \"#utility.yul\":7250:7268   */\n      add\n        /* \"#utility.yul\":7242:7268   */\n      swap1\n      pop\n        /* \"#utility.yul\":7314:7323   */\n      dup2\n        /* \"#utility.yul\":7308:7312   */\n      dup2\n        /* \"#utility.yul\":7304:7324   */\n      sub\n        /* \"#utility.yul\":7300:7301   */\n      0x00\n        /* \"#utility.yul\":7289:7298   */\n      dup4\n        /* \"#utility.yul\":7285:7302   */\n      add\n        /* \"#utility.yul\":7278:7325   */\n      mstore\n        /* \"#utility.yul\":7342:7452   */\n      tag_182\n        /* \"#utility.yul\":7447:7451   */\n      dup2\n        /* \"#utility.yul\":7438:7444   */\n      dup5\n        /* \"#utility.yul\":7342:7452   */\n      tag_170\n      jump\t// in\n    tag_182:\n        /* \"#utility.yul\":7334:7452   */\n      swap1\n      pop\n        /* \"#utility.yul\":7082:7459   */\n      swap3\n      swap2\n      pop\n      pop\n      jump\t// out\n        /* \"#utility.yul\":7465:7594   */\n    tag_93:\n        /* \"#utility.yul\":7499:7505   */\n      0x00\n        /* \"#utility.yul\":7526:7546   */\n      tag_184\n      tag_185\n      jump\t// in\n    tag_184:\n        /* \"#utility.yul\":7516:7546   */\n      swap1\n      pop\n        /* \"#utility.yul\":7555:7588   */\n      tag_186\n        /* \"#utility.yul\":7583:7587   */\n      dup3\n        /* \"#utility.yul\":7575:7581   */\n      dup3\n        /* \"#utility.yul\":7555:7588   */\n      tag_187\n      jump\t// in\n    tag_186:\n        /* \"#utility.yul\":7465:7594   */\n      swap2\n      swap1\n      pop\n      jump\t// out\n        /* \"#utility.yul\":7600:7675   */\n    tag_185:\n        /* \"#utility.yul\":7633:7639   */\n      0x00\n        /* \"#utility.yul\":7666:7668   */\n      0x40\n        /* \"#utility.yul\":7660:7669   */\n      mload\n        /* \"#utility.yul\":7650:7669   */\n      swap1\n      pop\n        /* \"#utility.yul\":7600:7675   */\n      swap1\n      jump\t// out\n        /* \"#utility.yul\":7681:7989   */\n    tag_92:\n        /* \"#utility.yul\":7743:7747   */\n      0x00\n        /* \"#utility.yul\":7833:7851   */\n      0xffffffffffffffff\n        /* \"#utility.yul\":7825:7831   */\n      dup3\n        /* \"#utility.yul\":7822:7852   */\n      gt\n        /* \"#utility.yul\":7819:7875   */\n      iszero\n      tag_190\n      jumpi\n        /* \"#utility.yul\":7855:7873   */\n      tag_191\n      tag_192\n      jump\t// in\n    tag_191:\n        /* \"#utility.yul\":7819:7875   */\n    tag_190:\n        /* \"#utility.yul\":7893:7922   */\n      tag_193\n        /* \"#utility.yul\":7915:7921   */\n      dup3\n        /* \"#utility.yul\":7893:7922   */\n      tag_162\n      jump\t// in\n    tag_193:\n        /* \"#utility.yul\":7885:7922   */\n      swap1\n      pop\n        /* \"#utility.yul\":7977:7981   */\n      0x20\n        /* \"#utility.yul\":7971:7975   */\n      dup2\n        /* \"#utility.yul\":7967:7982   */\n      add\n        /* \"#utility.yul\":7959:7982   */\n      swap1\n      pop\n        /* \"#utility.yul\":7681:7989   */\n      swap2\n      swap1\n      pop\n      jump\t// out\n        /* \"#utility.yul\":7995:8094   */\n    tag_156:\n        /* \"#utility.yul\":8047:8053   */\n      0x00\n        /* \"#utility.yul\":8081:8086   */\n      dup2\n        /* \"#utility.yul\":8075:8087   */\n      mload\n        /* \"#utility.yul\":8065:8087   */\n      swap1\n      pop\n        /* \"#utility.yul\":7995:8094   */\n      swap2\n      swap1\n      pop\n      jump\t// out\n        /* \"#utility.yul\":8100:8259   */\n    tag_158:\n        /* \"#utility.yul\":8174:8185   */\n      0x00\n        /* \"#utility.yul\":8208:8214   */\n      dup3\n        /* \"#utility.yul\":8203:8206   */\n      dup3\n        /* \"#utility.yul\":8196:8215   */\n      mstore\n        /* \"#utility.yul\":8248:8252   */\n      0x20\n        /* \"#utility.yul\":8243:8246   */\n      dup3\n        /* \"#utility.yul\":8239:8253   */\n      add\n        /* \"#utility.yul\":8224:8253   */\n      swap1\n      pop\n        /* \"#utility.yul\":8100:8259   */\n      swap3\n      swap2\n      pop\n      pop\n      jump\t// out\n        /* \"#utility.yul\":8265:8434   */\n    tag_167:\n        /* \"#utility.yul\":8349:8360   */\n      0x00\n        /* \"#utility.yul\":8383:8389   */\n      dup3\n        /* \"#utility.yul\":8378:8381   */\n      dup3\n        /* \"#utility.yul\":8371:8390   */\n      mstore\n        /* \"#utility.yul\":8423:8427   */\n      0x20\n        /* \"#utility.yul\":8418:8421   */\n      dup3\n        /* \"#utility.yul\":8414:8428   */\n      add\n        /* \"#utility.yul\":8399:8428   */\n      swap1\n      pop\n        /* \"#utility.yul\":8265:8434   */\n      swap3\n      swap2\n      pop\n      pop\n      jump\t// out\n        /* \"#utility.yul\":8440:8536   */\n    tag_149:\n        /* \"#utility.yul\":8477:8484   */\n      0x00\n        /* \"#utility.yul\":8506:8530   */\n      tag_198\n        /* \"#utility.yul\":8524:8529   */\n      dup3\n        /* \"#utility.yul\":8506:8530   */\n      tag_199\n      jump\t// in\n    tag_198:\n        /* \"#utility.yul\":8495:8530   */\n      swap1\n      pop\n        /* \"#utility.yul\":8440:8536   */\n      swap2\n      swap1\n      pop\n      jump\t// out\n        /* \"#utility.yul\":8542:8668   */\n    tag_199:\n        /* \"#utility.yul\":8579:8586   */\n      0x00\n        /* \"#utility.yul\":8619:8661   */\n      0xffffffffffffffffffffffffffffffffffffffff\n        /* \"#utility.yul\":8612:8617   */\n      dup3\n        /* \"#utility.yul\":8608:8662   */\n      and\n        /* \"#utility.yul\":8597:8662   */\n      swap1\n      pop\n        /* \"#utility.yul\":8542:8668   */\n      swap2\n      swap1\n      pop\n      jump\t// out\n        /* \"#utility.yul\":8674:8828   */\n    tag_98:\n        /* \"#utility.yul\":8758:8764   */\n      dup3\n        /* \"#utility.yul\":8753:8756   */\n      dup2\n        /* \"#utility.yul\":8748:8751   */\n      dup4\n        /* \"#utility.yul\":8735:8765   */\n      calldatacopy\n        /* \"#utility.yul\":8820:8821   */\n      0x00\n        /* \"#utility.yul\":8811:8817   */\n      dup4\n        /* \"#utility.yul\":8806:8809   */\n      dup4\n        /* \"#utility.yul\":8802:8818   */\n      add\n        /* \"#utility.yul\":8795:8822   */\n      mstore\n        /* \"#utility.yul\":8674:8828   */\n      pop\n      pop\n      pop\n      jump\t// out\n        /* \"#utility.yul\":8834:9141   */\n    tag_160:\n        /* \"#utility.yul\":8902:8903   */\n      0x00\n        /* \"#utility.yul\":8912:9025   */\n    tag_203:\n        /* \"#utility.yul\":8926:8932   */\n      dup4\n        /* \"#utility.yul\":8923:8924   */\n      dup2\n        /* \"#utility.yul\":8920:8933   */\n      lt\n        /* \"#utility.yul\":8912:9025   */\n      iszero\n      tag_205\n      jumpi\n        /* \"#utility.yul\":9011:9012   */\n      dup1\n        /* \"#utility.yul\":9006:9009   */\n      dup3\n        /* \"#utility.yul\":9002:9013   */\n      add\n        /* \"#utility.yul\":8996:9014   */\n      mload\n        /* \"#utility.yul\":8992:8993   */\n      dup2\n        /* \"#utility.yul\":8987:8990   */\n      dup5\n        /* \"#utility.yul\":8983:8994   */\n      add\n        /* \"#utility.yul\":8976:9015   */\n      mstore\n        /* \"#utility.yul\":8948:8950   */\n      0x20\n        /* \"#utility.yul\":8945:8946   */\n      dup2\n        /* \"#utility.yul\":8941:8951   */\n      add\n        /* \"#utility.yul\":8936:8951   */\n      swap1\n      pop\n        /* \"#utility.yul\":8912:9025   */\n      jump(tag_203)\n    tag_205:\n        /* \"#utility.yul\":9043:9049   */\n      dup4\n        /* \"#utility.yul\":9040:9041   */\n      dup2\n        /* \"#utility.yul\":9037:9050   */\n      gt\n        /* \"#utility.yul\":9034:9135   */\n      iszero\n      tag_206\n      jumpi\n        /* \"#utility.yul\":9123:9124   */\n      0x00\n        /* \"#utility.yul\":9114:9120   */\n      dup5\n        /* \"#utility.yul\":9109:9112   */\n      dup5\n        /* \"#utility.yul\":9105:9121   */\n      add\n        /* \"#utility.yul\":9098:9125   */\n      mstore\n        /* \"#utility.yul\":9034:9135   */\n    tag_206:\n        /* \"#utility.yul\":8883:9141   */\n      pop\n        /* \"#utility.yul\":8834:9141   */\n      pop\n      pop\n      pop\n      jump\t// out\n        /* \"#utility.yul\":9147:9467   */\n    tag_46:\n        /* \"#utility.yul\":9191:9197   */\n      0x00\n        /* \"#utility.yul\":9228:9229   */\n      0x02\n        /* \"#utility.yul\":9222:9226   */\n      dup3\n        /* \"#utility.yul\":9218:9230   */\n      div\n        /* \"#utility.yul\":9208:9230   */\n      swap1\n      pop\n        /* \"#utility.yul\":9275:9276   */\n      0x01\n        /* \"#utility.yul\":9269:9273   */\n      dup3\n        /* \"#utility.yul\":9265:9277   */\n      and\n        /* \"#utility.yul\":9296:9314   */\n      dup1\n        /* \"#utility.yul\":9286:9367   */\n      tag_208\n      jumpi\n        /* \"#utility.yul\":9352:9356   */\n      0x7f\n        /* \"#utility.yul\":9344:9350   */\n      dup3\n        /* \"#utility.yul\":9340:9357   */\n      and\n        /* \"#utility.yul\":9330:9357   */\n      swap2\n      pop\n        /* \"#utility.yul\":9286:9367   */\n    tag_208:\n        /* \"#utility.yul\":9414:9416   */\n      0x20\n        /* \"#utility.yul\":9406:9412   */\n      dup3\n        /* \"#utility.yul\":9403:9417   */\n      lt\n        /* \"#utility.yul\":9383:9401   */\n      dup2\n        /* \"#utility.yul\":9380:9418   */\n      eq\n        /* \"#utility.yul\":9377:9461   */\n      iszero\n      tag_209\n      jumpi\n        /* \"#utility.yul\":9433:9451   */\n      tag_210\n      tag_211\n      jump\t// in\n    tag_210:\n        /* \"#utility.yul\":9377:9461   */\n    tag_209:\n        /* \"#utility.yul\":9198:9467   */\n      pop\n        /* \"#utility.yul\":9147:9467   */\n      swap2\n      swap1\n      pop\n      jump\t// out\n        /* \"#utility.yul\":9473:9754   */\n    tag_187:\n        /* \"#utility.yul\":9556:9583   */\n      tag_213\n        /* \"#utility.yul\":9578:9582   */\n      dup3\n        /* \"#utility.yul\":9556:9583   */\n      tag_162\n      jump\t// in\n    tag_213:\n        /* \"#utility.yul\":9548:9554   */\n      dup2\n        /* \"#utility.yul\":9544:9584   */\n      add\n        /* \"#utility.yul\":9686:9692   */\n      dup2\n        /* \"#utility.yul\":9674:9684   */\n      dup2\n        /* \"#utility.yul\":9671:9693   */\n      lt\n        /* \"#utility.yul\":9650:9668   */\n      0xffffffffffffffff\n        /* \"#utility.yul\":9638:9648   */\n      dup3\n        /* \"#utility.yul\":9635:9669   */\n      gt\n        /* \"#utility.yul\":9632:9694   */\n      or\n        /* \"#utility.yul\":9629:9717   */\n      iszero\n      tag_214\n      jumpi\n        /* \"#utility.yul\":9697:9715   */\n      tag_215\n      tag_192\n      jump\t// in\n    tag_215:\n        /* \"#utility.yul\":9629:9717   */\n    tag_214:\n        /* \"#utility.yul\":9737:9747   */\n      dup1\n        /* \"#utility.yul\":9733:9735   */\n      0x40\n        /* \"#utility.yul\":9726:9748   */\n      mstore\n        /* \"#utility.yul\":9516:9754   */\n      pop\n        /* \"#utility.yul\":9473:9754   */\n      pop\n      pop\n      jump\t// out\n        /* \"#utility.yul\":9760:9940   */\n    tag_211:\n        /* \"#utility.yul\":9808:9885   */\n      0x4e487b7100000000000000000000000000000000000000000000000000000000\n        /* \"#utility.yul\":9805:9806   */\n      0x00\n        /* \"#utility.yul\":9798:9886   */\n      mstore\n        /* \"#utility.yul\":9905:9909   */\n      0x22\n        /* \"#utility.yul\":9902:9903   */\n      0x04\n        /* \"#utility.yul\":9895:9910   */\n      mstore\n        /* \"#utility.yul\":9929:9933   */\n      0x24\n        /* \"#utility.yul\":9926:9927   */\n      0x00\n        /* \"#utility.yul\":9919:9934   */\n      revert\n        /* \"#utility.yul\":9946:10126   */\n    tag_192:\n        /* \"#utility.yul\":9994:10071   */\n      0x4e487b7100000000000000000000000000000000000000000000000000000000\n        /* \"#utility.yul\":9991:9992   */\n      0x00\n        /* \"#utility.yul\":9984:10072   */\n      mstore\n        /* \"#utility.yul\":10091:10095   */\n      0x41\n        /* \"#utility.yul\":10088:10089   */\n      0x04\n        /* \"#utility.yul\":10081:10096   */\n      mstore\n        /* \"#utility.yul\":10115:10119   */\n      0x24\n        /* \"#utility.yul\":10112:10113   */\n      0x00\n        /* \"#utility.yul\":10105:10120   */\n      revert\n        /* \"#utility.yul\":10132:10249   */\n    tag_107:\n        /* \"#utility.yul\":10241:10242   */\n      0x00\n        /* \"#utility.yul\":10238:10239   */\n      dup1\n        /* \"#utility.yul\":10231:10243   */\n      revert\n        /* \"#utility.yul\":10255:10372   */\n    tag_96:\n        /* \"#utility.yul\":10364:10365   */\n      0x00\n        /* \"#utility.yul\":10361:10362   */\n      dup1\n        /* \"#utility.yul\":10354:10366   */\n      revert\n        /* \"#utility.yul\":10378:10495   */\n    tag_125:\n        /* \"#utility.yul\":10487:10488   */\n      0x00\n        /* \"#utility.yul\":10484:10485   */\n      dup1\n        /* \"#utility.yul\":10477:10489   */\n      revert\n        /* \"#utility.yul\":10501:10618   */\n    tag_112:\n        /* \"#utility.yul\":10610:10611   */\n      0x00\n        /* \"#utility.yul\":10607:10608   */\n      dup1\n        /* \"#utility.yul\":10600:10612   */\n      revert\n        /* \"#utility.yul\":10624:10726   */\n    tag_162:\n        /* \"#utility.yul\":10665:10671   */\n      0x00\n        /* \"#utility.yul\":10716:10718   */\n      0x1f\n        /* \"#utility.yul\":10712:10719   */\n      not\n        /* \"#utility.yul\":10707:10709   */\n      0x1f\n        /* \"#utility.yul\":10700:10705   */\n      dup4\n        /* \"#utility.yul\":10696:10710   */\n      add\n        /* \"#utility.yul\":10692:10720   */\n      and\n        /* \"#utility.yul\":10682:10720   */\n      swap1\n      pop\n        /* \"#utility.yul\":10624:10726   */\n      swap2\n      swap1\n      pop\n      jump\t// out\n        /* \"#utility.yul\":10732:10854   */\n    tag_102:\n        /* \"#utility.yul\":10805:10829   */\n      tag_224\n        /* \"#utility.yul\":10823:10828   */\n      dup2\n        /* \"#utility.yul\":10805:10829   */\n      tag_149\n      jump\t// in\n    tag_224:\n        /* \"#utility.yul\":10798:10803   */\n      dup2\n        /* \"#utility.yul\":10795:10830   */\n      eq\n        /* \"#utility.yul\":10785:10848   */\n      tag_225\n      jumpi\n        /* \"#utility.yul\":10844:10845   */\n      0x00\n        /* \"#utility.yul\":10841:10842   */\n      dup1\n        /* \"#utility.yul\":10834:10846   */\n      revert\n        /* \"#utility.yul\":10785:10848   */\n    tag_225:\n        /* \"#utility.yul\":10732:10854   */\n      pop\n      jump\t// out\n\n    auxdata: 0xa2646970667358221220e80b05ea66870a3a7b1ebd193b4c736758996688324bf514ad6a5cb5c463b60464736f6c63430008070033\n}\n",
				"bytecode": {
					"linkReferences": {},
					"object": "608060405234801561001057600080fd5b50610f52806100206000396000f3fe608060405234801561001057600080fd5b50600436106100625760003560e01c806311ef4171146100675780636c477035146100835780638749774f1461009f578063b9e0ad10146100cf578063de1e23b714610101578063f2c3c74514610131575b600080fd5b610081600480360381019061007c9190610a59565b61014d565b005b61009d60048036038101906100989190610ab5565b6101e5565b005b6100b960048036038101906100b49190610a19565b610316565b6040516100c69190610ce4565b60405180910390f35b6100e960048036038101906100e491906109ec565b610428565b6040516100f893929190610c9f565b60405180910390f35b61011b600480360381019061011691906109ec565b610582565b6040516101289190610d06565b60405180910390f35b61014b60048036038101906101469190610b40565b610754565b005b80600160003373ffffffffffffffffffffffffffffffffffffffff1673ffffffffffffffffffffffffffffffffffffffff16815260200190815260200160002060020160008473ffffffffffffffffffffffffffffffffffffffff1673ffffffffffffffffffffffffffffffffffffffff16815260200190815260200160002090805190602001906101e092919061088d565b505050565b826000808573ffffffffffffffffffffffffffffffffffffffff1673ffffffffffffffffffffffffffffffffffffffff16815260200190815260200160002060000160006101000a81548173ffffffffffffffffffffffffffffffffffffffff021916908373ffffffffffffffffffffffffffffffffffffffff160217905550816000808573ffffffffffffffffffffffffffffffffffffffff1673ffffffffffffffffffffffffffffffffffffffff16815260200190815260200160002060010190805190602001906102ba92919061088d565b50806000808573ffffffffffffffffffffffffffffffffffffffff1673ffffffffffffffffffffffffffffffffffffffff168152602001908152602001600020600201908051906020019061031092919061088d565b50505050565b6060600160008473ffffffffffffffffffffffffffffffffffffffff1673ffffffffffffffffffffffffffffffffffffffff16815260200190815260200160002060020160008373ffffffffffffffffffffffffffffffffffffffff1673ffffffffffffffffffffffffffffffffffffffff16815260200190815260200160002080546103a290610e1f565b80601f01602080910402602001604051908101604052809291908181526020018280546103ce90610e1f565b801561041b5780601f106103f05761010080835404028352916020019161041b565b820191906000526020600020905b8154815290600101906020018083116103fe57829003601f168201915b5050505050905092915050565b60016020528060005260406000206000915090508060000160009054906101000a900473ffffffffffffffffffffffffffffffffffffffff169080600101805461047190610e1f565b80601f016020809104026020016040519081016040528092919081815260200182805461049d90610e1f565b80156104ea5780601f106104bf576101008083540402835291602001916104ea565b820191906000526020600020905b8154815290600101906020018083116104cd57829003601f168201915b5050505050908060030180546104ff90610e1f565b80601f016020809104026020016040519081016040528092919081815260200182805461052b90610e1f565b80156105785780601f1061054d57610100808354040283529160200191610578565b820191906000526020600020905b81548152906001019060200180831161055b57829003601f168201915b5050505050905083565b61058a610913565b6000808373ffffffffffffffffffffffffffffffffffffffff1673ffffffffffffffffffffffffffffffffffffffff1681526020019081526020016000206040518060600160405290816000820160009054906101000a900473ffffffffffffffffffffffffffffffffffffffff1673ffffffffffffffffffffffffffffffffffffffff1673ffffffffffffffffffffffffffffffffffffffff16815260200160018201805461063990610e1f565b80601f016020809104026020016040519081016040528092919081815260200182805461066590610e1f565b80156106b25780601f10610687576101008083540402835291602001916106b2565b820191906000526020600020905b81548152906001019060200180831161069557829003601f168201915b505050505081526020016002820180546106cb90610e1f565b80601f01602080910402602001604051908101604052809291908181526020018280546106f790610e1f565b80156107445780601f1061071957610100808354040283529160200191610744565b820191906000526020600020905b81548152906001019060200180831161072757829003601f168201915b5050505050815250509050919050565b600033905080600160008373ffffffffffffffffffffffffffffffffffffffff1673ffffffffffffffffffffffffffffffffffffffff16815260200190815260200160002060000160006101000a81548173ffffffffffffffffffffffffffffffffffffffff021916908373ffffffffffffffffffffffffffffffffffffffff16021790555082600160008373ffffffffffffffffffffffffffffffffffffffff1673ffffffffffffffffffffffffffffffffffffffff168152602001908152602001600020600101908051906020019061083092919061088d565b5081600160008373ffffffffffffffffffffffffffffffffffffffff1673ffffffffffffffffffffffffffffffffffffffff168152602001908152602001600020600301908051906020019061088792919061088d565b50505050565b82805461089990610e1f565b90600052602060002090601f0160209004810192826108bb5760008555610902565b82601f106108d457805160ff1916838001178555610902565b82800160010185558215610902579182015b828111156109015782518255916020019190600101906108e6565b5b50905061090f919061094a565b5090565b6040518060600160405280600073ffffffffffffffffffffffffffffffffffffffff16815260200160608152602001606081525090565b5b8082111561096357600081600090555060010161094b565b5090565b600061097a61097584610d4d565b610d28565b90508281526020810184848401111561099657610995610ee5565b5b6109a1848285610ddd565b509392505050565b6000813590506109b881610f05565b92915050565b600082601f8301126109d3576109d2610ee0565b5b81356109e3848260208601610967565b91505092915050565b600060208284031215610a0257610a01610eef565b5b6000610a10848285016109a9565b91505092915050565b60008060408385031215610a3057610a2f610eef565b5b6000610a3e858286016109a9565b9250506020610a4f858286016109a9565b9150509250929050565b60008060408385031215610a7057610a6f610eef565b5b6000610a7e858286016109a9565b925050602083013567ffffffffffffffff811115610a9f57610a9e610eea565b5b610aab858286016109be565b9150509250929050565b600080600060608486031215610ace57610acd610eef565b5b6000610adc868287016109a9565b935050602084013567ffffffffffffffff811115610afd57610afc610eea565b5b610b09868287016109be565b925050604084013567ffffffffffffffff811115610b2a57610b29610eea565b5b610b36868287016109be565b9150509250925092565b60008060408385031215610b5757610b56610eef565b5b600083013567ffffffffffffffff811115610b7557610b74610eea565b5b610b81858286016109be565b925050602083013567ffffffffffffffff811115610ba257610ba1610eea565b5b610bae858286016109be565b9150509250929050565b610bc181610dab565b82525050565b610bd081610dab565b82525050565b6000610be182610d7e565b610beb8185610d89565b9350610bfb818560208601610dec565b610c0481610ef4565b840191505092915050565b6000610c1a82610d7e565b610c248185610d9a565b9350610c34818560208601610dec565b610c3d81610ef4565b840191505092915050565b6000606083016000830151610c606000860182610bb8565b5060208301518482036020860152610c788282610bd6565b91505060408301518482036040860152610c928282610bd6565b9150508091505092915050565b6000606082019050610cb46000830186610bc7565b8181036020830152610cc68185610c0f565b90508181036040830152610cda8184610c0f565b9050949350505050565b60006020820190508181036000830152610cfe8184610c0f565b905092915050565b60006020820190508181036000830152610d208184610c48565b905092915050565b6000610d32610d43565b9050610d3e8282610e51565b919050565b6000604051905090565b600067ffffffffffffffff821115610d6857610d67610eb1565b5b610d7182610ef4565b9050602081019050919050565b600081519050919050565b600082825260208201905092915050565b600082825260208201905092915050565b6000610db682610dbd565b9050919050565b600073ffffffffffffffffffffffffffffffffffffffff82169050919050565b82818337600083830152505050565b60005b83811015610e0a578082015181840152602081019050610def565b83811115610e19576000848401525b50505050565b60006002820490506001821680610e3757607f821691505b60208210811415610e4b57610e4a610e82565b5b50919050565b610e5a82610ef4565b810181811067ffffffffffffffff82111715610e7957610e78610eb1565b5b80604052505050565b7f4e487b7100000000000000000000000000000000000000000000000000000000600052602260045260246000fd5b7f4e487b7100000000000000000000000000000000000000000000000000000000600052604160045260246000fd5b600080fd5b600080fd5b600080fd5b600080fd5b6000601f19601f8301169050919050565b610f0e81610dab565b8114610f1957600080fd5b5056fea2646970667358221220e80b05ea66870a3a7b1ebd193b4c736758996688324bf514ad6a5cb5c463b60464736f6c63430008070033",
					"opcodes": "PUSH1 0x80 PUSH1 0x40 MSTORE CALLVALUE DUP1 ISZERO PUSH2 0x10 JUMPI PUSH1 0x0 DUP1 REVERT JUMPDEST POP PUSH2 0xF52 DUP1 PUSH2 0x20 PUSH1 0x0 CODECOPY PUSH1 0x0 RETURN INVALID PUSH1 0x80 PUSH1 0x40 MSTORE CALLVALUE DUP1 ISZERO PUSH2 0x10 JUMPI PUSH1 0x0 DUP1 REVERT JUMPDEST POP PUSH1 0x4 CALLDATASIZE LT PUSH2 0x62 JUMPI PUSH1 0x0 CALLDATALOAD PUSH1 0xE0 SHR DUP1 PUSH4 0x11EF4171 EQ PUSH2 0x67 JUMPI DUP1 PUSH4 0x6C477035 EQ PUSH2 0x83 JUMPI DUP1 PUSH4 0x8749774F EQ PUSH2 0x9F JUMPI DUP1 PUSH4 0xB9E0AD10 EQ PUSH2 0xCF JUMPI DUP1 PUSH4 0xDE1E23B7 EQ PUSH2 0x101 JUMPI DUP1 PUSH4 0xF2C3C745 EQ PUSH2 0x131 JUMPI JUMPDEST PUSH1 0x0 DUP1 REVERT JUMPDEST PUSH2 0x81 PUSH1 0x4 DUP1 CALLDATASIZE SUB DUP2 ADD SWAP1 PUSH2 0x7C SWAP2 SWAP1 PUSH2 0xA59 JUMP JUMPDEST PUSH2 0x14D JUMP JUMPDEST STOP JUMPDEST PUSH2 0x9D PUSH1 0x4 DUP1 CALLDATASIZE SUB DUP2 ADD SWAP1 PUSH2 0x98 SWAP2 SWAP1 PUSH2 0xAB5 JUMP JUMPDEST PUSH2 0x1E5 JUMP JUMPDEST STOP JUMPDEST PUSH2 0xB9 PUSH1 0x4 DUP1 CALLDATASIZE SUB DUP2 ADD SWAP1 PUSH2 0xB4 SWAP2 SWAP1 PUSH2 0xA19 JUMP JUMPDEST PUSH2 0x316 JUMP JUMPDEST PUSH1 0x40 MLOAD PUSH2 0xC6 SWAP2 SWAP1 PUSH2 0xCE4 JUMP JUMPDEST PUSH1 0x40 MLOAD DUP1 SWAP2 SUB SWAP1 RETURN JUMPDEST PUSH2 0xE9 PUSH1 0x4 DUP1 CALLDATASIZE SUB DUP2 ADD SWAP1 PUSH2 0xE4 SWAP2 SWAP1 PUSH2 0x9EC JUMP JUMPDEST PUSH2 0x428 JUMP JUMPDEST PUSH1 0x40 MLOAD PUSH2 0xF8 SWAP4 SWAP3 SWAP2 SWAP1 PUSH2 0xC9F JUMP JUMPDEST PUSH1 0x40 MLOAD DUP1 SWAP2 SUB SWAP1 RETURN JUMPDEST PUSH2 0x11B PUSH1 0x4 DUP1 CALLDATASIZE SUB DUP2 ADD SWAP1 PUSH2 0x116 SWAP2 SWAP1 PUSH2 0x9EC JUMP JUMPDEST PUSH2 0x582 JUMP JUMPDEST PUSH1 0x40 MLOAD PUSH2 0x128 SWAP2 SWAP1 PUSH2 0xD06 JUMP JUMPDEST PUSH1 0x40 MLOAD DUP1 SWAP2 SUB SWAP1 RETURN JUMPDEST PUSH2 0x14B PUSH1 0x4 DUP1 CALLDATASIZE SUB DUP2 ADD SWAP1 PUSH2 0x146 SWAP2 SWAP1 PUSH2 0xB40 JUMP JUMPDEST PUSH2 0x754 JUMP JUMPDEST STOP JUMPDEST DUP1 PUSH1 0x1 PUSH1 0x0 CALLER PUSH20 0xFFFFFFFFFFFFFFFFFFFFFFFFFFFFFFFFFFFFFFFF AND PUSH20 0xFFFFFFFFFFFFFFFFFFFFFFFFFFFFFFFFFFFFFFFF AND DUP2 MSTORE PUSH1 0x20 ADD SWAP1 DUP2 MSTORE PUSH1 0x20 ADD PUSH1 0x0 KECCAK256 PUSH1 0x2 ADD PUSH1 0x0 DUP5 PUSH20 0xFFFFFFFFFFFFFFFFFFFFFFFFFFFFFFFFFFFFFFFF AND PUSH20 0xFFFFFFFFFFFFFFFFFFFFFFFFFFFFFFFFFFFFFFFF AND DUP2 MSTORE PUSH1 0x20 ADD SWAP1 DUP2 MSTORE PUSH1 0x20 ADD PUSH1 0x0 KECCAK256 SWAP1 DUP1 MLOAD SWAP1 PUSH1 0x20 ADD SWAP1 PUSH2 0x1E0 SWAP3 SWAP2 SWAP1 PUSH2 0x88D JUMP JUMPDEST POP POP POP JUMP JUMPDEST DUP3 PUSH1 0x0 DUP1 DUP6 PUSH20 0xFFFFFFFFFFFFFFFFFFFFFFFFFFFFFFFFFFFFFFFF AND PUSH20 0xFFFFFFFFFFFFFFFFFFFFFFFFFFFFFFFFFFFFFFFF AND DUP2 MSTORE PUSH1 0x20 ADD SWAP1 DUP2 MSTORE PUSH1 0x20 ADD PUSH1 0x0 KECCAK256 PUSH1 0x0 ADD PUSH1 0x0 PUSH2 0x100 EXP DUP2 SLOAD DUP2 PUSH20 0xFFFFFFFFFFFFFFFFFFFFFFFFFFFFFFFFFFFFFFFF MUL NOT AND SWAP1 DUP4 PUSH20 0xFFFFFFFFFFFFFFFFFFFFFFFFFFFFFFFFFFFFFFFF AND MUL OR SWAP1 SSTORE POP DUP2 PUSH1 0x0 DUP1 DUP6 PUSH20 0xFFFFFFFFFFFFFFFFFFFFFFFFFFFFFFFFFFFFFFFF AND PUSH20 0xFFFFFFFFFFFFFFFFFFFFFFFFFFFFFFFFFFFFFFFF AND DUP2 MSTORE PUSH1 0x20 ADD SWAP1 DUP2 MSTORE PUSH1 0x20 ADD PUSH1 0x0 KECCAK256 PUSH1 0x1 ADD SWAP1 DUP1 MLOAD SWAP1 PUSH1 0x20 ADD SWAP1 PUSH2 0x2BA SWAP3 SWAP2 SWAP1 PUSH2 0x88D JUMP JUMPDEST POP DUP1 PUSH1 0x0 DUP1 DUP6 PUSH20 0xFFFFFFFFFFFFFFFFFFFFFFFFFFFFFFFFFFFFFFFF AND PUSH20 0xFFFFFFFFFFFFFFFFFFFFFFFFFFFFFFFFFFFFFFFF AND DUP2 MSTORE PUSH1 0x20 ADD SWAP1 DUP2 MSTORE PUSH1 0x20 ADD PUSH1 0x0 KECCAK256 PUSH1 0x2 ADD SWAP1 DUP1 MLOAD SWAP1 PUSH1 0x20 ADD SWAP1 PUSH2 0x310 SWAP3 SWAP2 SWAP1 PUSH2 0x88D JUMP JUMPDEST POP POP POP POP JUMP JUMPDEST PUSH1 0x60 PUSH1 0x1 PUSH1 0x0 DUP5 PUSH20 0xFFFFFFFFFFFFFFFFFFFFFFFFFFFFFFFFFFFFFFFF AND PUSH20 0xFFFFFFFFFFFFFFFFFFFFFFFFFFFFFFFFFFFFFFFF AND DUP2 MSTORE PUSH1 0x20 ADD SWAP1 DUP2 MSTORE PUSH1 0x20 ADD PUSH1 0x0 KECCAK256 PUSH1 0x2 ADD PUSH1 0x0 DUP4 PUSH20 0xFFFFFFFFFFFFFFFFFFFFFFFFFFFFFFFFFFFFFFFF AND PUSH20 0xFFFFFFFFFFFFFFFFFFFFFFFFFFFFFFFFFFFFFFFF AND DUP2 MSTORE PUSH1 0x20 ADD SWAP1 DUP2 MSTORE PUSH1 0x20 ADD PUSH1 0x0 KECCAK256 DUP1 SLOAD PUSH2 0x3A2 SWAP1 PUSH2 0xE1F JUMP JUMPDEST DUP1 PUSH1 0x1F ADD PUSH1 0x20 DUP1 SWAP2 DIV MUL PUSH1 0x20 ADD PUSH1 0x40 MLOAD SWAP1 DUP2 ADD PUSH1 0x40 MSTORE DUP1 SWAP3 SWAP2 SWAP1 DUP2 DUP2 MSTORE PUSH1 0x20 ADD DUP3 DUP1 SLOAD PUSH2 0x3CE SWAP1 PUSH2 0xE1F JUMP JUMPDEST DUP1 ISZERO PUSH2 0x41B JUMPI DUP1 PUSH1 0x1F LT PUSH2 0x3F0 JUMPI PUSH2 0x100 DUP1 DUP4 SLOAD DIV MUL DUP4 MSTORE SWAP2 PUSH1 0x20 ADD SWAP2 PUSH2 0x41B JUMP JUMPDEST DUP3 ADD SWAP2 SWAP1 PUSH1 0x0 MSTORE PUSH1 0x20 PUSH1 0x0 KECCAK256 SWAP1 JUMPDEST DUP2 SLOAD DUP2 MSTORE SWAP1 PUSH1 0x1 ADD SWAP1 PUSH1 0x20 ADD DUP1 DUP4 GT PUSH2 0x3FE JUMPI DUP3 SWAP1 SUB PUSH1 0x1F AND DUP3 ADD SWAP2 JUMPDEST POP POP POP POP POP SWAP1 POP SWAP3 SWAP2 POP POP JUMP JUMPDEST PUSH1 0x1 PUSH1 0x20 MSTORE DUP1 PUSH1 0x0 MSTORE PUSH1 0x40 PUSH1 0x0 KECCAK256 PUSH1 0x0 SWAP2 POP SWAP1 POP DUP1 PUSH1 0x0 ADD PUSH1 0x0 SWAP1 SLOAD SWAP1 PUSH2 0x100 EXP SWAP1 DIV PUSH20 0xFFFFFFFFFFFFFFFFFFFFFFFFFFFFFFFFFFFFFFFF AND SWAP1 DUP1 PUSH1 0x1 ADD DUP1 SLOAD PUSH2 0x471 SWAP1 PUSH2 0xE1F JUMP JUMPDEST DUP1 PUSH1 0x1F ADD PUSH1 0x20 DUP1 SWAP2 DIV MUL PUSH1 0x20 ADD PUSH1 0x40 MLOAD SWAP1 DUP2 ADD PUSH1 0x40 MSTORE DUP1 SWAP3 SWAP2 SWAP1 DUP2 DUP2 MSTORE PUSH1 0x20 ADD DUP3 DUP1 SLOAD PUSH2 0x49D SWAP1 PUSH2 0xE1F JUMP JUMPDEST DUP1 ISZERO PUSH2 0x4EA JUMPI DUP1 PUSH1 0x1F LT PUSH2 0x4BF JUMPI PUSH2 0x100 DUP1 DUP4 SLOAD DIV MUL DUP4 MSTORE SWAP2 PUSH1 0x20 ADD SWAP2 PUSH2 0x4EA JUMP JUMPDEST DUP3 ADD SWAP2 SWAP1 PUSH1 0x0 MSTORE PUSH1 0x20 PUSH1 0x0 KECCAK256 SWAP1 JUMPDEST DUP2 SLOAD DUP2 MSTORE SWAP1 PUSH1 0x1 ADD SWAP1 PUSH1 0x20 ADD DUP1 DUP4 GT PUSH2 0x4CD JUMPI DUP3 SWAP1 SUB PUSH1 0x1F AND DUP3 ADD SWAP2 JUMPDEST POP POP POP POP POP SWAP1 DUP1 PUSH1 0x3 ADD DUP1 SLOAD PUSH2 0x4FF SWAP1 PUSH2 0xE1F JUMP JUMPDEST DUP1 PUSH1 0x1F ADD PUSH1 0x20 DUP1 SWAP2 DIV MUL PUSH1 0x20 ADD PUSH1 0x40 MLOAD SWAP1 DUP2 ADD PUSH1 0x40 MSTORE DUP1 SWAP3 SWAP2 SWAP1 DUP2 DUP2 MSTORE PUSH1 0x20 ADD DUP3 DUP1 SLOAD PUSH2 0x52B SWAP1 PUSH2 0xE1F JUMP JUMPDEST DUP1 ISZERO PUSH2 0x578 JUMPI DUP1 PUSH1 0x1F LT PUSH2 0x54D JUMPI PUSH2 0x100 DUP1 DUP4 SLOAD DIV MUL DUP4 MSTORE SWAP2 PUSH1 0x20 ADD SWAP2 PUSH2 0x578 JUMP JUMPDEST DUP3 ADD SWAP2 SWAP1 PUSH1 0x0 MSTORE PUSH1 0x20 PUSH1 0x0 KECCAK256 SWAP1 JUMPDEST DUP2 SLOAD DUP2 MSTORE SWAP1 PUSH1 0x1 ADD SWAP1 PUSH1 0x20 ADD DUP1 DUP4 GT PUSH2 0x55B JUMPI DUP3 SWAP1 SUB PUSH1 0x1F AND DUP3 ADD SWAP2 JUMPDEST POP POP POP POP POP SWAP1 POP DUP4 JUMP JUMPDEST PUSH2 0x58A PUSH2 0x913 JUMP JUMPDEST PUSH1 0x0 DUP1 DUP4 PUSH20 0xFFFFFFFFFFFFFFFFFFFFFFFFFFFFFFFFFFFFFFFF AND PUSH20 0xFFFFFFFFFFFFFFFFFFFFFFFFFFFFFFFFFFFFFFFF AND DUP2 MSTORE PUSH1 0x20 ADD SWAP1 DUP2 MSTORE PUSH1 0x20 ADD PUSH1 0x0 KECCAK256 PUSH1 0x40 MLOAD DUP1 PUSH1 0x60 ADD PUSH1 0x40 MSTORE SWAP1 DUP2 PUSH1 0x0 DUP3 ADD PUSH1 0x0 SWAP1 SLOAD SWAP1 PUSH2 0x100 EXP SWAP1 DIV PUSH20 0xFFFFFFFFFFFFFFFFFFFFFFFFFFFFFFFFFFFFFFFF AND PUSH20 0xFFFFFFFFFFFFFFFFFFFFFFFFFFFFFFFFFFFFFFFF AND PUSH20 0xFFFFFFFFFFFFFFFFFFFFFFFFFFFFFFFFFFFFFFFF AND DUP2 MSTORE PUSH1 0x20 ADD PUSH1 0x1 DUP3 ADD DUP1 SLOAD PUSH2 0x639 SWAP1 PUSH2 0xE1F JUMP JUMPDEST DUP1 PUSH1 0x1F ADD PUSH1 0x20 DUP1 SWAP2 DIV MUL PUSH1 0x20 ADD PUSH1 0x40 MLOAD SWAP1 DUP2 ADD PUSH1 0x40 MSTORE DUP1 SWAP3 SWAP2 SWAP1 DUP2 DUP2 MSTORE PUSH1 0x20 ADD DUP3 DUP1 SLOAD PUSH2 0x665 SWAP1 PUSH2 0xE1F JUMP JUMPDEST DUP1 ISZERO PUSH2 0x6B2 JUMPI DUP1 PUSH1 0x1F LT PUSH2 0x687 JUMPI PUSH2 0x100 DUP1 DUP4 SLOAD DIV MUL DUP4 MSTORE SWAP2 PUSH1 0x20 ADD SWAP2 PUSH2 0x6B2 JUMP JUMPDEST DUP3 ADD SWAP2 SWAP1 PUSH1 0x0 MSTORE PUSH1 0x20 PUSH1 0x0 KECCAK256 SWAP1 JUMPDEST DUP2 SLOAD DUP2 MSTORE SWAP1 PUSH1 0x1 ADD SWAP1 PUSH1 0x20 ADD DUP1 DUP4 GT PUSH2 0x695 JUMPI DUP3 SWAP1 SUB PUSH1 0x1F AND DUP3 ADD SWAP2 JUMPDEST POP POP POP POP POP DUP2 MSTORE PUSH1 0x20 ADD PUSH1 0x2 DUP3 ADD DUP1 SLOAD PUSH2 0x6CB SWAP1 PUSH2 0xE1F JUMP JUMPDEST DUP1 PUSH1 0x1F ADD PUSH1 0x20 DUP1 SWAP2 DIV MUL PUSH1 0x20 ADD PUSH1 0x40 MLOAD SWAP1 DUP2 ADD PUSH1 0x40 MSTORE DUP1 SWAP3 SWAP2 SWAP1 DUP2 DUP2 MSTORE PUSH1 0x20 ADD DUP3 DUP1 SLOAD PUSH2 0x6F7 SWAP1 PUSH2 0xE1F JUMP JUMPDEST DUP1 ISZERO PUSH2 0x744 JUMPI DUP1 PUSH1 0x1F LT PUSH2 0x719 JUMPI PUSH2 0x100 DUP1 DUP4 SLOAD DIV MUL DUP4 MSTORE SWAP2 PUSH1 0x20 ADD SWAP2 PUSH2 0x744 JUMP JUMPDEST DUP3 ADD SWAP2 SWAP1 PUSH1 0x0 MSTORE PUSH1 0x20 PUSH1 0x0 KECCAK256 SWAP1 JUMPDEST DUP2 SLOAD DUP2 MSTORE SWAP1 PUSH1 0x1 ADD SWAP1 PUSH1 0x20 ADD DUP1 DUP4 GT PUSH2 0x727 JUMPI DUP3 SWAP1 SUB PUSH1 0x1F AND DUP3 ADD SWAP2 JUMPDEST POP POP POP POP POP DUP2 MSTORE POP POP SWAP1 POP SWAP2 SWAP1 POP JUMP JUMPDEST PUSH1 0x0 CALLER SWAP1 POP DUP1 PUSH1 0x1 PUSH1 0x0 DUP4 PUSH20 0xFFFFFFFFFFFFFFFFFFFFFFFFFFFFFFFFFFFFFFFF AND PUSH20 0xFFFFFFFFFFFFFFFFFFFFFFFFFFFFFFFFFFFFFFFF AND DUP2 MSTORE PUSH1 0x20 ADD SWAP1 DUP2 MSTORE PUSH1 0x20 ADD PUSH1 0x0 KECCAK256 PUSH1 0x0 ADD PUSH1 0x0 PUSH2 0x100 EXP DUP2 SLOAD DUP2 PUSH20 0xFFFFFFFFFFFFFFFFFFFFFFFFFFFFFFFFFFFFFFFF MUL NOT AND SWAP1 DUP4 PUSH20 0xFFFFFFFFFFFFFFFFFFFFFFFFFFFFFFFFFFFFFFFF AND MUL OR SWAP1 SSTORE POP DUP3 PUSH1 0x1 PUSH1 0x0 DUP4 PUSH20 0xFFFFFFFFFFFFFFFFFFFFFFFFFFFFFFFFFFFFFFFF AND PUSH20 0xFFFFFFFFFFFFFFFFFFFFFFFFFFFFFFFFFFFFFFFF AND DUP2 MSTORE PUSH1 0x20 ADD SWAP1 DUP2 MSTORE PUSH1 0x20 ADD PUSH1 0x0 KECCAK256 PUSH1 0x1 ADD SWAP1 DUP1 MLOAD SWAP1 PUSH1 0x20 ADD SWAP1 PUSH2 0x830 SWAP3 SWAP2 SWAP1 PUSH2 0x88D JUMP JUMPDEST POP DUP2 PUSH1 0x1 PUSH1 0x0 DUP4 PUSH20 0xFFFFFFFFFFFFFFFFFFFFFFFFFFFFFFFFFFFFFFFF AND PUSH20 0xFFFFFFFFFFFFFFFFFFFFFFFFFFFFFFFFFFFFFFFF AND DUP2 MSTORE PUSH1 0x20 ADD SWAP1 DUP2 MSTORE PUSH1 0x20 ADD PUSH1 0x0 KECCAK256 PUSH1 0x3 ADD SWAP1 DUP1 MLOAD SWAP1 PUSH1 0x20 ADD SWAP1 PUSH2 0x887 SWAP3 SWAP2 SWAP1 PUSH2 0x88D JUMP JUMPDEST POP POP POP POP JUMP JUMPDEST DUP3 DUP1 SLOAD PUSH2 0x899 SWAP1 PUSH2 0xE1F JUMP JUMPDEST SWAP1 PUSH1 0x0 MSTORE PUSH1 0x20 PUSH1 0x0 KECCAK256 SWAP1 PUSH1 0x1F ADD PUSH1 0x20 SWAP1 DIV DUP2 ADD SWAP3 DUP3 PUSH2 0x8BB JUMPI PUSH1 0x0 DUP6 SSTORE PUSH2 0x902 JUMP JUMPDEST DUP3 PUSH1 0x1F LT PUSH2 0x8D4 JUMPI DUP1 MLOAD PUSH1 0xFF NOT AND DUP4 DUP1 ADD OR DUP6 SSTORE PUSH2 0x902 JUMP JUMPDEST DUP3 DUP1 ADD PUSH1 0x1 ADD DUP6 SSTORE DUP3 ISZERO PUSH2 0x902 JUMPI SWAP2 DUP3 ADD JUMPDEST DUP3 DUP2 GT ISZERO PUSH2 0x901 JUMPI DUP3 MLOAD DUP3 SSTORE SWAP2 PUSH1 0x20 ADD SWAP2 SWAP1 PUSH1 0x1 ADD SWAP1 PUSH2 0x8E6 JUMP JUMPDEST JUMPDEST POP SWAP1 POP PUSH2 0x90F SWAP2 SWAP1 PUSH2 0x94A JUMP JUMPDEST POP SWAP1 JUMP JUMPDEST PUSH1 0x40 MLOAD DUP1 PUSH1 0x60 ADD PUSH1 0x40 MSTORE DUP1 PUSH1 0x0 PUSH20 0xFFFFFFFFFFFFFFFFFFFFFFFFFFFFFFFFFFFFFFFF AND DUP2 MSTORE PUSH1 0x20 ADD PUSH1 0x60 DUP2 MSTORE PUSH1 0x20 ADD PUSH1 0x60 DUP2 MSTORE POP SWAP1 JUMP JUMPDEST JUMPDEST DUP1 DUP3 GT ISZERO PUSH2 0x963 JUMPI PUSH1 0x0 DUP2 PUSH1 0x0 SWAP1 SSTORE POP PUSH1 0x1 ADD PUSH2 0x94B JUMP JUMPDEST POP SWAP1 JUMP JUMPDEST PUSH1 0x0 PUSH2 0x97A PUSH2 0x975 DUP5 PUSH2 0xD4D JUMP JUMPDEST PUSH2 0xD28 JUMP JUMPDEST SWAP1 POP DUP3 DUP2 MSTORE PUSH1 0x20 DUP2 ADD DUP5 DUP5 DUP5 ADD GT ISZERO PUSH2 0x996 JUMPI PUSH2 0x995 PUSH2 0xEE5 JUMP JUMPDEST JUMPDEST PUSH2 0x9A1 DUP5 DUP3 DUP6 PUSH2 0xDDD JUMP JUMPDEST POP SWAP4 SWAP3 POP POP POP JUMP JUMPDEST PUSH1 0x0 DUP2 CALLDATALOAD SWAP1 POP PUSH2 0x9B8 DUP2 PUSH2 0xF05 JUMP JUMPDEST SWAP3 SWAP2 POP POP JUMP JUMPDEST PUSH1 0x0 DUP3 PUSH1 0x1F DUP4 ADD SLT PUSH2 0x9D3 JUMPI PUSH2 0x9D2 PUSH2 0xEE0 JUMP JUMPDEST JUMPDEST DUP2 CALLDATALOAD PUSH2 0x9E3 DUP5 DUP3 PUSH1 0x20 DUP7 ADD PUSH2 0x967 JUMP JUMPDEST SWAP2 POP POP SWAP3 SWAP2 POP POP JUMP JUMPDEST PUSH1 0x0 PUSH1 0x20 DUP3 DUP5 SUB SLT ISZERO PUSH2 0xA02 JUMPI PUSH2 0xA01 PUSH2 0xEEF JUMP JUMPDEST JUMPDEST PUSH1 0x0 PUSH2 0xA10 DUP5 DUP3 DUP6 ADD PUSH2 0x9A9 JUMP JUMPDEST SWAP2 POP POP SWAP3 SWAP2 POP POP JUMP JUMPDEST PUSH1 0x0 DUP1 PUSH1 0x40 DUP4 DUP6 SUB SLT ISZERO PUSH2 0xA30 JUMPI PUSH2 0xA2F PUSH2 0xEEF JUMP JUMPDEST JUMPDEST PUSH1 0x0 PUSH2 0xA3E DUP6 DUP3 DUP7 ADD PUSH2 0x9A9 JUMP JUMPDEST SWAP3 POP POP PUSH1 0x20 PUSH2 0xA4F DUP6 DUP3 DUP7 ADD PUSH2 0x9A9 JUMP JUMPDEST SWAP2 POP POP SWAP3 POP SWAP3 SWAP1 POP JUMP JUMPDEST PUSH1 0x0 DUP1 PUSH1 0x40 DUP4 DUP6 SUB SLT ISZERO PUSH2 0xA70 JUMPI PUSH2 0xA6F PUSH2 0xEEF JUMP JUMPDEST JUMPDEST PUSH1 0x0 PUSH2 0xA7E DUP6 DUP3 DUP7 ADD PUSH2 0x9A9 JUMP JUMPDEST SWAP3 POP POP PUSH1 0x20 DUP4 ADD CALLDATALOAD PUSH8 0xFFFFFFFFFFFFFFFF DUP2 GT ISZERO PUSH2 0xA9F JUMPI PUSH2 0xA9E PUSH2 0xEEA JUMP JUMPDEST JUMPDEST PUSH2 0xAAB DUP6 DUP3 DUP7 ADD PUSH2 0x9BE JUMP JUMPDEST SWAP2 POP POP SWAP3 POP SWAP3 SWAP1 POP JUMP JUMPDEST PUSH1 0x0 DUP1 PUSH1 0x0 PUSH1 0x60 DUP5 DUP7 SUB SLT ISZERO PUSH2 0xACE JUMPI PUSH2 0xACD PUSH2 0xEEF JUMP JUMPDEST JUMPDEST PUSH1 0x0 PUSH2 0xADC DUP7 DUP3 DUP8 ADD PUSH2 0x9A9 JUMP JUMPDEST SWAP4 POP POP PUSH1 0x20 DUP5 ADD CALLDATALOAD PUSH8 0xFFFFFFFFFFFFFFFF DUP2 GT ISZERO PUSH2 0xAFD JUMPI PUSH2 0xAFC PUSH2 0xEEA JUMP JUMPDEST JUMPDEST PUSH2 0xB09 DUP7 DUP3 DUP8 ADD PUSH2 0x9BE JUMP JUMPDEST SWAP3 POP POP PUSH1 0x40 DUP5 ADD CALLDATALOAD PUSH8 0xFFFFFFFFFFFFFFFF DUP2 GT ISZERO PUSH2 0xB2A JUMPI PUSH2 0xB29 PUSH2 0xEEA JUMP JUMPDEST JUMPDEST PUSH2 0xB36 DUP7 DUP3 DUP8 ADD PUSH2 0x9BE JUMP JUMPDEST SWAP2 POP POP SWAP3 POP SWAP3 POP SWAP3 JUMP JUMPDEST PUSH1 0x0 DUP1 PUSH1 0x40 DUP4 DUP6 SUB SLT ISZERO PUSH2 0xB57 JUMPI PUSH2 0xB56 PUSH2 0xEEF JUMP JUMPDEST JUMPDEST PUSH1 0x0 DUP4 ADD CALLDATALOAD PUSH8 0xFFFFFFFFFFFFFFFF DUP2 GT ISZERO PUSH2 0xB75 JUMPI PUSH2 0xB74 PUSH2 0xEEA JUMP JUMPDEST JUMPDEST PUSH2 0xB81 DUP6 DUP3 DUP7 ADD PUSH2 0x9BE JUMP JUMPDEST SWAP3 POP POP PUSH1 0x20 DUP4 ADD CALLDATALOAD PUSH8 0xFFFFFFFFFFFFFFFF DUP2 GT ISZERO PUSH2 0xBA2 JUMPI PUSH2 0xBA1 PUSH2 0xEEA JUMP JUMPDEST JUMPDEST PUSH2 0xBAE DUP6 DUP3 DUP7 ADD PUSH2 0x9BE JUMP JUMPDEST SWAP2 POP POP SWAP3 POP SWAP3 SWAP1 POP JUMP JUMPDEST PUSH2 0xBC1 DUP2 PUSH2 0xDAB JUMP JUMPDEST DUP3 MSTORE POP POP JUMP JUMPDEST PUSH2 0xBD0 DUP2 PUSH2 0xDAB JUMP JUMPDEST DUP3 MSTORE POP POP JUMP JUMPDEST PUSH1 0x0 PUSH2 0xBE1 DUP3 PUSH2 0xD7E JUMP JUMPDEST PUSH2 0xBEB DUP2 DUP6 PUSH2 0xD89 JUMP JUMPDEST SWAP4 POP PUSH2 0xBFB DUP2 DUP6 PUSH1 0x20 DUP7 ADD PUSH2 0xDEC JUMP JUMPDEST PUSH2 0xC04 DUP2 PUSH2 0xEF4 JUMP JUMPDEST DUP5 ADD SWAP2 POP POP SWAP3 SWAP2 POP POP JUMP JUMPDEST PUSH1 0x0 PUSH2 0xC1A DUP3 PUSH2 0xD7E JUMP JUMPDEST PUSH2 0xC24 DUP2 DUP6 PUSH2 0xD9A JUMP JUMPDEST SWAP4 POP PUSH2 0xC34 DUP2 DUP6 PUSH1 0x20 DUP7 ADD PUSH2 0xDEC JUMP JUMPDEST PUSH2 0xC3D DUP2 PUSH2 0xEF4 JUMP JUMPDEST DUP5 ADD SWAP2 POP POP SWAP3 SWAP2 POP POP JUMP JUMPDEST PUSH1 0x0 PUSH1 0x60 DUP4 ADD PUSH1 0x0 DUP4 ADD MLOAD PUSH2 0xC60 PUSH1 0x0 DUP7 ADD DUP3 PUSH2 0xBB8 JUMP JUMPDEST POP PUSH1 0x20 DUP4 ADD MLOAD DUP5 DUP3 SUB PUSH1 0x20 DUP7 ADD MSTORE PUSH2 0xC78 DUP3 DUP3 PUSH2 0xBD6 JUMP JUMPDEST SWAP2 POP POP PUSH1 0x40 DUP4 ADD MLOAD DUP5 DUP3 SUB PUSH1 0x40 DUP7 ADD MSTORE PUSH2 0xC92 DUP3 DUP3 PUSH2 0xBD6 JUMP JUMPDEST SWAP2 POP POP DUP1 SWAP2 POP POP SWAP3 SWAP2 POP POP JUMP JUMPDEST PUSH1 0x0 PUSH1 0x60 DUP3 ADD SWAP1 POP PUSH2 0xCB4 PUSH1 0x0 DUP4 ADD DUP7 PUSH2 0xBC7 JUMP JUMPDEST DUP2 DUP2 SUB PUSH1 0x20 DUP4 ADD MSTORE PUSH2 0xCC6 DUP2 DUP6 PUSH2 0xC0F JUMP JUMPDEST SWAP1 POP DUP2 DUP2 SUB PUSH1 0x40 DUP4 ADD MSTORE PUSH2 0xCDA DUP2 DUP5 PUSH2 0xC0F JUMP JUMPDEST SWAP1 POP SWAP5 SWAP4 POP POP POP POP JUMP JUMPDEST PUSH1 0x0 PUSH1 0x20 DUP3 ADD SWAP1 POP DUP2 DUP2 SUB PUSH1 0x0 DUP4 ADD MSTORE PUSH2 0xCFE DUP2 DUP5 PUSH2 0xC0F JUMP JUMPDEST SWAP1 POP SWAP3 SWAP2 POP POP JUMP JUMPDEST PUSH1 0x0 PUSH1 0x20 DUP3 ADD SWAP1 POP DUP2 DUP2 SUB PUSH1 0x0 DUP4 ADD MSTORE PUSH2 0xD20 DUP2 DUP5 PUSH2 0xC48 JUMP JUMPDEST SWAP1 POP SWAP3 SWAP2 POP POP JUMP JUMPDEST PUSH1 0x0 PUSH2 0xD32 PUSH2 0xD43 JUMP JUMPDEST SWAP1 POP PUSH2 0xD3E DUP3 DUP3 PUSH2 0xE51 JUMP JUMPDEST SWAP2 SWAP1 POP JUMP JUMPDEST PUSH1 0x0 PUSH1 0x40 MLOAD SWAP1 POP SWAP1 JUMP JUMPDEST PUSH1 0x0 PUSH8 0xFFFFFFFFFFFFFFFF DUP3 GT ISZERO PUSH2 0xD68 JUMPI PUSH2 0xD67 PUSH2 0xEB1 JUMP JUMPDEST JUMPDEST PUSH2 0xD71 DUP3 PUSH2 0xEF4 JUMP JUMPDEST SWAP1 POP PUSH1 0x20 DUP2 ADD SWAP1 POP SWAP2 SWAP1 POP JUMP JUMPDEST PUSH1 0x0 DUP2 MLOAD SWAP1 POP SWAP2 SWAP1 POP JUMP JUMPDEST PUSH1 0x0 DUP3 DUP3 MSTORE PUSH1 0x20 DUP3 ADD SWAP1 POP SWAP3 SWAP2 POP POP JUMP JUMPDEST PUSH1 0x0 DUP3 DUP3 MSTORE PUSH1 0x20 DUP3 ADD SWAP1 POP SWAP3 SWAP2 POP POP JUMP JUMPDEST PUSH1 0x0 PUSH2 0xDB6 DUP3 PUSH2 0xDBD JUMP JUMPDEST SWAP1 POP SWAP2 SWAP1 POP JUMP JUMPDEST PUSH1 0x0 PUSH20 0xFFFFFFFFFFFFFFFFFFFFFFFFFFFFFFFFFFFFFFFF DUP3 AND SWAP1 POP SWAP2 SWAP1 POP JUMP JUMPDEST DUP3 DUP2 DUP4 CALLDATACOPY PUSH1 0x0 DUP4 DUP4 ADD MSTORE POP POP POP JUMP JUMPDEST PUSH1 0x0 JUMPDEST DUP4 DUP2 LT ISZERO PUSH2 0xE0A JUMPI DUP1 DUP3 ADD MLOAD DUP2 DUP5 ADD MSTORE PUSH1 0x20 DUP2 ADD SWAP1 POP PUSH2 0xDEF JUMP JUMPDEST DUP4 DUP2 GT ISZERO PUSH2 0xE19 JUMPI PUSH1 0x0 DUP5 DUP5 ADD MSTORE JUMPDEST POP POP POP POP JUMP JUMPDEST PUSH1 0x0 PUSH1 0x2 DUP3 DIV SWAP1 POP PUSH1 0x1 DUP3 AND DUP1 PUSH2 0xE37 JUMPI PUSH1 0x7F DUP3 AND SWAP2 POP JUMPDEST PUSH1 0x20 DUP3 LT DUP2 EQ ISZERO PUSH2 0xE4B JUMPI PUSH2 0xE4A PUSH2 0xE82 JUMP JUMPDEST JUMPDEST POP SWAP2 SWAP1 POP JUMP JUMPDEST PUSH2 0xE5A DUP3 PUSH2 0xEF4 JUMP JUMPDEST DUP2 ADD DUP2 DUP2 LT PUSH8 0xFFFFFFFFFFFFFFFF DUP3 GT OR ISZERO PUSH2 0xE79 JUMPI PUSH2 0xE78 PUSH2 0xEB1 JUMP JUMPDEST JUMPDEST DUP1 PUSH1 0x40 MSTORE POP POP POP JUMP JUMPDEST PUSH32 0x4E487B7100000000000000000000000000000000000000000000000000000000 PUSH1 0x0 MSTORE PUSH1 0x22 PUSH1 0x4 MSTORE PUSH1 0x24 PUSH1 0x0 REVERT JUMPDEST PUSH32 0x4E487B7100000000000000000000000000000000000000000000000000000000 PUSH1 0x0 MSTORE PUSH1 0x41 PUSH1 0x4 MSTORE PUSH1 0x24 PUSH1 0x0 REVERT JUMPDEST PUSH1 0x0 DUP1 REVERT JUMPDEST PUSH1 0x0 DUP1 REVERT JUMPDEST PUSH1 0x0 DUP1 REVERT JUMPDEST PUSH1 0x0 DUP1 REVERT JUMPDEST PUSH1 0x0 PUSH1 0x1F NOT PUSH1 0x1F DUP4 ADD AND SWAP1 POP SWAP2 SWAP1 POP JUMP JUMPDEST PUSH2 0xF0E DUP2 PUSH2 0xDAB JUMP JUMPDEST DUP2 EQ PUSH2 0xF19 JUMPI PUSH1 0x0 DUP1 REVERT JUMPDEST POP JUMP INVALID LOG2 PUSH5 0x6970667358 0x22 SLT KECCAK256 0xE8 SIGNEXTEND SDIV 0xEA PUSH7 0x870A3A7B1EBD19 EXTCODESIZE 0x4C PUSH20 0x6758996688324BF514AD6A5CB5C463B60464736F PUSH13 0x63430008070033000000000000 "
				},
				"gasEstimates": {
					"creation": {
						"codeDepositCost": "784400",
						"executionCost": "818",
						"totalCost": "785218"
					},
					"external": {
						"getDeviceInfoByAddr(address)": "infinite",
						"getRight(address,address)": "infinite",
						"register4Right(address,string)": "infinite",
						"setDeviceInfo(address,string,string)": "infinite",
						"setSubjInfo(string,string)": "infinite",
						"subjInfoMap(address)": "infinite"
					}
				},
				"methodIdentifiers": {
					"getDeviceInfoByAddr(address)": "de1e23b7",
					"getRight(address,address)": "8749774f",
					"register4Right(address,string)": "11ef4171",
					"setDeviceInfo(address,string,string)": "6c477035",
					"setSubjInfo(string,string)": "f2c3c745",
					"subjInfoMap(address)": "b9e0ad10"
				}
			},
			"userdoc": {
				"kind": "user",
				"methods": {},
				"version": 1
			}
		}
	}
}