{
	"contracts/AccessControl.sol": {
		"AccessControl": {
			"abi": [
				{
					"inputs": [
						{
							"internalType": "address",
							"name": "_addr",
							"type": "address"
						}
					],
					"name": "getTestDeviceInfoByAddr",
					"outputs": [
						{
							"internalType": "string",
							"name": "_deviceName",
							"type": "string"
						},
						{
							"internalType": "string",
							"name": "_deviceType",
							"type": "string"
						}
					],
					"stateMutability": "view",
					"type": "function"
				},
				{
					"inputs": [
						{
							"internalType": "address",
							"name": "_contractAddr",
							"type": "address"
						}
					],
					"name": "setM",
					"outputs": [],
					"stateMutability": "nonpayable",
					"type": "function"
				}
			],
			"devdoc": {
				"kind": "dev",
				"methods": {},
				"version": 1
			},
			"evm": {
				"assembly": "    /* \"contracts/AccessControl.sol\":98:547  contract AccessControl {\r... */\n  mstore(0x40, 0x80)\n  callvalue\n  dup1\n  iszero\n  tag_1\n  jumpi\n  0x00\n  dup1\n  revert\ntag_1:\n  pop\n  dataSize(sub_0)\n  dup1\n  dataOffset(sub_0)\n  0x00\n  codecopy\n  0x00\n  return\nstop\n\nsub_0: assembly {\n        /* \"contracts/AccessControl.sol\":98:547  contract AccessControl {\r... */\n      mstore(0x40, 0x80)\n      callvalue\n      dup1\n      iszero\n      tag_1\n      jumpi\n      0x00\n      dup1\n      revert\n    tag_1:\n      pop\n      jumpi(tag_2, lt(calldatasize, 0x04))\n      shr(0xe0, calldataload(0x00))\n      dup1\n      0xb9ed3ebb\n      eq\n      tag_3\n      jumpi\n      dup1\n      0xd6f4496a\n      eq\n      tag_4\n      jumpi\n    tag_2:\n      0x00\n      dup1\n      revert\n        /* \"contracts/AccessControl.sol\":267:538  function getTestDeviceInfoByAddr(address _addr) public view returns (string memory _deviceName, string memory _deviceType) {\r... */\n    tag_3:\n      tag_5\n      0x04\n      dup1\n      calldatasize\n      sub\n      dup2\n      add\n      swap1\n      tag_6\n      swap2\n      swap1\n      tag_7\n      jump\t// in\n    tag_6:\n      tag_8\n      jump\t// in\n    tag_5:\n      mload(0x40)\n      tag_9\n      swap3\n      swap2\n      swap1\n      tag_10\n      jump\t// in\n    tag_9:\n      mload(0x40)\n      dup1\n      swap2\n      sub\n      swap1\n      return\n        /* \"contracts/AccessControl.sol\":161:259  function setM(address _contractAddr) public {\r... */\n    tag_4:\n      tag_11\n      0x04\n      dup1\n      calldatasize\n      sub\n      dup2\n      add\n      swap1\n      tag_12\n      swap2\n      swap1\n      tag_7\n      jump\t// in\n    tag_12:\n      tag_13\n      jump\t// in\n    tag_11:\n      stop\n        /* \"contracts/AccessControl.sol\":267:538  function getTestDeviceInfoByAddr(address _addr) public view returns (string memory _deviceName, string memory _deviceType) {\r... */\n    tag_8:\n        /* \"contracts/AccessControl.sol\":336:361  string memory _deviceName */\n      0x60\n        /* \"contracts/AccessControl.sol\":363:388  string memory _deviceType */\n      dup1\n        /* \"contracts/AccessControl.sol\":415:422  manager */\n      0x00\n      dup1\n      sload\n      swap1\n      0x0100\n      exp\n      swap1\n      div\n      0xffffffffffffffffffffffffffffffffffffffff\n      and\n        /* \"contracts/AccessControl.sol\":415:442  manager.getDeviceInfoByAddr */\n      0xffffffffffffffffffffffffffffffffffffffff\n      and\n      0xde1e23b7\n        /* \"contracts/AccessControl.sol\":443:448  _addr */\n      dup5\n        /* \"contracts/AccessControl.sol\":415:449  manager.getDeviceInfoByAddr(_addr) */\n      mload(0x40)\n      dup3\n      0xffffffff\n      and\n      0xe0\n      shl\n      dup2\n      mstore\n      0x04\n      add\n      tag_15\n      swap2\n      swap1\n      tag_16\n      jump\t// in\n    tag_15:\n      0x00\n      mload(0x40)\n      dup1\n      dup4\n      sub\n      dup2\n      dup7\n      dup1\n      extcodesize\n      iszero\n      dup1\n      iszero\n      tag_17\n      jumpi\n      0x00\n      dup1\n      revert\n    tag_17:\n      pop\n      gas\n      staticcall\n      iszero\n      dup1\n      iszero\n      tag_19\n      jumpi\n      returndatasize\n      0x00\n      dup1\n      returndatacopy\n      revert(0x00, returndatasize)\n    tag_19:\n      pop\n      pop\n      pop\n      pop\n      mload(0x40)\n      returndatasize\n      0x00\n      dup3\n      returndatacopy\n      returndatasize\n      not(0x1f)\n      0x1f\n      dup3\n      add\n      and\n      dup3\n      add\n      dup1\n      0x40\n      mstore\n      pop\n      dup2\n      add\n      swap1\n      tag_20\n      swap2\n      swap1\n      tag_21\n      jump\t// in\n    tag_20:\n        /* \"contracts/AccessControl.sol\":415:460  manager.getDeviceInfoByAddr(_addr).deviceName */\n      0x20\n      add\n      mload\n        /* \"contracts/AccessControl.sol\":401:460  _deviceName = manager.getDeviceInfoByAddr(_addr).deviceName */\n      swap2\n      pop\n        /* \"contracts/AccessControl.sol\":485:492  manager */\n      0x00\n      dup1\n      sload\n      swap1\n      0x0100\n      exp\n      swap1\n      div\n      0xffffffffffffffffffffffffffffffffffffffff\n      and\n        /* \"contracts/AccessControl.sol\":485:512  manager.getDeviceInfoByAddr */\n      0xffffffffffffffffffffffffffffffffffffffff\n      and\n      0xde1e23b7\n        /* \"contracts/AccessControl.sol\":513:518  _addr */\n      dup5\n        /* \"contracts/AccessControl.sol\":485:519  manager.getDeviceInfoByAddr(_addr) */\n      mload(0x40)\n      dup3\n      0xffffffff\n      and\n      0xe0\n      shl\n      dup2\n      mstore\n      0x04\n      add\n      tag_22\n      swap2\n      swap1\n      tag_16\n      jump\t// in\n    tag_22:\n      0x00\n      mload(0x40)\n      dup1\n      dup4\n      sub\n      dup2\n      dup7\n      dup1\n      extcodesize\n      iszero\n      dup1\n      iszero\n      tag_23\n      jumpi\n      0x00\n      dup1\n      revert\n    tag_23:\n      pop\n      gas\n      staticcall\n      iszero\n      dup1\n      iszero\n      tag_25\n      jumpi\n      returndatasize\n      0x00\n      dup1\n      returndatacopy\n      revert(0x00, returndatasize)\n    tag_25:\n      pop\n      pop\n      pop\n      pop\n      mload(0x40)\n      returndatasize\n      0x00\n      dup3\n      returndatacopy\n      returndatasize\n      not(0x1f)\n      0x1f\n      dup3\n      add\n      and\n      dup3\n      add\n      dup1\n      0x40\n      mstore\n      pop\n      dup2\n      add\n      swap1\n      tag_26\n      swap2\n      swap1\n      tag_21\n      jump\t// in\n    tag_26:\n        /* \"contracts/AccessControl.sol\":485:530  manager.getDeviceInfoByAddr(_addr).deviceType */\n      0x40\n      add\n      mload\n        /* \"contracts/AccessControl.sol\":471:530  _deviceType = manager.getDeviceInfoByAddr(_addr).deviceType */\n      swap1\n      pop\n        /* \"contracts/AccessControl.sol\":267:538  function getTestDeviceInfoByAddr(address _addr) public view returns (string memory _deviceName, string memory _deviceType) {\r... */\n      swap2\n      pop\n      swap2\n      jump\t// out\n        /* \"contracts/AccessControl.sol\":161:259  function setM(address _contractAddr) public {\r... */\n    tag_13:\n        /* \"contracts/AccessControl.sol\":237:250  _contractAddr */\n      dup1\n        /* \"contracts/AccessControl.sol\":216:223  manager */\n      0x00\n      dup1\n        /* \"contracts/AccessControl.sol\":216:251  manager = Management(_contractAddr) */\n      0x0100\n      exp\n      dup2\n      sload\n      dup2\n      0xffffffffffffffffffffffffffffffffffffffff\n      mul\n      not\n      and\n      swap1\n      dup4\n      0xffffffffffffffffffffffffffffffffffffffff\n      and\n      mul\n      or\n      swap1\n      sstore\n      pop\n        /* \"contracts/AccessControl.sol\":161:259  function setM(address _contractAddr) public {\r... */\n      pop\n      jump\t// out\n        /* \"#utility.yul\":7:428   */\n    tag_29:\n        /* \"#utility.yul\":96:101   */\n      0x00\n        /* \"#utility.yul\":121:187   */\n      tag_31\n        /* \"#utility.yul\":137:186   */\n      tag_32\n        /* \"#utility.yul\":179:185   */\n      dup5\n        /* \"#utility.yul\":137:186   */\n      tag_33\n      jump\t// in\n    tag_32:\n        /* \"#utility.yul\":121:187   */\n      tag_34\n      jump\t// in\n    tag_31:\n        /* \"#utility.yul\":112:187   */\n      swap1\n      pop\n        /* \"#utility.yul\":210:216   */\n      dup3\n        /* \"#utility.yul\":203:208   */\n      dup2\n        /* \"#utility.yul\":196:217   */\n      mstore\n        /* \"#utility.yul\":248:252   */\n      0x20\n        /* \"#utility.yul\":241:246   */\n      dup2\n        /* \"#utility.yul\":237:253   */\n      add\n        /* \"#utility.yul\":286:289   */\n      dup5\n        /* \"#utility.yul\":277:283   */\n      dup5\n        /* \"#utility.yul\":272:275   */\n      dup5\n        /* \"#utility.yul\":268:284   */\n      add\n        /* \"#utility.yul\":265:290   */\n      gt\n        /* \"#utility.yul\":262:374   */\n      iszero\n      tag_35\n      jumpi\n        /* \"#utility.yul\":293:372   */\n      tag_36\n      tag_37\n      jump\t// in\n    tag_36:\n        /* \"#utility.yul\":262:374   */\n    tag_35:\n        /* \"#utility.yul\":383:422   */\n      tag_38\n        /* \"#utility.yul\":415:421   */\n      dup5\n        /* \"#utility.yul\":410:413   */\n      dup3\n        /* \"#utility.yul\":405:408   */\n      dup6\n        /* \"#utility.yul\":383:422   */\n      tag_39\n      jump\t// in\n    tag_38:\n        /* \"#utility.yul\":102:428   */\n      pop\n        /* \"#utility.yul\":7:428   */\n      swap4\n      swap3\n      pop\n      pop\n      pop\n      jump\t// out\n        /* \"#utility.yul\":434:573   */\n    tag_40:\n        /* \"#utility.yul\":480:485   */\n      0x00\n        /* \"#utility.yul\":518:524   */\n      dup2\n        /* \"#utility.yul\":505:525   */\n      calldataload\n        /* \"#utility.yul\":496:525   */\n      swap1\n      pop\n        /* \"#utility.yul\":534:567   */\n      tag_42\n        /* \"#utility.yul\":561:566   */\n      dup2\n        /* \"#utility.yul\":534:567   */\n      tag_43\n      jump\t// in\n    tag_42:\n        /* \"#utility.yul\":434:573   */\n      swap3\n      swap2\n      pop\n      pop\n      jump\t// out\n        /* \"#utility.yul\":579:722   */\n    tag_44:\n        /* \"#utility.yul\":636:641   */\n      0x00\n        /* \"#utility.yul\":667:673   */\n      dup2\n        /* \"#utility.yul\":661:674   */\n      mload\n        /* \"#utility.yul\":652:674   */\n      swap1\n      pop\n        /* \"#utility.yul\":683:716   */\n      tag_46\n        /* \"#utility.yul\":710:715   */\n      dup2\n        /* \"#utility.yul\":683:716   */\n      tag_43\n      jump\t// in\n    tag_46:\n        /* \"#utility.yul\":579:722   */\n      swap3\n      swap2\n      pop\n      pop\n      jump\t// out\n        /* \"#utility.yul\":742:1097   */\n    tag_47:\n        /* \"#utility.yul\":809:814   */\n      0x00\n        /* \"#utility.yul\":858:861   */\n      dup3\n        /* \"#utility.yul\":851:855   */\n      0x1f\n        /* \"#utility.yul\":843:849   */\n      dup4\n        /* \"#utility.yul\":839:856   */\n      add\n        /* \"#utility.yul\":835:862   */\n      slt\n        /* \"#utility.yul\":825:947   */\n      tag_49\n      jumpi\n        /* \"#utility.yul\":866:945   */\n      tag_50\n      tag_51\n      jump\t// in\n    tag_50:\n        /* \"#utility.yul\":825:947   */\n    tag_49:\n        /* \"#utility.yul\":976:982   */\n      dup2\n        /* \"#utility.yul\":970:983   */\n      mload\n        /* \"#utility.yul\":1001:1091   */\n      tag_52\n        /* \"#utility.yul\":1087:1090   */\n      dup5\n        /* \"#utility.yul\":1079:1085   */\n      dup3\n        /* \"#utility.yul\":1072:1076   */\n      0x20\n        /* \"#utility.yul\":1064:1070   */\n      dup7\n        /* \"#utility.yul\":1060:1077   */\n      add\n        /* \"#utility.yul\":1001:1091   */\n      tag_29\n      jump\t// in\n    tag_52:\n        /* \"#utility.yul\":992:1091   */\n      swap2\n      pop\n        /* \"#utility.yul\":815:1097   */\n      pop\n        /* \"#utility.yul\":742:1097   */\n      swap3\n      swap2\n      pop\n      pop\n      jump\t// out\n        /* \"#utility.yul\":1139:2263   */\n    tag_53:\n        /* \"#utility.yul\":1225:1230   */\n      0x00\n        /* \"#utility.yul\":1269:1273   */\n      0x60\n        /* \"#utility.yul\":1257:1266   */\n      dup3\n        /* \"#utility.yul\":1252:1255   */\n      dup5\n        /* \"#utility.yul\":1248:1267   */\n      sub\n        /* \"#utility.yul\":1244:1274   */\n      slt\n        /* \"#utility.yul\":1241:1358   */\n      iszero\n      tag_55\n      jumpi\n        /* \"#utility.yul\":1277:1356   */\n      tag_56\n      tag_57\n      jump\t// in\n    tag_56:\n        /* \"#utility.yul\":1241:1358   */\n    tag_55:\n        /* \"#utility.yul\":1376:1397   */\n      tag_58\n        /* \"#utility.yul\":1392:1396   */\n      0x60\n        /* \"#utility.yul\":1376:1397   */\n      tag_34\n      jump\t// in\n    tag_58:\n        /* \"#utility.yul\":1367:1397   */\n      swap1\n      pop\n        /* \"#utility.yul\":1462:1463   */\n      0x00\n        /* \"#utility.yul\":1502:1562   */\n      tag_59\n        /* \"#utility.yul\":1558:1561   */\n      dup5\n        /* \"#utility.yul\":1549:1555   */\n      dup3\n        /* \"#utility.yul\":1538:1547   */\n      dup6\n        /* \"#utility.yul\":1534:1556   */\n      add\n        /* \"#utility.yul\":1502:1562   */\n      tag_44\n      jump\t// in\n    tag_59:\n        /* \"#utility.yul\":1495:1499   */\n      0x00\n        /* \"#utility.yul\":1488:1493   */\n      dup4\n        /* \"#utility.yul\":1484:1500   */\n      add\n        /* \"#utility.yul\":1477:1563   */\n      mstore\n        /* \"#utility.yul\":1407:1574   */\n      pop\n        /* \"#utility.yul\":1660:1662   */\n      0x20\n        /* \"#utility.yul\":1649:1658   */\n      dup3\n        /* \"#utility.yul\":1645:1663   */\n      add\n        /* \"#utility.yul\":1639:1664   */\n      mload\n        /* \"#utility.yul\":1691:1709   */\n      0xffffffffffffffff\n        /* \"#utility.yul\":1683:1689   */\n      dup2\n        /* \"#utility.yul\":1680:1710   */\n      gt\n        /* \"#utility.yul\":1677:1794   */\n      iszero\n      tag_60\n      jumpi\n        /* \"#utility.yul\":1713:1792   */\n      tag_61\n      tag_62\n      jump\t// in\n    tag_61:\n        /* \"#utility.yul\":1677:1794   */\n    tag_60:\n        /* \"#utility.yul\":1833:1903   */\n      tag_63\n        /* \"#utility.yul\":1899:1902   */\n      dup5\n        /* \"#utility.yul\":1890:1896   */\n      dup3\n        /* \"#utility.yul\":1879:1888   */\n      dup6\n        /* \"#utility.yul\":1875:1897   */\n      add\n        /* \"#utility.yul\":1833:1903   */\n      tag_47\n      jump\t// in\n    tag_63:\n        /* \"#utility.yul\":1826:1830   */\n      0x20\n        /* \"#utility.yul\":1819:1824   */\n      dup4\n        /* \"#utility.yul\":1815:1831   */\n      add\n        /* \"#utility.yul\":1808:1904   */\n      mstore\n        /* \"#utility.yul\":1584:1915   */\n      pop\n        /* \"#utility.yul\":2001:2003   */\n      0x40\n        /* \"#utility.yul\":1990:1999   */\n      dup3\n        /* \"#utility.yul\":1986:2004   */\n      add\n        /* \"#utility.yul\":1980:2005   */\n      mload\n        /* \"#utility.yul\":2032:2050   */\n      0xffffffffffffffff\n        /* \"#utility.yul\":2024:2030   */\n      dup2\n        /* \"#utility.yul\":2021:2051   */\n      gt\n        /* \"#utility.yul\":2018:2135   */\n      iszero\n      tag_64\n      jumpi\n        /* \"#utility.yul\":2054:2133   */\n      tag_65\n      tag_62\n      jump\t// in\n    tag_65:\n        /* \"#utility.yul\":2018:2135   */\n    tag_64:\n        /* \"#utility.yul\":2174:2244   */\n      tag_66\n        /* \"#utility.yul\":2240:2243   */\n      dup5\n        /* \"#utility.yul\":2231:2237   */\n      dup3\n        /* \"#utility.yul\":2220:2229   */\n      dup6\n        /* \"#utility.yul\":2216:2238   */\n      add\n        /* \"#utility.yul\":2174:2244   */\n      tag_47\n      jump\t// in\n    tag_66:\n        /* \"#utility.yul\":2167:2171   */\n      0x40\n        /* \"#utility.yul\":2160:2165   */\n      dup4\n        /* \"#utility.yul\":2156:2172   */\n      add\n        /* \"#utility.yul\":2149:2245   */\n      mstore\n        /* \"#utility.yul\":1925:2256   */\n      pop\n        /* \"#utility.yul\":1139:2263   */\n      swap3\n      swap2\n      pop\n      pop\n      jump\t// out\n        /* \"#utility.yul\":2269:2598   */\n    tag_7:\n        /* \"#utility.yul\":2328:2334   */\n      0x00\n        /* \"#utility.yul\":2377:2379   */\n      0x20\n        /* \"#utility.yul\":2365:2374   */\n      dup3\n        /* \"#utility.yul\":2356:2363   */\n      dup5\n        /* \"#utility.yul\":2352:2375   */\n      sub\n        /* \"#utility.yul\":2348:2380   */\n      slt\n        /* \"#utility.yul\":2345:2464   */\n      iszero\n      tag_68\n      jumpi\n        /* \"#utility.yul\":2383:2462   */\n      tag_69\n      tag_70\n      jump\t// in\n    tag_69:\n        /* \"#utility.yul\":2345:2464   */\n    tag_68:\n        /* \"#utility.yul\":2503:2504   */\n      0x00\n        /* \"#utility.yul\":2528:2581   */\n      tag_71\n        /* \"#utility.yul\":2573:2580   */\n      dup5\n        /* \"#utility.yul\":2564:2570   */\n      dup3\n        /* \"#utility.yul\":2553:2562   */\n      dup6\n        /* \"#utility.yul\":2549:2571   */\n      add\n        /* \"#utility.yul\":2528:2581   */\n      tag_40\n      jump\t// in\n    tag_71:\n        /* \"#utility.yul\":2518:2581   */\n      swap2\n      pop\n        /* \"#utility.yul\":2474:2591   */\n      pop\n        /* \"#utility.yul\":2269:2598   */\n      swap3\n      swap2\n      pop\n      pop\n      jump\t// out\n        /* \"#utility.yul\":2604:3160   */\n    tag_21:\n        /* \"#utility.yul\":2700:2706   */\n      0x00\n        /* \"#utility.yul\":2749:2751   */\n      0x20\n        /* \"#utility.yul\":2737:2746   */\n      dup3\n        /* \"#utility.yul\":2728:2735   */\n      dup5\n        /* \"#utility.yul\":2724:2747   */\n      sub\n        /* \"#utility.yul\":2720:2752   */\n      slt\n        /* \"#utility.yul\":2717:2836   */\n      iszero\n      tag_73\n      jumpi\n        /* \"#utility.yul\":2755:2834   */\n      tag_74\n      tag_70\n      jump\t// in\n    tag_74:\n        /* \"#utility.yul\":2717:2836   */\n    tag_73:\n        /* \"#utility.yul\":2896:2897   */\n      0x00\n        /* \"#utility.yul\":2885:2894   */\n      dup3\n        /* \"#utility.yul\":2881:2898   */\n      add\n        /* \"#utility.yul\":2875:2899   */\n      mload\n        /* \"#utility.yul\":2926:2944   */\n      0xffffffffffffffff\n        /* \"#utility.yul\":2918:2924   */\n      dup2\n        /* \"#utility.yul\":2915:2945   */\n      gt\n        /* \"#utility.yul\":2912:3029   */\n      iszero\n      tag_75\n      jumpi\n        /* \"#utility.yul\":2948:3027   */\n      tag_76\n      tag_77\n      jump\t// in\n    tag_76:\n        /* \"#utility.yul\":2912:3029   */\n    tag_75:\n        /* \"#utility.yul\":3053:3143   */\n      tag_78\n        /* \"#utility.yul\":3135:3142   */\n      dup5\n        /* \"#utility.yul\":3126:3132   */\n      dup3\n        /* \"#utility.yul\":3115:3124   */\n      dup6\n        /* \"#utility.yul\":3111:3133   */\n      add\n        /* \"#utility.yul\":3053:3143   */\n      tag_53\n      jump\t// in\n    tag_78:\n        /* \"#utility.yul\":3043:3143   */\n      swap2\n      pop\n        /* \"#utility.yul\":2846:3153   */\n      pop\n        /* \"#utility.yul\":2604:3160   */\n      swap3\n      swap2\n      pop\n      pop\n      jump\t// out\n        /* \"#utility.yul\":3166:3284   */\n    tag_79:\n        /* \"#utility.yul\":3253:3277   */\n      tag_81\n        /* \"#utility.yul\":3271:3276   */\n      dup2\n        /* \"#utility.yul\":3253:3277   */\n      tag_82\n      jump\t// in\n    tag_81:\n        /* \"#utility.yul\":3248:3251   */\n      dup3\n        /* \"#utility.yul\":3241:3278   */\n      mstore\n        /* \"#utility.yul\":3166:3284   */\n      pop\n      pop\n      jump\t// out\n        /* \"#utility.yul\":3290:3654   */\n    tag_83:\n        /* \"#utility.yul\":3378:3381   */\n      0x00\n        /* \"#utility.yul\":3406:3445   */\n      tag_85\n        /* \"#utility.yul\":3439:3444   */\n      dup3\n        /* \"#utility.yul\":3406:3445   */\n      tag_86\n      jump\t// in\n    tag_85:\n        /* \"#utility.yul\":3461:3532   */\n      tag_87\n        /* \"#utility.yul\":3525:3531   */\n      dup2\n        /* \"#utility.yul\":3520:3523   */\n      dup6\n        /* \"#utility.yul\":3461:3532   */\n      tag_88\n      jump\t// in\n    tag_87:\n        /* \"#utility.yul\":3454:3532   */\n      swap4\n      pop\n        /* \"#utility.yul\":3541:3593   */\n      tag_89\n        /* \"#utility.yul\":3586:3592   */\n      dup2\n        /* \"#utility.yul\":3581:3584   */\n      dup6\n        /* \"#utility.yul\":3574:3578   */\n      0x20\n        /* \"#utility.yul\":3567:3572   */\n      dup7\n        /* \"#utility.yul\":3563:3579   */\n      add\n        /* \"#utility.yul\":3541:3593   */\n      tag_39\n      jump\t// in\n    tag_89:\n        /* \"#utility.yul\":3618:3647   */\n      tag_90\n        /* \"#utility.yul\":3640:3646   */\n      dup2\n        /* \"#utility.yul\":3618:3647   */\n      tag_91\n      jump\t// in\n    tag_90:\n        /* \"#utility.yul\":3613:3616   */\n      dup5\n        /* \"#utility.yul\":3609:3648   */\n      add\n        /* \"#utility.yul\":3602:3648   */\n      swap2\n      pop\n        /* \"#utility.yul\":3382:3654   */\n      pop\n        /* \"#utility.yul\":3290:3654   */\n      swap3\n      swap2\n      pop\n      pop\n      jump\t// out\n        /* \"#utility.yul\":3660:3882   */\n    tag_16:\n        /* \"#utility.yul\":3753:3757   */\n      0x00\n        /* \"#utility.yul\":3791:3793   */\n      0x20\n        /* \"#utility.yul\":3780:3789   */\n      dup3\n        /* \"#utility.yul\":3776:3794   */\n      add\n        /* \"#utility.yul\":3768:3794   */\n      swap1\n      pop\n        /* \"#utility.yul\":3804:3875   */\n      tag_93\n        /* \"#utility.yul\":3872:3873   */\n      0x00\n        /* \"#utility.yul\":3861:3870   */\n      dup4\n        /* \"#utility.yul\":3857:3874   */\n      add\n        /* \"#utility.yul\":3848:3854   */\n      dup5\n        /* \"#utility.yul\":3804:3875   */\n      tag_79\n      jump\t// in\n    tag_93:\n        /* \"#utility.yul\":3660:3882   */\n      swap3\n      swap2\n      pop\n      pop\n      jump\t// out\n        /* \"#utility.yul\":3888:4402   */\n    tag_10:\n        /* \"#utility.yul\":4049:4053   */\n      0x00\n        /* \"#utility.yul\":4087:4089   */\n      0x40\n        /* \"#utility.yul\":4076:4085   */\n      dup3\n        /* \"#utility.yul\":4072:4090   */\n      add\n        /* \"#utility.yul\":4064:4090   */\n      swap1\n      pop\n        /* \"#utility.yul\":4136:4145   */\n      dup2\n        /* \"#utility.yul\":4130:4134   */\n      dup2\n        /* \"#utility.yul\":4126:4146   */\n      sub\n        /* \"#utility.yul\":4122:4123   */\n      0x00\n        /* \"#utility.yul\":4111:4120   */\n      dup4\n        /* \"#utility.yul\":4107:4124   */\n      add\n        /* \"#utility.yul\":4100:4147   */\n      mstore\n        /* \"#utility.yul\":4164:4242   */\n      tag_95\n        /* \"#utility.yul\":4237:4241   */\n      dup2\n        /* \"#utility.yul\":4228:4234   */\n      dup6\n        /* \"#utility.yul\":4164:4242   */\n      tag_83\n      jump\t// in\n    tag_95:\n        /* \"#utility.yul\":4156:4242   */\n      swap1\n      pop\n        /* \"#utility.yul\":4289:4298   */\n      dup2\n        /* \"#utility.yul\":4283:4287   */\n      dup2\n        /* \"#utility.yul\":4279:4299   */\n      sub\n        /* \"#utility.yul\":4274:4276   */\n      0x20\n        /* \"#utility.yul\":4263:4272   */\n      dup4\n        /* \"#utility.yul\":4259:4277   */\n      add\n        /* \"#utility.yul\":4252:4300   */\n      mstore\n        /* \"#utility.yul\":4317:4395   */\n      tag_96\n        /* \"#utility.yul\":4390:4394   */\n      dup2\n        /* \"#utility.yul\":4381:4387   */\n      dup5\n        /* \"#utility.yul\":4317:4395   */\n      tag_83\n      jump\t// in\n    tag_96:\n        /* \"#utility.yul\":4309:4395   */\n      swap1\n      pop\n        /* \"#utility.yul\":3888:4402   */\n      swap4\n      swap3\n      pop\n      pop\n      pop\n      jump\t// out\n        /* \"#utility.yul\":4408:4537   */\n    tag_34:\n        /* \"#utility.yul\":4442:4448   */\n      0x00\n        /* \"#utility.yul\":4469:4489   */\n      tag_98\n      tag_99\n      jump\t// in\n    tag_98:\n        /* \"#utility.yul\":4459:4489   */\n      swap1\n      pop\n        /* \"#utility.yul\":4498:4531   */\n      tag_100\n        /* \"#utility.yul\":4526:4530   */\n      dup3\n        /* \"#utility.yul\":4518:4524   */\n      dup3\n        /* \"#utility.yul\":4498:4531   */\n      tag_101\n      jump\t// in\n    tag_100:\n        /* \"#utility.yul\":4408:4537   */\n      swap2\n      swap1\n      pop\n      jump\t// out\n        /* \"#utility.yul\":4543:4618   */\n    tag_99:\n        /* \"#utility.yul\":4576:4582   */\n      0x00\n        /* \"#utility.yul\":4609:4611   */\n      0x40\n        /* \"#utility.yul\":4603:4612   */\n      mload\n        /* \"#utility.yul\":4593:4612   */\n      swap1\n      pop\n        /* \"#utility.yul\":4543:4618   */\n      swap1\n      jump\t// out\n        /* \"#utility.yul\":4624:4932   */\n    tag_33:\n        /* \"#utility.yul\":4686:4690   */\n      0x00\n        /* \"#utility.yul\":4776:4794   */\n      0xffffffffffffffff\n        /* \"#utility.yul\":4768:4774   */\n      dup3\n        /* \"#utility.yul\":4765:4795   */\n      gt\n        /* \"#utility.yul\":4762:4818   */\n      iszero\n      tag_104\n      jumpi\n        /* \"#utility.yul\":4798:4816   */\n      tag_105\n      tag_106\n      jump\t// in\n    tag_105:\n        /* \"#utility.yul\":4762:4818   */\n    tag_104:\n        /* \"#utility.yul\":4836:4865   */\n      tag_107\n        /* \"#utility.yul\":4858:4864   */\n      dup3\n        /* \"#utility.yul\":4836:4865   */\n      tag_91\n      jump\t// in\n    tag_107:\n        /* \"#utility.yul\":4828:4865   */\n      swap1\n      pop\n        /* \"#utility.yul\":4920:4924   */\n      0x20\n        /* \"#utility.yul\":4914:4918   */\n      dup2\n        /* \"#utility.yul\":4910:4925   */\n      add\n        /* \"#utility.yul\":4902:4925   */\n      swap1\n      pop\n        /* \"#utility.yul\":4624:4932   */\n      swap2\n      swap1\n      pop\n      jump\t// out\n        /* \"#utility.yul\":4938:5037   */\n    tag_86:\n        /* \"#utility.yul\":4990:4996   */\n      0x00\n        /* \"#utility.yul\":5024:5029   */\n      dup2\n        /* \"#utility.yul\":5018:5030   */\n      mload\n        /* \"#utility.yul\":5008:5030   */\n      swap1\n      pop\n        /* \"#utility.yul\":4938:5037   */\n      swap2\n      swap1\n      pop\n      jump\t// out\n        /* \"#utility.yul\":5043:5212   */\n    tag_88:\n        /* \"#utility.yul\":5127:5138   */\n      0x00\n        /* \"#utility.yul\":5161:5167   */\n      dup3\n        /* \"#utility.yul\":5156:5159   */\n      dup3\n        /* \"#utility.yul\":5149:5168   */\n      mstore\n        /* \"#utility.yul\":5201:5205   */\n      0x20\n        /* \"#utility.yul\":5196:5199   */\n      dup3\n        /* \"#utility.yul\":5192:5206   */\n      add\n        /* \"#utility.yul\":5177:5206   */\n      swap1\n      pop\n        /* \"#utility.yul\":5043:5212   */\n      swap3\n      swap2\n      pop\n      pop\n      jump\t// out\n        /* \"#utility.yul\":5218:5314   */\n    tag_82:\n        /* \"#utility.yul\":5255:5262   */\n      0x00\n        /* \"#utility.yul\":5284:5308   */\n      tag_111\n        /* \"#utility.yul\":5302:5307   */\n      dup3\n        /* \"#utility.yul\":5284:5308   */\n      tag_112\n      jump\t// in\n    tag_111:\n        /* \"#utility.yul\":5273:5308   */\n      swap1\n      pop\n        /* \"#utility.yul\":5218:5314   */\n      swap2\n      swap1\n      pop\n      jump\t// out\n        /* \"#utility.yul\":5320:5446   */\n    tag_112:\n        /* \"#utility.yul\":5357:5364   */\n      0x00\n        /* \"#utility.yul\":5397:5439   */\n      0xffffffffffffffffffffffffffffffffffffffff\n        /* \"#utility.yul\":5390:5395   */\n      dup3\n        /* \"#utility.yul\":5386:5440   */\n      and\n        /* \"#utility.yul\":5375:5440   */\n      swap1\n      pop\n        /* \"#utility.yul\":5320:5446   */\n      swap2\n      swap1\n      pop\n      jump\t// out\n        /* \"#utility.yul\":5452:5759   */\n    tag_39:\n        /* \"#utility.yul\":5520:5521   */\n      0x00\n        /* \"#utility.yul\":5530:5643   */\n    tag_115:\n        /* \"#utility.yul\":5544:5550   */\n      dup4\n        /* \"#utility.yul\":5541:5542   */\n      dup2\n        /* \"#utility.yul\":5538:5551   */\n      lt\n        /* \"#utility.yul\":5530:5643   */\n      iszero\n      tag_117\n      jumpi\n        /* \"#utility.yul\":5629:5630   */\n      dup1\n        /* \"#utility.yul\":5624:5627   */\n      dup3\n        /* \"#utility.yul\":5620:5631   */\n      add\n        /* \"#utility.yul\":5614:5632   */\n      mload\n        /* \"#utility.yul\":5610:5611   */\n      dup2\n        /* \"#utility.yul\":5605:5608   */\n      dup5\n        /* \"#utility.yul\":5601:5612   */\n      add\n        /* \"#utility.yul\":5594:5633   */\n      mstore\n        /* \"#utility.yul\":5566:5568   */\n      0x20\n        /* \"#utility.yul\":5563:5564   */\n      dup2\n        /* \"#utility.yul\":5559:5569   */\n      add\n        /* \"#utility.yul\":5554:5569   */\n      swap1\n      pop\n        /* \"#utility.yul\":5530:5643   */\n      jump(tag_115)\n    tag_117:\n        /* \"#utility.yul\":5661:5667   */\n      dup4\n        /* \"#utility.yul\":5658:5659   */\n      dup2\n        /* \"#utility.yul\":5655:5668   */\n      gt\n        /* \"#utility.yul\":5652:5753   */\n      iszero\n      tag_118\n      jumpi\n        /* \"#utility.yul\":5741:5742   */\n      0x00\n        /* \"#utility.yul\":5732:5738   */\n      dup5\n        /* \"#utility.yul\":5727:5730   */\n      dup5\n        /* \"#utility.yul\":5723:5739   */\n      add\n        /* \"#utility.yul\":5716:5743   */\n      mstore\n        /* \"#utility.yul\":5652:5753   */\n    tag_118:\n        /* \"#utility.yul\":5501:5759   */\n      pop\n        /* \"#utility.yul\":5452:5759   */\n      pop\n      pop\n      pop\n      jump\t// out\n        /* \"#utility.yul\":5765:6046   */\n    tag_101:\n        /* \"#utility.yul\":5848:5875   */\n      tag_120\n        /* \"#utility.yul\":5870:5874   */\n      dup3\n        /* \"#utility.yul\":5848:5875   */\n      tag_91\n      jump\t// in\n    tag_120:\n        /* \"#utility.yul\":5840:5846   */\n      dup2\n        /* \"#utility.yul\":5836:5876   */\n      add\n        /* \"#utility.yul\":5978:5984   */\n      dup2\n        /* \"#utility.yul\":5966:5976   */\n      dup2\n        /* \"#utility.yul\":5963:5985   */\n      lt\n        /* \"#utility.yul\":5942:5960   */\n      0xffffffffffffffff\n        /* \"#utility.yul\":5930:5940   */\n      dup3\n        /* \"#utility.yul\":5927:5961   */\n      gt\n        /* \"#utility.yul\":5924:5986   */\n      or\n        /* \"#utility.yul\":5921:6009   */\n      iszero\n      tag_121\n      jumpi\n        /* \"#utility.yul\":5989:6007   */\n      tag_122\n      tag_106\n      jump\t// in\n    tag_122:\n        /* \"#utility.yul\":5921:6009   */\n    tag_121:\n        /* \"#utility.yul\":6029:6039   */\n      dup1\n        /* \"#utility.yul\":6025:6027   */\n      0x40\n        /* \"#utility.yul\":6018:6040   */\n      mstore\n        /* \"#utility.yul\":5808:6046   */\n      pop\n        /* \"#utility.yul\":5765:6046   */\n      pop\n      pop\n      jump\t// out\n        /* \"#utility.yul\":6052:6232   */\n    tag_106:\n        /* \"#utility.yul\":6100:6177   */\n      0x4e487b7100000000000000000000000000000000000000000000000000000000\n        /* \"#utility.yul\":6097:6098   */\n      0x00\n        /* \"#utility.yul\":6090:6178   */\n      mstore\n        /* \"#utility.yul\":6197:6201   */\n      0x41\n        /* \"#utility.yul\":6194:6195   */\n      0x04\n        /* \"#utility.yul\":6187:6202   */\n      mstore\n        /* \"#utility.yul\":6221:6225   */\n      0x24\n        /* \"#utility.yul\":6218:6219   */\n      0x00\n        /* \"#utility.yul\":6211:6226   */\n      revert\n        /* \"#utility.yul\":6238:6355   */\n    tag_51:\n        /* \"#utility.yul\":6347:6348   */\n      0x00\n        /* \"#utility.yul\":6344:6345   */\n      dup1\n        /* \"#utility.yul\":6337:6349   */\n      revert\n        /* \"#utility.yul\":6361:6478   */\n    tag_57:\n        /* \"#utility.yul\":6470:6471   */\n      0x00\n        /* \"#utility.yul\":6467:6468   */\n      dup1\n        /* \"#utility.yul\":6460:6472   */\n      revert\n        /* \"#utility.yul\":6484:6601   */\n    tag_62:\n        /* \"#utility.yul\":6593:6594   */\n      0x00\n        /* \"#utility.yul\":6590:6591   */\n      dup1\n        /* \"#utility.yul\":6583:6595   */\n      revert\n        /* \"#utility.yul\":6607:6724   */\n    tag_37:\n        /* \"#utility.yul\":6716:6717   */\n      0x00\n        /* \"#utility.yul\":6713:6714   */\n      dup1\n        /* \"#utility.yul\":6706:6718   */\n      revert\n        /* \"#utility.yul\":6730:6847   */\n    tag_77:\n        /* \"#utility.yul\":6839:6840   */\n      0x00\n        /* \"#utility.yul\":6836:6837   */\n      dup1\n        /* \"#utility.yul\":6829:6841   */\n      revert\n        /* \"#utility.yul\":6853:6970   */\n    tag_70:\n        /* \"#utility.yul\":6962:6963   */\n      0x00\n        /* \"#utility.yul\":6959:6960   */\n      dup1\n        /* \"#utility.yul\":6952:6964   */\n      revert\n        /* \"#utility.yul\":6976:7078   */\n    tag_91:\n        /* \"#utility.yul\":7017:7023   */\n      0x00\n        /* \"#utility.yul\":7068:7070   */\n      0x1f\n        /* \"#utility.yul\":7064:7071   */\n      not\n        /* \"#utility.yul\":7059:7061   */\n      0x1f\n        /* \"#utility.yul\":7052:7057   */\n      dup4\n        /* \"#utility.yul\":7048:7062   */\n      add\n        /* \"#utility.yul\":7044:7072   */\n      and\n        /* \"#utility.yul\":7034:7072   */\n      swap1\n      pop\n        /* \"#utility.yul\":6976:7078   */\n      swap2\n      swap1\n      pop\n      jump\t// out\n        /* \"#utility.yul\":7084:7206   */\n    tag_43:\n        /* \"#utility.yul\":7157:7181   */\n      tag_132\n        /* \"#utility.yul\":7175:7180   */\n      dup2\n        /* \"#utility.yul\":7157:7181   */\n      tag_82\n      jump\t// in\n    tag_132:\n        /* \"#utility.yul\":7150:7155   */\n      dup2\n        /* \"#utility.yul\":7147:7182   */\n      eq\n        /* \"#utility.yul\":7137:7200   */\n      tag_133\n      jumpi\n        /* \"#utility.yul\":7196:7197   */\n      0x00\n        /* \"#utility.yul\":7193:7194   */\n      dup1\n        /* \"#utility.yul\":7186:7198   */\n      revert\n        /* \"#utility.yul\":7137:7200   */\n    tag_133:\n        /* \"#utility.yul\":7084:7206   */\n      pop\n      jump\t// out\n\n    auxdata: 0xa26469706673582212204585b315906d0e085e1109e402afa0a7cdc783bdb85fa7bf469ac71abae880be64736f6c63430008070033\n}\n",
				"bytecode": {
					"linkReferences": {},
					"object": "608060405234801561001057600080fd5b50610634806100206000396000f3fe608060405234801561001057600080fd5b50600436106100365760003560e01c8063b9ed3ebb1461003b578063d6f4496a1461006c575b600080fd5b61005560048036038101906100509190610371565b610088565b60405161006392919061044a565b60405180910390f35b61008660048036038101906100819190610371565b6101f8565b005b60608060008054906101000a900473ffffffffffffffffffffffffffffffffffffffff1673ffffffffffffffffffffffffffffffffffffffff1663de1e23b7846040518263ffffffff1660e01b81526004016100e4919061042f565b60006040518083038186803b1580156100fc57600080fd5b505afa158015610110573d6000803e3d6000fd5b505050506040513d6000823e3d601f19601f82011682018060405250810190610139919061039e565b60200151915060008054906101000a900473ffffffffffffffffffffffffffffffffffffffff1673ffffffffffffffffffffffffffffffffffffffff1663de1e23b7846040518263ffffffff1660e01b8152600401610198919061042f565b60006040518083038186803b1580156101b057600080fd5b505afa1580156101c4573d6000803e3d6000fd5b505050506040513d6000823e3d601f19601f820116820180604052508101906101ed919061039e565b604001519050915091565b806000806101000a81548173ffffffffffffffffffffffffffffffffffffffff021916908373ffffffffffffffffffffffffffffffffffffffff16021790555050565b600061024e610249846104a6565b610481565b90508281526020810184848401111561026a576102696105c7565b5b610275848285610525565b509392505050565b60008135905061028c816105e7565b92915050565b6000815190506102a1816105e7565b92915050565b600082601f8301126102bc576102bb6105b8565b5b81516102cc84826020860161023b565b91505092915050565b6000606082840312156102eb576102ea6105bd565b5b6102f56060610481565b9050600061030584828501610292565b600083015250602082015167ffffffffffffffff811115610329576103286105c2565b5b610335848285016102a7565b602083015250604082015167ffffffffffffffff811115610359576103586105c2565b5b610365848285016102a7565b60408301525092915050565b600060208284031215610387576103866105d1565b5b60006103958482850161027d565b91505092915050565b6000602082840312156103b4576103b36105d1565b5b600082015167ffffffffffffffff8111156103d2576103d16105cc565b5b6103de848285016102d5565b91505092915050565b6103f0816104f3565b82525050565b6000610401826104d7565b61040b81856104e2565b935061041b818560208601610525565b610424816105d6565b840191505092915050565b600060208201905061044460008301846103e7565b92915050565b6000604082019050818103600083015261046481856103f6565b9050818103602083015261047881846103f6565b90509392505050565b600061048b61049c565b90506104978282610558565b919050565b6000604051905090565b600067ffffffffffffffff8211156104c1576104c0610589565b5b6104ca826105d6565b9050602081019050919050565b600081519050919050565b600082825260208201905092915050565b60006104fe82610505565b9050919050565b600073ffffffffffffffffffffffffffffffffffffffff82169050919050565b60005b83811015610543578082015181840152602081019050610528565b83811115610552576000848401525b50505050565b610561826105d6565b810181811067ffffffffffffffff821117156105805761057f610589565b5b80604052505050565b7f4e487b7100000000000000000000000000000000000000000000000000000000600052604160045260246000fd5b600080fd5b600080fd5b600080fd5b600080fd5b600080fd5b600080fd5b6000601f19601f8301169050919050565b6105f0816104f3565b81146105fb57600080fd5b5056fea26469706673582212204585b315906d0e085e1109e402afa0a7cdc783bdb85fa7bf469ac71abae880be64736f6c63430008070033",
					"opcodes": "PUSH1 0x80 PUSH1 0x40 MSTORE CALLVALUE DUP1 ISZERO PUSH2 0x10 JUMPI PUSH1 0x0 DUP1 REVERT JUMPDEST POP PUSH2 0x634 DUP1 PUSH2 0x20 PUSH1 0x0 CODECOPY PUSH1 0x0 RETURN INVALID PUSH1 0x80 PUSH1 0x40 MSTORE CALLVALUE DUP1 ISZERO PUSH2 0x10 JUMPI PUSH1 0x0 DUP1 REVERT JUMPDEST POP PUSH1 0x4 CALLDATASIZE LT PUSH2 0x36 JUMPI PUSH1 0x0 CALLDATALOAD PUSH1 0xE0 SHR DUP1 PUSH4 0xB9ED3EBB EQ PUSH2 0x3B JUMPI DUP1 PUSH4 0xD6F4496A EQ PUSH2 0x6C JUMPI JUMPDEST PUSH1 0x0 DUP1 REVERT JUMPDEST PUSH2 0x55 PUSH1 0x4 DUP1 CALLDATASIZE SUB DUP2 ADD SWAP1 PUSH2 0x50 SWAP2 SWAP1 PUSH2 0x371 JUMP JUMPDEST PUSH2 0x88 JUMP JUMPDEST PUSH1 0x40 MLOAD PUSH2 0x63 SWAP3 SWAP2 SWAP1 PUSH2 0x44A JUMP JUMPDEST PUSH1 0x40 MLOAD DUP1 SWAP2 SUB SWAP1 RETURN JUMPDEST PUSH2 0x86 PUSH1 0x4 DUP1 CALLDATASIZE SUB DUP2 ADD SWAP1 PUSH2 0x81 SWAP2 SWAP1 PUSH2 0x371 JUMP JUMPDEST PUSH2 0x1F8 JUMP JUMPDEST STOP JUMPDEST PUSH1 0x60 DUP1 PUSH1 0x0 DUP1 SLOAD SWAP1 PUSH2 0x100 EXP SWAP1 DIV PUSH20 0xFFFFFFFFFFFFFFFFFFFFFFFFFFFFFFFFFFFFFFFF AND PUSH20 0xFFFFFFFFFFFFFFFFFFFFFFFFFFFFFFFFFFFFFFFF AND PUSH4 0xDE1E23B7 DUP5 PUSH1 0x40 MLOAD DUP3 PUSH4 0xFFFFFFFF AND PUSH1 0xE0 SHL DUP2 MSTORE PUSH1 0x4 ADD PUSH2 0xE4 SWAP2 SWAP1 PUSH2 0x42F JUMP JUMPDEST PUSH1 0x0 PUSH1 0x40 MLOAD DUP1 DUP4 SUB DUP2 DUP7 DUP1 EXTCODESIZE ISZERO DUP1 ISZERO PUSH2 0xFC JUMPI PUSH1 0x0 DUP1 REVERT JUMPDEST POP GAS STATICCALL ISZERO DUP1 ISZERO PUSH2 0x110 JUMPI RETURNDATASIZE PUSH1 0x0 DUP1 RETURNDATACOPY RETURNDATASIZE PUSH1 0x0 REVERT JUMPDEST POP POP POP POP PUSH1 0x40 MLOAD RETURNDATASIZE PUSH1 0x0 DUP3 RETURNDATACOPY RETURNDATASIZE PUSH1 0x1F NOT PUSH1 0x1F DUP3 ADD AND DUP3 ADD DUP1 PUSH1 0x40 MSTORE POP DUP2 ADD SWAP1 PUSH2 0x139 SWAP2 SWAP1 PUSH2 0x39E JUMP JUMPDEST PUSH1 0x20 ADD MLOAD SWAP2 POP PUSH1 0x0 DUP1 SLOAD SWAP1 PUSH2 0x100 EXP SWAP1 DIV PUSH20 0xFFFFFFFFFFFFFFFFFFFFFFFFFFFFFFFFFFFFFFFF AND PUSH20 0xFFFFFFFFFFFFFFFFFFFFFFFFFFFFFFFFFFFFFFFF AND PUSH4 0xDE1E23B7 DUP5 PUSH1 0x40 MLOAD DUP3 PUSH4 0xFFFFFFFF AND PUSH1 0xE0 SHL DUP2 MSTORE PUSH1 0x4 ADD PUSH2 0x198 SWAP2 SWAP1 PUSH2 0x42F JUMP JUMPDEST PUSH1 0x0 PUSH1 0x40 MLOAD DUP1 DUP4 SUB DUP2 DUP7 DUP1 EXTCODESIZE ISZERO DUP1 ISZERO PUSH2 0x1B0 JUMPI PUSH1 0x0 DUP1 REVERT JUMPDEST POP GAS STATICCALL ISZERO DUP1 ISZERO PUSH2 0x1C4 JUMPI RETURNDATASIZE PUSH1 0x0 DUP1 RETURNDATACOPY RETURNDATASIZE PUSH1 0x0 REVERT JUMPDEST POP POP POP POP PUSH1 0x40 MLOAD RETURNDATASIZE PUSH1 0x0 DUP3 RETURNDATACOPY RETURNDATASIZE PUSH1 0x1F NOT PUSH1 0x1F DUP3 ADD AND DUP3 ADD DUP1 PUSH1 0x40 MSTORE POP DUP2 ADD SWAP1 PUSH2 0x1ED SWAP2 SWAP1 PUSH2 0x39E JUMP JUMPDEST PUSH1 0x40 ADD MLOAD SWAP1 POP SWAP2 POP SWAP2 JUMP JUMPDEST DUP1 PUSH1 0x0 DUP1 PUSH2 0x100 EXP DUP2 SLOAD DUP2 PUSH20 0xFFFFFFFFFFFFFFFFFFFFFFFFFFFFFFFFFFFFFFFF MUL NOT AND SWAP1 DUP4 PUSH20 0xFFFFFFFFFFFFFFFFFFFFFFFFFFFFFFFFFFFFFFFF AND MUL OR SWAP1 SSTORE POP POP JUMP JUMPDEST PUSH1 0x0 PUSH2 0x24E PUSH2 0x249 DUP5 PUSH2 0x4A6 JUMP JUMPDEST PUSH2 0x481 JUMP JUMPDEST SWAP1 POP DUP3 DUP2 MSTORE PUSH1 0x20 DUP2 ADD DUP5 DUP5 DUP5 ADD GT ISZERO PUSH2 0x26A JUMPI PUSH2 0x269 PUSH2 0x5C7 JUMP JUMPDEST JUMPDEST PUSH2 0x275 DUP5 DUP3 DUP6 PUSH2 0x525 JUMP JUMPDEST POP SWAP4 SWAP3 POP POP POP JUMP JUMPDEST PUSH1 0x0 DUP2 CALLDATALOAD SWAP1 POP PUSH2 0x28C DUP2 PUSH2 0x5E7 JUMP JUMPDEST SWAP3 SWAP2 POP POP JUMP JUMPDEST PUSH1 0x0 DUP2 MLOAD SWAP1 POP PUSH2 0x2A1 DUP2 PUSH2 0x5E7 JUMP JUMPDEST SWAP3 SWAP2 POP POP JUMP JUMPDEST PUSH1 0x0 DUP3 PUSH1 0x1F DUP4 ADD SLT PUSH2 0x2BC JUMPI PUSH2 0x2BB PUSH2 0x5B8 JUMP JUMPDEST JUMPDEST DUP2 MLOAD PUSH2 0x2CC DUP5 DUP3 PUSH1 0x20 DUP7 ADD PUSH2 0x23B JUMP JUMPDEST SWAP2 POP POP SWAP3 SWAP2 POP POP JUMP JUMPDEST PUSH1 0x0 PUSH1 0x60 DUP3 DUP5 SUB SLT ISZERO PUSH2 0x2EB JUMPI PUSH2 0x2EA PUSH2 0x5BD JUMP JUMPDEST JUMPDEST PUSH2 0x2F5 PUSH1 0x60 PUSH2 0x481 JUMP JUMPDEST SWAP1 POP PUSH1 0x0 PUSH2 0x305 DUP5 DUP3 DUP6 ADD PUSH2 0x292 JUMP JUMPDEST PUSH1 0x0 DUP4 ADD MSTORE POP PUSH1 0x20 DUP3 ADD MLOAD PUSH8 0xFFFFFFFFFFFFFFFF DUP2 GT ISZERO PUSH2 0x329 JUMPI PUSH2 0x328 PUSH2 0x5C2 JUMP JUMPDEST JUMPDEST PUSH2 0x335 DUP5 DUP3 DUP6 ADD PUSH2 0x2A7 JUMP JUMPDEST PUSH1 0x20 DUP4 ADD MSTORE POP PUSH1 0x40 DUP3 ADD MLOAD PUSH8 0xFFFFFFFFFFFFFFFF DUP2 GT ISZERO PUSH2 0x359 JUMPI PUSH2 0x358 PUSH2 0x5C2 JUMP JUMPDEST JUMPDEST PUSH2 0x365 DUP5 DUP3 DUP6 ADD PUSH2 0x2A7 JUMP JUMPDEST PUSH1 0x40 DUP4 ADD MSTORE POP SWAP3 SWAP2 POP POP JUMP JUMPDEST PUSH1 0x0 PUSH1 0x20 DUP3 DUP5 SUB SLT ISZERO PUSH2 0x387 JUMPI PUSH2 0x386 PUSH2 0x5D1 JUMP JUMPDEST JUMPDEST PUSH1 0x0 PUSH2 0x395 DUP5 DUP3 DUP6 ADD PUSH2 0x27D JUMP JUMPDEST SWAP2 POP POP SWAP3 SWAP2 POP POP JUMP JUMPDEST PUSH1 0x0 PUSH1 0x20 DUP3 DUP5 SUB SLT ISZERO PUSH2 0x3B4 JUMPI PUSH2 0x3B3 PUSH2 0x5D1 JUMP JUMPDEST JUMPDEST PUSH1 0x0 DUP3 ADD MLOAD PUSH8 0xFFFFFFFFFFFFFFFF DUP2 GT ISZERO PUSH2 0x3D2 JUMPI PUSH2 0x3D1 PUSH2 0x5CC JUMP JUMPDEST JUMPDEST PUSH2 0x3DE DUP5 DUP3 DUP6 ADD PUSH2 0x2D5 JUMP JUMPDEST SWAP2 POP POP SWAP3 SWAP2 POP POP JUMP JUMPDEST PUSH2 0x3F0 DUP2 PUSH2 0x4F3 JUMP JUMPDEST DUP3 MSTORE POP POP JUMP JUMPDEST PUSH1 0x0 PUSH2 0x401 DUP3 PUSH2 0x4D7 JUMP JUMPDEST PUSH2 0x40B DUP2 DUP6 PUSH2 0x4E2 JUMP JUMPDEST SWAP4 POP PUSH2 0x41B DUP2 DUP6 PUSH1 0x20 DUP7 ADD PUSH2 0x525 JUMP JUMPDEST PUSH2 0x424 DUP2 PUSH2 0x5D6 JUMP JUMPDEST DUP5 ADD SWAP2 POP POP SWAP3 SWAP2 POP POP JUMP JUMPDEST PUSH1 0x0 PUSH1 0x20 DUP3 ADD SWAP1 POP PUSH2 0x444 PUSH1 0x0 DUP4 ADD DUP5 PUSH2 0x3E7 JUMP JUMPDEST SWAP3 SWAP2 POP POP JUMP JUMPDEST PUSH1 0x0 PUSH1 0x40 DUP3 ADD SWAP1 POP DUP2 DUP2 SUB PUSH1 0x0 DUP4 ADD MSTORE PUSH2 0x464 DUP2 DUP6 PUSH2 0x3F6 JUMP JUMPDEST SWAP1 POP DUP2 DUP2 SUB PUSH1 0x20 DUP4 ADD MSTORE PUSH2 0x478 DUP2 DUP5 PUSH2 0x3F6 JUMP JUMPDEST SWAP1 POP SWAP4 SWAP3 POP POP POP JUMP JUMPDEST PUSH1 0x0 PUSH2 0x48B PUSH2 0x49C JUMP JUMPDEST SWAP1 POP PUSH2 0x497 DUP3 DUP3 PUSH2 0x558 JUMP JUMPDEST SWAP2 SWAP1 POP JUMP JUMPDEST PUSH1 0x0 PUSH1 0x40 MLOAD SWAP1 POP SWAP1 JUMP JUMPDEST PUSH1 0x0 PUSH8 0xFFFFFFFFFFFFFFFF DUP3 GT ISZERO PUSH2 0x4C1 JUMPI PUSH2 0x4C0 PUSH2 0x589 JUMP JUMPDEST JUMPDEST PUSH2 0x4CA DUP3 PUSH2 0x5D6 JUMP JUMPDEST SWAP1 POP PUSH1 0x20 DUP2 ADD SWAP1 POP SWAP2 SWAP1 POP JUMP JUMPDEST PUSH1 0x0 DUP2 MLOAD SWAP1 POP SWAP2 SWAP1 POP JUMP JUMPDEST PUSH1 0x0 DUP3 DUP3 MSTORE PUSH1 0x20 DUP3 ADD SWAP1 POP SWAP3 SWAP2 POP POP JUMP JUMPDEST PUSH1 0x0 PUSH2 0x4FE DUP3 PUSH2 0x505 JUMP JUMPDEST SWAP1 POP SWAP2 SWAP1 POP JUMP JUMPDEST PUSH1 0x0 PUSH20 0xFFFFFFFFFFFFFFFFFFFFFFFFFFFFFFFFFFFFFFFF DUP3 AND SWAP1 POP SWAP2 SWAP1 POP JUMP JUMPDEST PUSH1 0x0 JUMPDEST DUP4 DUP2 LT ISZERO PUSH2 0x543 JUMPI DUP1 DUP3 ADD MLOAD DUP2 DUP5 ADD MSTORE PUSH1 0x20 DUP2 ADD SWAP1 POP PUSH2 0x528 JUMP JUMPDEST DUP4 DUP2 GT ISZERO PUSH2 0x552 JUMPI PUSH1 0x0 DUP5 DUP5 ADD MSTORE JUMPDEST POP POP POP POP JUMP JUMPDEST PUSH2 0x561 DUP3 PUSH2 0x5D6 JUMP JUMPDEST DUP2 ADD DUP2 DUP2 LT PUSH8 0xFFFFFFFFFFFFFFFF DUP3 GT OR ISZERO PUSH2 0x580 JUMPI PUSH2 0x57F PUSH2 0x589 JUMP JUMPDEST JUMPDEST DUP1 PUSH1 0x40 MSTORE POP POP POP JUMP JUMPDEST PUSH32 0x4E487B7100000000000000000000000000000000000000000000000000000000 PUSH1 0x0 MSTORE PUSH1 0x41 PUSH1 0x4 MSTORE PUSH1 0x24 PUSH1 0x0 REVERT JUMPDEST PUSH1 0x0 DUP1 REVERT JUMPDEST PUSH1 0x0 DUP1 REVERT JUMPDEST PUSH1 0x0 DUP1 REVERT JUMPDEST PUSH1 0x0 DUP1 REVERT JUMPDEST PUSH1 0x0 DUP1 REVERT JUMPDEST PUSH1 0x0 DUP1 REVERT JUMPDEST PUSH1 0x0 PUSH1 0x1F NOT PUSH1 0x1F DUP4 ADD AND SWAP1 POP SWAP2 SWAP1 POP JUMP JUMPDEST PUSH2 0x5F0 DUP2 PUSH2 0x4F3 JUMP JUMPDEST DUP2 EQ PUSH2 0x5FB JUMPI PUSH1 0x0 DUP1 REVERT JUMPDEST POP JUMP INVALID LOG2 PUSH5 0x6970667358 0x22 SLT KECCAK256 GASLIMIT DUP6 0xB3 ISZERO SWAP1 PUSH14 0xE085E1109E402AFA0A7CDC783BD 0xB8 0x5F 0xA7 0xBF CHAINID SWAP11 0xC7 BYTE 0xBA 0xE8 DUP1 0xBE PUSH5 0x736F6C6343 STOP ADDMOD SMOD STOP CALLER "
				},
				"gasEstimates": {
					"creation": {
						"codeDepositCost": "317600",
						"executionCost": "355",
						"totalCost": "317955"
					},
					"external": {
						"getTestDeviceInfoByAddr(address)": "infinite",
						"setM(address)": "24722"
					}
				},
				"methodIdentifiers": {
					"getTestDeviceInfoByAddr(address)": "b9ed3ebb",
					"setM(address)": "d6f4496a"
				}
			},
			"userdoc": {
				"kind": "user",
				"methods": {},
				"version": 1
			}
		}
	}
}