{
	"contracts/Management.sol": {
		"Management": {
			"abi": [
				{
					"inputs": [
						{
							"internalType": "address",
							"name": "_addr",
							"type": "address"
						}
					],
					"name": "getDeviceInfoByAddr",
					"outputs": [
						{
							"components": [
								{
									"internalType": "address",
									"name": "deviceAddr",
									"type": "address"
								},
								{
									"internalType": "string",
									"name": "deviceName",
									"type": "string"
								},
								{
									"internalType": "string",
									"name": "deviceType",
									"type": "string"
								}
							],
							"internalType": "struct Management.DeviceInfo",
							"name": "",
							"type": "tuple"
						}
					],
					"stateMutability": "view",
					"type": "function"
				},
				{
					"inputs": [
						{
							"internalType": "address",
							"name": "_deviceAddr",
							"type": "address"
						},
						{
							"internalType": "string",
							"name": "right",
							"type": "string"
						}
					],
					"name": "register",
					"outputs": [],
					"stateMutability": "nonpayable",
					"type": "function"
				},
				{
					"inputs": [
						{
							"internalType": "address",
							"name": "_deviceAddr",
							"type": "address"
						},
						{
							"internalType": "string",
							"name": "_deviceName",
							"type": "string"
						},
						{
							"internalType": "string",
							"name": "_deviceType",
							"type": "string"
						}
					],
					"name": "setDeviceInfo",
					"outputs": [],
					"stateMutability": "nonpayable",
					"type": "function"
				},
				{
					"inputs": [
						{
							"internalType": "address",
							"name": "_subjectAddr",
							"type": "address"
						},
						{
							"internalType": "string",
							"name": "_subjectName",
							"type": "string"
						},
						{
							"internalType": "string",
							"name": "_ipAddr",
							"type": "string"
						}
					],
					"name": "setSubjInfo",
					"outputs": [],
					"stateMutability": "nonpayable",
					"type": "function"
				},
				{
					"inputs": [
						{
							"internalType": "address",
							"name": "",
							"type": "address"
						}
					],
					"name": "subjInfoMap",
					"outputs": [
						{
							"internalType": "address",
							"name": "subjectAddr",
							"type": "address"
						},
						{
							"internalType": "string",
							"name": "subjectName",
							"type": "string"
						},
						{
							"internalType": "string",
							"name": "ipAddr",
							"type": "string"
						}
					],
					"stateMutability": "view",
					"type": "function"
				}
			],
			"devdoc": {
				"kind": "dev",
				"methods": {},
				"version": 1
			},
			"evm": {
				"assembly": "    /* \"contracts/Management.sol\":68:1563  contract Management {\r... */\n  mstore(0x40, 0x80)\n  callvalue\n  dup1\n  iszero\n  tag_1\n  jumpi\n  0x00\n  dup1\n  revert\ntag_1:\n  pop\n  dataSize(sub_0)\n  dup1\n  dataOffset(sub_0)\n  0x00\n  codecopy\n  0x00\n  return\nstop\n\nsub_0: assembly {\n        /* \"contracts/Management.sol\":68:1563  contract Management {\r... */\n      mstore(0x40, 0x80)\n      callvalue\n      dup1\n      iszero\n      tag_1\n      jumpi\n      0x00\n      dup1\n      revert\n    tag_1:\n      pop\n      jumpi(tag_2, lt(calldatasize, 0x04))\n      shr(0xe0, calldataload(0x00))\n      dup1\n      0x31f4ea9c\n      eq\n      tag_3\n      jumpi\n      dup1\n      0x32434a2e\n      eq\n      tag_4\n      jumpi\n      dup1\n      0x6c477035\n      eq\n      tag_5\n      jumpi\n      dup1\n      0xb9e0ad10\n      eq\n      tag_6\n      jumpi\n      dup1\n      0xde1e23b7\n      eq\n      tag_7\n      jumpi\n    tag_2:\n      0x00\n      dup1\n      revert\n        /* \"contracts/Management.sol\":1036:1324  function setSubjInfo(address _subjectAddr, string memory _subjectName, string memory _ipAddr) public {\r... */\n    tag_3:\n      tag_8\n      0x04\n      dup1\n      calldatasize\n      sub\n      dup2\n      add\n      swap1\n      tag_9\n      swap2\n      swap1\n      tag_10\n      jump\t// in\n    tag_9:\n      tag_11\n      jump\t// in\n    tag_8:\n      stop\n        /* \"contracts/Management.sol\":1373:1551  function register(address _deviceAddr, string memory right) public {\r... */\n    tag_4:\n      tag_12\n      0x04\n      dup1\n      calldatasize\n      sub\n      dup2\n      add\n      swap1\n      tag_13\n      swap2\n      swap1\n      tag_14\n      jump\t// in\n    tag_13:\n      tag_15\n      jump\t// in\n    tag_12:\n      stop\n        /* \"contracts/Management.sol\":583:882  function setDeviceInfo(address _deviceAddr, string memory _deviceName, string memory _deviceType) public {\r... */\n    tag_5:\n      tag_16\n      0x04\n      dup1\n      calldatasize\n      sub\n      dup2\n      add\n      swap1\n      tag_17\n      swap2\n      swap1\n      tag_10\n      jump\t// in\n    tag_17:\n      tag_18\n      jump\t// in\n    tag_16:\n      stop\n        /* \"contracts/Management.sol\":527:574  mapping(address => SubjInfo) public subjInfoMap */\n    tag_6:\n      tag_19\n      0x04\n      dup1\n      calldatasize\n      sub\n      dup2\n      add\n      swap1\n      tag_20\n      swap2\n      swap1\n      tag_21\n      jump\t// in\n    tag_20:\n      tag_22\n      jump\t// in\n    tag_19:\n      mload(0x40)\n      tag_23\n      swap4\n      swap3\n      swap2\n      swap1\n      tag_24\n      jump\t// in\n    tag_23:\n      mload(0x40)\n      dup1\n      swap2\n      sub\n      swap1\n      return\n        /* \"contracts/Management.sol\":898:1028  function getDeviceInfoByAddr(address _addr) public view returns (DeviceInfo memory) {\r... */\n    tag_7:\n      tag_25\n      0x04\n      dup1\n      calldatasize\n      sub\n      dup2\n      add\n      swap1\n      tag_26\n      swap2\n      swap1\n      tag_21\n      jump\t// in\n    tag_26:\n      tag_27\n      jump\t// in\n    tag_25:\n      mload(0x40)\n      tag_28\n      swap2\n      swap1\n      tag_29\n      jump\t// in\n    tag_28:\n      mload(0x40)\n      dup1\n      swap2\n      sub\n      swap1\n      return\n        /* \"contracts/Management.sol\":1036:1324  function setSubjInfo(address _subjectAddr, string memory _subjectName, string memory _ipAddr) public {\r... */\n    tag_11:\n        /* \"contracts/Management.sol\":1188:1200  _subjectAddr */\n      dup3\n        /* \"contracts/Management.sol\":1148:1159  subjInfoMap */\n      0x01\n        /* \"contracts/Management.sol\":1148:1173  subjInfoMap[_subjectAddr] */\n      0x00\n        /* \"contracts/Management.sol\":1160:1172  _subjectAddr */\n      dup6\n        /* \"contracts/Management.sol\":1148:1173  subjInfoMap[_subjectAddr] */\n      0xffffffffffffffffffffffffffffffffffffffff\n      and\n      0xffffffffffffffffffffffffffffffffffffffff\n      and\n      dup2\n      mstore\n      0x20\n      add\n      swap1\n      dup2\n      mstore\n      0x20\n      add\n      0x00\n      keccak256\n        /* \"contracts/Management.sol\":1148:1185  subjInfoMap[_subjectAddr].subjectAddr */\n      0x00\n      add\n      0x00\n        /* \"contracts/Management.sol\":1148:1200  subjInfoMap[_subjectAddr].subjectAddr = _subjectAddr */\n      0x0100\n      exp\n      dup2\n      sload\n      dup2\n      0xffffffffffffffffffffffffffffffffffffffff\n      mul\n      not\n      and\n      swap1\n      dup4\n      0xffffffffffffffffffffffffffffffffffffffff\n      and\n      mul\n      or\n      swap1\n      sstore\n      pop\n        /* \"contracts/Management.sol\":1251:1263  _subjectName */\n      dup2\n        /* \"contracts/Management.sol\":1211:1222  subjInfoMap */\n      0x01\n        /* \"contracts/Management.sol\":1211:1236  subjInfoMap[_subjectAddr] */\n      0x00\n        /* \"contracts/Management.sol\":1223:1235  _subjectAddr */\n      dup6\n        /* \"contracts/Management.sol\":1211:1236  subjInfoMap[_subjectAddr] */\n      0xffffffffffffffffffffffffffffffffffffffff\n      and\n      0xffffffffffffffffffffffffffffffffffffffff\n      and\n      dup2\n      mstore\n      0x20\n      add\n      swap1\n      dup2\n      mstore\n      0x20\n      add\n      0x00\n      keccak256\n        /* \"contracts/Management.sol\":1211:1248  subjInfoMap[_subjectAddr].subjectName */\n      0x01\n      add\n        /* \"contracts/Management.sol\":1211:1263  subjInfoMap[_subjectAddr].subjectName = _subjectName */\n      swap1\n      dup1\n      mload\n      swap1\n      0x20\n      add\n      swap1\n      tag_31\n      swap3\n      swap2\n      swap1\n      tag_32\n      jump\t// in\n    tag_31:\n      pop\n        /* \"contracts/Management.sol\":1309:1316  _ipAddr */\n      dup1\n        /* \"contracts/Management.sol\":1274:1285  subjInfoMap */\n      0x01\n        /* \"contracts/Management.sol\":1274:1299  subjInfoMap[_subjectAddr] */\n      0x00\n        /* \"contracts/Management.sol\":1286:1298  _subjectAddr */\n      dup6\n        /* \"contracts/Management.sol\":1274:1299  subjInfoMap[_subjectAddr] */\n      0xffffffffffffffffffffffffffffffffffffffff\n      and\n      0xffffffffffffffffffffffffffffffffffffffff\n      and\n      dup2\n      mstore\n      0x20\n      add\n      swap1\n      dup2\n      mstore\n      0x20\n      add\n      0x00\n      keccak256\n        /* \"contracts/Management.sol\":1274:1306  subjInfoMap[_subjectAddr].ipAddr */\n      0x03\n      add\n        /* \"contracts/Management.sol\":1274:1316  subjInfoMap[_subjectAddr].ipAddr = _ipAddr */\n      swap1\n      dup1\n      mload\n      swap1\n      0x20\n      add\n      swap1\n      tag_33\n      swap3\n      swap2\n      swap1\n      tag_32\n      jump\t// in\n    tag_33:\n      pop\n        /* \"contracts/Management.sol\":1036:1324  function setSubjInfo(address _subjectAddr, string memory _subjectName, string memory _ipAddr) public {\r... */\n      pop\n      pop\n      pop\n      jump\t// out\n        /* \"contracts/Management.sol\":1373:1551  function register(address _deviceAddr, string memory right) public {\r... */\n    tag_15:\n        /* \"contracts/Management.sol\":1451:1471  SubjInfo storage sub */\n      0x00\n        /* \"contracts/Management.sol\":1474:1485  subjInfoMap */\n      0x01\n        /* \"contracts/Management.sol\":1474:1497  subjInfoMap[msg.sender] */\n      0x00\n        /* \"contracts/Management.sol\":1486:1496  msg.sender */\n      caller\n        /* \"contracts/Management.sol\":1474:1497  subjInfoMap[msg.sender] */\n      0xffffffffffffffffffffffffffffffffffffffff\n      and\n      0xffffffffffffffffffffffffffffffffffffffff\n      and\n      dup2\n      mstore\n      0x20\n      add\n      swap1\n      dup2\n      mstore\n      0x20\n      add\n      0x00\n      keccak256\n        /* \"contracts/Management.sol\":1451:1497  SubjInfo storage sub = subjInfoMap[msg.sender] */\n      swap1\n      pop\n        /* \"contracts/Management.sol\":1538:1543  right */\n      dup2\n        /* \"contracts/Management.sol\":1508:1511  sub */\n      dup2\n        /* \"contracts/Management.sol\":1508:1522  sub.rightTable */\n      0x02\n      add\n        /* \"contracts/Management.sol\":1508:1535  sub.rightTable[_deviceAddr] */\n      0x00\n        /* \"contracts/Management.sol\":1523:1534  _deviceAddr */\n      dup6\n        /* \"contracts/Management.sol\":1508:1535  sub.rightTable[_deviceAddr] */\n      0xffffffffffffffffffffffffffffffffffffffff\n      and\n      0xffffffffffffffffffffffffffffffffffffffff\n      and\n      dup2\n      mstore\n      0x20\n      add\n      swap1\n      dup2\n      mstore\n      0x20\n      add\n      0x00\n      keccak256\n        /* \"contracts/Management.sol\":1508:1543  sub.rightTable[_deviceAddr] = right */\n      swap1\n      dup1\n      mload\n      swap1\n      0x20\n      add\n      swap1\n      tag_35\n      swap3\n      swap2\n      swap1\n      tag_32\n      jump\t// in\n    tag_35:\n      pop\n        /* \"contracts/Management.sol\":1440:1551  {\r... */\n      pop\n        /* \"contracts/Management.sol\":1373:1551  function register(address _deviceAddr, string memory right) public {\r... */\n      pop\n      pop\n      jump\t// out\n        /* \"contracts/Management.sol\":583:882  function setDeviceInfo(address _deviceAddr, string memory _deviceName, string memory _deviceType) public {\r... */\n    tag_18:\n        /* \"contracts/Management.sol\":739:750  _deviceAddr */\n      dup3\n        /* \"contracts/Management.sol\":699:712  deviceInfoMap */\n      0x00\n        /* \"contracts/Management.sol\":699:725  deviceInfoMap[_deviceAddr] */\n      dup1\n        /* \"contracts/Management.sol\":713:724  _deviceAddr */\n      dup6\n        /* \"contracts/Management.sol\":699:725  deviceInfoMap[_deviceAddr] */\n      0xffffffffffffffffffffffffffffffffffffffff\n      and\n      0xffffffffffffffffffffffffffffffffffffffff\n      and\n      dup2\n      mstore\n      0x20\n      add\n      swap1\n      dup2\n      mstore\n      0x20\n      add\n      0x00\n      keccak256\n        /* \"contracts/Management.sol\":699:736  deviceInfoMap[_deviceAddr].deviceAddr */\n      0x00\n      add\n      0x00\n        /* \"contracts/Management.sol\":699:750  deviceInfoMap[_deviceAddr].deviceAddr = _deviceAddr */\n      0x0100\n      exp\n      dup2\n      sload\n      dup2\n      0xffffffffffffffffffffffffffffffffffffffff\n      mul\n      not\n      and\n      swap1\n      dup4\n      0xffffffffffffffffffffffffffffffffffffffff\n      and\n      mul\n      or\n      swap1\n      sstore\n      pop\n        /* \"contracts/Management.sol\":801:812  _deviceName */\n      dup2\n        /* \"contracts/Management.sol\":761:774  deviceInfoMap */\n      0x00\n        /* \"contracts/Management.sol\":761:787  deviceInfoMap[_deviceAddr] */\n      dup1\n        /* \"contracts/Management.sol\":775:786  _deviceAddr */\n      dup6\n        /* \"contracts/Management.sol\":761:787  deviceInfoMap[_deviceAddr] */\n      0xffffffffffffffffffffffffffffffffffffffff\n      and\n      0xffffffffffffffffffffffffffffffffffffffff\n      and\n      dup2\n      mstore\n      0x20\n      add\n      swap1\n      dup2\n      mstore\n      0x20\n      add\n      0x00\n      keccak256\n        /* \"contracts/Management.sol\":761:798  deviceInfoMap[_deviceAddr].deviceName */\n      0x01\n      add\n        /* \"contracts/Management.sol\":761:812  deviceInfoMap[_deviceAddr].deviceName = _deviceName */\n      swap1\n      dup1\n      mload\n      swap1\n      0x20\n      add\n      swap1\n      tag_37\n      swap3\n      swap2\n      swap1\n      tag_32\n      jump\t// in\n    tag_37:\n      pop\n        /* \"contracts/Management.sol\":863:874  _deviceType */\n      dup1\n        /* \"contracts/Management.sol\":823:836  deviceInfoMap */\n      0x00\n        /* \"contracts/Management.sol\":823:849  deviceInfoMap[_deviceAddr] */\n      dup1\n        /* \"contracts/Management.sol\":837:848  _deviceAddr */\n      dup6\n        /* \"contracts/Management.sol\":823:849  deviceInfoMap[_deviceAddr] */\n      0xffffffffffffffffffffffffffffffffffffffff\n      and\n      0xffffffffffffffffffffffffffffffffffffffff\n      and\n      dup2\n      mstore\n      0x20\n      add\n      swap1\n      dup2\n      mstore\n      0x20\n      add\n      0x00\n      keccak256\n        /* \"contracts/Management.sol\":823:860  deviceInfoMap[_deviceAddr].deviceType */\n      0x02\n      add\n        /* \"contracts/Management.sol\":823:874  deviceInfoMap[_deviceAddr].deviceType = _deviceType */\n      swap1\n      dup1\n      mload\n      swap1\n      0x20\n      add\n      swap1\n      tag_38\n      swap3\n      swap2\n      swap1\n      tag_32\n      jump\t// in\n    tag_38:\n      pop\n        /* \"contracts/Management.sol\":583:882  function setDeviceInfo(address _deviceAddr, string memory _deviceName, string memory _deviceType) public {\r... */\n      pop\n      pop\n      pop\n      jump\t// out\n        /* \"contracts/Management.sol\":527:574  mapping(address => SubjInfo) public subjInfoMap */\n    tag_22:\n      mstore(0x20, 0x01)\n      dup1\n      0x00\n      mstore\n      keccak256(0x00, 0x40)\n      0x00\n      swap2\n      pop\n      swap1\n      pop\n      dup1\n      0x00\n      add\n      0x00\n      swap1\n      sload\n      swap1\n      0x0100\n      exp\n      swap1\n      div\n      0xffffffffffffffffffffffffffffffffffffffff\n      and\n      swap1\n      dup1\n      0x01\n      add\n      dup1\n      sload\n      tag_39\n      swap1\n      tag_40\n      jump\t// in\n    tag_39:\n      dup1\n      0x1f\n      add\n      0x20\n      dup1\n      swap2\n      div\n      mul\n      0x20\n      add\n      mload(0x40)\n      swap1\n      dup2\n      add\n      0x40\n      mstore\n      dup1\n      swap3\n      swap2\n      swap1\n      dup2\n      dup2\n      mstore\n      0x20\n      add\n      dup3\n      dup1\n      sload\n      tag_41\n      swap1\n      tag_40\n      jump\t// in\n    tag_41:\n      dup1\n      iszero\n      tag_42\n      jumpi\n      dup1\n      0x1f\n      lt\n      tag_43\n      jumpi\n      0x0100\n      dup1\n      dup4\n      sload\n      div\n      mul\n      dup4\n      mstore\n      swap2\n      0x20\n      add\n      swap2\n      jump(tag_42)\n    tag_43:\n      dup3\n      add\n      swap2\n      swap1\n      0x00\n      mstore\n      keccak256(0x00, 0x20)\n      swap1\n    tag_44:\n      dup2\n      sload\n      dup2\n      mstore\n      swap1\n      0x01\n      add\n      swap1\n      0x20\n      add\n      dup1\n      dup4\n      gt\n      tag_44\n      jumpi\n      dup3\n      swap1\n      sub\n      0x1f\n      and\n      dup3\n      add\n      swap2\n    tag_42:\n      pop\n      pop\n      pop\n      pop\n      pop\n      swap1\n      dup1\n      0x03\n      add\n      dup1\n      sload\n      tag_45\n      swap1\n      tag_40\n      jump\t// in\n    tag_45:\n      dup1\n      0x1f\n      add\n      0x20\n      dup1\n      swap2\n      div\n      mul\n      0x20\n      add\n      mload(0x40)\n      swap1\n      dup2\n      add\n      0x40\n      mstore\n      dup1\n      swap3\n      swap2\n      swap1\n      dup2\n      dup2\n      mstore\n      0x20\n      add\n      dup3\n      dup1\n      sload\n      tag_46\n      swap1\n      tag_40\n      jump\t// in\n    tag_46:\n      dup1\n      iszero\n      tag_47\n      jumpi\n      dup1\n      0x1f\n      lt\n      tag_48\n      jumpi\n      0x0100\n      dup1\n      dup4\n      sload\n      div\n      mul\n      dup4\n      mstore\n      swap2\n      0x20\n      add\n      swap2\n      jump(tag_47)\n    tag_48:\n      dup3\n      add\n      swap2\n      swap1\n      0x00\n      mstore\n      keccak256(0x00, 0x20)\n      swap1\n    tag_49:\n      dup2\n      sload\n      dup2\n      mstore\n      swap1\n      0x01\n      add\n      swap1\n      0x20\n      add\n      dup1\n      dup4\n      gt\n      tag_49\n      jumpi\n      dup3\n      swap1\n      sub\n      0x1f\n      and\n      dup3\n      add\n      swap2\n    tag_47:\n      pop\n      pop\n      pop\n      pop\n      pop\n      swap1\n      pop\n      dup4\n      jump\t// out\n        /* \"contracts/Management.sol\":898:1028  function getDeviceInfoByAddr(address _addr) public view returns (DeviceInfo memory) {\r... */\n    tag_27:\n        /* \"contracts/Management.sol\":963:980  DeviceInfo memory */\n      tag_50\n      tag_51\n      jump\t// in\n    tag_50:\n        /* \"contracts/Management.sol\":1000:1013  deviceInfoMap */\n      0x00\n        /* \"contracts/Management.sol\":1000:1020  deviceInfoMap[_addr] */\n      dup1\n        /* \"contracts/Management.sol\":1014:1019  _addr */\n      dup4\n        /* \"contracts/Management.sol\":1000:1020  deviceInfoMap[_addr] */\n      0xffffffffffffffffffffffffffffffffffffffff\n      and\n      0xffffffffffffffffffffffffffffffffffffffff\n      and\n      dup2\n      mstore\n      0x20\n      add\n      swap1\n      dup2\n      mstore\n      0x20\n      add\n      0x00\n      keccak256\n        /* \"contracts/Management.sol\":993:1020  return deviceInfoMap[_addr] */\n      mload(0x40)\n      dup1\n      0x60\n      add\n      0x40\n      mstore\n      swap1\n      dup2\n      0x00\n      dup3\n      add\n      0x00\n      swap1\n      sload\n      swap1\n      0x0100\n      exp\n      swap1\n      div\n      0xffffffffffffffffffffffffffffffffffffffff\n      and\n      0xffffffffffffffffffffffffffffffffffffffff\n      and\n      0xffffffffffffffffffffffffffffffffffffffff\n      and\n      dup2\n      mstore\n      0x20\n      add\n      0x01\n      dup3\n      add\n      dup1\n      sload\n      tag_53\n      swap1\n      tag_40\n      jump\t// in\n    tag_53:\n      dup1\n      0x1f\n      add\n      0x20\n      dup1\n      swap2\n      div\n      mul\n      0x20\n      add\n      mload(0x40)\n      swap1\n      dup2\n      add\n      0x40\n      mstore\n      dup1\n      swap3\n      swap2\n      swap1\n      dup2\n      dup2\n      mstore\n      0x20\n      add\n      dup3\n      dup1\n      sload\n      tag_54\n      swap1\n      tag_40\n      jump\t// in\n    tag_54:\n      dup1\n      iszero\n      tag_55\n      jumpi\n      dup1\n      0x1f\n      lt\n      tag_56\n      jumpi\n      0x0100\n      dup1\n      dup4\n      sload\n      div\n      mul\n      dup4\n      mstore\n      swap2\n      0x20\n      add\n      swap2\n      jump(tag_55)\n    tag_56:\n      dup3\n      add\n      swap2\n      swap1\n      0x00\n      mstore\n      keccak256(0x00, 0x20)\n      swap1\n    tag_57:\n      dup2\n      sload\n      dup2\n      mstore\n      swap1\n      0x01\n      add\n      swap1\n      0x20\n      add\n      dup1\n      dup4\n      gt\n      tag_57\n      jumpi\n      dup3\n      swap1\n      sub\n      0x1f\n      and\n      dup3\n      add\n      swap2\n    tag_55:\n      pop\n      pop\n      pop\n      pop\n      pop\n      dup2\n      mstore\n      0x20\n      add\n      0x02\n      dup3\n      add\n      dup1\n      sload\n      tag_58\n      swap1\n      tag_40\n      jump\t// in\n    tag_58:\n      dup1\n      0x1f\n      add\n      0x20\n      dup1\n      swap2\n      div\n      mul\n      0x20\n      add\n      mload(0x40)\n      swap1\n      dup2\n      add\n      0x40\n      mstore\n      dup1\n      swap3\n      swap2\n      swap1\n      dup2\n      dup2\n      mstore\n      0x20\n      add\n      dup3\n      dup1\n      sload\n      tag_59\n      swap1\n      tag_40\n      jump\t// in\n    tag_59:\n      dup1\n      iszero\n      tag_60\n      jumpi\n      dup1\n      0x1f\n      lt\n      tag_61\n      jumpi\n      0x0100\n      dup1\n      dup4\n      sload\n      div\n      mul\n      dup4\n      mstore\n      swap2\n      0x20\n      add\n      swap2\n      jump(tag_60)\n    tag_61:\n      dup3\n      add\n      swap2\n      swap1\n      0x00\n      mstore\n      keccak256(0x00, 0x20)\n      swap1\n    tag_62:\n      dup2\n      sload\n      dup2\n      mstore\n      swap1\n      0x01\n      add\n      swap1\n      0x20\n      add\n      dup1\n      dup4\n      gt\n      tag_62\n      jumpi\n      dup3\n      swap1\n      sub\n      0x1f\n      and\n      dup3\n      add\n      swap2\n    tag_60:\n      pop\n      pop\n      pop\n      pop\n      pop\n      dup2\n      mstore\n      pop\n      pop\n      swap1\n      pop\n        /* \"contracts/Management.sol\":898:1028  function getDeviceInfoByAddr(address _addr) public view returns (DeviceInfo memory) {\r... */\n      swap2\n      swap1\n      pop\n      jump\t// out\n    tag_32:\n      dup3\n      dup1\n      sload\n      tag_63\n      swap1\n      tag_40\n      jump\t// in\n    tag_63:\n      swap1\n      0x00\n      mstore\n      keccak256(0x00, 0x20)\n      swap1\n      0x1f\n      add\n      0x20\n      swap1\n      div\n      dup2\n      add\n      swap3\n      dup3\n      tag_65\n      jumpi\n      0x00\n      dup6\n      sstore\n      jump(tag_64)\n    tag_65:\n      dup3\n      0x1f\n      lt\n      tag_66\n      jumpi\n      dup1\n      mload\n      not(0xff)\n      and\n      dup4\n      dup1\n      add\n      or\n      dup6\n      sstore\n      jump(tag_64)\n    tag_66:\n      dup3\n      dup1\n      add\n      0x01\n      add\n      dup6\n      sstore\n      dup3\n      iszero\n      tag_64\n      jumpi\n      swap2\n      dup3\n      add\n    tag_67:\n      dup3\n      dup2\n      gt\n      iszero\n      tag_68\n      jumpi\n      dup3\n      mload\n      dup3\n      sstore\n      swap2\n      0x20\n      add\n      swap2\n      swap1\n      0x01\n      add\n      swap1\n      jump(tag_67)\n    tag_68:\n    tag_64:\n      pop\n      swap1\n      pop\n      tag_69\n      swap2\n      swap1\n      tag_70\n      jump\t// in\n    tag_69:\n      pop\n      swap1\n      jump\t// out\n    tag_51:\n      mload(0x40)\n      dup1\n      0x60\n      add\n      0x40\n      mstore\n      dup1\n      and(0xffffffffffffffffffffffffffffffffffffffff, 0x00)\n      dup2\n      mstore\n      0x20\n      add\n      0x60\n      dup2\n      mstore\n      0x20\n      add\n      0x60\n      dup2\n      mstore\n      pop\n      swap1\n      jump\t// out\n    tag_70:\n    tag_71:\n      dup1\n      dup3\n      gt\n      iszero\n      tag_72\n      jumpi\n      0x00\n      dup2\n      0x00\n      swap1\n      sstore\n      pop\n      0x01\n      add\n      jump(tag_71)\n    tag_72:\n      pop\n      swap1\n      jump\t// out\n        /* \"#utility.yul\":7:419   */\n    tag_74:\n        /* \"#utility.yul\":85:90   */\n      0x00\n        /* \"#utility.yul\":110:176   */\n      tag_76\n        /* \"#utility.yul\":126:175   */\n      tag_77\n        /* \"#utility.yul\":168:174   */\n      dup5\n        /* \"#utility.yul\":126:175   */\n      tag_78\n      jump\t// in\n    tag_77:\n        /* \"#utility.yul\":110:176   */\n      tag_79\n      jump\t// in\n    tag_76:\n        /* \"#utility.yul\":101:176   */\n      swap1\n      pop\n        /* \"#utility.yul\":199:205   */\n      dup3\n        /* \"#utility.yul\":192:197   */\n      dup2\n        /* \"#utility.yul\":185:206   */\n      mstore\n        /* \"#utility.yul\":237:241   */\n      0x20\n        /* \"#utility.yul\":230:235   */\n      dup2\n        /* \"#utility.yul\":226:242   */\n      add\n        /* \"#utility.yul\":275:278   */\n      dup5\n        /* \"#utility.yul\":266:272   */\n      dup5\n        /* \"#utility.yul\":261:264   */\n      dup5\n        /* \"#utility.yul\":257:273   */\n      add\n        /* \"#utility.yul\":254:279   */\n      gt\n        /* \"#utility.yul\":251:363   */\n      iszero\n      tag_80\n      jumpi\n        /* \"#utility.yul\":282:361   */\n      tag_81\n      tag_82\n      jump\t// in\n    tag_81:\n        /* \"#utility.yul\":251:363   */\n    tag_80:\n        /* \"#utility.yul\":372:413   */\n      tag_83\n        /* \"#utility.yul\":406:412   */\n      dup5\n        /* \"#utility.yul\":401:404   */\n      dup3\n        /* \"#utility.yul\":396:399   */\n      dup6\n        /* \"#utility.yul\":372:413   */\n      tag_84\n      jump\t// in\n    tag_83:\n        /* \"#utility.yul\":91:419   */\n      pop\n        /* \"#utility.yul\":7:419   */\n      swap4\n      swap3\n      pop\n      pop\n      pop\n      jump\t// out\n        /* \"#utility.yul\":425:564   */\n    tag_85:\n        /* \"#utility.yul\":471:476   */\n      0x00\n        /* \"#utility.yul\":509:515   */\n      dup2\n        /* \"#utility.yul\":496:516   */\n      calldataload\n        /* \"#utility.yul\":487:516   */\n      swap1\n      pop\n        /* \"#utility.yul\":525:558   */\n      tag_87\n        /* \"#utility.yul\":552:557   */\n      dup2\n        /* \"#utility.yul\":525:558   */\n      tag_88\n      jump\t// in\n    tag_87:\n        /* \"#utility.yul\":425:564   */\n      swap3\n      swap2\n      pop\n      pop\n      jump\t// out\n        /* \"#utility.yul\":584:924   */\n    tag_89:\n        /* \"#utility.yul\":640:645   */\n      0x00\n        /* \"#utility.yul\":689:692   */\n      dup3\n        /* \"#utility.yul\":682:686   */\n      0x1f\n        /* \"#utility.yul\":674:680   */\n      dup4\n        /* \"#utility.yul\":670:687   */\n      add\n        /* \"#utility.yul\":666:693   */\n      slt\n        /* \"#utility.yul\":656:778   */\n      tag_91\n      jumpi\n        /* \"#utility.yul\":697:776   */\n      tag_92\n      tag_93\n      jump\t// in\n    tag_92:\n        /* \"#utility.yul\":656:778   */\n    tag_91:\n        /* \"#utility.yul\":814:820   */\n      dup2\n        /* \"#utility.yul\":801:821   */\n      calldataload\n        /* \"#utility.yul\":839:918   */\n      tag_94\n        /* \"#utility.yul\":914:917   */\n      dup5\n        /* \"#utility.yul\":906:912   */\n      dup3\n        /* \"#utility.yul\":899:903   */\n      0x20\n        /* \"#utility.yul\":891:897   */\n      dup7\n        /* \"#utility.yul\":887:904   */\n      add\n        /* \"#utility.yul\":839:918   */\n      tag_74\n      jump\t// in\n    tag_94:\n        /* \"#utility.yul\":830:918   */\n      swap2\n      pop\n        /* \"#utility.yul\":646:924   */\n      pop\n        /* \"#utility.yul\":584:924   */\n      swap3\n      swap2\n      pop\n      pop\n      jump\t// out\n        /* \"#utility.yul\":930:1259   */\n    tag_21:\n        /* \"#utility.yul\":989:995   */\n      0x00\n        /* \"#utility.yul\":1038:1040   */\n      0x20\n        /* \"#utility.yul\":1026:1035   */\n      dup3\n        /* \"#utility.yul\":1017:1024   */\n      dup5\n        /* \"#utility.yul\":1013:1036   */\n      sub\n        /* \"#utility.yul\":1009:1041   */\n      slt\n        /* \"#utility.yul\":1006:1125   */\n      iszero\n      tag_96\n      jumpi\n        /* \"#utility.yul\":1044:1123   */\n      tag_97\n      tag_98\n      jump\t// in\n    tag_97:\n        /* \"#utility.yul\":1006:1125   */\n    tag_96:\n        /* \"#utility.yul\":1164:1165   */\n      0x00\n        /* \"#utility.yul\":1189:1242   */\n      tag_99\n        /* \"#utility.yul\":1234:1241   */\n      dup5\n        /* \"#utility.yul\":1225:1231   */\n      dup3\n        /* \"#utility.yul\":1214:1223   */\n      dup6\n        /* \"#utility.yul\":1210:1232   */\n      add\n        /* \"#utility.yul\":1189:1242   */\n      tag_85\n      jump\t// in\n    tag_99:\n        /* \"#utility.yul\":1179:1242   */\n      swap2\n      pop\n        /* \"#utility.yul\":1135:1252   */\n      pop\n        /* \"#utility.yul\":930:1259   */\n      swap3\n      swap2\n      pop\n      pop\n      jump\t// out\n        /* \"#utility.yul\":1265:1919   */\n    tag_14:\n        /* \"#utility.yul\":1343:1349   */\n      0x00\n        /* \"#utility.yul\":1351:1357   */\n      dup1\n        /* \"#utility.yul\":1400:1402   */\n      0x40\n        /* \"#utility.yul\":1388:1397   */\n      dup4\n        /* \"#utility.yul\":1379:1386   */\n      dup6\n        /* \"#utility.yul\":1375:1398   */\n      sub\n        /* \"#utility.yul\":1371:1403   */\n      slt\n        /* \"#utility.yul\":1368:1487   */\n      iszero\n      tag_101\n      jumpi\n        /* \"#utility.yul\":1406:1485   */\n      tag_102\n      tag_98\n      jump\t// in\n    tag_102:\n        /* \"#utility.yul\":1368:1487   */\n    tag_101:\n        /* \"#utility.yul\":1526:1527   */\n      0x00\n        /* \"#utility.yul\":1551:1604   */\n      tag_103\n        /* \"#utility.yul\":1596:1603   */\n      dup6\n        /* \"#utility.yul\":1587:1593   */\n      dup3\n        /* \"#utility.yul\":1576:1585   */\n      dup7\n        /* \"#utility.yul\":1572:1594   */\n      add\n        /* \"#utility.yul\":1551:1604   */\n      tag_85\n      jump\t// in\n    tag_103:\n        /* \"#utility.yul\":1541:1604   */\n      swap3\n      pop\n        /* \"#utility.yul\":1497:1614   */\n      pop\n        /* \"#utility.yul\":1681:1683   */\n      0x20\n        /* \"#utility.yul\":1670:1679   */\n      dup4\n        /* \"#utility.yul\":1666:1684   */\n      add\n        /* \"#utility.yul\":1653:1685   */\n      calldataload\n        /* \"#utility.yul\":1712:1730   */\n      0xffffffffffffffff\n        /* \"#utility.yul\":1704:1710   */\n      dup2\n        /* \"#utility.yul\":1701:1731   */\n      gt\n        /* \"#utility.yul\":1698:1815   */\n      iszero\n      tag_104\n      jumpi\n        /* \"#utility.yul\":1734:1813   */\n      tag_105\n      tag_106\n      jump\t// in\n    tag_105:\n        /* \"#utility.yul\":1698:1815   */\n    tag_104:\n        /* \"#utility.yul\":1839:1902   */\n      tag_107\n        /* \"#utility.yul\":1894:1901   */\n      dup6\n        /* \"#utility.yul\":1885:1891   */\n      dup3\n        /* \"#utility.yul\":1874:1883   */\n      dup7\n        /* \"#utility.yul\":1870:1892   */\n      add\n        /* \"#utility.yul\":1839:1902   */\n      tag_89\n      jump\t// in\n    tag_107:\n        /* \"#utility.yul\":1829:1902   */\n      swap2\n      pop\n        /* \"#utility.yul\":1624:1912   */\n      pop\n        /* \"#utility.yul\":1265:1919   */\n      swap3\n      pop\n      swap3\n      swap1\n      pop\n      jump\t// out\n        /* \"#utility.yul\":1925:2904   */\n    tag_10:\n        /* \"#utility.yul\":2022:2028   */\n      0x00\n        /* \"#utility.yul\":2030:2036   */\n      dup1\n        /* \"#utility.yul\":2038:2044   */\n      0x00\n        /* \"#utility.yul\":2087:2089   */\n      0x60\n        /* \"#utility.yul\":2075:2084   */\n      dup5\n        /* \"#utility.yul\":2066:2073   */\n      dup7\n        /* \"#utility.yul\":2062:2085   */\n      sub\n        /* \"#utility.yul\":2058:2090   */\n      slt\n        /* \"#utility.yul\":2055:2174   */\n      iszero\n      tag_109\n      jumpi\n        /* \"#utility.yul\":2093:2172   */\n      tag_110\n      tag_98\n      jump\t// in\n    tag_110:\n        /* \"#utility.yul\":2055:2174   */\n    tag_109:\n        /* \"#utility.yul\":2213:2214   */\n      0x00\n        /* \"#utility.yul\":2238:2291   */\n      tag_111\n        /* \"#utility.yul\":2283:2290   */\n      dup7\n        /* \"#utility.yul\":2274:2280   */\n      dup3\n        /* \"#utility.yul\":2263:2272   */\n      dup8\n        /* \"#utility.yul\":2259:2281   */\n      add\n        /* \"#utility.yul\":2238:2291   */\n      tag_85\n      jump\t// in\n    tag_111:\n        /* \"#utility.yul\":2228:2291   */\n      swap4\n      pop\n        /* \"#utility.yul\":2184:2301   */\n      pop\n        /* \"#utility.yul\":2368:2370   */\n      0x20\n        /* \"#utility.yul\":2357:2366   */\n      dup5\n        /* \"#utility.yul\":2353:2371   */\n      add\n        /* \"#utility.yul\":2340:2372   */\n      calldataload\n        /* \"#utility.yul\":2399:2417   */\n      0xffffffffffffffff\n        /* \"#utility.yul\":2391:2397   */\n      dup2\n        /* \"#utility.yul\":2388:2418   */\n      gt\n        /* \"#utility.yul\":2385:2502   */\n      iszero\n      tag_112\n      jumpi\n        /* \"#utility.yul\":2421:2500   */\n      tag_113\n      tag_106\n      jump\t// in\n    tag_113:\n        /* \"#utility.yul\":2385:2502   */\n    tag_112:\n        /* \"#utility.yul\":2526:2589   */\n      tag_114\n        /* \"#utility.yul\":2581:2588   */\n      dup7\n        /* \"#utility.yul\":2572:2578   */\n      dup3\n        /* \"#utility.yul\":2561:2570   */\n      dup8\n        /* \"#utility.yul\":2557:2579   */\n      add\n        /* \"#utility.yul\":2526:2589   */\n      tag_89\n      jump\t// in\n    tag_114:\n        /* \"#utility.yul\":2516:2589   */\n      swap3\n      pop\n        /* \"#utility.yul\":2311:2599   */\n      pop\n        /* \"#utility.yul\":2666:2668   */\n      0x40\n        /* \"#utility.yul\":2655:2664   */\n      dup5\n        /* \"#utility.yul\":2651:2669   */\n      add\n        /* \"#utility.yul\":2638:2670   */\n      calldataload\n        /* \"#utility.yul\":2697:2715   */\n      0xffffffffffffffff\n        /* \"#utility.yul\":2689:2695   */\n      dup2\n        /* \"#utility.yul\":2686:2716   */\n      gt\n        /* \"#utility.yul\":2683:2800   */\n      iszero\n      tag_115\n      jumpi\n        /* \"#utility.yul\":2719:2798   */\n      tag_116\n      tag_106\n      jump\t// in\n    tag_116:\n        /* \"#utility.yul\":2683:2800   */\n    tag_115:\n        /* \"#utility.yul\":2824:2887   */\n      tag_117\n        /* \"#utility.yul\":2879:2886   */\n      dup7\n        /* \"#utility.yul\":2870:2876   */\n      dup3\n        /* \"#utility.yul\":2859:2868   */\n      dup8\n        /* \"#utility.yul\":2855:2877   */\n      add\n        /* \"#utility.yul\":2824:2887   */\n      tag_89\n      jump\t// in\n    tag_117:\n        /* \"#utility.yul\":2814:2887   */\n      swap2\n      pop\n        /* \"#utility.yul\":2609:2897   */\n      pop\n        /* \"#utility.yul\":1925:2904   */\n      swap3\n      pop\n      swap3\n      pop\n      swap3\n      jump\t// out\n        /* \"#utility.yul\":2910:3018   */\n    tag_118:\n        /* \"#utility.yul\":2987:3011   */\n      tag_120\n        /* \"#utility.yul\":3005:3010   */\n      dup2\n        /* \"#utility.yul\":2987:3011   */\n      tag_121\n      jump\t// in\n    tag_120:\n        /* \"#utility.yul\":2982:2985   */\n      dup3\n        /* \"#utility.yul\":2975:3012   */\n      mstore\n        /* \"#utility.yul\":2910:3018   */\n      pop\n      pop\n      jump\t// out\n        /* \"#utility.yul\":3024:3142   */\n    tag_122:\n        /* \"#utility.yul\":3111:3135   */\n      tag_124\n        /* \"#utility.yul\":3129:3134   */\n      dup2\n        /* \"#utility.yul\":3111:3135   */\n      tag_121\n      jump\t// in\n    tag_124:\n        /* \"#utility.yul\":3106:3109   */\n      dup3\n        /* \"#utility.yul\":3099:3136   */\n      mstore\n        /* \"#utility.yul\":3024:3142   */\n      pop\n      pop\n      jump\t// out\n        /* \"#utility.yul\":3148:3492   */\n    tag_125:\n        /* \"#utility.yul\":3226:3229   */\n      0x00\n        /* \"#utility.yul\":3254:3293   */\n      tag_127\n        /* \"#utility.yul\":3287:3292   */\n      dup3\n        /* \"#utility.yul\":3254:3293   */\n      tag_128\n      jump\t// in\n    tag_127:\n        /* \"#utility.yul\":3309:3370   */\n      tag_129\n        /* \"#utility.yul\":3363:3369   */\n      dup2\n        /* \"#utility.yul\":3358:3361   */\n      dup6\n        /* \"#utility.yul\":3309:3370   */\n      tag_130\n      jump\t// in\n    tag_129:\n        /* \"#utility.yul\":3302:3370   */\n      swap4\n      pop\n        /* \"#utility.yul\":3379:3431   */\n      tag_131\n        /* \"#utility.yul\":3424:3430   */\n      dup2\n        /* \"#utility.yul\":3419:3422   */\n      dup6\n        /* \"#utility.yul\":3412:3416   */\n      0x20\n        /* \"#utility.yul\":3405:3410   */\n      dup7\n        /* \"#utility.yul\":3401:3417   */\n      add\n        /* \"#utility.yul\":3379:3431   */\n      tag_132\n      jump\t// in\n    tag_131:\n        /* \"#utility.yul\":3456:3485   */\n      tag_133\n        /* \"#utility.yul\":3478:3484   */\n      dup2\n        /* \"#utility.yul\":3456:3485   */\n      tag_134\n      jump\t// in\n    tag_133:\n        /* \"#utility.yul\":3451:3454   */\n      dup5\n        /* \"#utility.yul\":3447:3486   */\n      add\n        /* \"#utility.yul\":3440:3486   */\n      swap2\n      pop\n        /* \"#utility.yul\":3230:3492   */\n      pop\n        /* \"#utility.yul\":3148:3492   */\n      swap3\n      swap2\n      pop\n      pop\n      jump\t// out\n        /* \"#utility.yul\":3498:3862   */\n    tag_135:\n        /* \"#utility.yul\":3586:3589   */\n      0x00\n        /* \"#utility.yul\":3614:3653   */\n      tag_137\n        /* \"#utility.yul\":3647:3652   */\n      dup3\n        /* \"#utility.yul\":3614:3653   */\n      tag_128\n      jump\t// in\n    tag_137:\n        /* \"#utility.yul\":3669:3740   */\n      tag_138\n        /* \"#utility.yul\":3733:3739   */\n      dup2\n        /* \"#utility.yul\":3728:3731   */\n      dup6\n        /* \"#utility.yul\":3669:3740   */\n      tag_139\n      jump\t// in\n    tag_138:\n        /* \"#utility.yul\":3662:3740   */\n      swap4\n      pop\n        /* \"#utility.yul\":3749:3801   */\n      tag_140\n        /* \"#utility.yul\":3794:3800   */\n      dup2\n        /* \"#utility.yul\":3789:3792   */\n      dup6\n        /* \"#utility.yul\":3782:3786   */\n      0x20\n        /* \"#utility.yul\":3775:3780   */\n      dup7\n        /* \"#utility.yul\":3771:3787   */\n      add\n        /* \"#utility.yul\":3749:3801   */\n      tag_132\n      jump\t// in\n    tag_140:\n        /* \"#utility.yul\":3826:3855   */\n      tag_141\n        /* \"#utility.yul\":3848:3854   */\n      dup2\n        /* \"#utility.yul\":3826:3855   */\n      tag_134\n      jump\t// in\n    tag_141:\n        /* \"#utility.yul\":3821:3824   */\n      dup5\n        /* \"#utility.yul\":3817:3856   */\n      add\n        /* \"#utility.yul\":3810:3856   */\n      swap2\n      pop\n        /* \"#utility.yul\":3590:3862   */\n      pop\n        /* \"#utility.yul\":3498:3862   */\n      swap3\n      swap2\n      pop\n      pop\n      jump\t// out\n        /* \"#utility.yul\":3936:4805   */\n    tag_142:\n        /* \"#utility.yul\":4055:4058   */\n      0x00\n        /* \"#utility.yul\":4091:4095   */\n      0x60\n        /* \"#utility.yul\":4086:4089   */\n      dup4\n        /* \"#utility.yul\":4082:4096   */\n      add\n        /* \"#utility.yul\":4184:4188   */\n      0x00\n        /* \"#utility.yul\":4177:4182   */\n      dup4\n        /* \"#utility.yul\":4173:4189   */\n      add\n        /* \"#utility.yul\":4167:4190   */\n      mload\n        /* \"#utility.yul\":4203:4266   */\n      tag_144\n        /* \"#utility.yul\":4260:4264   */\n      0x00\n        /* \"#utility.yul\":4255:4258   */\n      dup7\n        /* \"#utility.yul\":4251:4265   */\n      add\n        /* \"#utility.yul\":4237:4249   */\n      dup3\n        /* \"#utility.yul\":4203:4266   */\n      tag_118\n      jump\t// in\n    tag_144:\n        /* \"#utility.yul\":4106:4276   */\n      pop\n        /* \"#utility.yul\":4364:4368   */\n      0x20\n        /* \"#utility.yul\":4357:4362   */\n      dup4\n        /* \"#utility.yul\":4353:4369   */\n      add\n        /* \"#utility.yul\":4347:4370   */\n      mload\n        /* \"#utility.yul\":4417:4420   */\n      dup5\n        /* \"#utility.yul\":4411:4415   */\n      dup3\n        /* \"#utility.yul\":4407:4421   */\n      sub\n        /* \"#utility.yul\":4400:4404   */\n      0x20\n        /* \"#utility.yul\":4395:4398   */\n      dup7\n        /* \"#utility.yul\":4391:4405   */\n      add\n        /* \"#utility.yul\":4384:4422   */\n      mstore\n        /* \"#utility.yul\":4443:4516   */\n      tag_145\n        /* \"#utility.yul\":4511:4515   */\n      dup3\n        /* \"#utility.yul\":4497:4509   */\n      dup3\n        /* \"#utility.yul\":4443:4516   */\n      tag_125\n      jump\t// in\n    tag_145:\n        /* \"#utility.yul\":4435:4516   */\n      swap2\n      pop\n        /* \"#utility.yul\":4286:4527   */\n      pop\n        /* \"#utility.yul\":4615:4619   */\n      0x40\n        /* \"#utility.yul\":4608:4613   */\n      dup4\n        /* \"#utility.yul\":4604:4620   */\n      add\n        /* \"#utility.yul\":4598:4621   */\n      mload\n        /* \"#utility.yul\":4668:4671   */\n      dup5\n        /* \"#utility.yul\":4662:4666   */\n      dup3\n        /* \"#utility.yul\":4658:4672   */\n      sub\n        /* \"#utility.yul\":4651:4655   */\n      0x40\n        /* \"#utility.yul\":4646:4649   */\n      dup7\n        /* \"#utility.yul\":4642:4656   */\n      add\n        /* \"#utility.yul\":4635:4673   */\n      mstore\n        /* \"#utility.yul\":4694:4767   */\n      tag_146\n        /* \"#utility.yul\":4762:4766   */\n      dup3\n        /* \"#utility.yul\":4748:4760   */\n      dup3\n        /* \"#utility.yul\":4694:4767   */\n      tag_125\n      jump\t// in\n    tag_146:\n        /* \"#utility.yul\":4686:4767   */\n      swap2\n      pop\n        /* \"#utility.yul\":4537:4778   */\n      pop\n        /* \"#utility.yul\":4795:4799   */\n      dup1\n        /* \"#utility.yul\":4788:4799   */\n      swap2\n      pop\n        /* \"#utility.yul\":4060:4805   */\n      pop\n        /* \"#utility.yul\":3936:4805   */\n      swap3\n      swap2\n      pop\n      pop\n      jump\t// out\n        /* \"#utility.yul\":4811:5435   */\n    tag_24:\n        /* \"#utility.yul\":5000:5004   */\n      0x00\n        /* \"#utility.yul\":5038:5040   */\n      0x60\n        /* \"#utility.yul\":5027:5036   */\n      dup3\n        /* \"#utility.yul\":5023:5041   */\n      add\n        /* \"#utility.yul\":5015:5041   */\n      swap1\n      pop\n        /* \"#utility.yul\":5051:5122   */\n      tag_148\n        /* \"#utility.yul\":5119:5120   */\n      0x00\n        /* \"#utility.yul\":5108:5117   */\n      dup4\n        /* \"#utility.yul\":5104:5121   */\n      add\n        /* \"#utility.yul\":5095:5101   */\n      dup7\n        /* \"#utility.yul\":5051:5122   */\n      tag_122\n      jump\t// in\n    tag_148:\n        /* \"#utility.yul\":5169:5178   */\n      dup2\n        /* \"#utility.yul\":5163:5167   */\n      dup2\n        /* \"#utility.yul\":5159:5179   */\n      sub\n        /* \"#utility.yul\":5154:5156   */\n      0x20\n        /* \"#utility.yul\":5143:5152   */\n      dup4\n        /* \"#utility.yul\":5139:5157   */\n      add\n        /* \"#utility.yul\":5132:5180   */\n      mstore\n        /* \"#utility.yul\":5197:5275   */\n      tag_149\n        /* \"#utility.yul\":5270:5274   */\n      dup2\n        /* \"#utility.yul\":5261:5267   */\n      dup6\n        /* \"#utility.yul\":5197:5275   */\n      tag_135\n      jump\t// in\n    tag_149:\n        /* \"#utility.yul\":5189:5275   */\n      swap1\n      pop\n        /* \"#utility.yul\":5322:5331   */\n      dup2\n        /* \"#utility.yul\":5316:5320   */\n      dup2\n        /* \"#utility.yul\":5312:5332   */\n      sub\n        /* \"#utility.yul\":5307:5309   */\n      0x40\n        /* \"#utility.yul\":5296:5305   */\n      dup4\n        /* \"#utility.yul\":5292:5310   */\n      add\n        /* \"#utility.yul\":5285:5333   */\n      mstore\n        /* \"#utility.yul\":5350:5428   */\n      tag_150\n        /* \"#utility.yul\":5423:5427   */\n      dup2\n        /* \"#utility.yul\":5414:5420   */\n      dup5\n        /* \"#utility.yul\":5350:5428   */\n      tag_135\n      jump\t// in\n    tag_150:\n        /* \"#utility.yul\":5342:5428   */\n      swap1\n      pop\n        /* \"#utility.yul\":4811:5435   */\n      swap5\n      swap4\n      pop\n      pop\n      pop\n      pop\n      jump\t// out\n        /* \"#utility.yul\":5441:5814   */\n    tag_29:\n        /* \"#utility.yul\":5584:5588   */\n      0x00\n        /* \"#utility.yul\":5622:5624   */\n      0x20\n        /* \"#utility.yul\":5611:5620   */\n      dup3\n        /* \"#utility.yul\":5607:5625   */\n      add\n        /* \"#utility.yul\":5599:5625   */\n      swap1\n      pop\n        /* \"#utility.yul\":5671:5680   */\n      dup2\n        /* \"#utility.yul\":5665:5669   */\n      dup2\n        /* \"#utility.yul\":5661:5681   */\n      sub\n        /* \"#utility.yul\":5657:5658   */\n      0x00\n        /* \"#utility.yul\":5646:5655   */\n      dup4\n        /* \"#utility.yul\":5642:5659   */\n      add\n        /* \"#utility.yul\":5635:5682   */\n      mstore\n        /* \"#utility.yul\":5699:5807   */\n      tag_152\n        /* \"#utility.yul\":5802:5806   */\n      dup2\n        /* \"#utility.yul\":5793:5799   */\n      dup5\n        /* \"#utility.yul\":5699:5807   */\n      tag_142\n      jump\t// in\n    tag_152:\n        /* \"#utility.yul\":5691:5807   */\n      swap1\n      pop\n        /* \"#utility.yul\":5441:5814   */\n      swap3\n      swap2\n      pop\n      pop\n      jump\t// out\n        /* \"#utility.yul\":5820:5949   */\n    tag_79:\n        /* \"#utility.yul\":5854:5860   */\n      0x00\n        /* \"#utility.yul\":5881:5901   */\n      tag_154\n      tag_155\n      jump\t// in\n    tag_154:\n        /* \"#utility.yul\":5871:5901   */\n      swap1\n      pop\n        /* \"#utility.yul\":5910:5943   */\n      tag_156\n        /* \"#utility.yul\":5938:5942   */\n      dup3\n        /* \"#utility.yul\":5930:5936   */\n      dup3\n        /* \"#utility.yul\":5910:5943   */\n      tag_157\n      jump\t// in\n    tag_156:\n        /* \"#utility.yul\":5820:5949   */\n      swap2\n      swap1\n      pop\n      jump\t// out\n        /* \"#utility.yul\":5955:6030   */\n    tag_155:\n        /* \"#utility.yul\":5988:5994   */\n      0x00\n        /* \"#utility.yul\":6021:6023   */\n      0x40\n        /* \"#utility.yul\":6015:6024   */\n      mload\n        /* \"#utility.yul\":6005:6024   */\n      swap1\n      pop\n        /* \"#utility.yul\":5955:6030   */\n      swap1\n      jump\t// out\n        /* \"#utility.yul\":6036:6344   */\n    tag_78:\n        /* \"#utility.yul\":6098:6102   */\n      0x00\n        /* \"#utility.yul\":6188:6206   */\n      0xffffffffffffffff\n        /* \"#utility.yul\":6180:6186   */\n      dup3\n        /* \"#utility.yul\":6177:6207   */\n      gt\n        /* \"#utility.yul\":6174:6230   */\n      iszero\n      tag_160\n      jumpi\n        /* \"#utility.yul\":6210:6228   */\n      tag_161\n      tag_162\n      jump\t// in\n    tag_161:\n        /* \"#utility.yul\":6174:6230   */\n    tag_160:\n        /* \"#utility.yul\":6248:6277   */\n      tag_163\n        /* \"#utility.yul\":6270:6276   */\n      dup3\n        /* \"#utility.yul\":6248:6277   */\n      tag_134\n      jump\t// in\n    tag_163:\n        /* \"#utility.yul\":6240:6277   */\n      swap1\n      pop\n        /* \"#utility.yul\":6332:6336   */\n      0x20\n        /* \"#utility.yul\":6326:6330   */\n      dup2\n        /* \"#utility.yul\":6322:6337   */\n      add\n        /* \"#utility.yul\":6314:6337   */\n      swap1\n      pop\n        /* \"#utility.yul\":6036:6344   */\n      swap2\n      swap1\n      pop\n      jump\t// out\n        /* \"#utility.yul\":6350:6449   */\n    tag_128:\n        /* \"#utility.yul\":6402:6408   */\n      0x00\n        /* \"#utility.yul\":6436:6441   */\n      dup2\n        /* \"#utility.yul\":6430:6442   */\n      mload\n        /* \"#utility.yul\":6420:6442   */\n      swap1\n      pop\n        /* \"#utility.yul\":6350:6449   */\n      swap2\n      swap1\n      pop\n      jump\t// out\n        /* \"#utility.yul\":6455:6614   */\n    tag_130:\n        /* \"#utility.yul\":6529:6540   */\n      0x00\n        /* \"#utility.yul\":6563:6569   */\n      dup3\n        /* \"#utility.yul\":6558:6561   */\n      dup3\n        /* \"#utility.yul\":6551:6570   */\n      mstore\n        /* \"#utility.yul\":6603:6607   */\n      0x20\n        /* \"#utility.yul\":6598:6601   */\n      dup3\n        /* \"#utility.yul\":6594:6608   */\n      add\n        /* \"#utility.yul\":6579:6608   */\n      swap1\n      pop\n        /* \"#utility.yul\":6455:6614   */\n      swap3\n      swap2\n      pop\n      pop\n      jump\t// out\n        /* \"#utility.yul\":6620:6789   */\n    tag_139:\n        /* \"#utility.yul\":6704:6715   */\n      0x00\n        /* \"#utility.yul\":6738:6744   */\n      dup3\n        /* \"#utility.yul\":6733:6736   */\n      dup3\n        /* \"#utility.yul\":6726:6745   */\n      mstore\n        /* \"#utility.yul\":6778:6782   */\n      0x20\n        /* \"#utility.yul\":6773:6776   */\n      dup3\n        /* \"#utility.yul\":6769:6783   */\n      add\n        /* \"#utility.yul\":6754:6783   */\n      swap1\n      pop\n        /* \"#utility.yul\":6620:6789   */\n      swap3\n      swap2\n      pop\n      pop\n      jump\t// out\n        /* \"#utility.yul\":6795:6891   */\n    tag_121:\n        /* \"#utility.yul\":6832:6839   */\n      0x00\n        /* \"#utility.yul\":6861:6885   */\n      tag_168\n        /* \"#utility.yul\":6879:6884   */\n      dup3\n        /* \"#utility.yul\":6861:6885   */\n      tag_169\n      jump\t// in\n    tag_168:\n        /* \"#utility.yul\":6850:6885   */\n      swap1\n      pop\n        /* \"#utility.yul\":6795:6891   */\n      swap2\n      swap1\n      pop\n      jump\t// out\n        /* \"#utility.yul\":6897:7023   */\n    tag_169:\n        /* \"#utility.yul\":6934:6941   */\n      0x00\n        /* \"#utility.yul\":6974:7016   */\n      0xffffffffffffffffffffffffffffffffffffffff\n        /* \"#utility.yul\":6967:6972   */\n      dup3\n        /* \"#utility.yul\":6963:7017   */\n      and\n        /* \"#utility.yul\":6952:7017   */\n      swap1\n      pop\n        /* \"#utility.yul\":6897:7023   */\n      swap2\n      swap1\n      pop\n      jump\t// out\n        /* \"#utility.yul\":7029:7183   */\n    tag_84:\n        /* \"#utility.yul\":7113:7119   */\n      dup3\n        /* \"#utility.yul\":7108:7111   */\n      dup2\n        /* \"#utility.yul\":7103:7106   */\n      dup4\n        /* \"#utility.yul\":7090:7120   */\n      calldatacopy\n        /* \"#utility.yul\":7175:7176   */\n      0x00\n        /* \"#utility.yul\":7166:7172   */\n      dup4\n        /* \"#utility.yul\":7161:7164   */\n      dup4\n        /* \"#utility.yul\":7157:7173   */\n      add\n        /* \"#utility.yul\":7150:7177   */\n      mstore\n        /* \"#utility.yul\":7029:7183   */\n      pop\n      pop\n      pop\n      jump\t// out\n        /* \"#utility.yul\":7189:7496   */\n    tag_132:\n        /* \"#utility.yul\":7257:7258   */\n      0x00\n        /* \"#utility.yul\":7267:7380   */\n    tag_173:\n        /* \"#utility.yul\":7281:7287   */\n      dup4\n        /* \"#utility.yul\":7278:7279   */\n      dup2\n        /* \"#utility.yul\":7275:7288   */\n      lt\n        /* \"#utility.yul\":7267:7380   */\n      iszero\n      tag_175\n      jumpi\n        /* \"#utility.yul\":7366:7367   */\n      dup1\n        /* \"#utility.yul\":7361:7364   */\n      dup3\n        /* \"#utility.yul\":7357:7368   */\n      add\n        /* \"#utility.yul\":7351:7369   */\n      mload\n        /* \"#utility.yul\":7347:7348   */\n      dup2\n        /* \"#utility.yul\":7342:7345   */\n      dup5\n        /* \"#utility.yul\":7338:7349   */\n      add\n        /* \"#utility.yul\":7331:7370   */\n      mstore\n        /* \"#utility.yul\":7303:7305   */\n      0x20\n        /* \"#utility.yul\":7300:7301   */\n      dup2\n        /* \"#utility.yul\":7296:7306   */\n      add\n        /* \"#utility.yul\":7291:7306   */\n      swap1\n      pop\n        /* \"#utility.yul\":7267:7380   */\n      jump(tag_173)\n    tag_175:\n        /* \"#utility.yul\":7398:7404   */\n      dup4\n        /* \"#utility.yul\":7395:7396   */\n      dup2\n        /* \"#utility.yul\":7392:7405   */\n      gt\n        /* \"#utility.yul\":7389:7490   */\n      iszero\n      tag_176\n      jumpi\n        /* \"#utility.yul\":7478:7479   */\n      0x00\n        /* \"#utility.yul\":7469:7475   */\n      dup5\n        /* \"#utility.yul\":7464:7467   */\n      dup5\n        /* \"#utility.yul\":7460:7476   */\n      add\n        /* \"#utility.yul\":7453:7480   */\n      mstore\n        /* \"#utility.yul\":7389:7490   */\n    tag_176:\n        /* \"#utility.yul\":7238:7496   */\n      pop\n        /* \"#utility.yul\":7189:7496   */\n      pop\n      pop\n      pop\n      jump\t// out\n        /* \"#utility.yul\":7502:7822   */\n    tag_40:\n        /* \"#utility.yul\":7546:7552   */\n      0x00\n        /* \"#utility.yul\":7583:7584   */\n      0x02\n        /* \"#utility.yul\":7577:7581   */\n      dup3\n        /* \"#utility.yul\":7573:7585   */\n      div\n        /* \"#utility.yul\":7563:7585   */\n      swap1\n      pop\n        /* \"#utility.yul\":7630:7631   */\n      0x01\n        /* \"#utility.yul\":7624:7628   */\n      dup3\n        /* \"#utility.yul\":7620:7632   */\n      and\n        /* \"#utility.yul\":7651:7669   */\n      dup1\n        /* \"#utility.yul\":7641:7722   */\n      tag_178\n      jumpi\n        /* \"#utility.yul\":7707:7711   */\n      0x7f\n        /* \"#utility.yul\":7699:7705   */\n      dup3\n        /* \"#utility.yul\":7695:7712   */\n      and\n        /* \"#utility.yul\":7685:7712   */\n      swap2\n      pop\n        /* \"#utility.yul\":7641:7722   */\n    tag_178:\n        /* \"#utility.yul\":7769:7771   */\n      0x20\n        /* \"#utility.yul\":7761:7767   */\n      dup3\n        /* \"#utility.yul\":7758:7772   */\n      lt\n        /* \"#utility.yul\":7738:7756   */\n      dup2\n        /* \"#utility.yul\":7735:7773   */\n      eq\n        /* \"#utility.yul\":7732:7816   */\n      iszero\n      tag_179\n      jumpi\n        /* \"#utility.yul\":7788:7806   */\n      tag_180\n      tag_181\n      jump\t// in\n    tag_180:\n        /* \"#utility.yul\":7732:7816   */\n    tag_179:\n        /* \"#utility.yul\":7553:7822   */\n      pop\n        /* \"#utility.yul\":7502:7822   */\n      swap2\n      swap1\n      pop\n      jump\t// out\n        /* \"#utility.yul\":7828:8109   */\n    tag_157:\n        /* \"#utility.yul\":7911:7938   */\n      tag_183\n        /* \"#utility.yul\":7933:7937   */\n      dup3\n        /* \"#utility.yul\":7911:7938   */\n      tag_134\n      jump\t// in\n    tag_183:\n        /* \"#utility.yul\":7903:7909   */\n      dup2\n        /* \"#utility.yul\":7899:7939   */\n      add\n        /* \"#utility.yul\":8041:8047   */\n      dup2\n        /* \"#utility.yul\":8029:8039   */\n      dup2\n        /* \"#utility.yul\":8026:8048   */\n      lt\n        /* \"#utility.yul\":8005:8023   */\n      0xffffffffffffffff\n        /* \"#utility.yul\":7993:8003   */\n      dup3\n        /* \"#utility.yul\":7990:8024   */\n      gt\n        /* \"#utility.yul\":7987:8049   */\n      or\n        /* \"#utility.yul\":7984:8072   */\n      iszero\n      tag_184\n      jumpi\n        /* \"#utility.yul\":8052:8070   */\n      tag_185\n      tag_162\n      jump\t// in\n    tag_185:\n        /* \"#utility.yul\":7984:8072   */\n    tag_184:\n        /* \"#utility.yul\":8092:8102   */\n      dup1\n        /* \"#utility.yul\":8088:8090   */\n      0x40\n        /* \"#utility.yul\":8081:8103   */\n      mstore\n        /* \"#utility.yul\":7871:8109   */\n      pop\n        /* \"#utility.yul\":7828:8109   */\n      pop\n      pop\n      jump\t// out\n        /* \"#utility.yul\":8115:8295   */\n    tag_181:\n        /* \"#utility.yul\":8163:8240   */\n      0x4e487b7100000000000000000000000000000000000000000000000000000000\n        /* \"#utility.yul\":8160:8161   */\n      0x00\n        /* \"#utility.yul\":8153:8241   */\n      mstore\n        /* \"#utility.yul\":8260:8264   */\n      0x22\n        /* \"#utility.yul\":8257:8258   */\n      0x04\n        /* \"#utility.yul\":8250:8265   */\n      mstore\n        /* \"#utility.yul\":8284:8288   */\n      0x24\n        /* \"#utility.yul\":8281:8282   */\n      0x00\n        /* \"#utility.yul\":8274:8289   */\n      revert\n        /* \"#utility.yul\":8301:8481   */\n    tag_162:\n        /* \"#utility.yul\":8349:8426   */\n      0x4e487b7100000000000000000000000000000000000000000000000000000000\n        /* \"#utility.yul\":8346:8347   */\n      0x00\n        /* \"#utility.yul\":8339:8427   */\n      mstore\n        /* \"#utility.yul\":8446:8450   */\n      0x41\n        /* \"#utility.yul\":8443:8444   */\n      0x04\n        /* \"#utility.yul\":8436:8451   */\n      mstore\n        /* \"#utility.yul\":8470:8474   */\n      0x24\n        /* \"#utility.yul\":8467:8468   */\n      0x00\n        /* \"#utility.yul\":8460:8475   */\n      revert\n        /* \"#utility.yul\":8487:8604   */\n    tag_93:\n        /* \"#utility.yul\":8596:8597   */\n      0x00\n        /* \"#utility.yul\":8593:8594   */\n      dup1\n        /* \"#utility.yul\":8586:8598   */\n      revert\n        /* \"#utility.yul\":8610:8727   */\n    tag_82:\n        /* \"#utility.yul\":8719:8720   */\n      0x00\n        /* \"#utility.yul\":8716:8717   */\n      dup1\n        /* \"#utility.yul\":8709:8721   */\n      revert\n        /* \"#utility.yul\":8733:8850   */\n    tag_106:\n        /* \"#utility.yul\":8842:8843   */\n      0x00\n        /* \"#utility.yul\":8839:8840   */\n      dup1\n        /* \"#utility.yul\":8832:8844   */\n      revert\n        /* \"#utility.yul\":8856:8973   */\n    tag_98:\n        /* \"#utility.yul\":8965:8966   */\n      0x00\n        /* \"#utility.yul\":8962:8963   */\n      dup1\n        /* \"#utility.yul\":8955:8967   */\n      revert\n        /* \"#utility.yul\":8979:9081   */\n    tag_134:\n        /* \"#utility.yul\":9020:9026   */\n      0x00\n        /* \"#utility.yul\":9071:9073   */\n      0x1f\n        /* \"#utility.yul\":9067:9074   */\n      not\n        /* \"#utility.yul\":9062:9064   */\n      0x1f\n        /* \"#utility.yul\":9055:9060   */\n      dup4\n        /* \"#utility.yul\":9051:9065   */\n      add\n        /* \"#utility.yul\":9047:9075   */\n      and\n        /* \"#utility.yul\":9037:9075   */\n      swap1\n      pop\n        /* \"#utility.yul\":8979:9081   */\n      swap2\n      swap1\n      pop\n      jump\t// out\n        /* \"#utility.yul\":9087:9209   */\n    tag_88:\n        /* \"#utility.yul\":9160:9184   */\n      tag_194\n        /* \"#utility.yul\":9178:9183   */\n      dup2\n        /* \"#utility.yul\":9160:9184   */\n      tag_121\n      jump\t// in\n    tag_194:\n        /* \"#utility.yul\":9153:9158   */\n      dup2\n        /* \"#utility.yul\":9150:9185   */\n      eq\n        /* \"#utility.yul\":9140:9203   */\n      tag_195\n      jumpi\n        /* \"#utility.yul\":9199:9200   */\n      0x00\n        /* \"#utility.yul\":9196:9197   */\n      dup1\n        /* \"#utility.yul\":9189:9201   */\n      revert\n        /* \"#utility.yul\":9140:9203   */\n    tag_195:\n        /* \"#utility.yul\":9087:9209   */\n      pop\n      jump\t// out\n\n    auxdata: 0xa2646970667358221220142384a4430ecb47e99bc2186ef9a6995c66d932d858f020aa992a8138418e9464736f6c63430008070033\n}\n",
				"bytecode": {
					"linkReferences": {},
					"object": "608060405234801561001057600080fd5b50610d2c806100206000396000f3fe608060405234801561001057600080fd5b50600436106100575760003560e01c806331f4ea9c1461005c57806332434a2e146100785780636c47703514610094578063b9e0ad10146100b0578063de1e23b7146100e2575b600080fd5b61007660048036038101906100719190610929565b610112565b005b610092600480360381019061008d91906108cd565b610246565b005b6100ae60048036038101906100a99190610929565b6102e4565b005b6100ca60048036038101906100c591906108a0565b610415565b6040516100d993929190610a9b565b60405180910390f35b6100fc60048036038101906100f791906108a0565b61056f565b6040516101099190610ae0565b60405180910390f35b82600160008573ffffffffffffffffffffffffffffffffffffffff1673ffffffffffffffffffffffffffffffffffffffff16815260200190815260200160002060000160006101000a81548173ffffffffffffffffffffffffffffffffffffffff021916908373ffffffffffffffffffffffffffffffffffffffff16021790555081600160008573ffffffffffffffffffffffffffffffffffffffff1673ffffffffffffffffffffffffffffffffffffffff16815260200190815260200160002060010190805190602001906101e9929190610741565b5080600160008573ffffffffffffffffffffffffffffffffffffffff1673ffffffffffffffffffffffffffffffffffffffff1681526020019081526020016000206003019080519060200190610240929190610741565b50505050565b6000600160003373ffffffffffffffffffffffffffffffffffffffff1673ffffffffffffffffffffffffffffffffffffffff1681526020019081526020016000209050818160020160008573ffffffffffffffffffffffffffffffffffffffff1673ffffffffffffffffffffffffffffffffffffffff16815260200190815260200160002090805190602001906102de929190610741565b50505050565b826000808573ffffffffffffffffffffffffffffffffffffffff1673ffffffffffffffffffffffffffffffffffffffff16815260200190815260200160002060000160006101000a81548173ffffffffffffffffffffffffffffffffffffffff021916908373ffffffffffffffffffffffffffffffffffffffff160217905550816000808573ffffffffffffffffffffffffffffffffffffffff1673ffffffffffffffffffffffffffffffffffffffff16815260200190815260200160002060010190805190602001906103b9929190610741565b50806000808573ffffffffffffffffffffffffffffffffffffffff1673ffffffffffffffffffffffffffffffffffffffff168152602001908152602001600020600201908051906020019061040f929190610741565b50505050565b60016020528060005260406000206000915090508060000160009054906101000a900473ffffffffffffffffffffffffffffffffffffffff169080600101805461045e90610bf9565b80601f016020809104026020016040519081016040528092919081815260200182805461048a90610bf9565b80156104d75780601f106104ac576101008083540402835291602001916104d7565b820191906000526020600020905b8154815290600101906020018083116104ba57829003601f168201915b5050505050908060030180546104ec90610bf9565b80601f016020809104026020016040519081016040528092919081815260200182805461051890610bf9565b80156105655780601f1061053a57610100808354040283529160200191610565565b820191906000526020600020905b81548152906001019060200180831161054857829003601f168201915b5050505050905083565b6105776107c7565b6000808373ffffffffffffffffffffffffffffffffffffffff1673ffffffffffffffffffffffffffffffffffffffff1681526020019081526020016000206040518060600160405290816000820160009054906101000a900473ffffffffffffffffffffffffffffffffffffffff1673ffffffffffffffffffffffffffffffffffffffff1673ffffffffffffffffffffffffffffffffffffffff16815260200160018201805461062690610bf9565b80601f016020809104026020016040519081016040528092919081815260200182805461065290610bf9565b801561069f5780601f106106745761010080835404028352916020019161069f565b820191906000526020600020905b81548152906001019060200180831161068257829003601f168201915b505050505081526020016002820180546106b890610bf9565b80601f01602080910402602001604051908101604052809291908181526020018280546106e490610bf9565b80156107315780601f1061070657610100808354040283529160200191610731565b820191906000526020600020905b81548152906001019060200180831161071457829003601f168201915b5050505050815250509050919050565b82805461074d90610bf9565b90600052602060002090601f01602090048101928261076f57600085556107b6565b82601f1061078857805160ff19168380011785556107b6565b828001600101855582156107b6579182015b828111156107b557825182559160200191906001019061079a565b5b5090506107c391906107fe565b5090565b6040518060600160405280600073ffffffffffffffffffffffffffffffffffffffff16815260200160608152602001606081525090565b5b808211156108175760008160009055506001016107ff565b5090565b600061082e61082984610b27565b610b02565b90508281526020810184848401111561084a57610849610cbf565b5b610855848285610bb7565b509392505050565b60008135905061086c81610cdf565b92915050565b600082601f83011261088757610886610cba565b5b813561089784826020860161081b565b91505092915050565b6000602082840312156108b6576108b5610cc9565b5b60006108c48482850161085d565b91505092915050565b600080604083850312156108e4576108e3610cc9565b5b60006108f28582860161085d565b925050602083013567ffffffffffffffff81111561091357610912610cc4565b5b61091f85828601610872565b9150509250929050565b60008060006060848603121561094257610941610cc9565b5b60006109508682870161085d565b935050602084013567ffffffffffffffff81111561097157610970610cc4565b5b61097d86828701610872565b925050604084013567ffffffffffffffff81111561099e5761099d610cc4565b5b6109aa86828701610872565b9150509250925092565b6109bd81610b85565b82525050565b6109cc81610b85565b82525050565b60006109dd82610b58565b6109e78185610b63565b93506109f7818560208601610bc6565b610a0081610cce565b840191505092915050565b6000610a1682610b58565b610a208185610b74565b9350610a30818560208601610bc6565b610a3981610cce565b840191505092915050565b6000606083016000830151610a5c60008601826109b4565b5060208301518482036020860152610a7482826109d2565b91505060408301518482036040860152610a8e82826109d2565b9150508091505092915050565b6000606082019050610ab060008301866109c3565b8181036020830152610ac28185610a0b565b90508181036040830152610ad68184610a0b565b9050949350505050565b60006020820190508181036000830152610afa8184610a44565b905092915050565b6000610b0c610b1d565b9050610b188282610c2b565b919050565b6000604051905090565b600067ffffffffffffffff821115610b4257610b41610c8b565b5b610b4b82610cce565b9050602081019050919050565b600081519050919050565b600082825260208201905092915050565b600082825260208201905092915050565b6000610b9082610b97565b9050919050565b600073ffffffffffffffffffffffffffffffffffffffff82169050919050565b82818337600083830152505050565b60005b83811015610be4578082015181840152602081019050610bc9565b83811115610bf3576000848401525b50505050565b60006002820490506001821680610c1157607f821691505b60208210811415610c2557610c24610c5c565b5b50919050565b610c3482610cce565b810181811067ffffffffffffffff82111715610c5357610c52610c8b565b5b80604052505050565b7f4e487b7100000000000000000000000000000000000000000000000000000000600052602260045260246000fd5b7f4e487b7100000000000000000000000000000000000000000000000000000000600052604160045260246000fd5b600080fd5b600080fd5b600080fd5b600080fd5b6000601f19601f8301169050919050565b610ce881610b85565b8114610cf357600080fd5b5056fea2646970667358221220142384a4430ecb47e99bc2186ef9a6995c66d932d858f020aa992a8138418e9464736f6c63430008070033",
					"opcodes": "PUSH1 0x80 PUSH1 0x40 MSTORE CALLVALUE DUP1 ISZERO PUSH2 0x10 JUMPI PUSH1 0x0 DUP1 REVERT JUMPDEST POP PUSH2 0xD2C DUP1 PUSH2 0x20 PUSH1 0x0 CODECOPY PUSH1 0x0 RETURN INVALID PUSH1 0x80 PUSH1 0x40 MSTORE CALLVALUE DUP1 ISZERO PUSH2 0x10 JUMPI PUSH1 0x0 DUP1 REVERT JUMPDEST POP PUSH1 0x4 CALLDATASIZE LT PUSH2 0x57 JUMPI PUSH1 0x0 CALLDATALOAD PUSH1 0xE0 SHR DUP1 PUSH4 0x31F4EA9C EQ PUSH2 0x5C JUMPI DUP1 PUSH4 0x32434A2E EQ PUSH2 0x78 JUMPI DUP1 PUSH4 0x6C477035 EQ PUSH2 0x94 JUMPI DUP1 PUSH4 0xB9E0AD10 EQ PUSH2 0xB0 JUMPI DUP1 PUSH4 0xDE1E23B7 EQ PUSH2 0xE2 JUMPI JUMPDEST PUSH1 0x0 DUP1 REVERT JUMPDEST PUSH2 0x76 PUSH1 0x4 DUP1 CALLDATASIZE SUB DUP2 ADD SWAP1 PUSH2 0x71 SWAP2 SWAP1 PUSH2 0x929 JUMP JUMPDEST PUSH2 0x112 JUMP JUMPDEST STOP JUMPDEST PUSH2 0x92 PUSH1 0x4 DUP1 CALLDATASIZE SUB DUP2 ADD SWAP1 PUSH2 0x8D SWAP2 SWAP1 PUSH2 0x8CD JUMP JUMPDEST PUSH2 0x246 JUMP JUMPDEST STOP JUMPDEST PUSH2 0xAE PUSH1 0x4 DUP1 CALLDATASIZE SUB DUP2 ADD SWAP1 PUSH2 0xA9 SWAP2 SWAP1 PUSH2 0x929 JUMP JUMPDEST PUSH2 0x2E4 JUMP JUMPDEST STOP JUMPDEST PUSH2 0xCA PUSH1 0x4 DUP1 CALLDATASIZE SUB DUP2 ADD SWAP1 PUSH2 0xC5 SWAP2 SWAP1 PUSH2 0x8A0 JUMP JUMPDEST PUSH2 0x415 JUMP JUMPDEST PUSH1 0x40 MLOAD PUSH2 0xD9 SWAP4 SWAP3 SWAP2 SWAP1 PUSH2 0xA9B JUMP JUMPDEST PUSH1 0x40 MLOAD DUP1 SWAP2 SUB SWAP1 RETURN JUMPDEST PUSH2 0xFC PUSH1 0x4 DUP1 CALLDATASIZE SUB DUP2 ADD SWAP1 PUSH2 0xF7 SWAP2 SWAP1 PUSH2 0x8A0 JUMP JUMPDEST PUSH2 0x56F JUMP JUMPDEST PUSH1 0x40 MLOAD PUSH2 0x109 SWAP2 SWAP1 PUSH2 0xAE0 JUMP JUMPDEST PUSH1 0x40 MLOAD DUP1 SWAP2 SUB SWAP1 RETURN JUMPDEST DUP3 PUSH1 0x1 PUSH1 0x0 DUP6 PUSH20 0xFFFFFFFFFFFFFFFFFFFFFFFFFFFFFFFFFFFFFFFF AND PUSH20 0xFFFFFFFFFFFFFFFFFFFFFFFFFFFFFFFFFFFFFFFF AND DUP2 MSTORE PUSH1 0x20 ADD SWAP1 DUP2 MSTORE PUSH1 0x20 ADD PUSH1 0x0 KECCAK256 PUSH1 0x0 ADD PUSH1 0x0 PUSH2 0x100 EXP DUP2 SLOAD DUP2 PUSH20 0xFFFFFFFFFFFFFFFFFFFFFFFFFFFFFFFFFFFFFFFF MUL NOT AND SWAP1 DUP4 PUSH20 0xFFFFFFFFFFFFFFFFFFFFFFFFFFFFFFFFFFFFFFFF AND MUL OR SWAP1 SSTORE POP DUP2 PUSH1 0x1 PUSH1 0x0 DUP6 PUSH20 0xFFFFFFFFFFFFFFFFFFFFFFFFFFFFFFFFFFFFFFFF AND PUSH20 0xFFFFFFFFFFFFFFFFFFFFFFFFFFFFFFFFFFFFFFFF AND DUP2 MSTORE PUSH1 0x20 ADD SWAP1 DUP2 MSTORE PUSH1 0x20 ADD PUSH1 0x0 KECCAK256 PUSH1 0x1 ADD SWAP1 DUP1 MLOAD SWAP1 PUSH1 0x20 ADD SWAP1 PUSH2 0x1E9 SWAP3 SWAP2 SWAP1 PUSH2 0x741 JUMP JUMPDEST POP DUP1 PUSH1 0x1 PUSH1 0x0 DUP6 PUSH20 0xFFFFFFFFFFFFFFFFFFFFFFFFFFFFFFFFFFFFFFFF AND PUSH20 0xFFFFFFFFFFFFFFFFFFFFFFFFFFFFFFFFFFFFFFFF AND DUP2 MSTORE PUSH1 0x20 ADD SWAP1 DUP2 MSTORE PUSH1 0x20 ADD PUSH1 0x0 KECCAK256 PUSH1 0x3 ADD SWAP1 DUP1 MLOAD SWAP1 PUSH1 0x20 ADD SWAP1 PUSH2 0x240 SWAP3 SWAP2 SWAP1 PUSH2 0x741 JUMP JUMPDEST POP POP POP POP JUMP JUMPDEST PUSH1 0x0 PUSH1 0x1 PUSH1 0x0 CALLER PUSH20 0xFFFFFFFFFFFFFFFFFFFFFFFFFFFFFFFFFFFFFFFF AND PUSH20 0xFFFFFFFFFFFFFFFFFFFFFFFFFFFFFFFFFFFFFFFF AND DUP2 MSTORE PUSH1 0x20 ADD SWAP1 DUP2 MSTORE PUSH1 0x20 ADD PUSH1 0x0 KECCAK256 SWAP1 POP DUP2 DUP2 PUSH1 0x2 ADD PUSH1 0x0 DUP6 PUSH20 0xFFFFFFFFFFFFFFFFFFFFFFFFFFFFFFFFFFFFFFFF AND PUSH20 0xFFFFFFFFFFFFFFFFFFFFFFFFFFFFFFFFFFFFFFFF AND DUP2 MSTORE PUSH1 0x20 ADD SWAP1 DUP2 MSTORE PUSH1 0x20 ADD PUSH1 0x0 KECCAK256 SWAP1 DUP1 MLOAD SWAP1 PUSH1 0x20 ADD SWAP1 PUSH2 0x2DE SWAP3 SWAP2 SWAP1 PUSH2 0x741 JUMP JUMPDEST POP POP POP POP JUMP JUMPDEST DUP3 PUSH1 0x0 DUP1 DUP6 PUSH20 0xFFFFFFFFFFFFFFFFFFFFFFFFFFFFFFFFFFFFFFFF AND PUSH20 0xFFFFFFFFFFFFFFFFFFFFFFFFFFFFFFFFFFFFFFFF AND DUP2 MSTORE PUSH1 0x20 ADD SWAP1 DUP2 MSTORE PUSH1 0x20 ADD PUSH1 0x0 KECCAK256 PUSH1 0x0 ADD PUSH1 0x0 PUSH2 0x100 EXP DUP2 SLOAD DUP2 PUSH20 0xFFFFFFFFFFFFFFFFFFFFFFFFFFFFFFFFFFFFFFFF MUL NOT AND SWAP1 DUP4 PUSH20 0xFFFFFFFFFFFFFFFFFFFFFFFFFFFFFFFFFFFFFFFF AND MUL OR SWAP1 SSTORE POP DUP2 PUSH1 0x0 DUP1 DUP6 PUSH20 0xFFFFFFFFFFFFFFFFFFFFFFFFFFFFFFFFFFFFFFFF AND PUSH20 0xFFFFFFFFFFFFFFFFFFFFFFFFFFFFFFFFFFFFFFFF AND DUP2 MSTORE PUSH1 0x20 ADD SWAP1 DUP2 MSTORE PUSH1 0x20 ADD PUSH1 0x0 KECCAK256 PUSH1 0x1 ADD SWAP1 DUP1 MLOAD SWAP1 PUSH1 0x20 ADD SWAP1 PUSH2 0x3B9 SWAP3 SWAP2 SWAP1 PUSH2 0x741 JUMP JUMPDEST POP DUP1 PUSH1 0x0 DUP1 DUP6 PUSH20 0xFFFFFFFFFFFFFFFFFFFFFFFFFFFFFFFFFFFFFFFF AND PUSH20 0xFFFFFFFFFFFFFFFFFFFFFFFFFFFFFFFFFFFFFFFF AND DUP2 MSTORE PUSH1 0x20 ADD SWAP1 DUP2 MSTORE PUSH1 0x20 ADD PUSH1 0x0 KECCAK256 PUSH1 0x2 ADD SWAP1 DUP1 MLOAD SWAP1 PUSH1 0x20 ADD SWAP1 PUSH2 0x40F SWAP3 SWAP2 SWAP1 PUSH2 0x741 JUMP JUMPDEST POP POP POP POP JUMP JUMPDEST PUSH1 0x1 PUSH1 0x20 MSTORE DUP1 PUSH1 0x0 MSTORE PUSH1 0x40 PUSH1 0x0 KECCAK256 PUSH1 0x0 SWAP2 POP SWAP1 POP DUP1 PUSH1 0x0 ADD PUSH1 0x0 SWAP1 SLOAD SWAP1 PUSH2 0x100 EXP SWAP1 DIV PUSH20 0xFFFFFFFFFFFFFFFFFFFFFFFFFFFFFFFFFFFFFFFF AND SWAP1 DUP1 PUSH1 0x1 ADD DUP1 SLOAD PUSH2 0x45E SWAP1 PUSH2 0xBF9 JUMP JUMPDEST DUP1 PUSH1 0x1F ADD PUSH1 0x20 DUP1 SWAP2 DIV MUL PUSH1 0x20 ADD PUSH1 0x40 MLOAD SWAP1 DUP2 ADD PUSH1 0x40 MSTORE DUP1 SWAP3 SWAP2 SWAP1 DUP2 DUP2 MSTORE PUSH1 0x20 ADD DUP3 DUP1 SLOAD PUSH2 0x48A SWAP1 PUSH2 0xBF9 JUMP JUMPDEST DUP1 ISZERO PUSH2 0x4D7 JUMPI DUP1 PUSH1 0x1F LT PUSH2 0x4AC JUMPI PUSH2 0x100 DUP1 DUP4 SLOAD DIV MUL DUP4 MSTORE SWAP2 PUSH1 0x20 ADD SWAP2 PUSH2 0x4D7 JUMP JUMPDEST DUP3 ADD SWAP2 SWAP1 PUSH1 0x0 MSTORE PUSH1 0x20 PUSH1 0x0 KECCAK256 SWAP1 JUMPDEST DUP2 SLOAD DUP2 MSTORE SWAP1 PUSH1 0x1 ADD SWAP1 PUSH1 0x20 ADD DUP1 DUP4 GT PUSH2 0x4BA JUMPI DUP3 SWAP1 SUB PUSH1 0x1F AND DUP3 ADD SWAP2 JUMPDEST POP POP POP POP POP SWAP1 DUP1 PUSH1 0x3 ADD DUP1 SLOAD PUSH2 0x4EC SWAP1 PUSH2 0xBF9 JUMP JUMPDEST DUP1 PUSH1 0x1F ADD PUSH1 0x20 DUP1 SWAP2 DIV MUL PUSH1 0x20 ADD PUSH1 0x40 MLOAD SWAP1 DUP2 ADD PUSH1 0x40 MSTORE DUP1 SWAP3 SWAP2 SWAP1 DUP2 DUP2 MSTORE PUSH1 0x20 ADD DUP3 DUP1 SLOAD PUSH2 0x518 SWAP1 PUSH2 0xBF9 JUMP JUMPDEST DUP1 ISZERO PUSH2 0x565 JUMPI DUP1 PUSH1 0x1F LT PUSH2 0x53A JUMPI PUSH2 0x100 DUP1 DUP4 SLOAD DIV MUL DUP4 MSTORE SWAP2 PUSH1 0x20 ADD SWAP2 PUSH2 0x565 JUMP JUMPDEST DUP3 ADD SWAP2 SWAP1 PUSH1 0x0 MSTORE PUSH1 0x20 PUSH1 0x0 KECCAK256 SWAP1 JUMPDEST DUP2 SLOAD DUP2 MSTORE SWAP1 PUSH1 0x1 ADD SWAP1 PUSH1 0x20 ADD DUP1 DUP4 GT PUSH2 0x548 JUMPI DUP3 SWAP1 SUB PUSH1 0x1F AND DUP3 ADD SWAP2 JUMPDEST POP POP POP POP POP SWAP1 POP DUP4 JUMP JUMPDEST PUSH2 0x577 PUSH2 0x7C7 JUMP JUMPDEST PUSH1 0x0 DUP1 DUP4 PUSH20 0xFFFFFFFFFFFFFFFFFFFFFFFFFFFFFFFFFFFFFFFF AND PUSH20 0xFFFFFFFFFFFFFFFFFFFFFFFFFFFFFFFFFFFFFFFF AND DUP2 MSTORE PUSH1 0x20 ADD SWAP1 DUP2 MSTORE PUSH1 0x20 ADD PUSH1 0x0 KECCAK256 PUSH1 0x40 MLOAD DUP1 PUSH1 0x60 ADD PUSH1 0x40 MSTORE SWAP1 DUP2 PUSH1 0x0 DUP3 ADD PUSH1 0x0 SWAP1 SLOAD SWAP1 PUSH2 0x100 EXP SWAP1 DIV PUSH20 0xFFFFFFFFFFFFFFFFFFFFFFFFFFFFFFFFFFFFFFFF AND PUSH20 0xFFFFFFFFFFFFFFFFFFFFFFFFFFFFFFFFFFFFFFFF AND PUSH20 0xFFFFFFFFFFFFFFFFFFFFFFFFFFFFFFFFFFFFFFFF AND DUP2 MSTORE PUSH1 0x20 ADD PUSH1 0x1 DUP3 ADD DUP1 SLOAD PUSH2 0x626 SWAP1 PUSH2 0xBF9 JUMP JUMPDEST DUP1 PUSH1 0x1F ADD PUSH1 0x20 DUP1 SWAP2 DIV MUL PUSH1 0x20 ADD PUSH1 0x40 MLOAD SWAP1 DUP2 ADD PUSH1 0x40 MSTORE DUP1 SWAP3 SWAP2 SWAP1 DUP2 DUP2 MSTORE PUSH1 0x20 ADD DUP3 DUP1 SLOAD PUSH2 0x652 SWAP1 PUSH2 0xBF9 JUMP JUMPDEST DUP1 ISZERO PUSH2 0x69F JUMPI DUP1 PUSH1 0x1F LT PUSH2 0x674 JUMPI PUSH2 0x100 DUP1 DUP4 SLOAD DIV MUL DUP4 MSTORE SWAP2 PUSH1 0x20 ADD SWAP2 PUSH2 0x69F JUMP JUMPDEST DUP3 ADD SWAP2 SWAP1 PUSH1 0x0 MSTORE PUSH1 0x20 PUSH1 0x0 KECCAK256 SWAP1 JUMPDEST DUP2 SLOAD DUP2 MSTORE SWAP1 PUSH1 0x1 ADD SWAP1 PUSH1 0x20 ADD DUP1 DUP4 GT PUSH2 0x682 JUMPI DUP3 SWAP1 SUB PUSH1 0x1F AND DUP3 ADD SWAP2 JUMPDEST POP POP POP POP POP DUP2 MSTORE PUSH1 0x20 ADD PUSH1 0x2 DUP3 ADD DUP1 SLOAD PUSH2 0x6B8 SWAP1 PUSH2 0xBF9 JUMP JUMPDEST DUP1 PUSH1 0x1F ADD PUSH1 0x20 DUP1 SWAP2 DIV MUL PUSH1 0x20 ADD PUSH1 0x40 MLOAD SWAP1 DUP2 ADD PUSH1 0x40 MSTORE DUP1 SWAP3 SWAP2 SWAP1 DUP2 DUP2 MSTORE PUSH1 0x20 ADD DUP3 DUP1 SLOAD PUSH2 0x6E4 SWAP1 PUSH2 0xBF9 JUMP JUMPDEST DUP1 ISZERO PUSH2 0x731 JUMPI DUP1 PUSH1 0x1F LT PUSH2 0x706 JUMPI PUSH2 0x100 DUP1 DUP4 SLOAD DIV MUL DUP4 MSTORE SWAP2 PUSH1 0x20 ADD SWAP2 PUSH2 0x731 JUMP JUMPDEST DUP3 ADD SWAP2 SWAP1 PUSH1 0x0 MSTORE PUSH1 0x20 PUSH1 0x0 KECCAK256 SWAP1 JUMPDEST DUP2 SLOAD DUP2 MSTORE SWAP1 PUSH1 0x1 ADD SWAP1 PUSH1 0x20 ADD DUP1 DUP4 GT PUSH2 0x714 JUMPI DUP3 SWAP1 SUB PUSH1 0x1F AND DUP3 ADD SWAP2 JUMPDEST POP POP POP POP POP DUP2 MSTORE POP POP SWAP1 POP SWAP2 SWAP1 POP JUMP JUMPDEST DUP3 DUP1 SLOAD PUSH2 0x74D SWAP1 PUSH2 0xBF9 JUMP JUMPDEST SWAP1 PUSH1 0x0 MSTORE PUSH1 0x20 PUSH1 0x0 KECCAK256 SWAP1 PUSH1 0x1F ADD PUSH1 0x20 SWAP1 DIV DUP2 ADD SWAP3 DUP3 PUSH2 0x76F JUMPI PUSH1 0x0 DUP6 SSTORE PUSH2 0x7B6 JUMP JUMPDEST DUP3 PUSH1 0x1F LT PUSH2 0x788 JUMPI DUP1 MLOAD PUSH1 0xFF NOT AND DUP4 DUP1 ADD OR DUP6 SSTORE PUSH2 0x7B6 JUMP JUMPDEST DUP3 DUP1 ADD PUSH1 0x1 ADD DUP6 SSTORE DUP3 ISZERO PUSH2 0x7B6 JUMPI SWAP2 DUP3 ADD JUMPDEST DUP3 DUP2 GT ISZERO PUSH2 0x7B5 JUMPI DUP3 MLOAD DUP3 SSTORE SWAP2 PUSH1 0x20 ADD SWAP2 SWAP1 PUSH1 0x1 ADD SWAP1 PUSH2 0x79A JUMP JUMPDEST JUMPDEST POP SWAP1 POP PUSH2 0x7C3 SWAP2 SWAP1 PUSH2 0x7FE JUMP JUMPDEST POP SWAP1 JUMP JUMPDEST PUSH1 0x40 MLOAD DUP1 PUSH1 0x60 ADD PUSH1 0x40 MSTORE DUP1 PUSH1 0x0 PUSH20 0xFFFFFFFFFFFFFFFFFFFFFFFFFFFFFFFFFFFFFFFF AND DUP2 MSTORE PUSH1 0x20 ADD PUSH1 0x60 DUP2 MSTORE PUSH1 0x20 ADD PUSH1 0x60 DUP2 MSTORE POP SWAP1 JUMP JUMPDEST JUMPDEST DUP1 DUP3 GT ISZERO PUSH2 0x817 JUMPI PUSH1 0x0 DUP2 PUSH1 0x0 SWAP1 SSTORE POP PUSH1 0x1 ADD PUSH2 0x7FF JUMP JUMPDEST POP SWAP1 JUMP JUMPDEST PUSH1 0x0 PUSH2 0x82E PUSH2 0x829 DUP5 PUSH2 0xB27 JUMP JUMPDEST PUSH2 0xB02 JUMP JUMPDEST SWAP1 POP DUP3 DUP2 MSTORE PUSH1 0x20 DUP2 ADD DUP5 DUP5 DUP5 ADD GT ISZERO PUSH2 0x84A JUMPI PUSH2 0x849 PUSH2 0xCBF JUMP JUMPDEST JUMPDEST PUSH2 0x855 DUP5 DUP3 DUP6 PUSH2 0xBB7 JUMP JUMPDEST POP SWAP4 SWAP3 POP POP POP JUMP JUMPDEST PUSH1 0x0 DUP2 CALLDATALOAD SWAP1 POP PUSH2 0x86C DUP2 PUSH2 0xCDF JUMP JUMPDEST SWAP3 SWAP2 POP POP JUMP JUMPDEST PUSH1 0x0 DUP3 PUSH1 0x1F DUP4 ADD SLT PUSH2 0x887 JUMPI PUSH2 0x886 PUSH2 0xCBA JUMP JUMPDEST JUMPDEST DUP2 CALLDATALOAD PUSH2 0x897 DUP5 DUP3 PUSH1 0x20 DUP7 ADD PUSH2 0x81B JUMP JUMPDEST SWAP2 POP POP SWAP3 SWAP2 POP POP JUMP JUMPDEST PUSH1 0x0 PUSH1 0x20 DUP3 DUP5 SUB SLT ISZERO PUSH2 0x8B6 JUMPI PUSH2 0x8B5 PUSH2 0xCC9 JUMP JUMPDEST JUMPDEST PUSH1 0x0 PUSH2 0x8C4 DUP5 DUP3 DUP6 ADD PUSH2 0x85D JUMP JUMPDEST SWAP2 POP POP SWAP3 SWAP2 POP POP JUMP JUMPDEST PUSH1 0x0 DUP1 PUSH1 0x40 DUP4 DUP6 SUB SLT ISZERO PUSH2 0x8E4 JUMPI PUSH2 0x8E3 PUSH2 0xCC9 JUMP JUMPDEST JUMPDEST PUSH1 0x0 PUSH2 0x8F2 DUP6 DUP3 DUP7 ADD PUSH2 0x85D JUMP JUMPDEST SWAP3 POP POP PUSH1 0x20 DUP4 ADD CALLDATALOAD PUSH8 0xFFFFFFFFFFFFFFFF DUP2 GT ISZERO PUSH2 0x913 JUMPI PUSH2 0x912 PUSH2 0xCC4 JUMP JUMPDEST JUMPDEST PUSH2 0x91F DUP6 DUP3 DUP7 ADD PUSH2 0x872 JUMP JUMPDEST SWAP2 POP POP SWAP3 POP SWAP3 SWAP1 POP JUMP JUMPDEST PUSH1 0x0 DUP1 PUSH1 0x0 PUSH1 0x60 DUP5 DUP7 SUB SLT ISZERO PUSH2 0x942 JUMPI PUSH2 0x941 PUSH2 0xCC9 JUMP JUMPDEST JUMPDEST PUSH1 0x0 PUSH2 0x950 DUP7 DUP3 DUP8 ADD PUSH2 0x85D JUMP JUMPDEST SWAP4 POP POP PUSH1 0x20 DUP5 ADD CALLDATALOAD PUSH8 0xFFFFFFFFFFFFFFFF DUP2 GT ISZERO PUSH2 0x971 JUMPI PUSH2 0x970 PUSH2 0xCC4 JUMP JUMPDEST JUMPDEST PUSH2 0x97D DUP7 DUP3 DUP8 ADD PUSH2 0x872 JUMP JUMPDEST SWAP3 POP POP PUSH1 0x40 DUP5 ADD CALLDATALOAD PUSH8 0xFFFFFFFFFFFFFFFF DUP2 GT ISZERO PUSH2 0x99E JUMPI PUSH2 0x99D PUSH2 0xCC4 JUMP JUMPDEST JUMPDEST PUSH2 0x9AA DUP7 DUP3 DUP8 ADD PUSH2 0x872 JUMP JUMPDEST SWAP2 POP POP SWAP3 POP SWAP3 POP SWAP3 JUMP JUMPDEST PUSH2 0x9BD DUP2 PUSH2 0xB85 JUMP JUMPDEST DUP3 MSTORE POP POP JUMP JUMPDEST PUSH2 0x9CC DUP2 PUSH2 0xB85 JUMP JUMPDEST DUP3 MSTORE POP POP JUMP JUMPDEST PUSH1 0x0 PUSH2 0x9DD DUP3 PUSH2 0xB58 JUMP JUMPDEST PUSH2 0x9E7 DUP2 DUP6 PUSH2 0xB63 JUMP JUMPDEST SWAP4 POP PUSH2 0x9F7 DUP2 DUP6 PUSH1 0x20 DUP7 ADD PUSH2 0xBC6 JUMP JUMPDEST PUSH2 0xA00 DUP2 PUSH2 0xCCE JUMP JUMPDEST DUP5 ADD SWAP2 POP POP SWAP3 SWAP2 POP POP JUMP JUMPDEST PUSH1 0x0 PUSH2 0xA16 DUP3 PUSH2 0xB58 JUMP JUMPDEST PUSH2 0xA20 DUP2 DUP6 PUSH2 0xB74 JUMP JUMPDEST SWAP4 POP PUSH2 0xA30 DUP2 DUP6 PUSH1 0x20 DUP7 ADD PUSH2 0xBC6 JUMP JUMPDEST PUSH2 0xA39 DUP2 PUSH2 0xCCE JUMP JUMPDEST DUP5 ADD SWAP2 POP POP SWAP3 SWAP2 POP POP JUMP JUMPDEST PUSH1 0x0 PUSH1 0x60 DUP4 ADD PUSH1 0x0 DUP4 ADD MLOAD PUSH2 0xA5C PUSH1 0x0 DUP7 ADD DUP3 PUSH2 0x9B4 JUMP JUMPDEST POP PUSH1 0x20 DUP4 ADD MLOAD DUP5 DUP3 SUB PUSH1 0x20 DUP7 ADD MSTORE PUSH2 0xA74 DUP3 DUP3 PUSH2 0x9D2 JUMP JUMPDEST SWAP2 POP POP PUSH1 0x40 DUP4 ADD MLOAD DUP5 DUP3 SUB PUSH1 0x40 DUP7 ADD MSTORE PUSH2 0xA8E DUP3 DUP3 PUSH2 0x9D2 JUMP JUMPDEST SWAP2 POP POP DUP1 SWAP2 POP POP SWAP3 SWAP2 POP POP JUMP JUMPDEST PUSH1 0x0 PUSH1 0x60 DUP3 ADD SWAP1 POP PUSH2 0xAB0 PUSH1 0x0 DUP4 ADD DUP7 PUSH2 0x9C3 JUMP JUMPDEST DUP2 DUP2 SUB PUSH1 0x20 DUP4 ADD MSTORE PUSH2 0xAC2 DUP2 DUP6 PUSH2 0xA0B JUMP JUMPDEST SWAP1 POP DUP2 DUP2 SUB PUSH1 0x40 DUP4 ADD MSTORE PUSH2 0xAD6 DUP2 DUP5 PUSH2 0xA0B JUMP JUMPDEST SWAP1 POP SWAP5 SWAP4 POP POP POP POP JUMP JUMPDEST PUSH1 0x0 PUSH1 0x20 DUP3 ADD SWAP1 POP DUP2 DUP2 SUB PUSH1 0x0 DUP4 ADD MSTORE PUSH2 0xAFA DUP2 DUP5 PUSH2 0xA44 JUMP JUMPDEST SWAP1 POP SWAP3 SWAP2 POP POP JUMP JUMPDEST PUSH1 0x0 PUSH2 0xB0C PUSH2 0xB1D JUMP JUMPDEST SWAP1 POP PUSH2 0xB18 DUP3 DUP3 PUSH2 0xC2B JUMP JUMPDEST SWAP2 SWAP1 POP JUMP JUMPDEST PUSH1 0x0 PUSH1 0x40 MLOAD SWAP1 POP SWAP1 JUMP JUMPDEST PUSH1 0x0 PUSH8 0xFFFFFFFFFFFFFFFF DUP3 GT ISZERO PUSH2 0xB42 JUMPI PUSH2 0xB41 PUSH2 0xC8B JUMP JUMPDEST JUMPDEST PUSH2 0xB4B DUP3 PUSH2 0xCCE JUMP JUMPDEST SWAP1 POP PUSH1 0x20 DUP2 ADD SWAP1 POP SWAP2 SWAP1 POP JUMP JUMPDEST PUSH1 0x0 DUP2 MLOAD SWAP1 POP SWAP2 SWAP1 POP JUMP JUMPDEST PUSH1 0x0 DUP3 DUP3 MSTORE PUSH1 0x20 DUP3 ADD SWAP1 POP SWAP3 SWAP2 POP POP JUMP JUMPDEST PUSH1 0x0 DUP3 DUP3 MSTORE PUSH1 0x20 DUP3 ADD SWAP1 POP SWAP3 SWAP2 POP POP JUMP JUMPDEST PUSH1 0x0 PUSH2 0xB90 DUP3 PUSH2 0xB97 JUMP JUMPDEST SWAP1 POP SWAP2 SWAP1 POP JUMP JUMPDEST PUSH1 0x0 PUSH20 0xFFFFFFFFFFFFFFFFFFFFFFFFFFFFFFFFFFFFFFFF DUP3 AND SWAP1 POP SWAP2 SWAP1 POP JUMP JUMPDEST DUP3 DUP2 DUP4 CALLDATACOPY PUSH1 0x0 DUP4 DUP4 ADD MSTORE POP POP POP JUMP JUMPDEST PUSH1 0x0 JUMPDEST DUP4 DUP2 LT ISZERO PUSH2 0xBE4 JUMPI DUP1 DUP3 ADD MLOAD DUP2 DUP5 ADD MSTORE PUSH1 0x20 DUP2 ADD SWAP1 POP PUSH2 0xBC9 JUMP JUMPDEST DUP4 DUP2 GT ISZERO PUSH2 0xBF3 JUMPI PUSH1 0x0 DUP5 DUP5 ADD MSTORE JUMPDEST POP POP POP POP JUMP JUMPDEST PUSH1 0x0 PUSH1 0x2 DUP3 DIV SWAP1 POP PUSH1 0x1 DUP3 AND DUP1 PUSH2 0xC11 JUMPI PUSH1 0x7F DUP3 AND SWAP2 POP JUMPDEST PUSH1 0x20 DUP3 LT DUP2 EQ ISZERO PUSH2 0xC25 JUMPI PUSH2 0xC24 PUSH2 0xC5C JUMP JUMPDEST JUMPDEST POP SWAP2 SWAP1 POP JUMP JUMPDEST PUSH2 0xC34 DUP3 PUSH2 0xCCE JUMP JUMPDEST DUP2 ADD DUP2 DUP2 LT PUSH8 0xFFFFFFFFFFFFFFFF DUP3 GT OR ISZERO PUSH2 0xC53 JUMPI PUSH2 0xC52 PUSH2 0xC8B JUMP JUMPDEST JUMPDEST DUP1 PUSH1 0x40 MSTORE POP POP POP JUMP JUMPDEST PUSH32 0x4E487B7100000000000000000000000000000000000000000000000000000000 PUSH1 0x0 MSTORE PUSH1 0x22 PUSH1 0x4 MSTORE PUSH1 0x24 PUSH1 0x0 REVERT JUMPDEST PUSH32 0x4E487B7100000000000000000000000000000000000000000000000000000000 PUSH1 0x0 MSTORE PUSH1 0x41 PUSH1 0x4 MSTORE PUSH1 0x24 PUSH1 0x0 REVERT JUMPDEST PUSH1 0x0 DUP1 REVERT JUMPDEST PUSH1 0x0 DUP1 REVERT JUMPDEST PUSH1 0x0 DUP1 REVERT JUMPDEST PUSH1 0x0 DUP1 REVERT JUMPDEST PUSH1 0x0 PUSH1 0x1F NOT PUSH1 0x1F DUP4 ADD AND SWAP1 POP SWAP2 SWAP1 POP JUMP JUMPDEST PUSH2 0xCE8 DUP2 PUSH2 0xB85 JUMP JUMPDEST DUP2 EQ PUSH2 0xCF3 JUMPI PUSH1 0x0 DUP1 REVERT JUMPDEST POP JUMP INVALID LOG2 PUSH5 0x6970667358 0x22 SLT KECCAK256 EQ 0x23 DUP5 LOG4 NUMBER 0xE 0xCB SELFBALANCE 0xE9 SWAP12 0xC2 XOR PUSH15 0xF9A6995C66D932D858F020AA992A81 CODESIZE COINBASE DUP15 SWAP5 PUSH5 0x736F6C6343 STOP ADDMOD SMOD STOP CALLER "
				},
				"gasEstimates": {
					"creation": {
						"codeDepositCost": "674400",
						"executionCost": "708",
						"totalCost": "675108"
					},
					"external": {
						"getDeviceInfoByAddr(address)": "infinite",
						"register(address,string)": "infinite",
						"setDeviceInfo(address,string,string)": "infinite",
						"setSubjInfo(address,string,string)": "infinite",
						"subjInfoMap(address)": "infinite"
					}
				},
				"methodIdentifiers": {
					"getDeviceInfoByAddr(address)": "de1e23b7",
					"register(address,string)": "32434a2e",
					"setDeviceInfo(address,string,string)": "6c477035",
					"setSubjInfo(address,string,string)": "31f4ea9c",
					"subjInfoMap(address)": "b9e0ad10"
				}
			},
			"userdoc": {
				"kind": "user",
				"methods": {},
				"version": 1
			}
		}
	}
}