{
	"contracts/AccessControl.sol": {
		"AccessControl": {
			"abi": [
				{
					"anonymous": false,
					"inputs": [
						{
							"indexed": false,
							"internalType": "address",
							"name": "from",
							"type": "address"
						},
						{
							"indexed": false,
							"internalType": "address",
							"name": "to",
							"type": "address"
						},
						{
							"indexed": false,
							"internalType": "string",
							"name": "action",
							"type": "string"
						},
						{
							"indexed": false,
							"internalType": "string",
							"name": "result",
							"type": "string"
						},
						{
							"indexed": false,
							"internalType": "uint256",
							"name": "accessTime",
							"type": "uint256"
						}
					],
					"name": "AccessControlRet",
					"type": "event"
				},
				{
					"inputs": [
						{
							"internalType": "address",
							"name": "_objectAddr",
							"type": "address"
						},
						{
							"internalType": "string",
							"name": "action",
							"type": "string"
						}
					],
					"name": "accessControl",
					"outputs": [
						{
							"internalType": "bool",
							"name": "res",
							"type": "bool"
						}
					],
					"stateMutability": "nonpayable",
					"type": "function"
				},
				{
					"inputs": [],
					"name": "getCurTime",
					"outputs": [
						{
							"internalType": "uint256",
							"name": "",
							"type": "uint256"
						}
					],
					"stateMutability": "view",
					"type": "function"
				},
				{
					"inputs": [
						{
							"internalType": "address",
							"name": "_MCAddr",
							"type": "address"
						},
						{
							"internalType": "address",
							"name": "_JCAddr",
							"type": "address"
						}
					],
					"name": "init",
					"outputs": [],
					"stateMutability": "nonpayable",
					"type": "function"
				},
				{
					"inputs": [
						{
							"internalType": "string",
							"name": "_action",
							"type": "string"
						}
					],
					"name": "isLegalAction",
					"outputs": [
						{
							"internalType": "bool",
							"name": "res",
							"type": "bool"
						}
					],
					"stateMutability": "view",
					"type": "function"
				}
			],
			"devdoc": {
				"kind": "dev",
				"methods": {},
				"version": 1
			},
			"evm": {
				"assembly": "    /* \"contracts/AccessControl.sol\":121:4166  contract AccessControl {\r... */\n  mstore(0x40, 0x80)\n  callvalue\n  dup1\n  iszero\n  tag_1\n  jumpi\n  0x00\n  dup1\n  revert\ntag_1:\n  pop\n  dataSize(sub_0)\n  dup1\n  dataOffset(sub_0)\n  0x00\n  codecopy\n  0x00\n  return\nstop\n\nsub_0: assembly {\n        /* \"contracts/AccessControl.sol\":121:4166  contract AccessControl {\r... */\n      mstore(0x40, 0x80)\n      callvalue\n      dup1\n      iszero\n      tag_1\n      jumpi\n      0x00\n      dup1\n      revert\n    tag_1:\n      pop\n      jumpi(tag_2, lt(calldatasize, 0x04))\n      shr(0xe0, calldataload(0x00))\n      dup1\n      0x32076e77\n      eq\n      tag_3\n      jumpi\n      dup1\n      0xa352ff64\n      eq\n      tag_4\n      jumpi\n      dup1\n      0xc0821da3\n      eq\n      tag_5\n      jumpi\n      dup1\n      0xf09a4016\n      eq\n      tag_6\n      jumpi\n    tag_2:\n      0x00\n      dup1\n      revert\n        /* \"contracts/AccessControl.sol\":1867:3778  function accessControl(address _objectAddr, string memory action) public returns (bool res) {\r... */\n    tag_3:\n      tag_7\n      0x04\n      dup1\n      calldatasize\n      sub\n      dup2\n      add\n      swap1\n      tag_8\n      swap2\n      swap1\n      tag_9\n      jump\t// in\n    tag_8:\n      tag_10\n      jump\t// in\n    tag_7:\n      mload(0x40)\n      tag_11\n      swap2\n      swap1\n      tag_12\n      jump\t// in\n    tag_11:\n      mload(0x40)\n      dup1\n      swap2\n      sub\n      swap1\n      return\n        /* \"contracts/AccessControl.sol\":3890:4017  function isLegalAction(string memory _action) public view returns(bool res) {\r... */\n    tag_4:\n      tag_13\n      0x04\n      dup1\n      calldatasize\n      sub\n      dup2\n      add\n      swap1\n      tag_14\n      swap2\n      swap1\n      tag_15\n      jump\t// in\n    tag_14:\n      tag_16\n      jump\t// in\n    tag_13:\n      mload(0x40)\n      tag_17\n      swap2\n      swap1\n      tag_12\n      jump\t// in\n    tag_17:\n      mload(0x40)\n      dup1\n      swap2\n      sub\n      swap1\n      return\n        /* \"contracts/AccessControl.sol\":3790:3882  function getCurTime() public view returns(uint256) {\r... */\n    tag_5:\n      tag_18\n      tag_19\n      jump\t// in\n    tag_18:\n      mload(0x40)\n      tag_20\n      swap2\n      swap1\n      tag_21\n      jump\t// in\n    tag_20:\n      mload(0x40)\n      dup1\n      swap2\n      sub\n      swap1\n      return\n        /* \"contracts/AccessControl.sol\":755:1204  function init(address _MCAddr, address _JCAddr) public {\r... */\n    tag_6:\n      tag_22\n      0x04\n      dup1\n      calldatasize\n      sub\n      dup2\n      add\n      swap1\n      tag_23\n      swap2\n      swap1\n      tag_24\n      jump\t// in\n    tag_23:\n      tag_25\n      jump\t// in\n    tag_22:\n      stop\n        /* \"contracts/AccessControl.sol\":1867:3778  function accessControl(address _objectAddr, string memory action) public returns (bool res) {\r... */\n    tag_10:\n        /* \"contracts/AccessControl.sol\":1949:1957  bool res */\n      0x00\n        /* \"contracts/AccessControl.sol\":2016:2038  checkRequesterStatus() */\n      tag_27\n        /* \"contracts/AccessControl.sol\":2016:2036  checkRequesterStatus */\n      tag_28\n        /* \"contracts/AccessControl.sol\":2016:2038  checkRequesterStatus() */\n      jump\t// in\n    tag_27:\n        /* \"contracts/AccessControl.sol\":2051:2063  uint curTime */\n      0x00\n        /* \"contracts/AccessControl.sol\":2066:2078  getCurTime() */\n      tag_29\n        /* \"contracts/AccessControl.sol\":2066:2076  getCurTime */\n      tag_19\n        /* \"contracts/AccessControl.sol\":2066:2078  getCurTime() */\n      jump\t// in\n    tag_29:\n        /* \"contracts/AccessControl.sol\":2051:2078  uint curTime = getCurTime() */\n      swap1\n      pop\n        /* \"contracts/AccessControl.sol\":2089:2103  bool isBlocked */\n      0x00\n        /* \"contracts/AccessControl.sol\":2114:2126  uint256 ToLB */\n      dup1\n        /* \"contracts/AccessControl.sol\":2157:2162  judge */\n      0x01\n      0x00\n      swap1\n      sload\n      swap1\n      0x0100\n      exp\n      swap1\n      div\n      0xffffffffffffffffffffffffffffffffffffffff\n      and\n        /* \"contracts/AccessControl.sol\":2157:2175  judge.getBLUByAddr */\n      0xffffffffffffffffffffffffffffffffffffffff\n      and\n      0x169c9de0\n        /* \"contracts/AccessControl.sol\":2176:2186  msg.sender */\n      caller\n        /* \"contracts/AccessControl.sol\":2157:2187  judge.getBLUByAddr(msg.sender) */\n      mload(0x40)\n      dup3\n      0xffffffff\n      and\n      0xe0\n      shl\n      dup2\n      mstore\n      0x04\n      add\n      tag_30\n      swap2\n      swap1\n      tag_31\n      jump\t// in\n    tag_30:\n      0x40\n      dup1\n      mload\n      dup1\n      dup4\n      sub\n      dup2\n      dup7\n      dup1\n      extcodesize\n      iszero\n      dup1\n      iszero\n      tag_32\n      jumpi\n      0x00\n      dup1\n      revert\n    tag_32:\n      pop\n      gas\n      staticcall\n      iszero\n      dup1\n      iszero\n      tag_34\n      jumpi\n      returndatasize\n      0x00\n      dup1\n      returndatacopy\n      revert(0x00, returndatasize)\n    tag_34:\n      pop\n      pop\n      pop\n      pop\n      mload(0x40)\n      returndatasize\n      not(0x1f)\n      0x1f\n      dup3\n      add\n      and\n      dup3\n      add\n      dup1\n      0x40\n      mstore\n      pop\n      dup2\n      add\n      swap1\n      tag_35\n      swap2\n      swap1\n      tag_36\n      jump\t// in\n    tag_35:\n        /* \"contracts/AccessControl.sol\":2137:2187  (ToLB, isBlocked) = judge.getBLUByAddr(msg.sender) */\n      dup1\n      swap4\n      pop\n      dup2\n      swap3\n      pop\n      pop\n      pop\n        /* \"contracts/AccessControl.sol\":2243:2252  isBlocked */\n      dup2\n        /* \"contracts/AccessControl.sol\":2243:2271  isBlocked && curTime <= ToLB */\n      dup1\n      iszero\n      tag_37\n      jumpi\n      pop\n        /* \"contracts/AccessControl.sol\":2267:2271  ToLB */\n      dup1\n        /* \"contracts/AccessControl.sol\":2256:2263  curTime */\n      dup4\n        /* \"contracts/AccessControl.sol\":2256:2271  curTime <= ToLB */\n      gt\n      iszero\n        /* \"contracts/AccessControl.sol\":2243:2271  isBlocked && curTime <= ToLB */\n    tag_37:\n        /* \"contracts/AccessControl.sol\":2240:2569  if(isBlocked && curTime <= ToLB) {\r... */\n      iszero\n      tag_38\n      jumpi\n        /* \"contracts/AccessControl.sol\":2293:2395  AccessControlRet(msg.sender, _objectAddr, action, \"Still blocked, unable to access!\", block.timestamp) */\n      0x365c8ddb6c298b196e110ce4bc267d2ed1319736bd9d74e983f0e9cf3202f697\n        /* \"contracts/AccessControl.sol\":2310:2320  msg.sender */\n      caller\n        /* \"contracts/AccessControl.sol\":2322:2333  _objectAddr */\n      dup8\n        /* \"contracts/AccessControl.sol\":2335:2341  action */\n      dup8\n        /* \"contracts/AccessControl.sol\":2379:2394  block.timestamp */\n      timestamp\n        /* \"contracts/AccessControl.sol\":2293:2395  AccessControlRet(msg.sender, _objectAddr, action, \"Still blocked, unable to access!\", block.timestamp) */\n      mload(0x40)\n      tag_39\n      swap5\n      swap4\n      swap3\n      swap2\n      swap1\n      tag_40\n      jump\t// in\n    tag_39:\n      mload(0x40)\n      dup1\n      swap2\n      sub\n      swap1\n      log1\n        /* \"contracts/AccessControl.sol\":2418:2423  false */\n      0x00\n        /* \"contracts/AccessControl.sol\":2412:2423  res = false */\n      swap4\n      pop\n        /* \"contracts/AccessControl.sol\":2438:2448  return res */\n      pop\n      pop\n      pop\n      jump(tag_26)\n        /* \"contracts/AccessControl.sol\":2240:2569  if(isBlocked && curTime <= ToLB) {\r... */\n    tag_38:\n        /* \"contracts/AccessControl.sol\":2528:2533  judge */\n      0x01\n      0x00\n      swap1\n      sload\n      swap1\n      0x0100\n      exp\n      swap1\n      div\n      0xffffffffffffffffffffffffffffffffffffffff\n      and\n        /* \"contracts/AccessControl.sol\":2528:2545  judge.unblockUser */\n      0xffffffffffffffffffffffffffffffffffffffff\n      and\n      0x39d319e5\n        /* \"contracts/AccessControl.sol\":2546:2556  msg.sender */\n      caller\n        /* \"contracts/AccessControl.sol\":2528:2557  judge.unblockUser(msg.sender) */\n      mload(0x40)\n      dup3\n      0xffffffff\n      and\n      0xe0\n      shl\n      dup2\n      mstore\n      0x04\n      add\n      tag_42\n      swap2\n      swap1\n      tag_31\n      jump\t// in\n    tag_42:\n      0x00\n      mload(0x40)\n      dup1\n      dup4\n      sub\n      dup2\n      0x00\n      dup8\n      dup1\n      extcodesize\n      iszero\n      dup1\n      iszero\n      tag_43\n      jumpi\n      0x00\n      dup1\n      revert\n    tag_43:\n      pop\n      gas\n      call\n      iszero\n      dup1\n      iszero\n      tag_45\n      jumpi\n      returndatasize\n      0x00\n      dup1\n      returndatacopy\n      revert(0x00, returndatasize)\n    tag_45:\n      pop\n      pop\n      pop\n      pop\n        /* \"contracts/AccessControl.sol\":2581:2600  string memory right */\n      0x00\n        /* \"contracts/AccessControl.sol\":2603:2610  manager */\n      dup1\n      0x00\n      swap1\n      sload\n      swap1\n      0x0100\n      exp\n      swap1\n      div\n      0xffffffffffffffffffffffffffffffffffffffff\n      and\n        /* \"contracts/AccessControl.sol\":2603:2619  manager.getRight */\n      0xffffffffffffffffffffffffffffffffffffffff\n      and\n      0x8749774f\n        /* \"contracts/AccessControl.sol\":2620:2630  msg.sender */\n      caller\n        /* \"contracts/AccessControl.sol\":2632:2643  _objectAddr */\n      dup10\n        /* \"contracts/AccessControl.sol\":2603:2644  manager.getRight(msg.sender, _objectAddr) */\n      mload(0x40)\n      dup4\n      0xffffffff\n      and\n      0xe0\n      shl\n      dup2\n      mstore\n      0x04\n      add\n      tag_46\n      swap3\n      swap2\n      swap1\n      tag_47\n      jump\t// in\n    tag_46:\n      0x00\n      mload(0x40)\n      dup1\n      dup4\n      sub\n      dup2\n      dup7\n      dup1\n      extcodesize\n      iszero\n      dup1\n      iszero\n      tag_48\n      jumpi\n      0x00\n      dup1\n      revert\n    tag_48:\n      pop\n      gas\n      staticcall\n      iszero\n      dup1\n      iszero\n      tag_50\n      jumpi\n      returndatasize\n      0x00\n      dup1\n      returndatacopy\n      revert(0x00, returndatasize)\n    tag_50:\n      pop\n      pop\n      pop\n      pop\n      mload(0x40)\n      returndatasize\n      0x00\n      dup3\n      returndatacopy\n      returndatasize\n      not(0x1f)\n      0x1f\n      dup3\n      add\n      and\n      dup3\n      add\n      dup1\n      0x40\n      mstore\n      pop\n      dup2\n      add\n      swap1\n      tag_51\n      swap2\n      swap1\n      tag_52\n      jump\t// in\n    tag_51:\n        /* \"contracts/AccessControl.sol\":2581:2644  string memory right = manager.getRight(msg.sender, _objectAddr) */\n      swap1\n      pop\n        /* \"contracts/AccessControl.sol\":2655:2674  bool _isLegalAction */\n      0x00\n        /* \"contracts/AccessControl.sol\":2677:2698  isLegalAction(action) */\n      tag_53\n        /* \"contracts/AccessControl.sol\":2691:2697  action */\n      dup8\n        /* \"contracts/AccessControl.sol\":2677:2690  isLegalAction */\n      tag_16\n        /* \"contracts/AccessControl.sol\":2677:2698  isLegalAction(action) */\n      jump\t// in\n    tag_53:\n        /* \"contracts/AccessControl.sol\":2655:2698  bool _isLegalAction = isLegalAction(action) */\n      swap1\n      pop\n        /* \"contracts/AccessControl.sol\":2712:2726  _isLegalAction */\n      dup1\n        /* \"contracts/AccessControl.sol\":2709:3227  if(_isLegalAction) {\r... */\n      iszero\n      tag_54\n      jumpi\n        /* \"contracts/AccessControl.sol\":2832:2842  rightTable */\n      0x02\n        /* \"contracts/AccessControl.sol\":2843:2848  right */\n      dup3\n        /* \"contracts/AccessControl.sol\":2832:2849  rightTable[right] */\n      mload(0x40)\n      tag_55\n      swap2\n      swap1\n      tag_56\n      jump\t// in\n    tag_55:\n      swap1\n      dup2\n      mstore\n      0x20\n      add\n      mload(0x40)\n      dup1\n      swap2\n      sub\n      swap1\n      keccak256\n      sload\n        /* \"contracts/AccessControl.sol\":2811:2821  rightTable */\n      0x02\n        /* \"contracts/AccessControl.sol\":2822:2828  action */\n      dup9\n        /* \"contracts/AccessControl.sol\":2811:2829  rightTable[action] */\n      mload(0x40)\n      tag_57\n      swap2\n      swap1\n      tag_56\n      jump\t// in\n    tag_57:\n      swap1\n      dup2\n      mstore\n      0x20\n      add\n      mload(0x40)\n      dup1\n      swap2\n      sub\n      swap1\n      keccak256\n      sload\n        /* \"contracts/AccessControl.sol\":2811:2849  rightTable[action] > rightTable[right] */\n      sgt\n        /* \"contracts/AccessControl.sol\":2808:3040  if(rightTable[action] > rightTable[right]) {\r... */\n      iszero\n      tag_58\n      jumpi\n        /* \"contracts/AccessControl.sol\":2875:2965  AccessControlRet(msg.sender, _objectAddr, action, \"Unauthorized access!\", block.timestamp) */\n      0x365c8ddb6c298b196e110ce4bc267d2ed1319736bd9d74e983f0e9cf3202f697\n        /* \"contracts/AccessControl.sol\":2892:2902  msg.sender */\n      caller\n        /* \"contracts/AccessControl.sol\":2904:2915  _objectAddr */\n      dup10\n        /* \"contracts/AccessControl.sol\":2917:2923  action */\n      dup10\n        /* \"contracts/AccessControl.sol\":2949:2964  block.timestamp */\n      timestamp\n        /* \"contracts/AccessControl.sol\":2875:2965  AccessControlRet(msg.sender, _objectAddr, action, \"Unauthorized access!\", block.timestamp) */\n      mload(0x40)\n      tag_59\n      swap5\n      swap4\n      swap3\n      swap2\n      swap1\n      tag_60\n      jump\t// in\n    tag_59:\n      mload(0x40)\n      dup1\n      swap2\n      sub\n      swap1\n      log1\n        /* \"contracts/AccessControl.sol\":2990:2995  false */\n      0x00\n        /* \"contracts/AccessControl.sol\":2984:2995  res = false */\n      swap6\n      pop\n        /* \"contracts/AccessControl.sol\":3014:3024  return res */\n      pop\n      pop\n      pop\n      pop\n      pop\n      jump(tag_26)\n        /* \"contracts/AccessControl.sol\":2808:3040  if(rightTable[action] > rightTable[right]) {\r... */\n    tag_58:\n        /* \"contracts/AccessControl.sol\":2709:3227  if(_isLegalAction) {\r... */\n      jump(tag_61)\n    tag_54:\n        /* \"contracts/AccessControl.sol\":3077:3162  AccessControlRet(msg.sender, _objectAddr, action, \"Illegal action!\", block.timestamp) */\n      0x365c8ddb6c298b196e110ce4bc267d2ed1319736bd9d74e983f0e9cf3202f697\n        /* \"contracts/AccessControl.sol\":3094:3104  msg.sender */\n      caller\n        /* \"contracts/AccessControl.sol\":3106:3117  _objectAddr */\n      dup10\n        /* \"contracts/AccessControl.sol\":3119:3125  action */\n      dup10\n        /* \"contracts/AccessControl.sol\":3146:3161  block.timestamp */\n      timestamp\n        /* \"contracts/AccessControl.sol\":3077:3162  AccessControlRet(msg.sender, _objectAddr, action, \"Illegal action!\", block.timestamp) */\n      mload(0x40)\n      tag_62\n      swap5\n      swap4\n      swap3\n      swap2\n      swap1\n      tag_63\n      jump\t// in\n    tag_62:\n      mload(0x40)\n      dup1\n      swap2\n      sub\n      swap1\n      log1\n        /* \"contracts/AccessControl.sol\":3183:3188  false */\n      0x00\n        /* \"contracts/AccessControl.sol\":3177:3188  res = false */\n      swap6\n      pop\n        /* \"contracts/AccessControl.sol\":3210:3215  false */\n      0x00\n        /* \"contracts/AccessControl.sol\":3203:3215  return false */\n      swap6\n      pop\n      pop\n      pop\n      pop\n      pop\n      pop\n      jump(tag_26)\n        /* \"contracts/AccessControl.sol\":2709:3227  if(_isLegalAction) {\r... */\n    tag_61:\n        /* \"contracts/AccessControl.sol\":3241:3263  string memory subjName */\n      0x60\n        /* \"contracts/AccessControl.sol\":3274:3294  string memory subjIP */\n      dup1\n        /* \"contracts/AccessControl.sol\":3326:3333  manager */\n      0x00\n      dup1\n      sload\n      swap1\n      0x0100\n      exp\n      swap1\n      div\n      0xffffffffffffffffffffffffffffffffffffffff\n      and\n        /* \"contracts/AccessControl.sol\":3326:3345  manager.getSubjInfo */\n      0xffffffffffffffffffffffffffffffffffffffff\n      and\n      0x9f764d16\n        /* \"contracts/AccessControl.sol\":3346:3356  msg.sender */\n      caller\n        /* \"contracts/AccessControl.sol\":3326:3357  manager.getSubjInfo(msg.sender) */\n      mload(0x40)\n      dup3\n      0xffffffff\n      and\n      0xe0\n      shl\n      dup2\n      mstore\n      0x04\n      add\n      tag_64\n      swap2\n      swap1\n      tag_31\n      jump\t// in\n    tag_64:\n      0x00\n      mload(0x40)\n      dup1\n      dup4\n      sub\n      dup2\n      dup7\n      dup1\n      extcodesize\n      iszero\n      dup1\n      iszero\n      tag_65\n      jumpi\n      0x00\n      dup1\n      revert\n    tag_65:\n      pop\n      gas\n      staticcall\n      iszero\n      dup1\n      iszero\n      tag_67\n      jumpi\n      returndatasize\n      0x00\n      dup1\n      returndatacopy\n      revert(0x00, returndatasize)\n    tag_67:\n      pop\n      pop\n      pop\n      pop\n      mload(0x40)\n      returndatasize\n      0x00\n      dup3\n      returndatacopy\n      returndatasize\n      not(0x1f)\n      0x1f\n      dup3\n      add\n      and\n      dup3\n      add\n      dup1\n      0x40\n      mstore\n      pop\n      dup2\n      add\n      swap1\n      tag_68\n      swap2\n      swap1\n      tag_69\n      jump\t// in\n    tag_68:\n        /* \"contracts/AccessControl.sol\":3305:3357  (subjName, subjIP) = manager.getSubjInfo(msg.sender) */\n      dup1\n      swap3\n      pop\n      dup2\n      swap4\n      pop\n      pop\n      pop\n        /* \"contracts/AccessControl.sol\":3402:3416  blackListIpMap */\n      0x03\n        /* \"contracts/AccessControl.sol\":3417:3423  subjIP */\n      dup2\n        /* \"contracts/AccessControl.sol\":3402:3424  blackListIpMap[subjIP] */\n      mload(0x40)\n      tag_70\n      swap2\n      swap1\n      tag_56\n      jump\t// in\n    tag_70:\n      swap1\n      dup2\n      mstore\n      0x20\n      add\n      mload(0x40)\n      dup1\n      swap2\n      sub\n      swap1\n      keccak256\n      0x00\n      swap1\n      sload\n      swap1\n      0x0100\n      exp\n      swap1\n      div\n      0xff\n      and\n        /* \"contracts/AccessControl.sol\":3399:3598  if(blackListIpMap[subjIP]) {\r... */\n      iszero\n      tag_71\n      jumpi\n        /* \"contracts/AccessControl.sol\":3446:3535  AccessControlRet(msg.sender, _objectAddr, action, \"Illegal IP address!\", block.timestamp) */\n      0x365c8ddb6c298b196e110ce4bc267d2ed1319736bd9d74e983f0e9cf3202f697\n        /* \"contracts/AccessControl.sol\":3463:3473  msg.sender */\n      caller\n        /* \"contracts/AccessControl.sol\":3475:3486  _objectAddr */\n      dup12\n        /* \"contracts/AccessControl.sol\":3488:3494  action */\n      dup12\n        /* \"contracts/AccessControl.sol\":3519:3534  block.timestamp */\n      timestamp\n        /* \"contracts/AccessControl.sol\":3446:3535  AccessControlRet(msg.sender, _objectAddr, action, \"Illegal IP address!\", block.timestamp) */\n      mload(0x40)\n      tag_72\n      swap5\n      swap4\n      swap3\n      swap2\n      swap1\n      tag_73\n      jump\t// in\n    tag_72:\n      mload(0x40)\n      dup1\n      swap2\n      sub\n      swap1\n      log1\n        /* \"contracts/AccessControl.sol\":3556:3561  false */\n      0x00\n        /* \"contracts/AccessControl.sol\":3550:3561  res = false */\n      swap8\n      pop\n        /* \"contracts/AccessControl.sol\":3576:3586  return res */\n      pop\n      pop\n      pop\n      pop\n      pop\n      pop\n      pop\n      jump(tag_26)\n        /* \"contracts/AccessControl.sol\":3399:3598  if(blackListIpMap[subjIP]) {\r... */\n    tag_71:\n        /* \"contracts/AccessControl.sol\":3646:3728  AccessControlRet(msg.sender, _objectAddr, action, \"Access pass!\", block.timestamp) */\n      0x365c8ddb6c298b196e110ce4bc267d2ed1319736bd9d74e983f0e9cf3202f697\n        /* \"contracts/AccessControl.sol\":3663:3673  msg.sender */\n      caller\n        /* \"contracts/AccessControl.sol\":3675:3686  _objectAddr */\n      dup12\n        /* \"contracts/AccessControl.sol\":3688:3694  action */\n      dup12\n        /* \"contracts/AccessControl.sol\":3712:3727  block.timestamp */\n      timestamp\n        /* \"contracts/AccessControl.sol\":3646:3728  AccessControlRet(msg.sender, _objectAddr, action, \"Access pass!\", block.timestamp) */\n      mload(0x40)\n      tag_74\n      swap5\n      swap4\n      swap3\n      swap2\n      swap1\n      tag_75\n      jump\t// in\n    tag_74:\n      mload(0x40)\n      dup1\n      swap2\n      sub\n      swap1\n      log1\n        /* \"contracts/AccessControl.sol\":3745:3749  true */\n      0x01\n        /* \"contracts/AccessControl.sol\":3739:3749  res = true */\n      swap8\n      pop\n        /* \"contracts/AccessControl.sol\":3760:3770  return res */\n      pop\n      pop\n      pop\n      pop\n      pop\n      pop\n      pop\n        /* \"contracts/AccessControl.sol\":1867:3778  function accessControl(address _objectAddr, string memory action) public returns (bool res) {\r... */\n    tag_26:\n      swap3\n      swap2\n      pop\n      pop\n      jump\t// out\n        /* \"contracts/AccessControl.sol\":3890:4017  function isLegalAction(string memory _action) public view returns(bool res) {\r... */\n    tag_16:\n        /* \"contracts/AccessControl.sol\":3956:3964  bool res */\n      0x00\n        /* \"contracts/AccessControl.sol\":4007:4008  0 */\n      dup1\n        /* \"contracts/AccessControl.sol\":3986:3996  rightTable */\n      0x02\n        /* \"contracts/AccessControl.sol\":3997:4004  _action */\n      dup4\n        /* \"contracts/AccessControl.sol\":3986:4005  rightTable[_action] */\n      mload(0x40)\n      tag_77\n      swap2\n      swap1\n      tag_56\n      jump\t// in\n    tag_77:\n      swap1\n      dup2\n      mstore\n      0x20\n      add\n      mload(0x40)\n      dup1\n      swap2\n      sub\n      swap1\n      keccak256\n      sload\n        /* \"contracts/AccessControl.sol\":3986:4008  rightTable[_action]==0 */\n      eq\n        /* \"contracts/AccessControl.sol\":3984:4009  !(rightTable[_action]==0) */\n      iszero\n        /* \"contracts/AccessControl.sol\":3977:4009  return !(rightTable[_action]==0) */\n      swap1\n      pop\n        /* \"contracts/AccessControl.sol\":3890:4017  function isLegalAction(string memory _action) public view returns(bool res) {\r... */\n      swap2\n      swap1\n      pop\n      jump\t// out\n        /* \"contracts/AccessControl.sol\":3790:3882  function getCurTime() public view returns(uint256) {\r... */\n    tag_19:\n        /* \"contracts/AccessControl.sol\":3832:3839  uint256 */\n      0x00\n        /* \"contracts/AccessControl.sol\":3859:3874  block.timestamp */\n      timestamp\n        /* \"contracts/AccessControl.sol\":3852:3874  return block.timestamp */\n      swap1\n      pop\n        /* \"contracts/AccessControl.sol\":3790:3882  function getCurTime() public view returns(uint256) {\r... */\n      swap1\n      jump\t// out\n        /* \"contracts/AccessControl.sol\":755:1204  function init(address _MCAddr, address _JCAddr) public {\r... */\n    tag_25:\n        /* \"contracts/AccessControl.sol\":842:849  _MCAddr */\n      dup2\n        /* \"contracts/AccessControl.sol\":821:828  manager */\n      0x00\n      dup1\n        /* \"contracts/AccessControl.sol\":821:850  manager = Management(_MCAddr) */\n      0x0100\n      exp\n      dup2\n      sload\n      dup2\n      0xffffffffffffffffffffffffffffffffffffffff\n      mul\n      not\n      and\n      swap1\n      dup4\n      0xffffffffffffffffffffffffffffffffffffffff\n      and\n      mul\n      or\n      swap1\n      sstore\n      pop\n        /* \"contracts/AccessControl.sol\":875:882  _JCAddr */\n      dup1\n        /* \"contracts/AccessControl.sol\":861:866  judge */\n      0x01\n      0x00\n        /* \"contracts/AccessControl.sol\":861:883  judge = Judge(_JCAddr) */\n      0x0100\n      exp\n      dup2\n      sload\n      dup2\n      0xffffffffffffffffffffffffffffffffffffffff\n      mul\n      not\n      and\n      swap1\n      dup4\n      0xffffffffffffffffffffffffffffffffffffffff\n      and\n      mul\n      or\n      swap1\n      sstore\n      pop\n        /* \"contracts/AccessControl.sol\":1016:1017  1 */\n      0x01\n        /* \"contracts/AccessControl.sol\":995:1005  rightTable */\n      0x02\n        /* \"contracts/AccessControl.sol\":995:1013  rightTable[\"read\"] */\n      mload(0x40)\n      tag_80\n      swap1\n      tag_81\n      jump\t// in\n    tag_80:\n      swap1\n      dup2\n      mstore\n      0x20\n      add\n      mload(0x40)\n      dup1\n      swap2\n      sub\n      swap1\n      keccak256\n        /* \"contracts/AccessControl.sol\":995:1017  rightTable[\"read\"] = 1 */\n      dup2\n      swap1\n      sstore\n      pop\n        /* \"contracts/AccessControl.sol\":1049:1050  2 */\n      0x02\n        /* \"contracts/AccessControl.sol\":1028:1038  rightTable */\n      dup1\n        /* \"contracts/AccessControl.sol\":1028:1046  rightTable[\"open\"] */\n      mload(0x40)\n      tag_82\n      swap1\n      tag_83\n      jump\t// in\n    tag_82:\n      swap1\n      dup2\n      mstore\n      0x20\n      add\n      mload(0x40)\n      dup1\n      swap2\n      sub\n      swap1\n      keccak256\n        /* \"contracts/AccessControl.sol\":1028:1050  rightTable[\"open\"] = 2 */\n      dup2\n      swap1\n      sstore\n      pop\n        /* \"contracts/AccessControl.sol\":1083:1084  2 */\n      0x02\n        /* \"contracts/AccessControl.sol\":1061:1071  rightTable */\n      dup1\n        /* \"contracts/AccessControl.sol\":1061:1080  rightTable[\"close\"] */\n      mload(0x40)\n      tag_84\n      swap1\n      tag_85\n      jump\t// in\n    tag_84:\n      swap1\n      dup2\n      mstore\n      0x20\n      add\n      mload(0x40)\n      dup1\n      swap2\n      sub\n      swap1\n      keccak256\n        /* \"contracts/AccessControl.sol\":1061:1084  rightTable[\"close\"] = 2 */\n      dup2\n      swap1\n      sstore\n      pop\n        /* \"contracts/AccessControl.sol\":1119:1120  3 */\n      0x03\n        /* \"contracts/AccessControl.sol\":1095:1105  rightTable */\n      0x02\n        /* \"contracts/AccessControl.sol\":1095:1116  rightTable[\"restart\"] */\n      mload(0x40)\n      tag_86\n      swap1\n      tag_87\n      jump\t// in\n    tag_86:\n      swap1\n      dup2\n      mstore\n      0x20\n      add\n      mload(0x40)\n      dup1\n      swap2\n      sub\n      swap1\n      keccak256\n        /* \"contracts/AccessControl.sol\":1095:1120  rightTable[\"restart\"] = 3 */\n      dup2\n      swap1\n      sstore\n      pop\n        /* \"contracts/AccessControl.sol\":1152:1153  3 */\n      0x03\n        /* \"contracts/AccessControl.sol\":1131:1141  rightTable */\n      0x02\n        /* \"contracts/AccessControl.sol\":1131:1149  rightTable[\"kill\"] */\n      mload(0x40)\n      tag_88\n      swap1\n      tag_89\n      jump\t// in\n    tag_88:\n      swap1\n      dup2\n      mstore\n      0x20\n      add\n      mload(0x40)\n      dup1\n      swap2\n      sub\n      swap1\n      keccak256\n        /* \"contracts/AccessControl.sol\":1131:1153  rightTable[\"kill\"] = 3 */\n      dup2\n      swap1\n      sstore\n      pop\n        /* \"contracts/AccessControl.sol\":1192:1196  true */\n      0x01\n        /* \"contracts/AccessControl.sol\":1164:1178  blackListIpMap */\n      0x03\n        /* \"contracts/AccessControl.sol\":1164:1189  blackListIpMap['2.2.2.2'] */\n      mload(0x40)\n      tag_90\n      swap1\n      tag_91\n      jump\t// in\n    tag_90:\n      swap1\n      dup2\n      mstore\n      0x20\n      add\n      mload(0x40)\n      dup1\n      swap2\n      sub\n      swap1\n      keccak256\n      0x00\n        /* \"contracts/AccessControl.sol\":1164:1196  blackListIpMap['2.2.2.2'] = true */\n      0x0100\n      exp\n      dup2\n      sload\n      dup2\n      0xff\n      mul\n      not\n      and\n      swap1\n      dup4\n      iszero\n      iszero\n      mul\n      or\n      swap1\n      sstore\n      pop\n        /* \"contracts/AccessControl.sol\":755:1204  function init(address _MCAddr, address _JCAddr) public {\r... */\n      pop\n      pop\n      jump\t// out\n        /* \"contracts/AccessControl.sol\":1286:1821  function checkRequesterStatus() private {\r... */\n    tag_28:\n        /* \"contracts/AccessControl.sol\":1378:1382  true */\n      0x01\n        /* \"contracts/AccessControl.sol\":1340:1382  requestMap[msg.sender].isRequested == true */\n      iszero\n      iszero\n        /* \"contracts/AccessControl.sol\":1340:1350  requestMap */\n      0x04\n        /* \"contracts/AccessControl.sol\":1340:1362  requestMap[msg.sender] */\n      0x00\n        /* \"contracts/AccessControl.sol\":1351:1361  msg.sender */\n      caller\n        /* \"contracts/AccessControl.sol\":1340:1362  requestMap[msg.sender] */\n      0xffffffffffffffffffffffffffffffffffffffff\n      and\n      0xffffffffffffffffffffffffffffffffffffffff\n      and\n      dup2\n      mstore\n      0x20\n      add\n      swap1\n      dup2\n      mstore\n      0x20\n      add\n      0x00\n      keccak256\n        /* \"contracts/AccessControl.sol\":1340:1374  requestMap[msg.sender].isRequested */\n      0x00\n      add\n      0x00\n      swap1\n      sload\n      swap1\n      0x0100\n      exp\n      swap1\n      div\n      0xff\n      and\n        /* \"contracts/AccessControl.sol\":1340:1382  requestMap[msg.sender].isRequested == true */\n      iszero\n      iszero\n      eq\n        /* \"contracts/AccessControl.sol\":1337:1814  if(requestMap[msg.sender].isRequested == true) {\r... */\n      iszero\n      tag_93\n      jumpi\n        /* \"contracts/AccessControl.sol\":1399:1414  uint256 timeGap */\n      0x00\n        /* \"contracts/AccessControl.sol\":1435:1445  requestMap */\n      0x04\n        /* \"contracts/AccessControl.sol\":1435:1457  requestMap[msg.sender] */\n      0x00\n        /* \"contracts/AccessControl.sol\":1446:1456  msg.sender */\n      caller\n        /* \"contracts/AccessControl.sol\":1435:1457  requestMap[msg.sender] */\n      0xffffffffffffffffffffffffffffffffffffffff\n      and\n      0xffffffffffffffffffffffffffffffffffffffff\n      and\n      dup2\n      mstore\n      0x20\n      add\n      swap1\n      dup2\n      mstore\n      0x20\n      add\n      0x00\n      keccak256\n        /* \"contracts/AccessControl.sol\":1435:1462  requestMap[msg.sender].ToLR */\n      0x01\n      add\n      sload\n        /* \"contracts/AccessControl.sol\":1417:1432  block.timestamp */\n      timestamp\n        /* \"contracts/AccessControl.sol\":1417:1462  block.timestamp - requestMap[msg.sender].ToLR */\n      tag_94\n      swap2\n      swap1\n      tag_95\n      jump\t// in\n    tag_94:\n        /* \"contracts/AccessControl.sol\":1399:1462  uint256 timeGap = block.timestamp - requestMap[msg.sender].ToLR */\n      swap1\n      pop\n        /* \"contracts/AccessControl.sol\":1535:1537  10 */\n      0x0a\n        /* \"contracts/AccessControl.sol\":1524:1531  timeGap */\n      dup2\n        /* \"contracts/AccessControl.sol\":1524:1537  timeGap <= 10 */\n      gt\n        /* \"contracts/AccessControl.sol\":1521:1669  if(timeGap <= 10) {\r... */\n      tag_96\n      jumpi\n        /* \"contracts/AccessControl.sol\":1623:1628  judge */\n      0x01\n      0x00\n      swap1\n      sload\n      swap1\n      0x0100\n      exp\n      swap1\n      div\n      0xffffffffffffffffffffffffffffffffffffffff\n      and\n        /* \"contracts/AccessControl.sol\":1623:1641  judge.setBlackList */\n      0xffffffffffffffffffffffffffffffffffffffff\n      and\n      0x72700241\n        /* \"contracts/AccessControl.sol\":1642:1652  msg.sender */\n      caller\n        /* \"contracts/AccessControl.sol\":1623:1653  judge.setBlackList(msg.sender) */\n      mload(0x40)\n      dup3\n      0xffffffff\n      and\n      0xe0\n      shl\n      dup2\n      mstore\n      0x04\n      add\n      tag_97\n      swap2\n      swap1\n      tag_31\n      jump\t// in\n    tag_97:\n      0x00\n      mload(0x40)\n      dup1\n      dup4\n      sub\n      dup2\n      0x00\n      dup8\n      dup1\n      extcodesize\n      iszero\n      dup1\n      iszero\n      tag_98\n      jumpi\n      0x00\n      dup1\n      revert\n    tag_98:\n      pop\n      gas\n      call\n      iszero\n      dup1\n      iszero\n      tag_100\n      jumpi\n      returndatasize\n      0x00\n      dup1\n      returndatacopy\n      revert(0x00, returndatasize)\n    tag_100:\n      pop\n      pop\n      pop\n      pop\n        /* \"contracts/AccessControl.sol\":1521:1669  if(timeGap <= 10) {\r... */\n    tag_96:\n        /* \"contracts/AccessControl.sol\":1384:1680  {\r... */\n      pop\n        /* \"contracts/AccessControl.sol\":1337:1814  if(requestMap[msg.sender].isRequested == true) {\r... */\n      jump(tag_101)\n    tag_93:\n        /* \"contracts/AccessControl.sol\":1738:1742  true */\n      0x01\n        /* \"contracts/AccessControl.sol\":1701:1711  requestMap */\n      0x04\n        /* \"contracts/AccessControl.sol\":1701:1723  requestMap[msg.sender] */\n      0x00\n        /* \"contracts/AccessControl.sol\":1712:1722  msg.sender */\n      caller\n        /* \"contracts/AccessControl.sol\":1701:1723  requestMap[msg.sender] */\n      0xffffffffffffffffffffffffffffffffffffffff\n      and\n      0xffffffffffffffffffffffffffffffffffffffff\n      and\n      dup2\n      mstore\n      0x20\n      add\n      swap1\n      dup2\n      mstore\n      0x20\n      add\n      0x00\n      keccak256\n        /* \"contracts/AccessControl.sol\":1701:1735  requestMap[msg.sender].isRequested */\n      0x00\n      add\n      0x00\n        /* \"contracts/AccessControl.sol\":1701:1742  requestMap[msg.sender].isRequested = true */\n      0x0100\n      exp\n      dup2\n      sload\n      dup2\n      0xff\n      mul\n      not\n      and\n      swap1\n      dup4\n      iszero\n      iszero\n      mul\n      or\n      swap1\n      sstore\n      pop\n        /* \"contracts/AccessControl.sol\":1787:1802  block.timestamp */\n      timestamp\n        /* \"contracts/AccessControl.sol\":1757:1767  requestMap */\n      0x04\n        /* \"contracts/AccessControl.sol\":1757:1779  requestMap[msg.sender] */\n      0x00\n        /* \"contracts/AccessControl.sol\":1768:1778  msg.sender */\n      caller\n        /* \"contracts/AccessControl.sol\":1757:1779  requestMap[msg.sender] */\n      0xffffffffffffffffffffffffffffffffffffffff\n      and\n      0xffffffffffffffffffffffffffffffffffffffff\n      and\n      dup2\n      mstore\n      0x20\n      add\n      swap1\n      dup2\n      mstore\n      0x20\n      add\n      0x00\n      keccak256\n        /* \"contracts/AccessControl.sol\":1757:1784  requestMap[msg.sender].ToLR */\n      0x01\n      add\n        /* \"contracts/AccessControl.sol\":1757:1802  requestMap[msg.sender].ToLR = block.timestamp */\n      dup2\n      swap1\n      sstore\n      pop\n        /* \"contracts/AccessControl.sol\":1337:1814  if(requestMap[msg.sender].isRequested == true) {\r... */\n    tag_101:\n        /* \"contracts/AccessControl.sol\":1286:1821  function checkRequesterStatus() private {\r... */\n      jump\t// out\n        /* \"#utility.yul\":7:419   */\n    tag_103:\n        /* \"#utility.yul\":85:90   */\n      0x00\n        /* \"#utility.yul\":110:176   */\n      tag_105\n        /* \"#utility.yul\":126:175   */\n      tag_106\n        /* \"#utility.yul\":168:174   */\n      dup5\n        /* \"#utility.yul\":126:175   */\n      tag_107\n      jump\t// in\n    tag_106:\n        /* \"#utility.yul\":110:176   */\n      tag_108\n      jump\t// in\n    tag_105:\n        /* \"#utility.yul\":101:176   */\n      swap1\n      pop\n        /* \"#utility.yul\":199:205   */\n      dup3\n        /* \"#utility.yul\":192:197   */\n      dup2\n        /* \"#utility.yul\":185:206   */\n      mstore\n        /* \"#utility.yul\":237:241   */\n      0x20\n        /* \"#utility.yul\":230:235   */\n      dup2\n        /* \"#utility.yul\":226:242   */\n      add\n        /* \"#utility.yul\":275:278   */\n      dup5\n        /* \"#utility.yul\":266:272   */\n      dup5\n        /* \"#utility.yul\":261:264   */\n      dup5\n        /* \"#utility.yul\":257:273   */\n      add\n        /* \"#utility.yul\":254:279   */\n      gt\n        /* \"#utility.yul\":251:363   */\n      iszero\n      tag_109\n      jumpi\n        /* \"#utility.yul\":282:361   */\n      tag_110\n      tag_111\n      jump\t// in\n    tag_110:\n        /* \"#utility.yul\":251:363   */\n    tag_109:\n        /* \"#utility.yul\":372:413   */\n      tag_112\n        /* \"#utility.yul\":406:412   */\n      dup5\n        /* \"#utility.yul\":401:404   */\n      dup3\n        /* \"#utility.yul\":396:399   */\n      dup6\n        /* \"#utility.yul\":372:413   */\n      tag_113\n      jump\t// in\n    tag_112:\n        /* \"#utility.yul\":91:419   */\n      pop\n        /* \"#utility.yul\":7:419   */\n      swap4\n      swap3\n      pop\n      pop\n      pop\n      jump\t// out\n        /* \"#utility.yul\":425:846   */\n    tag_114:\n        /* \"#utility.yul\":514:519   */\n      0x00\n        /* \"#utility.yul\":539:605   */\n      tag_116\n        /* \"#utility.yul\":555:604   */\n      tag_117\n        /* \"#utility.yul\":597:603   */\n      dup5\n        /* \"#utility.yul\":555:604   */\n      tag_107\n      jump\t// in\n    tag_117:\n        /* \"#utility.yul\":539:605   */\n      tag_108\n      jump\t// in\n    tag_116:\n        /* \"#utility.yul\":530:605   */\n      swap1\n      pop\n        /* \"#utility.yul\":628:634   */\n      dup3\n        /* \"#utility.yul\":621:626   */\n      dup2\n        /* \"#utility.yul\":614:635   */\n      mstore\n        /* \"#utility.yul\":666:670   */\n      0x20\n        /* \"#utility.yul\":659:664   */\n      dup2\n        /* \"#utility.yul\":655:671   */\n      add\n        /* \"#utility.yul\":704:707   */\n      dup5\n        /* \"#utility.yul\":695:701   */\n      dup5\n        /* \"#utility.yul\":690:693   */\n      dup5\n        /* \"#utility.yul\":686:702   */\n      add\n        /* \"#utility.yul\":683:708   */\n      gt\n        /* \"#utility.yul\":680:792   */\n      iszero\n      tag_118\n      jumpi\n        /* \"#utility.yul\":711:790   */\n      tag_119\n      tag_111\n      jump\t// in\n    tag_119:\n        /* \"#utility.yul\":680:792   */\n    tag_118:\n        /* \"#utility.yul\":801:840   */\n      tag_120\n        /* \"#utility.yul\":833:839   */\n      dup5\n        /* \"#utility.yul\":828:831   */\n      dup3\n        /* \"#utility.yul\":823:826   */\n      dup6\n        /* \"#utility.yul\":801:840   */\n      tag_121\n      jump\t// in\n    tag_120:\n        /* \"#utility.yul\":520:846   */\n      pop\n        /* \"#utility.yul\":425:846   */\n      swap4\n      swap3\n      pop\n      pop\n      pop\n      jump\t// out\n        /* \"#utility.yul\":852:991   */\n    tag_122:\n        /* \"#utility.yul\":898:903   */\n      0x00\n        /* \"#utility.yul\":936:942   */\n      dup2\n        /* \"#utility.yul\":923:943   */\n      calldataload\n        /* \"#utility.yul\":914:943   */\n      swap1\n      pop\n        /* \"#utility.yul\":952:985   */\n      tag_124\n        /* \"#utility.yul\":979:984   */\n      dup2\n        /* \"#utility.yul\":952:985   */\n      tag_125\n      jump\t// in\n    tag_124:\n        /* \"#utility.yul\":852:991   */\n      swap3\n      swap2\n      pop\n      pop\n      jump\t// out\n        /* \"#utility.yul\":997:1134   */\n    tag_126:\n        /* \"#utility.yul\":1051:1056   */\n      0x00\n        /* \"#utility.yul\":1082:1088   */\n      dup2\n        /* \"#utility.yul\":1076:1089   */\n      mload\n        /* \"#utility.yul\":1067:1089   */\n      swap1\n      pop\n        /* \"#utility.yul\":1098:1128   */\n      tag_128\n        /* \"#utility.yul\":1122:1127   */\n      dup2\n        /* \"#utility.yul\":1098:1128   */\n      tag_129\n      jump\t// in\n    tag_128:\n        /* \"#utility.yul\":997:1134   */\n      swap3\n      swap2\n      pop\n      pop\n      jump\t// out\n        /* \"#utility.yul\":1154:1494   */\n    tag_130:\n        /* \"#utility.yul\":1210:1215   */\n      0x00\n        /* \"#utility.yul\":1259:1262   */\n      dup3\n        /* \"#utility.yul\":1252:1256   */\n      0x1f\n        /* \"#utility.yul\":1244:1250   */\n      dup4\n        /* \"#utility.yul\":1240:1257   */\n      add\n        /* \"#utility.yul\":1236:1263   */\n      slt\n        /* \"#utility.yul\":1226:1348   */\n      tag_132\n      jumpi\n        /* \"#utility.yul\":1267:1346   */\n      tag_133\n      tag_134\n      jump\t// in\n    tag_133:\n        /* \"#utility.yul\":1226:1348   */\n    tag_132:\n        /* \"#utility.yul\":1384:1390   */\n      dup2\n        /* \"#utility.yul\":1371:1391   */\n      calldataload\n        /* \"#utility.yul\":1409:1488   */\n      tag_135\n        /* \"#utility.yul\":1484:1487   */\n      dup5\n        /* \"#utility.yul\":1476:1482   */\n      dup3\n        /* \"#utility.yul\":1469:1473   */\n      0x20\n        /* \"#utility.yul\":1461:1467   */\n      dup7\n        /* \"#utility.yul\":1457:1474   */\n      add\n        /* \"#utility.yul\":1409:1488   */\n      tag_103\n      jump\t// in\n    tag_135:\n        /* \"#utility.yul\":1400:1488   */\n      swap2\n      pop\n        /* \"#utility.yul\":1216:1494   */\n      pop\n        /* \"#utility.yul\":1154:1494   */\n      swap3\n      swap2\n      pop\n      pop\n      jump\t// out\n        /* \"#utility.yul\":1514:1869   */\n    tag_136:\n        /* \"#utility.yul\":1581:1586   */\n      0x00\n        /* \"#utility.yul\":1630:1633   */\n      dup3\n        /* \"#utility.yul\":1623:1627   */\n      0x1f\n        /* \"#utility.yul\":1615:1621   */\n      dup4\n        /* \"#utility.yul\":1611:1628   */\n      add\n        /* \"#utility.yul\":1607:1634   */\n      slt\n        /* \"#utility.yul\":1597:1719   */\n      tag_138\n      jumpi\n        /* \"#utility.yul\":1638:1717   */\n      tag_139\n      tag_134\n      jump\t// in\n    tag_139:\n        /* \"#utility.yul\":1597:1719   */\n    tag_138:\n        /* \"#utility.yul\":1748:1754   */\n      dup2\n        /* \"#utility.yul\":1742:1755   */\n      mload\n        /* \"#utility.yul\":1773:1863   */\n      tag_140\n        /* \"#utility.yul\":1859:1862   */\n      dup5\n        /* \"#utility.yul\":1851:1857   */\n      dup3\n        /* \"#utility.yul\":1844:1848   */\n      0x20\n        /* \"#utility.yul\":1836:1842   */\n      dup7\n        /* \"#utility.yul\":1832:1849   */\n      add\n        /* \"#utility.yul\":1773:1863   */\n      tag_114\n      jump\t// in\n    tag_140:\n        /* \"#utility.yul\":1764:1863   */\n      swap2\n      pop\n        /* \"#utility.yul\":1587:1869   */\n      pop\n        /* \"#utility.yul\":1514:1869   */\n      swap3\n      swap2\n      pop\n      pop\n      jump\t// out\n        /* \"#utility.yul\":1875:2018   */\n    tag_141:\n        /* \"#utility.yul\":1932:1937   */\n      0x00\n        /* \"#utility.yul\":1963:1969   */\n      dup2\n        /* \"#utility.yul\":1957:1970   */\n      mload\n        /* \"#utility.yul\":1948:1970   */\n      swap1\n      pop\n        /* \"#utility.yul\":1979:2012   */\n      tag_143\n        /* \"#utility.yul\":2006:2011   */\n      dup2\n        /* \"#utility.yul\":1979:2012   */\n      tag_144\n      jump\t// in\n    tag_143:\n        /* \"#utility.yul\":1875:2018   */\n      swap3\n      swap2\n      pop\n      pop\n      jump\t// out\n        /* \"#utility.yul\":2024:2498   */\n    tag_24:\n        /* \"#utility.yul\":2092:2098   */\n      0x00\n        /* \"#utility.yul\":2100:2106   */\n      dup1\n        /* \"#utility.yul\":2149:2151   */\n      0x40\n        /* \"#utility.yul\":2137:2146   */\n      dup4\n        /* \"#utility.yul\":2128:2135   */\n      dup6\n        /* \"#utility.yul\":2124:2147   */\n      sub\n        /* \"#utility.yul\":2120:2152   */\n      slt\n        /* \"#utility.yul\":2117:2236   */\n      iszero\n      tag_146\n      jumpi\n        /* \"#utility.yul\":2155:2234   */\n      tag_147\n      tag_148\n      jump\t// in\n    tag_147:\n        /* \"#utility.yul\":2117:2236   */\n    tag_146:\n        /* \"#utility.yul\":2275:2276   */\n      0x00\n        /* \"#utility.yul\":2300:2353   */\n      tag_149\n        /* \"#utility.yul\":2345:2352   */\n      dup6\n        /* \"#utility.yul\":2336:2342   */\n      dup3\n        /* \"#utility.yul\":2325:2334   */\n      dup7\n        /* \"#utility.yul\":2321:2343   */\n      add\n        /* \"#utility.yul\":2300:2353   */\n      tag_122\n      jump\t// in\n    tag_149:\n        /* \"#utility.yul\":2290:2353   */\n      swap3\n      pop\n        /* \"#utility.yul\":2246:2363   */\n      pop\n        /* \"#utility.yul\":2402:2404   */\n      0x20\n        /* \"#utility.yul\":2428:2481   */\n      tag_150\n        /* \"#utility.yul\":2473:2480   */\n      dup6\n        /* \"#utility.yul\":2464:2470   */\n      dup3\n        /* \"#utility.yul\":2453:2462   */\n      dup7\n        /* \"#utility.yul\":2449:2471   */\n      add\n        /* \"#utility.yul\":2428:2481   */\n      tag_122\n      jump\t// in\n    tag_150:\n        /* \"#utility.yul\":2418:2481   */\n      swap2\n      pop\n        /* \"#utility.yul\":2373:2491   */\n      pop\n        /* \"#utility.yul\":2024:2498   */\n      swap3\n      pop\n      swap3\n      swap1\n      pop\n      jump\t// out\n        /* \"#utility.yul\":2504:3158   */\n    tag_9:\n        /* \"#utility.yul\":2582:2588   */\n      0x00\n        /* \"#utility.yul\":2590:2596   */\n      dup1\n        /* \"#utility.yul\":2639:2641   */\n      0x40\n        /* \"#utility.yul\":2627:2636   */\n      dup4\n        /* \"#utility.yul\":2618:2625   */\n      dup6\n        /* \"#utility.yul\":2614:2637   */\n      sub\n        /* \"#utility.yul\":2610:2642   */\n      slt\n        /* \"#utility.yul\":2607:2726   */\n      iszero\n      tag_152\n      jumpi\n        /* \"#utility.yul\":2645:2724   */\n      tag_153\n      tag_148\n      jump\t// in\n    tag_153:\n        /* \"#utility.yul\":2607:2726   */\n    tag_152:\n        /* \"#utility.yul\":2765:2766   */\n      0x00\n        /* \"#utility.yul\":2790:2843   */\n      tag_154\n        /* \"#utility.yul\":2835:2842   */\n      dup6\n        /* \"#utility.yul\":2826:2832   */\n      dup3\n        /* \"#utility.yul\":2815:2824   */\n      dup7\n        /* \"#utility.yul\":2811:2833   */\n      add\n        /* \"#utility.yul\":2790:2843   */\n      tag_122\n      jump\t// in\n    tag_154:\n        /* \"#utility.yul\":2780:2843   */\n      swap3\n      pop\n        /* \"#utility.yul\":2736:2853   */\n      pop\n        /* \"#utility.yul\":2920:2922   */\n      0x20\n        /* \"#utility.yul\":2909:2918   */\n      dup4\n        /* \"#utility.yul\":2905:2923   */\n      add\n        /* \"#utility.yul\":2892:2924   */\n      calldataload\n        /* \"#utility.yul\":2951:2969   */\n      0xffffffffffffffff\n        /* \"#utility.yul\":2943:2949   */\n      dup2\n        /* \"#utility.yul\":2940:2970   */\n      gt\n        /* \"#utility.yul\":2937:3054   */\n      iszero\n      tag_155\n      jumpi\n        /* \"#utility.yul\":2973:3052   */\n      tag_156\n      tag_157\n      jump\t// in\n    tag_156:\n        /* \"#utility.yul\":2937:3054   */\n    tag_155:\n        /* \"#utility.yul\":3078:3141   */\n      tag_158\n        /* \"#utility.yul\":3133:3140   */\n      dup6\n        /* \"#utility.yul\":3124:3130   */\n      dup3\n        /* \"#utility.yul\":3113:3122   */\n      dup7\n        /* \"#utility.yul\":3109:3131   */\n      add\n        /* \"#utility.yul\":3078:3141   */\n      tag_130\n      jump\t// in\n    tag_158:\n        /* \"#utility.yul\":3068:3141   */\n      swap2\n      pop\n        /* \"#utility.yul\":2863:3151   */\n      pop\n        /* \"#utility.yul\":2504:3158   */\n      swap3\n      pop\n      swap3\n      swap1\n      pop\n      jump\t// out\n        /* \"#utility.yul\":3164:3673   */\n    tag_15:\n        /* \"#utility.yul\":3233:3239   */\n      0x00\n        /* \"#utility.yul\":3282:3284   */\n      0x20\n        /* \"#utility.yul\":3270:3279   */\n      dup3\n        /* \"#utility.yul\":3261:3268   */\n      dup5\n        /* \"#utility.yul\":3257:3280   */\n      sub\n        /* \"#utility.yul\":3253:3285   */\n      slt\n        /* \"#utility.yul\":3250:3369   */\n      iszero\n      tag_160\n      jumpi\n        /* \"#utility.yul\":3288:3367   */\n      tag_161\n      tag_148\n      jump\t// in\n    tag_161:\n        /* \"#utility.yul\":3250:3369   */\n    tag_160:\n        /* \"#utility.yul\":3436:3437   */\n      0x00\n        /* \"#utility.yul\":3425:3434   */\n      dup3\n        /* \"#utility.yul\":3421:3438   */\n      add\n        /* \"#utility.yul\":3408:3439   */\n      calldataload\n        /* \"#utility.yul\":3466:3484   */\n      0xffffffffffffffff\n        /* \"#utility.yul\":3458:3464   */\n      dup2\n        /* \"#utility.yul\":3455:3485   */\n      gt\n        /* \"#utility.yul\":3452:3569   */\n      iszero\n      tag_162\n      jumpi\n        /* \"#utility.yul\":3488:3567   */\n      tag_163\n      tag_157\n      jump\t// in\n    tag_163:\n        /* \"#utility.yul\":3452:3569   */\n    tag_162:\n        /* \"#utility.yul\":3593:3656   */\n      tag_164\n        /* \"#utility.yul\":3648:3655   */\n      dup5\n        /* \"#utility.yul\":3639:3645   */\n      dup3\n        /* \"#utility.yul\":3628:3637   */\n      dup6\n        /* \"#utility.yul\":3624:3646   */\n      add\n        /* \"#utility.yul\":3593:3656   */\n      tag_130\n      jump\t// in\n    tag_164:\n        /* \"#utility.yul\":3583:3656   */\n      swap2\n      pop\n        /* \"#utility.yul\":3379:3666   */\n      pop\n        /* \"#utility.yul\":3164:3673   */\n      swap3\n      swap2\n      pop\n      pop\n      jump\t// out\n        /* \"#utility.yul\":3679:4203   */\n    tag_52:\n        /* \"#utility.yul\":3759:3765   */\n      0x00\n        /* \"#utility.yul\":3808:3810   */\n      0x20\n        /* \"#utility.yul\":3796:3805   */\n      dup3\n        /* \"#utility.yul\":3787:3794   */\n      dup5\n        /* \"#utility.yul\":3783:3806   */\n      sub\n        /* \"#utility.yul\":3779:3811   */\n      slt\n        /* \"#utility.yul\":3776:3895   */\n      iszero\n      tag_166\n      jumpi\n        /* \"#utility.yul\":3814:3893   */\n      tag_167\n      tag_148\n      jump\t// in\n    tag_167:\n        /* \"#utility.yul\":3776:3895   */\n    tag_166:\n        /* \"#utility.yul\":3955:3956   */\n      0x00\n        /* \"#utility.yul\":3944:3953   */\n      dup3\n        /* \"#utility.yul\":3940:3957   */\n      add\n        /* \"#utility.yul\":3934:3958   */\n      mload\n        /* \"#utility.yul\":3985:4003   */\n      0xffffffffffffffff\n        /* \"#utility.yul\":3977:3983   */\n      dup2\n        /* \"#utility.yul\":3974:4004   */\n      gt\n        /* \"#utility.yul\":3971:4088   */\n      iszero\n      tag_168\n      jumpi\n        /* \"#utility.yul\":4007:4086   */\n      tag_169\n      tag_157\n      jump\t// in\n    tag_169:\n        /* \"#utility.yul\":3971:4088   */\n    tag_168:\n        /* \"#utility.yul\":4112:4186   */\n      tag_170\n        /* \"#utility.yul\":4178:4185   */\n      dup5\n        /* \"#utility.yul\":4169:4175   */\n      dup3\n        /* \"#utility.yul\":4158:4167   */\n      dup6\n        /* \"#utility.yul\":4154:4176   */\n      add\n        /* \"#utility.yul\":4112:4186   */\n      tag_136\n      jump\t// in\n    tag_170:\n        /* \"#utility.yul\":4102:4186   */\n      swap2\n      pop\n        /* \"#utility.yul\":3905:4196   */\n      pop\n        /* \"#utility.yul\":3679:4203   */\n      swap3\n      swap2\n      pop\n      pop\n      jump\t// out\n        /* \"#utility.yul\":4209:5062   */\n    tag_69:\n        /* \"#utility.yul\":4308:4314   */\n      0x00\n        /* \"#utility.yul\":4316:4322   */\n      dup1\n        /* \"#utility.yul\":4365:4367   */\n      0x40\n        /* \"#utility.yul\":4353:4362   */\n      dup4\n        /* \"#utility.yul\":4344:4351   */\n      dup6\n        /* \"#utility.yul\":4340:4363   */\n      sub\n        /* \"#utility.yul\":4336:4368   */\n      slt\n        /* \"#utility.yul\":4333:4452   */\n      iszero\n      tag_172\n      jumpi\n        /* \"#utility.yul\":4371:4450   */\n      tag_173\n      tag_148\n      jump\t// in\n    tag_173:\n        /* \"#utility.yul\":4333:4452   */\n    tag_172:\n        /* \"#utility.yul\":4512:4513   */\n      0x00\n        /* \"#utility.yul\":4501:4510   */\n      dup4\n        /* \"#utility.yul\":4497:4514   */\n      add\n        /* \"#utility.yul\":4491:4515   */\n      mload\n        /* \"#utility.yul\":4542:4560   */\n      0xffffffffffffffff\n        /* \"#utility.yul\":4534:4540   */\n      dup2\n        /* \"#utility.yul\":4531:4561   */\n      gt\n        /* \"#utility.yul\":4528:4645   */\n      iszero\n      tag_174\n      jumpi\n        /* \"#utility.yul\":4564:4643   */\n      tag_175\n      tag_157\n      jump\t// in\n    tag_175:\n        /* \"#utility.yul\":4528:4645   */\n    tag_174:\n        /* \"#utility.yul\":4669:4743   */\n      tag_176\n        /* \"#utility.yul\":4735:4742   */\n      dup6\n        /* \"#utility.yul\":4726:4732   */\n      dup3\n        /* \"#utility.yul\":4715:4724   */\n      dup7\n        /* \"#utility.yul\":4711:4733   */\n      add\n        /* \"#utility.yul\":4669:4743   */\n      tag_136\n      jump\t// in\n    tag_176:\n        /* \"#utility.yul\":4659:4743   */\n      swap3\n      pop\n        /* \"#utility.yul\":4462:4753   */\n      pop\n        /* \"#utility.yul\":4813:4815   */\n      0x20\n        /* \"#utility.yul\":4802:4811   */\n      dup4\n        /* \"#utility.yul\":4798:4816   */\n      add\n        /* \"#utility.yul\":4792:4817   */\n      mload\n        /* \"#utility.yul\":4844:4862   */\n      0xffffffffffffffff\n        /* \"#utility.yul\":4836:4842   */\n      dup2\n        /* \"#utility.yul\":4833:4863   */\n      gt\n        /* \"#utility.yul\":4830:4947   */\n      iszero\n      tag_177\n      jumpi\n        /* \"#utility.yul\":4866:4945   */\n      tag_178\n      tag_157\n      jump\t// in\n    tag_178:\n        /* \"#utility.yul\":4830:4947   */\n    tag_177:\n        /* \"#utility.yul\":4971:5045   */\n      tag_179\n        /* \"#utility.yul\":5037:5044   */\n      dup6\n        /* \"#utility.yul\":5028:5034   */\n      dup3\n        /* \"#utility.yul\":5017:5026   */\n      dup7\n        /* \"#utility.yul\":5013:5035   */\n      add\n        /* \"#utility.yul\":4971:5045   */\n      tag_136\n      jump\t// in\n    tag_179:\n        /* \"#utility.yul\":4961:5045   */\n      swap2\n      pop\n        /* \"#utility.yul\":4763:5055   */\n      pop\n        /* \"#utility.yul\":4209:5062   */\n      swap3\n      pop\n      swap3\n      swap1\n      pop\n      jump\t// out\n        /* \"#utility.yul\":5068:5569   */\n    tag_36:\n        /* \"#utility.yul\":5144:5150   */\n      0x00\n        /* \"#utility.yul\":5152:5158   */\n      dup1\n        /* \"#utility.yul\":5201:5203   */\n      0x40\n        /* \"#utility.yul\":5189:5198   */\n      dup4\n        /* \"#utility.yul\":5180:5187   */\n      dup6\n        /* \"#utility.yul\":5176:5199   */\n      sub\n        /* \"#utility.yul\":5172:5204   */\n      slt\n        /* \"#utility.yul\":5169:5288   */\n      iszero\n      tag_181\n      jumpi\n        /* \"#utility.yul\":5207:5286   */\n      tag_182\n      tag_148\n      jump\t// in\n    tag_182:\n        /* \"#utility.yul\":5169:5288   */\n    tag_181:\n        /* \"#utility.yul\":5327:5328   */\n      0x00\n        /* \"#utility.yul\":5352:5416   */\n      tag_183\n        /* \"#utility.yul\":5408:5415   */\n      dup6\n        /* \"#utility.yul\":5399:5405   */\n      dup3\n        /* \"#utility.yul\":5388:5397   */\n      dup7\n        /* \"#utility.yul\":5384:5406   */\n      add\n        /* \"#utility.yul\":5352:5416   */\n      tag_141\n      jump\t// in\n    tag_183:\n        /* \"#utility.yul\":5342:5416   */\n      swap3\n      pop\n        /* \"#utility.yul\":5298:5426   */\n      pop\n        /* \"#utility.yul\":5465:5467   */\n      0x20\n        /* \"#utility.yul\":5491:5552   */\n      tag_184\n        /* \"#utility.yul\":5544:5551   */\n      dup6\n        /* \"#utility.yul\":5535:5541   */\n      dup3\n        /* \"#utility.yul\":5524:5533   */\n      dup7\n        /* \"#utility.yul\":5520:5542   */\n      add\n        /* \"#utility.yul\":5491:5552   */\n      tag_126\n      jump\t// in\n    tag_184:\n        /* \"#utility.yul\":5481:5552   */\n      swap2\n      pop\n        /* \"#utility.yul\":5436:5562   */\n      pop\n        /* \"#utility.yul\":5068:5569   */\n      swap3\n      pop\n      swap3\n      swap1\n      pop\n      jump\t// out\n        /* \"#utility.yul\":5575:5693   */\n    tag_185:\n        /* \"#utility.yul\":5662:5686   */\n      tag_187\n        /* \"#utility.yul\":5680:5685   */\n      dup2\n        /* \"#utility.yul\":5662:5686   */\n      tag_188\n      jump\t// in\n    tag_187:\n        /* \"#utility.yul\":5657:5660   */\n      dup3\n        /* \"#utility.yul\":5650:5687   */\n      mstore\n        /* \"#utility.yul\":5575:5693   */\n      pop\n      pop\n      jump\t// out\n        /* \"#utility.yul\":5699:5808   */\n    tag_189:\n        /* \"#utility.yul\":5780:5801   */\n      tag_191\n        /* \"#utility.yul\":5795:5800   */\n      dup2\n        /* \"#utility.yul\":5780:5801   */\n      tag_192\n      jump\t// in\n    tag_191:\n        /* \"#utility.yul\":5775:5778   */\n      dup3\n        /* \"#utility.yul\":5768:5802   */\n      mstore\n        /* \"#utility.yul\":5699:5808   */\n      pop\n      pop\n      jump\t// out\n        /* \"#utility.yul\":5814:6178   */\n    tag_193:\n        /* \"#utility.yul\":5902:5905   */\n      0x00\n        /* \"#utility.yul\":5930:5969   */\n      tag_195\n        /* \"#utility.yul\":5963:5968   */\n      dup3\n        /* \"#utility.yul\":5930:5969   */\n      tag_196\n      jump\t// in\n    tag_195:\n        /* \"#utility.yul\":5985:6056   */\n      tag_197\n        /* \"#utility.yul\":6049:6055   */\n      dup2\n        /* \"#utility.yul\":6044:6047   */\n      dup6\n        /* \"#utility.yul\":5985:6056   */\n      tag_198\n      jump\t// in\n    tag_197:\n        /* \"#utility.yul\":5978:6056   */\n      swap4\n      pop\n        /* \"#utility.yul\":6065:6117   */\n      tag_199\n        /* \"#utility.yul\":6110:6116   */\n      dup2\n        /* \"#utility.yul\":6105:6108   */\n      dup6\n        /* \"#utility.yul\":6098:6102   */\n      0x20\n        /* \"#utility.yul\":6091:6096   */\n      dup7\n        /* \"#utility.yul\":6087:6103   */\n      add\n        /* \"#utility.yul\":6065:6117   */\n      tag_121\n      jump\t// in\n    tag_199:\n        /* \"#utility.yul\":6142:6171   */\n      tag_200\n        /* \"#utility.yul\":6164:6170   */\n      dup2\n        /* \"#utility.yul\":6142:6171   */\n      tag_201\n      jump\t// in\n    tag_200:\n        /* \"#utility.yul\":6137:6140   */\n      dup5\n        /* \"#utility.yul\":6133:6172   */\n      add\n        /* \"#utility.yul\":6126:6172   */\n      swap2\n      pop\n        /* \"#utility.yul\":5906:6178   */\n      pop\n        /* \"#utility.yul\":5814:6178   */\n      swap3\n      swap2\n      pop\n      pop\n      jump\t// out\n        /* \"#utility.yul\":6184:6561   */\n    tag_202:\n        /* \"#utility.yul\":6290:6293   */\n      0x00\n        /* \"#utility.yul\":6318:6357   */\n      tag_204\n        /* \"#utility.yul\":6351:6356   */\n      dup3\n        /* \"#utility.yul\":6318:6357   */\n      tag_196\n      jump\t// in\n    tag_204:\n        /* \"#utility.yul\":6373:6462   */\n      tag_205\n        /* \"#utility.yul\":6455:6461   */\n      dup2\n        /* \"#utility.yul\":6450:6453   */\n      dup6\n        /* \"#utility.yul\":6373:6462   */\n      tag_206\n      jump\t// in\n    tag_205:\n        /* \"#utility.yul\":6366:6462   */\n      swap4\n      pop\n        /* \"#utility.yul\":6471:6523   */\n      tag_207\n        /* \"#utility.yul\":6516:6522   */\n      dup2\n        /* \"#utility.yul\":6511:6514   */\n      dup6\n        /* \"#utility.yul\":6504:6508   */\n      0x20\n        /* \"#utility.yul\":6497:6502   */\n      dup7\n        /* \"#utility.yul\":6493:6509   */\n      add\n        /* \"#utility.yul\":6471:6523   */\n      tag_121\n      jump\t// in\n    tag_207:\n        /* \"#utility.yul\":6548:6554   */\n      dup1\n        /* \"#utility.yul\":6543:6546   */\n      dup5\n        /* \"#utility.yul\":6539:6555   */\n      add\n        /* \"#utility.yul\":6532:6555   */\n      swap2\n      pop\n        /* \"#utility.yul\":6294:6561   */\n      pop\n        /* \"#utility.yul\":6184:6561   */\n      swap3\n      swap2\n      pop\n      pop\n      jump\t// out\n        /* \"#utility.yul\":6567:6967   */\n    tag_208:\n        /* \"#utility.yul\":6727:6730   */\n      0x00\n        /* \"#utility.yul\":6748:6832   */\n      tag_210\n        /* \"#utility.yul\":6830:6831   */\n      0x05\n        /* \"#utility.yul\":6825:6828   */\n      dup4\n        /* \"#utility.yul\":6748:6832   */\n      tag_206\n      jump\t// in\n    tag_210:\n        /* \"#utility.yul\":6741:6832   */\n      swap2\n      pop\n        /* \"#utility.yul\":6841:6934   */\n      tag_211\n        /* \"#utility.yul\":6930:6933   */\n      dup3\n        /* \"#utility.yul\":6841:6934   */\n      tag_212\n      jump\t// in\n    tag_211:\n        /* \"#utility.yul\":6959:6960   */\n      0x05\n        /* \"#utility.yul\":6954:6957   */\n      dup3\n        /* \"#utility.yul\":6950:6961   */\n      add\n        /* \"#utility.yul\":6943:6961   */\n      swap1\n      pop\n        /* \"#utility.yul\":6567:6967   */\n      swap2\n      swap1\n      pop\n      jump\t// out\n        /* \"#utility.yul\":6973:7373   */\n    tag_213:\n        /* \"#utility.yul\":7133:7136   */\n      0x00\n        /* \"#utility.yul\":7154:7238   */\n      tag_215\n        /* \"#utility.yul\":7236:7237   */\n      0x07\n        /* \"#utility.yul\":7231:7234   */\n      dup4\n        /* \"#utility.yul\":7154:7238   */\n      tag_206\n      jump\t// in\n    tag_215:\n        /* \"#utility.yul\":7147:7238   */\n      swap2\n      pop\n        /* \"#utility.yul\":7247:7340   */\n      tag_216\n        /* \"#utility.yul\":7336:7339   */\n      dup3\n        /* \"#utility.yul\":7247:7340   */\n      tag_217\n      jump\t// in\n    tag_216:\n        /* \"#utility.yul\":7365:7366   */\n      0x07\n        /* \"#utility.yul\":7360:7363   */\n      dup3\n        /* \"#utility.yul\":7356:7367   */\n      add\n        /* \"#utility.yul\":7349:7367   */\n      swap1\n      pop\n        /* \"#utility.yul\":6973:7373   */\n      swap2\n      swap1\n      pop\n      jump\t// out\n        /* \"#utility.yul\":7379:7745   */\n    tag_218:\n        /* \"#utility.yul\":7521:7524   */\n      0x00\n        /* \"#utility.yul\":7542:7609   */\n      tag_220\n        /* \"#utility.yul\":7606:7608   */\n      0x0c\n        /* \"#utility.yul\":7601:7604   */\n      dup4\n        /* \"#utility.yul\":7542:7609   */\n      tag_198\n      jump\t// in\n    tag_220:\n        /* \"#utility.yul\":7535:7609   */\n      swap2\n      pop\n        /* \"#utility.yul\":7618:7711   */\n      tag_221\n        /* \"#utility.yul\":7707:7710   */\n      dup3\n        /* \"#utility.yul\":7618:7711   */\n      tag_222\n      jump\t// in\n    tag_221:\n        /* \"#utility.yul\":7736:7738   */\n      0x20\n        /* \"#utility.yul\":7731:7734   */\n      dup3\n        /* \"#utility.yul\":7727:7739   */\n      add\n        /* \"#utility.yul\":7720:7739   */\n      swap1\n      pop\n        /* \"#utility.yul\":7379:7745   */\n      swap2\n      swap1\n      pop\n      jump\t// out\n        /* \"#utility.yul\":7751:8117   */\n    tag_223:\n        /* \"#utility.yul\":7893:7896   */\n      0x00\n        /* \"#utility.yul\":7914:7981   */\n      tag_225\n        /* \"#utility.yul\":7978:7980   */\n      0x0f\n        /* \"#utility.yul\":7973:7976   */\n      dup4\n        /* \"#utility.yul\":7914:7981   */\n      tag_198\n      jump\t// in\n    tag_225:\n        /* \"#utility.yul\":7907:7981   */\n      swap2\n      pop\n        /* \"#utility.yul\":7990:8083   */\n      tag_226\n        /* \"#utility.yul\":8079:8082   */\n      dup3\n        /* \"#utility.yul\":7990:8083   */\n      tag_227\n      jump\t// in\n    tag_226:\n        /* \"#utility.yul\":8108:8110   */\n      0x20\n        /* \"#utility.yul\":8103:8106   */\n      dup3\n        /* \"#utility.yul\":8099:8111   */\n      add\n        /* \"#utility.yul\":8092:8111   */\n      swap1\n      pop\n        /* \"#utility.yul\":7751:8117   */\n      swap2\n      swap1\n      pop\n      jump\t// out\n        /* \"#utility.yul\":8123:8523   */\n    tag_228:\n        /* \"#utility.yul\":8283:8286   */\n      0x00\n        /* \"#utility.yul\":8304:8388   */\n      tag_230\n        /* \"#utility.yul\":8386:8387   */\n      0x07\n        /* \"#utility.yul\":8381:8384   */\n      dup4\n        /* \"#utility.yul\":8304:8388   */\n      tag_206\n      jump\t// in\n    tag_230:\n        /* \"#utility.yul\":8297:8388   */\n      swap2\n      pop\n        /* \"#utility.yul\":8397:8490   */\n      tag_231\n        /* \"#utility.yul\":8486:8489   */\n      dup3\n        /* \"#utility.yul\":8397:8490   */\n      tag_232\n      jump\t// in\n    tag_231:\n        /* \"#utility.yul\":8515:8516   */\n      0x07\n        /* \"#utility.yul\":8510:8513   */\n      dup3\n        /* \"#utility.yul\":8506:8517   */\n      add\n        /* \"#utility.yul\":8499:8517   */\n      swap1\n      pop\n        /* \"#utility.yul\":8123:8523   */\n      swap2\n      swap1\n      pop\n      jump\t// out\n        /* \"#utility.yul\":8529:8895   */\n    tag_233:\n        /* \"#utility.yul\":8671:8674   */\n      0x00\n        /* \"#utility.yul\":8692:8759   */\n      tag_235\n        /* \"#utility.yul\":8756:8758   */\n      0x13\n        /* \"#utility.yul\":8751:8754   */\n      dup4\n        /* \"#utility.yul\":8692:8759   */\n      tag_198\n      jump\t// in\n    tag_235:\n        /* \"#utility.yul\":8685:8759   */\n      swap2\n      pop\n        /* \"#utility.yul\":8768:8861   */\n      tag_236\n        /* \"#utility.yul\":8857:8860   */\n      dup3\n        /* \"#utility.yul\":8768:8861   */\n      tag_237\n      jump\t// in\n    tag_236:\n        /* \"#utility.yul\":8886:8888   */\n      0x20\n        /* \"#utility.yul\":8881:8884   */\n      dup3\n        /* \"#utility.yul\":8877:8889   */\n      add\n        /* \"#utility.yul\":8870:8889   */\n      swap1\n      pop\n        /* \"#utility.yul\":8529:8895   */\n      swap2\n      swap1\n      pop\n      jump\t// out\n        /* \"#utility.yul\":8901:9301   */\n    tag_238:\n        /* \"#utility.yul\":9061:9064   */\n      0x00\n        /* \"#utility.yul\":9082:9166   */\n      tag_240\n        /* \"#utility.yul\":9164:9165   */\n      0x04\n        /* \"#utility.yul\":9159:9162   */\n      dup4\n        /* \"#utility.yul\":9082:9166   */\n      tag_206\n      jump\t// in\n    tag_240:\n        /* \"#utility.yul\":9075:9166   */\n      swap2\n      pop\n        /* \"#utility.yul\":9175:9268   */\n      tag_241\n        /* \"#utility.yul\":9264:9267   */\n      dup3\n        /* \"#utility.yul\":9175:9268   */\n      tag_242\n      jump\t// in\n    tag_241:\n        /* \"#utility.yul\":9293:9294   */\n      0x04\n        /* \"#utility.yul\":9288:9291   */\n      dup3\n        /* \"#utility.yul\":9284:9295   */\n      add\n        /* \"#utility.yul\":9277:9295   */\n      swap1\n      pop\n        /* \"#utility.yul\":8901:9301   */\n      swap2\n      swap1\n      pop\n      jump\t// out\n        /* \"#utility.yul\":9307:9707   */\n    tag_243:\n        /* \"#utility.yul\":9467:9470   */\n      0x00\n        /* \"#utility.yul\":9488:9572   */\n      tag_245\n        /* \"#utility.yul\":9570:9571   */\n      0x04\n        /* \"#utility.yul\":9565:9568   */\n      dup4\n        /* \"#utility.yul\":9488:9572   */\n      tag_206\n      jump\t// in\n    tag_245:\n        /* \"#utility.yul\":9481:9572   */\n      swap2\n      pop\n        /* \"#utility.yul\":9581:9674   */\n      tag_246\n        /* \"#utility.yul\":9670:9673   */\n      dup3\n        /* \"#utility.yul\":9581:9674   */\n      tag_247\n      jump\t// in\n    tag_246:\n        /* \"#utility.yul\":9699:9700   */\n      0x04\n        /* \"#utility.yul\":9694:9697   */\n      dup3\n        /* \"#utility.yul\":9690:9701   */\n      add\n        /* \"#utility.yul\":9683:9701   */\n      swap1\n      pop\n        /* \"#utility.yul\":9307:9707   */\n      swap2\n      swap1\n      pop\n      jump\t// out\n        /* \"#utility.yul\":9713:10079   */\n    tag_248:\n        /* \"#utility.yul\":9855:9858   */\n      0x00\n        /* \"#utility.yul\":9876:9943   */\n      tag_250\n        /* \"#utility.yul\":9940:9942   */\n      0x14\n        /* \"#utility.yul\":9935:9938   */\n      dup4\n        /* \"#utility.yul\":9876:9943   */\n      tag_198\n      jump\t// in\n    tag_250:\n        /* \"#utility.yul\":9869:9943   */\n      swap2\n      pop\n        /* \"#utility.yul\":9952:10045   */\n      tag_251\n        /* \"#utility.yul\":10041:10044   */\n      dup3\n        /* \"#utility.yul\":9952:10045   */\n      tag_252\n      jump\t// in\n    tag_251:\n        /* \"#utility.yul\":10070:10072   */\n      0x20\n        /* \"#utility.yul\":10065:10068   */\n      dup3\n        /* \"#utility.yul\":10061:10073   */\n      add\n        /* \"#utility.yul\":10054:10073   */\n      swap1\n      pop\n        /* \"#utility.yul\":9713:10079   */\n      swap2\n      swap1\n      pop\n      jump\t// out\n        /* \"#utility.yul\":10085:10451   */\n    tag_253:\n        /* \"#utility.yul\":10227:10230   */\n      0x00\n        /* \"#utility.yul\":10248:10315   */\n      tag_255\n        /* \"#utility.yul\":10312:10314   */\n      0x20\n        /* \"#utility.yul\":10307:10310   */\n      dup4\n        /* \"#utility.yul\":10248:10315   */\n      tag_198\n      jump\t// in\n    tag_255:\n        /* \"#utility.yul\":10241:10315   */\n      swap2\n      pop\n        /* \"#utility.yul\":10324:10417   */\n      tag_256\n        /* \"#utility.yul\":10413:10416   */\n      dup3\n        /* \"#utility.yul\":10324:10417   */\n      tag_257\n      jump\t// in\n    tag_256:\n        /* \"#utility.yul\":10442:10444   */\n      0x20\n        /* \"#utility.yul\":10437:10440   */\n      dup3\n        /* \"#utility.yul\":10433:10445   */\n      add\n        /* \"#utility.yul\":10426:10445   */\n      swap1\n      pop\n        /* \"#utility.yul\":10085:10451   */\n      swap2\n      swap1\n      pop\n      jump\t// out\n        /* \"#utility.yul\":10457:10857   */\n    tag_258:\n        /* \"#utility.yul\":10617:10620   */\n      0x00\n        /* \"#utility.yul\":10638:10722   */\n      tag_260\n        /* \"#utility.yul\":10720:10721   */\n      0x04\n        /* \"#utility.yul\":10715:10718   */\n      dup4\n        /* \"#utility.yul\":10638:10722   */\n      tag_206\n      jump\t// in\n    tag_260:\n        /* \"#utility.yul\":10631:10722   */\n      swap2\n      pop\n        /* \"#utility.yul\":10731:10824   */\n      tag_261\n        /* \"#utility.yul\":10820:10823   */\n      dup3\n        /* \"#utility.yul\":10731:10824   */\n      tag_262\n      jump\t// in\n    tag_261:\n        /* \"#utility.yul\":10849:10850   */\n      0x04\n        /* \"#utility.yul\":10844:10847   */\n      dup3\n        /* \"#utility.yul\":10840:10851   */\n      add\n        /* \"#utility.yul\":10833:10851   */\n      swap1\n      pop\n        /* \"#utility.yul\":10457:10857   */\n      swap2\n      swap1\n      pop\n      jump\t// out\n        /* \"#utility.yul\":10863:10981   */\n    tag_263:\n        /* \"#utility.yul\":10950:10974   */\n      tag_265\n        /* \"#utility.yul\":10968:10973   */\n      dup2\n        /* \"#utility.yul\":10950:10974   */\n      tag_266\n      jump\t// in\n    tag_265:\n        /* \"#utility.yul\":10945:10948   */\n      dup3\n        /* \"#utility.yul\":10938:10975   */\n      mstore\n        /* \"#utility.yul\":10863:10981   */\n      pop\n      pop\n      jump\t// out\n        /* \"#utility.yul\":10987:11262   */\n    tag_56:\n        /* \"#utility.yul\":11119:11122   */\n      0x00\n        /* \"#utility.yul\":11141:11236   */\n      tag_268\n        /* \"#utility.yul\":11232:11235   */\n      dup3\n        /* \"#utility.yul\":11223:11229   */\n      dup5\n        /* \"#utility.yul\":11141:11236   */\n      tag_202\n      jump\t// in\n    tag_268:\n        /* \"#utility.yul\":11134:11236   */\n      swap2\n      pop\n        /* \"#utility.yul\":11253:11256   */\n      dup2\n        /* \"#utility.yul\":11246:11256   */\n      swap1\n      pop\n        /* \"#utility.yul\":10987:11262   */\n      swap3\n      swap2\n      pop\n      pop\n      jump\t// out\n        /* \"#utility.yul\":11268:11649   */\n    tag_85:\n        /* \"#utility.yul\":11453:11456   */\n      0x00\n        /* \"#utility.yul\":11475:11623   */\n      tag_270\n        /* \"#utility.yul\":11619:11622   */\n      dup3\n        /* \"#utility.yul\":11475:11623   */\n      tag_208\n      jump\t// in\n    tag_270:\n        /* \"#utility.yul\":11468:11623   */\n      swap2\n      pop\n        /* \"#utility.yul\":11640:11643   */\n      dup2\n        /* \"#utility.yul\":11633:11643   */\n      swap1\n      pop\n        /* \"#utility.yul\":11268:11649   */\n      swap2\n      swap1\n      pop\n      jump\t// out\n        /* \"#utility.yul\":11655:12036   */\n    tag_91:\n        /* \"#utility.yul\":11840:11843   */\n      0x00\n        /* \"#utility.yul\":11862:12010   */\n      tag_272\n        /* \"#utility.yul\":12006:12009   */\n      dup3\n        /* \"#utility.yul\":11862:12010   */\n      tag_213\n      jump\t// in\n    tag_272:\n        /* \"#utility.yul\":11855:12010   */\n      swap2\n      pop\n        /* \"#utility.yul\":12027:12030   */\n      dup2\n        /* \"#utility.yul\":12020:12030   */\n      swap1\n      pop\n        /* \"#utility.yul\":11655:12036   */\n      swap2\n      swap1\n      pop\n      jump\t// out\n        /* \"#utility.yul\":12042:12423   */\n    tag_87:\n        /* \"#utility.yul\":12227:12230   */\n      0x00\n        /* \"#utility.yul\":12249:12397   */\n      tag_274\n        /* \"#utility.yul\":12393:12396   */\n      dup3\n        /* \"#utility.yul\":12249:12397   */\n      tag_228\n      jump\t// in\n    tag_274:\n        /* \"#utility.yul\":12242:12397   */\n      swap2\n      pop\n        /* \"#utility.yul\":12414:12417   */\n      dup2\n        /* \"#utility.yul\":12407:12417   */\n      swap1\n      pop\n        /* \"#utility.yul\":12042:12423   */\n      swap2\n      swap1\n      pop\n      jump\t// out\n        /* \"#utility.yul\":12429:12810   */\n    tag_89:\n        /* \"#utility.yul\":12614:12617   */\n      0x00\n        /* \"#utility.yul\":12636:12784   */\n      tag_276\n        /* \"#utility.yul\":12780:12783   */\n      dup3\n        /* \"#utility.yul\":12636:12784   */\n      tag_238\n      jump\t// in\n    tag_276:\n        /* \"#utility.yul\":12629:12784   */\n      swap2\n      pop\n        /* \"#utility.yul\":12801:12804   */\n      dup2\n        /* \"#utility.yul\":12794:12804   */\n      swap1\n      pop\n        /* \"#utility.yul\":12429:12810   */\n      swap2\n      swap1\n      pop\n      jump\t// out\n        /* \"#utility.yul\":12816:13197   */\n    tag_83:\n        /* \"#utility.yul\":13001:13004   */\n      0x00\n        /* \"#utility.yul\":13023:13171   */\n      tag_278\n        /* \"#utility.yul\":13167:13170   */\n      dup3\n        /* \"#utility.yul\":13023:13171   */\n      tag_243\n      jump\t// in\n    tag_278:\n        /* \"#utility.yul\":13016:13171   */\n      swap2\n      pop\n        /* \"#utility.yul\":13188:13191   */\n      dup2\n        /* \"#utility.yul\":13181:13191   */\n      swap1\n      pop\n        /* \"#utility.yul\":12816:13197   */\n      swap2\n      swap1\n      pop\n      jump\t// out\n        /* \"#utility.yul\":13203:13584   */\n    tag_81:\n        /* \"#utility.yul\":13388:13391   */\n      0x00\n        /* \"#utility.yul\":13410:13558   */\n      tag_280\n        /* \"#utility.yul\":13554:13557   */\n      dup3\n        /* \"#utility.yul\":13410:13558   */\n      tag_258\n      jump\t// in\n    tag_280:\n        /* \"#utility.yul\":13403:13558   */\n      swap2\n      pop\n        /* \"#utility.yul\":13575:13578   */\n      dup2\n        /* \"#utility.yul\":13568:13578   */\n      swap1\n      pop\n        /* \"#utility.yul\":13203:13584   */\n      swap2\n      swap1\n      pop\n      jump\t// out\n        /* \"#utility.yul\":13590:13812   */\n    tag_31:\n        /* \"#utility.yul\":13683:13687   */\n      0x00\n        /* \"#utility.yul\":13721:13723   */\n      0x20\n        /* \"#utility.yul\":13710:13719   */\n      dup3\n        /* \"#utility.yul\":13706:13724   */\n      add\n        /* \"#utility.yul\":13698:13724   */\n      swap1\n      pop\n        /* \"#utility.yul\":13734:13805   */\n      tag_282\n        /* \"#utility.yul\":13802:13803   */\n      0x00\n        /* \"#utility.yul\":13791:13800   */\n      dup4\n        /* \"#utility.yul\":13787:13804   */\n      add\n        /* \"#utility.yul\":13778:13784   */\n      dup5\n        /* \"#utility.yul\":13734:13805   */\n      tag_185\n      jump\t// in\n    tag_282:\n        /* \"#utility.yul\":13590:13812   */\n      swap3\n      swap2\n      pop\n      pop\n      jump\t// out\n        /* \"#utility.yul\":13818:14150   */\n    tag_47:\n        /* \"#utility.yul\":13939:13943   */\n      0x00\n        /* \"#utility.yul\":13977:13979   */\n      0x40\n        /* \"#utility.yul\":13966:13975   */\n      dup3\n        /* \"#utility.yul\":13962:13980   */\n      add\n        /* \"#utility.yul\":13954:13980   */\n      swap1\n      pop\n        /* \"#utility.yul\":13990:14061   */\n      tag_284\n        /* \"#utility.yul\":14058:14059   */\n      0x00\n        /* \"#utility.yul\":14047:14056   */\n      dup4\n        /* \"#utility.yul\":14043:14060   */\n      add\n        /* \"#utility.yul\":14034:14040   */\n      dup6\n        /* \"#utility.yul\":13990:14061   */\n      tag_185\n      jump\t// in\n    tag_284:\n        /* \"#utility.yul\":14071:14143   */\n      tag_285\n        /* \"#utility.yul\":14139:14141   */\n      0x20\n        /* \"#utility.yul\":14128:14137   */\n      dup4\n        /* \"#utility.yul\":14124:14142   */\n      add\n        /* \"#utility.yul\":14115:14121   */\n      dup5\n        /* \"#utility.yul\":14071:14143   */\n      tag_185\n      jump\t// in\n    tag_285:\n        /* \"#utility.yul\":13818:14150   */\n      swap4\n      swap3\n      pop\n      pop\n      pop\n      jump\t// out\n        /* \"#utility.yul\":14156:15108   */\n    tag_75:\n        /* \"#utility.yul\":14454:14458   */\n      0x00\n        /* \"#utility.yul\":14492:14495   */\n      0xa0\n        /* \"#utility.yul\":14481:14490   */\n      dup3\n        /* \"#utility.yul\":14477:14496   */\n      add\n        /* \"#utility.yul\":14469:14496   */\n      swap1\n      pop\n        /* \"#utility.yul\":14506:14577   */\n      tag_287\n        /* \"#utility.yul\":14574:14575   */\n      0x00\n        /* \"#utility.yul\":14563:14572   */\n      dup4\n        /* \"#utility.yul\":14559:14576   */\n      add\n        /* \"#utility.yul\":14550:14556   */\n      dup8\n        /* \"#utility.yul\":14506:14577   */\n      tag_185\n      jump\t// in\n    tag_287:\n        /* \"#utility.yul\":14587:14659   */\n      tag_288\n        /* \"#utility.yul\":14655:14657   */\n      0x20\n        /* \"#utility.yul\":14644:14653   */\n      dup4\n        /* \"#utility.yul\":14640:14658   */\n      add\n        /* \"#utility.yul\":14631:14637   */\n      dup7\n        /* \"#utility.yul\":14587:14659   */\n      tag_185\n      jump\t// in\n    tag_288:\n        /* \"#utility.yul\":14706:14715   */\n      dup2\n        /* \"#utility.yul\":14700:14704   */\n      dup2\n        /* \"#utility.yul\":14696:14716   */\n      sub\n        /* \"#utility.yul\":14691:14693   */\n      0x40\n        /* \"#utility.yul\":14680:14689   */\n      dup4\n        /* \"#utility.yul\":14676:14694   */\n      add\n        /* \"#utility.yul\":14669:14717   */\n      mstore\n        /* \"#utility.yul\":14734:14812   */\n      tag_289\n        /* \"#utility.yul\":14807:14811   */\n      dup2\n        /* \"#utility.yul\":14798:14804   */\n      dup6\n        /* \"#utility.yul\":14734:14812   */\n      tag_193\n      jump\t// in\n    tag_289:\n        /* \"#utility.yul\":14726:14812   */\n      swap1\n      pop\n        /* \"#utility.yul\":14859:14868   */\n      dup2\n        /* \"#utility.yul\":14853:14857   */\n      dup2\n        /* \"#utility.yul\":14849:14869   */\n      sub\n        /* \"#utility.yul\":14844:14846   */\n      0x60\n        /* \"#utility.yul\":14833:14842   */\n      dup4\n        /* \"#utility.yul\":14829:14847   */\n      add\n        /* \"#utility.yul\":14822:14870   */\n      mstore\n        /* \"#utility.yul\":14887:15018   */\n      tag_290\n        /* \"#utility.yul\":15013:15017   */\n      dup2\n        /* \"#utility.yul\":14887:15018   */\n      tag_218\n      jump\t// in\n    tag_290:\n        /* \"#utility.yul\":14879:15018   */\n      swap1\n      pop\n        /* \"#utility.yul\":15028:15101   */\n      tag_291\n        /* \"#utility.yul\":15096:15099   */\n      0x80\n        /* \"#utility.yul\":15085:15094   */\n      dup4\n        /* \"#utility.yul\":15081:15100   */\n      add\n        /* \"#utility.yul\":15072:15078   */\n      dup5\n        /* \"#utility.yul\":15028:15101   */\n      tag_263\n      jump\t// in\n    tag_291:\n        /* \"#utility.yul\":14156:15108   */\n      swap6\n      swap5\n      pop\n      pop\n      pop\n      pop\n      pop\n      jump\t// out\n        /* \"#utility.yul\":15114:16066   */\n    tag_63:\n        /* \"#utility.yul\":15412:15416   */\n      0x00\n        /* \"#utility.yul\":15450:15453   */\n      0xa0\n        /* \"#utility.yul\":15439:15448   */\n      dup3\n        /* \"#utility.yul\":15435:15454   */\n      add\n        /* \"#utility.yul\":15427:15454   */\n      swap1\n      pop\n        /* \"#utility.yul\":15464:15535   */\n      tag_293\n        /* \"#utility.yul\":15532:15533   */\n      0x00\n        /* \"#utility.yul\":15521:15530   */\n      dup4\n        /* \"#utility.yul\":15517:15534   */\n      add\n        /* \"#utility.yul\":15508:15514   */\n      dup8\n        /* \"#utility.yul\":15464:15535   */\n      tag_185\n      jump\t// in\n    tag_293:\n        /* \"#utility.yul\":15545:15617   */\n      tag_294\n        /* \"#utility.yul\":15613:15615   */\n      0x20\n        /* \"#utility.yul\":15602:15611   */\n      dup4\n        /* \"#utility.yul\":15598:15616   */\n      add\n        /* \"#utility.yul\":15589:15595   */\n      dup7\n        /* \"#utility.yul\":15545:15617   */\n      tag_185\n      jump\t// in\n    tag_294:\n        /* \"#utility.yul\":15664:15673   */\n      dup2\n        /* \"#utility.yul\":15658:15662   */\n      dup2\n        /* \"#utility.yul\":15654:15674   */\n      sub\n        /* \"#utility.yul\":15649:15651   */\n      0x40\n        /* \"#utility.yul\":15638:15647   */\n      dup4\n        /* \"#utility.yul\":15634:15652   */\n      add\n        /* \"#utility.yul\":15627:15675   */\n      mstore\n        /* \"#utility.yul\":15692:15770   */\n      tag_295\n        /* \"#utility.yul\":15765:15769   */\n      dup2\n        /* \"#utility.yul\":15756:15762   */\n      dup6\n        /* \"#utility.yul\":15692:15770   */\n      tag_193\n      jump\t// in\n    tag_295:\n        /* \"#utility.yul\":15684:15770   */\n      swap1\n      pop\n        /* \"#utility.yul\":15817:15826   */\n      dup2\n        /* \"#utility.yul\":15811:15815   */\n      dup2\n        /* \"#utility.yul\":15807:15827   */\n      sub\n        /* \"#utility.yul\":15802:15804   */\n      0x60\n        /* \"#utility.yul\":15791:15800   */\n      dup4\n        /* \"#utility.yul\":15787:15805   */\n      add\n        /* \"#utility.yul\":15780:15828   */\n      mstore\n        /* \"#utility.yul\":15845:15976   */\n      tag_296\n        /* \"#utility.yul\":15971:15975   */\n      dup2\n        /* \"#utility.yul\":15845:15976   */\n      tag_223\n      jump\t// in\n    tag_296:\n        /* \"#utility.yul\":15837:15976   */\n      swap1\n      pop\n        /* \"#utility.yul\":15986:16059   */\n      tag_297\n        /* \"#utility.yul\":16054:16057   */\n      0x80\n        /* \"#utility.yul\":16043:16052   */\n      dup4\n        /* \"#utility.yul\":16039:16058   */\n      add\n        /* \"#utility.yul\":16030:16036   */\n      dup5\n        /* \"#utility.yul\":15986:16059   */\n      tag_263\n      jump\t// in\n    tag_297:\n        /* \"#utility.yul\":15114:16066   */\n      swap6\n      swap5\n      pop\n      pop\n      pop\n      pop\n      pop\n      jump\t// out\n        /* \"#utility.yul\":16072:17024   */\n    tag_73:\n        /* \"#utility.yul\":16370:16374   */\n      0x00\n        /* \"#utility.yul\":16408:16411   */\n      0xa0\n        /* \"#utility.yul\":16397:16406   */\n      dup3\n        /* \"#utility.yul\":16393:16412   */\n      add\n        /* \"#utility.yul\":16385:16412   */\n      swap1\n      pop\n        /* \"#utility.yul\":16422:16493   */\n      tag_299\n        /* \"#utility.yul\":16490:16491   */\n      0x00\n        /* \"#utility.yul\":16479:16488   */\n      dup4\n        /* \"#utility.yul\":16475:16492   */\n      add\n        /* \"#utility.yul\":16466:16472   */\n      dup8\n        /* \"#utility.yul\":16422:16493   */\n      tag_185\n      jump\t// in\n    tag_299:\n        /* \"#utility.yul\":16503:16575   */\n      tag_300\n        /* \"#utility.yul\":16571:16573   */\n      0x20\n        /* \"#utility.yul\":16560:16569   */\n      dup4\n        /* \"#utility.yul\":16556:16574   */\n      add\n        /* \"#utility.yul\":16547:16553   */\n      dup7\n        /* \"#utility.yul\":16503:16575   */\n      tag_185\n      jump\t// in\n    tag_300:\n        /* \"#utility.yul\":16622:16631   */\n      dup2\n        /* \"#utility.yul\":16616:16620   */\n      dup2\n        /* \"#utility.yul\":16612:16632   */\n      sub\n        /* \"#utility.yul\":16607:16609   */\n      0x40\n        /* \"#utility.yul\":16596:16605   */\n      dup4\n        /* \"#utility.yul\":16592:16610   */\n      add\n        /* \"#utility.yul\":16585:16633   */\n      mstore\n        /* \"#utility.yul\":16650:16728   */\n      tag_301\n        /* \"#utility.yul\":16723:16727   */\n      dup2\n        /* \"#utility.yul\":16714:16720   */\n      dup6\n        /* \"#utility.yul\":16650:16728   */\n      tag_193\n      jump\t// in\n    tag_301:\n        /* \"#utility.yul\":16642:16728   */\n      swap1\n      pop\n        /* \"#utility.yul\":16775:16784   */\n      dup2\n        /* \"#utility.yul\":16769:16773   */\n      dup2\n        /* \"#utility.yul\":16765:16785   */\n      sub\n        /* \"#utility.yul\":16760:16762   */\n      0x60\n        /* \"#utility.yul\":16749:16758   */\n      dup4\n        /* \"#utility.yul\":16745:16763   */\n      add\n        /* \"#utility.yul\":16738:16786   */\n      mstore\n        /* \"#utility.yul\":16803:16934   */\n      tag_302\n        /* \"#utility.yul\":16929:16933   */\n      dup2\n        /* \"#utility.yul\":16803:16934   */\n      tag_233\n      jump\t// in\n    tag_302:\n        /* \"#utility.yul\":16795:16934   */\n      swap1\n      pop\n        /* \"#utility.yul\":16944:17017   */\n      tag_303\n        /* \"#utility.yul\":17012:17015   */\n      0x80\n        /* \"#utility.yul\":17001:17010   */\n      dup4\n        /* \"#utility.yul\":16997:17016   */\n      add\n        /* \"#utility.yul\":16988:16994   */\n      dup5\n        /* \"#utility.yul\":16944:17017   */\n      tag_263\n      jump\t// in\n    tag_303:\n        /* \"#utility.yul\":16072:17024   */\n      swap6\n      swap5\n      pop\n      pop\n      pop\n      pop\n      pop\n      jump\t// out\n        /* \"#utility.yul\":17030:17982   */\n    tag_60:\n        /* \"#utility.yul\":17328:17332   */\n      0x00\n        /* \"#utility.yul\":17366:17369   */\n      0xa0\n        /* \"#utility.yul\":17355:17364   */\n      dup3\n        /* \"#utility.yul\":17351:17370   */\n      add\n        /* \"#utility.yul\":17343:17370   */\n      swap1\n      pop\n        /* \"#utility.yul\":17380:17451   */\n      tag_305\n        /* \"#utility.yul\":17448:17449   */\n      0x00\n        /* \"#utility.yul\":17437:17446   */\n      dup4\n        /* \"#utility.yul\":17433:17450   */\n      add\n        /* \"#utility.yul\":17424:17430   */\n      dup8\n        /* \"#utility.yul\":17380:17451   */\n      tag_185\n      jump\t// in\n    tag_305:\n        /* \"#utility.yul\":17461:17533   */\n      tag_306\n        /* \"#utility.yul\":17529:17531   */\n      0x20\n        /* \"#utility.yul\":17518:17527   */\n      dup4\n        /* \"#utility.yul\":17514:17532   */\n      add\n        /* \"#utility.yul\":17505:17511   */\n      dup7\n        /* \"#utility.yul\":17461:17533   */\n      tag_185\n      jump\t// in\n    tag_306:\n        /* \"#utility.yul\":17580:17589   */\n      dup2\n        /* \"#utility.yul\":17574:17578   */\n      dup2\n        /* \"#utility.yul\":17570:17590   */\n      sub\n        /* \"#utility.yul\":17565:17567   */\n      0x40\n        /* \"#utility.yul\":17554:17563   */\n      dup4\n        /* \"#utility.yul\":17550:17568   */\n      add\n        /* \"#utility.yul\":17543:17591   */\n      mstore\n        /* \"#utility.yul\":17608:17686   */\n      tag_307\n        /* \"#utility.yul\":17681:17685   */\n      dup2\n        /* \"#utility.yul\":17672:17678   */\n      dup6\n        /* \"#utility.yul\":17608:17686   */\n      tag_193\n      jump\t// in\n    tag_307:\n        /* \"#utility.yul\":17600:17686   */\n      swap1\n      pop\n        /* \"#utility.yul\":17733:17742   */\n      dup2\n        /* \"#utility.yul\":17727:17731   */\n      dup2\n        /* \"#utility.yul\":17723:17743   */\n      sub\n        /* \"#utility.yul\":17718:17720   */\n      0x60\n        /* \"#utility.yul\":17707:17716   */\n      dup4\n        /* \"#utility.yul\":17703:17721   */\n      add\n        /* \"#utility.yul\":17696:17744   */\n      mstore\n        /* \"#utility.yul\":17761:17892   */\n      tag_308\n        /* \"#utility.yul\":17887:17891   */\n      dup2\n        /* \"#utility.yul\":17761:17892   */\n      tag_248\n      jump\t// in\n    tag_308:\n        /* \"#utility.yul\":17753:17892   */\n      swap1\n      pop\n        /* \"#utility.yul\":17902:17975   */\n      tag_309\n        /* \"#utility.yul\":17970:17973   */\n      0x80\n        /* \"#utility.yul\":17959:17968   */\n      dup4\n        /* \"#utility.yul\":17955:17974   */\n      add\n        /* \"#utility.yul\":17946:17952   */\n      dup5\n        /* \"#utility.yul\":17902:17975   */\n      tag_263\n      jump\t// in\n    tag_309:\n        /* \"#utility.yul\":17030:17982   */\n      swap6\n      swap5\n      pop\n      pop\n      pop\n      pop\n      pop\n      jump\t// out\n        /* \"#utility.yul\":17988:18940   */\n    tag_40:\n        /* \"#utility.yul\":18286:18290   */\n      0x00\n        /* \"#utility.yul\":18324:18327   */\n      0xa0\n        /* \"#utility.yul\":18313:18322   */\n      dup3\n        /* \"#utility.yul\":18309:18328   */\n      add\n        /* \"#utility.yul\":18301:18328   */\n      swap1\n      pop\n        /* \"#utility.yul\":18338:18409   */\n      tag_311\n        /* \"#utility.yul\":18406:18407   */\n      0x00\n        /* \"#utility.yul\":18395:18404   */\n      dup4\n        /* \"#utility.yul\":18391:18408   */\n      add\n        /* \"#utility.yul\":18382:18388   */\n      dup8\n        /* \"#utility.yul\":18338:18409   */\n      tag_185\n      jump\t// in\n    tag_311:\n        /* \"#utility.yul\":18419:18491   */\n      tag_312\n        /* \"#utility.yul\":18487:18489   */\n      0x20\n        /* \"#utility.yul\":18476:18485   */\n      dup4\n        /* \"#utility.yul\":18472:18490   */\n      add\n        /* \"#utility.yul\":18463:18469   */\n      dup7\n        /* \"#utility.yul\":18419:18491   */\n      tag_185\n      jump\t// in\n    tag_312:\n        /* \"#utility.yul\":18538:18547   */\n      dup2\n        /* \"#utility.yul\":18532:18536   */\n      dup2\n        /* \"#utility.yul\":18528:18548   */\n      sub\n        /* \"#utility.yul\":18523:18525   */\n      0x40\n        /* \"#utility.yul\":18512:18521   */\n      dup4\n        /* \"#utility.yul\":18508:18526   */\n      add\n        /* \"#utility.yul\":18501:18549   */\n      mstore\n        /* \"#utility.yul\":18566:18644   */\n      tag_313\n        /* \"#utility.yul\":18639:18643   */\n      dup2\n        /* \"#utility.yul\":18630:18636   */\n      dup6\n        /* \"#utility.yul\":18566:18644   */\n      tag_193\n      jump\t// in\n    tag_313:\n        /* \"#utility.yul\":18558:18644   */\n      swap1\n      pop\n        /* \"#utility.yul\":18691:18700   */\n      dup2\n        /* \"#utility.yul\":18685:18689   */\n      dup2\n        /* \"#utility.yul\":18681:18701   */\n      sub\n        /* \"#utility.yul\":18676:18678   */\n      0x60\n        /* \"#utility.yul\":18665:18674   */\n      dup4\n        /* \"#utility.yul\":18661:18679   */\n      add\n        /* \"#utility.yul\":18654:18702   */\n      mstore\n        /* \"#utility.yul\":18719:18850   */\n      tag_314\n        /* \"#utility.yul\":18845:18849   */\n      dup2\n        /* \"#utility.yul\":18719:18850   */\n      tag_253\n      jump\t// in\n    tag_314:\n        /* \"#utility.yul\":18711:18850   */\n      swap1\n      pop\n        /* \"#utility.yul\":18860:18933   */\n      tag_315\n        /* \"#utility.yul\":18928:18931   */\n      0x80\n        /* \"#utility.yul\":18917:18926   */\n      dup4\n        /* \"#utility.yul\":18913:18932   */\n      add\n        /* \"#utility.yul\":18904:18910   */\n      dup5\n        /* \"#utility.yul\":18860:18933   */\n      tag_263\n      jump\t// in\n    tag_315:\n        /* \"#utility.yul\":17988:18940   */\n      swap6\n      swap5\n      pop\n      pop\n      pop\n      pop\n      pop\n      jump\t// out\n        /* \"#utility.yul\":18946:19156   */\n    tag_12:\n        /* \"#utility.yul\":19033:19037   */\n      0x00\n        /* \"#utility.yul\":19071:19073   */\n      0x20\n        /* \"#utility.yul\":19060:19069   */\n      dup3\n        /* \"#utility.yul\":19056:19074   */\n      add\n        /* \"#utility.yul\":19048:19074   */\n      swap1\n      pop\n        /* \"#utility.yul\":19084:19149   */\n      tag_317\n        /* \"#utility.yul\":19146:19147   */\n      0x00\n        /* \"#utility.yul\":19135:19144   */\n      dup4\n        /* \"#utility.yul\":19131:19148   */\n      add\n        /* \"#utility.yul\":19122:19128   */\n      dup5\n        /* \"#utility.yul\":19084:19149   */\n      tag_189\n      jump\t// in\n    tag_317:\n        /* \"#utility.yul\":18946:19156   */\n      swap3\n      swap2\n      pop\n      pop\n      jump\t// out\n        /* \"#utility.yul\":19162:19384   */\n    tag_21:\n        /* \"#utility.yul\":19255:19259   */\n      0x00\n        /* \"#utility.yul\":19293:19295   */\n      0x20\n        /* \"#utility.yul\":19282:19291   */\n      dup3\n        /* \"#utility.yul\":19278:19296   */\n      add\n        /* \"#utility.yul\":19270:19296   */\n      swap1\n      pop\n        /* \"#utility.yul\":19306:19377   */\n      tag_319\n        /* \"#utility.yul\":19374:19375   */\n      0x00\n        /* \"#utility.yul\":19363:19372   */\n      dup4\n        /* \"#utility.yul\":19359:19376   */\n      add\n        /* \"#utility.yul\":19350:19356   */\n      dup5\n        /* \"#utility.yul\":19306:19377   */\n      tag_263\n      jump\t// in\n    tag_319:\n        /* \"#utility.yul\":19162:19384   */\n      swap3\n      swap2\n      pop\n      pop\n      jump\t// out\n        /* \"#utility.yul\":19390:19519   */\n    tag_108:\n        /* \"#utility.yul\":19424:19430   */\n      0x00\n        /* \"#utility.yul\":19451:19471   */\n      tag_321\n      tag_322\n      jump\t// in\n    tag_321:\n        /* \"#utility.yul\":19441:19471   */\n      swap1\n      pop\n        /* \"#utility.yul\":19480:19513   */\n      tag_323\n        /* \"#utility.yul\":19508:19512   */\n      dup3\n        /* \"#utility.yul\":19500:19506   */\n      dup3\n        /* \"#utility.yul\":19480:19513   */\n      tag_324\n      jump\t// in\n    tag_323:\n        /* \"#utility.yul\":19390:19519   */\n      swap2\n      swap1\n      pop\n      jump\t// out\n        /* \"#utility.yul\":19525:19600   */\n    tag_322:\n        /* \"#utility.yul\":19558:19564   */\n      0x00\n        /* \"#utility.yul\":19591:19593   */\n      0x40\n        /* \"#utility.yul\":19585:19594   */\n      mload\n        /* \"#utility.yul\":19575:19594   */\n      swap1\n      pop\n        /* \"#utility.yul\":19525:19600   */\n      swap1\n      jump\t// out\n        /* \"#utility.yul\":19606:19914   */\n    tag_107:\n        /* \"#utility.yul\":19668:19672   */\n      0x00\n        /* \"#utility.yul\":19758:19776   */\n      0xffffffffffffffff\n        /* \"#utility.yul\":19750:19756   */\n      dup3\n        /* \"#utility.yul\":19747:19777   */\n      gt\n        /* \"#utility.yul\":19744:19800   */\n      iszero\n      tag_327\n      jumpi\n        /* \"#utility.yul\":19780:19798   */\n      tag_328\n      tag_329\n      jump\t// in\n    tag_328:\n        /* \"#utility.yul\":19744:19800   */\n    tag_327:\n        /* \"#utility.yul\":19818:19847   */\n      tag_330\n        /* \"#utility.yul\":19840:19846   */\n      dup3\n        /* \"#utility.yul\":19818:19847   */\n      tag_201\n      jump\t// in\n    tag_330:\n        /* \"#utility.yul\":19810:19847   */\n      swap1\n      pop\n        /* \"#utility.yul\":19902:19906   */\n      0x20\n        /* \"#utility.yul\":19896:19900   */\n      dup2\n        /* \"#utility.yul\":19892:19907   */\n      add\n        /* \"#utility.yul\":19884:19907   */\n      swap1\n      pop\n        /* \"#utility.yul\":19606:19914   */\n      swap2\n      swap1\n      pop\n      jump\t// out\n        /* \"#utility.yul\":19920:20019   */\n    tag_196:\n        /* \"#utility.yul\":19972:19978   */\n      0x00\n        /* \"#utility.yul\":20006:20011   */\n      dup2\n        /* \"#utility.yul\":20000:20012   */\n      mload\n        /* \"#utility.yul\":19990:20012   */\n      swap1\n      pop\n        /* \"#utility.yul\":19920:20019   */\n      swap2\n      swap1\n      pop\n      jump\t// out\n        /* \"#utility.yul\":20025:20194   */\n    tag_198:\n        /* \"#utility.yul\":20109:20120   */\n      0x00\n        /* \"#utility.yul\":20143:20149   */\n      dup3\n        /* \"#utility.yul\":20138:20141   */\n      dup3\n        /* \"#utility.yul\":20131:20150   */\n      mstore\n        /* \"#utility.yul\":20183:20187   */\n      0x20\n        /* \"#utility.yul\":20178:20181   */\n      dup3\n        /* \"#utility.yul\":20174:20188   */\n      add\n        /* \"#utility.yul\":20159:20188   */\n      swap1\n      pop\n        /* \"#utility.yul\":20025:20194   */\n      swap3\n      swap2\n      pop\n      pop\n      jump\t// out\n        /* \"#utility.yul\":20200:20348   */\n    tag_206:\n        /* \"#utility.yul\":20302:20313   */\n      0x00\n        /* \"#utility.yul\":20339:20342   */\n      dup2\n        /* \"#utility.yul\":20324:20342   */\n      swap1\n      pop\n        /* \"#utility.yul\":20200:20348   */\n      swap3\n      swap2\n      pop\n      pop\n      jump\t// out\n        /* \"#utility.yul\":20354:20545   */\n    tag_95:\n        /* \"#utility.yul\":20394:20398   */\n      0x00\n        /* \"#utility.yul\":20414:20434   */\n      tag_335\n        /* \"#utility.yul\":20432:20433   */\n      dup3\n        /* \"#utility.yul\":20414:20434   */\n      tag_266\n      jump\t// in\n    tag_335:\n        /* \"#utility.yul\":20409:20434   */\n      swap2\n      pop\n        /* \"#utility.yul\":20448:20468   */\n      tag_336\n        /* \"#utility.yul\":20466:20467   */\n      dup4\n        /* \"#utility.yul\":20448:20468   */\n      tag_266\n      jump\t// in\n    tag_336:\n        /* \"#utility.yul\":20443:20468   */\n      swap3\n      pop\n        /* \"#utility.yul\":20487:20488   */\n      dup3\n        /* \"#utility.yul\":20484:20485   */\n      dup3\n        /* \"#utility.yul\":20481:20489   */\n      lt\n        /* \"#utility.yul\":20478:20512   */\n      iszero\n      tag_337\n      jumpi\n        /* \"#utility.yul\":20492:20510   */\n      tag_338\n      tag_339\n      jump\t// in\n    tag_338:\n        /* \"#utility.yul\":20478:20512   */\n    tag_337:\n        /* \"#utility.yul\":20537:20538   */\n      dup3\n        /* \"#utility.yul\":20534:20535   */\n      dup3\n        /* \"#utility.yul\":20530:20539   */\n      sub\n        /* \"#utility.yul\":20522:20539   */\n      swap1\n      pop\n        /* \"#utility.yul\":20354:20545   */\n      swap3\n      swap2\n      pop\n      pop\n      jump\t// out\n        /* \"#utility.yul\":20551:20647   */\n    tag_188:\n        /* \"#utility.yul\":20588:20595   */\n      0x00\n        /* \"#utility.yul\":20617:20641   */\n      tag_341\n        /* \"#utility.yul\":20635:20640   */\n      dup3\n        /* \"#utility.yul\":20617:20641   */\n      tag_342\n      jump\t// in\n    tag_341:\n        /* \"#utility.yul\":20606:20641   */\n      swap1\n      pop\n        /* \"#utility.yul\":20551:20647   */\n      swap2\n      swap1\n      pop\n      jump\t// out\n        /* \"#utility.yul\":20653:20743   */\n    tag_192:\n        /* \"#utility.yul\":20687:20694   */\n      0x00\n        /* \"#utility.yul\":20730:20735   */\n      dup2\n        /* \"#utility.yul\":20723:20736   */\n      iszero\n        /* \"#utility.yul\":20716:20737   */\n      iszero\n        /* \"#utility.yul\":20705:20737   */\n      swap1\n      pop\n        /* \"#utility.yul\":20653:20743   */\n      swap2\n      swap1\n      pop\n      jump\t// out\n        /* \"#utility.yul\":20749:20875   */\n    tag_342:\n        /* \"#utility.yul\":20786:20793   */\n      0x00\n        /* \"#utility.yul\":20826:20868   */\n      0xffffffffffffffffffffffffffffffffffffffff\n        /* \"#utility.yul\":20819:20824   */\n      dup3\n        /* \"#utility.yul\":20815:20869   */\n      and\n        /* \"#utility.yul\":20804:20869   */\n      swap1\n      pop\n        /* \"#utility.yul\":20749:20875   */\n      swap2\n      swap1\n      pop\n      jump\t// out\n        /* \"#utility.yul\":20881:20958   */\n    tag_266:\n        /* \"#utility.yul\":20918:20925   */\n      0x00\n        /* \"#utility.yul\":20947:20952   */\n      dup2\n        /* \"#utility.yul\":20936:20952   */\n      swap1\n      pop\n        /* \"#utility.yul\":20881:20958   */\n      swap2\n      swap1\n      pop\n      jump\t// out\n        /* \"#utility.yul\":20964:21118   */\n    tag_113:\n        /* \"#utility.yul\":21048:21054   */\n      dup3\n        /* \"#utility.yul\":21043:21046   */\n      dup2\n        /* \"#utility.yul\":21038:21041   */\n      dup4\n        /* \"#utility.yul\":21025:21055   */\n      calldatacopy\n        /* \"#utility.yul\":21110:21111   */\n      0x00\n        /* \"#utility.yul\":21101:21107   */\n      dup4\n        /* \"#utility.yul\":21096:21099   */\n      dup4\n        /* \"#utility.yul\":21092:21108   */\n      add\n        /* \"#utility.yul\":21085:21112   */\n      mstore\n        /* \"#utility.yul\":20964:21118   */\n      pop\n      pop\n      pop\n      jump\t// out\n        /* \"#utility.yul\":21124:21431   */\n    tag_121:\n        /* \"#utility.yul\":21192:21193   */\n      0x00\n        /* \"#utility.yul\":21202:21315   */\n    tag_348:\n        /* \"#utility.yul\":21216:21222   */\n      dup4\n        /* \"#utility.yul\":21213:21214   */\n      dup2\n        /* \"#utility.yul\":21210:21223   */\n      lt\n        /* \"#utility.yul\":21202:21315   */\n      iszero\n      tag_350\n      jumpi\n        /* \"#utility.yul\":21301:21302   */\n      dup1\n        /* \"#utility.yul\":21296:21299   */\n      dup3\n        /* \"#utility.yul\":21292:21303   */\n      add\n        /* \"#utility.yul\":21286:21304   */\n      mload\n        /* \"#utility.yul\":21282:21283   */\n      dup2\n        /* \"#utility.yul\":21277:21280   */\n      dup5\n        /* \"#utility.yul\":21273:21284   */\n      add\n        /* \"#utility.yul\":21266:21305   */\n      mstore\n        /* \"#utility.yul\":21238:21240   */\n      0x20\n        /* \"#utility.yul\":21235:21236   */\n      dup2\n        /* \"#utility.yul\":21231:21241   */\n      add\n        /* \"#utility.yul\":21226:21241   */\n      swap1\n      pop\n        /* \"#utility.yul\":21202:21315   */\n      jump(tag_348)\n    tag_350:\n        /* \"#utility.yul\":21333:21339   */\n      dup4\n        /* \"#utility.yul\":21330:21331   */\n      dup2\n        /* \"#utility.yul\":21327:21340   */\n      gt\n        /* \"#utility.yul\":21324:21425   */\n      iszero\n      tag_351\n      jumpi\n        /* \"#utility.yul\":21413:21414   */\n      0x00\n        /* \"#utility.yul\":21404:21410   */\n      dup5\n        /* \"#utility.yul\":21399:21402   */\n      dup5\n        /* \"#utility.yul\":21395:21411   */\n      add\n        /* \"#utility.yul\":21388:21415   */\n      mstore\n        /* \"#utility.yul\":21324:21425   */\n    tag_351:\n        /* \"#utility.yul\":21173:21431   */\n      pop\n        /* \"#utility.yul\":21124:21431   */\n      pop\n      pop\n      pop\n      jump\t// out\n        /* \"#utility.yul\":21437:21718   */\n    tag_324:\n        /* \"#utility.yul\":21520:21547   */\n      tag_353\n        /* \"#utility.yul\":21542:21546   */\n      dup3\n        /* \"#utility.yul\":21520:21547   */\n      tag_201\n      jump\t// in\n    tag_353:\n        /* \"#utility.yul\":21512:21518   */\n      dup2\n        /* \"#utility.yul\":21508:21548   */\n      add\n        /* \"#utility.yul\":21650:21656   */\n      dup2\n        /* \"#utility.yul\":21638:21648   */\n      dup2\n        /* \"#utility.yul\":21635:21657   */\n      lt\n        /* \"#utility.yul\":21614:21632   */\n      0xffffffffffffffff\n        /* \"#utility.yul\":21602:21612   */\n      dup3\n        /* \"#utility.yul\":21599:21633   */\n      gt\n        /* \"#utility.yul\":21596:21658   */\n      or\n        /* \"#utility.yul\":21593:21681   */\n      iszero\n      tag_354\n      jumpi\n        /* \"#utility.yul\":21661:21679   */\n      tag_355\n      tag_329\n      jump\t// in\n    tag_355:\n        /* \"#utility.yul\":21593:21681   */\n    tag_354:\n        /* \"#utility.yul\":21701:21711   */\n      dup1\n        /* \"#utility.yul\":21697:21699   */\n      0x40\n        /* \"#utility.yul\":21690:21712   */\n      mstore\n        /* \"#utility.yul\":21480:21718   */\n      pop\n        /* \"#utility.yul\":21437:21718   */\n      pop\n      pop\n      jump\t// out\n        /* \"#utility.yul\":21724:21904   */\n    tag_339:\n        /* \"#utility.yul\":21772:21849   */\n      0x4e487b7100000000000000000000000000000000000000000000000000000000\n        /* \"#utility.yul\":21769:21770   */\n      0x00\n        /* \"#utility.yul\":21762:21850   */\n      mstore\n        /* \"#utility.yul\":21869:21873   */\n      0x11\n        /* \"#utility.yul\":21866:21867   */\n      0x04\n        /* \"#utility.yul\":21859:21874   */\n      mstore\n        /* \"#utility.yul\":21893:21897   */\n      0x24\n        /* \"#utility.yul\":21890:21891   */\n      0x00\n        /* \"#utility.yul\":21883:21898   */\n      revert\n        /* \"#utility.yul\":21910:22090   */\n    tag_329:\n        /* \"#utility.yul\":21958:22035   */\n      0x4e487b7100000000000000000000000000000000000000000000000000000000\n        /* \"#utility.yul\":21955:21956   */\n      0x00\n        /* \"#utility.yul\":21948:22036   */\n      mstore\n        /* \"#utility.yul\":22055:22059   */\n      0x41\n        /* \"#utility.yul\":22052:22053   */\n      0x04\n        /* \"#utility.yul\":22045:22060   */\n      mstore\n        /* \"#utility.yul\":22079:22083   */\n      0x24\n        /* \"#utility.yul\":22076:22077   */\n      0x00\n        /* \"#utility.yul\":22069:22084   */\n      revert\n        /* \"#utility.yul\":22096:22213   */\n    tag_134:\n        /* \"#utility.yul\":22205:22206   */\n      0x00\n        /* \"#utility.yul\":22202:22203   */\n      dup1\n        /* \"#utility.yul\":22195:22207   */\n      revert\n        /* \"#utility.yul\":22219:22336   */\n    tag_111:\n        /* \"#utility.yul\":22328:22329   */\n      0x00\n        /* \"#utility.yul\":22325:22326   */\n      dup1\n        /* \"#utility.yul\":22318:22330   */\n      revert\n        /* \"#utility.yul\":22342:22459   */\n    tag_157:\n        /* \"#utility.yul\":22451:22452   */\n      0x00\n        /* \"#utility.yul\":22448:22449   */\n      dup1\n        /* \"#utility.yul\":22441:22453   */\n      revert\n        /* \"#utility.yul\":22465:22582   */\n    tag_148:\n        /* \"#utility.yul\":22574:22575   */\n      0x00\n        /* \"#utility.yul\":22571:22572   */\n      dup1\n        /* \"#utility.yul\":22564:22576   */\n      revert\n        /* \"#utility.yul\":22588:22690   */\n    tag_201:\n        /* \"#utility.yul\":22629:22635   */\n      0x00\n        /* \"#utility.yul\":22680:22682   */\n      0x1f\n        /* \"#utility.yul\":22676:22683   */\n      not\n        /* \"#utility.yul\":22671:22673   */\n      0x1f\n        /* \"#utility.yul\":22664:22669   */\n      dup4\n        /* \"#utility.yul\":22660:22674   */\n      add\n        /* \"#utility.yul\":22656:22684   */\n      and\n        /* \"#utility.yul\":22646:22684   */\n      swap1\n      pop\n        /* \"#utility.yul\":22588:22690   */\n      swap2\n      swap1\n      pop\n      jump\t// out\n        /* \"#utility.yul\":22696:22851   */\n    tag_212:\n        /* \"#utility.yul\":22836:22843   */\n      0x636c6f7365000000000000000000000000000000000000000000000000000000\n        /* \"#utility.yul\":22832:22833   */\n      0x00\n        /* \"#utility.yul\":22824:22830   */\n      dup3\n        /* \"#utility.yul\":22820:22834   */\n      add\n        /* \"#utility.yul\":22813:22844   */\n      mstore\n        /* \"#utility.yul\":22696:22851   */\n      pop\n      jump\t// out\n        /* \"#utility.yul\":22857:23014   */\n    tag_217:\n        /* \"#utility.yul\":22997:23006   */\n      0x322e322e322e3200000000000000000000000000000000000000000000000000\n        /* \"#utility.yul\":22993:22994   */\n      0x00\n        /* \"#utility.yul\":22985:22991   */\n      dup3\n        /* \"#utility.yul\":22981:22995   */\n      add\n        /* \"#utility.yul\":22974:23007   */\n      mstore\n        /* \"#utility.yul\":22857:23014   */\n      pop\n      jump\t// out\n        /* \"#utility.yul\":23020:23182   */\n    tag_222:\n        /* \"#utility.yul\":23160:23174   */\n      0x4163636573732070617373210000000000000000000000000000000000000000\n        /* \"#utility.yul\":23156:23157   */\n      0x00\n        /* \"#utility.yul\":23148:23154   */\n      dup3\n        /* \"#utility.yul\":23144:23158   */\n      add\n        /* \"#utility.yul\":23137:23175   */\n      mstore\n        /* \"#utility.yul\":23020:23182   */\n      pop\n      jump\t// out\n        /* \"#utility.yul\":23188:23353   */\n    tag_227:\n        /* \"#utility.yul\":23328:23345   */\n      0x496c6c6567616c20616374696f6e210000000000000000000000000000000000\n        /* \"#utility.yul\":23324:23325   */\n      0x00\n        /* \"#utility.yul\":23316:23322   */\n      dup3\n        /* \"#utility.yul\":23312:23326   */\n      add\n        /* \"#utility.yul\":23305:23346   */\n      mstore\n        /* \"#utility.yul\":23188:23353   */\n      pop\n      jump\t// out\n        /* \"#utility.yul\":23359:23516   */\n    tag_232:\n        /* \"#utility.yul\":23499:23508   */\n      0x7265737461727400000000000000000000000000000000000000000000000000\n        /* \"#utility.yul\":23495:23496   */\n      0x00\n        /* \"#utility.yul\":23487:23493   */\n      dup3\n        /* \"#utility.yul\":23483:23497   */\n      add\n        /* \"#utility.yul\":23476:23509   */\n      mstore\n        /* \"#utility.yul\":23359:23516   */\n      pop\n      jump\t// out\n        /* \"#utility.yul\":23522:23691   */\n    tag_237:\n        /* \"#utility.yul\":23662:23683   */\n      0x496c6c6567616c20495020616464726573732100000000000000000000000000\n        /* \"#utility.yul\":23658:23659   */\n      0x00\n        /* \"#utility.yul\":23650:23656   */\n      dup3\n        /* \"#utility.yul\":23646:23660   */\n      add\n        /* \"#utility.yul\":23639:23684   */\n      mstore\n        /* \"#utility.yul\":23522:23691   */\n      pop\n      jump\t// out\n        /* \"#utility.yul\":23697:23851   */\n    tag_242:\n        /* \"#utility.yul\":23837:23843   */\n      0x6b696c6c00000000000000000000000000000000000000000000000000000000\n        /* \"#utility.yul\":23833:23834   */\n      0x00\n        /* \"#utility.yul\":23825:23831   */\n      dup3\n        /* \"#utility.yul\":23821:23835   */\n      add\n        /* \"#utility.yul\":23814:23844   */\n      mstore\n        /* \"#utility.yul\":23697:23851   */\n      pop\n      jump\t// out\n        /* \"#utility.yul\":23857:24011   */\n    tag_247:\n        /* \"#utility.yul\":23997:24003   */\n      0x6f70656e00000000000000000000000000000000000000000000000000000000\n        /* \"#utility.yul\":23993:23994   */\n      0x00\n        /* \"#utility.yul\":23985:23991   */\n      dup3\n        /* \"#utility.yul\":23981:23995   */\n      add\n        /* \"#utility.yul\":23974:24004   */\n      mstore\n        /* \"#utility.yul\":23857:24011   */\n      pop\n      jump\t// out\n        /* \"#utility.yul\":24017:24187   */\n    tag_252:\n        /* \"#utility.yul\":24157:24179   */\n      0x556e617574686f72697a65642061636365737321000000000000000000000000\n        /* \"#utility.yul\":24153:24154   */\n      0x00\n        /* \"#utility.yul\":24145:24151   */\n      dup3\n        /* \"#utility.yul\":24141:24155   */\n      add\n        /* \"#utility.yul\":24134:24180   */\n      mstore\n        /* \"#utility.yul\":24017:24187   */\n      pop\n      jump\t// out\n        /* \"#utility.yul\":24193:24375   */\n    tag_257:\n        /* \"#utility.yul\":24333:24367   */\n      0x5374696c6c20626c6f636b65642c20756e61626c6520746f2061636365737321\n        /* \"#utility.yul\":24329:24330   */\n      0x00\n        /* \"#utility.yul\":24321:24327   */\n      dup3\n        /* \"#utility.yul\":24317:24331   */\n      add\n        /* \"#utility.yul\":24310:24368   */\n      mstore\n        /* \"#utility.yul\":24193:24375   */\n      pop\n      jump\t// out\n        /* \"#utility.yul\":24381:24535   */\n    tag_262:\n        /* \"#utility.yul\":24521:24527   */\n      0x7265616400000000000000000000000000000000000000000000000000000000\n        /* \"#utility.yul\":24517:24518   */\n      0x00\n        /* \"#utility.yul\":24509:24515   */\n      dup3\n        /* \"#utility.yul\":24505:24519   */\n      add\n        /* \"#utility.yul\":24498:24528   */\n      mstore\n        /* \"#utility.yul\":24381:24535   */\n      pop\n      jump\t// out\n        /* \"#utility.yul\":24541:24663   */\n    tag_125:\n        /* \"#utility.yul\":24614:24638   */\n      tag_375\n        /* \"#utility.yul\":24632:24637   */\n      dup2\n        /* \"#utility.yul\":24614:24638   */\n      tag_188\n      jump\t// in\n    tag_375:\n        /* \"#utility.yul\":24607:24612   */\n      dup2\n        /* \"#utility.yul\":24604:24639   */\n      eq\n        /* \"#utility.yul\":24594:24657   */\n      tag_376\n      jumpi\n        /* \"#utility.yul\":24653:24654   */\n      0x00\n        /* \"#utility.yul\":24650:24651   */\n      dup1\n        /* \"#utility.yul\":24643:24655   */\n      revert\n        /* \"#utility.yul\":24594:24657   */\n    tag_376:\n        /* \"#utility.yul\":24541:24663   */\n      pop\n      jump\t// out\n        /* \"#utility.yul\":24669:24785   */\n    tag_129:\n        /* \"#utility.yul\":24739:24760   */\n      tag_378\n        /* \"#utility.yul\":24754:24759   */\n      dup2\n        /* \"#utility.yul\":24739:24760   */\n      tag_192\n      jump\t// in\n    tag_378:\n        /* \"#utility.yul\":24732:24737   */\n      dup2\n        /* \"#utility.yul\":24729:24761   */\n      eq\n        /* \"#utility.yul\":24719:24779   */\n      tag_379\n      jumpi\n        /* \"#utility.yul\":24775:24776   */\n      0x00\n        /* \"#utility.yul\":24772:24773   */\n      dup1\n        /* \"#utility.yul\":24765:24777   */\n      revert\n        /* \"#utility.yul\":24719:24779   */\n    tag_379:\n        /* \"#utility.yul\":24669:24785   */\n      pop\n      jump\t// out\n        /* \"#utility.yul\":24791:24913   */\n    tag_144:\n        /* \"#utility.yul\":24864:24888   */\n      tag_381\n        /* \"#utility.yul\":24882:24887   */\n      dup2\n        /* \"#utility.yul\":24864:24888   */\n      tag_266\n      jump\t// in\n    tag_381:\n        /* \"#utility.yul\":24857:24862   */\n      dup2\n        /* \"#utility.yul\":24854:24889   */\n      eq\n        /* \"#utility.yul\":24844:24907   */\n      tag_382\n      jumpi\n        /* \"#utility.yul\":24903:24904   */\n      0x00\n        /* \"#utility.yul\":24900:24901   */\n      dup1\n        /* \"#utility.yul\":24893:24905   */\n      revert\n        /* \"#utility.yul\":24844:24907   */\n    tag_382:\n        /* \"#utility.yul\":24791:24913   */\n      pop\n      jump\t// out\n\n    auxdata: 0xa26469706673582212203aa5ef5ec93d5ca51512ae2631dcf9013374aba4c696e86ab3ecdc64bded5eb264736f6c63430008070033\n}\n",
				"bytecode": {
					"linkReferences": {},
					"object": "608060405234801561001057600080fd5b50611587806100206000396000f3fe608060405234801561001057600080fd5b506004361061004c5760003560e01c806332076e7714610051578063a352ff6414610081578063c0821da3146100b1578063f09a4016146100cf575b600080fd5b61006b60048036038101906100669190610ab2565b6100eb565b6040516100789190611124565b60405180910390f35b61009b60048036038101906100969190610b0e565b6105cf565b6040516100a89190611124565b60405180910390f35b6100b96105fa565b6040516100c6919061113f565b60405180910390f35b6100e960048036038101906100e49190610a72565b610602565b005b60006100f5610764565b60006100ff6105fa565b9050600080600160009054906101000a900473ffffffffffffffffffffffffffffffffffffffff1673ffffffffffffffffffffffffffffffffffffffff1663169c9de0336040518263ffffffff1660e01b815260040161015f9190610f05565b604080518083038186803b15801561017657600080fd5b505afa15801561018a573d6000803e3d6000fd5b505050506040513d601f19601f820116820180604052508101906101ae9190610c18565b80935081925050508180156101c35750808311155b15610211577f365c8ddb6c298b196e110ce4bc267d2ed1319736bd9d74e983f0e9cf3202f697338787426040516101fd94939291906110c5565b60405180910390a1600093505050506105c9565b600160009054906101000a900473ffffffffffffffffffffffffffffffffffffffff1673ffffffffffffffffffffffffffffffffffffffff166339d319e5336040518263ffffffff1660e01b815260040161026c9190610f05565b600060405180830381600087803b15801561028657600080fd5b505af115801561029a573d6000803e3d6000fd5b5050505060008060009054906101000a900473ffffffffffffffffffffffffffffffffffffffff1673ffffffffffffffffffffffffffffffffffffffff16638749774f33896040518363ffffffff1660e01b81526004016102fc929190610f20565b60006040518083038186803b15801561031457600080fd5b505afa158015610328573d6000803e3d6000fd5b505050506040513d6000823e3d601f19601f820116820180604052508101906103519190610b57565b9050600061035e876105cf565b905080156103fa576002826040516103769190610e70565b9081526020016040518091039020546002886040516103959190610e70565b90815260200160405180910390205413156103f5577f365c8ddb6c298b196e110ce4bc267d2ed1319736bd9d74e983f0e9cf3202f697338989426040516103df9493929190611066565b60405180910390a16000955050505050506105c9565b610449565b7f365c8ddb6c298b196e110ce4bc267d2ed1319736bd9d74e983f0e9cf3202f6973389894260405161042f9493929190610fa8565b60405180910390a1600095506000955050505050506105c9565b60608060008054906101000a900473ffffffffffffffffffffffffffffffffffffffff1673ffffffffffffffffffffffffffffffffffffffff16639f764d16336040518263ffffffff1660e01b81526004016104a59190610f05565b60006040518083038186803b1580156104bd57600080fd5b505afa1580156104d1573d6000803e3d6000fd5b505050506040513d6000823e3d601f19601f820116820180604052508101906104fa9190610ba0565b80925081935050506003816040516105129190610e70565b908152602001604051809103902060009054906101000a900460ff1615610580577f365c8ddb6c298b196e110ce4bc267d2ed1319736bd9d74e983f0e9cf3202f697338b8b426040516105689493929190611007565b60405180910390a160009750505050505050506105c9565b7f365c8ddb6c298b196e110ce4bc267d2ed1319736bd9d74e983f0e9cf3202f697338b8b426040516105b59493929190610f49565b60405180910390a160019750505050505050505b92915050565b6000806002836040516105e29190610e70565b90815260200160405180910390205414159050919050565b600042905090565b816000806101000a81548173ffffffffffffffffffffffffffffffffffffffff021916908373ffffffffffffffffffffffffffffffffffffffff16021790555080600160006101000a81548173ffffffffffffffffffffffffffffffffffffffff021916908373ffffffffffffffffffffffffffffffffffffffff1602179055506001600260405161069390610ef0565b9081526020016040518091039020819055506002806040516106b490610edb565b9081526020016040518091039020819055506002806040516106d590610e87565b908152602001604051809103902081905550600360026040516106f790610eb1565b9081526020016040518091039020819055506003600260405161071990610ec6565b9081526020016040518091039020819055506001600360405161073b90610e9c565b908152602001604051809103902060006101000a81548160ff0219169083151502179055505050565b60011515600460003373ffffffffffffffffffffffffffffffffffffffff1673ffffffffffffffffffffffffffffffffffffffff16815260200190815260200160002060000160009054906101000a900460ff16151514156108ae576000600460003373ffffffffffffffffffffffffffffffffffffffff1673ffffffffffffffffffffffffffffffffffffffff168152602001908152602001600020600101544261081091906111d7565b9050600a81116108a857600160009054906101000a900473ffffffffffffffffffffffffffffffffffffffff1673ffffffffffffffffffffffffffffffffffffffff166372700241336040518263ffffffff1660e01b81526004016108759190610f05565b600060405180830381600087803b15801561088f57600080fd5b505af11580156108a3573d6000803e3d6000fd5b505050505b50610951565b6001600460003373ffffffffffffffffffffffffffffffffffffffff1673ffffffffffffffffffffffffffffffffffffffff16815260200190815260200160002060000160006101000a81548160ff02191690831515021790555042600460003373ffffffffffffffffffffffffffffffffffffffff1673ffffffffffffffffffffffffffffffffffffffff168152602001908152602001600020600101819055505b565b60006109666109618461117f565b61115a565b90508281526020810184848401111561098257610981611329565b5b61098d848285611253565b509392505050565b60006109a86109a38461117f565b61115a565b9050828152602081018484840111156109c4576109c3611329565b5b6109cf848285611262565b509392505050565b6000813590506109e68161150c565b92915050565b6000815190506109fb81611523565b92915050565b600082601f830112610a1657610a15611324565b5b8135610a26848260208601610953565b91505092915050565b600082601f830112610a4457610a43611324565b5b8151610a54848260208601610995565b91505092915050565b600081519050610a6c8161153a565b92915050565b60008060408385031215610a8957610a88611333565b5b6000610a97858286016109d7565b9250506020610aa8858286016109d7565b9150509250929050565b60008060408385031215610ac957610ac8611333565b5b6000610ad7858286016109d7565b925050602083013567ffffffffffffffff811115610af857610af761132e565b5b610b0485828601610a01565b9150509250929050565b600060208284031215610b2457610b23611333565b5b600082013567ffffffffffffffff811115610b4257610b4161132e565b5b610b4e84828501610a01565b91505092915050565b600060208284031215610b6d57610b6c611333565b5b600082015167ffffffffffffffff811115610b8b57610b8a61132e565b5b610b9784828501610a2f565b91505092915050565b60008060408385031215610bb757610bb6611333565b5b600083015167ffffffffffffffff811115610bd557610bd461132e565b5b610be185828601610a2f565b925050602083015167ffffffffffffffff811115610c0257610c0161132e565b5b610c0e85828601610a2f565b9150509250929050565b60008060408385031215610c2f57610c2e611333565b5b6000610c3d85828601610a5d565b9250506020610c4e858286016109ec565b9150509250929050565b610c618161120b565b82525050565b610c708161121d565b82525050565b6000610c81826111b0565b610c8b81856111bb565b9350610c9b818560208601611262565b610ca481611338565b840191505092915050565b6000610cba826111b0565b610cc481856111cc565b9350610cd4818560208601611262565b80840191505092915050565b6000610ced6005836111cc565b9150610cf882611349565b600582019050919050565b6000610d106007836111cc565b9150610d1b82611372565b600782019050919050565b6000610d33600c836111bb565b9150610d3e8261139b565b602082019050919050565b6000610d56600f836111bb565b9150610d61826113c4565b602082019050919050565b6000610d796007836111cc565b9150610d84826113ed565b600782019050919050565b6000610d9c6013836111bb565b9150610da782611416565b602082019050919050565b6000610dbf6004836111cc565b9150610dca8261143f565b600482019050919050565b6000610de26004836111cc565b9150610ded82611468565b600482019050919050565b6000610e056014836111bb565b9150610e1082611491565b602082019050919050565b6000610e286020836111bb565b9150610e33826114ba565b602082019050919050565b6000610e4b6004836111cc565b9150610e56826114e3565b600482019050919050565b610e6a81611249565b82525050565b6000610e7c8284610caf565b915081905092915050565b6000610e9282610ce0565b9150819050919050565b6000610ea782610d03565b9150819050919050565b6000610ebc82610d6c565b9150819050919050565b6000610ed182610db2565b9150819050919050565b6000610ee682610dd5565b9150819050919050565b6000610efb82610e3e565b9150819050919050565b6000602082019050610f1a6000830184610c58565b92915050565b6000604082019050610f356000830185610c58565b610f426020830184610c58565b9392505050565b600060a082019050610f5e6000830187610c58565b610f6b6020830186610c58565b8181036040830152610f7d8185610c76565b90508181036060830152610f9081610d26565b9050610f9f6080830184610e61565b95945050505050565b600060a082019050610fbd6000830187610c58565b610fca6020830186610c58565b8181036040830152610fdc8185610c76565b90508181036060830152610fef81610d49565b9050610ffe6080830184610e61565b95945050505050565b600060a08201905061101c6000830187610c58565b6110296020830186610c58565b818103604083015261103b8185610c76565b9050818103606083015261104e81610d8f565b905061105d6080830184610e61565b95945050505050565b600060a08201905061107b6000830187610c58565b6110886020830186610c58565b818103604083015261109a8185610c76565b905081810360608301526110ad81610df8565b90506110bc6080830184610e61565b95945050505050565b600060a0820190506110da6000830187610c58565b6110e76020830186610c58565b81810360408301526110f98185610c76565b9050818103606083015261110c81610e1b565b905061111b6080830184610e61565b95945050505050565b60006020820190506111396000830184610c67565b92915050565b60006020820190506111546000830184610e61565b92915050565b6000611164611175565b90506111708282611295565b919050565b6000604051905090565b600067ffffffffffffffff82111561119a576111996112f5565b5b6111a382611338565b9050602081019050919050565b600081519050919050565b600082825260208201905092915050565b600081905092915050565b60006111e282611249565b91506111ed83611249565b925082821015611200576111ff6112c6565b5b828203905092915050565b600061121682611229565b9050919050565b60008115159050919050565b600073ffffffffffffffffffffffffffffffffffffffff82169050919050565b6000819050919050565b82818337600083830152505050565b60005b83811015611280578082015181840152602081019050611265565b8381111561128f576000848401525b50505050565b61129e82611338565b810181811067ffffffffffffffff821117156112bd576112bc6112f5565b5b80604052505050565b7f4e487b7100000000000000000000000000000000000000000000000000000000600052601160045260246000fd5b7f4e487b7100000000000000000000000000000000000000000000000000000000600052604160045260246000fd5b600080fd5b600080fd5b600080fd5b600080fd5b6000601f19601f8301169050919050565b7f636c6f7365000000000000000000000000000000000000000000000000000000600082015250565b7f322e322e322e3200000000000000000000000000000000000000000000000000600082015250565b7f4163636573732070617373210000000000000000000000000000000000000000600082015250565b7f496c6c6567616c20616374696f6e210000000000000000000000000000000000600082015250565b7f7265737461727400000000000000000000000000000000000000000000000000600082015250565b7f496c6c6567616c20495020616464726573732100000000000000000000000000600082015250565b7f6b696c6c00000000000000000000000000000000000000000000000000000000600082015250565b7f6f70656e00000000000000000000000000000000000000000000000000000000600082015250565b7f556e617574686f72697a65642061636365737321000000000000000000000000600082015250565b7f5374696c6c20626c6f636b65642c20756e61626c6520746f2061636365737321600082015250565b7f7265616400000000000000000000000000000000000000000000000000000000600082015250565b6115158161120b565b811461152057600080fd5b50565b61152c8161121d565b811461153757600080fd5b50565b61154381611249565b811461154e57600080fd5b5056fea26469706673582212203aa5ef5ec93d5ca51512ae2631dcf9013374aba4c696e86ab3ecdc64bded5eb264736f6c63430008070033",
					"opcodes": "PUSH1 0x80 PUSH1 0x40 MSTORE CALLVALUE DUP1 ISZERO PUSH2 0x10 JUMPI PUSH1 0x0 DUP1 REVERT JUMPDEST POP PUSH2 0x1587 DUP1 PUSH2 0x20 PUSH1 0x0 CODECOPY PUSH1 0x0 RETURN INVALID PUSH1 0x80 PUSH1 0x40 MSTORE CALLVALUE DUP1 ISZERO PUSH2 0x10 JUMPI PUSH1 0x0 DUP1 REVERT JUMPDEST POP PUSH1 0x4 CALLDATASIZE LT PUSH2 0x4C JUMPI PUSH1 0x0 CALLDATALOAD PUSH1 0xE0 SHR DUP1 PUSH4 0x32076E77 EQ PUSH2 0x51 JUMPI DUP1 PUSH4 0xA352FF64 EQ PUSH2 0x81 JUMPI DUP1 PUSH4 0xC0821DA3 EQ PUSH2 0xB1 JUMPI DUP1 PUSH4 0xF09A4016 EQ PUSH2 0xCF JUMPI JUMPDEST PUSH1 0x0 DUP1 REVERT JUMPDEST PUSH2 0x6B PUSH1 0x4 DUP1 CALLDATASIZE SUB DUP2 ADD SWAP1 PUSH2 0x66 SWAP2 SWAP1 PUSH2 0xAB2 JUMP JUMPDEST PUSH2 0xEB JUMP JUMPDEST PUSH1 0x40 MLOAD PUSH2 0x78 SWAP2 SWAP1 PUSH2 0x1124 JUMP JUMPDEST PUSH1 0x40 MLOAD DUP1 SWAP2 SUB SWAP1 RETURN JUMPDEST PUSH2 0x9B PUSH1 0x4 DUP1 CALLDATASIZE SUB DUP2 ADD SWAP1 PUSH2 0x96 SWAP2 SWAP1 PUSH2 0xB0E JUMP JUMPDEST PUSH2 0x5CF JUMP JUMPDEST PUSH1 0x40 MLOAD PUSH2 0xA8 SWAP2 SWAP1 PUSH2 0x1124 JUMP JUMPDEST PUSH1 0x40 MLOAD DUP1 SWAP2 SUB SWAP1 RETURN JUMPDEST PUSH2 0xB9 PUSH2 0x5FA JUMP JUMPDEST PUSH1 0x40 MLOAD PUSH2 0xC6 SWAP2 SWAP1 PUSH2 0x113F JUMP JUMPDEST PUSH1 0x40 MLOAD DUP1 SWAP2 SUB SWAP1 RETURN JUMPDEST PUSH2 0xE9 PUSH1 0x4 DUP1 CALLDATASIZE SUB DUP2 ADD SWAP1 PUSH2 0xE4 SWAP2 SWAP1 PUSH2 0xA72 JUMP JUMPDEST PUSH2 0x602 JUMP JUMPDEST STOP JUMPDEST PUSH1 0x0 PUSH2 0xF5 PUSH2 0x764 JUMP JUMPDEST PUSH1 0x0 PUSH2 0xFF PUSH2 0x5FA JUMP JUMPDEST SWAP1 POP PUSH1 0x0 DUP1 PUSH1 0x1 PUSH1 0x0 SWAP1 SLOAD SWAP1 PUSH2 0x100 EXP SWAP1 DIV PUSH20 0xFFFFFFFFFFFFFFFFFFFFFFFFFFFFFFFFFFFFFFFF AND PUSH20 0xFFFFFFFFFFFFFFFFFFFFFFFFFFFFFFFFFFFFFFFF AND PUSH4 0x169C9DE0 CALLER PUSH1 0x40 MLOAD DUP3 PUSH4 0xFFFFFFFF AND PUSH1 0xE0 SHL DUP2 MSTORE PUSH1 0x4 ADD PUSH2 0x15F SWAP2 SWAP1 PUSH2 0xF05 JUMP JUMPDEST PUSH1 0x40 DUP1 MLOAD DUP1 DUP4 SUB DUP2 DUP7 DUP1 EXTCODESIZE ISZERO DUP1 ISZERO PUSH2 0x176 JUMPI PUSH1 0x0 DUP1 REVERT JUMPDEST POP GAS STATICCALL ISZERO DUP1 ISZERO PUSH2 0x18A JUMPI RETURNDATASIZE PUSH1 0x0 DUP1 RETURNDATACOPY RETURNDATASIZE PUSH1 0x0 REVERT JUMPDEST POP POP POP POP PUSH1 0x40 MLOAD RETURNDATASIZE PUSH1 0x1F NOT PUSH1 0x1F DUP3 ADD AND DUP3 ADD DUP1 PUSH1 0x40 MSTORE POP DUP2 ADD SWAP1 PUSH2 0x1AE SWAP2 SWAP1 PUSH2 0xC18 JUMP JUMPDEST DUP1 SWAP4 POP DUP2 SWAP3 POP POP POP DUP2 DUP1 ISZERO PUSH2 0x1C3 JUMPI POP DUP1 DUP4 GT ISZERO JUMPDEST ISZERO PUSH2 0x211 JUMPI PUSH32 0x365C8DDB6C298B196E110CE4BC267D2ED1319736BD9D74E983F0E9CF3202F697 CALLER DUP8 DUP8 TIMESTAMP PUSH1 0x40 MLOAD PUSH2 0x1FD SWAP5 SWAP4 SWAP3 SWAP2 SWAP1 PUSH2 0x10C5 JUMP JUMPDEST PUSH1 0x40 MLOAD DUP1 SWAP2 SUB SWAP1 LOG1 PUSH1 0x0 SWAP4 POP POP POP POP PUSH2 0x5C9 JUMP JUMPDEST PUSH1 0x1 PUSH1 0x0 SWAP1 SLOAD SWAP1 PUSH2 0x100 EXP SWAP1 DIV PUSH20 0xFFFFFFFFFFFFFFFFFFFFFFFFFFFFFFFFFFFFFFFF AND PUSH20 0xFFFFFFFFFFFFFFFFFFFFFFFFFFFFFFFFFFFFFFFF AND PUSH4 0x39D319E5 CALLER PUSH1 0x40 MLOAD DUP3 PUSH4 0xFFFFFFFF AND PUSH1 0xE0 SHL DUP2 MSTORE PUSH1 0x4 ADD PUSH2 0x26C SWAP2 SWAP1 PUSH2 0xF05 JUMP JUMPDEST PUSH1 0x0 PUSH1 0x40 MLOAD DUP1 DUP4 SUB DUP2 PUSH1 0x0 DUP8 DUP1 EXTCODESIZE ISZERO DUP1 ISZERO PUSH2 0x286 JUMPI PUSH1 0x0 DUP1 REVERT JUMPDEST POP GAS CALL ISZERO DUP1 ISZERO PUSH2 0x29A JUMPI RETURNDATASIZE PUSH1 0x0 DUP1 RETURNDATACOPY RETURNDATASIZE PUSH1 0x0 REVERT JUMPDEST POP POP POP POP PUSH1 0x0 DUP1 PUSH1 0x0 SWAP1 SLOAD SWAP1 PUSH2 0x100 EXP SWAP1 DIV PUSH20 0xFFFFFFFFFFFFFFFFFFFFFFFFFFFFFFFFFFFFFFFF AND PUSH20 0xFFFFFFFFFFFFFFFFFFFFFFFFFFFFFFFFFFFFFFFF AND PUSH4 0x8749774F CALLER DUP10 PUSH1 0x40 MLOAD DUP4 PUSH4 0xFFFFFFFF AND PUSH1 0xE0 SHL DUP2 MSTORE PUSH1 0x4 ADD PUSH2 0x2FC SWAP3 SWAP2 SWAP1 PUSH2 0xF20 JUMP JUMPDEST PUSH1 0x0 PUSH1 0x40 MLOAD DUP1 DUP4 SUB DUP2 DUP7 DUP1 EXTCODESIZE ISZERO DUP1 ISZERO PUSH2 0x314 JUMPI PUSH1 0x0 DUP1 REVERT JUMPDEST POP GAS STATICCALL ISZERO DUP1 ISZERO PUSH2 0x328 JUMPI RETURNDATASIZE PUSH1 0x0 DUP1 RETURNDATACOPY RETURNDATASIZE PUSH1 0x0 REVERT JUMPDEST POP POP POP POP PUSH1 0x40 MLOAD RETURNDATASIZE PUSH1 0x0 DUP3 RETURNDATACOPY RETURNDATASIZE PUSH1 0x1F NOT PUSH1 0x1F DUP3 ADD AND DUP3 ADD DUP1 PUSH1 0x40 MSTORE POP DUP2 ADD SWAP1 PUSH2 0x351 SWAP2 SWAP1 PUSH2 0xB57 JUMP JUMPDEST SWAP1 POP PUSH1 0x0 PUSH2 0x35E DUP8 PUSH2 0x5CF JUMP JUMPDEST SWAP1 POP DUP1 ISZERO PUSH2 0x3FA JUMPI PUSH1 0x2 DUP3 PUSH1 0x40 MLOAD PUSH2 0x376 SWAP2 SWAP1 PUSH2 0xE70 JUMP JUMPDEST SWAP1 DUP2 MSTORE PUSH1 0x20 ADD PUSH1 0x40 MLOAD DUP1 SWAP2 SUB SWAP1 KECCAK256 SLOAD PUSH1 0x2 DUP9 PUSH1 0x40 MLOAD PUSH2 0x395 SWAP2 SWAP1 PUSH2 0xE70 JUMP JUMPDEST SWAP1 DUP2 MSTORE PUSH1 0x20 ADD PUSH1 0x40 MLOAD DUP1 SWAP2 SUB SWAP1 KECCAK256 SLOAD SGT ISZERO PUSH2 0x3F5 JUMPI PUSH32 0x365C8DDB6C298B196E110CE4BC267D2ED1319736BD9D74E983F0E9CF3202F697 CALLER DUP10 DUP10 TIMESTAMP PUSH1 0x40 MLOAD PUSH2 0x3DF SWAP5 SWAP4 SWAP3 SWAP2 SWAP1 PUSH2 0x1066 JUMP JUMPDEST PUSH1 0x40 MLOAD DUP1 SWAP2 SUB SWAP1 LOG1 PUSH1 0x0 SWAP6 POP POP POP POP POP POP PUSH2 0x5C9 JUMP JUMPDEST PUSH2 0x449 JUMP JUMPDEST PUSH32 0x365C8DDB6C298B196E110CE4BC267D2ED1319736BD9D74E983F0E9CF3202F697 CALLER DUP10 DUP10 TIMESTAMP PUSH1 0x40 MLOAD PUSH2 0x42F SWAP5 SWAP4 SWAP3 SWAP2 SWAP1 PUSH2 0xFA8 JUMP JUMPDEST PUSH1 0x40 MLOAD DUP1 SWAP2 SUB SWAP1 LOG1 PUSH1 0x0 SWAP6 POP PUSH1 0x0 SWAP6 POP POP POP POP POP POP PUSH2 0x5C9 JUMP JUMPDEST PUSH1 0x60 DUP1 PUSH1 0x0 DUP1 SLOAD SWAP1 PUSH2 0x100 EXP SWAP1 DIV PUSH20 0xFFFFFFFFFFFFFFFFFFFFFFFFFFFFFFFFFFFFFFFF AND PUSH20 0xFFFFFFFFFFFFFFFFFFFFFFFFFFFFFFFFFFFFFFFF AND PUSH4 0x9F764D16 CALLER PUSH1 0x40 MLOAD DUP3 PUSH4 0xFFFFFFFF AND PUSH1 0xE0 SHL DUP2 MSTORE PUSH1 0x4 ADD PUSH2 0x4A5 SWAP2 SWAP1 PUSH2 0xF05 JUMP JUMPDEST PUSH1 0x0 PUSH1 0x40 MLOAD DUP1 DUP4 SUB DUP2 DUP7 DUP1 EXTCODESIZE ISZERO DUP1 ISZERO PUSH2 0x4BD JUMPI PUSH1 0x0 DUP1 REVERT JUMPDEST POP GAS STATICCALL ISZERO DUP1 ISZERO PUSH2 0x4D1 JUMPI RETURNDATASIZE PUSH1 0x0 DUP1 RETURNDATACOPY RETURNDATASIZE PUSH1 0x0 REVERT JUMPDEST POP POP POP POP PUSH1 0x40 MLOAD RETURNDATASIZE PUSH1 0x0 DUP3 RETURNDATACOPY RETURNDATASIZE PUSH1 0x1F NOT PUSH1 0x1F DUP3 ADD AND DUP3 ADD DUP1 PUSH1 0x40 MSTORE POP DUP2 ADD SWAP1 PUSH2 0x4FA SWAP2 SWAP1 PUSH2 0xBA0 JUMP JUMPDEST DUP1 SWAP3 POP DUP2 SWAP4 POP POP POP PUSH1 0x3 DUP2 PUSH1 0x40 MLOAD PUSH2 0x512 SWAP2 SWAP1 PUSH2 0xE70 JUMP JUMPDEST SWAP1 DUP2 MSTORE PUSH1 0x20 ADD PUSH1 0x40 MLOAD DUP1 SWAP2 SUB SWAP1 KECCAK256 PUSH1 0x0 SWAP1 SLOAD SWAP1 PUSH2 0x100 EXP SWAP1 DIV PUSH1 0xFF AND ISZERO PUSH2 0x580 JUMPI PUSH32 0x365C8DDB6C298B196E110CE4BC267D2ED1319736BD9D74E983F0E9CF3202F697 CALLER DUP12 DUP12 TIMESTAMP PUSH1 0x40 MLOAD PUSH2 0x568 SWAP5 SWAP4 SWAP3 SWAP2 SWAP1 PUSH2 0x1007 JUMP JUMPDEST PUSH1 0x40 MLOAD DUP1 SWAP2 SUB SWAP1 LOG1 PUSH1 0x0 SWAP8 POP POP POP POP POP POP POP POP PUSH2 0x5C9 JUMP JUMPDEST PUSH32 0x365C8DDB6C298B196E110CE4BC267D2ED1319736BD9D74E983F0E9CF3202F697 CALLER DUP12 DUP12 TIMESTAMP PUSH1 0x40 MLOAD PUSH2 0x5B5 SWAP5 SWAP4 SWAP3 SWAP2 SWAP1 PUSH2 0xF49 JUMP JUMPDEST PUSH1 0x40 MLOAD DUP1 SWAP2 SUB SWAP1 LOG1 PUSH1 0x1 SWAP8 POP POP POP POP POP POP POP POP JUMPDEST SWAP3 SWAP2 POP POP JUMP JUMPDEST PUSH1 0x0 DUP1 PUSH1 0x2 DUP4 PUSH1 0x40 MLOAD PUSH2 0x5E2 SWAP2 SWAP1 PUSH2 0xE70 JUMP JUMPDEST SWAP1 DUP2 MSTORE PUSH1 0x20 ADD PUSH1 0x40 MLOAD DUP1 SWAP2 SUB SWAP1 KECCAK256 SLOAD EQ ISZERO SWAP1 POP SWAP2 SWAP1 POP JUMP JUMPDEST PUSH1 0x0 TIMESTAMP SWAP1 POP SWAP1 JUMP JUMPDEST DUP2 PUSH1 0x0 DUP1 PUSH2 0x100 EXP DUP2 SLOAD DUP2 PUSH20 0xFFFFFFFFFFFFFFFFFFFFFFFFFFFFFFFFFFFFFFFF MUL NOT AND SWAP1 DUP4 PUSH20 0xFFFFFFFFFFFFFFFFFFFFFFFFFFFFFFFFFFFFFFFF AND MUL OR SWAP1 SSTORE POP DUP1 PUSH1 0x1 PUSH1 0x0 PUSH2 0x100 EXP DUP2 SLOAD DUP2 PUSH20 0xFFFFFFFFFFFFFFFFFFFFFFFFFFFFFFFFFFFFFFFF MUL NOT AND SWAP1 DUP4 PUSH20 0xFFFFFFFFFFFFFFFFFFFFFFFFFFFFFFFFFFFFFFFF AND MUL OR SWAP1 SSTORE POP PUSH1 0x1 PUSH1 0x2 PUSH1 0x40 MLOAD PUSH2 0x693 SWAP1 PUSH2 0xEF0 JUMP JUMPDEST SWAP1 DUP2 MSTORE PUSH1 0x20 ADD PUSH1 0x40 MLOAD DUP1 SWAP2 SUB SWAP1 KECCAK256 DUP2 SWAP1 SSTORE POP PUSH1 0x2 DUP1 PUSH1 0x40 MLOAD PUSH2 0x6B4 SWAP1 PUSH2 0xEDB JUMP JUMPDEST SWAP1 DUP2 MSTORE PUSH1 0x20 ADD PUSH1 0x40 MLOAD DUP1 SWAP2 SUB SWAP1 KECCAK256 DUP2 SWAP1 SSTORE POP PUSH1 0x2 DUP1 PUSH1 0x40 MLOAD PUSH2 0x6D5 SWAP1 PUSH2 0xE87 JUMP JUMPDEST SWAP1 DUP2 MSTORE PUSH1 0x20 ADD PUSH1 0x40 MLOAD DUP1 SWAP2 SUB SWAP1 KECCAK256 DUP2 SWAP1 SSTORE POP PUSH1 0x3 PUSH1 0x2 PUSH1 0x40 MLOAD PUSH2 0x6F7 SWAP1 PUSH2 0xEB1 JUMP JUMPDEST SWAP1 DUP2 MSTORE PUSH1 0x20 ADD PUSH1 0x40 MLOAD DUP1 SWAP2 SUB SWAP1 KECCAK256 DUP2 SWAP1 SSTORE POP PUSH1 0x3 PUSH1 0x2 PUSH1 0x40 MLOAD PUSH2 0x719 SWAP1 PUSH2 0xEC6 JUMP JUMPDEST SWAP1 DUP2 MSTORE PUSH1 0x20 ADD PUSH1 0x40 MLOAD DUP1 SWAP2 SUB SWAP1 KECCAK256 DUP2 SWAP1 SSTORE POP PUSH1 0x1 PUSH1 0x3 PUSH1 0x40 MLOAD PUSH2 0x73B SWAP1 PUSH2 0xE9C JUMP JUMPDEST SWAP1 DUP2 MSTORE PUSH1 0x20 ADD PUSH1 0x40 MLOAD DUP1 SWAP2 SUB SWAP1 KECCAK256 PUSH1 0x0 PUSH2 0x100 EXP DUP2 SLOAD DUP2 PUSH1 0xFF MUL NOT AND SWAP1 DUP4 ISZERO ISZERO MUL OR SWAP1 SSTORE POP POP POP JUMP JUMPDEST PUSH1 0x1 ISZERO ISZERO PUSH1 0x4 PUSH1 0x0 CALLER PUSH20 0xFFFFFFFFFFFFFFFFFFFFFFFFFFFFFFFFFFFFFFFF AND PUSH20 0xFFFFFFFFFFFFFFFFFFFFFFFFFFFFFFFFFFFFFFFF AND DUP2 MSTORE PUSH1 0x20 ADD SWAP1 DUP2 MSTORE PUSH1 0x20 ADD PUSH1 0x0 KECCAK256 PUSH1 0x0 ADD PUSH1 0x0 SWAP1 SLOAD SWAP1 PUSH2 0x100 EXP SWAP1 DIV PUSH1 0xFF AND ISZERO ISZERO EQ ISZERO PUSH2 0x8AE JUMPI PUSH1 0x0 PUSH1 0x4 PUSH1 0x0 CALLER PUSH20 0xFFFFFFFFFFFFFFFFFFFFFFFFFFFFFFFFFFFFFFFF AND PUSH20 0xFFFFFFFFFFFFFFFFFFFFFFFFFFFFFFFFFFFFFFFF AND DUP2 MSTORE PUSH1 0x20 ADD SWAP1 DUP2 MSTORE PUSH1 0x20 ADD PUSH1 0x0 KECCAK256 PUSH1 0x1 ADD SLOAD TIMESTAMP PUSH2 0x810 SWAP2 SWAP1 PUSH2 0x11D7 JUMP JUMPDEST SWAP1 POP PUSH1 0xA DUP2 GT PUSH2 0x8A8 JUMPI PUSH1 0x1 PUSH1 0x0 SWAP1 SLOAD SWAP1 PUSH2 0x100 EXP SWAP1 DIV PUSH20 0xFFFFFFFFFFFFFFFFFFFFFFFFFFFFFFFFFFFFFFFF AND PUSH20 0xFFFFFFFFFFFFFFFFFFFFFFFFFFFFFFFFFFFFFFFF AND PUSH4 0x72700241 CALLER PUSH1 0x40 MLOAD DUP3 PUSH4 0xFFFFFFFF AND PUSH1 0xE0 SHL DUP2 MSTORE PUSH1 0x4 ADD PUSH2 0x875 SWAP2 SWAP1 PUSH2 0xF05 JUMP JUMPDEST PUSH1 0x0 PUSH1 0x40 MLOAD DUP1 DUP4 SUB DUP2 PUSH1 0x0 DUP8 DUP1 EXTCODESIZE ISZERO DUP1 ISZERO PUSH2 0x88F JUMPI PUSH1 0x0 DUP1 REVERT JUMPDEST POP GAS CALL ISZERO DUP1 ISZERO PUSH2 0x8A3 JUMPI RETURNDATASIZE PUSH1 0x0 DUP1 RETURNDATACOPY RETURNDATASIZE PUSH1 0x0 REVERT JUMPDEST POP POP POP POP JUMPDEST POP PUSH2 0x951 JUMP JUMPDEST PUSH1 0x1 PUSH1 0x4 PUSH1 0x0 CALLER PUSH20 0xFFFFFFFFFFFFFFFFFFFFFFFFFFFFFFFFFFFFFFFF AND PUSH20 0xFFFFFFFFFFFFFFFFFFFFFFFFFFFFFFFFFFFFFFFF AND DUP2 MSTORE PUSH1 0x20 ADD SWAP1 DUP2 MSTORE PUSH1 0x20 ADD PUSH1 0x0 KECCAK256 PUSH1 0x0 ADD PUSH1 0x0 PUSH2 0x100 EXP DUP2 SLOAD DUP2 PUSH1 0xFF MUL NOT AND SWAP1 DUP4 ISZERO ISZERO MUL OR SWAP1 SSTORE POP TIMESTAMP PUSH1 0x4 PUSH1 0x0 CALLER PUSH20 0xFFFFFFFFFFFFFFFFFFFFFFFFFFFFFFFFFFFFFFFF AND PUSH20 0xFFFFFFFFFFFFFFFFFFFFFFFFFFFFFFFFFFFFFFFF AND DUP2 MSTORE PUSH1 0x20 ADD SWAP1 DUP2 MSTORE PUSH1 0x20 ADD PUSH1 0x0 KECCAK256 PUSH1 0x1 ADD DUP2 SWAP1 SSTORE POP JUMPDEST JUMP JUMPDEST PUSH1 0x0 PUSH2 0x966 PUSH2 0x961 DUP5 PUSH2 0x117F JUMP JUMPDEST PUSH2 0x115A JUMP JUMPDEST SWAP1 POP DUP3 DUP2 MSTORE PUSH1 0x20 DUP2 ADD DUP5 DUP5 DUP5 ADD GT ISZERO PUSH2 0x982 JUMPI PUSH2 0x981 PUSH2 0x1329 JUMP JUMPDEST JUMPDEST PUSH2 0x98D DUP5 DUP3 DUP6 PUSH2 0x1253 JUMP JUMPDEST POP SWAP4 SWAP3 POP POP POP JUMP JUMPDEST PUSH1 0x0 PUSH2 0x9A8 PUSH2 0x9A3 DUP5 PUSH2 0x117F JUMP JUMPDEST PUSH2 0x115A JUMP JUMPDEST SWAP1 POP DUP3 DUP2 MSTORE PUSH1 0x20 DUP2 ADD DUP5 DUP5 DUP5 ADD GT ISZERO PUSH2 0x9C4 JUMPI PUSH2 0x9C3 PUSH2 0x1329 JUMP JUMPDEST JUMPDEST PUSH2 0x9CF DUP5 DUP3 DUP6 PUSH2 0x1262 JUMP JUMPDEST POP SWAP4 SWAP3 POP POP POP JUMP JUMPDEST PUSH1 0x0 DUP2 CALLDATALOAD SWAP1 POP PUSH2 0x9E6 DUP2 PUSH2 0x150C JUMP JUMPDEST SWAP3 SWAP2 POP POP JUMP JUMPDEST PUSH1 0x0 DUP2 MLOAD SWAP1 POP PUSH2 0x9FB DUP2 PUSH2 0x1523 JUMP JUMPDEST SWAP3 SWAP2 POP POP JUMP JUMPDEST PUSH1 0x0 DUP3 PUSH1 0x1F DUP4 ADD SLT PUSH2 0xA16 JUMPI PUSH2 0xA15 PUSH2 0x1324 JUMP JUMPDEST JUMPDEST DUP2 CALLDATALOAD PUSH2 0xA26 DUP5 DUP3 PUSH1 0x20 DUP7 ADD PUSH2 0x953 JUMP JUMPDEST SWAP2 POP POP SWAP3 SWAP2 POP POP JUMP JUMPDEST PUSH1 0x0 DUP3 PUSH1 0x1F DUP4 ADD SLT PUSH2 0xA44 JUMPI PUSH2 0xA43 PUSH2 0x1324 JUMP JUMPDEST JUMPDEST DUP2 MLOAD PUSH2 0xA54 DUP5 DUP3 PUSH1 0x20 DUP7 ADD PUSH2 0x995 JUMP JUMPDEST SWAP2 POP POP SWAP3 SWAP2 POP POP JUMP JUMPDEST PUSH1 0x0 DUP2 MLOAD SWAP1 POP PUSH2 0xA6C DUP2 PUSH2 0x153A JUMP JUMPDEST SWAP3 SWAP2 POP POP JUMP JUMPDEST PUSH1 0x0 DUP1 PUSH1 0x40 DUP4 DUP6 SUB SLT ISZERO PUSH2 0xA89 JUMPI PUSH2 0xA88 PUSH2 0x1333 JUMP JUMPDEST JUMPDEST PUSH1 0x0 PUSH2 0xA97 DUP6 DUP3 DUP7 ADD PUSH2 0x9D7 JUMP JUMPDEST SWAP3 POP POP PUSH1 0x20 PUSH2 0xAA8 DUP6 DUP3 DUP7 ADD PUSH2 0x9D7 JUMP JUMPDEST SWAP2 POP POP SWAP3 POP SWAP3 SWAP1 POP JUMP JUMPDEST PUSH1 0x0 DUP1 PUSH1 0x40 DUP4 DUP6 SUB SLT ISZERO PUSH2 0xAC9 JUMPI PUSH2 0xAC8 PUSH2 0x1333 JUMP JUMPDEST JUMPDEST PUSH1 0x0 PUSH2 0xAD7 DUP6 DUP3 DUP7 ADD PUSH2 0x9D7 JUMP JUMPDEST SWAP3 POP POP PUSH1 0x20 DUP4 ADD CALLDATALOAD PUSH8 0xFFFFFFFFFFFFFFFF DUP2 GT ISZERO PUSH2 0xAF8 JUMPI PUSH2 0xAF7 PUSH2 0x132E JUMP JUMPDEST JUMPDEST PUSH2 0xB04 DUP6 DUP3 DUP7 ADD PUSH2 0xA01 JUMP JUMPDEST SWAP2 POP POP SWAP3 POP SWAP3 SWAP1 POP JUMP JUMPDEST PUSH1 0x0 PUSH1 0x20 DUP3 DUP5 SUB SLT ISZERO PUSH2 0xB24 JUMPI PUSH2 0xB23 PUSH2 0x1333 JUMP JUMPDEST JUMPDEST PUSH1 0x0 DUP3 ADD CALLDATALOAD PUSH8 0xFFFFFFFFFFFFFFFF DUP2 GT ISZERO PUSH2 0xB42 JUMPI PUSH2 0xB41 PUSH2 0x132E JUMP JUMPDEST JUMPDEST PUSH2 0xB4E DUP5 DUP3 DUP6 ADD PUSH2 0xA01 JUMP JUMPDEST SWAP2 POP POP SWAP3 SWAP2 POP POP JUMP JUMPDEST PUSH1 0x0 PUSH1 0x20 DUP3 DUP5 SUB SLT ISZERO PUSH2 0xB6D JUMPI PUSH2 0xB6C PUSH2 0x1333 JUMP JUMPDEST JUMPDEST PUSH1 0x0 DUP3 ADD MLOAD PUSH8 0xFFFFFFFFFFFFFFFF DUP2 GT ISZERO PUSH2 0xB8B JUMPI PUSH2 0xB8A PUSH2 0x132E JUMP JUMPDEST JUMPDEST PUSH2 0xB97 DUP5 DUP3 DUP6 ADD PUSH2 0xA2F JUMP JUMPDEST SWAP2 POP POP SWAP3 SWAP2 POP POP JUMP JUMPDEST PUSH1 0x0 DUP1 PUSH1 0x40 DUP4 DUP6 SUB SLT ISZERO PUSH2 0xBB7 JUMPI PUSH2 0xBB6 PUSH2 0x1333 JUMP JUMPDEST JUMPDEST PUSH1 0x0 DUP4 ADD MLOAD PUSH8 0xFFFFFFFFFFFFFFFF DUP2 GT ISZERO PUSH2 0xBD5 JUMPI PUSH2 0xBD4 PUSH2 0x132E JUMP JUMPDEST JUMPDEST PUSH2 0xBE1 DUP6 DUP3 DUP7 ADD PUSH2 0xA2F JUMP JUMPDEST SWAP3 POP POP PUSH1 0x20 DUP4 ADD MLOAD PUSH8 0xFFFFFFFFFFFFFFFF DUP2 GT ISZERO PUSH2 0xC02 JUMPI PUSH2 0xC01 PUSH2 0x132E JUMP JUMPDEST JUMPDEST PUSH2 0xC0E DUP6 DUP3 DUP7 ADD PUSH2 0xA2F JUMP JUMPDEST SWAP2 POP POP SWAP3 POP SWAP3 SWAP1 POP JUMP JUMPDEST PUSH1 0x0 DUP1 PUSH1 0x40 DUP4 DUP6 SUB SLT ISZERO PUSH2 0xC2F JUMPI PUSH2 0xC2E PUSH2 0x1333 JUMP JUMPDEST JUMPDEST PUSH1 0x0 PUSH2 0xC3D DUP6 DUP3 DUP7 ADD PUSH2 0xA5D JUMP JUMPDEST SWAP3 POP POP PUSH1 0x20 PUSH2 0xC4E DUP6 DUP3 DUP7 ADD PUSH2 0x9EC JUMP JUMPDEST SWAP2 POP POP SWAP3 POP SWAP3 SWAP1 POP JUMP JUMPDEST PUSH2 0xC61 DUP2 PUSH2 0x120B JUMP JUMPDEST DUP3 MSTORE POP POP JUMP JUMPDEST PUSH2 0xC70 DUP2 PUSH2 0x121D JUMP JUMPDEST DUP3 MSTORE POP POP JUMP JUMPDEST PUSH1 0x0 PUSH2 0xC81 DUP3 PUSH2 0x11B0 JUMP JUMPDEST PUSH2 0xC8B DUP2 DUP6 PUSH2 0x11BB JUMP JUMPDEST SWAP4 POP PUSH2 0xC9B DUP2 DUP6 PUSH1 0x20 DUP7 ADD PUSH2 0x1262 JUMP JUMPDEST PUSH2 0xCA4 DUP2 PUSH2 0x1338 JUMP JUMPDEST DUP5 ADD SWAP2 POP POP SWAP3 SWAP2 POP POP JUMP JUMPDEST PUSH1 0x0 PUSH2 0xCBA DUP3 PUSH2 0x11B0 JUMP JUMPDEST PUSH2 0xCC4 DUP2 DUP6 PUSH2 0x11CC JUMP JUMPDEST SWAP4 POP PUSH2 0xCD4 DUP2 DUP6 PUSH1 0x20 DUP7 ADD PUSH2 0x1262 JUMP JUMPDEST DUP1 DUP5 ADD SWAP2 POP POP SWAP3 SWAP2 POP POP JUMP JUMPDEST PUSH1 0x0 PUSH2 0xCED PUSH1 0x5 DUP4 PUSH2 0x11CC JUMP JUMPDEST SWAP2 POP PUSH2 0xCF8 DUP3 PUSH2 0x1349 JUMP JUMPDEST PUSH1 0x5 DUP3 ADD SWAP1 POP SWAP2 SWAP1 POP JUMP JUMPDEST PUSH1 0x0 PUSH2 0xD10 PUSH1 0x7 DUP4 PUSH2 0x11CC JUMP JUMPDEST SWAP2 POP PUSH2 0xD1B DUP3 PUSH2 0x1372 JUMP JUMPDEST PUSH1 0x7 DUP3 ADD SWAP1 POP SWAP2 SWAP1 POP JUMP JUMPDEST PUSH1 0x0 PUSH2 0xD33 PUSH1 0xC DUP4 PUSH2 0x11BB JUMP JUMPDEST SWAP2 POP PUSH2 0xD3E DUP3 PUSH2 0x139B JUMP JUMPDEST PUSH1 0x20 DUP3 ADD SWAP1 POP SWAP2 SWAP1 POP JUMP JUMPDEST PUSH1 0x0 PUSH2 0xD56 PUSH1 0xF DUP4 PUSH2 0x11BB JUMP JUMPDEST SWAP2 POP PUSH2 0xD61 DUP3 PUSH2 0x13C4 JUMP JUMPDEST PUSH1 0x20 DUP3 ADD SWAP1 POP SWAP2 SWAP1 POP JUMP JUMPDEST PUSH1 0x0 PUSH2 0xD79 PUSH1 0x7 DUP4 PUSH2 0x11CC JUMP JUMPDEST SWAP2 POP PUSH2 0xD84 DUP3 PUSH2 0x13ED JUMP JUMPDEST PUSH1 0x7 DUP3 ADD SWAP1 POP SWAP2 SWAP1 POP JUMP JUMPDEST PUSH1 0x0 PUSH2 0xD9C PUSH1 0x13 DUP4 PUSH2 0x11BB JUMP JUMPDEST SWAP2 POP PUSH2 0xDA7 DUP3 PUSH2 0x1416 JUMP JUMPDEST PUSH1 0x20 DUP3 ADD SWAP1 POP SWAP2 SWAP1 POP JUMP JUMPDEST PUSH1 0x0 PUSH2 0xDBF PUSH1 0x4 DUP4 PUSH2 0x11CC JUMP JUMPDEST SWAP2 POP PUSH2 0xDCA DUP3 PUSH2 0x143F JUMP JUMPDEST PUSH1 0x4 DUP3 ADD SWAP1 POP SWAP2 SWAP1 POP JUMP JUMPDEST PUSH1 0x0 PUSH2 0xDE2 PUSH1 0x4 DUP4 PUSH2 0x11CC JUMP JUMPDEST SWAP2 POP PUSH2 0xDED DUP3 PUSH2 0x1468 JUMP JUMPDEST PUSH1 0x4 DUP3 ADD SWAP1 POP SWAP2 SWAP1 POP JUMP JUMPDEST PUSH1 0x0 PUSH2 0xE05 PUSH1 0x14 DUP4 PUSH2 0x11BB JUMP JUMPDEST SWAP2 POP PUSH2 0xE10 DUP3 PUSH2 0x1491 JUMP JUMPDEST PUSH1 0x20 DUP3 ADD SWAP1 POP SWAP2 SWAP1 POP JUMP JUMPDEST PUSH1 0x0 PUSH2 0xE28 PUSH1 0x20 DUP4 PUSH2 0x11BB JUMP JUMPDEST SWAP2 POP PUSH2 0xE33 DUP3 PUSH2 0x14BA JUMP JUMPDEST PUSH1 0x20 DUP3 ADD SWAP1 POP SWAP2 SWAP1 POP JUMP JUMPDEST PUSH1 0x0 PUSH2 0xE4B PUSH1 0x4 DUP4 PUSH2 0x11CC JUMP JUMPDEST SWAP2 POP PUSH2 0xE56 DUP3 PUSH2 0x14E3 JUMP JUMPDEST PUSH1 0x4 DUP3 ADD SWAP1 POP SWAP2 SWAP1 POP JUMP JUMPDEST PUSH2 0xE6A DUP2 PUSH2 0x1249 JUMP JUMPDEST DUP3 MSTORE POP POP JUMP JUMPDEST PUSH1 0x0 PUSH2 0xE7C DUP3 DUP5 PUSH2 0xCAF JUMP JUMPDEST SWAP2 POP DUP2 SWAP1 POP SWAP3 SWAP2 POP POP JUMP JUMPDEST PUSH1 0x0 PUSH2 0xE92 DUP3 PUSH2 0xCE0 JUMP JUMPDEST SWAP2 POP DUP2 SWAP1 POP SWAP2 SWAP1 POP JUMP JUMPDEST PUSH1 0x0 PUSH2 0xEA7 DUP3 PUSH2 0xD03 JUMP JUMPDEST SWAP2 POP DUP2 SWAP1 POP SWAP2 SWAP1 POP JUMP JUMPDEST PUSH1 0x0 PUSH2 0xEBC DUP3 PUSH2 0xD6C JUMP JUMPDEST SWAP2 POP DUP2 SWAP1 POP SWAP2 SWAP1 POP JUMP JUMPDEST PUSH1 0x0 PUSH2 0xED1 DUP3 PUSH2 0xDB2 JUMP JUMPDEST SWAP2 POP DUP2 SWAP1 POP SWAP2 SWAP1 POP JUMP JUMPDEST PUSH1 0x0 PUSH2 0xEE6 DUP3 PUSH2 0xDD5 JUMP JUMPDEST SWAP2 POP DUP2 SWAP1 POP SWAP2 SWAP1 POP JUMP JUMPDEST PUSH1 0x0 PUSH2 0xEFB DUP3 PUSH2 0xE3E JUMP JUMPDEST SWAP2 POP DUP2 SWAP1 POP SWAP2 SWAP1 POP JUMP JUMPDEST PUSH1 0x0 PUSH1 0x20 DUP3 ADD SWAP1 POP PUSH2 0xF1A PUSH1 0x0 DUP4 ADD DUP5 PUSH2 0xC58 JUMP JUMPDEST SWAP3 SWAP2 POP POP JUMP JUMPDEST PUSH1 0x0 PUSH1 0x40 DUP3 ADD SWAP1 POP PUSH2 0xF35 PUSH1 0x0 DUP4 ADD DUP6 PUSH2 0xC58 JUMP JUMPDEST PUSH2 0xF42 PUSH1 0x20 DUP4 ADD DUP5 PUSH2 0xC58 JUMP JUMPDEST SWAP4 SWAP3 POP POP POP JUMP JUMPDEST PUSH1 0x0 PUSH1 0xA0 DUP3 ADD SWAP1 POP PUSH2 0xF5E PUSH1 0x0 DUP4 ADD DUP8 PUSH2 0xC58 JUMP JUMPDEST PUSH2 0xF6B PUSH1 0x20 DUP4 ADD DUP7 PUSH2 0xC58 JUMP JUMPDEST DUP2 DUP2 SUB PUSH1 0x40 DUP4 ADD MSTORE PUSH2 0xF7D DUP2 DUP6 PUSH2 0xC76 JUMP JUMPDEST SWAP1 POP DUP2 DUP2 SUB PUSH1 0x60 DUP4 ADD MSTORE PUSH2 0xF90 DUP2 PUSH2 0xD26 JUMP JUMPDEST SWAP1 POP PUSH2 0xF9F PUSH1 0x80 DUP4 ADD DUP5 PUSH2 0xE61 JUMP JUMPDEST SWAP6 SWAP5 POP POP POP POP POP JUMP JUMPDEST PUSH1 0x0 PUSH1 0xA0 DUP3 ADD SWAP1 POP PUSH2 0xFBD PUSH1 0x0 DUP4 ADD DUP8 PUSH2 0xC58 JUMP JUMPDEST PUSH2 0xFCA PUSH1 0x20 DUP4 ADD DUP7 PUSH2 0xC58 JUMP JUMPDEST DUP2 DUP2 SUB PUSH1 0x40 DUP4 ADD MSTORE PUSH2 0xFDC DUP2 DUP6 PUSH2 0xC76 JUMP JUMPDEST SWAP1 POP DUP2 DUP2 SUB PUSH1 0x60 DUP4 ADD MSTORE PUSH2 0xFEF DUP2 PUSH2 0xD49 JUMP JUMPDEST SWAP1 POP PUSH2 0xFFE PUSH1 0x80 DUP4 ADD DUP5 PUSH2 0xE61 JUMP JUMPDEST SWAP6 SWAP5 POP POP POP POP POP JUMP JUMPDEST PUSH1 0x0 PUSH1 0xA0 DUP3 ADD SWAP1 POP PUSH2 0x101C PUSH1 0x0 DUP4 ADD DUP8 PUSH2 0xC58 JUMP JUMPDEST PUSH2 0x1029 PUSH1 0x20 DUP4 ADD DUP7 PUSH2 0xC58 JUMP JUMPDEST DUP2 DUP2 SUB PUSH1 0x40 DUP4 ADD MSTORE PUSH2 0x103B DUP2 DUP6 PUSH2 0xC76 JUMP JUMPDEST SWAP1 POP DUP2 DUP2 SUB PUSH1 0x60 DUP4 ADD MSTORE PUSH2 0x104E DUP2 PUSH2 0xD8F JUMP JUMPDEST SWAP1 POP PUSH2 0x105D PUSH1 0x80 DUP4 ADD DUP5 PUSH2 0xE61 JUMP JUMPDEST SWAP6 SWAP5 POP POP POP POP POP JUMP JUMPDEST PUSH1 0x0 PUSH1 0xA0 DUP3 ADD SWAP1 POP PUSH2 0x107B PUSH1 0x0 DUP4 ADD DUP8 PUSH2 0xC58 JUMP JUMPDEST PUSH2 0x1088 PUSH1 0x20 DUP4 ADD DUP7 PUSH2 0xC58 JUMP JUMPDEST DUP2 DUP2 SUB PUSH1 0x40 DUP4 ADD MSTORE PUSH2 0x109A DUP2 DUP6 PUSH2 0xC76 JUMP JUMPDEST SWAP1 POP DUP2 DUP2 SUB PUSH1 0x60 DUP4 ADD MSTORE PUSH2 0x10AD DUP2 PUSH2 0xDF8 JUMP JUMPDEST SWAP1 POP PUSH2 0x10BC PUSH1 0x80 DUP4 ADD DUP5 PUSH2 0xE61 JUMP JUMPDEST SWAP6 SWAP5 POP POP POP POP POP JUMP JUMPDEST PUSH1 0x0 PUSH1 0xA0 DUP3 ADD SWAP1 POP PUSH2 0x10DA PUSH1 0x0 DUP4 ADD DUP8 PUSH2 0xC58 JUMP JUMPDEST PUSH2 0x10E7 PUSH1 0x20 DUP4 ADD DUP7 PUSH2 0xC58 JUMP JUMPDEST DUP2 DUP2 SUB PUSH1 0x40 DUP4 ADD MSTORE PUSH2 0x10F9 DUP2 DUP6 PUSH2 0xC76 JUMP JUMPDEST SWAP1 POP DUP2 DUP2 SUB PUSH1 0x60 DUP4 ADD MSTORE PUSH2 0x110C DUP2 PUSH2 0xE1B JUMP JUMPDEST SWAP1 POP PUSH2 0x111B PUSH1 0x80 DUP4 ADD DUP5 PUSH2 0xE61 JUMP JUMPDEST SWAP6 SWAP5 POP POP POP POP POP JUMP JUMPDEST PUSH1 0x0 PUSH1 0x20 DUP3 ADD SWAP1 POP PUSH2 0x1139 PUSH1 0x0 DUP4 ADD DUP5 PUSH2 0xC67 JUMP JUMPDEST SWAP3 SWAP2 POP POP JUMP JUMPDEST PUSH1 0x0 PUSH1 0x20 DUP3 ADD SWAP1 POP PUSH2 0x1154 PUSH1 0x0 DUP4 ADD DUP5 PUSH2 0xE61 JUMP JUMPDEST SWAP3 SWAP2 POP POP JUMP JUMPDEST PUSH1 0x0 PUSH2 0x1164 PUSH2 0x1175 JUMP JUMPDEST SWAP1 POP PUSH2 0x1170 DUP3 DUP3 PUSH2 0x1295 JUMP JUMPDEST SWAP2 SWAP1 POP JUMP JUMPDEST PUSH1 0x0 PUSH1 0x40 MLOAD SWAP1 POP SWAP1 JUMP JUMPDEST PUSH1 0x0 PUSH8 0xFFFFFFFFFFFFFFFF DUP3 GT ISZERO PUSH2 0x119A JUMPI PUSH2 0x1199 PUSH2 0x12F5 JUMP JUMPDEST JUMPDEST PUSH2 0x11A3 DUP3 PUSH2 0x1338 JUMP JUMPDEST SWAP1 POP PUSH1 0x20 DUP2 ADD SWAP1 POP SWAP2 SWAP1 POP JUMP JUMPDEST PUSH1 0x0 DUP2 MLOAD SWAP1 POP SWAP2 SWAP1 POP JUMP JUMPDEST PUSH1 0x0 DUP3 DUP3 MSTORE PUSH1 0x20 DUP3 ADD SWAP1 POP SWAP3 SWAP2 POP POP JUMP JUMPDEST PUSH1 0x0 DUP2 SWAP1 POP SWAP3 SWAP2 POP POP JUMP JUMPDEST PUSH1 0x0 PUSH2 0x11E2 DUP3 PUSH2 0x1249 JUMP JUMPDEST SWAP2 POP PUSH2 0x11ED DUP4 PUSH2 0x1249 JUMP JUMPDEST SWAP3 POP DUP3 DUP3 LT ISZERO PUSH2 0x1200 JUMPI PUSH2 0x11FF PUSH2 0x12C6 JUMP JUMPDEST JUMPDEST DUP3 DUP3 SUB SWAP1 POP SWAP3 SWAP2 POP POP JUMP JUMPDEST PUSH1 0x0 PUSH2 0x1216 DUP3 PUSH2 0x1229 JUMP JUMPDEST SWAP1 POP SWAP2 SWAP1 POP JUMP JUMPDEST PUSH1 0x0 DUP2 ISZERO ISZERO SWAP1 POP SWAP2 SWAP1 POP JUMP JUMPDEST PUSH1 0x0 PUSH20 0xFFFFFFFFFFFFFFFFFFFFFFFFFFFFFFFFFFFFFFFF DUP3 AND SWAP1 POP SWAP2 SWAP1 POP JUMP JUMPDEST PUSH1 0x0 DUP2 SWAP1 POP SWAP2 SWAP1 POP JUMP JUMPDEST DUP3 DUP2 DUP4 CALLDATACOPY PUSH1 0x0 DUP4 DUP4 ADD MSTORE POP POP POP JUMP JUMPDEST PUSH1 0x0 JUMPDEST DUP4 DUP2 LT ISZERO PUSH2 0x1280 JUMPI DUP1 DUP3 ADD MLOAD DUP2 DUP5 ADD MSTORE PUSH1 0x20 DUP2 ADD SWAP1 POP PUSH2 0x1265 JUMP JUMPDEST DUP4 DUP2 GT ISZERO PUSH2 0x128F JUMPI PUSH1 0x0 DUP5 DUP5 ADD MSTORE JUMPDEST POP POP POP POP JUMP JUMPDEST PUSH2 0x129E DUP3 PUSH2 0x1338 JUMP JUMPDEST DUP2 ADD DUP2 DUP2 LT PUSH8 0xFFFFFFFFFFFFFFFF DUP3 GT OR ISZERO PUSH2 0x12BD JUMPI PUSH2 0x12BC PUSH2 0x12F5 JUMP JUMPDEST JUMPDEST DUP1 PUSH1 0x40 MSTORE POP POP POP JUMP JUMPDEST PUSH32 0x4E487B7100000000000000000000000000000000000000000000000000000000 PUSH1 0x0 MSTORE PUSH1 0x11 PUSH1 0x4 MSTORE PUSH1 0x24 PUSH1 0x0 REVERT JUMPDEST PUSH32 0x4E487B7100000000000000000000000000000000000000000000000000000000 PUSH1 0x0 MSTORE PUSH1 0x41 PUSH1 0x4 MSTORE PUSH1 0x24 PUSH1 0x0 REVERT JUMPDEST PUSH1 0x0 DUP1 REVERT JUMPDEST PUSH1 0x0 DUP1 REVERT JUMPDEST PUSH1 0x0 DUP1 REVERT JUMPDEST PUSH1 0x0 DUP1 REVERT JUMPDEST PUSH1 0x0 PUSH1 0x1F NOT PUSH1 0x1F DUP4 ADD AND SWAP1 POP SWAP2 SWAP1 POP JUMP JUMPDEST PUSH32 0x636C6F7365000000000000000000000000000000000000000000000000000000 PUSH1 0x0 DUP3 ADD MSTORE POP JUMP JUMPDEST PUSH32 0x322E322E322E3200000000000000000000000000000000000000000000000000 PUSH1 0x0 DUP3 ADD MSTORE POP JUMP JUMPDEST PUSH32 0x4163636573732070617373210000000000000000000000000000000000000000 PUSH1 0x0 DUP3 ADD MSTORE POP JUMP JUMPDEST PUSH32 0x496C6C6567616C20616374696F6E210000000000000000000000000000000000 PUSH1 0x0 DUP3 ADD MSTORE POP JUMP JUMPDEST PUSH32 0x7265737461727400000000000000000000000000000000000000000000000000 PUSH1 0x0 DUP3 ADD MSTORE POP JUMP JUMPDEST PUSH32 0x496C6C6567616C20495020616464726573732100000000000000000000000000 PUSH1 0x0 DUP3 ADD MSTORE POP JUMP JUMPDEST PUSH32 0x6B696C6C00000000000000000000000000000000000000000000000000000000 PUSH1 0x0 DUP3 ADD MSTORE POP JUMP JUMPDEST PUSH32 0x6F70656E00000000000000000000000000000000000000000000000000000000 PUSH1 0x0 DUP3 ADD MSTORE POP JUMP JUMPDEST PUSH32 0x556E617574686F72697A65642061636365737321000000000000000000000000 PUSH1 0x0 DUP3 ADD MSTORE POP JUMP JUMPDEST PUSH32 0x5374696C6C20626C6F636B65642C20756E61626C6520746F2061636365737321 PUSH1 0x0 DUP3 ADD MSTORE POP JUMP JUMPDEST PUSH32 0x7265616400000000000000000000000000000000000000000000000000000000 PUSH1 0x0 DUP3 ADD MSTORE POP JUMP JUMPDEST PUSH2 0x1515 DUP2 PUSH2 0x120B JUMP JUMPDEST DUP2 EQ PUSH2 0x1520 JUMPI PUSH1 0x0 DUP1 REVERT JUMPDEST POP JUMP JUMPDEST PUSH2 0x152C DUP2 PUSH2 0x121D JUMP JUMPDEST DUP2 EQ PUSH2 0x1537 JUMPI PUSH1 0x0 DUP1 REVERT JUMPDEST POP JUMP JUMPDEST PUSH2 0x1543 DUP2 PUSH2 0x1249 JUMP JUMPDEST DUP2 EQ PUSH2 0x154E JUMPI PUSH1 0x0 DUP1 REVERT JUMPDEST POP JUMP INVALID LOG2 PUSH5 0x6970667358 0x22 SLT KECCAK256 GASPRICE 0xA5 0xEF 0x5E 0xC9 RETURNDATASIZE 0x5C 0xA5 ISZERO SLT 0xAE 0x26 BALANCE 0xDC 0xF9 ADD CALLER PUSH21 0xABA4C696E86AB3ECDC64BDED5EB264736F6C634300 ADDMOD SMOD STOP CALLER "
				},
				"gasEstimates": {
					"creation": {
						"codeDepositCost": "1102200",
						"executionCost": "1147",
						"totalCost": "1103347"
					},
					"external": {
						"accessControl(address,string)": "infinite",
						"getCurTime()": "358",
						"init(address,address)": "infinite",
						"isLegalAction(string)": "infinite"
					},
					"internal": {
						"checkRequesterStatus()": "infinite"
					}
				},
				"methodIdentifiers": {
					"accessControl(address,string)": "32076e77",
					"getCurTime()": "c0821da3",
					"init(address,address)": "f09a4016",
					"isLegalAction(string)": "a352ff64"
				}
			},
			"storageLayout": {
				"storage": [
					{
						"astId": 6,
						"contract": "contracts/AccessControl.sol:AccessControl",
						"label": "manager",
						"offset": 0,
						"slot": "0",
						"type": "t_contract(Management)683"
					},
					{
						"astId": 9,
						"contract": "contracts/AccessControl.sol:AccessControl",
						"label": "judge",
						"offset": 0,
						"slot": "1",
						"type": "t_contract(Judge)460"
					},
					{
						"astId": 18,
						"contract": "contracts/AccessControl.sol:AccessControl",
						"label": "rightTable",
						"offset": 0,
						"slot": "2",
						"type": "t_mapping(t_string_memory_ptr,t_int256)"
					},
					{
						"astId": 22,
						"contract": "contracts/AccessControl.sol:AccessControl",
						"label": "blackListIpMap",
						"offset": 0,
						"slot": "3",
						"type": "t_mapping(t_string_memory_ptr,t_bool)"
					},
					{
						"astId": 27,
						"contract": "contracts/AccessControl.sol:AccessControl",
						"label": "requestMap",
						"offset": 0,
						"slot": "4",
						"type": "t_mapping(t_address,t_struct(Requester)14_storage)"
					}
				],
				"types": {
					"t_address": {
						"encoding": "inplace",
						"label": "address",
						"numberOfBytes": "20"
					},
					"t_bool": {
						"encoding": "inplace",
						"label": "bool",
						"numberOfBytes": "1"
					},
					"t_contract(Judge)460": {
						"encoding": "inplace",
						"label": "contract Judge",
						"numberOfBytes": "20"
					},
					"t_contract(Management)683": {
						"encoding": "inplace",
						"label": "contract Management",
						"numberOfBytes": "20"
					},
					"t_int256": {
						"encoding": "inplace",
						"label": "int256",
						"numberOfBytes": "32"
					},
					"t_mapping(t_address,t_struct(Requester)14_storage)": {
						"encoding": "mapping",
						"key": "t_address",
						"label": "mapping(address => struct AccessControl.Requester)",
						"numberOfBytes": "32",
						"value": "t_struct(Requester)14_storage"
					},
					"t_mapping(t_string_memory_ptr,t_bool)": {
						"encoding": "mapping",
						"key": "t_string_memory_ptr",
						"label": "mapping(string => bool)",
						"numberOfBytes": "32",
						"value": "t_bool"
					},
					"t_mapping(t_string_memory_ptr,t_int256)": {
						"encoding": "mapping",
						"key": "t_string_memory_ptr",
						"label": "mapping(string => int256)",
						"numberOfBytes": "32",
						"value": "t_int256"
					},
					"t_string_memory_ptr": {
						"encoding": "bytes",
						"label": "string",
						"numberOfBytes": "32"
					},
					"t_struct(Requester)14_storage": {
						"encoding": "inplace",
						"label": "struct AccessControl.Requester",
						"members": [
							{
								"astId": 11,
								"contract": "contracts/AccessControl.sol:AccessControl",
								"label": "isRequested",
								"offset": 0,
								"slot": "0",
								"type": "t_bool"
							},
							{
								"astId": 13,
								"contract": "contracts/AccessControl.sol:AccessControl",
								"label": "ToLR",
								"offset": 0,
								"slot": "1",
								"type": "t_uint256"
							}
						],
						"numberOfBytes": "64"
					},
					"t_uint256": {
						"encoding": "inplace",
						"label": "uint256",
						"numberOfBytes": "32"
					}
				}
			},
			"userdoc": {
				"kind": "user",
				"methods": {},
				"version": 1
			}
		}
	}
}