{
	"contracts/AccessControl.sol": {
		"AccessControl": {
			"abi": [
				{
					"anonymous": false,
					"inputs": [
						{
							"indexed": false,
							"internalType": "address",
							"name": "from",
							"type": "address"
						},
						{
							"indexed": false,
							"internalType": "address",
							"name": "to",
							"type": "address"
						},
						{
							"indexed": false,
							"internalType": "string",
							"name": "action",
							"type": "string"
						},
						{
							"indexed": false,
							"internalType": "string",
							"name": "result",
							"type": "string"
						},
						{
							"indexed": false,
							"internalType": "uint256",
							"name": "accessTime",
							"type": "uint256"
						}
					],
					"name": "AccessControlRet",
					"type": "event"
				},
				{
					"inputs": [
						{
							"internalType": "address",
							"name": "_objectAddr",
							"type": "address"
						},
						{
							"internalType": "string",
							"name": "action",
							"type": "string"
						}
					],
					"name": "accessControl",
					"outputs": [
						{
							"internalType": "bool",
							"name": "res",
							"type": "bool"
						}
					],
					"stateMutability": "nonpayable",
					"type": "function"
				},
				{
					"inputs": [],
					"name": "getCurTime",
					"outputs": [
						{
							"internalType": "uint256",
							"name": "",
							"type": "uint256"
						}
					],
					"stateMutability": "view",
					"type": "function"
				},
				{
					"inputs": [
						{
							"internalType": "address",
							"name": "_MCAddr",
							"type": "address"
						},
						{
							"internalType": "address",
							"name": "_JCAddr",
							"type": "address"
						}
					],
					"name": "init",
					"outputs": [],
					"stateMutability": "nonpayable",
					"type": "function"
				}
			],
			"devdoc": {
				"kind": "dev",
				"methods": {},
				"version": 1
			},
			"evm": {
				"assembly": "    /* \"contracts/AccessControl.sol\":121:3620  contract AccessControl {\r... */\n  mstore(0x40, 0x80)\n  callvalue\n  dup1\n  iszero\n  tag_1\n  jumpi\n  0x00\n  dup1\n  revert\ntag_1:\n  pop\n  dataSize(sub_0)\n  dup1\n  dataOffset(sub_0)\n  0x00\n  codecopy\n  0x00\n  return\nstop\n\nsub_0: assembly {\n        /* \"contracts/AccessControl.sol\":121:3620  contract AccessControl {\r... */\n      mstore(0x40, 0x80)\n      callvalue\n      dup1\n      iszero\n      tag_1\n      jumpi\n      0x00\n      dup1\n      revert\n    tag_1:\n      pop\n      jumpi(tag_2, lt(calldatasize, 0x04))\n      shr(0xe0, calldataload(0x00))\n      dup1\n      0x32076e77\n      eq\n      tag_3\n      jumpi\n      dup1\n      0xc0821da3\n      eq\n      tag_4\n      jumpi\n      dup1\n      0xf09a4016\n      eq\n      tag_5\n      jumpi\n    tag_2:\n      0x00\n      dup1\n      revert\n        /* \"contracts/AccessControl.sol\":1836:3367  function accessControl(address _objectAddr, string memory action) public returns (bool res) {\r... */\n    tag_3:\n      tag_6\n      0x04\n      dup1\n      calldatasize\n      sub\n      dup2\n      add\n      swap1\n      tag_7\n      swap2\n      swap1\n      tag_8\n      jump\t// in\n    tag_7:\n      tag_9\n      jump\t// in\n    tag_6:\n      mload(0x40)\n      tag_10\n      swap2\n      swap1\n      tag_11\n      jump\t// in\n    tag_10:\n      mload(0x40)\n      dup1\n      swap2\n      sub\n      swap1\n      return\n        /* \"contracts/AccessControl.sol\":3379:3471  function getCurTime() public view returns(uint256) {\r... */\n    tag_4:\n      tag_12\n      tag_13\n      jump\t// in\n    tag_12:\n      mload(0x40)\n      tag_14\n      swap2\n      swap1\n      tag_15\n      jump\t// in\n    tag_14:\n      mload(0x40)\n      dup1\n      swap2\n      sub\n      swap1\n      return\n        /* \"contracts/AccessControl.sol\":755:1173  function init(address _MCAddr, address _JCAddr) public {\r... */\n    tag_5:\n      tag_16\n      0x04\n      dup1\n      calldatasize\n      sub\n      dup2\n      add\n      swap1\n      tag_17\n      swap2\n      swap1\n      tag_18\n      jump\t// in\n    tag_17:\n      tag_19\n      jump\t// in\n    tag_16:\n      stop\n        /* \"contracts/AccessControl.sol\":1836:3367  function accessControl(address _objectAddr, string memory action) public returns (bool res) {\r... */\n    tag_9:\n        /* \"contracts/AccessControl.sol\":1918:1926  bool res */\n      0x00\n        /* \"contracts/AccessControl.sol\":1985:2007  checkRequesterStatus() */\n      tag_21\n        /* \"contracts/AccessControl.sol\":1985:2005  checkRequesterStatus */\n      tag_22\n        /* \"contracts/AccessControl.sol\":1985:2007  checkRequesterStatus() */\n      jump\t// in\n    tag_21:\n        /* \"contracts/AccessControl.sol\":2020:2034  bool isBlocked */\n      0x00\n        /* \"contracts/AccessControl.sol\":2045:2057  uint256 ToLB */\n      dup1\n        /* \"contracts/AccessControl.sol\":2088:2093  judge */\n      0x01\n      0x00\n      swap1\n      sload\n      swap1\n      0x0100\n      exp\n      swap1\n      div\n      0xffffffffffffffffffffffffffffffffffffffff\n      and\n        /* \"contracts/AccessControl.sol\":2088:2106  judge.getBLUByAddr */\n      0xffffffffffffffffffffffffffffffffffffffff\n      and\n      0x169c9de0\n        /* \"contracts/AccessControl.sol\":2107:2117  msg.sender */\n      caller\n        /* \"contracts/AccessControl.sol\":2088:2118  judge.getBLUByAddr(msg.sender) */\n      mload(0x40)\n      dup3\n      0xffffffff\n      and\n      0xe0\n      shl\n      dup2\n      mstore\n      0x04\n      add\n      tag_23\n      swap2\n      swap1\n      tag_24\n      jump\t// in\n    tag_23:\n      0x40\n      dup1\n      mload\n      dup1\n      dup4\n      sub\n      dup2\n      dup7\n      dup1\n      extcodesize\n      iszero\n      dup1\n      iszero\n      tag_25\n      jumpi\n      0x00\n      dup1\n      revert\n    tag_25:\n      pop\n      gas\n      staticcall\n      iszero\n      dup1\n      iszero\n      tag_27\n      jumpi\n      returndatasize\n      0x00\n      dup1\n      returndatacopy\n      revert(0x00, returndatasize)\n    tag_27:\n      pop\n      pop\n      pop\n      pop\n      mload(0x40)\n      returndatasize\n      not(0x1f)\n      0x1f\n      dup3\n      add\n      and\n      dup3\n      add\n      dup1\n      0x40\n      mstore\n      pop\n      dup2\n      add\n      swap1\n      tag_28\n      swap2\n      swap1\n      tag_29\n      jump\t// in\n    tag_28:\n        /* \"contracts/AccessControl.sol\":2068:2118  (ToLB, isBlocked) = judge.getBLUByAddr(msg.sender) */\n      dup1\n      swap4\n      pop\n      dup2\n      swap3\n      pop\n      pop\n      pop\n        /* \"contracts/AccessControl.sol\":2174:2183  isBlocked */\n      dup2\n        /* \"contracts/AccessControl.sol\":2171:2481  if(isBlocked) {\r... */\n      iszero\n      tag_30\n      jumpi\n        /* \"contracts/AccessControl.sol\":2205:2307  AccessControlRet(msg.sender, _objectAddr, action, \"Still blocked, unable to access!\", block.timestamp) */\n      0x365c8ddb6c298b196e110ce4bc267d2ed1319736bd9d74e983f0e9cf3202f697\n        /* \"contracts/AccessControl.sol\":2222:2232  msg.sender */\n      caller\n        /* \"contracts/AccessControl.sol\":2234:2245  _objectAddr */\n      dup7\n        /* \"contracts/AccessControl.sol\":2247:2253  action */\n      dup7\n        /* \"contracts/AccessControl.sol\":2291:2306  block.timestamp */\n      timestamp\n        /* \"contracts/AccessControl.sol\":2205:2307  AccessControlRet(msg.sender, _objectAddr, action, \"Still blocked, unable to access!\", block.timestamp) */\n      mload(0x40)\n      tag_31\n      swap5\n      swap4\n      swap3\n      swap2\n      swap1\n      tag_32\n      jump\t// in\n    tag_31:\n      mload(0x40)\n      dup1\n      swap2\n      sub\n      swap1\n      log1\n        /* \"contracts/AccessControl.sol\":2330:2335  false */\n      0x00\n        /* \"contracts/AccessControl.sol\":2324:2335  res = false */\n      swap3\n      pop\n        /* \"contracts/AccessControl.sol\":2350:2360  return res */\n      pop\n      pop\n      jump(tag_20)\n        /* \"contracts/AccessControl.sol\":2171:2481  if(isBlocked) {\r... */\n    tag_30:\n        /* \"contracts/AccessControl.sol\":2440:2445  judge */\n      0x01\n      0x00\n      swap1\n      sload\n      swap1\n      0x0100\n      exp\n      swap1\n      div\n      0xffffffffffffffffffffffffffffffffffffffff\n      and\n        /* \"contracts/AccessControl.sol\":2440:2457  judge.unblockUser */\n      0xffffffffffffffffffffffffffffffffffffffff\n      and\n      0x39d319e5\n        /* \"contracts/AccessControl.sol\":2458:2468  msg.sender */\n      caller\n        /* \"contracts/AccessControl.sol\":2440:2469  judge.unblockUser(msg.sender) */\n      mload(0x40)\n      dup3\n      0xffffffff\n      and\n      0xe0\n      shl\n      dup2\n      mstore\n      0x04\n      add\n      tag_34\n      swap2\n      swap1\n      tag_24\n      jump\t// in\n    tag_34:\n      0x00\n      mload(0x40)\n      dup1\n      dup4\n      sub\n      dup2\n      0x00\n      dup8\n      dup1\n      extcodesize\n      iszero\n      dup1\n      iszero\n      tag_35\n      jumpi\n      0x00\n      dup1\n      revert\n    tag_35:\n      pop\n      gas\n      call\n      iszero\n      dup1\n      iszero\n      tag_37\n      jumpi\n      returndatasize\n      0x00\n      dup1\n      returndatacopy\n      revert(0x00, returndatasize)\n    tag_37:\n      pop\n      pop\n      pop\n      pop\n        /* \"contracts/AccessControl.sol\":2493:2512  string memory right */\n      0x00\n        /* \"contracts/AccessControl.sol\":2515:2522  manager */\n      dup1\n      0x00\n      swap1\n      sload\n      swap1\n      0x0100\n      exp\n      swap1\n      div\n      0xffffffffffffffffffffffffffffffffffffffff\n      and\n        /* \"contracts/AccessControl.sol\":2515:2531  manager.getRight */\n      0xffffffffffffffffffffffffffffffffffffffff\n      and\n      0x8749774f\n        /* \"contracts/AccessControl.sol\":2532:2542  msg.sender */\n      caller\n        /* \"contracts/AccessControl.sol\":2544:2555  _objectAddr */\n      dup9\n        /* \"contracts/AccessControl.sol\":2515:2556  manager.getRight(msg.sender, _objectAddr) */\n      mload(0x40)\n      dup4\n      0xffffffff\n      and\n      0xe0\n      shl\n      dup2\n      mstore\n      0x04\n      add\n      tag_38\n      swap3\n      swap2\n      swap1\n      tag_39\n      jump\t// in\n    tag_38:\n      0x00\n      mload(0x40)\n      dup1\n      dup4\n      sub\n      dup2\n      dup7\n      dup1\n      extcodesize\n      iszero\n      dup1\n      iszero\n      tag_40\n      jumpi\n      0x00\n      dup1\n      revert\n    tag_40:\n      pop\n      gas\n      staticcall\n      iszero\n      dup1\n      iszero\n      tag_42\n      jumpi\n      returndatasize\n      0x00\n      dup1\n      returndatacopy\n      revert(0x00, returndatasize)\n    tag_42:\n      pop\n      pop\n      pop\n      pop\n      mload(0x40)\n      returndatasize\n      0x00\n      dup3\n      returndatacopy\n      returndatasize\n      not(0x1f)\n      0x1f\n      dup3\n      add\n      and\n      dup3\n      add\n      dup1\n      0x40\n      mstore\n      pop\n      dup2\n      add\n      swap1\n      tag_43\n      swap2\n      swap1\n      tag_44\n      jump\t// in\n    tag_43:\n        /* \"contracts/AccessControl.sol\":2493:2556  string memory right = manager.getRight(msg.sender, _objectAddr) */\n      swap1\n      pop\n        /* \"contracts/AccessControl.sol\":2626:2636  rightTable */\n      0x02\n        /* \"contracts/AccessControl.sol\":2637:2642  right */\n      dup2\n        /* \"contracts/AccessControl.sol\":2626:2643  rightTable[right] */\n      mload(0x40)\n      tag_45\n      swap2\n      swap1\n      tag_46\n      jump\t// in\n    tag_45:\n      swap1\n      dup2\n      mstore\n      0x20\n      add\n      mload(0x40)\n      dup1\n      swap2\n      sub\n      swap1\n      keccak256\n      sload\n        /* \"contracts/AccessControl.sol\":2605:2615  rightTable */\n      0x02\n        /* \"contracts/AccessControl.sol\":2616:2622  action */\n      dup7\n        /* \"contracts/AccessControl.sol\":2605:2623  rightTable[action] */\n      mload(0x40)\n      tag_47\n      swap2\n      swap1\n      tag_46\n      jump\t// in\n    tag_47:\n      swap1\n      dup2\n      mstore\n      0x20\n      add\n      mload(0x40)\n      dup1\n      swap2\n      sub\n      swap1\n      keccak256\n      sload\n        /* \"contracts/AccessControl.sol\":2605:2643  rightTable[action] > rightTable[right] */\n      sgt\n        /* \"contracts/AccessControl.sol\":2602:2818  if(rightTable[action] > rightTable[right]) {\r... */\n      iszero\n      tag_48\n      jumpi\n        /* \"contracts/AccessControl.sol\":2665:2755  AccessControlRet(msg.sender, _objectAddr, action, \"Unauthorized access!\", block.timestamp) */\n      0x365c8ddb6c298b196e110ce4bc267d2ed1319736bd9d74e983f0e9cf3202f697\n        /* \"contracts/AccessControl.sol\":2682:2692  msg.sender */\n      caller\n        /* \"contracts/AccessControl.sol\":2694:2705  _objectAddr */\n      dup8\n        /* \"contracts/AccessControl.sol\":2707:2713  action */\n      dup8\n        /* \"contracts/AccessControl.sol\":2739:2754  block.timestamp */\n      timestamp\n        /* \"contracts/AccessControl.sol\":2665:2755  AccessControlRet(msg.sender, _objectAddr, action, \"Unauthorized access!\", block.timestamp) */\n      mload(0x40)\n      tag_49\n      swap5\n      swap4\n      swap3\n      swap2\n      swap1\n      tag_50\n      jump\t// in\n    tag_49:\n      mload(0x40)\n      dup1\n      swap2\n      sub\n      swap1\n      log1\n        /* \"contracts/AccessControl.sol\":2776:2781  false */\n      0x00\n        /* \"contracts/AccessControl.sol\":2770:2781  res = false */\n      swap4\n      pop\n        /* \"contracts/AccessControl.sol\":2796:2806  return res */\n      pop\n      pop\n      pop\n      jump(tag_20)\n        /* \"contracts/AccessControl.sol\":2602:2818  if(rightTable[action] > rightTable[right]) {\r... */\n    tag_48:\n        /* \"contracts/AccessControl.sol\":2830:2852  string memory subjName */\n      0x60\n        /* \"contracts/AccessControl.sol\":2863:2883  string memory subjIP */\n      dup1\n        /* \"contracts/AccessControl.sol\":2915:2922  manager */\n      0x00\n      dup1\n      sload\n      swap1\n      0x0100\n      exp\n      swap1\n      div\n      0xffffffffffffffffffffffffffffffffffffffff\n      and\n        /* \"contracts/AccessControl.sol\":2915:2934  manager.getSubjInfo */\n      0xffffffffffffffffffffffffffffffffffffffff\n      and\n      0x9f764d16\n        /* \"contracts/AccessControl.sol\":2935:2945  msg.sender */\n      caller\n        /* \"contracts/AccessControl.sol\":2915:2946  manager.getSubjInfo(msg.sender) */\n      mload(0x40)\n      dup3\n      0xffffffff\n      and\n      0xe0\n      shl\n      dup2\n      mstore\n      0x04\n      add\n      tag_51\n      swap2\n      swap1\n      tag_24\n      jump\t// in\n    tag_51:\n      0x00\n      mload(0x40)\n      dup1\n      dup4\n      sub\n      dup2\n      dup7\n      dup1\n      extcodesize\n      iszero\n      dup1\n      iszero\n      tag_52\n      jumpi\n      0x00\n      dup1\n      revert\n    tag_52:\n      pop\n      gas\n      staticcall\n      iszero\n      dup1\n      iszero\n      tag_54\n      jumpi\n      returndatasize\n      0x00\n      dup1\n      returndatacopy\n      revert(0x00, returndatasize)\n    tag_54:\n      pop\n      pop\n      pop\n      pop\n      mload(0x40)\n      returndatasize\n      0x00\n      dup3\n      returndatacopy\n      returndatasize\n      not(0x1f)\n      0x1f\n      dup3\n      add\n      and\n      dup3\n      add\n      dup1\n      0x40\n      mstore\n      pop\n      dup2\n      add\n      swap1\n      tag_55\n      swap2\n      swap1\n      tag_56\n      jump\t// in\n    tag_55:\n        /* \"contracts/AccessControl.sol\":2894:2946  (subjName, subjIP) = manager.getSubjInfo(msg.sender) */\n      dup1\n      swap3\n      pop\n      dup2\n      swap4\n      pop\n      pop\n      pop\n        /* \"contracts/AccessControl.sol\":2991:3005  blackListIpMap */\n      0x03\n        /* \"contracts/AccessControl.sol\":3006:3012  subjIP */\n      dup2\n        /* \"contracts/AccessControl.sol\":2991:3013  blackListIpMap[subjIP] */\n      mload(0x40)\n      tag_57\n      swap2\n      swap1\n      tag_46\n      jump\t// in\n    tag_57:\n      swap1\n      dup2\n      mstore\n      0x20\n      add\n      mload(0x40)\n      dup1\n      swap2\n      sub\n      swap1\n      keccak256\n      0x00\n      swap1\n      sload\n      swap1\n      0x0100\n      exp\n      swap1\n      div\n      0xff\n      and\n        /* \"contracts/AccessControl.sol\":2988:3187  if(blackListIpMap[subjIP]) {\r... */\n      iszero\n      tag_58\n      jumpi\n        /* \"contracts/AccessControl.sol\":3035:3124  AccessControlRet(msg.sender, _objectAddr, action, \"Illegal IP address!\", block.timestamp) */\n      0x365c8ddb6c298b196e110ce4bc267d2ed1319736bd9d74e983f0e9cf3202f697\n        /* \"contracts/AccessControl.sol\":3052:3062  msg.sender */\n      caller\n        /* \"contracts/AccessControl.sol\":3064:3075  _objectAddr */\n      dup10\n        /* \"contracts/AccessControl.sol\":3077:3083  action */\n      dup10\n        /* \"contracts/AccessControl.sol\":3108:3123  block.timestamp */\n      timestamp\n        /* \"contracts/AccessControl.sol\":3035:3124  AccessControlRet(msg.sender, _objectAddr, action, \"Illegal IP address!\", block.timestamp) */\n      mload(0x40)\n      tag_59\n      swap5\n      swap4\n      swap3\n      swap2\n      swap1\n      tag_60\n      jump\t// in\n    tag_59:\n      mload(0x40)\n      dup1\n      swap2\n      sub\n      swap1\n      log1\n        /* \"contracts/AccessControl.sol\":3145:3150  false */\n      0x00\n        /* \"contracts/AccessControl.sol\":3139:3150  res = false */\n      swap6\n      pop\n        /* \"contracts/AccessControl.sol\":3165:3175  return res */\n      pop\n      pop\n      pop\n      pop\n      pop\n      jump(tag_20)\n        /* \"contracts/AccessControl.sol\":2988:3187  if(blackListIpMap[subjIP]) {\r... */\n    tag_58:\n        /* \"contracts/AccessControl.sol\":3235:3317  AccessControlRet(msg.sender, _objectAddr, action, \"Access pass!\", block.timestamp) */\n      0x365c8ddb6c298b196e110ce4bc267d2ed1319736bd9d74e983f0e9cf3202f697\n        /* \"contracts/AccessControl.sol\":3252:3262  msg.sender */\n      caller\n        /* \"contracts/AccessControl.sol\":3264:3275  _objectAddr */\n      dup10\n        /* \"contracts/AccessControl.sol\":3277:3283  action */\n      dup10\n        /* \"contracts/AccessControl.sol\":3301:3316  block.timestamp */\n      timestamp\n        /* \"contracts/AccessControl.sol\":3235:3317  AccessControlRet(msg.sender, _objectAddr, action, \"Access pass!\", block.timestamp) */\n      mload(0x40)\n      tag_61\n      swap5\n      swap4\n      swap3\n      swap2\n      swap1\n      tag_62\n      jump\t// in\n    tag_61:\n      mload(0x40)\n      dup1\n      swap2\n      sub\n      swap1\n      log1\n        /* \"contracts/AccessControl.sol\":3334:3338  true */\n      0x01\n        /* \"contracts/AccessControl.sol\":3328:3338  res = true */\n      swap6\n      pop\n        /* \"contracts/AccessControl.sol\":3349:3359  return res */\n      pop\n      pop\n      pop\n      pop\n      pop\n        /* \"contracts/AccessControl.sol\":1836:3367  function accessControl(address _objectAddr, string memory action) public returns (bool res) {\r... */\n    tag_20:\n      swap3\n      swap2\n      pop\n      pop\n      jump\t// out\n        /* \"contracts/AccessControl.sol\":3379:3471  function getCurTime() public view returns(uint256) {\r... */\n    tag_13:\n        /* \"contracts/AccessControl.sol\":3421:3428  uint256 */\n      0x00\n        /* \"contracts/AccessControl.sol\":3448:3463  block.timestamp */\n      timestamp\n        /* \"contracts/AccessControl.sol\":3441:3463  return block.timestamp */\n      swap1\n      pop\n        /* \"contracts/AccessControl.sol\":3379:3471  function getCurTime() public view returns(uint256) {\r... */\n      swap1\n      jump\t// out\n        /* \"contracts/AccessControl.sol\":755:1173  function init(address _MCAddr, address _JCAddr) public {\r... */\n    tag_19:\n        /* \"contracts/AccessControl.sol\":842:849  _MCAddr */\n      dup2\n        /* \"contracts/AccessControl.sol\":821:828  manager */\n      0x00\n      dup1\n        /* \"contracts/AccessControl.sol\":821:850  manager = Management(_MCAddr) */\n      0x0100\n      exp\n      dup2\n      sload\n      dup2\n      0xffffffffffffffffffffffffffffffffffffffff\n      mul\n      not\n      and\n      swap1\n      dup4\n      0xffffffffffffffffffffffffffffffffffffffff\n      and\n      mul\n      or\n      swap1\n      sstore\n      pop\n        /* \"contracts/AccessControl.sol\":875:882  _JCAddr */\n      dup1\n        /* \"contracts/AccessControl.sol\":861:866  judge */\n      0x01\n      0x00\n        /* \"contracts/AccessControl.sol\":861:883  judge = Judge(_JCAddr) */\n      0x0100\n      exp\n      dup2\n      sload\n      dup2\n      0xffffffffffffffffffffffffffffffffffffffff\n      mul\n      not\n      and\n      swap1\n      dup4\n      0xffffffffffffffffffffffffffffffffffffffff\n      and\n      mul\n      or\n      swap1\n      sstore\n      pop\n        /* \"contracts/AccessControl.sol\":985:986  1 */\n      0x01\n        /* \"contracts/AccessControl.sol\":964:974  rightTable */\n      0x02\n        /* \"contracts/AccessControl.sol\":964:982  rightTable[\"read\"] */\n      mload(0x40)\n      tag_65\n      swap1\n      tag_66\n      jump\t// in\n    tag_65:\n      swap1\n      dup2\n      mstore\n      0x20\n      add\n      mload(0x40)\n      dup1\n      swap2\n      sub\n      swap1\n      keccak256\n        /* \"contracts/AccessControl.sol\":964:986  rightTable[\"read\"] = 1 */\n      dup2\n      swap1\n      sstore\n      pop\n        /* \"contracts/AccessControl.sol\":1018:1019  2 */\n      0x02\n        /* \"contracts/AccessControl.sol\":997:1007  rightTable */\n      dup1\n        /* \"contracts/AccessControl.sol\":997:1015  rightTable[\"open\"] */\n      mload(0x40)\n      tag_67\n      swap1\n      tag_68\n      jump\t// in\n    tag_67:\n      swap1\n      dup2\n      mstore\n      0x20\n      add\n      mload(0x40)\n      dup1\n      swap2\n      sub\n      swap1\n      keccak256\n        /* \"contracts/AccessControl.sol\":997:1019  rightTable[\"open\"] = 2 */\n      dup2\n      swap1\n      sstore\n      pop\n        /* \"contracts/AccessControl.sol\":1052:1053  2 */\n      0x02\n        /* \"contracts/AccessControl.sol\":1030:1040  rightTable */\n      dup1\n        /* \"contracts/AccessControl.sol\":1030:1049  rightTable[\"close\"] */\n      mload(0x40)\n      tag_69\n      swap1\n      tag_70\n      jump\t// in\n    tag_69:\n      swap1\n      dup2\n      mstore\n      0x20\n      add\n      mload(0x40)\n      dup1\n      swap2\n      sub\n      swap1\n      keccak256\n        /* \"contracts/AccessControl.sol\":1030:1053  rightTable[\"close\"] = 2 */\n      dup2\n      swap1\n      sstore\n      pop\n        /* \"contracts/AccessControl.sol\":1088:1089  3 */\n      0x03\n        /* \"contracts/AccessControl.sol\":1064:1074  rightTable */\n      0x02\n        /* \"contracts/AccessControl.sol\":1064:1085  rightTable[\"restart\"] */\n      mload(0x40)\n      tag_71\n      swap1\n      tag_72\n      jump\t// in\n    tag_71:\n      swap1\n      dup2\n      mstore\n      0x20\n      add\n      mload(0x40)\n      dup1\n      swap2\n      sub\n      swap1\n      keccak256\n        /* \"contracts/AccessControl.sol\":1064:1089  rightTable[\"restart\"] = 3 */\n      dup2\n      swap1\n      sstore\n      pop\n        /* \"contracts/AccessControl.sol\":1121:1122  3 */\n      0x03\n        /* \"contracts/AccessControl.sol\":1100:1110  rightTable */\n      0x02\n        /* \"contracts/AccessControl.sol\":1100:1118  rightTable[\"kill\"] */\n      mload(0x40)\n      tag_73\n      swap1\n      tag_74\n      jump\t// in\n    tag_73:\n      swap1\n      dup2\n      mstore\n      0x20\n      add\n      mload(0x40)\n      dup1\n      swap2\n      sub\n      swap1\n      keccak256\n        /* \"contracts/AccessControl.sol\":1100:1122  rightTable[\"kill\"] = 3 */\n      dup2\n      swap1\n      sstore\n      pop\n        /* \"contracts/AccessControl.sol\":1161:1165  true */\n      0x01\n        /* \"contracts/AccessControl.sol\":1133:1147  blackListIpMap */\n      0x03\n        /* \"contracts/AccessControl.sol\":1133:1158  blackListIpMap['2.2.2.2'] */\n      mload(0x40)\n      tag_75\n      swap1\n      tag_76\n      jump\t// in\n    tag_75:\n      swap1\n      dup2\n      mstore\n      0x20\n      add\n      mload(0x40)\n      dup1\n      swap2\n      sub\n      swap1\n      keccak256\n      0x00\n        /* \"contracts/AccessControl.sol\":1133:1165  blackListIpMap['2.2.2.2'] = true */\n      0x0100\n      exp\n      dup2\n      sload\n      dup2\n      0xff\n      mul\n      not\n      and\n      swap1\n      dup4\n      iszero\n      iszero\n      mul\n      or\n      swap1\n      sstore\n      pop\n        /* \"contracts/AccessControl.sol\":755:1173  function init(address _MCAddr, address _JCAddr) public {\r... */\n      pop\n      pop\n      jump\t// out\n        /* \"contracts/AccessControl.sol\":1255:1790  function checkRequesterStatus() private {\r... */\n    tag_22:\n        /* \"contracts/AccessControl.sol\":1347:1351  true */\n      0x01\n        /* \"contracts/AccessControl.sol\":1309:1351  requestMap[msg.sender].isRequested == true */\n      iszero\n      iszero\n        /* \"contracts/AccessControl.sol\":1309:1319  requestMap */\n      0x04\n        /* \"contracts/AccessControl.sol\":1309:1331  requestMap[msg.sender] */\n      0x00\n        /* \"contracts/AccessControl.sol\":1320:1330  msg.sender */\n      caller\n        /* \"contracts/AccessControl.sol\":1309:1331  requestMap[msg.sender] */\n      0xffffffffffffffffffffffffffffffffffffffff\n      and\n      0xffffffffffffffffffffffffffffffffffffffff\n      and\n      dup2\n      mstore\n      0x20\n      add\n      swap1\n      dup2\n      mstore\n      0x20\n      add\n      0x00\n      keccak256\n        /* \"contracts/AccessControl.sol\":1309:1343  requestMap[msg.sender].isRequested */\n      0x00\n      add\n      0x00\n      swap1\n      sload\n      swap1\n      0x0100\n      exp\n      swap1\n      div\n      0xff\n      and\n        /* \"contracts/AccessControl.sol\":1309:1351  requestMap[msg.sender].isRequested == true */\n      iszero\n      iszero\n      eq\n        /* \"contracts/AccessControl.sol\":1306:1783  if(requestMap[msg.sender].isRequested == true) {\r... */\n      iszero\n      tag_78\n      jumpi\n        /* \"contracts/AccessControl.sol\":1368:1383  uint256 timeGap */\n      0x00\n        /* \"contracts/AccessControl.sol\":1404:1414  requestMap */\n      0x04\n        /* \"contracts/AccessControl.sol\":1404:1426  requestMap[msg.sender] */\n      0x00\n        /* \"contracts/AccessControl.sol\":1415:1425  msg.sender */\n      caller\n        /* \"contracts/AccessControl.sol\":1404:1426  requestMap[msg.sender] */\n      0xffffffffffffffffffffffffffffffffffffffff\n      and\n      0xffffffffffffffffffffffffffffffffffffffff\n      and\n      dup2\n      mstore\n      0x20\n      add\n      swap1\n      dup2\n      mstore\n      0x20\n      add\n      0x00\n      keccak256\n        /* \"contracts/AccessControl.sol\":1404:1431  requestMap[msg.sender].ToLR */\n      0x01\n      add\n      sload\n        /* \"contracts/AccessControl.sol\":1386:1401  block.timestamp */\n      timestamp\n        /* \"contracts/AccessControl.sol\":1386:1431  block.timestamp - requestMap[msg.sender].ToLR */\n      tag_79\n      swap2\n      swap1\n      tag_80\n      jump\t// in\n    tag_79:\n        /* \"contracts/AccessControl.sol\":1368:1431  uint256 timeGap = block.timestamp - requestMap[msg.sender].ToLR */\n      swap1\n      pop\n        /* \"contracts/AccessControl.sol\":1504:1506  10 */\n      0x0a\n        /* \"contracts/AccessControl.sol\":1493:1500  timeGap */\n      dup2\n        /* \"contracts/AccessControl.sol\":1493:1506  timeGap <= 10 */\n      gt\n        /* \"contracts/AccessControl.sol\":1490:1638  if(timeGap <= 10) {\r... */\n      tag_81\n      jumpi\n        /* \"contracts/AccessControl.sol\":1592:1597  judge */\n      0x01\n      0x00\n      swap1\n      sload\n      swap1\n      0x0100\n      exp\n      swap1\n      div\n      0xffffffffffffffffffffffffffffffffffffffff\n      and\n        /* \"contracts/AccessControl.sol\":1592:1610  judge.setBlackList */\n      0xffffffffffffffffffffffffffffffffffffffff\n      and\n      0x72700241\n        /* \"contracts/AccessControl.sol\":1611:1621  msg.sender */\n      caller\n        /* \"contracts/AccessControl.sol\":1592:1622  judge.setBlackList(msg.sender) */\n      mload(0x40)\n      dup3\n      0xffffffff\n      and\n      0xe0\n      shl\n      dup2\n      mstore\n      0x04\n      add\n      tag_82\n      swap2\n      swap1\n      tag_24\n      jump\t// in\n    tag_82:\n      0x00\n      mload(0x40)\n      dup1\n      dup4\n      sub\n      dup2\n      0x00\n      dup8\n      dup1\n      extcodesize\n      iszero\n      dup1\n      iszero\n      tag_83\n      jumpi\n      0x00\n      dup1\n      revert\n    tag_83:\n      pop\n      gas\n      call\n      iszero\n      dup1\n      iszero\n      tag_85\n      jumpi\n      returndatasize\n      0x00\n      dup1\n      returndatacopy\n      revert(0x00, returndatasize)\n    tag_85:\n      pop\n      pop\n      pop\n      pop\n        /* \"contracts/AccessControl.sol\":1490:1638  if(timeGap <= 10) {\r... */\n    tag_81:\n        /* \"contracts/AccessControl.sol\":1353:1649  {\r... */\n      pop\n        /* \"contracts/AccessControl.sol\":1306:1783  if(requestMap[msg.sender].isRequested == true) {\r... */\n      jump(tag_86)\n    tag_78:\n        /* \"contracts/AccessControl.sol\":1707:1711  true */\n      0x01\n        /* \"contracts/AccessControl.sol\":1670:1680  requestMap */\n      0x04\n        /* \"contracts/AccessControl.sol\":1670:1692  requestMap[msg.sender] */\n      0x00\n        /* \"contracts/AccessControl.sol\":1681:1691  msg.sender */\n      caller\n        /* \"contracts/AccessControl.sol\":1670:1692  requestMap[msg.sender] */\n      0xffffffffffffffffffffffffffffffffffffffff\n      and\n      0xffffffffffffffffffffffffffffffffffffffff\n      and\n      dup2\n      mstore\n      0x20\n      add\n      swap1\n      dup2\n      mstore\n      0x20\n      add\n      0x00\n      keccak256\n        /* \"contracts/AccessControl.sol\":1670:1704  requestMap[msg.sender].isRequested */\n      0x00\n      add\n      0x00\n        /* \"contracts/AccessControl.sol\":1670:1711  requestMap[msg.sender].isRequested = true */\n      0x0100\n      exp\n      dup2\n      sload\n      dup2\n      0xff\n      mul\n      not\n      and\n      swap1\n      dup4\n      iszero\n      iszero\n      mul\n      or\n      swap1\n      sstore\n      pop\n        /* \"contracts/AccessControl.sol\":1756:1771  block.timestamp */\n      timestamp\n        /* \"contracts/AccessControl.sol\":1726:1736  requestMap */\n      0x04\n        /* \"contracts/AccessControl.sol\":1726:1748  requestMap[msg.sender] */\n      0x00\n        /* \"contracts/AccessControl.sol\":1737:1747  msg.sender */\n      caller\n        /* \"contracts/AccessControl.sol\":1726:1748  requestMap[msg.sender] */\n      0xffffffffffffffffffffffffffffffffffffffff\n      and\n      0xffffffffffffffffffffffffffffffffffffffff\n      and\n      dup2\n      mstore\n      0x20\n      add\n      swap1\n      dup2\n      mstore\n      0x20\n      add\n      0x00\n      keccak256\n        /* \"contracts/AccessControl.sol\":1726:1753  requestMap[msg.sender].ToLR */\n      0x01\n      add\n        /* \"contracts/AccessControl.sol\":1726:1771  requestMap[msg.sender].ToLR = block.timestamp */\n      dup2\n      swap1\n      sstore\n      pop\n        /* \"contracts/AccessControl.sol\":1306:1783  if(requestMap[msg.sender].isRequested == true) {\r... */\n    tag_86:\n        /* \"contracts/AccessControl.sol\":1255:1790  function checkRequesterStatus() private {\r... */\n      jump\t// out\n        /* \"#utility.yul\":7:419   */\n    tag_88:\n        /* \"#utility.yul\":85:90   */\n      0x00\n        /* \"#utility.yul\":110:176   */\n      tag_90\n        /* \"#utility.yul\":126:175   */\n      tag_91\n        /* \"#utility.yul\":168:174   */\n      dup5\n        /* \"#utility.yul\":126:175   */\n      tag_92\n      jump\t// in\n    tag_91:\n        /* \"#utility.yul\":110:176   */\n      tag_93\n      jump\t// in\n    tag_90:\n        /* \"#utility.yul\":101:176   */\n      swap1\n      pop\n        /* \"#utility.yul\":199:205   */\n      dup3\n        /* \"#utility.yul\":192:197   */\n      dup2\n        /* \"#utility.yul\":185:206   */\n      mstore\n        /* \"#utility.yul\":237:241   */\n      0x20\n        /* \"#utility.yul\":230:235   */\n      dup2\n        /* \"#utility.yul\":226:242   */\n      add\n        /* \"#utility.yul\":275:278   */\n      dup5\n        /* \"#utility.yul\":266:272   */\n      dup5\n        /* \"#utility.yul\":261:264   */\n      dup5\n        /* \"#utility.yul\":257:273   */\n      add\n        /* \"#utility.yul\":254:279   */\n      gt\n        /* \"#utility.yul\":251:363   */\n      iszero\n      tag_94\n      jumpi\n        /* \"#utility.yul\":282:361   */\n      tag_95\n      tag_96\n      jump\t// in\n    tag_95:\n        /* \"#utility.yul\":251:363   */\n    tag_94:\n        /* \"#utility.yul\":372:413   */\n      tag_97\n        /* \"#utility.yul\":406:412   */\n      dup5\n        /* \"#utility.yul\":401:404   */\n      dup3\n        /* \"#utility.yul\":396:399   */\n      dup6\n        /* \"#utility.yul\":372:413   */\n      tag_98\n      jump\t// in\n    tag_97:\n        /* \"#utility.yul\":91:419   */\n      pop\n        /* \"#utility.yul\":7:419   */\n      swap4\n      swap3\n      pop\n      pop\n      pop\n      jump\t// out\n        /* \"#utility.yul\":425:846   */\n    tag_99:\n        /* \"#utility.yul\":514:519   */\n      0x00\n        /* \"#utility.yul\":539:605   */\n      tag_101\n        /* \"#utility.yul\":555:604   */\n      tag_102\n        /* \"#utility.yul\":597:603   */\n      dup5\n        /* \"#utility.yul\":555:604   */\n      tag_92\n      jump\t// in\n    tag_102:\n        /* \"#utility.yul\":539:605   */\n      tag_93\n      jump\t// in\n    tag_101:\n        /* \"#utility.yul\":530:605   */\n      swap1\n      pop\n        /* \"#utility.yul\":628:634   */\n      dup3\n        /* \"#utility.yul\":621:626   */\n      dup2\n        /* \"#utility.yul\":614:635   */\n      mstore\n        /* \"#utility.yul\":666:670   */\n      0x20\n        /* \"#utility.yul\":659:664   */\n      dup2\n        /* \"#utility.yul\":655:671   */\n      add\n        /* \"#utility.yul\":704:707   */\n      dup5\n        /* \"#utility.yul\":695:701   */\n      dup5\n        /* \"#utility.yul\":690:693   */\n      dup5\n        /* \"#utility.yul\":686:702   */\n      add\n        /* \"#utility.yul\":683:708   */\n      gt\n        /* \"#utility.yul\":680:792   */\n      iszero\n      tag_103\n      jumpi\n        /* \"#utility.yul\":711:790   */\n      tag_104\n      tag_96\n      jump\t// in\n    tag_104:\n        /* \"#utility.yul\":680:792   */\n    tag_103:\n        /* \"#utility.yul\":801:840   */\n      tag_105\n        /* \"#utility.yul\":833:839   */\n      dup5\n        /* \"#utility.yul\":828:831   */\n      dup3\n        /* \"#utility.yul\":823:826   */\n      dup6\n        /* \"#utility.yul\":801:840   */\n      tag_106\n      jump\t// in\n    tag_105:\n        /* \"#utility.yul\":520:846   */\n      pop\n        /* \"#utility.yul\":425:846   */\n      swap4\n      swap3\n      pop\n      pop\n      pop\n      jump\t// out\n        /* \"#utility.yul\":852:991   */\n    tag_107:\n        /* \"#utility.yul\":898:903   */\n      0x00\n        /* \"#utility.yul\":936:942   */\n      dup2\n        /* \"#utility.yul\":923:943   */\n      calldataload\n        /* \"#utility.yul\":914:943   */\n      swap1\n      pop\n        /* \"#utility.yul\":952:985   */\n      tag_109\n        /* \"#utility.yul\":979:984   */\n      dup2\n        /* \"#utility.yul\":952:985   */\n      tag_110\n      jump\t// in\n    tag_109:\n        /* \"#utility.yul\":852:991   */\n      swap3\n      swap2\n      pop\n      pop\n      jump\t// out\n        /* \"#utility.yul\":997:1134   */\n    tag_111:\n        /* \"#utility.yul\":1051:1056   */\n      0x00\n        /* \"#utility.yul\":1082:1088   */\n      dup2\n        /* \"#utility.yul\":1076:1089   */\n      mload\n        /* \"#utility.yul\":1067:1089   */\n      swap1\n      pop\n        /* \"#utility.yul\":1098:1128   */\n      tag_113\n        /* \"#utility.yul\":1122:1127   */\n      dup2\n        /* \"#utility.yul\":1098:1128   */\n      tag_114\n      jump\t// in\n    tag_113:\n        /* \"#utility.yul\":997:1134   */\n      swap3\n      swap2\n      pop\n      pop\n      jump\t// out\n        /* \"#utility.yul\":1154:1494   */\n    tag_115:\n        /* \"#utility.yul\":1210:1215   */\n      0x00\n        /* \"#utility.yul\":1259:1262   */\n      dup3\n        /* \"#utility.yul\":1252:1256   */\n      0x1f\n        /* \"#utility.yul\":1244:1250   */\n      dup4\n        /* \"#utility.yul\":1240:1257   */\n      add\n        /* \"#utility.yul\":1236:1263   */\n      slt\n        /* \"#utility.yul\":1226:1348   */\n      tag_117\n      jumpi\n        /* \"#utility.yul\":1267:1346   */\n      tag_118\n      tag_119\n      jump\t// in\n    tag_118:\n        /* \"#utility.yul\":1226:1348   */\n    tag_117:\n        /* \"#utility.yul\":1384:1390   */\n      dup2\n        /* \"#utility.yul\":1371:1391   */\n      calldataload\n        /* \"#utility.yul\":1409:1488   */\n      tag_120\n        /* \"#utility.yul\":1484:1487   */\n      dup5\n        /* \"#utility.yul\":1476:1482   */\n      dup3\n        /* \"#utility.yul\":1469:1473   */\n      0x20\n        /* \"#utility.yul\":1461:1467   */\n      dup7\n        /* \"#utility.yul\":1457:1474   */\n      add\n        /* \"#utility.yul\":1409:1488   */\n      tag_88\n      jump\t// in\n    tag_120:\n        /* \"#utility.yul\":1400:1488   */\n      swap2\n      pop\n        /* \"#utility.yul\":1216:1494   */\n      pop\n        /* \"#utility.yul\":1154:1494   */\n      swap3\n      swap2\n      pop\n      pop\n      jump\t// out\n        /* \"#utility.yul\":1514:1869   */\n    tag_121:\n        /* \"#utility.yul\":1581:1586   */\n      0x00\n        /* \"#utility.yul\":1630:1633   */\n      dup3\n        /* \"#utility.yul\":1623:1627   */\n      0x1f\n        /* \"#utility.yul\":1615:1621   */\n      dup4\n        /* \"#utility.yul\":1611:1628   */\n      add\n        /* \"#utility.yul\":1607:1634   */\n      slt\n        /* \"#utility.yul\":1597:1719   */\n      tag_123\n      jumpi\n        /* \"#utility.yul\":1638:1717   */\n      tag_124\n      tag_119\n      jump\t// in\n    tag_124:\n        /* \"#utility.yul\":1597:1719   */\n    tag_123:\n        /* \"#utility.yul\":1748:1754   */\n      dup2\n        /* \"#utility.yul\":1742:1755   */\n      mload\n        /* \"#utility.yul\":1773:1863   */\n      tag_125\n        /* \"#utility.yul\":1859:1862   */\n      dup5\n        /* \"#utility.yul\":1851:1857   */\n      dup3\n        /* \"#utility.yul\":1844:1848   */\n      0x20\n        /* \"#utility.yul\":1836:1842   */\n      dup7\n        /* \"#utility.yul\":1832:1849   */\n      add\n        /* \"#utility.yul\":1773:1863   */\n      tag_99\n      jump\t// in\n    tag_125:\n        /* \"#utility.yul\":1764:1863   */\n      swap2\n      pop\n        /* \"#utility.yul\":1587:1869   */\n      pop\n        /* \"#utility.yul\":1514:1869   */\n      swap3\n      swap2\n      pop\n      pop\n      jump\t// out\n        /* \"#utility.yul\":1875:2018   */\n    tag_126:\n        /* \"#utility.yul\":1932:1937   */\n      0x00\n        /* \"#utility.yul\":1963:1969   */\n      dup2\n        /* \"#utility.yul\":1957:1970   */\n      mload\n        /* \"#utility.yul\":1948:1970   */\n      swap1\n      pop\n        /* \"#utility.yul\":1979:2012   */\n      tag_128\n        /* \"#utility.yul\":2006:2011   */\n      dup2\n        /* \"#utility.yul\":1979:2012   */\n      tag_129\n      jump\t// in\n    tag_128:\n        /* \"#utility.yul\":1875:2018   */\n      swap3\n      swap2\n      pop\n      pop\n      jump\t// out\n        /* \"#utility.yul\":2024:2498   */\n    tag_18:\n        /* \"#utility.yul\":2092:2098   */\n      0x00\n        /* \"#utility.yul\":2100:2106   */\n      dup1\n        /* \"#utility.yul\":2149:2151   */\n      0x40\n        /* \"#utility.yul\":2137:2146   */\n      dup4\n        /* \"#utility.yul\":2128:2135   */\n      dup6\n        /* \"#utility.yul\":2124:2147   */\n      sub\n        /* \"#utility.yul\":2120:2152   */\n      slt\n        /* \"#utility.yul\":2117:2236   */\n      iszero\n      tag_131\n      jumpi\n        /* \"#utility.yul\":2155:2234   */\n      tag_132\n      tag_133\n      jump\t// in\n    tag_132:\n        /* \"#utility.yul\":2117:2236   */\n    tag_131:\n        /* \"#utility.yul\":2275:2276   */\n      0x00\n        /* \"#utility.yul\":2300:2353   */\n      tag_134\n        /* \"#utility.yul\":2345:2352   */\n      dup6\n        /* \"#utility.yul\":2336:2342   */\n      dup3\n        /* \"#utility.yul\":2325:2334   */\n      dup7\n        /* \"#utility.yul\":2321:2343   */\n      add\n        /* \"#utility.yul\":2300:2353   */\n      tag_107\n      jump\t// in\n    tag_134:\n        /* \"#utility.yul\":2290:2353   */\n      swap3\n      pop\n        /* \"#utility.yul\":2246:2363   */\n      pop\n        /* \"#utility.yul\":2402:2404   */\n      0x20\n        /* \"#utility.yul\":2428:2481   */\n      tag_135\n        /* \"#utility.yul\":2473:2480   */\n      dup6\n        /* \"#utility.yul\":2464:2470   */\n      dup3\n        /* \"#utility.yul\":2453:2462   */\n      dup7\n        /* \"#utility.yul\":2449:2471   */\n      add\n        /* \"#utility.yul\":2428:2481   */\n      tag_107\n      jump\t// in\n    tag_135:\n        /* \"#utility.yul\":2418:2481   */\n      swap2\n      pop\n        /* \"#utility.yul\":2373:2491   */\n      pop\n        /* \"#utility.yul\":2024:2498   */\n      swap3\n      pop\n      swap3\n      swap1\n      pop\n      jump\t// out\n        /* \"#utility.yul\":2504:3158   */\n    tag_8:\n        /* \"#utility.yul\":2582:2588   */\n      0x00\n        /* \"#utility.yul\":2590:2596   */\n      dup1\n        /* \"#utility.yul\":2639:2641   */\n      0x40\n        /* \"#utility.yul\":2627:2636   */\n      dup4\n        /* \"#utility.yul\":2618:2625   */\n      dup6\n        /* \"#utility.yul\":2614:2637   */\n      sub\n        /* \"#utility.yul\":2610:2642   */\n      slt\n        /* \"#utility.yul\":2607:2726   */\n      iszero\n      tag_137\n      jumpi\n        /* \"#utility.yul\":2645:2724   */\n      tag_138\n      tag_133\n      jump\t// in\n    tag_138:\n        /* \"#utility.yul\":2607:2726   */\n    tag_137:\n        /* \"#utility.yul\":2765:2766   */\n      0x00\n        /* \"#utility.yul\":2790:2843   */\n      tag_139\n        /* \"#utility.yul\":2835:2842   */\n      dup6\n        /* \"#utility.yul\":2826:2832   */\n      dup3\n        /* \"#utility.yul\":2815:2824   */\n      dup7\n        /* \"#utility.yul\":2811:2833   */\n      add\n        /* \"#utility.yul\":2790:2843   */\n      tag_107\n      jump\t// in\n    tag_139:\n        /* \"#utility.yul\":2780:2843   */\n      swap3\n      pop\n        /* \"#utility.yul\":2736:2853   */\n      pop\n        /* \"#utility.yul\":2920:2922   */\n      0x20\n        /* \"#utility.yul\":2909:2918   */\n      dup4\n        /* \"#utility.yul\":2905:2923   */\n      add\n        /* \"#utility.yul\":2892:2924   */\n      calldataload\n        /* \"#utility.yul\":2951:2969   */\n      0xffffffffffffffff\n        /* \"#utility.yul\":2943:2949   */\n      dup2\n        /* \"#utility.yul\":2940:2970   */\n      gt\n        /* \"#utility.yul\":2937:3054   */\n      iszero\n      tag_140\n      jumpi\n        /* \"#utility.yul\":2973:3052   */\n      tag_141\n      tag_142\n      jump\t// in\n    tag_141:\n        /* \"#utility.yul\":2937:3054   */\n    tag_140:\n        /* \"#utility.yul\":3078:3141   */\n      tag_143\n        /* \"#utility.yul\":3133:3140   */\n      dup6\n        /* \"#utility.yul\":3124:3130   */\n      dup3\n        /* \"#utility.yul\":3113:3122   */\n      dup7\n        /* \"#utility.yul\":3109:3131   */\n      add\n        /* \"#utility.yul\":3078:3141   */\n      tag_115\n      jump\t// in\n    tag_143:\n        /* \"#utility.yul\":3068:3141   */\n      swap2\n      pop\n        /* \"#utility.yul\":2863:3151   */\n      pop\n        /* \"#utility.yul\":2504:3158   */\n      swap3\n      pop\n      swap3\n      swap1\n      pop\n      jump\t// out\n        /* \"#utility.yul\":3164:3688   */\n    tag_44:\n        /* \"#utility.yul\":3244:3250   */\n      0x00\n        /* \"#utility.yul\":3293:3295   */\n      0x20\n        /* \"#utility.yul\":3281:3290   */\n      dup3\n        /* \"#utility.yul\":3272:3279   */\n      dup5\n        /* \"#utility.yul\":3268:3291   */\n      sub\n        /* \"#utility.yul\":3264:3296   */\n      slt\n        /* \"#utility.yul\":3261:3380   */\n      iszero\n      tag_145\n      jumpi\n        /* \"#utility.yul\":3299:3378   */\n      tag_146\n      tag_133\n      jump\t// in\n    tag_146:\n        /* \"#utility.yul\":3261:3380   */\n    tag_145:\n        /* \"#utility.yul\":3440:3441   */\n      0x00\n        /* \"#utility.yul\":3429:3438   */\n      dup3\n        /* \"#utility.yul\":3425:3442   */\n      add\n        /* \"#utility.yul\":3419:3443   */\n      mload\n        /* \"#utility.yul\":3470:3488   */\n      0xffffffffffffffff\n        /* \"#utility.yul\":3462:3468   */\n      dup2\n        /* \"#utility.yul\":3459:3489   */\n      gt\n        /* \"#utility.yul\":3456:3573   */\n      iszero\n      tag_147\n      jumpi\n        /* \"#utility.yul\":3492:3571   */\n      tag_148\n      tag_142\n      jump\t// in\n    tag_148:\n        /* \"#utility.yul\":3456:3573   */\n    tag_147:\n        /* \"#utility.yul\":3597:3671   */\n      tag_149\n        /* \"#utility.yul\":3663:3670   */\n      dup5\n        /* \"#utility.yul\":3654:3660   */\n      dup3\n        /* \"#utility.yul\":3643:3652   */\n      dup6\n        /* \"#utility.yul\":3639:3661   */\n      add\n        /* \"#utility.yul\":3597:3671   */\n      tag_121\n      jump\t// in\n    tag_149:\n        /* \"#utility.yul\":3587:3671   */\n      swap2\n      pop\n        /* \"#utility.yul\":3390:3681   */\n      pop\n        /* \"#utility.yul\":3164:3688   */\n      swap3\n      swap2\n      pop\n      pop\n      jump\t// out\n        /* \"#utility.yul\":3694:4547   */\n    tag_56:\n        /* \"#utility.yul\":3793:3799   */\n      0x00\n        /* \"#utility.yul\":3801:3807   */\n      dup1\n        /* \"#utility.yul\":3850:3852   */\n      0x40\n        /* \"#utility.yul\":3838:3847   */\n      dup4\n        /* \"#utility.yul\":3829:3836   */\n      dup6\n        /* \"#utility.yul\":3825:3848   */\n      sub\n        /* \"#utility.yul\":3821:3853   */\n      slt\n        /* \"#utility.yul\":3818:3937   */\n      iszero\n      tag_151\n      jumpi\n        /* \"#utility.yul\":3856:3935   */\n      tag_152\n      tag_133\n      jump\t// in\n    tag_152:\n        /* \"#utility.yul\":3818:3937   */\n    tag_151:\n        /* \"#utility.yul\":3997:3998   */\n      0x00\n        /* \"#utility.yul\":3986:3995   */\n      dup4\n        /* \"#utility.yul\":3982:3999   */\n      add\n        /* \"#utility.yul\":3976:4000   */\n      mload\n        /* \"#utility.yul\":4027:4045   */\n      0xffffffffffffffff\n        /* \"#utility.yul\":4019:4025   */\n      dup2\n        /* \"#utility.yul\":4016:4046   */\n      gt\n        /* \"#utility.yul\":4013:4130   */\n      iszero\n      tag_153\n      jumpi\n        /* \"#utility.yul\":4049:4128   */\n      tag_154\n      tag_142\n      jump\t// in\n    tag_154:\n        /* \"#utility.yul\":4013:4130   */\n    tag_153:\n        /* \"#utility.yul\":4154:4228   */\n      tag_155\n        /* \"#utility.yul\":4220:4227   */\n      dup6\n        /* \"#utility.yul\":4211:4217   */\n      dup3\n        /* \"#utility.yul\":4200:4209   */\n      dup7\n        /* \"#utility.yul\":4196:4218   */\n      add\n        /* \"#utility.yul\":4154:4228   */\n      tag_121\n      jump\t// in\n    tag_155:\n        /* \"#utility.yul\":4144:4228   */\n      swap3\n      pop\n        /* \"#utility.yul\":3947:4238   */\n      pop\n        /* \"#utility.yul\":4298:4300   */\n      0x20\n        /* \"#utility.yul\":4287:4296   */\n      dup4\n        /* \"#utility.yul\":4283:4301   */\n      add\n        /* \"#utility.yul\":4277:4302   */\n      mload\n        /* \"#utility.yul\":4329:4347   */\n      0xffffffffffffffff\n        /* \"#utility.yul\":4321:4327   */\n      dup2\n        /* \"#utility.yul\":4318:4348   */\n      gt\n        /* \"#utility.yul\":4315:4432   */\n      iszero\n      tag_156\n      jumpi\n        /* \"#utility.yul\":4351:4430   */\n      tag_157\n      tag_142\n      jump\t// in\n    tag_157:\n        /* \"#utility.yul\":4315:4432   */\n    tag_156:\n        /* \"#utility.yul\":4456:4530   */\n      tag_158\n        /* \"#utility.yul\":4522:4529   */\n      dup6\n        /* \"#utility.yul\":4513:4519   */\n      dup3\n        /* \"#utility.yul\":4502:4511   */\n      dup7\n        /* \"#utility.yul\":4498:4520   */\n      add\n        /* \"#utility.yul\":4456:4530   */\n      tag_121\n      jump\t// in\n    tag_158:\n        /* \"#utility.yul\":4446:4530   */\n      swap2\n      pop\n        /* \"#utility.yul\":4248:4540   */\n      pop\n        /* \"#utility.yul\":3694:4547   */\n      swap3\n      pop\n      swap3\n      swap1\n      pop\n      jump\t// out\n        /* \"#utility.yul\":4553:5054   */\n    tag_29:\n        /* \"#utility.yul\":4629:4635   */\n      0x00\n        /* \"#utility.yul\":4637:4643   */\n      dup1\n        /* \"#utility.yul\":4686:4688   */\n      0x40\n        /* \"#utility.yul\":4674:4683   */\n      dup4\n        /* \"#utility.yul\":4665:4672   */\n      dup6\n        /* \"#utility.yul\":4661:4684   */\n      sub\n        /* \"#utility.yul\":4657:4689   */\n      slt\n        /* \"#utility.yul\":4654:4773   */\n      iszero\n      tag_160\n      jumpi\n        /* \"#utility.yul\":4692:4771   */\n      tag_161\n      tag_133\n      jump\t// in\n    tag_161:\n        /* \"#utility.yul\":4654:4773   */\n    tag_160:\n        /* \"#utility.yul\":4812:4813   */\n      0x00\n        /* \"#utility.yul\":4837:4901   */\n      tag_162\n        /* \"#utility.yul\":4893:4900   */\n      dup6\n        /* \"#utility.yul\":4884:4890   */\n      dup3\n        /* \"#utility.yul\":4873:4882   */\n      dup7\n        /* \"#utility.yul\":4869:4891   */\n      add\n        /* \"#utility.yul\":4837:4901   */\n      tag_126\n      jump\t// in\n    tag_162:\n        /* \"#utility.yul\":4827:4901   */\n      swap3\n      pop\n        /* \"#utility.yul\":4783:4911   */\n      pop\n        /* \"#utility.yul\":4950:4952   */\n      0x20\n        /* \"#utility.yul\":4976:5037   */\n      tag_163\n        /* \"#utility.yul\":5029:5036   */\n      dup6\n        /* \"#utility.yul\":5020:5026   */\n      dup3\n        /* \"#utility.yul\":5009:5018   */\n      dup7\n        /* \"#utility.yul\":5005:5027   */\n      add\n        /* \"#utility.yul\":4976:5037   */\n      tag_111\n      jump\t// in\n    tag_163:\n        /* \"#utility.yul\":4966:5037   */\n      swap2\n      pop\n        /* \"#utility.yul\":4921:5047   */\n      pop\n        /* \"#utility.yul\":4553:5054   */\n      swap3\n      pop\n      swap3\n      swap1\n      pop\n      jump\t// out\n        /* \"#utility.yul\":5060:5178   */\n    tag_164:\n        /* \"#utility.yul\":5147:5171   */\n      tag_166\n        /* \"#utility.yul\":5165:5170   */\n      dup2\n        /* \"#utility.yul\":5147:5171   */\n      tag_167\n      jump\t// in\n    tag_166:\n        /* \"#utility.yul\":5142:5145   */\n      dup3\n        /* \"#utility.yul\":5135:5172   */\n      mstore\n        /* \"#utility.yul\":5060:5178   */\n      pop\n      pop\n      jump\t// out\n        /* \"#utility.yul\":5184:5293   */\n    tag_168:\n        /* \"#utility.yul\":5265:5286   */\n      tag_170\n        /* \"#utility.yul\":5280:5285   */\n      dup2\n        /* \"#utility.yul\":5265:5286   */\n      tag_171\n      jump\t// in\n    tag_170:\n        /* \"#utility.yul\":5260:5263   */\n      dup3\n        /* \"#utility.yul\":5253:5287   */\n      mstore\n        /* \"#utility.yul\":5184:5293   */\n      pop\n      pop\n      jump\t// out\n        /* \"#utility.yul\":5299:5663   */\n    tag_172:\n        /* \"#utility.yul\":5387:5390   */\n      0x00\n        /* \"#utility.yul\":5415:5454   */\n      tag_174\n        /* \"#utility.yul\":5448:5453   */\n      dup3\n        /* \"#utility.yul\":5415:5454   */\n      tag_175\n      jump\t// in\n    tag_174:\n        /* \"#utility.yul\":5470:5541   */\n      tag_176\n        /* \"#utility.yul\":5534:5540   */\n      dup2\n        /* \"#utility.yul\":5529:5532   */\n      dup6\n        /* \"#utility.yul\":5470:5541   */\n      tag_177\n      jump\t// in\n    tag_176:\n        /* \"#utility.yul\":5463:5541   */\n      swap4\n      pop\n        /* \"#utility.yul\":5550:5602   */\n      tag_178\n        /* \"#utility.yul\":5595:5601   */\n      dup2\n        /* \"#utility.yul\":5590:5593   */\n      dup6\n        /* \"#utility.yul\":5583:5587   */\n      0x20\n        /* \"#utility.yul\":5576:5581   */\n      dup7\n        /* \"#utility.yul\":5572:5588   */\n      add\n        /* \"#utility.yul\":5550:5602   */\n      tag_106\n      jump\t// in\n    tag_178:\n        /* \"#utility.yul\":5627:5656   */\n      tag_179\n        /* \"#utility.yul\":5649:5655   */\n      dup2\n        /* \"#utility.yul\":5627:5656   */\n      tag_180\n      jump\t// in\n    tag_179:\n        /* \"#utility.yul\":5622:5625   */\n      dup5\n        /* \"#utility.yul\":5618:5657   */\n      add\n        /* \"#utility.yul\":5611:5657   */\n      swap2\n      pop\n        /* \"#utility.yul\":5391:5663   */\n      pop\n        /* \"#utility.yul\":5299:5663   */\n      swap3\n      swap2\n      pop\n      pop\n      jump\t// out\n        /* \"#utility.yul\":5669:6046   */\n    tag_181:\n        /* \"#utility.yul\":5775:5778   */\n      0x00\n        /* \"#utility.yul\":5803:5842   */\n      tag_183\n        /* \"#utility.yul\":5836:5841   */\n      dup3\n        /* \"#utility.yul\":5803:5842   */\n      tag_175\n      jump\t// in\n    tag_183:\n        /* \"#utility.yul\":5858:5947   */\n      tag_184\n        /* \"#utility.yul\":5940:5946   */\n      dup2\n        /* \"#utility.yul\":5935:5938   */\n      dup6\n        /* \"#utility.yul\":5858:5947   */\n      tag_185\n      jump\t// in\n    tag_184:\n        /* \"#utility.yul\":5851:5947   */\n      swap4\n      pop\n        /* \"#utility.yul\":5956:6008   */\n      tag_186\n        /* \"#utility.yul\":6001:6007   */\n      dup2\n        /* \"#utility.yul\":5996:5999   */\n      dup6\n        /* \"#utility.yul\":5989:5993   */\n      0x20\n        /* \"#utility.yul\":5982:5987   */\n      dup7\n        /* \"#utility.yul\":5978:5994   */\n      add\n        /* \"#utility.yul\":5956:6008   */\n      tag_106\n      jump\t// in\n    tag_186:\n        /* \"#utility.yul\":6033:6039   */\n      dup1\n        /* \"#utility.yul\":6028:6031   */\n      dup5\n        /* \"#utility.yul\":6024:6040   */\n      add\n        /* \"#utility.yul\":6017:6040   */\n      swap2\n      pop\n        /* \"#utility.yul\":5779:6046   */\n      pop\n        /* \"#utility.yul\":5669:6046   */\n      swap3\n      swap2\n      pop\n      pop\n      jump\t// out\n        /* \"#utility.yul\":6052:6452   */\n    tag_187:\n        /* \"#utility.yul\":6212:6215   */\n      0x00\n        /* \"#utility.yul\":6233:6317   */\n      tag_189\n        /* \"#utility.yul\":6315:6316   */\n      0x05\n        /* \"#utility.yul\":6310:6313   */\n      dup4\n        /* \"#utility.yul\":6233:6317   */\n      tag_185\n      jump\t// in\n    tag_189:\n        /* \"#utility.yul\":6226:6317   */\n      swap2\n      pop\n        /* \"#utility.yul\":6326:6419   */\n      tag_190\n        /* \"#utility.yul\":6415:6418   */\n      dup3\n        /* \"#utility.yul\":6326:6419   */\n      tag_191\n      jump\t// in\n    tag_190:\n        /* \"#utility.yul\":6444:6445   */\n      0x05\n        /* \"#utility.yul\":6439:6442   */\n      dup3\n        /* \"#utility.yul\":6435:6446   */\n      add\n        /* \"#utility.yul\":6428:6446   */\n      swap1\n      pop\n        /* \"#utility.yul\":6052:6452   */\n      swap2\n      swap1\n      pop\n      jump\t// out\n        /* \"#utility.yul\":6458:6858   */\n    tag_192:\n        /* \"#utility.yul\":6618:6621   */\n      0x00\n        /* \"#utility.yul\":6639:6723   */\n      tag_194\n        /* \"#utility.yul\":6721:6722   */\n      0x07\n        /* \"#utility.yul\":6716:6719   */\n      dup4\n        /* \"#utility.yul\":6639:6723   */\n      tag_185\n      jump\t// in\n    tag_194:\n        /* \"#utility.yul\":6632:6723   */\n      swap2\n      pop\n        /* \"#utility.yul\":6732:6825   */\n      tag_195\n        /* \"#utility.yul\":6821:6824   */\n      dup3\n        /* \"#utility.yul\":6732:6825   */\n      tag_196\n      jump\t// in\n    tag_195:\n        /* \"#utility.yul\":6850:6851   */\n      0x07\n        /* \"#utility.yul\":6845:6848   */\n      dup3\n        /* \"#utility.yul\":6841:6852   */\n      add\n        /* \"#utility.yul\":6834:6852   */\n      swap1\n      pop\n        /* \"#utility.yul\":6458:6858   */\n      swap2\n      swap1\n      pop\n      jump\t// out\n        /* \"#utility.yul\":6864:7230   */\n    tag_197:\n        /* \"#utility.yul\":7006:7009   */\n      0x00\n        /* \"#utility.yul\":7027:7094   */\n      tag_199\n        /* \"#utility.yul\":7091:7093   */\n      0x0c\n        /* \"#utility.yul\":7086:7089   */\n      dup4\n        /* \"#utility.yul\":7027:7094   */\n      tag_177\n      jump\t// in\n    tag_199:\n        /* \"#utility.yul\":7020:7094   */\n      swap2\n      pop\n        /* \"#utility.yul\":7103:7196   */\n      tag_200\n        /* \"#utility.yul\":7192:7195   */\n      dup3\n        /* \"#utility.yul\":7103:7196   */\n      tag_201\n      jump\t// in\n    tag_200:\n        /* \"#utility.yul\":7221:7223   */\n      0x20\n        /* \"#utility.yul\":7216:7219   */\n      dup3\n        /* \"#utility.yul\":7212:7224   */\n      add\n        /* \"#utility.yul\":7205:7224   */\n      swap1\n      pop\n        /* \"#utility.yul\":6864:7230   */\n      swap2\n      swap1\n      pop\n      jump\t// out\n        /* \"#utility.yul\":7236:7636   */\n    tag_202:\n        /* \"#utility.yul\":7396:7399   */\n      0x00\n        /* \"#utility.yul\":7417:7501   */\n      tag_204\n        /* \"#utility.yul\":7499:7500   */\n      0x07\n        /* \"#utility.yul\":7494:7497   */\n      dup4\n        /* \"#utility.yul\":7417:7501   */\n      tag_185\n      jump\t// in\n    tag_204:\n        /* \"#utility.yul\":7410:7501   */\n      swap2\n      pop\n        /* \"#utility.yul\":7510:7603   */\n      tag_205\n        /* \"#utility.yul\":7599:7602   */\n      dup3\n        /* \"#utility.yul\":7510:7603   */\n      tag_206\n      jump\t// in\n    tag_205:\n        /* \"#utility.yul\":7628:7629   */\n      0x07\n        /* \"#utility.yul\":7623:7626   */\n      dup3\n        /* \"#utility.yul\":7619:7630   */\n      add\n        /* \"#utility.yul\":7612:7630   */\n      swap1\n      pop\n        /* \"#utility.yul\":7236:7636   */\n      swap2\n      swap1\n      pop\n      jump\t// out\n        /* \"#utility.yul\":7642:8008   */\n    tag_207:\n        /* \"#utility.yul\":7784:7787   */\n      0x00\n        /* \"#utility.yul\":7805:7872   */\n      tag_209\n        /* \"#utility.yul\":7869:7871   */\n      0x13\n        /* \"#utility.yul\":7864:7867   */\n      dup4\n        /* \"#utility.yul\":7805:7872   */\n      tag_177\n      jump\t// in\n    tag_209:\n        /* \"#utility.yul\":7798:7872   */\n      swap2\n      pop\n        /* \"#utility.yul\":7881:7974   */\n      tag_210\n        /* \"#utility.yul\":7970:7973   */\n      dup3\n        /* \"#utility.yul\":7881:7974   */\n      tag_211\n      jump\t// in\n    tag_210:\n        /* \"#utility.yul\":7999:8001   */\n      0x20\n        /* \"#utility.yul\":7994:7997   */\n      dup3\n        /* \"#utility.yul\":7990:8002   */\n      add\n        /* \"#utility.yul\":7983:8002   */\n      swap1\n      pop\n        /* \"#utility.yul\":7642:8008   */\n      swap2\n      swap1\n      pop\n      jump\t// out\n        /* \"#utility.yul\":8014:8414   */\n    tag_212:\n        /* \"#utility.yul\":8174:8177   */\n      0x00\n        /* \"#utility.yul\":8195:8279   */\n      tag_214\n        /* \"#utility.yul\":8277:8278   */\n      0x04\n        /* \"#utility.yul\":8272:8275   */\n      dup4\n        /* \"#utility.yul\":8195:8279   */\n      tag_185\n      jump\t// in\n    tag_214:\n        /* \"#utility.yul\":8188:8279   */\n      swap2\n      pop\n        /* \"#utility.yul\":8288:8381   */\n      tag_215\n        /* \"#utility.yul\":8377:8380   */\n      dup3\n        /* \"#utility.yul\":8288:8381   */\n      tag_216\n      jump\t// in\n    tag_215:\n        /* \"#utility.yul\":8406:8407   */\n      0x04\n        /* \"#utility.yul\":8401:8404   */\n      dup3\n        /* \"#utility.yul\":8397:8408   */\n      add\n        /* \"#utility.yul\":8390:8408   */\n      swap1\n      pop\n        /* \"#utility.yul\":8014:8414   */\n      swap2\n      swap1\n      pop\n      jump\t// out\n        /* \"#utility.yul\":8420:8820   */\n    tag_217:\n        /* \"#utility.yul\":8580:8583   */\n      0x00\n        /* \"#utility.yul\":8601:8685   */\n      tag_219\n        /* \"#utility.yul\":8683:8684   */\n      0x04\n        /* \"#utility.yul\":8678:8681   */\n      dup4\n        /* \"#utility.yul\":8601:8685   */\n      tag_185\n      jump\t// in\n    tag_219:\n        /* \"#utility.yul\":8594:8685   */\n      swap2\n      pop\n        /* \"#utility.yul\":8694:8787   */\n      tag_220\n        /* \"#utility.yul\":8783:8786   */\n      dup3\n        /* \"#utility.yul\":8694:8787   */\n      tag_221\n      jump\t// in\n    tag_220:\n        /* \"#utility.yul\":8812:8813   */\n      0x04\n        /* \"#utility.yul\":8807:8810   */\n      dup3\n        /* \"#utility.yul\":8803:8814   */\n      add\n        /* \"#utility.yul\":8796:8814   */\n      swap1\n      pop\n        /* \"#utility.yul\":8420:8820   */\n      swap2\n      swap1\n      pop\n      jump\t// out\n        /* \"#utility.yul\":8826:9192   */\n    tag_222:\n        /* \"#utility.yul\":8968:8971   */\n      0x00\n        /* \"#utility.yul\":8989:9056   */\n      tag_224\n        /* \"#utility.yul\":9053:9055   */\n      0x14\n        /* \"#utility.yul\":9048:9051   */\n      dup4\n        /* \"#utility.yul\":8989:9056   */\n      tag_177\n      jump\t// in\n    tag_224:\n        /* \"#utility.yul\":8982:9056   */\n      swap2\n      pop\n        /* \"#utility.yul\":9065:9158   */\n      tag_225\n        /* \"#utility.yul\":9154:9157   */\n      dup3\n        /* \"#utility.yul\":9065:9158   */\n      tag_226\n      jump\t// in\n    tag_225:\n        /* \"#utility.yul\":9183:9185   */\n      0x20\n        /* \"#utility.yul\":9178:9181   */\n      dup3\n        /* \"#utility.yul\":9174:9186   */\n      add\n        /* \"#utility.yul\":9167:9186   */\n      swap1\n      pop\n        /* \"#utility.yul\":8826:9192   */\n      swap2\n      swap1\n      pop\n      jump\t// out\n        /* \"#utility.yul\":9198:9564   */\n    tag_227:\n        /* \"#utility.yul\":9340:9343   */\n      0x00\n        /* \"#utility.yul\":9361:9428   */\n      tag_229\n        /* \"#utility.yul\":9425:9427   */\n      0x20\n        /* \"#utility.yul\":9420:9423   */\n      dup4\n        /* \"#utility.yul\":9361:9428   */\n      tag_177\n      jump\t// in\n    tag_229:\n        /* \"#utility.yul\":9354:9428   */\n      swap2\n      pop\n        /* \"#utility.yul\":9437:9530   */\n      tag_230\n        /* \"#utility.yul\":9526:9529   */\n      dup3\n        /* \"#utility.yul\":9437:9530   */\n      tag_231\n      jump\t// in\n    tag_230:\n        /* \"#utility.yul\":9555:9557   */\n      0x20\n        /* \"#utility.yul\":9550:9553   */\n      dup3\n        /* \"#utility.yul\":9546:9558   */\n      add\n        /* \"#utility.yul\":9539:9558   */\n      swap1\n      pop\n        /* \"#utility.yul\":9198:9564   */\n      swap2\n      swap1\n      pop\n      jump\t// out\n        /* \"#utility.yul\":9570:9970   */\n    tag_232:\n        /* \"#utility.yul\":9730:9733   */\n      0x00\n        /* \"#utility.yul\":9751:9835   */\n      tag_234\n        /* \"#utility.yul\":9833:9834   */\n      0x04\n        /* \"#utility.yul\":9828:9831   */\n      dup4\n        /* \"#utility.yul\":9751:9835   */\n      tag_185\n      jump\t// in\n    tag_234:\n        /* \"#utility.yul\":9744:9835   */\n      swap2\n      pop\n        /* \"#utility.yul\":9844:9937   */\n      tag_235\n        /* \"#utility.yul\":9933:9936   */\n      dup3\n        /* \"#utility.yul\":9844:9937   */\n      tag_236\n      jump\t// in\n    tag_235:\n        /* \"#utility.yul\":9962:9963   */\n      0x04\n        /* \"#utility.yul\":9957:9960   */\n      dup3\n        /* \"#utility.yul\":9953:9964   */\n      add\n        /* \"#utility.yul\":9946:9964   */\n      swap1\n      pop\n        /* \"#utility.yul\":9570:9970   */\n      swap2\n      swap1\n      pop\n      jump\t// out\n        /* \"#utility.yul\":9976:10094   */\n    tag_237:\n        /* \"#utility.yul\":10063:10087   */\n      tag_239\n        /* \"#utility.yul\":10081:10086   */\n      dup2\n        /* \"#utility.yul\":10063:10087   */\n      tag_240\n      jump\t// in\n    tag_239:\n        /* \"#utility.yul\":10058:10061   */\n      dup3\n        /* \"#utility.yul\":10051:10088   */\n      mstore\n        /* \"#utility.yul\":9976:10094   */\n      pop\n      pop\n      jump\t// out\n        /* \"#utility.yul\":10100:10375   */\n    tag_46:\n        /* \"#utility.yul\":10232:10235   */\n      0x00\n        /* \"#utility.yul\":10254:10349   */\n      tag_242\n        /* \"#utility.yul\":10345:10348   */\n      dup3\n        /* \"#utility.yul\":10336:10342   */\n      dup5\n        /* \"#utility.yul\":10254:10349   */\n      tag_181\n      jump\t// in\n    tag_242:\n        /* \"#utility.yul\":10247:10349   */\n      swap2\n      pop\n        /* \"#utility.yul\":10366:10369   */\n      dup2\n        /* \"#utility.yul\":10359:10369   */\n      swap1\n      pop\n        /* \"#utility.yul\":10100:10375   */\n      swap3\n      swap2\n      pop\n      pop\n      jump\t// out\n        /* \"#utility.yul\":10381:10762   */\n    tag_70:\n        /* \"#utility.yul\":10566:10569   */\n      0x00\n        /* \"#utility.yul\":10588:10736   */\n      tag_244\n        /* \"#utility.yul\":10732:10735   */\n      dup3\n        /* \"#utility.yul\":10588:10736   */\n      tag_187\n      jump\t// in\n    tag_244:\n        /* \"#utility.yul\":10581:10736   */\n      swap2\n      pop\n        /* \"#utility.yul\":10753:10756   */\n      dup2\n        /* \"#utility.yul\":10746:10756   */\n      swap1\n      pop\n        /* \"#utility.yul\":10381:10762   */\n      swap2\n      swap1\n      pop\n      jump\t// out\n        /* \"#utility.yul\":10768:11149   */\n    tag_76:\n        /* \"#utility.yul\":10953:10956   */\n      0x00\n        /* \"#utility.yul\":10975:11123   */\n      tag_246\n        /* \"#utility.yul\":11119:11122   */\n      dup3\n        /* \"#utility.yul\":10975:11123   */\n      tag_192\n      jump\t// in\n    tag_246:\n        /* \"#utility.yul\":10968:11123   */\n      swap2\n      pop\n        /* \"#utility.yul\":11140:11143   */\n      dup2\n        /* \"#utility.yul\":11133:11143   */\n      swap1\n      pop\n        /* \"#utility.yul\":10768:11149   */\n      swap2\n      swap1\n      pop\n      jump\t// out\n        /* \"#utility.yul\":11155:11536   */\n    tag_72:\n        /* \"#utility.yul\":11340:11343   */\n      0x00\n        /* \"#utility.yul\":11362:11510   */\n      tag_248\n        /* \"#utility.yul\":11506:11509   */\n      dup3\n        /* \"#utility.yul\":11362:11510   */\n      tag_202\n      jump\t// in\n    tag_248:\n        /* \"#utility.yul\":11355:11510   */\n      swap2\n      pop\n        /* \"#utility.yul\":11527:11530   */\n      dup2\n        /* \"#utility.yul\":11520:11530   */\n      swap1\n      pop\n        /* \"#utility.yul\":11155:11536   */\n      swap2\n      swap1\n      pop\n      jump\t// out\n        /* \"#utility.yul\":11542:11923   */\n    tag_74:\n        /* \"#utility.yul\":11727:11730   */\n      0x00\n        /* \"#utility.yul\":11749:11897   */\n      tag_250\n        /* \"#utility.yul\":11893:11896   */\n      dup3\n        /* \"#utility.yul\":11749:11897   */\n      tag_212\n      jump\t// in\n    tag_250:\n        /* \"#utility.yul\":11742:11897   */\n      swap2\n      pop\n        /* \"#utility.yul\":11914:11917   */\n      dup2\n        /* \"#utility.yul\":11907:11917   */\n      swap1\n      pop\n        /* \"#utility.yul\":11542:11923   */\n      swap2\n      swap1\n      pop\n      jump\t// out\n        /* \"#utility.yul\":11929:12310   */\n    tag_68:\n        /* \"#utility.yul\":12114:12117   */\n      0x00\n        /* \"#utility.yul\":12136:12284   */\n      tag_252\n        /* \"#utility.yul\":12280:12283   */\n      dup3\n        /* \"#utility.yul\":12136:12284   */\n      tag_217\n      jump\t// in\n    tag_252:\n        /* \"#utility.yul\":12129:12284   */\n      swap2\n      pop\n        /* \"#utility.yul\":12301:12304   */\n      dup2\n        /* \"#utility.yul\":12294:12304   */\n      swap1\n      pop\n        /* \"#utility.yul\":11929:12310   */\n      swap2\n      swap1\n      pop\n      jump\t// out\n        /* \"#utility.yul\":12316:12697   */\n    tag_66:\n        /* \"#utility.yul\":12501:12504   */\n      0x00\n        /* \"#utility.yul\":12523:12671   */\n      tag_254\n        /* \"#utility.yul\":12667:12670   */\n      dup3\n        /* \"#utility.yul\":12523:12671   */\n      tag_232\n      jump\t// in\n    tag_254:\n        /* \"#utility.yul\":12516:12671   */\n      swap2\n      pop\n        /* \"#utility.yul\":12688:12691   */\n      dup2\n        /* \"#utility.yul\":12681:12691   */\n      swap1\n      pop\n        /* \"#utility.yul\":12316:12697   */\n      swap2\n      swap1\n      pop\n      jump\t// out\n        /* \"#utility.yul\":12703:12925   */\n    tag_24:\n        /* \"#utility.yul\":12796:12800   */\n      0x00\n        /* \"#utility.yul\":12834:12836   */\n      0x20\n        /* \"#utility.yul\":12823:12832   */\n      dup3\n        /* \"#utility.yul\":12819:12837   */\n      add\n        /* \"#utility.yul\":12811:12837   */\n      swap1\n      pop\n        /* \"#utility.yul\":12847:12918   */\n      tag_256\n        /* \"#utility.yul\":12915:12916   */\n      0x00\n        /* \"#utility.yul\":12904:12913   */\n      dup4\n        /* \"#utility.yul\":12900:12917   */\n      add\n        /* \"#utility.yul\":12891:12897   */\n      dup5\n        /* \"#utility.yul\":12847:12918   */\n      tag_164\n      jump\t// in\n    tag_256:\n        /* \"#utility.yul\":12703:12925   */\n      swap3\n      swap2\n      pop\n      pop\n      jump\t// out\n        /* \"#utility.yul\":12931:13263   */\n    tag_39:\n        /* \"#utility.yul\":13052:13056   */\n      0x00\n        /* \"#utility.yul\":13090:13092   */\n      0x40\n        /* \"#utility.yul\":13079:13088   */\n      dup3\n        /* \"#utility.yul\":13075:13093   */\n      add\n        /* \"#utility.yul\":13067:13093   */\n      swap1\n      pop\n        /* \"#utility.yul\":13103:13174   */\n      tag_258\n        /* \"#utility.yul\":13171:13172   */\n      0x00\n        /* \"#utility.yul\":13160:13169   */\n      dup4\n        /* \"#utility.yul\":13156:13173   */\n      add\n        /* \"#utility.yul\":13147:13153   */\n      dup6\n        /* \"#utility.yul\":13103:13174   */\n      tag_164\n      jump\t// in\n    tag_258:\n        /* \"#utility.yul\":13184:13256   */\n      tag_259\n        /* \"#utility.yul\":13252:13254   */\n      0x20\n        /* \"#utility.yul\":13241:13250   */\n      dup4\n        /* \"#utility.yul\":13237:13255   */\n      add\n        /* \"#utility.yul\":13228:13234   */\n      dup5\n        /* \"#utility.yul\":13184:13256   */\n      tag_164\n      jump\t// in\n    tag_259:\n        /* \"#utility.yul\":12931:13263   */\n      swap4\n      swap3\n      pop\n      pop\n      pop\n      jump\t// out\n        /* \"#utility.yul\":13269:14221   */\n    tag_62:\n        /* \"#utility.yul\":13567:13571   */\n      0x00\n        /* \"#utility.yul\":13605:13608   */\n      0xa0\n        /* \"#utility.yul\":13594:13603   */\n      dup3\n        /* \"#utility.yul\":13590:13609   */\n      add\n        /* \"#utility.yul\":13582:13609   */\n      swap1\n      pop\n        /* \"#utility.yul\":13619:13690   */\n      tag_261\n        /* \"#utility.yul\":13687:13688   */\n      0x00\n        /* \"#utility.yul\":13676:13685   */\n      dup4\n        /* \"#utility.yul\":13672:13689   */\n      add\n        /* \"#utility.yul\":13663:13669   */\n      dup8\n        /* \"#utility.yul\":13619:13690   */\n      tag_164\n      jump\t// in\n    tag_261:\n        /* \"#utility.yul\":13700:13772   */\n      tag_262\n        /* \"#utility.yul\":13768:13770   */\n      0x20\n        /* \"#utility.yul\":13757:13766   */\n      dup4\n        /* \"#utility.yul\":13753:13771   */\n      add\n        /* \"#utility.yul\":13744:13750   */\n      dup7\n        /* \"#utility.yul\":13700:13772   */\n      tag_164\n      jump\t// in\n    tag_262:\n        /* \"#utility.yul\":13819:13828   */\n      dup2\n        /* \"#utility.yul\":13813:13817   */\n      dup2\n        /* \"#utility.yul\":13809:13829   */\n      sub\n        /* \"#utility.yul\":13804:13806   */\n      0x40\n        /* \"#utility.yul\":13793:13802   */\n      dup4\n        /* \"#utility.yul\":13789:13807   */\n      add\n        /* \"#utility.yul\":13782:13830   */\n      mstore\n        /* \"#utility.yul\":13847:13925   */\n      tag_263\n        /* \"#utility.yul\":13920:13924   */\n      dup2\n        /* \"#utility.yul\":13911:13917   */\n      dup6\n        /* \"#utility.yul\":13847:13925   */\n      tag_172\n      jump\t// in\n    tag_263:\n        /* \"#utility.yul\":13839:13925   */\n      swap1\n      pop\n        /* \"#utility.yul\":13972:13981   */\n      dup2\n        /* \"#utility.yul\":13966:13970   */\n      dup2\n        /* \"#utility.yul\":13962:13982   */\n      sub\n        /* \"#utility.yul\":13957:13959   */\n      0x60\n        /* \"#utility.yul\":13946:13955   */\n      dup4\n        /* \"#utility.yul\":13942:13960   */\n      add\n        /* \"#utility.yul\":13935:13983   */\n      mstore\n        /* \"#utility.yul\":14000:14131   */\n      tag_264\n        /* \"#utility.yul\":14126:14130   */\n      dup2\n        /* \"#utility.yul\":14000:14131   */\n      tag_197\n      jump\t// in\n    tag_264:\n        /* \"#utility.yul\":13992:14131   */\n      swap1\n      pop\n        /* \"#utility.yul\":14141:14214   */\n      tag_265\n        /* \"#utility.yul\":14209:14212   */\n      0x80\n        /* \"#utility.yul\":14198:14207   */\n      dup4\n        /* \"#utility.yul\":14194:14213   */\n      add\n        /* \"#utility.yul\":14185:14191   */\n      dup5\n        /* \"#utility.yul\":14141:14214   */\n      tag_237\n      jump\t// in\n    tag_265:\n        /* \"#utility.yul\":13269:14221   */\n      swap6\n      swap5\n      pop\n      pop\n      pop\n      pop\n      pop\n      jump\t// out\n        /* \"#utility.yul\":14227:15179   */\n    tag_60:\n        /* \"#utility.yul\":14525:14529   */\n      0x00\n        /* \"#utility.yul\":14563:14566   */\n      0xa0\n        /* \"#utility.yul\":14552:14561   */\n      dup3\n        /* \"#utility.yul\":14548:14567   */\n      add\n        /* \"#utility.yul\":14540:14567   */\n      swap1\n      pop\n        /* \"#utility.yul\":14577:14648   */\n      tag_267\n        /* \"#utility.yul\":14645:14646   */\n      0x00\n        /* \"#utility.yul\":14634:14643   */\n      dup4\n        /* \"#utility.yul\":14630:14647   */\n      add\n        /* \"#utility.yul\":14621:14627   */\n      dup8\n        /* \"#utility.yul\":14577:14648   */\n      tag_164\n      jump\t// in\n    tag_267:\n        /* \"#utility.yul\":14658:14730   */\n      tag_268\n        /* \"#utility.yul\":14726:14728   */\n      0x20\n        /* \"#utility.yul\":14715:14724   */\n      dup4\n        /* \"#utility.yul\":14711:14729   */\n      add\n        /* \"#utility.yul\":14702:14708   */\n      dup7\n        /* \"#utility.yul\":14658:14730   */\n      tag_164\n      jump\t// in\n    tag_268:\n        /* \"#utility.yul\":14777:14786   */\n      dup2\n        /* \"#utility.yul\":14771:14775   */\n      dup2\n        /* \"#utility.yul\":14767:14787   */\n      sub\n        /* \"#utility.yul\":14762:14764   */\n      0x40\n        /* \"#utility.yul\":14751:14760   */\n      dup4\n        /* \"#utility.yul\":14747:14765   */\n      add\n        /* \"#utility.yul\":14740:14788   */\n      mstore\n        /* \"#utility.yul\":14805:14883   */\n      tag_269\n        /* \"#utility.yul\":14878:14882   */\n      dup2\n        /* \"#utility.yul\":14869:14875   */\n      dup6\n        /* \"#utility.yul\":14805:14883   */\n      tag_172\n      jump\t// in\n    tag_269:\n        /* \"#utility.yul\":14797:14883   */\n      swap1\n      pop\n        /* \"#utility.yul\":14930:14939   */\n      dup2\n        /* \"#utility.yul\":14924:14928   */\n      dup2\n        /* \"#utility.yul\":14920:14940   */\n      sub\n        /* \"#utility.yul\":14915:14917   */\n      0x60\n        /* \"#utility.yul\":14904:14913   */\n      dup4\n        /* \"#utility.yul\":14900:14918   */\n      add\n        /* \"#utility.yul\":14893:14941   */\n      mstore\n        /* \"#utility.yul\":14958:15089   */\n      tag_270\n        /* \"#utility.yul\":15084:15088   */\n      dup2\n        /* \"#utility.yul\":14958:15089   */\n      tag_207\n      jump\t// in\n    tag_270:\n        /* \"#utility.yul\":14950:15089   */\n      swap1\n      pop\n        /* \"#utility.yul\":15099:15172   */\n      tag_271\n        /* \"#utility.yul\":15167:15170   */\n      0x80\n        /* \"#utility.yul\":15156:15165   */\n      dup4\n        /* \"#utility.yul\":15152:15171   */\n      add\n        /* \"#utility.yul\":15143:15149   */\n      dup5\n        /* \"#utility.yul\":15099:15172   */\n      tag_237\n      jump\t// in\n    tag_271:\n        /* \"#utility.yul\":14227:15179   */\n      swap6\n      swap5\n      pop\n      pop\n      pop\n      pop\n      pop\n      jump\t// out\n        /* \"#utility.yul\":15185:16137   */\n    tag_50:\n        /* \"#utility.yul\":15483:15487   */\n      0x00\n        /* \"#utility.yul\":15521:15524   */\n      0xa0\n        /* \"#utility.yul\":15510:15519   */\n      dup3\n        /* \"#utility.yul\":15506:15525   */\n      add\n        /* \"#utility.yul\":15498:15525   */\n      swap1\n      pop\n        /* \"#utility.yul\":15535:15606   */\n      tag_273\n        /* \"#utility.yul\":15603:15604   */\n      0x00\n        /* \"#utility.yul\":15592:15601   */\n      dup4\n        /* \"#utility.yul\":15588:15605   */\n      add\n        /* \"#utility.yul\":15579:15585   */\n      dup8\n        /* \"#utility.yul\":15535:15606   */\n      tag_164\n      jump\t// in\n    tag_273:\n        /* \"#utility.yul\":15616:15688   */\n      tag_274\n        /* \"#utility.yul\":15684:15686   */\n      0x20\n        /* \"#utility.yul\":15673:15682   */\n      dup4\n        /* \"#utility.yul\":15669:15687   */\n      add\n        /* \"#utility.yul\":15660:15666   */\n      dup7\n        /* \"#utility.yul\":15616:15688   */\n      tag_164\n      jump\t// in\n    tag_274:\n        /* \"#utility.yul\":15735:15744   */\n      dup2\n        /* \"#utility.yul\":15729:15733   */\n      dup2\n        /* \"#utility.yul\":15725:15745   */\n      sub\n        /* \"#utility.yul\":15720:15722   */\n      0x40\n        /* \"#utility.yul\":15709:15718   */\n      dup4\n        /* \"#utility.yul\":15705:15723   */\n      add\n        /* \"#utility.yul\":15698:15746   */\n      mstore\n        /* \"#utility.yul\":15763:15841   */\n      tag_275\n        /* \"#utility.yul\":15836:15840   */\n      dup2\n        /* \"#utility.yul\":15827:15833   */\n      dup6\n        /* \"#utility.yul\":15763:15841   */\n      tag_172\n      jump\t// in\n    tag_275:\n        /* \"#utility.yul\":15755:15841   */\n      swap1\n      pop\n        /* \"#utility.yul\":15888:15897   */\n      dup2\n        /* \"#utility.yul\":15882:15886   */\n      dup2\n        /* \"#utility.yul\":15878:15898   */\n      sub\n        /* \"#utility.yul\":15873:15875   */\n      0x60\n        /* \"#utility.yul\":15862:15871   */\n      dup4\n        /* \"#utility.yul\":15858:15876   */\n      add\n        /* \"#utility.yul\":15851:15899   */\n      mstore\n        /* \"#utility.yul\":15916:16047   */\n      tag_276\n        /* \"#utility.yul\":16042:16046   */\n      dup2\n        /* \"#utility.yul\":15916:16047   */\n      tag_222\n      jump\t// in\n    tag_276:\n        /* \"#utility.yul\":15908:16047   */\n      swap1\n      pop\n        /* \"#utility.yul\":16057:16130   */\n      tag_277\n        /* \"#utility.yul\":16125:16128   */\n      0x80\n        /* \"#utility.yul\":16114:16123   */\n      dup4\n        /* \"#utility.yul\":16110:16129   */\n      add\n        /* \"#utility.yul\":16101:16107   */\n      dup5\n        /* \"#utility.yul\":16057:16130   */\n      tag_237\n      jump\t// in\n    tag_277:\n        /* \"#utility.yul\":15185:16137   */\n      swap6\n      swap5\n      pop\n      pop\n      pop\n      pop\n      pop\n      jump\t// out\n        /* \"#utility.yul\":16143:17095   */\n    tag_32:\n        /* \"#utility.yul\":16441:16445   */\n      0x00\n        /* \"#utility.yul\":16479:16482   */\n      0xa0\n        /* \"#utility.yul\":16468:16477   */\n      dup3\n        /* \"#utility.yul\":16464:16483   */\n      add\n        /* \"#utility.yul\":16456:16483   */\n      swap1\n      pop\n        /* \"#utility.yul\":16493:16564   */\n      tag_279\n        /* \"#utility.yul\":16561:16562   */\n      0x00\n        /* \"#utility.yul\":16550:16559   */\n      dup4\n        /* \"#utility.yul\":16546:16563   */\n      add\n        /* \"#utility.yul\":16537:16543   */\n      dup8\n        /* \"#utility.yul\":16493:16564   */\n      tag_164\n      jump\t// in\n    tag_279:\n        /* \"#utility.yul\":16574:16646   */\n      tag_280\n        /* \"#utility.yul\":16642:16644   */\n      0x20\n        /* \"#utility.yul\":16631:16640   */\n      dup4\n        /* \"#utility.yul\":16627:16645   */\n      add\n        /* \"#utility.yul\":16618:16624   */\n      dup7\n        /* \"#utility.yul\":16574:16646   */\n      tag_164\n      jump\t// in\n    tag_280:\n        /* \"#utility.yul\":16693:16702   */\n      dup2\n        /* \"#utility.yul\":16687:16691   */\n      dup2\n        /* \"#utility.yul\":16683:16703   */\n      sub\n        /* \"#utility.yul\":16678:16680   */\n      0x40\n        /* \"#utility.yul\":16667:16676   */\n      dup4\n        /* \"#utility.yul\":16663:16681   */\n      add\n        /* \"#utility.yul\":16656:16704   */\n      mstore\n        /* \"#utility.yul\":16721:16799   */\n      tag_281\n        /* \"#utility.yul\":16794:16798   */\n      dup2\n        /* \"#utility.yul\":16785:16791   */\n      dup6\n        /* \"#utility.yul\":16721:16799   */\n      tag_172\n      jump\t// in\n    tag_281:\n        /* \"#utility.yul\":16713:16799   */\n      swap1\n      pop\n        /* \"#utility.yul\":16846:16855   */\n      dup2\n        /* \"#utility.yul\":16840:16844   */\n      dup2\n        /* \"#utility.yul\":16836:16856   */\n      sub\n        /* \"#utility.yul\":16831:16833   */\n      0x60\n        /* \"#utility.yul\":16820:16829   */\n      dup4\n        /* \"#utility.yul\":16816:16834   */\n      add\n        /* \"#utility.yul\":16809:16857   */\n      mstore\n        /* \"#utility.yul\":16874:17005   */\n      tag_282\n        /* \"#utility.yul\":17000:17004   */\n      dup2\n        /* \"#utility.yul\":16874:17005   */\n      tag_227\n      jump\t// in\n    tag_282:\n        /* \"#utility.yul\":16866:17005   */\n      swap1\n      pop\n        /* \"#utility.yul\":17015:17088   */\n      tag_283\n        /* \"#utility.yul\":17083:17086   */\n      0x80\n        /* \"#utility.yul\":17072:17081   */\n      dup4\n        /* \"#utility.yul\":17068:17087   */\n      add\n        /* \"#utility.yul\":17059:17065   */\n      dup5\n        /* \"#utility.yul\":17015:17088   */\n      tag_237\n      jump\t// in\n    tag_283:\n        /* \"#utility.yul\":16143:17095   */\n      swap6\n      swap5\n      pop\n      pop\n      pop\n      pop\n      pop\n      jump\t// out\n        /* \"#utility.yul\":17101:17311   */\n    tag_11:\n        /* \"#utility.yul\":17188:17192   */\n      0x00\n        /* \"#utility.yul\":17226:17228   */\n      0x20\n        /* \"#utility.yul\":17215:17224   */\n      dup3\n        /* \"#utility.yul\":17211:17229   */\n      add\n        /* \"#utility.yul\":17203:17229   */\n      swap1\n      pop\n        /* \"#utility.yul\":17239:17304   */\n      tag_285\n        /* \"#utility.yul\":17301:17302   */\n      0x00\n        /* \"#utility.yul\":17290:17299   */\n      dup4\n        /* \"#utility.yul\":17286:17303   */\n      add\n        /* \"#utility.yul\":17277:17283   */\n      dup5\n        /* \"#utility.yul\":17239:17304   */\n      tag_168\n      jump\t// in\n    tag_285:\n        /* \"#utility.yul\":17101:17311   */\n      swap3\n      swap2\n      pop\n      pop\n      jump\t// out\n        /* \"#utility.yul\":17317:17539   */\n    tag_15:\n        /* \"#utility.yul\":17410:17414   */\n      0x00\n        /* \"#utility.yul\":17448:17450   */\n      0x20\n        /* \"#utility.yul\":17437:17446   */\n      dup3\n        /* \"#utility.yul\":17433:17451   */\n      add\n        /* \"#utility.yul\":17425:17451   */\n      swap1\n      pop\n        /* \"#utility.yul\":17461:17532   */\n      tag_287\n        /* \"#utility.yul\":17529:17530   */\n      0x00\n        /* \"#utility.yul\":17518:17527   */\n      dup4\n        /* \"#utility.yul\":17514:17531   */\n      add\n        /* \"#utility.yul\":17505:17511   */\n      dup5\n        /* \"#utility.yul\":17461:17532   */\n      tag_237\n      jump\t// in\n    tag_287:\n        /* \"#utility.yul\":17317:17539   */\n      swap3\n      swap2\n      pop\n      pop\n      jump\t// out\n        /* \"#utility.yul\":17545:17674   */\n    tag_93:\n        /* \"#utility.yul\":17579:17585   */\n      0x00\n        /* \"#utility.yul\":17606:17626   */\n      tag_289\n      tag_290\n      jump\t// in\n    tag_289:\n        /* \"#utility.yul\":17596:17626   */\n      swap1\n      pop\n        /* \"#utility.yul\":17635:17668   */\n      tag_291\n        /* \"#utility.yul\":17663:17667   */\n      dup3\n        /* \"#utility.yul\":17655:17661   */\n      dup3\n        /* \"#utility.yul\":17635:17668   */\n      tag_292\n      jump\t// in\n    tag_291:\n        /* \"#utility.yul\":17545:17674   */\n      swap2\n      swap1\n      pop\n      jump\t// out\n        /* \"#utility.yul\":17680:17755   */\n    tag_290:\n        /* \"#utility.yul\":17713:17719   */\n      0x00\n        /* \"#utility.yul\":17746:17748   */\n      0x40\n        /* \"#utility.yul\":17740:17749   */\n      mload\n        /* \"#utility.yul\":17730:17749   */\n      swap1\n      pop\n        /* \"#utility.yul\":17680:17755   */\n      swap1\n      jump\t// out\n        /* \"#utility.yul\":17761:18069   */\n    tag_92:\n        /* \"#utility.yul\":17823:17827   */\n      0x00\n        /* \"#utility.yul\":17913:17931   */\n      0xffffffffffffffff\n        /* \"#utility.yul\":17905:17911   */\n      dup3\n        /* \"#utility.yul\":17902:17932   */\n      gt\n        /* \"#utility.yul\":17899:17955   */\n      iszero\n      tag_295\n      jumpi\n        /* \"#utility.yul\":17935:17953   */\n      tag_296\n      tag_297\n      jump\t// in\n    tag_296:\n        /* \"#utility.yul\":17899:17955   */\n    tag_295:\n        /* \"#utility.yul\":17973:18002   */\n      tag_298\n        /* \"#utility.yul\":17995:18001   */\n      dup3\n        /* \"#utility.yul\":17973:18002   */\n      tag_180\n      jump\t// in\n    tag_298:\n        /* \"#utility.yul\":17965:18002   */\n      swap1\n      pop\n        /* \"#utility.yul\":18057:18061   */\n      0x20\n        /* \"#utility.yul\":18051:18055   */\n      dup2\n        /* \"#utility.yul\":18047:18062   */\n      add\n        /* \"#utility.yul\":18039:18062   */\n      swap1\n      pop\n        /* \"#utility.yul\":17761:18069   */\n      swap2\n      swap1\n      pop\n      jump\t// out\n        /* \"#utility.yul\":18075:18174   */\n    tag_175:\n        /* \"#utility.yul\":18127:18133   */\n      0x00\n        /* \"#utility.yul\":18161:18166   */\n      dup2\n        /* \"#utility.yul\":18155:18167   */\n      mload\n        /* \"#utility.yul\":18145:18167   */\n      swap1\n      pop\n        /* \"#utility.yul\":18075:18174   */\n      swap2\n      swap1\n      pop\n      jump\t// out\n        /* \"#utility.yul\":18180:18349   */\n    tag_177:\n        /* \"#utility.yul\":18264:18275   */\n      0x00\n        /* \"#utility.yul\":18298:18304   */\n      dup3\n        /* \"#utility.yul\":18293:18296   */\n      dup3\n        /* \"#utility.yul\":18286:18305   */\n      mstore\n        /* \"#utility.yul\":18338:18342   */\n      0x20\n        /* \"#utility.yul\":18333:18336   */\n      dup3\n        /* \"#utility.yul\":18329:18343   */\n      add\n        /* \"#utility.yul\":18314:18343   */\n      swap1\n      pop\n        /* \"#utility.yul\":18180:18349   */\n      swap3\n      swap2\n      pop\n      pop\n      jump\t// out\n        /* \"#utility.yul\":18355:18503   */\n    tag_185:\n        /* \"#utility.yul\":18457:18468   */\n      0x00\n        /* \"#utility.yul\":18494:18497   */\n      dup2\n        /* \"#utility.yul\":18479:18497   */\n      swap1\n      pop\n        /* \"#utility.yul\":18355:18503   */\n      swap3\n      swap2\n      pop\n      pop\n      jump\t// out\n        /* \"#utility.yul\":18509:18700   */\n    tag_80:\n        /* \"#utility.yul\":18549:18553   */\n      0x00\n        /* \"#utility.yul\":18569:18589   */\n      tag_303\n        /* \"#utility.yul\":18587:18588   */\n      dup3\n        /* \"#utility.yul\":18569:18589   */\n      tag_240\n      jump\t// in\n    tag_303:\n        /* \"#utility.yul\":18564:18589   */\n      swap2\n      pop\n        /* \"#utility.yul\":18603:18623   */\n      tag_304\n        /* \"#utility.yul\":18621:18622   */\n      dup4\n        /* \"#utility.yul\":18603:18623   */\n      tag_240\n      jump\t// in\n    tag_304:\n        /* \"#utility.yul\":18598:18623   */\n      swap3\n      pop\n        /* \"#utility.yul\":18642:18643   */\n      dup3\n        /* \"#utility.yul\":18639:18640   */\n      dup3\n        /* \"#utility.yul\":18636:18644   */\n      lt\n        /* \"#utility.yul\":18633:18667   */\n      iszero\n      tag_305\n      jumpi\n        /* \"#utility.yul\":18647:18665   */\n      tag_306\n      tag_307\n      jump\t// in\n    tag_306:\n        /* \"#utility.yul\":18633:18667   */\n    tag_305:\n        /* \"#utility.yul\":18692:18693   */\n      dup3\n        /* \"#utility.yul\":18689:18690   */\n      dup3\n        /* \"#utility.yul\":18685:18694   */\n      sub\n        /* \"#utility.yul\":18677:18694   */\n      swap1\n      pop\n        /* \"#utility.yul\":18509:18700   */\n      swap3\n      swap2\n      pop\n      pop\n      jump\t// out\n        /* \"#utility.yul\":18706:18802   */\n    tag_167:\n        /* \"#utility.yul\":18743:18750   */\n      0x00\n        /* \"#utility.yul\":18772:18796   */\n      tag_309\n        /* \"#utility.yul\":18790:18795   */\n      dup3\n        /* \"#utility.yul\":18772:18796   */\n      tag_310\n      jump\t// in\n    tag_309:\n        /* \"#utility.yul\":18761:18796   */\n      swap1\n      pop\n        /* \"#utility.yul\":18706:18802   */\n      swap2\n      swap1\n      pop\n      jump\t// out\n        /* \"#utility.yul\":18808:18898   */\n    tag_171:\n        /* \"#utility.yul\":18842:18849   */\n      0x00\n        /* \"#utility.yul\":18885:18890   */\n      dup2\n        /* \"#utility.yul\":18878:18891   */\n      iszero\n        /* \"#utility.yul\":18871:18892   */\n      iszero\n        /* \"#utility.yul\":18860:18892   */\n      swap1\n      pop\n        /* \"#utility.yul\":18808:18898   */\n      swap2\n      swap1\n      pop\n      jump\t// out\n        /* \"#utility.yul\":18904:19030   */\n    tag_310:\n        /* \"#utility.yul\":18941:18948   */\n      0x00\n        /* \"#utility.yul\":18981:19023   */\n      0xffffffffffffffffffffffffffffffffffffffff\n        /* \"#utility.yul\":18974:18979   */\n      dup3\n        /* \"#utility.yul\":18970:19024   */\n      and\n        /* \"#utility.yul\":18959:19024   */\n      swap1\n      pop\n        /* \"#utility.yul\":18904:19030   */\n      swap2\n      swap1\n      pop\n      jump\t// out\n        /* \"#utility.yul\":19036:19113   */\n    tag_240:\n        /* \"#utility.yul\":19073:19080   */\n      0x00\n        /* \"#utility.yul\":19102:19107   */\n      dup2\n        /* \"#utility.yul\":19091:19107   */\n      swap1\n      pop\n        /* \"#utility.yul\":19036:19113   */\n      swap2\n      swap1\n      pop\n      jump\t// out\n        /* \"#utility.yul\":19119:19273   */\n    tag_98:\n        /* \"#utility.yul\":19203:19209   */\n      dup3\n        /* \"#utility.yul\":19198:19201   */\n      dup2\n        /* \"#utility.yul\":19193:19196   */\n      dup4\n        /* \"#utility.yul\":19180:19210   */\n      calldatacopy\n        /* \"#utility.yul\":19265:19266   */\n      0x00\n        /* \"#utility.yul\":19256:19262   */\n      dup4\n        /* \"#utility.yul\":19251:19254   */\n      dup4\n        /* \"#utility.yul\":19247:19263   */\n      add\n        /* \"#utility.yul\":19240:19267   */\n      mstore\n        /* \"#utility.yul\":19119:19273   */\n      pop\n      pop\n      pop\n      jump\t// out\n        /* \"#utility.yul\":19279:19586   */\n    tag_106:\n        /* \"#utility.yul\":19347:19348   */\n      0x00\n        /* \"#utility.yul\":19357:19470   */\n    tag_316:\n        /* \"#utility.yul\":19371:19377   */\n      dup4\n        /* \"#utility.yul\":19368:19369   */\n      dup2\n        /* \"#utility.yul\":19365:19378   */\n      lt\n        /* \"#utility.yul\":19357:19470   */\n      iszero\n      tag_318\n      jumpi\n        /* \"#utility.yul\":19456:19457   */\n      dup1\n        /* \"#utility.yul\":19451:19454   */\n      dup3\n        /* \"#utility.yul\":19447:19458   */\n      add\n        /* \"#utility.yul\":19441:19459   */\n      mload\n        /* \"#utility.yul\":19437:19438   */\n      dup2\n        /* \"#utility.yul\":19432:19435   */\n      dup5\n        /* \"#utility.yul\":19428:19439   */\n      add\n        /* \"#utility.yul\":19421:19460   */\n      mstore\n        /* \"#utility.yul\":19393:19395   */\n      0x20\n        /* \"#utility.yul\":19390:19391   */\n      dup2\n        /* \"#utility.yul\":19386:19396   */\n      add\n        /* \"#utility.yul\":19381:19396   */\n      swap1\n      pop\n        /* \"#utility.yul\":19357:19470   */\n      jump(tag_316)\n    tag_318:\n        /* \"#utility.yul\":19488:19494   */\n      dup4\n        /* \"#utility.yul\":19485:19486   */\n      dup2\n        /* \"#utility.yul\":19482:19495   */\n      gt\n        /* \"#utility.yul\":19479:19580   */\n      iszero\n      tag_319\n      jumpi\n        /* \"#utility.yul\":19568:19569   */\n      0x00\n        /* \"#utility.yul\":19559:19565   */\n      dup5\n        /* \"#utility.yul\":19554:19557   */\n      dup5\n        /* \"#utility.yul\":19550:19566   */\n      add\n        /* \"#utility.yul\":19543:19570   */\n      mstore\n        /* \"#utility.yul\":19479:19580   */\n    tag_319:\n        /* \"#utility.yul\":19328:19586   */\n      pop\n        /* \"#utility.yul\":19279:19586   */\n      pop\n      pop\n      pop\n      jump\t// out\n        /* \"#utility.yul\":19592:19873   */\n    tag_292:\n        /* \"#utility.yul\":19675:19702   */\n      tag_321\n        /* \"#utility.yul\":19697:19701   */\n      dup3\n        /* \"#utility.yul\":19675:19702   */\n      tag_180\n      jump\t// in\n    tag_321:\n        /* \"#utility.yul\":19667:19673   */\n      dup2\n        /* \"#utility.yul\":19663:19703   */\n      add\n        /* \"#utility.yul\":19805:19811   */\n      dup2\n        /* \"#utility.yul\":19793:19803   */\n      dup2\n        /* \"#utility.yul\":19790:19812   */\n      lt\n        /* \"#utility.yul\":19769:19787   */\n      0xffffffffffffffff\n        /* \"#utility.yul\":19757:19767   */\n      dup3\n        /* \"#utility.yul\":19754:19788   */\n      gt\n        /* \"#utility.yul\":19751:19813   */\n      or\n        /* \"#utility.yul\":19748:19836   */\n      iszero\n      tag_322\n      jumpi\n        /* \"#utility.yul\":19816:19834   */\n      tag_323\n      tag_297\n      jump\t// in\n    tag_323:\n        /* \"#utility.yul\":19748:19836   */\n    tag_322:\n        /* \"#utility.yul\":19856:19866   */\n      dup1\n        /* \"#utility.yul\":19852:19854   */\n      0x40\n        /* \"#utility.yul\":19845:19867   */\n      mstore\n        /* \"#utility.yul\":19635:19873   */\n      pop\n        /* \"#utility.yul\":19592:19873   */\n      pop\n      pop\n      jump\t// out\n        /* \"#utility.yul\":19879:20059   */\n    tag_307:\n        /* \"#utility.yul\":19927:20004   */\n      0x4e487b7100000000000000000000000000000000000000000000000000000000\n        /* \"#utility.yul\":19924:19925   */\n      0x00\n        /* \"#utility.yul\":19917:20005   */\n      mstore\n        /* \"#utility.yul\":20024:20028   */\n      0x11\n        /* \"#utility.yul\":20021:20022   */\n      0x04\n        /* \"#utility.yul\":20014:20029   */\n      mstore\n        /* \"#utility.yul\":20048:20052   */\n      0x24\n        /* \"#utility.yul\":20045:20046   */\n      0x00\n        /* \"#utility.yul\":20038:20053   */\n      revert\n        /* \"#utility.yul\":20065:20245   */\n    tag_297:\n        /* \"#utility.yul\":20113:20190   */\n      0x4e487b7100000000000000000000000000000000000000000000000000000000\n        /* \"#utility.yul\":20110:20111   */\n      0x00\n        /* \"#utility.yul\":20103:20191   */\n      mstore\n        /* \"#utility.yul\":20210:20214   */\n      0x41\n        /* \"#utility.yul\":20207:20208   */\n      0x04\n        /* \"#utility.yul\":20200:20215   */\n      mstore\n        /* \"#utility.yul\":20234:20238   */\n      0x24\n        /* \"#utility.yul\":20231:20232   */\n      0x00\n        /* \"#utility.yul\":20224:20239   */\n      revert\n        /* \"#utility.yul\":20251:20368   */\n    tag_119:\n        /* \"#utility.yul\":20360:20361   */\n      0x00\n        /* \"#utility.yul\":20357:20358   */\n      dup1\n        /* \"#utility.yul\":20350:20362   */\n      revert\n        /* \"#utility.yul\":20374:20491   */\n    tag_96:\n        /* \"#utility.yul\":20483:20484   */\n      0x00\n        /* \"#utility.yul\":20480:20481   */\n      dup1\n        /* \"#utility.yul\":20473:20485   */\n      revert\n        /* \"#utility.yul\":20497:20614   */\n    tag_142:\n        /* \"#utility.yul\":20606:20607   */\n      0x00\n        /* \"#utility.yul\":20603:20604   */\n      dup1\n        /* \"#utility.yul\":20596:20608   */\n      revert\n        /* \"#utility.yul\":20620:20737   */\n    tag_133:\n        /* \"#utility.yul\":20729:20730   */\n      0x00\n        /* \"#utility.yul\":20726:20727   */\n      dup1\n        /* \"#utility.yul\":20719:20731   */\n      revert\n        /* \"#utility.yul\":20743:20845   */\n    tag_180:\n        /* \"#utility.yul\":20784:20790   */\n      0x00\n        /* \"#utility.yul\":20835:20837   */\n      0x1f\n        /* \"#utility.yul\":20831:20838   */\n      not\n        /* \"#utility.yul\":20826:20828   */\n      0x1f\n        /* \"#utility.yul\":20819:20824   */\n      dup4\n        /* \"#utility.yul\":20815:20829   */\n      add\n        /* \"#utility.yul\":20811:20839   */\n      and\n        /* \"#utility.yul\":20801:20839   */\n      swap1\n      pop\n        /* \"#utility.yul\":20743:20845   */\n      swap2\n      swap1\n      pop\n      jump\t// out\n        /* \"#utility.yul\":20851:21006   */\n    tag_191:\n        /* \"#utility.yul\":20991:20998   */\n      0x636c6f7365000000000000000000000000000000000000000000000000000000\n        /* \"#utility.yul\":20987:20988   */\n      0x00\n        /* \"#utility.yul\":20979:20985   */\n      dup3\n        /* \"#utility.yul\":20975:20989   */\n      add\n        /* \"#utility.yul\":20968:20999   */\n      mstore\n        /* \"#utility.yul\":20851:21006   */\n      pop\n      jump\t// out\n        /* \"#utility.yul\":21012:21169   */\n    tag_196:\n        /* \"#utility.yul\":21152:21161   */\n      0x322e322e322e3200000000000000000000000000000000000000000000000000\n        /* \"#utility.yul\":21148:21149   */\n      0x00\n        /* \"#utility.yul\":21140:21146   */\n      dup3\n        /* \"#utility.yul\":21136:21150   */\n      add\n        /* \"#utility.yul\":21129:21162   */\n      mstore\n        /* \"#utility.yul\":21012:21169   */\n      pop\n      jump\t// out\n        /* \"#utility.yul\":21175:21337   */\n    tag_201:\n        /* \"#utility.yul\":21315:21329   */\n      0x4163636573732070617373210000000000000000000000000000000000000000\n        /* \"#utility.yul\":21311:21312   */\n      0x00\n        /* \"#utility.yul\":21303:21309   */\n      dup3\n        /* \"#utility.yul\":21299:21313   */\n      add\n        /* \"#utility.yul\":21292:21330   */\n      mstore\n        /* \"#utility.yul\":21175:21337   */\n      pop\n      jump\t// out\n        /* \"#utility.yul\":21343:21500   */\n    tag_206:\n        /* \"#utility.yul\":21483:21492   */\n      0x7265737461727400000000000000000000000000000000000000000000000000\n        /* \"#utility.yul\":21479:21480   */\n      0x00\n        /* \"#utility.yul\":21471:21477   */\n      dup3\n        /* \"#utility.yul\":21467:21481   */\n      add\n        /* \"#utility.yul\":21460:21493   */\n      mstore\n        /* \"#utility.yul\":21343:21500   */\n      pop\n      jump\t// out\n        /* \"#utility.yul\":21506:21675   */\n    tag_211:\n        /* \"#utility.yul\":21646:21667   */\n      0x496c6c6567616c20495020616464726573732100000000000000000000000000\n        /* \"#utility.yul\":21642:21643   */\n      0x00\n        /* \"#utility.yul\":21634:21640   */\n      dup3\n        /* \"#utility.yul\":21630:21644   */\n      add\n        /* \"#utility.yul\":21623:21668   */\n      mstore\n        /* \"#utility.yul\":21506:21675   */\n      pop\n      jump\t// out\n        /* \"#utility.yul\":21681:21835   */\n    tag_216:\n        /* \"#utility.yul\":21821:21827   */\n      0x6b696c6c00000000000000000000000000000000000000000000000000000000\n        /* \"#utility.yul\":21817:21818   */\n      0x00\n        /* \"#utility.yul\":21809:21815   */\n      dup3\n        /* \"#utility.yul\":21805:21819   */\n      add\n        /* \"#utility.yul\":21798:21828   */\n      mstore\n        /* \"#utility.yul\":21681:21835   */\n      pop\n      jump\t// out\n        /* \"#utility.yul\":21841:21995   */\n    tag_221:\n        /* \"#utility.yul\":21981:21987   */\n      0x6f70656e00000000000000000000000000000000000000000000000000000000\n        /* \"#utility.yul\":21977:21978   */\n      0x00\n        /* \"#utility.yul\":21969:21975   */\n      dup3\n        /* \"#utility.yul\":21965:21979   */\n      add\n        /* \"#utility.yul\":21958:21988   */\n      mstore\n        /* \"#utility.yul\":21841:21995   */\n      pop\n      jump\t// out\n        /* \"#utility.yul\":22001:22171   */\n    tag_226:\n        /* \"#utility.yul\":22141:22163   */\n      0x556e617574686f72697a65642061636365737321000000000000000000000000\n        /* \"#utility.yul\":22137:22138   */\n      0x00\n        /* \"#utility.yul\":22129:22135   */\n      dup3\n        /* \"#utility.yul\":22125:22139   */\n      add\n        /* \"#utility.yul\":22118:22164   */\n      mstore\n        /* \"#utility.yul\":22001:22171   */\n      pop\n      jump\t// out\n        /* \"#utility.yul\":22177:22359   */\n    tag_231:\n        /* \"#utility.yul\":22317:22351   */\n      0x5374696c6c20626c6f636b65642c20756e61626c6520746f2061636365737321\n        /* \"#utility.yul\":22313:22314   */\n      0x00\n        /* \"#utility.yul\":22305:22311   */\n      dup3\n        /* \"#utility.yul\":22301:22315   */\n      add\n        /* \"#utility.yul\":22294:22352   */\n      mstore\n        /* \"#utility.yul\":22177:22359   */\n      pop\n      jump\t// out\n        /* \"#utility.yul\":22365:22519   */\n    tag_236:\n        /* \"#utility.yul\":22505:22511   */\n      0x7265616400000000000000000000000000000000000000000000000000000000\n        /* \"#utility.yul\":22501:22502   */\n      0x00\n        /* \"#utility.yul\":22493:22499   */\n      dup3\n        /* \"#utility.yul\":22489:22503   */\n      add\n        /* \"#utility.yul\":22482:22512   */\n      mstore\n        /* \"#utility.yul\":22365:22519   */\n      pop\n      jump\t// out\n        /* \"#utility.yul\":22525:22647   */\n    tag_110:\n        /* \"#utility.yul\":22598:22622   */\n      tag_342\n        /* \"#utility.yul\":22616:22621   */\n      dup2\n        /* \"#utility.yul\":22598:22622   */\n      tag_167\n      jump\t// in\n    tag_342:\n        /* \"#utility.yul\":22591:22596   */\n      dup2\n        /* \"#utility.yul\":22588:22623   */\n      eq\n        /* \"#utility.yul\":22578:22641   */\n      tag_343\n      jumpi\n        /* \"#utility.yul\":22637:22638   */\n      0x00\n        /* \"#utility.yul\":22634:22635   */\n      dup1\n        /* \"#utility.yul\":22627:22639   */\n      revert\n        /* \"#utility.yul\":22578:22641   */\n    tag_343:\n        /* \"#utility.yul\":22525:22647   */\n      pop\n      jump\t// out\n        /* \"#utility.yul\":22653:22769   */\n    tag_114:\n        /* \"#utility.yul\":22723:22744   */\n      tag_345\n        /* \"#utility.yul\":22738:22743   */\n      dup2\n        /* \"#utility.yul\":22723:22744   */\n      tag_171\n      jump\t// in\n    tag_345:\n        /* \"#utility.yul\":22716:22721   */\n      dup2\n        /* \"#utility.yul\":22713:22745   */\n      eq\n        /* \"#utility.yul\":22703:22763   */\n      tag_346\n      jumpi\n        /* \"#utility.yul\":22759:22760   */\n      0x00\n        /* \"#utility.yul\":22756:22757   */\n      dup1\n        /* \"#utility.yul\":22749:22761   */\n      revert\n        /* \"#utility.yul\":22703:22763   */\n    tag_346:\n        /* \"#utility.yul\":22653:22769   */\n      pop\n      jump\t// out\n        /* \"#utility.yul\":22775:22897   */\n    tag_129:\n        /* \"#utility.yul\":22848:22872   */\n      tag_348\n        /* \"#utility.yul\":22866:22871   */\n      dup2\n        /* \"#utility.yul\":22848:22872   */\n      tag_240\n      jump\t// in\n    tag_348:\n        /* \"#utility.yul\":22841:22846   */\n      dup2\n        /* \"#utility.yul\":22838:22873   */\n      eq\n        /* \"#utility.yul\":22828:22891   */\n      tag_349\n      jumpi\n        /* \"#utility.yul\":22887:22888   */\n      0x00\n        /* \"#utility.yul\":22884:22885   */\n      dup1\n        /* \"#utility.yul\":22877:22889   */\n      revert\n        /* \"#utility.yul\":22828:22891   */\n    tag_349:\n        /* \"#utility.yul\":22775:22897   */\n      pop\n      jump\t// out\n\n    auxdata: 0xa2646970667358221220694a4b67f3424864660747c775694a3911569d97e21f5468900741509e31756c64736f6c63430008070033\n}\n",
				"bytecode": {
					"linkReferences": {},
					"object": "608060405234801561001057600080fd5b506113a7806100206000396000f3fe608060405234801561001057600080fd5b50600436106100415760003560e01c806332076e7714610046578063c0821da314610076578063f09a401614610094575b600080fd5b610060600480360381019061005b91906109c6565b6100b0565b60405161006d9190610f6d565b60405180910390f35b61007e61050e565b60405161008b9190610f88565b60405180910390f35b6100ae60048036038101906100a99190610986565b610516565b005b60006100ba610678565b600080600160009054906101000a900473ffffffffffffffffffffffffffffffffffffffff1673ffffffffffffffffffffffffffffffffffffffff1663169c9de0336040518263ffffffff1660e01b81526004016101189190610dad565b604080518083038186803b15801561012f57600080fd5b505afa158015610143573d6000803e3d6000fd5b505050506040513d601f19601f820116820180604052508101906101679190610ae3565b809350819250505081156101bd577f365c8ddb6c298b196e110ce4bc267d2ed1319736bd9d74e983f0e9cf3202f697338686426040516101aa9493929190610f0e565b60405180910390a1600092505050610508565b600160009054906101000a900473ffffffffffffffffffffffffffffffffffffffff1673ffffffffffffffffffffffffffffffffffffffff166339d319e5336040518263ffffffff1660e01b81526004016102189190610dad565b600060405180830381600087803b15801561023257600080fd5b505af1158015610246573d6000803e3d6000fd5b5050505060008060009054906101000a900473ffffffffffffffffffffffffffffffffffffffff1673ffffffffffffffffffffffffffffffffffffffff16638749774f33886040518363ffffffff1660e01b81526004016102a8929190610dc8565b60006040518083038186803b1580156102c057600080fd5b505afa1580156102d4573d6000803e3d6000fd5b505050506040513d6000823e3d601f19601f820116820180604052508101906102fd9190610a22565b905060028160405161030f9190610d18565b90815260200160405180910390205460028660405161032e9190610d18565b908152602001604051809103902054131561038c577f365c8ddb6c298b196e110ce4bc267d2ed1319736bd9d74e983f0e9cf3202f697338787426040516103789493929190610eaf565b60405180910390a160009350505050610508565b60608060008054906101000a900473ffffffffffffffffffffffffffffffffffffffff1673ffffffffffffffffffffffffffffffffffffffff16639f764d16336040518263ffffffff1660e01b81526004016103e89190610dad565b60006040518083038186803b15801561040057600080fd5b505afa158015610414573d6000803e3d6000fd5b505050506040513d6000823e3d601f19601f8201168201806040525081019061043d9190610a6b565b80925081935050506003816040516104559190610d18565b908152602001604051809103902060009054906101000a900460ff16156104c1577f365c8ddb6c298b196e110ce4bc267d2ed1319736bd9d74e983f0e9cf3202f697338989426040516104ab9493929190610e50565b60405180910390a1600095505050505050610508565b7f365c8ddb6c298b196e110ce4bc267d2ed1319736bd9d74e983f0e9cf3202f697338989426040516104f69493929190610df1565b60405180910390a16001955050505050505b92915050565b600042905090565b816000806101000a81548173ffffffffffffffffffffffffffffffffffffffff021916908373ffffffffffffffffffffffffffffffffffffffff16021790555080600160006101000a81548173ffffffffffffffffffffffffffffffffffffffff021916908373ffffffffffffffffffffffffffffffffffffffff160217905550600160026040516105a790610d98565b9081526020016040518091039020819055506002806040516105c890610d83565b9081526020016040518091039020819055506002806040516105e990610d2f565b9081526020016040518091039020819055506003600260405161060b90610d59565b9081526020016040518091039020819055506003600260405161062d90610d6e565b9081526020016040518091039020819055506001600360405161064f90610d44565b908152602001604051809103902060006101000a81548160ff0219169083151502179055505050565b60011515600460003373ffffffffffffffffffffffffffffffffffffffff1673ffffffffffffffffffffffffffffffffffffffff16815260200190815260200160002060000160009054906101000a900460ff16151514156107c2576000600460003373ffffffffffffffffffffffffffffffffffffffff1673ffffffffffffffffffffffffffffffffffffffff16815260200190815260200160002060010154426107249190611020565b9050600a81116107bc57600160009054906101000a900473ffffffffffffffffffffffffffffffffffffffff1673ffffffffffffffffffffffffffffffffffffffff166372700241336040518263ffffffff1660e01b81526004016107899190610dad565b600060405180830381600087803b1580156107a357600080fd5b505af11580156107b7573d6000803e3d6000fd5b505050505b50610865565b6001600460003373ffffffffffffffffffffffffffffffffffffffff1673ffffffffffffffffffffffffffffffffffffffff16815260200190815260200160002060000160006101000a81548160ff02191690831515021790555042600460003373ffffffffffffffffffffffffffffffffffffffff1673ffffffffffffffffffffffffffffffffffffffff168152602001908152602001600020600101819055505b565b600061087a61087584610fc8565b610fa3565b90508281526020810184848401111561089657610895611172565b5b6108a184828561109c565b509392505050565b60006108bc6108b784610fc8565b610fa3565b9050828152602081018484840111156108d8576108d7611172565b5b6108e38482856110ab565b509392505050565b6000813590506108fa8161132c565b92915050565b60008151905061090f81611343565b92915050565b600082601f83011261092a5761092961116d565b5b813561093a848260208601610867565b91505092915050565b600082601f8301126109585761095761116d565b5b81516109688482602086016108a9565b91505092915050565b6000815190506109808161135a565b92915050565b6000806040838503121561099d5761099c61117c565b5b60006109ab858286016108eb565b92505060206109bc858286016108eb565b9150509250929050565b600080604083850312156109dd576109dc61117c565b5b60006109eb858286016108eb565b925050602083013567ffffffffffffffff811115610a0c57610a0b611177565b5b610a1885828601610915565b9150509250929050565b600060208284031215610a3857610a3761117c565b5b600082015167ffffffffffffffff811115610a5657610a55611177565b5b610a6284828501610943565b91505092915050565b60008060408385031215610a8257610a8161117c565b5b600083015167ffffffffffffffff811115610aa057610a9f611177565b5b610aac85828601610943565b925050602083015167ffffffffffffffff811115610acd57610acc611177565b5b610ad985828601610943565b9150509250929050565b60008060408385031215610afa57610af961117c565b5b6000610b0885828601610971565b9250506020610b1985828601610900565b9150509250929050565b610b2c81611054565b82525050565b610b3b81611066565b82525050565b6000610b4c82610ff9565b610b568185611004565b9350610b668185602086016110ab565b610b6f81611181565b840191505092915050565b6000610b8582610ff9565b610b8f8185611015565b9350610b9f8185602086016110ab565b80840191505092915050565b6000610bb8600583611015565b9150610bc382611192565b600582019050919050565b6000610bdb600783611015565b9150610be6826111bb565b600782019050919050565b6000610bfe600c83611004565b9150610c09826111e4565b602082019050919050565b6000610c21600783611015565b9150610c2c8261120d565b600782019050919050565b6000610c44601383611004565b9150610c4f82611236565b602082019050919050565b6000610c67600483611015565b9150610c728261125f565b600482019050919050565b6000610c8a600483611015565b9150610c9582611288565b600482019050919050565b6000610cad601483611004565b9150610cb8826112b1565b602082019050919050565b6000610cd0602083611004565b9150610cdb826112da565b602082019050919050565b6000610cf3600483611015565b9150610cfe82611303565b600482019050919050565b610d1281611092565b82525050565b6000610d248284610b7a565b915081905092915050565b6000610d3a82610bab565b9150819050919050565b6000610d4f82610bce565b9150819050919050565b6000610d6482610c14565b9150819050919050565b6000610d7982610c5a565b9150819050919050565b6000610d8e82610c7d565b9150819050919050565b6000610da382610ce6565b9150819050919050565b6000602082019050610dc26000830184610b23565b92915050565b6000604082019050610ddd6000830185610b23565b610dea6020830184610b23565b9392505050565b600060a082019050610e066000830187610b23565b610e136020830186610b23565b8181036040830152610e258185610b41565b90508181036060830152610e3881610bf1565b9050610e476080830184610d09565b95945050505050565b600060a082019050610e656000830187610b23565b610e726020830186610b23565b8181036040830152610e848185610b41565b90508181036060830152610e9781610c37565b9050610ea66080830184610d09565b95945050505050565b600060a082019050610ec46000830187610b23565b610ed16020830186610b23565b8181036040830152610ee38185610b41565b90508181036060830152610ef681610ca0565b9050610f056080830184610d09565b95945050505050565b600060a082019050610f236000830187610b23565b610f306020830186610b23565b8181036040830152610f428185610b41565b90508181036060830152610f5581610cc3565b9050610f646080830184610d09565b95945050505050565b6000602082019050610f826000830184610b32565b92915050565b6000602082019050610f9d6000830184610d09565b92915050565b6000610fad610fbe565b9050610fb982826110de565b919050565b6000604051905090565b600067ffffffffffffffff821115610fe357610fe261113e565b5b610fec82611181565b9050602081019050919050565b600081519050919050565b600082825260208201905092915050565b600081905092915050565b600061102b82611092565b915061103683611092565b9250828210156110495761104861110f565b5b828203905092915050565b600061105f82611072565b9050919050565b60008115159050919050565b600073ffffffffffffffffffffffffffffffffffffffff82169050919050565b6000819050919050565b82818337600083830152505050565b60005b838110156110c95780820151818401526020810190506110ae565b838111156110d8576000848401525b50505050565b6110e782611181565b810181811067ffffffffffffffff821117156111065761110561113e565b5b80604052505050565b7f4e487b7100000000000000000000000000000000000000000000000000000000600052601160045260246000fd5b7f4e487b7100000000000000000000000000000000000000000000000000000000600052604160045260246000fd5b600080fd5b600080fd5b600080fd5b600080fd5b6000601f19601f8301169050919050565b7f636c6f7365000000000000000000000000000000000000000000000000000000600082015250565b7f322e322e322e3200000000000000000000000000000000000000000000000000600082015250565b7f4163636573732070617373210000000000000000000000000000000000000000600082015250565b7f7265737461727400000000000000000000000000000000000000000000000000600082015250565b7f496c6c6567616c20495020616464726573732100000000000000000000000000600082015250565b7f6b696c6c00000000000000000000000000000000000000000000000000000000600082015250565b7f6f70656e00000000000000000000000000000000000000000000000000000000600082015250565b7f556e617574686f72697a65642061636365737321000000000000000000000000600082015250565b7f5374696c6c20626c6f636b65642c20756e61626c6520746f2061636365737321600082015250565b7f7265616400000000000000000000000000000000000000000000000000000000600082015250565b61133581611054565b811461134057600080fd5b50565b61134c81611066565b811461135757600080fd5b50565b61136381611092565b811461136e57600080fd5b5056fea2646970667358221220694a4b67f3424864660747c775694a3911569d97e21f5468900741509e31756c64736f6c63430008070033",
					"opcodes": "PUSH1 0x80 PUSH1 0x40 MSTORE CALLVALUE DUP1 ISZERO PUSH2 0x10 JUMPI PUSH1 0x0 DUP1 REVERT JUMPDEST POP PUSH2 0x13A7 DUP1 PUSH2 0x20 PUSH1 0x0 CODECOPY PUSH1 0x0 RETURN INVALID PUSH1 0x80 PUSH1 0x40 MSTORE CALLVALUE DUP1 ISZERO PUSH2 0x10 JUMPI PUSH1 0x0 DUP1 REVERT JUMPDEST POP PUSH1 0x4 CALLDATASIZE LT PUSH2 0x41 JUMPI PUSH1 0x0 CALLDATALOAD PUSH1 0xE0 SHR DUP1 PUSH4 0x32076E77 EQ PUSH2 0x46 JUMPI DUP1 PUSH4 0xC0821DA3 EQ PUSH2 0x76 JUMPI DUP1 PUSH4 0xF09A4016 EQ PUSH2 0x94 JUMPI JUMPDEST PUSH1 0x0 DUP1 REVERT JUMPDEST PUSH2 0x60 PUSH1 0x4 DUP1 CALLDATASIZE SUB DUP2 ADD SWAP1 PUSH2 0x5B SWAP2 SWAP1 PUSH2 0x9C6 JUMP JUMPDEST PUSH2 0xB0 JUMP JUMPDEST PUSH1 0x40 MLOAD PUSH2 0x6D SWAP2 SWAP1 PUSH2 0xF6D JUMP JUMPDEST PUSH1 0x40 MLOAD DUP1 SWAP2 SUB SWAP1 RETURN JUMPDEST PUSH2 0x7E PUSH2 0x50E JUMP JUMPDEST PUSH1 0x40 MLOAD PUSH2 0x8B SWAP2 SWAP1 PUSH2 0xF88 JUMP JUMPDEST PUSH1 0x40 MLOAD DUP1 SWAP2 SUB SWAP1 RETURN JUMPDEST PUSH2 0xAE PUSH1 0x4 DUP1 CALLDATASIZE SUB DUP2 ADD SWAP1 PUSH2 0xA9 SWAP2 SWAP1 PUSH2 0x986 JUMP JUMPDEST PUSH2 0x516 JUMP JUMPDEST STOP JUMPDEST PUSH1 0x0 PUSH2 0xBA PUSH2 0x678 JUMP JUMPDEST PUSH1 0x0 DUP1 PUSH1 0x1 PUSH1 0x0 SWAP1 SLOAD SWAP1 PUSH2 0x100 EXP SWAP1 DIV PUSH20 0xFFFFFFFFFFFFFFFFFFFFFFFFFFFFFFFFFFFFFFFF AND PUSH20 0xFFFFFFFFFFFFFFFFFFFFFFFFFFFFFFFFFFFFFFFF AND PUSH4 0x169C9DE0 CALLER PUSH1 0x40 MLOAD DUP3 PUSH4 0xFFFFFFFF AND PUSH1 0xE0 SHL DUP2 MSTORE PUSH1 0x4 ADD PUSH2 0x118 SWAP2 SWAP1 PUSH2 0xDAD JUMP JUMPDEST PUSH1 0x40 DUP1 MLOAD DUP1 DUP4 SUB DUP2 DUP7 DUP1 EXTCODESIZE ISZERO DUP1 ISZERO PUSH2 0x12F JUMPI PUSH1 0x0 DUP1 REVERT JUMPDEST POP GAS STATICCALL ISZERO DUP1 ISZERO PUSH2 0x143 JUMPI RETURNDATASIZE PUSH1 0x0 DUP1 RETURNDATACOPY RETURNDATASIZE PUSH1 0x0 REVERT JUMPDEST POP POP POP POP PUSH1 0x40 MLOAD RETURNDATASIZE PUSH1 0x1F NOT PUSH1 0x1F DUP3 ADD AND DUP3 ADD DUP1 PUSH1 0x40 MSTORE POP DUP2 ADD SWAP1 PUSH2 0x167 SWAP2 SWAP1 PUSH2 0xAE3 JUMP JUMPDEST DUP1 SWAP4 POP DUP2 SWAP3 POP POP POP DUP2 ISZERO PUSH2 0x1BD JUMPI PUSH32 0x365C8DDB6C298B196E110CE4BC267D2ED1319736BD9D74E983F0E9CF3202F697 CALLER DUP7 DUP7 TIMESTAMP PUSH1 0x40 MLOAD PUSH2 0x1AA SWAP5 SWAP4 SWAP3 SWAP2 SWAP1 PUSH2 0xF0E JUMP JUMPDEST PUSH1 0x40 MLOAD DUP1 SWAP2 SUB SWAP1 LOG1 PUSH1 0x0 SWAP3 POP POP POP PUSH2 0x508 JUMP JUMPDEST PUSH1 0x1 PUSH1 0x0 SWAP1 SLOAD SWAP1 PUSH2 0x100 EXP SWAP1 DIV PUSH20 0xFFFFFFFFFFFFFFFFFFFFFFFFFFFFFFFFFFFFFFFF AND PUSH20 0xFFFFFFFFFFFFFFFFFFFFFFFFFFFFFFFFFFFFFFFF AND PUSH4 0x39D319E5 CALLER PUSH1 0x40 MLOAD DUP3 PUSH4 0xFFFFFFFF AND PUSH1 0xE0 SHL DUP2 MSTORE PUSH1 0x4 ADD PUSH2 0x218 SWAP2 SWAP1 PUSH2 0xDAD JUMP JUMPDEST PUSH1 0x0 PUSH1 0x40 MLOAD DUP1 DUP4 SUB DUP2 PUSH1 0x0 DUP8 DUP1 EXTCODESIZE ISZERO DUP1 ISZERO PUSH2 0x232 JUMPI PUSH1 0x0 DUP1 REVERT JUMPDEST POP GAS CALL ISZERO DUP1 ISZERO PUSH2 0x246 JUMPI RETURNDATASIZE PUSH1 0x0 DUP1 RETURNDATACOPY RETURNDATASIZE PUSH1 0x0 REVERT JUMPDEST POP POP POP POP PUSH1 0x0 DUP1 PUSH1 0x0 SWAP1 SLOAD SWAP1 PUSH2 0x100 EXP SWAP1 DIV PUSH20 0xFFFFFFFFFFFFFFFFFFFFFFFFFFFFFFFFFFFFFFFF AND PUSH20 0xFFFFFFFFFFFFFFFFFFFFFFFFFFFFFFFFFFFFFFFF AND PUSH4 0x8749774F CALLER DUP9 PUSH1 0x40 MLOAD DUP4 PUSH4 0xFFFFFFFF AND PUSH1 0xE0 SHL DUP2 MSTORE PUSH1 0x4 ADD PUSH2 0x2A8 SWAP3 SWAP2 SWAP1 PUSH2 0xDC8 JUMP JUMPDEST PUSH1 0x0 PUSH1 0x40 MLOAD DUP1 DUP4 SUB DUP2 DUP7 DUP1 EXTCODESIZE ISZERO DUP1 ISZERO PUSH2 0x2C0 JUMPI PUSH1 0x0 DUP1 REVERT JUMPDEST POP GAS STATICCALL ISZERO DUP1 ISZERO PUSH2 0x2D4 JUMPI RETURNDATASIZE PUSH1 0x0 DUP1 RETURNDATACOPY RETURNDATASIZE PUSH1 0x0 REVERT JUMPDEST POP POP POP POP PUSH1 0x40 MLOAD RETURNDATASIZE PUSH1 0x0 DUP3 RETURNDATACOPY RETURNDATASIZE PUSH1 0x1F NOT PUSH1 0x1F DUP3 ADD AND DUP3 ADD DUP1 PUSH1 0x40 MSTORE POP DUP2 ADD SWAP1 PUSH2 0x2FD SWAP2 SWAP1 PUSH2 0xA22 JUMP JUMPDEST SWAP1 POP PUSH1 0x2 DUP2 PUSH1 0x40 MLOAD PUSH2 0x30F SWAP2 SWAP1 PUSH2 0xD18 JUMP JUMPDEST SWAP1 DUP2 MSTORE PUSH1 0x20 ADD PUSH1 0x40 MLOAD DUP1 SWAP2 SUB SWAP1 KECCAK256 SLOAD PUSH1 0x2 DUP7 PUSH1 0x40 MLOAD PUSH2 0x32E SWAP2 SWAP1 PUSH2 0xD18 JUMP JUMPDEST SWAP1 DUP2 MSTORE PUSH1 0x20 ADD PUSH1 0x40 MLOAD DUP1 SWAP2 SUB SWAP1 KECCAK256 SLOAD SGT ISZERO PUSH2 0x38C JUMPI PUSH32 0x365C8DDB6C298B196E110CE4BC267D2ED1319736BD9D74E983F0E9CF3202F697 CALLER DUP8 DUP8 TIMESTAMP PUSH1 0x40 MLOAD PUSH2 0x378 SWAP5 SWAP4 SWAP3 SWAP2 SWAP1 PUSH2 0xEAF JUMP JUMPDEST PUSH1 0x40 MLOAD DUP1 SWAP2 SUB SWAP1 LOG1 PUSH1 0x0 SWAP4 POP POP POP POP PUSH2 0x508 JUMP JUMPDEST PUSH1 0x60 DUP1 PUSH1 0x0 DUP1 SLOAD SWAP1 PUSH2 0x100 EXP SWAP1 DIV PUSH20 0xFFFFFFFFFFFFFFFFFFFFFFFFFFFFFFFFFFFFFFFF AND PUSH20 0xFFFFFFFFFFFFFFFFFFFFFFFFFFFFFFFFFFFFFFFF AND PUSH4 0x9F764D16 CALLER PUSH1 0x40 MLOAD DUP3 PUSH4 0xFFFFFFFF AND PUSH1 0xE0 SHL DUP2 MSTORE PUSH1 0x4 ADD PUSH2 0x3E8 SWAP2 SWAP1 PUSH2 0xDAD JUMP JUMPDEST PUSH1 0x0 PUSH1 0x40 MLOAD DUP1 DUP4 SUB DUP2 DUP7 DUP1 EXTCODESIZE ISZERO DUP1 ISZERO PUSH2 0x400 JUMPI PUSH1 0x0 DUP1 REVERT JUMPDEST POP GAS STATICCALL ISZERO DUP1 ISZERO PUSH2 0x414 JUMPI RETURNDATASIZE PUSH1 0x0 DUP1 RETURNDATACOPY RETURNDATASIZE PUSH1 0x0 REVERT JUMPDEST POP POP POP POP PUSH1 0x40 MLOAD RETURNDATASIZE PUSH1 0x0 DUP3 RETURNDATACOPY RETURNDATASIZE PUSH1 0x1F NOT PUSH1 0x1F DUP3 ADD AND DUP3 ADD DUP1 PUSH1 0x40 MSTORE POP DUP2 ADD SWAP1 PUSH2 0x43D SWAP2 SWAP1 PUSH2 0xA6B JUMP JUMPDEST DUP1 SWAP3 POP DUP2 SWAP4 POP POP POP PUSH1 0x3 DUP2 PUSH1 0x40 MLOAD PUSH2 0x455 SWAP2 SWAP1 PUSH2 0xD18 JUMP JUMPDEST SWAP1 DUP2 MSTORE PUSH1 0x20 ADD PUSH1 0x40 MLOAD DUP1 SWAP2 SUB SWAP1 KECCAK256 PUSH1 0x0 SWAP1 SLOAD SWAP1 PUSH2 0x100 EXP SWAP1 DIV PUSH1 0xFF AND ISZERO PUSH2 0x4C1 JUMPI PUSH32 0x365C8DDB6C298B196E110CE4BC267D2ED1319736BD9D74E983F0E9CF3202F697 CALLER DUP10 DUP10 TIMESTAMP PUSH1 0x40 MLOAD PUSH2 0x4AB SWAP5 SWAP4 SWAP3 SWAP2 SWAP1 PUSH2 0xE50 JUMP JUMPDEST PUSH1 0x40 MLOAD DUP1 SWAP2 SUB SWAP1 LOG1 PUSH1 0x0 SWAP6 POP POP POP POP POP POP PUSH2 0x508 JUMP JUMPDEST PUSH32 0x365C8DDB6C298B196E110CE4BC267D2ED1319736BD9D74E983F0E9CF3202F697 CALLER DUP10 DUP10 TIMESTAMP PUSH1 0x40 MLOAD PUSH2 0x4F6 SWAP5 SWAP4 SWAP3 SWAP2 SWAP1 PUSH2 0xDF1 JUMP JUMPDEST PUSH1 0x40 MLOAD DUP1 SWAP2 SUB SWAP1 LOG1 PUSH1 0x1 SWAP6 POP POP POP POP POP POP JUMPDEST SWAP3 SWAP2 POP POP JUMP JUMPDEST PUSH1 0x0 TIMESTAMP SWAP1 POP SWAP1 JUMP JUMPDEST DUP2 PUSH1 0x0 DUP1 PUSH2 0x100 EXP DUP2 SLOAD DUP2 PUSH20 0xFFFFFFFFFFFFFFFFFFFFFFFFFFFFFFFFFFFFFFFF MUL NOT AND SWAP1 DUP4 PUSH20 0xFFFFFFFFFFFFFFFFFFFFFFFFFFFFFFFFFFFFFFFF AND MUL OR SWAP1 SSTORE POP DUP1 PUSH1 0x1 PUSH1 0x0 PUSH2 0x100 EXP DUP2 SLOAD DUP2 PUSH20 0xFFFFFFFFFFFFFFFFFFFFFFFFFFFFFFFFFFFFFFFF MUL NOT AND SWAP1 DUP4 PUSH20 0xFFFFFFFFFFFFFFFFFFFFFFFFFFFFFFFFFFFFFFFF AND MUL OR SWAP1 SSTORE POP PUSH1 0x1 PUSH1 0x2 PUSH1 0x40 MLOAD PUSH2 0x5A7 SWAP1 PUSH2 0xD98 JUMP JUMPDEST SWAP1 DUP2 MSTORE PUSH1 0x20 ADD PUSH1 0x40 MLOAD DUP1 SWAP2 SUB SWAP1 KECCAK256 DUP2 SWAP1 SSTORE POP PUSH1 0x2 DUP1 PUSH1 0x40 MLOAD PUSH2 0x5C8 SWAP1 PUSH2 0xD83 JUMP JUMPDEST SWAP1 DUP2 MSTORE PUSH1 0x20 ADD PUSH1 0x40 MLOAD DUP1 SWAP2 SUB SWAP1 KECCAK256 DUP2 SWAP1 SSTORE POP PUSH1 0x2 DUP1 PUSH1 0x40 MLOAD PUSH2 0x5E9 SWAP1 PUSH2 0xD2F JUMP JUMPDEST SWAP1 DUP2 MSTORE PUSH1 0x20 ADD PUSH1 0x40 MLOAD DUP1 SWAP2 SUB SWAP1 KECCAK256 DUP2 SWAP1 SSTORE POP PUSH1 0x3 PUSH1 0x2 PUSH1 0x40 MLOAD PUSH2 0x60B SWAP1 PUSH2 0xD59 JUMP JUMPDEST SWAP1 DUP2 MSTORE PUSH1 0x20 ADD PUSH1 0x40 MLOAD DUP1 SWAP2 SUB SWAP1 KECCAK256 DUP2 SWAP1 SSTORE POP PUSH1 0x3 PUSH1 0x2 PUSH1 0x40 MLOAD PUSH2 0x62D SWAP1 PUSH2 0xD6E JUMP JUMPDEST SWAP1 DUP2 MSTORE PUSH1 0x20 ADD PUSH1 0x40 MLOAD DUP1 SWAP2 SUB SWAP1 KECCAK256 DUP2 SWAP1 SSTORE POP PUSH1 0x1 PUSH1 0x3 PUSH1 0x40 MLOAD PUSH2 0x64F SWAP1 PUSH2 0xD44 JUMP JUMPDEST SWAP1 DUP2 MSTORE PUSH1 0x20 ADD PUSH1 0x40 MLOAD DUP1 SWAP2 SUB SWAP1 KECCAK256 PUSH1 0x0 PUSH2 0x100 EXP DUP2 SLOAD DUP2 PUSH1 0xFF MUL NOT AND SWAP1 DUP4 ISZERO ISZERO MUL OR SWAP1 SSTORE POP POP POP JUMP JUMPDEST PUSH1 0x1 ISZERO ISZERO PUSH1 0x4 PUSH1 0x0 CALLER PUSH20 0xFFFFFFFFFFFFFFFFFFFFFFFFFFFFFFFFFFFFFFFF AND PUSH20 0xFFFFFFFFFFFFFFFFFFFFFFFFFFFFFFFFFFFFFFFF AND DUP2 MSTORE PUSH1 0x20 ADD SWAP1 DUP2 MSTORE PUSH1 0x20 ADD PUSH1 0x0 KECCAK256 PUSH1 0x0 ADD PUSH1 0x0 SWAP1 SLOAD SWAP1 PUSH2 0x100 EXP SWAP1 DIV PUSH1 0xFF AND ISZERO ISZERO EQ ISZERO PUSH2 0x7C2 JUMPI PUSH1 0x0 PUSH1 0x4 PUSH1 0x0 CALLER PUSH20 0xFFFFFFFFFFFFFFFFFFFFFFFFFFFFFFFFFFFFFFFF AND PUSH20 0xFFFFFFFFFFFFFFFFFFFFFFFFFFFFFFFFFFFFFFFF AND DUP2 MSTORE PUSH1 0x20 ADD SWAP1 DUP2 MSTORE PUSH1 0x20 ADD PUSH1 0x0 KECCAK256 PUSH1 0x1 ADD SLOAD TIMESTAMP PUSH2 0x724 SWAP2 SWAP1 PUSH2 0x1020 JUMP JUMPDEST SWAP1 POP PUSH1 0xA DUP2 GT PUSH2 0x7BC JUMPI PUSH1 0x1 PUSH1 0x0 SWAP1 SLOAD SWAP1 PUSH2 0x100 EXP SWAP1 DIV PUSH20 0xFFFFFFFFFFFFFFFFFFFFFFFFFFFFFFFFFFFFFFFF AND PUSH20 0xFFFFFFFFFFFFFFFFFFFFFFFFFFFFFFFFFFFFFFFF AND PUSH4 0x72700241 CALLER PUSH1 0x40 MLOAD DUP3 PUSH4 0xFFFFFFFF AND PUSH1 0xE0 SHL DUP2 MSTORE PUSH1 0x4 ADD PUSH2 0x789 SWAP2 SWAP1 PUSH2 0xDAD JUMP JUMPDEST PUSH1 0x0 PUSH1 0x40 MLOAD DUP1 DUP4 SUB DUP2 PUSH1 0x0 DUP8 DUP1 EXTCODESIZE ISZERO DUP1 ISZERO PUSH2 0x7A3 JUMPI PUSH1 0x0 DUP1 REVERT JUMPDEST POP GAS CALL ISZERO DUP1 ISZERO PUSH2 0x7B7 JUMPI RETURNDATASIZE PUSH1 0x0 DUP1 RETURNDATACOPY RETURNDATASIZE PUSH1 0x0 REVERT JUMPDEST POP POP POP POP JUMPDEST POP PUSH2 0x865 JUMP JUMPDEST PUSH1 0x1 PUSH1 0x4 PUSH1 0x0 CALLER PUSH20 0xFFFFFFFFFFFFFFFFFFFFFFFFFFFFFFFFFFFFFFFF AND PUSH20 0xFFFFFFFFFFFFFFFFFFFFFFFFFFFFFFFFFFFFFFFF AND DUP2 MSTORE PUSH1 0x20 ADD SWAP1 DUP2 MSTORE PUSH1 0x20 ADD PUSH1 0x0 KECCAK256 PUSH1 0x0 ADD PUSH1 0x0 PUSH2 0x100 EXP DUP2 SLOAD DUP2 PUSH1 0xFF MUL NOT AND SWAP1 DUP4 ISZERO ISZERO MUL OR SWAP1 SSTORE POP TIMESTAMP PUSH1 0x4 PUSH1 0x0 CALLER PUSH20 0xFFFFFFFFFFFFFFFFFFFFFFFFFFFFFFFFFFFFFFFF AND PUSH20 0xFFFFFFFFFFFFFFFFFFFFFFFFFFFFFFFFFFFFFFFF AND DUP2 MSTORE PUSH1 0x20 ADD SWAP1 DUP2 MSTORE PUSH1 0x20 ADD PUSH1 0x0 KECCAK256 PUSH1 0x1 ADD DUP2 SWAP1 SSTORE POP JUMPDEST JUMP JUMPDEST PUSH1 0x0 PUSH2 0x87A PUSH2 0x875 DUP5 PUSH2 0xFC8 JUMP JUMPDEST PUSH2 0xFA3 JUMP JUMPDEST SWAP1 POP DUP3 DUP2 MSTORE PUSH1 0x20 DUP2 ADD DUP5 DUP5 DUP5 ADD GT ISZERO PUSH2 0x896 JUMPI PUSH2 0x895 PUSH2 0x1172 JUMP JUMPDEST JUMPDEST PUSH2 0x8A1 DUP5 DUP3 DUP6 PUSH2 0x109C JUMP JUMPDEST POP SWAP4 SWAP3 POP POP POP JUMP JUMPDEST PUSH1 0x0 PUSH2 0x8BC PUSH2 0x8B7 DUP5 PUSH2 0xFC8 JUMP JUMPDEST PUSH2 0xFA3 JUMP JUMPDEST SWAP1 POP DUP3 DUP2 MSTORE PUSH1 0x20 DUP2 ADD DUP5 DUP5 DUP5 ADD GT ISZERO PUSH2 0x8D8 JUMPI PUSH2 0x8D7 PUSH2 0x1172 JUMP JUMPDEST JUMPDEST PUSH2 0x8E3 DUP5 DUP3 DUP6 PUSH2 0x10AB JUMP JUMPDEST POP SWAP4 SWAP3 POP POP POP JUMP JUMPDEST PUSH1 0x0 DUP2 CALLDATALOAD SWAP1 POP PUSH2 0x8FA DUP2 PUSH2 0x132C JUMP JUMPDEST SWAP3 SWAP2 POP POP JUMP JUMPDEST PUSH1 0x0 DUP2 MLOAD SWAP1 POP PUSH2 0x90F DUP2 PUSH2 0x1343 JUMP JUMPDEST SWAP3 SWAP2 POP POP JUMP JUMPDEST PUSH1 0x0 DUP3 PUSH1 0x1F DUP4 ADD SLT PUSH2 0x92A JUMPI PUSH2 0x929 PUSH2 0x116D JUMP JUMPDEST JUMPDEST DUP2 CALLDATALOAD PUSH2 0x93A DUP5 DUP3 PUSH1 0x20 DUP7 ADD PUSH2 0x867 JUMP JUMPDEST SWAP2 POP POP SWAP3 SWAP2 POP POP JUMP JUMPDEST PUSH1 0x0 DUP3 PUSH1 0x1F DUP4 ADD SLT PUSH2 0x958 JUMPI PUSH2 0x957 PUSH2 0x116D JUMP JUMPDEST JUMPDEST DUP2 MLOAD PUSH2 0x968 DUP5 DUP3 PUSH1 0x20 DUP7 ADD PUSH2 0x8A9 JUMP JUMPDEST SWAP2 POP POP SWAP3 SWAP2 POP POP JUMP JUMPDEST PUSH1 0x0 DUP2 MLOAD SWAP1 POP PUSH2 0x980 DUP2 PUSH2 0x135A JUMP JUMPDEST SWAP3 SWAP2 POP POP JUMP JUMPDEST PUSH1 0x0 DUP1 PUSH1 0x40 DUP4 DUP6 SUB SLT ISZERO PUSH2 0x99D JUMPI PUSH2 0x99C PUSH2 0x117C JUMP JUMPDEST JUMPDEST PUSH1 0x0 PUSH2 0x9AB DUP6 DUP3 DUP7 ADD PUSH2 0x8EB JUMP JUMPDEST SWAP3 POP POP PUSH1 0x20 PUSH2 0x9BC DUP6 DUP3 DUP7 ADD PUSH2 0x8EB JUMP JUMPDEST SWAP2 POP POP SWAP3 POP SWAP3 SWAP1 POP JUMP JUMPDEST PUSH1 0x0 DUP1 PUSH1 0x40 DUP4 DUP6 SUB SLT ISZERO PUSH2 0x9DD JUMPI PUSH2 0x9DC PUSH2 0x117C JUMP JUMPDEST JUMPDEST PUSH1 0x0 PUSH2 0x9EB DUP6 DUP3 DUP7 ADD PUSH2 0x8EB JUMP JUMPDEST SWAP3 POP POP PUSH1 0x20 DUP4 ADD CALLDATALOAD PUSH8 0xFFFFFFFFFFFFFFFF DUP2 GT ISZERO PUSH2 0xA0C JUMPI PUSH2 0xA0B PUSH2 0x1177 JUMP JUMPDEST JUMPDEST PUSH2 0xA18 DUP6 DUP3 DUP7 ADD PUSH2 0x915 JUMP JUMPDEST SWAP2 POP POP SWAP3 POP SWAP3 SWAP1 POP JUMP JUMPDEST PUSH1 0x0 PUSH1 0x20 DUP3 DUP5 SUB SLT ISZERO PUSH2 0xA38 JUMPI PUSH2 0xA37 PUSH2 0x117C JUMP JUMPDEST JUMPDEST PUSH1 0x0 DUP3 ADD MLOAD PUSH8 0xFFFFFFFFFFFFFFFF DUP2 GT ISZERO PUSH2 0xA56 JUMPI PUSH2 0xA55 PUSH2 0x1177 JUMP JUMPDEST JUMPDEST PUSH2 0xA62 DUP5 DUP3 DUP6 ADD PUSH2 0x943 JUMP JUMPDEST SWAP2 POP POP SWAP3 SWAP2 POP POP JUMP JUMPDEST PUSH1 0x0 DUP1 PUSH1 0x40 DUP4 DUP6 SUB SLT ISZERO PUSH2 0xA82 JUMPI PUSH2 0xA81 PUSH2 0x117C JUMP JUMPDEST JUMPDEST PUSH1 0x0 DUP4 ADD MLOAD PUSH8 0xFFFFFFFFFFFFFFFF DUP2 GT ISZERO PUSH2 0xAA0 JUMPI PUSH2 0xA9F PUSH2 0x1177 JUMP JUMPDEST JUMPDEST PUSH2 0xAAC DUP6 DUP3 DUP7 ADD PUSH2 0x943 JUMP JUMPDEST SWAP3 POP POP PUSH1 0x20 DUP4 ADD MLOAD PUSH8 0xFFFFFFFFFFFFFFFF DUP2 GT ISZERO PUSH2 0xACD JUMPI PUSH2 0xACC PUSH2 0x1177 JUMP JUMPDEST JUMPDEST PUSH2 0xAD9 DUP6 DUP3 DUP7 ADD PUSH2 0x943 JUMP JUMPDEST SWAP2 POP POP SWAP3 POP SWAP3 SWAP1 POP JUMP JUMPDEST PUSH1 0x0 DUP1 PUSH1 0x40 DUP4 DUP6 SUB SLT ISZERO PUSH2 0xAFA JUMPI PUSH2 0xAF9 PUSH2 0x117C JUMP JUMPDEST JUMPDEST PUSH1 0x0 PUSH2 0xB08 DUP6 DUP3 DUP7 ADD PUSH2 0x971 JUMP JUMPDEST SWAP3 POP POP PUSH1 0x20 PUSH2 0xB19 DUP6 DUP3 DUP7 ADD PUSH2 0x900 JUMP JUMPDEST SWAP2 POP POP SWAP3 POP SWAP3 SWAP1 POP JUMP JUMPDEST PUSH2 0xB2C DUP2 PUSH2 0x1054 JUMP JUMPDEST DUP3 MSTORE POP POP JUMP JUMPDEST PUSH2 0xB3B DUP2 PUSH2 0x1066 JUMP JUMPDEST DUP3 MSTORE POP POP JUMP JUMPDEST PUSH1 0x0 PUSH2 0xB4C DUP3 PUSH2 0xFF9 JUMP JUMPDEST PUSH2 0xB56 DUP2 DUP6 PUSH2 0x1004 JUMP JUMPDEST SWAP4 POP PUSH2 0xB66 DUP2 DUP6 PUSH1 0x20 DUP7 ADD PUSH2 0x10AB JUMP JUMPDEST PUSH2 0xB6F DUP2 PUSH2 0x1181 JUMP JUMPDEST DUP5 ADD SWAP2 POP POP SWAP3 SWAP2 POP POP JUMP JUMPDEST PUSH1 0x0 PUSH2 0xB85 DUP3 PUSH2 0xFF9 JUMP JUMPDEST PUSH2 0xB8F DUP2 DUP6 PUSH2 0x1015 JUMP JUMPDEST SWAP4 POP PUSH2 0xB9F DUP2 DUP6 PUSH1 0x20 DUP7 ADD PUSH2 0x10AB JUMP JUMPDEST DUP1 DUP5 ADD SWAP2 POP POP SWAP3 SWAP2 POP POP JUMP JUMPDEST PUSH1 0x0 PUSH2 0xBB8 PUSH1 0x5 DUP4 PUSH2 0x1015 JUMP JUMPDEST SWAP2 POP PUSH2 0xBC3 DUP3 PUSH2 0x1192 JUMP JUMPDEST PUSH1 0x5 DUP3 ADD SWAP1 POP SWAP2 SWAP1 POP JUMP JUMPDEST PUSH1 0x0 PUSH2 0xBDB PUSH1 0x7 DUP4 PUSH2 0x1015 JUMP JUMPDEST SWAP2 POP PUSH2 0xBE6 DUP3 PUSH2 0x11BB JUMP JUMPDEST PUSH1 0x7 DUP3 ADD SWAP1 POP SWAP2 SWAP1 POP JUMP JUMPDEST PUSH1 0x0 PUSH2 0xBFE PUSH1 0xC DUP4 PUSH2 0x1004 JUMP JUMPDEST SWAP2 POP PUSH2 0xC09 DUP3 PUSH2 0x11E4 JUMP JUMPDEST PUSH1 0x20 DUP3 ADD SWAP1 POP SWAP2 SWAP1 POP JUMP JUMPDEST PUSH1 0x0 PUSH2 0xC21 PUSH1 0x7 DUP4 PUSH2 0x1015 JUMP JUMPDEST SWAP2 POP PUSH2 0xC2C DUP3 PUSH2 0x120D JUMP JUMPDEST PUSH1 0x7 DUP3 ADD SWAP1 POP SWAP2 SWAP1 POP JUMP JUMPDEST PUSH1 0x0 PUSH2 0xC44 PUSH1 0x13 DUP4 PUSH2 0x1004 JUMP JUMPDEST SWAP2 POP PUSH2 0xC4F DUP3 PUSH2 0x1236 JUMP JUMPDEST PUSH1 0x20 DUP3 ADD SWAP1 POP SWAP2 SWAP1 POP JUMP JUMPDEST PUSH1 0x0 PUSH2 0xC67 PUSH1 0x4 DUP4 PUSH2 0x1015 JUMP JUMPDEST SWAP2 POP PUSH2 0xC72 DUP3 PUSH2 0x125F JUMP JUMPDEST PUSH1 0x4 DUP3 ADD SWAP1 POP SWAP2 SWAP1 POP JUMP JUMPDEST PUSH1 0x0 PUSH2 0xC8A PUSH1 0x4 DUP4 PUSH2 0x1015 JUMP JUMPDEST SWAP2 POP PUSH2 0xC95 DUP3 PUSH2 0x1288 JUMP JUMPDEST PUSH1 0x4 DUP3 ADD SWAP1 POP SWAP2 SWAP1 POP JUMP JUMPDEST PUSH1 0x0 PUSH2 0xCAD PUSH1 0x14 DUP4 PUSH2 0x1004 JUMP JUMPDEST SWAP2 POP PUSH2 0xCB8 DUP3 PUSH2 0x12B1 JUMP JUMPDEST PUSH1 0x20 DUP3 ADD SWAP1 POP SWAP2 SWAP1 POP JUMP JUMPDEST PUSH1 0x0 PUSH2 0xCD0 PUSH1 0x20 DUP4 PUSH2 0x1004 JUMP JUMPDEST SWAP2 POP PUSH2 0xCDB DUP3 PUSH2 0x12DA JUMP JUMPDEST PUSH1 0x20 DUP3 ADD SWAP1 POP SWAP2 SWAP1 POP JUMP JUMPDEST PUSH1 0x0 PUSH2 0xCF3 PUSH1 0x4 DUP4 PUSH2 0x1015 JUMP JUMPDEST SWAP2 POP PUSH2 0xCFE DUP3 PUSH2 0x1303 JUMP JUMPDEST PUSH1 0x4 DUP3 ADD SWAP1 POP SWAP2 SWAP1 POP JUMP JUMPDEST PUSH2 0xD12 DUP2 PUSH2 0x1092 JUMP JUMPDEST DUP3 MSTORE POP POP JUMP JUMPDEST PUSH1 0x0 PUSH2 0xD24 DUP3 DUP5 PUSH2 0xB7A JUMP JUMPDEST SWAP2 POP DUP2 SWAP1 POP SWAP3 SWAP2 POP POP JUMP JUMPDEST PUSH1 0x0 PUSH2 0xD3A DUP3 PUSH2 0xBAB JUMP JUMPDEST SWAP2 POP DUP2 SWAP1 POP SWAP2 SWAP1 POP JUMP JUMPDEST PUSH1 0x0 PUSH2 0xD4F DUP3 PUSH2 0xBCE JUMP JUMPDEST SWAP2 POP DUP2 SWAP1 POP SWAP2 SWAP1 POP JUMP JUMPDEST PUSH1 0x0 PUSH2 0xD64 DUP3 PUSH2 0xC14 JUMP JUMPDEST SWAP2 POP DUP2 SWAP1 POP SWAP2 SWAP1 POP JUMP JUMPDEST PUSH1 0x0 PUSH2 0xD79 DUP3 PUSH2 0xC5A JUMP JUMPDEST SWAP2 POP DUP2 SWAP1 POP SWAP2 SWAP1 POP JUMP JUMPDEST PUSH1 0x0 PUSH2 0xD8E DUP3 PUSH2 0xC7D JUMP JUMPDEST SWAP2 POP DUP2 SWAP1 POP SWAP2 SWAP1 POP JUMP JUMPDEST PUSH1 0x0 PUSH2 0xDA3 DUP3 PUSH2 0xCE6 JUMP JUMPDEST SWAP2 POP DUP2 SWAP1 POP SWAP2 SWAP1 POP JUMP JUMPDEST PUSH1 0x0 PUSH1 0x20 DUP3 ADD SWAP1 POP PUSH2 0xDC2 PUSH1 0x0 DUP4 ADD DUP5 PUSH2 0xB23 JUMP JUMPDEST SWAP3 SWAP2 POP POP JUMP JUMPDEST PUSH1 0x0 PUSH1 0x40 DUP3 ADD SWAP1 POP PUSH2 0xDDD PUSH1 0x0 DUP4 ADD DUP6 PUSH2 0xB23 JUMP JUMPDEST PUSH2 0xDEA PUSH1 0x20 DUP4 ADD DUP5 PUSH2 0xB23 JUMP JUMPDEST SWAP4 SWAP3 POP POP POP JUMP JUMPDEST PUSH1 0x0 PUSH1 0xA0 DUP3 ADD SWAP1 POP PUSH2 0xE06 PUSH1 0x0 DUP4 ADD DUP8 PUSH2 0xB23 JUMP JUMPDEST PUSH2 0xE13 PUSH1 0x20 DUP4 ADD DUP7 PUSH2 0xB23 JUMP JUMPDEST DUP2 DUP2 SUB PUSH1 0x40 DUP4 ADD MSTORE PUSH2 0xE25 DUP2 DUP6 PUSH2 0xB41 JUMP JUMPDEST SWAP1 POP DUP2 DUP2 SUB PUSH1 0x60 DUP4 ADD MSTORE PUSH2 0xE38 DUP2 PUSH2 0xBF1 JUMP JUMPDEST SWAP1 POP PUSH2 0xE47 PUSH1 0x80 DUP4 ADD DUP5 PUSH2 0xD09 JUMP JUMPDEST SWAP6 SWAP5 POP POP POP POP POP JUMP JUMPDEST PUSH1 0x0 PUSH1 0xA0 DUP3 ADD SWAP1 POP PUSH2 0xE65 PUSH1 0x0 DUP4 ADD DUP8 PUSH2 0xB23 JUMP JUMPDEST PUSH2 0xE72 PUSH1 0x20 DUP4 ADD DUP7 PUSH2 0xB23 JUMP JUMPDEST DUP2 DUP2 SUB PUSH1 0x40 DUP4 ADD MSTORE PUSH2 0xE84 DUP2 DUP6 PUSH2 0xB41 JUMP JUMPDEST SWAP1 POP DUP2 DUP2 SUB PUSH1 0x60 DUP4 ADD MSTORE PUSH2 0xE97 DUP2 PUSH2 0xC37 JUMP JUMPDEST SWAP1 POP PUSH2 0xEA6 PUSH1 0x80 DUP4 ADD DUP5 PUSH2 0xD09 JUMP JUMPDEST SWAP6 SWAP5 POP POP POP POP POP JUMP JUMPDEST PUSH1 0x0 PUSH1 0xA0 DUP3 ADD SWAP1 POP PUSH2 0xEC4 PUSH1 0x0 DUP4 ADD DUP8 PUSH2 0xB23 JUMP JUMPDEST PUSH2 0xED1 PUSH1 0x20 DUP4 ADD DUP7 PUSH2 0xB23 JUMP JUMPDEST DUP2 DUP2 SUB PUSH1 0x40 DUP4 ADD MSTORE PUSH2 0xEE3 DUP2 DUP6 PUSH2 0xB41 JUMP JUMPDEST SWAP1 POP DUP2 DUP2 SUB PUSH1 0x60 DUP4 ADD MSTORE PUSH2 0xEF6 DUP2 PUSH2 0xCA0 JUMP JUMPDEST SWAP1 POP PUSH2 0xF05 PUSH1 0x80 DUP4 ADD DUP5 PUSH2 0xD09 JUMP JUMPDEST SWAP6 SWAP5 POP POP POP POP POP JUMP JUMPDEST PUSH1 0x0 PUSH1 0xA0 DUP3 ADD SWAP1 POP PUSH2 0xF23 PUSH1 0x0 DUP4 ADD DUP8 PUSH2 0xB23 JUMP JUMPDEST PUSH2 0xF30 PUSH1 0x20 DUP4 ADD DUP7 PUSH2 0xB23 JUMP JUMPDEST DUP2 DUP2 SUB PUSH1 0x40 DUP4 ADD MSTORE PUSH2 0xF42 DUP2 DUP6 PUSH2 0xB41 JUMP JUMPDEST SWAP1 POP DUP2 DUP2 SUB PUSH1 0x60 DUP4 ADD MSTORE PUSH2 0xF55 DUP2 PUSH2 0xCC3 JUMP JUMPDEST SWAP1 POP PUSH2 0xF64 PUSH1 0x80 DUP4 ADD DUP5 PUSH2 0xD09 JUMP JUMPDEST SWAP6 SWAP5 POP POP POP POP POP JUMP JUMPDEST PUSH1 0x0 PUSH1 0x20 DUP3 ADD SWAP1 POP PUSH2 0xF82 PUSH1 0x0 DUP4 ADD DUP5 PUSH2 0xB32 JUMP JUMPDEST SWAP3 SWAP2 POP POP JUMP JUMPDEST PUSH1 0x0 PUSH1 0x20 DUP3 ADD SWAP1 POP PUSH2 0xF9D PUSH1 0x0 DUP4 ADD DUP5 PUSH2 0xD09 JUMP JUMPDEST SWAP3 SWAP2 POP POP JUMP JUMPDEST PUSH1 0x0 PUSH2 0xFAD PUSH2 0xFBE JUMP JUMPDEST SWAP1 POP PUSH2 0xFB9 DUP3 DUP3 PUSH2 0x10DE JUMP JUMPDEST SWAP2 SWAP1 POP JUMP JUMPDEST PUSH1 0x0 PUSH1 0x40 MLOAD SWAP1 POP SWAP1 JUMP JUMPDEST PUSH1 0x0 PUSH8 0xFFFFFFFFFFFFFFFF DUP3 GT ISZERO PUSH2 0xFE3 JUMPI PUSH2 0xFE2 PUSH2 0x113E JUMP JUMPDEST JUMPDEST PUSH2 0xFEC DUP3 PUSH2 0x1181 JUMP JUMPDEST SWAP1 POP PUSH1 0x20 DUP2 ADD SWAP1 POP SWAP2 SWAP1 POP JUMP JUMPDEST PUSH1 0x0 DUP2 MLOAD SWAP1 POP SWAP2 SWAP1 POP JUMP JUMPDEST PUSH1 0x0 DUP3 DUP3 MSTORE PUSH1 0x20 DUP3 ADD SWAP1 POP SWAP3 SWAP2 POP POP JUMP JUMPDEST PUSH1 0x0 DUP2 SWAP1 POP SWAP3 SWAP2 POP POP JUMP JUMPDEST PUSH1 0x0 PUSH2 0x102B DUP3 PUSH2 0x1092 JUMP JUMPDEST SWAP2 POP PUSH2 0x1036 DUP4 PUSH2 0x1092 JUMP JUMPDEST SWAP3 POP DUP3 DUP3 LT ISZERO PUSH2 0x1049 JUMPI PUSH2 0x1048 PUSH2 0x110F JUMP JUMPDEST JUMPDEST DUP3 DUP3 SUB SWAP1 POP SWAP3 SWAP2 POP POP JUMP JUMPDEST PUSH1 0x0 PUSH2 0x105F DUP3 PUSH2 0x1072 JUMP JUMPDEST SWAP1 POP SWAP2 SWAP1 POP JUMP JUMPDEST PUSH1 0x0 DUP2 ISZERO ISZERO SWAP1 POP SWAP2 SWAP1 POP JUMP JUMPDEST PUSH1 0x0 PUSH20 0xFFFFFFFFFFFFFFFFFFFFFFFFFFFFFFFFFFFFFFFF DUP3 AND SWAP1 POP SWAP2 SWAP1 POP JUMP JUMPDEST PUSH1 0x0 DUP2 SWAP1 POP SWAP2 SWAP1 POP JUMP JUMPDEST DUP3 DUP2 DUP4 CALLDATACOPY PUSH1 0x0 DUP4 DUP4 ADD MSTORE POP POP POP JUMP JUMPDEST PUSH1 0x0 JUMPDEST DUP4 DUP2 LT ISZERO PUSH2 0x10C9 JUMPI DUP1 DUP3 ADD MLOAD DUP2 DUP5 ADD MSTORE PUSH1 0x20 DUP2 ADD SWAP1 POP PUSH2 0x10AE JUMP JUMPDEST DUP4 DUP2 GT ISZERO PUSH2 0x10D8 JUMPI PUSH1 0x0 DUP5 DUP5 ADD MSTORE JUMPDEST POP POP POP POP JUMP JUMPDEST PUSH2 0x10E7 DUP3 PUSH2 0x1181 JUMP JUMPDEST DUP2 ADD DUP2 DUP2 LT PUSH8 0xFFFFFFFFFFFFFFFF DUP3 GT OR ISZERO PUSH2 0x1106 JUMPI PUSH2 0x1105 PUSH2 0x113E JUMP JUMPDEST JUMPDEST DUP1 PUSH1 0x40 MSTORE POP POP POP JUMP JUMPDEST PUSH32 0x4E487B7100000000000000000000000000000000000000000000000000000000 PUSH1 0x0 MSTORE PUSH1 0x11 PUSH1 0x4 MSTORE PUSH1 0x24 PUSH1 0x0 REVERT JUMPDEST PUSH32 0x4E487B7100000000000000000000000000000000000000000000000000000000 PUSH1 0x0 MSTORE PUSH1 0x41 PUSH1 0x4 MSTORE PUSH1 0x24 PUSH1 0x0 REVERT JUMPDEST PUSH1 0x0 DUP1 REVERT JUMPDEST PUSH1 0x0 DUP1 REVERT JUMPDEST PUSH1 0x0 DUP1 REVERT JUMPDEST PUSH1 0x0 DUP1 REVERT JUMPDEST PUSH1 0x0 PUSH1 0x1F NOT PUSH1 0x1F DUP4 ADD AND SWAP1 POP SWAP2 SWAP1 POP JUMP JUMPDEST PUSH32 0x636C6F7365000000000000000000000000000000000000000000000000000000 PUSH1 0x0 DUP3 ADD MSTORE POP JUMP JUMPDEST PUSH32 0x322E322E322E3200000000000000000000000000000000000000000000000000 PUSH1 0x0 DUP3 ADD MSTORE POP JUMP JUMPDEST PUSH32 0x4163636573732070617373210000000000000000000000000000000000000000 PUSH1 0x0 DUP3 ADD MSTORE POP JUMP JUMPDEST PUSH32 0x7265737461727400000000000000000000000000000000000000000000000000 PUSH1 0x0 DUP3 ADD MSTORE POP JUMP JUMPDEST PUSH32 0x496C6C6567616C20495020616464726573732100000000000000000000000000 PUSH1 0x0 DUP3 ADD MSTORE POP JUMP JUMPDEST PUSH32 0x6B696C6C00000000000000000000000000000000000000000000000000000000 PUSH1 0x0 DUP3 ADD MSTORE POP JUMP JUMPDEST PUSH32 0x6F70656E00000000000000000000000000000000000000000000000000000000 PUSH1 0x0 DUP3 ADD MSTORE POP JUMP JUMPDEST PUSH32 0x556E617574686F72697A65642061636365737321000000000000000000000000 PUSH1 0x0 DUP3 ADD MSTORE POP JUMP JUMPDEST PUSH32 0x5374696C6C20626C6F636B65642C20756E61626C6520746F2061636365737321 PUSH1 0x0 DUP3 ADD MSTORE POP JUMP JUMPDEST PUSH32 0x7265616400000000000000000000000000000000000000000000000000000000 PUSH1 0x0 DUP3 ADD MSTORE POP JUMP JUMPDEST PUSH2 0x1335 DUP2 PUSH2 0x1054 JUMP JUMPDEST DUP2 EQ PUSH2 0x1340 JUMPI PUSH1 0x0 DUP1 REVERT JUMPDEST POP JUMP JUMPDEST PUSH2 0x134C DUP2 PUSH2 0x1066 JUMP JUMPDEST DUP2 EQ PUSH2 0x1357 JUMPI PUSH1 0x0 DUP1 REVERT JUMPDEST POP JUMP JUMPDEST PUSH2 0x1363 DUP2 PUSH2 0x1092 JUMP JUMPDEST DUP2 EQ PUSH2 0x136E JUMPI PUSH1 0x0 DUP1 REVERT JUMPDEST POP JUMP INVALID LOG2 PUSH5 0x6970667358 0x22 SLT KECCAK256 PUSH10 0x4A4B67F3424864660747 0xC7 PUSH22 0x694A3911569D97E21F5468900741509E31756C64736F PUSH13 0x63430008070033000000000000 "
				},
				"gasEstimates": {
					"creation": {
						"codeDepositCost": "1006200",
						"executionCost": "1047",
						"totalCost": "1007247"
					},
					"external": {
						"accessControl(address,string)": "infinite",
						"getCurTime()": "336",
						"init(address,address)": "infinite"
					},
					"internal": {
						"checkRequesterStatus()": "infinite"
					}
				},
				"methodIdentifiers": {
					"accessControl(address,string)": "32076e77",
					"getCurTime()": "c0821da3",
					"init(address,address)": "f09a4016"
				}
			},
			"storageLayout": {
				"storage": [
					{
						"astId": 6,
						"contract": "contracts/AccessControl.sol:AccessControl",
						"label": "manager",
						"offset": 0,
						"slot": "0",
						"type": "t_contract(Management)656"
					},
					{
						"astId": 9,
						"contract": "contracts/AccessControl.sol:AccessControl",
						"label": "judge",
						"offset": 0,
						"slot": "1",
						"type": "t_contract(Judge)409"
					},
					{
						"astId": 18,
						"contract": "contracts/AccessControl.sol:AccessControl",
						"label": "rightTable",
						"offset": 0,
						"slot": "2",
						"type": "t_mapping(t_string_memory_ptr,t_int256)"
					},
					{
						"astId": 22,
						"contract": "contracts/AccessControl.sol:AccessControl",
						"label": "blackListIpMap",
						"offset": 0,
						"slot": "3",
						"type": "t_mapping(t_string_memory_ptr,t_bool)"
					},
					{
						"astId": 27,
						"contract": "contracts/AccessControl.sol:AccessControl",
						"label": "requestMap",
						"offset": 0,
						"slot": "4",
						"type": "t_mapping(t_address,t_struct(Requester)14_storage)"
					}
				],
				"types": {
					"t_address": {
						"encoding": "inplace",
						"label": "address",
						"numberOfBytes": "20"
					},
					"t_bool": {
						"encoding": "inplace",
						"label": "bool",
						"numberOfBytes": "1"
					},
					"t_contract(Judge)409": {
						"encoding": "inplace",
						"label": "contract Judge",
						"numberOfBytes": "20"
					},
					"t_contract(Management)656": {
						"encoding": "inplace",
						"label": "contract Management",
						"numberOfBytes": "20"
					},
					"t_int256": {
						"encoding": "inplace",
						"label": "int256",
						"numberOfBytes": "32"
					},
					"t_mapping(t_address,t_struct(Requester)14_storage)": {
						"encoding": "mapping",
						"key": "t_address",
						"label": "mapping(address => struct AccessControl.Requester)",
						"numberOfBytes": "32",
						"value": "t_struct(Requester)14_storage"
					},
					"t_mapping(t_string_memory_ptr,t_bool)": {
						"encoding": "mapping",
						"key": "t_string_memory_ptr",
						"label": "mapping(string => bool)",
						"numberOfBytes": "32",
						"value": "t_bool"
					},
					"t_mapping(t_string_memory_ptr,t_int256)": {
						"encoding": "mapping",
						"key": "t_string_memory_ptr",
						"label": "mapping(string => int256)",
						"numberOfBytes": "32",
						"value": "t_int256"
					},
					"t_string_memory_ptr": {
						"encoding": "bytes",
						"label": "string",
						"numberOfBytes": "32"
					},
					"t_struct(Requester)14_storage": {
						"encoding": "inplace",
						"label": "struct AccessControl.Requester",
						"members": [
							{
								"astId": 11,
								"contract": "contracts/AccessControl.sol:AccessControl",
								"label": "isRequested",
								"offset": 0,
								"slot": "0",
								"type": "t_bool"
							},
							{
								"astId": 13,
								"contract": "contracts/AccessControl.sol:AccessControl",
								"label": "ToLR",
								"offset": 0,
								"slot": "1",
								"type": "t_uint256"
							}
						],
						"numberOfBytes": "64"
					},
					"t_uint256": {
						"encoding": "inplace",
						"label": "uint256",
						"numberOfBytes": "32"
					}
				}
			},
			"userdoc": {
				"kind": "user",
				"methods": {},
				"version": 1
			}
		}
	}
}