{
	"contracts/AccessControl.sol": {
		"AccessControl": {
			"abi": [
				{
					"anonymous": false,
					"inputs": [
						{
							"indexed": false,
							"internalType": "address",
							"name": "from",
							"type": "address"
						},
						{
							"indexed": false,
							"internalType": "address",
							"name": "to",
							"type": "address"
						},
						{
							"indexed": false,
							"internalType": "string",
							"name": "action",
							"type": "string"
						},
						{
							"indexed": false,
							"internalType": "string",
							"name": "result",
							"type": "string"
						}
					],
					"name": "AccessControlRet",
					"type": "event"
				},
				{
					"inputs": [
						{
							"internalType": "address",
							"name": "_objectAddr",
							"type": "address"
						},
						{
							"internalType": "string",
							"name": "action",
							"type": "string"
						}
					],
					"name": "accessControl",
					"outputs": [
						{
							"internalType": "bool",
							"name": "res",
							"type": "bool"
						}
					],
					"stateMutability": "nonpayable",
					"type": "function"
				},
				{
					"inputs": [
						{
							"internalType": "string",
							"name": "",
							"type": "string"
						}
					],
					"name": "blackListIpPool",
					"outputs": [
						{
							"internalType": "bool",
							"name": "",
							"type": "bool"
						}
					],
					"stateMutability": "view",
					"type": "function"
				},
				{
					"inputs": [
						{
							"internalType": "address",
							"name": "_addr",
							"type": "address"
						}
					],
					"name": "getTestDeviceInfoByAddr",
					"outputs": [
						{
							"internalType": "string",
							"name": "_deviceName",
							"type": "string"
						},
						{
							"internalType": "string",
							"name": "_deviceType",
							"type": "string"
						}
					],
					"stateMutability": "view",
					"type": "function"
				},
				{
					"inputs": [
						{
							"internalType": "address",
							"name": "_contractAddr",
							"type": "address"
						}
					],
					"name": "init",
					"outputs": [],
					"stateMutability": "nonpayable",
					"type": "function"
				},
				{
					"inputs": [
						{
							"internalType": "string",
							"name": "",
							"type": "string"
						}
					],
					"name": "rightTable",
					"outputs": [
						{
							"internalType": "int256",
							"name": "",
							"type": "int256"
						}
					],
					"stateMutability": "view",
					"type": "function"
				}
			],
			"devdoc": {
				"kind": "dev",
				"methods": {},
				"version": 1
			},
			"evm": {
				"assembly": "    /* \"contracts/AccessControl.sol\":98:1852  contract AccessControl {\r... */\n  mstore(0x40, 0x80)\n  callvalue\n  dup1\n  iszero\n  tag_1\n  jumpi\n  0x00\n  dup1\n  revert\ntag_1:\n  pop\n  dataSize(sub_0)\n  dup1\n  dataOffset(sub_0)\n  0x00\n  codecopy\n  0x00\n  return\nstop\n\nsub_0: assembly {\n        /* \"contracts/AccessControl.sol\":98:1852  contract AccessControl {\r... */\n      mstore(0x40, 0x80)\n      callvalue\n      dup1\n      iszero\n      tag_1\n      jumpi\n      0x00\n      dup1\n      revert\n    tag_1:\n      pop\n      jumpi(tag_2, lt(calldatasize, 0x04))\n      shr(0xe0, calldataload(0x00))\n      dup1\n      0x136d070e\n      eq\n      tag_3\n      jumpi\n      dup1\n      0x19ab453c\n      eq\n      tag_4\n      jumpi\n      dup1\n      0x32076e77\n      eq\n      tag_5\n      jumpi\n      dup1\n      0xb9ed3ebb\n      eq\n      tag_6\n      jumpi\n      dup1\n      0xd6d0e1e0\n      eq\n      tag_7\n      jumpi\n    tag_2:\n      0x00\n      dup1\n      revert\n        /* \"contracts/AccessControl.sol\":210:256  mapping(string => bool) public blackListIpPool */\n    tag_3:\n      tag_8\n      0x04\n      dup1\n      calldatasize\n      sub\n      dup2\n      add\n      swap1\n      tag_9\n      swap2\n      swap1\n      tag_10\n      jump\t// in\n    tag_9:\n      tag_11\n      jump\t// in\n    tag_8:\n      mload(0x40)\n      tag_12\n      swap2\n      swap1\n      tag_13\n      jump\t// in\n    tag_12:\n      mload(0x40)\n      dup1\n      swap2\n      sub\n      swap1\n      return\n        /* \"contracts/AccessControl.sol\":352:731  function init(address _contractAddr) public {\r... */\n    tag_4:\n      tag_14\n      0x04\n      dup1\n      calldatasize\n      sub\n      dup2\n      add\n      swap1\n      tag_15\n      swap2\n      swap1\n      tag_16\n      jump\t// in\n    tag_15:\n      tag_17\n      jump\t// in\n    tag_14:\n      stop\n        /* \"contracts/AccessControl.sol\":1018:1843  function accessControl(address _objectAddr, string memory action) public returns (bool res) {\r... */\n    tag_5:\n      tag_18\n      0x04\n      dup1\n      calldatasize\n      sub\n      dup2\n      add\n      swap1\n      tag_19\n      swap2\n      swap1\n      tag_20\n      jump\t// in\n    tag_19:\n      tag_21\n      jump\t// in\n    tag_18:\n      mload(0x40)\n      tag_22\n      swap2\n      swap1\n      tag_13\n      jump\t// in\n    tag_22:\n      mload(0x40)\n      dup1\n      swap2\n      sub\n      swap1\n      return\n        /* \"contracts/AccessControl.sol\":739:1010  function getTestDeviceInfoByAddr(address _addr) public view returns (string memory _deviceName, string memory _deviceType) {\r... */\n    tag_6:\n      tag_23\n      0x04\n      dup1\n      calldatasize\n      sub\n      dup2\n      add\n      swap1\n      tag_24\n      swap2\n      swap1\n      tag_16\n      jump\t// in\n    tag_24:\n      tag_25\n      jump\t// in\n    tag_23:\n      mload(0x40)\n      tag_26\n      swap3\n      swap2\n      swap1\n      tag_27\n      jump\t// in\n    tag_26:\n      mload(0x40)\n      dup1\n      swap2\n      sub\n      swap1\n      return\n        /* \"contracts/AccessControl.sol\":161:201  mapping(string => int) public rightTable */\n    tag_7:\n      tag_28\n      0x04\n      dup1\n      calldatasize\n      sub\n      dup2\n      add\n      swap1\n      tag_29\n      swap2\n      swap1\n      tag_10\n      jump\t// in\n    tag_29:\n      tag_30\n      jump\t// in\n    tag_28:\n      mload(0x40)\n      tag_31\n      swap2\n      swap1\n      tag_32\n      jump\t// in\n    tag_31:\n      mload(0x40)\n      dup1\n      swap2\n      sub\n      swap1\n      return\n        /* \"contracts/AccessControl.sol\":210:256  mapping(string => bool) public blackListIpPool */\n    tag_11:\n      0x02\n      dup2\n      dup1\n      mload\n      0x20\n      dup2\n      add\n      dup3\n      add\n      dup1\n      mload\n      dup5\n      dup3\n      mstore\n      0x20\n      dup4\n      add\n      0x20\n      dup6\n      add\n      keccak256\n      dup2\n      dup4\n      mstore\n      dup1\n      swap6\n      pop\n      pop\n      pop\n      pop\n      pop\n      pop\n      0x00\n      swap2\n      pop\n      sload\n      swap1\n      0x0100\n      exp\n      swap1\n      div\n      0xff\n      and\n      dup2\n      jump\t// out\n        /* \"contracts/AccessControl.sol\":352:731  function init(address _contractAddr) public {\r... */\n    tag_17:\n        /* \"contracts/AccessControl.sol\":428:441  _contractAddr */\n      dup1\n        /* \"contracts/AccessControl.sol\":407:414  manager */\n      0x00\n      dup1\n        /* \"contracts/AccessControl.sol\":407:442  manager = Management(_contractAddr) */\n      0x0100\n      exp\n      dup2\n      sload\n      dup2\n      0xffffffffffffffffffffffffffffffffffffffff\n      mul\n      not\n      and\n      swap1\n      dup4\n      0xffffffffffffffffffffffffffffffffffffffff\n      and\n      mul\n      or\n      swap1\n      sstore\n      pop\n        /* \"contracts/AccessControl.sol\":542:543  0 */\n      0x00\n        /* \"contracts/AccessControl.sol\":521:531  rightTable */\n      0x01\n        /* \"contracts/AccessControl.sol\":521:539  rightTable[\"read\"] */\n      mload(0x40)\n      tag_34\n      swap1\n      tag_35\n      jump\t// in\n    tag_34:\n      swap1\n      dup2\n      mstore\n      0x20\n      add\n      mload(0x40)\n      dup1\n      swap2\n      sub\n      swap1\n      keccak256\n        /* \"contracts/AccessControl.sol\":521:543  rightTable[\"read\"] = 0 */\n      dup2\n      swap1\n      sstore\n      pop\n        /* \"contracts/AccessControl.sol\":575:576  1 */\n      0x01\n        /* \"contracts/AccessControl.sol\":554:564  rightTable */\n      dup1\n        /* \"contracts/AccessControl.sol\":554:572  rightTable[\"open\"] */\n      mload(0x40)\n      tag_36\n      swap1\n      tag_37\n      jump\t// in\n    tag_36:\n      swap1\n      dup2\n      mstore\n      0x20\n      add\n      mload(0x40)\n      dup1\n      swap2\n      sub\n      swap1\n      keccak256\n        /* \"contracts/AccessControl.sol\":554:576  rightTable[\"open\"] = 1 */\n      dup2\n      swap1\n      sstore\n      pop\n        /* \"contracts/AccessControl.sol\":609:610  1 */\n      0x01\n        /* \"contracts/AccessControl.sol\":587:597  rightTable */\n      dup1\n        /* \"contracts/AccessControl.sol\":587:606  rightTable[\"close\"] */\n      mload(0x40)\n      tag_38\n      swap1\n      tag_39\n      jump\t// in\n    tag_38:\n      swap1\n      dup2\n      mstore\n      0x20\n      add\n      mload(0x40)\n      dup1\n      swap2\n      sub\n      swap1\n      keccak256\n        /* \"contracts/AccessControl.sol\":587:610  rightTable[\"close\"] = 1 */\n      dup2\n      swap1\n      sstore\n      pop\n        /* \"contracts/AccessControl.sol\":645:646  2 */\n      0x02\n        /* \"contracts/AccessControl.sol\":621:631  rightTable */\n      0x01\n        /* \"contracts/AccessControl.sol\":621:642  rightTable[\"restart\"] */\n      mload(0x40)\n      tag_40\n      swap1\n      tag_41\n      jump\t// in\n    tag_40:\n      swap1\n      dup2\n      mstore\n      0x20\n      add\n      mload(0x40)\n      dup1\n      swap2\n      sub\n      swap1\n      keccak256\n        /* \"contracts/AccessControl.sol\":621:646  rightTable[\"restart\"] = 2 */\n      dup2\n      swap1\n      sstore\n      pop\n        /* \"contracts/AccessControl.sol\":678:679  2 */\n      0x02\n        /* \"contracts/AccessControl.sol\":657:667  rightTable */\n      0x01\n        /* \"contracts/AccessControl.sol\":657:675  rightTable[\"kill\"] */\n      mload(0x40)\n      tag_42\n      swap1\n      tag_43\n      jump\t// in\n    tag_42:\n      swap1\n      dup2\n      mstore\n      0x20\n      add\n      mload(0x40)\n      dup1\n      swap2\n      sub\n      swap1\n      keccak256\n        /* \"contracts/AccessControl.sol\":657:679  rightTable[\"kill\"] = 2 */\n      dup2\n      swap1\n      sstore\n      pop\n        /* \"contracts/AccessControl.sol\":719:723  true */\n      0x01\n        /* \"contracts/AccessControl.sol\":690:705  blackListIpPool */\n      0x02\n        /* \"contracts/AccessControl.sol\":690:716  blackListIpPool['2.2.2.2'] */\n      mload(0x40)\n      tag_44\n      swap1\n      tag_45\n      jump\t// in\n    tag_44:\n      swap1\n      dup2\n      mstore\n      0x20\n      add\n      mload(0x40)\n      dup1\n      swap2\n      sub\n      swap1\n      keccak256\n      0x00\n        /* \"contracts/AccessControl.sol\":690:723  blackListIpPool['2.2.2.2'] = true */\n      0x0100\n      exp\n      dup2\n      sload\n      dup2\n      0xff\n      mul\n      not\n      and\n      swap1\n      dup4\n      iszero\n      iszero\n      mul\n      or\n      swap1\n      sstore\n      pop\n        /* \"contracts/AccessControl.sol\":352:731  function init(address _contractAddr) public {\r... */\n      pop\n      jump\t// out\n        /* \"contracts/AccessControl.sol\":1018:1843  function accessControl(address _objectAddr, string memory action) public returns (bool res) {\r... */\n    tag_21:\n        /* \"contracts/AccessControl.sol\":1100:1108  bool res */\n      0x00\n        /* \"contracts/AccessControl.sol\":1121:1140  string memory right */\n      dup1\n        /* \"contracts/AccessControl.sol\":1143:1150  manager */\n      0x00\n      dup1\n      sload\n      swap1\n      0x0100\n      exp\n      swap1\n      div\n      0xffffffffffffffffffffffffffffffffffffffff\n      and\n        /* \"contracts/AccessControl.sol\":1143:1159  manager.getRight */\n      0xffffffffffffffffffffffffffffffffffffffff\n      and\n      0x8749774f\n        /* \"contracts/AccessControl.sol\":1160:1170  msg.sender */\n      caller\n        /* \"contracts/AccessControl.sol\":1172:1183  _objectAddr */\n      dup7\n        /* \"contracts/AccessControl.sol\":1143:1184  manager.getRight(msg.sender, _objectAddr) */\n      mload(0x40)\n      dup4\n      0xffffffff\n      and\n      0xe0\n      shl\n      dup2\n      mstore\n      0x04\n      add\n      tag_47\n      swap3\n      swap2\n      swap1\n      tag_48\n      jump\t// in\n    tag_47:\n      0x00\n      mload(0x40)\n      dup1\n      dup4\n      sub\n      dup2\n      dup7\n      dup1\n      extcodesize\n      iszero\n      dup1\n      iszero\n      tag_49\n      jumpi\n      0x00\n      dup1\n      revert\n    tag_49:\n      pop\n      gas\n      staticcall\n      iszero\n      dup1\n      iszero\n      tag_51\n      jumpi\n      returndatasize\n      0x00\n      dup1\n      returndatacopy\n      revert(0x00, returndatasize)\n    tag_51:\n      pop\n      pop\n      pop\n      pop\n      mload(0x40)\n      returndatasize\n      0x00\n      dup3\n      returndatacopy\n      returndatasize\n      not(0x1f)\n      0x1f\n      dup3\n      add\n      and\n      dup3\n      add\n      dup1\n      0x40\n      mstore\n      pop\n      dup2\n      add\n      swap1\n      tag_52\n      swap2\n      swap1\n      tag_53\n      jump\t// in\n    tag_52:\n        /* \"contracts/AccessControl.sol\":1121:1184  string memory right = manager.getRight(msg.sender, _objectAddr) */\n      swap1\n      pop\n        /* \"contracts/AccessControl.sol\":1254:1264  rightTable */\n      0x01\n        /* \"contracts/AccessControl.sol\":1265:1270  right */\n      dup2\n        /* \"contracts/AccessControl.sol\":1254:1271  rightTable[right] */\n      mload(0x40)\n      tag_54\n      swap2\n      swap1\n      tag_55\n      jump\t// in\n    tag_54:\n      swap1\n      dup2\n      mstore\n      0x20\n      add\n      mload(0x40)\n      dup1\n      swap2\n      sub\n      swap1\n      keccak256\n      sload\n        /* \"contracts/AccessControl.sol\":1233:1243  rightTable */\n      0x01\n        /* \"contracts/AccessControl.sol\":1244:1250  action */\n      dup5\n        /* \"contracts/AccessControl.sol\":1233:1251  rightTable[action] */\n      mload(0x40)\n      tag_56\n      swap2\n      swap1\n      tag_55\n      jump\t// in\n    tag_56:\n      swap1\n      dup2\n      mstore\n      0x20\n      add\n      mload(0x40)\n      dup1\n      swap2\n      sub\n      swap1\n      keccak256\n      sload\n        /* \"contracts/AccessControl.sol\":1233:1271  rightTable[action] < rightTable[right] */\n      slt\n        /* \"contracts/AccessControl.sol\":1230:1404  if(rightTable[action] < rightTable[right]) {\r... */\n      iszero\n      tag_57\n      jumpi\n        /* \"contracts/AccessControl.sol\":1293:1366  AccessControlRet(msg.sender, _objectAddr, action, \"Unauthorized access!\") */\n      0x4393de65ee68a32d7987583b1f2c6e6aa80df7d9ad5c0661660d70dff18b9d6d\n        /* \"contracts/AccessControl.sol\":1310:1320  msg.sender */\n      caller\n        /* \"contracts/AccessControl.sol\":1322:1333  _objectAddr */\n      dup6\n        /* \"contracts/AccessControl.sol\":1335:1341  action */\n      dup6\n        /* \"contracts/AccessControl.sol\":1293:1366  AccessControlRet(msg.sender, _objectAddr, action, \"Unauthorized access!\") */\n      mload(0x40)\n      tag_58\n      swap4\n      swap3\n      swap2\n      swap1\n      tag_59\n      jump\t// in\n    tag_58:\n      mload(0x40)\n      dup1\n      swap2\n      sub\n      swap1\n      log1\n        /* \"contracts/AccessControl.sol\":1387:1392  false */\n      0x00\n        /* \"contracts/AccessControl.sol\":1381:1392  res = false */\n      swap2\n      pop\n        /* \"contracts/AccessControl.sol\":1230:1404  if(rightTable[action] < rightTable[right]) {\r... */\n    tag_57:\n        /* \"contracts/AccessControl.sol\":1416:1438  string memory subjName */\n      0x60\n        /* \"contracts/AccessControl.sol\":1449:1469  string memory subjIP */\n      dup1\n        /* \"contracts/AccessControl.sol\":1501:1508  manager */\n      0x00\n      dup1\n      sload\n      swap1\n      0x0100\n      exp\n      swap1\n      div\n      0xffffffffffffffffffffffffffffffffffffffff\n      and\n        /* \"contracts/AccessControl.sol\":1501:1520  manager.getSubjInfo */\n      0xffffffffffffffffffffffffffffffffffffffff\n      and\n      0x9f764d16\n        /* \"contracts/AccessControl.sol\":1521:1531  msg.sender */\n      caller\n        /* \"contracts/AccessControl.sol\":1501:1532  manager.getSubjInfo(msg.sender) */\n      mload(0x40)\n      dup3\n      0xffffffff\n      and\n      0xe0\n      shl\n      dup2\n      mstore\n      0x04\n      add\n      tag_60\n      swap2\n      swap1\n      tag_61\n      jump\t// in\n    tag_60:\n      0x00\n      mload(0x40)\n      dup1\n      dup4\n      sub\n      dup2\n      dup7\n      dup1\n      extcodesize\n      iszero\n      dup1\n      iszero\n      tag_62\n      jumpi\n      0x00\n      dup1\n      revert\n    tag_62:\n      pop\n      gas\n      staticcall\n      iszero\n      dup1\n      iszero\n      tag_64\n      jumpi\n      returndatasize\n      0x00\n      dup1\n      returndatacopy\n      revert(0x00, returndatasize)\n    tag_64:\n      pop\n      pop\n      pop\n      pop\n      mload(0x40)\n      returndatasize\n      0x00\n      dup3\n      returndatacopy\n      returndatasize\n      not(0x1f)\n      0x1f\n      dup3\n      add\n      and\n      dup3\n      add\n      dup1\n      0x40\n      mstore\n      pop\n      dup2\n      add\n      swap1\n      tag_65\n      swap2\n      swap1\n      tag_66\n      jump\t// in\n    tag_65:\n        /* \"contracts/AccessControl.sol\":1480:1532  (subjName, subjIP) = manager.getSubjInfo(msg.sender) */\n      dup1\n      swap3\n      pop\n      dup2\n      swap4\n      pop\n      pop\n      pop\n        /* \"contracts/AccessControl.sol\":1577:1592  blackListIpPool */\n      0x02\n        /* \"contracts/AccessControl.sol\":1593:1599  subjIP */\n      dup2\n        /* \"contracts/AccessControl.sol\":1577:1600  blackListIpPool[subjIP] */\n      mload(0x40)\n      tag_67\n      swap2\n      swap1\n      tag_55\n      jump\t// in\n    tag_67:\n      swap1\n      dup2\n      mstore\n      0x20\n      add\n      mload(0x40)\n      dup1\n      swap2\n      sub\n      swap1\n      keccak256\n      0x00\n      swap1\n      sload\n      swap1\n      0x0100\n      exp\n      swap1\n      div\n      0xff\n      and\n        /* \"contracts/AccessControl.sol\":1574:1732  if(blackListIpPool[subjIP]) {\r... */\n      iszero\n      tag_68\n      jumpi\n        /* \"contracts/AccessControl.sol\":1622:1694  AccessControlRet(msg.sender, _objectAddr, action, \"Illegal IP address!\") */\n      0x4393de65ee68a32d7987583b1f2c6e6aa80df7d9ad5c0661660d70dff18b9d6d\n        /* \"contracts/AccessControl.sol\":1639:1649  msg.sender */\n      caller\n        /* \"contracts/AccessControl.sol\":1651:1662  _objectAddr */\n      dup8\n        /* \"contracts/AccessControl.sol\":1664:1670  action */\n      dup8\n        /* \"contracts/AccessControl.sol\":1622:1694  AccessControlRet(msg.sender, _objectAddr, action, \"Illegal IP address!\") */\n      mload(0x40)\n      tag_69\n      swap4\n      swap3\n      swap2\n      swap1\n      tag_70\n      jump\t// in\n    tag_69:\n      mload(0x40)\n      dup1\n      swap2\n      sub\n      swap1\n      log1\n        /* \"contracts/AccessControl.sol\":1715:1720  false */\n      0x00\n        /* \"contracts/AccessControl.sol\":1709:1720  res = false */\n      swap4\n      pop\n        /* \"contracts/AccessControl.sol\":1574:1732  if(blackListIpPool[subjIP]) {\r... */\n    tag_68:\n        /* \"contracts/AccessControl.sol\":1749:1814  AccessControlRet(msg.sender, _objectAddr, action, \"Access pass!\") */\n      0x4393de65ee68a32d7987583b1f2c6e6aa80df7d9ad5c0661660d70dff18b9d6d\n        /* \"contracts/AccessControl.sol\":1766:1776  msg.sender */\n      caller\n        /* \"contracts/AccessControl.sol\":1778:1789  _objectAddr */\n      dup8\n        /* \"contracts/AccessControl.sol\":1791:1797  action */\n      dup8\n        /* \"contracts/AccessControl.sol\":1749:1814  AccessControlRet(msg.sender, _objectAddr, action, \"Access pass!\") */\n      mload(0x40)\n      tag_71\n      swap4\n      swap3\n      swap2\n      swap1\n      tag_72\n      jump\t// in\n    tag_71:\n      mload(0x40)\n      dup1\n      swap2\n      sub\n      swap1\n      log1\n        /* \"contracts/AccessControl.sol\":1831:1835  true */\n      0x01\n        /* \"contracts/AccessControl.sol\":1825:1835  res = true */\n      swap4\n      pop\n        /* \"contracts/AccessControl.sol\":1110:1843  {\r... */\n      pop\n      pop\n      pop\n        /* \"contracts/AccessControl.sol\":1018:1843  function accessControl(address _objectAddr, string memory action) public returns (bool res) {\r... */\n      swap3\n      swap2\n      pop\n      pop\n      jump\t// out\n        /* \"contracts/AccessControl.sol\":739:1010  function getTestDeviceInfoByAddr(address _addr) public view returns (string memory _deviceName, string memory _deviceType) {\r... */\n    tag_25:\n        /* \"contracts/AccessControl.sol\":808:833  string memory _deviceName */\n      0x60\n        /* \"contracts/AccessControl.sol\":835:860  string memory _deviceType */\n      dup1\n        /* \"contracts/AccessControl.sol\":887:894  manager */\n      0x00\n      dup1\n      sload\n      swap1\n      0x0100\n      exp\n      swap1\n      div\n      0xffffffffffffffffffffffffffffffffffffffff\n      and\n        /* \"contracts/AccessControl.sol\":887:914  manager.getDeviceInfoByAddr */\n      0xffffffffffffffffffffffffffffffffffffffff\n      and\n      0xde1e23b7\n        /* \"contracts/AccessControl.sol\":915:920  _addr */\n      dup5\n        /* \"contracts/AccessControl.sol\":887:921  manager.getDeviceInfoByAddr(_addr) */\n      mload(0x40)\n      dup3\n      0xffffffff\n      and\n      0xe0\n      shl\n      dup2\n      mstore\n      0x04\n      add\n      tag_74\n      swap2\n      swap1\n      tag_61\n      jump\t// in\n    tag_74:\n      0x00\n      mload(0x40)\n      dup1\n      dup4\n      sub\n      dup2\n      dup7\n      dup1\n      extcodesize\n      iszero\n      dup1\n      iszero\n      tag_75\n      jumpi\n      0x00\n      dup1\n      revert\n    tag_75:\n      pop\n      gas\n      staticcall\n      iszero\n      dup1\n      iszero\n      tag_77\n      jumpi\n      returndatasize\n      0x00\n      dup1\n      returndatacopy\n      revert(0x00, returndatasize)\n    tag_77:\n      pop\n      pop\n      pop\n      pop\n      mload(0x40)\n      returndatasize\n      0x00\n      dup3\n      returndatacopy\n      returndatasize\n      not(0x1f)\n      0x1f\n      dup3\n      add\n      and\n      dup3\n      add\n      dup1\n      0x40\n      mstore\n      pop\n      dup2\n      add\n      swap1\n      tag_78\n      swap2\n      swap1\n      tag_79\n      jump\t// in\n    tag_78:\n        /* \"contracts/AccessControl.sol\":887:932  manager.getDeviceInfoByAddr(_addr).deviceName */\n      0x20\n      add\n      mload\n        /* \"contracts/AccessControl.sol\":873:932  _deviceName = manager.getDeviceInfoByAddr(_addr).deviceName */\n      swap2\n      pop\n        /* \"contracts/AccessControl.sol\":957:964  manager */\n      0x00\n      dup1\n      sload\n      swap1\n      0x0100\n      exp\n      swap1\n      div\n      0xffffffffffffffffffffffffffffffffffffffff\n      and\n        /* \"contracts/AccessControl.sol\":957:984  manager.getDeviceInfoByAddr */\n      0xffffffffffffffffffffffffffffffffffffffff\n      and\n      0xde1e23b7\n        /* \"contracts/AccessControl.sol\":985:990  _addr */\n      dup5\n        /* \"contracts/AccessControl.sol\":957:991  manager.getDeviceInfoByAddr(_addr) */\n      mload(0x40)\n      dup3\n      0xffffffff\n      and\n      0xe0\n      shl\n      dup2\n      mstore\n      0x04\n      add\n      tag_80\n      swap2\n      swap1\n      tag_61\n      jump\t// in\n    tag_80:\n      0x00\n      mload(0x40)\n      dup1\n      dup4\n      sub\n      dup2\n      dup7\n      dup1\n      extcodesize\n      iszero\n      dup1\n      iszero\n      tag_81\n      jumpi\n      0x00\n      dup1\n      revert\n    tag_81:\n      pop\n      gas\n      staticcall\n      iszero\n      dup1\n      iszero\n      tag_83\n      jumpi\n      returndatasize\n      0x00\n      dup1\n      returndatacopy\n      revert(0x00, returndatasize)\n    tag_83:\n      pop\n      pop\n      pop\n      pop\n      mload(0x40)\n      returndatasize\n      0x00\n      dup3\n      returndatacopy\n      returndatasize\n      not(0x1f)\n      0x1f\n      dup3\n      add\n      and\n      dup3\n      add\n      dup1\n      0x40\n      mstore\n      pop\n      dup2\n      add\n      swap1\n      tag_84\n      swap2\n      swap1\n      tag_79\n      jump\t// in\n    tag_84:\n        /* \"contracts/AccessControl.sol\":957:1002  manager.getDeviceInfoByAddr(_addr).deviceType */\n      0x40\n      add\n      mload\n        /* \"contracts/AccessControl.sol\":943:1002  _deviceType = manager.getDeviceInfoByAddr(_addr).deviceType */\n      swap1\n      pop\n        /* \"contracts/AccessControl.sol\":739:1010  function getTestDeviceInfoByAddr(address _addr) public view returns (string memory _deviceName, string memory _deviceType) {\r... */\n      swap2\n      pop\n      swap2\n      jump\t// out\n        /* \"contracts/AccessControl.sol\":161:201  mapping(string => int) public rightTable */\n    tag_30:\n      0x01\n      dup2\n      dup1\n      mload\n      0x20\n      dup2\n      add\n      dup3\n      add\n      dup1\n      mload\n      dup5\n      dup3\n      mstore\n      0x20\n      dup4\n      add\n      0x20\n      dup6\n      add\n      keccak256\n      dup2\n      dup4\n      mstore\n      dup1\n      swap6\n      pop\n      pop\n      pop\n      pop\n      pop\n      pop\n      0x00\n      swap2\n      pop\n      swap1\n      pop\n      sload\n      dup2\n      jump\t// out\n        /* \"#utility.yul\":7:419   */\n    tag_86:\n        /* \"#utility.yul\":85:90   */\n      0x00\n        /* \"#utility.yul\":110:176   */\n      tag_88\n        /* \"#utility.yul\":126:175   */\n      tag_89\n        /* \"#utility.yul\":168:174   */\n      dup5\n        /* \"#utility.yul\":126:175   */\n      tag_90\n      jump\t// in\n    tag_89:\n        /* \"#utility.yul\":110:176   */\n      tag_91\n      jump\t// in\n    tag_88:\n        /* \"#utility.yul\":101:176   */\n      swap1\n      pop\n        /* \"#utility.yul\":199:205   */\n      dup3\n        /* \"#utility.yul\":192:197   */\n      dup2\n        /* \"#utility.yul\":185:206   */\n      mstore\n        /* \"#utility.yul\":237:241   */\n      0x20\n        /* \"#utility.yul\":230:235   */\n      dup2\n        /* \"#utility.yul\":226:242   */\n      add\n        /* \"#utility.yul\":275:278   */\n      dup5\n        /* \"#utility.yul\":266:272   */\n      dup5\n        /* \"#utility.yul\":261:264   */\n      dup5\n        /* \"#utility.yul\":257:273   */\n      add\n        /* \"#utility.yul\":254:279   */\n      gt\n        /* \"#utility.yul\":251:363   */\n      iszero\n      tag_92\n      jumpi\n        /* \"#utility.yul\":282:361   */\n      tag_93\n      tag_94\n      jump\t// in\n    tag_93:\n        /* \"#utility.yul\":251:363   */\n    tag_92:\n        /* \"#utility.yul\":372:413   */\n      tag_95\n        /* \"#utility.yul\":406:412   */\n      dup5\n        /* \"#utility.yul\":401:404   */\n      dup3\n        /* \"#utility.yul\":396:399   */\n      dup6\n        /* \"#utility.yul\":372:413   */\n      tag_96\n      jump\t// in\n    tag_95:\n        /* \"#utility.yul\":91:419   */\n      pop\n        /* \"#utility.yul\":7:419   */\n      swap4\n      swap3\n      pop\n      pop\n      pop\n      jump\t// out\n        /* \"#utility.yul\":425:846   */\n    tag_97:\n        /* \"#utility.yul\":514:519   */\n      0x00\n        /* \"#utility.yul\":539:605   */\n      tag_99\n        /* \"#utility.yul\":555:604   */\n      tag_100\n        /* \"#utility.yul\":597:603   */\n      dup5\n        /* \"#utility.yul\":555:604   */\n      tag_90\n      jump\t// in\n    tag_100:\n        /* \"#utility.yul\":539:605   */\n      tag_91\n      jump\t// in\n    tag_99:\n        /* \"#utility.yul\":530:605   */\n      swap1\n      pop\n        /* \"#utility.yul\":628:634   */\n      dup3\n        /* \"#utility.yul\":621:626   */\n      dup2\n        /* \"#utility.yul\":614:635   */\n      mstore\n        /* \"#utility.yul\":666:670   */\n      0x20\n        /* \"#utility.yul\":659:664   */\n      dup2\n        /* \"#utility.yul\":655:671   */\n      add\n        /* \"#utility.yul\":704:707   */\n      dup5\n        /* \"#utility.yul\":695:701   */\n      dup5\n        /* \"#utility.yul\":690:693   */\n      dup5\n        /* \"#utility.yul\":686:702   */\n      add\n        /* \"#utility.yul\":683:708   */\n      gt\n        /* \"#utility.yul\":680:792   */\n      iszero\n      tag_101\n      jumpi\n        /* \"#utility.yul\":711:790   */\n      tag_102\n      tag_94\n      jump\t// in\n    tag_102:\n        /* \"#utility.yul\":680:792   */\n    tag_101:\n        /* \"#utility.yul\":801:840   */\n      tag_103\n        /* \"#utility.yul\":833:839   */\n      dup5\n        /* \"#utility.yul\":828:831   */\n      dup3\n        /* \"#utility.yul\":823:826   */\n      dup6\n        /* \"#utility.yul\":801:840   */\n      tag_104\n      jump\t// in\n    tag_103:\n        /* \"#utility.yul\":520:846   */\n      pop\n        /* \"#utility.yul\":425:846   */\n      swap4\n      swap3\n      pop\n      pop\n      pop\n      jump\t// out\n        /* \"#utility.yul\":852:991   */\n    tag_105:\n        /* \"#utility.yul\":898:903   */\n      0x00\n        /* \"#utility.yul\":936:942   */\n      dup2\n        /* \"#utility.yul\":923:943   */\n      calldataload\n        /* \"#utility.yul\":914:943   */\n      swap1\n      pop\n        /* \"#utility.yul\":952:985   */\n      tag_107\n        /* \"#utility.yul\":979:984   */\n      dup2\n        /* \"#utility.yul\":952:985   */\n      tag_108\n      jump\t// in\n    tag_107:\n        /* \"#utility.yul\":852:991   */\n      swap3\n      swap2\n      pop\n      pop\n      jump\t// out\n        /* \"#utility.yul\":997:1140   */\n    tag_109:\n        /* \"#utility.yul\":1054:1059   */\n      0x00\n        /* \"#utility.yul\":1085:1091   */\n      dup2\n        /* \"#utility.yul\":1079:1092   */\n      mload\n        /* \"#utility.yul\":1070:1092   */\n      swap1\n      pop\n        /* \"#utility.yul\":1101:1134   */\n      tag_111\n        /* \"#utility.yul\":1128:1133   */\n      dup2\n        /* \"#utility.yul\":1101:1134   */\n      tag_108\n      jump\t// in\n    tag_111:\n        /* \"#utility.yul\":997:1140   */\n      swap3\n      swap2\n      pop\n      pop\n      jump\t// out\n        /* \"#utility.yul\":1160:1500   */\n    tag_112:\n        /* \"#utility.yul\":1216:1221   */\n      0x00\n        /* \"#utility.yul\":1265:1268   */\n      dup3\n        /* \"#utility.yul\":1258:1262   */\n      0x1f\n        /* \"#utility.yul\":1250:1256   */\n      dup4\n        /* \"#utility.yul\":1246:1263   */\n      add\n        /* \"#utility.yul\":1242:1269   */\n      slt\n        /* \"#utility.yul\":1232:1354   */\n      tag_114\n      jumpi\n        /* \"#utility.yul\":1273:1352   */\n      tag_115\n      tag_116\n      jump\t// in\n    tag_115:\n        /* \"#utility.yul\":1232:1354   */\n    tag_114:\n        /* \"#utility.yul\":1390:1396   */\n      dup2\n        /* \"#utility.yul\":1377:1397   */\n      calldataload\n        /* \"#utility.yul\":1415:1494   */\n      tag_117\n        /* \"#utility.yul\":1490:1493   */\n      dup5\n        /* \"#utility.yul\":1482:1488   */\n      dup3\n        /* \"#utility.yul\":1475:1479   */\n      0x20\n        /* \"#utility.yul\":1467:1473   */\n      dup7\n        /* \"#utility.yul\":1463:1480   */\n      add\n        /* \"#utility.yul\":1415:1494   */\n      tag_86\n      jump\t// in\n    tag_117:\n        /* \"#utility.yul\":1406:1494   */\n      swap2\n      pop\n        /* \"#utility.yul\":1222:1500   */\n      pop\n        /* \"#utility.yul\":1160:1500   */\n      swap3\n      swap2\n      pop\n      pop\n      jump\t// out\n        /* \"#utility.yul\":1520:1875   */\n    tag_118:\n        /* \"#utility.yul\":1587:1592   */\n      0x00\n        /* \"#utility.yul\":1636:1639   */\n      dup3\n        /* \"#utility.yul\":1629:1633   */\n      0x1f\n        /* \"#utility.yul\":1621:1627   */\n      dup4\n        /* \"#utility.yul\":1617:1634   */\n      add\n        /* \"#utility.yul\":1613:1640   */\n      slt\n        /* \"#utility.yul\":1603:1725   */\n      tag_120\n      jumpi\n        /* \"#utility.yul\":1644:1723   */\n      tag_121\n      tag_116\n      jump\t// in\n    tag_121:\n        /* \"#utility.yul\":1603:1725   */\n    tag_120:\n        /* \"#utility.yul\":1754:1760   */\n      dup2\n        /* \"#utility.yul\":1748:1761   */\n      mload\n        /* \"#utility.yul\":1779:1869   */\n      tag_122\n        /* \"#utility.yul\":1865:1868   */\n      dup5\n        /* \"#utility.yul\":1857:1863   */\n      dup3\n        /* \"#utility.yul\":1850:1854   */\n      0x20\n        /* \"#utility.yul\":1842:1848   */\n      dup7\n        /* \"#utility.yul\":1838:1855   */\n      add\n        /* \"#utility.yul\":1779:1869   */\n      tag_97\n      jump\t// in\n    tag_122:\n        /* \"#utility.yul\":1770:1869   */\n      swap2\n      pop\n        /* \"#utility.yul\":1593:1875   */\n      pop\n        /* \"#utility.yul\":1520:1875   */\n      swap3\n      swap2\n      pop\n      pop\n      jump\t// out\n        /* \"#utility.yul\":1917:3042   */\n    tag_123:\n        /* \"#utility.yul\":2004:2009   */\n      0x00\n        /* \"#utility.yul\":2048:2052   */\n      0x60\n        /* \"#utility.yul\":2036:2045   */\n      dup3\n        /* \"#utility.yul\":2031:2034   */\n      dup5\n        /* \"#utility.yul\":2027:2046   */\n      sub\n        /* \"#utility.yul\":2023:2053   */\n      slt\n        /* \"#utility.yul\":2020:2137   */\n      iszero\n      tag_125\n      jumpi\n        /* \"#utility.yul\":2056:2135   */\n      tag_126\n      tag_127\n      jump\t// in\n    tag_126:\n        /* \"#utility.yul\":2020:2137   */\n    tag_125:\n        /* \"#utility.yul\":2155:2176   */\n      tag_128\n        /* \"#utility.yul\":2171:2175   */\n      0x60\n        /* \"#utility.yul\":2155:2176   */\n      tag_91\n      jump\t// in\n    tag_128:\n        /* \"#utility.yul\":2146:2176   */\n      swap1\n      pop\n        /* \"#utility.yul\":2241:2242   */\n      0x00\n        /* \"#utility.yul\":2281:2341   */\n      tag_129\n        /* \"#utility.yul\":2337:2340   */\n      dup5\n        /* \"#utility.yul\":2328:2334   */\n      dup3\n        /* \"#utility.yul\":2317:2326   */\n      dup6\n        /* \"#utility.yul\":2313:2335   */\n      add\n        /* \"#utility.yul\":2281:2341   */\n      tag_109\n      jump\t// in\n    tag_129:\n        /* \"#utility.yul\":2274:2278   */\n      0x00\n        /* \"#utility.yul\":2267:2272   */\n      dup4\n        /* \"#utility.yul\":2263:2279   */\n      add\n        /* \"#utility.yul\":2256:2342   */\n      mstore\n        /* \"#utility.yul\":2186:2353   */\n      pop\n        /* \"#utility.yul\":2439:2441   */\n      0x20\n        /* \"#utility.yul\":2428:2437   */\n      dup3\n        /* \"#utility.yul\":2424:2442   */\n      add\n        /* \"#utility.yul\":2418:2443   */\n      mload\n        /* \"#utility.yul\":2470:2488   */\n      0xffffffffffffffff\n        /* \"#utility.yul\":2462:2468   */\n      dup2\n        /* \"#utility.yul\":2459:2489   */\n      gt\n        /* \"#utility.yul\":2456:2573   */\n      iszero\n      tag_130\n      jumpi\n        /* \"#utility.yul\":2492:2571   */\n      tag_131\n      tag_132\n      jump\t// in\n    tag_131:\n        /* \"#utility.yul\":2456:2573   */\n    tag_130:\n        /* \"#utility.yul\":2612:2682   */\n      tag_133\n        /* \"#utility.yul\":2678:2681   */\n      dup5\n        /* \"#utility.yul\":2669:2675   */\n      dup3\n        /* \"#utility.yul\":2658:2667   */\n      dup6\n        /* \"#utility.yul\":2654:2676   */\n      add\n        /* \"#utility.yul\":2612:2682   */\n      tag_118\n      jump\t// in\n    tag_133:\n        /* \"#utility.yul\":2605:2609   */\n      0x20\n        /* \"#utility.yul\":2598:2603   */\n      dup4\n        /* \"#utility.yul\":2594:2610   */\n      add\n        /* \"#utility.yul\":2587:2683   */\n      mstore\n        /* \"#utility.yul\":2363:2694   */\n      pop\n        /* \"#utility.yul\":2780:2782   */\n      0x40\n        /* \"#utility.yul\":2769:2778   */\n      dup3\n        /* \"#utility.yul\":2765:2783   */\n      add\n        /* \"#utility.yul\":2759:2784   */\n      mload\n        /* \"#utility.yul\":2811:2829   */\n      0xffffffffffffffff\n        /* \"#utility.yul\":2803:2809   */\n      dup2\n        /* \"#utility.yul\":2800:2830   */\n      gt\n        /* \"#utility.yul\":2797:2914   */\n      iszero\n      tag_134\n      jumpi\n        /* \"#utility.yul\":2833:2912   */\n      tag_135\n      tag_132\n      jump\t// in\n    tag_135:\n        /* \"#utility.yul\":2797:2914   */\n    tag_134:\n        /* \"#utility.yul\":2953:3023   */\n      tag_136\n        /* \"#utility.yul\":3019:3022   */\n      dup5\n        /* \"#utility.yul\":3010:3016   */\n      dup3\n        /* \"#utility.yul\":2999:3008   */\n      dup6\n        /* \"#utility.yul\":2995:3017   */\n      add\n        /* \"#utility.yul\":2953:3023   */\n      tag_118\n      jump\t// in\n    tag_136:\n        /* \"#utility.yul\":2946:2950   */\n      0x40\n        /* \"#utility.yul\":2939:2944   */\n      dup4\n        /* \"#utility.yul\":2935:2951   */\n      add\n        /* \"#utility.yul\":2928:3024   */\n      mstore\n        /* \"#utility.yul\":2704:3035   */\n      pop\n        /* \"#utility.yul\":1917:3042   */\n      swap3\n      swap2\n      pop\n      pop\n      jump\t// out\n        /* \"#utility.yul\":3048:3377   */\n    tag_16:\n        /* \"#utility.yul\":3107:3113   */\n      0x00\n        /* \"#utility.yul\":3156:3158   */\n      0x20\n        /* \"#utility.yul\":3144:3153   */\n      dup3\n        /* \"#utility.yul\":3135:3142   */\n      dup5\n        /* \"#utility.yul\":3131:3154   */\n      sub\n        /* \"#utility.yul\":3127:3159   */\n      slt\n        /* \"#utility.yul\":3124:3243   */\n      iszero\n      tag_138\n      jumpi\n        /* \"#utility.yul\":3162:3241   */\n      tag_139\n      tag_140\n      jump\t// in\n    tag_139:\n        /* \"#utility.yul\":3124:3243   */\n    tag_138:\n        /* \"#utility.yul\":3282:3283   */\n      0x00\n        /* \"#utility.yul\":3307:3360   */\n      tag_141\n        /* \"#utility.yul\":3352:3359   */\n      dup5\n        /* \"#utility.yul\":3343:3349   */\n      dup3\n        /* \"#utility.yul\":3332:3341   */\n      dup6\n        /* \"#utility.yul\":3328:3350   */\n      add\n        /* \"#utility.yul\":3307:3360   */\n      tag_105\n      jump\t// in\n    tag_141:\n        /* \"#utility.yul\":3297:3360   */\n      swap2\n      pop\n        /* \"#utility.yul\":3253:3370   */\n      pop\n        /* \"#utility.yul\":3048:3377   */\n      swap3\n      swap2\n      pop\n      pop\n      jump\t// out\n        /* \"#utility.yul\":3383:4037   */\n    tag_20:\n        /* \"#utility.yul\":3461:3467   */\n      0x00\n        /* \"#utility.yul\":3469:3475   */\n      dup1\n        /* \"#utility.yul\":3518:3520   */\n      0x40\n        /* \"#utility.yul\":3506:3515   */\n      dup4\n        /* \"#utility.yul\":3497:3504   */\n      dup6\n        /* \"#utility.yul\":3493:3516   */\n      sub\n        /* \"#utility.yul\":3489:3521   */\n      slt\n        /* \"#utility.yul\":3486:3605   */\n      iszero\n      tag_143\n      jumpi\n        /* \"#utility.yul\":3524:3603   */\n      tag_144\n      tag_140\n      jump\t// in\n    tag_144:\n        /* \"#utility.yul\":3486:3605   */\n    tag_143:\n        /* \"#utility.yul\":3644:3645   */\n      0x00\n        /* \"#utility.yul\":3669:3722   */\n      tag_145\n        /* \"#utility.yul\":3714:3721   */\n      dup6\n        /* \"#utility.yul\":3705:3711   */\n      dup3\n        /* \"#utility.yul\":3694:3703   */\n      dup7\n        /* \"#utility.yul\":3690:3712   */\n      add\n        /* \"#utility.yul\":3669:3722   */\n      tag_105\n      jump\t// in\n    tag_145:\n        /* \"#utility.yul\":3659:3722   */\n      swap3\n      pop\n        /* \"#utility.yul\":3615:3732   */\n      pop\n        /* \"#utility.yul\":3799:3801   */\n      0x20\n        /* \"#utility.yul\":3788:3797   */\n      dup4\n        /* \"#utility.yul\":3784:3802   */\n      add\n        /* \"#utility.yul\":3771:3803   */\n      calldataload\n        /* \"#utility.yul\":3830:3848   */\n      0xffffffffffffffff\n        /* \"#utility.yul\":3822:3828   */\n      dup2\n        /* \"#utility.yul\":3819:3849   */\n      gt\n        /* \"#utility.yul\":3816:3933   */\n      iszero\n      tag_146\n      jumpi\n        /* \"#utility.yul\":3852:3931   */\n      tag_147\n      tag_148\n      jump\t// in\n    tag_147:\n        /* \"#utility.yul\":3816:3933   */\n    tag_146:\n        /* \"#utility.yul\":3957:4020   */\n      tag_149\n        /* \"#utility.yul\":4012:4019   */\n      dup6\n        /* \"#utility.yul\":4003:4009   */\n      dup3\n        /* \"#utility.yul\":3992:4001   */\n      dup7\n        /* \"#utility.yul\":3988:4010   */\n      add\n        /* \"#utility.yul\":3957:4020   */\n      tag_112\n      jump\t// in\n    tag_149:\n        /* \"#utility.yul\":3947:4020   */\n      swap2\n      pop\n        /* \"#utility.yul\":3742:4030   */\n      pop\n        /* \"#utility.yul\":3383:4037   */\n      swap3\n      pop\n      swap3\n      swap1\n      pop\n      jump\t// out\n        /* \"#utility.yul\":4043:4552   */\n    tag_10:\n        /* \"#utility.yul\":4112:4118   */\n      0x00\n        /* \"#utility.yul\":4161:4163   */\n      0x20\n        /* \"#utility.yul\":4149:4158   */\n      dup3\n        /* \"#utility.yul\":4140:4147   */\n      dup5\n        /* \"#utility.yul\":4136:4159   */\n      sub\n        /* \"#utility.yul\":4132:4164   */\n      slt\n        /* \"#utility.yul\":4129:4248   */\n      iszero\n      tag_151\n      jumpi\n        /* \"#utility.yul\":4167:4246   */\n      tag_152\n      tag_140\n      jump\t// in\n    tag_152:\n        /* \"#utility.yul\":4129:4248   */\n    tag_151:\n        /* \"#utility.yul\":4315:4316   */\n      0x00\n        /* \"#utility.yul\":4304:4313   */\n      dup3\n        /* \"#utility.yul\":4300:4317   */\n      add\n        /* \"#utility.yul\":4287:4318   */\n      calldataload\n        /* \"#utility.yul\":4345:4363   */\n      0xffffffffffffffff\n        /* \"#utility.yul\":4337:4343   */\n      dup2\n        /* \"#utility.yul\":4334:4364   */\n      gt\n        /* \"#utility.yul\":4331:4448   */\n      iszero\n      tag_153\n      jumpi\n        /* \"#utility.yul\":4367:4446   */\n      tag_154\n      tag_148\n      jump\t// in\n    tag_154:\n        /* \"#utility.yul\":4331:4448   */\n    tag_153:\n        /* \"#utility.yul\":4472:4535   */\n      tag_155\n        /* \"#utility.yul\":4527:4534   */\n      dup5\n        /* \"#utility.yul\":4518:4524   */\n      dup3\n        /* \"#utility.yul\":4507:4516   */\n      dup6\n        /* \"#utility.yul\":4503:4525   */\n      add\n        /* \"#utility.yul\":4472:4535   */\n      tag_112\n      jump\t// in\n    tag_155:\n        /* \"#utility.yul\":4462:4535   */\n      swap2\n      pop\n        /* \"#utility.yul\":4258:4545   */\n      pop\n        /* \"#utility.yul\":4043:4552   */\n      swap3\n      swap2\n      pop\n      pop\n      jump\t// out\n        /* \"#utility.yul\":4558:5082   */\n    tag_53:\n        /* \"#utility.yul\":4638:4644   */\n      0x00\n        /* \"#utility.yul\":4687:4689   */\n      0x20\n        /* \"#utility.yul\":4675:4684   */\n      dup3\n        /* \"#utility.yul\":4666:4673   */\n      dup5\n        /* \"#utility.yul\":4662:4685   */\n      sub\n        /* \"#utility.yul\":4658:4690   */\n      slt\n        /* \"#utility.yul\":4655:4774   */\n      iszero\n      tag_157\n      jumpi\n        /* \"#utility.yul\":4693:4772   */\n      tag_158\n      tag_140\n      jump\t// in\n    tag_158:\n        /* \"#utility.yul\":4655:4774   */\n    tag_157:\n        /* \"#utility.yul\":4834:4835   */\n      0x00\n        /* \"#utility.yul\":4823:4832   */\n      dup3\n        /* \"#utility.yul\":4819:4836   */\n      add\n        /* \"#utility.yul\":4813:4837   */\n      mload\n        /* \"#utility.yul\":4864:4882   */\n      0xffffffffffffffff\n        /* \"#utility.yul\":4856:4862   */\n      dup2\n        /* \"#utility.yul\":4853:4883   */\n      gt\n        /* \"#utility.yul\":4850:4967   */\n      iszero\n      tag_159\n      jumpi\n        /* \"#utility.yul\":4886:4965   */\n      tag_160\n      tag_148\n      jump\t// in\n    tag_160:\n        /* \"#utility.yul\":4850:4967   */\n    tag_159:\n        /* \"#utility.yul\":4991:5065   */\n      tag_161\n        /* \"#utility.yul\":5057:5064   */\n      dup5\n        /* \"#utility.yul\":5048:5054   */\n      dup3\n        /* \"#utility.yul\":5037:5046   */\n      dup6\n        /* \"#utility.yul\":5033:5055   */\n      add\n        /* \"#utility.yul\":4991:5065   */\n      tag_118\n      jump\t// in\n    tag_161:\n        /* \"#utility.yul\":4981:5065   */\n      swap2\n      pop\n        /* \"#utility.yul\":4784:5075   */\n      pop\n        /* \"#utility.yul\":4558:5082   */\n      swap3\n      swap2\n      pop\n      pop\n      jump\t// out\n        /* \"#utility.yul\":5088:5941   */\n    tag_66:\n        /* \"#utility.yul\":5187:5193   */\n      0x00\n        /* \"#utility.yul\":5195:5201   */\n      dup1\n        /* \"#utility.yul\":5244:5246   */\n      0x40\n        /* \"#utility.yul\":5232:5241   */\n      dup4\n        /* \"#utility.yul\":5223:5230   */\n      dup6\n        /* \"#utility.yul\":5219:5242   */\n      sub\n        /* \"#utility.yul\":5215:5247   */\n      slt\n        /* \"#utility.yul\":5212:5331   */\n      iszero\n      tag_163\n      jumpi\n        /* \"#utility.yul\":5250:5329   */\n      tag_164\n      tag_140\n      jump\t// in\n    tag_164:\n        /* \"#utility.yul\":5212:5331   */\n    tag_163:\n        /* \"#utility.yul\":5391:5392   */\n      0x00\n        /* \"#utility.yul\":5380:5389   */\n      dup4\n        /* \"#utility.yul\":5376:5393   */\n      add\n        /* \"#utility.yul\":5370:5394   */\n      mload\n        /* \"#utility.yul\":5421:5439   */\n      0xffffffffffffffff\n        /* \"#utility.yul\":5413:5419   */\n      dup2\n        /* \"#utility.yul\":5410:5440   */\n      gt\n        /* \"#utility.yul\":5407:5524   */\n      iszero\n      tag_165\n      jumpi\n        /* \"#utility.yul\":5443:5522   */\n      tag_166\n      tag_148\n      jump\t// in\n    tag_166:\n        /* \"#utility.yul\":5407:5524   */\n    tag_165:\n        /* \"#utility.yul\":5548:5622   */\n      tag_167\n        /* \"#utility.yul\":5614:5621   */\n      dup6\n        /* \"#utility.yul\":5605:5611   */\n      dup3\n        /* \"#utility.yul\":5594:5603   */\n      dup7\n        /* \"#utility.yul\":5590:5612   */\n      add\n        /* \"#utility.yul\":5548:5622   */\n      tag_118\n      jump\t// in\n    tag_167:\n        /* \"#utility.yul\":5538:5622   */\n      swap3\n      pop\n        /* \"#utility.yul\":5341:5632   */\n      pop\n        /* \"#utility.yul\":5692:5694   */\n      0x20\n        /* \"#utility.yul\":5681:5690   */\n      dup4\n        /* \"#utility.yul\":5677:5695   */\n      add\n        /* \"#utility.yul\":5671:5696   */\n      mload\n        /* \"#utility.yul\":5723:5741   */\n      0xffffffffffffffff\n        /* \"#utility.yul\":5715:5721   */\n      dup2\n        /* \"#utility.yul\":5712:5742   */\n      gt\n        /* \"#utility.yul\":5709:5826   */\n      iszero\n      tag_168\n      jumpi\n        /* \"#utility.yul\":5745:5824   */\n      tag_169\n      tag_148\n      jump\t// in\n    tag_169:\n        /* \"#utility.yul\":5709:5826   */\n    tag_168:\n        /* \"#utility.yul\":5850:5924   */\n      tag_170\n        /* \"#utility.yul\":5916:5923   */\n      dup6\n        /* \"#utility.yul\":5907:5913   */\n      dup3\n        /* \"#utility.yul\":5896:5905   */\n      dup7\n        /* \"#utility.yul\":5892:5914   */\n      add\n        /* \"#utility.yul\":5850:5924   */\n      tag_118\n      jump\t// in\n    tag_170:\n        /* \"#utility.yul\":5840:5924   */\n      swap2\n      pop\n        /* \"#utility.yul\":5642:5934   */\n      pop\n        /* \"#utility.yul\":5088:5941   */\n      swap3\n      pop\n      swap3\n      swap1\n      pop\n      jump\t// out\n        /* \"#utility.yul\":5947:6505   */\n    tag_79:\n        /* \"#utility.yul\":6044:6050   */\n      0x00\n        /* \"#utility.yul\":6093:6095   */\n      0x20\n        /* \"#utility.yul\":6081:6090   */\n      dup3\n        /* \"#utility.yul\":6072:6079   */\n      dup5\n        /* \"#utility.yul\":6068:6091   */\n      sub\n        /* \"#utility.yul\":6064:6096   */\n      slt\n        /* \"#utility.yul\":6061:6180   */\n      iszero\n      tag_172\n      jumpi\n        /* \"#utility.yul\":6099:6178   */\n      tag_173\n      tag_140\n      jump\t// in\n    tag_173:\n        /* \"#utility.yul\":6061:6180   */\n    tag_172:\n        /* \"#utility.yul\":6240:6241   */\n      0x00\n        /* \"#utility.yul\":6229:6238   */\n      dup3\n        /* \"#utility.yul\":6225:6242   */\n      add\n        /* \"#utility.yul\":6219:6243   */\n      mload\n        /* \"#utility.yul\":6270:6288   */\n      0xffffffffffffffff\n        /* \"#utility.yul\":6262:6268   */\n      dup2\n        /* \"#utility.yul\":6259:6289   */\n      gt\n        /* \"#utility.yul\":6256:6373   */\n      iszero\n      tag_174\n      jumpi\n        /* \"#utility.yul\":6292:6371   */\n      tag_175\n      tag_148\n      jump\t// in\n    tag_175:\n        /* \"#utility.yul\":6256:6373   */\n    tag_174:\n        /* \"#utility.yul\":6397:6488   */\n      tag_176\n        /* \"#utility.yul\":6480:6487   */\n      dup5\n        /* \"#utility.yul\":6471:6477   */\n      dup3\n        /* \"#utility.yul\":6460:6469   */\n      dup6\n        /* \"#utility.yul\":6456:6478   */\n      add\n        /* \"#utility.yul\":6397:6488   */\n      tag_123\n      jump\t// in\n    tag_176:\n        /* \"#utility.yul\":6387:6488   */\n      swap2\n      pop\n        /* \"#utility.yul\":6190:6498   */\n      pop\n        /* \"#utility.yul\":5947:6505   */\n      swap3\n      swap2\n      pop\n      pop\n      jump\t// out\n        /* \"#utility.yul\":6511:6629   */\n    tag_177:\n        /* \"#utility.yul\":6598:6622   */\n      tag_179\n        /* \"#utility.yul\":6616:6621   */\n      dup2\n        /* \"#utility.yul\":6598:6622   */\n      tag_180\n      jump\t// in\n    tag_179:\n        /* \"#utility.yul\":6593:6596   */\n      dup3\n        /* \"#utility.yul\":6586:6623   */\n      mstore\n        /* \"#utility.yul\":6511:6629   */\n      pop\n      pop\n      jump\t// out\n        /* \"#utility.yul\":6635:6744   */\n    tag_181:\n        /* \"#utility.yul\":6716:6737   */\n      tag_183\n        /* \"#utility.yul\":6731:6736   */\n      dup2\n        /* \"#utility.yul\":6716:6737   */\n      tag_184\n      jump\t// in\n    tag_183:\n        /* \"#utility.yul\":6711:6714   */\n      dup3\n        /* \"#utility.yul\":6704:6738   */\n      mstore\n        /* \"#utility.yul\":6635:6744   */\n      pop\n      pop\n      jump\t// out\n        /* \"#utility.yul\":6750:6865   */\n    tag_185:\n        /* \"#utility.yul\":6835:6858   */\n      tag_187\n        /* \"#utility.yul\":6852:6857   */\n      dup2\n        /* \"#utility.yul\":6835:6858   */\n      tag_188\n      jump\t// in\n    tag_187:\n        /* \"#utility.yul\":6830:6833   */\n      dup3\n        /* \"#utility.yul\":6823:6859   */\n      mstore\n        /* \"#utility.yul\":6750:6865   */\n      pop\n      pop\n      jump\t// out\n        /* \"#utility.yul\":6871:7235   */\n    tag_189:\n        /* \"#utility.yul\":6959:6962   */\n      0x00\n        /* \"#utility.yul\":6987:7026   */\n      tag_191\n        /* \"#utility.yul\":7020:7025   */\n      dup3\n        /* \"#utility.yul\":6987:7026   */\n      tag_192\n      jump\t// in\n    tag_191:\n        /* \"#utility.yul\":7042:7113   */\n      tag_193\n        /* \"#utility.yul\":7106:7112   */\n      dup2\n        /* \"#utility.yul\":7101:7104   */\n      dup6\n        /* \"#utility.yul\":7042:7113   */\n      tag_194\n      jump\t// in\n    tag_193:\n        /* \"#utility.yul\":7035:7113   */\n      swap4\n      pop\n        /* \"#utility.yul\":7122:7174   */\n      tag_195\n        /* \"#utility.yul\":7167:7173   */\n      dup2\n        /* \"#utility.yul\":7162:7165   */\n      dup6\n        /* \"#utility.yul\":7155:7159   */\n      0x20\n        /* \"#utility.yul\":7148:7153   */\n      dup7\n        /* \"#utility.yul\":7144:7160   */\n      add\n        /* \"#utility.yul\":7122:7174   */\n      tag_104\n      jump\t// in\n    tag_195:\n        /* \"#utility.yul\":7199:7228   */\n      tag_196\n        /* \"#utility.yul\":7221:7227   */\n      dup2\n        /* \"#utility.yul\":7199:7228   */\n      tag_197\n      jump\t// in\n    tag_196:\n        /* \"#utility.yul\":7194:7197   */\n      dup5\n        /* \"#utility.yul\":7190:7229   */\n      add\n        /* \"#utility.yul\":7183:7229   */\n      swap2\n      pop\n        /* \"#utility.yul\":6963:7235   */\n      pop\n        /* \"#utility.yul\":6871:7235   */\n      swap3\n      swap2\n      pop\n      pop\n      jump\t// out\n        /* \"#utility.yul\":7241:7618   */\n    tag_198:\n        /* \"#utility.yul\":7347:7350   */\n      0x00\n        /* \"#utility.yul\":7375:7414   */\n      tag_200\n        /* \"#utility.yul\":7408:7413   */\n      dup3\n        /* \"#utility.yul\":7375:7414   */\n      tag_192\n      jump\t// in\n    tag_200:\n        /* \"#utility.yul\":7430:7519   */\n      tag_201\n        /* \"#utility.yul\":7512:7518   */\n      dup2\n        /* \"#utility.yul\":7507:7510   */\n      dup6\n        /* \"#utility.yul\":7430:7519   */\n      tag_202\n      jump\t// in\n    tag_201:\n        /* \"#utility.yul\":7423:7519   */\n      swap4\n      pop\n        /* \"#utility.yul\":7528:7580   */\n      tag_203\n        /* \"#utility.yul\":7573:7579   */\n      dup2\n        /* \"#utility.yul\":7568:7571   */\n      dup6\n        /* \"#utility.yul\":7561:7565   */\n      0x20\n        /* \"#utility.yul\":7554:7559   */\n      dup7\n        /* \"#utility.yul\":7550:7566   */\n      add\n        /* \"#utility.yul\":7528:7580   */\n      tag_104\n      jump\t// in\n    tag_203:\n        /* \"#utility.yul\":7605:7611   */\n      dup1\n        /* \"#utility.yul\":7600:7603   */\n      dup5\n        /* \"#utility.yul\":7596:7612   */\n      add\n        /* \"#utility.yul\":7589:7612   */\n      swap2\n      pop\n        /* \"#utility.yul\":7351:7618   */\n      pop\n        /* \"#utility.yul\":7241:7618   */\n      swap3\n      swap2\n      pop\n      pop\n      jump\t// out\n        /* \"#utility.yul\":7624:8024   */\n    tag_204:\n        /* \"#utility.yul\":7784:7787   */\n      0x00\n        /* \"#utility.yul\":7805:7889   */\n      tag_206\n        /* \"#utility.yul\":7887:7888   */\n      0x05\n        /* \"#utility.yul\":7882:7885   */\n      dup4\n        /* \"#utility.yul\":7805:7889   */\n      tag_202\n      jump\t// in\n    tag_206:\n        /* \"#utility.yul\":7798:7889   */\n      swap2\n      pop\n        /* \"#utility.yul\":7898:7991   */\n      tag_207\n        /* \"#utility.yul\":7987:7990   */\n      dup3\n        /* \"#utility.yul\":7898:7991   */\n      tag_208\n      jump\t// in\n    tag_207:\n        /* \"#utility.yul\":8016:8017   */\n      0x05\n        /* \"#utility.yul\":8011:8014   */\n      dup3\n        /* \"#utility.yul\":8007:8018   */\n      add\n        /* \"#utility.yul\":8000:8018   */\n      swap1\n      pop\n        /* \"#utility.yul\":7624:8024   */\n      swap2\n      swap1\n      pop\n      jump\t// out\n        /* \"#utility.yul\":8030:8430   */\n    tag_209:\n        /* \"#utility.yul\":8190:8193   */\n      0x00\n        /* \"#utility.yul\":8211:8295   */\n      tag_211\n        /* \"#utility.yul\":8293:8294   */\n      0x07\n        /* \"#utility.yul\":8288:8291   */\n      dup4\n        /* \"#utility.yul\":8211:8295   */\n      tag_202\n      jump\t// in\n    tag_211:\n        /* \"#utility.yul\":8204:8295   */\n      swap2\n      pop\n        /* \"#utility.yul\":8304:8397   */\n      tag_212\n        /* \"#utility.yul\":8393:8396   */\n      dup3\n        /* \"#utility.yul\":8304:8397   */\n      tag_213\n      jump\t// in\n    tag_212:\n        /* \"#utility.yul\":8422:8423   */\n      0x07\n        /* \"#utility.yul\":8417:8420   */\n      dup3\n        /* \"#utility.yul\":8413:8424   */\n      add\n        /* \"#utility.yul\":8406:8424   */\n      swap1\n      pop\n        /* \"#utility.yul\":8030:8430   */\n      swap2\n      swap1\n      pop\n      jump\t// out\n        /* \"#utility.yul\":8436:8802   */\n    tag_214:\n        /* \"#utility.yul\":8578:8581   */\n      0x00\n        /* \"#utility.yul\":8599:8666   */\n      tag_216\n        /* \"#utility.yul\":8663:8665   */\n      0x0c\n        /* \"#utility.yul\":8658:8661   */\n      dup4\n        /* \"#utility.yul\":8599:8666   */\n      tag_194\n      jump\t// in\n    tag_216:\n        /* \"#utility.yul\":8592:8666   */\n      swap2\n      pop\n        /* \"#utility.yul\":8675:8768   */\n      tag_217\n        /* \"#utility.yul\":8764:8767   */\n      dup3\n        /* \"#utility.yul\":8675:8768   */\n      tag_218\n      jump\t// in\n    tag_217:\n        /* \"#utility.yul\":8793:8795   */\n      0x20\n        /* \"#utility.yul\":8788:8791   */\n      dup3\n        /* \"#utility.yul\":8784:8796   */\n      add\n        /* \"#utility.yul\":8777:8796   */\n      swap1\n      pop\n        /* \"#utility.yul\":8436:8802   */\n      swap2\n      swap1\n      pop\n      jump\t// out\n        /* \"#utility.yul\":8808:9208   */\n    tag_219:\n        /* \"#utility.yul\":8968:8971   */\n      0x00\n        /* \"#utility.yul\":8989:9073   */\n      tag_221\n        /* \"#utility.yul\":9071:9072   */\n      0x07\n        /* \"#utility.yul\":9066:9069   */\n      dup4\n        /* \"#utility.yul\":8989:9073   */\n      tag_202\n      jump\t// in\n    tag_221:\n        /* \"#utility.yul\":8982:9073   */\n      swap2\n      pop\n        /* \"#utility.yul\":9082:9175   */\n      tag_222\n        /* \"#utility.yul\":9171:9174   */\n      dup3\n        /* \"#utility.yul\":9082:9175   */\n      tag_223\n      jump\t// in\n    tag_222:\n        /* \"#utility.yul\":9200:9201   */\n      0x07\n        /* \"#utility.yul\":9195:9198   */\n      dup3\n        /* \"#utility.yul\":9191:9202   */\n      add\n        /* \"#utility.yul\":9184:9202   */\n      swap1\n      pop\n        /* \"#utility.yul\":8808:9208   */\n      swap2\n      swap1\n      pop\n      jump\t// out\n        /* \"#utility.yul\":9214:9580   */\n    tag_224:\n        /* \"#utility.yul\":9356:9359   */\n      0x00\n        /* \"#utility.yul\":9377:9444   */\n      tag_226\n        /* \"#utility.yul\":9441:9443   */\n      0x13\n        /* \"#utility.yul\":9436:9439   */\n      dup4\n        /* \"#utility.yul\":9377:9444   */\n      tag_194\n      jump\t// in\n    tag_226:\n        /* \"#utility.yul\":9370:9444   */\n      swap2\n      pop\n        /* \"#utility.yul\":9453:9546   */\n      tag_227\n        /* \"#utility.yul\":9542:9545   */\n      dup3\n        /* \"#utility.yul\":9453:9546   */\n      tag_228\n      jump\t// in\n    tag_227:\n        /* \"#utility.yul\":9571:9573   */\n      0x20\n        /* \"#utility.yul\":9566:9569   */\n      dup3\n        /* \"#utility.yul\":9562:9574   */\n      add\n        /* \"#utility.yul\":9555:9574   */\n      swap1\n      pop\n        /* \"#utility.yul\":9214:9580   */\n      swap2\n      swap1\n      pop\n      jump\t// out\n        /* \"#utility.yul\":9586:9986   */\n    tag_229:\n        /* \"#utility.yul\":9746:9749   */\n      0x00\n        /* \"#utility.yul\":9767:9851   */\n      tag_231\n        /* \"#utility.yul\":9849:9850   */\n      0x04\n        /* \"#utility.yul\":9844:9847   */\n      dup4\n        /* \"#utility.yul\":9767:9851   */\n      tag_202\n      jump\t// in\n    tag_231:\n        /* \"#utility.yul\":9760:9851   */\n      swap2\n      pop\n        /* \"#utility.yul\":9860:9953   */\n      tag_232\n        /* \"#utility.yul\":9949:9952   */\n      dup3\n        /* \"#utility.yul\":9860:9953   */\n      tag_233\n      jump\t// in\n    tag_232:\n        /* \"#utility.yul\":9978:9979   */\n      0x04\n        /* \"#utility.yul\":9973:9976   */\n      dup3\n        /* \"#utility.yul\":9969:9980   */\n      add\n        /* \"#utility.yul\":9962:9980   */\n      swap1\n      pop\n        /* \"#utility.yul\":9586:9986   */\n      swap2\n      swap1\n      pop\n      jump\t// out\n        /* \"#utility.yul\":9992:10392   */\n    tag_234:\n        /* \"#utility.yul\":10152:10155   */\n      0x00\n        /* \"#utility.yul\":10173:10257   */\n      tag_236\n        /* \"#utility.yul\":10255:10256   */\n      0x04\n        /* \"#utility.yul\":10250:10253   */\n      dup4\n        /* \"#utility.yul\":10173:10257   */\n      tag_202\n      jump\t// in\n    tag_236:\n        /* \"#utility.yul\":10166:10257   */\n      swap2\n      pop\n        /* \"#utility.yul\":10266:10359   */\n      tag_237\n        /* \"#utility.yul\":10355:10358   */\n      dup3\n        /* \"#utility.yul\":10266:10359   */\n      tag_238\n      jump\t// in\n    tag_237:\n        /* \"#utility.yul\":10384:10385   */\n      0x04\n        /* \"#utility.yul\":10379:10382   */\n      dup3\n        /* \"#utility.yul\":10375:10386   */\n      add\n        /* \"#utility.yul\":10368:10386   */\n      swap1\n      pop\n        /* \"#utility.yul\":9992:10392   */\n      swap2\n      swap1\n      pop\n      jump\t// out\n        /* \"#utility.yul\":10398:10764   */\n    tag_239:\n        /* \"#utility.yul\":10540:10543   */\n      0x00\n        /* \"#utility.yul\":10561:10628   */\n      tag_241\n        /* \"#utility.yul\":10625:10627   */\n      0x14\n        /* \"#utility.yul\":10620:10623   */\n      dup4\n        /* \"#utility.yul\":10561:10628   */\n      tag_194\n      jump\t// in\n    tag_241:\n        /* \"#utility.yul\":10554:10628   */\n      swap2\n      pop\n        /* \"#utility.yul\":10637:10730   */\n      tag_242\n        /* \"#utility.yul\":10726:10729   */\n      dup3\n        /* \"#utility.yul\":10637:10730   */\n      tag_243\n      jump\t// in\n    tag_242:\n        /* \"#utility.yul\":10755:10757   */\n      0x20\n        /* \"#utility.yul\":10750:10753   */\n      dup3\n        /* \"#utility.yul\":10746:10758   */\n      add\n        /* \"#utility.yul\":10739:10758   */\n      swap1\n      pop\n        /* \"#utility.yul\":10398:10764   */\n      swap2\n      swap1\n      pop\n      jump\t// out\n        /* \"#utility.yul\":10770:11170   */\n    tag_244:\n        /* \"#utility.yul\":10930:10933   */\n      0x00\n        /* \"#utility.yul\":10951:11035   */\n      tag_246\n        /* \"#utility.yul\":11033:11034   */\n      0x04\n        /* \"#utility.yul\":11028:11031   */\n      dup4\n        /* \"#utility.yul\":10951:11035   */\n      tag_202\n      jump\t// in\n    tag_246:\n        /* \"#utility.yul\":10944:11035   */\n      swap2\n      pop\n        /* \"#utility.yul\":11044:11137   */\n      tag_247\n        /* \"#utility.yul\":11133:11136   */\n      dup3\n        /* \"#utility.yul\":11044:11137   */\n      tag_248\n      jump\t// in\n    tag_247:\n        /* \"#utility.yul\":11162:11163   */\n      0x04\n        /* \"#utility.yul\":11157:11160   */\n      dup3\n        /* \"#utility.yul\":11153:11164   */\n      add\n        /* \"#utility.yul\":11146:11164   */\n      swap1\n      pop\n        /* \"#utility.yul\":10770:11170   */\n      swap2\n      swap1\n      pop\n      jump\t// out\n        /* \"#utility.yul\":11176:11451   */\n    tag_55:\n        /* \"#utility.yul\":11308:11311   */\n      0x00\n        /* \"#utility.yul\":11330:11425   */\n      tag_250\n        /* \"#utility.yul\":11421:11424   */\n      dup3\n        /* \"#utility.yul\":11412:11418   */\n      dup5\n        /* \"#utility.yul\":11330:11425   */\n      tag_198\n      jump\t// in\n    tag_250:\n        /* \"#utility.yul\":11323:11425   */\n      swap2\n      pop\n        /* \"#utility.yul\":11442:11445   */\n      dup2\n        /* \"#utility.yul\":11435:11445   */\n      swap1\n      pop\n        /* \"#utility.yul\":11176:11451   */\n      swap3\n      swap2\n      pop\n      pop\n      jump\t// out\n        /* \"#utility.yul\":11457:11838   */\n    tag_39:\n        /* \"#utility.yul\":11642:11645   */\n      0x00\n        /* \"#utility.yul\":11664:11812   */\n      tag_252\n        /* \"#utility.yul\":11808:11811   */\n      dup3\n        /* \"#utility.yul\":11664:11812   */\n      tag_204\n      jump\t// in\n    tag_252:\n        /* \"#utility.yul\":11657:11812   */\n      swap2\n      pop\n        /* \"#utility.yul\":11829:11832   */\n      dup2\n        /* \"#utility.yul\":11822:11832   */\n      swap1\n      pop\n        /* \"#utility.yul\":11457:11838   */\n      swap2\n      swap1\n      pop\n      jump\t// out\n        /* \"#utility.yul\":11844:12225   */\n    tag_45:\n        /* \"#utility.yul\":12029:12032   */\n      0x00\n        /* \"#utility.yul\":12051:12199   */\n      tag_254\n        /* \"#utility.yul\":12195:12198   */\n      dup3\n        /* \"#utility.yul\":12051:12199   */\n      tag_209\n      jump\t// in\n    tag_254:\n        /* \"#utility.yul\":12044:12199   */\n      swap2\n      pop\n        /* \"#utility.yul\":12216:12219   */\n      dup2\n        /* \"#utility.yul\":12209:12219   */\n      swap1\n      pop\n        /* \"#utility.yul\":11844:12225   */\n      swap2\n      swap1\n      pop\n      jump\t// out\n        /* \"#utility.yul\":12231:12612   */\n    tag_41:\n        /* \"#utility.yul\":12416:12419   */\n      0x00\n        /* \"#utility.yul\":12438:12586   */\n      tag_256\n        /* \"#utility.yul\":12582:12585   */\n      dup3\n        /* \"#utility.yul\":12438:12586   */\n      tag_219\n      jump\t// in\n    tag_256:\n        /* \"#utility.yul\":12431:12586   */\n      swap2\n      pop\n        /* \"#utility.yul\":12603:12606   */\n      dup2\n        /* \"#utility.yul\":12596:12606   */\n      swap1\n      pop\n        /* \"#utility.yul\":12231:12612   */\n      swap2\n      swap1\n      pop\n      jump\t// out\n        /* \"#utility.yul\":12618:12999   */\n    tag_43:\n        /* \"#utility.yul\":12803:12806   */\n      0x00\n        /* \"#utility.yul\":12825:12973   */\n      tag_258\n        /* \"#utility.yul\":12969:12972   */\n      dup3\n        /* \"#utility.yul\":12825:12973   */\n      tag_229\n      jump\t// in\n    tag_258:\n        /* \"#utility.yul\":12818:12973   */\n      swap2\n      pop\n        /* \"#utility.yul\":12990:12993   */\n      dup2\n        /* \"#utility.yul\":12983:12993   */\n      swap1\n      pop\n        /* \"#utility.yul\":12618:12999   */\n      swap2\n      swap1\n      pop\n      jump\t// out\n        /* \"#utility.yul\":13005:13386   */\n    tag_37:\n        /* \"#utility.yul\":13190:13193   */\n      0x00\n        /* \"#utility.yul\":13212:13360   */\n      tag_260\n        /* \"#utility.yul\":13356:13359   */\n      dup3\n        /* \"#utility.yul\":13212:13360   */\n      tag_234\n      jump\t// in\n    tag_260:\n        /* \"#utility.yul\":13205:13360   */\n      swap2\n      pop\n        /* \"#utility.yul\":13377:13380   */\n      dup2\n        /* \"#utility.yul\":13370:13380   */\n      swap1\n      pop\n        /* \"#utility.yul\":13005:13386   */\n      swap2\n      swap1\n      pop\n      jump\t// out\n        /* \"#utility.yul\":13392:13773   */\n    tag_35:\n        /* \"#utility.yul\":13577:13580   */\n      0x00\n        /* \"#utility.yul\":13599:13747   */\n      tag_262\n        /* \"#utility.yul\":13743:13746   */\n      dup3\n        /* \"#utility.yul\":13599:13747   */\n      tag_244\n      jump\t// in\n    tag_262:\n        /* \"#utility.yul\":13592:13747   */\n      swap2\n      pop\n        /* \"#utility.yul\":13764:13767   */\n      dup2\n        /* \"#utility.yul\":13757:13767   */\n      swap1\n      pop\n        /* \"#utility.yul\":13392:13773   */\n      swap2\n      swap1\n      pop\n      jump\t// out\n        /* \"#utility.yul\":13779:14001   */\n    tag_61:\n        /* \"#utility.yul\":13872:13876   */\n      0x00\n        /* \"#utility.yul\":13910:13912   */\n      0x20\n        /* \"#utility.yul\":13899:13908   */\n      dup3\n        /* \"#utility.yul\":13895:13913   */\n      add\n        /* \"#utility.yul\":13887:13913   */\n      swap1\n      pop\n        /* \"#utility.yul\":13923:13994   */\n      tag_264\n        /* \"#utility.yul\":13991:13992   */\n      0x00\n        /* \"#utility.yul\":13980:13989   */\n      dup4\n        /* \"#utility.yul\":13976:13993   */\n      add\n        /* \"#utility.yul\":13967:13973   */\n      dup5\n        /* \"#utility.yul\":13923:13994   */\n      tag_177\n      jump\t// in\n    tag_264:\n        /* \"#utility.yul\":13779:14001   */\n      swap3\n      swap2\n      pop\n      pop\n      jump\t// out\n        /* \"#utility.yul\":14007:14339   */\n    tag_48:\n        /* \"#utility.yul\":14128:14132   */\n      0x00\n        /* \"#utility.yul\":14166:14168   */\n      0x40\n        /* \"#utility.yul\":14155:14164   */\n      dup3\n        /* \"#utility.yul\":14151:14169   */\n      add\n        /* \"#utility.yul\":14143:14169   */\n      swap1\n      pop\n        /* \"#utility.yul\":14179:14250   */\n      tag_266\n        /* \"#utility.yul\":14247:14248   */\n      0x00\n        /* \"#utility.yul\":14236:14245   */\n      dup4\n        /* \"#utility.yul\":14232:14249   */\n      add\n        /* \"#utility.yul\":14223:14229   */\n      dup6\n        /* \"#utility.yul\":14179:14250   */\n      tag_177\n      jump\t// in\n    tag_266:\n        /* \"#utility.yul\":14260:14332   */\n      tag_267\n        /* \"#utility.yul\":14328:14330   */\n      0x20\n        /* \"#utility.yul\":14317:14326   */\n      dup4\n        /* \"#utility.yul\":14313:14331   */\n      add\n        /* \"#utility.yul\":14304:14310   */\n      dup5\n        /* \"#utility.yul\":14260:14332   */\n      tag_177\n      jump\t// in\n    tag_267:\n        /* \"#utility.yul\":14007:14339   */\n      swap4\n      swap3\n      pop\n      pop\n      pop\n      jump\t// out\n        /* \"#utility.yul\":14345:15186   */\n    tag_72:\n        /* \"#utility.yul\":14615:14619   */\n      0x00\n        /* \"#utility.yul\":14653:14656   */\n      0x80\n        /* \"#utility.yul\":14642:14651   */\n      dup3\n        /* \"#utility.yul\":14638:14657   */\n      add\n        /* \"#utility.yul\":14630:14657   */\n      swap1\n      pop\n        /* \"#utility.yul\":14667:14738   */\n      tag_269\n        /* \"#utility.yul\":14735:14736   */\n      0x00\n        /* \"#utility.yul\":14724:14733   */\n      dup4\n        /* \"#utility.yul\":14720:14737   */\n      add\n        /* \"#utility.yul\":14711:14717   */\n      dup7\n        /* \"#utility.yul\":14667:14738   */\n      tag_177\n      jump\t// in\n    tag_269:\n        /* \"#utility.yul\":14748:14820   */\n      tag_270\n        /* \"#utility.yul\":14816:14818   */\n      0x20\n        /* \"#utility.yul\":14805:14814   */\n      dup4\n        /* \"#utility.yul\":14801:14819   */\n      add\n        /* \"#utility.yul\":14792:14798   */\n      dup6\n        /* \"#utility.yul\":14748:14820   */\n      tag_177\n      jump\t// in\n    tag_270:\n        /* \"#utility.yul\":14867:14876   */\n      dup2\n        /* \"#utility.yul\":14861:14865   */\n      dup2\n        /* \"#utility.yul\":14857:14877   */\n      sub\n        /* \"#utility.yul\":14852:14854   */\n      0x40\n        /* \"#utility.yul\":14841:14850   */\n      dup4\n        /* \"#utility.yul\":14837:14855   */\n      add\n        /* \"#utility.yul\":14830:14878   */\n      mstore\n        /* \"#utility.yul\":14895:14973   */\n      tag_271\n        /* \"#utility.yul\":14968:14972   */\n      dup2\n        /* \"#utility.yul\":14959:14965   */\n      dup5\n        /* \"#utility.yul\":14895:14973   */\n      tag_189\n      jump\t// in\n    tag_271:\n        /* \"#utility.yul\":14887:14973   */\n      swap1\n      pop\n        /* \"#utility.yul\":15020:15029   */\n      dup2\n        /* \"#utility.yul\":15014:15018   */\n      dup2\n        /* \"#utility.yul\":15010:15030   */\n      sub\n        /* \"#utility.yul\":15005:15007   */\n      0x60\n        /* \"#utility.yul\":14994:15003   */\n      dup4\n        /* \"#utility.yul\":14990:15008   */\n      add\n        /* \"#utility.yul\":14983:15031   */\n      mstore\n        /* \"#utility.yul\":15048:15179   */\n      tag_272\n        /* \"#utility.yul\":15174:15178   */\n      dup2\n        /* \"#utility.yul\":15048:15179   */\n      tag_214\n      jump\t// in\n    tag_272:\n        /* \"#utility.yul\":15040:15179   */\n      swap1\n      pop\n        /* \"#utility.yul\":14345:15186   */\n      swap5\n      swap4\n      pop\n      pop\n      pop\n      pop\n      jump\t// out\n        /* \"#utility.yul\":15192:16033   */\n    tag_70:\n        /* \"#utility.yul\":15462:15466   */\n      0x00\n        /* \"#utility.yul\":15500:15503   */\n      0x80\n        /* \"#utility.yul\":15489:15498   */\n      dup3\n        /* \"#utility.yul\":15485:15504   */\n      add\n        /* \"#utility.yul\":15477:15504   */\n      swap1\n      pop\n        /* \"#utility.yul\":15514:15585   */\n      tag_274\n        /* \"#utility.yul\":15582:15583   */\n      0x00\n        /* \"#utility.yul\":15571:15580   */\n      dup4\n        /* \"#utility.yul\":15567:15584   */\n      add\n        /* \"#utility.yul\":15558:15564   */\n      dup7\n        /* \"#utility.yul\":15514:15585   */\n      tag_177\n      jump\t// in\n    tag_274:\n        /* \"#utility.yul\":15595:15667   */\n      tag_275\n        /* \"#utility.yul\":15663:15665   */\n      0x20\n        /* \"#utility.yul\":15652:15661   */\n      dup4\n        /* \"#utility.yul\":15648:15666   */\n      add\n        /* \"#utility.yul\":15639:15645   */\n      dup6\n        /* \"#utility.yul\":15595:15667   */\n      tag_177\n      jump\t// in\n    tag_275:\n        /* \"#utility.yul\":15714:15723   */\n      dup2\n        /* \"#utility.yul\":15708:15712   */\n      dup2\n        /* \"#utility.yul\":15704:15724   */\n      sub\n        /* \"#utility.yul\":15699:15701   */\n      0x40\n        /* \"#utility.yul\":15688:15697   */\n      dup4\n        /* \"#utility.yul\":15684:15702   */\n      add\n        /* \"#utility.yul\":15677:15725   */\n      mstore\n        /* \"#utility.yul\":15742:15820   */\n      tag_276\n        /* \"#utility.yul\":15815:15819   */\n      dup2\n        /* \"#utility.yul\":15806:15812   */\n      dup5\n        /* \"#utility.yul\":15742:15820   */\n      tag_189\n      jump\t// in\n    tag_276:\n        /* \"#utility.yul\":15734:15820   */\n      swap1\n      pop\n        /* \"#utility.yul\":15867:15876   */\n      dup2\n        /* \"#utility.yul\":15861:15865   */\n      dup2\n        /* \"#utility.yul\":15857:15877   */\n      sub\n        /* \"#utility.yul\":15852:15854   */\n      0x60\n        /* \"#utility.yul\":15841:15850   */\n      dup4\n        /* \"#utility.yul\":15837:15855   */\n      add\n        /* \"#utility.yul\":15830:15878   */\n      mstore\n        /* \"#utility.yul\":15895:16026   */\n      tag_277\n        /* \"#utility.yul\":16021:16025   */\n      dup2\n        /* \"#utility.yul\":15895:16026   */\n      tag_224\n      jump\t// in\n    tag_277:\n        /* \"#utility.yul\":15887:16026   */\n      swap1\n      pop\n        /* \"#utility.yul\":15192:16033   */\n      swap5\n      swap4\n      pop\n      pop\n      pop\n      pop\n      jump\t// out\n        /* \"#utility.yul\":16039:16880   */\n    tag_59:\n        /* \"#utility.yul\":16309:16313   */\n      0x00\n        /* \"#utility.yul\":16347:16350   */\n      0x80\n        /* \"#utility.yul\":16336:16345   */\n      dup3\n        /* \"#utility.yul\":16332:16351   */\n      add\n        /* \"#utility.yul\":16324:16351   */\n      swap1\n      pop\n        /* \"#utility.yul\":16361:16432   */\n      tag_279\n        /* \"#utility.yul\":16429:16430   */\n      0x00\n        /* \"#utility.yul\":16418:16427   */\n      dup4\n        /* \"#utility.yul\":16414:16431   */\n      add\n        /* \"#utility.yul\":16405:16411   */\n      dup7\n        /* \"#utility.yul\":16361:16432   */\n      tag_177\n      jump\t// in\n    tag_279:\n        /* \"#utility.yul\":16442:16514   */\n      tag_280\n        /* \"#utility.yul\":16510:16512   */\n      0x20\n        /* \"#utility.yul\":16499:16508   */\n      dup4\n        /* \"#utility.yul\":16495:16513   */\n      add\n        /* \"#utility.yul\":16486:16492   */\n      dup6\n        /* \"#utility.yul\":16442:16514   */\n      tag_177\n      jump\t// in\n    tag_280:\n        /* \"#utility.yul\":16561:16570   */\n      dup2\n        /* \"#utility.yul\":16555:16559   */\n      dup2\n        /* \"#utility.yul\":16551:16571   */\n      sub\n        /* \"#utility.yul\":16546:16548   */\n      0x40\n        /* \"#utility.yul\":16535:16544   */\n      dup4\n        /* \"#utility.yul\":16531:16549   */\n      add\n        /* \"#utility.yul\":16524:16572   */\n      mstore\n        /* \"#utility.yul\":16589:16667   */\n      tag_281\n        /* \"#utility.yul\":16662:16666   */\n      dup2\n        /* \"#utility.yul\":16653:16659   */\n      dup5\n        /* \"#utility.yul\":16589:16667   */\n      tag_189\n      jump\t// in\n    tag_281:\n        /* \"#utility.yul\":16581:16667   */\n      swap1\n      pop\n        /* \"#utility.yul\":16714:16723   */\n      dup2\n        /* \"#utility.yul\":16708:16712   */\n      dup2\n        /* \"#utility.yul\":16704:16724   */\n      sub\n        /* \"#utility.yul\":16699:16701   */\n      0x60\n        /* \"#utility.yul\":16688:16697   */\n      dup4\n        /* \"#utility.yul\":16684:16702   */\n      add\n        /* \"#utility.yul\":16677:16725   */\n      mstore\n        /* \"#utility.yul\":16742:16873   */\n      tag_282\n        /* \"#utility.yul\":16868:16872   */\n      dup2\n        /* \"#utility.yul\":16742:16873   */\n      tag_239\n      jump\t// in\n    tag_282:\n        /* \"#utility.yul\":16734:16873   */\n      swap1\n      pop\n        /* \"#utility.yul\":16039:16880   */\n      swap5\n      swap4\n      pop\n      pop\n      pop\n      pop\n      jump\t// out\n        /* \"#utility.yul\":16886:17096   */\n    tag_13:\n        /* \"#utility.yul\":16973:16977   */\n      0x00\n        /* \"#utility.yul\":17011:17013   */\n      0x20\n        /* \"#utility.yul\":17000:17009   */\n      dup3\n        /* \"#utility.yul\":16996:17014   */\n      add\n        /* \"#utility.yul\":16988:17014   */\n      swap1\n      pop\n        /* \"#utility.yul\":17024:17089   */\n      tag_284\n        /* \"#utility.yul\":17086:17087   */\n      0x00\n        /* \"#utility.yul\":17075:17084   */\n      dup4\n        /* \"#utility.yul\":17071:17088   */\n      add\n        /* \"#utility.yul\":17062:17068   */\n      dup5\n        /* \"#utility.yul\":17024:17089   */\n      tag_181\n      jump\t// in\n    tag_284:\n        /* \"#utility.yul\":16886:17096   */\n      swap3\n      swap2\n      pop\n      pop\n      jump\t// out\n        /* \"#utility.yul\":17102:17320   */\n    tag_32:\n        /* \"#utility.yul\":17193:17197   */\n      0x00\n        /* \"#utility.yul\":17231:17233   */\n      0x20\n        /* \"#utility.yul\":17220:17229   */\n      dup3\n        /* \"#utility.yul\":17216:17234   */\n      add\n        /* \"#utility.yul\":17208:17234   */\n      swap1\n      pop\n        /* \"#utility.yul\":17244:17313   */\n      tag_286\n        /* \"#utility.yul\":17310:17311   */\n      0x00\n        /* \"#utility.yul\":17299:17308   */\n      dup4\n        /* \"#utility.yul\":17295:17312   */\n      add\n        /* \"#utility.yul\":17286:17292   */\n      dup5\n        /* \"#utility.yul\":17244:17313   */\n      tag_185\n      jump\t// in\n    tag_286:\n        /* \"#utility.yul\":17102:17320   */\n      swap3\n      swap2\n      pop\n      pop\n      jump\t// out\n        /* \"#utility.yul\":17326:17840   */\n    tag_27:\n        /* \"#utility.yul\":17487:17491   */\n      0x00\n        /* \"#utility.yul\":17525:17527   */\n      0x40\n        /* \"#utility.yul\":17514:17523   */\n      dup3\n        /* \"#utility.yul\":17510:17528   */\n      add\n        /* \"#utility.yul\":17502:17528   */\n      swap1\n      pop\n        /* \"#utility.yul\":17574:17583   */\n      dup2\n        /* \"#utility.yul\":17568:17572   */\n      dup2\n        /* \"#utility.yul\":17564:17584   */\n      sub\n        /* \"#utility.yul\":17560:17561   */\n      0x00\n        /* \"#utility.yul\":17549:17558   */\n      dup4\n        /* \"#utility.yul\":17545:17562   */\n      add\n        /* \"#utility.yul\":17538:17585   */\n      mstore\n        /* \"#utility.yul\":17602:17680   */\n      tag_288\n        /* \"#utility.yul\":17675:17679   */\n      dup2\n        /* \"#utility.yul\":17666:17672   */\n      dup6\n        /* \"#utility.yul\":17602:17680   */\n      tag_189\n      jump\t// in\n    tag_288:\n        /* \"#utility.yul\":17594:17680   */\n      swap1\n      pop\n        /* \"#utility.yul\":17727:17736   */\n      dup2\n        /* \"#utility.yul\":17721:17725   */\n      dup2\n        /* \"#utility.yul\":17717:17737   */\n      sub\n        /* \"#utility.yul\":17712:17714   */\n      0x20\n        /* \"#utility.yul\":17701:17710   */\n      dup4\n        /* \"#utility.yul\":17697:17715   */\n      add\n        /* \"#utility.yul\":17690:17738   */\n      mstore\n        /* \"#utility.yul\":17755:17833   */\n      tag_289\n        /* \"#utility.yul\":17828:17832   */\n      dup2\n        /* \"#utility.yul\":17819:17825   */\n      dup5\n        /* \"#utility.yul\":17755:17833   */\n      tag_189\n      jump\t// in\n    tag_289:\n        /* \"#utility.yul\":17747:17833   */\n      swap1\n      pop\n        /* \"#utility.yul\":17326:17840   */\n      swap4\n      swap3\n      pop\n      pop\n      pop\n      jump\t// out\n        /* \"#utility.yul\":17846:17975   */\n    tag_91:\n        /* \"#utility.yul\":17880:17886   */\n      0x00\n        /* \"#utility.yul\":17907:17927   */\n      tag_291\n      tag_292\n      jump\t// in\n    tag_291:\n        /* \"#utility.yul\":17897:17927   */\n      swap1\n      pop\n        /* \"#utility.yul\":17936:17969   */\n      tag_293\n        /* \"#utility.yul\":17964:17968   */\n      dup3\n        /* \"#utility.yul\":17956:17962   */\n      dup3\n        /* \"#utility.yul\":17936:17969   */\n      tag_294\n      jump\t// in\n    tag_293:\n        /* \"#utility.yul\":17846:17975   */\n      swap2\n      swap1\n      pop\n      jump\t// out\n        /* \"#utility.yul\":17981:18056   */\n    tag_292:\n        /* \"#utility.yul\":18014:18020   */\n      0x00\n        /* \"#utility.yul\":18047:18049   */\n      0x40\n        /* \"#utility.yul\":18041:18050   */\n      mload\n        /* \"#utility.yul\":18031:18050   */\n      swap1\n      pop\n        /* \"#utility.yul\":17981:18056   */\n      swap1\n      jump\t// out\n        /* \"#utility.yul\":18062:18370   */\n    tag_90:\n        /* \"#utility.yul\":18124:18128   */\n      0x00\n        /* \"#utility.yul\":18214:18232   */\n      0xffffffffffffffff\n        /* \"#utility.yul\":18206:18212   */\n      dup3\n        /* \"#utility.yul\":18203:18233   */\n      gt\n        /* \"#utility.yul\":18200:18256   */\n      iszero\n      tag_297\n      jumpi\n        /* \"#utility.yul\":18236:18254   */\n      tag_298\n      tag_299\n      jump\t// in\n    tag_298:\n        /* \"#utility.yul\":18200:18256   */\n    tag_297:\n        /* \"#utility.yul\":18274:18303   */\n      tag_300\n        /* \"#utility.yul\":18296:18302   */\n      dup3\n        /* \"#utility.yul\":18274:18303   */\n      tag_197\n      jump\t// in\n    tag_300:\n        /* \"#utility.yul\":18266:18303   */\n      swap1\n      pop\n        /* \"#utility.yul\":18358:18362   */\n      0x20\n        /* \"#utility.yul\":18352:18356   */\n      dup2\n        /* \"#utility.yul\":18348:18363   */\n      add\n        /* \"#utility.yul\":18340:18363   */\n      swap1\n      pop\n        /* \"#utility.yul\":18062:18370   */\n      swap2\n      swap1\n      pop\n      jump\t// out\n        /* \"#utility.yul\":18376:18475   */\n    tag_192:\n        /* \"#utility.yul\":18428:18434   */\n      0x00\n        /* \"#utility.yul\":18462:18467   */\n      dup2\n        /* \"#utility.yul\":18456:18468   */\n      mload\n        /* \"#utility.yul\":18446:18468   */\n      swap1\n      pop\n        /* \"#utility.yul\":18376:18475   */\n      swap2\n      swap1\n      pop\n      jump\t// out\n        /* \"#utility.yul\":18481:18650   */\n    tag_194:\n        /* \"#utility.yul\":18565:18576   */\n      0x00\n        /* \"#utility.yul\":18599:18605   */\n      dup3\n        /* \"#utility.yul\":18594:18597   */\n      dup3\n        /* \"#utility.yul\":18587:18606   */\n      mstore\n        /* \"#utility.yul\":18639:18643   */\n      0x20\n        /* \"#utility.yul\":18634:18637   */\n      dup3\n        /* \"#utility.yul\":18630:18644   */\n      add\n        /* \"#utility.yul\":18615:18644   */\n      swap1\n      pop\n        /* \"#utility.yul\":18481:18650   */\n      swap3\n      swap2\n      pop\n      pop\n      jump\t// out\n        /* \"#utility.yul\":18656:18804   */\n    tag_202:\n        /* \"#utility.yul\":18758:18769   */\n      0x00\n        /* \"#utility.yul\":18795:18798   */\n      dup2\n        /* \"#utility.yul\":18780:18798   */\n      swap1\n      pop\n        /* \"#utility.yul\":18656:18804   */\n      swap3\n      swap2\n      pop\n      pop\n      jump\t// out\n        /* \"#utility.yul\":18810:18906   */\n    tag_180:\n        /* \"#utility.yul\":18847:18854   */\n      0x00\n        /* \"#utility.yul\":18876:18900   */\n      tag_305\n        /* \"#utility.yul\":18894:18899   */\n      dup3\n        /* \"#utility.yul\":18876:18900   */\n      tag_306\n      jump\t// in\n    tag_305:\n        /* \"#utility.yul\":18865:18900   */\n      swap1\n      pop\n        /* \"#utility.yul\":18810:18906   */\n      swap2\n      swap1\n      pop\n      jump\t// out\n        /* \"#utility.yul\":18912:19002   */\n    tag_184:\n        /* \"#utility.yul\":18946:18953   */\n      0x00\n        /* \"#utility.yul\":18989:18994   */\n      dup2\n        /* \"#utility.yul\":18982:18995   */\n      iszero\n        /* \"#utility.yul\":18975:18996   */\n      iszero\n        /* \"#utility.yul\":18964:18996   */\n      swap1\n      pop\n        /* \"#utility.yul\":18912:19002   */\n      swap2\n      swap1\n      pop\n      jump\t// out\n        /* \"#utility.yul\":19008:19084   */\n    tag_188:\n        /* \"#utility.yul\":19044:19051   */\n      0x00\n        /* \"#utility.yul\":19073:19078   */\n      dup2\n        /* \"#utility.yul\":19062:19078   */\n      swap1\n      pop\n        /* \"#utility.yul\":19008:19084   */\n      swap2\n      swap1\n      pop\n      jump\t// out\n        /* \"#utility.yul\":19090:19216   */\n    tag_306:\n        /* \"#utility.yul\":19127:19134   */\n      0x00\n        /* \"#utility.yul\":19167:19209   */\n      0xffffffffffffffffffffffffffffffffffffffff\n        /* \"#utility.yul\":19160:19165   */\n      dup3\n        /* \"#utility.yul\":19156:19210   */\n      and\n        /* \"#utility.yul\":19145:19210   */\n      swap1\n      pop\n        /* \"#utility.yul\":19090:19216   */\n      swap2\n      swap1\n      pop\n      jump\t// out\n        /* \"#utility.yul\":19222:19376   */\n    tag_96:\n        /* \"#utility.yul\":19306:19312   */\n      dup3\n        /* \"#utility.yul\":19301:19304   */\n      dup2\n        /* \"#utility.yul\":19296:19299   */\n      dup4\n        /* \"#utility.yul\":19283:19313   */\n      calldatacopy\n        /* \"#utility.yul\":19368:19369   */\n      0x00\n        /* \"#utility.yul\":19359:19365   */\n      dup4\n        /* \"#utility.yul\":19354:19357   */\n      dup4\n        /* \"#utility.yul\":19350:19366   */\n      add\n        /* \"#utility.yul\":19343:19370   */\n      mstore\n        /* \"#utility.yul\":19222:19376   */\n      pop\n      pop\n      pop\n      jump\t// out\n        /* \"#utility.yul\":19382:19689   */\n    tag_104:\n        /* \"#utility.yul\":19450:19451   */\n      0x00\n        /* \"#utility.yul\":19460:19573   */\n    tag_312:\n        /* \"#utility.yul\":19474:19480   */\n      dup4\n        /* \"#utility.yul\":19471:19472   */\n      dup2\n        /* \"#utility.yul\":19468:19481   */\n      lt\n        /* \"#utility.yul\":19460:19573   */\n      iszero\n      tag_314\n      jumpi\n        /* \"#utility.yul\":19559:19560   */\n      dup1\n        /* \"#utility.yul\":19554:19557   */\n      dup3\n        /* \"#utility.yul\":19550:19561   */\n      add\n        /* \"#utility.yul\":19544:19562   */\n      mload\n        /* \"#utility.yul\":19540:19541   */\n      dup2\n        /* \"#utility.yul\":19535:19538   */\n      dup5\n        /* \"#utility.yul\":19531:19542   */\n      add\n        /* \"#utility.yul\":19524:19563   */\n      mstore\n        /* \"#utility.yul\":19496:19498   */\n      0x20\n        /* \"#utility.yul\":19493:19494   */\n      dup2\n        /* \"#utility.yul\":19489:19499   */\n      add\n        /* \"#utility.yul\":19484:19499   */\n      swap1\n      pop\n        /* \"#utility.yul\":19460:19573   */\n      jump(tag_312)\n    tag_314:\n        /* \"#utility.yul\":19591:19597   */\n      dup4\n        /* \"#utility.yul\":19588:19589   */\n      dup2\n        /* \"#utility.yul\":19585:19598   */\n      gt\n        /* \"#utility.yul\":19582:19683   */\n      iszero\n      tag_315\n      jumpi\n        /* \"#utility.yul\":19671:19672   */\n      0x00\n        /* \"#utility.yul\":19662:19668   */\n      dup5\n        /* \"#utility.yul\":19657:19660   */\n      dup5\n        /* \"#utility.yul\":19653:19669   */\n      add\n        /* \"#utility.yul\":19646:19673   */\n      mstore\n        /* \"#utility.yul\":19582:19683   */\n    tag_315:\n        /* \"#utility.yul\":19431:19689   */\n      pop\n        /* \"#utility.yul\":19382:19689   */\n      pop\n      pop\n      pop\n      jump\t// out\n        /* \"#utility.yul\":19695:19976   */\n    tag_294:\n        /* \"#utility.yul\":19778:19805   */\n      tag_317\n        /* \"#utility.yul\":19800:19804   */\n      dup3\n        /* \"#utility.yul\":19778:19805   */\n      tag_197\n      jump\t// in\n    tag_317:\n        /* \"#utility.yul\":19770:19776   */\n      dup2\n        /* \"#utility.yul\":19766:19806   */\n      add\n        /* \"#utility.yul\":19908:19914   */\n      dup2\n        /* \"#utility.yul\":19896:19906   */\n      dup2\n        /* \"#utility.yul\":19893:19915   */\n      lt\n        /* \"#utility.yul\":19872:19890   */\n      0xffffffffffffffff\n        /* \"#utility.yul\":19860:19870   */\n      dup3\n        /* \"#utility.yul\":19857:19891   */\n      gt\n        /* \"#utility.yul\":19854:19916   */\n      or\n        /* \"#utility.yul\":19851:19939   */\n      iszero\n      tag_318\n      jumpi\n        /* \"#utility.yul\":19919:19937   */\n      tag_319\n      tag_299\n      jump\t// in\n    tag_319:\n        /* \"#utility.yul\":19851:19939   */\n    tag_318:\n        /* \"#utility.yul\":19959:19969   */\n      dup1\n        /* \"#utility.yul\":19955:19957   */\n      0x40\n        /* \"#utility.yul\":19948:19970   */\n      mstore\n        /* \"#utility.yul\":19738:19976   */\n      pop\n        /* \"#utility.yul\":19695:19976   */\n      pop\n      pop\n      jump\t// out\n        /* \"#utility.yul\":19982:20162   */\n    tag_299:\n        /* \"#utility.yul\":20030:20107   */\n      0x4e487b7100000000000000000000000000000000000000000000000000000000\n        /* \"#utility.yul\":20027:20028   */\n      0x00\n        /* \"#utility.yul\":20020:20108   */\n      mstore\n        /* \"#utility.yul\":20127:20131   */\n      0x41\n        /* \"#utility.yul\":20124:20125   */\n      0x04\n        /* \"#utility.yul\":20117:20132   */\n      mstore\n        /* \"#utility.yul\":20151:20155   */\n      0x24\n        /* \"#utility.yul\":20148:20149   */\n      0x00\n        /* \"#utility.yul\":20141:20156   */\n      revert\n        /* \"#utility.yul\":20168:20285   */\n    tag_116:\n        /* \"#utility.yul\":20277:20278   */\n      0x00\n        /* \"#utility.yul\":20274:20275   */\n      dup1\n        /* \"#utility.yul\":20267:20279   */\n      revert\n        /* \"#utility.yul\":20291:20408   */\n    tag_127:\n        /* \"#utility.yul\":20400:20401   */\n      0x00\n        /* \"#utility.yul\":20397:20398   */\n      dup1\n        /* \"#utility.yul\":20390:20402   */\n      revert\n        /* \"#utility.yul\":20414:20531   */\n    tag_132:\n        /* \"#utility.yul\":20523:20524   */\n      0x00\n        /* \"#utility.yul\":20520:20521   */\n      dup1\n        /* \"#utility.yul\":20513:20525   */\n      revert\n        /* \"#utility.yul\":20537:20654   */\n    tag_94:\n        /* \"#utility.yul\":20646:20647   */\n      0x00\n        /* \"#utility.yul\":20643:20644   */\n      dup1\n        /* \"#utility.yul\":20636:20648   */\n      revert\n        /* \"#utility.yul\":20660:20777   */\n    tag_148:\n        /* \"#utility.yul\":20769:20770   */\n      0x00\n        /* \"#utility.yul\":20766:20767   */\n      dup1\n        /* \"#utility.yul\":20759:20771   */\n      revert\n        /* \"#utility.yul\":20783:20900   */\n    tag_140:\n        /* \"#utility.yul\":20892:20893   */\n      0x00\n        /* \"#utility.yul\":20889:20890   */\n      dup1\n        /* \"#utility.yul\":20882:20894   */\n      revert\n        /* \"#utility.yul\":20906:21008   */\n    tag_197:\n        /* \"#utility.yul\":20947:20953   */\n      0x00\n        /* \"#utility.yul\":20998:21000   */\n      0x1f\n        /* \"#utility.yul\":20994:21001   */\n      not\n        /* \"#utility.yul\":20989:20991   */\n      0x1f\n        /* \"#utility.yul\":20982:20987   */\n      dup4\n        /* \"#utility.yul\":20978:20992   */\n      add\n        /* \"#utility.yul\":20974:21002   */\n      and\n        /* \"#utility.yul\":20964:21002   */\n      swap1\n      pop\n        /* \"#utility.yul\":20906:21008   */\n      swap2\n      swap1\n      pop\n      jump\t// out\n        /* \"#utility.yul\":21014:21169   */\n    tag_208:\n        /* \"#utility.yul\":21154:21161   */\n      0x636c6f7365000000000000000000000000000000000000000000000000000000\n        /* \"#utility.yul\":21150:21151   */\n      0x00\n        /* \"#utility.yul\":21142:21148   */\n      dup3\n        /* \"#utility.yul\":21138:21152   */\n      add\n        /* \"#utility.yul\":21131:21162   */\n      mstore\n        /* \"#utility.yul\":21014:21169   */\n      pop\n      jump\t// out\n        /* \"#utility.yul\":21175:21332   */\n    tag_213:\n        /* \"#utility.yul\":21315:21324   */\n      0x322e322e322e3200000000000000000000000000000000000000000000000000\n        /* \"#utility.yul\":21311:21312   */\n      0x00\n        /* \"#utility.yul\":21303:21309   */\n      dup3\n        /* \"#utility.yul\":21299:21313   */\n      add\n        /* \"#utility.yul\":21292:21325   */\n      mstore\n        /* \"#utility.yul\":21175:21332   */\n      pop\n      jump\t// out\n        /* \"#utility.yul\":21338:21500   */\n    tag_218:\n        /* \"#utility.yul\":21478:21492   */\n      0x4163636573732070617373210000000000000000000000000000000000000000\n        /* \"#utility.yul\":21474:21475   */\n      0x00\n        /* \"#utility.yul\":21466:21472   */\n      dup3\n        /* \"#utility.yul\":21462:21476   */\n      add\n        /* \"#utility.yul\":21455:21493   */\n      mstore\n        /* \"#utility.yul\":21338:21500   */\n      pop\n      jump\t// out\n        /* \"#utility.yul\":21506:21663   */\n    tag_223:\n        /* \"#utility.yul\":21646:21655   */\n      0x7265737461727400000000000000000000000000000000000000000000000000\n        /* \"#utility.yul\":21642:21643   */\n      0x00\n        /* \"#utility.yul\":21634:21640   */\n      dup3\n        /* \"#utility.yul\":21630:21644   */\n      add\n        /* \"#utility.yul\":21623:21656   */\n      mstore\n        /* \"#utility.yul\":21506:21663   */\n      pop\n      jump\t// out\n        /* \"#utility.yul\":21669:21838   */\n    tag_228:\n        /* \"#utility.yul\":21809:21830   */\n      0x496c6c6567616c20495020616464726573732100000000000000000000000000\n        /* \"#utility.yul\":21805:21806   */\n      0x00\n        /* \"#utility.yul\":21797:21803   */\n      dup3\n        /* \"#utility.yul\":21793:21807   */\n      add\n        /* \"#utility.yul\":21786:21831   */\n      mstore\n        /* \"#utility.yul\":21669:21838   */\n      pop\n      jump\t// out\n        /* \"#utility.yul\":21844:21998   */\n    tag_233:\n        /* \"#utility.yul\":21984:21990   */\n      0x6b696c6c00000000000000000000000000000000000000000000000000000000\n        /* \"#utility.yul\":21980:21981   */\n      0x00\n        /* \"#utility.yul\":21972:21978   */\n      dup3\n        /* \"#utility.yul\":21968:21982   */\n      add\n        /* \"#utility.yul\":21961:21991   */\n      mstore\n        /* \"#utility.yul\":21844:21998   */\n      pop\n      jump\t// out\n        /* \"#utility.yul\":22004:22158   */\n    tag_238:\n        /* \"#utility.yul\":22144:22150   */\n      0x6f70656e00000000000000000000000000000000000000000000000000000000\n        /* \"#utility.yul\":22140:22141   */\n      0x00\n        /* \"#utility.yul\":22132:22138   */\n      dup3\n        /* \"#utility.yul\":22128:22142   */\n      add\n        /* \"#utility.yul\":22121:22151   */\n      mstore\n        /* \"#utility.yul\":22004:22158   */\n      pop\n      jump\t// out\n        /* \"#utility.yul\":22164:22334   */\n    tag_243:\n        /* \"#utility.yul\":22304:22326   */\n      0x556e617574686f72697a65642061636365737321000000000000000000000000\n        /* \"#utility.yul\":22300:22301   */\n      0x00\n        /* \"#utility.yul\":22292:22298   */\n      dup3\n        /* \"#utility.yul\":22288:22302   */\n      add\n        /* \"#utility.yul\":22281:22327   */\n      mstore\n        /* \"#utility.yul\":22164:22334   */\n      pop\n      jump\t// out\n        /* \"#utility.yul\":22340:22494   */\n    tag_248:\n        /* \"#utility.yul\":22480:22486   */\n      0x7265616400000000000000000000000000000000000000000000000000000000\n        /* \"#utility.yul\":22476:22477   */\n      0x00\n        /* \"#utility.yul\":22468:22474   */\n      dup3\n        /* \"#utility.yul\":22464:22478   */\n      add\n        /* \"#utility.yul\":22457:22487   */\n      mstore\n        /* \"#utility.yul\":22340:22494   */\n      pop\n      jump\t// out\n        /* \"#utility.yul\":22500:22622   */\n    tag_108:\n        /* \"#utility.yul\":22573:22597   */\n      tag_338\n        /* \"#utility.yul\":22591:22596   */\n      dup2\n        /* \"#utility.yul\":22573:22597   */\n      tag_180\n      jump\t// in\n    tag_338:\n        /* \"#utility.yul\":22566:22571   */\n      dup2\n        /* \"#utility.yul\":22563:22598   */\n      eq\n        /* \"#utility.yul\":22553:22616   */\n      tag_339\n      jumpi\n        /* \"#utility.yul\":22612:22613   */\n      0x00\n        /* \"#utility.yul\":22609:22610   */\n      dup1\n        /* \"#utility.yul\":22602:22614   */\n      revert\n        /* \"#utility.yul\":22553:22616   */\n    tag_339:\n        /* \"#utility.yul\":22500:22622   */\n      pop\n      jump\t// out\n\n    auxdata: 0xa26469706673582212202bb2ce12379f23611d31b6cf1cbe0396fd391f2e86c132fe303f389a7213f4a664736f6c63430008070033\n}\n",
				"bytecode": {
					"linkReferences": {},
					"object": "608060405234801561001057600080fd5b506111b9806100206000396000f3fe608060405234801561001057600080fd5b50600436106100575760003560e01c8063136d070e1461005c57806319ab453c1461008c57806332076e77146100a8578063b9ed3ebb146100d8578063d6d0e1e014610109575b600080fd5b61007660048036038101906100719190610907565b610139565b6040516100839190610df8565b60405180910390f35b6100a660048036038101906100a1919061087e565b61016f565b005b6100c260048036038101906100bd91906108ab565b61028f565b6040516100cf9190610df8565b60405180910390f35b6100f260048036038101906100ed919061087e565b61053a565b604051610100929190610e2e565b60405180910390f35b610123600480360381019061011e9190610907565b6106aa565b6040516101309190610e13565b60405180910390f35b6002818051602081018201805184825260208301602085012081835280955050505050506000915054906101000a900460ff1681565b806000806101000a81548173ffffffffffffffffffffffffffffffffffffffff021916908373ffffffffffffffffffffffffffffffffffffffff160217905550600060016040516101bf90610cac565b9081526020016040518091039020819055506001806040516101e090610c97565b90815260200160405180910390208190555060018060405161020190610c43565b9081526020016040518091039020819055506002600160405161022390610c6d565b9081526020016040518091039020819055506002600160405161024590610c82565b9081526020016040518091039020819055506001600260405161026790610c58565b908152602001604051809103902060006101000a81548160ff02191690831515021790555050565b60008060008054906101000a900473ffffffffffffffffffffffffffffffffffffffff1673ffffffffffffffffffffffffffffffffffffffff16638749774f33866040518363ffffffff1660e01b81526004016102ed929190610cdc565b60006040518083038186803b15801561030557600080fd5b505afa158015610319573d6000803e3d6000fd5b505050506040513d6000823e3d601f19601f820116820180604052508101906103429190610950565b90506001816040516103549190610c2c565b9081526020016040518091039020546001846040516103739190610c2c565b90815260200160405180910390205412156103c8577f4393de65ee68a32d7987583b1f2c6e6aa80df7d9ad5c0661660d70dff18b9d6d3385856040516103bb93929190610da7565b60405180910390a1600091505b60608060008054906101000a900473ffffffffffffffffffffffffffffffffffffffff1673ffffffffffffffffffffffffffffffffffffffff16639f764d16336040518263ffffffff1660e01b81526004016104249190610cc1565b60006040518083038186803b15801561043c57600080fd5b505afa158015610450573d6000803e3d6000fd5b505050506040513d6000823e3d601f19601f820116820180604052508101906104799190610999565b80925081935050506002816040516104919190610c2c565b908152602001604051809103902060009054906101000a900460ff16156104f2577f4393de65ee68a32d7987583b1f2c6e6aa80df7d9ad5c0661660d70dff18b9d6d3387876040516104e593929190610d56565b60405180910390a1600093505b7f4393de65ee68a32d7987583b1f2c6e6aa80df7d9ad5c0661660d70dff18b9d6d33878760405161052593929190610d05565b60405180910390a16001935050505092915050565b60608060008054906101000a900473ffffffffffffffffffffffffffffffffffffffff1673ffffffffffffffffffffffffffffffffffffffff1663de1e23b7846040518263ffffffff1660e01b81526004016105969190610cc1565b60006040518083038186803b1580156105ae57600080fd5b505afa1580156105c2573d6000803e3d6000fd5b505050506040513d6000823e3d601f19601f820116820180604052508101906105eb9190610a11565b60200151915060008054906101000a900473ffffffffffffffffffffffffffffffffffffffff1673ffffffffffffffffffffffffffffffffffffffff1663de1e23b7846040518263ffffffff1660e01b815260040161064a9190610cc1565b60006040518083038186803b15801561066257600080fd5b505afa158015610676573d6000803e3d6000fd5b505050506040513d6000823e3d601f19601f8201168201806040525081019061069f9190610a11565b604001519050915091565b6001818051602081018201805184825260208301602085012081835280955050505050506000915090505481565b60006106eb6106e684610e8a565b610e65565b90508281526020810184848401111561070757610706610fdb565b5b610712848285610f2a565b509392505050565b600061072d61072884610e8a565b610e65565b90508281526020810184848401111561074957610748610fdb565b5b610754848285610f39565b509392505050565b60008135905061076b8161116c565b92915050565b6000815190506107808161116c565b92915050565b600082601f83011261079b5761079a610fcc565b5b81356107ab8482602086016106d8565b91505092915050565b600082601f8301126107c9576107c8610fcc565b5b81516107d984826020860161071a565b91505092915050565b6000606082840312156107f8576107f7610fd1565b5b6108026060610e65565b9050600061081284828501610771565b600083015250602082015167ffffffffffffffff81111561083657610835610fd6565b5b610842848285016107b4565b602083015250604082015167ffffffffffffffff81111561086657610865610fd6565b5b610872848285016107b4565b60408301525092915050565b60006020828403121561089457610893610fe5565b5b60006108a28482850161075c565b91505092915050565b600080604083850312156108c2576108c1610fe5565b5b60006108d08582860161075c565b925050602083013567ffffffffffffffff8111156108f1576108f0610fe0565b5b6108fd85828601610786565b9150509250929050565b60006020828403121561091d5761091c610fe5565b5b600082013567ffffffffffffffff81111561093b5761093a610fe0565b5b61094784828501610786565b91505092915050565b60006020828403121561096657610965610fe5565b5b600082015167ffffffffffffffff81111561098457610983610fe0565b5b610990848285016107b4565b91505092915050565b600080604083850312156109b0576109af610fe5565b5b600083015167ffffffffffffffff8111156109ce576109cd610fe0565b5b6109da858286016107b4565b925050602083015167ffffffffffffffff8111156109fb576109fa610fe0565b5b610a07858286016107b4565b9150509250929050565b600060208284031215610a2757610a26610fe5565b5b600082015167ffffffffffffffff811115610a4557610a44610fe0565b5b610a51848285016107e2565b91505092915050565b610a6381610ee2565b82525050565b610a7281610ef4565b82525050565b610a8181610f00565b82525050565b6000610a9282610ebb565b610a9c8185610ec6565b9350610aac818560208601610f39565b610ab581610fea565b840191505092915050565b6000610acb82610ebb565b610ad58185610ed7565b9350610ae5818560208601610f39565b80840191505092915050565b6000610afe600583610ed7565b9150610b0982610ffb565b600582019050919050565b6000610b21600783610ed7565b9150610b2c82611024565b600782019050919050565b6000610b44600c83610ec6565b9150610b4f8261104d565b602082019050919050565b6000610b67600783610ed7565b9150610b7282611076565b600782019050919050565b6000610b8a601383610ec6565b9150610b958261109f565b602082019050919050565b6000610bad600483610ed7565b9150610bb8826110c8565b600482019050919050565b6000610bd0600483610ed7565b9150610bdb826110f1565b600482019050919050565b6000610bf3601483610ec6565b9150610bfe8261111a565b602082019050919050565b6000610c16600483610ed7565b9150610c2182611143565b600482019050919050565b6000610c388284610ac0565b915081905092915050565b6000610c4e82610af1565b9150819050919050565b6000610c6382610b14565b9150819050919050565b6000610c7882610b5a565b9150819050919050565b6000610c8d82610ba0565b9150819050919050565b6000610ca282610bc3565b9150819050919050565b6000610cb782610c09565b9150819050919050565b6000602082019050610cd66000830184610a5a565b92915050565b6000604082019050610cf16000830185610a5a565b610cfe6020830184610a5a565b9392505050565b6000608082019050610d1a6000830186610a5a565b610d276020830185610a5a565b8181036040830152610d398184610a87565b90508181036060830152610d4c81610b37565b9050949350505050565b6000608082019050610d6b6000830186610a5a565b610d786020830185610a5a565b8181036040830152610d8a8184610a87565b90508181036060830152610d9d81610b7d565b9050949350505050565b6000608082019050610dbc6000830186610a5a565b610dc96020830185610a5a565b8181036040830152610ddb8184610a87565b90508181036060830152610dee81610be6565b9050949350505050565b6000602082019050610e0d6000830184610a69565b92915050565b6000602082019050610e286000830184610a78565b92915050565b60006040820190508181036000830152610e488185610a87565b90508181036020830152610e5c8184610a87565b90509392505050565b6000610e6f610e80565b9050610e7b8282610f6c565b919050565b6000604051905090565b600067ffffffffffffffff821115610ea557610ea4610f9d565b5b610eae82610fea565b9050602081019050919050565b600081519050919050565b600082825260208201905092915050565b600081905092915050565b6000610eed82610f0a565b9050919050565b60008115159050919050565b6000819050919050565b600073ffffffffffffffffffffffffffffffffffffffff82169050919050565b82818337600083830152505050565b60005b83811015610f57578082015181840152602081019050610f3c565b83811115610f66576000848401525b50505050565b610f7582610fea565b810181811067ffffffffffffffff82111715610f9457610f93610f9d565b5b80604052505050565b7f4e487b7100000000000000000000000000000000000000000000000000000000600052604160045260246000fd5b600080fd5b600080fd5b600080fd5b600080fd5b600080fd5b600080fd5b6000601f19601f8301169050919050565b7f636c6f7365000000000000000000000000000000000000000000000000000000600082015250565b7f322e322e322e3200000000000000000000000000000000000000000000000000600082015250565b7f4163636573732070617373210000000000000000000000000000000000000000600082015250565b7f7265737461727400000000000000000000000000000000000000000000000000600082015250565b7f496c6c6567616c20495020616464726573732100000000000000000000000000600082015250565b7f6b696c6c00000000000000000000000000000000000000000000000000000000600082015250565b7f6f70656e00000000000000000000000000000000000000000000000000000000600082015250565b7f556e617574686f72697a65642061636365737321000000000000000000000000600082015250565b7f7265616400000000000000000000000000000000000000000000000000000000600082015250565b61117581610ee2565b811461118057600080fd5b5056fea26469706673582212202bb2ce12379f23611d31b6cf1cbe0396fd391f2e86c132fe303f389a7213f4a664736f6c63430008070033",
					"opcodes": "PUSH1 0x80 PUSH1 0x40 MSTORE CALLVALUE DUP1 ISZERO PUSH2 0x10 JUMPI PUSH1 0x0 DUP1 REVERT JUMPDEST POP PUSH2 0x11B9 DUP1 PUSH2 0x20 PUSH1 0x0 CODECOPY PUSH1 0x0 RETURN INVALID PUSH1 0x80 PUSH1 0x40 MSTORE CALLVALUE DUP1 ISZERO PUSH2 0x10 JUMPI PUSH1 0x0 DUP1 REVERT JUMPDEST POP PUSH1 0x4 CALLDATASIZE LT PUSH2 0x57 JUMPI PUSH1 0x0 CALLDATALOAD PUSH1 0xE0 SHR DUP1 PUSH4 0x136D070E EQ PUSH2 0x5C JUMPI DUP1 PUSH4 0x19AB453C EQ PUSH2 0x8C JUMPI DUP1 PUSH4 0x32076E77 EQ PUSH2 0xA8 JUMPI DUP1 PUSH4 0xB9ED3EBB EQ PUSH2 0xD8 JUMPI DUP1 PUSH4 0xD6D0E1E0 EQ PUSH2 0x109 JUMPI JUMPDEST PUSH1 0x0 DUP1 REVERT JUMPDEST PUSH2 0x76 PUSH1 0x4 DUP1 CALLDATASIZE SUB DUP2 ADD SWAP1 PUSH2 0x71 SWAP2 SWAP1 PUSH2 0x907 JUMP JUMPDEST PUSH2 0x139 JUMP JUMPDEST PUSH1 0x40 MLOAD PUSH2 0x83 SWAP2 SWAP1 PUSH2 0xDF8 JUMP JUMPDEST PUSH1 0x40 MLOAD DUP1 SWAP2 SUB SWAP1 RETURN JUMPDEST PUSH2 0xA6 PUSH1 0x4 DUP1 CALLDATASIZE SUB DUP2 ADD SWAP1 PUSH2 0xA1 SWAP2 SWAP1 PUSH2 0x87E JUMP JUMPDEST PUSH2 0x16F JUMP JUMPDEST STOP JUMPDEST PUSH2 0xC2 PUSH1 0x4 DUP1 CALLDATASIZE SUB DUP2 ADD SWAP1 PUSH2 0xBD SWAP2 SWAP1 PUSH2 0x8AB JUMP JUMPDEST PUSH2 0x28F JUMP JUMPDEST PUSH1 0x40 MLOAD PUSH2 0xCF SWAP2 SWAP1 PUSH2 0xDF8 JUMP JUMPDEST PUSH1 0x40 MLOAD DUP1 SWAP2 SUB SWAP1 RETURN JUMPDEST PUSH2 0xF2 PUSH1 0x4 DUP1 CALLDATASIZE SUB DUP2 ADD SWAP1 PUSH2 0xED SWAP2 SWAP1 PUSH2 0x87E JUMP JUMPDEST PUSH2 0x53A JUMP JUMPDEST PUSH1 0x40 MLOAD PUSH2 0x100 SWAP3 SWAP2 SWAP1 PUSH2 0xE2E JUMP JUMPDEST PUSH1 0x40 MLOAD DUP1 SWAP2 SUB SWAP1 RETURN JUMPDEST PUSH2 0x123 PUSH1 0x4 DUP1 CALLDATASIZE SUB DUP2 ADD SWAP1 PUSH2 0x11E SWAP2 SWAP1 PUSH2 0x907 JUMP JUMPDEST PUSH2 0x6AA JUMP JUMPDEST PUSH1 0x40 MLOAD PUSH2 0x130 SWAP2 SWAP1 PUSH2 0xE13 JUMP JUMPDEST PUSH1 0x40 MLOAD DUP1 SWAP2 SUB SWAP1 RETURN JUMPDEST PUSH1 0x2 DUP2 DUP1 MLOAD PUSH1 0x20 DUP2 ADD DUP3 ADD DUP1 MLOAD DUP5 DUP3 MSTORE PUSH1 0x20 DUP4 ADD PUSH1 0x20 DUP6 ADD KECCAK256 DUP2 DUP4 MSTORE DUP1 SWAP6 POP POP POP POP POP POP PUSH1 0x0 SWAP2 POP SLOAD SWAP1 PUSH2 0x100 EXP SWAP1 DIV PUSH1 0xFF AND DUP2 JUMP JUMPDEST DUP1 PUSH1 0x0 DUP1 PUSH2 0x100 EXP DUP2 SLOAD DUP2 PUSH20 0xFFFFFFFFFFFFFFFFFFFFFFFFFFFFFFFFFFFFFFFF MUL NOT AND SWAP1 DUP4 PUSH20 0xFFFFFFFFFFFFFFFFFFFFFFFFFFFFFFFFFFFFFFFF AND MUL OR SWAP1 SSTORE POP PUSH1 0x0 PUSH1 0x1 PUSH1 0x40 MLOAD PUSH2 0x1BF SWAP1 PUSH2 0xCAC JUMP JUMPDEST SWAP1 DUP2 MSTORE PUSH1 0x20 ADD PUSH1 0x40 MLOAD DUP1 SWAP2 SUB SWAP1 KECCAK256 DUP2 SWAP1 SSTORE POP PUSH1 0x1 DUP1 PUSH1 0x40 MLOAD PUSH2 0x1E0 SWAP1 PUSH2 0xC97 JUMP JUMPDEST SWAP1 DUP2 MSTORE PUSH1 0x20 ADD PUSH1 0x40 MLOAD DUP1 SWAP2 SUB SWAP1 KECCAK256 DUP2 SWAP1 SSTORE POP PUSH1 0x1 DUP1 PUSH1 0x40 MLOAD PUSH2 0x201 SWAP1 PUSH2 0xC43 JUMP JUMPDEST SWAP1 DUP2 MSTORE PUSH1 0x20 ADD PUSH1 0x40 MLOAD DUP1 SWAP2 SUB SWAP1 KECCAK256 DUP2 SWAP1 SSTORE POP PUSH1 0x2 PUSH1 0x1 PUSH1 0x40 MLOAD PUSH2 0x223 SWAP1 PUSH2 0xC6D JUMP JUMPDEST SWAP1 DUP2 MSTORE PUSH1 0x20 ADD PUSH1 0x40 MLOAD DUP1 SWAP2 SUB SWAP1 KECCAK256 DUP2 SWAP1 SSTORE POP PUSH1 0x2 PUSH1 0x1 PUSH1 0x40 MLOAD PUSH2 0x245 SWAP1 PUSH2 0xC82 JUMP JUMPDEST SWAP1 DUP2 MSTORE PUSH1 0x20 ADD PUSH1 0x40 MLOAD DUP1 SWAP2 SUB SWAP1 KECCAK256 DUP2 SWAP1 SSTORE POP PUSH1 0x1 PUSH1 0x2 PUSH1 0x40 MLOAD PUSH2 0x267 SWAP1 PUSH2 0xC58 JUMP JUMPDEST SWAP1 DUP2 MSTORE PUSH1 0x20 ADD PUSH1 0x40 MLOAD DUP1 SWAP2 SUB SWAP1 KECCAK256 PUSH1 0x0 PUSH2 0x100 EXP DUP2 SLOAD DUP2 PUSH1 0xFF MUL NOT AND SWAP1 DUP4 ISZERO ISZERO MUL OR SWAP1 SSTORE POP POP JUMP JUMPDEST PUSH1 0x0 DUP1 PUSH1 0x0 DUP1 SLOAD SWAP1 PUSH2 0x100 EXP SWAP1 DIV PUSH20 0xFFFFFFFFFFFFFFFFFFFFFFFFFFFFFFFFFFFFFFFF AND PUSH20 0xFFFFFFFFFFFFFFFFFFFFFFFFFFFFFFFFFFFFFFFF AND PUSH4 0x8749774F CALLER DUP7 PUSH1 0x40 MLOAD DUP4 PUSH4 0xFFFFFFFF AND PUSH1 0xE0 SHL DUP2 MSTORE PUSH1 0x4 ADD PUSH2 0x2ED SWAP3 SWAP2 SWAP1 PUSH2 0xCDC JUMP JUMPDEST PUSH1 0x0 PUSH1 0x40 MLOAD DUP1 DUP4 SUB DUP2 DUP7 DUP1 EXTCODESIZE ISZERO DUP1 ISZERO PUSH2 0x305 JUMPI PUSH1 0x0 DUP1 REVERT JUMPDEST POP GAS STATICCALL ISZERO DUP1 ISZERO PUSH2 0x319 JUMPI RETURNDATASIZE PUSH1 0x0 DUP1 RETURNDATACOPY RETURNDATASIZE PUSH1 0x0 REVERT JUMPDEST POP POP POP POP PUSH1 0x40 MLOAD RETURNDATASIZE PUSH1 0x0 DUP3 RETURNDATACOPY RETURNDATASIZE PUSH1 0x1F NOT PUSH1 0x1F DUP3 ADD AND DUP3 ADD DUP1 PUSH1 0x40 MSTORE POP DUP2 ADD SWAP1 PUSH2 0x342 SWAP2 SWAP1 PUSH2 0x950 JUMP JUMPDEST SWAP1 POP PUSH1 0x1 DUP2 PUSH1 0x40 MLOAD PUSH2 0x354 SWAP2 SWAP1 PUSH2 0xC2C JUMP JUMPDEST SWAP1 DUP2 MSTORE PUSH1 0x20 ADD PUSH1 0x40 MLOAD DUP1 SWAP2 SUB SWAP1 KECCAK256 SLOAD PUSH1 0x1 DUP5 PUSH1 0x40 MLOAD PUSH2 0x373 SWAP2 SWAP1 PUSH2 0xC2C JUMP JUMPDEST SWAP1 DUP2 MSTORE PUSH1 0x20 ADD PUSH1 0x40 MLOAD DUP1 SWAP2 SUB SWAP1 KECCAK256 SLOAD SLT ISZERO PUSH2 0x3C8 JUMPI PUSH32 0x4393DE65EE68A32D7987583B1F2C6E6AA80DF7D9AD5C0661660D70DFF18B9D6D CALLER DUP6 DUP6 PUSH1 0x40 MLOAD PUSH2 0x3BB SWAP4 SWAP3 SWAP2 SWAP1 PUSH2 0xDA7 JUMP JUMPDEST PUSH1 0x40 MLOAD DUP1 SWAP2 SUB SWAP1 LOG1 PUSH1 0x0 SWAP2 POP JUMPDEST PUSH1 0x60 DUP1 PUSH1 0x0 DUP1 SLOAD SWAP1 PUSH2 0x100 EXP SWAP1 DIV PUSH20 0xFFFFFFFFFFFFFFFFFFFFFFFFFFFFFFFFFFFFFFFF AND PUSH20 0xFFFFFFFFFFFFFFFFFFFFFFFFFFFFFFFFFFFFFFFF AND PUSH4 0x9F764D16 CALLER PUSH1 0x40 MLOAD DUP3 PUSH4 0xFFFFFFFF AND PUSH1 0xE0 SHL DUP2 MSTORE PUSH1 0x4 ADD PUSH2 0x424 SWAP2 SWAP1 PUSH2 0xCC1 JUMP JUMPDEST PUSH1 0x0 PUSH1 0x40 MLOAD DUP1 DUP4 SUB DUP2 DUP7 DUP1 EXTCODESIZE ISZERO DUP1 ISZERO PUSH2 0x43C JUMPI PUSH1 0x0 DUP1 REVERT JUMPDEST POP GAS STATICCALL ISZERO DUP1 ISZERO PUSH2 0x450 JUMPI RETURNDATASIZE PUSH1 0x0 DUP1 RETURNDATACOPY RETURNDATASIZE PUSH1 0x0 REVERT JUMPDEST POP POP POP POP PUSH1 0x40 MLOAD RETURNDATASIZE PUSH1 0x0 DUP3 RETURNDATACOPY RETURNDATASIZE PUSH1 0x1F NOT PUSH1 0x1F DUP3 ADD AND DUP3 ADD DUP1 PUSH1 0x40 MSTORE POP DUP2 ADD SWAP1 PUSH2 0x479 SWAP2 SWAP1 PUSH2 0x999 JUMP JUMPDEST DUP1 SWAP3 POP DUP2 SWAP4 POP POP POP PUSH1 0x2 DUP2 PUSH1 0x40 MLOAD PUSH2 0x491 SWAP2 SWAP1 PUSH2 0xC2C JUMP JUMPDEST SWAP1 DUP2 MSTORE PUSH1 0x20 ADD PUSH1 0x40 MLOAD DUP1 SWAP2 SUB SWAP1 KECCAK256 PUSH1 0x0 SWAP1 SLOAD SWAP1 PUSH2 0x100 EXP SWAP1 DIV PUSH1 0xFF AND ISZERO PUSH2 0x4F2 JUMPI PUSH32 0x4393DE65EE68A32D7987583B1F2C6E6AA80DF7D9AD5C0661660D70DFF18B9D6D CALLER DUP8 DUP8 PUSH1 0x40 MLOAD PUSH2 0x4E5 SWAP4 SWAP3 SWAP2 SWAP1 PUSH2 0xD56 JUMP JUMPDEST PUSH1 0x40 MLOAD DUP1 SWAP2 SUB SWAP1 LOG1 PUSH1 0x0 SWAP4 POP JUMPDEST PUSH32 0x4393DE65EE68A32D7987583B1F2C6E6AA80DF7D9AD5C0661660D70DFF18B9D6D CALLER DUP8 DUP8 PUSH1 0x40 MLOAD PUSH2 0x525 SWAP4 SWAP3 SWAP2 SWAP1 PUSH2 0xD05 JUMP JUMPDEST PUSH1 0x40 MLOAD DUP1 SWAP2 SUB SWAP1 LOG1 PUSH1 0x1 SWAP4 POP POP POP POP SWAP3 SWAP2 POP POP JUMP JUMPDEST PUSH1 0x60 DUP1 PUSH1 0x0 DUP1 SLOAD SWAP1 PUSH2 0x100 EXP SWAP1 DIV PUSH20 0xFFFFFFFFFFFFFFFFFFFFFFFFFFFFFFFFFFFFFFFF AND PUSH20 0xFFFFFFFFFFFFFFFFFFFFFFFFFFFFFFFFFFFFFFFF AND PUSH4 0xDE1E23B7 DUP5 PUSH1 0x40 MLOAD DUP3 PUSH4 0xFFFFFFFF AND PUSH1 0xE0 SHL DUP2 MSTORE PUSH1 0x4 ADD PUSH2 0x596 SWAP2 SWAP1 PUSH2 0xCC1 JUMP JUMPDEST PUSH1 0x0 PUSH1 0x40 MLOAD DUP1 DUP4 SUB DUP2 DUP7 DUP1 EXTCODESIZE ISZERO DUP1 ISZERO PUSH2 0x5AE JUMPI PUSH1 0x0 DUP1 REVERT JUMPDEST POP GAS STATICCALL ISZERO DUP1 ISZERO PUSH2 0x5C2 JUMPI RETURNDATASIZE PUSH1 0x0 DUP1 RETURNDATACOPY RETURNDATASIZE PUSH1 0x0 REVERT JUMPDEST POP POP POP POP PUSH1 0x40 MLOAD RETURNDATASIZE PUSH1 0x0 DUP3 RETURNDATACOPY RETURNDATASIZE PUSH1 0x1F NOT PUSH1 0x1F DUP3 ADD AND DUP3 ADD DUP1 PUSH1 0x40 MSTORE POP DUP2 ADD SWAP1 PUSH2 0x5EB SWAP2 SWAP1 PUSH2 0xA11 JUMP JUMPDEST PUSH1 0x20 ADD MLOAD SWAP2 POP PUSH1 0x0 DUP1 SLOAD SWAP1 PUSH2 0x100 EXP SWAP1 DIV PUSH20 0xFFFFFFFFFFFFFFFFFFFFFFFFFFFFFFFFFFFFFFFF AND PUSH20 0xFFFFFFFFFFFFFFFFFFFFFFFFFFFFFFFFFFFFFFFF AND PUSH4 0xDE1E23B7 DUP5 PUSH1 0x40 MLOAD DUP3 PUSH4 0xFFFFFFFF AND PUSH1 0xE0 SHL DUP2 MSTORE PUSH1 0x4 ADD PUSH2 0x64A SWAP2 SWAP1 PUSH2 0xCC1 JUMP JUMPDEST PUSH1 0x0 PUSH1 0x40 MLOAD DUP1 DUP4 SUB DUP2 DUP7 DUP1 EXTCODESIZE ISZERO DUP1 ISZERO PUSH2 0x662 JUMPI PUSH1 0x0 DUP1 REVERT JUMPDEST POP GAS STATICCALL ISZERO DUP1 ISZERO PUSH2 0x676 JUMPI RETURNDATASIZE PUSH1 0x0 DUP1 RETURNDATACOPY RETURNDATASIZE PUSH1 0x0 REVERT JUMPDEST POP POP POP POP PUSH1 0x40 MLOAD RETURNDATASIZE PUSH1 0x0 DUP3 RETURNDATACOPY RETURNDATASIZE PUSH1 0x1F NOT PUSH1 0x1F DUP3 ADD AND DUP3 ADD DUP1 PUSH1 0x40 MSTORE POP DUP2 ADD SWAP1 PUSH2 0x69F SWAP2 SWAP1 PUSH2 0xA11 JUMP JUMPDEST PUSH1 0x40 ADD MLOAD SWAP1 POP SWAP2 POP SWAP2 JUMP JUMPDEST PUSH1 0x1 DUP2 DUP1 MLOAD PUSH1 0x20 DUP2 ADD DUP3 ADD DUP1 MLOAD DUP5 DUP3 MSTORE PUSH1 0x20 DUP4 ADD PUSH1 0x20 DUP6 ADD KECCAK256 DUP2 DUP4 MSTORE DUP1 SWAP6 POP POP POP POP POP POP PUSH1 0x0 SWAP2 POP SWAP1 POP SLOAD DUP2 JUMP JUMPDEST PUSH1 0x0 PUSH2 0x6EB PUSH2 0x6E6 DUP5 PUSH2 0xE8A JUMP JUMPDEST PUSH2 0xE65 JUMP JUMPDEST SWAP1 POP DUP3 DUP2 MSTORE PUSH1 0x20 DUP2 ADD DUP5 DUP5 DUP5 ADD GT ISZERO PUSH2 0x707 JUMPI PUSH2 0x706 PUSH2 0xFDB JUMP JUMPDEST JUMPDEST PUSH2 0x712 DUP5 DUP3 DUP6 PUSH2 0xF2A JUMP JUMPDEST POP SWAP4 SWAP3 POP POP POP JUMP JUMPDEST PUSH1 0x0 PUSH2 0x72D PUSH2 0x728 DUP5 PUSH2 0xE8A JUMP JUMPDEST PUSH2 0xE65 JUMP JUMPDEST SWAP1 POP DUP3 DUP2 MSTORE PUSH1 0x20 DUP2 ADD DUP5 DUP5 DUP5 ADD GT ISZERO PUSH2 0x749 JUMPI PUSH2 0x748 PUSH2 0xFDB JUMP JUMPDEST JUMPDEST PUSH2 0x754 DUP5 DUP3 DUP6 PUSH2 0xF39 JUMP JUMPDEST POP SWAP4 SWAP3 POP POP POP JUMP JUMPDEST PUSH1 0x0 DUP2 CALLDATALOAD SWAP1 POP PUSH2 0x76B DUP2 PUSH2 0x116C JUMP JUMPDEST SWAP3 SWAP2 POP POP JUMP JUMPDEST PUSH1 0x0 DUP2 MLOAD SWAP1 POP PUSH2 0x780 DUP2 PUSH2 0x116C JUMP JUMPDEST SWAP3 SWAP2 POP POP JUMP JUMPDEST PUSH1 0x0 DUP3 PUSH1 0x1F DUP4 ADD SLT PUSH2 0x79B JUMPI PUSH2 0x79A PUSH2 0xFCC JUMP JUMPDEST JUMPDEST DUP2 CALLDATALOAD PUSH2 0x7AB DUP5 DUP3 PUSH1 0x20 DUP7 ADD PUSH2 0x6D8 JUMP JUMPDEST SWAP2 POP POP SWAP3 SWAP2 POP POP JUMP JUMPDEST PUSH1 0x0 DUP3 PUSH1 0x1F DUP4 ADD SLT PUSH2 0x7C9 JUMPI PUSH2 0x7C8 PUSH2 0xFCC JUMP JUMPDEST JUMPDEST DUP2 MLOAD PUSH2 0x7D9 DUP5 DUP3 PUSH1 0x20 DUP7 ADD PUSH2 0x71A JUMP JUMPDEST SWAP2 POP POP SWAP3 SWAP2 POP POP JUMP JUMPDEST PUSH1 0x0 PUSH1 0x60 DUP3 DUP5 SUB SLT ISZERO PUSH2 0x7F8 JUMPI PUSH2 0x7F7 PUSH2 0xFD1 JUMP JUMPDEST JUMPDEST PUSH2 0x802 PUSH1 0x60 PUSH2 0xE65 JUMP JUMPDEST SWAP1 POP PUSH1 0x0 PUSH2 0x812 DUP5 DUP3 DUP6 ADD PUSH2 0x771 JUMP JUMPDEST PUSH1 0x0 DUP4 ADD MSTORE POP PUSH1 0x20 DUP3 ADD MLOAD PUSH8 0xFFFFFFFFFFFFFFFF DUP2 GT ISZERO PUSH2 0x836 JUMPI PUSH2 0x835 PUSH2 0xFD6 JUMP JUMPDEST JUMPDEST PUSH2 0x842 DUP5 DUP3 DUP6 ADD PUSH2 0x7B4 JUMP JUMPDEST PUSH1 0x20 DUP4 ADD MSTORE POP PUSH1 0x40 DUP3 ADD MLOAD PUSH8 0xFFFFFFFFFFFFFFFF DUP2 GT ISZERO PUSH2 0x866 JUMPI PUSH2 0x865 PUSH2 0xFD6 JUMP JUMPDEST JUMPDEST PUSH2 0x872 DUP5 DUP3 DUP6 ADD PUSH2 0x7B4 JUMP JUMPDEST PUSH1 0x40 DUP4 ADD MSTORE POP SWAP3 SWAP2 POP POP JUMP JUMPDEST PUSH1 0x0 PUSH1 0x20 DUP3 DUP5 SUB SLT ISZERO PUSH2 0x894 JUMPI PUSH2 0x893 PUSH2 0xFE5 JUMP JUMPDEST JUMPDEST PUSH1 0x0 PUSH2 0x8A2 DUP5 DUP3 DUP6 ADD PUSH2 0x75C JUMP JUMPDEST SWAP2 POP POP SWAP3 SWAP2 POP POP JUMP JUMPDEST PUSH1 0x0 DUP1 PUSH1 0x40 DUP4 DUP6 SUB SLT ISZERO PUSH2 0x8C2 JUMPI PUSH2 0x8C1 PUSH2 0xFE5 JUMP JUMPDEST JUMPDEST PUSH1 0x0 PUSH2 0x8D0 DUP6 DUP3 DUP7 ADD PUSH2 0x75C JUMP JUMPDEST SWAP3 POP POP PUSH1 0x20 DUP4 ADD CALLDATALOAD PUSH8 0xFFFFFFFFFFFFFFFF DUP2 GT ISZERO PUSH2 0x8F1 JUMPI PUSH2 0x8F0 PUSH2 0xFE0 JUMP JUMPDEST JUMPDEST PUSH2 0x8FD DUP6 DUP3 DUP7 ADD PUSH2 0x786 JUMP JUMPDEST SWAP2 POP POP SWAP3 POP SWAP3 SWAP1 POP JUMP JUMPDEST PUSH1 0x0 PUSH1 0x20 DUP3 DUP5 SUB SLT ISZERO PUSH2 0x91D JUMPI PUSH2 0x91C PUSH2 0xFE5 JUMP JUMPDEST JUMPDEST PUSH1 0x0 DUP3 ADD CALLDATALOAD PUSH8 0xFFFFFFFFFFFFFFFF DUP2 GT ISZERO PUSH2 0x93B JUMPI PUSH2 0x93A PUSH2 0xFE0 JUMP JUMPDEST JUMPDEST PUSH2 0x947 DUP5 DUP3 DUP6 ADD PUSH2 0x786 JUMP JUMPDEST SWAP2 POP POP SWAP3 SWAP2 POP POP JUMP JUMPDEST PUSH1 0x0 PUSH1 0x20 DUP3 DUP5 SUB SLT ISZERO PUSH2 0x966 JUMPI PUSH2 0x965 PUSH2 0xFE5 JUMP JUMPDEST JUMPDEST PUSH1 0x0 DUP3 ADD MLOAD PUSH8 0xFFFFFFFFFFFFFFFF DUP2 GT ISZERO PUSH2 0x984 JUMPI PUSH2 0x983 PUSH2 0xFE0 JUMP JUMPDEST JUMPDEST PUSH2 0x990 DUP5 DUP3 DUP6 ADD PUSH2 0x7B4 JUMP JUMPDEST SWAP2 POP POP SWAP3 SWAP2 POP POP JUMP JUMPDEST PUSH1 0x0 DUP1 PUSH1 0x40 DUP4 DUP6 SUB SLT ISZERO PUSH2 0x9B0 JUMPI PUSH2 0x9AF PUSH2 0xFE5 JUMP JUMPDEST JUMPDEST PUSH1 0x0 DUP4 ADD MLOAD PUSH8 0xFFFFFFFFFFFFFFFF DUP2 GT ISZERO PUSH2 0x9CE JUMPI PUSH2 0x9CD PUSH2 0xFE0 JUMP JUMPDEST JUMPDEST PUSH2 0x9DA DUP6 DUP3 DUP7 ADD PUSH2 0x7B4 JUMP JUMPDEST SWAP3 POP POP PUSH1 0x20 DUP4 ADD MLOAD PUSH8 0xFFFFFFFFFFFFFFFF DUP2 GT ISZERO PUSH2 0x9FB JUMPI PUSH2 0x9FA PUSH2 0xFE0 JUMP JUMPDEST JUMPDEST PUSH2 0xA07 DUP6 DUP3 DUP7 ADD PUSH2 0x7B4 JUMP JUMPDEST SWAP2 POP POP SWAP3 POP SWAP3 SWAP1 POP JUMP JUMPDEST PUSH1 0x0 PUSH1 0x20 DUP3 DUP5 SUB SLT ISZERO PUSH2 0xA27 JUMPI PUSH2 0xA26 PUSH2 0xFE5 JUMP JUMPDEST JUMPDEST PUSH1 0x0 DUP3 ADD MLOAD PUSH8 0xFFFFFFFFFFFFFFFF DUP2 GT ISZERO PUSH2 0xA45 JUMPI PUSH2 0xA44 PUSH2 0xFE0 JUMP JUMPDEST JUMPDEST PUSH2 0xA51 DUP5 DUP3 DUP6 ADD PUSH2 0x7E2 JUMP JUMPDEST SWAP2 POP POP SWAP3 SWAP2 POP POP JUMP JUMPDEST PUSH2 0xA63 DUP2 PUSH2 0xEE2 JUMP JUMPDEST DUP3 MSTORE POP POP JUMP JUMPDEST PUSH2 0xA72 DUP2 PUSH2 0xEF4 JUMP JUMPDEST DUP3 MSTORE POP POP JUMP JUMPDEST PUSH2 0xA81 DUP2 PUSH2 0xF00 JUMP JUMPDEST DUP3 MSTORE POP POP JUMP JUMPDEST PUSH1 0x0 PUSH2 0xA92 DUP3 PUSH2 0xEBB JUMP JUMPDEST PUSH2 0xA9C DUP2 DUP6 PUSH2 0xEC6 JUMP JUMPDEST SWAP4 POP PUSH2 0xAAC DUP2 DUP6 PUSH1 0x20 DUP7 ADD PUSH2 0xF39 JUMP JUMPDEST PUSH2 0xAB5 DUP2 PUSH2 0xFEA JUMP JUMPDEST DUP5 ADD SWAP2 POP POP SWAP3 SWAP2 POP POP JUMP JUMPDEST PUSH1 0x0 PUSH2 0xACB DUP3 PUSH2 0xEBB JUMP JUMPDEST PUSH2 0xAD5 DUP2 DUP6 PUSH2 0xED7 JUMP JUMPDEST SWAP4 POP PUSH2 0xAE5 DUP2 DUP6 PUSH1 0x20 DUP7 ADD PUSH2 0xF39 JUMP JUMPDEST DUP1 DUP5 ADD SWAP2 POP POP SWAP3 SWAP2 POP POP JUMP JUMPDEST PUSH1 0x0 PUSH2 0xAFE PUSH1 0x5 DUP4 PUSH2 0xED7 JUMP JUMPDEST SWAP2 POP PUSH2 0xB09 DUP3 PUSH2 0xFFB JUMP JUMPDEST PUSH1 0x5 DUP3 ADD SWAP1 POP SWAP2 SWAP1 POP JUMP JUMPDEST PUSH1 0x0 PUSH2 0xB21 PUSH1 0x7 DUP4 PUSH2 0xED7 JUMP JUMPDEST SWAP2 POP PUSH2 0xB2C DUP3 PUSH2 0x1024 JUMP JUMPDEST PUSH1 0x7 DUP3 ADD SWAP1 POP SWAP2 SWAP1 POP JUMP JUMPDEST PUSH1 0x0 PUSH2 0xB44 PUSH1 0xC DUP4 PUSH2 0xEC6 JUMP JUMPDEST SWAP2 POP PUSH2 0xB4F DUP3 PUSH2 0x104D JUMP JUMPDEST PUSH1 0x20 DUP3 ADD SWAP1 POP SWAP2 SWAP1 POP JUMP JUMPDEST PUSH1 0x0 PUSH2 0xB67 PUSH1 0x7 DUP4 PUSH2 0xED7 JUMP JUMPDEST SWAP2 POP PUSH2 0xB72 DUP3 PUSH2 0x1076 JUMP JUMPDEST PUSH1 0x7 DUP3 ADD SWAP1 POP SWAP2 SWAP1 POP JUMP JUMPDEST PUSH1 0x0 PUSH2 0xB8A PUSH1 0x13 DUP4 PUSH2 0xEC6 JUMP JUMPDEST SWAP2 POP PUSH2 0xB95 DUP3 PUSH2 0x109F JUMP JUMPDEST PUSH1 0x20 DUP3 ADD SWAP1 POP SWAP2 SWAP1 POP JUMP JUMPDEST PUSH1 0x0 PUSH2 0xBAD PUSH1 0x4 DUP4 PUSH2 0xED7 JUMP JUMPDEST SWAP2 POP PUSH2 0xBB8 DUP3 PUSH2 0x10C8 JUMP JUMPDEST PUSH1 0x4 DUP3 ADD SWAP1 POP SWAP2 SWAP1 POP JUMP JUMPDEST PUSH1 0x0 PUSH2 0xBD0 PUSH1 0x4 DUP4 PUSH2 0xED7 JUMP JUMPDEST SWAP2 POP PUSH2 0xBDB DUP3 PUSH2 0x10F1 JUMP JUMPDEST PUSH1 0x4 DUP3 ADD SWAP1 POP SWAP2 SWAP1 POP JUMP JUMPDEST PUSH1 0x0 PUSH2 0xBF3 PUSH1 0x14 DUP4 PUSH2 0xEC6 JUMP JUMPDEST SWAP2 POP PUSH2 0xBFE DUP3 PUSH2 0x111A JUMP JUMPDEST PUSH1 0x20 DUP3 ADD SWAP1 POP SWAP2 SWAP1 POP JUMP JUMPDEST PUSH1 0x0 PUSH2 0xC16 PUSH1 0x4 DUP4 PUSH2 0xED7 JUMP JUMPDEST SWAP2 POP PUSH2 0xC21 DUP3 PUSH2 0x1143 JUMP JUMPDEST PUSH1 0x4 DUP3 ADD SWAP1 POP SWAP2 SWAP1 POP JUMP JUMPDEST PUSH1 0x0 PUSH2 0xC38 DUP3 DUP5 PUSH2 0xAC0 JUMP JUMPDEST SWAP2 POP DUP2 SWAP1 POP SWAP3 SWAP2 POP POP JUMP JUMPDEST PUSH1 0x0 PUSH2 0xC4E DUP3 PUSH2 0xAF1 JUMP JUMPDEST SWAP2 POP DUP2 SWAP1 POP SWAP2 SWAP1 POP JUMP JUMPDEST PUSH1 0x0 PUSH2 0xC63 DUP3 PUSH2 0xB14 JUMP JUMPDEST SWAP2 POP DUP2 SWAP1 POP SWAP2 SWAP1 POP JUMP JUMPDEST PUSH1 0x0 PUSH2 0xC78 DUP3 PUSH2 0xB5A JUMP JUMPDEST SWAP2 POP DUP2 SWAP1 POP SWAP2 SWAP1 POP JUMP JUMPDEST PUSH1 0x0 PUSH2 0xC8D DUP3 PUSH2 0xBA0 JUMP JUMPDEST SWAP2 POP DUP2 SWAP1 POP SWAP2 SWAP1 POP JUMP JUMPDEST PUSH1 0x0 PUSH2 0xCA2 DUP3 PUSH2 0xBC3 JUMP JUMPDEST SWAP2 POP DUP2 SWAP1 POP SWAP2 SWAP1 POP JUMP JUMPDEST PUSH1 0x0 PUSH2 0xCB7 DUP3 PUSH2 0xC09 JUMP JUMPDEST SWAP2 POP DUP2 SWAP1 POP SWAP2 SWAP1 POP JUMP JUMPDEST PUSH1 0x0 PUSH1 0x20 DUP3 ADD SWAP1 POP PUSH2 0xCD6 PUSH1 0x0 DUP4 ADD DUP5 PUSH2 0xA5A JUMP JUMPDEST SWAP3 SWAP2 POP POP JUMP JUMPDEST PUSH1 0x0 PUSH1 0x40 DUP3 ADD SWAP1 POP PUSH2 0xCF1 PUSH1 0x0 DUP4 ADD DUP6 PUSH2 0xA5A JUMP JUMPDEST PUSH2 0xCFE PUSH1 0x20 DUP4 ADD DUP5 PUSH2 0xA5A JUMP JUMPDEST SWAP4 SWAP3 POP POP POP JUMP JUMPDEST PUSH1 0x0 PUSH1 0x80 DUP3 ADD SWAP1 POP PUSH2 0xD1A PUSH1 0x0 DUP4 ADD DUP7 PUSH2 0xA5A JUMP JUMPDEST PUSH2 0xD27 PUSH1 0x20 DUP4 ADD DUP6 PUSH2 0xA5A JUMP JUMPDEST DUP2 DUP2 SUB PUSH1 0x40 DUP4 ADD MSTORE PUSH2 0xD39 DUP2 DUP5 PUSH2 0xA87 JUMP JUMPDEST SWAP1 POP DUP2 DUP2 SUB PUSH1 0x60 DUP4 ADD MSTORE PUSH2 0xD4C DUP2 PUSH2 0xB37 JUMP JUMPDEST SWAP1 POP SWAP5 SWAP4 POP POP POP POP JUMP JUMPDEST PUSH1 0x0 PUSH1 0x80 DUP3 ADD SWAP1 POP PUSH2 0xD6B PUSH1 0x0 DUP4 ADD DUP7 PUSH2 0xA5A JUMP JUMPDEST PUSH2 0xD78 PUSH1 0x20 DUP4 ADD DUP6 PUSH2 0xA5A JUMP JUMPDEST DUP2 DUP2 SUB PUSH1 0x40 DUP4 ADD MSTORE PUSH2 0xD8A DUP2 DUP5 PUSH2 0xA87 JUMP JUMPDEST SWAP1 POP DUP2 DUP2 SUB PUSH1 0x60 DUP4 ADD MSTORE PUSH2 0xD9D DUP2 PUSH2 0xB7D JUMP JUMPDEST SWAP1 POP SWAP5 SWAP4 POP POP POP POP JUMP JUMPDEST PUSH1 0x0 PUSH1 0x80 DUP3 ADD SWAP1 POP PUSH2 0xDBC PUSH1 0x0 DUP4 ADD DUP7 PUSH2 0xA5A JUMP JUMPDEST PUSH2 0xDC9 PUSH1 0x20 DUP4 ADD DUP6 PUSH2 0xA5A JUMP JUMPDEST DUP2 DUP2 SUB PUSH1 0x40 DUP4 ADD MSTORE PUSH2 0xDDB DUP2 DUP5 PUSH2 0xA87 JUMP JUMPDEST SWAP1 POP DUP2 DUP2 SUB PUSH1 0x60 DUP4 ADD MSTORE PUSH2 0xDEE DUP2 PUSH2 0xBE6 JUMP JUMPDEST SWAP1 POP SWAP5 SWAP4 POP POP POP POP JUMP JUMPDEST PUSH1 0x0 PUSH1 0x20 DUP3 ADD SWAP1 POP PUSH2 0xE0D PUSH1 0x0 DUP4 ADD DUP5 PUSH2 0xA69 JUMP JUMPDEST SWAP3 SWAP2 POP POP JUMP JUMPDEST PUSH1 0x0 PUSH1 0x20 DUP3 ADD SWAP1 POP PUSH2 0xE28 PUSH1 0x0 DUP4 ADD DUP5 PUSH2 0xA78 JUMP JUMPDEST SWAP3 SWAP2 POP POP JUMP JUMPDEST PUSH1 0x0 PUSH1 0x40 DUP3 ADD SWAP1 POP DUP2 DUP2 SUB PUSH1 0x0 DUP4 ADD MSTORE PUSH2 0xE48 DUP2 DUP6 PUSH2 0xA87 JUMP JUMPDEST SWAP1 POP DUP2 DUP2 SUB PUSH1 0x20 DUP4 ADD MSTORE PUSH2 0xE5C DUP2 DUP5 PUSH2 0xA87 JUMP JUMPDEST SWAP1 POP SWAP4 SWAP3 POP POP POP JUMP JUMPDEST PUSH1 0x0 PUSH2 0xE6F PUSH2 0xE80 JUMP JUMPDEST SWAP1 POP PUSH2 0xE7B DUP3 DUP3 PUSH2 0xF6C JUMP JUMPDEST SWAP2 SWAP1 POP JUMP JUMPDEST PUSH1 0x0 PUSH1 0x40 MLOAD SWAP1 POP SWAP1 JUMP JUMPDEST PUSH1 0x0 PUSH8 0xFFFFFFFFFFFFFFFF DUP3 GT ISZERO PUSH2 0xEA5 JUMPI PUSH2 0xEA4 PUSH2 0xF9D JUMP JUMPDEST JUMPDEST PUSH2 0xEAE DUP3 PUSH2 0xFEA JUMP JUMPDEST SWAP1 POP PUSH1 0x20 DUP2 ADD SWAP1 POP SWAP2 SWAP1 POP JUMP JUMPDEST PUSH1 0x0 DUP2 MLOAD SWAP1 POP SWAP2 SWAP1 POP JUMP JUMPDEST PUSH1 0x0 DUP3 DUP3 MSTORE PUSH1 0x20 DUP3 ADD SWAP1 POP SWAP3 SWAP2 POP POP JUMP JUMPDEST PUSH1 0x0 DUP2 SWAP1 POP SWAP3 SWAP2 POP POP JUMP JUMPDEST PUSH1 0x0 PUSH2 0xEED DUP3 PUSH2 0xF0A JUMP JUMPDEST SWAP1 POP SWAP2 SWAP1 POP JUMP JUMPDEST PUSH1 0x0 DUP2 ISZERO ISZERO SWAP1 POP SWAP2 SWAP1 POP JUMP JUMPDEST PUSH1 0x0 DUP2 SWAP1 POP SWAP2 SWAP1 POP JUMP JUMPDEST PUSH1 0x0 PUSH20 0xFFFFFFFFFFFFFFFFFFFFFFFFFFFFFFFFFFFFFFFF DUP3 AND SWAP1 POP SWAP2 SWAP1 POP JUMP JUMPDEST DUP3 DUP2 DUP4 CALLDATACOPY PUSH1 0x0 DUP4 DUP4 ADD MSTORE POP POP POP JUMP JUMPDEST PUSH1 0x0 JUMPDEST DUP4 DUP2 LT ISZERO PUSH2 0xF57 JUMPI DUP1 DUP3 ADD MLOAD DUP2 DUP5 ADD MSTORE PUSH1 0x20 DUP2 ADD SWAP1 POP PUSH2 0xF3C JUMP JUMPDEST DUP4 DUP2 GT ISZERO PUSH2 0xF66 JUMPI PUSH1 0x0 DUP5 DUP5 ADD MSTORE JUMPDEST POP POP POP POP JUMP JUMPDEST PUSH2 0xF75 DUP3 PUSH2 0xFEA JUMP JUMPDEST DUP2 ADD DUP2 DUP2 LT PUSH8 0xFFFFFFFFFFFFFFFF DUP3 GT OR ISZERO PUSH2 0xF94 JUMPI PUSH2 0xF93 PUSH2 0xF9D JUMP JUMPDEST JUMPDEST DUP1 PUSH1 0x40 MSTORE POP POP POP JUMP JUMPDEST PUSH32 0x4E487B7100000000000000000000000000000000000000000000000000000000 PUSH1 0x0 MSTORE PUSH1 0x41 PUSH1 0x4 MSTORE PUSH1 0x24 PUSH1 0x0 REVERT JUMPDEST PUSH1 0x0 DUP1 REVERT JUMPDEST PUSH1 0x0 DUP1 REVERT JUMPDEST PUSH1 0x0 DUP1 REVERT JUMPDEST PUSH1 0x0 DUP1 REVERT JUMPDEST PUSH1 0x0 DUP1 REVERT JUMPDEST PUSH1 0x0 DUP1 REVERT JUMPDEST PUSH1 0x0 PUSH1 0x1F NOT PUSH1 0x1F DUP4 ADD AND SWAP1 POP SWAP2 SWAP1 POP JUMP JUMPDEST PUSH32 0x636C6F7365000000000000000000000000000000000000000000000000000000 PUSH1 0x0 DUP3 ADD MSTORE POP JUMP JUMPDEST PUSH32 0x322E322E322E3200000000000000000000000000000000000000000000000000 PUSH1 0x0 DUP3 ADD MSTORE POP JUMP JUMPDEST PUSH32 0x4163636573732070617373210000000000000000000000000000000000000000 PUSH1 0x0 DUP3 ADD MSTORE POP JUMP JUMPDEST PUSH32 0x7265737461727400000000000000000000000000000000000000000000000000 PUSH1 0x0 DUP3 ADD MSTORE POP JUMP JUMPDEST PUSH32 0x496C6C6567616C20495020616464726573732100000000000000000000000000 PUSH1 0x0 DUP3 ADD MSTORE POP JUMP JUMPDEST PUSH32 0x6B696C6C00000000000000000000000000000000000000000000000000000000 PUSH1 0x0 DUP3 ADD MSTORE POP JUMP JUMPDEST PUSH32 0x6F70656E00000000000000000000000000000000000000000000000000000000 PUSH1 0x0 DUP3 ADD MSTORE POP JUMP JUMPDEST PUSH32 0x556E617574686F72697A65642061636365737321000000000000000000000000 PUSH1 0x0 DUP3 ADD MSTORE POP JUMP JUMPDEST PUSH32 0x7265616400000000000000000000000000000000000000000000000000000000 PUSH1 0x0 DUP3 ADD MSTORE POP JUMP JUMPDEST PUSH2 0x1175 DUP2 PUSH2 0xEE2 JUMP JUMPDEST DUP2 EQ PUSH2 0x1180 JUMPI PUSH1 0x0 DUP1 REVERT JUMPDEST POP JUMP INVALID LOG2 PUSH5 0x6970667358 0x22 SLT KECCAK256 0x2B 0xB2 0xCE SLT CALLDATACOPY SWAP16 0x23 PUSH2 0x1D31 0xB6 0xCF SHR 0xBE SUB SWAP7 REVERT CODECOPY 0x1F 0x2E DUP7 0xC1 ORIGIN INVALID ADDRESS EXTCODEHASH CODESIZE SWAP11 PUSH19 0x13F4A664736F6C634300080700330000000000 "
				},
				"gasEstimates": {
					"creation": {
						"codeDepositCost": "907400",
						"executionCost": "942",
						"totalCost": "908342"
					},
					"external": {
						"accessControl(address,string)": "infinite",
						"blackListIpPool(string)": "infinite",
						"getTestDeviceInfoByAddr(address)": "infinite",
						"init(address)": "infinite",
						"rightTable(string)": "infinite"
					}
				},
				"methodIdentifiers": {
					"accessControl(address,string)": "32076e77",
					"blackListIpPool(string)": "136d070e",
					"getTestDeviceInfoByAddr(address)": "b9ed3ebb",
					"init(address)": "19ab453c",
					"rightTable(string)": "d6d0e1e0"
				}
			},
			"storageLayout": {
				"storage": [
					{
						"astId": 5,
						"contract": "contracts/AccessControl.sol:AccessControl",
						"label": "manager",
						"offset": 0,
						"slot": "0",
						"type": "t_contract(Management)373"
					},
					{
						"astId": 9,
						"contract": "contracts/AccessControl.sol:AccessControl",
						"label": "rightTable",
						"offset": 0,
						"slot": "1",
						"type": "t_mapping(t_string_memory_ptr,t_int256)"
					},
					{
						"astId": 13,
						"contract": "contracts/AccessControl.sol:AccessControl",
						"label": "blackListIpPool",
						"offset": 0,
						"slot": "2",
						"type": "t_mapping(t_string_memory_ptr,t_bool)"
					}
				],
				"types": {
					"t_bool": {
						"encoding": "inplace",
						"label": "bool",
						"numberOfBytes": "1"
					},
					"t_contract(Management)373": {
						"encoding": "inplace",
						"label": "contract Management",
						"numberOfBytes": "20"
					},
					"t_int256": {
						"encoding": "inplace",
						"label": "int256",
						"numberOfBytes": "32"
					},
					"t_mapping(t_string_memory_ptr,t_bool)": {
						"encoding": "mapping",
						"key": "t_string_memory_ptr",
						"label": "mapping(string => bool)",
						"numberOfBytes": "32",
						"value": "t_bool"
					},
					"t_mapping(t_string_memory_ptr,t_int256)": {
						"encoding": "mapping",
						"key": "t_string_memory_ptr",
						"label": "mapping(string => int256)",
						"numberOfBytes": "32",
						"value": "t_int256"
					},
					"t_string_memory_ptr": {
						"encoding": "bytes",
						"label": "string",
						"numberOfBytes": "32"
					}
				}
			},
			"userdoc": {
				"kind": "user",
				"methods": {},
				"version": 1
			}
		}
	}
}