{
	"contracts/Management.sol": {
		"Management": {
			"abi": [
				{
					"inputs": [
						{
							"internalType": "address",
							"name": "_addr",
							"type": "address"
						}
					],
					"name": "getDeviceInfoByAddr",
					"outputs": [
						{
							"components": [
								{
									"internalType": "address",
									"name": "deviceAddr",
									"type": "address"
								},
								{
									"internalType": "string",
									"name": "deviceName",
									"type": "string"
								},
								{
									"internalType": "string",
									"name": "deviceType",
									"type": "string"
								}
							],
							"internalType": "struct Management.DeviceInfo",
							"name": "",
							"type": "tuple"
						}
					],
					"stateMutability": "view",
					"type": "function"
				},
				{
					"inputs": [
						{
							"internalType": "address",
							"name": "_subjectAddr",
							"type": "address"
						},
						{
							"internalType": "address",
							"name": "_objectAddr",
							"type": "address"
						}
					],
					"name": "getRight",
					"outputs": [
						{
							"internalType": "string",
							"name": "",
							"type": "string"
						}
					],
					"stateMutability": "view",
					"type": "function"
				},
				{
					"inputs": [
						{
							"internalType": "address",
							"name": "_subjectAddr",
							"type": "address"
						}
					],
					"name": "getSubjInfo",
					"outputs": [
						{
							"internalType": "string",
							"name": "subjName",
							"type": "string"
						},
						{
							"internalType": "string",
							"name": "ipAddr",
							"type": "string"
						}
					],
					"stateMutability": "view",
					"type": "function"
				},
				{
					"inputs": [],
					"name": "init",
					"outputs": [],
					"stateMutability": "nonpayable",
					"type": "function"
				},
				{
					"inputs": [
						{
							"internalType": "address",
							"name": "_deviceAddr",
							"type": "address"
						},
						{
							"internalType": "string",
							"name": "right",
							"type": "string"
						}
					],
					"name": "register4Right",
					"outputs": [],
					"stateMutability": "nonpayable",
					"type": "function"
				},
				{
					"inputs": [
						{
							"internalType": "address",
							"name": "_deviceAddr",
							"type": "address"
						},
						{
							"internalType": "string",
							"name": "_deviceName",
							"type": "string"
						},
						{
							"internalType": "string",
							"name": "_deviceType",
							"type": "string"
						}
					],
					"name": "setDeviceInfo",
					"outputs": [],
					"stateMutability": "nonpayable",
					"type": "function"
				},
				{
					"inputs": [
						{
							"internalType": "string",
							"name": "_subjectName",
							"type": "string"
						},
						{
							"internalType": "string",
							"name": "_ipAddr",
							"type": "string"
						}
					],
					"name": "setSubjInfo",
					"outputs": [],
					"stateMutability": "nonpayable",
					"type": "function"
				},
				{
					"inputs": [
						{
							"internalType": "address",
							"name": "",
							"type": "address"
						}
					],
					"name": "subjInfoMap",
					"outputs": [
						{
							"internalType": "address",
							"name": "subjectAddr",
							"type": "address"
						},
						{
							"internalType": "string",
							"name": "subjectName",
							"type": "string"
						},
						{
							"internalType": "string",
							"name": "ipAddr",
							"type": "string"
						}
					],
					"stateMutability": "view",
					"type": "function"
				}
			],
			"devdoc": {
				"kind": "dev",
				"methods": {},
				"version": 1
			},
			"evm": {
				"assembly": "    /* \"contracts/Management.sol\":68:2356  contract Management {\r... */\n  mstore(0x40, 0x80)\n  callvalue\n  dup1\n  iszero\n  tag_1\n  jumpi\n  0x00\n  dup1\n  revert\ntag_1:\n  pop\n  dataSize(sub_0)\n  dup1\n  dataOffset(sub_0)\n  0x00\n  codecopy\n  0x00\n  return\nstop\n\nsub_0: assembly {\n        /* \"contracts/Management.sol\":68:2356  contract Management {\r... */\n      mstore(0x40, 0x80)\n      callvalue\n      dup1\n      iszero\n      tag_1\n      jumpi\n      0x00\n      dup1\n      revert\n    tag_1:\n      pop\n      jumpi(tag_2, lt(calldatasize, 0x04))\n      shr(0xe0, calldataload(0x00))\n      dup1\n      0xb9e0ad10\n      gt\n      tag_11\n      jumpi\n      dup1\n      0xb9e0ad10\n      eq\n      tag_7\n      jumpi\n      dup1\n      0xde1e23b7\n      eq\n      tag_8\n      jumpi\n      dup1\n      0xe1c7392a\n      eq\n      tag_9\n      jumpi\n      dup1\n      0xf2c3c745\n      eq\n      tag_10\n      jumpi\n      jump(tag_2)\n    tag_11:\n      dup1\n      0x11ef4171\n      eq\n      tag_3\n      jumpi\n      dup1\n      0x6c477035\n      eq\n      tag_4\n      jumpi\n      dup1\n      0x8749774f\n      eq\n      tag_5\n      jumpi\n      dup1\n      0x9f764d16\n      eq\n      tag_6\n      jumpi\n    tag_2:\n      0x00\n      dup1\n      revert\n        /* \"contracts/Management.sol\":1387:1615  function register4Right(address _deviceAddr, string memory right) public {\r... */\n    tag_3:\n      tag_12\n      0x04\n      dup1\n      calldatasize\n      sub\n      dup2\n      add\n      swap1\n      tag_13\n      swap2\n      swap1\n      tag_14\n      jump\t// in\n    tag_13:\n      tag_15\n      jump\t// in\n    tag_12:\n      stop\n        /* \"contracts/Management.sol\":583:882  function setDeviceInfo(address _deviceAddr, string memory _deviceName, string memory _deviceType) public {\r... */\n    tag_4:\n      tag_16\n      0x04\n      dup1\n      calldatasize\n      sub\n      dup2\n      add\n      swap1\n      tag_17\n      swap2\n      swap1\n      tag_18\n      jump\t// in\n    tag_17:\n      tag_19\n      jump\t// in\n    tag_16:\n      stop\n        /* \"contracts/Management.sol\":1623:1795  function getRight(address _subjectAddr, address _objectAddr) public view returns (string memory) {\r... */\n    tag_5:\n      tag_20\n      0x04\n      dup1\n      calldatasize\n      sub\n      dup2\n      add\n      swap1\n      tag_21\n      swap2\n      swap1\n      tag_22\n      jump\t// in\n    tag_21:\n      tag_23\n      jump\t// in\n    tag_20:\n      mload(0x40)\n      tag_24\n      swap2\n      swap1\n      tag_25\n      jump\t// in\n    tag_24:\n      mload(0x40)\n      dup1\n      swap2\n      sub\n      swap1\n      return\n        /* \"contracts/Management.sol\":1803:2032  function getSubjInfo(address _subjectAddr) public view returns (string memory subjName, string memory ipAddr) {\r... */\n    tag_6:\n      tag_26\n      0x04\n      dup1\n      calldatasize\n      sub\n      dup2\n      add\n      swap1\n      tag_27\n      swap2\n      swap1\n      tag_28\n      jump\t// in\n    tag_27:\n      tag_29\n      jump\t// in\n    tag_26:\n      mload(0x40)\n      tag_30\n      swap3\n      swap2\n      swap1\n      tag_31\n      jump\t// in\n    tag_30:\n      mload(0x40)\n      dup1\n      swap2\n      sub\n      swap1\n      return\n        /* \"contracts/Management.sol\":527:574  mapping(address => SubjInfo) public subjInfoMap */\n    tag_7:\n      tag_32\n      0x04\n      dup1\n      calldatasize\n      sub\n      dup2\n      add\n      swap1\n      tag_33\n      swap2\n      swap1\n      tag_28\n      jump\t// in\n    tag_33:\n      tag_34\n      jump\t// in\n    tag_32:\n      mload(0x40)\n      tag_35\n      swap4\n      swap3\n      swap2\n      swap1\n      tag_36\n      jump\t// in\n    tag_35:\n      mload(0x40)\n      dup1\n      swap2\n      sub\n      swap1\n      return\n        /* \"contracts/Management.sol\":890:1020  function getDeviceInfoByAddr(address _addr) public view returns (DeviceInfo memory) {\r... */\n    tag_8:\n      tag_37\n      0x04\n      dup1\n      calldatasize\n      sub\n      dup2\n      add\n      swap1\n      tag_38\n      swap2\n      swap1\n      tag_28\n      jump\t// in\n    tag_38:\n      tag_39\n      jump\t// in\n    tag_37:\n      mload(0x40)\n      tag_40\n      swap2\n      swap1\n      tag_41\n      jump\t// in\n    tag_40:\n      mload(0x40)\n      dup1\n      swap2\n      sub\n      swap1\n      return\n        /* \"contracts/Management.sol\":2067:2351  function init() public {\r... */\n    tag_9:\n      tag_42\n      tag_43\n      jump\t// in\n    tag_42:\n      stop\n        /* \"contracts/Management.sol\":1028:1338  function setSubjInfo(string memory _subjectName, string memory _ipAddr) public {\r... */\n    tag_10:\n      tag_44\n      0x04\n      dup1\n      calldatasize\n      sub\n      dup2\n      add\n      swap1\n      tag_45\n      swap2\n      swap1\n      tag_46\n      jump\t// in\n    tag_45:\n      tag_47\n      jump\t// in\n    tag_44:\n      stop\n        /* \"contracts/Management.sol\":1387:1615  function register4Right(address _deviceAddr, string memory right) public {\r... */\n    tag_15:\n        /* \"contracts/Management.sol\":1602:1607  right */\n      dup1\n        /* \"contracts/Management.sol\":1552:1563  subjInfoMap */\n      0x01\n        /* \"contracts/Management.sol\":1552:1575  subjInfoMap[msg.sender] */\n      0x00\n        /* \"contracts/Management.sol\":1564:1574  msg.sender */\n      caller\n        /* \"contracts/Management.sol\":1552:1575  subjInfoMap[msg.sender] */\n      0xffffffffffffffffffffffffffffffffffffffff\n      and\n      0xffffffffffffffffffffffffffffffffffffffff\n      and\n      dup2\n      mstore\n      0x20\n      add\n      swap1\n      dup2\n      mstore\n      0x20\n      add\n      0x00\n      keccak256\n        /* \"contracts/Management.sol\":1552:1586  subjInfoMap[msg.sender].rightTable */\n      0x02\n      add\n        /* \"contracts/Management.sol\":1552:1599  subjInfoMap[msg.sender].rightTable[_deviceAddr] */\n      0x00\n        /* \"contracts/Management.sol\":1587:1598  _deviceAddr */\n      dup5\n        /* \"contracts/Management.sol\":1552:1599  subjInfoMap[msg.sender].rightTable[_deviceAddr] */\n      0xffffffffffffffffffffffffffffffffffffffff\n      and\n      0xffffffffffffffffffffffffffffffffffffffff\n      and\n      dup2\n      mstore\n      0x20\n      add\n      swap1\n      dup2\n      mstore\n      0x20\n      add\n      0x00\n      keccak256\n        /* \"contracts/Management.sol\":1552:1607  subjInfoMap[msg.sender].rightTable[_deviceAddr] = right */\n      swap1\n      dup1\n      mload\n      swap1\n      0x20\n      add\n      swap1\n      tag_49\n      swap3\n      swap2\n      swap1\n      tag_50\n      jump\t// in\n    tag_49:\n      pop\n        /* \"contracts/Management.sol\":1387:1615  function register4Right(address _deviceAddr, string memory right) public {\r... */\n      pop\n      pop\n      jump\t// out\n        /* \"contracts/Management.sol\":583:882  function setDeviceInfo(address _deviceAddr, string memory _deviceName, string memory _deviceType) public {\r... */\n    tag_19:\n        /* \"contracts/Management.sol\":739:750  _deviceAddr */\n      dup3\n        /* \"contracts/Management.sol\":699:712  deviceInfoMap */\n      0x00\n        /* \"contracts/Management.sol\":699:725  deviceInfoMap[_deviceAddr] */\n      dup1\n        /* \"contracts/Management.sol\":713:724  _deviceAddr */\n      dup6\n        /* \"contracts/Management.sol\":699:725  deviceInfoMap[_deviceAddr] */\n      0xffffffffffffffffffffffffffffffffffffffff\n      and\n      0xffffffffffffffffffffffffffffffffffffffff\n      and\n      dup2\n      mstore\n      0x20\n      add\n      swap1\n      dup2\n      mstore\n      0x20\n      add\n      0x00\n      keccak256\n        /* \"contracts/Management.sol\":699:736  deviceInfoMap[_deviceAddr].deviceAddr */\n      0x00\n      add\n      0x00\n        /* \"contracts/Management.sol\":699:750  deviceInfoMap[_deviceAddr].deviceAddr = _deviceAddr */\n      0x0100\n      exp\n      dup2\n      sload\n      dup2\n      0xffffffffffffffffffffffffffffffffffffffff\n      mul\n      not\n      and\n      swap1\n      dup4\n      0xffffffffffffffffffffffffffffffffffffffff\n      and\n      mul\n      or\n      swap1\n      sstore\n      pop\n        /* \"contracts/Management.sol\":801:812  _deviceName */\n      dup2\n        /* \"contracts/Management.sol\":761:774  deviceInfoMap */\n      0x00\n        /* \"contracts/Management.sol\":761:787  deviceInfoMap[_deviceAddr] */\n      dup1\n        /* \"contracts/Management.sol\":775:786  _deviceAddr */\n      dup6\n        /* \"contracts/Management.sol\":761:787  deviceInfoMap[_deviceAddr] */\n      0xffffffffffffffffffffffffffffffffffffffff\n      and\n      0xffffffffffffffffffffffffffffffffffffffff\n      and\n      dup2\n      mstore\n      0x20\n      add\n      swap1\n      dup2\n      mstore\n      0x20\n      add\n      0x00\n      keccak256\n        /* \"contracts/Management.sol\":761:798  deviceInfoMap[_deviceAddr].deviceName */\n      0x01\n      add\n        /* \"contracts/Management.sol\":761:812  deviceInfoMap[_deviceAddr].deviceName = _deviceName */\n      swap1\n      dup1\n      mload\n      swap1\n      0x20\n      add\n      swap1\n      tag_52\n      swap3\n      swap2\n      swap1\n      tag_50\n      jump\t// in\n    tag_52:\n      pop\n        /* \"contracts/Management.sol\":863:874  _deviceType */\n      dup1\n        /* \"contracts/Management.sol\":823:836  deviceInfoMap */\n      0x00\n        /* \"contracts/Management.sol\":823:849  deviceInfoMap[_deviceAddr] */\n      dup1\n        /* \"contracts/Management.sol\":837:848  _deviceAddr */\n      dup6\n        /* \"contracts/Management.sol\":823:849  deviceInfoMap[_deviceAddr] */\n      0xffffffffffffffffffffffffffffffffffffffff\n      and\n      0xffffffffffffffffffffffffffffffffffffffff\n      and\n      dup2\n      mstore\n      0x20\n      add\n      swap1\n      dup2\n      mstore\n      0x20\n      add\n      0x00\n      keccak256\n        /* \"contracts/Management.sol\":823:860  deviceInfoMap[_deviceAddr].deviceType */\n      0x02\n      add\n        /* \"contracts/Management.sol\":823:874  deviceInfoMap[_deviceAddr].deviceType = _deviceType */\n      swap1\n      dup1\n      mload\n      swap1\n      0x20\n      add\n      swap1\n      tag_53\n      swap3\n      swap2\n      swap1\n      tag_50\n      jump\t// in\n    tag_53:\n      pop\n        /* \"contracts/Management.sol\":583:882  function setDeviceInfo(address _deviceAddr, string memory _deviceName, string memory _deviceType) public {\r... */\n      pop\n      pop\n      pop\n      jump\t// out\n        /* \"contracts/Management.sol\":1623:1795  function getRight(address _subjectAddr, address _objectAddr) public view returns (string memory) {\r... */\n    tag_23:\n        /* \"contracts/Management.sol\":1705:1718  string memory */\n      0x60\n        /* \"contracts/Management.sol\":1738:1749  subjInfoMap */\n      0x01\n        /* \"contracts/Management.sol\":1738:1763  subjInfoMap[_subjectAddr] */\n      0x00\n        /* \"contracts/Management.sol\":1750:1762  _subjectAddr */\n      dup5\n        /* \"contracts/Management.sol\":1738:1763  subjInfoMap[_subjectAddr] */\n      0xffffffffffffffffffffffffffffffffffffffff\n      and\n      0xffffffffffffffffffffffffffffffffffffffff\n      and\n      dup2\n      mstore\n      0x20\n      add\n      swap1\n      dup2\n      mstore\n      0x20\n      add\n      0x00\n      keccak256\n        /* \"contracts/Management.sol\":1738:1774  subjInfoMap[_subjectAddr].rightTable */\n      0x02\n      add\n        /* \"contracts/Management.sol\":1738:1787  subjInfoMap[_subjectAddr].rightTable[_objectAddr] */\n      0x00\n        /* \"contracts/Management.sol\":1775:1786  _objectAddr */\n      dup4\n        /* \"contracts/Management.sol\":1738:1787  subjInfoMap[_subjectAddr].rightTable[_objectAddr] */\n      0xffffffffffffffffffffffffffffffffffffffff\n      and\n      0xffffffffffffffffffffffffffffffffffffffff\n      and\n      dup2\n      mstore\n      0x20\n      add\n      swap1\n      dup2\n      mstore\n      0x20\n      add\n      0x00\n      keccak256\n        /* \"contracts/Management.sol\":1731:1787  return subjInfoMap[_subjectAddr].rightTable[_objectAddr] */\n      dup1\n      sload\n      tag_55\n      swap1\n      tag_56\n      jump\t// in\n    tag_55:\n      dup1\n      0x1f\n      add\n      0x20\n      dup1\n      swap2\n      div\n      mul\n      0x20\n      add\n      mload(0x40)\n      swap1\n      dup2\n      add\n      0x40\n      mstore\n      dup1\n      swap3\n      swap2\n      swap1\n      dup2\n      dup2\n      mstore\n      0x20\n      add\n      dup3\n      dup1\n      sload\n      tag_57\n      swap1\n      tag_56\n      jump\t// in\n    tag_57:\n      dup1\n      iszero\n      tag_58\n      jumpi\n      dup1\n      0x1f\n      lt\n      tag_59\n      jumpi\n      0x0100\n      dup1\n      dup4\n      sload\n      div\n      mul\n      dup4\n      mstore\n      swap2\n      0x20\n      add\n      swap2\n      jump(tag_58)\n    tag_59:\n      dup3\n      add\n      swap2\n      swap1\n      0x00\n      mstore\n      keccak256(0x00, 0x20)\n      swap1\n    tag_60:\n      dup2\n      sload\n      dup2\n      mstore\n      swap1\n      0x01\n      add\n      swap1\n      0x20\n      add\n      dup1\n      dup4\n      gt\n      tag_60\n      jumpi\n      dup3\n      swap1\n      sub\n      0x1f\n      and\n      dup3\n      add\n      swap2\n    tag_58:\n      pop\n      pop\n      pop\n      pop\n      pop\n      swap1\n      pop\n        /* \"contracts/Management.sol\":1623:1795  function getRight(address _subjectAddr, address _objectAddr) public view returns (string memory) {\r... */\n      swap3\n      swap2\n      pop\n      pop\n      jump\t// out\n        /* \"contracts/Management.sol\":1803:2032  function getSubjInfo(address _subjectAddr) public view returns (string memory subjName, string memory ipAddr) {\r... */\n    tag_29:\n        /* \"contracts/Management.sol\":1867:1889  string memory subjName */\n      0x60\n        /* \"contracts/Management.sol\":1891:1911  string memory ipAddr */\n      dup1\n        /* \"contracts/Management.sol\":1935:1946  subjInfoMap */\n      0x01\n        /* \"contracts/Management.sol\":1935:1960  subjInfoMap[_subjectAddr] */\n      0x00\n        /* \"contracts/Management.sol\":1947:1959  _subjectAddr */\n      dup5\n        /* \"contracts/Management.sol\":1935:1960  subjInfoMap[_subjectAddr] */\n      0xffffffffffffffffffffffffffffffffffffffff\n      and\n      0xffffffffffffffffffffffffffffffffffffffff\n      and\n      dup2\n      mstore\n      0x20\n      add\n      swap1\n      dup2\n      mstore\n      0x20\n      add\n      0x00\n      keccak256\n        /* \"contracts/Management.sol\":1935:1972  subjInfoMap[_subjectAddr].subjectName */\n      0x01\n      add\n        /* \"contracts/Management.sol\":1924:1972  subjName = subjInfoMap[_subjectAddr].subjectName */\n      dup1\n      sload\n      tag_62\n      swap1\n      tag_56\n      jump\t// in\n    tag_62:\n      dup1\n      0x1f\n      add\n      0x20\n      dup1\n      swap2\n      div\n      mul\n      0x20\n      add\n      mload(0x40)\n      swap1\n      dup2\n      add\n      0x40\n      mstore\n      dup1\n      swap3\n      swap2\n      swap1\n      dup2\n      dup2\n      mstore\n      0x20\n      add\n      dup3\n      dup1\n      sload\n      tag_63\n      swap1\n      tag_56\n      jump\t// in\n    tag_63:\n      dup1\n      iszero\n      tag_64\n      jumpi\n      dup1\n      0x1f\n      lt\n      tag_65\n      jumpi\n      0x0100\n      dup1\n      dup4\n      sload\n      div\n      mul\n      dup4\n      mstore\n      swap2\n      0x20\n      add\n      swap2\n      jump(tag_64)\n    tag_65:\n      dup3\n      add\n      swap2\n      swap1\n      0x00\n      mstore\n      keccak256(0x00, 0x20)\n      swap1\n    tag_66:\n      dup2\n      sload\n      dup2\n      mstore\n      swap1\n      0x01\n      add\n      swap1\n      0x20\n      add\n      dup1\n      dup4\n      gt\n      tag_66\n      jumpi\n      dup3\n      swap1\n      sub\n      0x1f\n      and\n      dup3\n      add\n      swap2\n    tag_64:\n      pop\n      pop\n      pop\n      pop\n      pop\n      swap2\n      pop\n        /* \"contracts/Management.sol\":1992:2003  subjInfoMap */\n      0x01\n        /* \"contracts/Management.sol\":1992:2017  subjInfoMap[_subjectAddr] */\n      0x00\n        /* \"contracts/Management.sol\":2004:2016  _subjectAddr */\n      dup5\n        /* \"contracts/Management.sol\":1992:2017  subjInfoMap[_subjectAddr] */\n      0xffffffffffffffffffffffffffffffffffffffff\n      and\n      0xffffffffffffffffffffffffffffffffffffffff\n      and\n      dup2\n      mstore\n      0x20\n      add\n      swap1\n      dup2\n      mstore\n      0x20\n      add\n      0x00\n      keccak256\n        /* \"contracts/Management.sol\":1992:2024  subjInfoMap[_subjectAddr].ipAddr */\n      0x03\n      add\n        /* \"contracts/Management.sol\":1983:2024  ipAddr = subjInfoMap[_subjectAddr].ipAddr */\n      dup1\n      sload\n      tag_67\n      swap1\n      tag_56\n      jump\t// in\n    tag_67:\n      dup1\n      0x1f\n      add\n      0x20\n      dup1\n      swap2\n      div\n      mul\n      0x20\n      add\n      mload(0x40)\n      swap1\n      dup2\n      add\n      0x40\n      mstore\n      dup1\n      swap3\n      swap2\n      swap1\n      dup2\n      dup2\n      mstore\n      0x20\n      add\n      dup3\n      dup1\n      sload\n      tag_68\n      swap1\n      tag_56\n      jump\t// in\n    tag_68:\n      dup1\n      iszero\n      tag_69\n      jumpi\n      dup1\n      0x1f\n      lt\n      tag_70\n      jumpi\n      0x0100\n      dup1\n      dup4\n      sload\n      div\n      mul\n      dup4\n      mstore\n      swap2\n      0x20\n      add\n      swap2\n      jump(tag_69)\n    tag_70:\n      dup3\n      add\n      swap2\n      swap1\n      0x00\n      mstore\n      keccak256(0x00, 0x20)\n      swap1\n    tag_71:\n      dup2\n      sload\n      dup2\n      mstore\n      swap1\n      0x01\n      add\n      swap1\n      0x20\n      add\n      dup1\n      dup4\n      gt\n      tag_71\n      jumpi\n      dup3\n      swap1\n      sub\n      0x1f\n      and\n      dup3\n      add\n      swap2\n    tag_69:\n      pop\n      pop\n      pop\n      pop\n      pop\n      swap1\n      pop\n        /* \"contracts/Management.sol\":1803:2032  function getSubjInfo(address _subjectAddr) public view returns (string memory subjName, string memory ipAddr) {\r... */\n      swap2\n      pop\n      swap2\n      jump\t// out\n        /* \"contracts/Management.sol\":527:574  mapping(address => SubjInfo) public subjInfoMap */\n    tag_34:\n      mstore(0x20, 0x01)\n      dup1\n      0x00\n      mstore\n      keccak256(0x00, 0x40)\n      0x00\n      swap2\n      pop\n      swap1\n      pop\n      dup1\n      0x00\n      add\n      0x00\n      swap1\n      sload\n      swap1\n      0x0100\n      exp\n      swap1\n      div\n      0xffffffffffffffffffffffffffffffffffffffff\n      and\n      swap1\n      dup1\n      0x01\n      add\n      dup1\n      sload\n      tag_72\n      swap1\n      tag_56\n      jump\t// in\n    tag_72:\n      dup1\n      0x1f\n      add\n      0x20\n      dup1\n      swap2\n      div\n      mul\n      0x20\n      add\n      mload(0x40)\n      swap1\n      dup2\n      add\n      0x40\n      mstore\n      dup1\n      swap3\n      swap2\n      swap1\n      dup2\n      dup2\n      mstore\n      0x20\n      add\n      dup3\n      dup1\n      sload\n      tag_73\n      swap1\n      tag_56\n      jump\t// in\n    tag_73:\n      dup1\n      iszero\n      tag_74\n      jumpi\n      dup1\n      0x1f\n      lt\n      tag_75\n      jumpi\n      0x0100\n      dup1\n      dup4\n      sload\n      div\n      mul\n      dup4\n      mstore\n      swap2\n      0x20\n      add\n      swap2\n      jump(tag_74)\n    tag_75:\n      dup3\n      add\n      swap2\n      swap1\n      0x00\n      mstore\n      keccak256(0x00, 0x20)\n      swap1\n    tag_76:\n      dup2\n      sload\n      dup2\n      mstore\n      swap1\n      0x01\n      add\n      swap1\n      0x20\n      add\n      dup1\n      dup4\n      gt\n      tag_76\n      jumpi\n      dup3\n      swap1\n      sub\n      0x1f\n      and\n      dup3\n      add\n      swap2\n    tag_74:\n      pop\n      pop\n      pop\n      pop\n      pop\n      swap1\n      dup1\n      0x03\n      add\n      dup1\n      sload\n      tag_77\n      swap1\n      tag_56\n      jump\t// in\n    tag_77:\n      dup1\n      0x1f\n      add\n      0x20\n      dup1\n      swap2\n      div\n      mul\n      0x20\n      add\n      mload(0x40)\n      swap1\n      dup2\n      add\n      0x40\n      mstore\n      dup1\n      swap3\n      swap2\n      swap1\n      dup2\n      dup2\n      mstore\n      0x20\n      add\n      dup3\n      dup1\n      sload\n      tag_78\n      swap1\n      tag_56\n      jump\t// in\n    tag_78:\n      dup1\n      iszero\n      tag_79\n      jumpi\n      dup1\n      0x1f\n      lt\n      tag_80\n      jumpi\n      0x0100\n      dup1\n      dup4\n      sload\n      div\n      mul\n      dup4\n      mstore\n      swap2\n      0x20\n      add\n      swap2\n      jump(tag_79)\n    tag_80:\n      dup3\n      add\n      swap2\n      swap1\n      0x00\n      mstore\n      keccak256(0x00, 0x20)\n      swap1\n    tag_81:\n      dup2\n      sload\n      dup2\n      mstore\n      swap1\n      0x01\n      add\n      swap1\n      0x20\n      add\n      dup1\n      dup4\n      gt\n      tag_81\n      jumpi\n      dup3\n      swap1\n      sub\n      0x1f\n      and\n      dup3\n      add\n      swap2\n    tag_79:\n      pop\n      pop\n      pop\n      pop\n      pop\n      swap1\n      pop\n      dup4\n      jump\t// out\n        /* \"contracts/Management.sol\":890:1020  function getDeviceInfoByAddr(address _addr) public view returns (DeviceInfo memory) {\r... */\n    tag_39:\n        /* \"contracts/Management.sol\":955:972  DeviceInfo memory */\n      tag_82\n      tag_83\n      jump\t// in\n    tag_82:\n        /* \"contracts/Management.sol\":992:1005  deviceInfoMap */\n      0x00\n        /* \"contracts/Management.sol\":992:1012  deviceInfoMap[_addr] */\n      dup1\n        /* \"contracts/Management.sol\":1006:1011  _addr */\n      dup4\n        /* \"contracts/Management.sol\":992:1012  deviceInfoMap[_addr] */\n      0xffffffffffffffffffffffffffffffffffffffff\n      and\n      0xffffffffffffffffffffffffffffffffffffffff\n      and\n      dup2\n      mstore\n      0x20\n      add\n      swap1\n      dup2\n      mstore\n      0x20\n      add\n      0x00\n      keccak256\n        /* \"contracts/Management.sol\":985:1012  return deviceInfoMap[_addr] */\n      mload(0x40)\n      dup1\n      0x60\n      add\n      0x40\n      mstore\n      swap1\n      dup2\n      0x00\n      dup3\n      add\n      0x00\n      swap1\n      sload\n      swap1\n      0x0100\n      exp\n      swap1\n      div\n      0xffffffffffffffffffffffffffffffffffffffff\n      and\n      0xffffffffffffffffffffffffffffffffffffffff\n      and\n      0xffffffffffffffffffffffffffffffffffffffff\n      and\n      dup2\n      mstore\n      0x20\n      add\n      0x01\n      dup3\n      add\n      dup1\n      sload\n      tag_85\n      swap1\n      tag_56\n      jump\t// in\n    tag_85:\n      dup1\n      0x1f\n      add\n      0x20\n      dup1\n      swap2\n      div\n      mul\n      0x20\n      add\n      mload(0x40)\n      swap1\n      dup2\n      add\n      0x40\n      mstore\n      dup1\n      swap3\n      swap2\n      swap1\n      dup2\n      dup2\n      mstore\n      0x20\n      add\n      dup3\n      dup1\n      sload\n      tag_86\n      swap1\n      tag_56\n      jump\t// in\n    tag_86:\n      dup1\n      iszero\n      tag_87\n      jumpi\n      dup1\n      0x1f\n      lt\n      tag_88\n      jumpi\n      0x0100\n      dup1\n      dup4\n      sload\n      div\n      mul\n      dup4\n      mstore\n      swap2\n      0x20\n      add\n      swap2\n      jump(tag_87)\n    tag_88:\n      dup3\n      add\n      swap2\n      swap1\n      0x00\n      mstore\n      keccak256(0x00, 0x20)\n      swap1\n    tag_89:\n      dup2\n      sload\n      dup2\n      mstore\n      swap1\n      0x01\n      add\n      swap1\n      0x20\n      add\n      dup1\n      dup4\n      gt\n      tag_89\n      jumpi\n      dup3\n      swap1\n      sub\n      0x1f\n      and\n      dup3\n      add\n      swap2\n    tag_87:\n      pop\n      pop\n      pop\n      pop\n      pop\n      dup2\n      mstore\n      0x20\n      add\n      0x02\n      dup3\n      add\n      dup1\n      sload\n      tag_90\n      swap1\n      tag_56\n      jump\t// in\n    tag_90:\n      dup1\n      0x1f\n      add\n      0x20\n      dup1\n      swap2\n      div\n      mul\n      0x20\n      add\n      mload(0x40)\n      swap1\n      dup2\n      add\n      0x40\n      mstore\n      dup1\n      swap3\n      swap2\n      swap1\n      dup2\n      dup2\n      mstore\n      0x20\n      add\n      dup3\n      dup1\n      sload\n      tag_91\n      swap1\n      tag_56\n      jump\t// in\n    tag_91:\n      dup1\n      iszero\n      tag_92\n      jumpi\n      dup1\n      0x1f\n      lt\n      tag_93\n      jumpi\n      0x0100\n      dup1\n      dup4\n      sload\n      div\n      mul\n      dup4\n      mstore\n      swap2\n      0x20\n      add\n      swap2\n      jump(tag_92)\n    tag_93:\n      dup3\n      add\n      swap2\n      swap1\n      0x00\n      mstore\n      keccak256(0x00, 0x20)\n      swap1\n    tag_94:\n      dup2\n      sload\n      dup2\n      mstore\n      swap1\n      0x01\n      add\n      swap1\n      0x20\n      add\n      dup1\n      dup4\n      gt\n      tag_94\n      jumpi\n      dup3\n      swap1\n      sub\n      0x1f\n      and\n      dup3\n      add\n      swap2\n    tag_92:\n      pop\n      pop\n      pop\n      pop\n      pop\n      dup2\n      mstore\n      pop\n      pop\n      swap1\n      pop\n        /* \"contracts/Management.sol\":890:1020  function getDeviceInfoByAddr(address _addr) public view returns (DeviceInfo memory) {\r... */\n      swap2\n      swap1\n      pop\n      jump\t// out\n        /* \"contracts/Management.sol\":2067:2351  function init() public {\r... */\n    tag_43:\n        /* \"contracts/Management.sol\":2101:2177  setDeviceInfo(0xb4d18d483b641200Aa096558C9bA63aeb243002b, \"d1\", \"lightning\") */\n      tag_96\n        /* \"contracts/Management.sol\":2115:2157  0xb4d18d483b641200Aa096558C9bA63aeb243002b */\n      0xb4d18d483b641200aa096558c9ba63aeb243002b\n        /* \"contracts/Management.sol\":2101:2177  setDeviceInfo(0xb4d18d483b641200Aa096558C9bA63aeb243002b, \"d1\", \"lightning\") */\n      mload(0x40)\n      dup1\n      0x40\n      add\n      0x40\n      mstore\n      dup1\n      0x02\n      dup2\n      mstore\n      0x20\n      add\n      0x6431000000000000000000000000000000000000000000000000000000000000\n      dup2\n      mstore\n      pop\n      mload(0x40)\n      dup1\n      0x40\n      add\n      0x40\n      mstore\n      dup1\n      0x09\n      dup2\n      mstore\n      0x20\n      add\n      0x6c696768746e696e670000000000000000000000000000000000000000000000\n      dup2\n      mstore\n      pop\n        /* \"contracts/Management.sol\":2101:2114  setDeviceInfo */\n      tag_19\n        /* \"contracts/Management.sol\":2101:2177  setDeviceInfo(0xb4d18d483b641200Aa096558C9bA63aeb243002b, \"d1\", \"lightning\") */\n      jump\t// in\n    tag_96:\n        /* \"contracts/Management.sol\":2188:2259  setDeviceInfo(0xfF5d2fe96548E05E49C67FcC36C7dBecA2f501f2, \"d2\", \"grid\") */\n      tag_97\n        /* \"contracts/Management.sol\":2202:2244  0xfF5d2fe96548E05E49C67FcC36C7dBecA2f501f2 */\n      0xff5d2fe96548e05e49c67fcc36c7dbeca2f501f2\n        /* \"contracts/Management.sol\":2188:2259  setDeviceInfo(0xfF5d2fe96548E05E49C67FcC36C7dBecA2f501f2, \"d2\", \"grid\") */\n      mload(0x40)\n      dup1\n      0x40\n      add\n      0x40\n      mstore\n      dup1\n      0x02\n      dup2\n      mstore\n      0x20\n      add\n      0x6432000000000000000000000000000000000000000000000000000000000000\n      dup2\n      mstore\n      pop\n      mload(0x40)\n      dup1\n      0x40\n      add\n      0x40\n      mstore\n      dup1\n      0x04\n      dup2\n      mstore\n      0x20\n      add\n      0x6772696400000000000000000000000000000000000000000000000000000000\n      dup2\n      mstore\n      pop\n        /* \"contracts/Management.sol\":2188:2201  setDeviceInfo */\n      tag_19\n        /* \"contracts/Management.sol\":2188:2259  setDeviceInfo(0xfF5d2fe96548E05E49C67FcC36C7dBecA2f501f2, \"d2\", \"grid\") */\n      jump\t// in\n    tag_97:\n        /* \"contracts/Management.sol\":2270:2343  setDeviceInfo(0xbE7186f383961Cc24Ad8012A2F2942667a72788F, \"d3\", \"router\") */\n      tag_98\n        /* \"contracts/Management.sol\":2284:2326  0xbE7186f383961Cc24Ad8012A2F2942667a72788F */\n      0xbe7186f383961cc24ad8012a2f2942667a72788f\n        /* \"contracts/Management.sol\":2270:2343  setDeviceInfo(0xbE7186f383961Cc24Ad8012A2F2942667a72788F, \"d3\", \"router\") */\n      mload(0x40)\n      dup1\n      0x40\n      add\n      0x40\n      mstore\n      dup1\n      0x02\n      dup2\n      mstore\n      0x20\n      add\n      0x6433000000000000000000000000000000000000000000000000000000000000\n      dup2\n      mstore\n      pop\n      mload(0x40)\n      dup1\n      0x40\n      add\n      0x40\n      mstore\n      dup1\n      0x06\n      dup2\n      mstore\n      0x20\n      add\n      0x726f757465720000000000000000000000000000000000000000000000000000\n      dup2\n      mstore\n      pop\n        /* \"contracts/Management.sol\":2270:2283  setDeviceInfo */\n      tag_19\n        /* \"contracts/Management.sol\":2270:2343  setDeviceInfo(0xbE7186f383961Cc24Ad8012A2F2942667a72788F, \"d3\", \"router\") */\n      jump\t// in\n    tag_98:\n        /* \"contracts/Management.sol\":2067:2351  function init() public {\r... */\n      jump\t// out\n        /* \"contracts/Management.sol\":1028:1338  function setSubjInfo(string memory _subjectName, string memory _ipAddr) public {\r... */\n    tag_47:\n        /* \"contracts/Management.sol\":1118:1138  address _subjectAddr */\n      0x00\n        /* \"contracts/Management.sol\":1141:1151  msg.sender */\n      caller\n        /* \"contracts/Management.sol\":1118:1151  address _subjectAddr = msg.sender */\n      swap1\n      pop\n        /* \"contracts/Management.sol\":1202:1214  _subjectAddr */\n      dup1\n        /* \"contracts/Management.sol\":1162:1173  subjInfoMap */\n      0x01\n        /* \"contracts/Management.sol\":1162:1187  subjInfoMap[_subjectAddr] */\n      0x00\n        /* \"contracts/Management.sol\":1174:1186  _subjectAddr */\n      dup4\n        /* \"contracts/Management.sol\":1162:1187  subjInfoMap[_subjectAddr] */\n      0xffffffffffffffffffffffffffffffffffffffff\n      and\n      0xffffffffffffffffffffffffffffffffffffffff\n      and\n      dup2\n      mstore\n      0x20\n      add\n      swap1\n      dup2\n      mstore\n      0x20\n      add\n      0x00\n      keccak256\n        /* \"contracts/Management.sol\":1162:1199  subjInfoMap[_subjectAddr].subjectAddr */\n      0x00\n      add\n      0x00\n        /* \"contracts/Management.sol\":1162:1214  subjInfoMap[_subjectAddr].subjectAddr = _subjectAddr */\n      0x0100\n      exp\n      dup2\n      sload\n      dup2\n      0xffffffffffffffffffffffffffffffffffffffff\n      mul\n      not\n      and\n      swap1\n      dup4\n      0xffffffffffffffffffffffffffffffffffffffff\n      and\n      mul\n      or\n      swap1\n      sstore\n      pop\n        /* \"contracts/Management.sol\":1265:1277  _subjectName */\n      dup3\n        /* \"contracts/Management.sol\":1225:1236  subjInfoMap */\n      0x01\n        /* \"contracts/Management.sol\":1225:1250  subjInfoMap[_subjectAddr] */\n      0x00\n        /* \"contracts/Management.sol\":1237:1249  _subjectAddr */\n      dup4\n        /* \"contracts/Management.sol\":1225:1250  subjInfoMap[_subjectAddr] */\n      0xffffffffffffffffffffffffffffffffffffffff\n      and\n      0xffffffffffffffffffffffffffffffffffffffff\n      and\n      dup2\n      mstore\n      0x20\n      add\n      swap1\n      dup2\n      mstore\n      0x20\n      add\n      0x00\n      keccak256\n        /* \"contracts/Management.sol\":1225:1262  subjInfoMap[_subjectAddr].subjectName */\n      0x01\n      add\n        /* \"contracts/Management.sol\":1225:1277  subjInfoMap[_subjectAddr].subjectName = _subjectName */\n      swap1\n      dup1\n      mload\n      swap1\n      0x20\n      add\n      swap1\n      tag_100\n      swap3\n      swap2\n      swap1\n      tag_50\n      jump\t// in\n    tag_100:\n      pop\n        /* \"contracts/Management.sol\":1323:1330  _ipAddr */\n      dup2\n        /* \"contracts/Management.sol\":1288:1299  subjInfoMap */\n      0x01\n        /* \"contracts/Management.sol\":1288:1313  subjInfoMap[_subjectAddr] */\n      0x00\n        /* \"contracts/Management.sol\":1300:1312  _subjectAddr */\n      dup4\n        /* \"contracts/Management.sol\":1288:1313  subjInfoMap[_subjectAddr] */\n      0xffffffffffffffffffffffffffffffffffffffff\n      and\n      0xffffffffffffffffffffffffffffffffffffffff\n      and\n      dup2\n      mstore\n      0x20\n      add\n      swap1\n      dup2\n      mstore\n      0x20\n      add\n      0x00\n      keccak256\n        /* \"contracts/Management.sol\":1288:1320  subjInfoMap[_subjectAddr].ipAddr */\n      0x03\n      add\n        /* \"contracts/Management.sol\":1288:1330  subjInfoMap[_subjectAddr].ipAddr = _ipAddr */\n      swap1\n      dup1\n      mload\n      swap1\n      0x20\n      add\n      swap1\n      tag_101\n      swap3\n      swap2\n      swap1\n      tag_50\n      jump\t// in\n    tag_101:\n      pop\n        /* \"contracts/Management.sol\":1107:1338  {\r... */\n      pop\n        /* \"contracts/Management.sol\":1028:1338  function setSubjInfo(string memory _subjectName, string memory _ipAddr) public {\r... */\n      pop\n      pop\n      jump\t// out\n    tag_50:\n      dup3\n      dup1\n      sload\n      tag_102\n      swap1\n      tag_56\n      jump\t// in\n    tag_102:\n      swap1\n      0x00\n      mstore\n      keccak256(0x00, 0x20)\n      swap1\n      0x1f\n      add\n      0x20\n      swap1\n      div\n      dup2\n      add\n      swap3\n      dup3\n      tag_104\n      jumpi\n      0x00\n      dup6\n      sstore\n      jump(tag_103)\n    tag_104:\n      dup3\n      0x1f\n      lt\n      tag_105\n      jumpi\n      dup1\n      mload\n      not(0xff)\n      and\n      dup4\n      dup1\n      add\n      or\n      dup6\n      sstore\n      jump(tag_103)\n    tag_105:\n      dup3\n      dup1\n      add\n      0x01\n      add\n      dup6\n      sstore\n      dup3\n      iszero\n      tag_103\n      jumpi\n      swap2\n      dup3\n      add\n    tag_106:\n      dup3\n      dup2\n      gt\n      iszero\n      tag_107\n      jumpi\n      dup3\n      mload\n      dup3\n      sstore\n      swap2\n      0x20\n      add\n      swap2\n      swap1\n      0x01\n      add\n      swap1\n      jump(tag_106)\n    tag_107:\n    tag_103:\n      pop\n      swap1\n      pop\n      tag_108\n      swap2\n      swap1\n      tag_109\n      jump\t// in\n    tag_108:\n      pop\n      swap1\n      jump\t// out\n    tag_83:\n      mload(0x40)\n      dup1\n      0x60\n      add\n      0x40\n      mstore\n      dup1\n      and(0xffffffffffffffffffffffffffffffffffffffff, 0x00)\n      dup2\n      mstore\n      0x20\n      add\n      0x60\n      dup2\n      mstore\n      0x20\n      add\n      0x60\n      dup2\n      mstore\n      pop\n      swap1\n      jump\t// out\n    tag_109:\n    tag_110:\n      dup1\n      dup3\n      gt\n      iszero\n      tag_111\n      jumpi\n      0x00\n      dup2\n      0x00\n      swap1\n      sstore\n      pop\n      0x01\n      add\n      jump(tag_110)\n    tag_111:\n      pop\n      swap1\n      jump\t// out\n        /* \"#utility.yul\":7:419   */\n    tag_113:\n        /* \"#utility.yul\":85:90   */\n      0x00\n        /* \"#utility.yul\":110:176   */\n      tag_115\n        /* \"#utility.yul\":126:175   */\n      tag_116\n        /* \"#utility.yul\":168:174   */\n      dup5\n        /* \"#utility.yul\":126:175   */\n      tag_117\n      jump\t// in\n    tag_116:\n        /* \"#utility.yul\":110:176   */\n      tag_118\n      jump\t// in\n    tag_115:\n        /* \"#utility.yul\":101:176   */\n      swap1\n      pop\n        /* \"#utility.yul\":199:205   */\n      dup3\n        /* \"#utility.yul\":192:197   */\n      dup2\n        /* \"#utility.yul\":185:206   */\n      mstore\n        /* \"#utility.yul\":237:241   */\n      0x20\n        /* \"#utility.yul\":230:235   */\n      dup2\n        /* \"#utility.yul\":226:242   */\n      add\n        /* \"#utility.yul\":275:278   */\n      dup5\n        /* \"#utility.yul\":266:272   */\n      dup5\n        /* \"#utility.yul\":261:264   */\n      dup5\n        /* \"#utility.yul\":257:273   */\n      add\n        /* \"#utility.yul\":254:279   */\n      gt\n        /* \"#utility.yul\":251:363   */\n      iszero\n      tag_119\n      jumpi\n        /* \"#utility.yul\":282:361   */\n      tag_120\n      tag_121\n      jump\t// in\n    tag_120:\n        /* \"#utility.yul\":251:363   */\n    tag_119:\n        /* \"#utility.yul\":372:413   */\n      tag_122\n        /* \"#utility.yul\":406:412   */\n      dup5\n        /* \"#utility.yul\":401:404   */\n      dup3\n        /* \"#utility.yul\":396:399   */\n      dup6\n        /* \"#utility.yul\":372:413   */\n      tag_123\n      jump\t// in\n    tag_122:\n        /* \"#utility.yul\":91:419   */\n      pop\n        /* \"#utility.yul\":7:419   */\n      swap4\n      swap3\n      pop\n      pop\n      pop\n      jump\t// out\n        /* \"#utility.yul\":425:564   */\n    tag_124:\n        /* \"#utility.yul\":471:476   */\n      0x00\n        /* \"#utility.yul\":509:515   */\n      dup2\n        /* \"#utility.yul\":496:516   */\n      calldataload\n        /* \"#utility.yul\":487:516   */\n      swap1\n      pop\n        /* \"#utility.yul\":525:558   */\n      tag_126\n        /* \"#utility.yul\":552:557   */\n      dup2\n        /* \"#utility.yul\":525:558   */\n      tag_127\n      jump\t// in\n    tag_126:\n        /* \"#utility.yul\":425:564   */\n      swap3\n      swap2\n      pop\n      pop\n      jump\t// out\n        /* \"#utility.yul\":584:924   */\n    tag_128:\n        /* \"#utility.yul\":640:645   */\n      0x00\n        /* \"#utility.yul\":689:692   */\n      dup3\n        /* \"#utility.yul\":682:686   */\n      0x1f\n        /* \"#utility.yul\":674:680   */\n      dup4\n        /* \"#utility.yul\":670:687   */\n      add\n        /* \"#utility.yul\":666:693   */\n      slt\n        /* \"#utility.yul\":656:778   */\n      tag_130\n      jumpi\n        /* \"#utility.yul\":697:776   */\n      tag_131\n      tag_132\n      jump\t// in\n    tag_131:\n        /* \"#utility.yul\":656:778   */\n    tag_130:\n        /* \"#utility.yul\":814:820   */\n      dup2\n        /* \"#utility.yul\":801:821   */\n      calldataload\n        /* \"#utility.yul\":839:918   */\n      tag_133\n        /* \"#utility.yul\":914:917   */\n      dup5\n        /* \"#utility.yul\":906:912   */\n      dup3\n        /* \"#utility.yul\":899:903   */\n      0x20\n        /* \"#utility.yul\":891:897   */\n      dup7\n        /* \"#utility.yul\":887:904   */\n      add\n        /* \"#utility.yul\":839:918   */\n      tag_113\n      jump\t// in\n    tag_133:\n        /* \"#utility.yul\":830:918   */\n      swap2\n      pop\n        /* \"#utility.yul\":646:924   */\n      pop\n        /* \"#utility.yul\":584:924   */\n      swap3\n      swap2\n      pop\n      pop\n      jump\t// out\n        /* \"#utility.yul\":930:1259   */\n    tag_28:\n        /* \"#utility.yul\":989:995   */\n      0x00\n        /* \"#utility.yul\":1038:1040   */\n      0x20\n        /* \"#utility.yul\":1026:1035   */\n      dup3\n        /* \"#utility.yul\":1017:1024   */\n      dup5\n        /* \"#utility.yul\":1013:1036   */\n      sub\n        /* \"#utility.yul\":1009:1041   */\n      slt\n        /* \"#utility.yul\":1006:1125   */\n      iszero\n      tag_135\n      jumpi\n        /* \"#utility.yul\":1044:1123   */\n      tag_136\n      tag_137\n      jump\t// in\n    tag_136:\n        /* \"#utility.yul\":1006:1125   */\n    tag_135:\n        /* \"#utility.yul\":1164:1165   */\n      0x00\n        /* \"#utility.yul\":1189:1242   */\n      tag_138\n        /* \"#utility.yul\":1234:1241   */\n      dup5\n        /* \"#utility.yul\":1225:1231   */\n      dup3\n        /* \"#utility.yul\":1214:1223   */\n      dup6\n        /* \"#utility.yul\":1210:1232   */\n      add\n        /* \"#utility.yul\":1189:1242   */\n      tag_124\n      jump\t// in\n    tag_138:\n        /* \"#utility.yul\":1179:1242   */\n      swap2\n      pop\n        /* \"#utility.yul\":1135:1252   */\n      pop\n        /* \"#utility.yul\":930:1259   */\n      swap3\n      swap2\n      pop\n      pop\n      jump\t// out\n        /* \"#utility.yul\":1265:1739   */\n    tag_22:\n        /* \"#utility.yul\":1333:1339   */\n      0x00\n        /* \"#utility.yul\":1341:1347   */\n      dup1\n        /* \"#utility.yul\":1390:1392   */\n      0x40\n        /* \"#utility.yul\":1378:1387   */\n      dup4\n        /* \"#utility.yul\":1369:1376   */\n      dup6\n        /* \"#utility.yul\":1365:1388   */\n      sub\n        /* \"#utility.yul\":1361:1393   */\n      slt\n        /* \"#utility.yul\":1358:1477   */\n      iszero\n      tag_140\n      jumpi\n        /* \"#utility.yul\":1396:1475   */\n      tag_141\n      tag_137\n      jump\t// in\n    tag_141:\n        /* \"#utility.yul\":1358:1477   */\n    tag_140:\n        /* \"#utility.yul\":1516:1517   */\n      0x00\n        /* \"#utility.yul\":1541:1594   */\n      tag_142\n        /* \"#utility.yul\":1586:1593   */\n      dup6\n        /* \"#utility.yul\":1577:1583   */\n      dup3\n        /* \"#utility.yul\":1566:1575   */\n      dup7\n        /* \"#utility.yul\":1562:1584   */\n      add\n        /* \"#utility.yul\":1541:1594   */\n      tag_124\n      jump\t// in\n    tag_142:\n        /* \"#utility.yul\":1531:1594   */\n      swap3\n      pop\n        /* \"#utility.yul\":1487:1604   */\n      pop\n        /* \"#utility.yul\":1643:1645   */\n      0x20\n        /* \"#utility.yul\":1669:1722   */\n      tag_143\n        /* \"#utility.yul\":1714:1721   */\n      dup6\n        /* \"#utility.yul\":1705:1711   */\n      dup3\n        /* \"#utility.yul\":1694:1703   */\n      dup7\n        /* \"#utility.yul\":1690:1712   */\n      add\n        /* \"#utility.yul\":1669:1722   */\n      tag_124\n      jump\t// in\n    tag_143:\n        /* \"#utility.yul\":1659:1722   */\n      swap2\n      pop\n        /* \"#utility.yul\":1614:1732   */\n      pop\n        /* \"#utility.yul\":1265:1739   */\n      swap3\n      pop\n      swap3\n      swap1\n      pop\n      jump\t// out\n        /* \"#utility.yul\":1745:2399   */\n    tag_14:\n        /* \"#utility.yul\":1823:1829   */\n      0x00\n        /* \"#utility.yul\":1831:1837   */\n      dup1\n        /* \"#utility.yul\":1880:1882   */\n      0x40\n        /* \"#utility.yul\":1868:1877   */\n      dup4\n        /* \"#utility.yul\":1859:1866   */\n      dup6\n        /* \"#utility.yul\":1855:1878   */\n      sub\n        /* \"#utility.yul\":1851:1883   */\n      slt\n        /* \"#utility.yul\":1848:1967   */\n      iszero\n      tag_145\n      jumpi\n        /* \"#utility.yul\":1886:1965   */\n      tag_146\n      tag_137\n      jump\t// in\n    tag_146:\n        /* \"#utility.yul\":1848:1967   */\n    tag_145:\n        /* \"#utility.yul\":2006:2007   */\n      0x00\n        /* \"#utility.yul\":2031:2084   */\n      tag_147\n        /* \"#utility.yul\":2076:2083   */\n      dup6\n        /* \"#utility.yul\":2067:2073   */\n      dup3\n        /* \"#utility.yul\":2056:2065   */\n      dup7\n        /* \"#utility.yul\":2052:2074   */\n      add\n        /* \"#utility.yul\":2031:2084   */\n      tag_124\n      jump\t// in\n    tag_147:\n        /* \"#utility.yul\":2021:2084   */\n      swap3\n      pop\n        /* \"#utility.yul\":1977:2094   */\n      pop\n        /* \"#utility.yul\":2161:2163   */\n      0x20\n        /* \"#utility.yul\":2150:2159   */\n      dup4\n        /* \"#utility.yul\":2146:2164   */\n      add\n        /* \"#utility.yul\":2133:2165   */\n      calldataload\n        /* \"#utility.yul\":2192:2210   */\n      0xffffffffffffffff\n        /* \"#utility.yul\":2184:2190   */\n      dup2\n        /* \"#utility.yul\":2181:2211   */\n      gt\n        /* \"#utility.yul\":2178:2295   */\n      iszero\n      tag_148\n      jumpi\n        /* \"#utility.yul\":2214:2293   */\n      tag_149\n      tag_150\n      jump\t// in\n    tag_149:\n        /* \"#utility.yul\":2178:2295   */\n    tag_148:\n        /* \"#utility.yul\":2319:2382   */\n      tag_151\n        /* \"#utility.yul\":2374:2381   */\n      dup6\n        /* \"#utility.yul\":2365:2371   */\n      dup3\n        /* \"#utility.yul\":2354:2363   */\n      dup7\n        /* \"#utility.yul\":2350:2372   */\n      add\n        /* \"#utility.yul\":2319:2382   */\n      tag_128\n      jump\t// in\n    tag_151:\n        /* \"#utility.yul\":2309:2382   */\n      swap2\n      pop\n        /* \"#utility.yul\":2104:2392   */\n      pop\n        /* \"#utility.yul\":1745:2399   */\n      swap3\n      pop\n      swap3\n      swap1\n      pop\n      jump\t// out\n        /* \"#utility.yul\":2405:3384   */\n    tag_18:\n        /* \"#utility.yul\":2502:2508   */\n      0x00\n        /* \"#utility.yul\":2510:2516   */\n      dup1\n        /* \"#utility.yul\":2518:2524   */\n      0x00\n        /* \"#utility.yul\":2567:2569   */\n      0x60\n        /* \"#utility.yul\":2555:2564   */\n      dup5\n        /* \"#utility.yul\":2546:2553   */\n      dup7\n        /* \"#utility.yul\":2542:2565   */\n      sub\n        /* \"#utility.yul\":2538:2570   */\n      slt\n        /* \"#utility.yul\":2535:2654   */\n      iszero\n      tag_153\n      jumpi\n        /* \"#utility.yul\":2573:2652   */\n      tag_154\n      tag_137\n      jump\t// in\n    tag_154:\n        /* \"#utility.yul\":2535:2654   */\n    tag_153:\n        /* \"#utility.yul\":2693:2694   */\n      0x00\n        /* \"#utility.yul\":2718:2771   */\n      tag_155\n        /* \"#utility.yul\":2763:2770   */\n      dup7\n        /* \"#utility.yul\":2754:2760   */\n      dup3\n        /* \"#utility.yul\":2743:2752   */\n      dup8\n        /* \"#utility.yul\":2739:2761   */\n      add\n        /* \"#utility.yul\":2718:2771   */\n      tag_124\n      jump\t// in\n    tag_155:\n        /* \"#utility.yul\":2708:2771   */\n      swap4\n      pop\n        /* \"#utility.yul\":2664:2781   */\n      pop\n        /* \"#utility.yul\":2848:2850   */\n      0x20\n        /* \"#utility.yul\":2837:2846   */\n      dup5\n        /* \"#utility.yul\":2833:2851   */\n      add\n        /* \"#utility.yul\":2820:2852   */\n      calldataload\n        /* \"#utility.yul\":2879:2897   */\n      0xffffffffffffffff\n        /* \"#utility.yul\":2871:2877   */\n      dup2\n        /* \"#utility.yul\":2868:2898   */\n      gt\n        /* \"#utility.yul\":2865:2982   */\n      iszero\n      tag_156\n      jumpi\n        /* \"#utility.yul\":2901:2980   */\n      tag_157\n      tag_150\n      jump\t// in\n    tag_157:\n        /* \"#utility.yul\":2865:2982   */\n    tag_156:\n        /* \"#utility.yul\":3006:3069   */\n      tag_158\n        /* \"#utility.yul\":3061:3068   */\n      dup7\n        /* \"#utility.yul\":3052:3058   */\n      dup3\n        /* \"#utility.yul\":3041:3050   */\n      dup8\n        /* \"#utility.yul\":3037:3059   */\n      add\n        /* \"#utility.yul\":3006:3069   */\n      tag_128\n      jump\t// in\n    tag_158:\n        /* \"#utility.yul\":2996:3069   */\n      swap3\n      pop\n        /* \"#utility.yul\":2791:3079   */\n      pop\n        /* \"#utility.yul\":3146:3148   */\n      0x40\n        /* \"#utility.yul\":3135:3144   */\n      dup5\n        /* \"#utility.yul\":3131:3149   */\n      add\n        /* \"#utility.yul\":3118:3150   */\n      calldataload\n        /* \"#utility.yul\":3177:3195   */\n      0xffffffffffffffff\n        /* \"#utility.yul\":3169:3175   */\n      dup2\n        /* \"#utility.yul\":3166:3196   */\n      gt\n        /* \"#utility.yul\":3163:3280   */\n      iszero\n      tag_159\n      jumpi\n        /* \"#utility.yul\":3199:3278   */\n      tag_160\n      tag_150\n      jump\t// in\n    tag_160:\n        /* \"#utility.yul\":3163:3280   */\n    tag_159:\n        /* \"#utility.yul\":3304:3367   */\n      tag_161\n        /* \"#utility.yul\":3359:3366   */\n      dup7\n        /* \"#utility.yul\":3350:3356   */\n      dup3\n        /* \"#utility.yul\":3339:3348   */\n      dup8\n        /* \"#utility.yul\":3335:3357   */\n      add\n        /* \"#utility.yul\":3304:3367   */\n      tag_128\n      jump\t// in\n    tag_161:\n        /* \"#utility.yul\":3294:3367   */\n      swap2\n      pop\n        /* \"#utility.yul\":3089:3377   */\n      pop\n        /* \"#utility.yul\":2405:3384   */\n      swap3\n      pop\n      swap3\n      pop\n      swap3\n      jump\t// out\n        /* \"#utility.yul\":3390:4224   */\n    tag_46:\n        /* \"#utility.yul\":3478:3484   */\n      0x00\n        /* \"#utility.yul\":3486:3492   */\n      dup1\n        /* \"#utility.yul\":3535:3537   */\n      0x40\n        /* \"#utility.yul\":3523:3532   */\n      dup4\n        /* \"#utility.yul\":3514:3521   */\n      dup6\n        /* \"#utility.yul\":3510:3533   */\n      sub\n        /* \"#utility.yul\":3506:3538   */\n      slt\n        /* \"#utility.yul\":3503:3622   */\n      iszero\n      tag_163\n      jumpi\n        /* \"#utility.yul\":3541:3620   */\n      tag_164\n      tag_137\n      jump\t// in\n    tag_164:\n        /* \"#utility.yul\":3503:3622   */\n    tag_163:\n        /* \"#utility.yul\":3689:3690   */\n      0x00\n        /* \"#utility.yul\":3678:3687   */\n      dup4\n        /* \"#utility.yul\":3674:3691   */\n      add\n        /* \"#utility.yul\":3661:3692   */\n      calldataload\n        /* \"#utility.yul\":3719:3737   */\n      0xffffffffffffffff\n        /* \"#utility.yul\":3711:3717   */\n      dup2\n        /* \"#utility.yul\":3708:3738   */\n      gt\n        /* \"#utility.yul\":3705:3822   */\n      iszero\n      tag_165\n      jumpi\n        /* \"#utility.yul\":3741:3820   */\n      tag_166\n      tag_150\n      jump\t// in\n    tag_166:\n        /* \"#utility.yul\":3705:3822   */\n    tag_165:\n        /* \"#utility.yul\":3846:3909   */\n      tag_167\n        /* \"#utility.yul\":3901:3908   */\n      dup6\n        /* \"#utility.yul\":3892:3898   */\n      dup3\n        /* \"#utility.yul\":3881:3890   */\n      dup7\n        /* \"#utility.yul\":3877:3899   */\n      add\n        /* \"#utility.yul\":3846:3909   */\n      tag_128\n      jump\t// in\n    tag_167:\n        /* \"#utility.yul\":3836:3909   */\n      swap3\n      pop\n        /* \"#utility.yul\":3632:3919   */\n      pop\n        /* \"#utility.yul\":3986:3988   */\n      0x20\n        /* \"#utility.yul\":3975:3984   */\n      dup4\n        /* \"#utility.yul\":3971:3989   */\n      add\n        /* \"#utility.yul\":3958:3990   */\n      calldataload\n        /* \"#utility.yul\":4017:4035   */\n      0xffffffffffffffff\n        /* \"#utility.yul\":4009:4015   */\n      dup2\n        /* \"#utility.yul\":4006:4036   */\n      gt\n        /* \"#utility.yul\":4003:4120   */\n      iszero\n      tag_168\n      jumpi\n        /* \"#utility.yul\":4039:4118   */\n      tag_169\n      tag_150\n      jump\t// in\n    tag_169:\n        /* \"#utility.yul\":4003:4120   */\n    tag_168:\n        /* \"#utility.yul\":4144:4207   */\n      tag_170\n        /* \"#utility.yul\":4199:4206   */\n      dup6\n        /* \"#utility.yul\":4190:4196   */\n      dup3\n        /* \"#utility.yul\":4179:4188   */\n      dup7\n        /* \"#utility.yul\":4175:4197   */\n      add\n        /* \"#utility.yul\":4144:4207   */\n      tag_128\n      jump\t// in\n    tag_170:\n        /* \"#utility.yul\":4134:4207   */\n      swap2\n      pop\n        /* \"#utility.yul\":3929:4217   */\n      pop\n        /* \"#utility.yul\":3390:4224   */\n      swap3\n      pop\n      swap3\n      swap1\n      pop\n      jump\t// out\n        /* \"#utility.yul\":4230:4338   */\n    tag_171:\n        /* \"#utility.yul\":4307:4331   */\n      tag_173\n        /* \"#utility.yul\":4325:4330   */\n      dup2\n        /* \"#utility.yul\":4307:4331   */\n      tag_174\n      jump\t// in\n    tag_173:\n        /* \"#utility.yul\":4302:4305   */\n      dup3\n        /* \"#utility.yul\":4295:4332   */\n      mstore\n        /* \"#utility.yul\":4230:4338   */\n      pop\n      pop\n      jump\t// out\n        /* \"#utility.yul\":4344:4462   */\n    tag_175:\n        /* \"#utility.yul\":4431:4455   */\n      tag_177\n        /* \"#utility.yul\":4449:4454   */\n      dup2\n        /* \"#utility.yul\":4431:4455   */\n      tag_174\n      jump\t// in\n    tag_177:\n        /* \"#utility.yul\":4426:4429   */\n      dup3\n        /* \"#utility.yul\":4419:4456   */\n      mstore\n        /* \"#utility.yul\":4344:4462   */\n      pop\n      pop\n      jump\t// out\n        /* \"#utility.yul\":4468:4812   */\n    tag_178:\n        /* \"#utility.yul\":4546:4549   */\n      0x00\n        /* \"#utility.yul\":4574:4613   */\n      tag_180\n        /* \"#utility.yul\":4607:4612   */\n      dup3\n        /* \"#utility.yul\":4574:4613   */\n      tag_181\n      jump\t// in\n    tag_180:\n        /* \"#utility.yul\":4629:4690   */\n      tag_182\n        /* \"#utility.yul\":4683:4689   */\n      dup2\n        /* \"#utility.yul\":4678:4681   */\n      dup6\n        /* \"#utility.yul\":4629:4690   */\n      tag_183\n      jump\t// in\n    tag_182:\n        /* \"#utility.yul\":4622:4690   */\n      swap4\n      pop\n        /* \"#utility.yul\":4699:4751   */\n      tag_184\n        /* \"#utility.yul\":4744:4750   */\n      dup2\n        /* \"#utility.yul\":4739:4742   */\n      dup6\n        /* \"#utility.yul\":4732:4736   */\n      0x20\n        /* \"#utility.yul\":4725:4730   */\n      dup7\n        /* \"#utility.yul\":4721:4737   */\n      add\n        /* \"#utility.yul\":4699:4751   */\n      tag_185\n      jump\t// in\n    tag_184:\n        /* \"#utility.yul\":4776:4805   */\n      tag_186\n        /* \"#utility.yul\":4798:4804   */\n      dup2\n        /* \"#utility.yul\":4776:4805   */\n      tag_187\n      jump\t// in\n    tag_186:\n        /* \"#utility.yul\":4771:4774   */\n      dup5\n        /* \"#utility.yul\":4767:4806   */\n      add\n        /* \"#utility.yul\":4760:4806   */\n      swap2\n      pop\n        /* \"#utility.yul\":4550:4812   */\n      pop\n        /* \"#utility.yul\":4468:4812   */\n      swap3\n      swap2\n      pop\n      pop\n      jump\t// out\n        /* \"#utility.yul\":4818:5182   */\n    tag_188:\n        /* \"#utility.yul\":4906:4909   */\n      0x00\n        /* \"#utility.yul\":4934:4973   */\n      tag_190\n        /* \"#utility.yul\":4967:4972   */\n      dup3\n        /* \"#utility.yul\":4934:4973   */\n      tag_181\n      jump\t// in\n    tag_190:\n        /* \"#utility.yul\":4989:5060   */\n      tag_191\n        /* \"#utility.yul\":5053:5059   */\n      dup2\n        /* \"#utility.yul\":5048:5051   */\n      dup6\n        /* \"#utility.yul\":4989:5060   */\n      tag_192\n      jump\t// in\n    tag_191:\n        /* \"#utility.yul\":4982:5060   */\n      swap4\n      pop\n        /* \"#utility.yul\":5069:5121   */\n      tag_193\n        /* \"#utility.yul\":5114:5120   */\n      dup2\n        /* \"#utility.yul\":5109:5112   */\n      dup6\n        /* \"#utility.yul\":5102:5106   */\n      0x20\n        /* \"#utility.yul\":5095:5100   */\n      dup7\n        /* \"#utility.yul\":5091:5107   */\n      add\n        /* \"#utility.yul\":5069:5121   */\n      tag_185\n      jump\t// in\n    tag_193:\n        /* \"#utility.yul\":5146:5175   */\n      tag_194\n        /* \"#utility.yul\":5168:5174   */\n      dup2\n        /* \"#utility.yul\":5146:5175   */\n      tag_187\n      jump\t// in\n    tag_194:\n        /* \"#utility.yul\":5141:5144   */\n      dup5\n        /* \"#utility.yul\":5137:5176   */\n      add\n        /* \"#utility.yul\":5130:5176   */\n      swap2\n      pop\n        /* \"#utility.yul\":4910:5182   */\n      pop\n        /* \"#utility.yul\":4818:5182   */\n      swap3\n      swap2\n      pop\n      pop\n      jump\t// out\n        /* \"#utility.yul\":5256:6129   */\n    tag_195:\n        /* \"#utility.yul\":5379:5382   */\n      0x00\n        /* \"#utility.yul\":5415:5419   */\n      0x60\n        /* \"#utility.yul\":5410:5413   */\n      dup4\n        /* \"#utility.yul\":5406:5420   */\n      add\n        /* \"#utility.yul\":5508:5512   */\n      0x00\n        /* \"#utility.yul\":5501:5506   */\n      dup4\n        /* \"#utility.yul\":5497:5513   */\n      add\n        /* \"#utility.yul\":5491:5514   */\n      mload\n        /* \"#utility.yul\":5527:5590   */\n      tag_197\n        /* \"#utility.yul\":5584:5588   */\n      0x00\n        /* \"#utility.yul\":5579:5582   */\n      dup7\n        /* \"#utility.yul\":5575:5589   */\n      add\n        /* \"#utility.yul\":5561:5573   */\n      dup3\n        /* \"#utility.yul\":5527:5590   */\n      tag_171\n      jump\t// in\n    tag_197:\n        /* \"#utility.yul\":5430:5600   */\n      pop\n        /* \"#utility.yul\":5688:5692   */\n      0x20\n        /* \"#utility.yul\":5681:5686   */\n      dup4\n        /* \"#utility.yul\":5677:5693   */\n      add\n        /* \"#utility.yul\":5671:5694   */\n      mload\n        /* \"#utility.yul\":5741:5744   */\n      dup5\n        /* \"#utility.yul\":5735:5739   */\n      dup3\n        /* \"#utility.yul\":5731:5745   */\n      sub\n        /* \"#utility.yul\":5724:5728   */\n      0x20\n        /* \"#utility.yul\":5719:5722   */\n      dup7\n        /* \"#utility.yul\":5715:5729   */\n      add\n        /* \"#utility.yul\":5708:5746   */\n      mstore\n        /* \"#utility.yul\":5767:5840   */\n      tag_198\n        /* \"#utility.yul\":5835:5839   */\n      dup3\n        /* \"#utility.yul\":5821:5833   */\n      dup3\n        /* \"#utility.yul\":5767:5840   */\n      tag_178\n      jump\t// in\n    tag_198:\n        /* \"#utility.yul\":5759:5840   */\n      swap2\n      pop\n        /* \"#utility.yul\":5610:5851   */\n      pop\n        /* \"#utility.yul\":5939:5943   */\n      0x40\n        /* \"#utility.yul\":5932:5937   */\n      dup4\n        /* \"#utility.yul\":5928:5944   */\n      add\n        /* \"#utility.yul\":5922:5945   */\n      mload\n        /* \"#utility.yul\":5992:5995   */\n      dup5\n        /* \"#utility.yul\":5986:5990   */\n      dup3\n        /* \"#utility.yul\":5982:5996   */\n      sub\n        /* \"#utility.yul\":5975:5979   */\n      0x40\n        /* \"#utility.yul\":5970:5973   */\n      dup7\n        /* \"#utility.yul\":5966:5980   */\n      add\n        /* \"#utility.yul\":5959:5997   */\n      mstore\n        /* \"#utility.yul\":6018:6091   */\n      tag_199\n        /* \"#utility.yul\":6086:6090   */\n      dup3\n        /* \"#utility.yul\":6072:6084   */\n      dup3\n        /* \"#utility.yul\":6018:6091   */\n      tag_178\n      jump\t// in\n    tag_199:\n        /* \"#utility.yul\":6010:6091   */\n      swap2\n      pop\n        /* \"#utility.yul\":5861:6102   */\n      pop\n        /* \"#utility.yul\":6119:6123   */\n      dup1\n        /* \"#utility.yul\":6112:6123   */\n      swap2\n      pop\n        /* \"#utility.yul\":5384:6129   */\n      pop\n        /* \"#utility.yul\":5256:6129   */\n      swap3\n      swap2\n      pop\n      pop\n      jump\t// out\n        /* \"#utility.yul\":6135:6759   */\n    tag_36:\n        /* \"#utility.yul\":6324:6328   */\n      0x00\n        /* \"#utility.yul\":6362:6364   */\n      0x60\n        /* \"#utility.yul\":6351:6360   */\n      dup3\n        /* \"#utility.yul\":6347:6365   */\n      add\n        /* \"#utility.yul\":6339:6365   */\n      swap1\n      pop\n        /* \"#utility.yul\":6375:6446   */\n      tag_201\n        /* \"#utility.yul\":6443:6444   */\n      0x00\n        /* \"#utility.yul\":6432:6441   */\n      dup4\n        /* \"#utility.yul\":6428:6445   */\n      add\n        /* \"#utility.yul\":6419:6425   */\n      dup7\n        /* \"#utility.yul\":6375:6446   */\n      tag_175\n      jump\t// in\n    tag_201:\n        /* \"#utility.yul\":6493:6502   */\n      dup2\n        /* \"#utility.yul\":6487:6491   */\n      dup2\n        /* \"#utility.yul\":6483:6503   */\n      sub\n        /* \"#utility.yul\":6478:6480   */\n      0x20\n        /* \"#utility.yul\":6467:6476   */\n      dup4\n        /* \"#utility.yul\":6463:6481   */\n      add\n        /* \"#utility.yul\":6456:6504   */\n      mstore\n        /* \"#utility.yul\":6521:6599   */\n      tag_202\n        /* \"#utility.yul\":6594:6598   */\n      dup2\n        /* \"#utility.yul\":6585:6591   */\n      dup6\n        /* \"#utility.yul\":6521:6599   */\n      tag_188\n      jump\t// in\n    tag_202:\n        /* \"#utility.yul\":6513:6599   */\n      swap1\n      pop\n        /* \"#utility.yul\":6646:6655   */\n      dup2\n        /* \"#utility.yul\":6640:6644   */\n      dup2\n        /* \"#utility.yul\":6636:6656   */\n      sub\n        /* \"#utility.yul\":6631:6633   */\n      0x40\n        /* \"#utility.yul\":6620:6629   */\n      dup4\n        /* \"#utility.yul\":6616:6634   */\n      add\n        /* \"#utility.yul\":6609:6657   */\n      mstore\n        /* \"#utility.yul\":6674:6752   */\n      tag_203\n        /* \"#utility.yul\":6747:6751   */\n      dup2\n        /* \"#utility.yul\":6738:6744   */\n      dup5\n        /* \"#utility.yul\":6674:6752   */\n      tag_188\n      jump\t// in\n    tag_203:\n        /* \"#utility.yul\":6666:6752   */\n      swap1\n      pop\n        /* \"#utility.yul\":6135:6759   */\n      swap5\n      swap4\n      pop\n      pop\n      pop\n      pop\n      jump\t// out\n        /* \"#utility.yul\":6765:7078   */\n    tag_25:\n        /* \"#utility.yul\":6878:6882   */\n      0x00\n        /* \"#utility.yul\":6916:6918   */\n      0x20\n        /* \"#utility.yul\":6905:6914   */\n      dup3\n        /* \"#utility.yul\":6901:6919   */\n      add\n        /* \"#utility.yul\":6893:6919   */\n      swap1\n      pop\n        /* \"#utility.yul\":6965:6974   */\n      dup2\n        /* \"#utility.yul\":6959:6963   */\n      dup2\n        /* \"#utility.yul\":6955:6975   */\n      sub\n        /* \"#utility.yul\":6951:6952   */\n      0x00\n        /* \"#utility.yul\":6940:6949   */\n      dup4\n        /* \"#utility.yul\":6936:6953   */\n      add\n        /* \"#utility.yul\":6929:6976   */\n      mstore\n        /* \"#utility.yul\":6993:7071   */\n      tag_205\n        /* \"#utility.yul\":7066:7070   */\n      dup2\n        /* \"#utility.yul\":7057:7063   */\n      dup5\n        /* \"#utility.yul\":6993:7071   */\n      tag_188\n      jump\t// in\n    tag_205:\n        /* \"#utility.yul\":6985:7071   */\n      swap1\n      pop\n        /* \"#utility.yul\":6765:7078   */\n      swap3\n      swap2\n      pop\n      pop\n      jump\t// out\n        /* \"#utility.yul\":7084:7598   */\n    tag_31:\n        /* \"#utility.yul\":7245:7249   */\n      0x00\n        /* \"#utility.yul\":7283:7285   */\n      0x40\n        /* \"#utility.yul\":7272:7281   */\n      dup3\n        /* \"#utility.yul\":7268:7286   */\n      add\n        /* \"#utility.yul\":7260:7286   */\n      swap1\n      pop\n        /* \"#utility.yul\":7332:7341   */\n      dup2\n        /* \"#utility.yul\":7326:7330   */\n      dup2\n        /* \"#utility.yul\":7322:7342   */\n      sub\n        /* \"#utility.yul\":7318:7319   */\n      0x00\n        /* \"#utility.yul\":7307:7316   */\n      dup4\n        /* \"#utility.yul\":7303:7320   */\n      add\n        /* \"#utility.yul\":7296:7343   */\n      mstore\n        /* \"#utility.yul\":7360:7438   */\n      tag_207\n        /* \"#utility.yul\":7433:7437   */\n      dup2\n        /* \"#utility.yul\":7424:7430   */\n      dup6\n        /* \"#utility.yul\":7360:7438   */\n      tag_188\n      jump\t// in\n    tag_207:\n        /* \"#utility.yul\":7352:7438   */\n      swap1\n      pop\n        /* \"#utility.yul\":7485:7494   */\n      dup2\n        /* \"#utility.yul\":7479:7483   */\n      dup2\n        /* \"#utility.yul\":7475:7495   */\n      sub\n        /* \"#utility.yul\":7470:7472   */\n      0x20\n        /* \"#utility.yul\":7459:7468   */\n      dup4\n        /* \"#utility.yul\":7455:7473   */\n      add\n        /* \"#utility.yul\":7448:7496   */\n      mstore\n        /* \"#utility.yul\":7513:7591   */\n      tag_208\n        /* \"#utility.yul\":7586:7590   */\n      dup2\n        /* \"#utility.yul\":7577:7583   */\n      dup5\n        /* \"#utility.yul\":7513:7591   */\n      tag_188\n      jump\t// in\n    tag_208:\n        /* \"#utility.yul\":7505:7591   */\n      swap1\n      pop\n        /* \"#utility.yul\":7084:7598   */\n      swap4\n      swap3\n      pop\n      pop\n      pop\n      jump\t// out\n        /* \"#utility.yul\":7604:7985   */\n    tag_41:\n        /* \"#utility.yul\":7751:7755   */\n      0x00\n        /* \"#utility.yul\":7789:7791   */\n      0x20\n        /* \"#utility.yul\":7778:7787   */\n      dup3\n        /* \"#utility.yul\":7774:7792   */\n      add\n        /* \"#utility.yul\":7766:7792   */\n      swap1\n      pop\n        /* \"#utility.yul\":7838:7847   */\n      dup2\n        /* \"#utility.yul\":7832:7836   */\n      dup2\n        /* \"#utility.yul\":7828:7848   */\n      sub\n        /* \"#utility.yul\":7824:7825   */\n      0x00\n        /* \"#utility.yul\":7813:7822   */\n      dup4\n        /* \"#utility.yul\":7809:7826   */\n      add\n        /* \"#utility.yul\":7802:7849   */\n      mstore\n        /* \"#utility.yul\":7866:7978   */\n      tag_210\n        /* \"#utility.yul\":7973:7977   */\n      dup2\n        /* \"#utility.yul\":7964:7970   */\n      dup5\n        /* \"#utility.yul\":7866:7978   */\n      tag_195\n      jump\t// in\n    tag_210:\n        /* \"#utility.yul\":7858:7978   */\n      swap1\n      pop\n        /* \"#utility.yul\":7604:7985   */\n      swap3\n      swap2\n      pop\n      pop\n      jump\t// out\n        /* \"#utility.yul\":7991:8120   */\n    tag_118:\n        /* \"#utility.yul\":8025:8031   */\n      0x00\n        /* \"#utility.yul\":8052:8072   */\n      tag_212\n      tag_213\n      jump\t// in\n    tag_212:\n        /* \"#utility.yul\":8042:8072   */\n      swap1\n      pop\n        /* \"#utility.yul\":8081:8114   */\n      tag_214\n        /* \"#utility.yul\":8109:8113   */\n      dup3\n        /* \"#utility.yul\":8101:8107   */\n      dup3\n        /* \"#utility.yul\":8081:8114   */\n      tag_215\n      jump\t// in\n    tag_214:\n        /* \"#utility.yul\":7991:8120   */\n      swap2\n      swap1\n      pop\n      jump\t// out\n        /* \"#utility.yul\":8126:8201   */\n    tag_213:\n        /* \"#utility.yul\":8159:8165   */\n      0x00\n        /* \"#utility.yul\":8192:8194   */\n      0x40\n        /* \"#utility.yul\":8186:8195   */\n      mload\n        /* \"#utility.yul\":8176:8195   */\n      swap1\n      pop\n        /* \"#utility.yul\":8126:8201   */\n      swap1\n      jump\t// out\n        /* \"#utility.yul\":8207:8515   */\n    tag_117:\n        /* \"#utility.yul\":8269:8273   */\n      0x00\n        /* \"#utility.yul\":8359:8377   */\n      0xffffffffffffffff\n        /* \"#utility.yul\":8351:8357   */\n      dup3\n        /* \"#utility.yul\":8348:8378   */\n      gt\n        /* \"#utility.yul\":8345:8401   */\n      iszero\n      tag_218\n      jumpi\n        /* \"#utility.yul\":8381:8399   */\n      tag_219\n      tag_220\n      jump\t// in\n    tag_219:\n        /* \"#utility.yul\":8345:8401   */\n    tag_218:\n        /* \"#utility.yul\":8419:8448   */\n      tag_221\n        /* \"#utility.yul\":8441:8447   */\n      dup3\n        /* \"#utility.yul\":8419:8448   */\n      tag_187\n      jump\t// in\n    tag_221:\n        /* \"#utility.yul\":8411:8448   */\n      swap1\n      pop\n        /* \"#utility.yul\":8503:8507   */\n      0x20\n        /* \"#utility.yul\":8497:8501   */\n      dup2\n        /* \"#utility.yul\":8493:8508   */\n      add\n        /* \"#utility.yul\":8485:8508   */\n      swap1\n      pop\n        /* \"#utility.yul\":8207:8515   */\n      swap2\n      swap1\n      pop\n      jump\t// out\n        /* \"#utility.yul\":8521:8620   */\n    tag_181:\n        /* \"#utility.yul\":8573:8579   */\n      0x00\n        /* \"#utility.yul\":8607:8612   */\n      dup2\n        /* \"#utility.yul\":8601:8613   */\n      mload\n        /* \"#utility.yul\":8591:8613   */\n      swap1\n      pop\n        /* \"#utility.yul\":8521:8620   */\n      swap2\n      swap1\n      pop\n      jump\t// out\n        /* \"#utility.yul\":8626:8785   */\n    tag_183:\n        /* \"#utility.yul\":8700:8711   */\n      0x00\n        /* \"#utility.yul\":8734:8740   */\n      dup3\n        /* \"#utility.yul\":8729:8732   */\n      dup3\n        /* \"#utility.yul\":8722:8741   */\n      mstore\n        /* \"#utility.yul\":8774:8778   */\n      0x20\n        /* \"#utility.yul\":8769:8772   */\n      dup3\n        /* \"#utility.yul\":8765:8779   */\n      add\n        /* \"#utility.yul\":8750:8779   */\n      swap1\n      pop\n        /* \"#utility.yul\":8626:8785   */\n      swap3\n      swap2\n      pop\n      pop\n      jump\t// out\n        /* \"#utility.yul\":8791:8960   */\n    tag_192:\n        /* \"#utility.yul\":8875:8886   */\n      0x00\n        /* \"#utility.yul\":8909:8915   */\n      dup3\n        /* \"#utility.yul\":8904:8907   */\n      dup3\n        /* \"#utility.yul\":8897:8916   */\n      mstore\n        /* \"#utility.yul\":8949:8953   */\n      0x20\n        /* \"#utility.yul\":8944:8947   */\n      dup3\n        /* \"#utility.yul\":8940:8954   */\n      add\n        /* \"#utility.yul\":8925:8954   */\n      swap1\n      pop\n        /* \"#utility.yul\":8791:8960   */\n      swap3\n      swap2\n      pop\n      pop\n      jump\t// out\n        /* \"#utility.yul\":8966:9062   */\n    tag_174:\n        /* \"#utility.yul\":9003:9010   */\n      0x00\n        /* \"#utility.yul\":9032:9056   */\n      tag_226\n        /* \"#utility.yul\":9050:9055   */\n      dup3\n        /* \"#utility.yul\":9032:9056   */\n      tag_227\n      jump\t// in\n    tag_226:\n        /* \"#utility.yul\":9021:9056   */\n      swap1\n      pop\n        /* \"#utility.yul\":8966:9062   */\n      swap2\n      swap1\n      pop\n      jump\t// out\n        /* \"#utility.yul\":9068:9194   */\n    tag_227:\n        /* \"#utility.yul\":9105:9112   */\n      0x00\n        /* \"#utility.yul\":9145:9187   */\n      0xffffffffffffffffffffffffffffffffffffffff\n        /* \"#utility.yul\":9138:9143   */\n      dup3\n        /* \"#utility.yul\":9134:9188   */\n      and\n        /* \"#utility.yul\":9123:9188   */\n      swap1\n      pop\n        /* \"#utility.yul\":9068:9194   */\n      swap2\n      swap1\n      pop\n      jump\t// out\n        /* \"#utility.yul\":9200:9354   */\n    tag_123:\n        /* \"#utility.yul\":9284:9290   */\n      dup3\n        /* \"#utility.yul\":9279:9282   */\n      dup2\n        /* \"#utility.yul\":9274:9277   */\n      dup4\n        /* \"#utility.yul\":9261:9291   */\n      calldatacopy\n        /* \"#utility.yul\":9346:9347   */\n      0x00\n        /* \"#utility.yul\":9337:9343   */\n      dup4\n        /* \"#utility.yul\":9332:9335   */\n      dup4\n        /* \"#utility.yul\":9328:9344   */\n      add\n        /* \"#utility.yul\":9321:9348   */\n      mstore\n        /* \"#utility.yul\":9200:9354   */\n      pop\n      pop\n      pop\n      jump\t// out\n        /* \"#utility.yul\":9360:9667   */\n    tag_185:\n        /* \"#utility.yul\":9428:9429   */\n      0x00\n        /* \"#utility.yul\":9438:9551   */\n    tag_231:\n        /* \"#utility.yul\":9452:9458   */\n      dup4\n        /* \"#utility.yul\":9449:9450   */\n      dup2\n        /* \"#utility.yul\":9446:9459   */\n      lt\n        /* \"#utility.yul\":9438:9551   */\n      iszero\n      tag_233\n      jumpi\n        /* \"#utility.yul\":9537:9538   */\n      dup1\n        /* \"#utility.yul\":9532:9535   */\n      dup3\n        /* \"#utility.yul\":9528:9539   */\n      add\n        /* \"#utility.yul\":9522:9540   */\n      mload\n        /* \"#utility.yul\":9518:9519   */\n      dup2\n        /* \"#utility.yul\":9513:9516   */\n      dup5\n        /* \"#utility.yul\":9509:9520   */\n      add\n        /* \"#utility.yul\":9502:9541   */\n      mstore\n        /* \"#utility.yul\":9474:9476   */\n      0x20\n        /* \"#utility.yul\":9471:9472   */\n      dup2\n        /* \"#utility.yul\":9467:9477   */\n      add\n        /* \"#utility.yul\":9462:9477   */\n      swap1\n      pop\n        /* \"#utility.yul\":9438:9551   */\n      jump(tag_231)\n    tag_233:\n        /* \"#utility.yul\":9569:9575   */\n      dup4\n        /* \"#utility.yul\":9566:9567   */\n      dup2\n        /* \"#utility.yul\":9563:9576   */\n      gt\n        /* \"#utility.yul\":9560:9661   */\n      iszero\n      tag_234\n      jumpi\n        /* \"#utility.yul\":9649:9650   */\n      0x00\n        /* \"#utility.yul\":9640:9646   */\n      dup5\n        /* \"#utility.yul\":9635:9638   */\n      dup5\n        /* \"#utility.yul\":9631:9647   */\n      add\n        /* \"#utility.yul\":9624:9651   */\n      mstore\n        /* \"#utility.yul\":9560:9661   */\n    tag_234:\n        /* \"#utility.yul\":9409:9667   */\n      pop\n        /* \"#utility.yul\":9360:9667   */\n      pop\n      pop\n      pop\n      jump\t// out\n        /* \"#utility.yul\":9673:9993   */\n    tag_56:\n        /* \"#utility.yul\":9717:9723   */\n      0x00\n        /* \"#utility.yul\":9754:9755   */\n      0x02\n        /* \"#utility.yul\":9748:9752   */\n      dup3\n        /* \"#utility.yul\":9744:9756   */\n      div\n        /* \"#utility.yul\":9734:9756   */\n      swap1\n      pop\n        /* \"#utility.yul\":9801:9802   */\n      0x01\n        /* \"#utility.yul\":9795:9799   */\n      dup3\n        /* \"#utility.yul\":9791:9803   */\n      and\n        /* \"#utility.yul\":9822:9840   */\n      dup1\n        /* \"#utility.yul\":9812:9893   */\n      tag_236\n      jumpi\n        /* \"#utility.yul\":9878:9882   */\n      0x7f\n        /* \"#utility.yul\":9870:9876   */\n      dup3\n        /* \"#utility.yul\":9866:9883   */\n      and\n        /* \"#utility.yul\":9856:9883   */\n      swap2\n      pop\n        /* \"#utility.yul\":9812:9893   */\n    tag_236:\n        /* \"#utility.yul\":9940:9942   */\n      0x20\n        /* \"#utility.yul\":9932:9938   */\n      dup3\n        /* \"#utility.yul\":9929:9943   */\n      lt\n        /* \"#utility.yul\":9909:9927   */\n      dup2\n        /* \"#utility.yul\":9906:9944   */\n      eq\n        /* \"#utility.yul\":9903:9987   */\n      iszero\n      tag_237\n      jumpi\n        /* \"#utility.yul\":9959:9977   */\n      tag_238\n      tag_239\n      jump\t// in\n    tag_238:\n        /* \"#utility.yul\":9903:9987   */\n    tag_237:\n        /* \"#utility.yul\":9724:9993   */\n      pop\n        /* \"#utility.yul\":9673:9993   */\n      swap2\n      swap1\n      pop\n      jump\t// out\n        /* \"#utility.yul\":9999:10280   */\n    tag_215:\n        /* \"#utility.yul\":10082:10109   */\n      tag_241\n        /* \"#utility.yul\":10104:10108   */\n      dup3\n        /* \"#utility.yul\":10082:10109   */\n      tag_187\n      jump\t// in\n    tag_241:\n        /* \"#utility.yul\":10074:10080   */\n      dup2\n        /* \"#utility.yul\":10070:10110   */\n      add\n        /* \"#utility.yul\":10212:10218   */\n      dup2\n        /* \"#utility.yul\":10200:10210   */\n      dup2\n        /* \"#utility.yul\":10197:10219   */\n      lt\n        /* \"#utility.yul\":10176:10194   */\n      0xffffffffffffffff\n        /* \"#utility.yul\":10164:10174   */\n      dup3\n        /* \"#utility.yul\":10161:10195   */\n      gt\n        /* \"#utility.yul\":10158:10220   */\n      or\n        /* \"#utility.yul\":10155:10243   */\n      iszero\n      tag_242\n      jumpi\n        /* \"#utility.yul\":10223:10241   */\n      tag_243\n      tag_220\n      jump\t// in\n    tag_243:\n        /* \"#utility.yul\":10155:10243   */\n    tag_242:\n        /* \"#utility.yul\":10263:10273   */\n      dup1\n        /* \"#utility.yul\":10259:10261   */\n      0x40\n        /* \"#utility.yul\":10252:10274   */\n      mstore\n        /* \"#utility.yul\":10042:10280   */\n      pop\n        /* \"#utility.yul\":9999:10280   */\n      pop\n      pop\n      jump\t// out\n        /* \"#utility.yul\":10286:10466   */\n    tag_239:\n        /* \"#utility.yul\":10334:10411   */\n      0x4e487b7100000000000000000000000000000000000000000000000000000000\n        /* \"#utility.yul\":10331:10332   */\n      0x00\n        /* \"#utility.yul\":10324:10412   */\n      mstore\n        /* \"#utility.yul\":10431:10435   */\n      0x22\n        /* \"#utility.yul\":10428:10429   */\n      0x04\n        /* \"#utility.yul\":10421:10436   */\n      mstore\n        /* \"#utility.yul\":10455:10459   */\n      0x24\n        /* \"#utility.yul\":10452:10453   */\n      0x00\n        /* \"#utility.yul\":10445:10460   */\n      revert\n        /* \"#utility.yul\":10472:10652   */\n    tag_220:\n        /* \"#utility.yul\":10520:10597   */\n      0x4e487b7100000000000000000000000000000000000000000000000000000000\n        /* \"#utility.yul\":10517:10518   */\n      0x00\n        /* \"#utility.yul\":10510:10598   */\n      mstore\n        /* \"#utility.yul\":10617:10621   */\n      0x41\n        /* \"#utility.yul\":10614:10615   */\n      0x04\n        /* \"#utility.yul\":10607:10622   */\n      mstore\n        /* \"#utility.yul\":10641:10645   */\n      0x24\n        /* \"#utility.yul\":10638:10639   */\n      0x00\n        /* \"#utility.yul\":10631:10646   */\n      revert\n        /* \"#utility.yul\":10658:10775   */\n    tag_132:\n        /* \"#utility.yul\":10767:10768   */\n      0x00\n        /* \"#utility.yul\":10764:10765   */\n      dup1\n        /* \"#utility.yul\":10757:10769   */\n      revert\n        /* \"#utility.yul\":10781:10898   */\n    tag_121:\n        /* \"#utility.yul\":10890:10891   */\n      0x00\n        /* \"#utility.yul\":10887:10888   */\n      dup1\n        /* \"#utility.yul\":10880:10892   */\n      revert\n        /* \"#utility.yul\":10904:11021   */\n    tag_150:\n        /* \"#utility.yul\":11013:11014   */\n      0x00\n        /* \"#utility.yul\":11010:11011   */\n      dup1\n        /* \"#utility.yul\":11003:11015   */\n      revert\n        /* \"#utility.yul\":11027:11144   */\n    tag_137:\n        /* \"#utility.yul\":11136:11137   */\n      0x00\n        /* \"#utility.yul\":11133:11134   */\n      dup1\n        /* \"#utility.yul\":11126:11138   */\n      revert\n        /* \"#utility.yul\":11150:11252   */\n    tag_187:\n        /* \"#utility.yul\":11191:11197   */\n      0x00\n        /* \"#utility.yul\":11242:11244   */\n      0x1f\n        /* \"#utility.yul\":11238:11245   */\n      not\n        /* \"#utility.yul\":11233:11235   */\n      0x1f\n        /* \"#utility.yul\":11226:11231   */\n      dup4\n        /* \"#utility.yul\":11222:11236   */\n      add\n        /* \"#utility.yul\":11218:11246   */\n      and\n        /* \"#utility.yul\":11208:11246   */\n      swap1\n      pop\n        /* \"#utility.yul\":11150:11252   */\n      swap2\n      swap1\n      pop\n      jump\t// out\n        /* \"#utility.yul\":11258:11380   */\n    tag_127:\n        /* \"#utility.yul\":11331:11355   */\n      tag_252\n        /* \"#utility.yul\":11349:11354   */\n      dup2\n        /* \"#utility.yul\":11331:11355   */\n      tag_174\n      jump\t// in\n    tag_252:\n        /* \"#utility.yul\":11324:11329   */\n      dup2\n        /* \"#utility.yul\":11321:11356   */\n      eq\n        /* \"#utility.yul\":11311:11374   */\n      tag_253\n      jumpi\n        /* \"#utility.yul\":11370:11371   */\n      0x00\n        /* \"#utility.yul\":11367:11368   */\n      dup1\n        /* \"#utility.yul\":11360:11372   */\n      revert\n        /* \"#utility.yul\":11311:11374   */\n    tag_253:\n        /* \"#utility.yul\":11258:11380   */\n      pop\n      jump\t// out\n\n    auxdata: 0xa26469706673582212209f742ff0136961800d4ce1b8d4aac7dac16637a964b71a065b3fac2e538949a664736f6c63430008070033\n}\n",
				"bytecode": {
					"linkReferences": {},
					"object": "608060405234801561001057600080fd5b50611329806100206000396000f3fe608060405234801561001057600080fd5b50600436106100885760003560e01c8063b9e0ad101161005b578063b9e0ad1014610126578063de1e23b714610158578063e1c7392a14610188578063f2c3c7451461019257610088565b806311ef41711461008d5780636c477035146100a95780638749774f146100c55780639f764d16146100f5575b600080fd5b6100a760048036038101906100a29190610df9565b6101ae565b005b6100c360048036038101906100be9190610e55565b610246565b005b6100df60048036038101906100da9190610db9565b610377565b6040516100ec9190611084565b60405180910390f35b61010f600480360381019061010a9190610d8c565b610489565b60405161011d9291906110a6565b60405180910390f35b610140600480360381019061013b9190610d8c565b61062b565b60405161014f9392919061103f565b60405180910390f35b610172600480360381019061016d9190610d8c565b610785565b60405161017f91906110dd565b60405180910390f35b610190610957565b005b6101ac60048036038101906101a79190610ee0565b610af4565b005b80600160003373ffffffffffffffffffffffffffffffffffffffff1673ffffffffffffffffffffffffffffffffffffffff16815260200190815260200160002060020160008473ffffffffffffffffffffffffffffffffffffffff1673ffffffffffffffffffffffffffffffffffffffff1681526020019081526020016000209080519060200190610241929190610c2d565b505050565b826000808573ffffffffffffffffffffffffffffffffffffffff1673ffffffffffffffffffffffffffffffffffffffff16815260200190815260200160002060000160006101000a81548173ffffffffffffffffffffffffffffffffffffffff021916908373ffffffffffffffffffffffffffffffffffffffff160217905550816000808573ffffffffffffffffffffffffffffffffffffffff1673ffffffffffffffffffffffffffffffffffffffff168152602001908152602001600020600101908051906020019061031b929190610c2d565b50806000808573ffffffffffffffffffffffffffffffffffffffff1673ffffffffffffffffffffffffffffffffffffffff1681526020019081526020016000206002019080519060200190610371929190610c2d565b50505050565b6060600160008473ffffffffffffffffffffffffffffffffffffffff1673ffffffffffffffffffffffffffffffffffffffff16815260200190815260200160002060020160008373ffffffffffffffffffffffffffffffffffffffff1673ffffffffffffffffffffffffffffffffffffffff1681526020019081526020016000208054610403906111f6565b80601f016020809104026020016040519081016040528092919081815260200182805461042f906111f6565b801561047c5780601f106104515761010080835404028352916020019161047c565b820191906000526020600020905b81548152906001019060200180831161045f57829003601f168201915b5050505050905092915050565b606080600160008473ffffffffffffffffffffffffffffffffffffffff1673ffffffffffffffffffffffffffffffffffffffff16815260200190815260200160002060010180546104d9906111f6565b80601f0160208091040260200160405190810160405280929190818152602001828054610505906111f6565b80156105525780601f1061052757610100808354040283529160200191610552565b820191906000526020600020905b81548152906001019060200180831161053557829003601f168201915b50505050509150600160008473ffffffffffffffffffffffffffffffffffffffff1673ffffffffffffffffffffffffffffffffffffffff16815260200190815260200160002060030180546105a6906111f6565b80601f01602080910402602001604051908101604052809291908181526020018280546105d2906111f6565b801561061f5780601f106105f45761010080835404028352916020019161061f565b820191906000526020600020905b81548152906001019060200180831161060257829003601f168201915b50505050509050915091565b60016020528060005260406000206000915090508060000160009054906101000a900473ffffffffffffffffffffffffffffffffffffffff1690806001018054610674906111f6565b80601f01602080910402602001604051908101604052809291908181526020018280546106a0906111f6565b80156106ed5780601f106106c2576101008083540402835291602001916106ed565b820191906000526020600020905b8154815290600101906020018083116106d057829003601f168201915b505050505090806003018054610702906111f6565b80601f016020809104026020016040519081016040528092919081815260200182805461072e906111f6565b801561077b5780601f106107505761010080835404028352916020019161077b565b820191906000526020600020905b81548152906001019060200180831161075e57829003601f168201915b5050505050905083565b61078d610cb3565b6000808373ffffffffffffffffffffffffffffffffffffffff1673ffffffffffffffffffffffffffffffffffffffff1681526020019081526020016000206040518060600160405290816000820160009054906101000a900473ffffffffffffffffffffffffffffffffffffffff1673ffffffffffffffffffffffffffffffffffffffff1673ffffffffffffffffffffffffffffffffffffffff16815260200160018201805461083c906111f6565b80601f0160208091040260200160405190810160405280929190818152602001828054610868906111f6565b80156108b55780601f1061088a576101008083540402835291602001916108b5565b820191906000526020600020905b81548152906001019060200180831161089857829003601f168201915b505050505081526020016002820180546108ce906111f6565b80601f01602080910402602001604051908101604052809291908181526020018280546108fa906111f6565b80156109475780601f1061091c57610100808354040283529160200191610947565b820191906000526020600020905b81548152906001019060200180831161092a57829003601f168201915b5050505050815250509050919050565b6109e073b4d18d483b641200aa096558c9ba63aeb243002b6040518060400160405280600281526020017f64310000000000000000000000000000000000000000000000000000000000008152506040518060400160405280600981526020017f6c696768746e696e670000000000000000000000000000000000000000000000815250610246565b610a6973ff5d2fe96548e05e49c67fcc36c7dbeca2f501f26040518060400160405280600281526020017f64320000000000000000000000000000000000000000000000000000000000008152506040518060400160405280600481526020017f6772696400000000000000000000000000000000000000000000000000000000815250610246565b610af273be7186f383961cc24ad8012a2f2942667a72788f6040518060400160405280600281526020017f64330000000000000000000000000000000000000000000000000000000000008152506040518060400160405280600681526020017f726f757465720000000000000000000000000000000000000000000000000000815250610246565b565b600033905080600160008373ffffffffffffffffffffffffffffffffffffffff1673ffffffffffffffffffffffffffffffffffffffff16815260200190815260200160002060000160006101000a81548173ffffffffffffffffffffffffffffffffffffffff021916908373ffffffffffffffffffffffffffffffffffffffff16021790555082600160008373ffffffffffffffffffffffffffffffffffffffff1673ffffffffffffffffffffffffffffffffffffffff1681526020019081526020016000206001019080519060200190610bd0929190610c2d565b5081600160008373ffffffffffffffffffffffffffffffffffffffff1673ffffffffffffffffffffffffffffffffffffffff1681526020019081526020016000206003019080519060200190610c27929190610c2d565b50505050565b828054610c39906111f6565b90600052602060002090601f016020900481019282610c5b5760008555610ca2565b82601f10610c7457805160ff1916838001178555610ca2565b82800160010185558215610ca2579182015b82811115610ca1578251825591602001919060010190610c86565b5b509050610caf9190610cea565b5090565b6040518060600160405280600073ffffffffffffffffffffffffffffffffffffffff16815260200160608152602001606081525090565b5b80821115610d03576000816000905550600101610ceb565b5090565b6000610d1a610d1584611124565b6110ff565b905082815260208101848484011115610d3657610d356112bc565b5b610d418482856111b4565b509392505050565b600081359050610d58816112dc565b92915050565b600082601f830112610d7357610d726112b7565b5b8135610d83848260208601610d07565b91505092915050565b600060208284031215610da257610da16112c6565b5b6000610db084828501610d49565b91505092915050565b60008060408385031215610dd057610dcf6112c6565b5b6000610dde85828601610d49565b9250506020610def85828601610d49565b9150509250929050565b60008060408385031215610e1057610e0f6112c6565b5b6000610e1e85828601610d49565b925050602083013567ffffffffffffffff811115610e3f57610e3e6112c1565b5b610e4b85828601610d5e565b9150509250929050565b600080600060608486031215610e6e57610e6d6112c6565b5b6000610e7c86828701610d49565b935050602084013567ffffffffffffffff811115610e9d57610e9c6112c1565b5b610ea986828701610d5e565b925050604084013567ffffffffffffffff811115610eca57610ec96112c1565b5b610ed686828701610d5e565b9150509250925092565b60008060408385031215610ef757610ef66112c6565b5b600083013567ffffffffffffffff811115610f1557610f146112c1565b5b610f2185828601610d5e565b925050602083013567ffffffffffffffff811115610f4257610f416112c1565b5b610f4e85828601610d5e565b9150509250929050565b610f6181611182565b82525050565b610f7081611182565b82525050565b6000610f8182611155565b610f8b8185611160565b9350610f9b8185602086016111c3565b610fa4816112cb565b840191505092915050565b6000610fba82611155565b610fc48185611171565b9350610fd48185602086016111c3565b610fdd816112cb565b840191505092915050565b60006060830160008301516110006000860182610f58565b50602083015184820360208601526110188282610f76565b915050604083015184820360408601526110328282610f76565b9150508091505092915050565b60006060820190506110546000830186610f67565b81810360208301526110668185610faf565b9050818103604083015261107a8184610faf565b9050949350505050565b6000602082019050818103600083015261109e8184610faf565b905092915050565b600060408201905081810360008301526110c08185610faf565b905081810360208301526110d48184610faf565b90509392505050565b600060208201905081810360008301526110f78184610fe8565b905092915050565b600061110961111a565b90506111158282611228565b919050565b6000604051905090565b600067ffffffffffffffff82111561113f5761113e611288565b5b611148826112cb565b9050602081019050919050565b600081519050919050565b600082825260208201905092915050565b600082825260208201905092915050565b600061118d82611194565b9050919050565b600073ffffffffffffffffffffffffffffffffffffffff82169050919050565b82818337600083830152505050565b60005b838110156111e15780820151818401526020810190506111c6565b838111156111f0576000848401525b50505050565b6000600282049050600182168061120e57607f821691505b6020821081141561122257611221611259565b5b50919050565b611231826112cb565b810181811067ffffffffffffffff821117156112505761124f611288565b5b80604052505050565b7f4e487b7100000000000000000000000000000000000000000000000000000000600052602260045260246000fd5b7f4e487b7100000000000000000000000000000000000000000000000000000000600052604160045260246000fd5b600080fd5b600080fd5b600080fd5b600080fd5b6000601f19601f8301169050919050565b6112e581611182565b81146112f057600080fd5b5056fea26469706673582212209f742ff0136961800d4ce1b8d4aac7dac16637a964b71a065b3fac2e538949a664736f6c63430008070033",
					"opcodes": "PUSH1 0x80 PUSH1 0x40 MSTORE CALLVALUE DUP1 ISZERO PUSH2 0x10 JUMPI PUSH1 0x0 DUP1 REVERT JUMPDEST POP PUSH2 0x1329 DUP1 PUSH2 0x20 PUSH1 0x0 CODECOPY PUSH1 0x0 RETURN INVALID PUSH1 0x80 PUSH1 0x40 MSTORE CALLVALUE DUP1 ISZERO PUSH2 0x10 JUMPI PUSH1 0x0 DUP1 REVERT JUMPDEST POP PUSH1 0x4 CALLDATASIZE LT PUSH2 0x88 JUMPI PUSH1 0x0 CALLDATALOAD PUSH1 0xE0 SHR DUP1 PUSH4 0xB9E0AD10 GT PUSH2 0x5B JUMPI DUP1 PUSH4 0xB9E0AD10 EQ PUSH2 0x126 JUMPI DUP1 PUSH4 0xDE1E23B7 EQ PUSH2 0x158 JUMPI DUP1 PUSH4 0xE1C7392A EQ PUSH2 0x188 JUMPI DUP1 PUSH4 0xF2C3C745 EQ PUSH2 0x192 JUMPI PUSH2 0x88 JUMP JUMPDEST DUP1 PUSH4 0x11EF4171 EQ PUSH2 0x8D JUMPI DUP1 PUSH4 0x6C477035 EQ PUSH2 0xA9 JUMPI DUP1 PUSH4 0x8749774F EQ PUSH2 0xC5 JUMPI DUP1 PUSH4 0x9F764D16 EQ PUSH2 0xF5 JUMPI JUMPDEST PUSH1 0x0 DUP1 REVERT JUMPDEST PUSH2 0xA7 PUSH1 0x4 DUP1 CALLDATASIZE SUB DUP2 ADD SWAP1 PUSH2 0xA2 SWAP2 SWAP1 PUSH2 0xDF9 JUMP JUMPDEST PUSH2 0x1AE JUMP JUMPDEST STOP JUMPDEST PUSH2 0xC3 PUSH1 0x4 DUP1 CALLDATASIZE SUB DUP2 ADD SWAP1 PUSH2 0xBE SWAP2 SWAP1 PUSH2 0xE55 JUMP JUMPDEST PUSH2 0x246 JUMP JUMPDEST STOP JUMPDEST PUSH2 0xDF PUSH1 0x4 DUP1 CALLDATASIZE SUB DUP2 ADD SWAP1 PUSH2 0xDA SWAP2 SWAP1 PUSH2 0xDB9 JUMP JUMPDEST PUSH2 0x377 JUMP JUMPDEST PUSH1 0x40 MLOAD PUSH2 0xEC SWAP2 SWAP1 PUSH2 0x1084 JUMP JUMPDEST PUSH1 0x40 MLOAD DUP1 SWAP2 SUB SWAP1 RETURN JUMPDEST PUSH2 0x10F PUSH1 0x4 DUP1 CALLDATASIZE SUB DUP2 ADD SWAP1 PUSH2 0x10A SWAP2 SWAP1 PUSH2 0xD8C JUMP JUMPDEST PUSH2 0x489 JUMP JUMPDEST PUSH1 0x40 MLOAD PUSH2 0x11D SWAP3 SWAP2 SWAP1 PUSH2 0x10A6 JUMP JUMPDEST PUSH1 0x40 MLOAD DUP1 SWAP2 SUB SWAP1 RETURN JUMPDEST PUSH2 0x140 PUSH1 0x4 DUP1 CALLDATASIZE SUB DUP2 ADD SWAP1 PUSH2 0x13B SWAP2 SWAP1 PUSH2 0xD8C JUMP JUMPDEST PUSH2 0x62B JUMP JUMPDEST PUSH1 0x40 MLOAD PUSH2 0x14F SWAP4 SWAP3 SWAP2 SWAP1 PUSH2 0x103F JUMP JUMPDEST PUSH1 0x40 MLOAD DUP1 SWAP2 SUB SWAP1 RETURN JUMPDEST PUSH2 0x172 PUSH1 0x4 DUP1 CALLDATASIZE SUB DUP2 ADD SWAP1 PUSH2 0x16D SWAP2 SWAP1 PUSH2 0xD8C JUMP JUMPDEST PUSH2 0x785 JUMP JUMPDEST PUSH1 0x40 MLOAD PUSH2 0x17F SWAP2 SWAP1 PUSH2 0x10DD JUMP JUMPDEST PUSH1 0x40 MLOAD DUP1 SWAP2 SUB SWAP1 RETURN JUMPDEST PUSH2 0x190 PUSH2 0x957 JUMP JUMPDEST STOP JUMPDEST PUSH2 0x1AC PUSH1 0x4 DUP1 CALLDATASIZE SUB DUP2 ADD SWAP1 PUSH2 0x1A7 SWAP2 SWAP1 PUSH2 0xEE0 JUMP JUMPDEST PUSH2 0xAF4 JUMP JUMPDEST STOP JUMPDEST DUP1 PUSH1 0x1 PUSH1 0x0 CALLER PUSH20 0xFFFFFFFFFFFFFFFFFFFFFFFFFFFFFFFFFFFFFFFF AND PUSH20 0xFFFFFFFFFFFFFFFFFFFFFFFFFFFFFFFFFFFFFFFF AND DUP2 MSTORE PUSH1 0x20 ADD SWAP1 DUP2 MSTORE PUSH1 0x20 ADD PUSH1 0x0 KECCAK256 PUSH1 0x2 ADD PUSH1 0x0 DUP5 PUSH20 0xFFFFFFFFFFFFFFFFFFFFFFFFFFFFFFFFFFFFFFFF AND PUSH20 0xFFFFFFFFFFFFFFFFFFFFFFFFFFFFFFFFFFFFFFFF AND DUP2 MSTORE PUSH1 0x20 ADD SWAP1 DUP2 MSTORE PUSH1 0x20 ADD PUSH1 0x0 KECCAK256 SWAP1 DUP1 MLOAD SWAP1 PUSH1 0x20 ADD SWAP1 PUSH2 0x241 SWAP3 SWAP2 SWAP1 PUSH2 0xC2D JUMP JUMPDEST POP POP POP JUMP JUMPDEST DUP3 PUSH1 0x0 DUP1 DUP6 PUSH20 0xFFFFFFFFFFFFFFFFFFFFFFFFFFFFFFFFFFFFFFFF AND PUSH20 0xFFFFFFFFFFFFFFFFFFFFFFFFFFFFFFFFFFFFFFFF AND DUP2 MSTORE PUSH1 0x20 ADD SWAP1 DUP2 MSTORE PUSH1 0x20 ADD PUSH1 0x0 KECCAK256 PUSH1 0x0 ADD PUSH1 0x0 PUSH2 0x100 EXP DUP2 SLOAD DUP2 PUSH20 0xFFFFFFFFFFFFFFFFFFFFFFFFFFFFFFFFFFFFFFFF MUL NOT AND SWAP1 DUP4 PUSH20 0xFFFFFFFFFFFFFFFFFFFFFFFFFFFFFFFFFFFFFFFF AND MUL OR SWAP1 SSTORE POP DUP2 PUSH1 0x0 DUP1 DUP6 PUSH20 0xFFFFFFFFFFFFFFFFFFFFFFFFFFFFFFFFFFFFFFFF AND PUSH20 0xFFFFFFFFFFFFFFFFFFFFFFFFFFFFFFFFFFFFFFFF AND DUP2 MSTORE PUSH1 0x20 ADD SWAP1 DUP2 MSTORE PUSH1 0x20 ADD PUSH1 0x0 KECCAK256 PUSH1 0x1 ADD SWAP1 DUP1 MLOAD SWAP1 PUSH1 0x20 ADD SWAP1 PUSH2 0x31B SWAP3 SWAP2 SWAP1 PUSH2 0xC2D JUMP JUMPDEST POP DUP1 PUSH1 0x0 DUP1 DUP6 PUSH20 0xFFFFFFFFFFFFFFFFFFFFFFFFFFFFFFFFFFFFFFFF AND PUSH20 0xFFFFFFFFFFFFFFFFFFFFFFFFFFFFFFFFFFFFFFFF AND DUP2 MSTORE PUSH1 0x20 ADD SWAP1 DUP2 MSTORE PUSH1 0x20 ADD PUSH1 0x0 KECCAK256 PUSH1 0x2 ADD SWAP1 DUP1 MLOAD SWAP1 PUSH1 0x20 ADD SWAP1 PUSH2 0x371 SWAP3 SWAP2 SWAP1 PUSH2 0xC2D JUMP JUMPDEST POP POP POP POP JUMP JUMPDEST PUSH1 0x60 PUSH1 0x1 PUSH1 0x0 DUP5 PUSH20 0xFFFFFFFFFFFFFFFFFFFFFFFFFFFFFFFFFFFFFFFF AND PUSH20 0xFFFFFFFFFFFFFFFFFFFFFFFFFFFFFFFFFFFFFFFF AND DUP2 MSTORE PUSH1 0x20 ADD SWAP1 DUP2 MSTORE PUSH1 0x20 ADD PUSH1 0x0 KECCAK256 PUSH1 0x2 ADD PUSH1 0x0 DUP4 PUSH20 0xFFFFFFFFFFFFFFFFFFFFFFFFFFFFFFFFFFFFFFFF AND PUSH20 0xFFFFFFFFFFFFFFFFFFFFFFFFFFFFFFFFFFFFFFFF AND DUP2 MSTORE PUSH1 0x20 ADD SWAP1 DUP2 MSTORE PUSH1 0x20 ADD PUSH1 0x0 KECCAK256 DUP1 SLOAD PUSH2 0x403 SWAP1 PUSH2 0x11F6 JUMP JUMPDEST DUP1 PUSH1 0x1F ADD PUSH1 0x20 DUP1 SWAP2 DIV MUL PUSH1 0x20 ADD PUSH1 0x40 MLOAD SWAP1 DUP2 ADD PUSH1 0x40 MSTORE DUP1 SWAP3 SWAP2 SWAP1 DUP2 DUP2 MSTORE PUSH1 0x20 ADD DUP3 DUP1 SLOAD PUSH2 0x42F SWAP1 PUSH2 0x11F6 JUMP JUMPDEST DUP1 ISZERO PUSH2 0x47C JUMPI DUP1 PUSH1 0x1F LT PUSH2 0x451 JUMPI PUSH2 0x100 DUP1 DUP4 SLOAD DIV MUL DUP4 MSTORE SWAP2 PUSH1 0x20 ADD SWAP2 PUSH2 0x47C JUMP JUMPDEST DUP3 ADD SWAP2 SWAP1 PUSH1 0x0 MSTORE PUSH1 0x20 PUSH1 0x0 KECCAK256 SWAP1 JUMPDEST DUP2 SLOAD DUP2 MSTORE SWAP1 PUSH1 0x1 ADD SWAP1 PUSH1 0x20 ADD DUP1 DUP4 GT PUSH2 0x45F JUMPI DUP3 SWAP1 SUB PUSH1 0x1F AND DUP3 ADD SWAP2 JUMPDEST POP POP POP POP POP SWAP1 POP SWAP3 SWAP2 POP POP JUMP JUMPDEST PUSH1 0x60 DUP1 PUSH1 0x1 PUSH1 0x0 DUP5 PUSH20 0xFFFFFFFFFFFFFFFFFFFFFFFFFFFFFFFFFFFFFFFF AND PUSH20 0xFFFFFFFFFFFFFFFFFFFFFFFFFFFFFFFFFFFFFFFF AND DUP2 MSTORE PUSH1 0x20 ADD SWAP1 DUP2 MSTORE PUSH1 0x20 ADD PUSH1 0x0 KECCAK256 PUSH1 0x1 ADD DUP1 SLOAD PUSH2 0x4D9 SWAP1 PUSH2 0x11F6 JUMP JUMPDEST DUP1 PUSH1 0x1F ADD PUSH1 0x20 DUP1 SWAP2 DIV MUL PUSH1 0x20 ADD PUSH1 0x40 MLOAD SWAP1 DUP2 ADD PUSH1 0x40 MSTORE DUP1 SWAP3 SWAP2 SWAP1 DUP2 DUP2 MSTORE PUSH1 0x20 ADD DUP3 DUP1 SLOAD PUSH2 0x505 SWAP1 PUSH2 0x11F6 JUMP JUMPDEST DUP1 ISZERO PUSH2 0x552 JUMPI DUP1 PUSH1 0x1F LT PUSH2 0x527 JUMPI PUSH2 0x100 DUP1 DUP4 SLOAD DIV MUL DUP4 MSTORE SWAP2 PUSH1 0x20 ADD SWAP2 PUSH2 0x552 JUMP JUMPDEST DUP3 ADD SWAP2 SWAP1 PUSH1 0x0 MSTORE PUSH1 0x20 PUSH1 0x0 KECCAK256 SWAP1 JUMPDEST DUP2 SLOAD DUP2 MSTORE SWAP1 PUSH1 0x1 ADD SWAP1 PUSH1 0x20 ADD DUP1 DUP4 GT PUSH2 0x535 JUMPI DUP3 SWAP1 SUB PUSH1 0x1F AND DUP3 ADD SWAP2 JUMPDEST POP POP POP POP POP SWAP2 POP PUSH1 0x1 PUSH1 0x0 DUP5 PUSH20 0xFFFFFFFFFFFFFFFFFFFFFFFFFFFFFFFFFFFFFFFF AND PUSH20 0xFFFFFFFFFFFFFFFFFFFFFFFFFFFFFFFFFFFFFFFF AND DUP2 MSTORE PUSH1 0x20 ADD SWAP1 DUP2 MSTORE PUSH1 0x20 ADD PUSH1 0x0 KECCAK256 PUSH1 0x3 ADD DUP1 SLOAD PUSH2 0x5A6 SWAP1 PUSH2 0x11F6 JUMP JUMPDEST DUP1 PUSH1 0x1F ADD PUSH1 0x20 DUP1 SWAP2 DIV MUL PUSH1 0x20 ADD PUSH1 0x40 MLOAD SWAP1 DUP2 ADD PUSH1 0x40 MSTORE DUP1 SWAP3 SWAP2 SWAP1 DUP2 DUP2 MSTORE PUSH1 0x20 ADD DUP3 DUP1 SLOAD PUSH2 0x5D2 SWAP1 PUSH2 0x11F6 JUMP JUMPDEST DUP1 ISZERO PUSH2 0x61F JUMPI DUP1 PUSH1 0x1F LT PUSH2 0x5F4 JUMPI PUSH2 0x100 DUP1 DUP4 SLOAD DIV MUL DUP4 MSTORE SWAP2 PUSH1 0x20 ADD SWAP2 PUSH2 0x61F JUMP JUMPDEST DUP3 ADD SWAP2 SWAP1 PUSH1 0x0 MSTORE PUSH1 0x20 PUSH1 0x0 KECCAK256 SWAP1 JUMPDEST DUP2 SLOAD DUP2 MSTORE SWAP1 PUSH1 0x1 ADD SWAP1 PUSH1 0x20 ADD DUP1 DUP4 GT PUSH2 0x602 JUMPI DUP3 SWAP1 SUB PUSH1 0x1F AND DUP3 ADD SWAP2 JUMPDEST POP POP POP POP POP SWAP1 POP SWAP2 POP SWAP2 JUMP JUMPDEST PUSH1 0x1 PUSH1 0x20 MSTORE DUP1 PUSH1 0x0 MSTORE PUSH1 0x40 PUSH1 0x0 KECCAK256 PUSH1 0x0 SWAP2 POP SWAP1 POP DUP1 PUSH1 0x0 ADD PUSH1 0x0 SWAP1 SLOAD SWAP1 PUSH2 0x100 EXP SWAP1 DIV PUSH20 0xFFFFFFFFFFFFFFFFFFFFFFFFFFFFFFFFFFFFFFFF AND SWAP1 DUP1 PUSH1 0x1 ADD DUP1 SLOAD PUSH2 0x674 SWAP1 PUSH2 0x11F6 JUMP JUMPDEST DUP1 PUSH1 0x1F ADD PUSH1 0x20 DUP1 SWAP2 DIV MUL PUSH1 0x20 ADD PUSH1 0x40 MLOAD SWAP1 DUP2 ADD PUSH1 0x40 MSTORE DUP1 SWAP3 SWAP2 SWAP1 DUP2 DUP2 MSTORE PUSH1 0x20 ADD DUP3 DUP1 SLOAD PUSH2 0x6A0 SWAP1 PUSH2 0x11F6 JUMP JUMPDEST DUP1 ISZERO PUSH2 0x6ED JUMPI DUP1 PUSH1 0x1F LT PUSH2 0x6C2 JUMPI PUSH2 0x100 DUP1 DUP4 SLOAD DIV MUL DUP4 MSTORE SWAP2 PUSH1 0x20 ADD SWAP2 PUSH2 0x6ED JUMP JUMPDEST DUP3 ADD SWAP2 SWAP1 PUSH1 0x0 MSTORE PUSH1 0x20 PUSH1 0x0 KECCAK256 SWAP1 JUMPDEST DUP2 SLOAD DUP2 MSTORE SWAP1 PUSH1 0x1 ADD SWAP1 PUSH1 0x20 ADD DUP1 DUP4 GT PUSH2 0x6D0 JUMPI DUP3 SWAP1 SUB PUSH1 0x1F AND DUP3 ADD SWAP2 JUMPDEST POP POP POP POP POP SWAP1 DUP1 PUSH1 0x3 ADD DUP1 SLOAD PUSH2 0x702 SWAP1 PUSH2 0x11F6 JUMP JUMPDEST DUP1 PUSH1 0x1F ADD PUSH1 0x20 DUP1 SWAP2 DIV MUL PUSH1 0x20 ADD PUSH1 0x40 MLOAD SWAP1 DUP2 ADD PUSH1 0x40 MSTORE DUP1 SWAP3 SWAP2 SWAP1 DUP2 DUP2 MSTORE PUSH1 0x20 ADD DUP3 DUP1 SLOAD PUSH2 0x72E SWAP1 PUSH2 0x11F6 JUMP JUMPDEST DUP1 ISZERO PUSH2 0x77B JUMPI DUP1 PUSH1 0x1F LT PUSH2 0x750 JUMPI PUSH2 0x100 DUP1 DUP4 SLOAD DIV MUL DUP4 MSTORE SWAP2 PUSH1 0x20 ADD SWAP2 PUSH2 0x77B JUMP JUMPDEST DUP3 ADD SWAP2 SWAP1 PUSH1 0x0 MSTORE PUSH1 0x20 PUSH1 0x0 KECCAK256 SWAP1 JUMPDEST DUP2 SLOAD DUP2 MSTORE SWAP1 PUSH1 0x1 ADD SWAP1 PUSH1 0x20 ADD DUP1 DUP4 GT PUSH2 0x75E JUMPI DUP3 SWAP1 SUB PUSH1 0x1F AND DUP3 ADD SWAP2 JUMPDEST POP POP POP POP POP SWAP1 POP DUP4 JUMP JUMPDEST PUSH2 0x78D PUSH2 0xCB3 JUMP JUMPDEST PUSH1 0x0 DUP1 DUP4 PUSH20 0xFFFFFFFFFFFFFFFFFFFFFFFFFFFFFFFFFFFFFFFF AND PUSH20 0xFFFFFFFFFFFFFFFFFFFFFFFFFFFFFFFFFFFFFFFF AND DUP2 MSTORE PUSH1 0x20 ADD SWAP1 DUP2 MSTORE PUSH1 0x20 ADD PUSH1 0x0 KECCAK256 PUSH1 0x40 MLOAD DUP1 PUSH1 0x60 ADD PUSH1 0x40 MSTORE SWAP1 DUP2 PUSH1 0x0 DUP3 ADD PUSH1 0x0 SWAP1 SLOAD SWAP1 PUSH2 0x100 EXP SWAP1 DIV PUSH20 0xFFFFFFFFFFFFFFFFFFFFFFFFFFFFFFFFFFFFFFFF AND PUSH20 0xFFFFFFFFFFFFFFFFFFFFFFFFFFFFFFFFFFFFFFFF AND PUSH20 0xFFFFFFFFFFFFFFFFFFFFFFFFFFFFFFFFFFFFFFFF AND DUP2 MSTORE PUSH1 0x20 ADD PUSH1 0x1 DUP3 ADD DUP1 SLOAD PUSH2 0x83C SWAP1 PUSH2 0x11F6 JUMP JUMPDEST DUP1 PUSH1 0x1F ADD PUSH1 0x20 DUP1 SWAP2 DIV MUL PUSH1 0x20 ADD PUSH1 0x40 MLOAD SWAP1 DUP2 ADD PUSH1 0x40 MSTORE DUP1 SWAP3 SWAP2 SWAP1 DUP2 DUP2 MSTORE PUSH1 0x20 ADD DUP3 DUP1 SLOAD PUSH2 0x868 SWAP1 PUSH2 0x11F6 JUMP JUMPDEST DUP1 ISZERO PUSH2 0x8B5 JUMPI DUP1 PUSH1 0x1F LT PUSH2 0x88A JUMPI PUSH2 0x100 DUP1 DUP4 SLOAD DIV MUL DUP4 MSTORE SWAP2 PUSH1 0x20 ADD SWAP2 PUSH2 0x8B5 JUMP JUMPDEST DUP3 ADD SWAP2 SWAP1 PUSH1 0x0 MSTORE PUSH1 0x20 PUSH1 0x0 KECCAK256 SWAP1 JUMPDEST DUP2 SLOAD DUP2 MSTORE SWAP1 PUSH1 0x1 ADD SWAP1 PUSH1 0x20 ADD DUP1 DUP4 GT PUSH2 0x898 JUMPI DUP3 SWAP1 SUB PUSH1 0x1F AND DUP3 ADD SWAP2 JUMPDEST POP POP POP POP POP DUP2 MSTORE PUSH1 0x20 ADD PUSH1 0x2 DUP3 ADD DUP1 SLOAD PUSH2 0x8CE SWAP1 PUSH2 0x11F6 JUMP JUMPDEST DUP1 PUSH1 0x1F ADD PUSH1 0x20 DUP1 SWAP2 DIV MUL PUSH1 0x20 ADD PUSH1 0x40 MLOAD SWAP1 DUP2 ADD PUSH1 0x40 MSTORE DUP1 SWAP3 SWAP2 SWAP1 DUP2 DUP2 MSTORE PUSH1 0x20 ADD DUP3 DUP1 SLOAD PUSH2 0x8FA SWAP1 PUSH2 0x11F6 JUMP JUMPDEST DUP1 ISZERO PUSH2 0x947 JUMPI DUP1 PUSH1 0x1F LT PUSH2 0x91C JUMPI PUSH2 0x100 DUP1 DUP4 SLOAD DIV MUL DUP4 MSTORE SWAP2 PUSH1 0x20 ADD SWAP2 PUSH2 0x947 JUMP JUMPDEST DUP3 ADD SWAP2 SWAP1 PUSH1 0x0 MSTORE PUSH1 0x20 PUSH1 0x0 KECCAK256 SWAP1 JUMPDEST DUP2 SLOAD DUP2 MSTORE SWAP1 PUSH1 0x1 ADD SWAP1 PUSH1 0x20 ADD DUP1 DUP4 GT PUSH2 0x92A JUMPI DUP3 SWAP1 SUB PUSH1 0x1F AND DUP3 ADD SWAP2 JUMPDEST POP POP POP POP POP DUP2 MSTORE POP POP SWAP1 POP SWAP2 SWAP1 POP JUMP JUMPDEST PUSH2 0x9E0 PUSH20 0xB4D18D483B641200AA096558C9BA63AEB243002B PUSH1 0x40 MLOAD DUP1 PUSH1 0x40 ADD PUSH1 0x40 MSTORE DUP1 PUSH1 0x2 DUP2 MSTORE PUSH1 0x20 ADD PUSH32 0x6431000000000000000000000000000000000000000000000000000000000000 DUP2 MSTORE POP PUSH1 0x40 MLOAD DUP1 PUSH1 0x40 ADD PUSH1 0x40 MSTORE DUP1 PUSH1 0x9 DUP2 MSTORE PUSH1 0x20 ADD PUSH32 0x6C696768746E696E670000000000000000000000000000000000000000000000 DUP2 MSTORE POP PUSH2 0x246 JUMP JUMPDEST PUSH2 0xA69 PUSH20 0xFF5D2FE96548E05E49C67FCC36C7DBECA2F501F2 PUSH1 0x40 MLOAD DUP1 PUSH1 0x40 ADD PUSH1 0x40 MSTORE DUP1 PUSH1 0x2 DUP2 MSTORE PUSH1 0x20 ADD PUSH32 0x6432000000000000000000000000000000000000000000000000000000000000 DUP2 MSTORE POP PUSH1 0x40 MLOAD DUP1 PUSH1 0x40 ADD PUSH1 0x40 MSTORE DUP1 PUSH1 0x4 DUP2 MSTORE PUSH1 0x20 ADD PUSH32 0x6772696400000000000000000000000000000000000000000000000000000000 DUP2 MSTORE POP PUSH2 0x246 JUMP JUMPDEST PUSH2 0xAF2 PUSH20 0xBE7186F383961CC24AD8012A2F2942667A72788F PUSH1 0x40 MLOAD DUP1 PUSH1 0x40 ADD PUSH1 0x40 MSTORE DUP1 PUSH1 0x2 DUP2 MSTORE PUSH1 0x20 ADD PUSH32 0x6433000000000000000000000000000000000000000000000000000000000000 DUP2 MSTORE POP PUSH1 0x40 MLOAD DUP1 PUSH1 0x40 ADD PUSH1 0x40 MSTORE DUP1 PUSH1 0x6 DUP2 MSTORE PUSH1 0x20 ADD PUSH32 0x726F757465720000000000000000000000000000000000000000000000000000 DUP2 MSTORE POP PUSH2 0x246 JUMP JUMPDEST JUMP JUMPDEST PUSH1 0x0 CALLER SWAP1 POP DUP1 PUSH1 0x1 PUSH1 0x0 DUP4 PUSH20 0xFFFFFFFFFFFFFFFFFFFFFFFFFFFFFFFFFFFFFFFF AND PUSH20 0xFFFFFFFFFFFFFFFFFFFFFFFFFFFFFFFFFFFFFFFF AND DUP2 MSTORE PUSH1 0x20 ADD SWAP1 DUP2 MSTORE PUSH1 0x20 ADD PUSH1 0x0 KECCAK256 PUSH1 0x0 ADD PUSH1 0x0 PUSH2 0x100 EXP DUP2 SLOAD DUP2 PUSH20 0xFFFFFFFFFFFFFFFFFFFFFFFFFFFFFFFFFFFFFFFF MUL NOT AND SWAP1 DUP4 PUSH20 0xFFFFFFFFFFFFFFFFFFFFFFFFFFFFFFFFFFFFFFFF AND MUL OR SWAP1 SSTORE POP DUP3 PUSH1 0x1 PUSH1 0x0 DUP4 PUSH20 0xFFFFFFFFFFFFFFFFFFFFFFFFFFFFFFFFFFFFFFFF AND PUSH20 0xFFFFFFFFFFFFFFFFFFFFFFFFFFFFFFFFFFFFFFFF AND DUP2 MSTORE PUSH1 0x20 ADD SWAP1 DUP2 MSTORE PUSH1 0x20 ADD PUSH1 0x0 KECCAK256 PUSH1 0x1 ADD SWAP1 DUP1 MLOAD SWAP1 PUSH1 0x20 ADD SWAP1 PUSH2 0xBD0 SWAP3 SWAP2 SWAP1 PUSH2 0xC2D JUMP JUMPDEST POP DUP2 PUSH1 0x1 PUSH1 0x0 DUP4 PUSH20 0xFFFFFFFFFFFFFFFFFFFFFFFFFFFFFFFFFFFFFFFF AND PUSH20 0xFFFFFFFFFFFFFFFFFFFFFFFFFFFFFFFFFFFFFFFF AND DUP2 MSTORE PUSH1 0x20 ADD SWAP1 DUP2 MSTORE PUSH1 0x20 ADD PUSH1 0x0 KECCAK256 PUSH1 0x3 ADD SWAP1 DUP1 MLOAD SWAP1 PUSH1 0x20 ADD SWAP1 PUSH2 0xC27 SWAP3 SWAP2 SWAP1 PUSH2 0xC2D JUMP JUMPDEST POP POP POP POP JUMP JUMPDEST DUP3 DUP1 SLOAD PUSH2 0xC39 SWAP1 PUSH2 0x11F6 JUMP JUMPDEST SWAP1 PUSH1 0x0 MSTORE PUSH1 0x20 PUSH1 0x0 KECCAK256 SWAP1 PUSH1 0x1F ADD PUSH1 0x20 SWAP1 DIV DUP2 ADD SWAP3 DUP3 PUSH2 0xC5B JUMPI PUSH1 0x0 DUP6 SSTORE PUSH2 0xCA2 JUMP JUMPDEST DUP3 PUSH1 0x1F LT PUSH2 0xC74 JUMPI DUP1 MLOAD PUSH1 0xFF NOT AND DUP4 DUP1 ADD OR DUP6 SSTORE PUSH2 0xCA2 JUMP JUMPDEST DUP3 DUP1 ADD PUSH1 0x1 ADD DUP6 SSTORE DUP3 ISZERO PUSH2 0xCA2 JUMPI SWAP2 DUP3 ADD JUMPDEST DUP3 DUP2 GT ISZERO PUSH2 0xCA1 JUMPI DUP3 MLOAD DUP3 SSTORE SWAP2 PUSH1 0x20 ADD SWAP2 SWAP1 PUSH1 0x1 ADD SWAP1 PUSH2 0xC86 JUMP JUMPDEST JUMPDEST POP SWAP1 POP PUSH2 0xCAF SWAP2 SWAP1 PUSH2 0xCEA JUMP JUMPDEST POP SWAP1 JUMP JUMPDEST PUSH1 0x40 MLOAD DUP1 PUSH1 0x60 ADD PUSH1 0x40 MSTORE DUP1 PUSH1 0x0 PUSH20 0xFFFFFFFFFFFFFFFFFFFFFFFFFFFFFFFFFFFFFFFF AND DUP2 MSTORE PUSH1 0x20 ADD PUSH1 0x60 DUP2 MSTORE PUSH1 0x20 ADD PUSH1 0x60 DUP2 MSTORE POP SWAP1 JUMP JUMPDEST JUMPDEST DUP1 DUP3 GT ISZERO PUSH2 0xD03 JUMPI PUSH1 0x0 DUP2 PUSH1 0x0 SWAP1 SSTORE POP PUSH1 0x1 ADD PUSH2 0xCEB JUMP JUMPDEST POP SWAP1 JUMP JUMPDEST PUSH1 0x0 PUSH2 0xD1A PUSH2 0xD15 DUP5 PUSH2 0x1124 JUMP JUMPDEST PUSH2 0x10FF JUMP JUMPDEST SWAP1 POP DUP3 DUP2 MSTORE PUSH1 0x20 DUP2 ADD DUP5 DUP5 DUP5 ADD GT ISZERO PUSH2 0xD36 JUMPI PUSH2 0xD35 PUSH2 0x12BC JUMP JUMPDEST JUMPDEST PUSH2 0xD41 DUP5 DUP3 DUP6 PUSH2 0x11B4 JUMP JUMPDEST POP SWAP4 SWAP3 POP POP POP JUMP JUMPDEST PUSH1 0x0 DUP2 CALLDATALOAD SWAP1 POP PUSH2 0xD58 DUP2 PUSH2 0x12DC JUMP JUMPDEST SWAP3 SWAP2 POP POP JUMP JUMPDEST PUSH1 0x0 DUP3 PUSH1 0x1F DUP4 ADD SLT PUSH2 0xD73 JUMPI PUSH2 0xD72 PUSH2 0x12B7 JUMP JUMPDEST JUMPDEST DUP2 CALLDATALOAD PUSH2 0xD83 DUP5 DUP3 PUSH1 0x20 DUP7 ADD PUSH2 0xD07 JUMP JUMPDEST SWAP2 POP POP SWAP3 SWAP2 POP POP JUMP JUMPDEST PUSH1 0x0 PUSH1 0x20 DUP3 DUP5 SUB SLT ISZERO PUSH2 0xDA2 JUMPI PUSH2 0xDA1 PUSH2 0x12C6 JUMP JUMPDEST JUMPDEST PUSH1 0x0 PUSH2 0xDB0 DUP5 DUP3 DUP6 ADD PUSH2 0xD49 JUMP JUMPDEST SWAP2 POP POP SWAP3 SWAP2 POP POP JUMP JUMPDEST PUSH1 0x0 DUP1 PUSH1 0x40 DUP4 DUP6 SUB SLT ISZERO PUSH2 0xDD0 JUMPI PUSH2 0xDCF PUSH2 0x12C6 JUMP JUMPDEST JUMPDEST PUSH1 0x0 PUSH2 0xDDE DUP6 DUP3 DUP7 ADD PUSH2 0xD49 JUMP JUMPDEST SWAP3 POP POP PUSH1 0x20 PUSH2 0xDEF DUP6 DUP3 DUP7 ADD PUSH2 0xD49 JUMP JUMPDEST SWAP2 POP POP SWAP3 POP SWAP3 SWAP1 POP JUMP JUMPDEST PUSH1 0x0 DUP1 PUSH1 0x40 DUP4 DUP6 SUB SLT ISZERO PUSH2 0xE10 JUMPI PUSH2 0xE0F PUSH2 0x12C6 JUMP JUMPDEST JUMPDEST PUSH1 0x0 PUSH2 0xE1E DUP6 DUP3 DUP7 ADD PUSH2 0xD49 JUMP JUMPDEST SWAP3 POP POP PUSH1 0x20 DUP4 ADD CALLDATALOAD PUSH8 0xFFFFFFFFFFFFFFFF DUP2 GT ISZERO PUSH2 0xE3F JUMPI PUSH2 0xE3E PUSH2 0x12C1 JUMP JUMPDEST JUMPDEST PUSH2 0xE4B DUP6 DUP3 DUP7 ADD PUSH2 0xD5E JUMP JUMPDEST SWAP2 POP POP SWAP3 POP SWAP3 SWAP1 POP JUMP JUMPDEST PUSH1 0x0 DUP1 PUSH1 0x0 PUSH1 0x60 DUP5 DUP7 SUB SLT ISZERO PUSH2 0xE6E JUMPI PUSH2 0xE6D PUSH2 0x12C6 JUMP JUMPDEST JUMPDEST PUSH1 0x0 PUSH2 0xE7C DUP7 DUP3 DUP8 ADD PUSH2 0xD49 JUMP JUMPDEST SWAP4 POP POP PUSH1 0x20 DUP5 ADD CALLDATALOAD PUSH8 0xFFFFFFFFFFFFFFFF DUP2 GT ISZERO PUSH2 0xE9D JUMPI PUSH2 0xE9C PUSH2 0x12C1 JUMP JUMPDEST JUMPDEST PUSH2 0xEA9 DUP7 DUP3 DUP8 ADD PUSH2 0xD5E JUMP JUMPDEST SWAP3 POP POP PUSH1 0x40 DUP5 ADD CALLDATALOAD PUSH8 0xFFFFFFFFFFFFFFFF DUP2 GT ISZERO PUSH2 0xECA JUMPI PUSH2 0xEC9 PUSH2 0x12C1 JUMP JUMPDEST JUMPDEST PUSH2 0xED6 DUP7 DUP3 DUP8 ADD PUSH2 0xD5E JUMP JUMPDEST SWAP2 POP POP SWAP3 POP SWAP3 POP SWAP3 JUMP JUMPDEST PUSH1 0x0 DUP1 PUSH1 0x40 DUP4 DUP6 SUB SLT ISZERO PUSH2 0xEF7 JUMPI PUSH2 0xEF6 PUSH2 0x12C6 JUMP JUMPDEST JUMPDEST PUSH1 0x0 DUP4 ADD CALLDATALOAD PUSH8 0xFFFFFFFFFFFFFFFF DUP2 GT ISZERO PUSH2 0xF15 JUMPI PUSH2 0xF14 PUSH2 0x12C1 JUMP JUMPDEST JUMPDEST PUSH2 0xF21 DUP6 DUP3 DUP7 ADD PUSH2 0xD5E JUMP JUMPDEST SWAP3 POP POP PUSH1 0x20 DUP4 ADD CALLDATALOAD PUSH8 0xFFFFFFFFFFFFFFFF DUP2 GT ISZERO PUSH2 0xF42 JUMPI PUSH2 0xF41 PUSH2 0x12C1 JUMP JUMPDEST JUMPDEST PUSH2 0xF4E DUP6 DUP3 DUP7 ADD PUSH2 0xD5E JUMP JUMPDEST SWAP2 POP POP SWAP3 POP SWAP3 SWAP1 POP JUMP JUMPDEST PUSH2 0xF61 DUP2 PUSH2 0x1182 JUMP JUMPDEST DUP3 MSTORE POP POP JUMP JUMPDEST PUSH2 0xF70 DUP2 PUSH2 0x1182 JUMP JUMPDEST DUP3 MSTORE POP POP JUMP JUMPDEST PUSH1 0x0 PUSH2 0xF81 DUP3 PUSH2 0x1155 JUMP JUMPDEST PUSH2 0xF8B DUP2 DUP6 PUSH2 0x1160 JUMP JUMPDEST SWAP4 POP PUSH2 0xF9B DUP2 DUP6 PUSH1 0x20 DUP7 ADD PUSH2 0x11C3 JUMP JUMPDEST PUSH2 0xFA4 DUP2 PUSH2 0x12CB JUMP JUMPDEST DUP5 ADD SWAP2 POP POP SWAP3 SWAP2 POP POP JUMP JUMPDEST PUSH1 0x0 PUSH2 0xFBA DUP3 PUSH2 0x1155 JUMP JUMPDEST PUSH2 0xFC4 DUP2 DUP6 PUSH2 0x1171 JUMP JUMPDEST SWAP4 POP PUSH2 0xFD4 DUP2 DUP6 PUSH1 0x20 DUP7 ADD PUSH2 0x11C3 JUMP JUMPDEST PUSH2 0xFDD DUP2 PUSH2 0x12CB JUMP JUMPDEST DUP5 ADD SWAP2 POP POP SWAP3 SWAP2 POP POP JUMP JUMPDEST PUSH1 0x0 PUSH1 0x60 DUP4 ADD PUSH1 0x0 DUP4 ADD MLOAD PUSH2 0x1000 PUSH1 0x0 DUP7 ADD DUP3 PUSH2 0xF58 JUMP JUMPDEST POP PUSH1 0x20 DUP4 ADD MLOAD DUP5 DUP3 SUB PUSH1 0x20 DUP7 ADD MSTORE PUSH2 0x1018 DUP3 DUP3 PUSH2 0xF76 JUMP JUMPDEST SWAP2 POP POP PUSH1 0x40 DUP4 ADD MLOAD DUP5 DUP3 SUB PUSH1 0x40 DUP7 ADD MSTORE PUSH2 0x1032 DUP3 DUP3 PUSH2 0xF76 JUMP JUMPDEST SWAP2 POP POP DUP1 SWAP2 POP POP SWAP3 SWAP2 POP POP JUMP JUMPDEST PUSH1 0x0 PUSH1 0x60 DUP3 ADD SWAP1 POP PUSH2 0x1054 PUSH1 0x0 DUP4 ADD DUP7 PUSH2 0xF67 JUMP JUMPDEST DUP2 DUP2 SUB PUSH1 0x20 DUP4 ADD MSTORE PUSH2 0x1066 DUP2 DUP6 PUSH2 0xFAF JUMP JUMPDEST SWAP1 POP DUP2 DUP2 SUB PUSH1 0x40 DUP4 ADD MSTORE PUSH2 0x107A DUP2 DUP5 PUSH2 0xFAF JUMP JUMPDEST SWAP1 POP SWAP5 SWAP4 POP POP POP POP JUMP JUMPDEST PUSH1 0x0 PUSH1 0x20 DUP3 ADD SWAP1 POP DUP2 DUP2 SUB PUSH1 0x0 DUP4 ADD MSTORE PUSH2 0x109E DUP2 DUP5 PUSH2 0xFAF JUMP JUMPDEST SWAP1 POP SWAP3 SWAP2 POP POP JUMP JUMPDEST PUSH1 0x0 PUSH1 0x40 DUP3 ADD SWAP1 POP DUP2 DUP2 SUB PUSH1 0x0 DUP4 ADD MSTORE PUSH2 0x10C0 DUP2 DUP6 PUSH2 0xFAF JUMP JUMPDEST SWAP1 POP DUP2 DUP2 SUB PUSH1 0x20 DUP4 ADD MSTORE PUSH2 0x10D4 DUP2 DUP5 PUSH2 0xFAF JUMP JUMPDEST SWAP1 POP SWAP4 SWAP3 POP POP POP JUMP JUMPDEST PUSH1 0x0 PUSH1 0x20 DUP3 ADD SWAP1 POP DUP2 DUP2 SUB PUSH1 0x0 DUP4 ADD MSTORE PUSH2 0x10F7 DUP2 DUP5 PUSH2 0xFE8 JUMP JUMPDEST SWAP1 POP SWAP3 SWAP2 POP POP JUMP JUMPDEST PUSH1 0x0 PUSH2 0x1109 PUSH2 0x111A JUMP JUMPDEST SWAP1 POP PUSH2 0x1115 DUP3 DUP3 PUSH2 0x1228 JUMP JUMPDEST SWAP2 SWAP1 POP JUMP JUMPDEST PUSH1 0x0 PUSH1 0x40 MLOAD SWAP1 POP SWAP1 JUMP JUMPDEST PUSH1 0x0 PUSH8 0xFFFFFFFFFFFFFFFF DUP3 GT ISZERO PUSH2 0x113F JUMPI PUSH2 0x113E PUSH2 0x1288 JUMP JUMPDEST JUMPDEST PUSH2 0x1148 DUP3 PUSH2 0x12CB JUMP JUMPDEST SWAP1 POP PUSH1 0x20 DUP2 ADD SWAP1 POP SWAP2 SWAP1 POP JUMP JUMPDEST PUSH1 0x0 DUP2 MLOAD SWAP1 POP SWAP2 SWAP1 POP JUMP JUMPDEST PUSH1 0x0 DUP3 DUP3 MSTORE PUSH1 0x20 DUP3 ADD SWAP1 POP SWAP3 SWAP2 POP POP JUMP JUMPDEST PUSH1 0x0 DUP3 DUP3 MSTORE PUSH1 0x20 DUP3 ADD SWAP1 POP SWAP3 SWAP2 POP POP JUMP JUMPDEST PUSH1 0x0 PUSH2 0x118D DUP3 PUSH2 0x1194 JUMP JUMPDEST SWAP1 POP SWAP2 SWAP1 POP JUMP JUMPDEST PUSH1 0x0 PUSH20 0xFFFFFFFFFFFFFFFFFFFFFFFFFFFFFFFFFFFFFFFF DUP3 AND SWAP1 POP SWAP2 SWAP1 POP JUMP JUMPDEST DUP3 DUP2 DUP4 CALLDATACOPY PUSH1 0x0 DUP4 DUP4 ADD MSTORE POP POP POP JUMP JUMPDEST PUSH1 0x0 JUMPDEST DUP4 DUP2 LT ISZERO PUSH2 0x11E1 JUMPI DUP1 DUP3 ADD MLOAD DUP2 DUP5 ADD MSTORE PUSH1 0x20 DUP2 ADD SWAP1 POP PUSH2 0x11C6 JUMP JUMPDEST DUP4 DUP2 GT ISZERO PUSH2 0x11F0 JUMPI PUSH1 0x0 DUP5 DUP5 ADD MSTORE JUMPDEST POP POP POP POP JUMP JUMPDEST PUSH1 0x0 PUSH1 0x2 DUP3 DIV SWAP1 POP PUSH1 0x1 DUP3 AND DUP1 PUSH2 0x120E JUMPI PUSH1 0x7F DUP3 AND SWAP2 POP JUMPDEST PUSH1 0x20 DUP3 LT DUP2 EQ ISZERO PUSH2 0x1222 JUMPI PUSH2 0x1221 PUSH2 0x1259 JUMP JUMPDEST JUMPDEST POP SWAP2 SWAP1 POP JUMP JUMPDEST PUSH2 0x1231 DUP3 PUSH2 0x12CB JUMP JUMPDEST DUP2 ADD DUP2 DUP2 LT PUSH8 0xFFFFFFFFFFFFFFFF DUP3 GT OR ISZERO PUSH2 0x1250 JUMPI PUSH2 0x124F PUSH2 0x1288 JUMP JUMPDEST JUMPDEST DUP1 PUSH1 0x40 MSTORE POP POP POP JUMP JUMPDEST PUSH32 0x4E487B7100000000000000000000000000000000000000000000000000000000 PUSH1 0x0 MSTORE PUSH1 0x22 PUSH1 0x4 MSTORE PUSH1 0x24 PUSH1 0x0 REVERT JUMPDEST PUSH32 0x4E487B7100000000000000000000000000000000000000000000000000000000 PUSH1 0x0 MSTORE PUSH1 0x41 PUSH1 0x4 MSTORE PUSH1 0x24 PUSH1 0x0 REVERT JUMPDEST PUSH1 0x0 DUP1 REVERT JUMPDEST PUSH1 0x0 DUP1 REVERT JUMPDEST PUSH1 0x0 DUP1 REVERT JUMPDEST PUSH1 0x0 DUP1 REVERT JUMPDEST PUSH1 0x0 PUSH1 0x1F NOT PUSH1 0x1F DUP4 ADD AND SWAP1 POP SWAP2 SWAP1 POP JUMP JUMPDEST PUSH2 0x12E5 DUP2 PUSH2 0x1182 JUMP JUMPDEST DUP2 EQ PUSH2 0x12F0 JUMPI PUSH1 0x0 DUP1 REVERT JUMPDEST POP JUMP INVALID LOG2 PUSH5 0x6970667358 0x22 SLT KECCAK256 SWAP16 PUSH21 0x2FF0136961800D4CE1B8D4AAC7DAC16637A964B71A MOD JUMPDEST EXTCODEHASH 0xAC 0x2E MSTORE8 DUP10 0x49 0xA6 PUSH5 0x736F6C6343 STOP ADDMOD SMOD STOP CALLER "
				},
				"gasEstimates": {
					"creation": {
						"codeDepositCost": "981000",
						"executionCost": "1021",
						"totalCost": "982021"
					},
					"external": {
						"getDeviceInfoByAddr(address)": "infinite",
						"getRight(address,address)": "infinite",
						"getSubjInfo(address)": "infinite",
						"init()": "infinite",
						"register4Right(address,string)": "infinite",
						"setDeviceInfo(address,string,string)": "infinite",
						"setSubjInfo(string,string)": "infinite",
						"subjInfoMap(address)": "infinite"
					}
				},
				"methodIdentifiers": {
					"getDeviceInfoByAddr(address)": "de1e23b7",
					"getRight(address,address)": "8749774f",
					"getSubjInfo(address)": "9f764d16",
					"init()": "e1c7392a",
					"register4Right(address,string)": "11ef4171",
					"setDeviceInfo(address,string,string)": "6c477035",
					"setSubjInfo(string,string)": "f2c3c745",
					"subjInfoMap(address)": "b9e0ad10"
				}
			},
			"storageLayout": {
				"storage": [
					{
						"astId": 195,
						"contract": "contracts/Management.sol:Management",
						"label": "deviceInfoMap",
						"offset": 0,
						"slot": "0",
						"type": "t_mapping(t_address,t_struct(DeviceInfo)179_storage)"
					},
					{
						"astId": 200,
						"contract": "contracts/Management.sol:Management",
						"label": "subjInfoMap",
						"offset": 0,
						"slot": "1",
						"type": "t_mapping(t_address,t_struct(SubjInfo)190_storage)"
					}
				],
				"types": {
					"t_address": {
						"encoding": "inplace",
						"label": "address",
						"numberOfBytes": "20"
					},
					"t_mapping(t_address,t_string_storage)": {
						"encoding": "mapping",
						"key": "t_address",
						"label": "mapping(address => string)",
						"numberOfBytes": "32",
						"value": "t_string_storage"
					},
					"t_mapping(t_address,t_struct(DeviceInfo)179_storage)": {
						"encoding": "mapping",
						"key": "t_address",
						"label": "mapping(address => struct Management.DeviceInfo)",
						"numberOfBytes": "32",
						"value": "t_struct(DeviceInfo)179_storage"
					},
					"t_mapping(t_address,t_struct(SubjInfo)190_storage)": {
						"encoding": "mapping",
						"key": "t_address",
						"label": "mapping(address => struct Management.SubjInfo)",
						"numberOfBytes": "32",
						"value": "t_struct(SubjInfo)190_storage"
					},
					"t_string_storage": {
						"encoding": "bytes",
						"label": "string",
						"numberOfBytes": "32"
					},
					"t_struct(DeviceInfo)179_storage": {
						"encoding": "inplace",
						"label": "struct Management.DeviceInfo",
						"members": [
							{
								"astId": 174,
								"contract": "contracts/Management.sol:Management",
								"label": "deviceAddr",
								"offset": 0,
								"slot": "0",
								"type": "t_address"
							},
							{
								"astId": 176,
								"contract": "contracts/Management.sol:Management",
								"label": "deviceName",
								"offset": 0,
								"slot": "1",
								"type": "t_string_storage"
							},
							{
								"astId": 178,
								"contract": "contracts/Management.sol:Management",
								"label": "deviceType",
								"offset": 0,
								"slot": "2",
								"type": "t_string_storage"
							}
						],
						"numberOfBytes": "96"
					},
					"t_struct(SubjInfo)190_storage": {
						"encoding": "inplace",
						"label": "struct Management.SubjInfo",
						"members": [
							{
								"astId": 181,
								"contract": "contracts/Management.sol:Management",
								"label": "subjectAddr",
								"offset": 0,
								"slot": "0",
								"type": "t_address"
							},
							{
								"astId": 183,
								"contract": "contracts/Management.sol:Management",
								"label": "subjectName",
								"offset": 0,
								"slot": "1",
								"type": "t_string_storage"
							},
							{
								"astId": 187,
								"contract": "contracts/Management.sol:Management",
								"label": "rightTable",
								"offset": 0,
								"slot": "2",
								"type": "t_mapping(t_address,t_string_storage)"
							},
							{
								"astId": 189,
								"contract": "contracts/Management.sol:Management",
								"label": "ipAddr",
								"offset": 0,
								"slot": "3",
								"type": "t_string_storage"
							}
						],
						"numberOfBytes": "128"
					}
				}
			},
			"userdoc": {
				"kind": "user",
				"methods": {},
				"version": 1
			}
		}
	}
}