{
	"contracts/AccessControl.sol": {
		"AccessControl": {
			"abi": [
				{
					"anonymous": false,
					"inputs": [
						{
							"indexed": false,
							"internalType": "address",
							"name": "from",
							"type": "address"
						},
						{
							"indexed": false,
							"internalType": "address",
							"name": "to",
							"type": "address"
						},
						{
							"indexed": false,
							"internalType": "string",
							"name": "action",
							"type": "string"
						},
						{
							"indexed": false,
							"internalType": "string",
							"name": "result",
							"type": "string"
						}
					],
					"name": "AccessControlRet",
					"type": "event"
				},
				{
					"inputs": [
						{
							"internalType": "address",
							"name": "_objectAddr",
							"type": "address"
						},
						{
							"internalType": "string",
							"name": "action",
							"type": "string"
						}
					],
					"name": "accessControl",
					"outputs": [
						{
							"internalType": "bool",
							"name": "res",
							"type": "bool"
						}
					],
					"stateMutability": "nonpayable",
					"type": "function"
				},
				{
					"inputs": [],
					"name": "getCurTime",
					"outputs": [
						{
							"internalType": "uint256",
							"name": "",
							"type": "uint256"
						}
					],
					"stateMutability": "view",
					"type": "function"
				},
				{
					"inputs": [
						{
							"internalType": "address",
							"name": "_contractAddr",
							"type": "address"
						}
					],
					"name": "init",
					"outputs": [],
					"stateMutability": "nonpayable",
					"type": "function"
				}
			],
			"devdoc": {
				"kind": "dev",
				"methods": {},
				"version": 1
			},
			"evm": {
				"assembly": "    /* \"contracts/AccessControl.sol\":98:1756  contract AccessControl {\r... */\n  mstore(0x40, 0x80)\n  callvalue\n  dup1\n  iszero\n  tag_1\n  jumpi\n  0x00\n  dup1\n  revert\ntag_1:\n  pop\n  dataSize(sub_0)\n  dup1\n  dataOffset(sub_0)\n  0x00\n  codecopy\n  0x00\n  return\nstop\n\nsub_0: assembly {\n        /* \"contracts/AccessControl.sol\":98:1756  contract AccessControl {\r... */\n      mstore(0x40, 0x80)\n      callvalue\n      dup1\n      iszero\n      tag_1\n      jumpi\n      0x00\n      dup1\n      revert\n    tag_1:\n      pop\n      jumpi(tag_2, lt(calldatasize, 0x04))\n      shr(0xe0, calldataload(0x00))\n      dup1\n      0x19ab453c\n      eq\n      tag_3\n      jumpi\n      dup1\n      0x32076e77\n      eq\n      tag_4\n      jumpi\n      dup1\n      0xc0821da3\n      eq\n      tag_5\n      jumpi\n    tag_2:\n      0x00\n      dup1\n      revert\n        /* \"contracts/AccessControl.sol\":354:733  function init(address _contractAddr) public {\r... */\n    tag_3:\n      tag_6\n      0x04\n      dup1\n      calldatasize\n      sub\n      dup2\n      add\n      swap1\n      tag_7\n      swap2\n      swap1\n      tag_8\n      jump\t// in\n    tag_7:\n      tag_9\n      jump\t// in\n    tag_6:\n      stop\n        /* \"contracts/AccessControl.sol\":741:1647  function accessControl(address _objectAddr, string memory action) public returns (bool res) {\r... */\n    tag_4:\n      tag_10\n      0x04\n      dup1\n      calldatasize\n      sub\n      dup2\n      add\n      swap1\n      tag_11\n      swap2\n      swap1\n      tag_12\n      jump\t// in\n    tag_11:\n      tag_13\n      jump\t// in\n    tag_10:\n      mload(0x40)\n      tag_14\n      swap2\n      swap1\n      tag_15\n      jump\t// in\n    tag_14:\n      mload(0x40)\n      dup1\n      swap2\n      sub\n      swap1\n      return\n        /* \"contracts/AccessControl.sol\":1659:1751  function getCurTime() public view returns(uint256) {\r... */\n    tag_5:\n      tag_16\n      tag_17\n      jump\t// in\n    tag_16:\n      mload(0x40)\n      tag_18\n      swap2\n      swap1\n      tag_19\n      jump\t// in\n    tag_18:\n      mload(0x40)\n      dup1\n      swap2\n      sub\n      swap1\n      return\n        /* \"contracts/AccessControl.sol\":354:733  function init(address _contractAddr) public {\r... */\n    tag_9:\n        /* \"contracts/AccessControl.sol\":430:443  _contractAddr */\n      dup1\n        /* \"contracts/AccessControl.sol\":409:416  manager */\n      0x00\n      dup1\n        /* \"contracts/AccessControl.sol\":409:444  manager = Management(_contractAddr) */\n      0x0100\n      exp\n      dup2\n      sload\n      dup2\n      0xffffffffffffffffffffffffffffffffffffffff\n      mul\n      not\n      and\n      swap1\n      dup4\n      0xffffffffffffffffffffffffffffffffffffffff\n      and\n      mul\n      or\n      swap1\n      sstore\n      pop\n        /* \"contracts/AccessControl.sol\":544:545  0 */\n      0x00\n        /* \"contracts/AccessControl.sol\":523:533  rightTable */\n      0x01\n        /* \"contracts/AccessControl.sol\":523:541  rightTable[\"read\"] */\n      mload(0x40)\n      tag_21\n      swap1\n      tag_22\n      jump\t// in\n    tag_21:\n      swap1\n      dup2\n      mstore\n      0x20\n      add\n      mload(0x40)\n      dup1\n      swap2\n      sub\n      swap1\n      keccak256\n        /* \"contracts/AccessControl.sol\":523:545  rightTable[\"read\"] = 0 */\n      dup2\n      swap1\n      sstore\n      pop\n        /* \"contracts/AccessControl.sol\":577:578  1 */\n      0x01\n        /* \"contracts/AccessControl.sol\":556:566  rightTable */\n      dup1\n        /* \"contracts/AccessControl.sol\":556:574  rightTable[\"open\"] */\n      mload(0x40)\n      tag_23\n      swap1\n      tag_24\n      jump\t// in\n    tag_23:\n      swap1\n      dup2\n      mstore\n      0x20\n      add\n      mload(0x40)\n      dup1\n      swap2\n      sub\n      swap1\n      keccak256\n        /* \"contracts/AccessControl.sol\":556:578  rightTable[\"open\"] = 1 */\n      dup2\n      swap1\n      sstore\n      pop\n        /* \"contracts/AccessControl.sol\":611:612  1 */\n      0x01\n        /* \"contracts/AccessControl.sol\":589:599  rightTable */\n      dup1\n        /* \"contracts/AccessControl.sol\":589:608  rightTable[\"close\"] */\n      mload(0x40)\n      tag_25\n      swap1\n      tag_26\n      jump\t// in\n    tag_25:\n      swap1\n      dup2\n      mstore\n      0x20\n      add\n      mload(0x40)\n      dup1\n      swap2\n      sub\n      swap1\n      keccak256\n        /* \"contracts/AccessControl.sol\":589:612  rightTable[\"close\"] = 1 */\n      dup2\n      swap1\n      sstore\n      pop\n        /* \"contracts/AccessControl.sol\":647:648  2 */\n      0x02\n        /* \"contracts/AccessControl.sol\":623:633  rightTable */\n      0x01\n        /* \"contracts/AccessControl.sol\":623:644  rightTable[\"restart\"] */\n      mload(0x40)\n      tag_27\n      swap1\n      tag_28\n      jump\t// in\n    tag_27:\n      swap1\n      dup2\n      mstore\n      0x20\n      add\n      mload(0x40)\n      dup1\n      swap2\n      sub\n      swap1\n      keccak256\n        /* \"contracts/AccessControl.sol\":623:648  rightTable[\"restart\"] = 2 */\n      dup2\n      swap1\n      sstore\n      pop\n        /* \"contracts/AccessControl.sol\":680:681  2 */\n      0x02\n        /* \"contracts/AccessControl.sol\":659:669  rightTable */\n      0x01\n        /* \"contracts/AccessControl.sol\":659:677  rightTable[\"kill\"] */\n      mload(0x40)\n      tag_29\n      swap1\n      tag_30\n      jump\t// in\n    tag_29:\n      swap1\n      dup2\n      mstore\n      0x20\n      add\n      mload(0x40)\n      dup1\n      swap2\n      sub\n      swap1\n      keccak256\n        /* \"contracts/AccessControl.sol\":659:681  rightTable[\"kill\"] = 2 */\n      dup2\n      swap1\n      sstore\n      pop\n        /* \"contracts/AccessControl.sol\":721:725  true */\n      0x01\n        /* \"contracts/AccessControl.sol\":692:707  blackListIpPool */\n      0x02\n        /* \"contracts/AccessControl.sol\":692:718  blackListIpPool['2.2.2.2'] */\n      mload(0x40)\n      tag_31\n      swap1\n      tag_32\n      jump\t// in\n    tag_31:\n      swap1\n      dup2\n      mstore\n      0x20\n      add\n      mload(0x40)\n      dup1\n      swap2\n      sub\n      swap1\n      keccak256\n      0x00\n        /* \"contracts/AccessControl.sol\":692:725  blackListIpPool['2.2.2.2'] = true */\n      0x0100\n      exp\n      dup2\n      sload\n      dup2\n      0xff\n      mul\n      not\n      and\n      swap1\n      dup4\n      iszero\n      iszero\n      mul\n      or\n      swap1\n      sstore\n      pop\n        /* \"contracts/AccessControl.sol\":354:733  function init(address _contractAddr) public {\r... */\n      pop\n      jump\t// out\n        /* \"contracts/AccessControl.sol\":741:1647  function accessControl(address _objectAddr, string memory action) public returns (bool res) {\r... */\n    tag_13:\n        /* \"contracts/AccessControl.sol\":823:831  bool res */\n      0x00\n        /* \"contracts/AccessControl.sol\":844:863  string memory right */\n      dup1\n        /* \"contracts/AccessControl.sol\":866:873  manager */\n      0x00\n      dup1\n      sload\n      swap1\n      0x0100\n      exp\n      swap1\n      div\n      0xffffffffffffffffffffffffffffffffffffffff\n      and\n        /* \"contracts/AccessControl.sol\":866:882  manager.getRight */\n      0xffffffffffffffffffffffffffffffffffffffff\n      and\n      0x8749774f\n        /* \"contracts/AccessControl.sol\":883:893  msg.sender */\n      caller\n        /* \"contracts/AccessControl.sol\":895:906  _objectAddr */\n      dup7\n        /* \"contracts/AccessControl.sol\":866:907  manager.getRight(msg.sender, _objectAddr) */\n      mload(0x40)\n      dup4\n      0xffffffff\n      and\n      0xe0\n      shl\n      dup2\n      mstore\n      0x04\n      add\n      tag_34\n      swap3\n      swap2\n      swap1\n      tag_35\n      jump\t// in\n    tag_34:\n      0x00\n      mload(0x40)\n      dup1\n      dup4\n      sub\n      dup2\n      dup7\n      dup1\n      extcodesize\n      iszero\n      dup1\n      iszero\n      tag_36\n      jumpi\n      0x00\n      dup1\n      revert\n    tag_36:\n      pop\n      gas\n      staticcall\n      iszero\n      dup1\n      iszero\n      tag_38\n      jumpi\n      returndatasize\n      0x00\n      dup1\n      returndatacopy\n      revert(0x00, returndatasize)\n    tag_38:\n      pop\n      pop\n      pop\n      pop\n      mload(0x40)\n      returndatasize\n      0x00\n      dup3\n      returndatacopy\n      returndatasize\n      not(0x1f)\n      0x1f\n      dup3\n      add\n      and\n      dup3\n      add\n      dup1\n      0x40\n      mstore\n      pop\n      dup2\n      add\n      swap1\n      tag_39\n      swap2\n      swap1\n      tag_40\n      jump\t// in\n    tag_39:\n        /* \"contracts/AccessControl.sol\":844:907  string memory right = manager.getRight(msg.sender, _objectAddr) */\n      swap1\n      pop\n        /* \"contracts/AccessControl.sol\":977:987  rightTable */\n      0x01\n        /* \"contracts/AccessControl.sol\":988:993  right */\n      dup2\n        /* \"contracts/AccessControl.sol\":977:994  rightTable[right] */\n      mload(0x40)\n      tag_41\n      swap2\n      swap1\n      tag_42\n      jump\t// in\n    tag_41:\n      swap1\n      dup2\n      mstore\n      0x20\n      add\n      mload(0x40)\n      dup1\n      swap2\n      sub\n      swap1\n      keccak256\n      sload\n        /* \"contracts/AccessControl.sol\":956:966  rightTable */\n      0x01\n        /* \"contracts/AccessControl.sol\":967:973  action */\n      dup5\n        /* \"contracts/AccessControl.sol\":956:974  rightTable[action] */\n      mload(0x40)\n      tag_43\n      swap2\n      swap1\n      tag_42\n      jump\t// in\n    tag_43:\n      swap1\n      dup2\n      mstore\n      0x20\n      add\n      mload(0x40)\n      dup1\n      swap2\n      sub\n      swap1\n      keccak256\n      sload\n        /* \"contracts/AccessControl.sol\":956:994  rightTable[action] < rightTable[right] */\n      slt\n        /* \"contracts/AccessControl.sol\":953:1152  if(rightTable[action] < rightTable[right]) {\r... */\n      iszero\n      tag_44\n      jumpi\n        /* \"contracts/AccessControl.sol\":1016:1089  AccessControlRet(msg.sender, _objectAddr, action, \"Unauthorized access!\") */\n      0x4393de65ee68a32d7987583b1f2c6e6aa80df7d9ad5c0661660d70dff18b9d6d\n        /* \"contracts/AccessControl.sol\":1033:1043  msg.sender */\n      caller\n        /* \"contracts/AccessControl.sol\":1045:1056  _objectAddr */\n      dup6\n        /* \"contracts/AccessControl.sol\":1058:1064  action */\n      dup6\n        /* \"contracts/AccessControl.sol\":1016:1089  AccessControlRet(msg.sender, _objectAddr, action, \"Unauthorized access!\") */\n      mload(0x40)\n      tag_45\n      swap4\n      swap3\n      swap2\n      swap1\n      tag_46\n      jump\t// in\n    tag_45:\n      mload(0x40)\n      dup1\n      swap2\n      sub\n      swap1\n      log1\n        /* \"contracts/AccessControl.sol\":1110:1115  false */\n      0x00\n        /* \"contracts/AccessControl.sol\":1104:1115  res = false */\n      swap2\n      pop\n        /* \"contracts/AccessControl.sol\":1130:1140  return res */\n      pop\n      jump(tag_33)\n        /* \"contracts/AccessControl.sol\":953:1152  if(rightTable[action] < rightTable[right]) {\r... */\n    tag_44:\n        /* \"contracts/AccessControl.sol\":1164:1186  string memory subjName */\n      0x60\n        /* \"contracts/AccessControl.sol\":1197:1217  string memory subjIP */\n      dup1\n        /* \"contracts/AccessControl.sol\":1249:1256  manager */\n      0x00\n      dup1\n      sload\n      swap1\n      0x0100\n      exp\n      swap1\n      div\n      0xffffffffffffffffffffffffffffffffffffffff\n      and\n        /* \"contracts/AccessControl.sol\":1249:1268  manager.getSubjInfo */\n      0xffffffffffffffffffffffffffffffffffffffff\n      and\n      0x9f764d16\n        /* \"contracts/AccessControl.sol\":1269:1279  msg.sender */\n      caller\n        /* \"contracts/AccessControl.sol\":1249:1280  manager.getSubjInfo(msg.sender) */\n      mload(0x40)\n      dup3\n      0xffffffff\n      and\n      0xe0\n      shl\n      dup2\n      mstore\n      0x04\n      add\n      tag_47\n      swap2\n      swap1\n      tag_48\n      jump\t// in\n    tag_47:\n      0x00\n      mload(0x40)\n      dup1\n      dup4\n      sub\n      dup2\n      dup7\n      dup1\n      extcodesize\n      iszero\n      dup1\n      iszero\n      tag_49\n      jumpi\n      0x00\n      dup1\n      revert\n    tag_49:\n      pop\n      gas\n      staticcall\n      iszero\n      dup1\n      iszero\n      tag_51\n      jumpi\n      returndatasize\n      0x00\n      dup1\n      returndatacopy\n      revert(0x00, returndatasize)\n    tag_51:\n      pop\n      pop\n      pop\n      pop\n      mload(0x40)\n      returndatasize\n      0x00\n      dup3\n      returndatacopy\n      returndatasize\n      not(0x1f)\n      0x1f\n      dup3\n      add\n      and\n      dup3\n      add\n      dup1\n      0x40\n      mstore\n      pop\n      dup2\n      add\n      swap1\n      tag_52\n      swap2\n      swap1\n      tag_53\n      jump\t// in\n    tag_52:\n        /* \"contracts/AccessControl.sol\":1228:1280  (subjName, subjIP) = manager.getSubjInfo(msg.sender) */\n      dup1\n      swap3\n      pop\n      dup2\n      swap4\n      pop\n      pop\n      pop\n        /* \"contracts/AccessControl.sol\":1325:1340  blackListIpPool */\n      0x02\n        /* \"contracts/AccessControl.sol\":1341:1347  subjIP */\n      dup2\n        /* \"contracts/AccessControl.sol\":1325:1348  blackListIpPool[subjIP] */\n      mload(0x40)\n      tag_54\n      swap2\n      swap1\n      tag_42\n      jump\t// in\n    tag_54:\n      swap1\n      dup2\n      mstore\n      0x20\n      add\n      mload(0x40)\n      dup1\n      swap2\n      sub\n      swap1\n      keccak256\n      0x00\n      swap1\n      sload\n      swap1\n      0x0100\n      exp\n      swap1\n      div\n      0xff\n      and\n        /* \"contracts/AccessControl.sol\":1322:1505  if(blackListIpPool[subjIP]) {\r... */\n      iszero\n      tag_55\n      jumpi\n        /* \"contracts/AccessControl.sol\":1370:1442  AccessControlRet(msg.sender, _objectAddr, action, \"Illegal IP address!\") */\n      0x4393de65ee68a32d7987583b1f2c6e6aa80df7d9ad5c0661660d70dff18b9d6d\n        /* \"contracts/AccessControl.sol\":1387:1397  msg.sender */\n      caller\n        /* \"contracts/AccessControl.sol\":1399:1410  _objectAddr */\n      dup8\n        /* \"contracts/AccessControl.sol\":1412:1418  action */\n      dup8\n        /* \"contracts/AccessControl.sol\":1370:1442  AccessControlRet(msg.sender, _objectAddr, action, \"Illegal IP address!\") */\n      mload(0x40)\n      tag_56\n      swap4\n      swap3\n      swap2\n      swap1\n      tag_57\n      jump\t// in\n    tag_56:\n      mload(0x40)\n      dup1\n      swap2\n      sub\n      swap1\n      log1\n        /* \"contracts/AccessControl.sol\":1463:1468  false */\n      0x00\n        /* \"contracts/AccessControl.sol\":1457:1468  res = false */\n      swap4\n      pop\n        /* \"contracts/AccessControl.sol\":1483:1493  return res */\n      pop\n      pop\n      pop\n      jump(tag_33)\n        /* \"contracts/AccessControl.sol\":1322:1505  if(blackListIpPool[subjIP]) {\r... */\n    tag_55:\n        /* \"contracts/AccessControl.sol\":1553:1618  AccessControlRet(msg.sender, _objectAddr, action, \"Access pass!\") */\n      0x4393de65ee68a32d7987583b1f2c6e6aa80df7d9ad5c0661660d70dff18b9d6d\n        /* \"contracts/AccessControl.sol\":1570:1580  msg.sender */\n      caller\n        /* \"contracts/AccessControl.sol\":1582:1593  _objectAddr */\n      dup8\n        /* \"contracts/AccessControl.sol\":1595:1601  action */\n      dup8\n        /* \"contracts/AccessControl.sol\":1553:1618  AccessControlRet(msg.sender, _objectAddr, action, \"Access pass!\") */\n      mload(0x40)\n      tag_58\n      swap4\n      swap3\n      swap2\n      swap1\n      tag_59\n      jump\t// in\n    tag_58:\n      mload(0x40)\n      dup1\n      swap2\n      sub\n      swap1\n      log1\n        /* \"contracts/AccessControl.sol\":1635:1639  true */\n      0x01\n        /* \"contracts/AccessControl.sol\":1629:1639  res = true */\n      swap4\n      pop\n        /* \"contracts/AccessControl.sol\":833:1647  {\r... */\n      pop\n      pop\n      pop\n        /* \"contracts/AccessControl.sol\":741:1647  function accessControl(address _objectAddr, string memory action) public returns (bool res) {\r... */\n    tag_33:\n      swap3\n      swap2\n      pop\n      pop\n      jump\t// out\n        /* \"contracts/AccessControl.sol\":1659:1751  function getCurTime() public view returns(uint256) {\r... */\n    tag_17:\n        /* \"contracts/AccessControl.sol\":1701:1708  uint256 */\n      0x00\n        /* \"contracts/AccessControl.sol\":1728:1743  block.timestamp */\n      timestamp\n        /* \"contracts/AccessControl.sol\":1721:1743  return block.timestamp */\n      swap1\n      pop\n        /* \"contracts/AccessControl.sol\":1659:1751  function getCurTime() public view returns(uint256) {\r... */\n      swap1\n      jump\t// out\n        /* \"#utility.yul\":7:419   */\n    tag_62:\n        /* \"#utility.yul\":85:90   */\n      0x00\n        /* \"#utility.yul\":110:176   */\n      tag_64\n        /* \"#utility.yul\":126:175   */\n      tag_65\n        /* \"#utility.yul\":168:174   */\n      dup5\n        /* \"#utility.yul\":126:175   */\n      tag_66\n      jump\t// in\n    tag_65:\n        /* \"#utility.yul\":110:176   */\n      tag_67\n      jump\t// in\n    tag_64:\n        /* \"#utility.yul\":101:176   */\n      swap1\n      pop\n        /* \"#utility.yul\":199:205   */\n      dup3\n        /* \"#utility.yul\":192:197   */\n      dup2\n        /* \"#utility.yul\":185:206   */\n      mstore\n        /* \"#utility.yul\":237:241   */\n      0x20\n        /* \"#utility.yul\":230:235   */\n      dup2\n        /* \"#utility.yul\":226:242   */\n      add\n        /* \"#utility.yul\":275:278   */\n      dup5\n        /* \"#utility.yul\":266:272   */\n      dup5\n        /* \"#utility.yul\":261:264   */\n      dup5\n        /* \"#utility.yul\":257:273   */\n      add\n        /* \"#utility.yul\":254:279   */\n      gt\n        /* \"#utility.yul\":251:363   */\n      iszero\n      tag_68\n      jumpi\n        /* \"#utility.yul\":282:361   */\n      tag_69\n      tag_70\n      jump\t// in\n    tag_69:\n        /* \"#utility.yul\":251:363   */\n    tag_68:\n        /* \"#utility.yul\":372:413   */\n      tag_71\n        /* \"#utility.yul\":406:412   */\n      dup5\n        /* \"#utility.yul\":401:404   */\n      dup3\n        /* \"#utility.yul\":396:399   */\n      dup6\n        /* \"#utility.yul\":372:413   */\n      tag_72\n      jump\t// in\n    tag_71:\n        /* \"#utility.yul\":91:419   */\n      pop\n        /* \"#utility.yul\":7:419   */\n      swap4\n      swap3\n      pop\n      pop\n      pop\n      jump\t// out\n        /* \"#utility.yul\":425:846   */\n    tag_73:\n        /* \"#utility.yul\":514:519   */\n      0x00\n        /* \"#utility.yul\":539:605   */\n      tag_75\n        /* \"#utility.yul\":555:604   */\n      tag_76\n        /* \"#utility.yul\":597:603   */\n      dup5\n        /* \"#utility.yul\":555:604   */\n      tag_66\n      jump\t// in\n    tag_76:\n        /* \"#utility.yul\":539:605   */\n      tag_67\n      jump\t// in\n    tag_75:\n        /* \"#utility.yul\":530:605   */\n      swap1\n      pop\n        /* \"#utility.yul\":628:634   */\n      dup3\n        /* \"#utility.yul\":621:626   */\n      dup2\n        /* \"#utility.yul\":614:635   */\n      mstore\n        /* \"#utility.yul\":666:670   */\n      0x20\n        /* \"#utility.yul\":659:664   */\n      dup2\n        /* \"#utility.yul\":655:671   */\n      add\n        /* \"#utility.yul\":704:707   */\n      dup5\n        /* \"#utility.yul\":695:701   */\n      dup5\n        /* \"#utility.yul\":690:693   */\n      dup5\n        /* \"#utility.yul\":686:702   */\n      add\n        /* \"#utility.yul\":683:708   */\n      gt\n        /* \"#utility.yul\":680:792   */\n      iszero\n      tag_77\n      jumpi\n        /* \"#utility.yul\":711:790   */\n      tag_78\n      tag_70\n      jump\t// in\n    tag_78:\n        /* \"#utility.yul\":680:792   */\n    tag_77:\n        /* \"#utility.yul\":801:840   */\n      tag_79\n        /* \"#utility.yul\":833:839   */\n      dup5\n        /* \"#utility.yul\":828:831   */\n      dup3\n        /* \"#utility.yul\":823:826   */\n      dup6\n        /* \"#utility.yul\":801:840   */\n      tag_80\n      jump\t// in\n    tag_79:\n        /* \"#utility.yul\":520:846   */\n      pop\n        /* \"#utility.yul\":425:846   */\n      swap4\n      swap3\n      pop\n      pop\n      pop\n      jump\t// out\n        /* \"#utility.yul\":852:991   */\n    tag_81:\n        /* \"#utility.yul\":898:903   */\n      0x00\n        /* \"#utility.yul\":936:942   */\n      dup2\n        /* \"#utility.yul\":923:943   */\n      calldataload\n        /* \"#utility.yul\":914:943   */\n      swap1\n      pop\n        /* \"#utility.yul\":952:985   */\n      tag_83\n        /* \"#utility.yul\":979:984   */\n      dup2\n        /* \"#utility.yul\":952:985   */\n      tag_84\n      jump\t// in\n    tag_83:\n        /* \"#utility.yul\":852:991   */\n      swap3\n      swap2\n      pop\n      pop\n      jump\t// out\n        /* \"#utility.yul\":1011:1351   */\n    tag_85:\n        /* \"#utility.yul\":1067:1072   */\n      0x00\n        /* \"#utility.yul\":1116:1119   */\n      dup3\n        /* \"#utility.yul\":1109:1113   */\n      0x1f\n        /* \"#utility.yul\":1101:1107   */\n      dup4\n        /* \"#utility.yul\":1097:1114   */\n      add\n        /* \"#utility.yul\":1093:1120   */\n      slt\n        /* \"#utility.yul\":1083:1205   */\n      tag_87\n      jumpi\n        /* \"#utility.yul\":1124:1203   */\n      tag_88\n      tag_89\n      jump\t// in\n    tag_88:\n        /* \"#utility.yul\":1083:1205   */\n    tag_87:\n        /* \"#utility.yul\":1241:1247   */\n      dup2\n        /* \"#utility.yul\":1228:1248   */\n      calldataload\n        /* \"#utility.yul\":1266:1345   */\n      tag_90\n        /* \"#utility.yul\":1341:1344   */\n      dup5\n        /* \"#utility.yul\":1333:1339   */\n      dup3\n        /* \"#utility.yul\":1326:1330   */\n      0x20\n        /* \"#utility.yul\":1318:1324   */\n      dup7\n        /* \"#utility.yul\":1314:1331   */\n      add\n        /* \"#utility.yul\":1266:1345   */\n      tag_62\n      jump\t// in\n    tag_90:\n        /* \"#utility.yul\":1257:1345   */\n      swap2\n      pop\n        /* \"#utility.yul\":1073:1351   */\n      pop\n        /* \"#utility.yul\":1011:1351   */\n      swap3\n      swap2\n      pop\n      pop\n      jump\t// out\n        /* \"#utility.yul\":1371:1726   */\n    tag_91:\n        /* \"#utility.yul\":1438:1443   */\n      0x00\n        /* \"#utility.yul\":1487:1490   */\n      dup3\n        /* \"#utility.yul\":1480:1484   */\n      0x1f\n        /* \"#utility.yul\":1472:1478   */\n      dup4\n        /* \"#utility.yul\":1468:1485   */\n      add\n        /* \"#utility.yul\":1464:1491   */\n      slt\n        /* \"#utility.yul\":1454:1576   */\n      tag_93\n      jumpi\n        /* \"#utility.yul\":1495:1574   */\n      tag_94\n      tag_89\n      jump\t// in\n    tag_94:\n        /* \"#utility.yul\":1454:1576   */\n    tag_93:\n        /* \"#utility.yul\":1605:1611   */\n      dup2\n        /* \"#utility.yul\":1599:1612   */\n      mload\n        /* \"#utility.yul\":1630:1720   */\n      tag_95\n        /* \"#utility.yul\":1716:1719   */\n      dup5\n        /* \"#utility.yul\":1708:1714   */\n      dup3\n        /* \"#utility.yul\":1701:1705   */\n      0x20\n        /* \"#utility.yul\":1693:1699   */\n      dup7\n        /* \"#utility.yul\":1689:1706   */\n      add\n        /* \"#utility.yul\":1630:1720   */\n      tag_73\n      jump\t// in\n    tag_95:\n        /* \"#utility.yul\":1621:1720   */\n      swap2\n      pop\n        /* \"#utility.yul\":1444:1726   */\n      pop\n        /* \"#utility.yul\":1371:1726   */\n      swap3\n      swap2\n      pop\n      pop\n      jump\t// out\n        /* \"#utility.yul\":1732:2061   */\n    tag_8:\n        /* \"#utility.yul\":1791:1797   */\n      0x00\n        /* \"#utility.yul\":1840:1842   */\n      0x20\n        /* \"#utility.yul\":1828:1837   */\n      dup3\n        /* \"#utility.yul\":1819:1826   */\n      dup5\n        /* \"#utility.yul\":1815:1838   */\n      sub\n        /* \"#utility.yul\":1811:1843   */\n      slt\n        /* \"#utility.yul\":1808:1927   */\n      iszero\n      tag_97\n      jumpi\n        /* \"#utility.yul\":1846:1925   */\n      tag_98\n      tag_99\n      jump\t// in\n    tag_98:\n        /* \"#utility.yul\":1808:1927   */\n    tag_97:\n        /* \"#utility.yul\":1966:1967   */\n      0x00\n        /* \"#utility.yul\":1991:2044   */\n      tag_100\n        /* \"#utility.yul\":2036:2043   */\n      dup5\n        /* \"#utility.yul\":2027:2033   */\n      dup3\n        /* \"#utility.yul\":2016:2025   */\n      dup6\n        /* \"#utility.yul\":2012:2034   */\n      add\n        /* \"#utility.yul\":1991:2044   */\n      tag_81\n      jump\t// in\n    tag_100:\n        /* \"#utility.yul\":1981:2044   */\n      swap2\n      pop\n        /* \"#utility.yul\":1937:2054   */\n      pop\n        /* \"#utility.yul\":1732:2061   */\n      swap3\n      swap2\n      pop\n      pop\n      jump\t// out\n        /* \"#utility.yul\":2067:2721   */\n    tag_12:\n        /* \"#utility.yul\":2145:2151   */\n      0x00\n        /* \"#utility.yul\":2153:2159   */\n      dup1\n        /* \"#utility.yul\":2202:2204   */\n      0x40\n        /* \"#utility.yul\":2190:2199   */\n      dup4\n        /* \"#utility.yul\":2181:2188   */\n      dup6\n        /* \"#utility.yul\":2177:2200   */\n      sub\n        /* \"#utility.yul\":2173:2205   */\n      slt\n        /* \"#utility.yul\":2170:2289   */\n      iszero\n      tag_102\n      jumpi\n        /* \"#utility.yul\":2208:2287   */\n      tag_103\n      tag_99\n      jump\t// in\n    tag_103:\n        /* \"#utility.yul\":2170:2289   */\n    tag_102:\n        /* \"#utility.yul\":2328:2329   */\n      0x00\n        /* \"#utility.yul\":2353:2406   */\n      tag_104\n        /* \"#utility.yul\":2398:2405   */\n      dup6\n        /* \"#utility.yul\":2389:2395   */\n      dup3\n        /* \"#utility.yul\":2378:2387   */\n      dup7\n        /* \"#utility.yul\":2374:2396   */\n      add\n        /* \"#utility.yul\":2353:2406   */\n      tag_81\n      jump\t// in\n    tag_104:\n        /* \"#utility.yul\":2343:2406   */\n      swap3\n      pop\n        /* \"#utility.yul\":2299:2416   */\n      pop\n        /* \"#utility.yul\":2483:2485   */\n      0x20\n        /* \"#utility.yul\":2472:2481   */\n      dup4\n        /* \"#utility.yul\":2468:2486   */\n      add\n        /* \"#utility.yul\":2455:2487   */\n      calldataload\n        /* \"#utility.yul\":2514:2532   */\n      0xffffffffffffffff\n        /* \"#utility.yul\":2506:2512   */\n      dup2\n        /* \"#utility.yul\":2503:2533   */\n      gt\n        /* \"#utility.yul\":2500:2617   */\n      iszero\n      tag_105\n      jumpi\n        /* \"#utility.yul\":2536:2615   */\n      tag_106\n      tag_107\n      jump\t// in\n    tag_106:\n        /* \"#utility.yul\":2500:2617   */\n    tag_105:\n        /* \"#utility.yul\":2641:2704   */\n      tag_108\n        /* \"#utility.yul\":2696:2703   */\n      dup6\n        /* \"#utility.yul\":2687:2693   */\n      dup3\n        /* \"#utility.yul\":2676:2685   */\n      dup7\n        /* \"#utility.yul\":2672:2694   */\n      add\n        /* \"#utility.yul\":2641:2704   */\n      tag_85\n      jump\t// in\n    tag_108:\n        /* \"#utility.yul\":2631:2704   */\n      swap2\n      pop\n        /* \"#utility.yul\":2426:2714   */\n      pop\n        /* \"#utility.yul\":2067:2721   */\n      swap3\n      pop\n      swap3\n      swap1\n      pop\n      jump\t// out\n        /* \"#utility.yul\":2727:3251   */\n    tag_40:\n        /* \"#utility.yul\":2807:2813   */\n      0x00\n        /* \"#utility.yul\":2856:2858   */\n      0x20\n        /* \"#utility.yul\":2844:2853   */\n      dup3\n        /* \"#utility.yul\":2835:2842   */\n      dup5\n        /* \"#utility.yul\":2831:2854   */\n      sub\n        /* \"#utility.yul\":2827:2859   */\n      slt\n        /* \"#utility.yul\":2824:2943   */\n      iszero\n      tag_110\n      jumpi\n        /* \"#utility.yul\":2862:2941   */\n      tag_111\n      tag_99\n      jump\t// in\n    tag_111:\n        /* \"#utility.yul\":2824:2943   */\n    tag_110:\n        /* \"#utility.yul\":3003:3004   */\n      0x00\n        /* \"#utility.yul\":2992:3001   */\n      dup3\n        /* \"#utility.yul\":2988:3005   */\n      add\n        /* \"#utility.yul\":2982:3006   */\n      mload\n        /* \"#utility.yul\":3033:3051   */\n      0xffffffffffffffff\n        /* \"#utility.yul\":3025:3031   */\n      dup2\n        /* \"#utility.yul\":3022:3052   */\n      gt\n        /* \"#utility.yul\":3019:3136   */\n      iszero\n      tag_112\n      jumpi\n        /* \"#utility.yul\":3055:3134   */\n      tag_113\n      tag_107\n      jump\t// in\n    tag_113:\n        /* \"#utility.yul\":3019:3136   */\n    tag_112:\n        /* \"#utility.yul\":3160:3234   */\n      tag_114\n        /* \"#utility.yul\":3226:3233   */\n      dup5\n        /* \"#utility.yul\":3217:3223   */\n      dup3\n        /* \"#utility.yul\":3206:3215   */\n      dup6\n        /* \"#utility.yul\":3202:3224   */\n      add\n        /* \"#utility.yul\":3160:3234   */\n      tag_91\n      jump\t// in\n    tag_114:\n        /* \"#utility.yul\":3150:3234   */\n      swap2\n      pop\n        /* \"#utility.yul\":2953:3244   */\n      pop\n        /* \"#utility.yul\":2727:3251   */\n      swap3\n      swap2\n      pop\n      pop\n      jump\t// out\n        /* \"#utility.yul\":3257:4110   */\n    tag_53:\n        /* \"#utility.yul\":3356:3362   */\n      0x00\n        /* \"#utility.yul\":3364:3370   */\n      dup1\n        /* \"#utility.yul\":3413:3415   */\n      0x40\n        /* \"#utility.yul\":3401:3410   */\n      dup4\n        /* \"#utility.yul\":3392:3399   */\n      dup6\n        /* \"#utility.yul\":3388:3411   */\n      sub\n        /* \"#utility.yul\":3384:3416   */\n      slt\n        /* \"#utility.yul\":3381:3500   */\n      iszero\n      tag_116\n      jumpi\n        /* \"#utility.yul\":3419:3498   */\n      tag_117\n      tag_99\n      jump\t// in\n    tag_117:\n        /* \"#utility.yul\":3381:3500   */\n    tag_116:\n        /* \"#utility.yul\":3560:3561   */\n      0x00\n        /* \"#utility.yul\":3549:3558   */\n      dup4\n        /* \"#utility.yul\":3545:3562   */\n      add\n        /* \"#utility.yul\":3539:3563   */\n      mload\n        /* \"#utility.yul\":3590:3608   */\n      0xffffffffffffffff\n        /* \"#utility.yul\":3582:3588   */\n      dup2\n        /* \"#utility.yul\":3579:3609   */\n      gt\n        /* \"#utility.yul\":3576:3693   */\n      iszero\n      tag_118\n      jumpi\n        /* \"#utility.yul\":3612:3691   */\n      tag_119\n      tag_107\n      jump\t// in\n    tag_119:\n        /* \"#utility.yul\":3576:3693   */\n    tag_118:\n        /* \"#utility.yul\":3717:3791   */\n      tag_120\n        /* \"#utility.yul\":3783:3790   */\n      dup6\n        /* \"#utility.yul\":3774:3780   */\n      dup3\n        /* \"#utility.yul\":3763:3772   */\n      dup7\n        /* \"#utility.yul\":3759:3781   */\n      add\n        /* \"#utility.yul\":3717:3791   */\n      tag_91\n      jump\t// in\n    tag_120:\n        /* \"#utility.yul\":3707:3791   */\n      swap3\n      pop\n        /* \"#utility.yul\":3510:3801   */\n      pop\n        /* \"#utility.yul\":3861:3863   */\n      0x20\n        /* \"#utility.yul\":3850:3859   */\n      dup4\n        /* \"#utility.yul\":3846:3864   */\n      add\n        /* \"#utility.yul\":3840:3865   */\n      mload\n        /* \"#utility.yul\":3892:3910   */\n      0xffffffffffffffff\n        /* \"#utility.yul\":3884:3890   */\n      dup2\n        /* \"#utility.yul\":3881:3911   */\n      gt\n        /* \"#utility.yul\":3878:3995   */\n      iszero\n      tag_121\n      jumpi\n        /* \"#utility.yul\":3914:3993   */\n      tag_122\n      tag_107\n      jump\t// in\n    tag_122:\n        /* \"#utility.yul\":3878:3995   */\n    tag_121:\n        /* \"#utility.yul\":4019:4093   */\n      tag_123\n        /* \"#utility.yul\":4085:4092   */\n      dup6\n        /* \"#utility.yul\":4076:4082   */\n      dup3\n        /* \"#utility.yul\":4065:4074   */\n      dup7\n        /* \"#utility.yul\":4061:4083   */\n      add\n        /* \"#utility.yul\":4019:4093   */\n      tag_91\n      jump\t// in\n    tag_123:\n        /* \"#utility.yul\":4009:4093   */\n      swap2\n      pop\n        /* \"#utility.yul\":3811:4103   */\n      pop\n        /* \"#utility.yul\":3257:4110   */\n      swap3\n      pop\n      swap3\n      swap1\n      pop\n      jump\t// out\n        /* \"#utility.yul\":4116:4234   */\n    tag_124:\n        /* \"#utility.yul\":4203:4227   */\n      tag_126\n        /* \"#utility.yul\":4221:4226   */\n      dup2\n        /* \"#utility.yul\":4203:4227   */\n      tag_127\n      jump\t// in\n    tag_126:\n        /* \"#utility.yul\":4198:4201   */\n      dup3\n        /* \"#utility.yul\":4191:4228   */\n      mstore\n        /* \"#utility.yul\":4116:4234   */\n      pop\n      pop\n      jump\t// out\n        /* \"#utility.yul\":4240:4349   */\n    tag_128:\n        /* \"#utility.yul\":4321:4342   */\n      tag_130\n        /* \"#utility.yul\":4336:4341   */\n      dup2\n        /* \"#utility.yul\":4321:4342   */\n      tag_131\n      jump\t// in\n    tag_130:\n        /* \"#utility.yul\":4316:4319   */\n      dup3\n        /* \"#utility.yul\":4309:4343   */\n      mstore\n        /* \"#utility.yul\":4240:4349   */\n      pop\n      pop\n      jump\t// out\n        /* \"#utility.yul\":4355:4719   */\n    tag_132:\n        /* \"#utility.yul\":4443:4446   */\n      0x00\n        /* \"#utility.yul\":4471:4510   */\n      tag_134\n        /* \"#utility.yul\":4504:4509   */\n      dup3\n        /* \"#utility.yul\":4471:4510   */\n      tag_135\n      jump\t// in\n    tag_134:\n        /* \"#utility.yul\":4526:4597   */\n      tag_136\n        /* \"#utility.yul\":4590:4596   */\n      dup2\n        /* \"#utility.yul\":4585:4588   */\n      dup6\n        /* \"#utility.yul\":4526:4597   */\n      tag_137\n      jump\t// in\n    tag_136:\n        /* \"#utility.yul\":4519:4597   */\n      swap4\n      pop\n        /* \"#utility.yul\":4606:4658   */\n      tag_138\n        /* \"#utility.yul\":4651:4657   */\n      dup2\n        /* \"#utility.yul\":4646:4649   */\n      dup6\n        /* \"#utility.yul\":4639:4643   */\n      0x20\n        /* \"#utility.yul\":4632:4637   */\n      dup7\n        /* \"#utility.yul\":4628:4644   */\n      add\n        /* \"#utility.yul\":4606:4658   */\n      tag_80\n      jump\t// in\n    tag_138:\n        /* \"#utility.yul\":4683:4712   */\n      tag_139\n        /* \"#utility.yul\":4705:4711   */\n      dup2\n        /* \"#utility.yul\":4683:4712   */\n      tag_140\n      jump\t// in\n    tag_139:\n        /* \"#utility.yul\":4678:4681   */\n      dup5\n        /* \"#utility.yul\":4674:4713   */\n      add\n        /* \"#utility.yul\":4667:4713   */\n      swap2\n      pop\n        /* \"#utility.yul\":4447:4719   */\n      pop\n        /* \"#utility.yul\":4355:4719   */\n      swap3\n      swap2\n      pop\n      pop\n      jump\t// out\n        /* \"#utility.yul\":4725:5102   */\n    tag_141:\n        /* \"#utility.yul\":4831:4834   */\n      0x00\n        /* \"#utility.yul\":4859:4898   */\n      tag_143\n        /* \"#utility.yul\":4892:4897   */\n      dup3\n        /* \"#utility.yul\":4859:4898   */\n      tag_135\n      jump\t// in\n    tag_143:\n        /* \"#utility.yul\":4914:5003   */\n      tag_144\n        /* \"#utility.yul\":4996:5002   */\n      dup2\n        /* \"#utility.yul\":4991:4994   */\n      dup6\n        /* \"#utility.yul\":4914:5003   */\n      tag_145\n      jump\t// in\n    tag_144:\n        /* \"#utility.yul\":4907:5003   */\n      swap4\n      pop\n        /* \"#utility.yul\":5012:5064   */\n      tag_146\n        /* \"#utility.yul\":5057:5063   */\n      dup2\n        /* \"#utility.yul\":5052:5055   */\n      dup6\n        /* \"#utility.yul\":5045:5049   */\n      0x20\n        /* \"#utility.yul\":5038:5043   */\n      dup7\n        /* \"#utility.yul\":5034:5050   */\n      add\n        /* \"#utility.yul\":5012:5064   */\n      tag_80\n      jump\t// in\n    tag_146:\n        /* \"#utility.yul\":5089:5095   */\n      dup1\n        /* \"#utility.yul\":5084:5087   */\n      dup5\n        /* \"#utility.yul\":5080:5096   */\n      add\n        /* \"#utility.yul\":5073:5096   */\n      swap2\n      pop\n        /* \"#utility.yul\":4835:5102   */\n      pop\n        /* \"#utility.yul\":4725:5102   */\n      swap3\n      swap2\n      pop\n      pop\n      jump\t// out\n        /* \"#utility.yul\":5108:5508   */\n    tag_147:\n        /* \"#utility.yul\":5268:5271   */\n      0x00\n        /* \"#utility.yul\":5289:5373   */\n      tag_149\n        /* \"#utility.yul\":5371:5372   */\n      0x05\n        /* \"#utility.yul\":5366:5369   */\n      dup4\n        /* \"#utility.yul\":5289:5373   */\n      tag_145\n      jump\t// in\n    tag_149:\n        /* \"#utility.yul\":5282:5373   */\n      swap2\n      pop\n        /* \"#utility.yul\":5382:5475   */\n      tag_150\n        /* \"#utility.yul\":5471:5474   */\n      dup3\n        /* \"#utility.yul\":5382:5475   */\n      tag_151\n      jump\t// in\n    tag_150:\n        /* \"#utility.yul\":5500:5501   */\n      0x05\n        /* \"#utility.yul\":5495:5498   */\n      dup3\n        /* \"#utility.yul\":5491:5502   */\n      add\n        /* \"#utility.yul\":5484:5502   */\n      swap1\n      pop\n        /* \"#utility.yul\":5108:5508   */\n      swap2\n      swap1\n      pop\n      jump\t// out\n        /* \"#utility.yul\":5514:5914   */\n    tag_152:\n        /* \"#utility.yul\":5674:5677   */\n      0x00\n        /* \"#utility.yul\":5695:5779   */\n      tag_154\n        /* \"#utility.yul\":5777:5778   */\n      0x07\n        /* \"#utility.yul\":5772:5775   */\n      dup4\n        /* \"#utility.yul\":5695:5779   */\n      tag_145\n      jump\t// in\n    tag_154:\n        /* \"#utility.yul\":5688:5779   */\n      swap2\n      pop\n        /* \"#utility.yul\":5788:5881   */\n      tag_155\n        /* \"#utility.yul\":5877:5880   */\n      dup3\n        /* \"#utility.yul\":5788:5881   */\n      tag_156\n      jump\t// in\n    tag_155:\n        /* \"#utility.yul\":5906:5907   */\n      0x07\n        /* \"#utility.yul\":5901:5904   */\n      dup3\n        /* \"#utility.yul\":5897:5908   */\n      add\n        /* \"#utility.yul\":5890:5908   */\n      swap1\n      pop\n        /* \"#utility.yul\":5514:5914   */\n      swap2\n      swap1\n      pop\n      jump\t// out\n        /* \"#utility.yul\":5920:6286   */\n    tag_157:\n        /* \"#utility.yul\":6062:6065   */\n      0x00\n        /* \"#utility.yul\":6083:6150   */\n      tag_159\n        /* \"#utility.yul\":6147:6149   */\n      0x0c\n        /* \"#utility.yul\":6142:6145   */\n      dup4\n        /* \"#utility.yul\":6083:6150   */\n      tag_137\n      jump\t// in\n    tag_159:\n        /* \"#utility.yul\":6076:6150   */\n      swap2\n      pop\n        /* \"#utility.yul\":6159:6252   */\n      tag_160\n        /* \"#utility.yul\":6248:6251   */\n      dup3\n        /* \"#utility.yul\":6159:6252   */\n      tag_161\n      jump\t// in\n    tag_160:\n        /* \"#utility.yul\":6277:6279   */\n      0x20\n        /* \"#utility.yul\":6272:6275   */\n      dup3\n        /* \"#utility.yul\":6268:6280   */\n      add\n        /* \"#utility.yul\":6261:6280   */\n      swap1\n      pop\n        /* \"#utility.yul\":5920:6286   */\n      swap2\n      swap1\n      pop\n      jump\t// out\n        /* \"#utility.yul\":6292:6692   */\n    tag_162:\n        /* \"#utility.yul\":6452:6455   */\n      0x00\n        /* \"#utility.yul\":6473:6557   */\n      tag_164\n        /* \"#utility.yul\":6555:6556   */\n      0x07\n        /* \"#utility.yul\":6550:6553   */\n      dup4\n        /* \"#utility.yul\":6473:6557   */\n      tag_145\n      jump\t// in\n    tag_164:\n        /* \"#utility.yul\":6466:6557   */\n      swap2\n      pop\n        /* \"#utility.yul\":6566:6659   */\n      tag_165\n        /* \"#utility.yul\":6655:6658   */\n      dup3\n        /* \"#utility.yul\":6566:6659   */\n      tag_166\n      jump\t// in\n    tag_165:\n        /* \"#utility.yul\":6684:6685   */\n      0x07\n        /* \"#utility.yul\":6679:6682   */\n      dup3\n        /* \"#utility.yul\":6675:6686   */\n      add\n        /* \"#utility.yul\":6668:6686   */\n      swap1\n      pop\n        /* \"#utility.yul\":6292:6692   */\n      swap2\n      swap1\n      pop\n      jump\t// out\n        /* \"#utility.yul\":6698:7064   */\n    tag_167:\n        /* \"#utility.yul\":6840:6843   */\n      0x00\n        /* \"#utility.yul\":6861:6928   */\n      tag_169\n        /* \"#utility.yul\":6925:6927   */\n      0x13\n        /* \"#utility.yul\":6920:6923   */\n      dup4\n        /* \"#utility.yul\":6861:6928   */\n      tag_137\n      jump\t// in\n    tag_169:\n        /* \"#utility.yul\":6854:6928   */\n      swap2\n      pop\n        /* \"#utility.yul\":6937:7030   */\n      tag_170\n        /* \"#utility.yul\":7026:7029   */\n      dup3\n        /* \"#utility.yul\":6937:7030   */\n      tag_171\n      jump\t// in\n    tag_170:\n        /* \"#utility.yul\":7055:7057   */\n      0x20\n        /* \"#utility.yul\":7050:7053   */\n      dup3\n        /* \"#utility.yul\":7046:7058   */\n      add\n        /* \"#utility.yul\":7039:7058   */\n      swap1\n      pop\n        /* \"#utility.yul\":6698:7064   */\n      swap2\n      swap1\n      pop\n      jump\t// out\n        /* \"#utility.yul\":7070:7470   */\n    tag_172:\n        /* \"#utility.yul\":7230:7233   */\n      0x00\n        /* \"#utility.yul\":7251:7335   */\n      tag_174\n        /* \"#utility.yul\":7333:7334   */\n      0x04\n        /* \"#utility.yul\":7328:7331   */\n      dup4\n        /* \"#utility.yul\":7251:7335   */\n      tag_145\n      jump\t// in\n    tag_174:\n        /* \"#utility.yul\":7244:7335   */\n      swap2\n      pop\n        /* \"#utility.yul\":7344:7437   */\n      tag_175\n        /* \"#utility.yul\":7433:7436   */\n      dup3\n        /* \"#utility.yul\":7344:7437   */\n      tag_176\n      jump\t// in\n    tag_175:\n        /* \"#utility.yul\":7462:7463   */\n      0x04\n        /* \"#utility.yul\":7457:7460   */\n      dup3\n        /* \"#utility.yul\":7453:7464   */\n      add\n        /* \"#utility.yul\":7446:7464   */\n      swap1\n      pop\n        /* \"#utility.yul\":7070:7470   */\n      swap2\n      swap1\n      pop\n      jump\t// out\n        /* \"#utility.yul\":7476:7876   */\n    tag_177:\n        /* \"#utility.yul\":7636:7639   */\n      0x00\n        /* \"#utility.yul\":7657:7741   */\n      tag_179\n        /* \"#utility.yul\":7739:7740   */\n      0x04\n        /* \"#utility.yul\":7734:7737   */\n      dup4\n        /* \"#utility.yul\":7657:7741   */\n      tag_145\n      jump\t// in\n    tag_179:\n        /* \"#utility.yul\":7650:7741   */\n      swap2\n      pop\n        /* \"#utility.yul\":7750:7843   */\n      tag_180\n        /* \"#utility.yul\":7839:7842   */\n      dup3\n        /* \"#utility.yul\":7750:7843   */\n      tag_181\n      jump\t// in\n    tag_180:\n        /* \"#utility.yul\":7868:7869   */\n      0x04\n        /* \"#utility.yul\":7863:7866   */\n      dup3\n        /* \"#utility.yul\":7859:7870   */\n      add\n        /* \"#utility.yul\":7852:7870   */\n      swap1\n      pop\n        /* \"#utility.yul\":7476:7876   */\n      swap2\n      swap1\n      pop\n      jump\t// out\n        /* \"#utility.yul\":7882:8248   */\n    tag_182:\n        /* \"#utility.yul\":8024:8027   */\n      0x00\n        /* \"#utility.yul\":8045:8112   */\n      tag_184\n        /* \"#utility.yul\":8109:8111   */\n      0x14\n        /* \"#utility.yul\":8104:8107   */\n      dup4\n        /* \"#utility.yul\":8045:8112   */\n      tag_137\n      jump\t// in\n    tag_184:\n        /* \"#utility.yul\":8038:8112   */\n      swap2\n      pop\n        /* \"#utility.yul\":8121:8214   */\n      tag_185\n        /* \"#utility.yul\":8210:8213   */\n      dup3\n        /* \"#utility.yul\":8121:8214   */\n      tag_186\n      jump\t// in\n    tag_185:\n        /* \"#utility.yul\":8239:8241   */\n      0x20\n        /* \"#utility.yul\":8234:8237   */\n      dup3\n        /* \"#utility.yul\":8230:8242   */\n      add\n        /* \"#utility.yul\":8223:8242   */\n      swap1\n      pop\n        /* \"#utility.yul\":7882:8248   */\n      swap2\n      swap1\n      pop\n      jump\t// out\n        /* \"#utility.yul\":8254:8654   */\n    tag_187:\n        /* \"#utility.yul\":8414:8417   */\n      0x00\n        /* \"#utility.yul\":8435:8519   */\n      tag_189\n        /* \"#utility.yul\":8517:8518   */\n      0x04\n        /* \"#utility.yul\":8512:8515   */\n      dup4\n        /* \"#utility.yul\":8435:8519   */\n      tag_145\n      jump\t// in\n    tag_189:\n        /* \"#utility.yul\":8428:8519   */\n      swap2\n      pop\n        /* \"#utility.yul\":8528:8621   */\n      tag_190\n        /* \"#utility.yul\":8617:8620   */\n      dup3\n        /* \"#utility.yul\":8528:8621   */\n      tag_191\n      jump\t// in\n    tag_190:\n        /* \"#utility.yul\":8646:8647   */\n      0x04\n        /* \"#utility.yul\":8641:8644   */\n      dup3\n        /* \"#utility.yul\":8637:8648   */\n      add\n        /* \"#utility.yul\":8630:8648   */\n      swap1\n      pop\n        /* \"#utility.yul\":8254:8654   */\n      swap2\n      swap1\n      pop\n      jump\t// out\n        /* \"#utility.yul\":8660:8778   */\n    tag_192:\n        /* \"#utility.yul\":8747:8771   */\n      tag_194\n        /* \"#utility.yul\":8765:8770   */\n      dup2\n        /* \"#utility.yul\":8747:8771   */\n      tag_195\n      jump\t// in\n    tag_194:\n        /* \"#utility.yul\":8742:8745   */\n      dup3\n        /* \"#utility.yul\":8735:8772   */\n      mstore\n        /* \"#utility.yul\":8660:8778   */\n      pop\n      pop\n      jump\t// out\n        /* \"#utility.yul\":8784:9059   */\n    tag_42:\n        /* \"#utility.yul\":8916:8919   */\n      0x00\n        /* \"#utility.yul\":8938:9033   */\n      tag_197\n        /* \"#utility.yul\":9029:9032   */\n      dup3\n        /* \"#utility.yul\":9020:9026   */\n      dup5\n        /* \"#utility.yul\":8938:9033   */\n      tag_141\n      jump\t// in\n    tag_197:\n        /* \"#utility.yul\":8931:9033   */\n      swap2\n      pop\n        /* \"#utility.yul\":9050:9053   */\n      dup2\n        /* \"#utility.yul\":9043:9053   */\n      swap1\n      pop\n        /* \"#utility.yul\":8784:9059   */\n      swap3\n      swap2\n      pop\n      pop\n      jump\t// out\n        /* \"#utility.yul\":9065:9446   */\n    tag_26:\n        /* \"#utility.yul\":9250:9253   */\n      0x00\n        /* \"#utility.yul\":9272:9420   */\n      tag_199\n        /* \"#utility.yul\":9416:9419   */\n      dup3\n        /* \"#utility.yul\":9272:9420   */\n      tag_147\n      jump\t// in\n    tag_199:\n        /* \"#utility.yul\":9265:9420   */\n      swap2\n      pop\n        /* \"#utility.yul\":9437:9440   */\n      dup2\n        /* \"#utility.yul\":9430:9440   */\n      swap1\n      pop\n        /* \"#utility.yul\":9065:9446   */\n      swap2\n      swap1\n      pop\n      jump\t// out\n        /* \"#utility.yul\":9452:9833   */\n    tag_32:\n        /* \"#utility.yul\":9637:9640   */\n      0x00\n        /* \"#utility.yul\":9659:9807   */\n      tag_201\n        /* \"#utility.yul\":9803:9806   */\n      dup3\n        /* \"#utility.yul\":9659:9807   */\n      tag_152\n      jump\t// in\n    tag_201:\n        /* \"#utility.yul\":9652:9807   */\n      swap2\n      pop\n        /* \"#utility.yul\":9824:9827   */\n      dup2\n        /* \"#utility.yul\":9817:9827   */\n      swap1\n      pop\n        /* \"#utility.yul\":9452:9833   */\n      swap2\n      swap1\n      pop\n      jump\t// out\n        /* \"#utility.yul\":9839:10220   */\n    tag_28:\n        /* \"#utility.yul\":10024:10027   */\n      0x00\n        /* \"#utility.yul\":10046:10194   */\n      tag_203\n        /* \"#utility.yul\":10190:10193   */\n      dup3\n        /* \"#utility.yul\":10046:10194   */\n      tag_162\n      jump\t// in\n    tag_203:\n        /* \"#utility.yul\":10039:10194   */\n      swap2\n      pop\n        /* \"#utility.yul\":10211:10214   */\n      dup2\n        /* \"#utility.yul\":10204:10214   */\n      swap1\n      pop\n        /* \"#utility.yul\":9839:10220   */\n      swap2\n      swap1\n      pop\n      jump\t// out\n        /* \"#utility.yul\":10226:10607   */\n    tag_30:\n        /* \"#utility.yul\":10411:10414   */\n      0x00\n        /* \"#utility.yul\":10433:10581   */\n      tag_205\n        /* \"#utility.yul\":10577:10580   */\n      dup3\n        /* \"#utility.yul\":10433:10581   */\n      tag_172\n      jump\t// in\n    tag_205:\n        /* \"#utility.yul\":10426:10581   */\n      swap2\n      pop\n        /* \"#utility.yul\":10598:10601   */\n      dup2\n        /* \"#utility.yul\":10591:10601   */\n      swap1\n      pop\n        /* \"#utility.yul\":10226:10607   */\n      swap2\n      swap1\n      pop\n      jump\t// out\n        /* \"#utility.yul\":10613:10994   */\n    tag_24:\n        /* \"#utility.yul\":10798:10801   */\n      0x00\n        /* \"#utility.yul\":10820:10968   */\n      tag_207\n        /* \"#utility.yul\":10964:10967   */\n      dup3\n        /* \"#utility.yul\":10820:10968   */\n      tag_177\n      jump\t// in\n    tag_207:\n        /* \"#utility.yul\":10813:10968   */\n      swap2\n      pop\n        /* \"#utility.yul\":10985:10988   */\n      dup2\n        /* \"#utility.yul\":10978:10988   */\n      swap1\n      pop\n        /* \"#utility.yul\":10613:10994   */\n      swap2\n      swap1\n      pop\n      jump\t// out\n        /* \"#utility.yul\":11000:11381   */\n    tag_22:\n        /* \"#utility.yul\":11185:11188   */\n      0x00\n        /* \"#utility.yul\":11207:11355   */\n      tag_209\n        /* \"#utility.yul\":11351:11354   */\n      dup3\n        /* \"#utility.yul\":11207:11355   */\n      tag_187\n      jump\t// in\n    tag_209:\n        /* \"#utility.yul\":11200:11355   */\n      swap2\n      pop\n        /* \"#utility.yul\":11372:11375   */\n      dup2\n        /* \"#utility.yul\":11365:11375   */\n      swap1\n      pop\n        /* \"#utility.yul\":11000:11381   */\n      swap2\n      swap1\n      pop\n      jump\t// out\n        /* \"#utility.yul\":11387:11609   */\n    tag_48:\n        /* \"#utility.yul\":11480:11484   */\n      0x00\n        /* \"#utility.yul\":11518:11520   */\n      0x20\n        /* \"#utility.yul\":11507:11516   */\n      dup3\n        /* \"#utility.yul\":11503:11521   */\n      add\n        /* \"#utility.yul\":11495:11521   */\n      swap1\n      pop\n        /* \"#utility.yul\":11531:11602   */\n      tag_211\n        /* \"#utility.yul\":11599:11600   */\n      0x00\n        /* \"#utility.yul\":11588:11597   */\n      dup4\n        /* \"#utility.yul\":11584:11601   */\n      add\n        /* \"#utility.yul\":11575:11581   */\n      dup5\n        /* \"#utility.yul\":11531:11602   */\n      tag_124\n      jump\t// in\n    tag_211:\n        /* \"#utility.yul\":11387:11609   */\n      swap3\n      swap2\n      pop\n      pop\n      jump\t// out\n        /* \"#utility.yul\":11615:11947   */\n    tag_35:\n        /* \"#utility.yul\":11736:11740   */\n      0x00\n        /* \"#utility.yul\":11774:11776   */\n      0x40\n        /* \"#utility.yul\":11763:11772   */\n      dup3\n        /* \"#utility.yul\":11759:11777   */\n      add\n        /* \"#utility.yul\":11751:11777   */\n      swap1\n      pop\n        /* \"#utility.yul\":11787:11858   */\n      tag_213\n        /* \"#utility.yul\":11855:11856   */\n      0x00\n        /* \"#utility.yul\":11844:11853   */\n      dup4\n        /* \"#utility.yul\":11840:11857   */\n      add\n        /* \"#utility.yul\":11831:11837   */\n      dup6\n        /* \"#utility.yul\":11787:11858   */\n      tag_124\n      jump\t// in\n    tag_213:\n        /* \"#utility.yul\":11868:11940   */\n      tag_214\n        /* \"#utility.yul\":11936:11938   */\n      0x20\n        /* \"#utility.yul\":11925:11934   */\n      dup4\n        /* \"#utility.yul\":11921:11939   */\n      add\n        /* \"#utility.yul\":11912:11918   */\n      dup5\n        /* \"#utility.yul\":11868:11940   */\n      tag_124\n      jump\t// in\n    tag_214:\n        /* \"#utility.yul\":11615:11947   */\n      swap4\n      swap3\n      pop\n      pop\n      pop\n      jump\t// out\n        /* \"#utility.yul\":11953:12794   */\n    tag_59:\n        /* \"#utility.yul\":12223:12227   */\n      0x00\n        /* \"#utility.yul\":12261:12264   */\n      0x80\n        /* \"#utility.yul\":12250:12259   */\n      dup3\n        /* \"#utility.yul\":12246:12265   */\n      add\n        /* \"#utility.yul\":12238:12265   */\n      swap1\n      pop\n        /* \"#utility.yul\":12275:12346   */\n      tag_216\n        /* \"#utility.yul\":12343:12344   */\n      0x00\n        /* \"#utility.yul\":12332:12341   */\n      dup4\n        /* \"#utility.yul\":12328:12345   */\n      add\n        /* \"#utility.yul\":12319:12325   */\n      dup7\n        /* \"#utility.yul\":12275:12346   */\n      tag_124\n      jump\t// in\n    tag_216:\n        /* \"#utility.yul\":12356:12428   */\n      tag_217\n        /* \"#utility.yul\":12424:12426   */\n      0x20\n        /* \"#utility.yul\":12413:12422   */\n      dup4\n        /* \"#utility.yul\":12409:12427   */\n      add\n        /* \"#utility.yul\":12400:12406   */\n      dup6\n        /* \"#utility.yul\":12356:12428   */\n      tag_124\n      jump\t// in\n    tag_217:\n        /* \"#utility.yul\":12475:12484   */\n      dup2\n        /* \"#utility.yul\":12469:12473   */\n      dup2\n        /* \"#utility.yul\":12465:12485   */\n      sub\n        /* \"#utility.yul\":12460:12462   */\n      0x40\n        /* \"#utility.yul\":12449:12458   */\n      dup4\n        /* \"#utility.yul\":12445:12463   */\n      add\n        /* \"#utility.yul\":12438:12486   */\n      mstore\n        /* \"#utility.yul\":12503:12581   */\n      tag_218\n        /* \"#utility.yul\":12576:12580   */\n      dup2\n        /* \"#utility.yul\":12567:12573   */\n      dup5\n        /* \"#utility.yul\":12503:12581   */\n      tag_132\n      jump\t// in\n    tag_218:\n        /* \"#utility.yul\":12495:12581   */\n      swap1\n      pop\n        /* \"#utility.yul\":12628:12637   */\n      dup2\n        /* \"#utility.yul\":12622:12626   */\n      dup2\n        /* \"#utility.yul\":12618:12638   */\n      sub\n        /* \"#utility.yul\":12613:12615   */\n      0x60\n        /* \"#utility.yul\":12602:12611   */\n      dup4\n        /* \"#utility.yul\":12598:12616   */\n      add\n        /* \"#utility.yul\":12591:12639   */\n      mstore\n        /* \"#utility.yul\":12656:12787   */\n      tag_219\n        /* \"#utility.yul\":12782:12786   */\n      dup2\n        /* \"#utility.yul\":12656:12787   */\n      tag_157\n      jump\t// in\n    tag_219:\n        /* \"#utility.yul\":12648:12787   */\n      swap1\n      pop\n        /* \"#utility.yul\":11953:12794   */\n      swap5\n      swap4\n      pop\n      pop\n      pop\n      pop\n      jump\t// out\n        /* \"#utility.yul\":12800:13641   */\n    tag_57:\n        /* \"#utility.yul\":13070:13074   */\n      0x00\n        /* \"#utility.yul\":13108:13111   */\n      0x80\n        /* \"#utility.yul\":13097:13106   */\n      dup3\n        /* \"#utility.yul\":13093:13112   */\n      add\n        /* \"#utility.yul\":13085:13112   */\n      swap1\n      pop\n        /* \"#utility.yul\":13122:13193   */\n      tag_221\n        /* \"#utility.yul\":13190:13191   */\n      0x00\n        /* \"#utility.yul\":13179:13188   */\n      dup4\n        /* \"#utility.yul\":13175:13192   */\n      add\n        /* \"#utility.yul\":13166:13172   */\n      dup7\n        /* \"#utility.yul\":13122:13193   */\n      tag_124\n      jump\t// in\n    tag_221:\n        /* \"#utility.yul\":13203:13275   */\n      tag_222\n        /* \"#utility.yul\":13271:13273   */\n      0x20\n        /* \"#utility.yul\":13260:13269   */\n      dup4\n        /* \"#utility.yul\":13256:13274   */\n      add\n        /* \"#utility.yul\":13247:13253   */\n      dup6\n        /* \"#utility.yul\":13203:13275   */\n      tag_124\n      jump\t// in\n    tag_222:\n        /* \"#utility.yul\":13322:13331   */\n      dup2\n        /* \"#utility.yul\":13316:13320   */\n      dup2\n        /* \"#utility.yul\":13312:13332   */\n      sub\n        /* \"#utility.yul\":13307:13309   */\n      0x40\n        /* \"#utility.yul\":13296:13305   */\n      dup4\n        /* \"#utility.yul\":13292:13310   */\n      add\n        /* \"#utility.yul\":13285:13333   */\n      mstore\n        /* \"#utility.yul\":13350:13428   */\n      tag_223\n        /* \"#utility.yul\":13423:13427   */\n      dup2\n        /* \"#utility.yul\":13414:13420   */\n      dup5\n        /* \"#utility.yul\":13350:13428   */\n      tag_132\n      jump\t// in\n    tag_223:\n        /* \"#utility.yul\":13342:13428   */\n      swap1\n      pop\n        /* \"#utility.yul\":13475:13484   */\n      dup2\n        /* \"#utility.yul\":13469:13473   */\n      dup2\n        /* \"#utility.yul\":13465:13485   */\n      sub\n        /* \"#utility.yul\":13460:13462   */\n      0x60\n        /* \"#utility.yul\":13449:13458   */\n      dup4\n        /* \"#utility.yul\":13445:13463   */\n      add\n        /* \"#utility.yul\":13438:13486   */\n      mstore\n        /* \"#utility.yul\":13503:13634   */\n      tag_224\n        /* \"#utility.yul\":13629:13633   */\n      dup2\n        /* \"#utility.yul\":13503:13634   */\n      tag_167\n      jump\t// in\n    tag_224:\n        /* \"#utility.yul\":13495:13634   */\n      swap1\n      pop\n        /* \"#utility.yul\":12800:13641   */\n      swap5\n      swap4\n      pop\n      pop\n      pop\n      pop\n      jump\t// out\n        /* \"#utility.yul\":13647:14488   */\n    tag_46:\n        /* \"#utility.yul\":13917:13921   */\n      0x00\n        /* \"#utility.yul\":13955:13958   */\n      0x80\n        /* \"#utility.yul\":13944:13953   */\n      dup3\n        /* \"#utility.yul\":13940:13959   */\n      add\n        /* \"#utility.yul\":13932:13959   */\n      swap1\n      pop\n        /* \"#utility.yul\":13969:14040   */\n      tag_226\n        /* \"#utility.yul\":14037:14038   */\n      0x00\n        /* \"#utility.yul\":14026:14035   */\n      dup4\n        /* \"#utility.yul\":14022:14039   */\n      add\n        /* \"#utility.yul\":14013:14019   */\n      dup7\n        /* \"#utility.yul\":13969:14040   */\n      tag_124\n      jump\t// in\n    tag_226:\n        /* \"#utility.yul\":14050:14122   */\n      tag_227\n        /* \"#utility.yul\":14118:14120   */\n      0x20\n        /* \"#utility.yul\":14107:14116   */\n      dup4\n        /* \"#utility.yul\":14103:14121   */\n      add\n        /* \"#utility.yul\":14094:14100   */\n      dup6\n        /* \"#utility.yul\":14050:14122   */\n      tag_124\n      jump\t// in\n    tag_227:\n        /* \"#utility.yul\":14169:14178   */\n      dup2\n        /* \"#utility.yul\":14163:14167   */\n      dup2\n        /* \"#utility.yul\":14159:14179   */\n      sub\n        /* \"#utility.yul\":14154:14156   */\n      0x40\n        /* \"#utility.yul\":14143:14152   */\n      dup4\n        /* \"#utility.yul\":14139:14157   */\n      add\n        /* \"#utility.yul\":14132:14180   */\n      mstore\n        /* \"#utility.yul\":14197:14275   */\n      tag_228\n        /* \"#utility.yul\":14270:14274   */\n      dup2\n        /* \"#utility.yul\":14261:14267   */\n      dup5\n        /* \"#utility.yul\":14197:14275   */\n      tag_132\n      jump\t// in\n    tag_228:\n        /* \"#utility.yul\":14189:14275   */\n      swap1\n      pop\n        /* \"#utility.yul\":14322:14331   */\n      dup2\n        /* \"#utility.yul\":14316:14320   */\n      dup2\n        /* \"#utility.yul\":14312:14332   */\n      sub\n        /* \"#utility.yul\":14307:14309   */\n      0x60\n        /* \"#utility.yul\":14296:14305   */\n      dup4\n        /* \"#utility.yul\":14292:14310   */\n      add\n        /* \"#utility.yul\":14285:14333   */\n      mstore\n        /* \"#utility.yul\":14350:14481   */\n      tag_229\n        /* \"#utility.yul\":14476:14480   */\n      dup2\n        /* \"#utility.yul\":14350:14481   */\n      tag_182\n      jump\t// in\n    tag_229:\n        /* \"#utility.yul\":14342:14481   */\n      swap1\n      pop\n        /* \"#utility.yul\":13647:14488   */\n      swap5\n      swap4\n      pop\n      pop\n      pop\n      pop\n      jump\t// out\n        /* \"#utility.yul\":14494:14704   */\n    tag_15:\n        /* \"#utility.yul\":14581:14585   */\n      0x00\n        /* \"#utility.yul\":14619:14621   */\n      0x20\n        /* \"#utility.yul\":14608:14617   */\n      dup3\n        /* \"#utility.yul\":14604:14622   */\n      add\n        /* \"#utility.yul\":14596:14622   */\n      swap1\n      pop\n        /* \"#utility.yul\":14632:14697   */\n      tag_231\n        /* \"#utility.yul\":14694:14695   */\n      0x00\n        /* \"#utility.yul\":14683:14692   */\n      dup4\n        /* \"#utility.yul\":14679:14696   */\n      add\n        /* \"#utility.yul\":14670:14676   */\n      dup5\n        /* \"#utility.yul\":14632:14697   */\n      tag_128\n      jump\t// in\n    tag_231:\n        /* \"#utility.yul\":14494:14704   */\n      swap3\n      swap2\n      pop\n      pop\n      jump\t// out\n        /* \"#utility.yul\":14710:14932   */\n    tag_19:\n        /* \"#utility.yul\":14803:14807   */\n      0x00\n        /* \"#utility.yul\":14841:14843   */\n      0x20\n        /* \"#utility.yul\":14830:14839   */\n      dup3\n        /* \"#utility.yul\":14826:14844   */\n      add\n        /* \"#utility.yul\":14818:14844   */\n      swap1\n      pop\n        /* \"#utility.yul\":14854:14925   */\n      tag_233\n        /* \"#utility.yul\":14922:14923   */\n      0x00\n        /* \"#utility.yul\":14911:14920   */\n      dup4\n        /* \"#utility.yul\":14907:14924   */\n      add\n        /* \"#utility.yul\":14898:14904   */\n      dup5\n        /* \"#utility.yul\":14854:14925   */\n      tag_192\n      jump\t// in\n    tag_233:\n        /* \"#utility.yul\":14710:14932   */\n      swap3\n      swap2\n      pop\n      pop\n      jump\t// out\n        /* \"#utility.yul\":14938:15067   */\n    tag_67:\n        /* \"#utility.yul\":14972:14978   */\n      0x00\n        /* \"#utility.yul\":14999:15019   */\n      tag_235\n      tag_236\n      jump\t// in\n    tag_235:\n        /* \"#utility.yul\":14989:15019   */\n      swap1\n      pop\n        /* \"#utility.yul\":15028:15061   */\n      tag_237\n        /* \"#utility.yul\":15056:15060   */\n      dup3\n        /* \"#utility.yul\":15048:15054   */\n      dup3\n        /* \"#utility.yul\":15028:15061   */\n      tag_238\n      jump\t// in\n    tag_237:\n        /* \"#utility.yul\":14938:15067   */\n      swap2\n      swap1\n      pop\n      jump\t// out\n        /* \"#utility.yul\":15073:15148   */\n    tag_236:\n        /* \"#utility.yul\":15106:15112   */\n      0x00\n        /* \"#utility.yul\":15139:15141   */\n      0x40\n        /* \"#utility.yul\":15133:15142   */\n      mload\n        /* \"#utility.yul\":15123:15142   */\n      swap1\n      pop\n        /* \"#utility.yul\":15073:15148   */\n      swap1\n      jump\t// out\n        /* \"#utility.yul\":15154:15462   */\n    tag_66:\n        /* \"#utility.yul\":15216:15220   */\n      0x00\n        /* \"#utility.yul\":15306:15324   */\n      0xffffffffffffffff\n        /* \"#utility.yul\":15298:15304   */\n      dup3\n        /* \"#utility.yul\":15295:15325   */\n      gt\n        /* \"#utility.yul\":15292:15348   */\n      iszero\n      tag_241\n      jumpi\n        /* \"#utility.yul\":15328:15346   */\n      tag_242\n      tag_243\n      jump\t// in\n    tag_242:\n        /* \"#utility.yul\":15292:15348   */\n    tag_241:\n        /* \"#utility.yul\":15366:15395   */\n      tag_244\n        /* \"#utility.yul\":15388:15394   */\n      dup3\n        /* \"#utility.yul\":15366:15395   */\n      tag_140\n      jump\t// in\n    tag_244:\n        /* \"#utility.yul\":15358:15395   */\n      swap1\n      pop\n        /* \"#utility.yul\":15450:15454   */\n      0x20\n        /* \"#utility.yul\":15444:15448   */\n      dup2\n        /* \"#utility.yul\":15440:15455   */\n      add\n        /* \"#utility.yul\":15432:15455   */\n      swap1\n      pop\n        /* \"#utility.yul\":15154:15462   */\n      swap2\n      swap1\n      pop\n      jump\t// out\n        /* \"#utility.yul\":15468:15567   */\n    tag_135:\n        /* \"#utility.yul\":15520:15526   */\n      0x00\n        /* \"#utility.yul\":15554:15559   */\n      dup2\n        /* \"#utility.yul\":15548:15560   */\n      mload\n        /* \"#utility.yul\":15538:15560   */\n      swap1\n      pop\n        /* \"#utility.yul\":15468:15567   */\n      swap2\n      swap1\n      pop\n      jump\t// out\n        /* \"#utility.yul\":15573:15742   */\n    tag_137:\n        /* \"#utility.yul\":15657:15668   */\n      0x00\n        /* \"#utility.yul\":15691:15697   */\n      dup3\n        /* \"#utility.yul\":15686:15689   */\n      dup3\n        /* \"#utility.yul\":15679:15698   */\n      mstore\n        /* \"#utility.yul\":15731:15735   */\n      0x20\n        /* \"#utility.yul\":15726:15729   */\n      dup3\n        /* \"#utility.yul\":15722:15736   */\n      add\n        /* \"#utility.yul\":15707:15736   */\n      swap1\n      pop\n        /* \"#utility.yul\":15573:15742   */\n      swap3\n      swap2\n      pop\n      pop\n      jump\t// out\n        /* \"#utility.yul\":15748:15896   */\n    tag_145:\n        /* \"#utility.yul\":15850:15861   */\n      0x00\n        /* \"#utility.yul\":15887:15890   */\n      dup2\n        /* \"#utility.yul\":15872:15890   */\n      swap1\n      pop\n        /* \"#utility.yul\":15748:15896   */\n      swap3\n      swap2\n      pop\n      pop\n      jump\t// out\n        /* \"#utility.yul\":15902:15998   */\n    tag_127:\n        /* \"#utility.yul\":15939:15946   */\n      0x00\n        /* \"#utility.yul\":15968:15992   */\n      tag_249\n        /* \"#utility.yul\":15986:15991   */\n      dup3\n        /* \"#utility.yul\":15968:15992   */\n      tag_250\n      jump\t// in\n    tag_249:\n        /* \"#utility.yul\":15957:15992   */\n      swap1\n      pop\n        /* \"#utility.yul\":15902:15998   */\n      swap2\n      swap1\n      pop\n      jump\t// out\n        /* \"#utility.yul\":16004:16094   */\n    tag_131:\n        /* \"#utility.yul\":16038:16045   */\n      0x00\n        /* \"#utility.yul\":16081:16086   */\n      dup2\n        /* \"#utility.yul\":16074:16087   */\n      iszero\n        /* \"#utility.yul\":16067:16088   */\n      iszero\n        /* \"#utility.yul\":16056:16088   */\n      swap1\n      pop\n        /* \"#utility.yul\":16004:16094   */\n      swap2\n      swap1\n      pop\n      jump\t// out\n        /* \"#utility.yul\":16100:16226   */\n    tag_250:\n        /* \"#utility.yul\":16137:16144   */\n      0x00\n        /* \"#utility.yul\":16177:16219   */\n      0xffffffffffffffffffffffffffffffffffffffff\n        /* \"#utility.yul\":16170:16175   */\n      dup3\n        /* \"#utility.yul\":16166:16220   */\n      and\n        /* \"#utility.yul\":16155:16220   */\n      swap1\n      pop\n        /* \"#utility.yul\":16100:16226   */\n      swap2\n      swap1\n      pop\n      jump\t// out\n        /* \"#utility.yul\":16232:16309   */\n    tag_195:\n        /* \"#utility.yul\":16269:16276   */\n      0x00\n        /* \"#utility.yul\":16298:16303   */\n      dup2\n        /* \"#utility.yul\":16287:16303   */\n      swap1\n      pop\n        /* \"#utility.yul\":16232:16309   */\n      swap2\n      swap1\n      pop\n      jump\t// out\n        /* \"#utility.yul\":16315:16469   */\n    tag_72:\n        /* \"#utility.yul\":16399:16405   */\n      dup3\n        /* \"#utility.yul\":16394:16397   */\n      dup2\n        /* \"#utility.yul\":16389:16392   */\n      dup4\n        /* \"#utility.yul\":16376:16406   */\n      calldatacopy\n        /* \"#utility.yul\":16461:16462   */\n      0x00\n        /* \"#utility.yul\":16452:16458   */\n      dup4\n        /* \"#utility.yul\":16447:16450   */\n      dup4\n        /* \"#utility.yul\":16443:16459   */\n      add\n        /* \"#utility.yul\":16436:16463   */\n      mstore\n        /* \"#utility.yul\":16315:16469   */\n      pop\n      pop\n      pop\n      jump\t// out\n        /* \"#utility.yul\":16475:16782   */\n    tag_80:\n        /* \"#utility.yul\":16543:16544   */\n      0x00\n        /* \"#utility.yul\":16553:16666   */\n    tag_256:\n        /* \"#utility.yul\":16567:16573   */\n      dup4\n        /* \"#utility.yul\":16564:16565   */\n      dup2\n        /* \"#utility.yul\":16561:16574   */\n      lt\n        /* \"#utility.yul\":16553:16666   */\n      iszero\n      tag_258\n      jumpi\n        /* \"#utility.yul\":16652:16653   */\n      dup1\n        /* \"#utility.yul\":16647:16650   */\n      dup3\n        /* \"#utility.yul\":16643:16654   */\n      add\n        /* \"#utility.yul\":16637:16655   */\n      mload\n        /* \"#utility.yul\":16633:16634   */\n      dup2\n        /* \"#utility.yul\":16628:16631   */\n      dup5\n        /* \"#utility.yul\":16624:16635   */\n      add\n        /* \"#utility.yul\":16617:16656   */\n      mstore\n        /* \"#utility.yul\":16589:16591   */\n      0x20\n        /* \"#utility.yul\":16586:16587   */\n      dup2\n        /* \"#utility.yul\":16582:16592   */\n      add\n        /* \"#utility.yul\":16577:16592   */\n      swap1\n      pop\n        /* \"#utility.yul\":16553:16666   */\n      jump(tag_256)\n    tag_258:\n        /* \"#utility.yul\":16684:16690   */\n      dup4\n        /* \"#utility.yul\":16681:16682   */\n      dup2\n        /* \"#utility.yul\":16678:16691   */\n      gt\n        /* \"#utility.yul\":16675:16776   */\n      iszero\n      tag_259\n      jumpi\n        /* \"#utility.yul\":16764:16765   */\n      0x00\n        /* \"#utility.yul\":16755:16761   */\n      dup5\n        /* \"#utility.yul\":16750:16753   */\n      dup5\n        /* \"#utility.yul\":16746:16762   */\n      add\n        /* \"#utility.yul\":16739:16766   */\n      mstore\n        /* \"#utility.yul\":16675:16776   */\n    tag_259:\n        /* \"#utility.yul\":16524:16782   */\n      pop\n        /* \"#utility.yul\":16475:16782   */\n      pop\n      pop\n      pop\n      jump\t// out\n        /* \"#utility.yul\":16788:17069   */\n    tag_238:\n        /* \"#utility.yul\":16871:16898   */\n      tag_261\n        /* \"#utility.yul\":16893:16897   */\n      dup3\n        /* \"#utility.yul\":16871:16898   */\n      tag_140\n      jump\t// in\n    tag_261:\n        /* \"#utility.yul\":16863:16869   */\n      dup2\n        /* \"#utility.yul\":16859:16899   */\n      add\n        /* \"#utility.yul\":17001:17007   */\n      dup2\n        /* \"#utility.yul\":16989:16999   */\n      dup2\n        /* \"#utility.yul\":16986:17008   */\n      lt\n        /* \"#utility.yul\":16965:16983   */\n      0xffffffffffffffff\n        /* \"#utility.yul\":16953:16963   */\n      dup3\n        /* \"#utility.yul\":16950:16984   */\n      gt\n        /* \"#utility.yul\":16947:17009   */\n      or\n        /* \"#utility.yul\":16944:17032   */\n      iszero\n      tag_262\n      jumpi\n        /* \"#utility.yul\":17012:17030   */\n      tag_263\n      tag_243\n      jump\t// in\n    tag_263:\n        /* \"#utility.yul\":16944:17032   */\n    tag_262:\n        /* \"#utility.yul\":17052:17062   */\n      dup1\n        /* \"#utility.yul\":17048:17050   */\n      0x40\n        /* \"#utility.yul\":17041:17063   */\n      mstore\n        /* \"#utility.yul\":16831:17069   */\n      pop\n        /* \"#utility.yul\":16788:17069   */\n      pop\n      pop\n      jump\t// out\n        /* \"#utility.yul\":17075:17255   */\n    tag_243:\n        /* \"#utility.yul\":17123:17200   */\n      0x4e487b7100000000000000000000000000000000000000000000000000000000\n        /* \"#utility.yul\":17120:17121   */\n      0x00\n        /* \"#utility.yul\":17113:17201   */\n      mstore\n        /* \"#utility.yul\":17220:17224   */\n      0x41\n        /* \"#utility.yul\":17217:17218   */\n      0x04\n        /* \"#utility.yul\":17210:17225   */\n      mstore\n        /* \"#utility.yul\":17244:17248   */\n      0x24\n        /* \"#utility.yul\":17241:17242   */\n      0x00\n        /* \"#utility.yul\":17234:17249   */\n      revert\n        /* \"#utility.yul\":17261:17378   */\n    tag_89:\n        /* \"#utility.yul\":17370:17371   */\n      0x00\n        /* \"#utility.yul\":17367:17368   */\n      dup1\n        /* \"#utility.yul\":17360:17372   */\n      revert\n        /* \"#utility.yul\":17384:17501   */\n    tag_70:\n        /* \"#utility.yul\":17493:17494   */\n      0x00\n        /* \"#utility.yul\":17490:17491   */\n      dup1\n        /* \"#utility.yul\":17483:17495   */\n      revert\n        /* \"#utility.yul\":17507:17624   */\n    tag_107:\n        /* \"#utility.yul\":17616:17617   */\n      0x00\n        /* \"#utility.yul\":17613:17614   */\n      dup1\n        /* \"#utility.yul\":17606:17618   */\n      revert\n        /* \"#utility.yul\":17630:17747   */\n    tag_99:\n        /* \"#utility.yul\":17739:17740   */\n      0x00\n        /* \"#utility.yul\":17736:17737   */\n      dup1\n        /* \"#utility.yul\":17729:17741   */\n      revert\n        /* \"#utility.yul\":17753:17855   */\n    tag_140:\n        /* \"#utility.yul\":17794:17800   */\n      0x00\n        /* \"#utility.yul\":17845:17847   */\n      0x1f\n        /* \"#utility.yul\":17841:17848   */\n      not\n        /* \"#utility.yul\":17836:17838   */\n      0x1f\n        /* \"#utility.yul\":17829:17834   */\n      dup4\n        /* \"#utility.yul\":17825:17839   */\n      add\n        /* \"#utility.yul\":17821:17849   */\n      and\n        /* \"#utility.yul\":17811:17849   */\n      swap1\n      pop\n        /* \"#utility.yul\":17753:17855   */\n      swap2\n      swap1\n      pop\n      jump\t// out\n        /* \"#utility.yul\":17861:18016   */\n    tag_151:\n        /* \"#utility.yul\":18001:18008   */\n      0x636c6f7365000000000000000000000000000000000000000000000000000000\n        /* \"#utility.yul\":17997:17998   */\n      0x00\n        /* \"#utility.yul\":17989:17995   */\n      dup3\n        /* \"#utility.yul\":17985:17999   */\n      add\n        /* \"#utility.yul\":17978:18009   */\n      mstore\n        /* \"#utility.yul\":17861:18016   */\n      pop\n      jump\t// out\n        /* \"#utility.yul\":18022:18179   */\n    tag_156:\n        /* \"#utility.yul\":18162:18171   */\n      0x322e322e322e3200000000000000000000000000000000000000000000000000\n        /* \"#utility.yul\":18158:18159   */\n      0x00\n        /* \"#utility.yul\":18150:18156   */\n      dup3\n        /* \"#utility.yul\":18146:18160   */\n      add\n        /* \"#utility.yul\":18139:18172   */\n      mstore\n        /* \"#utility.yul\":18022:18179   */\n      pop\n      jump\t// out\n        /* \"#utility.yul\":18185:18347   */\n    tag_161:\n        /* \"#utility.yul\":18325:18339   */\n      0x4163636573732070617373210000000000000000000000000000000000000000\n        /* \"#utility.yul\":18321:18322   */\n      0x00\n        /* \"#utility.yul\":18313:18319   */\n      dup3\n        /* \"#utility.yul\":18309:18323   */\n      add\n        /* \"#utility.yul\":18302:18340   */\n      mstore\n        /* \"#utility.yul\":18185:18347   */\n      pop\n      jump\t// out\n        /* \"#utility.yul\":18353:18510   */\n    tag_166:\n        /* \"#utility.yul\":18493:18502   */\n      0x7265737461727400000000000000000000000000000000000000000000000000\n        /* \"#utility.yul\":18489:18490   */\n      0x00\n        /* \"#utility.yul\":18481:18487   */\n      dup3\n        /* \"#utility.yul\":18477:18491   */\n      add\n        /* \"#utility.yul\":18470:18503   */\n      mstore\n        /* \"#utility.yul\":18353:18510   */\n      pop\n      jump\t// out\n        /* \"#utility.yul\":18516:18685   */\n    tag_171:\n        /* \"#utility.yul\":18656:18677   */\n      0x496c6c6567616c20495020616464726573732100000000000000000000000000\n        /* \"#utility.yul\":18652:18653   */\n      0x00\n        /* \"#utility.yul\":18644:18650   */\n      dup3\n        /* \"#utility.yul\":18640:18654   */\n      add\n        /* \"#utility.yul\":18633:18678   */\n      mstore\n        /* \"#utility.yul\":18516:18685   */\n      pop\n      jump\t// out\n        /* \"#utility.yul\":18691:18845   */\n    tag_176:\n        /* \"#utility.yul\":18831:18837   */\n      0x6b696c6c00000000000000000000000000000000000000000000000000000000\n        /* \"#utility.yul\":18827:18828   */\n      0x00\n        /* \"#utility.yul\":18819:18825   */\n      dup3\n        /* \"#utility.yul\":18815:18829   */\n      add\n        /* \"#utility.yul\":18808:18838   */\n      mstore\n        /* \"#utility.yul\":18691:18845   */\n      pop\n      jump\t// out\n        /* \"#utility.yul\":18851:19005   */\n    tag_181:\n        /* \"#utility.yul\":18991:18997   */\n      0x6f70656e00000000000000000000000000000000000000000000000000000000\n        /* \"#utility.yul\":18987:18988   */\n      0x00\n        /* \"#utility.yul\":18979:18985   */\n      dup3\n        /* \"#utility.yul\":18975:18989   */\n      add\n        /* \"#utility.yul\":18968:18998   */\n      mstore\n        /* \"#utility.yul\":18851:19005   */\n      pop\n      jump\t// out\n        /* \"#utility.yul\":19011:19181   */\n    tag_186:\n        /* \"#utility.yul\":19151:19173   */\n      0x556e617574686f72697a65642061636365737321000000000000000000000000\n        /* \"#utility.yul\":19147:19148   */\n      0x00\n        /* \"#utility.yul\":19139:19145   */\n      dup3\n        /* \"#utility.yul\":19135:19149   */\n      add\n        /* \"#utility.yul\":19128:19174   */\n      mstore\n        /* \"#utility.yul\":19011:19181   */\n      pop\n      jump\t// out\n        /* \"#utility.yul\":19187:19341   */\n    tag_191:\n        /* \"#utility.yul\":19327:19333   */\n      0x7265616400000000000000000000000000000000000000000000000000000000\n        /* \"#utility.yul\":19323:19324   */\n      0x00\n        /* \"#utility.yul\":19315:19321   */\n      dup3\n        /* \"#utility.yul\":19311:19325   */\n      add\n        /* \"#utility.yul\":19304:19334   */\n      mstore\n        /* \"#utility.yul\":19187:19341   */\n      pop\n      jump\t// out\n        /* \"#utility.yul\":19347:19469   */\n    tag_84:\n        /* \"#utility.yul\":19420:19444   */\n      tag_280\n        /* \"#utility.yul\":19438:19443   */\n      dup2\n        /* \"#utility.yul\":19420:19444   */\n      tag_127\n      jump\t// in\n    tag_280:\n        /* \"#utility.yul\":19413:19418   */\n      dup2\n        /* \"#utility.yul\":19410:19445   */\n      eq\n        /* \"#utility.yul\":19400:19463   */\n      tag_281\n      jumpi\n        /* \"#utility.yul\":19459:19460   */\n      0x00\n        /* \"#utility.yul\":19456:19457   */\n      dup1\n        /* \"#utility.yul\":19449:19461   */\n      revert\n        /* \"#utility.yul\":19400:19463   */\n    tag_281:\n        /* \"#utility.yul\":19347:19469   */\n      pop\n      jump\t// out\n\n    auxdata: 0xa2646970667358221220a5e5f277cebd184392b0529d943caddd2468f9a5e135002b22abcaad2d7f95b264736f6c63430008070033\n}\n",
				"bytecode": {
					"linkReferences": {},
					"object": "608060405234801561001057600080fd5b50610ded806100206000396000f3fe608060405234801561001057600080fd5b50600436106100415760003560e01c806319ab453c1461004657806332076e7714610062578063c0821da314610092575b600080fd5b610060600480360381019061005b9190610585565b6100b0565b005b61007c600480360381019061007791906105b2565b6101d0565b6040516100899190610a6d565b60405180910390f35b61009a610488565b6040516100a79190610a88565b60405180910390f35b806000806101000a81548173ffffffffffffffffffffffffffffffffffffffff021916908373ffffffffffffffffffffffffffffffffffffffff1602179055506000600160405161010090610921565b9081526020016040518091039020819055506001806040516101219061090c565b908152602001604051809103902081905550600180604051610142906108b8565b90815260200160405180910390208190555060026001604051610164906108e2565b90815260200160405180910390208190555060026001604051610186906108f7565b908152602001604051809103902081905550600160026040516101a8906108cd565b908152602001604051809103902060006101000a81548160ff02191690831515021790555050565b60008060008054906101000a900473ffffffffffffffffffffffffffffffffffffffff1673ffffffffffffffffffffffffffffffffffffffff16638749774f33866040518363ffffffff1660e01b815260040161022e929190610951565b60006040518083038186803b15801561024657600080fd5b505afa15801561025a573d6000803e3d6000fd5b505050506040513d6000823e3d601f19601f82011682018060405250810190610283919061060e565b905060018160405161029591906108a1565b9081526020016040518091039020546001846040516102b491906108a1565b908152602001604051809103902054121561030e577f4393de65ee68a32d7987583b1f2c6e6aa80df7d9ad5c0661660d70dff18b9d6d3385856040516102fc93929190610a1c565b60405180910390a16000915050610482565b60608060008054906101000a900473ffffffffffffffffffffffffffffffffffffffff1673ffffffffffffffffffffffffffffffffffffffff16639f764d16336040518263ffffffff1660e01b815260040161036a9190610936565b60006040518083038186803b15801561038257600080fd5b505afa158015610396573d6000803e3d6000fd5b505050506040513d6000823e3d601f19601f820116820180604052508101906103bf9190610657565b80925081935050506002816040516103d791906108a1565b908152602001604051809103902060009054906101000a900460ff161561043f577f4393de65ee68a32d7987583b1f2c6e6aa80df7d9ad5c0661660d70dff18b9d6d33878760405161042b939291906109cb565b60405180910390a160009350505050610482565b7f4393de65ee68a32d7987583b1f2c6e6aa80df7d9ad5c0661660d70dff18b9d6d3387876040516104729392919061097a565b60405180910390a1600193505050505b92915050565b600042905090565b60006104a361049e84610ac8565b610aa3565b9050828152602081018484840111156104bf576104be610c0f565b5b6104ca848285610b68565b509392505050565b60006104e56104e084610ac8565b610aa3565b90508281526020810184848401111561050157610500610c0f565b5b61050c848285610b77565b509392505050565b60008135905061052381610da0565b92915050565b600082601f83011261053e5761053d610c0a565b5b813561054e848260208601610490565b91505092915050565b600082601f83011261056c5761056b610c0a565b5b815161057c8482602086016104d2565b91505092915050565b60006020828403121561059b5761059a610c19565b5b60006105a984828501610514565b91505092915050565b600080604083850312156105c9576105c8610c19565b5b60006105d785828601610514565b925050602083013567ffffffffffffffff8111156105f8576105f7610c14565b5b61060485828601610529565b9150509250929050565b60006020828403121561062457610623610c19565b5b600082015167ffffffffffffffff81111561064257610641610c14565b5b61064e84828501610557565b91505092915050565b6000806040838503121561066e5761066d610c19565b5b600083015167ffffffffffffffff81111561068c5761068b610c14565b5b61069885828601610557565b925050602083015167ffffffffffffffff8111156106b9576106b8610c14565b5b6106c585828601610557565b9150509250929050565b6106d881610b20565b82525050565b6106e781610b32565b82525050565b60006106f882610af9565b6107028185610b04565b9350610712818560208601610b77565b61071b81610c1e565b840191505092915050565b600061073182610af9565b61073b8185610b15565b935061074b818560208601610b77565b80840191505092915050565b6000610764600583610b15565b915061076f82610c2f565b600582019050919050565b6000610787600783610b15565b915061079282610c58565b600782019050919050565b60006107aa600c83610b04565b91506107b582610c81565b602082019050919050565b60006107cd600783610b15565b91506107d882610caa565b600782019050919050565b60006107f0601383610b04565b91506107fb82610cd3565b602082019050919050565b6000610813600483610b15565b915061081e82610cfc565b600482019050919050565b6000610836600483610b15565b915061084182610d25565b600482019050919050565b6000610859601483610b04565b915061086482610d4e565b602082019050919050565b600061087c600483610b15565b915061088782610d77565b600482019050919050565b61089b81610b5e565b82525050565b60006108ad8284610726565b915081905092915050565b60006108c382610757565b9150819050919050565b60006108d88261077a565b9150819050919050565b60006108ed826107c0565b9150819050919050565b600061090282610806565b9150819050919050565b600061091782610829565b9150819050919050565b600061092c8261086f565b9150819050919050565b600060208201905061094b60008301846106cf565b92915050565b600060408201905061096660008301856106cf565b61097360208301846106cf565b9392505050565b600060808201905061098f60008301866106cf565b61099c60208301856106cf565b81810360408301526109ae81846106ed565b905081810360608301526109c18161079d565b9050949350505050565b60006080820190506109e060008301866106cf565b6109ed60208301856106cf565b81810360408301526109ff81846106ed565b90508181036060830152610a12816107e3565b9050949350505050565b6000608082019050610a3160008301866106cf565b610a3e60208301856106cf565b8181036040830152610a5081846106ed565b90508181036060830152610a638161084c565b9050949350505050565b6000602082019050610a8260008301846106de565b92915050565b6000602082019050610a9d6000830184610892565b92915050565b6000610aad610abe565b9050610ab98282610baa565b919050565b6000604051905090565b600067ffffffffffffffff821115610ae357610ae2610bdb565b5b610aec82610c1e565b9050602081019050919050565b600081519050919050565b600082825260208201905092915050565b600081905092915050565b6000610b2b82610b3e565b9050919050565b60008115159050919050565b600073ffffffffffffffffffffffffffffffffffffffff82169050919050565b6000819050919050565b82818337600083830152505050565b60005b83811015610b95578082015181840152602081019050610b7a565b83811115610ba4576000848401525b50505050565b610bb382610c1e565b810181811067ffffffffffffffff82111715610bd257610bd1610bdb565b5b80604052505050565b7f4e487b7100000000000000000000000000000000000000000000000000000000600052604160045260246000fd5b600080fd5b600080fd5b600080fd5b600080fd5b6000601f19601f8301169050919050565b7f636c6f7365000000000000000000000000000000000000000000000000000000600082015250565b7f322e322e322e3200000000000000000000000000000000000000000000000000600082015250565b7f4163636573732070617373210000000000000000000000000000000000000000600082015250565b7f7265737461727400000000000000000000000000000000000000000000000000600082015250565b7f496c6c6567616c20495020616464726573732100000000000000000000000000600082015250565b7f6b696c6c00000000000000000000000000000000000000000000000000000000600082015250565b7f6f70656e00000000000000000000000000000000000000000000000000000000600082015250565b7f556e617574686f72697a65642061636365737321000000000000000000000000600082015250565b7f7265616400000000000000000000000000000000000000000000000000000000600082015250565b610da981610b20565b8114610db457600080fd5b5056fea2646970667358221220a5e5f277cebd184392b0529d943caddd2468f9a5e135002b22abcaad2d7f95b264736f6c63430008070033",
					"opcodes": "PUSH1 0x80 PUSH1 0x40 MSTORE CALLVALUE DUP1 ISZERO PUSH2 0x10 JUMPI PUSH1 0x0 DUP1 REVERT JUMPDEST POP PUSH2 0xDED DUP1 PUSH2 0x20 PUSH1 0x0 CODECOPY PUSH1 0x0 RETURN INVALID PUSH1 0x80 PUSH1 0x40 MSTORE CALLVALUE DUP1 ISZERO PUSH2 0x10 JUMPI PUSH1 0x0 DUP1 REVERT JUMPDEST POP PUSH1 0x4 CALLDATASIZE LT PUSH2 0x41 JUMPI PUSH1 0x0 CALLDATALOAD PUSH1 0xE0 SHR DUP1 PUSH4 0x19AB453C EQ PUSH2 0x46 JUMPI DUP1 PUSH4 0x32076E77 EQ PUSH2 0x62 JUMPI DUP1 PUSH4 0xC0821DA3 EQ PUSH2 0x92 JUMPI JUMPDEST PUSH1 0x0 DUP1 REVERT JUMPDEST PUSH2 0x60 PUSH1 0x4 DUP1 CALLDATASIZE SUB DUP2 ADD SWAP1 PUSH2 0x5B SWAP2 SWAP1 PUSH2 0x585 JUMP JUMPDEST PUSH2 0xB0 JUMP JUMPDEST STOP JUMPDEST PUSH2 0x7C PUSH1 0x4 DUP1 CALLDATASIZE SUB DUP2 ADD SWAP1 PUSH2 0x77 SWAP2 SWAP1 PUSH2 0x5B2 JUMP JUMPDEST PUSH2 0x1D0 JUMP JUMPDEST PUSH1 0x40 MLOAD PUSH2 0x89 SWAP2 SWAP1 PUSH2 0xA6D JUMP JUMPDEST PUSH1 0x40 MLOAD DUP1 SWAP2 SUB SWAP1 RETURN JUMPDEST PUSH2 0x9A PUSH2 0x488 JUMP JUMPDEST PUSH1 0x40 MLOAD PUSH2 0xA7 SWAP2 SWAP1 PUSH2 0xA88 JUMP JUMPDEST PUSH1 0x40 MLOAD DUP1 SWAP2 SUB SWAP1 RETURN JUMPDEST DUP1 PUSH1 0x0 DUP1 PUSH2 0x100 EXP DUP2 SLOAD DUP2 PUSH20 0xFFFFFFFFFFFFFFFFFFFFFFFFFFFFFFFFFFFFFFFF MUL NOT AND SWAP1 DUP4 PUSH20 0xFFFFFFFFFFFFFFFFFFFFFFFFFFFFFFFFFFFFFFFF AND MUL OR SWAP1 SSTORE POP PUSH1 0x0 PUSH1 0x1 PUSH1 0x40 MLOAD PUSH2 0x100 SWAP1 PUSH2 0x921 JUMP JUMPDEST SWAP1 DUP2 MSTORE PUSH1 0x20 ADD PUSH1 0x40 MLOAD DUP1 SWAP2 SUB SWAP1 KECCAK256 DUP2 SWAP1 SSTORE POP PUSH1 0x1 DUP1 PUSH1 0x40 MLOAD PUSH2 0x121 SWAP1 PUSH2 0x90C JUMP JUMPDEST SWAP1 DUP2 MSTORE PUSH1 0x20 ADD PUSH1 0x40 MLOAD DUP1 SWAP2 SUB SWAP1 KECCAK256 DUP2 SWAP1 SSTORE POP PUSH1 0x1 DUP1 PUSH1 0x40 MLOAD PUSH2 0x142 SWAP1 PUSH2 0x8B8 JUMP JUMPDEST SWAP1 DUP2 MSTORE PUSH1 0x20 ADD PUSH1 0x40 MLOAD DUP1 SWAP2 SUB SWAP1 KECCAK256 DUP2 SWAP1 SSTORE POP PUSH1 0x2 PUSH1 0x1 PUSH1 0x40 MLOAD PUSH2 0x164 SWAP1 PUSH2 0x8E2 JUMP JUMPDEST SWAP1 DUP2 MSTORE PUSH1 0x20 ADD PUSH1 0x40 MLOAD DUP1 SWAP2 SUB SWAP1 KECCAK256 DUP2 SWAP1 SSTORE POP PUSH1 0x2 PUSH1 0x1 PUSH1 0x40 MLOAD PUSH2 0x186 SWAP1 PUSH2 0x8F7 JUMP JUMPDEST SWAP1 DUP2 MSTORE PUSH1 0x20 ADD PUSH1 0x40 MLOAD DUP1 SWAP2 SUB SWAP1 KECCAK256 DUP2 SWAP1 SSTORE POP PUSH1 0x1 PUSH1 0x2 PUSH1 0x40 MLOAD PUSH2 0x1A8 SWAP1 PUSH2 0x8CD JUMP JUMPDEST SWAP1 DUP2 MSTORE PUSH1 0x20 ADD PUSH1 0x40 MLOAD DUP1 SWAP2 SUB SWAP1 KECCAK256 PUSH1 0x0 PUSH2 0x100 EXP DUP2 SLOAD DUP2 PUSH1 0xFF MUL NOT AND SWAP1 DUP4 ISZERO ISZERO MUL OR SWAP1 SSTORE POP POP JUMP JUMPDEST PUSH1 0x0 DUP1 PUSH1 0x0 DUP1 SLOAD SWAP1 PUSH2 0x100 EXP SWAP1 DIV PUSH20 0xFFFFFFFFFFFFFFFFFFFFFFFFFFFFFFFFFFFFFFFF AND PUSH20 0xFFFFFFFFFFFFFFFFFFFFFFFFFFFFFFFFFFFFFFFF AND PUSH4 0x8749774F CALLER DUP7 PUSH1 0x40 MLOAD DUP4 PUSH4 0xFFFFFFFF AND PUSH1 0xE0 SHL DUP2 MSTORE PUSH1 0x4 ADD PUSH2 0x22E SWAP3 SWAP2 SWAP1 PUSH2 0x951 JUMP JUMPDEST PUSH1 0x0 PUSH1 0x40 MLOAD DUP1 DUP4 SUB DUP2 DUP7 DUP1 EXTCODESIZE ISZERO DUP1 ISZERO PUSH2 0x246 JUMPI PUSH1 0x0 DUP1 REVERT JUMPDEST POP GAS STATICCALL ISZERO DUP1 ISZERO PUSH2 0x25A JUMPI RETURNDATASIZE PUSH1 0x0 DUP1 RETURNDATACOPY RETURNDATASIZE PUSH1 0x0 REVERT JUMPDEST POP POP POP POP PUSH1 0x40 MLOAD RETURNDATASIZE PUSH1 0x0 DUP3 RETURNDATACOPY RETURNDATASIZE PUSH1 0x1F NOT PUSH1 0x1F DUP3 ADD AND DUP3 ADD DUP1 PUSH1 0x40 MSTORE POP DUP2 ADD SWAP1 PUSH2 0x283 SWAP2 SWAP1 PUSH2 0x60E JUMP JUMPDEST SWAP1 POP PUSH1 0x1 DUP2 PUSH1 0x40 MLOAD PUSH2 0x295 SWAP2 SWAP1 PUSH2 0x8A1 JUMP JUMPDEST SWAP1 DUP2 MSTORE PUSH1 0x20 ADD PUSH1 0x40 MLOAD DUP1 SWAP2 SUB SWAP1 KECCAK256 SLOAD PUSH1 0x1 DUP5 PUSH1 0x40 MLOAD PUSH2 0x2B4 SWAP2 SWAP1 PUSH2 0x8A1 JUMP JUMPDEST SWAP1 DUP2 MSTORE PUSH1 0x20 ADD PUSH1 0x40 MLOAD DUP1 SWAP2 SUB SWAP1 KECCAK256 SLOAD SLT ISZERO PUSH2 0x30E JUMPI PUSH32 0x4393DE65EE68A32D7987583B1F2C6E6AA80DF7D9AD5C0661660D70DFF18B9D6D CALLER DUP6 DUP6 PUSH1 0x40 MLOAD PUSH2 0x2FC SWAP4 SWAP3 SWAP2 SWAP1 PUSH2 0xA1C JUMP JUMPDEST PUSH1 0x40 MLOAD DUP1 SWAP2 SUB SWAP1 LOG1 PUSH1 0x0 SWAP2 POP POP PUSH2 0x482 JUMP JUMPDEST PUSH1 0x60 DUP1 PUSH1 0x0 DUP1 SLOAD SWAP1 PUSH2 0x100 EXP SWAP1 DIV PUSH20 0xFFFFFFFFFFFFFFFFFFFFFFFFFFFFFFFFFFFFFFFF AND PUSH20 0xFFFFFFFFFFFFFFFFFFFFFFFFFFFFFFFFFFFFFFFF AND PUSH4 0x9F764D16 CALLER PUSH1 0x40 MLOAD DUP3 PUSH4 0xFFFFFFFF AND PUSH1 0xE0 SHL DUP2 MSTORE PUSH1 0x4 ADD PUSH2 0x36A SWAP2 SWAP1 PUSH2 0x936 JUMP JUMPDEST PUSH1 0x0 PUSH1 0x40 MLOAD DUP1 DUP4 SUB DUP2 DUP7 DUP1 EXTCODESIZE ISZERO DUP1 ISZERO PUSH2 0x382 JUMPI PUSH1 0x0 DUP1 REVERT JUMPDEST POP GAS STATICCALL ISZERO DUP1 ISZERO PUSH2 0x396 JUMPI RETURNDATASIZE PUSH1 0x0 DUP1 RETURNDATACOPY RETURNDATASIZE PUSH1 0x0 REVERT JUMPDEST POP POP POP POP PUSH1 0x40 MLOAD RETURNDATASIZE PUSH1 0x0 DUP3 RETURNDATACOPY RETURNDATASIZE PUSH1 0x1F NOT PUSH1 0x1F DUP3 ADD AND DUP3 ADD DUP1 PUSH1 0x40 MSTORE POP DUP2 ADD SWAP1 PUSH2 0x3BF SWAP2 SWAP1 PUSH2 0x657 JUMP JUMPDEST DUP1 SWAP3 POP DUP2 SWAP4 POP POP POP PUSH1 0x2 DUP2 PUSH1 0x40 MLOAD PUSH2 0x3D7 SWAP2 SWAP1 PUSH2 0x8A1 JUMP JUMPDEST SWAP1 DUP2 MSTORE PUSH1 0x20 ADD PUSH1 0x40 MLOAD DUP1 SWAP2 SUB SWAP1 KECCAK256 PUSH1 0x0 SWAP1 SLOAD SWAP1 PUSH2 0x100 EXP SWAP1 DIV PUSH1 0xFF AND ISZERO PUSH2 0x43F JUMPI PUSH32 0x4393DE65EE68A32D7987583B1F2C6E6AA80DF7D9AD5C0661660D70DFF18B9D6D CALLER DUP8 DUP8 PUSH1 0x40 MLOAD PUSH2 0x42B SWAP4 SWAP3 SWAP2 SWAP1 PUSH2 0x9CB JUMP JUMPDEST PUSH1 0x40 MLOAD DUP1 SWAP2 SUB SWAP1 LOG1 PUSH1 0x0 SWAP4 POP POP POP POP PUSH2 0x482 JUMP JUMPDEST PUSH32 0x4393DE65EE68A32D7987583B1F2C6E6AA80DF7D9AD5C0661660D70DFF18B9D6D CALLER DUP8 DUP8 PUSH1 0x40 MLOAD PUSH2 0x472 SWAP4 SWAP3 SWAP2 SWAP1 PUSH2 0x97A JUMP JUMPDEST PUSH1 0x40 MLOAD DUP1 SWAP2 SUB SWAP1 LOG1 PUSH1 0x1 SWAP4 POP POP POP POP JUMPDEST SWAP3 SWAP2 POP POP JUMP JUMPDEST PUSH1 0x0 TIMESTAMP SWAP1 POP SWAP1 JUMP JUMPDEST PUSH1 0x0 PUSH2 0x4A3 PUSH2 0x49E DUP5 PUSH2 0xAC8 JUMP JUMPDEST PUSH2 0xAA3 JUMP JUMPDEST SWAP1 POP DUP3 DUP2 MSTORE PUSH1 0x20 DUP2 ADD DUP5 DUP5 DUP5 ADD GT ISZERO PUSH2 0x4BF JUMPI PUSH2 0x4BE PUSH2 0xC0F JUMP JUMPDEST JUMPDEST PUSH2 0x4CA DUP5 DUP3 DUP6 PUSH2 0xB68 JUMP JUMPDEST POP SWAP4 SWAP3 POP POP POP JUMP JUMPDEST PUSH1 0x0 PUSH2 0x4E5 PUSH2 0x4E0 DUP5 PUSH2 0xAC8 JUMP JUMPDEST PUSH2 0xAA3 JUMP JUMPDEST SWAP1 POP DUP3 DUP2 MSTORE PUSH1 0x20 DUP2 ADD DUP5 DUP5 DUP5 ADD GT ISZERO PUSH2 0x501 JUMPI PUSH2 0x500 PUSH2 0xC0F JUMP JUMPDEST JUMPDEST PUSH2 0x50C DUP5 DUP3 DUP6 PUSH2 0xB77 JUMP JUMPDEST POP SWAP4 SWAP3 POP POP POP JUMP JUMPDEST PUSH1 0x0 DUP2 CALLDATALOAD SWAP1 POP PUSH2 0x523 DUP2 PUSH2 0xDA0 JUMP JUMPDEST SWAP3 SWAP2 POP POP JUMP JUMPDEST PUSH1 0x0 DUP3 PUSH1 0x1F DUP4 ADD SLT PUSH2 0x53E JUMPI PUSH2 0x53D PUSH2 0xC0A JUMP JUMPDEST JUMPDEST DUP2 CALLDATALOAD PUSH2 0x54E DUP5 DUP3 PUSH1 0x20 DUP7 ADD PUSH2 0x490 JUMP JUMPDEST SWAP2 POP POP SWAP3 SWAP2 POP POP JUMP JUMPDEST PUSH1 0x0 DUP3 PUSH1 0x1F DUP4 ADD SLT PUSH2 0x56C JUMPI PUSH2 0x56B PUSH2 0xC0A JUMP JUMPDEST JUMPDEST DUP2 MLOAD PUSH2 0x57C DUP5 DUP3 PUSH1 0x20 DUP7 ADD PUSH2 0x4D2 JUMP JUMPDEST SWAP2 POP POP SWAP3 SWAP2 POP POP JUMP JUMPDEST PUSH1 0x0 PUSH1 0x20 DUP3 DUP5 SUB SLT ISZERO PUSH2 0x59B JUMPI PUSH2 0x59A PUSH2 0xC19 JUMP JUMPDEST JUMPDEST PUSH1 0x0 PUSH2 0x5A9 DUP5 DUP3 DUP6 ADD PUSH2 0x514 JUMP JUMPDEST SWAP2 POP POP SWAP3 SWAP2 POP POP JUMP JUMPDEST PUSH1 0x0 DUP1 PUSH1 0x40 DUP4 DUP6 SUB SLT ISZERO PUSH2 0x5C9 JUMPI PUSH2 0x5C8 PUSH2 0xC19 JUMP JUMPDEST JUMPDEST PUSH1 0x0 PUSH2 0x5D7 DUP6 DUP3 DUP7 ADD PUSH2 0x514 JUMP JUMPDEST SWAP3 POP POP PUSH1 0x20 DUP4 ADD CALLDATALOAD PUSH8 0xFFFFFFFFFFFFFFFF DUP2 GT ISZERO PUSH2 0x5F8 JUMPI PUSH2 0x5F7 PUSH2 0xC14 JUMP JUMPDEST JUMPDEST PUSH2 0x604 DUP6 DUP3 DUP7 ADD PUSH2 0x529 JUMP JUMPDEST SWAP2 POP POP SWAP3 POP SWAP3 SWAP1 POP JUMP JUMPDEST PUSH1 0x0 PUSH1 0x20 DUP3 DUP5 SUB SLT ISZERO PUSH2 0x624 JUMPI PUSH2 0x623 PUSH2 0xC19 JUMP JUMPDEST JUMPDEST PUSH1 0x0 DUP3 ADD MLOAD PUSH8 0xFFFFFFFFFFFFFFFF DUP2 GT ISZERO PUSH2 0x642 JUMPI PUSH2 0x641 PUSH2 0xC14 JUMP JUMPDEST JUMPDEST PUSH2 0x64E DUP5 DUP3 DUP6 ADD PUSH2 0x557 JUMP JUMPDEST SWAP2 POP POP SWAP3 SWAP2 POP POP JUMP JUMPDEST PUSH1 0x0 DUP1 PUSH1 0x40 DUP4 DUP6 SUB SLT ISZERO PUSH2 0x66E JUMPI PUSH2 0x66D PUSH2 0xC19 JUMP JUMPDEST JUMPDEST PUSH1 0x0 DUP4 ADD MLOAD PUSH8 0xFFFFFFFFFFFFFFFF DUP2 GT ISZERO PUSH2 0x68C JUMPI PUSH2 0x68B PUSH2 0xC14 JUMP JUMPDEST JUMPDEST PUSH2 0x698 DUP6 DUP3 DUP7 ADD PUSH2 0x557 JUMP JUMPDEST SWAP3 POP POP PUSH1 0x20 DUP4 ADD MLOAD PUSH8 0xFFFFFFFFFFFFFFFF DUP2 GT ISZERO PUSH2 0x6B9 JUMPI PUSH2 0x6B8 PUSH2 0xC14 JUMP JUMPDEST JUMPDEST PUSH2 0x6C5 DUP6 DUP3 DUP7 ADD PUSH2 0x557 JUMP JUMPDEST SWAP2 POP POP SWAP3 POP SWAP3 SWAP1 POP JUMP JUMPDEST PUSH2 0x6D8 DUP2 PUSH2 0xB20 JUMP JUMPDEST DUP3 MSTORE POP POP JUMP JUMPDEST PUSH2 0x6E7 DUP2 PUSH2 0xB32 JUMP JUMPDEST DUP3 MSTORE POP POP JUMP JUMPDEST PUSH1 0x0 PUSH2 0x6F8 DUP3 PUSH2 0xAF9 JUMP JUMPDEST PUSH2 0x702 DUP2 DUP6 PUSH2 0xB04 JUMP JUMPDEST SWAP4 POP PUSH2 0x712 DUP2 DUP6 PUSH1 0x20 DUP7 ADD PUSH2 0xB77 JUMP JUMPDEST PUSH2 0x71B DUP2 PUSH2 0xC1E JUMP JUMPDEST DUP5 ADD SWAP2 POP POP SWAP3 SWAP2 POP POP JUMP JUMPDEST PUSH1 0x0 PUSH2 0x731 DUP3 PUSH2 0xAF9 JUMP JUMPDEST PUSH2 0x73B DUP2 DUP6 PUSH2 0xB15 JUMP JUMPDEST SWAP4 POP PUSH2 0x74B DUP2 DUP6 PUSH1 0x20 DUP7 ADD PUSH2 0xB77 JUMP JUMPDEST DUP1 DUP5 ADD SWAP2 POP POP SWAP3 SWAP2 POP POP JUMP JUMPDEST PUSH1 0x0 PUSH2 0x764 PUSH1 0x5 DUP4 PUSH2 0xB15 JUMP JUMPDEST SWAP2 POP PUSH2 0x76F DUP3 PUSH2 0xC2F JUMP JUMPDEST PUSH1 0x5 DUP3 ADD SWAP1 POP SWAP2 SWAP1 POP JUMP JUMPDEST PUSH1 0x0 PUSH2 0x787 PUSH1 0x7 DUP4 PUSH2 0xB15 JUMP JUMPDEST SWAP2 POP PUSH2 0x792 DUP3 PUSH2 0xC58 JUMP JUMPDEST PUSH1 0x7 DUP3 ADD SWAP1 POP SWAP2 SWAP1 POP JUMP JUMPDEST PUSH1 0x0 PUSH2 0x7AA PUSH1 0xC DUP4 PUSH2 0xB04 JUMP JUMPDEST SWAP2 POP PUSH2 0x7B5 DUP3 PUSH2 0xC81 JUMP JUMPDEST PUSH1 0x20 DUP3 ADD SWAP1 POP SWAP2 SWAP1 POP JUMP JUMPDEST PUSH1 0x0 PUSH2 0x7CD PUSH1 0x7 DUP4 PUSH2 0xB15 JUMP JUMPDEST SWAP2 POP PUSH2 0x7D8 DUP3 PUSH2 0xCAA JUMP JUMPDEST PUSH1 0x7 DUP3 ADD SWAP1 POP SWAP2 SWAP1 POP JUMP JUMPDEST PUSH1 0x0 PUSH2 0x7F0 PUSH1 0x13 DUP4 PUSH2 0xB04 JUMP JUMPDEST SWAP2 POP PUSH2 0x7FB DUP3 PUSH2 0xCD3 JUMP JUMPDEST PUSH1 0x20 DUP3 ADD SWAP1 POP SWAP2 SWAP1 POP JUMP JUMPDEST PUSH1 0x0 PUSH2 0x813 PUSH1 0x4 DUP4 PUSH2 0xB15 JUMP JUMPDEST SWAP2 POP PUSH2 0x81E DUP3 PUSH2 0xCFC JUMP JUMPDEST PUSH1 0x4 DUP3 ADD SWAP1 POP SWAP2 SWAP1 POP JUMP JUMPDEST PUSH1 0x0 PUSH2 0x836 PUSH1 0x4 DUP4 PUSH2 0xB15 JUMP JUMPDEST SWAP2 POP PUSH2 0x841 DUP3 PUSH2 0xD25 JUMP JUMPDEST PUSH1 0x4 DUP3 ADD SWAP1 POP SWAP2 SWAP1 POP JUMP JUMPDEST PUSH1 0x0 PUSH2 0x859 PUSH1 0x14 DUP4 PUSH2 0xB04 JUMP JUMPDEST SWAP2 POP PUSH2 0x864 DUP3 PUSH2 0xD4E JUMP JUMPDEST PUSH1 0x20 DUP3 ADD SWAP1 POP SWAP2 SWAP1 POP JUMP JUMPDEST PUSH1 0x0 PUSH2 0x87C PUSH1 0x4 DUP4 PUSH2 0xB15 JUMP JUMPDEST SWAP2 POP PUSH2 0x887 DUP3 PUSH2 0xD77 JUMP JUMPDEST PUSH1 0x4 DUP3 ADD SWAP1 POP SWAP2 SWAP1 POP JUMP JUMPDEST PUSH2 0x89B DUP2 PUSH2 0xB5E JUMP JUMPDEST DUP3 MSTORE POP POP JUMP JUMPDEST PUSH1 0x0 PUSH2 0x8AD DUP3 DUP5 PUSH2 0x726 JUMP JUMPDEST SWAP2 POP DUP2 SWAP1 POP SWAP3 SWAP2 POP POP JUMP JUMPDEST PUSH1 0x0 PUSH2 0x8C3 DUP3 PUSH2 0x757 JUMP JUMPDEST SWAP2 POP DUP2 SWAP1 POP SWAP2 SWAP1 POP JUMP JUMPDEST PUSH1 0x0 PUSH2 0x8D8 DUP3 PUSH2 0x77A JUMP JUMPDEST SWAP2 POP DUP2 SWAP1 POP SWAP2 SWAP1 POP JUMP JUMPDEST PUSH1 0x0 PUSH2 0x8ED DUP3 PUSH2 0x7C0 JUMP JUMPDEST SWAP2 POP DUP2 SWAP1 POP SWAP2 SWAP1 POP JUMP JUMPDEST PUSH1 0x0 PUSH2 0x902 DUP3 PUSH2 0x806 JUMP JUMPDEST SWAP2 POP DUP2 SWAP1 POP SWAP2 SWAP1 POP JUMP JUMPDEST PUSH1 0x0 PUSH2 0x917 DUP3 PUSH2 0x829 JUMP JUMPDEST SWAP2 POP DUP2 SWAP1 POP SWAP2 SWAP1 POP JUMP JUMPDEST PUSH1 0x0 PUSH2 0x92C DUP3 PUSH2 0x86F JUMP JUMPDEST SWAP2 POP DUP2 SWAP1 POP SWAP2 SWAP1 POP JUMP JUMPDEST PUSH1 0x0 PUSH1 0x20 DUP3 ADD SWAP1 POP PUSH2 0x94B PUSH1 0x0 DUP4 ADD DUP5 PUSH2 0x6CF JUMP JUMPDEST SWAP3 SWAP2 POP POP JUMP JUMPDEST PUSH1 0x0 PUSH1 0x40 DUP3 ADD SWAP1 POP PUSH2 0x966 PUSH1 0x0 DUP4 ADD DUP6 PUSH2 0x6CF JUMP JUMPDEST PUSH2 0x973 PUSH1 0x20 DUP4 ADD DUP5 PUSH2 0x6CF JUMP JUMPDEST SWAP4 SWAP3 POP POP POP JUMP JUMPDEST PUSH1 0x0 PUSH1 0x80 DUP3 ADD SWAP1 POP PUSH2 0x98F PUSH1 0x0 DUP4 ADD DUP7 PUSH2 0x6CF JUMP JUMPDEST PUSH2 0x99C PUSH1 0x20 DUP4 ADD DUP6 PUSH2 0x6CF JUMP JUMPDEST DUP2 DUP2 SUB PUSH1 0x40 DUP4 ADD MSTORE PUSH2 0x9AE DUP2 DUP5 PUSH2 0x6ED JUMP JUMPDEST SWAP1 POP DUP2 DUP2 SUB PUSH1 0x60 DUP4 ADD MSTORE PUSH2 0x9C1 DUP2 PUSH2 0x79D JUMP JUMPDEST SWAP1 POP SWAP5 SWAP4 POP POP POP POP JUMP JUMPDEST PUSH1 0x0 PUSH1 0x80 DUP3 ADD SWAP1 POP PUSH2 0x9E0 PUSH1 0x0 DUP4 ADD DUP7 PUSH2 0x6CF JUMP JUMPDEST PUSH2 0x9ED PUSH1 0x20 DUP4 ADD DUP6 PUSH2 0x6CF JUMP JUMPDEST DUP2 DUP2 SUB PUSH1 0x40 DUP4 ADD MSTORE PUSH2 0x9FF DUP2 DUP5 PUSH2 0x6ED JUMP JUMPDEST SWAP1 POP DUP2 DUP2 SUB PUSH1 0x60 DUP4 ADD MSTORE PUSH2 0xA12 DUP2 PUSH2 0x7E3 JUMP JUMPDEST SWAP1 POP SWAP5 SWAP4 POP POP POP POP JUMP JUMPDEST PUSH1 0x0 PUSH1 0x80 DUP3 ADD SWAP1 POP PUSH2 0xA31 PUSH1 0x0 DUP4 ADD DUP7 PUSH2 0x6CF JUMP JUMPDEST PUSH2 0xA3E PUSH1 0x20 DUP4 ADD DUP6 PUSH2 0x6CF JUMP JUMPDEST DUP2 DUP2 SUB PUSH1 0x40 DUP4 ADD MSTORE PUSH2 0xA50 DUP2 DUP5 PUSH2 0x6ED JUMP JUMPDEST SWAP1 POP DUP2 DUP2 SUB PUSH1 0x60 DUP4 ADD MSTORE PUSH2 0xA63 DUP2 PUSH2 0x84C JUMP JUMPDEST SWAP1 POP SWAP5 SWAP4 POP POP POP POP JUMP JUMPDEST PUSH1 0x0 PUSH1 0x20 DUP3 ADD SWAP1 POP PUSH2 0xA82 PUSH1 0x0 DUP4 ADD DUP5 PUSH2 0x6DE JUMP JUMPDEST SWAP3 SWAP2 POP POP JUMP JUMPDEST PUSH1 0x0 PUSH1 0x20 DUP3 ADD SWAP1 POP PUSH2 0xA9D PUSH1 0x0 DUP4 ADD DUP5 PUSH2 0x892 JUMP JUMPDEST SWAP3 SWAP2 POP POP JUMP JUMPDEST PUSH1 0x0 PUSH2 0xAAD PUSH2 0xABE JUMP JUMPDEST SWAP1 POP PUSH2 0xAB9 DUP3 DUP3 PUSH2 0xBAA JUMP JUMPDEST SWAP2 SWAP1 POP JUMP JUMPDEST PUSH1 0x0 PUSH1 0x40 MLOAD SWAP1 POP SWAP1 JUMP JUMPDEST PUSH1 0x0 PUSH8 0xFFFFFFFFFFFFFFFF DUP3 GT ISZERO PUSH2 0xAE3 JUMPI PUSH2 0xAE2 PUSH2 0xBDB JUMP JUMPDEST JUMPDEST PUSH2 0xAEC DUP3 PUSH2 0xC1E JUMP JUMPDEST SWAP1 POP PUSH1 0x20 DUP2 ADD SWAP1 POP SWAP2 SWAP1 POP JUMP JUMPDEST PUSH1 0x0 DUP2 MLOAD SWAP1 POP SWAP2 SWAP1 POP JUMP JUMPDEST PUSH1 0x0 DUP3 DUP3 MSTORE PUSH1 0x20 DUP3 ADD SWAP1 POP SWAP3 SWAP2 POP POP JUMP JUMPDEST PUSH1 0x0 DUP2 SWAP1 POP SWAP3 SWAP2 POP POP JUMP JUMPDEST PUSH1 0x0 PUSH2 0xB2B DUP3 PUSH2 0xB3E JUMP JUMPDEST SWAP1 POP SWAP2 SWAP1 POP JUMP JUMPDEST PUSH1 0x0 DUP2 ISZERO ISZERO SWAP1 POP SWAP2 SWAP1 POP JUMP JUMPDEST PUSH1 0x0 PUSH20 0xFFFFFFFFFFFFFFFFFFFFFFFFFFFFFFFFFFFFFFFF DUP3 AND SWAP1 POP SWAP2 SWAP1 POP JUMP JUMPDEST PUSH1 0x0 DUP2 SWAP1 POP SWAP2 SWAP1 POP JUMP JUMPDEST DUP3 DUP2 DUP4 CALLDATACOPY PUSH1 0x0 DUP4 DUP4 ADD MSTORE POP POP POP JUMP JUMPDEST PUSH1 0x0 JUMPDEST DUP4 DUP2 LT ISZERO PUSH2 0xB95 JUMPI DUP1 DUP3 ADD MLOAD DUP2 DUP5 ADD MSTORE PUSH1 0x20 DUP2 ADD SWAP1 POP PUSH2 0xB7A JUMP JUMPDEST DUP4 DUP2 GT ISZERO PUSH2 0xBA4 JUMPI PUSH1 0x0 DUP5 DUP5 ADD MSTORE JUMPDEST POP POP POP POP JUMP JUMPDEST PUSH2 0xBB3 DUP3 PUSH2 0xC1E JUMP JUMPDEST DUP2 ADD DUP2 DUP2 LT PUSH8 0xFFFFFFFFFFFFFFFF DUP3 GT OR ISZERO PUSH2 0xBD2 JUMPI PUSH2 0xBD1 PUSH2 0xBDB JUMP JUMPDEST JUMPDEST DUP1 PUSH1 0x40 MSTORE POP POP POP JUMP JUMPDEST PUSH32 0x4E487B7100000000000000000000000000000000000000000000000000000000 PUSH1 0x0 MSTORE PUSH1 0x41 PUSH1 0x4 MSTORE PUSH1 0x24 PUSH1 0x0 REVERT JUMPDEST PUSH1 0x0 DUP1 REVERT JUMPDEST PUSH1 0x0 DUP1 REVERT JUMPDEST PUSH1 0x0 DUP1 REVERT JUMPDEST PUSH1 0x0 DUP1 REVERT JUMPDEST PUSH1 0x0 PUSH1 0x1F NOT PUSH1 0x1F DUP4 ADD AND SWAP1 POP SWAP2 SWAP1 POP JUMP JUMPDEST PUSH32 0x636C6F7365000000000000000000000000000000000000000000000000000000 PUSH1 0x0 DUP3 ADD MSTORE POP JUMP JUMPDEST PUSH32 0x322E322E322E3200000000000000000000000000000000000000000000000000 PUSH1 0x0 DUP3 ADD MSTORE POP JUMP JUMPDEST PUSH32 0x4163636573732070617373210000000000000000000000000000000000000000 PUSH1 0x0 DUP3 ADD MSTORE POP JUMP JUMPDEST PUSH32 0x7265737461727400000000000000000000000000000000000000000000000000 PUSH1 0x0 DUP3 ADD MSTORE POP JUMP JUMPDEST PUSH32 0x496C6C6567616C20495020616464726573732100000000000000000000000000 PUSH1 0x0 DUP3 ADD MSTORE POP JUMP JUMPDEST PUSH32 0x6B696C6C00000000000000000000000000000000000000000000000000000000 PUSH1 0x0 DUP3 ADD MSTORE POP JUMP JUMPDEST PUSH32 0x6F70656E00000000000000000000000000000000000000000000000000000000 PUSH1 0x0 DUP3 ADD MSTORE POP JUMP JUMPDEST PUSH32 0x556E617574686F72697A65642061636365737321000000000000000000000000 PUSH1 0x0 DUP3 ADD MSTORE POP JUMP JUMPDEST PUSH32 0x7265616400000000000000000000000000000000000000000000000000000000 PUSH1 0x0 DUP3 ADD MSTORE POP JUMP JUMPDEST PUSH2 0xDA9 DUP2 PUSH2 0xB20 JUMP JUMPDEST DUP2 EQ PUSH2 0xDB4 JUMPI PUSH1 0x0 DUP1 REVERT JUMPDEST POP JUMP INVALID LOG2 PUSH5 0x6970667358 0x22 SLT KECCAK256 0xA5 0xE5 CALLCODE PUSH24 0xCEBD184392B0529D943CADDD2468F9A5E135002B22ABCAAD 0x2D PUSH32 0x95B264736F6C6343000807003300000000000000000000000000000000000000 "
				},
				"gasEstimates": {
					"creation": {
						"codeDepositCost": "713000",
						"executionCost": "747",
						"totalCost": "713747"
					},
					"external": {
						"accessControl(address,string)": "infinite",
						"getCurTime()": "358",
						"init(address)": "infinite"
					}
				},
				"methodIdentifiers": {
					"accessControl(address,string)": "32076e77",
					"getCurTime()": "c0821da3",
					"init(address)": "19ab453c"
				}
			},
			"storageLayout": {
				"storage": [
					{
						"astId": 5,
						"contract": "contracts/AccessControl.sol:AccessControl",
						"label": "manager",
						"offset": 0,
						"slot": "0",
						"type": "t_contract(Management)360"
					},
					{
						"astId": 9,
						"contract": "contracts/AccessControl.sol:AccessControl",
						"label": "rightTable",
						"offset": 0,
						"slot": "1",
						"type": "t_mapping(t_string_memory_ptr,t_int256)"
					},
					{
						"astId": 13,
						"contract": "contracts/AccessControl.sol:AccessControl",
						"label": "blackListIpPool",
						"offset": 0,
						"slot": "2",
						"type": "t_mapping(t_string_memory_ptr,t_bool)"
					}
				],
				"types": {
					"t_bool": {
						"encoding": "inplace",
						"label": "bool",
						"numberOfBytes": "1"
					},
					"t_contract(Management)360": {
						"encoding": "inplace",
						"label": "contract Management",
						"numberOfBytes": "20"
					},
					"t_int256": {
						"encoding": "inplace",
						"label": "int256",
						"numberOfBytes": "32"
					},
					"t_mapping(t_string_memory_ptr,t_bool)": {
						"encoding": "mapping",
						"key": "t_string_memory_ptr",
						"label": "mapping(string => bool)",
						"numberOfBytes": "32",
						"value": "t_bool"
					},
					"t_mapping(t_string_memory_ptr,t_int256)": {
						"encoding": "mapping",
						"key": "t_string_memory_ptr",
						"label": "mapping(string => int256)",
						"numberOfBytes": "32",
						"value": "t_int256"
					},
					"t_string_memory_ptr": {
						"encoding": "bytes",
						"label": "string",
						"numberOfBytes": "32"
					}
				}
			},
			"userdoc": {
				"kind": "user",
				"methods": {},
				"version": 1
			}
		}
	}
}