{
	"contracts/Management.sol": {
		"Management": {
			"abi": [
				{
					"inputs": [
						{
							"internalType": "address",
							"name": "_addr",
							"type": "address"
						}
					],
					"name": "getDeviceInfoByAddr",
					"outputs": [
						{
							"components": [
								{
									"internalType": "address",
									"name": "deviceAddr",
									"type": "address"
								},
								{
									"internalType": "string",
									"name": "deviceName",
									"type": "string"
								},
								{
									"internalType": "string",
									"name": "deviceType",
									"type": "string"
								}
							],
							"internalType": "struct Management.DeviceInfo",
							"name": "",
							"type": "tuple"
						}
					],
					"stateMutability": "view",
					"type": "function"
				},
				{
					"inputs": [
						{
							"internalType": "address",
							"name": "_deviceAddr",
							"type": "address"
						},
						{
							"internalType": "string",
							"name": "_deviceName",
							"type": "string"
						},
						{
							"internalType": "string",
							"name": "_deviceType",
							"type": "string"
						}
					],
					"name": "setDeviceInfo",
					"outputs": [],
					"stateMutability": "nonpayable",
					"type": "function"
				},
				{
					"inputs": [],
					"name": "setSubjInfo",
					"outputs": [],
					"stateMutability": "nonpayable",
					"type": "function"
				},
				{
					"inputs": [
						{
							"internalType": "address",
							"name": "",
							"type": "address"
						}
					],
					"name": "subjInfoMap",
					"outputs": [
						{
							"internalType": "address",
							"name": "objectAddr",
							"type": "address"
						},
						{
							"internalType": "string",
							"name": "objectName",
							"type": "string"
						},
						{
							"internalType": "string",
							"name": "ipAddr",
							"type": "string"
						}
					],
					"stateMutability": "view",
					"type": "function"
				}
			],
			"devdoc": {
				"kind": "dev",
				"methods": {},
				"version": 1
			},
			"evm": {
				"assembly": "    /* \"contracts/Management.sol\":68:1239  contract Management {\r... */\n  mstore(0x40, 0x80)\n  callvalue\n  dup1\n  iszero\n  tag_1\n  jumpi\n  0x00\n  dup1\n  revert\ntag_1:\n  pop\n  dataSize(sub_0)\n  dup1\n  dataOffset(sub_0)\n  0x00\n  codecopy\n  0x00\n  return\nstop\n\nsub_0: assembly {\n        /* \"contracts/Management.sol\":68:1239  contract Management {\r... */\n      mstore(0x40, 0x80)\n      callvalue\n      dup1\n      iszero\n      tag_1\n      jumpi\n      0x00\n      dup1\n      revert\n    tag_1:\n      pop\n      jumpi(tag_2, lt(calldatasize, 0x04))\n      shr(0xe0, calldataload(0x00))\n      dup1\n      0x6c477035\n      eq\n      tag_3\n      jumpi\n      dup1\n      0xb9e0ad10\n      eq\n      tag_4\n      jumpi\n      dup1\n      0xc4a72111\n      eq\n      tag_5\n      jumpi\n      dup1\n      0xde1e23b7\n      eq\n      tag_6\n      jumpi\n    tag_2:\n      0x00\n      dup1\n      revert\n        /* \"contracts/Management.sol\":581:880  function setDeviceInfo(address _deviceAddr, string memory _deviceName, string memory _deviceType) public {\r... */\n    tag_3:\n      tag_7\n      0x04\n      dup1\n      calldatasize\n      sub\n      dup2\n      add\n      swap1\n      tag_8\n      swap2\n      swap1\n      tag_9\n      jump\t// in\n    tag_8:\n      tag_10\n      jump\t// in\n    tag_7:\n      stop\n        /* \"contracts/Management.sol\":525:572  mapping(address => SubjInfo) public subjInfoMap */\n    tag_4:\n      tag_11\n      0x04\n      dup1\n      calldatasize\n      sub\n      dup2\n      add\n      swap1\n      tag_12\n      swap2\n      swap1\n      tag_13\n      jump\t// in\n    tag_12:\n      tag_14\n      jump\t// in\n    tag_11:\n      mload(0x40)\n      tag_15\n      swap4\n      swap3\n      swap2\n      swap1\n      tag_16\n      jump\t// in\n    tag_15:\n      mload(0x40)\n      dup1\n      swap2\n      sub\n      swap1\n      return\n        /* \"contracts/Management.sol\":1047:1085  function setSubjInfo() public {\r... */\n    tag_5:\n      tag_17\n      tag_18\n      jump\t// in\n    tag_17:\n      stop\n        /* \"contracts/Management.sol\":896:1026  function getDeviceInfoByAddr(address _addr) public view returns (DeviceInfo memory) {\r... */\n    tag_6:\n      tag_19\n      0x04\n      dup1\n      calldatasize\n      sub\n      dup2\n      add\n      swap1\n      tag_20\n      swap2\n      swap1\n      tag_13\n      jump\t// in\n    tag_20:\n      tag_21\n      jump\t// in\n    tag_19:\n      mload(0x40)\n      tag_22\n      swap2\n      swap1\n      tag_23\n      jump\t// in\n    tag_22:\n      mload(0x40)\n      dup1\n      swap2\n      sub\n      swap1\n      return\n        /* \"contracts/Management.sol\":581:880  function setDeviceInfo(address _deviceAddr, string memory _deviceName, string memory _deviceType) public {\r... */\n    tag_10:\n        /* \"contracts/Management.sol\":737:748  _deviceAddr */\n      dup3\n        /* \"contracts/Management.sol\":697:710  deviceInfoMap */\n      0x00\n        /* \"contracts/Management.sol\":697:723  deviceInfoMap[_deviceAddr] */\n      dup1\n        /* \"contracts/Management.sol\":711:722  _deviceAddr */\n      dup6\n        /* \"contracts/Management.sol\":697:723  deviceInfoMap[_deviceAddr] */\n      0xffffffffffffffffffffffffffffffffffffffff\n      and\n      0xffffffffffffffffffffffffffffffffffffffff\n      and\n      dup2\n      mstore\n      0x20\n      add\n      swap1\n      dup2\n      mstore\n      0x20\n      add\n      0x00\n      keccak256\n        /* \"contracts/Management.sol\":697:734  deviceInfoMap[_deviceAddr].deviceAddr */\n      0x00\n      add\n      0x00\n        /* \"contracts/Management.sol\":697:748  deviceInfoMap[_deviceAddr].deviceAddr = _deviceAddr */\n      0x0100\n      exp\n      dup2\n      sload\n      dup2\n      0xffffffffffffffffffffffffffffffffffffffff\n      mul\n      not\n      and\n      swap1\n      dup4\n      0xffffffffffffffffffffffffffffffffffffffff\n      and\n      mul\n      or\n      swap1\n      sstore\n      pop\n        /* \"contracts/Management.sol\":799:810  _deviceName */\n      dup2\n        /* \"contracts/Management.sol\":759:772  deviceInfoMap */\n      0x00\n        /* \"contracts/Management.sol\":759:785  deviceInfoMap[_deviceAddr] */\n      dup1\n        /* \"contracts/Management.sol\":773:784  _deviceAddr */\n      dup6\n        /* \"contracts/Management.sol\":759:785  deviceInfoMap[_deviceAddr] */\n      0xffffffffffffffffffffffffffffffffffffffff\n      and\n      0xffffffffffffffffffffffffffffffffffffffff\n      and\n      dup2\n      mstore\n      0x20\n      add\n      swap1\n      dup2\n      mstore\n      0x20\n      add\n      0x00\n      keccak256\n        /* \"contracts/Management.sol\":759:796  deviceInfoMap[_deviceAddr].deviceName */\n      0x01\n      add\n        /* \"contracts/Management.sol\":759:810  deviceInfoMap[_deviceAddr].deviceName = _deviceName */\n      swap1\n      dup1\n      mload\n      swap1\n      0x20\n      add\n      swap1\n      tag_25\n      swap3\n      swap2\n      swap1\n      tag_26\n      jump\t// in\n    tag_25:\n      pop\n        /* \"contracts/Management.sol\":861:872  _deviceType */\n      dup1\n        /* \"contracts/Management.sol\":821:834  deviceInfoMap */\n      0x00\n        /* \"contracts/Management.sol\":821:847  deviceInfoMap[_deviceAddr] */\n      dup1\n        /* \"contracts/Management.sol\":835:846  _deviceAddr */\n      dup6\n        /* \"contracts/Management.sol\":821:847  deviceInfoMap[_deviceAddr] */\n      0xffffffffffffffffffffffffffffffffffffffff\n      and\n      0xffffffffffffffffffffffffffffffffffffffff\n      and\n      dup2\n      mstore\n      0x20\n      add\n      swap1\n      dup2\n      mstore\n      0x20\n      add\n      0x00\n      keccak256\n        /* \"contracts/Management.sol\":821:858  deviceInfoMap[_deviceAddr].deviceType */\n      0x02\n      add\n        /* \"contracts/Management.sol\":821:872  deviceInfoMap[_deviceAddr].deviceType = _deviceType */\n      swap1\n      dup1\n      mload\n      swap1\n      0x20\n      add\n      swap1\n      tag_27\n      swap3\n      swap2\n      swap1\n      tag_26\n      jump\t// in\n    tag_27:\n      pop\n        /* \"contracts/Management.sol\":581:880  function setDeviceInfo(address _deviceAddr, string memory _deviceName, string memory _deviceType) public {\r... */\n      pop\n      pop\n      pop\n      jump\t// out\n        /* \"contracts/Management.sol\":525:572  mapping(address => SubjInfo) public subjInfoMap */\n    tag_14:\n      mstore(0x20, 0x01)\n      dup1\n      0x00\n      mstore\n      keccak256(0x00, 0x40)\n      0x00\n      swap2\n      pop\n      swap1\n      pop\n      dup1\n      0x00\n      add\n      0x00\n      swap1\n      sload\n      swap1\n      0x0100\n      exp\n      swap1\n      div\n      0xffffffffffffffffffffffffffffffffffffffff\n      and\n      swap1\n      dup1\n      0x01\n      add\n      dup1\n      sload\n      tag_28\n      swap1\n      tag_29\n      jump\t// in\n    tag_28:\n      dup1\n      0x1f\n      add\n      0x20\n      dup1\n      swap2\n      div\n      mul\n      0x20\n      add\n      mload(0x40)\n      swap1\n      dup2\n      add\n      0x40\n      mstore\n      dup1\n      swap3\n      swap2\n      swap1\n      dup2\n      dup2\n      mstore\n      0x20\n      add\n      dup3\n      dup1\n      sload\n      tag_30\n      swap1\n      tag_29\n      jump\t// in\n    tag_30:\n      dup1\n      iszero\n      tag_31\n      jumpi\n      dup1\n      0x1f\n      lt\n      tag_32\n      jumpi\n      0x0100\n      dup1\n      dup4\n      sload\n      div\n      mul\n      dup4\n      mstore\n      swap2\n      0x20\n      add\n      swap2\n      jump(tag_31)\n    tag_32:\n      dup3\n      add\n      swap2\n      swap1\n      0x00\n      mstore\n      keccak256(0x00, 0x20)\n      swap1\n    tag_33:\n      dup2\n      sload\n      dup2\n      mstore\n      swap1\n      0x01\n      add\n      swap1\n      0x20\n      add\n      dup1\n      dup4\n      gt\n      tag_33\n      jumpi\n      dup3\n      swap1\n      sub\n      0x1f\n      and\n      dup3\n      add\n      swap2\n    tag_31:\n      pop\n      pop\n      pop\n      pop\n      pop\n      swap1\n      dup1\n      0x03\n      add\n      dup1\n      sload\n      tag_34\n      swap1\n      tag_29\n      jump\t// in\n    tag_34:\n      dup1\n      0x1f\n      add\n      0x20\n      dup1\n      swap2\n      div\n      mul\n      0x20\n      add\n      mload(0x40)\n      swap1\n      dup2\n      add\n      0x40\n      mstore\n      dup1\n      swap3\n      swap2\n      swap1\n      dup2\n      dup2\n      mstore\n      0x20\n      add\n      dup3\n      dup1\n      sload\n      tag_35\n      swap1\n      tag_29\n      jump\t// in\n    tag_35:\n      dup1\n      iszero\n      tag_36\n      jumpi\n      dup1\n      0x1f\n      lt\n      tag_37\n      jumpi\n      0x0100\n      dup1\n      dup4\n      sload\n      div\n      mul\n      dup4\n      mstore\n      swap2\n      0x20\n      add\n      swap2\n      jump(tag_36)\n    tag_37:\n      dup3\n      add\n      swap2\n      swap1\n      0x00\n      mstore\n      keccak256(0x00, 0x20)\n      swap1\n    tag_38:\n      dup2\n      sload\n      dup2\n      mstore\n      swap1\n      0x01\n      add\n      swap1\n      0x20\n      add\n      dup1\n      dup4\n      gt\n      tag_38\n      jumpi\n      dup3\n      swap1\n      sub\n      0x1f\n      and\n      dup3\n      add\n      swap2\n    tag_36:\n      pop\n      pop\n      pop\n      pop\n      pop\n      swap1\n      pop\n      dup4\n      jump\t// out\n        /* \"contracts/Management.sol\":1047:1085  function setSubjInfo() public {\r... */\n    tag_18:\n      jump\t// out\n        /* \"contracts/Management.sol\":896:1026  function getDeviceInfoByAddr(address _addr) public view returns (DeviceInfo memory) {\r... */\n    tag_21:\n        /* \"contracts/Management.sol\":961:978  DeviceInfo memory */\n      tag_40\n      tag_41\n      jump\t// in\n    tag_40:\n        /* \"contracts/Management.sol\":998:1011  deviceInfoMap */\n      0x00\n        /* \"contracts/Management.sol\":998:1018  deviceInfoMap[_addr] */\n      dup1\n        /* \"contracts/Management.sol\":1012:1017  _addr */\n      dup4\n        /* \"contracts/Management.sol\":998:1018  deviceInfoMap[_addr] */\n      0xffffffffffffffffffffffffffffffffffffffff\n      and\n      0xffffffffffffffffffffffffffffffffffffffff\n      and\n      dup2\n      mstore\n      0x20\n      add\n      swap1\n      dup2\n      mstore\n      0x20\n      add\n      0x00\n      keccak256\n        /* \"contracts/Management.sol\":991:1018  return deviceInfoMap[_addr] */\n      mload(0x40)\n      dup1\n      0x60\n      add\n      0x40\n      mstore\n      swap1\n      dup2\n      0x00\n      dup3\n      add\n      0x00\n      swap1\n      sload\n      swap1\n      0x0100\n      exp\n      swap1\n      div\n      0xffffffffffffffffffffffffffffffffffffffff\n      and\n      0xffffffffffffffffffffffffffffffffffffffff\n      and\n      0xffffffffffffffffffffffffffffffffffffffff\n      and\n      dup2\n      mstore\n      0x20\n      add\n      0x01\n      dup3\n      add\n      dup1\n      sload\n      tag_43\n      swap1\n      tag_29\n      jump\t// in\n    tag_43:\n      dup1\n      0x1f\n      add\n      0x20\n      dup1\n      swap2\n      div\n      mul\n      0x20\n      add\n      mload(0x40)\n      swap1\n      dup2\n      add\n      0x40\n      mstore\n      dup1\n      swap3\n      swap2\n      swap1\n      dup2\n      dup2\n      mstore\n      0x20\n      add\n      dup3\n      dup1\n      sload\n      tag_44\n      swap1\n      tag_29\n      jump\t// in\n    tag_44:\n      dup1\n      iszero\n      tag_45\n      jumpi\n      dup1\n      0x1f\n      lt\n      tag_46\n      jumpi\n      0x0100\n      dup1\n      dup4\n      sload\n      div\n      mul\n      dup4\n      mstore\n      swap2\n      0x20\n      add\n      swap2\n      jump(tag_45)\n    tag_46:\n      dup3\n      add\n      swap2\n      swap1\n      0x00\n      mstore\n      keccak256(0x00, 0x20)\n      swap1\n    tag_47:\n      dup2\n      sload\n      dup2\n      mstore\n      swap1\n      0x01\n      add\n      swap1\n      0x20\n      add\n      dup1\n      dup4\n      gt\n      tag_47\n      jumpi\n      dup3\n      swap1\n      sub\n      0x1f\n      and\n      dup3\n      add\n      swap2\n    tag_45:\n      pop\n      pop\n      pop\n      pop\n      pop\n      dup2\n      mstore\n      0x20\n      add\n      0x02\n      dup3\n      add\n      dup1\n      sload\n      tag_48\n      swap1\n      tag_29\n      jump\t// in\n    tag_48:\n      dup1\n      0x1f\n      add\n      0x20\n      dup1\n      swap2\n      div\n      mul\n      0x20\n      add\n      mload(0x40)\n      swap1\n      dup2\n      add\n      0x40\n      mstore\n      dup1\n      swap3\n      swap2\n      swap1\n      dup2\n      dup2\n      mstore\n      0x20\n      add\n      dup3\n      dup1\n      sload\n      tag_49\n      swap1\n      tag_29\n      jump\t// in\n    tag_49:\n      dup1\n      iszero\n      tag_50\n      jumpi\n      dup1\n      0x1f\n      lt\n      tag_51\n      jumpi\n      0x0100\n      dup1\n      dup4\n      sload\n      div\n      mul\n      dup4\n      mstore\n      swap2\n      0x20\n      add\n      swap2\n      jump(tag_50)\n    tag_51:\n      dup3\n      add\n      swap2\n      swap1\n      0x00\n      mstore\n      keccak256(0x00, 0x20)\n      swap1\n    tag_52:\n      dup2\n      sload\n      dup2\n      mstore\n      swap1\n      0x01\n      add\n      swap1\n      0x20\n      add\n      dup1\n      dup4\n      gt\n      tag_52\n      jumpi\n      dup3\n      swap1\n      sub\n      0x1f\n      and\n      dup3\n      add\n      swap2\n    tag_50:\n      pop\n      pop\n      pop\n      pop\n      pop\n      dup2\n      mstore\n      pop\n      pop\n      swap1\n      pop\n        /* \"contracts/Management.sol\":896:1026  function getDeviceInfoByAddr(address _addr) public view returns (DeviceInfo memory) {\r... */\n      swap2\n      swap1\n      pop\n      jump\t// out\n    tag_26:\n      dup3\n      dup1\n      sload\n      tag_53\n      swap1\n      tag_29\n      jump\t// in\n    tag_53:\n      swap1\n      0x00\n      mstore\n      keccak256(0x00, 0x20)\n      swap1\n      0x1f\n      add\n      0x20\n      swap1\n      div\n      dup2\n      add\n      swap3\n      dup3\n      tag_55\n      jumpi\n      0x00\n      dup6\n      sstore\n      jump(tag_54)\n    tag_55:\n      dup3\n      0x1f\n      lt\n      tag_56\n      jumpi\n      dup1\n      mload\n      not(0xff)\n      and\n      dup4\n      dup1\n      add\n      or\n      dup6\n      sstore\n      jump(tag_54)\n    tag_56:\n      dup3\n      dup1\n      add\n      0x01\n      add\n      dup6\n      sstore\n      dup3\n      iszero\n      tag_54\n      jumpi\n      swap2\n      dup3\n      add\n    tag_57:\n      dup3\n      dup2\n      gt\n      iszero\n      tag_58\n      jumpi\n      dup3\n      mload\n      dup3\n      sstore\n      swap2\n      0x20\n      add\n      swap2\n      swap1\n      0x01\n      add\n      swap1\n      jump(tag_57)\n    tag_58:\n    tag_54:\n      pop\n      swap1\n      pop\n      tag_59\n      swap2\n      swap1\n      tag_60\n      jump\t// in\n    tag_59:\n      pop\n      swap1\n      jump\t// out\n    tag_41:\n      mload(0x40)\n      dup1\n      0x60\n      add\n      0x40\n      mstore\n      dup1\n      and(0xffffffffffffffffffffffffffffffffffffffff, 0x00)\n      dup2\n      mstore\n      0x20\n      add\n      0x60\n      dup2\n      mstore\n      0x20\n      add\n      0x60\n      dup2\n      mstore\n      pop\n      swap1\n      jump\t// out\n    tag_60:\n    tag_61:\n      dup1\n      dup3\n      gt\n      iszero\n      tag_62\n      jumpi\n      0x00\n      dup2\n      0x00\n      swap1\n      sstore\n      pop\n      0x01\n      add\n      jump(tag_61)\n    tag_62:\n      pop\n      swap1\n      jump\t// out\n        /* \"#utility.yul\":7:419   */\n    tag_64:\n        /* \"#utility.yul\":85:90   */\n      0x00\n        /* \"#utility.yul\":110:176   */\n      tag_66\n        /* \"#utility.yul\":126:175   */\n      tag_67\n        /* \"#utility.yul\":168:174   */\n      dup5\n        /* \"#utility.yul\":126:175   */\n      tag_68\n      jump\t// in\n    tag_67:\n        /* \"#utility.yul\":110:176   */\n      tag_69\n      jump\t// in\n    tag_66:\n        /* \"#utility.yul\":101:176   */\n      swap1\n      pop\n        /* \"#utility.yul\":199:205   */\n      dup3\n        /* \"#utility.yul\":192:197   */\n      dup2\n        /* \"#utility.yul\":185:206   */\n      mstore\n        /* \"#utility.yul\":237:241   */\n      0x20\n        /* \"#utility.yul\":230:235   */\n      dup2\n        /* \"#utility.yul\":226:242   */\n      add\n        /* \"#utility.yul\":275:278   */\n      dup5\n        /* \"#utility.yul\":266:272   */\n      dup5\n        /* \"#utility.yul\":261:264   */\n      dup5\n        /* \"#utility.yul\":257:273   */\n      add\n        /* \"#utility.yul\":254:279   */\n      gt\n        /* \"#utility.yul\":251:363   */\n      iszero\n      tag_70\n      jumpi\n        /* \"#utility.yul\":282:361   */\n      tag_71\n      tag_72\n      jump\t// in\n    tag_71:\n        /* \"#utility.yul\":251:363   */\n    tag_70:\n        /* \"#utility.yul\":372:413   */\n      tag_73\n        /* \"#utility.yul\":406:412   */\n      dup5\n        /* \"#utility.yul\":401:404   */\n      dup3\n        /* \"#utility.yul\":396:399   */\n      dup6\n        /* \"#utility.yul\":372:413   */\n      tag_74\n      jump\t// in\n    tag_73:\n        /* \"#utility.yul\":91:419   */\n      pop\n        /* \"#utility.yul\":7:419   */\n      swap4\n      swap3\n      pop\n      pop\n      pop\n      jump\t// out\n        /* \"#utility.yul\":425:564   */\n    tag_75:\n        /* \"#utility.yul\":471:476   */\n      0x00\n        /* \"#utility.yul\":509:515   */\n      dup2\n        /* \"#utility.yul\":496:516   */\n      calldataload\n        /* \"#utility.yul\":487:516   */\n      swap1\n      pop\n        /* \"#utility.yul\":525:558   */\n      tag_77\n        /* \"#utility.yul\":552:557   */\n      dup2\n        /* \"#utility.yul\":525:558   */\n      tag_78\n      jump\t// in\n    tag_77:\n        /* \"#utility.yul\":425:564   */\n      swap3\n      swap2\n      pop\n      pop\n      jump\t// out\n        /* \"#utility.yul\":584:924   */\n    tag_79:\n        /* \"#utility.yul\":640:645   */\n      0x00\n        /* \"#utility.yul\":689:692   */\n      dup3\n        /* \"#utility.yul\":682:686   */\n      0x1f\n        /* \"#utility.yul\":674:680   */\n      dup4\n        /* \"#utility.yul\":670:687   */\n      add\n        /* \"#utility.yul\":666:693   */\n      slt\n        /* \"#utility.yul\":656:778   */\n      tag_81\n      jumpi\n        /* \"#utility.yul\":697:776   */\n      tag_82\n      tag_83\n      jump\t// in\n    tag_82:\n        /* \"#utility.yul\":656:778   */\n    tag_81:\n        /* \"#utility.yul\":814:820   */\n      dup2\n        /* \"#utility.yul\":801:821   */\n      calldataload\n        /* \"#utility.yul\":839:918   */\n      tag_84\n        /* \"#utility.yul\":914:917   */\n      dup5\n        /* \"#utility.yul\":906:912   */\n      dup3\n        /* \"#utility.yul\":899:903   */\n      0x20\n        /* \"#utility.yul\":891:897   */\n      dup7\n        /* \"#utility.yul\":887:904   */\n      add\n        /* \"#utility.yul\":839:918   */\n      tag_64\n      jump\t// in\n    tag_84:\n        /* \"#utility.yul\":830:918   */\n      swap2\n      pop\n        /* \"#utility.yul\":646:924   */\n      pop\n        /* \"#utility.yul\":584:924   */\n      swap3\n      swap2\n      pop\n      pop\n      jump\t// out\n        /* \"#utility.yul\":930:1259   */\n    tag_13:\n        /* \"#utility.yul\":989:995   */\n      0x00\n        /* \"#utility.yul\":1038:1040   */\n      0x20\n        /* \"#utility.yul\":1026:1035   */\n      dup3\n        /* \"#utility.yul\":1017:1024   */\n      dup5\n        /* \"#utility.yul\":1013:1036   */\n      sub\n        /* \"#utility.yul\":1009:1041   */\n      slt\n        /* \"#utility.yul\":1006:1125   */\n      iszero\n      tag_86\n      jumpi\n        /* \"#utility.yul\":1044:1123   */\n      tag_87\n      tag_88\n      jump\t// in\n    tag_87:\n        /* \"#utility.yul\":1006:1125   */\n    tag_86:\n        /* \"#utility.yul\":1164:1165   */\n      0x00\n        /* \"#utility.yul\":1189:1242   */\n      tag_89\n        /* \"#utility.yul\":1234:1241   */\n      dup5\n        /* \"#utility.yul\":1225:1231   */\n      dup3\n        /* \"#utility.yul\":1214:1223   */\n      dup6\n        /* \"#utility.yul\":1210:1232   */\n      add\n        /* \"#utility.yul\":1189:1242   */\n      tag_75\n      jump\t// in\n    tag_89:\n        /* \"#utility.yul\":1179:1242   */\n      swap2\n      pop\n        /* \"#utility.yul\":1135:1252   */\n      pop\n        /* \"#utility.yul\":930:1259   */\n      swap3\n      swap2\n      pop\n      pop\n      jump\t// out\n        /* \"#utility.yul\":1265:2244   */\n    tag_9:\n        /* \"#utility.yul\":1362:1368   */\n      0x00\n        /* \"#utility.yul\":1370:1376   */\n      dup1\n        /* \"#utility.yul\":1378:1384   */\n      0x00\n        /* \"#utility.yul\":1427:1429   */\n      0x60\n        /* \"#utility.yul\":1415:1424   */\n      dup5\n        /* \"#utility.yul\":1406:1413   */\n      dup7\n        /* \"#utility.yul\":1402:1425   */\n      sub\n        /* \"#utility.yul\":1398:1430   */\n      slt\n        /* \"#utility.yul\":1395:1514   */\n      iszero\n      tag_91\n      jumpi\n        /* \"#utility.yul\":1433:1512   */\n      tag_92\n      tag_88\n      jump\t// in\n    tag_92:\n        /* \"#utility.yul\":1395:1514   */\n    tag_91:\n        /* \"#utility.yul\":1553:1554   */\n      0x00\n        /* \"#utility.yul\":1578:1631   */\n      tag_93\n        /* \"#utility.yul\":1623:1630   */\n      dup7\n        /* \"#utility.yul\":1614:1620   */\n      dup3\n        /* \"#utility.yul\":1603:1612   */\n      dup8\n        /* \"#utility.yul\":1599:1621   */\n      add\n        /* \"#utility.yul\":1578:1631   */\n      tag_75\n      jump\t// in\n    tag_93:\n        /* \"#utility.yul\":1568:1631   */\n      swap4\n      pop\n        /* \"#utility.yul\":1524:1641   */\n      pop\n        /* \"#utility.yul\":1708:1710   */\n      0x20\n        /* \"#utility.yul\":1697:1706   */\n      dup5\n        /* \"#utility.yul\":1693:1711   */\n      add\n        /* \"#utility.yul\":1680:1712   */\n      calldataload\n        /* \"#utility.yul\":1739:1757   */\n      0xffffffffffffffff\n        /* \"#utility.yul\":1731:1737   */\n      dup2\n        /* \"#utility.yul\":1728:1758   */\n      gt\n        /* \"#utility.yul\":1725:1842   */\n      iszero\n      tag_94\n      jumpi\n        /* \"#utility.yul\":1761:1840   */\n      tag_95\n      tag_96\n      jump\t// in\n    tag_95:\n        /* \"#utility.yul\":1725:1842   */\n    tag_94:\n        /* \"#utility.yul\":1866:1929   */\n      tag_97\n        /* \"#utility.yul\":1921:1928   */\n      dup7\n        /* \"#utility.yul\":1912:1918   */\n      dup3\n        /* \"#utility.yul\":1901:1910   */\n      dup8\n        /* \"#utility.yul\":1897:1919   */\n      add\n        /* \"#utility.yul\":1866:1929   */\n      tag_79\n      jump\t// in\n    tag_97:\n        /* \"#utility.yul\":1856:1929   */\n      swap3\n      pop\n        /* \"#utility.yul\":1651:1939   */\n      pop\n        /* \"#utility.yul\":2006:2008   */\n      0x40\n        /* \"#utility.yul\":1995:2004   */\n      dup5\n        /* \"#utility.yul\":1991:2009   */\n      add\n        /* \"#utility.yul\":1978:2010   */\n      calldataload\n        /* \"#utility.yul\":2037:2055   */\n      0xffffffffffffffff\n        /* \"#utility.yul\":2029:2035   */\n      dup2\n        /* \"#utility.yul\":2026:2056   */\n      gt\n        /* \"#utility.yul\":2023:2140   */\n      iszero\n      tag_98\n      jumpi\n        /* \"#utility.yul\":2059:2138   */\n      tag_99\n      tag_96\n      jump\t// in\n    tag_99:\n        /* \"#utility.yul\":2023:2140   */\n    tag_98:\n        /* \"#utility.yul\":2164:2227   */\n      tag_100\n        /* \"#utility.yul\":2219:2226   */\n      dup7\n        /* \"#utility.yul\":2210:2216   */\n      dup3\n        /* \"#utility.yul\":2199:2208   */\n      dup8\n        /* \"#utility.yul\":2195:2217   */\n      add\n        /* \"#utility.yul\":2164:2227   */\n      tag_79\n      jump\t// in\n    tag_100:\n        /* \"#utility.yul\":2154:2227   */\n      swap2\n      pop\n        /* \"#utility.yul\":1949:2237   */\n      pop\n        /* \"#utility.yul\":1265:2244   */\n      swap3\n      pop\n      swap3\n      pop\n      swap3\n      jump\t// out\n        /* \"#utility.yul\":2250:2358   */\n    tag_101:\n        /* \"#utility.yul\":2327:2351   */\n      tag_103\n        /* \"#utility.yul\":2345:2350   */\n      dup2\n        /* \"#utility.yul\":2327:2351   */\n      tag_104\n      jump\t// in\n    tag_103:\n        /* \"#utility.yul\":2322:2325   */\n      dup3\n        /* \"#utility.yul\":2315:2352   */\n      mstore\n        /* \"#utility.yul\":2250:2358   */\n      pop\n      pop\n      jump\t// out\n        /* \"#utility.yul\":2364:2482   */\n    tag_105:\n        /* \"#utility.yul\":2451:2475   */\n      tag_107\n        /* \"#utility.yul\":2469:2474   */\n      dup2\n        /* \"#utility.yul\":2451:2475   */\n      tag_104\n      jump\t// in\n    tag_107:\n        /* \"#utility.yul\":2446:2449   */\n      dup3\n        /* \"#utility.yul\":2439:2476   */\n      mstore\n        /* \"#utility.yul\":2364:2482   */\n      pop\n      pop\n      jump\t// out\n        /* \"#utility.yul\":2488:2832   */\n    tag_108:\n        /* \"#utility.yul\":2566:2569   */\n      0x00\n        /* \"#utility.yul\":2594:2633   */\n      tag_110\n        /* \"#utility.yul\":2627:2632   */\n      dup3\n        /* \"#utility.yul\":2594:2633   */\n      tag_111\n      jump\t// in\n    tag_110:\n        /* \"#utility.yul\":2649:2710   */\n      tag_112\n        /* \"#utility.yul\":2703:2709   */\n      dup2\n        /* \"#utility.yul\":2698:2701   */\n      dup6\n        /* \"#utility.yul\":2649:2710   */\n      tag_113\n      jump\t// in\n    tag_112:\n        /* \"#utility.yul\":2642:2710   */\n      swap4\n      pop\n        /* \"#utility.yul\":2719:2771   */\n      tag_114\n        /* \"#utility.yul\":2764:2770   */\n      dup2\n        /* \"#utility.yul\":2759:2762   */\n      dup6\n        /* \"#utility.yul\":2752:2756   */\n      0x20\n        /* \"#utility.yul\":2745:2750   */\n      dup7\n        /* \"#utility.yul\":2741:2757   */\n      add\n        /* \"#utility.yul\":2719:2771   */\n      tag_115\n      jump\t// in\n    tag_114:\n        /* \"#utility.yul\":2796:2825   */\n      tag_116\n        /* \"#utility.yul\":2818:2824   */\n      dup2\n        /* \"#utility.yul\":2796:2825   */\n      tag_117\n      jump\t// in\n    tag_116:\n        /* \"#utility.yul\":2791:2794   */\n      dup5\n        /* \"#utility.yul\":2787:2826   */\n      add\n        /* \"#utility.yul\":2780:2826   */\n      swap2\n      pop\n        /* \"#utility.yul\":2570:2832   */\n      pop\n        /* \"#utility.yul\":2488:2832   */\n      swap3\n      swap2\n      pop\n      pop\n      jump\t// out\n        /* \"#utility.yul\":2838:3202   */\n    tag_118:\n        /* \"#utility.yul\":2926:2929   */\n      0x00\n        /* \"#utility.yul\":2954:2993   */\n      tag_120\n        /* \"#utility.yul\":2987:2992   */\n      dup3\n        /* \"#utility.yul\":2954:2993   */\n      tag_111\n      jump\t// in\n    tag_120:\n        /* \"#utility.yul\":3009:3080   */\n      tag_121\n        /* \"#utility.yul\":3073:3079   */\n      dup2\n        /* \"#utility.yul\":3068:3071   */\n      dup6\n        /* \"#utility.yul\":3009:3080   */\n      tag_122\n      jump\t// in\n    tag_121:\n        /* \"#utility.yul\":3002:3080   */\n      swap4\n      pop\n        /* \"#utility.yul\":3089:3141   */\n      tag_123\n        /* \"#utility.yul\":3134:3140   */\n      dup2\n        /* \"#utility.yul\":3129:3132   */\n      dup6\n        /* \"#utility.yul\":3122:3126   */\n      0x20\n        /* \"#utility.yul\":3115:3120   */\n      dup7\n        /* \"#utility.yul\":3111:3127   */\n      add\n        /* \"#utility.yul\":3089:3141   */\n      tag_115\n      jump\t// in\n    tag_123:\n        /* \"#utility.yul\":3166:3195   */\n      tag_124\n        /* \"#utility.yul\":3188:3194   */\n      dup2\n        /* \"#utility.yul\":3166:3195   */\n      tag_117\n      jump\t// in\n    tag_124:\n        /* \"#utility.yul\":3161:3164   */\n      dup5\n        /* \"#utility.yul\":3157:3196   */\n      add\n        /* \"#utility.yul\":3150:3196   */\n      swap2\n      pop\n        /* \"#utility.yul\":2930:3202   */\n      pop\n        /* \"#utility.yul\":2838:3202   */\n      swap3\n      swap2\n      pop\n      pop\n      jump\t// out\n        /* \"#utility.yul\":3276:4145   */\n    tag_125:\n        /* \"#utility.yul\":3395:3398   */\n      0x00\n        /* \"#utility.yul\":3431:3435   */\n      0x60\n        /* \"#utility.yul\":3426:3429   */\n      dup4\n        /* \"#utility.yul\":3422:3436   */\n      add\n        /* \"#utility.yul\":3524:3528   */\n      0x00\n        /* \"#utility.yul\":3517:3522   */\n      dup4\n        /* \"#utility.yul\":3513:3529   */\n      add\n        /* \"#utility.yul\":3507:3530   */\n      mload\n        /* \"#utility.yul\":3543:3606   */\n      tag_127\n        /* \"#utility.yul\":3600:3604   */\n      0x00\n        /* \"#utility.yul\":3595:3598   */\n      dup7\n        /* \"#utility.yul\":3591:3605   */\n      add\n        /* \"#utility.yul\":3577:3589   */\n      dup3\n        /* \"#utility.yul\":3543:3606   */\n      tag_101\n      jump\t// in\n    tag_127:\n        /* \"#utility.yul\":3446:3616   */\n      pop\n        /* \"#utility.yul\":3704:3708   */\n      0x20\n        /* \"#utility.yul\":3697:3702   */\n      dup4\n        /* \"#utility.yul\":3693:3709   */\n      add\n        /* \"#utility.yul\":3687:3710   */\n      mload\n        /* \"#utility.yul\":3757:3760   */\n      dup5\n        /* \"#utility.yul\":3751:3755   */\n      dup3\n        /* \"#utility.yul\":3747:3761   */\n      sub\n        /* \"#utility.yul\":3740:3744   */\n      0x20\n        /* \"#utility.yul\":3735:3738   */\n      dup7\n        /* \"#utility.yul\":3731:3745   */\n      add\n        /* \"#utility.yul\":3724:3762   */\n      mstore\n        /* \"#utility.yul\":3783:3856   */\n      tag_128\n        /* \"#utility.yul\":3851:3855   */\n      dup3\n        /* \"#utility.yul\":3837:3849   */\n      dup3\n        /* \"#utility.yul\":3783:3856   */\n      tag_108\n      jump\t// in\n    tag_128:\n        /* \"#utility.yul\":3775:3856   */\n      swap2\n      pop\n        /* \"#utility.yul\":3626:3867   */\n      pop\n        /* \"#utility.yul\":3955:3959   */\n      0x40\n        /* \"#utility.yul\":3948:3953   */\n      dup4\n        /* \"#utility.yul\":3944:3960   */\n      add\n        /* \"#utility.yul\":3938:3961   */\n      mload\n        /* \"#utility.yul\":4008:4011   */\n      dup5\n        /* \"#utility.yul\":4002:4006   */\n      dup3\n        /* \"#utility.yul\":3998:4012   */\n      sub\n        /* \"#utility.yul\":3991:3995   */\n      0x40\n        /* \"#utility.yul\":3986:3989   */\n      dup7\n        /* \"#utility.yul\":3982:3996   */\n      add\n        /* \"#utility.yul\":3975:4013   */\n      mstore\n        /* \"#utility.yul\":4034:4107   */\n      tag_129\n        /* \"#utility.yul\":4102:4106   */\n      dup3\n        /* \"#utility.yul\":4088:4100   */\n      dup3\n        /* \"#utility.yul\":4034:4107   */\n      tag_108\n      jump\t// in\n    tag_129:\n        /* \"#utility.yul\":4026:4107   */\n      swap2\n      pop\n        /* \"#utility.yul\":3877:4118   */\n      pop\n        /* \"#utility.yul\":4135:4139   */\n      dup1\n        /* \"#utility.yul\":4128:4139   */\n      swap2\n      pop\n        /* \"#utility.yul\":3400:4145   */\n      pop\n        /* \"#utility.yul\":3276:4145   */\n      swap3\n      swap2\n      pop\n      pop\n      jump\t// out\n        /* \"#utility.yul\":4151:4775   */\n    tag_16:\n        /* \"#utility.yul\":4340:4344   */\n      0x00\n        /* \"#utility.yul\":4378:4380   */\n      0x60\n        /* \"#utility.yul\":4367:4376   */\n      dup3\n        /* \"#utility.yul\":4363:4381   */\n      add\n        /* \"#utility.yul\":4355:4381   */\n      swap1\n      pop\n        /* \"#utility.yul\":4391:4462   */\n      tag_131\n        /* \"#utility.yul\":4459:4460   */\n      0x00\n        /* \"#utility.yul\":4448:4457   */\n      dup4\n        /* \"#utility.yul\":4444:4461   */\n      add\n        /* \"#utility.yul\":4435:4441   */\n      dup7\n        /* \"#utility.yul\":4391:4462   */\n      tag_105\n      jump\t// in\n    tag_131:\n        /* \"#utility.yul\":4509:4518   */\n      dup2\n        /* \"#utility.yul\":4503:4507   */\n      dup2\n        /* \"#utility.yul\":4499:4519   */\n      sub\n        /* \"#utility.yul\":4494:4496   */\n      0x20\n        /* \"#utility.yul\":4483:4492   */\n      dup4\n        /* \"#utility.yul\":4479:4497   */\n      add\n        /* \"#utility.yul\":4472:4520   */\n      mstore\n        /* \"#utility.yul\":4537:4615   */\n      tag_132\n        /* \"#utility.yul\":4610:4614   */\n      dup2\n        /* \"#utility.yul\":4601:4607   */\n      dup6\n        /* \"#utility.yul\":4537:4615   */\n      tag_118\n      jump\t// in\n    tag_132:\n        /* \"#utility.yul\":4529:4615   */\n      swap1\n      pop\n        /* \"#utility.yul\":4662:4671   */\n      dup2\n        /* \"#utility.yul\":4656:4660   */\n      dup2\n        /* \"#utility.yul\":4652:4672   */\n      sub\n        /* \"#utility.yul\":4647:4649   */\n      0x40\n        /* \"#utility.yul\":4636:4645   */\n      dup4\n        /* \"#utility.yul\":4632:4650   */\n      add\n        /* \"#utility.yul\":4625:4673   */\n      mstore\n        /* \"#utility.yul\":4690:4768   */\n      tag_133\n        /* \"#utility.yul\":4763:4767   */\n      dup2\n        /* \"#utility.yul\":4754:4760   */\n      dup5\n        /* \"#utility.yul\":4690:4768   */\n      tag_118\n      jump\t// in\n    tag_133:\n        /* \"#utility.yul\":4682:4768   */\n      swap1\n      pop\n        /* \"#utility.yul\":4151:4775   */\n      swap5\n      swap4\n      pop\n      pop\n      pop\n      pop\n      jump\t// out\n        /* \"#utility.yul\":4781:5154   */\n    tag_23:\n        /* \"#utility.yul\":4924:4928   */\n      0x00\n        /* \"#utility.yul\":4962:4964   */\n      0x20\n        /* \"#utility.yul\":4951:4960   */\n      dup3\n        /* \"#utility.yul\":4947:4965   */\n      add\n        /* \"#utility.yul\":4939:4965   */\n      swap1\n      pop\n        /* \"#utility.yul\":5011:5020   */\n      dup2\n        /* \"#utility.yul\":5005:5009   */\n      dup2\n        /* \"#utility.yul\":5001:5021   */\n      sub\n        /* \"#utility.yul\":4997:4998   */\n      0x00\n        /* \"#utility.yul\":4986:4995   */\n      dup4\n        /* \"#utility.yul\":4982:4999   */\n      add\n        /* \"#utility.yul\":4975:5022   */\n      mstore\n        /* \"#utility.yul\":5039:5147   */\n      tag_135\n        /* \"#utility.yul\":5142:5146   */\n      dup2\n        /* \"#utility.yul\":5133:5139   */\n      dup5\n        /* \"#utility.yul\":5039:5147   */\n      tag_125\n      jump\t// in\n    tag_135:\n        /* \"#utility.yul\":5031:5147   */\n      swap1\n      pop\n        /* \"#utility.yul\":4781:5154   */\n      swap3\n      swap2\n      pop\n      pop\n      jump\t// out\n        /* \"#utility.yul\":5160:5289   */\n    tag_69:\n        /* \"#utility.yul\":5194:5200   */\n      0x00\n        /* \"#utility.yul\":5221:5241   */\n      tag_137\n      tag_138\n      jump\t// in\n    tag_137:\n        /* \"#utility.yul\":5211:5241   */\n      swap1\n      pop\n        /* \"#utility.yul\":5250:5283   */\n      tag_139\n        /* \"#utility.yul\":5278:5282   */\n      dup3\n        /* \"#utility.yul\":5270:5276   */\n      dup3\n        /* \"#utility.yul\":5250:5283   */\n      tag_140\n      jump\t// in\n    tag_139:\n        /* \"#utility.yul\":5160:5289   */\n      swap2\n      swap1\n      pop\n      jump\t// out\n        /* \"#utility.yul\":5295:5370   */\n    tag_138:\n        /* \"#utility.yul\":5328:5334   */\n      0x00\n        /* \"#utility.yul\":5361:5363   */\n      0x40\n        /* \"#utility.yul\":5355:5364   */\n      mload\n        /* \"#utility.yul\":5345:5364   */\n      swap1\n      pop\n        /* \"#utility.yul\":5295:5370   */\n      swap1\n      jump\t// out\n        /* \"#utility.yul\":5376:5684   */\n    tag_68:\n        /* \"#utility.yul\":5438:5442   */\n      0x00\n        /* \"#utility.yul\":5528:5546   */\n      0xffffffffffffffff\n        /* \"#utility.yul\":5520:5526   */\n      dup3\n        /* \"#utility.yul\":5517:5547   */\n      gt\n        /* \"#utility.yul\":5514:5570   */\n      iszero\n      tag_143\n      jumpi\n        /* \"#utility.yul\":5550:5568   */\n      tag_144\n      tag_145\n      jump\t// in\n    tag_144:\n        /* \"#utility.yul\":5514:5570   */\n    tag_143:\n        /* \"#utility.yul\":5588:5617   */\n      tag_146\n        /* \"#utility.yul\":5610:5616   */\n      dup3\n        /* \"#utility.yul\":5588:5617   */\n      tag_117\n      jump\t// in\n    tag_146:\n        /* \"#utility.yul\":5580:5617   */\n      swap1\n      pop\n        /* \"#utility.yul\":5672:5676   */\n      0x20\n        /* \"#utility.yul\":5666:5670   */\n      dup2\n        /* \"#utility.yul\":5662:5677   */\n      add\n        /* \"#utility.yul\":5654:5677   */\n      swap1\n      pop\n        /* \"#utility.yul\":5376:5684   */\n      swap2\n      swap1\n      pop\n      jump\t// out\n        /* \"#utility.yul\":5690:5789   */\n    tag_111:\n        /* \"#utility.yul\":5742:5748   */\n      0x00\n        /* \"#utility.yul\":5776:5781   */\n      dup2\n        /* \"#utility.yul\":5770:5782   */\n      mload\n        /* \"#utility.yul\":5760:5782   */\n      swap1\n      pop\n        /* \"#utility.yul\":5690:5789   */\n      swap2\n      swap1\n      pop\n      jump\t// out\n        /* \"#utility.yul\":5795:5954   */\n    tag_113:\n        /* \"#utility.yul\":5869:5880   */\n      0x00\n        /* \"#utility.yul\":5903:5909   */\n      dup3\n        /* \"#utility.yul\":5898:5901   */\n      dup3\n        /* \"#utility.yul\":5891:5910   */\n      mstore\n        /* \"#utility.yul\":5943:5947   */\n      0x20\n        /* \"#utility.yul\":5938:5941   */\n      dup3\n        /* \"#utility.yul\":5934:5948   */\n      add\n        /* \"#utility.yul\":5919:5948   */\n      swap1\n      pop\n        /* \"#utility.yul\":5795:5954   */\n      swap3\n      swap2\n      pop\n      pop\n      jump\t// out\n        /* \"#utility.yul\":5960:6129   */\n    tag_122:\n        /* \"#utility.yul\":6044:6055   */\n      0x00\n        /* \"#utility.yul\":6078:6084   */\n      dup3\n        /* \"#utility.yul\":6073:6076   */\n      dup3\n        /* \"#utility.yul\":6066:6085   */\n      mstore\n        /* \"#utility.yul\":6118:6122   */\n      0x20\n        /* \"#utility.yul\":6113:6116   */\n      dup3\n        /* \"#utility.yul\":6109:6123   */\n      add\n        /* \"#utility.yul\":6094:6123   */\n      swap1\n      pop\n        /* \"#utility.yul\":5960:6129   */\n      swap3\n      swap2\n      pop\n      pop\n      jump\t// out\n        /* \"#utility.yul\":6135:6231   */\n    tag_104:\n        /* \"#utility.yul\":6172:6179   */\n      0x00\n        /* \"#utility.yul\":6201:6225   */\n      tag_151\n        /* \"#utility.yul\":6219:6224   */\n      dup3\n        /* \"#utility.yul\":6201:6225   */\n      tag_152\n      jump\t// in\n    tag_151:\n        /* \"#utility.yul\":6190:6225   */\n      swap1\n      pop\n        /* \"#utility.yul\":6135:6231   */\n      swap2\n      swap1\n      pop\n      jump\t// out\n        /* \"#utility.yul\":6237:6363   */\n    tag_152:\n        /* \"#utility.yul\":6274:6281   */\n      0x00\n        /* \"#utility.yul\":6314:6356   */\n      0xffffffffffffffffffffffffffffffffffffffff\n        /* \"#utility.yul\":6307:6312   */\n      dup3\n        /* \"#utility.yul\":6303:6357   */\n      and\n        /* \"#utility.yul\":6292:6357   */\n      swap1\n      pop\n        /* \"#utility.yul\":6237:6363   */\n      swap2\n      swap1\n      pop\n      jump\t// out\n        /* \"#utility.yul\":6369:6523   */\n    tag_74:\n        /* \"#utility.yul\":6453:6459   */\n      dup3\n        /* \"#utility.yul\":6448:6451   */\n      dup2\n        /* \"#utility.yul\":6443:6446   */\n      dup4\n        /* \"#utility.yul\":6430:6460   */\n      calldatacopy\n        /* \"#utility.yul\":6515:6516   */\n      0x00\n        /* \"#utility.yul\":6506:6512   */\n      dup4\n        /* \"#utility.yul\":6501:6504   */\n      dup4\n        /* \"#utility.yul\":6497:6513   */\n      add\n        /* \"#utility.yul\":6490:6517   */\n      mstore\n        /* \"#utility.yul\":6369:6523   */\n      pop\n      pop\n      pop\n      jump\t// out\n        /* \"#utility.yul\":6529:6836   */\n    tag_115:\n        /* \"#utility.yul\":6597:6598   */\n      0x00\n        /* \"#utility.yul\":6607:6720   */\n    tag_156:\n        /* \"#utility.yul\":6621:6627   */\n      dup4\n        /* \"#utility.yul\":6618:6619   */\n      dup2\n        /* \"#utility.yul\":6615:6628   */\n      lt\n        /* \"#utility.yul\":6607:6720   */\n      iszero\n      tag_158\n      jumpi\n        /* \"#utility.yul\":6706:6707   */\n      dup1\n        /* \"#utility.yul\":6701:6704   */\n      dup3\n        /* \"#utility.yul\":6697:6708   */\n      add\n        /* \"#utility.yul\":6691:6709   */\n      mload\n        /* \"#utility.yul\":6687:6688   */\n      dup2\n        /* \"#utility.yul\":6682:6685   */\n      dup5\n        /* \"#utility.yul\":6678:6689   */\n      add\n        /* \"#utility.yul\":6671:6710   */\n      mstore\n        /* \"#utility.yul\":6643:6645   */\n      0x20\n        /* \"#utility.yul\":6640:6641   */\n      dup2\n        /* \"#utility.yul\":6636:6646   */\n      add\n        /* \"#utility.yul\":6631:6646   */\n      swap1\n      pop\n        /* \"#utility.yul\":6607:6720   */\n      jump(tag_156)\n    tag_158:\n        /* \"#utility.yul\":6738:6744   */\n      dup4\n        /* \"#utility.yul\":6735:6736   */\n      dup2\n        /* \"#utility.yul\":6732:6745   */\n      gt\n        /* \"#utility.yul\":6729:6830   */\n      iszero\n      tag_159\n      jumpi\n        /* \"#utility.yul\":6818:6819   */\n      0x00\n        /* \"#utility.yul\":6809:6815   */\n      dup5\n        /* \"#utility.yul\":6804:6807   */\n      dup5\n        /* \"#utility.yul\":6800:6816   */\n      add\n        /* \"#utility.yul\":6793:6820   */\n      mstore\n        /* \"#utility.yul\":6729:6830   */\n    tag_159:\n        /* \"#utility.yul\":6578:6836   */\n      pop\n        /* \"#utility.yul\":6529:6836   */\n      pop\n      pop\n      pop\n      jump\t// out\n        /* \"#utility.yul\":6842:7162   */\n    tag_29:\n        /* \"#utility.yul\":6886:6892   */\n      0x00\n        /* \"#utility.yul\":6923:6924   */\n      0x02\n        /* \"#utility.yul\":6917:6921   */\n      dup3\n        /* \"#utility.yul\":6913:6925   */\n      div\n        /* \"#utility.yul\":6903:6925   */\n      swap1\n      pop\n        /* \"#utility.yul\":6970:6971   */\n      0x01\n        /* \"#utility.yul\":6964:6968   */\n      dup3\n        /* \"#utility.yul\":6960:6972   */\n      and\n        /* \"#utility.yul\":6991:7009   */\n      dup1\n        /* \"#utility.yul\":6981:7062   */\n      tag_161\n      jumpi\n        /* \"#utility.yul\":7047:7051   */\n      0x7f\n        /* \"#utility.yul\":7039:7045   */\n      dup3\n        /* \"#utility.yul\":7035:7052   */\n      and\n        /* \"#utility.yul\":7025:7052   */\n      swap2\n      pop\n        /* \"#utility.yul\":6981:7062   */\n    tag_161:\n        /* \"#utility.yul\":7109:7111   */\n      0x20\n        /* \"#utility.yul\":7101:7107   */\n      dup3\n        /* \"#utility.yul\":7098:7112   */\n      lt\n        /* \"#utility.yul\":7078:7096   */\n      dup2\n        /* \"#utility.yul\":7075:7113   */\n      eq\n        /* \"#utility.yul\":7072:7156   */\n      iszero\n      tag_162\n      jumpi\n        /* \"#utility.yul\":7128:7146   */\n      tag_163\n      tag_164\n      jump\t// in\n    tag_163:\n        /* \"#utility.yul\":7072:7156   */\n    tag_162:\n        /* \"#utility.yul\":6893:7162   */\n      pop\n        /* \"#utility.yul\":6842:7162   */\n      swap2\n      swap1\n      pop\n      jump\t// out\n        /* \"#utility.yul\":7168:7449   */\n    tag_140:\n        /* \"#utility.yul\":7251:7278   */\n      tag_166\n        /* \"#utility.yul\":7273:7277   */\n      dup3\n        /* \"#utility.yul\":7251:7278   */\n      tag_117\n      jump\t// in\n    tag_166:\n        /* \"#utility.yul\":7243:7249   */\n      dup2\n        /* \"#utility.yul\":7239:7279   */\n      add\n        /* \"#utility.yul\":7381:7387   */\n      dup2\n        /* \"#utility.yul\":7369:7379   */\n      dup2\n        /* \"#utility.yul\":7366:7388   */\n      lt\n        /* \"#utility.yul\":7345:7363   */\n      0xffffffffffffffff\n        /* \"#utility.yul\":7333:7343   */\n      dup3\n        /* \"#utility.yul\":7330:7364   */\n      gt\n        /* \"#utility.yul\":7327:7389   */\n      or\n        /* \"#utility.yul\":7324:7412   */\n      iszero\n      tag_167\n      jumpi\n        /* \"#utility.yul\":7392:7410   */\n      tag_168\n      tag_145\n      jump\t// in\n    tag_168:\n        /* \"#utility.yul\":7324:7412   */\n    tag_167:\n        /* \"#utility.yul\":7432:7442   */\n      dup1\n        /* \"#utility.yul\":7428:7430   */\n      0x40\n        /* \"#utility.yul\":7421:7443   */\n      mstore\n        /* \"#utility.yul\":7211:7449   */\n      pop\n        /* \"#utility.yul\":7168:7449   */\n      pop\n      pop\n      jump\t// out\n        /* \"#utility.yul\":7455:7635   */\n    tag_164:\n        /* \"#utility.yul\":7503:7580   */\n      0x4e487b7100000000000000000000000000000000000000000000000000000000\n        /* \"#utility.yul\":7500:7501   */\n      0x00\n        /* \"#utility.yul\":7493:7581   */\n      mstore\n        /* \"#utility.yul\":7600:7604   */\n      0x22\n        /* \"#utility.yul\":7597:7598   */\n      0x04\n        /* \"#utility.yul\":7590:7605   */\n      mstore\n        /* \"#utility.yul\":7624:7628   */\n      0x24\n        /* \"#utility.yul\":7621:7622   */\n      0x00\n        /* \"#utility.yul\":7614:7629   */\n      revert\n        /* \"#utility.yul\":7641:7821   */\n    tag_145:\n        /* \"#utility.yul\":7689:7766   */\n      0x4e487b7100000000000000000000000000000000000000000000000000000000\n        /* \"#utility.yul\":7686:7687   */\n      0x00\n        /* \"#utility.yul\":7679:7767   */\n      mstore\n        /* \"#utility.yul\":7786:7790   */\n      0x41\n        /* \"#utility.yul\":7783:7784   */\n      0x04\n        /* \"#utility.yul\":7776:7791   */\n      mstore\n        /* \"#utility.yul\":7810:7814   */\n      0x24\n        /* \"#utility.yul\":7807:7808   */\n      0x00\n        /* \"#utility.yul\":7800:7815   */\n      revert\n        /* \"#utility.yul\":7827:7944   */\n    tag_83:\n        /* \"#utility.yul\":7936:7937   */\n      0x00\n        /* \"#utility.yul\":7933:7934   */\n      dup1\n        /* \"#utility.yul\":7926:7938   */\n      revert\n        /* \"#utility.yul\":7950:8067   */\n    tag_72:\n        /* \"#utility.yul\":8059:8060   */\n      0x00\n        /* \"#utility.yul\":8056:8057   */\n      dup1\n        /* \"#utility.yul\":8049:8061   */\n      revert\n        /* \"#utility.yul\":8073:8190   */\n    tag_96:\n        /* \"#utility.yul\":8182:8183   */\n      0x00\n        /* \"#utility.yul\":8179:8180   */\n      dup1\n        /* \"#utility.yul\":8172:8184   */\n      revert\n        /* \"#utility.yul\":8196:8313   */\n    tag_88:\n        /* \"#utility.yul\":8305:8306   */\n      0x00\n        /* \"#utility.yul\":8302:8303   */\n      dup1\n        /* \"#utility.yul\":8295:8307   */\n      revert\n        /* \"#utility.yul\":8319:8421   */\n    tag_117:\n        /* \"#utility.yul\":8360:8366   */\n      0x00\n        /* \"#utility.yul\":8411:8413   */\n      0x1f\n        /* \"#utility.yul\":8407:8414   */\n      not\n        /* \"#utility.yul\":8402:8404   */\n      0x1f\n        /* \"#utility.yul\":8395:8400   */\n      dup4\n        /* \"#utility.yul\":8391:8405   */\n      add\n        /* \"#utility.yul\":8387:8415   */\n      and\n        /* \"#utility.yul\":8377:8415   */\n      swap1\n      pop\n        /* \"#utility.yul\":8319:8421   */\n      swap2\n      swap1\n      pop\n      jump\t// out\n        /* \"#utility.yul\":8427:8549   */\n    tag_78:\n        /* \"#utility.yul\":8500:8524   */\n      tag_177\n        /* \"#utility.yul\":8518:8523   */\n      dup2\n        /* \"#utility.yul\":8500:8524   */\n      tag_104\n      jump\t// in\n    tag_177:\n        /* \"#utility.yul\":8493:8498   */\n      dup2\n        /* \"#utility.yul\":8490:8525   */\n      eq\n        /* \"#utility.yul\":8480:8543   */\n      tag_178\n      jumpi\n        /* \"#utility.yul\":8539:8540   */\n      0x00\n        /* \"#utility.yul\":8536:8537   */\n      dup1\n        /* \"#utility.yul\":8529:8541   */\n      revert\n        /* \"#utility.yul\":8480:8543   */\n    tag_178:\n        /* \"#utility.yul\":8427:8549   */\n      pop\n      jump\t// out\n\n    auxdata: 0xa26469706673582212205e623bc087d7469e40a45a31b801fbb18294d27ca6af66d5cad8f5c69a232c9b64736f6c63430008070033\n}\n",
				"bytecode": {
					"linkReferences": {},
					"object": "608060405234801561001057600080fd5b50610ac7806100206000396000f3fe608060405234801561001057600080fd5b506004361061004c5760003560e01c80636c47703514610051578063b9e0ad101461006d578063c4a721111461009f578063de1e23b7146100a9575b600080fd5b61006b600480360381019061006691906106c4565b6100d9565b005b61008760048036038101906100829190610697565b61020a565b60405161009693929190610836565b60405180910390f35b6100a7610364565b005b6100c360048036038101906100be9190610697565b610366565b6040516100d0919061087b565b60405180910390f35b826000808573ffffffffffffffffffffffffffffffffffffffff1673ffffffffffffffffffffffffffffffffffffffff16815260200190815260200160002060000160006101000a81548173ffffffffffffffffffffffffffffffffffffffff021916908373ffffffffffffffffffffffffffffffffffffffff160217905550816000808573ffffffffffffffffffffffffffffffffffffffff1673ffffffffffffffffffffffffffffffffffffffff16815260200190815260200160002060010190805190602001906101ae929190610538565b50806000808573ffffffffffffffffffffffffffffffffffffffff1673ffffffffffffffffffffffffffffffffffffffff1681526020019081526020016000206002019080519060200190610204929190610538565b50505050565b60016020528060005260406000206000915090508060000160009054906101000a900473ffffffffffffffffffffffffffffffffffffffff169080600101805461025390610994565b80601f016020809104026020016040519081016040528092919081815260200182805461027f90610994565b80156102cc5780601f106102a1576101008083540402835291602001916102cc565b820191906000526020600020905b8154815290600101906020018083116102af57829003601f168201915b5050505050908060030180546102e190610994565b80601f016020809104026020016040519081016040528092919081815260200182805461030d90610994565b801561035a5780601f1061032f5761010080835404028352916020019161035a565b820191906000526020600020905b81548152906001019060200180831161033d57829003601f168201915b5050505050905083565b565b61036e6105be565b6000808373ffffffffffffffffffffffffffffffffffffffff1673ffffffffffffffffffffffffffffffffffffffff1681526020019081526020016000206040518060600160405290816000820160009054906101000a900473ffffffffffffffffffffffffffffffffffffffff1673ffffffffffffffffffffffffffffffffffffffff1673ffffffffffffffffffffffffffffffffffffffff16815260200160018201805461041d90610994565b80601f016020809104026020016040519081016040528092919081815260200182805461044990610994565b80156104965780601f1061046b57610100808354040283529160200191610496565b820191906000526020600020905b81548152906001019060200180831161047957829003601f168201915b505050505081526020016002820180546104af90610994565b80601f01602080910402602001604051908101604052809291908181526020018280546104db90610994565b80156105285780601f106104fd57610100808354040283529160200191610528565b820191906000526020600020905b81548152906001019060200180831161050b57829003601f168201915b5050505050815250509050919050565b82805461054490610994565b90600052602060002090601f01602090048101928261056657600085556105ad565b82601f1061057f57805160ff19168380011785556105ad565b828001600101855582156105ad579182015b828111156105ac578251825591602001919060010190610591565b5b5090506105ba91906105f5565b5090565b6040518060600160405280600073ffffffffffffffffffffffffffffffffffffffff16815260200160608152602001606081525090565b5b8082111561060e5760008160009055506001016105f6565b5090565b6000610625610620846108c2565b61089d565b90508281526020810184848401111561064157610640610a5a565b5b61064c848285610952565b509392505050565b60008135905061066381610a7a565b92915050565b600082601f83011261067e5761067d610a55565b5b813561068e848260208601610612565b91505092915050565b6000602082840312156106ad576106ac610a64565b5b60006106bb84828501610654565b91505092915050565b6000806000606084860312156106dd576106dc610a64565b5b60006106eb86828701610654565b935050602084013567ffffffffffffffff81111561070c5761070b610a5f565b5b61071886828701610669565b925050604084013567ffffffffffffffff81111561073957610738610a5f565b5b61074586828701610669565b9150509250925092565b61075881610920565b82525050565b61076781610920565b82525050565b6000610778826108f3565b61078281856108fe565b9350610792818560208601610961565b61079b81610a69565b840191505092915050565b60006107b1826108f3565b6107bb818561090f565b93506107cb818560208601610961565b6107d481610a69565b840191505092915050565b60006060830160008301516107f7600086018261074f565b506020830151848203602086015261080f828261076d565b91505060408301518482036040860152610829828261076d565b9150508091505092915050565b600060608201905061084b600083018661075e565b818103602083015261085d81856107a6565b9050818103604083015261087181846107a6565b9050949350505050565b6000602082019050818103600083015261089581846107df565b905092915050565b60006108a76108b8565b90506108b382826109c6565b919050565b6000604051905090565b600067ffffffffffffffff8211156108dd576108dc610a26565b5b6108e682610a69565b9050602081019050919050565b600081519050919050565b600082825260208201905092915050565b600082825260208201905092915050565b600061092b82610932565b9050919050565b600073ffffffffffffffffffffffffffffffffffffffff82169050919050565b82818337600083830152505050565b60005b8381101561097f578082015181840152602081019050610964565b8381111561098e576000848401525b50505050565b600060028204905060018216806109ac57607f821691505b602082108114156109c0576109bf6109f7565b5b50919050565b6109cf82610a69565b810181811067ffffffffffffffff821117156109ee576109ed610a26565b5b80604052505050565b7f4e487b7100000000000000000000000000000000000000000000000000000000600052602260045260246000fd5b7f4e487b7100000000000000000000000000000000000000000000000000000000600052604160045260246000fd5b600080fd5b600080fd5b600080fd5b600080fd5b6000601f19601f8301169050919050565b610a8381610920565b8114610a8e57600080fd5b5056fea26469706673582212205e623bc087d7469e40a45a31b801fbb18294d27ca6af66d5cad8f5c69a232c9b64736f6c63430008070033",
					"opcodes": "PUSH1 0x80 PUSH1 0x40 MSTORE CALLVALUE DUP1 ISZERO PUSH2 0x10 JUMPI PUSH1 0x0 DUP1 REVERT JUMPDEST POP PUSH2 0xAC7 DUP1 PUSH2 0x20 PUSH1 0x0 CODECOPY PUSH1 0x0 RETURN INVALID PUSH1 0x80 PUSH1 0x40 MSTORE CALLVALUE DUP1 ISZERO PUSH2 0x10 JUMPI PUSH1 0x0 DUP1 REVERT JUMPDEST POP PUSH1 0x4 CALLDATASIZE LT PUSH2 0x4C JUMPI PUSH1 0x0 CALLDATALOAD PUSH1 0xE0 SHR DUP1 PUSH4 0x6C477035 EQ PUSH2 0x51 JUMPI DUP1 PUSH4 0xB9E0AD10 EQ PUSH2 0x6D JUMPI DUP1 PUSH4 0xC4A72111 EQ PUSH2 0x9F JUMPI DUP1 PUSH4 0xDE1E23B7 EQ PUSH2 0xA9 JUMPI JUMPDEST PUSH1 0x0 DUP1 REVERT JUMPDEST PUSH2 0x6B PUSH1 0x4 DUP1 CALLDATASIZE SUB DUP2 ADD SWAP1 PUSH2 0x66 SWAP2 SWAP1 PUSH2 0x6C4 JUMP JUMPDEST PUSH2 0xD9 JUMP JUMPDEST STOP JUMPDEST PUSH2 0x87 PUSH1 0x4 DUP1 CALLDATASIZE SUB DUP2 ADD SWAP1 PUSH2 0x82 SWAP2 SWAP1 PUSH2 0x697 JUMP JUMPDEST PUSH2 0x20A JUMP JUMPDEST PUSH1 0x40 MLOAD PUSH2 0x96 SWAP4 SWAP3 SWAP2 SWAP1 PUSH2 0x836 JUMP JUMPDEST PUSH1 0x40 MLOAD DUP1 SWAP2 SUB SWAP1 RETURN JUMPDEST PUSH2 0xA7 PUSH2 0x364 JUMP JUMPDEST STOP JUMPDEST PUSH2 0xC3 PUSH1 0x4 DUP1 CALLDATASIZE SUB DUP2 ADD SWAP1 PUSH2 0xBE SWAP2 SWAP1 PUSH2 0x697 JUMP JUMPDEST PUSH2 0x366 JUMP JUMPDEST PUSH1 0x40 MLOAD PUSH2 0xD0 SWAP2 SWAP1 PUSH2 0x87B JUMP JUMPDEST PUSH1 0x40 MLOAD DUP1 SWAP2 SUB SWAP1 RETURN JUMPDEST DUP3 PUSH1 0x0 DUP1 DUP6 PUSH20 0xFFFFFFFFFFFFFFFFFFFFFFFFFFFFFFFFFFFFFFFF AND PUSH20 0xFFFFFFFFFFFFFFFFFFFFFFFFFFFFFFFFFFFFFFFF AND DUP2 MSTORE PUSH1 0x20 ADD SWAP1 DUP2 MSTORE PUSH1 0x20 ADD PUSH1 0x0 KECCAK256 PUSH1 0x0 ADD PUSH1 0x0 PUSH2 0x100 EXP DUP2 SLOAD DUP2 PUSH20 0xFFFFFFFFFFFFFFFFFFFFFFFFFFFFFFFFFFFFFFFF MUL NOT AND SWAP1 DUP4 PUSH20 0xFFFFFFFFFFFFFFFFFFFFFFFFFFFFFFFFFFFFFFFF AND MUL OR SWAP1 SSTORE POP DUP2 PUSH1 0x0 DUP1 DUP6 PUSH20 0xFFFFFFFFFFFFFFFFFFFFFFFFFFFFFFFFFFFFFFFF AND PUSH20 0xFFFFFFFFFFFFFFFFFFFFFFFFFFFFFFFFFFFFFFFF AND DUP2 MSTORE PUSH1 0x20 ADD SWAP1 DUP2 MSTORE PUSH1 0x20 ADD PUSH1 0x0 KECCAK256 PUSH1 0x1 ADD SWAP1 DUP1 MLOAD SWAP1 PUSH1 0x20 ADD SWAP1 PUSH2 0x1AE SWAP3 SWAP2 SWAP1 PUSH2 0x538 JUMP JUMPDEST POP DUP1 PUSH1 0x0 DUP1 DUP6 PUSH20 0xFFFFFFFFFFFFFFFFFFFFFFFFFFFFFFFFFFFFFFFF AND PUSH20 0xFFFFFFFFFFFFFFFFFFFFFFFFFFFFFFFFFFFFFFFF AND DUP2 MSTORE PUSH1 0x20 ADD SWAP1 DUP2 MSTORE PUSH1 0x20 ADD PUSH1 0x0 KECCAK256 PUSH1 0x2 ADD SWAP1 DUP1 MLOAD SWAP1 PUSH1 0x20 ADD SWAP1 PUSH2 0x204 SWAP3 SWAP2 SWAP1 PUSH2 0x538 JUMP JUMPDEST POP POP POP POP JUMP JUMPDEST PUSH1 0x1 PUSH1 0x20 MSTORE DUP1 PUSH1 0x0 MSTORE PUSH1 0x40 PUSH1 0x0 KECCAK256 PUSH1 0x0 SWAP2 POP SWAP1 POP DUP1 PUSH1 0x0 ADD PUSH1 0x0 SWAP1 SLOAD SWAP1 PUSH2 0x100 EXP SWAP1 DIV PUSH20 0xFFFFFFFFFFFFFFFFFFFFFFFFFFFFFFFFFFFFFFFF AND SWAP1 DUP1 PUSH1 0x1 ADD DUP1 SLOAD PUSH2 0x253 SWAP1 PUSH2 0x994 JUMP JUMPDEST DUP1 PUSH1 0x1F ADD PUSH1 0x20 DUP1 SWAP2 DIV MUL PUSH1 0x20 ADD PUSH1 0x40 MLOAD SWAP1 DUP2 ADD PUSH1 0x40 MSTORE DUP1 SWAP3 SWAP2 SWAP1 DUP2 DUP2 MSTORE PUSH1 0x20 ADD DUP3 DUP1 SLOAD PUSH2 0x27F SWAP1 PUSH2 0x994 JUMP JUMPDEST DUP1 ISZERO PUSH2 0x2CC JUMPI DUP1 PUSH1 0x1F LT PUSH2 0x2A1 JUMPI PUSH2 0x100 DUP1 DUP4 SLOAD DIV MUL DUP4 MSTORE SWAP2 PUSH1 0x20 ADD SWAP2 PUSH2 0x2CC JUMP JUMPDEST DUP3 ADD SWAP2 SWAP1 PUSH1 0x0 MSTORE PUSH1 0x20 PUSH1 0x0 KECCAK256 SWAP1 JUMPDEST DUP2 SLOAD DUP2 MSTORE SWAP1 PUSH1 0x1 ADD SWAP1 PUSH1 0x20 ADD DUP1 DUP4 GT PUSH2 0x2AF JUMPI DUP3 SWAP1 SUB PUSH1 0x1F AND DUP3 ADD SWAP2 JUMPDEST POP POP POP POP POP SWAP1 DUP1 PUSH1 0x3 ADD DUP1 SLOAD PUSH2 0x2E1 SWAP1 PUSH2 0x994 JUMP JUMPDEST DUP1 PUSH1 0x1F ADD PUSH1 0x20 DUP1 SWAP2 DIV MUL PUSH1 0x20 ADD PUSH1 0x40 MLOAD SWAP1 DUP2 ADD PUSH1 0x40 MSTORE DUP1 SWAP3 SWAP2 SWAP1 DUP2 DUP2 MSTORE PUSH1 0x20 ADD DUP3 DUP1 SLOAD PUSH2 0x30D SWAP1 PUSH2 0x994 JUMP JUMPDEST DUP1 ISZERO PUSH2 0x35A JUMPI DUP1 PUSH1 0x1F LT PUSH2 0x32F JUMPI PUSH2 0x100 DUP1 DUP4 SLOAD DIV MUL DUP4 MSTORE SWAP2 PUSH1 0x20 ADD SWAP2 PUSH2 0x35A JUMP JUMPDEST DUP3 ADD SWAP2 SWAP1 PUSH1 0x0 MSTORE PUSH1 0x20 PUSH1 0x0 KECCAK256 SWAP1 JUMPDEST DUP2 SLOAD DUP2 MSTORE SWAP1 PUSH1 0x1 ADD SWAP1 PUSH1 0x20 ADD DUP1 DUP4 GT PUSH2 0x33D JUMPI DUP3 SWAP1 SUB PUSH1 0x1F AND DUP3 ADD SWAP2 JUMPDEST POP POP POP POP POP SWAP1 POP DUP4 JUMP JUMPDEST JUMP JUMPDEST PUSH2 0x36E PUSH2 0x5BE JUMP JUMPDEST PUSH1 0x0 DUP1 DUP4 PUSH20 0xFFFFFFFFFFFFFFFFFFFFFFFFFFFFFFFFFFFFFFFF AND PUSH20 0xFFFFFFFFFFFFFFFFFFFFFFFFFFFFFFFFFFFFFFFF AND DUP2 MSTORE PUSH1 0x20 ADD SWAP1 DUP2 MSTORE PUSH1 0x20 ADD PUSH1 0x0 KECCAK256 PUSH1 0x40 MLOAD DUP1 PUSH1 0x60 ADD PUSH1 0x40 MSTORE SWAP1 DUP2 PUSH1 0x0 DUP3 ADD PUSH1 0x0 SWAP1 SLOAD SWAP1 PUSH2 0x100 EXP SWAP1 DIV PUSH20 0xFFFFFFFFFFFFFFFFFFFFFFFFFFFFFFFFFFFFFFFF AND PUSH20 0xFFFFFFFFFFFFFFFFFFFFFFFFFFFFFFFFFFFFFFFF AND PUSH20 0xFFFFFFFFFFFFFFFFFFFFFFFFFFFFFFFFFFFFFFFF AND DUP2 MSTORE PUSH1 0x20 ADD PUSH1 0x1 DUP3 ADD DUP1 SLOAD PUSH2 0x41D SWAP1 PUSH2 0x994 JUMP JUMPDEST DUP1 PUSH1 0x1F ADD PUSH1 0x20 DUP1 SWAP2 DIV MUL PUSH1 0x20 ADD PUSH1 0x40 MLOAD SWAP1 DUP2 ADD PUSH1 0x40 MSTORE DUP1 SWAP3 SWAP2 SWAP1 DUP2 DUP2 MSTORE PUSH1 0x20 ADD DUP3 DUP1 SLOAD PUSH2 0x449 SWAP1 PUSH2 0x994 JUMP JUMPDEST DUP1 ISZERO PUSH2 0x496 JUMPI DUP1 PUSH1 0x1F LT PUSH2 0x46B JUMPI PUSH2 0x100 DUP1 DUP4 SLOAD DIV MUL DUP4 MSTORE SWAP2 PUSH1 0x20 ADD SWAP2 PUSH2 0x496 JUMP JUMPDEST DUP3 ADD SWAP2 SWAP1 PUSH1 0x0 MSTORE PUSH1 0x20 PUSH1 0x0 KECCAK256 SWAP1 JUMPDEST DUP2 SLOAD DUP2 MSTORE SWAP1 PUSH1 0x1 ADD SWAP1 PUSH1 0x20 ADD DUP1 DUP4 GT PUSH2 0x479 JUMPI DUP3 SWAP1 SUB PUSH1 0x1F AND DUP3 ADD SWAP2 JUMPDEST POP POP POP POP POP DUP2 MSTORE PUSH1 0x20 ADD PUSH1 0x2 DUP3 ADD DUP1 SLOAD PUSH2 0x4AF SWAP1 PUSH2 0x994 JUMP JUMPDEST DUP1 PUSH1 0x1F ADD PUSH1 0x20 DUP1 SWAP2 DIV MUL PUSH1 0x20 ADD PUSH1 0x40 MLOAD SWAP1 DUP2 ADD PUSH1 0x40 MSTORE DUP1 SWAP3 SWAP2 SWAP1 DUP2 DUP2 MSTORE PUSH1 0x20 ADD DUP3 DUP1 SLOAD PUSH2 0x4DB SWAP1 PUSH2 0x994 JUMP JUMPDEST DUP1 ISZERO PUSH2 0x528 JUMPI DUP1 PUSH1 0x1F LT PUSH2 0x4FD JUMPI PUSH2 0x100 DUP1 DUP4 SLOAD DIV MUL DUP4 MSTORE SWAP2 PUSH1 0x20 ADD SWAP2 PUSH2 0x528 JUMP JUMPDEST DUP3 ADD SWAP2 SWAP1 PUSH1 0x0 MSTORE PUSH1 0x20 PUSH1 0x0 KECCAK256 SWAP1 JUMPDEST DUP2 SLOAD DUP2 MSTORE SWAP1 PUSH1 0x1 ADD SWAP1 PUSH1 0x20 ADD DUP1 DUP4 GT PUSH2 0x50B JUMPI DUP3 SWAP1 SUB PUSH1 0x1F AND DUP3 ADD SWAP2 JUMPDEST POP POP POP POP POP DUP2 MSTORE POP POP SWAP1 POP SWAP2 SWAP1 POP JUMP JUMPDEST DUP3 DUP1 SLOAD PUSH2 0x544 SWAP1 PUSH2 0x994 JUMP JUMPDEST SWAP1 PUSH1 0x0 MSTORE PUSH1 0x20 PUSH1 0x0 KECCAK256 SWAP1 PUSH1 0x1F ADD PUSH1 0x20 SWAP1 DIV DUP2 ADD SWAP3 DUP3 PUSH2 0x566 JUMPI PUSH1 0x0 DUP6 SSTORE PUSH2 0x5AD JUMP JUMPDEST DUP3 PUSH1 0x1F LT PUSH2 0x57F JUMPI DUP1 MLOAD PUSH1 0xFF NOT AND DUP4 DUP1 ADD OR DUP6 SSTORE PUSH2 0x5AD JUMP JUMPDEST DUP3 DUP1 ADD PUSH1 0x1 ADD DUP6 SSTORE DUP3 ISZERO PUSH2 0x5AD JUMPI SWAP2 DUP3 ADD JUMPDEST DUP3 DUP2 GT ISZERO PUSH2 0x5AC JUMPI DUP3 MLOAD DUP3 SSTORE SWAP2 PUSH1 0x20 ADD SWAP2 SWAP1 PUSH1 0x1 ADD SWAP1 PUSH2 0x591 JUMP JUMPDEST JUMPDEST POP SWAP1 POP PUSH2 0x5BA SWAP2 SWAP1 PUSH2 0x5F5 JUMP JUMPDEST POP SWAP1 JUMP JUMPDEST PUSH1 0x40 MLOAD DUP1 PUSH1 0x60 ADD PUSH1 0x40 MSTORE DUP1 PUSH1 0x0 PUSH20 0xFFFFFFFFFFFFFFFFFFFFFFFFFFFFFFFFFFFFFFFF AND DUP2 MSTORE PUSH1 0x20 ADD PUSH1 0x60 DUP2 MSTORE PUSH1 0x20 ADD PUSH1 0x60 DUP2 MSTORE POP SWAP1 JUMP JUMPDEST JUMPDEST DUP1 DUP3 GT ISZERO PUSH2 0x60E JUMPI PUSH1 0x0 DUP2 PUSH1 0x0 SWAP1 SSTORE POP PUSH1 0x1 ADD PUSH2 0x5F6 JUMP JUMPDEST POP SWAP1 JUMP JUMPDEST PUSH1 0x0 PUSH2 0x625 PUSH2 0x620 DUP5 PUSH2 0x8C2 JUMP JUMPDEST PUSH2 0x89D JUMP JUMPDEST SWAP1 POP DUP3 DUP2 MSTORE PUSH1 0x20 DUP2 ADD DUP5 DUP5 DUP5 ADD GT ISZERO PUSH2 0x641 JUMPI PUSH2 0x640 PUSH2 0xA5A JUMP JUMPDEST JUMPDEST PUSH2 0x64C DUP5 DUP3 DUP6 PUSH2 0x952 JUMP JUMPDEST POP SWAP4 SWAP3 POP POP POP JUMP JUMPDEST PUSH1 0x0 DUP2 CALLDATALOAD SWAP1 POP PUSH2 0x663 DUP2 PUSH2 0xA7A JUMP JUMPDEST SWAP3 SWAP2 POP POP JUMP JUMPDEST PUSH1 0x0 DUP3 PUSH1 0x1F DUP4 ADD SLT PUSH2 0x67E JUMPI PUSH2 0x67D PUSH2 0xA55 JUMP JUMPDEST JUMPDEST DUP2 CALLDATALOAD PUSH2 0x68E DUP5 DUP3 PUSH1 0x20 DUP7 ADD PUSH2 0x612 JUMP JUMPDEST SWAP2 POP POP SWAP3 SWAP2 POP POP JUMP JUMPDEST PUSH1 0x0 PUSH1 0x20 DUP3 DUP5 SUB SLT ISZERO PUSH2 0x6AD JUMPI PUSH2 0x6AC PUSH2 0xA64 JUMP JUMPDEST JUMPDEST PUSH1 0x0 PUSH2 0x6BB DUP5 DUP3 DUP6 ADD PUSH2 0x654 JUMP JUMPDEST SWAP2 POP POP SWAP3 SWAP2 POP POP JUMP JUMPDEST PUSH1 0x0 DUP1 PUSH1 0x0 PUSH1 0x60 DUP5 DUP7 SUB SLT ISZERO PUSH2 0x6DD JUMPI PUSH2 0x6DC PUSH2 0xA64 JUMP JUMPDEST JUMPDEST PUSH1 0x0 PUSH2 0x6EB DUP7 DUP3 DUP8 ADD PUSH2 0x654 JUMP JUMPDEST SWAP4 POP POP PUSH1 0x20 DUP5 ADD CALLDATALOAD PUSH8 0xFFFFFFFFFFFFFFFF DUP2 GT ISZERO PUSH2 0x70C JUMPI PUSH2 0x70B PUSH2 0xA5F JUMP JUMPDEST JUMPDEST PUSH2 0x718 DUP7 DUP3 DUP8 ADD PUSH2 0x669 JUMP JUMPDEST SWAP3 POP POP PUSH1 0x40 DUP5 ADD CALLDATALOAD PUSH8 0xFFFFFFFFFFFFFFFF DUP2 GT ISZERO PUSH2 0x739 JUMPI PUSH2 0x738 PUSH2 0xA5F JUMP JUMPDEST JUMPDEST PUSH2 0x745 DUP7 DUP3 DUP8 ADD PUSH2 0x669 JUMP JUMPDEST SWAP2 POP POP SWAP3 POP SWAP3 POP SWAP3 JUMP JUMPDEST PUSH2 0x758 DUP2 PUSH2 0x920 JUMP JUMPDEST DUP3 MSTORE POP POP JUMP JUMPDEST PUSH2 0x767 DUP2 PUSH2 0x920 JUMP JUMPDEST DUP3 MSTORE POP POP JUMP JUMPDEST PUSH1 0x0 PUSH2 0x778 DUP3 PUSH2 0x8F3 JUMP JUMPDEST PUSH2 0x782 DUP2 DUP6 PUSH2 0x8FE JUMP JUMPDEST SWAP4 POP PUSH2 0x792 DUP2 DUP6 PUSH1 0x20 DUP7 ADD PUSH2 0x961 JUMP JUMPDEST PUSH2 0x79B DUP2 PUSH2 0xA69 JUMP JUMPDEST DUP5 ADD SWAP2 POP POP SWAP3 SWAP2 POP POP JUMP JUMPDEST PUSH1 0x0 PUSH2 0x7B1 DUP3 PUSH2 0x8F3 JUMP JUMPDEST PUSH2 0x7BB DUP2 DUP6 PUSH2 0x90F JUMP JUMPDEST SWAP4 POP PUSH2 0x7CB DUP2 DUP6 PUSH1 0x20 DUP7 ADD PUSH2 0x961 JUMP JUMPDEST PUSH2 0x7D4 DUP2 PUSH2 0xA69 JUMP JUMPDEST DUP5 ADD SWAP2 POP POP SWAP3 SWAP2 POP POP JUMP JUMPDEST PUSH1 0x0 PUSH1 0x60 DUP4 ADD PUSH1 0x0 DUP4 ADD MLOAD PUSH2 0x7F7 PUSH1 0x0 DUP7 ADD DUP3 PUSH2 0x74F JUMP JUMPDEST POP PUSH1 0x20 DUP4 ADD MLOAD DUP5 DUP3 SUB PUSH1 0x20 DUP7 ADD MSTORE PUSH2 0x80F DUP3 DUP3 PUSH2 0x76D JUMP JUMPDEST SWAP2 POP POP PUSH1 0x40 DUP4 ADD MLOAD DUP5 DUP3 SUB PUSH1 0x40 DUP7 ADD MSTORE PUSH2 0x829 DUP3 DUP3 PUSH2 0x76D JUMP JUMPDEST SWAP2 POP POP DUP1 SWAP2 POP POP SWAP3 SWAP2 POP POP JUMP JUMPDEST PUSH1 0x0 PUSH1 0x60 DUP3 ADD SWAP1 POP PUSH2 0x84B PUSH1 0x0 DUP4 ADD DUP7 PUSH2 0x75E JUMP JUMPDEST DUP2 DUP2 SUB PUSH1 0x20 DUP4 ADD MSTORE PUSH2 0x85D DUP2 DUP6 PUSH2 0x7A6 JUMP JUMPDEST SWAP1 POP DUP2 DUP2 SUB PUSH1 0x40 DUP4 ADD MSTORE PUSH2 0x871 DUP2 DUP5 PUSH2 0x7A6 JUMP JUMPDEST SWAP1 POP SWAP5 SWAP4 POP POP POP POP JUMP JUMPDEST PUSH1 0x0 PUSH1 0x20 DUP3 ADD SWAP1 POP DUP2 DUP2 SUB PUSH1 0x0 DUP4 ADD MSTORE PUSH2 0x895 DUP2 DUP5 PUSH2 0x7DF JUMP JUMPDEST SWAP1 POP SWAP3 SWAP2 POP POP JUMP JUMPDEST PUSH1 0x0 PUSH2 0x8A7 PUSH2 0x8B8 JUMP JUMPDEST SWAP1 POP PUSH2 0x8B3 DUP3 DUP3 PUSH2 0x9C6 JUMP JUMPDEST SWAP2 SWAP1 POP JUMP JUMPDEST PUSH1 0x0 PUSH1 0x40 MLOAD SWAP1 POP SWAP1 JUMP JUMPDEST PUSH1 0x0 PUSH8 0xFFFFFFFFFFFFFFFF DUP3 GT ISZERO PUSH2 0x8DD JUMPI PUSH2 0x8DC PUSH2 0xA26 JUMP JUMPDEST JUMPDEST PUSH2 0x8E6 DUP3 PUSH2 0xA69 JUMP JUMPDEST SWAP1 POP PUSH1 0x20 DUP2 ADD SWAP1 POP SWAP2 SWAP1 POP JUMP JUMPDEST PUSH1 0x0 DUP2 MLOAD SWAP1 POP SWAP2 SWAP1 POP JUMP JUMPDEST PUSH1 0x0 DUP3 DUP3 MSTORE PUSH1 0x20 DUP3 ADD SWAP1 POP SWAP3 SWAP2 POP POP JUMP JUMPDEST PUSH1 0x0 DUP3 DUP3 MSTORE PUSH1 0x20 DUP3 ADD SWAP1 POP SWAP3 SWAP2 POP POP JUMP JUMPDEST PUSH1 0x0 PUSH2 0x92B DUP3 PUSH2 0x932 JUMP JUMPDEST SWAP1 POP SWAP2 SWAP1 POP JUMP JUMPDEST PUSH1 0x0 PUSH20 0xFFFFFFFFFFFFFFFFFFFFFFFFFFFFFFFFFFFFFFFF DUP3 AND SWAP1 POP SWAP2 SWAP1 POP JUMP JUMPDEST DUP3 DUP2 DUP4 CALLDATACOPY PUSH1 0x0 DUP4 DUP4 ADD MSTORE POP POP POP JUMP JUMPDEST PUSH1 0x0 JUMPDEST DUP4 DUP2 LT ISZERO PUSH2 0x97F JUMPI DUP1 DUP3 ADD MLOAD DUP2 DUP5 ADD MSTORE PUSH1 0x20 DUP2 ADD SWAP1 POP PUSH2 0x964 JUMP JUMPDEST DUP4 DUP2 GT ISZERO PUSH2 0x98E JUMPI PUSH1 0x0 DUP5 DUP5 ADD MSTORE JUMPDEST POP POP POP POP JUMP JUMPDEST PUSH1 0x0 PUSH1 0x2 DUP3 DIV SWAP1 POP PUSH1 0x1 DUP3 AND DUP1 PUSH2 0x9AC JUMPI PUSH1 0x7F DUP3 AND SWAP2 POP JUMPDEST PUSH1 0x20 DUP3 LT DUP2 EQ ISZERO PUSH2 0x9C0 JUMPI PUSH2 0x9BF PUSH2 0x9F7 JUMP JUMPDEST JUMPDEST POP SWAP2 SWAP1 POP JUMP JUMPDEST PUSH2 0x9CF DUP3 PUSH2 0xA69 JUMP JUMPDEST DUP2 ADD DUP2 DUP2 LT PUSH8 0xFFFFFFFFFFFFFFFF DUP3 GT OR ISZERO PUSH2 0x9EE JUMPI PUSH2 0x9ED PUSH2 0xA26 JUMP JUMPDEST JUMPDEST DUP1 PUSH1 0x40 MSTORE POP POP POP JUMP JUMPDEST PUSH32 0x4E487B7100000000000000000000000000000000000000000000000000000000 PUSH1 0x0 MSTORE PUSH1 0x22 PUSH1 0x4 MSTORE PUSH1 0x24 PUSH1 0x0 REVERT JUMPDEST PUSH32 0x4E487B7100000000000000000000000000000000000000000000000000000000 PUSH1 0x0 MSTORE PUSH1 0x41 PUSH1 0x4 MSTORE PUSH1 0x24 PUSH1 0x0 REVERT JUMPDEST PUSH1 0x0 DUP1 REVERT JUMPDEST PUSH1 0x0 DUP1 REVERT JUMPDEST PUSH1 0x0 DUP1 REVERT JUMPDEST PUSH1 0x0 DUP1 REVERT JUMPDEST PUSH1 0x0 PUSH1 0x1F NOT PUSH1 0x1F DUP4 ADD AND SWAP1 POP SWAP2 SWAP1 POP JUMP JUMPDEST PUSH2 0xA83 DUP2 PUSH2 0x920 JUMP JUMPDEST DUP2 EQ PUSH2 0xA8E JUMPI PUSH1 0x0 DUP1 REVERT JUMPDEST POP JUMP INVALID LOG2 PUSH5 0x6970667358 0x22 SLT KECCAK256 0x5E PUSH3 0x3BC087 0xD7 CHAINID SWAP15 BLOCKHASH LOG4 GAS BALANCE 0xB8 ADD 0xFB 0xB1 DUP3 SWAP5 0xD2 PUSH29 0xA6AF66D5CAD8F5C69A232C9B64736F6C63430008070033000000000000 "
				},
				"gasEstimates": {
					"creation": {
						"codeDepositCost": "551800",
						"executionCost": "587",
						"totalCost": "552387"
					},
					"external": {
						"getDeviceInfoByAddr(address)": "infinite",
						"setDeviceInfo(address,string,string)": "infinite",
						"setSubjInfo()": "166",
						"subjInfoMap(address)": "infinite"
					}
				},
				"methodIdentifiers": {
					"getDeviceInfoByAddr(address)": "de1e23b7",
					"setDeviceInfo(address,string,string)": "6c477035",
					"setSubjInfo()": "c4a72111",
					"subjInfoMap(address)": "b9e0ad10"
				}
			},
			"userdoc": {
				"kind": "user",
				"methods": {},
				"version": 1
			}
		}
	}
}