{
	"contracts/AccessControl.sol": {
		"AccessControl": {
			"abi": [
				{
					"anonymous": false,
					"inputs": [
						{
							"indexed": false,
							"internalType": "address",
							"name": "from",
							"type": "address"
						},
						{
							"indexed": false,
							"internalType": "address",
							"name": "to",
							"type": "address"
						},
						{
							"indexed": false,
							"internalType": "string",
							"name": "action",
							"type": "string"
						},
						{
							"indexed": false,
							"internalType": "string",
							"name": "result",
							"type": "string"
						},
						{
							"indexed": false,
							"internalType": "uint256",
							"name": "accessTime",
							"type": "uint256"
						}
					],
					"name": "AccessControlRet",
					"type": "event"
				},
				{
					"inputs": [
						{
							"internalType": "address",
							"name": "_objectAddr",
							"type": "address"
						},
						{
							"internalType": "string",
							"name": "action",
							"type": "string"
						}
					],
					"name": "accessControl",
					"outputs": [
						{
							"internalType": "bool",
							"name": "res",
							"type": "bool"
						}
					],
					"stateMutability": "nonpayable",
					"type": "function"
				},
				{
					"inputs": [
						{
							"internalType": "string",
							"name": "_action",
							"type": "string"
						}
					],
					"name": "getActionNum",
					"outputs": [
						{
							"internalType": "int256",
							"name": "",
							"type": "int256"
						}
					],
					"stateMutability": "view",
					"type": "function"
				},
				{
					"inputs": [],
					"name": "getCurTime",
					"outputs": [
						{
							"internalType": "uint256",
							"name": "",
							"type": "uint256"
						}
					],
					"stateMutability": "view",
					"type": "function"
				},
				{
					"inputs": [
						{
							"internalType": "address",
							"name": "_MCAddr",
							"type": "address"
						},
						{
							"internalType": "address",
							"name": "_JCAddr",
							"type": "address"
						}
					],
					"name": "init",
					"outputs": [],
					"stateMutability": "nonpayable",
					"type": "function"
				}
			],
			"devdoc": {
				"kind": "dev",
				"methods": {},
				"version": 1
			},
			"evm": {
				"assembly": "    /* \"contracts/AccessControl.sol\":121:3831  contract AccessControl {\r... */\n  mstore(0x40, 0x80)\n  callvalue\n  dup1\n  iszero\n  tag_1\n  jumpi\n  0x00\n  dup1\n  revert\ntag_1:\n  pop\n  dataSize(sub_0)\n  dup1\n  dataOffset(sub_0)\n  0x00\n  codecopy\n  0x00\n  return\nstop\n\nsub_0: assembly {\n        /* \"contracts/AccessControl.sol\":121:3831  contract AccessControl {\r... */\n      mstore(0x40, 0x80)\n      callvalue\n      dup1\n      iszero\n      tag_1\n      jumpi\n      0x00\n      dup1\n      revert\n    tag_1:\n      pop\n      jumpi(tag_2, lt(calldatasize, 0x04))\n      shr(0xe0, calldataload(0x00))\n      dup1\n      0x18da6229\n      eq\n      tag_3\n      jumpi\n      dup1\n      0x32076e77\n      eq\n      tag_4\n      jumpi\n      dup1\n      0xc0821da3\n      eq\n      tag_5\n      jumpi\n      dup1\n      0xf09a4016\n      eq\n      tag_6\n      jumpi\n    tag_2:\n      0x00\n      dup1\n      revert\n        /* \"contracts/AccessControl.sol\":3567:3682  function getActionNum(string memory _action) public view returns(int) {\r... */\n    tag_3:\n      tag_7\n      0x04\n      dup1\n      calldatasize\n      sub\n      dup2\n      add\n      swap1\n      tag_8\n      swap2\n      swap1\n      tag_9\n      jump\t// in\n    tag_8:\n      tag_10\n      jump\t// in\n    tag_7:\n      mload(0x40)\n      tag_11\n      swap2\n      swap1\n      tag_12\n      jump\t// in\n    tag_11:\n      mload(0x40)\n      dup1\n      swap2\n      sub\n      swap1\n      return\n        /* \"contracts/AccessControl.sol\":1867:3455  function accessControl(address _objectAddr, string memory action) public returns (bool res) {\r... */\n    tag_4:\n      tag_13\n      0x04\n      dup1\n      calldatasize\n      sub\n      dup2\n      add\n      swap1\n      tag_14\n      swap2\n      swap1\n      tag_15\n      jump\t// in\n    tag_14:\n      tag_16\n      jump\t// in\n    tag_13:\n      mload(0x40)\n      tag_17\n      swap2\n      swap1\n      tag_18\n      jump\t// in\n    tag_17:\n      mload(0x40)\n      dup1\n      swap2\n      sub\n      swap1\n      return\n        /* \"contracts/AccessControl.sol\":3467:3559  function getCurTime() public view returns(uint256) {\r... */\n    tag_5:\n      tag_19\n      tag_20\n      jump\t// in\n    tag_19:\n      mload(0x40)\n      tag_21\n      swap2\n      swap1\n      tag_22\n      jump\t// in\n    tag_21:\n      mload(0x40)\n      dup1\n      swap2\n      sub\n      swap1\n      return\n        /* \"contracts/AccessControl.sol\":755:1204  function init(address _MCAddr, address _JCAddr) public {\r... */\n    tag_6:\n      tag_23\n      0x04\n      dup1\n      calldatasize\n      sub\n      dup2\n      add\n      swap1\n      tag_24\n      swap2\n      swap1\n      tag_25\n      jump\t// in\n    tag_24:\n      tag_26\n      jump\t// in\n    tag_23:\n      stop\n        /* \"contracts/AccessControl.sol\":3567:3682  function getActionNum(string memory _action) public view returns(int) {\r... */\n    tag_10:\n        /* \"contracts/AccessControl.sol\":3632:3635  int */\n      0x00\n        /* \"contracts/AccessControl.sol\":3655:3665  rightTable */\n      0x02\n        /* \"contracts/AccessControl.sol\":3666:3673  _action */\n      dup3\n        /* \"contracts/AccessControl.sol\":3655:3674  rightTable[_action] */\n      mload(0x40)\n      tag_28\n      swap2\n      swap1\n      tag_29\n      jump\t// in\n    tag_28:\n      swap1\n      dup2\n      mstore\n      0x20\n      add\n      mload(0x40)\n      dup1\n      swap2\n      sub\n      swap1\n      keccak256\n      sload\n        /* \"contracts/AccessControl.sol\":3648:3674  return rightTable[_action] */\n      swap1\n      pop\n        /* \"contracts/AccessControl.sol\":3567:3682  function getActionNum(string memory _action) public view returns(int) {\r... */\n      swap2\n      swap1\n      pop\n      jump\t// out\n        /* \"contracts/AccessControl.sol\":1867:3455  function accessControl(address _objectAddr, string memory action) public returns (bool res) {\r... */\n    tag_16:\n        /* \"contracts/AccessControl.sol\":1949:1957  bool res */\n      0x00\n        /* \"contracts/AccessControl.sol\":2016:2038  checkRequesterStatus() */\n      tag_31\n        /* \"contracts/AccessControl.sol\":2016:2036  checkRequesterStatus */\n      tag_32\n        /* \"contracts/AccessControl.sol\":2016:2038  checkRequesterStatus() */\n      jump\t// in\n    tag_31:\n        /* \"contracts/AccessControl.sol\":2051:2063  uint curTime */\n      0x00\n        /* \"contracts/AccessControl.sol\":2066:2078  getCurTime() */\n      tag_33\n        /* \"contracts/AccessControl.sol\":2066:2076  getCurTime */\n      tag_20\n        /* \"contracts/AccessControl.sol\":2066:2078  getCurTime() */\n      jump\t// in\n    tag_33:\n        /* \"contracts/AccessControl.sol\":2051:2078  uint curTime = getCurTime() */\n      swap1\n      pop\n        /* \"contracts/AccessControl.sol\":2089:2103  bool isBlocked */\n      0x00\n        /* \"contracts/AccessControl.sol\":2114:2126  uint256 ToLB */\n      dup1\n        /* \"contracts/AccessControl.sol\":2157:2162  judge */\n      0x01\n      0x00\n      swap1\n      sload\n      swap1\n      0x0100\n      exp\n      swap1\n      div\n      0xffffffffffffffffffffffffffffffffffffffff\n      and\n        /* \"contracts/AccessControl.sol\":2157:2175  judge.getBLUByAddr */\n      0xffffffffffffffffffffffffffffffffffffffff\n      and\n      0x169c9de0\n        /* \"contracts/AccessControl.sol\":2176:2186  msg.sender */\n      caller\n        /* \"contracts/AccessControl.sol\":2157:2187  judge.getBLUByAddr(msg.sender) */\n      mload(0x40)\n      dup3\n      0xffffffff\n      and\n      0xe0\n      shl\n      dup2\n      mstore\n      0x04\n      add\n      tag_34\n      swap2\n      swap1\n      tag_35\n      jump\t// in\n    tag_34:\n      0x40\n      dup1\n      mload\n      dup1\n      dup4\n      sub\n      dup2\n      dup7\n      dup1\n      extcodesize\n      iszero\n      dup1\n      iszero\n      tag_36\n      jumpi\n      0x00\n      dup1\n      revert\n    tag_36:\n      pop\n      gas\n      staticcall\n      iszero\n      dup1\n      iszero\n      tag_38\n      jumpi\n      returndatasize\n      0x00\n      dup1\n      returndatacopy\n      revert(0x00, returndatasize)\n    tag_38:\n      pop\n      pop\n      pop\n      pop\n      mload(0x40)\n      returndatasize\n      not(0x1f)\n      0x1f\n      dup3\n      add\n      and\n      dup3\n      add\n      dup1\n      0x40\n      mstore\n      pop\n      dup2\n      add\n      swap1\n      tag_39\n      swap2\n      swap1\n      tag_40\n      jump\t// in\n    tag_39:\n        /* \"contracts/AccessControl.sol\":2137:2187  (ToLB, isBlocked) = judge.getBLUByAddr(msg.sender) */\n      dup1\n      swap4\n      pop\n      dup2\n      swap3\n      pop\n      pop\n      pop\n        /* \"contracts/AccessControl.sol\":2243:2252  isBlocked */\n      dup2\n        /* \"contracts/AccessControl.sol\":2243:2271  isBlocked && curTime <= ToLB */\n      dup1\n      iszero\n      tag_41\n      jumpi\n      pop\n        /* \"contracts/AccessControl.sol\":2267:2271  ToLB */\n      dup1\n        /* \"contracts/AccessControl.sol\":2256:2263  curTime */\n      dup4\n        /* \"contracts/AccessControl.sol\":2256:2271  curTime <= ToLB */\n      gt\n      iszero\n        /* \"contracts/AccessControl.sol\":2243:2271  isBlocked && curTime <= ToLB */\n    tag_41:\n        /* \"contracts/AccessControl.sol\":2240:2569  if(isBlocked && curTime <= ToLB) {\r... */\n      iszero\n      tag_42\n      jumpi\n        /* \"contracts/AccessControl.sol\":2293:2395  AccessControlRet(msg.sender, _objectAddr, action, \"Still blocked, unable to access!\", block.timestamp) */\n      0x365c8ddb6c298b196e110ce4bc267d2ed1319736bd9d74e983f0e9cf3202f697\n        /* \"contracts/AccessControl.sol\":2310:2320  msg.sender */\n      caller\n        /* \"contracts/AccessControl.sol\":2322:2333  _objectAddr */\n      dup8\n        /* \"contracts/AccessControl.sol\":2335:2341  action */\n      dup8\n        /* \"contracts/AccessControl.sol\":2379:2394  block.timestamp */\n      timestamp\n        /* \"contracts/AccessControl.sol\":2293:2395  AccessControlRet(msg.sender, _objectAddr, action, \"Still blocked, unable to access!\", block.timestamp) */\n      mload(0x40)\n      tag_43\n      swap5\n      swap4\n      swap3\n      swap2\n      swap1\n      tag_44\n      jump\t// in\n    tag_43:\n      mload(0x40)\n      dup1\n      swap2\n      sub\n      swap1\n      log1\n        /* \"contracts/AccessControl.sol\":2418:2423  false */\n      0x00\n        /* \"contracts/AccessControl.sol\":2412:2423  res = false */\n      swap4\n      pop\n        /* \"contracts/AccessControl.sol\":2438:2448  return res */\n      pop\n      pop\n      pop\n      jump(tag_30)\n        /* \"contracts/AccessControl.sol\":2240:2569  if(isBlocked && curTime <= ToLB) {\r... */\n    tag_42:\n        /* \"contracts/AccessControl.sol\":2528:2533  judge */\n      0x01\n      0x00\n      swap1\n      sload\n      swap1\n      0x0100\n      exp\n      swap1\n      div\n      0xffffffffffffffffffffffffffffffffffffffff\n      and\n        /* \"contracts/AccessControl.sol\":2528:2545  judge.unblockUser */\n      0xffffffffffffffffffffffffffffffffffffffff\n      and\n      0x39d319e5\n        /* \"contracts/AccessControl.sol\":2546:2556  msg.sender */\n      caller\n        /* \"contracts/AccessControl.sol\":2528:2557  judge.unblockUser(msg.sender) */\n      mload(0x40)\n      dup3\n      0xffffffff\n      and\n      0xe0\n      shl\n      dup2\n      mstore\n      0x04\n      add\n      tag_46\n      swap2\n      swap1\n      tag_35\n      jump\t// in\n    tag_46:\n      0x00\n      mload(0x40)\n      dup1\n      dup4\n      sub\n      dup2\n      0x00\n      dup8\n      dup1\n      extcodesize\n      iszero\n      dup1\n      iszero\n      tag_47\n      jumpi\n      0x00\n      dup1\n      revert\n    tag_47:\n      pop\n      gas\n      call\n      iszero\n      dup1\n      iszero\n      tag_49\n      jumpi\n      returndatasize\n      0x00\n      dup1\n      returndatacopy\n      revert(0x00, returndatasize)\n    tag_49:\n      pop\n      pop\n      pop\n      pop\n        /* \"contracts/AccessControl.sol\":2581:2600  string memory right */\n      0x00\n        /* \"contracts/AccessControl.sol\":2603:2610  manager */\n      dup1\n      0x00\n      swap1\n      sload\n      swap1\n      0x0100\n      exp\n      swap1\n      div\n      0xffffffffffffffffffffffffffffffffffffffff\n      and\n        /* \"contracts/AccessControl.sol\":2603:2619  manager.getRight */\n      0xffffffffffffffffffffffffffffffffffffffff\n      and\n      0x8749774f\n        /* \"contracts/AccessControl.sol\":2620:2630  msg.sender */\n      caller\n        /* \"contracts/AccessControl.sol\":2632:2643  _objectAddr */\n      dup10\n        /* \"contracts/AccessControl.sol\":2603:2644  manager.getRight(msg.sender, _objectAddr) */\n      mload(0x40)\n      dup4\n      0xffffffff\n      and\n      0xe0\n      shl\n      dup2\n      mstore\n      0x04\n      add\n      tag_50\n      swap3\n      swap2\n      swap1\n      tag_51\n      jump\t// in\n    tag_50:\n      0x00\n      mload(0x40)\n      dup1\n      dup4\n      sub\n      dup2\n      dup7\n      dup1\n      extcodesize\n      iszero\n      dup1\n      iszero\n      tag_52\n      jumpi\n      0x00\n      dup1\n      revert\n    tag_52:\n      pop\n      gas\n      staticcall\n      iszero\n      dup1\n      iszero\n      tag_54\n      jumpi\n      returndatasize\n      0x00\n      dup1\n      returndatacopy\n      revert(0x00, returndatasize)\n    tag_54:\n      pop\n      pop\n      pop\n      pop\n      mload(0x40)\n      returndatasize\n      0x00\n      dup3\n      returndatacopy\n      returndatasize\n      not(0x1f)\n      0x1f\n      dup3\n      add\n      and\n      dup3\n      add\n      dup1\n      0x40\n      mstore\n      pop\n      dup2\n      add\n      swap1\n      tag_55\n      swap2\n      swap1\n      tag_56\n      jump\t// in\n    tag_55:\n        /* \"contracts/AccessControl.sol\":2581:2644  string memory right = manager.getRight(msg.sender, _objectAddr) */\n      swap1\n      pop\n        /* \"contracts/AccessControl.sol\":2714:2724  rightTable */\n      0x02\n        /* \"contracts/AccessControl.sol\":2725:2730  right */\n      dup2\n        /* \"contracts/AccessControl.sol\":2714:2731  rightTable[right] */\n      mload(0x40)\n      tag_57\n      swap2\n      swap1\n      tag_29\n      jump\t// in\n    tag_57:\n      swap1\n      dup2\n      mstore\n      0x20\n      add\n      mload(0x40)\n      dup1\n      swap2\n      sub\n      swap1\n      keccak256\n      sload\n        /* \"contracts/AccessControl.sol\":2693:2703  rightTable */\n      0x02\n        /* \"contracts/AccessControl.sol\":2704:2710  action */\n      dup8\n        /* \"contracts/AccessControl.sol\":2693:2711  rightTable[action] */\n      mload(0x40)\n      tag_58\n      swap2\n      swap1\n      tag_29\n      jump\t// in\n    tag_58:\n      swap1\n      dup2\n      mstore\n      0x20\n      add\n      mload(0x40)\n      dup1\n      swap2\n      sub\n      swap1\n      keccak256\n      sload\n        /* \"contracts/AccessControl.sol\":2693:2731  rightTable[action] > rightTable[right] */\n      sgt\n        /* \"contracts/AccessControl.sol\":2690:2906  if(rightTable[action] > rightTable[right]) {\r... */\n      iszero\n      tag_59\n      jumpi\n        /* \"contracts/AccessControl.sol\":2753:2843  AccessControlRet(msg.sender, _objectAddr, action, \"Unauthorized access!\", block.timestamp) */\n      0x365c8ddb6c298b196e110ce4bc267d2ed1319736bd9d74e983f0e9cf3202f697\n        /* \"contracts/AccessControl.sol\":2770:2780  msg.sender */\n      caller\n        /* \"contracts/AccessControl.sol\":2782:2793  _objectAddr */\n      dup9\n        /* \"contracts/AccessControl.sol\":2795:2801  action */\n      dup9\n        /* \"contracts/AccessControl.sol\":2827:2842  block.timestamp */\n      timestamp\n        /* \"contracts/AccessControl.sol\":2753:2843  AccessControlRet(msg.sender, _objectAddr, action, \"Unauthorized access!\", block.timestamp) */\n      mload(0x40)\n      tag_60\n      swap5\n      swap4\n      swap3\n      swap2\n      swap1\n      tag_61\n      jump\t// in\n    tag_60:\n      mload(0x40)\n      dup1\n      swap2\n      sub\n      swap1\n      log1\n        /* \"contracts/AccessControl.sol\":2864:2869  false */\n      0x00\n        /* \"contracts/AccessControl.sol\":2858:2869  res = false */\n      swap5\n      pop\n        /* \"contracts/AccessControl.sol\":2884:2894  return res */\n      pop\n      pop\n      pop\n      pop\n      jump(tag_30)\n        /* \"contracts/AccessControl.sol\":2690:2906  if(rightTable[action] > rightTable[right]) {\r... */\n    tag_59:\n        /* \"contracts/AccessControl.sol\":2918:2940  string memory subjName */\n      0x60\n        /* \"contracts/AccessControl.sol\":2951:2971  string memory subjIP */\n      dup1\n        /* \"contracts/AccessControl.sol\":3003:3010  manager */\n      0x00\n      dup1\n      sload\n      swap1\n      0x0100\n      exp\n      swap1\n      div\n      0xffffffffffffffffffffffffffffffffffffffff\n      and\n        /* \"contracts/AccessControl.sol\":3003:3022  manager.getSubjInfo */\n      0xffffffffffffffffffffffffffffffffffffffff\n      and\n      0x9f764d16\n        /* \"contracts/AccessControl.sol\":3023:3033  msg.sender */\n      caller\n        /* \"contracts/AccessControl.sol\":3003:3034  manager.getSubjInfo(msg.sender) */\n      mload(0x40)\n      dup3\n      0xffffffff\n      and\n      0xe0\n      shl\n      dup2\n      mstore\n      0x04\n      add\n      tag_62\n      swap2\n      swap1\n      tag_35\n      jump\t// in\n    tag_62:\n      0x00\n      mload(0x40)\n      dup1\n      dup4\n      sub\n      dup2\n      dup7\n      dup1\n      extcodesize\n      iszero\n      dup1\n      iszero\n      tag_63\n      jumpi\n      0x00\n      dup1\n      revert\n    tag_63:\n      pop\n      gas\n      staticcall\n      iszero\n      dup1\n      iszero\n      tag_65\n      jumpi\n      returndatasize\n      0x00\n      dup1\n      returndatacopy\n      revert(0x00, returndatasize)\n    tag_65:\n      pop\n      pop\n      pop\n      pop\n      mload(0x40)\n      returndatasize\n      0x00\n      dup3\n      returndatacopy\n      returndatasize\n      not(0x1f)\n      0x1f\n      dup3\n      add\n      and\n      dup3\n      add\n      dup1\n      0x40\n      mstore\n      pop\n      dup2\n      add\n      swap1\n      tag_66\n      swap2\n      swap1\n      tag_67\n      jump\t// in\n    tag_66:\n        /* \"contracts/AccessControl.sol\":2982:3034  (subjName, subjIP) = manager.getSubjInfo(msg.sender) */\n      dup1\n      swap3\n      pop\n      dup2\n      swap4\n      pop\n      pop\n      pop\n        /* \"contracts/AccessControl.sol\":3079:3093  blackListIpMap */\n      0x03\n        /* \"contracts/AccessControl.sol\":3094:3100  subjIP */\n      dup2\n        /* \"contracts/AccessControl.sol\":3079:3101  blackListIpMap[subjIP] */\n      mload(0x40)\n      tag_68\n      swap2\n      swap1\n      tag_29\n      jump\t// in\n    tag_68:\n      swap1\n      dup2\n      mstore\n      0x20\n      add\n      mload(0x40)\n      dup1\n      swap2\n      sub\n      swap1\n      keccak256\n      0x00\n      swap1\n      sload\n      swap1\n      0x0100\n      exp\n      swap1\n      div\n      0xff\n      and\n        /* \"contracts/AccessControl.sol\":3076:3275  if(blackListIpMap[subjIP]) {\r... */\n      iszero\n      tag_69\n      jumpi\n        /* \"contracts/AccessControl.sol\":3123:3212  AccessControlRet(msg.sender, _objectAddr, action, \"Illegal IP address!\", block.timestamp) */\n      0x365c8ddb6c298b196e110ce4bc267d2ed1319736bd9d74e983f0e9cf3202f697\n        /* \"contracts/AccessControl.sol\":3140:3150  msg.sender */\n      caller\n        /* \"contracts/AccessControl.sol\":3152:3163  _objectAddr */\n      dup11\n        /* \"contracts/AccessControl.sol\":3165:3171  action */\n      dup11\n        /* \"contracts/AccessControl.sol\":3196:3211  block.timestamp */\n      timestamp\n        /* \"contracts/AccessControl.sol\":3123:3212  AccessControlRet(msg.sender, _objectAddr, action, \"Illegal IP address!\", block.timestamp) */\n      mload(0x40)\n      tag_70\n      swap5\n      swap4\n      swap3\n      swap2\n      swap1\n      tag_71\n      jump\t// in\n    tag_70:\n      mload(0x40)\n      dup1\n      swap2\n      sub\n      swap1\n      log1\n        /* \"contracts/AccessControl.sol\":3233:3238  false */\n      0x00\n        /* \"contracts/AccessControl.sol\":3227:3238  res = false */\n      swap7\n      pop\n        /* \"contracts/AccessControl.sol\":3253:3263  return res */\n      pop\n      pop\n      pop\n      pop\n      pop\n      pop\n      jump(tag_30)\n        /* \"contracts/AccessControl.sol\":3076:3275  if(blackListIpMap[subjIP]) {\r... */\n    tag_69:\n        /* \"contracts/AccessControl.sol\":3323:3405  AccessControlRet(msg.sender, _objectAddr, action, \"Access pass!\", block.timestamp) */\n      0x365c8ddb6c298b196e110ce4bc267d2ed1319736bd9d74e983f0e9cf3202f697\n        /* \"contracts/AccessControl.sol\":3340:3350  msg.sender */\n      caller\n        /* \"contracts/AccessControl.sol\":3352:3363  _objectAddr */\n      dup11\n        /* \"contracts/AccessControl.sol\":3365:3371  action */\n      dup11\n        /* \"contracts/AccessControl.sol\":3389:3404  block.timestamp */\n      timestamp\n        /* \"contracts/AccessControl.sol\":3323:3405  AccessControlRet(msg.sender, _objectAddr, action, \"Access pass!\", block.timestamp) */\n      mload(0x40)\n      tag_72\n      swap5\n      swap4\n      swap3\n      swap2\n      swap1\n      tag_73\n      jump\t// in\n    tag_72:\n      mload(0x40)\n      dup1\n      swap2\n      sub\n      swap1\n      log1\n        /* \"contracts/AccessControl.sol\":3422:3426  true */\n      0x01\n        /* \"contracts/AccessControl.sol\":3416:3426  res = true */\n      swap7\n      pop\n        /* \"contracts/AccessControl.sol\":3437:3447  return res */\n      pop\n      pop\n      pop\n      pop\n      pop\n      pop\n        /* \"contracts/AccessControl.sol\":1867:3455  function accessControl(address _objectAddr, string memory action) public returns (bool res) {\r... */\n    tag_30:\n      swap3\n      swap2\n      pop\n      pop\n      jump\t// out\n        /* \"contracts/AccessControl.sol\":3467:3559  function getCurTime() public view returns(uint256) {\r... */\n    tag_20:\n        /* \"contracts/AccessControl.sol\":3509:3516  uint256 */\n      0x00\n        /* \"contracts/AccessControl.sol\":3536:3551  block.timestamp */\n      timestamp\n        /* \"contracts/AccessControl.sol\":3529:3551  return block.timestamp */\n      swap1\n      pop\n        /* \"contracts/AccessControl.sol\":3467:3559  function getCurTime() public view returns(uint256) {\r... */\n      swap1\n      jump\t// out\n        /* \"contracts/AccessControl.sol\":755:1204  function init(address _MCAddr, address _JCAddr) public {\r... */\n    tag_26:\n        /* \"contracts/AccessControl.sol\":842:849  _MCAddr */\n      dup2\n        /* \"contracts/AccessControl.sol\":821:828  manager */\n      0x00\n      dup1\n        /* \"contracts/AccessControl.sol\":821:850  manager = Management(_MCAddr) */\n      0x0100\n      exp\n      dup2\n      sload\n      dup2\n      0xffffffffffffffffffffffffffffffffffffffff\n      mul\n      not\n      and\n      swap1\n      dup4\n      0xffffffffffffffffffffffffffffffffffffffff\n      and\n      mul\n      or\n      swap1\n      sstore\n      pop\n        /* \"contracts/AccessControl.sol\":875:882  _JCAddr */\n      dup1\n        /* \"contracts/AccessControl.sol\":861:866  judge */\n      0x01\n      0x00\n        /* \"contracts/AccessControl.sol\":861:883  judge = Judge(_JCAddr) */\n      0x0100\n      exp\n      dup2\n      sload\n      dup2\n      0xffffffffffffffffffffffffffffffffffffffff\n      mul\n      not\n      and\n      swap1\n      dup4\n      0xffffffffffffffffffffffffffffffffffffffff\n      and\n      mul\n      or\n      swap1\n      sstore\n      pop\n        /* \"contracts/AccessControl.sol\":1016:1017  1 */\n      0x01\n        /* \"contracts/AccessControl.sol\":995:1005  rightTable */\n      0x02\n        /* \"contracts/AccessControl.sol\":995:1013  rightTable[\"read\"] */\n      mload(0x40)\n      tag_76\n      swap1\n      tag_77\n      jump\t// in\n    tag_76:\n      swap1\n      dup2\n      mstore\n      0x20\n      add\n      mload(0x40)\n      dup1\n      swap2\n      sub\n      swap1\n      keccak256\n        /* \"contracts/AccessControl.sol\":995:1017  rightTable[\"read\"] = 1 */\n      dup2\n      swap1\n      sstore\n      pop\n        /* \"contracts/AccessControl.sol\":1049:1050  2 */\n      0x02\n        /* \"contracts/AccessControl.sol\":1028:1038  rightTable */\n      dup1\n        /* \"contracts/AccessControl.sol\":1028:1046  rightTable[\"open\"] */\n      mload(0x40)\n      tag_78\n      swap1\n      tag_79\n      jump\t// in\n    tag_78:\n      swap1\n      dup2\n      mstore\n      0x20\n      add\n      mload(0x40)\n      dup1\n      swap2\n      sub\n      swap1\n      keccak256\n        /* \"contracts/AccessControl.sol\":1028:1050  rightTable[\"open\"] = 2 */\n      dup2\n      swap1\n      sstore\n      pop\n        /* \"contracts/AccessControl.sol\":1083:1084  2 */\n      0x02\n        /* \"contracts/AccessControl.sol\":1061:1071  rightTable */\n      dup1\n        /* \"contracts/AccessControl.sol\":1061:1080  rightTable[\"close\"] */\n      mload(0x40)\n      tag_80\n      swap1\n      tag_81\n      jump\t// in\n    tag_80:\n      swap1\n      dup2\n      mstore\n      0x20\n      add\n      mload(0x40)\n      dup1\n      swap2\n      sub\n      swap1\n      keccak256\n        /* \"contracts/AccessControl.sol\":1061:1084  rightTable[\"close\"] = 2 */\n      dup2\n      swap1\n      sstore\n      pop\n        /* \"contracts/AccessControl.sol\":1119:1120  3 */\n      0x03\n        /* \"contracts/AccessControl.sol\":1095:1105  rightTable */\n      0x02\n        /* \"contracts/AccessControl.sol\":1095:1116  rightTable[\"restart\"] */\n      mload(0x40)\n      tag_82\n      swap1\n      tag_83\n      jump\t// in\n    tag_82:\n      swap1\n      dup2\n      mstore\n      0x20\n      add\n      mload(0x40)\n      dup1\n      swap2\n      sub\n      swap1\n      keccak256\n        /* \"contracts/AccessControl.sol\":1095:1120  rightTable[\"restart\"] = 3 */\n      dup2\n      swap1\n      sstore\n      pop\n        /* \"contracts/AccessControl.sol\":1152:1153  3 */\n      0x03\n        /* \"contracts/AccessControl.sol\":1131:1141  rightTable */\n      0x02\n        /* \"contracts/AccessControl.sol\":1131:1149  rightTable[\"kill\"] */\n      mload(0x40)\n      tag_84\n      swap1\n      tag_85\n      jump\t// in\n    tag_84:\n      swap1\n      dup2\n      mstore\n      0x20\n      add\n      mload(0x40)\n      dup1\n      swap2\n      sub\n      swap1\n      keccak256\n        /* \"contracts/AccessControl.sol\":1131:1153  rightTable[\"kill\"] = 3 */\n      dup2\n      swap1\n      sstore\n      pop\n        /* \"contracts/AccessControl.sol\":1192:1196  true */\n      0x01\n        /* \"contracts/AccessControl.sol\":1164:1178  blackListIpMap */\n      0x03\n        /* \"contracts/AccessControl.sol\":1164:1189  blackListIpMap['2.2.2.2'] */\n      mload(0x40)\n      tag_86\n      swap1\n      tag_87\n      jump\t// in\n    tag_86:\n      swap1\n      dup2\n      mstore\n      0x20\n      add\n      mload(0x40)\n      dup1\n      swap2\n      sub\n      swap1\n      keccak256\n      0x00\n        /* \"contracts/AccessControl.sol\":1164:1196  blackListIpMap['2.2.2.2'] = true */\n      0x0100\n      exp\n      dup2\n      sload\n      dup2\n      0xff\n      mul\n      not\n      and\n      swap1\n      dup4\n      iszero\n      iszero\n      mul\n      or\n      swap1\n      sstore\n      pop\n        /* \"contracts/AccessControl.sol\":755:1204  function init(address _MCAddr, address _JCAddr) public {\r... */\n      pop\n      pop\n      jump\t// out\n        /* \"contracts/AccessControl.sol\":1286:1821  function checkRequesterStatus() private {\r... */\n    tag_32:\n        /* \"contracts/AccessControl.sol\":1378:1382  true */\n      0x01\n        /* \"contracts/AccessControl.sol\":1340:1382  requestMap[msg.sender].isRequested == true */\n      iszero\n      iszero\n        /* \"contracts/AccessControl.sol\":1340:1350  requestMap */\n      0x04\n        /* \"contracts/AccessControl.sol\":1340:1362  requestMap[msg.sender] */\n      0x00\n        /* \"contracts/AccessControl.sol\":1351:1361  msg.sender */\n      caller\n        /* \"contracts/AccessControl.sol\":1340:1362  requestMap[msg.sender] */\n      0xffffffffffffffffffffffffffffffffffffffff\n      and\n      0xffffffffffffffffffffffffffffffffffffffff\n      and\n      dup2\n      mstore\n      0x20\n      add\n      swap1\n      dup2\n      mstore\n      0x20\n      add\n      0x00\n      keccak256\n        /* \"contracts/AccessControl.sol\":1340:1374  requestMap[msg.sender].isRequested */\n      0x00\n      add\n      0x00\n      swap1\n      sload\n      swap1\n      0x0100\n      exp\n      swap1\n      div\n      0xff\n      and\n        /* \"contracts/AccessControl.sol\":1340:1382  requestMap[msg.sender].isRequested == true */\n      iszero\n      iszero\n      eq\n        /* \"contracts/AccessControl.sol\":1337:1814  if(requestMap[msg.sender].isRequested == true) {\r... */\n      iszero\n      tag_89\n      jumpi\n        /* \"contracts/AccessControl.sol\":1399:1414  uint256 timeGap */\n      0x00\n        /* \"contracts/AccessControl.sol\":1435:1445  requestMap */\n      0x04\n        /* \"contracts/AccessControl.sol\":1435:1457  requestMap[msg.sender] */\n      0x00\n        /* \"contracts/AccessControl.sol\":1446:1456  msg.sender */\n      caller\n        /* \"contracts/AccessControl.sol\":1435:1457  requestMap[msg.sender] */\n      0xffffffffffffffffffffffffffffffffffffffff\n      and\n      0xffffffffffffffffffffffffffffffffffffffff\n      and\n      dup2\n      mstore\n      0x20\n      add\n      swap1\n      dup2\n      mstore\n      0x20\n      add\n      0x00\n      keccak256\n        /* \"contracts/AccessControl.sol\":1435:1462  requestMap[msg.sender].ToLR */\n      0x01\n      add\n      sload\n        /* \"contracts/AccessControl.sol\":1417:1432  block.timestamp */\n      timestamp\n        /* \"contracts/AccessControl.sol\":1417:1462  block.timestamp - requestMap[msg.sender].ToLR */\n      tag_90\n      swap2\n      swap1\n      tag_91\n      jump\t// in\n    tag_90:\n        /* \"contracts/AccessControl.sol\":1399:1462  uint256 timeGap = block.timestamp - requestMap[msg.sender].ToLR */\n      swap1\n      pop\n        /* \"contracts/AccessControl.sol\":1535:1537  10 */\n      0x0a\n        /* \"contracts/AccessControl.sol\":1524:1531  timeGap */\n      dup2\n        /* \"contracts/AccessControl.sol\":1524:1537  timeGap <= 10 */\n      gt\n        /* \"contracts/AccessControl.sol\":1521:1669  if(timeGap <= 10) {\r... */\n      tag_92\n      jumpi\n        /* \"contracts/AccessControl.sol\":1623:1628  judge */\n      0x01\n      0x00\n      swap1\n      sload\n      swap1\n      0x0100\n      exp\n      swap1\n      div\n      0xffffffffffffffffffffffffffffffffffffffff\n      and\n        /* \"contracts/AccessControl.sol\":1623:1641  judge.setBlackList */\n      0xffffffffffffffffffffffffffffffffffffffff\n      and\n      0x72700241\n        /* \"contracts/AccessControl.sol\":1642:1652  msg.sender */\n      caller\n        /* \"contracts/AccessControl.sol\":1623:1653  judge.setBlackList(msg.sender) */\n      mload(0x40)\n      dup3\n      0xffffffff\n      and\n      0xe0\n      shl\n      dup2\n      mstore\n      0x04\n      add\n      tag_93\n      swap2\n      swap1\n      tag_35\n      jump\t// in\n    tag_93:\n      0x00\n      mload(0x40)\n      dup1\n      dup4\n      sub\n      dup2\n      0x00\n      dup8\n      dup1\n      extcodesize\n      iszero\n      dup1\n      iszero\n      tag_94\n      jumpi\n      0x00\n      dup1\n      revert\n    tag_94:\n      pop\n      gas\n      call\n      iszero\n      dup1\n      iszero\n      tag_96\n      jumpi\n      returndatasize\n      0x00\n      dup1\n      returndatacopy\n      revert(0x00, returndatasize)\n    tag_96:\n      pop\n      pop\n      pop\n      pop\n        /* \"contracts/AccessControl.sol\":1521:1669  if(timeGap <= 10) {\r... */\n    tag_92:\n        /* \"contracts/AccessControl.sol\":1384:1680  {\r... */\n      pop\n        /* \"contracts/AccessControl.sol\":1337:1814  if(requestMap[msg.sender].isRequested == true) {\r... */\n      jump(tag_97)\n    tag_89:\n        /* \"contracts/AccessControl.sol\":1738:1742  true */\n      0x01\n        /* \"contracts/AccessControl.sol\":1701:1711  requestMap */\n      0x04\n        /* \"contracts/AccessControl.sol\":1701:1723  requestMap[msg.sender] */\n      0x00\n        /* \"contracts/AccessControl.sol\":1712:1722  msg.sender */\n      caller\n        /* \"contracts/AccessControl.sol\":1701:1723  requestMap[msg.sender] */\n      0xffffffffffffffffffffffffffffffffffffffff\n      and\n      0xffffffffffffffffffffffffffffffffffffffff\n      and\n      dup2\n      mstore\n      0x20\n      add\n      swap1\n      dup2\n      mstore\n      0x20\n      add\n      0x00\n      keccak256\n        /* \"contracts/AccessControl.sol\":1701:1735  requestMap[msg.sender].isRequested */\n      0x00\n      add\n      0x00\n        /* \"contracts/AccessControl.sol\":1701:1742  requestMap[msg.sender].isRequested = true */\n      0x0100\n      exp\n      dup2\n      sload\n      dup2\n      0xff\n      mul\n      not\n      and\n      swap1\n      dup4\n      iszero\n      iszero\n      mul\n      or\n      swap1\n      sstore\n      pop\n        /* \"contracts/AccessControl.sol\":1787:1802  block.timestamp */\n      timestamp\n        /* \"contracts/AccessControl.sol\":1757:1767  requestMap */\n      0x04\n        /* \"contracts/AccessControl.sol\":1757:1779  requestMap[msg.sender] */\n      0x00\n        /* \"contracts/AccessControl.sol\":1768:1778  msg.sender */\n      caller\n        /* \"contracts/AccessControl.sol\":1757:1779  requestMap[msg.sender] */\n      0xffffffffffffffffffffffffffffffffffffffff\n      and\n      0xffffffffffffffffffffffffffffffffffffffff\n      and\n      dup2\n      mstore\n      0x20\n      add\n      swap1\n      dup2\n      mstore\n      0x20\n      add\n      0x00\n      keccak256\n        /* \"contracts/AccessControl.sol\":1757:1784  requestMap[msg.sender].ToLR */\n      0x01\n      add\n        /* \"contracts/AccessControl.sol\":1757:1802  requestMap[msg.sender].ToLR = block.timestamp */\n      dup2\n      swap1\n      sstore\n      pop\n        /* \"contracts/AccessControl.sol\":1337:1814  if(requestMap[msg.sender].isRequested == true) {\r... */\n    tag_97:\n        /* \"contracts/AccessControl.sol\":1286:1821  function checkRequesterStatus() private {\r... */\n      jump\t// out\n        /* \"#utility.yul\":7:419   */\n    tag_99:\n        /* \"#utility.yul\":85:90   */\n      0x00\n        /* \"#utility.yul\":110:176   */\n      tag_101\n        /* \"#utility.yul\":126:175   */\n      tag_102\n        /* \"#utility.yul\":168:174   */\n      dup5\n        /* \"#utility.yul\":126:175   */\n      tag_103\n      jump\t// in\n    tag_102:\n        /* \"#utility.yul\":110:176   */\n      tag_104\n      jump\t// in\n    tag_101:\n        /* \"#utility.yul\":101:176   */\n      swap1\n      pop\n        /* \"#utility.yul\":199:205   */\n      dup3\n        /* \"#utility.yul\":192:197   */\n      dup2\n        /* \"#utility.yul\":185:206   */\n      mstore\n        /* \"#utility.yul\":237:241   */\n      0x20\n        /* \"#utility.yul\":230:235   */\n      dup2\n        /* \"#utility.yul\":226:242   */\n      add\n        /* \"#utility.yul\":275:278   */\n      dup5\n        /* \"#utility.yul\":266:272   */\n      dup5\n        /* \"#utility.yul\":261:264   */\n      dup5\n        /* \"#utility.yul\":257:273   */\n      add\n        /* \"#utility.yul\":254:279   */\n      gt\n        /* \"#utility.yul\":251:363   */\n      iszero\n      tag_105\n      jumpi\n        /* \"#utility.yul\":282:361   */\n      tag_106\n      tag_107\n      jump\t// in\n    tag_106:\n        /* \"#utility.yul\":251:363   */\n    tag_105:\n        /* \"#utility.yul\":372:413   */\n      tag_108\n        /* \"#utility.yul\":406:412   */\n      dup5\n        /* \"#utility.yul\":401:404   */\n      dup3\n        /* \"#utility.yul\":396:399   */\n      dup6\n        /* \"#utility.yul\":372:413   */\n      tag_109\n      jump\t// in\n    tag_108:\n        /* \"#utility.yul\":91:419   */\n      pop\n        /* \"#utility.yul\":7:419   */\n      swap4\n      swap3\n      pop\n      pop\n      pop\n      jump\t// out\n        /* \"#utility.yul\":425:846   */\n    tag_110:\n        /* \"#utility.yul\":514:519   */\n      0x00\n        /* \"#utility.yul\":539:605   */\n      tag_112\n        /* \"#utility.yul\":555:604   */\n      tag_113\n        /* \"#utility.yul\":597:603   */\n      dup5\n        /* \"#utility.yul\":555:604   */\n      tag_103\n      jump\t// in\n    tag_113:\n        /* \"#utility.yul\":539:605   */\n      tag_104\n      jump\t// in\n    tag_112:\n        /* \"#utility.yul\":530:605   */\n      swap1\n      pop\n        /* \"#utility.yul\":628:634   */\n      dup3\n        /* \"#utility.yul\":621:626   */\n      dup2\n        /* \"#utility.yul\":614:635   */\n      mstore\n        /* \"#utility.yul\":666:670   */\n      0x20\n        /* \"#utility.yul\":659:664   */\n      dup2\n        /* \"#utility.yul\":655:671   */\n      add\n        /* \"#utility.yul\":704:707   */\n      dup5\n        /* \"#utility.yul\":695:701   */\n      dup5\n        /* \"#utility.yul\":690:693   */\n      dup5\n        /* \"#utility.yul\":686:702   */\n      add\n        /* \"#utility.yul\":683:708   */\n      gt\n        /* \"#utility.yul\":680:792   */\n      iszero\n      tag_114\n      jumpi\n        /* \"#utility.yul\":711:790   */\n      tag_115\n      tag_107\n      jump\t// in\n    tag_115:\n        /* \"#utility.yul\":680:792   */\n    tag_114:\n        /* \"#utility.yul\":801:840   */\n      tag_116\n        /* \"#utility.yul\":833:839   */\n      dup5\n        /* \"#utility.yul\":828:831   */\n      dup3\n        /* \"#utility.yul\":823:826   */\n      dup6\n        /* \"#utility.yul\":801:840   */\n      tag_117\n      jump\t// in\n    tag_116:\n        /* \"#utility.yul\":520:846   */\n      pop\n        /* \"#utility.yul\":425:846   */\n      swap4\n      swap3\n      pop\n      pop\n      pop\n      jump\t// out\n        /* \"#utility.yul\":852:991   */\n    tag_118:\n        /* \"#utility.yul\":898:903   */\n      0x00\n        /* \"#utility.yul\":936:942   */\n      dup2\n        /* \"#utility.yul\":923:943   */\n      calldataload\n        /* \"#utility.yul\":914:943   */\n      swap1\n      pop\n        /* \"#utility.yul\":952:985   */\n      tag_120\n        /* \"#utility.yul\":979:984   */\n      dup2\n        /* \"#utility.yul\":952:985   */\n      tag_121\n      jump\t// in\n    tag_120:\n        /* \"#utility.yul\":852:991   */\n      swap3\n      swap2\n      pop\n      pop\n      jump\t// out\n        /* \"#utility.yul\":997:1134   */\n    tag_122:\n        /* \"#utility.yul\":1051:1056   */\n      0x00\n        /* \"#utility.yul\":1082:1088   */\n      dup2\n        /* \"#utility.yul\":1076:1089   */\n      mload\n        /* \"#utility.yul\":1067:1089   */\n      swap1\n      pop\n        /* \"#utility.yul\":1098:1128   */\n      tag_124\n        /* \"#utility.yul\":1122:1127   */\n      dup2\n        /* \"#utility.yul\":1098:1128   */\n      tag_125\n      jump\t// in\n    tag_124:\n        /* \"#utility.yul\":997:1134   */\n      swap3\n      swap2\n      pop\n      pop\n      jump\t// out\n        /* \"#utility.yul\":1154:1494   */\n    tag_126:\n        /* \"#utility.yul\":1210:1215   */\n      0x00\n        /* \"#utility.yul\":1259:1262   */\n      dup3\n        /* \"#utility.yul\":1252:1256   */\n      0x1f\n        /* \"#utility.yul\":1244:1250   */\n      dup4\n        /* \"#utility.yul\":1240:1257   */\n      add\n        /* \"#utility.yul\":1236:1263   */\n      slt\n        /* \"#utility.yul\":1226:1348   */\n      tag_128\n      jumpi\n        /* \"#utility.yul\":1267:1346   */\n      tag_129\n      tag_130\n      jump\t// in\n    tag_129:\n        /* \"#utility.yul\":1226:1348   */\n    tag_128:\n        /* \"#utility.yul\":1384:1390   */\n      dup2\n        /* \"#utility.yul\":1371:1391   */\n      calldataload\n        /* \"#utility.yul\":1409:1488   */\n      tag_131\n        /* \"#utility.yul\":1484:1487   */\n      dup5\n        /* \"#utility.yul\":1476:1482   */\n      dup3\n        /* \"#utility.yul\":1469:1473   */\n      0x20\n        /* \"#utility.yul\":1461:1467   */\n      dup7\n        /* \"#utility.yul\":1457:1474   */\n      add\n        /* \"#utility.yul\":1409:1488   */\n      tag_99\n      jump\t// in\n    tag_131:\n        /* \"#utility.yul\":1400:1488   */\n      swap2\n      pop\n        /* \"#utility.yul\":1216:1494   */\n      pop\n        /* \"#utility.yul\":1154:1494   */\n      swap3\n      swap2\n      pop\n      pop\n      jump\t// out\n        /* \"#utility.yul\":1514:1869   */\n    tag_132:\n        /* \"#utility.yul\":1581:1586   */\n      0x00\n        /* \"#utility.yul\":1630:1633   */\n      dup3\n        /* \"#utility.yul\":1623:1627   */\n      0x1f\n        /* \"#utility.yul\":1615:1621   */\n      dup4\n        /* \"#utility.yul\":1611:1628   */\n      add\n        /* \"#utility.yul\":1607:1634   */\n      slt\n        /* \"#utility.yul\":1597:1719   */\n      tag_134\n      jumpi\n        /* \"#utility.yul\":1638:1717   */\n      tag_135\n      tag_130\n      jump\t// in\n    tag_135:\n        /* \"#utility.yul\":1597:1719   */\n    tag_134:\n        /* \"#utility.yul\":1748:1754   */\n      dup2\n        /* \"#utility.yul\":1742:1755   */\n      mload\n        /* \"#utility.yul\":1773:1863   */\n      tag_136\n        /* \"#utility.yul\":1859:1862   */\n      dup5\n        /* \"#utility.yul\":1851:1857   */\n      dup3\n        /* \"#utility.yul\":1844:1848   */\n      0x20\n        /* \"#utility.yul\":1836:1842   */\n      dup7\n        /* \"#utility.yul\":1832:1849   */\n      add\n        /* \"#utility.yul\":1773:1863   */\n      tag_110\n      jump\t// in\n    tag_136:\n        /* \"#utility.yul\":1764:1863   */\n      swap2\n      pop\n        /* \"#utility.yul\":1587:1869   */\n      pop\n        /* \"#utility.yul\":1514:1869   */\n      swap3\n      swap2\n      pop\n      pop\n      jump\t// out\n        /* \"#utility.yul\":1875:2018   */\n    tag_137:\n        /* \"#utility.yul\":1932:1937   */\n      0x00\n        /* \"#utility.yul\":1963:1969   */\n      dup2\n        /* \"#utility.yul\":1957:1970   */\n      mload\n        /* \"#utility.yul\":1948:1970   */\n      swap1\n      pop\n        /* \"#utility.yul\":1979:2012   */\n      tag_139\n        /* \"#utility.yul\":2006:2011   */\n      dup2\n        /* \"#utility.yul\":1979:2012   */\n      tag_140\n      jump\t// in\n    tag_139:\n        /* \"#utility.yul\":1875:2018   */\n      swap3\n      swap2\n      pop\n      pop\n      jump\t// out\n        /* \"#utility.yul\":2024:2498   */\n    tag_25:\n        /* \"#utility.yul\":2092:2098   */\n      0x00\n        /* \"#utility.yul\":2100:2106   */\n      dup1\n        /* \"#utility.yul\":2149:2151   */\n      0x40\n        /* \"#utility.yul\":2137:2146   */\n      dup4\n        /* \"#utility.yul\":2128:2135   */\n      dup6\n        /* \"#utility.yul\":2124:2147   */\n      sub\n        /* \"#utility.yul\":2120:2152   */\n      slt\n        /* \"#utility.yul\":2117:2236   */\n      iszero\n      tag_142\n      jumpi\n        /* \"#utility.yul\":2155:2234   */\n      tag_143\n      tag_144\n      jump\t// in\n    tag_143:\n        /* \"#utility.yul\":2117:2236   */\n    tag_142:\n        /* \"#utility.yul\":2275:2276   */\n      0x00\n        /* \"#utility.yul\":2300:2353   */\n      tag_145\n        /* \"#utility.yul\":2345:2352   */\n      dup6\n        /* \"#utility.yul\":2336:2342   */\n      dup3\n        /* \"#utility.yul\":2325:2334   */\n      dup7\n        /* \"#utility.yul\":2321:2343   */\n      add\n        /* \"#utility.yul\":2300:2353   */\n      tag_118\n      jump\t// in\n    tag_145:\n        /* \"#utility.yul\":2290:2353   */\n      swap3\n      pop\n        /* \"#utility.yul\":2246:2363   */\n      pop\n        /* \"#utility.yul\":2402:2404   */\n      0x20\n        /* \"#utility.yul\":2428:2481   */\n      tag_146\n        /* \"#utility.yul\":2473:2480   */\n      dup6\n        /* \"#utility.yul\":2464:2470   */\n      dup3\n        /* \"#utility.yul\":2453:2462   */\n      dup7\n        /* \"#utility.yul\":2449:2471   */\n      add\n        /* \"#utility.yul\":2428:2481   */\n      tag_118\n      jump\t// in\n    tag_146:\n        /* \"#utility.yul\":2418:2481   */\n      swap2\n      pop\n        /* \"#utility.yul\":2373:2491   */\n      pop\n        /* \"#utility.yul\":2024:2498   */\n      swap3\n      pop\n      swap3\n      swap1\n      pop\n      jump\t// out\n        /* \"#utility.yul\":2504:3158   */\n    tag_15:\n        /* \"#utility.yul\":2582:2588   */\n      0x00\n        /* \"#utility.yul\":2590:2596   */\n      dup1\n        /* \"#utility.yul\":2639:2641   */\n      0x40\n        /* \"#utility.yul\":2627:2636   */\n      dup4\n        /* \"#utility.yul\":2618:2625   */\n      dup6\n        /* \"#utility.yul\":2614:2637   */\n      sub\n        /* \"#utility.yul\":2610:2642   */\n      slt\n        /* \"#utility.yul\":2607:2726   */\n      iszero\n      tag_148\n      jumpi\n        /* \"#utility.yul\":2645:2724   */\n      tag_149\n      tag_144\n      jump\t// in\n    tag_149:\n        /* \"#utility.yul\":2607:2726   */\n    tag_148:\n        /* \"#utility.yul\":2765:2766   */\n      0x00\n        /* \"#utility.yul\":2790:2843   */\n      tag_150\n        /* \"#utility.yul\":2835:2842   */\n      dup6\n        /* \"#utility.yul\":2826:2832   */\n      dup3\n        /* \"#utility.yul\":2815:2824   */\n      dup7\n        /* \"#utility.yul\":2811:2833   */\n      add\n        /* \"#utility.yul\":2790:2843   */\n      tag_118\n      jump\t// in\n    tag_150:\n        /* \"#utility.yul\":2780:2843   */\n      swap3\n      pop\n        /* \"#utility.yul\":2736:2853   */\n      pop\n        /* \"#utility.yul\":2920:2922   */\n      0x20\n        /* \"#utility.yul\":2909:2918   */\n      dup4\n        /* \"#utility.yul\":2905:2923   */\n      add\n        /* \"#utility.yul\":2892:2924   */\n      calldataload\n        /* \"#utility.yul\":2951:2969   */\n      0xffffffffffffffff\n        /* \"#utility.yul\":2943:2949   */\n      dup2\n        /* \"#utility.yul\":2940:2970   */\n      gt\n        /* \"#utility.yul\":2937:3054   */\n      iszero\n      tag_151\n      jumpi\n        /* \"#utility.yul\":2973:3052   */\n      tag_152\n      tag_153\n      jump\t// in\n    tag_152:\n        /* \"#utility.yul\":2937:3054   */\n    tag_151:\n        /* \"#utility.yul\":3078:3141   */\n      tag_154\n        /* \"#utility.yul\":3133:3140   */\n      dup6\n        /* \"#utility.yul\":3124:3130   */\n      dup3\n        /* \"#utility.yul\":3113:3122   */\n      dup7\n        /* \"#utility.yul\":3109:3131   */\n      add\n        /* \"#utility.yul\":3078:3141   */\n      tag_126\n      jump\t// in\n    tag_154:\n        /* \"#utility.yul\":3068:3141   */\n      swap2\n      pop\n        /* \"#utility.yul\":2863:3151   */\n      pop\n        /* \"#utility.yul\":2504:3158   */\n      swap3\n      pop\n      swap3\n      swap1\n      pop\n      jump\t// out\n        /* \"#utility.yul\":3164:3673   */\n    tag_9:\n        /* \"#utility.yul\":3233:3239   */\n      0x00\n        /* \"#utility.yul\":3282:3284   */\n      0x20\n        /* \"#utility.yul\":3270:3279   */\n      dup3\n        /* \"#utility.yul\":3261:3268   */\n      dup5\n        /* \"#utility.yul\":3257:3280   */\n      sub\n        /* \"#utility.yul\":3253:3285   */\n      slt\n        /* \"#utility.yul\":3250:3369   */\n      iszero\n      tag_156\n      jumpi\n        /* \"#utility.yul\":3288:3367   */\n      tag_157\n      tag_144\n      jump\t// in\n    tag_157:\n        /* \"#utility.yul\":3250:3369   */\n    tag_156:\n        /* \"#utility.yul\":3436:3437   */\n      0x00\n        /* \"#utility.yul\":3425:3434   */\n      dup3\n        /* \"#utility.yul\":3421:3438   */\n      add\n        /* \"#utility.yul\":3408:3439   */\n      calldataload\n        /* \"#utility.yul\":3466:3484   */\n      0xffffffffffffffff\n        /* \"#utility.yul\":3458:3464   */\n      dup2\n        /* \"#utility.yul\":3455:3485   */\n      gt\n        /* \"#utility.yul\":3452:3569   */\n      iszero\n      tag_158\n      jumpi\n        /* \"#utility.yul\":3488:3567   */\n      tag_159\n      tag_153\n      jump\t// in\n    tag_159:\n        /* \"#utility.yul\":3452:3569   */\n    tag_158:\n        /* \"#utility.yul\":3593:3656   */\n      tag_160\n        /* \"#utility.yul\":3648:3655   */\n      dup5\n        /* \"#utility.yul\":3639:3645   */\n      dup3\n        /* \"#utility.yul\":3628:3637   */\n      dup6\n        /* \"#utility.yul\":3624:3646   */\n      add\n        /* \"#utility.yul\":3593:3656   */\n      tag_126\n      jump\t// in\n    tag_160:\n        /* \"#utility.yul\":3583:3656   */\n      swap2\n      pop\n        /* \"#utility.yul\":3379:3666   */\n      pop\n        /* \"#utility.yul\":3164:3673   */\n      swap3\n      swap2\n      pop\n      pop\n      jump\t// out\n        /* \"#utility.yul\":3679:4203   */\n    tag_56:\n        /* \"#utility.yul\":3759:3765   */\n      0x00\n        /* \"#utility.yul\":3808:3810   */\n      0x20\n        /* \"#utility.yul\":3796:3805   */\n      dup3\n        /* \"#utility.yul\":3787:3794   */\n      dup5\n        /* \"#utility.yul\":3783:3806   */\n      sub\n        /* \"#utility.yul\":3779:3811   */\n      slt\n        /* \"#utility.yul\":3776:3895   */\n      iszero\n      tag_162\n      jumpi\n        /* \"#utility.yul\":3814:3893   */\n      tag_163\n      tag_144\n      jump\t// in\n    tag_163:\n        /* \"#utility.yul\":3776:3895   */\n    tag_162:\n        /* \"#utility.yul\":3955:3956   */\n      0x00\n        /* \"#utility.yul\":3944:3953   */\n      dup3\n        /* \"#utility.yul\":3940:3957   */\n      add\n        /* \"#utility.yul\":3934:3958   */\n      mload\n        /* \"#utility.yul\":3985:4003   */\n      0xffffffffffffffff\n        /* \"#utility.yul\":3977:3983   */\n      dup2\n        /* \"#utility.yul\":3974:4004   */\n      gt\n        /* \"#utility.yul\":3971:4088   */\n      iszero\n      tag_164\n      jumpi\n        /* \"#utility.yul\":4007:4086   */\n      tag_165\n      tag_153\n      jump\t// in\n    tag_165:\n        /* \"#utility.yul\":3971:4088   */\n    tag_164:\n        /* \"#utility.yul\":4112:4186   */\n      tag_166\n        /* \"#utility.yul\":4178:4185   */\n      dup5\n        /* \"#utility.yul\":4169:4175   */\n      dup3\n        /* \"#utility.yul\":4158:4167   */\n      dup6\n        /* \"#utility.yul\":4154:4176   */\n      add\n        /* \"#utility.yul\":4112:4186   */\n      tag_132\n      jump\t// in\n    tag_166:\n        /* \"#utility.yul\":4102:4186   */\n      swap2\n      pop\n        /* \"#utility.yul\":3905:4196   */\n      pop\n        /* \"#utility.yul\":3679:4203   */\n      swap3\n      swap2\n      pop\n      pop\n      jump\t// out\n        /* \"#utility.yul\":4209:5062   */\n    tag_67:\n        /* \"#utility.yul\":4308:4314   */\n      0x00\n        /* \"#utility.yul\":4316:4322   */\n      dup1\n        /* \"#utility.yul\":4365:4367   */\n      0x40\n        /* \"#utility.yul\":4353:4362   */\n      dup4\n        /* \"#utility.yul\":4344:4351   */\n      dup6\n        /* \"#utility.yul\":4340:4363   */\n      sub\n        /* \"#utility.yul\":4336:4368   */\n      slt\n        /* \"#utility.yul\":4333:4452   */\n      iszero\n      tag_168\n      jumpi\n        /* \"#utility.yul\":4371:4450   */\n      tag_169\n      tag_144\n      jump\t// in\n    tag_169:\n        /* \"#utility.yul\":4333:4452   */\n    tag_168:\n        /* \"#utility.yul\":4512:4513   */\n      0x00\n        /* \"#utility.yul\":4501:4510   */\n      dup4\n        /* \"#utility.yul\":4497:4514   */\n      add\n        /* \"#utility.yul\":4491:4515   */\n      mload\n        /* \"#utility.yul\":4542:4560   */\n      0xffffffffffffffff\n        /* \"#utility.yul\":4534:4540   */\n      dup2\n        /* \"#utility.yul\":4531:4561   */\n      gt\n        /* \"#utility.yul\":4528:4645   */\n      iszero\n      tag_170\n      jumpi\n        /* \"#utility.yul\":4564:4643   */\n      tag_171\n      tag_153\n      jump\t// in\n    tag_171:\n        /* \"#utility.yul\":4528:4645   */\n    tag_170:\n        /* \"#utility.yul\":4669:4743   */\n      tag_172\n        /* \"#utility.yul\":4735:4742   */\n      dup6\n        /* \"#utility.yul\":4726:4732   */\n      dup3\n        /* \"#utility.yul\":4715:4724   */\n      dup7\n        /* \"#utility.yul\":4711:4733   */\n      add\n        /* \"#utility.yul\":4669:4743   */\n      tag_132\n      jump\t// in\n    tag_172:\n        /* \"#utility.yul\":4659:4743   */\n      swap3\n      pop\n        /* \"#utility.yul\":4462:4753   */\n      pop\n        /* \"#utility.yul\":4813:4815   */\n      0x20\n        /* \"#utility.yul\":4802:4811   */\n      dup4\n        /* \"#utility.yul\":4798:4816   */\n      add\n        /* \"#utility.yul\":4792:4817   */\n      mload\n        /* \"#utility.yul\":4844:4862   */\n      0xffffffffffffffff\n        /* \"#utility.yul\":4836:4842   */\n      dup2\n        /* \"#utility.yul\":4833:4863   */\n      gt\n        /* \"#utility.yul\":4830:4947   */\n      iszero\n      tag_173\n      jumpi\n        /* \"#utility.yul\":4866:4945   */\n      tag_174\n      tag_153\n      jump\t// in\n    tag_174:\n        /* \"#utility.yul\":4830:4947   */\n    tag_173:\n        /* \"#utility.yul\":4971:5045   */\n      tag_175\n        /* \"#utility.yul\":5037:5044   */\n      dup6\n        /* \"#utility.yul\":5028:5034   */\n      dup3\n        /* \"#utility.yul\":5017:5026   */\n      dup7\n        /* \"#utility.yul\":5013:5035   */\n      add\n        /* \"#utility.yul\":4971:5045   */\n      tag_132\n      jump\t// in\n    tag_175:\n        /* \"#utility.yul\":4961:5045   */\n      swap2\n      pop\n        /* \"#utility.yul\":4763:5055   */\n      pop\n        /* \"#utility.yul\":4209:5062   */\n      swap3\n      pop\n      swap3\n      swap1\n      pop\n      jump\t// out\n        /* \"#utility.yul\":5068:5569   */\n    tag_40:\n        /* \"#utility.yul\":5144:5150   */\n      0x00\n        /* \"#utility.yul\":5152:5158   */\n      dup1\n        /* \"#utility.yul\":5201:5203   */\n      0x40\n        /* \"#utility.yul\":5189:5198   */\n      dup4\n        /* \"#utility.yul\":5180:5187   */\n      dup6\n        /* \"#utility.yul\":5176:5199   */\n      sub\n        /* \"#utility.yul\":5172:5204   */\n      slt\n        /* \"#utility.yul\":5169:5288   */\n      iszero\n      tag_177\n      jumpi\n        /* \"#utility.yul\":5207:5286   */\n      tag_178\n      tag_144\n      jump\t// in\n    tag_178:\n        /* \"#utility.yul\":5169:5288   */\n    tag_177:\n        /* \"#utility.yul\":5327:5328   */\n      0x00\n        /* \"#utility.yul\":5352:5416   */\n      tag_179\n        /* \"#utility.yul\":5408:5415   */\n      dup6\n        /* \"#utility.yul\":5399:5405   */\n      dup3\n        /* \"#utility.yul\":5388:5397   */\n      dup7\n        /* \"#utility.yul\":5384:5406   */\n      add\n        /* \"#utility.yul\":5352:5416   */\n      tag_137\n      jump\t// in\n    tag_179:\n        /* \"#utility.yul\":5342:5416   */\n      swap3\n      pop\n        /* \"#utility.yul\":5298:5426   */\n      pop\n        /* \"#utility.yul\":5465:5467   */\n      0x20\n        /* \"#utility.yul\":5491:5552   */\n      tag_180\n        /* \"#utility.yul\":5544:5551   */\n      dup6\n        /* \"#utility.yul\":5535:5541   */\n      dup3\n        /* \"#utility.yul\":5524:5533   */\n      dup7\n        /* \"#utility.yul\":5520:5542   */\n      add\n        /* \"#utility.yul\":5491:5552   */\n      tag_122\n      jump\t// in\n    tag_180:\n        /* \"#utility.yul\":5481:5552   */\n      swap2\n      pop\n        /* \"#utility.yul\":5436:5562   */\n      pop\n        /* \"#utility.yul\":5068:5569   */\n      swap3\n      pop\n      swap3\n      swap1\n      pop\n      jump\t// out\n        /* \"#utility.yul\":5575:5693   */\n    tag_181:\n        /* \"#utility.yul\":5662:5686   */\n      tag_183\n        /* \"#utility.yul\":5680:5685   */\n      dup2\n        /* \"#utility.yul\":5662:5686   */\n      tag_184\n      jump\t// in\n    tag_183:\n        /* \"#utility.yul\":5657:5660   */\n      dup3\n        /* \"#utility.yul\":5650:5687   */\n      mstore\n        /* \"#utility.yul\":5575:5693   */\n      pop\n      pop\n      jump\t// out\n        /* \"#utility.yul\":5699:5808   */\n    tag_185:\n        /* \"#utility.yul\":5780:5801   */\n      tag_187\n        /* \"#utility.yul\":5795:5800   */\n      dup2\n        /* \"#utility.yul\":5780:5801   */\n      tag_188\n      jump\t// in\n    tag_187:\n        /* \"#utility.yul\":5775:5778   */\n      dup3\n        /* \"#utility.yul\":5768:5802   */\n      mstore\n        /* \"#utility.yul\":5699:5808   */\n      pop\n      pop\n      jump\t// out\n        /* \"#utility.yul\":5814:5929   */\n    tag_189:\n        /* \"#utility.yul\":5899:5922   */\n      tag_191\n        /* \"#utility.yul\":5916:5921   */\n      dup2\n        /* \"#utility.yul\":5899:5922   */\n      tag_192\n      jump\t// in\n    tag_191:\n        /* \"#utility.yul\":5894:5897   */\n      dup3\n        /* \"#utility.yul\":5887:5923   */\n      mstore\n        /* \"#utility.yul\":5814:5929   */\n      pop\n      pop\n      jump\t// out\n        /* \"#utility.yul\":5935:6299   */\n    tag_193:\n        /* \"#utility.yul\":6023:6026   */\n      0x00\n        /* \"#utility.yul\":6051:6090   */\n      tag_195\n        /* \"#utility.yul\":6084:6089   */\n      dup3\n        /* \"#utility.yul\":6051:6090   */\n      tag_196\n      jump\t// in\n    tag_195:\n        /* \"#utility.yul\":6106:6177   */\n      tag_197\n        /* \"#utility.yul\":6170:6176   */\n      dup2\n        /* \"#utility.yul\":6165:6168   */\n      dup6\n        /* \"#utility.yul\":6106:6177   */\n      tag_198\n      jump\t// in\n    tag_197:\n        /* \"#utility.yul\":6099:6177   */\n      swap4\n      pop\n        /* \"#utility.yul\":6186:6238   */\n      tag_199\n        /* \"#utility.yul\":6231:6237   */\n      dup2\n        /* \"#utility.yul\":6226:6229   */\n      dup6\n        /* \"#utility.yul\":6219:6223   */\n      0x20\n        /* \"#utility.yul\":6212:6217   */\n      dup7\n        /* \"#utility.yul\":6208:6224   */\n      add\n        /* \"#utility.yul\":6186:6238   */\n      tag_117\n      jump\t// in\n    tag_199:\n        /* \"#utility.yul\":6263:6292   */\n      tag_200\n        /* \"#utility.yul\":6285:6291   */\n      dup2\n        /* \"#utility.yul\":6263:6292   */\n      tag_201\n      jump\t// in\n    tag_200:\n        /* \"#utility.yul\":6258:6261   */\n      dup5\n        /* \"#utility.yul\":6254:6293   */\n      add\n        /* \"#utility.yul\":6247:6293   */\n      swap2\n      pop\n        /* \"#utility.yul\":6027:6299   */\n      pop\n        /* \"#utility.yul\":5935:6299   */\n      swap3\n      swap2\n      pop\n      pop\n      jump\t// out\n        /* \"#utility.yul\":6305:6682   */\n    tag_202:\n        /* \"#utility.yul\":6411:6414   */\n      0x00\n        /* \"#utility.yul\":6439:6478   */\n      tag_204\n        /* \"#utility.yul\":6472:6477   */\n      dup3\n        /* \"#utility.yul\":6439:6478   */\n      tag_196\n      jump\t// in\n    tag_204:\n        /* \"#utility.yul\":6494:6583   */\n      tag_205\n        /* \"#utility.yul\":6576:6582   */\n      dup2\n        /* \"#utility.yul\":6571:6574   */\n      dup6\n        /* \"#utility.yul\":6494:6583   */\n      tag_206\n      jump\t// in\n    tag_205:\n        /* \"#utility.yul\":6487:6583   */\n      swap4\n      pop\n        /* \"#utility.yul\":6592:6644   */\n      tag_207\n        /* \"#utility.yul\":6637:6643   */\n      dup2\n        /* \"#utility.yul\":6632:6635   */\n      dup6\n        /* \"#utility.yul\":6625:6629   */\n      0x20\n        /* \"#utility.yul\":6618:6623   */\n      dup7\n        /* \"#utility.yul\":6614:6630   */\n      add\n        /* \"#utility.yul\":6592:6644   */\n      tag_117\n      jump\t// in\n    tag_207:\n        /* \"#utility.yul\":6669:6675   */\n      dup1\n        /* \"#utility.yul\":6664:6667   */\n      dup5\n        /* \"#utility.yul\":6660:6676   */\n      add\n        /* \"#utility.yul\":6653:6676   */\n      swap2\n      pop\n        /* \"#utility.yul\":6415:6682   */\n      pop\n        /* \"#utility.yul\":6305:6682   */\n      swap3\n      swap2\n      pop\n      pop\n      jump\t// out\n        /* \"#utility.yul\":6688:7088   */\n    tag_208:\n        /* \"#utility.yul\":6848:6851   */\n      0x00\n        /* \"#utility.yul\":6869:6953   */\n      tag_210\n        /* \"#utility.yul\":6951:6952   */\n      0x05\n        /* \"#utility.yul\":6946:6949   */\n      dup4\n        /* \"#utility.yul\":6869:6953   */\n      tag_206\n      jump\t// in\n    tag_210:\n        /* \"#utility.yul\":6862:6953   */\n      swap2\n      pop\n        /* \"#utility.yul\":6962:7055   */\n      tag_211\n        /* \"#utility.yul\":7051:7054   */\n      dup3\n        /* \"#utility.yul\":6962:7055   */\n      tag_212\n      jump\t// in\n    tag_211:\n        /* \"#utility.yul\":7080:7081   */\n      0x05\n        /* \"#utility.yul\":7075:7078   */\n      dup3\n        /* \"#utility.yul\":7071:7082   */\n      add\n        /* \"#utility.yul\":7064:7082   */\n      swap1\n      pop\n        /* \"#utility.yul\":6688:7088   */\n      swap2\n      swap1\n      pop\n      jump\t// out\n        /* \"#utility.yul\":7094:7494   */\n    tag_213:\n        /* \"#utility.yul\":7254:7257   */\n      0x00\n        /* \"#utility.yul\":7275:7359   */\n      tag_215\n        /* \"#utility.yul\":7357:7358   */\n      0x07\n        /* \"#utility.yul\":7352:7355   */\n      dup4\n        /* \"#utility.yul\":7275:7359   */\n      tag_206\n      jump\t// in\n    tag_215:\n        /* \"#utility.yul\":7268:7359   */\n      swap2\n      pop\n        /* \"#utility.yul\":7368:7461   */\n      tag_216\n        /* \"#utility.yul\":7457:7460   */\n      dup3\n        /* \"#utility.yul\":7368:7461   */\n      tag_217\n      jump\t// in\n    tag_216:\n        /* \"#utility.yul\":7486:7487   */\n      0x07\n        /* \"#utility.yul\":7481:7484   */\n      dup3\n        /* \"#utility.yul\":7477:7488   */\n      add\n        /* \"#utility.yul\":7470:7488   */\n      swap1\n      pop\n        /* \"#utility.yul\":7094:7494   */\n      swap2\n      swap1\n      pop\n      jump\t// out\n        /* \"#utility.yul\":7500:7866   */\n    tag_218:\n        /* \"#utility.yul\":7642:7645   */\n      0x00\n        /* \"#utility.yul\":7663:7730   */\n      tag_220\n        /* \"#utility.yul\":7727:7729   */\n      0x0c\n        /* \"#utility.yul\":7722:7725   */\n      dup4\n        /* \"#utility.yul\":7663:7730   */\n      tag_198\n      jump\t// in\n    tag_220:\n        /* \"#utility.yul\":7656:7730   */\n      swap2\n      pop\n        /* \"#utility.yul\":7739:7832   */\n      tag_221\n        /* \"#utility.yul\":7828:7831   */\n      dup3\n        /* \"#utility.yul\":7739:7832   */\n      tag_222\n      jump\t// in\n    tag_221:\n        /* \"#utility.yul\":7857:7859   */\n      0x20\n        /* \"#utility.yul\":7852:7855   */\n      dup3\n        /* \"#utility.yul\":7848:7860   */\n      add\n        /* \"#utility.yul\":7841:7860   */\n      swap1\n      pop\n        /* \"#utility.yul\":7500:7866   */\n      swap2\n      swap1\n      pop\n      jump\t// out\n        /* \"#utility.yul\":7872:8272   */\n    tag_223:\n        /* \"#utility.yul\":8032:8035   */\n      0x00\n        /* \"#utility.yul\":8053:8137   */\n      tag_225\n        /* \"#utility.yul\":8135:8136   */\n      0x07\n        /* \"#utility.yul\":8130:8133   */\n      dup4\n        /* \"#utility.yul\":8053:8137   */\n      tag_206\n      jump\t// in\n    tag_225:\n        /* \"#utility.yul\":8046:8137   */\n      swap2\n      pop\n        /* \"#utility.yul\":8146:8239   */\n      tag_226\n        /* \"#utility.yul\":8235:8238   */\n      dup3\n        /* \"#utility.yul\":8146:8239   */\n      tag_227\n      jump\t// in\n    tag_226:\n        /* \"#utility.yul\":8264:8265   */\n      0x07\n        /* \"#utility.yul\":8259:8262   */\n      dup3\n        /* \"#utility.yul\":8255:8266   */\n      add\n        /* \"#utility.yul\":8248:8266   */\n      swap1\n      pop\n        /* \"#utility.yul\":7872:8272   */\n      swap2\n      swap1\n      pop\n      jump\t// out\n        /* \"#utility.yul\":8278:8644   */\n    tag_228:\n        /* \"#utility.yul\":8420:8423   */\n      0x00\n        /* \"#utility.yul\":8441:8508   */\n      tag_230\n        /* \"#utility.yul\":8505:8507   */\n      0x13\n        /* \"#utility.yul\":8500:8503   */\n      dup4\n        /* \"#utility.yul\":8441:8508   */\n      tag_198\n      jump\t// in\n    tag_230:\n        /* \"#utility.yul\":8434:8508   */\n      swap2\n      pop\n        /* \"#utility.yul\":8517:8610   */\n      tag_231\n        /* \"#utility.yul\":8606:8609   */\n      dup3\n        /* \"#utility.yul\":8517:8610   */\n      tag_232\n      jump\t// in\n    tag_231:\n        /* \"#utility.yul\":8635:8637   */\n      0x20\n        /* \"#utility.yul\":8630:8633   */\n      dup3\n        /* \"#utility.yul\":8626:8638   */\n      add\n        /* \"#utility.yul\":8619:8638   */\n      swap1\n      pop\n        /* \"#utility.yul\":8278:8644   */\n      swap2\n      swap1\n      pop\n      jump\t// out\n        /* \"#utility.yul\":8650:9050   */\n    tag_233:\n        /* \"#utility.yul\":8810:8813   */\n      0x00\n        /* \"#utility.yul\":8831:8915   */\n      tag_235\n        /* \"#utility.yul\":8913:8914   */\n      0x04\n        /* \"#utility.yul\":8908:8911   */\n      dup4\n        /* \"#utility.yul\":8831:8915   */\n      tag_206\n      jump\t// in\n    tag_235:\n        /* \"#utility.yul\":8824:8915   */\n      swap2\n      pop\n        /* \"#utility.yul\":8924:9017   */\n      tag_236\n        /* \"#utility.yul\":9013:9016   */\n      dup3\n        /* \"#utility.yul\":8924:9017   */\n      tag_237\n      jump\t// in\n    tag_236:\n        /* \"#utility.yul\":9042:9043   */\n      0x04\n        /* \"#utility.yul\":9037:9040   */\n      dup3\n        /* \"#utility.yul\":9033:9044   */\n      add\n        /* \"#utility.yul\":9026:9044   */\n      swap1\n      pop\n        /* \"#utility.yul\":8650:9050   */\n      swap2\n      swap1\n      pop\n      jump\t// out\n        /* \"#utility.yul\":9056:9456   */\n    tag_238:\n        /* \"#utility.yul\":9216:9219   */\n      0x00\n        /* \"#utility.yul\":9237:9321   */\n      tag_240\n        /* \"#utility.yul\":9319:9320   */\n      0x04\n        /* \"#utility.yul\":9314:9317   */\n      dup4\n        /* \"#utility.yul\":9237:9321   */\n      tag_206\n      jump\t// in\n    tag_240:\n        /* \"#utility.yul\":9230:9321   */\n      swap2\n      pop\n        /* \"#utility.yul\":9330:9423   */\n      tag_241\n        /* \"#utility.yul\":9419:9422   */\n      dup3\n        /* \"#utility.yul\":9330:9423   */\n      tag_242\n      jump\t// in\n    tag_241:\n        /* \"#utility.yul\":9448:9449   */\n      0x04\n        /* \"#utility.yul\":9443:9446   */\n      dup3\n        /* \"#utility.yul\":9439:9450   */\n      add\n        /* \"#utility.yul\":9432:9450   */\n      swap1\n      pop\n        /* \"#utility.yul\":9056:9456   */\n      swap2\n      swap1\n      pop\n      jump\t// out\n        /* \"#utility.yul\":9462:9828   */\n    tag_243:\n        /* \"#utility.yul\":9604:9607   */\n      0x00\n        /* \"#utility.yul\":9625:9692   */\n      tag_245\n        /* \"#utility.yul\":9689:9691   */\n      0x14\n        /* \"#utility.yul\":9684:9687   */\n      dup4\n        /* \"#utility.yul\":9625:9692   */\n      tag_198\n      jump\t// in\n    tag_245:\n        /* \"#utility.yul\":9618:9692   */\n      swap2\n      pop\n        /* \"#utility.yul\":9701:9794   */\n      tag_246\n        /* \"#utility.yul\":9790:9793   */\n      dup3\n        /* \"#utility.yul\":9701:9794   */\n      tag_247\n      jump\t// in\n    tag_246:\n        /* \"#utility.yul\":9819:9821   */\n      0x20\n        /* \"#utility.yul\":9814:9817   */\n      dup3\n        /* \"#utility.yul\":9810:9822   */\n      add\n        /* \"#utility.yul\":9803:9822   */\n      swap1\n      pop\n        /* \"#utility.yul\":9462:9828   */\n      swap2\n      swap1\n      pop\n      jump\t// out\n        /* \"#utility.yul\":9834:10200   */\n    tag_248:\n        /* \"#utility.yul\":9976:9979   */\n      0x00\n        /* \"#utility.yul\":9997:10064   */\n      tag_250\n        /* \"#utility.yul\":10061:10063   */\n      0x20\n        /* \"#utility.yul\":10056:10059   */\n      dup4\n        /* \"#utility.yul\":9997:10064   */\n      tag_198\n      jump\t// in\n    tag_250:\n        /* \"#utility.yul\":9990:10064   */\n      swap2\n      pop\n        /* \"#utility.yul\":10073:10166   */\n      tag_251\n        /* \"#utility.yul\":10162:10165   */\n      dup3\n        /* \"#utility.yul\":10073:10166   */\n      tag_252\n      jump\t// in\n    tag_251:\n        /* \"#utility.yul\":10191:10193   */\n      0x20\n        /* \"#utility.yul\":10186:10189   */\n      dup3\n        /* \"#utility.yul\":10182:10194   */\n      add\n        /* \"#utility.yul\":10175:10194   */\n      swap1\n      pop\n        /* \"#utility.yul\":9834:10200   */\n      swap2\n      swap1\n      pop\n      jump\t// out\n        /* \"#utility.yul\":10206:10606   */\n    tag_253:\n        /* \"#utility.yul\":10366:10369   */\n      0x00\n        /* \"#utility.yul\":10387:10471   */\n      tag_255\n        /* \"#utility.yul\":10469:10470   */\n      0x04\n        /* \"#utility.yul\":10464:10467   */\n      dup4\n        /* \"#utility.yul\":10387:10471   */\n      tag_206\n      jump\t// in\n    tag_255:\n        /* \"#utility.yul\":10380:10471   */\n      swap2\n      pop\n        /* \"#utility.yul\":10480:10573   */\n      tag_256\n        /* \"#utility.yul\":10569:10572   */\n      dup3\n        /* \"#utility.yul\":10480:10573   */\n      tag_257\n      jump\t// in\n    tag_256:\n        /* \"#utility.yul\":10598:10599   */\n      0x04\n        /* \"#utility.yul\":10593:10596   */\n      dup3\n        /* \"#utility.yul\":10589:10600   */\n      add\n        /* \"#utility.yul\":10582:10600   */\n      swap1\n      pop\n        /* \"#utility.yul\":10206:10606   */\n      swap2\n      swap1\n      pop\n      jump\t// out\n        /* \"#utility.yul\":10612:10730   */\n    tag_258:\n        /* \"#utility.yul\":10699:10723   */\n      tag_260\n        /* \"#utility.yul\":10717:10722   */\n      dup2\n        /* \"#utility.yul\":10699:10723   */\n      tag_261\n      jump\t// in\n    tag_260:\n        /* \"#utility.yul\":10694:10697   */\n      dup3\n        /* \"#utility.yul\":10687:10724   */\n      mstore\n        /* \"#utility.yul\":10612:10730   */\n      pop\n      pop\n      jump\t// out\n        /* \"#utility.yul\":10736:11011   */\n    tag_29:\n        /* \"#utility.yul\":10868:10871   */\n      0x00\n        /* \"#utility.yul\":10890:10985   */\n      tag_263\n        /* \"#utility.yul\":10981:10984   */\n      dup3\n        /* \"#utility.yul\":10972:10978   */\n      dup5\n        /* \"#utility.yul\":10890:10985   */\n      tag_202\n      jump\t// in\n    tag_263:\n        /* \"#utility.yul\":10883:10985   */\n      swap2\n      pop\n        /* \"#utility.yul\":11002:11005   */\n      dup2\n        /* \"#utility.yul\":10995:11005   */\n      swap1\n      pop\n        /* \"#utility.yul\":10736:11011   */\n      swap3\n      swap2\n      pop\n      pop\n      jump\t// out\n        /* \"#utility.yul\":11017:11398   */\n    tag_81:\n        /* \"#utility.yul\":11202:11205   */\n      0x00\n        /* \"#utility.yul\":11224:11372   */\n      tag_265\n        /* \"#utility.yul\":11368:11371   */\n      dup3\n        /* \"#utility.yul\":11224:11372   */\n      tag_208\n      jump\t// in\n    tag_265:\n        /* \"#utility.yul\":11217:11372   */\n      swap2\n      pop\n        /* \"#utility.yul\":11389:11392   */\n      dup2\n        /* \"#utility.yul\":11382:11392   */\n      swap1\n      pop\n        /* \"#utility.yul\":11017:11398   */\n      swap2\n      swap1\n      pop\n      jump\t// out\n        /* \"#utility.yul\":11404:11785   */\n    tag_87:\n        /* \"#utility.yul\":11589:11592   */\n      0x00\n        /* \"#utility.yul\":11611:11759   */\n      tag_267\n        /* \"#utility.yul\":11755:11758   */\n      dup3\n        /* \"#utility.yul\":11611:11759   */\n      tag_213\n      jump\t// in\n    tag_267:\n        /* \"#utility.yul\":11604:11759   */\n      swap2\n      pop\n        /* \"#utility.yul\":11776:11779   */\n      dup2\n        /* \"#utility.yul\":11769:11779   */\n      swap1\n      pop\n        /* \"#utility.yul\":11404:11785   */\n      swap2\n      swap1\n      pop\n      jump\t// out\n        /* \"#utility.yul\":11791:12172   */\n    tag_83:\n        /* \"#utility.yul\":11976:11979   */\n      0x00\n        /* \"#utility.yul\":11998:12146   */\n      tag_269\n        /* \"#utility.yul\":12142:12145   */\n      dup3\n        /* \"#utility.yul\":11998:12146   */\n      tag_223\n      jump\t// in\n    tag_269:\n        /* \"#utility.yul\":11991:12146   */\n      swap2\n      pop\n        /* \"#utility.yul\":12163:12166   */\n      dup2\n        /* \"#utility.yul\":12156:12166   */\n      swap1\n      pop\n        /* \"#utility.yul\":11791:12172   */\n      swap2\n      swap1\n      pop\n      jump\t// out\n        /* \"#utility.yul\":12178:12559   */\n    tag_85:\n        /* \"#utility.yul\":12363:12366   */\n      0x00\n        /* \"#utility.yul\":12385:12533   */\n      tag_271\n        /* \"#utility.yul\":12529:12532   */\n      dup3\n        /* \"#utility.yul\":12385:12533   */\n      tag_233\n      jump\t// in\n    tag_271:\n        /* \"#utility.yul\":12378:12533   */\n      swap2\n      pop\n        /* \"#utility.yul\":12550:12553   */\n      dup2\n        /* \"#utility.yul\":12543:12553   */\n      swap1\n      pop\n        /* \"#utility.yul\":12178:12559   */\n      swap2\n      swap1\n      pop\n      jump\t// out\n        /* \"#utility.yul\":12565:12946   */\n    tag_79:\n        /* \"#utility.yul\":12750:12753   */\n      0x00\n        /* \"#utility.yul\":12772:12920   */\n      tag_273\n        /* \"#utility.yul\":12916:12919   */\n      dup3\n        /* \"#utility.yul\":12772:12920   */\n      tag_238\n      jump\t// in\n    tag_273:\n        /* \"#utility.yul\":12765:12920   */\n      swap2\n      pop\n        /* \"#utility.yul\":12937:12940   */\n      dup2\n        /* \"#utility.yul\":12930:12940   */\n      swap1\n      pop\n        /* \"#utility.yul\":12565:12946   */\n      swap2\n      swap1\n      pop\n      jump\t// out\n        /* \"#utility.yul\":12952:13333   */\n    tag_77:\n        /* \"#utility.yul\":13137:13140   */\n      0x00\n        /* \"#utility.yul\":13159:13307   */\n      tag_275\n        /* \"#utility.yul\":13303:13306   */\n      dup3\n        /* \"#utility.yul\":13159:13307   */\n      tag_253\n      jump\t// in\n    tag_275:\n        /* \"#utility.yul\":13152:13307   */\n      swap2\n      pop\n        /* \"#utility.yul\":13324:13327   */\n      dup2\n        /* \"#utility.yul\":13317:13327   */\n      swap1\n      pop\n        /* \"#utility.yul\":12952:13333   */\n      swap2\n      swap1\n      pop\n      jump\t// out\n        /* \"#utility.yul\":13339:13561   */\n    tag_35:\n        /* \"#utility.yul\":13432:13436   */\n      0x00\n        /* \"#utility.yul\":13470:13472   */\n      0x20\n        /* \"#utility.yul\":13459:13468   */\n      dup3\n        /* \"#utility.yul\":13455:13473   */\n      add\n        /* \"#utility.yul\":13447:13473   */\n      swap1\n      pop\n        /* \"#utility.yul\":13483:13554   */\n      tag_277\n        /* \"#utility.yul\":13551:13552   */\n      0x00\n        /* \"#utility.yul\":13540:13549   */\n      dup4\n        /* \"#utility.yul\":13536:13553   */\n      add\n        /* \"#utility.yul\":13527:13533   */\n      dup5\n        /* \"#utility.yul\":13483:13554   */\n      tag_181\n      jump\t// in\n    tag_277:\n        /* \"#utility.yul\":13339:13561   */\n      swap3\n      swap2\n      pop\n      pop\n      jump\t// out\n        /* \"#utility.yul\":13567:13899   */\n    tag_51:\n        /* \"#utility.yul\":13688:13692   */\n      0x00\n        /* \"#utility.yul\":13726:13728   */\n      0x40\n        /* \"#utility.yul\":13715:13724   */\n      dup3\n        /* \"#utility.yul\":13711:13729   */\n      add\n        /* \"#utility.yul\":13703:13729   */\n      swap1\n      pop\n        /* \"#utility.yul\":13739:13810   */\n      tag_279\n        /* \"#utility.yul\":13807:13808   */\n      0x00\n        /* \"#utility.yul\":13796:13805   */\n      dup4\n        /* \"#utility.yul\":13792:13809   */\n      add\n        /* \"#utility.yul\":13783:13789   */\n      dup6\n        /* \"#utility.yul\":13739:13810   */\n      tag_181\n      jump\t// in\n    tag_279:\n        /* \"#utility.yul\":13820:13892   */\n      tag_280\n        /* \"#utility.yul\":13888:13890   */\n      0x20\n        /* \"#utility.yul\":13877:13886   */\n      dup4\n        /* \"#utility.yul\":13873:13891   */\n      add\n        /* \"#utility.yul\":13864:13870   */\n      dup5\n        /* \"#utility.yul\":13820:13892   */\n      tag_181\n      jump\t// in\n    tag_280:\n        /* \"#utility.yul\":13567:13899   */\n      swap4\n      swap3\n      pop\n      pop\n      pop\n      jump\t// out\n        /* \"#utility.yul\":13905:14857   */\n    tag_73:\n        /* \"#utility.yul\":14203:14207   */\n      0x00\n        /* \"#utility.yul\":14241:14244   */\n      0xa0\n        /* \"#utility.yul\":14230:14239   */\n      dup3\n        /* \"#utility.yul\":14226:14245   */\n      add\n        /* \"#utility.yul\":14218:14245   */\n      swap1\n      pop\n        /* \"#utility.yul\":14255:14326   */\n      tag_282\n        /* \"#utility.yul\":14323:14324   */\n      0x00\n        /* \"#utility.yul\":14312:14321   */\n      dup4\n        /* \"#utility.yul\":14308:14325   */\n      add\n        /* \"#utility.yul\":14299:14305   */\n      dup8\n        /* \"#utility.yul\":14255:14326   */\n      tag_181\n      jump\t// in\n    tag_282:\n        /* \"#utility.yul\":14336:14408   */\n      tag_283\n        /* \"#utility.yul\":14404:14406   */\n      0x20\n        /* \"#utility.yul\":14393:14402   */\n      dup4\n        /* \"#utility.yul\":14389:14407   */\n      add\n        /* \"#utility.yul\":14380:14386   */\n      dup7\n        /* \"#utility.yul\":14336:14408   */\n      tag_181\n      jump\t// in\n    tag_283:\n        /* \"#utility.yul\":14455:14464   */\n      dup2\n        /* \"#utility.yul\":14449:14453   */\n      dup2\n        /* \"#utility.yul\":14445:14465   */\n      sub\n        /* \"#utility.yul\":14440:14442   */\n      0x40\n        /* \"#utility.yul\":14429:14438   */\n      dup4\n        /* \"#utility.yul\":14425:14443   */\n      add\n        /* \"#utility.yul\":14418:14466   */\n      mstore\n        /* \"#utility.yul\":14483:14561   */\n      tag_284\n        /* \"#utility.yul\":14556:14560   */\n      dup2\n        /* \"#utility.yul\":14547:14553   */\n      dup6\n        /* \"#utility.yul\":14483:14561   */\n      tag_193\n      jump\t// in\n    tag_284:\n        /* \"#utility.yul\":14475:14561   */\n      swap1\n      pop\n        /* \"#utility.yul\":14608:14617   */\n      dup2\n        /* \"#utility.yul\":14602:14606   */\n      dup2\n        /* \"#utility.yul\":14598:14618   */\n      sub\n        /* \"#utility.yul\":14593:14595   */\n      0x60\n        /* \"#utility.yul\":14582:14591   */\n      dup4\n        /* \"#utility.yul\":14578:14596   */\n      add\n        /* \"#utility.yul\":14571:14619   */\n      mstore\n        /* \"#utility.yul\":14636:14767   */\n      tag_285\n        /* \"#utility.yul\":14762:14766   */\n      dup2\n        /* \"#utility.yul\":14636:14767   */\n      tag_218\n      jump\t// in\n    tag_285:\n        /* \"#utility.yul\":14628:14767   */\n      swap1\n      pop\n        /* \"#utility.yul\":14777:14850   */\n      tag_286\n        /* \"#utility.yul\":14845:14848   */\n      0x80\n        /* \"#utility.yul\":14834:14843   */\n      dup4\n        /* \"#utility.yul\":14830:14849   */\n      add\n        /* \"#utility.yul\":14821:14827   */\n      dup5\n        /* \"#utility.yul\":14777:14850   */\n      tag_258\n      jump\t// in\n    tag_286:\n        /* \"#utility.yul\":13905:14857   */\n      swap6\n      swap5\n      pop\n      pop\n      pop\n      pop\n      pop\n      jump\t// out\n        /* \"#utility.yul\":14863:15815   */\n    tag_71:\n        /* \"#utility.yul\":15161:15165   */\n      0x00\n        /* \"#utility.yul\":15199:15202   */\n      0xa0\n        /* \"#utility.yul\":15188:15197   */\n      dup3\n        /* \"#utility.yul\":15184:15203   */\n      add\n        /* \"#utility.yul\":15176:15203   */\n      swap1\n      pop\n        /* \"#utility.yul\":15213:15284   */\n      tag_288\n        /* \"#utility.yul\":15281:15282   */\n      0x00\n        /* \"#utility.yul\":15270:15279   */\n      dup4\n        /* \"#utility.yul\":15266:15283   */\n      add\n        /* \"#utility.yul\":15257:15263   */\n      dup8\n        /* \"#utility.yul\":15213:15284   */\n      tag_181\n      jump\t// in\n    tag_288:\n        /* \"#utility.yul\":15294:15366   */\n      tag_289\n        /* \"#utility.yul\":15362:15364   */\n      0x20\n        /* \"#utility.yul\":15351:15360   */\n      dup4\n        /* \"#utility.yul\":15347:15365   */\n      add\n        /* \"#utility.yul\":15338:15344   */\n      dup7\n        /* \"#utility.yul\":15294:15366   */\n      tag_181\n      jump\t// in\n    tag_289:\n        /* \"#utility.yul\":15413:15422   */\n      dup2\n        /* \"#utility.yul\":15407:15411   */\n      dup2\n        /* \"#utility.yul\":15403:15423   */\n      sub\n        /* \"#utility.yul\":15398:15400   */\n      0x40\n        /* \"#utility.yul\":15387:15396   */\n      dup4\n        /* \"#utility.yul\":15383:15401   */\n      add\n        /* \"#utility.yul\":15376:15424   */\n      mstore\n        /* \"#utility.yul\":15441:15519   */\n      tag_290\n        /* \"#utility.yul\":15514:15518   */\n      dup2\n        /* \"#utility.yul\":15505:15511   */\n      dup6\n        /* \"#utility.yul\":15441:15519   */\n      tag_193\n      jump\t// in\n    tag_290:\n        /* \"#utility.yul\":15433:15519   */\n      swap1\n      pop\n        /* \"#utility.yul\":15566:15575   */\n      dup2\n        /* \"#utility.yul\":15560:15564   */\n      dup2\n        /* \"#utility.yul\":15556:15576   */\n      sub\n        /* \"#utility.yul\":15551:15553   */\n      0x60\n        /* \"#utility.yul\":15540:15549   */\n      dup4\n        /* \"#utility.yul\":15536:15554   */\n      add\n        /* \"#utility.yul\":15529:15577   */\n      mstore\n        /* \"#utility.yul\":15594:15725   */\n      tag_291\n        /* \"#utility.yul\":15720:15724   */\n      dup2\n        /* \"#utility.yul\":15594:15725   */\n      tag_228\n      jump\t// in\n    tag_291:\n        /* \"#utility.yul\":15586:15725   */\n      swap1\n      pop\n        /* \"#utility.yul\":15735:15808   */\n      tag_292\n        /* \"#utility.yul\":15803:15806   */\n      0x80\n        /* \"#utility.yul\":15792:15801   */\n      dup4\n        /* \"#utility.yul\":15788:15807   */\n      add\n        /* \"#utility.yul\":15779:15785   */\n      dup5\n        /* \"#utility.yul\":15735:15808   */\n      tag_258\n      jump\t// in\n    tag_292:\n        /* \"#utility.yul\":14863:15815   */\n      swap6\n      swap5\n      pop\n      pop\n      pop\n      pop\n      pop\n      jump\t// out\n        /* \"#utility.yul\":15821:16773   */\n    tag_61:\n        /* \"#utility.yul\":16119:16123   */\n      0x00\n        /* \"#utility.yul\":16157:16160   */\n      0xa0\n        /* \"#utility.yul\":16146:16155   */\n      dup3\n        /* \"#utility.yul\":16142:16161   */\n      add\n        /* \"#utility.yul\":16134:16161   */\n      swap1\n      pop\n        /* \"#utility.yul\":16171:16242   */\n      tag_294\n        /* \"#utility.yul\":16239:16240   */\n      0x00\n        /* \"#utility.yul\":16228:16237   */\n      dup4\n        /* \"#utility.yul\":16224:16241   */\n      add\n        /* \"#utility.yul\":16215:16221   */\n      dup8\n        /* \"#utility.yul\":16171:16242   */\n      tag_181\n      jump\t// in\n    tag_294:\n        /* \"#utility.yul\":16252:16324   */\n      tag_295\n        /* \"#utility.yul\":16320:16322   */\n      0x20\n        /* \"#utility.yul\":16309:16318   */\n      dup4\n        /* \"#utility.yul\":16305:16323   */\n      add\n        /* \"#utility.yul\":16296:16302   */\n      dup7\n        /* \"#utility.yul\":16252:16324   */\n      tag_181\n      jump\t// in\n    tag_295:\n        /* \"#utility.yul\":16371:16380   */\n      dup2\n        /* \"#utility.yul\":16365:16369   */\n      dup2\n        /* \"#utility.yul\":16361:16381   */\n      sub\n        /* \"#utility.yul\":16356:16358   */\n      0x40\n        /* \"#utility.yul\":16345:16354   */\n      dup4\n        /* \"#utility.yul\":16341:16359   */\n      add\n        /* \"#utility.yul\":16334:16382   */\n      mstore\n        /* \"#utility.yul\":16399:16477   */\n      tag_296\n        /* \"#utility.yul\":16472:16476   */\n      dup2\n        /* \"#utility.yul\":16463:16469   */\n      dup6\n        /* \"#utility.yul\":16399:16477   */\n      tag_193\n      jump\t// in\n    tag_296:\n        /* \"#utility.yul\":16391:16477   */\n      swap1\n      pop\n        /* \"#utility.yul\":16524:16533   */\n      dup2\n        /* \"#utility.yul\":16518:16522   */\n      dup2\n        /* \"#utility.yul\":16514:16534   */\n      sub\n        /* \"#utility.yul\":16509:16511   */\n      0x60\n        /* \"#utility.yul\":16498:16507   */\n      dup4\n        /* \"#utility.yul\":16494:16512   */\n      add\n        /* \"#utility.yul\":16487:16535   */\n      mstore\n        /* \"#utility.yul\":16552:16683   */\n      tag_297\n        /* \"#utility.yul\":16678:16682   */\n      dup2\n        /* \"#utility.yul\":16552:16683   */\n      tag_243\n      jump\t// in\n    tag_297:\n        /* \"#utility.yul\":16544:16683   */\n      swap1\n      pop\n        /* \"#utility.yul\":16693:16766   */\n      tag_298\n        /* \"#utility.yul\":16761:16764   */\n      0x80\n        /* \"#utility.yul\":16750:16759   */\n      dup4\n        /* \"#utility.yul\":16746:16765   */\n      add\n        /* \"#utility.yul\":16737:16743   */\n      dup5\n        /* \"#utility.yul\":16693:16766   */\n      tag_258\n      jump\t// in\n    tag_298:\n        /* \"#utility.yul\":15821:16773   */\n      swap6\n      swap5\n      pop\n      pop\n      pop\n      pop\n      pop\n      jump\t// out\n        /* \"#utility.yul\":16779:17731   */\n    tag_44:\n        /* \"#utility.yul\":17077:17081   */\n      0x00\n        /* \"#utility.yul\":17115:17118   */\n      0xa0\n        /* \"#utility.yul\":17104:17113   */\n      dup3\n        /* \"#utility.yul\":17100:17119   */\n      add\n        /* \"#utility.yul\":17092:17119   */\n      swap1\n      pop\n        /* \"#utility.yul\":17129:17200   */\n      tag_300\n        /* \"#utility.yul\":17197:17198   */\n      0x00\n        /* \"#utility.yul\":17186:17195   */\n      dup4\n        /* \"#utility.yul\":17182:17199   */\n      add\n        /* \"#utility.yul\":17173:17179   */\n      dup8\n        /* \"#utility.yul\":17129:17200   */\n      tag_181\n      jump\t// in\n    tag_300:\n        /* \"#utility.yul\":17210:17282   */\n      tag_301\n        /* \"#utility.yul\":17278:17280   */\n      0x20\n        /* \"#utility.yul\":17267:17276   */\n      dup4\n        /* \"#utility.yul\":17263:17281   */\n      add\n        /* \"#utility.yul\":17254:17260   */\n      dup7\n        /* \"#utility.yul\":17210:17282   */\n      tag_181\n      jump\t// in\n    tag_301:\n        /* \"#utility.yul\":17329:17338   */\n      dup2\n        /* \"#utility.yul\":17323:17327   */\n      dup2\n        /* \"#utility.yul\":17319:17339   */\n      sub\n        /* \"#utility.yul\":17314:17316   */\n      0x40\n        /* \"#utility.yul\":17303:17312   */\n      dup4\n        /* \"#utility.yul\":17299:17317   */\n      add\n        /* \"#utility.yul\":17292:17340   */\n      mstore\n        /* \"#utility.yul\":17357:17435   */\n      tag_302\n        /* \"#utility.yul\":17430:17434   */\n      dup2\n        /* \"#utility.yul\":17421:17427   */\n      dup6\n        /* \"#utility.yul\":17357:17435   */\n      tag_193\n      jump\t// in\n    tag_302:\n        /* \"#utility.yul\":17349:17435   */\n      swap1\n      pop\n        /* \"#utility.yul\":17482:17491   */\n      dup2\n        /* \"#utility.yul\":17476:17480   */\n      dup2\n        /* \"#utility.yul\":17472:17492   */\n      sub\n        /* \"#utility.yul\":17467:17469   */\n      0x60\n        /* \"#utility.yul\":17456:17465   */\n      dup4\n        /* \"#utility.yul\":17452:17470   */\n      add\n        /* \"#utility.yul\":17445:17493   */\n      mstore\n        /* \"#utility.yul\":17510:17641   */\n      tag_303\n        /* \"#utility.yul\":17636:17640   */\n      dup2\n        /* \"#utility.yul\":17510:17641   */\n      tag_248\n      jump\t// in\n    tag_303:\n        /* \"#utility.yul\":17502:17641   */\n      swap1\n      pop\n        /* \"#utility.yul\":17651:17724   */\n      tag_304\n        /* \"#utility.yul\":17719:17722   */\n      0x80\n        /* \"#utility.yul\":17708:17717   */\n      dup4\n        /* \"#utility.yul\":17704:17723   */\n      add\n        /* \"#utility.yul\":17695:17701   */\n      dup5\n        /* \"#utility.yul\":17651:17724   */\n      tag_258\n      jump\t// in\n    tag_304:\n        /* \"#utility.yul\":16779:17731   */\n      swap6\n      swap5\n      pop\n      pop\n      pop\n      pop\n      pop\n      jump\t// out\n        /* \"#utility.yul\":17737:17947   */\n    tag_18:\n        /* \"#utility.yul\":17824:17828   */\n      0x00\n        /* \"#utility.yul\":17862:17864   */\n      0x20\n        /* \"#utility.yul\":17851:17860   */\n      dup3\n        /* \"#utility.yul\":17847:17865   */\n      add\n        /* \"#utility.yul\":17839:17865   */\n      swap1\n      pop\n        /* \"#utility.yul\":17875:17940   */\n      tag_306\n        /* \"#utility.yul\":17937:17938   */\n      0x00\n        /* \"#utility.yul\":17926:17935   */\n      dup4\n        /* \"#utility.yul\":17922:17939   */\n      add\n        /* \"#utility.yul\":17913:17919   */\n      dup5\n        /* \"#utility.yul\":17875:17940   */\n      tag_185\n      jump\t// in\n    tag_306:\n        /* \"#utility.yul\":17737:17947   */\n      swap3\n      swap2\n      pop\n      pop\n      jump\t// out\n        /* \"#utility.yul\":17953:18171   */\n    tag_12:\n        /* \"#utility.yul\":18044:18048   */\n      0x00\n        /* \"#utility.yul\":18082:18084   */\n      0x20\n        /* \"#utility.yul\":18071:18080   */\n      dup3\n        /* \"#utility.yul\":18067:18085   */\n      add\n        /* \"#utility.yul\":18059:18085   */\n      swap1\n      pop\n        /* \"#utility.yul\":18095:18164   */\n      tag_308\n        /* \"#utility.yul\":18161:18162   */\n      0x00\n        /* \"#utility.yul\":18150:18159   */\n      dup4\n        /* \"#utility.yul\":18146:18163   */\n      add\n        /* \"#utility.yul\":18137:18143   */\n      dup5\n        /* \"#utility.yul\":18095:18164   */\n      tag_189\n      jump\t// in\n    tag_308:\n        /* \"#utility.yul\":17953:18171   */\n      swap3\n      swap2\n      pop\n      pop\n      jump\t// out\n        /* \"#utility.yul\":18177:18399   */\n    tag_22:\n        /* \"#utility.yul\":18270:18274   */\n      0x00\n        /* \"#utility.yul\":18308:18310   */\n      0x20\n        /* \"#utility.yul\":18297:18306   */\n      dup3\n        /* \"#utility.yul\":18293:18311   */\n      add\n        /* \"#utility.yul\":18285:18311   */\n      swap1\n      pop\n        /* \"#utility.yul\":18321:18392   */\n      tag_310\n        /* \"#utility.yul\":18389:18390   */\n      0x00\n        /* \"#utility.yul\":18378:18387   */\n      dup4\n        /* \"#utility.yul\":18374:18391   */\n      add\n        /* \"#utility.yul\":18365:18371   */\n      dup5\n        /* \"#utility.yul\":18321:18392   */\n      tag_258\n      jump\t// in\n    tag_310:\n        /* \"#utility.yul\":18177:18399   */\n      swap3\n      swap2\n      pop\n      pop\n      jump\t// out\n        /* \"#utility.yul\":18405:18534   */\n    tag_104:\n        /* \"#utility.yul\":18439:18445   */\n      0x00\n        /* \"#utility.yul\":18466:18486   */\n      tag_312\n      tag_313\n      jump\t// in\n    tag_312:\n        /* \"#utility.yul\":18456:18486   */\n      swap1\n      pop\n        /* \"#utility.yul\":18495:18528   */\n      tag_314\n        /* \"#utility.yul\":18523:18527   */\n      dup3\n        /* \"#utility.yul\":18515:18521   */\n      dup3\n        /* \"#utility.yul\":18495:18528   */\n      tag_315\n      jump\t// in\n    tag_314:\n        /* \"#utility.yul\":18405:18534   */\n      swap2\n      swap1\n      pop\n      jump\t// out\n        /* \"#utility.yul\":18540:18615   */\n    tag_313:\n        /* \"#utility.yul\":18573:18579   */\n      0x00\n        /* \"#utility.yul\":18606:18608   */\n      0x40\n        /* \"#utility.yul\":18600:18609   */\n      mload\n        /* \"#utility.yul\":18590:18609   */\n      swap1\n      pop\n        /* \"#utility.yul\":18540:18615   */\n      swap1\n      jump\t// out\n        /* \"#utility.yul\":18621:18929   */\n    tag_103:\n        /* \"#utility.yul\":18683:18687   */\n      0x00\n        /* \"#utility.yul\":18773:18791   */\n      0xffffffffffffffff\n        /* \"#utility.yul\":18765:18771   */\n      dup3\n        /* \"#utility.yul\":18762:18792   */\n      gt\n        /* \"#utility.yul\":18759:18815   */\n      iszero\n      tag_318\n      jumpi\n        /* \"#utility.yul\":18795:18813   */\n      tag_319\n      tag_320\n      jump\t// in\n    tag_319:\n        /* \"#utility.yul\":18759:18815   */\n    tag_318:\n        /* \"#utility.yul\":18833:18862   */\n      tag_321\n        /* \"#utility.yul\":18855:18861   */\n      dup3\n        /* \"#utility.yul\":18833:18862   */\n      tag_201\n      jump\t// in\n    tag_321:\n        /* \"#utility.yul\":18825:18862   */\n      swap1\n      pop\n        /* \"#utility.yul\":18917:18921   */\n      0x20\n        /* \"#utility.yul\":18911:18915   */\n      dup2\n        /* \"#utility.yul\":18907:18922   */\n      add\n        /* \"#utility.yul\":18899:18922   */\n      swap1\n      pop\n        /* \"#utility.yul\":18621:18929   */\n      swap2\n      swap1\n      pop\n      jump\t// out\n        /* \"#utility.yul\":18935:19034   */\n    tag_196:\n        /* \"#utility.yul\":18987:18993   */\n      0x00\n        /* \"#utility.yul\":19021:19026   */\n      dup2\n        /* \"#utility.yul\":19015:19027   */\n      mload\n        /* \"#utility.yul\":19005:19027   */\n      swap1\n      pop\n        /* \"#utility.yul\":18935:19034   */\n      swap2\n      swap1\n      pop\n      jump\t// out\n        /* \"#utility.yul\":19040:19209   */\n    tag_198:\n        /* \"#utility.yul\":19124:19135   */\n      0x00\n        /* \"#utility.yul\":19158:19164   */\n      dup3\n        /* \"#utility.yul\":19153:19156   */\n      dup3\n        /* \"#utility.yul\":19146:19165   */\n      mstore\n        /* \"#utility.yul\":19198:19202   */\n      0x20\n        /* \"#utility.yul\":19193:19196   */\n      dup3\n        /* \"#utility.yul\":19189:19203   */\n      add\n        /* \"#utility.yul\":19174:19203   */\n      swap1\n      pop\n        /* \"#utility.yul\":19040:19209   */\n      swap3\n      swap2\n      pop\n      pop\n      jump\t// out\n        /* \"#utility.yul\":19215:19363   */\n    tag_206:\n        /* \"#utility.yul\":19317:19328   */\n      0x00\n        /* \"#utility.yul\":19354:19357   */\n      dup2\n        /* \"#utility.yul\":19339:19357   */\n      swap1\n      pop\n        /* \"#utility.yul\":19215:19363   */\n      swap3\n      swap2\n      pop\n      pop\n      jump\t// out\n        /* \"#utility.yul\":19369:19560   */\n    tag_91:\n        /* \"#utility.yul\":19409:19413   */\n      0x00\n        /* \"#utility.yul\":19429:19449   */\n      tag_326\n        /* \"#utility.yul\":19447:19448   */\n      dup3\n        /* \"#utility.yul\":19429:19449   */\n      tag_261\n      jump\t// in\n    tag_326:\n        /* \"#utility.yul\":19424:19449   */\n      swap2\n      pop\n        /* \"#utility.yul\":19463:19483   */\n      tag_327\n        /* \"#utility.yul\":19481:19482   */\n      dup4\n        /* \"#utility.yul\":19463:19483   */\n      tag_261\n      jump\t// in\n    tag_327:\n        /* \"#utility.yul\":19458:19483   */\n      swap3\n      pop\n        /* \"#utility.yul\":19502:19503   */\n      dup3\n        /* \"#utility.yul\":19499:19500   */\n      dup3\n        /* \"#utility.yul\":19496:19504   */\n      lt\n        /* \"#utility.yul\":19493:19527   */\n      iszero\n      tag_328\n      jumpi\n        /* \"#utility.yul\":19507:19525   */\n      tag_329\n      tag_330\n      jump\t// in\n    tag_329:\n        /* \"#utility.yul\":19493:19527   */\n    tag_328:\n        /* \"#utility.yul\":19552:19553   */\n      dup3\n        /* \"#utility.yul\":19549:19550   */\n      dup3\n        /* \"#utility.yul\":19545:19554   */\n      sub\n        /* \"#utility.yul\":19537:19554   */\n      swap1\n      pop\n        /* \"#utility.yul\":19369:19560   */\n      swap3\n      swap2\n      pop\n      pop\n      jump\t// out\n        /* \"#utility.yul\":19566:19662   */\n    tag_184:\n        /* \"#utility.yul\":19603:19610   */\n      0x00\n        /* \"#utility.yul\":19632:19656   */\n      tag_332\n        /* \"#utility.yul\":19650:19655   */\n      dup3\n        /* \"#utility.yul\":19632:19656   */\n      tag_333\n      jump\t// in\n    tag_332:\n        /* \"#utility.yul\":19621:19656   */\n      swap1\n      pop\n        /* \"#utility.yul\":19566:19662   */\n      swap2\n      swap1\n      pop\n      jump\t// out\n        /* \"#utility.yul\":19668:19758   */\n    tag_188:\n        /* \"#utility.yul\":19702:19709   */\n      0x00\n        /* \"#utility.yul\":19745:19750   */\n      dup2\n        /* \"#utility.yul\":19738:19751   */\n      iszero\n        /* \"#utility.yul\":19731:19752   */\n      iszero\n        /* \"#utility.yul\":19720:19752   */\n      swap1\n      pop\n        /* \"#utility.yul\":19668:19758   */\n      swap2\n      swap1\n      pop\n      jump\t// out\n        /* \"#utility.yul\":19764:19840   */\n    tag_192:\n        /* \"#utility.yul\":19800:19807   */\n      0x00\n        /* \"#utility.yul\":19829:19834   */\n      dup2\n        /* \"#utility.yul\":19818:19834   */\n      swap1\n      pop\n        /* \"#utility.yul\":19764:19840   */\n      swap2\n      swap1\n      pop\n      jump\t// out\n        /* \"#utility.yul\":19846:19972   */\n    tag_333:\n        /* \"#utility.yul\":19883:19890   */\n      0x00\n        /* \"#utility.yul\":19923:19965   */\n      0xffffffffffffffffffffffffffffffffffffffff\n        /* \"#utility.yul\":19916:19921   */\n      dup3\n        /* \"#utility.yul\":19912:19966   */\n      and\n        /* \"#utility.yul\":19901:19966   */\n      swap1\n      pop\n        /* \"#utility.yul\":19846:19972   */\n      swap2\n      swap1\n      pop\n      jump\t// out\n        /* \"#utility.yul\":19978:20055   */\n    tag_261:\n        /* \"#utility.yul\":20015:20022   */\n      0x00\n        /* \"#utility.yul\":20044:20049   */\n      dup2\n        /* \"#utility.yul\":20033:20049   */\n      swap1\n      pop\n        /* \"#utility.yul\":19978:20055   */\n      swap2\n      swap1\n      pop\n      jump\t// out\n        /* \"#utility.yul\":20061:20215   */\n    tag_109:\n        /* \"#utility.yul\":20145:20151   */\n      dup3\n        /* \"#utility.yul\":20140:20143   */\n      dup2\n        /* \"#utility.yul\":20135:20138   */\n      dup4\n        /* \"#utility.yul\":20122:20152   */\n      calldatacopy\n        /* \"#utility.yul\":20207:20208   */\n      0x00\n        /* \"#utility.yul\":20198:20204   */\n      dup4\n        /* \"#utility.yul\":20193:20196   */\n      dup4\n        /* \"#utility.yul\":20189:20205   */\n      add\n        /* \"#utility.yul\":20182:20209   */\n      mstore\n        /* \"#utility.yul\":20061:20215   */\n      pop\n      pop\n      pop\n      jump\t// out\n        /* \"#utility.yul\":20221:20528   */\n    tag_117:\n        /* \"#utility.yul\":20289:20290   */\n      0x00\n        /* \"#utility.yul\":20299:20412   */\n    tag_340:\n        /* \"#utility.yul\":20313:20319   */\n      dup4\n        /* \"#utility.yul\":20310:20311   */\n      dup2\n        /* \"#utility.yul\":20307:20320   */\n      lt\n        /* \"#utility.yul\":20299:20412   */\n      iszero\n      tag_342\n      jumpi\n        /* \"#utility.yul\":20398:20399   */\n      dup1\n        /* \"#utility.yul\":20393:20396   */\n      dup3\n        /* \"#utility.yul\":20389:20400   */\n      add\n        /* \"#utility.yul\":20383:20401   */\n      mload\n        /* \"#utility.yul\":20379:20380   */\n      dup2\n        /* \"#utility.yul\":20374:20377   */\n      dup5\n        /* \"#utility.yul\":20370:20381   */\n      add\n        /* \"#utility.yul\":20363:20402   */\n      mstore\n        /* \"#utility.yul\":20335:20337   */\n      0x20\n        /* \"#utility.yul\":20332:20333   */\n      dup2\n        /* \"#utility.yul\":20328:20338   */\n      add\n        /* \"#utility.yul\":20323:20338   */\n      swap1\n      pop\n        /* \"#utility.yul\":20299:20412   */\n      jump(tag_340)\n    tag_342:\n        /* \"#utility.yul\":20430:20436   */\n      dup4\n        /* \"#utility.yul\":20427:20428   */\n      dup2\n        /* \"#utility.yul\":20424:20437   */\n      gt\n        /* \"#utility.yul\":20421:20522   */\n      iszero\n      tag_343\n      jumpi\n        /* \"#utility.yul\":20510:20511   */\n      0x00\n        /* \"#utility.yul\":20501:20507   */\n      dup5\n        /* \"#utility.yul\":20496:20499   */\n      dup5\n        /* \"#utility.yul\":20492:20508   */\n      add\n        /* \"#utility.yul\":20485:20512   */\n      mstore\n        /* \"#utility.yul\":20421:20522   */\n    tag_343:\n        /* \"#utility.yul\":20270:20528   */\n      pop\n        /* \"#utility.yul\":20221:20528   */\n      pop\n      pop\n      pop\n      jump\t// out\n        /* \"#utility.yul\":20534:20815   */\n    tag_315:\n        /* \"#utility.yul\":20617:20644   */\n      tag_345\n        /* \"#utility.yul\":20639:20643   */\n      dup3\n        /* \"#utility.yul\":20617:20644   */\n      tag_201\n      jump\t// in\n    tag_345:\n        /* \"#utility.yul\":20609:20615   */\n      dup2\n        /* \"#utility.yul\":20605:20645   */\n      add\n        /* \"#utility.yul\":20747:20753   */\n      dup2\n        /* \"#utility.yul\":20735:20745   */\n      dup2\n        /* \"#utility.yul\":20732:20754   */\n      lt\n        /* \"#utility.yul\":20711:20729   */\n      0xffffffffffffffff\n        /* \"#utility.yul\":20699:20709   */\n      dup3\n        /* \"#utility.yul\":20696:20730   */\n      gt\n        /* \"#utility.yul\":20693:20755   */\n      or\n        /* \"#utility.yul\":20690:20778   */\n      iszero\n      tag_346\n      jumpi\n        /* \"#utility.yul\":20758:20776   */\n      tag_347\n      tag_320\n      jump\t// in\n    tag_347:\n        /* \"#utility.yul\":20690:20778   */\n    tag_346:\n        /* \"#utility.yul\":20798:20808   */\n      dup1\n        /* \"#utility.yul\":20794:20796   */\n      0x40\n        /* \"#utility.yul\":20787:20809   */\n      mstore\n        /* \"#utility.yul\":20577:20815   */\n      pop\n        /* \"#utility.yul\":20534:20815   */\n      pop\n      pop\n      jump\t// out\n        /* \"#utility.yul\":20821:21001   */\n    tag_330:\n        /* \"#utility.yul\":20869:20946   */\n      0x4e487b7100000000000000000000000000000000000000000000000000000000\n        /* \"#utility.yul\":20866:20867   */\n      0x00\n        /* \"#utility.yul\":20859:20947   */\n      mstore\n        /* \"#utility.yul\":20966:20970   */\n      0x11\n        /* \"#utility.yul\":20963:20964   */\n      0x04\n        /* \"#utility.yul\":20956:20971   */\n      mstore\n        /* \"#utility.yul\":20990:20994   */\n      0x24\n        /* \"#utility.yul\":20987:20988   */\n      0x00\n        /* \"#utility.yul\":20980:20995   */\n      revert\n        /* \"#utility.yul\":21007:21187   */\n    tag_320:\n        /* \"#utility.yul\":21055:21132   */\n      0x4e487b7100000000000000000000000000000000000000000000000000000000\n        /* \"#utility.yul\":21052:21053   */\n      0x00\n        /* \"#utility.yul\":21045:21133   */\n      mstore\n        /* \"#utility.yul\":21152:21156   */\n      0x41\n        /* \"#utility.yul\":21149:21150   */\n      0x04\n        /* \"#utility.yul\":21142:21157   */\n      mstore\n        /* \"#utility.yul\":21176:21180   */\n      0x24\n        /* \"#utility.yul\":21173:21174   */\n      0x00\n        /* \"#utility.yul\":21166:21181   */\n      revert\n        /* \"#utility.yul\":21193:21310   */\n    tag_130:\n        /* \"#utility.yul\":21302:21303   */\n      0x00\n        /* \"#utility.yul\":21299:21300   */\n      dup1\n        /* \"#utility.yul\":21292:21304   */\n      revert\n        /* \"#utility.yul\":21316:21433   */\n    tag_107:\n        /* \"#utility.yul\":21425:21426   */\n      0x00\n        /* \"#utility.yul\":21422:21423   */\n      dup1\n        /* \"#utility.yul\":21415:21427   */\n      revert\n        /* \"#utility.yul\":21439:21556   */\n    tag_153:\n        /* \"#utility.yul\":21548:21549   */\n      0x00\n        /* \"#utility.yul\":21545:21546   */\n      dup1\n        /* \"#utility.yul\":21538:21550   */\n      revert\n        /* \"#utility.yul\":21562:21679   */\n    tag_144:\n        /* \"#utility.yul\":21671:21672   */\n      0x00\n        /* \"#utility.yul\":21668:21669   */\n      dup1\n        /* \"#utility.yul\":21661:21673   */\n      revert\n        /* \"#utility.yul\":21685:21787   */\n    tag_201:\n        /* \"#utility.yul\":21726:21732   */\n      0x00\n        /* \"#utility.yul\":21777:21779   */\n      0x1f\n        /* \"#utility.yul\":21773:21780   */\n      not\n        /* \"#utility.yul\":21768:21770   */\n      0x1f\n        /* \"#utility.yul\":21761:21766   */\n      dup4\n        /* \"#utility.yul\":21757:21771   */\n      add\n        /* \"#utility.yul\":21753:21781   */\n      and\n        /* \"#utility.yul\":21743:21781   */\n      swap1\n      pop\n        /* \"#utility.yul\":21685:21787   */\n      swap2\n      swap1\n      pop\n      jump\t// out\n        /* \"#utility.yul\":21793:21948   */\n    tag_212:\n        /* \"#utility.yul\":21933:21940   */\n      0x636c6f7365000000000000000000000000000000000000000000000000000000\n        /* \"#utility.yul\":21929:21930   */\n      0x00\n        /* \"#utility.yul\":21921:21927   */\n      dup3\n        /* \"#utility.yul\":21917:21931   */\n      add\n        /* \"#utility.yul\":21910:21941   */\n      mstore\n        /* \"#utility.yul\":21793:21948   */\n      pop\n      jump\t// out\n        /* \"#utility.yul\":21954:22111   */\n    tag_217:\n        /* \"#utility.yul\":22094:22103   */\n      0x322e322e322e3200000000000000000000000000000000000000000000000000\n        /* \"#utility.yul\":22090:22091   */\n      0x00\n        /* \"#utility.yul\":22082:22088   */\n      dup3\n        /* \"#utility.yul\":22078:22092   */\n      add\n        /* \"#utility.yul\":22071:22104   */\n      mstore\n        /* \"#utility.yul\":21954:22111   */\n      pop\n      jump\t// out\n        /* \"#utility.yul\":22117:22279   */\n    tag_222:\n        /* \"#utility.yul\":22257:22271   */\n      0x4163636573732070617373210000000000000000000000000000000000000000\n        /* \"#utility.yul\":22253:22254   */\n      0x00\n        /* \"#utility.yul\":22245:22251   */\n      dup3\n        /* \"#utility.yul\":22241:22255   */\n      add\n        /* \"#utility.yul\":22234:22272   */\n      mstore\n        /* \"#utility.yul\":22117:22279   */\n      pop\n      jump\t// out\n        /* \"#utility.yul\":22285:22442   */\n    tag_227:\n        /* \"#utility.yul\":22425:22434   */\n      0x7265737461727400000000000000000000000000000000000000000000000000\n        /* \"#utility.yul\":22421:22422   */\n      0x00\n        /* \"#utility.yul\":22413:22419   */\n      dup3\n        /* \"#utility.yul\":22409:22423   */\n      add\n        /* \"#utility.yul\":22402:22435   */\n      mstore\n        /* \"#utility.yul\":22285:22442   */\n      pop\n      jump\t// out\n        /* \"#utility.yul\":22448:22617   */\n    tag_232:\n        /* \"#utility.yul\":22588:22609   */\n      0x496c6c6567616c20495020616464726573732100000000000000000000000000\n        /* \"#utility.yul\":22584:22585   */\n      0x00\n        /* \"#utility.yul\":22576:22582   */\n      dup3\n        /* \"#utility.yul\":22572:22586   */\n      add\n        /* \"#utility.yul\":22565:22610   */\n      mstore\n        /* \"#utility.yul\":22448:22617   */\n      pop\n      jump\t// out\n        /* \"#utility.yul\":22623:22777   */\n    tag_237:\n        /* \"#utility.yul\":22763:22769   */\n      0x6b696c6c00000000000000000000000000000000000000000000000000000000\n        /* \"#utility.yul\":22759:22760   */\n      0x00\n        /* \"#utility.yul\":22751:22757   */\n      dup3\n        /* \"#utility.yul\":22747:22761   */\n      add\n        /* \"#utility.yul\":22740:22770   */\n      mstore\n        /* \"#utility.yul\":22623:22777   */\n      pop\n      jump\t// out\n        /* \"#utility.yul\":22783:22937   */\n    tag_242:\n        /* \"#utility.yul\":22923:22929   */\n      0x6f70656e00000000000000000000000000000000000000000000000000000000\n        /* \"#utility.yul\":22919:22920   */\n      0x00\n        /* \"#utility.yul\":22911:22917   */\n      dup3\n        /* \"#utility.yul\":22907:22921   */\n      add\n        /* \"#utility.yul\":22900:22930   */\n      mstore\n        /* \"#utility.yul\":22783:22937   */\n      pop\n      jump\t// out\n        /* \"#utility.yul\":22943:23113   */\n    tag_247:\n        /* \"#utility.yul\":23083:23105   */\n      0x556e617574686f72697a65642061636365737321000000000000000000000000\n        /* \"#utility.yul\":23079:23080   */\n      0x00\n        /* \"#utility.yul\":23071:23077   */\n      dup3\n        /* \"#utility.yul\":23067:23081   */\n      add\n        /* \"#utility.yul\":23060:23106   */\n      mstore\n        /* \"#utility.yul\":22943:23113   */\n      pop\n      jump\t// out\n        /* \"#utility.yul\":23119:23301   */\n    tag_252:\n        /* \"#utility.yul\":23259:23293   */\n      0x5374696c6c20626c6f636b65642c20756e61626c6520746f2061636365737321\n        /* \"#utility.yul\":23255:23256   */\n      0x00\n        /* \"#utility.yul\":23247:23253   */\n      dup3\n        /* \"#utility.yul\":23243:23257   */\n      add\n        /* \"#utility.yul\":23236:23294   */\n      mstore\n        /* \"#utility.yul\":23119:23301   */\n      pop\n      jump\t// out\n        /* \"#utility.yul\":23307:23461   */\n    tag_257:\n        /* \"#utility.yul\":23447:23453   */\n      0x7265616400000000000000000000000000000000000000000000000000000000\n        /* \"#utility.yul\":23443:23444   */\n      0x00\n        /* \"#utility.yul\":23435:23441   */\n      dup3\n        /* \"#utility.yul\":23431:23445   */\n      add\n        /* \"#utility.yul\":23424:23454   */\n      mstore\n        /* \"#utility.yul\":23307:23461   */\n      pop\n      jump\t// out\n        /* \"#utility.yul\":23467:23589   */\n    tag_121:\n        /* \"#utility.yul\":23540:23564   */\n      tag_366\n        /* \"#utility.yul\":23558:23563   */\n      dup2\n        /* \"#utility.yul\":23540:23564   */\n      tag_184\n      jump\t// in\n    tag_366:\n        /* \"#utility.yul\":23533:23538   */\n      dup2\n        /* \"#utility.yul\":23530:23565   */\n      eq\n        /* \"#utility.yul\":23520:23583   */\n      tag_367\n      jumpi\n        /* \"#utility.yul\":23579:23580   */\n      0x00\n        /* \"#utility.yul\":23576:23577   */\n      dup1\n        /* \"#utility.yul\":23569:23581   */\n      revert\n        /* \"#utility.yul\":23520:23583   */\n    tag_367:\n        /* \"#utility.yul\":23467:23589   */\n      pop\n      jump\t// out\n        /* \"#utility.yul\":23595:23711   */\n    tag_125:\n        /* \"#utility.yul\":23665:23686   */\n      tag_369\n        /* \"#utility.yul\":23680:23685   */\n      dup2\n        /* \"#utility.yul\":23665:23686   */\n      tag_188\n      jump\t// in\n    tag_369:\n        /* \"#utility.yul\":23658:23663   */\n      dup2\n        /* \"#utility.yul\":23655:23687   */\n      eq\n        /* \"#utility.yul\":23645:23705   */\n      tag_370\n      jumpi\n        /* \"#utility.yul\":23701:23702   */\n      0x00\n        /* \"#utility.yul\":23698:23699   */\n      dup1\n        /* \"#utility.yul\":23691:23703   */\n      revert\n        /* \"#utility.yul\":23645:23705   */\n    tag_370:\n        /* \"#utility.yul\":23595:23711   */\n      pop\n      jump\t// out\n        /* \"#utility.yul\":23717:23839   */\n    tag_140:\n        /* \"#utility.yul\":23790:23814   */\n      tag_372\n        /* \"#utility.yul\":23808:23813   */\n      dup2\n        /* \"#utility.yul\":23790:23814   */\n      tag_261\n      jump\t// in\n    tag_372:\n        /* \"#utility.yul\":23783:23788   */\n      dup2\n        /* \"#utility.yul\":23780:23815   */\n      eq\n        /* \"#utility.yul\":23770:23833   */\n      tag_373\n      jumpi\n        /* \"#utility.yul\":23829:23830   */\n      0x00\n        /* \"#utility.yul\":23826:23827   */\n      dup1\n        /* \"#utility.yul\":23819:23831   */\n      revert\n        /* \"#utility.yul\":23770:23833   */\n    tag_373:\n        /* \"#utility.yul\":23717:23839   */\n      pop\n      jump\t// out\n\n    auxdata: 0xa26469706673582212202f2d113e0b73b4d8ac202c87cc0c7d37477ff4212e32e793d9e3da63578c828564736f6c63430008070033\n}\n",
				"bytecode": {
					"linkReferences": {},
					"object": "608060405234801561001057600080fd5b506114a3806100206000396000f3fe608060405234801561001057600080fd5b506004361061004c5760003560e01c806318da62291461005157806332076e7714610081578063c0821da3146100b1578063f09a4016146100cf575b600080fd5b61006b60048036038101906100669190610aa1565b6100eb565b604051610078919061105f565b60405180910390f35b61009b60048036038101906100969190610a45565b610113565b6040516100a89190611044565b60405180910390f35b6100b961058d565b6040516100c6919061107a565b60405180910390f35b6100e960048036038101906100e49190610a05565b610595565b005b60006002826040516100fd9190610def565b9081526020016040518091039020549050919050565b600061011d6106f7565b600061012761058d565b9050600080600160009054906101000a900473ffffffffffffffffffffffffffffffffffffffff1673ffffffffffffffffffffffffffffffffffffffff1663169c9de0336040518263ffffffff1660e01b81526004016101879190610e84565b604080518083038186803b15801561019e57600080fd5b505afa1580156101b2573d6000803e3d6000fd5b505050506040513d601f19601f820116820180604052508101906101d69190610bab565b80935081925050508180156101eb5750808311155b15610239577f365c8ddb6c298b196e110ce4bc267d2ed1319736bd9d74e983f0e9cf3202f697338787426040516102259493929190610fe5565b60405180910390a160009350505050610587565b600160009054906101000a900473ffffffffffffffffffffffffffffffffffffffff1673ffffffffffffffffffffffffffffffffffffffff166339d319e5336040518263ffffffff1660e01b81526004016102949190610e84565b600060405180830381600087803b1580156102ae57600080fd5b505af11580156102c2573d6000803e3d6000fd5b5050505060008060009054906101000a900473ffffffffffffffffffffffffffffffffffffffff1673ffffffffffffffffffffffffffffffffffffffff16638749774f33896040518363ffffffff1660e01b8152600401610324929190610e9f565b60006040518083038186803b15801561033c57600080fd5b505afa158015610350573d6000803e3d6000fd5b505050506040513d6000823e3d601f19601f820116820180604052508101906103799190610aea565b905060028160405161038b9190610def565b9081526020016040518091039020546002876040516103aa9190610def565b9081526020016040518091039020541315610409577f365c8ddb6c298b196e110ce4bc267d2ed1319736bd9d74e983f0e9cf3202f697338888426040516103f49493929190610f86565b60405180910390a16000945050505050610587565b60608060008054906101000a900473ffffffffffffffffffffffffffffffffffffffff1673ffffffffffffffffffffffffffffffffffffffff16639f764d16336040518263ffffffff1660e01b81526004016104659190610e84565b60006040518083038186803b15801561047d57600080fd5b505afa158015610491573d6000803e3d6000fd5b505050506040513d6000823e3d601f19601f820116820180604052508101906104ba9190610b33565b80925081935050506003816040516104d29190610def565b908152602001604051809103902060009054906101000a900460ff161561053f577f365c8ddb6c298b196e110ce4bc267d2ed1319736bd9d74e983f0e9cf3202f697338a8a426040516105289493929190610f27565b60405180910390a160009650505050505050610587565b7f365c8ddb6c298b196e110ce4bc267d2ed1319736bd9d74e983f0e9cf3202f697338a8a426040516105749493929190610ec8565b60405180910390a1600196505050505050505b92915050565b600042905090565b816000806101000a81548173ffffffffffffffffffffffffffffffffffffffff021916908373ffffffffffffffffffffffffffffffffffffffff16021790555080600160006101000a81548173ffffffffffffffffffffffffffffffffffffffff021916908373ffffffffffffffffffffffffffffffffffffffff1602179055506001600260405161062690610e6f565b90815260200160405180910390208190555060028060405161064790610e5a565b90815260200160405180910390208190555060028060405161066890610e06565b9081526020016040518091039020819055506003600260405161068a90610e30565b908152602001604051809103902081905550600360026040516106ac90610e45565b908152602001604051809103902081905550600160036040516106ce90610e1b565b908152602001604051809103902060006101000a81548160ff0219169083151502179055505050565b60011515600460003373ffffffffffffffffffffffffffffffffffffffff1673ffffffffffffffffffffffffffffffffffffffff16815260200190815260200160002060000160009054906101000a900460ff1615151415610841576000600460003373ffffffffffffffffffffffffffffffffffffffff1673ffffffffffffffffffffffffffffffffffffffff16815260200190815260200160002060010154426107a39190611112565b9050600a811161083b57600160009054906101000a900473ffffffffffffffffffffffffffffffffffffffff1673ffffffffffffffffffffffffffffffffffffffff166372700241336040518263ffffffff1660e01b81526004016108089190610e84565b600060405180830381600087803b15801561082257600080fd5b505af1158015610836573d6000803e3d6000fd5b505050505b506108e4565b6001600460003373ffffffffffffffffffffffffffffffffffffffff1673ffffffffffffffffffffffffffffffffffffffff16815260200190815260200160002060000160006101000a81548160ff02191690831515021790555042600460003373ffffffffffffffffffffffffffffffffffffffff1673ffffffffffffffffffffffffffffffffffffffff168152602001908152602001600020600101819055505b565b60006108f96108f4846110ba565b611095565b9050828152602081018484840111156109155761091461126e565b5b610920848285611198565b509392505050565b600061093b610936846110ba565b611095565b9050828152602081018484840111156109575761095661126e565b5b6109628482856111a7565b509392505050565b60008135905061097981611428565b92915050565b60008151905061098e8161143f565b92915050565b600082601f8301126109a9576109a8611269565b5b81356109b98482602086016108e6565b91505092915050565b600082601f8301126109d7576109d6611269565b5b81516109e7848260208601610928565b91505092915050565b6000815190506109ff81611456565b92915050565b60008060408385031215610a1c57610a1b611278565b5b6000610a2a8582860161096a565b9250506020610a3b8582860161096a565b9150509250929050565b60008060408385031215610a5c57610a5b611278565b5b6000610a6a8582860161096a565b925050602083013567ffffffffffffffff811115610a8b57610a8a611273565b5b610a9785828601610994565b9150509250929050565b600060208284031215610ab757610ab6611278565b5b600082013567ffffffffffffffff811115610ad557610ad4611273565b5b610ae184828501610994565b91505092915050565b600060208284031215610b0057610aff611278565b5b600082015167ffffffffffffffff811115610b1e57610b1d611273565b5b610b2a848285016109c2565b91505092915050565b60008060408385031215610b4a57610b49611278565b5b600083015167ffffffffffffffff811115610b6857610b67611273565b5b610b74858286016109c2565b925050602083015167ffffffffffffffff811115610b9557610b94611273565b5b610ba1858286016109c2565b9150509250929050565b60008060408385031215610bc257610bc1611278565b5b6000610bd0858286016109f0565b9250506020610be18582860161097f565b9150509250929050565b610bf481611146565b82525050565b610c0381611158565b82525050565b610c1281611164565b82525050565b6000610c23826110eb565b610c2d81856110f6565b9350610c3d8185602086016111a7565b610c468161127d565b840191505092915050565b6000610c5c826110eb565b610c668185611107565b9350610c768185602086016111a7565b80840191505092915050565b6000610c8f600583611107565b9150610c9a8261128e565b600582019050919050565b6000610cb2600783611107565b9150610cbd826112b7565b600782019050919050565b6000610cd5600c836110f6565b9150610ce0826112e0565b602082019050919050565b6000610cf8600783611107565b9150610d0382611309565b600782019050919050565b6000610d1b6013836110f6565b9150610d2682611332565b602082019050919050565b6000610d3e600483611107565b9150610d498261135b565b600482019050919050565b6000610d61600483611107565b9150610d6c82611384565b600482019050919050565b6000610d846014836110f6565b9150610d8f826113ad565b602082019050919050565b6000610da76020836110f6565b9150610db2826113d6565b602082019050919050565b6000610dca600483611107565b9150610dd5826113ff565b600482019050919050565b610de98161118e565b82525050565b6000610dfb8284610c51565b915081905092915050565b6000610e1182610c82565b9150819050919050565b6000610e2682610ca5565b9150819050919050565b6000610e3b82610ceb565b9150819050919050565b6000610e5082610d31565b9150819050919050565b6000610e6582610d54565b9150819050919050565b6000610e7a82610dbd565b9150819050919050565b6000602082019050610e996000830184610beb565b92915050565b6000604082019050610eb46000830185610beb565b610ec16020830184610beb565b9392505050565b600060a082019050610edd6000830187610beb565b610eea6020830186610beb565b8181036040830152610efc8185610c18565b90508181036060830152610f0f81610cc8565b9050610f1e6080830184610de0565b95945050505050565b600060a082019050610f3c6000830187610beb565b610f496020830186610beb565b8181036040830152610f5b8185610c18565b90508181036060830152610f6e81610d0e565b9050610f7d6080830184610de0565b95945050505050565b600060a082019050610f9b6000830187610beb565b610fa86020830186610beb565b8181036040830152610fba8185610c18565b90508181036060830152610fcd81610d77565b9050610fdc6080830184610de0565b95945050505050565b600060a082019050610ffa6000830187610beb565b6110076020830186610beb565b81810360408301526110198185610c18565b9050818103606083015261102c81610d9a565b905061103b6080830184610de0565b95945050505050565b60006020820190506110596000830184610bfa565b92915050565b60006020820190506110746000830184610c09565b92915050565b600060208201905061108f6000830184610de0565b92915050565b600061109f6110b0565b90506110ab82826111da565b919050565b6000604051905090565b600067ffffffffffffffff8211156110d5576110d461123a565b5b6110de8261127d565b9050602081019050919050565b600081519050919050565b600082825260208201905092915050565b600081905092915050565b600061111d8261118e565b91506111288361118e565b92508282101561113b5761113a61120b565b5b828203905092915050565b60006111518261116e565b9050919050565b60008115159050919050565b6000819050919050565b600073ffffffffffffffffffffffffffffffffffffffff82169050919050565b6000819050919050565b82818337600083830152505050565b60005b838110156111c55780820151818401526020810190506111aa565b838111156111d4576000848401525b50505050565b6111e38261127d565b810181811067ffffffffffffffff821117156112025761120161123a565b5b80604052505050565b7f4e487b7100000000000000000000000000000000000000000000000000000000600052601160045260246000fd5b7f4e487b7100000000000000000000000000000000000000000000000000000000600052604160045260246000fd5b600080fd5b600080fd5b600080fd5b600080fd5b6000601f19601f8301169050919050565b7f636c6f7365000000000000000000000000000000000000000000000000000000600082015250565b7f322e322e322e3200000000000000000000000000000000000000000000000000600082015250565b7f4163636573732070617373210000000000000000000000000000000000000000600082015250565b7f7265737461727400000000000000000000000000000000000000000000000000600082015250565b7f496c6c6567616c20495020616464726573732100000000000000000000000000600082015250565b7f6b696c6c00000000000000000000000000000000000000000000000000000000600082015250565b7f6f70656e00000000000000000000000000000000000000000000000000000000600082015250565b7f556e617574686f72697a65642061636365737321000000000000000000000000600082015250565b7f5374696c6c20626c6f636b65642c20756e61626c6520746f2061636365737321600082015250565b7f7265616400000000000000000000000000000000000000000000000000000000600082015250565b61143181611146565b811461143c57600080fd5b50565b61144881611158565b811461145357600080fd5b50565b61145f8161118e565b811461146a57600080fd5b5056fea26469706673582212202f2d113e0b73b4d8ac202c87cc0c7d37477ff4212e32e793d9e3da63578c828564736f6c63430008070033",
					"opcodes": "PUSH1 0x80 PUSH1 0x40 MSTORE CALLVALUE DUP1 ISZERO PUSH2 0x10 JUMPI PUSH1 0x0 DUP1 REVERT JUMPDEST POP PUSH2 0x14A3 DUP1 PUSH2 0x20 PUSH1 0x0 CODECOPY PUSH1 0x0 RETURN INVALID PUSH1 0x80 PUSH1 0x40 MSTORE CALLVALUE DUP1 ISZERO PUSH2 0x10 JUMPI PUSH1 0x0 DUP1 REVERT JUMPDEST POP PUSH1 0x4 CALLDATASIZE LT PUSH2 0x4C JUMPI PUSH1 0x0 CALLDATALOAD PUSH1 0xE0 SHR DUP1 PUSH4 0x18DA6229 EQ PUSH2 0x51 JUMPI DUP1 PUSH4 0x32076E77 EQ PUSH2 0x81 JUMPI DUP1 PUSH4 0xC0821DA3 EQ PUSH2 0xB1 JUMPI DUP1 PUSH4 0xF09A4016 EQ PUSH2 0xCF JUMPI JUMPDEST PUSH1 0x0 DUP1 REVERT JUMPDEST PUSH2 0x6B PUSH1 0x4 DUP1 CALLDATASIZE SUB DUP2 ADD SWAP1 PUSH2 0x66 SWAP2 SWAP1 PUSH2 0xAA1 JUMP JUMPDEST PUSH2 0xEB JUMP JUMPDEST PUSH1 0x40 MLOAD PUSH2 0x78 SWAP2 SWAP1 PUSH2 0x105F JUMP JUMPDEST PUSH1 0x40 MLOAD DUP1 SWAP2 SUB SWAP1 RETURN JUMPDEST PUSH2 0x9B PUSH1 0x4 DUP1 CALLDATASIZE SUB DUP2 ADD SWAP1 PUSH2 0x96 SWAP2 SWAP1 PUSH2 0xA45 JUMP JUMPDEST PUSH2 0x113 JUMP JUMPDEST PUSH1 0x40 MLOAD PUSH2 0xA8 SWAP2 SWAP1 PUSH2 0x1044 JUMP JUMPDEST PUSH1 0x40 MLOAD DUP1 SWAP2 SUB SWAP1 RETURN JUMPDEST PUSH2 0xB9 PUSH2 0x58D JUMP JUMPDEST PUSH1 0x40 MLOAD PUSH2 0xC6 SWAP2 SWAP1 PUSH2 0x107A JUMP JUMPDEST PUSH1 0x40 MLOAD DUP1 SWAP2 SUB SWAP1 RETURN JUMPDEST PUSH2 0xE9 PUSH1 0x4 DUP1 CALLDATASIZE SUB DUP2 ADD SWAP1 PUSH2 0xE4 SWAP2 SWAP1 PUSH2 0xA05 JUMP JUMPDEST PUSH2 0x595 JUMP JUMPDEST STOP JUMPDEST PUSH1 0x0 PUSH1 0x2 DUP3 PUSH1 0x40 MLOAD PUSH2 0xFD SWAP2 SWAP1 PUSH2 0xDEF JUMP JUMPDEST SWAP1 DUP2 MSTORE PUSH1 0x20 ADD PUSH1 0x40 MLOAD DUP1 SWAP2 SUB SWAP1 KECCAK256 SLOAD SWAP1 POP SWAP2 SWAP1 POP JUMP JUMPDEST PUSH1 0x0 PUSH2 0x11D PUSH2 0x6F7 JUMP JUMPDEST PUSH1 0x0 PUSH2 0x127 PUSH2 0x58D JUMP JUMPDEST SWAP1 POP PUSH1 0x0 DUP1 PUSH1 0x1 PUSH1 0x0 SWAP1 SLOAD SWAP1 PUSH2 0x100 EXP SWAP1 DIV PUSH20 0xFFFFFFFFFFFFFFFFFFFFFFFFFFFFFFFFFFFFFFFF AND PUSH20 0xFFFFFFFFFFFFFFFFFFFFFFFFFFFFFFFFFFFFFFFF AND PUSH4 0x169C9DE0 CALLER PUSH1 0x40 MLOAD DUP3 PUSH4 0xFFFFFFFF AND PUSH1 0xE0 SHL DUP2 MSTORE PUSH1 0x4 ADD PUSH2 0x187 SWAP2 SWAP1 PUSH2 0xE84 JUMP JUMPDEST PUSH1 0x40 DUP1 MLOAD DUP1 DUP4 SUB DUP2 DUP7 DUP1 EXTCODESIZE ISZERO DUP1 ISZERO PUSH2 0x19E JUMPI PUSH1 0x0 DUP1 REVERT JUMPDEST POP GAS STATICCALL ISZERO DUP1 ISZERO PUSH2 0x1B2 JUMPI RETURNDATASIZE PUSH1 0x0 DUP1 RETURNDATACOPY RETURNDATASIZE PUSH1 0x0 REVERT JUMPDEST POP POP POP POP PUSH1 0x40 MLOAD RETURNDATASIZE PUSH1 0x1F NOT PUSH1 0x1F DUP3 ADD AND DUP3 ADD DUP1 PUSH1 0x40 MSTORE POP DUP2 ADD SWAP1 PUSH2 0x1D6 SWAP2 SWAP1 PUSH2 0xBAB JUMP JUMPDEST DUP1 SWAP4 POP DUP2 SWAP3 POP POP POP DUP2 DUP1 ISZERO PUSH2 0x1EB JUMPI POP DUP1 DUP4 GT ISZERO JUMPDEST ISZERO PUSH2 0x239 JUMPI PUSH32 0x365C8DDB6C298B196E110CE4BC267D2ED1319736BD9D74E983F0E9CF3202F697 CALLER DUP8 DUP8 TIMESTAMP PUSH1 0x40 MLOAD PUSH2 0x225 SWAP5 SWAP4 SWAP3 SWAP2 SWAP1 PUSH2 0xFE5 JUMP JUMPDEST PUSH1 0x40 MLOAD DUP1 SWAP2 SUB SWAP1 LOG1 PUSH1 0x0 SWAP4 POP POP POP POP PUSH2 0x587 JUMP JUMPDEST PUSH1 0x1 PUSH1 0x0 SWAP1 SLOAD SWAP1 PUSH2 0x100 EXP SWAP1 DIV PUSH20 0xFFFFFFFFFFFFFFFFFFFFFFFFFFFFFFFFFFFFFFFF AND PUSH20 0xFFFFFFFFFFFFFFFFFFFFFFFFFFFFFFFFFFFFFFFF AND PUSH4 0x39D319E5 CALLER PUSH1 0x40 MLOAD DUP3 PUSH4 0xFFFFFFFF AND PUSH1 0xE0 SHL DUP2 MSTORE PUSH1 0x4 ADD PUSH2 0x294 SWAP2 SWAP1 PUSH2 0xE84 JUMP JUMPDEST PUSH1 0x0 PUSH1 0x40 MLOAD DUP1 DUP4 SUB DUP2 PUSH1 0x0 DUP8 DUP1 EXTCODESIZE ISZERO DUP1 ISZERO PUSH2 0x2AE JUMPI PUSH1 0x0 DUP1 REVERT JUMPDEST POP GAS CALL ISZERO DUP1 ISZERO PUSH2 0x2C2 JUMPI RETURNDATASIZE PUSH1 0x0 DUP1 RETURNDATACOPY RETURNDATASIZE PUSH1 0x0 REVERT JUMPDEST POP POP POP POP PUSH1 0x0 DUP1 PUSH1 0x0 SWAP1 SLOAD SWAP1 PUSH2 0x100 EXP SWAP1 DIV PUSH20 0xFFFFFFFFFFFFFFFFFFFFFFFFFFFFFFFFFFFFFFFF AND PUSH20 0xFFFFFFFFFFFFFFFFFFFFFFFFFFFFFFFFFFFFFFFF AND PUSH4 0x8749774F CALLER DUP10 PUSH1 0x40 MLOAD DUP4 PUSH4 0xFFFFFFFF AND PUSH1 0xE0 SHL DUP2 MSTORE PUSH1 0x4 ADD PUSH2 0x324 SWAP3 SWAP2 SWAP1 PUSH2 0xE9F JUMP JUMPDEST PUSH1 0x0 PUSH1 0x40 MLOAD DUP1 DUP4 SUB DUP2 DUP7 DUP1 EXTCODESIZE ISZERO DUP1 ISZERO PUSH2 0x33C JUMPI PUSH1 0x0 DUP1 REVERT JUMPDEST POP GAS STATICCALL ISZERO DUP1 ISZERO PUSH2 0x350 JUMPI RETURNDATASIZE PUSH1 0x0 DUP1 RETURNDATACOPY RETURNDATASIZE PUSH1 0x0 REVERT JUMPDEST POP POP POP POP PUSH1 0x40 MLOAD RETURNDATASIZE PUSH1 0x0 DUP3 RETURNDATACOPY RETURNDATASIZE PUSH1 0x1F NOT PUSH1 0x1F DUP3 ADD AND DUP3 ADD DUP1 PUSH1 0x40 MSTORE POP DUP2 ADD SWAP1 PUSH2 0x379 SWAP2 SWAP1 PUSH2 0xAEA JUMP JUMPDEST SWAP1 POP PUSH1 0x2 DUP2 PUSH1 0x40 MLOAD PUSH2 0x38B SWAP2 SWAP1 PUSH2 0xDEF JUMP JUMPDEST SWAP1 DUP2 MSTORE PUSH1 0x20 ADD PUSH1 0x40 MLOAD DUP1 SWAP2 SUB SWAP1 KECCAK256 SLOAD PUSH1 0x2 DUP8 PUSH1 0x40 MLOAD PUSH2 0x3AA SWAP2 SWAP1 PUSH2 0xDEF JUMP JUMPDEST SWAP1 DUP2 MSTORE PUSH1 0x20 ADD PUSH1 0x40 MLOAD DUP1 SWAP2 SUB SWAP1 KECCAK256 SLOAD SGT ISZERO PUSH2 0x409 JUMPI PUSH32 0x365C8DDB6C298B196E110CE4BC267D2ED1319736BD9D74E983F0E9CF3202F697 CALLER DUP9 DUP9 TIMESTAMP PUSH1 0x40 MLOAD PUSH2 0x3F4 SWAP5 SWAP4 SWAP3 SWAP2 SWAP1 PUSH2 0xF86 JUMP JUMPDEST PUSH1 0x40 MLOAD DUP1 SWAP2 SUB SWAP1 LOG1 PUSH1 0x0 SWAP5 POP POP POP POP POP PUSH2 0x587 JUMP JUMPDEST PUSH1 0x60 DUP1 PUSH1 0x0 DUP1 SLOAD SWAP1 PUSH2 0x100 EXP SWAP1 DIV PUSH20 0xFFFFFFFFFFFFFFFFFFFFFFFFFFFFFFFFFFFFFFFF AND PUSH20 0xFFFFFFFFFFFFFFFFFFFFFFFFFFFFFFFFFFFFFFFF AND PUSH4 0x9F764D16 CALLER PUSH1 0x40 MLOAD DUP3 PUSH4 0xFFFFFFFF AND PUSH1 0xE0 SHL DUP2 MSTORE PUSH1 0x4 ADD PUSH2 0x465 SWAP2 SWAP1 PUSH2 0xE84 JUMP JUMPDEST PUSH1 0x0 PUSH1 0x40 MLOAD DUP1 DUP4 SUB DUP2 DUP7 DUP1 EXTCODESIZE ISZERO DUP1 ISZERO PUSH2 0x47D JUMPI PUSH1 0x0 DUP1 REVERT JUMPDEST POP GAS STATICCALL ISZERO DUP1 ISZERO PUSH2 0x491 JUMPI RETURNDATASIZE PUSH1 0x0 DUP1 RETURNDATACOPY RETURNDATASIZE PUSH1 0x0 REVERT JUMPDEST POP POP POP POP PUSH1 0x40 MLOAD RETURNDATASIZE PUSH1 0x0 DUP3 RETURNDATACOPY RETURNDATASIZE PUSH1 0x1F NOT PUSH1 0x1F DUP3 ADD AND DUP3 ADD DUP1 PUSH1 0x40 MSTORE POP DUP2 ADD SWAP1 PUSH2 0x4BA SWAP2 SWAP1 PUSH2 0xB33 JUMP JUMPDEST DUP1 SWAP3 POP DUP2 SWAP4 POP POP POP PUSH1 0x3 DUP2 PUSH1 0x40 MLOAD PUSH2 0x4D2 SWAP2 SWAP1 PUSH2 0xDEF JUMP JUMPDEST SWAP1 DUP2 MSTORE PUSH1 0x20 ADD PUSH1 0x40 MLOAD DUP1 SWAP2 SUB SWAP1 KECCAK256 PUSH1 0x0 SWAP1 SLOAD SWAP1 PUSH2 0x100 EXP SWAP1 DIV PUSH1 0xFF AND ISZERO PUSH2 0x53F JUMPI PUSH32 0x365C8DDB6C298B196E110CE4BC267D2ED1319736BD9D74E983F0E9CF3202F697 CALLER DUP11 DUP11 TIMESTAMP PUSH1 0x40 MLOAD PUSH2 0x528 SWAP5 SWAP4 SWAP3 SWAP2 SWAP1 PUSH2 0xF27 JUMP JUMPDEST PUSH1 0x40 MLOAD DUP1 SWAP2 SUB SWAP1 LOG1 PUSH1 0x0 SWAP7 POP POP POP POP POP POP POP PUSH2 0x587 JUMP JUMPDEST PUSH32 0x365C8DDB6C298B196E110CE4BC267D2ED1319736BD9D74E983F0E9CF3202F697 CALLER DUP11 DUP11 TIMESTAMP PUSH1 0x40 MLOAD PUSH2 0x574 SWAP5 SWAP4 SWAP3 SWAP2 SWAP1 PUSH2 0xEC8 JUMP JUMPDEST PUSH1 0x40 MLOAD DUP1 SWAP2 SUB SWAP1 LOG1 PUSH1 0x1 SWAP7 POP POP POP POP POP POP POP JUMPDEST SWAP3 SWAP2 POP POP JUMP JUMPDEST PUSH1 0x0 TIMESTAMP SWAP1 POP SWAP1 JUMP JUMPDEST DUP2 PUSH1 0x0 DUP1 PUSH2 0x100 EXP DUP2 SLOAD DUP2 PUSH20 0xFFFFFFFFFFFFFFFFFFFFFFFFFFFFFFFFFFFFFFFF MUL NOT AND SWAP1 DUP4 PUSH20 0xFFFFFFFFFFFFFFFFFFFFFFFFFFFFFFFFFFFFFFFF AND MUL OR SWAP1 SSTORE POP DUP1 PUSH1 0x1 PUSH1 0x0 PUSH2 0x100 EXP DUP2 SLOAD DUP2 PUSH20 0xFFFFFFFFFFFFFFFFFFFFFFFFFFFFFFFFFFFFFFFF MUL NOT AND SWAP1 DUP4 PUSH20 0xFFFFFFFFFFFFFFFFFFFFFFFFFFFFFFFFFFFFFFFF AND MUL OR SWAP1 SSTORE POP PUSH1 0x1 PUSH1 0x2 PUSH1 0x40 MLOAD PUSH2 0x626 SWAP1 PUSH2 0xE6F JUMP JUMPDEST SWAP1 DUP2 MSTORE PUSH1 0x20 ADD PUSH1 0x40 MLOAD DUP1 SWAP2 SUB SWAP1 KECCAK256 DUP2 SWAP1 SSTORE POP PUSH1 0x2 DUP1 PUSH1 0x40 MLOAD PUSH2 0x647 SWAP1 PUSH2 0xE5A JUMP JUMPDEST SWAP1 DUP2 MSTORE PUSH1 0x20 ADD PUSH1 0x40 MLOAD DUP1 SWAP2 SUB SWAP1 KECCAK256 DUP2 SWAP1 SSTORE POP PUSH1 0x2 DUP1 PUSH1 0x40 MLOAD PUSH2 0x668 SWAP1 PUSH2 0xE06 JUMP JUMPDEST SWAP1 DUP2 MSTORE PUSH1 0x20 ADD PUSH1 0x40 MLOAD DUP1 SWAP2 SUB SWAP1 KECCAK256 DUP2 SWAP1 SSTORE POP PUSH1 0x3 PUSH1 0x2 PUSH1 0x40 MLOAD PUSH2 0x68A SWAP1 PUSH2 0xE30 JUMP JUMPDEST SWAP1 DUP2 MSTORE PUSH1 0x20 ADD PUSH1 0x40 MLOAD DUP1 SWAP2 SUB SWAP1 KECCAK256 DUP2 SWAP1 SSTORE POP PUSH1 0x3 PUSH1 0x2 PUSH1 0x40 MLOAD PUSH2 0x6AC SWAP1 PUSH2 0xE45 JUMP JUMPDEST SWAP1 DUP2 MSTORE PUSH1 0x20 ADD PUSH1 0x40 MLOAD DUP1 SWAP2 SUB SWAP1 KECCAK256 DUP2 SWAP1 SSTORE POP PUSH1 0x1 PUSH1 0x3 PUSH1 0x40 MLOAD PUSH2 0x6CE SWAP1 PUSH2 0xE1B JUMP JUMPDEST SWAP1 DUP2 MSTORE PUSH1 0x20 ADD PUSH1 0x40 MLOAD DUP1 SWAP2 SUB SWAP1 KECCAK256 PUSH1 0x0 PUSH2 0x100 EXP DUP2 SLOAD DUP2 PUSH1 0xFF MUL NOT AND SWAP1 DUP4 ISZERO ISZERO MUL OR SWAP1 SSTORE POP POP POP JUMP JUMPDEST PUSH1 0x1 ISZERO ISZERO PUSH1 0x4 PUSH1 0x0 CALLER PUSH20 0xFFFFFFFFFFFFFFFFFFFFFFFFFFFFFFFFFFFFFFFF AND PUSH20 0xFFFFFFFFFFFFFFFFFFFFFFFFFFFFFFFFFFFFFFFF AND DUP2 MSTORE PUSH1 0x20 ADD SWAP1 DUP2 MSTORE PUSH1 0x20 ADD PUSH1 0x0 KECCAK256 PUSH1 0x0 ADD PUSH1 0x0 SWAP1 SLOAD SWAP1 PUSH2 0x100 EXP SWAP1 DIV PUSH1 0xFF AND ISZERO ISZERO EQ ISZERO PUSH2 0x841 JUMPI PUSH1 0x0 PUSH1 0x4 PUSH1 0x0 CALLER PUSH20 0xFFFFFFFFFFFFFFFFFFFFFFFFFFFFFFFFFFFFFFFF AND PUSH20 0xFFFFFFFFFFFFFFFFFFFFFFFFFFFFFFFFFFFFFFFF AND DUP2 MSTORE PUSH1 0x20 ADD SWAP1 DUP2 MSTORE PUSH1 0x20 ADD PUSH1 0x0 KECCAK256 PUSH1 0x1 ADD SLOAD TIMESTAMP PUSH2 0x7A3 SWAP2 SWAP1 PUSH2 0x1112 JUMP JUMPDEST SWAP1 POP PUSH1 0xA DUP2 GT PUSH2 0x83B JUMPI PUSH1 0x1 PUSH1 0x0 SWAP1 SLOAD SWAP1 PUSH2 0x100 EXP SWAP1 DIV PUSH20 0xFFFFFFFFFFFFFFFFFFFFFFFFFFFFFFFFFFFFFFFF AND PUSH20 0xFFFFFFFFFFFFFFFFFFFFFFFFFFFFFFFFFFFFFFFF AND PUSH4 0x72700241 CALLER PUSH1 0x40 MLOAD DUP3 PUSH4 0xFFFFFFFF AND PUSH1 0xE0 SHL DUP2 MSTORE PUSH1 0x4 ADD PUSH2 0x808 SWAP2 SWAP1 PUSH2 0xE84 JUMP JUMPDEST PUSH1 0x0 PUSH1 0x40 MLOAD DUP1 DUP4 SUB DUP2 PUSH1 0x0 DUP8 DUP1 EXTCODESIZE ISZERO DUP1 ISZERO PUSH2 0x822 JUMPI PUSH1 0x0 DUP1 REVERT JUMPDEST POP GAS CALL ISZERO DUP1 ISZERO PUSH2 0x836 JUMPI RETURNDATASIZE PUSH1 0x0 DUP1 RETURNDATACOPY RETURNDATASIZE PUSH1 0x0 REVERT JUMPDEST POP POP POP POP JUMPDEST POP PUSH2 0x8E4 JUMP JUMPDEST PUSH1 0x1 PUSH1 0x4 PUSH1 0x0 CALLER PUSH20 0xFFFFFFFFFFFFFFFFFFFFFFFFFFFFFFFFFFFFFFFF AND PUSH20 0xFFFFFFFFFFFFFFFFFFFFFFFFFFFFFFFFFFFFFFFF AND DUP2 MSTORE PUSH1 0x20 ADD SWAP1 DUP2 MSTORE PUSH1 0x20 ADD PUSH1 0x0 KECCAK256 PUSH1 0x0 ADD PUSH1 0x0 PUSH2 0x100 EXP DUP2 SLOAD DUP2 PUSH1 0xFF MUL NOT AND SWAP1 DUP4 ISZERO ISZERO MUL OR SWAP1 SSTORE POP TIMESTAMP PUSH1 0x4 PUSH1 0x0 CALLER PUSH20 0xFFFFFFFFFFFFFFFFFFFFFFFFFFFFFFFFFFFFFFFF AND PUSH20 0xFFFFFFFFFFFFFFFFFFFFFFFFFFFFFFFFFFFFFFFF AND DUP2 MSTORE PUSH1 0x20 ADD SWAP1 DUP2 MSTORE PUSH1 0x20 ADD PUSH1 0x0 KECCAK256 PUSH1 0x1 ADD DUP2 SWAP1 SSTORE POP JUMPDEST JUMP JUMPDEST PUSH1 0x0 PUSH2 0x8F9 PUSH2 0x8F4 DUP5 PUSH2 0x10BA JUMP JUMPDEST PUSH2 0x1095 JUMP JUMPDEST SWAP1 POP DUP3 DUP2 MSTORE PUSH1 0x20 DUP2 ADD DUP5 DUP5 DUP5 ADD GT ISZERO PUSH2 0x915 JUMPI PUSH2 0x914 PUSH2 0x126E JUMP JUMPDEST JUMPDEST PUSH2 0x920 DUP5 DUP3 DUP6 PUSH2 0x1198 JUMP JUMPDEST POP SWAP4 SWAP3 POP POP POP JUMP JUMPDEST PUSH1 0x0 PUSH2 0x93B PUSH2 0x936 DUP5 PUSH2 0x10BA JUMP JUMPDEST PUSH2 0x1095 JUMP JUMPDEST SWAP1 POP DUP3 DUP2 MSTORE PUSH1 0x20 DUP2 ADD DUP5 DUP5 DUP5 ADD GT ISZERO PUSH2 0x957 JUMPI PUSH2 0x956 PUSH2 0x126E JUMP JUMPDEST JUMPDEST PUSH2 0x962 DUP5 DUP3 DUP6 PUSH2 0x11A7 JUMP JUMPDEST POP SWAP4 SWAP3 POP POP POP JUMP JUMPDEST PUSH1 0x0 DUP2 CALLDATALOAD SWAP1 POP PUSH2 0x979 DUP2 PUSH2 0x1428 JUMP JUMPDEST SWAP3 SWAP2 POP POP JUMP JUMPDEST PUSH1 0x0 DUP2 MLOAD SWAP1 POP PUSH2 0x98E DUP2 PUSH2 0x143F JUMP JUMPDEST SWAP3 SWAP2 POP POP JUMP JUMPDEST PUSH1 0x0 DUP3 PUSH1 0x1F DUP4 ADD SLT PUSH2 0x9A9 JUMPI PUSH2 0x9A8 PUSH2 0x1269 JUMP JUMPDEST JUMPDEST DUP2 CALLDATALOAD PUSH2 0x9B9 DUP5 DUP3 PUSH1 0x20 DUP7 ADD PUSH2 0x8E6 JUMP JUMPDEST SWAP2 POP POP SWAP3 SWAP2 POP POP JUMP JUMPDEST PUSH1 0x0 DUP3 PUSH1 0x1F DUP4 ADD SLT PUSH2 0x9D7 JUMPI PUSH2 0x9D6 PUSH2 0x1269 JUMP JUMPDEST JUMPDEST DUP2 MLOAD PUSH2 0x9E7 DUP5 DUP3 PUSH1 0x20 DUP7 ADD PUSH2 0x928 JUMP JUMPDEST SWAP2 POP POP SWAP3 SWAP2 POP POP JUMP JUMPDEST PUSH1 0x0 DUP2 MLOAD SWAP1 POP PUSH2 0x9FF DUP2 PUSH2 0x1456 JUMP JUMPDEST SWAP3 SWAP2 POP POP JUMP JUMPDEST PUSH1 0x0 DUP1 PUSH1 0x40 DUP4 DUP6 SUB SLT ISZERO PUSH2 0xA1C JUMPI PUSH2 0xA1B PUSH2 0x1278 JUMP JUMPDEST JUMPDEST PUSH1 0x0 PUSH2 0xA2A DUP6 DUP3 DUP7 ADD PUSH2 0x96A JUMP JUMPDEST SWAP3 POP POP PUSH1 0x20 PUSH2 0xA3B DUP6 DUP3 DUP7 ADD PUSH2 0x96A JUMP JUMPDEST SWAP2 POP POP SWAP3 POP SWAP3 SWAP1 POP JUMP JUMPDEST PUSH1 0x0 DUP1 PUSH1 0x40 DUP4 DUP6 SUB SLT ISZERO PUSH2 0xA5C JUMPI PUSH2 0xA5B PUSH2 0x1278 JUMP JUMPDEST JUMPDEST PUSH1 0x0 PUSH2 0xA6A DUP6 DUP3 DUP7 ADD PUSH2 0x96A JUMP JUMPDEST SWAP3 POP POP PUSH1 0x20 DUP4 ADD CALLDATALOAD PUSH8 0xFFFFFFFFFFFFFFFF DUP2 GT ISZERO PUSH2 0xA8B JUMPI PUSH2 0xA8A PUSH2 0x1273 JUMP JUMPDEST JUMPDEST PUSH2 0xA97 DUP6 DUP3 DUP7 ADD PUSH2 0x994 JUMP JUMPDEST SWAP2 POP POP SWAP3 POP SWAP3 SWAP1 POP JUMP JUMPDEST PUSH1 0x0 PUSH1 0x20 DUP3 DUP5 SUB SLT ISZERO PUSH2 0xAB7 JUMPI PUSH2 0xAB6 PUSH2 0x1278 JUMP JUMPDEST JUMPDEST PUSH1 0x0 DUP3 ADD CALLDATALOAD PUSH8 0xFFFFFFFFFFFFFFFF DUP2 GT ISZERO PUSH2 0xAD5 JUMPI PUSH2 0xAD4 PUSH2 0x1273 JUMP JUMPDEST JUMPDEST PUSH2 0xAE1 DUP5 DUP3 DUP6 ADD PUSH2 0x994 JUMP JUMPDEST SWAP2 POP POP SWAP3 SWAP2 POP POP JUMP JUMPDEST PUSH1 0x0 PUSH1 0x20 DUP3 DUP5 SUB SLT ISZERO PUSH2 0xB00 JUMPI PUSH2 0xAFF PUSH2 0x1278 JUMP JUMPDEST JUMPDEST PUSH1 0x0 DUP3 ADD MLOAD PUSH8 0xFFFFFFFFFFFFFFFF DUP2 GT ISZERO PUSH2 0xB1E JUMPI PUSH2 0xB1D PUSH2 0x1273 JUMP JUMPDEST JUMPDEST PUSH2 0xB2A DUP5 DUP3 DUP6 ADD PUSH2 0x9C2 JUMP JUMPDEST SWAP2 POP POP SWAP3 SWAP2 POP POP JUMP JUMPDEST PUSH1 0x0 DUP1 PUSH1 0x40 DUP4 DUP6 SUB SLT ISZERO PUSH2 0xB4A JUMPI PUSH2 0xB49 PUSH2 0x1278 JUMP JUMPDEST JUMPDEST PUSH1 0x0 DUP4 ADD MLOAD PUSH8 0xFFFFFFFFFFFFFFFF DUP2 GT ISZERO PUSH2 0xB68 JUMPI PUSH2 0xB67 PUSH2 0x1273 JUMP JUMPDEST JUMPDEST PUSH2 0xB74 DUP6 DUP3 DUP7 ADD PUSH2 0x9C2 JUMP JUMPDEST SWAP3 POP POP PUSH1 0x20 DUP4 ADD MLOAD PUSH8 0xFFFFFFFFFFFFFFFF DUP2 GT ISZERO PUSH2 0xB95 JUMPI PUSH2 0xB94 PUSH2 0x1273 JUMP JUMPDEST JUMPDEST PUSH2 0xBA1 DUP6 DUP3 DUP7 ADD PUSH2 0x9C2 JUMP JUMPDEST SWAP2 POP POP SWAP3 POP SWAP3 SWAP1 POP JUMP JUMPDEST PUSH1 0x0 DUP1 PUSH1 0x40 DUP4 DUP6 SUB SLT ISZERO PUSH2 0xBC2 JUMPI PUSH2 0xBC1 PUSH2 0x1278 JUMP JUMPDEST JUMPDEST PUSH1 0x0 PUSH2 0xBD0 DUP6 DUP3 DUP7 ADD PUSH2 0x9F0 JUMP JUMPDEST SWAP3 POP POP PUSH1 0x20 PUSH2 0xBE1 DUP6 DUP3 DUP7 ADD PUSH2 0x97F JUMP JUMPDEST SWAP2 POP POP SWAP3 POP SWAP3 SWAP1 POP JUMP JUMPDEST PUSH2 0xBF4 DUP2 PUSH2 0x1146 JUMP JUMPDEST DUP3 MSTORE POP POP JUMP JUMPDEST PUSH2 0xC03 DUP2 PUSH2 0x1158 JUMP JUMPDEST DUP3 MSTORE POP POP JUMP JUMPDEST PUSH2 0xC12 DUP2 PUSH2 0x1164 JUMP JUMPDEST DUP3 MSTORE POP POP JUMP JUMPDEST PUSH1 0x0 PUSH2 0xC23 DUP3 PUSH2 0x10EB JUMP JUMPDEST PUSH2 0xC2D DUP2 DUP6 PUSH2 0x10F6 JUMP JUMPDEST SWAP4 POP PUSH2 0xC3D DUP2 DUP6 PUSH1 0x20 DUP7 ADD PUSH2 0x11A7 JUMP JUMPDEST PUSH2 0xC46 DUP2 PUSH2 0x127D JUMP JUMPDEST DUP5 ADD SWAP2 POP POP SWAP3 SWAP2 POP POP JUMP JUMPDEST PUSH1 0x0 PUSH2 0xC5C DUP3 PUSH2 0x10EB JUMP JUMPDEST PUSH2 0xC66 DUP2 DUP6 PUSH2 0x1107 JUMP JUMPDEST SWAP4 POP PUSH2 0xC76 DUP2 DUP6 PUSH1 0x20 DUP7 ADD PUSH2 0x11A7 JUMP JUMPDEST DUP1 DUP5 ADD SWAP2 POP POP SWAP3 SWAP2 POP POP JUMP JUMPDEST PUSH1 0x0 PUSH2 0xC8F PUSH1 0x5 DUP4 PUSH2 0x1107 JUMP JUMPDEST SWAP2 POP PUSH2 0xC9A DUP3 PUSH2 0x128E JUMP JUMPDEST PUSH1 0x5 DUP3 ADD SWAP1 POP SWAP2 SWAP1 POP JUMP JUMPDEST PUSH1 0x0 PUSH2 0xCB2 PUSH1 0x7 DUP4 PUSH2 0x1107 JUMP JUMPDEST SWAP2 POP PUSH2 0xCBD DUP3 PUSH2 0x12B7 JUMP JUMPDEST PUSH1 0x7 DUP3 ADD SWAP1 POP SWAP2 SWAP1 POP JUMP JUMPDEST PUSH1 0x0 PUSH2 0xCD5 PUSH1 0xC DUP4 PUSH2 0x10F6 JUMP JUMPDEST SWAP2 POP PUSH2 0xCE0 DUP3 PUSH2 0x12E0 JUMP JUMPDEST PUSH1 0x20 DUP3 ADD SWAP1 POP SWAP2 SWAP1 POP JUMP JUMPDEST PUSH1 0x0 PUSH2 0xCF8 PUSH1 0x7 DUP4 PUSH2 0x1107 JUMP JUMPDEST SWAP2 POP PUSH2 0xD03 DUP3 PUSH2 0x1309 JUMP JUMPDEST PUSH1 0x7 DUP3 ADD SWAP1 POP SWAP2 SWAP1 POP JUMP JUMPDEST PUSH1 0x0 PUSH2 0xD1B PUSH1 0x13 DUP4 PUSH2 0x10F6 JUMP JUMPDEST SWAP2 POP PUSH2 0xD26 DUP3 PUSH2 0x1332 JUMP JUMPDEST PUSH1 0x20 DUP3 ADD SWAP1 POP SWAP2 SWAP1 POP JUMP JUMPDEST PUSH1 0x0 PUSH2 0xD3E PUSH1 0x4 DUP4 PUSH2 0x1107 JUMP JUMPDEST SWAP2 POP PUSH2 0xD49 DUP3 PUSH2 0x135B JUMP JUMPDEST PUSH1 0x4 DUP3 ADD SWAP1 POP SWAP2 SWAP1 POP JUMP JUMPDEST PUSH1 0x0 PUSH2 0xD61 PUSH1 0x4 DUP4 PUSH2 0x1107 JUMP JUMPDEST SWAP2 POP PUSH2 0xD6C DUP3 PUSH2 0x1384 JUMP JUMPDEST PUSH1 0x4 DUP3 ADD SWAP1 POP SWAP2 SWAP1 POP JUMP JUMPDEST PUSH1 0x0 PUSH2 0xD84 PUSH1 0x14 DUP4 PUSH2 0x10F6 JUMP JUMPDEST SWAP2 POP PUSH2 0xD8F DUP3 PUSH2 0x13AD JUMP JUMPDEST PUSH1 0x20 DUP3 ADD SWAP1 POP SWAP2 SWAP1 POP JUMP JUMPDEST PUSH1 0x0 PUSH2 0xDA7 PUSH1 0x20 DUP4 PUSH2 0x10F6 JUMP JUMPDEST SWAP2 POP PUSH2 0xDB2 DUP3 PUSH2 0x13D6 JUMP JUMPDEST PUSH1 0x20 DUP3 ADD SWAP1 POP SWAP2 SWAP1 POP JUMP JUMPDEST PUSH1 0x0 PUSH2 0xDCA PUSH1 0x4 DUP4 PUSH2 0x1107 JUMP JUMPDEST SWAP2 POP PUSH2 0xDD5 DUP3 PUSH2 0x13FF JUMP JUMPDEST PUSH1 0x4 DUP3 ADD SWAP1 POP SWAP2 SWAP1 POP JUMP JUMPDEST PUSH2 0xDE9 DUP2 PUSH2 0x118E JUMP JUMPDEST DUP3 MSTORE POP POP JUMP JUMPDEST PUSH1 0x0 PUSH2 0xDFB DUP3 DUP5 PUSH2 0xC51 JUMP JUMPDEST SWAP2 POP DUP2 SWAP1 POP SWAP3 SWAP2 POP POP JUMP JUMPDEST PUSH1 0x0 PUSH2 0xE11 DUP3 PUSH2 0xC82 JUMP JUMPDEST SWAP2 POP DUP2 SWAP1 POP SWAP2 SWAP1 POP JUMP JUMPDEST PUSH1 0x0 PUSH2 0xE26 DUP3 PUSH2 0xCA5 JUMP JUMPDEST SWAP2 POP DUP2 SWAP1 POP SWAP2 SWAP1 POP JUMP JUMPDEST PUSH1 0x0 PUSH2 0xE3B DUP3 PUSH2 0xCEB JUMP JUMPDEST SWAP2 POP DUP2 SWAP1 POP SWAP2 SWAP1 POP JUMP JUMPDEST PUSH1 0x0 PUSH2 0xE50 DUP3 PUSH2 0xD31 JUMP JUMPDEST SWAP2 POP DUP2 SWAP1 POP SWAP2 SWAP1 POP JUMP JUMPDEST PUSH1 0x0 PUSH2 0xE65 DUP3 PUSH2 0xD54 JUMP JUMPDEST SWAP2 POP DUP2 SWAP1 POP SWAP2 SWAP1 POP JUMP JUMPDEST PUSH1 0x0 PUSH2 0xE7A DUP3 PUSH2 0xDBD JUMP JUMPDEST SWAP2 POP DUP2 SWAP1 POP SWAP2 SWAP1 POP JUMP JUMPDEST PUSH1 0x0 PUSH1 0x20 DUP3 ADD SWAP1 POP PUSH2 0xE99 PUSH1 0x0 DUP4 ADD DUP5 PUSH2 0xBEB JUMP JUMPDEST SWAP3 SWAP2 POP POP JUMP JUMPDEST PUSH1 0x0 PUSH1 0x40 DUP3 ADD SWAP1 POP PUSH2 0xEB4 PUSH1 0x0 DUP4 ADD DUP6 PUSH2 0xBEB JUMP JUMPDEST PUSH2 0xEC1 PUSH1 0x20 DUP4 ADD DUP5 PUSH2 0xBEB JUMP JUMPDEST SWAP4 SWAP3 POP POP POP JUMP JUMPDEST PUSH1 0x0 PUSH1 0xA0 DUP3 ADD SWAP1 POP PUSH2 0xEDD PUSH1 0x0 DUP4 ADD DUP8 PUSH2 0xBEB JUMP JUMPDEST PUSH2 0xEEA PUSH1 0x20 DUP4 ADD DUP7 PUSH2 0xBEB JUMP JUMPDEST DUP2 DUP2 SUB PUSH1 0x40 DUP4 ADD MSTORE PUSH2 0xEFC DUP2 DUP6 PUSH2 0xC18 JUMP JUMPDEST SWAP1 POP DUP2 DUP2 SUB PUSH1 0x60 DUP4 ADD MSTORE PUSH2 0xF0F DUP2 PUSH2 0xCC8 JUMP JUMPDEST SWAP1 POP PUSH2 0xF1E PUSH1 0x80 DUP4 ADD DUP5 PUSH2 0xDE0 JUMP JUMPDEST SWAP6 SWAP5 POP POP POP POP POP JUMP JUMPDEST PUSH1 0x0 PUSH1 0xA0 DUP3 ADD SWAP1 POP PUSH2 0xF3C PUSH1 0x0 DUP4 ADD DUP8 PUSH2 0xBEB JUMP JUMPDEST PUSH2 0xF49 PUSH1 0x20 DUP4 ADD DUP7 PUSH2 0xBEB JUMP JUMPDEST DUP2 DUP2 SUB PUSH1 0x40 DUP4 ADD MSTORE PUSH2 0xF5B DUP2 DUP6 PUSH2 0xC18 JUMP JUMPDEST SWAP1 POP DUP2 DUP2 SUB PUSH1 0x60 DUP4 ADD MSTORE PUSH2 0xF6E DUP2 PUSH2 0xD0E JUMP JUMPDEST SWAP1 POP PUSH2 0xF7D PUSH1 0x80 DUP4 ADD DUP5 PUSH2 0xDE0 JUMP JUMPDEST SWAP6 SWAP5 POP POP POP POP POP JUMP JUMPDEST PUSH1 0x0 PUSH1 0xA0 DUP3 ADD SWAP1 POP PUSH2 0xF9B PUSH1 0x0 DUP4 ADD DUP8 PUSH2 0xBEB JUMP JUMPDEST PUSH2 0xFA8 PUSH1 0x20 DUP4 ADD DUP7 PUSH2 0xBEB JUMP JUMPDEST DUP2 DUP2 SUB PUSH1 0x40 DUP4 ADD MSTORE PUSH2 0xFBA DUP2 DUP6 PUSH2 0xC18 JUMP JUMPDEST SWAP1 POP DUP2 DUP2 SUB PUSH1 0x60 DUP4 ADD MSTORE PUSH2 0xFCD DUP2 PUSH2 0xD77 JUMP JUMPDEST SWAP1 POP PUSH2 0xFDC PUSH1 0x80 DUP4 ADD DUP5 PUSH2 0xDE0 JUMP JUMPDEST SWAP6 SWAP5 POP POP POP POP POP JUMP JUMPDEST PUSH1 0x0 PUSH1 0xA0 DUP3 ADD SWAP1 POP PUSH2 0xFFA PUSH1 0x0 DUP4 ADD DUP8 PUSH2 0xBEB JUMP JUMPDEST PUSH2 0x1007 PUSH1 0x20 DUP4 ADD DUP7 PUSH2 0xBEB JUMP JUMPDEST DUP2 DUP2 SUB PUSH1 0x40 DUP4 ADD MSTORE PUSH2 0x1019 DUP2 DUP6 PUSH2 0xC18 JUMP JUMPDEST SWAP1 POP DUP2 DUP2 SUB PUSH1 0x60 DUP4 ADD MSTORE PUSH2 0x102C DUP2 PUSH2 0xD9A JUMP JUMPDEST SWAP1 POP PUSH2 0x103B PUSH1 0x80 DUP4 ADD DUP5 PUSH2 0xDE0 JUMP JUMPDEST SWAP6 SWAP5 POP POP POP POP POP JUMP JUMPDEST PUSH1 0x0 PUSH1 0x20 DUP3 ADD SWAP1 POP PUSH2 0x1059 PUSH1 0x0 DUP4 ADD DUP5 PUSH2 0xBFA JUMP JUMPDEST SWAP3 SWAP2 POP POP JUMP JUMPDEST PUSH1 0x0 PUSH1 0x20 DUP3 ADD SWAP1 POP PUSH2 0x1074 PUSH1 0x0 DUP4 ADD DUP5 PUSH2 0xC09 JUMP JUMPDEST SWAP3 SWAP2 POP POP JUMP JUMPDEST PUSH1 0x0 PUSH1 0x20 DUP3 ADD SWAP1 POP PUSH2 0x108F PUSH1 0x0 DUP4 ADD DUP5 PUSH2 0xDE0 JUMP JUMPDEST SWAP3 SWAP2 POP POP JUMP JUMPDEST PUSH1 0x0 PUSH2 0x109F PUSH2 0x10B0 JUMP JUMPDEST SWAP1 POP PUSH2 0x10AB DUP3 DUP3 PUSH2 0x11DA JUMP JUMPDEST SWAP2 SWAP1 POP JUMP JUMPDEST PUSH1 0x0 PUSH1 0x40 MLOAD SWAP1 POP SWAP1 JUMP JUMPDEST PUSH1 0x0 PUSH8 0xFFFFFFFFFFFFFFFF DUP3 GT ISZERO PUSH2 0x10D5 JUMPI PUSH2 0x10D4 PUSH2 0x123A JUMP JUMPDEST JUMPDEST PUSH2 0x10DE DUP3 PUSH2 0x127D JUMP JUMPDEST SWAP1 POP PUSH1 0x20 DUP2 ADD SWAP1 POP SWAP2 SWAP1 POP JUMP JUMPDEST PUSH1 0x0 DUP2 MLOAD SWAP1 POP SWAP2 SWAP1 POP JUMP JUMPDEST PUSH1 0x0 DUP3 DUP3 MSTORE PUSH1 0x20 DUP3 ADD SWAP1 POP SWAP3 SWAP2 POP POP JUMP JUMPDEST PUSH1 0x0 DUP2 SWAP1 POP SWAP3 SWAP2 POP POP JUMP JUMPDEST PUSH1 0x0 PUSH2 0x111D DUP3 PUSH2 0x118E JUMP JUMPDEST SWAP2 POP PUSH2 0x1128 DUP4 PUSH2 0x118E JUMP JUMPDEST SWAP3 POP DUP3 DUP3 LT ISZERO PUSH2 0x113B JUMPI PUSH2 0x113A PUSH2 0x120B JUMP JUMPDEST JUMPDEST DUP3 DUP3 SUB SWAP1 POP SWAP3 SWAP2 POP POP JUMP JUMPDEST PUSH1 0x0 PUSH2 0x1151 DUP3 PUSH2 0x116E JUMP JUMPDEST SWAP1 POP SWAP2 SWAP1 POP JUMP JUMPDEST PUSH1 0x0 DUP2 ISZERO ISZERO SWAP1 POP SWAP2 SWAP1 POP JUMP JUMPDEST PUSH1 0x0 DUP2 SWAP1 POP SWAP2 SWAP1 POP JUMP JUMPDEST PUSH1 0x0 PUSH20 0xFFFFFFFFFFFFFFFFFFFFFFFFFFFFFFFFFFFFFFFF DUP3 AND SWAP1 POP SWAP2 SWAP1 POP JUMP JUMPDEST PUSH1 0x0 DUP2 SWAP1 POP SWAP2 SWAP1 POP JUMP JUMPDEST DUP3 DUP2 DUP4 CALLDATACOPY PUSH1 0x0 DUP4 DUP4 ADD MSTORE POP POP POP JUMP JUMPDEST PUSH1 0x0 JUMPDEST DUP4 DUP2 LT ISZERO PUSH2 0x11C5 JUMPI DUP1 DUP3 ADD MLOAD DUP2 DUP5 ADD MSTORE PUSH1 0x20 DUP2 ADD SWAP1 POP PUSH2 0x11AA JUMP JUMPDEST DUP4 DUP2 GT ISZERO PUSH2 0x11D4 JUMPI PUSH1 0x0 DUP5 DUP5 ADD MSTORE JUMPDEST POP POP POP POP JUMP JUMPDEST PUSH2 0x11E3 DUP3 PUSH2 0x127D JUMP JUMPDEST DUP2 ADD DUP2 DUP2 LT PUSH8 0xFFFFFFFFFFFFFFFF DUP3 GT OR ISZERO PUSH2 0x1202 JUMPI PUSH2 0x1201 PUSH2 0x123A JUMP JUMPDEST JUMPDEST DUP1 PUSH1 0x40 MSTORE POP POP POP JUMP JUMPDEST PUSH32 0x4E487B7100000000000000000000000000000000000000000000000000000000 PUSH1 0x0 MSTORE PUSH1 0x11 PUSH1 0x4 MSTORE PUSH1 0x24 PUSH1 0x0 REVERT JUMPDEST PUSH32 0x4E487B7100000000000000000000000000000000000000000000000000000000 PUSH1 0x0 MSTORE PUSH1 0x41 PUSH1 0x4 MSTORE PUSH1 0x24 PUSH1 0x0 REVERT JUMPDEST PUSH1 0x0 DUP1 REVERT JUMPDEST PUSH1 0x0 DUP1 REVERT JUMPDEST PUSH1 0x0 DUP1 REVERT JUMPDEST PUSH1 0x0 DUP1 REVERT JUMPDEST PUSH1 0x0 PUSH1 0x1F NOT PUSH1 0x1F DUP4 ADD AND SWAP1 POP SWAP2 SWAP1 POP JUMP JUMPDEST PUSH32 0x636C6F7365000000000000000000000000000000000000000000000000000000 PUSH1 0x0 DUP3 ADD MSTORE POP JUMP JUMPDEST PUSH32 0x322E322E322E3200000000000000000000000000000000000000000000000000 PUSH1 0x0 DUP3 ADD MSTORE POP JUMP JUMPDEST PUSH32 0x4163636573732070617373210000000000000000000000000000000000000000 PUSH1 0x0 DUP3 ADD MSTORE POP JUMP JUMPDEST PUSH32 0x7265737461727400000000000000000000000000000000000000000000000000 PUSH1 0x0 DUP3 ADD MSTORE POP JUMP JUMPDEST PUSH32 0x496C6C6567616C20495020616464726573732100000000000000000000000000 PUSH1 0x0 DUP3 ADD MSTORE POP JUMP JUMPDEST PUSH32 0x6B696C6C00000000000000000000000000000000000000000000000000000000 PUSH1 0x0 DUP3 ADD MSTORE POP JUMP JUMPDEST PUSH32 0x6F70656E00000000000000000000000000000000000000000000000000000000 PUSH1 0x0 DUP3 ADD MSTORE POP JUMP JUMPDEST PUSH32 0x556E617574686F72697A65642061636365737321000000000000000000000000 PUSH1 0x0 DUP3 ADD MSTORE POP JUMP JUMPDEST PUSH32 0x5374696C6C20626C6F636B65642C20756E61626C6520746F2061636365737321 PUSH1 0x0 DUP3 ADD MSTORE POP JUMP JUMPDEST PUSH32 0x7265616400000000000000000000000000000000000000000000000000000000 PUSH1 0x0 DUP3 ADD MSTORE POP JUMP JUMPDEST PUSH2 0x1431 DUP2 PUSH2 0x1146 JUMP JUMPDEST DUP2 EQ PUSH2 0x143C JUMPI PUSH1 0x0 DUP1 REVERT JUMPDEST POP JUMP JUMPDEST PUSH2 0x1448 DUP2 PUSH2 0x1158 JUMP JUMPDEST DUP2 EQ PUSH2 0x1453 JUMPI PUSH1 0x0 DUP1 REVERT JUMPDEST POP JUMP JUMPDEST PUSH2 0x145F DUP2 PUSH2 0x118E JUMP JUMPDEST DUP2 EQ PUSH2 0x146A JUMPI PUSH1 0x0 DUP1 REVERT JUMPDEST POP JUMP INVALID LOG2 PUSH5 0x6970667358 0x22 SLT KECCAK256 0x2F 0x2D GT RETURNDATACOPY SIGNEXTEND PUSH20 0xB4D8AC202C87CC0C7D37477FF4212E32E793D9E3 0xDA PUSH4 0x578C8285 PUSH5 0x736F6C6343 STOP ADDMOD SMOD STOP CALLER "
				},
				"gasEstimates": {
					"creation": {
						"codeDepositCost": "1056600",
						"executionCost": "1100",
						"totalCost": "1057700"
					},
					"external": {
						"accessControl(address,string)": "infinite",
						"getActionNum(string)": "infinite",
						"getCurTime()": "358",
						"init(address,address)": "infinite"
					},
					"internal": {
						"checkRequesterStatus()": "infinite"
					}
				},
				"methodIdentifiers": {
					"accessControl(address,string)": "32076e77",
					"getActionNum(string)": "18da6229",
					"getCurTime()": "c0821da3",
					"init(address,address)": "f09a4016"
				}
			},
			"storageLayout": {
				"storage": [
					{
						"astId": 6,
						"contract": "contracts/AccessControl.sol:AccessControl",
						"label": "manager",
						"offset": 0,
						"slot": "0",
						"type": "t_contract(Management)653"
					},
					{
						"astId": 9,
						"contract": "contracts/AccessControl.sol:AccessControl",
						"label": "judge",
						"offset": 0,
						"slot": "1",
						"type": "t_contract(Judge)430"
					},
					{
						"astId": 18,
						"contract": "contracts/AccessControl.sol:AccessControl",
						"label": "rightTable",
						"offset": 0,
						"slot": "2",
						"type": "t_mapping(t_string_memory_ptr,t_int256)"
					},
					{
						"astId": 22,
						"contract": "contracts/AccessControl.sol:AccessControl",
						"label": "blackListIpMap",
						"offset": 0,
						"slot": "3",
						"type": "t_mapping(t_string_memory_ptr,t_bool)"
					},
					{
						"astId": 27,
						"contract": "contracts/AccessControl.sol:AccessControl",
						"label": "requestMap",
						"offset": 0,
						"slot": "4",
						"type": "t_mapping(t_address,t_struct(Requester)14_storage)"
					}
				],
				"types": {
					"t_address": {
						"encoding": "inplace",
						"label": "address",
						"numberOfBytes": "20"
					},
					"t_bool": {
						"encoding": "inplace",
						"label": "bool",
						"numberOfBytes": "1"
					},
					"t_contract(Judge)430": {
						"encoding": "inplace",
						"label": "contract Judge",
						"numberOfBytes": "20"
					},
					"t_contract(Management)653": {
						"encoding": "inplace",
						"label": "contract Management",
						"numberOfBytes": "20"
					},
					"t_int256": {
						"encoding": "inplace",
						"label": "int256",
						"numberOfBytes": "32"
					},
					"t_mapping(t_address,t_struct(Requester)14_storage)": {
						"encoding": "mapping",
						"key": "t_address",
						"label": "mapping(address => struct AccessControl.Requester)",
						"numberOfBytes": "32",
						"value": "t_struct(Requester)14_storage"
					},
					"t_mapping(t_string_memory_ptr,t_bool)": {
						"encoding": "mapping",
						"key": "t_string_memory_ptr",
						"label": "mapping(string => bool)",
						"numberOfBytes": "32",
						"value": "t_bool"
					},
					"t_mapping(t_string_memory_ptr,t_int256)": {
						"encoding": "mapping",
						"key": "t_string_memory_ptr",
						"label": "mapping(string => int256)",
						"numberOfBytes": "32",
						"value": "t_int256"
					},
					"t_string_memory_ptr": {
						"encoding": "bytes",
						"label": "string",
						"numberOfBytes": "32"
					},
					"t_struct(Requester)14_storage": {
						"encoding": "inplace",
						"label": "struct AccessControl.Requester",
						"members": [
							{
								"astId": 11,
								"contract": "contracts/AccessControl.sol:AccessControl",
								"label": "isRequested",
								"offset": 0,
								"slot": "0",
								"type": "t_bool"
							},
							{
								"astId": 13,
								"contract": "contracts/AccessControl.sol:AccessControl",
								"label": "ToLR",
								"offset": 0,
								"slot": "1",
								"type": "t_uint256"
							}
						],
						"numberOfBytes": "64"
					},
					"t_uint256": {
						"encoding": "inplace",
						"label": "uint256",
						"numberOfBytes": "32"
					}
				}
			},
			"userdoc": {
				"kind": "user",
				"methods": {},
				"version": 1
			}
		}
	}
}