{
	"contracts/Management.sol": {
		"Management": {
			"abi": [
				{
					"inputs": [
						{
							"internalType": "address",
							"name": "_addr",
							"type": "address"
						}
					],
					"name": "getDeviceInfoByAddr",
					"outputs": [
						{
							"components": [
								{
									"internalType": "address",
									"name": "deviceAddr",
									"type": "address"
								},
								{
									"internalType": "string",
									"name": "deviceName",
									"type": "string"
								},
								{
									"internalType": "string",
									"name": "deviceType",
									"type": "string"
								},
								{
									"internalType": "string",
									"name": "status",
									"type": "string"
								}
							],
							"internalType": "struct Management.DeviceInfo",
							"name": "",
							"type": "tuple"
						}
					],
					"stateMutability": "view",
					"type": "function"
				},
				{
					"inputs": [
						{
							"internalType": "address",
							"name": "_subjectAddr",
							"type": "address"
						},
						{
							"internalType": "address",
							"name": "_objectAddr",
							"type": "address"
						}
					],
					"name": "getRight",
					"outputs": [
						{
							"internalType": "string",
							"name": "",
							"type": "string"
						}
					],
					"stateMutability": "view",
					"type": "function"
				},
				{
					"inputs": [
						{
							"internalType": "address",
							"name": "_subjectAddr",
							"type": "address"
						}
					],
					"name": "getSubjInfo",
					"outputs": [
						{
							"internalType": "string",
							"name": "subjName",
							"type": "string"
						},
						{
							"internalType": "string",
							"name": "ipAddr",
							"type": "string"
						}
					],
					"stateMutability": "view",
					"type": "function"
				},
				{
					"inputs": [],
					"name": "init",
					"outputs": [],
					"stateMutability": "nonpayable",
					"type": "function"
				},
				{
					"inputs": [
						{
							"internalType": "address",
							"name": "_deviceAddr",
							"type": "address"
						},
						{
							"internalType": "string",
							"name": "right",
							"type": "string"
						}
					],
					"name": "register4Right",
					"outputs": [],
					"stateMutability": "nonpayable",
					"type": "function"
				},
				{
					"inputs": [
						{
							"internalType": "address",
							"name": "_deviceAddr",
							"type": "address"
						},
						{
							"internalType": "string",
							"name": "_deviceName",
							"type": "string"
						},
						{
							"internalType": "string",
							"name": "_deviceType",
							"type": "string"
						},
						{
							"internalType": "string",
							"name": "_status",
							"type": "string"
						}
					],
					"name": "setDeviceInfo",
					"outputs": [],
					"stateMutability": "nonpayable",
					"type": "function"
				},
				{
					"inputs": [
						{
							"internalType": "string",
							"name": "_subjectName",
							"type": "string"
						},
						{
							"internalType": "string",
							"name": "_ipAddr",
							"type": "string"
						}
					],
					"name": "setSubjInfo",
					"outputs": [],
					"stateMutability": "nonpayable",
					"type": "function"
				},
				{
					"inputs": [
						{
							"internalType": "address",
							"name": "",
							"type": "address"
						}
					],
					"name": "subjInfoMap",
					"outputs": [
						{
							"internalType": "address",
							"name": "subjectAddr",
							"type": "address"
						},
						{
							"internalType": "string",
							"name": "subjectName",
							"type": "string"
						},
						{
							"internalType": "string",
							"name": "ipAddr",
							"type": "string"
						}
					],
					"stateMutability": "view",
					"type": "function"
				},
				{
					"inputs": [
						{
							"internalType": "address",
							"name": "_sender",
							"type": "address"
						},
						{
							"internalType": "address",
							"name": "_deviceAddr",
							"type": "address"
						},
						{
							"internalType": "string",
							"name": "right",
							"type": "string"
						}
					],
					"name": "testRegister",
					"outputs": [],
					"stateMutability": "nonpayable",
					"type": "function"
				}
			],
			"devdoc": {
				"kind": "dev",
				"methods": {},
				"version": 1
			},
			"evm": {
				"assembly": "    /* \"contracts/Management.sol\":68:2830  contract Management {\r... */\n  mstore(0x40, 0x80)\n  callvalue\n  dup1\n  iszero\n  tag_1\n  jumpi\n  0x00\n  dup1\n  revert\ntag_1:\n  pop\n  dataSize(sub_0)\n  dup1\n  dataOffset(sub_0)\n  0x00\n  codecopy\n  0x00\n  return\nstop\n\nsub_0: assembly {\n        /* \"contracts/Management.sol\":68:2830  contract Management {\r... */\n      mstore(0x40, 0x80)\n      callvalue\n      dup1\n      iszero\n      tag_1\n      jumpi\n      0x00\n      dup1\n      revert\n    tag_1:\n      pop\n      jumpi(tag_2, lt(calldatasize, 0x04))\n      shr(0xe0, calldataload(0x00))\n      dup1\n      0x9f764d16\n      gt\n      tag_12\n      jumpi\n      dup1\n      0x9f764d16\n      eq\n      tag_7\n      jumpi\n      dup1\n      0xb9e0ad10\n      eq\n      tag_8\n      jumpi\n      dup1\n      0xde1e23b7\n      eq\n      tag_9\n      jumpi\n      dup1\n      0xe1c7392a\n      eq\n      tag_10\n      jumpi\n      dup1\n      0xf2c3c745\n      eq\n      tag_11\n      jumpi\n      jump(tag_2)\n    tag_12:\n      dup1\n      0x11ef4171\n      eq\n      tag_3\n      jumpi\n      dup1\n      0x4d2d701a\n      eq\n      tag_4\n      jumpi\n      dup1\n      0x5062278f\n      eq\n      tag_5\n      jumpi\n      dup1\n      0x8749774f\n      eq\n      tag_6\n      jumpi\n    tag_2:\n      0x00\n      dup1\n      revert\n        /* \"contracts/Management.sol\":1350:1578  function register4Right(address _deviceAddr, string memory right) public {\r... */\n    tag_3:\n      tag_13\n      0x04\n      dup1\n      calldatasize\n      sub\n      dup2\n      add\n      swap1\n      tag_14\n      swap2\n      swap1\n      tag_15\n      jump\t// in\n    tag_14:\n      tag_16\n      jump\t// in\n    tag_13:\n      stop\n        /* \"contracts/Management.sol\":607:983  function setDeviceInfo(address _deviceAddr, string memory _deviceName, string memory _deviceType, string memory _status) public {\r... */\n    tag_4:\n      tag_17\n      0x04\n      dup1\n      calldatasize\n      sub\n      dup2\n      add\n      swap1\n      tag_18\n      swap2\n      swap1\n      tag_19\n      jump\t// in\n    tag_18:\n      tag_20\n      jump\t// in\n    tag_17:\n      stop\n        /* \"contracts/Management.sol\":2666:2825  function testRegister(address _sender, address _deviceAddr, string memory right) public {\r... */\n    tag_5:\n      tag_21\n      0x04\n      dup1\n      calldatasize\n      sub\n      dup2\n      add\n      swap1\n      tag_22\n      swap2\n      swap1\n      tag_23\n      jump\t// in\n    tag_22:\n      tag_24\n      jump\t// in\n    tag_21:\n      stop\n        /* \"contracts/Management.sol\":1725:1897  function getRight(address _subjectAddr, address _objectAddr) public view returns (string memory) {\r... */\n    tag_6:\n      tag_25\n      0x04\n      dup1\n      calldatasize\n      sub\n      dup2\n      add\n      swap1\n      tag_26\n      swap2\n      swap1\n      tag_27\n      jump\t// in\n    tag_26:\n      tag_28\n      jump\t// in\n    tag_25:\n      mload(0x40)\n      tag_29\n      swap2\n      swap1\n      tag_30\n      jump\t// in\n    tag_29:\n      mload(0x40)\n      dup1\n      swap2\n      sub\n      swap1\n      return\n        /* \"contracts/Management.sol\":1905:2134  function getSubjInfo(address _subjectAddr) public view returns (string memory subjName, string memory ipAddr) {\r... */\n    tag_7:\n      tag_31\n      0x04\n      dup1\n      calldatasize\n      sub\n      dup2\n      add\n      swap1\n      tag_32\n      swap2\n      swap1\n      tag_33\n      jump\t// in\n    tag_32:\n      tag_34\n      jump\t// in\n    tag_31:\n      mload(0x40)\n      tag_35\n      swap3\n      swap2\n      swap1\n      tag_36\n      jump\t// in\n    tag_35:\n      mload(0x40)\n      dup1\n      swap2\n      sub\n      swap1\n      return\n        /* \"contracts/Management.sol\":551:598  mapping(address => SubjInfo) public subjInfoMap */\n    tag_8:\n      tag_37\n      0x04\n      dup1\n      calldatasize\n      sub\n      dup2\n      add\n      swap1\n      tag_38\n      swap2\n      swap1\n      tag_33\n      jump\t// in\n    tag_38:\n      tag_39\n      jump\t// in\n    tag_37:\n      mload(0x40)\n      tag_40\n      swap4\n      swap3\n      swap2\n      swap1\n      tag_41\n      jump\t// in\n    tag_40:\n      mload(0x40)\n      dup1\n      swap2\n      sub\n      swap1\n      return\n        /* \"contracts/Management.sol\":1587:1717  function getDeviceInfoByAddr(address _addr) public view returns (DeviceInfo memory) {\r... */\n    tag_9:\n      tag_42\n      0x04\n      dup1\n      calldatasize\n      sub\n      dup2\n      add\n      swap1\n      tag_43\n      swap2\n      swap1\n      tag_33\n      jump\t// in\n    tag_43:\n      tag_44\n      jump\t// in\n    tag_42:\n      mload(0x40)\n      tag_45\n      swap2\n      swap1\n      tag_46\n      jump\t// in\n    tag_45:\n      mload(0x40)\n      dup1\n      swap2\n      sub\n      swap1\n      return\n        /* \"contracts/Management.sol\":2169:2658  function init() public {\r... */\n    tag_10:\n      tag_47\n      tag_48\n      jump\t// in\n    tag_47:\n      stop\n        /* \"contracts/Management.sol\":991:1301  function setSubjInfo(string memory _subjectName, string memory _ipAddr) public {\r... */\n    tag_11:\n      tag_49\n      0x04\n      dup1\n      calldatasize\n      sub\n      dup2\n      add\n      swap1\n      tag_50\n      swap2\n      swap1\n      tag_51\n      jump\t// in\n    tag_50:\n      tag_52\n      jump\t// in\n    tag_49:\n      stop\n        /* \"contracts/Management.sol\":1350:1578  function register4Right(address _deviceAddr, string memory right) public {\r... */\n    tag_16:\n        /* \"contracts/Management.sol\":1565:1570  right */\n      dup1\n        /* \"contracts/Management.sol\":1515:1526  subjInfoMap */\n      0x01\n        /* \"contracts/Management.sol\":1515:1538  subjInfoMap[msg.sender] */\n      0x00\n        /* \"contracts/Management.sol\":1527:1537  msg.sender */\n      caller\n        /* \"contracts/Management.sol\":1515:1538  subjInfoMap[msg.sender] */\n      0xffffffffffffffffffffffffffffffffffffffff\n      and\n      0xffffffffffffffffffffffffffffffffffffffff\n      and\n      dup2\n      mstore\n      0x20\n      add\n      swap1\n      dup2\n      mstore\n      0x20\n      add\n      0x00\n      keccak256\n        /* \"contracts/Management.sol\":1515:1549  subjInfoMap[msg.sender].rightTable */\n      0x02\n      add\n        /* \"contracts/Management.sol\":1515:1562  subjInfoMap[msg.sender].rightTable[_deviceAddr] */\n      0x00\n        /* \"contracts/Management.sol\":1550:1561  _deviceAddr */\n      dup5\n        /* \"contracts/Management.sol\":1515:1562  subjInfoMap[msg.sender].rightTable[_deviceAddr] */\n      0xffffffffffffffffffffffffffffffffffffffff\n      and\n      0xffffffffffffffffffffffffffffffffffffffff\n      and\n      dup2\n      mstore\n      0x20\n      add\n      swap1\n      dup2\n      mstore\n      0x20\n      add\n      0x00\n      keccak256\n        /* \"contracts/Management.sol\":1515:1570  subjInfoMap[msg.sender].rightTable[_deviceAddr] = right */\n      swap1\n      dup1\n      mload\n      swap1\n      0x20\n      add\n      swap1\n      tag_54\n      swap3\n      swap2\n      swap1\n      tag_55\n      jump\t// in\n    tag_54:\n      pop\n        /* \"contracts/Management.sol\":1350:1578  function register4Right(address _deviceAddr, string memory right) public {\r... */\n      pop\n      pop\n      jump\t// out\n        /* \"contracts/Management.sol\":607:983  function setDeviceInfo(address _deviceAddr, string memory _deviceName, string memory _deviceType, string memory _status) public {\r... */\n    tag_20:\n        /* \"contracts/Management.sol\":786:797  _deviceAddr */\n      dup4\n        /* \"contracts/Management.sol\":746:759  deviceInfoMap */\n      0x00\n        /* \"contracts/Management.sol\":746:772  deviceInfoMap[_deviceAddr] */\n      dup1\n        /* \"contracts/Management.sol\":760:771  _deviceAddr */\n      dup7\n        /* \"contracts/Management.sol\":746:772  deviceInfoMap[_deviceAddr] */\n      0xffffffffffffffffffffffffffffffffffffffff\n      and\n      0xffffffffffffffffffffffffffffffffffffffff\n      and\n      dup2\n      mstore\n      0x20\n      add\n      swap1\n      dup2\n      mstore\n      0x20\n      add\n      0x00\n      keccak256\n        /* \"contracts/Management.sol\":746:783  deviceInfoMap[_deviceAddr].deviceAddr */\n      0x00\n      add\n      0x00\n        /* \"contracts/Management.sol\":746:797  deviceInfoMap[_deviceAddr].deviceAddr = _deviceAddr */\n      0x0100\n      exp\n      dup2\n      sload\n      dup2\n      0xffffffffffffffffffffffffffffffffffffffff\n      mul\n      not\n      and\n      swap1\n      dup4\n      0xffffffffffffffffffffffffffffffffffffffff\n      and\n      mul\n      or\n      swap1\n      sstore\n      pop\n        /* \"contracts/Management.sol\":848:859  _deviceName */\n      dup3\n        /* \"contracts/Management.sol\":808:821  deviceInfoMap */\n      0x00\n        /* \"contracts/Management.sol\":808:834  deviceInfoMap[_deviceAddr] */\n      dup1\n        /* \"contracts/Management.sol\":822:833  _deviceAddr */\n      dup7\n        /* \"contracts/Management.sol\":808:834  deviceInfoMap[_deviceAddr] */\n      0xffffffffffffffffffffffffffffffffffffffff\n      and\n      0xffffffffffffffffffffffffffffffffffffffff\n      and\n      dup2\n      mstore\n      0x20\n      add\n      swap1\n      dup2\n      mstore\n      0x20\n      add\n      0x00\n      keccak256\n        /* \"contracts/Management.sol\":808:845  deviceInfoMap[_deviceAddr].deviceName */\n      0x01\n      add\n        /* \"contracts/Management.sol\":808:859  deviceInfoMap[_deviceAddr].deviceName = _deviceName */\n      swap1\n      dup1\n      mload\n      swap1\n      0x20\n      add\n      swap1\n      tag_57\n      swap3\n      swap2\n      swap1\n      tag_55\n      jump\t// in\n    tag_57:\n      pop\n        /* \"contracts/Management.sol\":910:921  _deviceType */\n      dup2\n        /* \"contracts/Management.sol\":870:883  deviceInfoMap */\n      0x00\n        /* \"contracts/Management.sol\":870:896  deviceInfoMap[_deviceAddr] */\n      dup1\n        /* \"contracts/Management.sol\":884:895  _deviceAddr */\n      dup7\n        /* \"contracts/Management.sol\":870:896  deviceInfoMap[_deviceAddr] */\n      0xffffffffffffffffffffffffffffffffffffffff\n      and\n      0xffffffffffffffffffffffffffffffffffffffff\n      and\n      dup2\n      mstore\n      0x20\n      add\n      swap1\n      dup2\n      mstore\n      0x20\n      add\n      0x00\n      keccak256\n        /* \"contracts/Management.sol\":870:907  deviceInfoMap[_deviceAddr].deviceType */\n      0x02\n      add\n        /* \"contracts/Management.sol\":870:921  deviceInfoMap[_deviceAddr].deviceType = _deviceType */\n      swap1\n      dup1\n      mload\n      swap1\n      0x20\n      add\n      swap1\n      tag_58\n      swap3\n      swap2\n      swap1\n      tag_55\n      jump\t// in\n    tag_58:\n      pop\n        /* \"contracts/Management.sol\":968:975  _status */\n      dup1\n        /* \"contracts/Management.sol\":932:945  deviceInfoMap */\n      0x00\n        /* \"contracts/Management.sol\":932:958  deviceInfoMap[_deviceAddr] */\n      dup1\n        /* \"contracts/Management.sol\":946:957  _deviceAddr */\n      dup7\n        /* \"contracts/Management.sol\":932:958  deviceInfoMap[_deviceAddr] */\n      0xffffffffffffffffffffffffffffffffffffffff\n      and\n      0xffffffffffffffffffffffffffffffffffffffff\n      and\n      dup2\n      mstore\n      0x20\n      add\n      swap1\n      dup2\n      mstore\n      0x20\n      add\n      0x00\n      keccak256\n        /* \"contracts/Management.sol\":932:965  deviceInfoMap[_deviceAddr].status */\n      0x03\n      add\n        /* \"contracts/Management.sol\":932:975  deviceInfoMap[_deviceAddr].status = _status */\n      swap1\n      dup1\n      mload\n      swap1\n      0x20\n      add\n      swap1\n      tag_59\n      swap3\n      swap2\n      swap1\n      tag_55\n      jump\t// in\n    tag_59:\n      pop\n        /* \"contracts/Management.sol\":607:983  function setDeviceInfo(address _deviceAddr, string memory _deviceName, string memory _deviceType, string memory _status) public {\r... */\n      pop\n      pop\n      pop\n      pop\n      jump\t// out\n        /* \"contracts/Management.sol\":2666:2825  function testRegister(address _sender, address _deviceAddr, string memory right) public {\r... */\n    tag_24:\n        /* \"contracts/Management.sol\":2812:2817  right */\n      dup1\n        /* \"contracts/Management.sol\":2765:2776  subjInfoMap */\n      0x01\n        /* \"contracts/Management.sol\":2765:2785  subjInfoMap[_sender] */\n      0x00\n        /* \"contracts/Management.sol\":2777:2784  _sender */\n      dup6\n        /* \"contracts/Management.sol\":2765:2785  subjInfoMap[_sender] */\n      0xffffffffffffffffffffffffffffffffffffffff\n      and\n      0xffffffffffffffffffffffffffffffffffffffff\n      and\n      dup2\n      mstore\n      0x20\n      add\n      swap1\n      dup2\n      mstore\n      0x20\n      add\n      0x00\n      keccak256\n        /* \"contracts/Management.sol\":2765:2796  subjInfoMap[_sender].rightTable */\n      0x02\n      add\n        /* \"contracts/Management.sol\":2765:2809  subjInfoMap[_sender].rightTable[_deviceAddr] */\n      0x00\n        /* \"contracts/Management.sol\":2797:2808  _deviceAddr */\n      dup5\n        /* \"contracts/Management.sol\":2765:2809  subjInfoMap[_sender].rightTable[_deviceAddr] */\n      0xffffffffffffffffffffffffffffffffffffffff\n      and\n      0xffffffffffffffffffffffffffffffffffffffff\n      and\n      dup2\n      mstore\n      0x20\n      add\n      swap1\n      dup2\n      mstore\n      0x20\n      add\n      0x00\n      keccak256\n        /* \"contracts/Management.sol\":2765:2817  subjInfoMap[_sender].rightTable[_deviceAddr] = right */\n      swap1\n      dup1\n      mload\n      swap1\n      0x20\n      add\n      swap1\n      tag_61\n      swap3\n      swap2\n      swap1\n      tag_55\n      jump\t// in\n    tag_61:\n      pop\n        /* \"contracts/Management.sol\":2666:2825  function testRegister(address _sender, address _deviceAddr, string memory right) public {\r... */\n      pop\n      pop\n      pop\n      jump\t// out\n        /* \"contracts/Management.sol\":1725:1897  function getRight(address _subjectAddr, address _objectAddr) public view returns (string memory) {\r... */\n    tag_28:\n        /* \"contracts/Management.sol\":1807:1820  string memory */\n      0x60\n        /* \"contracts/Management.sol\":1840:1851  subjInfoMap */\n      0x01\n        /* \"contracts/Management.sol\":1840:1865  subjInfoMap[_subjectAddr] */\n      0x00\n        /* \"contracts/Management.sol\":1852:1864  _subjectAddr */\n      dup5\n        /* \"contracts/Management.sol\":1840:1865  subjInfoMap[_subjectAddr] */\n      0xffffffffffffffffffffffffffffffffffffffff\n      and\n      0xffffffffffffffffffffffffffffffffffffffff\n      and\n      dup2\n      mstore\n      0x20\n      add\n      swap1\n      dup2\n      mstore\n      0x20\n      add\n      0x00\n      keccak256\n        /* \"contracts/Management.sol\":1840:1876  subjInfoMap[_subjectAddr].rightTable */\n      0x02\n      add\n        /* \"contracts/Management.sol\":1840:1889  subjInfoMap[_subjectAddr].rightTable[_objectAddr] */\n      0x00\n        /* \"contracts/Management.sol\":1877:1888  _objectAddr */\n      dup4\n        /* \"contracts/Management.sol\":1840:1889  subjInfoMap[_subjectAddr].rightTable[_objectAddr] */\n      0xffffffffffffffffffffffffffffffffffffffff\n      and\n      0xffffffffffffffffffffffffffffffffffffffff\n      and\n      dup2\n      mstore\n      0x20\n      add\n      swap1\n      dup2\n      mstore\n      0x20\n      add\n      0x00\n      keccak256\n        /* \"contracts/Management.sol\":1833:1889  return subjInfoMap[_subjectAddr].rightTable[_objectAddr] */\n      dup1\n      sload\n      tag_63\n      swap1\n      tag_64\n      jump\t// in\n    tag_63:\n      dup1\n      0x1f\n      add\n      0x20\n      dup1\n      swap2\n      div\n      mul\n      0x20\n      add\n      mload(0x40)\n      swap1\n      dup2\n      add\n      0x40\n      mstore\n      dup1\n      swap3\n      swap2\n      swap1\n      dup2\n      dup2\n      mstore\n      0x20\n      add\n      dup3\n      dup1\n      sload\n      tag_65\n      swap1\n      tag_64\n      jump\t// in\n    tag_65:\n      dup1\n      iszero\n      tag_66\n      jumpi\n      dup1\n      0x1f\n      lt\n      tag_67\n      jumpi\n      0x0100\n      dup1\n      dup4\n      sload\n      div\n      mul\n      dup4\n      mstore\n      swap2\n      0x20\n      add\n      swap2\n      jump(tag_66)\n    tag_67:\n      dup3\n      add\n      swap2\n      swap1\n      0x00\n      mstore\n      keccak256(0x00, 0x20)\n      swap1\n    tag_68:\n      dup2\n      sload\n      dup2\n      mstore\n      swap1\n      0x01\n      add\n      swap1\n      0x20\n      add\n      dup1\n      dup4\n      gt\n      tag_68\n      jumpi\n      dup3\n      swap1\n      sub\n      0x1f\n      and\n      dup3\n      add\n      swap2\n    tag_66:\n      pop\n      pop\n      pop\n      pop\n      pop\n      swap1\n      pop\n        /* \"contracts/Management.sol\":1725:1897  function getRight(address _subjectAddr, address _objectAddr) public view returns (string memory) {\r... */\n      swap3\n      swap2\n      pop\n      pop\n      jump\t// out\n        /* \"contracts/Management.sol\":1905:2134  function getSubjInfo(address _subjectAddr) public view returns (string memory subjName, string memory ipAddr) {\r... */\n    tag_34:\n        /* \"contracts/Management.sol\":1969:1991  string memory subjName */\n      0x60\n        /* \"contracts/Management.sol\":1993:2013  string memory ipAddr */\n      dup1\n        /* \"contracts/Management.sol\":2037:2048  subjInfoMap */\n      0x01\n        /* \"contracts/Management.sol\":2037:2062  subjInfoMap[_subjectAddr] */\n      0x00\n        /* \"contracts/Management.sol\":2049:2061  _subjectAddr */\n      dup5\n        /* \"contracts/Management.sol\":2037:2062  subjInfoMap[_subjectAddr] */\n      0xffffffffffffffffffffffffffffffffffffffff\n      and\n      0xffffffffffffffffffffffffffffffffffffffff\n      and\n      dup2\n      mstore\n      0x20\n      add\n      swap1\n      dup2\n      mstore\n      0x20\n      add\n      0x00\n      keccak256\n        /* \"contracts/Management.sol\":2037:2074  subjInfoMap[_subjectAddr].subjectName */\n      0x01\n      add\n        /* \"contracts/Management.sol\":2026:2074  subjName = subjInfoMap[_subjectAddr].subjectName */\n      dup1\n      sload\n      tag_70\n      swap1\n      tag_64\n      jump\t// in\n    tag_70:\n      dup1\n      0x1f\n      add\n      0x20\n      dup1\n      swap2\n      div\n      mul\n      0x20\n      add\n      mload(0x40)\n      swap1\n      dup2\n      add\n      0x40\n      mstore\n      dup1\n      swap3\n      swap2\n      swap1\n      dup2\n      dup2\n      mstore\n      0x20\n      add\n      dup3\n      dup1\n      sload\n      tag_71\n      swap1\n      tag_64\n      jump\t// in\n    tag_71:\n      dup1\n      iszero\n      tag_72\n      jumpi\n      dup1\n      0x1f\n      lt\n      tag_73\n      jumpi\n      0x0100\n      dup1\n      dup4\n      sload\n      div\n      mul\n      dup4\n      mstore\n      swap2\n      0x20\n      add\n      swap2\n      jump(tag_72)\n    tag_73:\n      dup3\n      add\n      swap2\n      swap1\n      0x00\n      mstore\n      keccak256(0x00, 0x20)\n      swap1\n    tag_74:\n      dup2\n      sload\n      dup2\n      mstore\n      swap1\n      0x01\n      add\n      swap1\n      0x20\n      add\n      dup1\n      dup4\n      gt\n      tag_74\n      jumpi\n      dup3\n      swap1\n      sub\n      0x1f\n      and\n      dup3\n      add\n      swap2\n    tag_72:\n      pop\n      pop\n      pop\n      pop\n      pop\n      swap2\n      pop\n        /* \"contracts/Management.sol\":2094:2105  subjInfoMap */\n      0x01\n        /* \"contracts/Management.sol\":2094:2119  subjInfoMap[_subjectAddr] */\n      0x00\n        /* \"contracts/Management.sol\":2106:2118  _subjectAddr */\n      dup5\n        /* \"contracts/Management.sol\":2094:2119  subjInfoMap[_subjectAddr] */\n      0xffffffffffffffffffffffffffffffffffffffff\n      and\n      0xffffffffffffffffffffffffffffffffffffffff\n      and\n      dup2\n      mstore\n      0x20\n      add\n      swap1\n      dup2\n      mstore\n      0x20\n      add\n      0x00\n      keccak256\n        /* \"contracts/Management.sol\":2094:2126  subjInfoMap[_subjectAddr].ipAddr */\n      0x03\n      add\n        /* \"contracts/Management.sol\":2085:2126  ipAddr = subjInfoMap[_subjectAddr].ipAddr */\n      dup1\n      sload\n      tag_75\n      swap1\n      tag_64\n      jump\t// in\n    tag_75:\n      dup1\n      0x1f\n      add\n      0x20\n      dup1\n      swap2\n      div\n      mul\n      0x20\n      add\n      mload(0x40)\n      swap1\n      dup2\n      add\n      0x40\n      mstore\n      dup1\n      swap3\n      swap2\n      swap1\n      dup2\n      dup2\n      mstore\n      0x20\n      add\n      dup3\n      dup1\n      sload\n      tag_76\n      swap1\n      tag_64\n      jump\t// in\n    tag_76:\n      dup1\n      iszero\n      tag_77\n      jumpi\n      dup1\n      0x1f\n      lt\n      tag_78\n      jumpi\n      0x0100\n      dup1\n      dup4\n      sload\n      div\n      mul\n      dup4\n      mstore\n      swap2\n      0x20\n      add\n      swap2\n      jump(tag_77)\n    tag_78:\n      dup3\n      add\n      swap2\n      swap1\n      0x00\n      mstore\n      keccak256(0x00, 0x20)\n      swap1\n    tag_79:\n      dup2\n      sload\n      dup2\n      mstore\n      swap1\n      0x01\n      add\n      swap1\n      0x20\n      add\n      dup1\n      dup4\n      gt\n      tag_79\n      jumpi\n      dup3\n      swap1\n      sub\n      0x1f\n      and\n      dup3\n      add\n      swap2\n    tag_77:\n      pop\n      pop\n      pop\n      pop\n      pop\n      swap1\n      pop\n        /* \"contracts/Management.sol\":1905:2134  function getSubjInfo(address _subjectAddr) public view returns (string memory subjName, string memory ipAddr) {\r... */\n      swap2\n      pop\n      swap2\n      jump\t// out\n        /* \"contracts/Management.sol\":551:598  mapping(address => SubjInfo) public subjInfoMap */\n    tag_39:\n      mstore(0x20, 0x01)\n      dup1\n      0x00\n      mstore\n      keccak256(0x00, 0x40)\n      0x00\n      swap2\n      pop\n      swap1\n      pop\n      dup1\n      0x00\n      add\n      0x00\n      swap1\n      sload\n      swap1\n      0x0100\n      exp\n      swap1\n      div\n      0xffffffffffffffffffffffffffffffffffffffff\n      and\n      swap1\n      dup1\n      0x01\n      add\n      dup1\n      sload\n      tag_80\n      swap1\n      tag_64\n      jump\t// in\n    tag_80:\n      dup1\n      0x1f\n      add\n      0x20\n      dup1\n      swap2\n      div\n      mul\n      0x20\n      add\n      mload(0x40)\n      swap1\n      dup2\n      add\n      0x40\n      mstore\n      dup1\n      swap3\n      swap2\n      swap1\n      dup2\n      dup2\n      mstore\n      0x20\n      add\n      dup3\n      dup1\n      sload\n      tag_81\n      swap1\n      tag_64\n      jump\t// in\n    tag_81:\n      dup1\n      iszero\n      tag_82\n      jumpi\n      dup1\n      0x1f\n      lt\n      tag_83\n      jumpi\n      0x0100\n      dup1\n      dup4\n      sload\n      div\n      mul\n      dup4\n      mstore\n      swap2\n      0x20\n      add\n      swap2\n      jump(tag_82)\n    tag_83:\n      dup3\n      add\n      swap2\n      swap1\n      0x00\n      mstore\n      keccak256(0x00, 0x20)\n      swap1\n    tag_84:\n      dup2\n      sload\n      dup2\n      mstore\n      swap1\n      0x01\n      add\n      swap1\n      0x20\n      add\n      dup1\n      dup4\n      gt\n      tag_84\n      jumpi\n      dup3\n      swap1\n      sub\n      0x1f\n      and\n      dup3\n      add\n      swap2\n    tag_82:\n      pop\n      pop\n      pop\n      pop\n      pop\n      swap1\n      dup1\n      0x03\n      add\n      dup1\n      sload\n      tag_85\n      swap1\n      tag_64\n      jump\t// in\n    tag_85:\n      dup1\n      0x1f\n      add\n      0x20\n      dup1\n      swap2\n      div\n      mul\n      0x20\n      add\n      mload(0x40)\n      swap1\n      dup2\n      add\n      0x40\n      mstore\n      dup1\n      swap3\n      swap2\n      swap1\n      dup2\n      dup2\n      mstore\n      0x20\n      add\n      dup3\n      dup1\n      sload\n      tag_86\n      swap1\n      tag_64\n      jump\t// in\n    tag_86:\n      dup1\n      iszero\n      tag_87\n      jumpi\n      dup1\n      0x1f\n      lt\n      tag_88\n      jumpi\n      0x0100\n      dup1\n      dup4\n      sload\n      div\n      mul\n      dup4\n      mstore\n      swap2\n      0x20\n      add\n      swap2\n      jump(tag_87)\n    tag_88:\n      dup3\n      add\n      swap2\n      swap1\n      0x00\n      mstore\n      keccak256(0x00, 0x20)\n      swap1\n    tag_89:\n      dup2\n      sload\n      dup2\n      mstore\n      swap1\n      0x01\n      add\n      swap1\n      0x20\n      add\n      dup1\n      dup4\n      gt\n      tag_89\n      jumpi\n      dup3\n      swap1\n      sub\n      0x1f\n      and\n      dup3\n      add\n      swap2\n    tag_87:\n      pop\n      pop\n      pop\n      pop\n      pop\n      swap1\n      pop\n      dup4\n      jump\t// out\n        /* \"contracts/Management.sol\":1587:1717  function getDeviceInfoByAddr(address _addr) public view returns (DeviceInfo memory) {\r... */\n    tag_44:\n        /* \"contracts/Management.sol\":1652:1669  DeviceInfo memory */\n      tag_90\n      tag_91\n      jump\t// in\n    tag_90:\n        /* \"contracts/Management.sol\":1689:1702  deviceInfoMap */\n      0x00\n        /* \"contracts/Management.sol\":1689:1709  deviceInfoMap[_addr] */\n      dup1\n        /* \"contracts/Management.sol\":1703:1708  _addr */\n      dup4\n        /* \"contracts/Management.sol\":1689:1709  deviceInfoMap[_addr] */\n      0xffffffffffffffffffffffffffffffffffffffff\n      and\n      0xffffffffffffffffffffffffffffffffffffffff\n      and\n      dup2\n      mstore\n      0x20\n      add\n      swap1\n      dup2\n      mstore\n      0x20\n      add\n      0x00\n      keccak256\n        /* \"contracts/Management.sol\":1682:1709  return deviceInfoMap[_addr] */\n      mload(0x40)\n      dup1\n      0x80\n      add\n      0x40\n      mstore\n      swap1\n      dup2\n      0x00\n      dup3\n      add\n      0x00\n      swap1\n      sload\n      swap1\n      0x0100\n      exp\n      swap1\n      div\n      0xffffffffffffffffffffffffffffffffffffffff\n      and\n      0xffffffffffffffffffffffffffffffffffffffff\n      and\n      0xffffffffffffffffffffffffffffffffffffffff\n      and\n      dup2\n      mstore\n      0x20\n      add\n      0x01\n      dup3\n      add\n      dup1\n      sload\n      tag_93\n      swap1\n      tag_64\n      jump\t// in\n    tag_93:\n      dup1\n      0x1f\n      add\n      0x20\n      dup1\n      swap2\n      div\n      mul\n      0x20\n      add\n      mload(0x40)\n      swap1\n      dup2\n      add\n      0x40\n      mstore\n      dup1\n      swap3\n      swap2\n      swap1\n      dup2\n      dup2\n      mstore\n      0x20\n      add\n      dup3\n      dup1\n      sload\n      tag_94\n      swap1\n      tag_64\n      jump\t// in\n    tag_94:\n      dup1\n      iszero\n      tag_95\n      jumpi\n      dup1\n      0x1f\n      lt\n      tag_96\n      jumpi\n      0x0100\n      dup1\n      dup4\n      sload\n      div\n      mul\n      dup4\n      mstore\n      swap2\n      0x20\n      add\n      swap2\n      jump(tag_95)\n    tag_96:\n      dup3\n      add\n      swap2\n      swap1\n      0x00\n      mstore\n      keccak256(0x00, 0x20)\n      swap1\n    tag_97:\n      dup2\n      sload\n      dup2\n      mstore\n      swap1\n      0x01\n      add\n      swap1\n      0x20\n      add\n      dup1\n      dup4\n      gt\n      tag_97\n      jumpi\n      dup3\n      swap1\n      sub\n      0x1f\n      and\n      dup3\n      add\n      swap2\n    tag_95:\n      pop\n      pop\n      pop\n      pop\n      pop\n      dup2\n      mstore\n      0x20\n      add\n      0x02\n      dup3\n      add\n      dup1\n      sload\n      tag_98\n      swap1\n      tag_64\n      jump\t// in\n    tag_98:\n      dup1\n      0x1f\n      add\n      0x20\n      dup1\n      swap2\n      div\n      mul\n      0x20\n      add\n      mload(0x40)\n      swap1\n      dup2\n      add\n      0x40\n      mstore\n      dup1\n      swap3\n      swap2\n      swap1\n      dup2\n      dup2\n      mstore\n      0x20\n      add\n      dup3\n      dup1\n      sload\n      tag_99\n      swap1\n      tag_64\n      jump\t// in\n    tag_99:\n      dup1\n      iszero\n      tag_100\n      jumpi\n      dup1\n      0x1f\n      lt\n      tag_101\n      jumpi\n      0x0100\n      dup1\n      dup4\n      sload\n      div\n      mul\n      dup4\n      mstore\n      swap2\n      0x20\n      add\n      swap2\n      jump(tag_100)\n    tag_101:\n      dup3\n      add\n      swap2\n      swap1\n      0x00\n      mstore\n      keccak256(0x00, 0x20)\n      swap1\n    tag_102:\n      dup2\n      sload\n      dup2\n      mstore\n      swap1\n      0x01\n      add\n      swap1\n      0x20\n      add\n      dup1\n      dup4\n      gt\n      tag_102\n      jumpi\n      dup3\n      swap1\n      sub\n      0x1f\n      and\n      dup3\n      add\n      swap2\n    tag_100:\n      pop\n      pop\n      pop\n      pop\n      pop\n      dup2\n      mstore\n      0x20\n      add\n      0x03\n      dup3\n      add\n      dup1\n      sload\n      tag_103\n      swap1\n      tag_64\n      jump\t// in\n    tag_103:\n      dup1\n      0x1f\n      add\n      0x20\n      dup1\n      swap2\n      div\n      mul\n      0x20\n      add\n      mload(0x40)\n      swap1\n      dup2\n      add\n      0x40\n      mstore\n      dup1\n      swap3\n      swap2\n      swap1\n      dup2\n      dup2\n      mstore\n      0x20\n      add\n      dup3\n      dup1\n      sload\n      tag_104\n      swap1\n      tag_64\n      jump\t// in\n    tag_104:\n      dup1\n      iszero\n      tag_105\n      jumpi\n      dup1\n      0x1f\n      lt\n      tag_106\n      jumpi\n      0x0100\n      dup1\n      dup4\n      sload\n      div\n      mul\n      dup4\n      mstore\n      swap2\n      0x20\n      add\n      swap2\n      jump(tag_105)\n    tag_106:\n      dup3\n      add\n      swap2\n      swap1\n      0x00\n      mstore\n      keccak256(0x00, 0x20)\n      swap1\n    tag_107:\n      dup2\n      sload\n      dup2\n      mstore\n      swap1\n      0x01\n      add\n      swap1\n      0x20\n      add\n      dup1\n      dup4\n      gt\n      tag_107\n      jumpi\n      dup3\n      swap1\n      sub\n      0x1f\n      and\n      dup3\n      add\n      swap2\n    tag_105:\n      pop\n      pop\n      pop\n      pop\n      pop\n      dup2\n      mstore\n      pop\n      pop\n      swap1\n      pop\n        /* \"contracts/Management.sol\":1587:1717  function getDeviceInfoByAddr(address _addr) public view returns (DeviceInfo memory) {\r... */\n      swap2\n      swap1\n      pop\n      jump\t// out\n        /* \"contracts/Management.sol\":2169:2658  function init() public {\r... */\n    tag_48:\n        /* \"contracts/Management.sol\":2227:2242  address device1 */\n      0x00\n        /* \"contracts/Management.sol\":2253:2268  address device2 */\n      dup1\n        /* \"contracts/Management.sol\":2279:2294  address device3 */\n      0x00\n        /* \"contracts/Management.sol\":2336:2378  0xb4d18d483b641200Aa096558C9bA63aeb243002b */\n      0xb4d18d483b641200aa096558c9ba63aeb243002b\n        /* \"contracts/Management.sol\":2390:2432  0xfF5d2fe96548E05E49C67FcC36C7dBecA2f501f2 */\n      0xff5d2fe96548e05e49c67fcc36c7dbeca2f501f2\n        /* \"contracts/Management.sol\":2434:2476  0xbE7186f383961Cc24Ad8012A2F2942667a72788F */\n      0xbe7186f383961cc24ad8012a2f2942667a72788f\n        /* \"contracts/Management.sol\":2305:2477  (device1, device2, device3) = (0xb4d18d483b641200Aa096558C9bA63aeb243002b, \r... */\n      dup1\n      swap4\n      pop\n      dup2\n      swap5\n      pop\n      dup3\n      swap6\n      pop\n      pop\n      pop\n      pop\n        /* \"contracts/Management.sol\":2488:2530  setDeviceInfo(device1, \"d1\", \"Bulb\", \"on\") */\n      tag_109\n        /* \"contracts/Management.sol\":2502:2509  device1 */\n      dup4\n        /* \"contracts/Management.sol\":2488:2530  setDeviceInfo(device1, \"d1\", \"Bulb\", \"on\") */\n      mload(0x40)\n      dup1\n      0x40\n      add\n      0x40\n      mstore\n      dup1\n      0x02\n      dup2\n      mstore\n      0x20\n      add\n      0x6431000000000000000000000000000000000000000000000000000000000000\n      dup2\n      mstore\n      pop\n      mload(0x40)\n      dup1\n      0x40\n      add\n      0x40\n      mstore\n      dup1\n      0x04\n      dup2\n      mstore\n      0x20\n      add\n      0x42756c6200000000000000000000000000000000000000000000000000000000\n      dup2\n      mstore\n      pop\n      mload(0x40)\n      dup1\n      0x40\n      add\n      0x40\n      mstore\n      dup1\n      0x02\n      dup2\n      mstore\n      0x20\n      add\n      0x6f6e000000000000000000000000000000000000000000000000000000000000\n      dup2\n      mstore\n      pop\n        /* \"contracts/Management.sol\":2488:2501  setDeviceInfo */\n      tag_20\n        /* \"contracts/Management.sol\":2488:2530  setDeviceInfo(device1, \"d1\", \"Bulb\", \"on\") */\n      jump\t// in\n    tag_109:\n        /* \"contracts/Management.sol\":2541:2591  setDeviceInfo(device2, \"d2\", \"Transformer\", \"off\") */\n      tag_110\n        /* \"contracts/Management.sol\":2555:2562  device2 */\n      dup3\n        /* \"contracts/Management.sol\":2541:2591  setDeviceInfo(device2, \"d2\", \"Transformer\", \"off\") */\n      mload(0x40)\n      dup1\n      0x40\n      add\n      0x40\n      mstore\n      dup1\n      0x02\n      dup2\n      mstore\n      0x20\n      add\n      0x6432000000000000000000000000000000000000000000000000000000000000\n      dup2\n      mstore\n      pop\n      mload(0x40)\n      dup1\n      0x40\n      add\n      0x40\n      mstore\n      dup1\n      0x0b\n      dup2\n      mstore\n      0x20\n      add\n      0x5472616e73666f726d6572000000000000000000000000000000000000000000\n      dup2\n      mstore\n      pop\n      mload(0x40)\n      dup1\n      0x40\n      add\n      0x40\n      mstore\n      dup1\n      0x03\n      dup2\n      mstore\n      0x20\n      add\n      0x6f66660000000000000000000000000000000000000000000000000000000000\n      dup2\n      mstore\n      pop\n        /* \"contracts/Management.sol\":2541:2554  setDeviceInfo */\n      tag_20\n        /* \"contracts/Management.sol\":2541:2591  setDeviceInfo(device2, \"d2\", \"Transformer\", \"off\") */\n      jump\t// in\n    tag_110:\n        /* \"contracts/Management.sol\":2602:2646  setDeviceInfo(device3, \"d3\", \"Sensor\", \"on\") */\n      tag_111\n        /* \"contracts/Management.sol\":2616:2623  device3 */\n      dup2\n        /* \"contracts/Management.sol\":2602:2646  setDeviceInfo(device3, \"d3\", \"Sensor\", \"on\") */\n      mload(0x40)\n      dup1\n      0x40\n      add\n      0x40\n      mstore\n      dup1\n      0x02\n      dup2\n      mstore\n      0x20\n      add\n      0x6433000000000000000000000000000000000000000000000000000000000000\n      dup2\n      mstore\n      pop\n      mload(0x40)\n      dup1\n      0x40\n      add\n      0x40\n      mstore\n      dup1\n      0x06\n      dup2\n      mstore\n      0x20\n      add\n      0x53656e736f720000000000000000000000000000000000000000000000000000\n      dup2\n      mstore\n      pop\n      mload(0x40)\n      dup1\n      0x40\n      add\n      0x40\n      mstore\n      dup1\n      0x02\n      dup2\n      mstore\n      0x20\n      add\n      0x6f6e000000000000000000000000000000000000000000000000000000000000\n      dup2\n      mstore\n      pop\n        /* \"contracts/Management.sol\":2602:2615  setDeviceInfo */\n      tag_20\n        /* \"contracts/Management.sol\":2602:2646  setDeviceInfo(device3, \"d3\", \"Sensor\", \"on\") */\n      jump\t// in\n    tag_111:\n        /* \"contracts/Management.sol\":2192:2658  {\r... */\n      pop\n      pop\n      pop\n        /* \"contracts/Management.sol\":2169:2658  function init() public {\r... */\n      jump\t// out\n        /* \"contracts/Management.sol\":991:1301  function setSubjInfo(string memory _subjectName, string memory _ipAddr) public {\r... */\n    tag_52:\n        /* \"contracts/Management.sol\":1081:1101  address _subjectAddr */\n      0x00\n        /* \"contracts/Management.sol\":1104:1114  msg.sender */\n      caller\n        /* \"contracts/Management.sol\":1081:1114  address _subjectAddr = msg.sender */\n      swap1\n      pop\n        /* \"contracts/Management.sol\":1165:1177  _subjectAddr */\n      dup1\n        /* \"contracts/Management.sol\":1125:1136  subjInfoMap */\n      0x01\n        /* \"contracts/Management.sol\":1125:1150  subjInfoMap[_subjectAddr] */\n      0x00\n        /* \"contracts/Management.sol\":1137:1149  _subjectAddr */\n      dup4\n        /* \"contracts/Management.sol\":1125:1150  subjInfoMap[_subjectAddr] */\n      0xffffffffffffffffffffffffffffffffffffffff\n      and\n      0xffffffffffffffffffffffffffffffffffffffff\n      and\n      dup2\n      mstore\n      0x20\n      add\n      swap1\n      dup2\n      mstore\n      0x20\n      add\n      0x00\n      keccak256\n        /* \"contracts/Management.sol\":1125:1162  subjInfoMap[_subjectAddr].subjectAddr */\n      0x00\n      add\n      0x00\n        /* \"contracts/Management.sol\":1125:1177  subjInfoMap[_subjectAddr].subjectAddr = _subjectAddr */\n      0x0100\n      exp\n      dup2\n      sload\n      dup2\n      0xffffffffffffffffffffffffffffffffffffffff\n      mul\n      not\n      and\n      swap1\n      dup4\n      0xffffffffffffffffffffffffffffffffffffffff\n      and\n      mul\n      or\n      swap1\n      sstore\n      pop\n        /* \"contracts/Management.sol\":1228:1240  _subjectName */\n      dup3\n        /* \"contracts/Management.sol\":1188:1199  subjInfoMap */\n      0x01\n        /* \"contracts/Management.sol\":1188:1213  subjInfoMap[_subjectAddr] */\n      0x00\n        /* \"contracts/Management.sol\":1200:1212  _subjectAddr */\n      dup4\n        /* \"contracts/Management.sol\":1188:1213  subjInfoMap[_subjectAddr] */\n      0xffffffffffffffffffffffffffffffffffffffff\n      and\n      0xffffffffffffffffffffffffffffffffffffffff\n      and\n      dup2\n      mstore\n      0x20\n      add\n      swap1\n      dup2\n      mstore\n      0x20\n      add\n      0x00\n      keccak256\n        /* \"contracts/Management.sol\":1188:1225  subjInfoMap[_subjectAddr].subjectName */\n      0x01\n      add\n        /* \"contracts/Management.sol\":1188:1240  subjInfoMap[_subjectAddr].subjectName = _subjectName */\n      swap1\n      dup1\n      mload\n      swap1\n      0x20\n      add\n      swap1\n      tag_113\n      swap3\n      swap2\n      swap1\n      tag_55\n      jump\t// in\n    tag_113:\n      pop\n        /* \"contracts/Management.sol\":1286:1293  _ipAddr */\n      dup2\n        /* \"contracts/Management.sol\":1251:1262  subjInfoMap */\n      0x01\n        /* \"contracts/Management.sol\":1251:1276  subjInfoMap[_subjectAddr] */\n      0x00\n        /* \"contracts/Management.sol\":1263:1275  _subjectAddr */\n      dup4\n        /* \"contracts/Management.sol\":1251:1276  subjInfoMap[_subjectAddr] */\n      0xffffffffffffffffffffffffffffffffffffffff\n      and\n      0xffffffffffffffffffffffffffffffffffffffff\n      and\n      dup2\n      mstore\n      0x20\n      add\n      swap1\n      dup2\n      mstore\n      0x20\n      add\n      0x00\n      keccak256\n        /* \"contracts/Management.sol\":1251:1283  subjInfoMap[_subjectAddr].ipAddr */\n      0x03\n      add\n        /* \"contracts/Management.sol\":1251:1293  subjInfoMap[_subjectAddr].ipAddr = _ipAddr */\n      swap1\n      dup1\n      mload\n      swap1\n      0x20\n      add\n      swap1\n      tag_114\n      swap3\n      swap2\n      swap1\n      tag_55\n      jump\t// in\n    tag_114:\n      pop\n        /* \"contracts/Management.sol\":1070:1301  {\r... */\n      pop\n        /* \"contracts/Management.sol\":991:1301  function setSubjInfo(string memory _subjectName, string memory _ipAddr) public {\r... */\n      pop\n      pop\n      jump\t// out\n    tag_55:\n      dup3\n      dup1\n      sload\n      tag_115\n      swap1\n      tag_64\n      jump\t// in\n    tag_115:\n      swap1\n      0x00\n      mstore\n      keccak256(0x00, 0x20)\n      swap1\n      0x1f\n      add\n      0x20\n      swap1\n      div\n      dup2\n      add\n      swap3\n      dup3\n      tag_117\n      jumpi\n      0x00\n      dup6\n      sstore\n      jump(tag_116)\n    tag_117:\n      dup3\n      0x1f\n      lt\n      tag_118\n      jumpi\n      dup1\n      mload\n      not(0xff)\n      and\n      dup4\n      dup1\n      add\n      or\n      dup6\n      sstore\n      jump(tag_116)\n    tag_118:\n      dup3\n      dup1\n      add\n      0x01\n      add\n      dup6\n      sstore\n      dup3\n      iszero\n      tag_116\n      jumpi\n      swap2\n      dup3\n      add\n    tag_119:\n      dup3\n      dup2\n      gt\n      iszero\n      tag_120\n      jumpi\n      dup3\n      mload\n      dup3\n      sstore\n      swap2\n      0x20\n      add\n      swap2\n      swap1\n      0x01\n      add\n      swap1\n      jump(tag_119)\n    tag_120:\n    tag_116:\n      pop\n      swap1\n      pop\n      tag_121\n      swap2\n      swap1\n      tag_122\n      jump\t// in\n    tag_121:\n      pop\n      swap1\n      jump\t// out\n    tag_91:\n      mload(0x40)\n      dup1\n      0x80\n      add\n      0x40\n      mstore\n      dup1\n      and(0xffffffffffffffffffffffffffffffffffffffff, 0x00)\n      dup2\n      mstore\n      0x20\n      add\n      0x60\n      dup2\n      mstore\n      0x20\n      add\n      0x60\n      dup2\n      mstore\n      0x20\n      add\n      0x60\n      dup2\n      mstore\n      pop\n      swap1\n      jump\t// out\n    tag_122:\n    tag_123:\n      dup1\n      dup3\n      gt\n      iszero\n      tag_124\n      jumpi\n      0x00\n      dup2\n      0x00\n      swap1\n      sstore\n      pop\n      0x01\n      add\n      jump(tag_123)\n    tag_124:\n      pop\n      swap1\n      jump\t// out\n        /* \"#utility.yul\":7:419   */\n    tag_126:\n        /* \"#utility.yul\":85:90   */\n      0x00\n        /* \"#utility.yul\":110:176   */\n      tag_128\n        /* \"#utility.yul\":126:175   */\n      tag_129\n        /* \"#utility.yul\":168:174   */\n      dup5\n        /* \"#utility.yul\":126:175   */\n      tag_130\n      jump\t// in\n    tag_129:\n        /* \"#utility.yul\":110:176   */\n      tag_131\n      jump\t// in\n    tag_128:\n        /* \"#utility.yul\":101:176   */\n      swap1\n      pop\n        /* \"#utility.yul\":199:205   */\n      dup3\n        /* \"#utility.yul\":192:197   */\n      dup2\n        /* \"#utility.yul\":185:206   */\n      mstore\n        /* \"#utility.yul\":237:241   */\n      0x20\n        /* \"#utility.yul\":230:235   */\n      dup2\n        /* \"#utility.yul\":226:242   */\n      add\n        /* \"#utility.yul\":275:278   */\n      dup5\n        /* \"#utility.yul\":266:272   */\n      dup5\n        /* \"#utility.yul\":261:264   */\n      dup5\n        /* \"#utility.yul\":257:273   */\n      add\n        /* \"#utility.yul\":254:279   */\n      gt\n        /* \"#utility.yul\":251:363   */\n      iszero\n      tag_132\n      jumpi\n        /* \"#utility.yul\":282:361   */\n      tag_133\n      tag_134\n      jump\t// in\n    tag_133:\n        /* \"#utility.yul\":251:363   */\n    tag_132:\n        /* \"#utility.yul\":372:413   */\n      tag_135\n        /* \"#utility.yul\":406:412   */\n      dup5\n        /* \"#utility.yul\":401:404   */\n      dup3\n        /* \"#utility.yul\":396:399   */\n      dup6\n        /* \"#utility.yul\":372:413   */\n      tag_136\n      jump\t// in\n    tag_135:\n        /* \"#utility.yul\":91:419   */\n      pop\n        /* \"#utility.yul\":7:419   */\n      swap4\n      swap3\n      pop\n      pop\n      pop\n      jump\t// out\n        /* \"#utility.yul\":425:564   */\n    tag_137:\n        /* \"#utility.yul\":471:476   */\n      0x00\n        /* \"#utility.yul\":509:515   */\n      dup2\n        /* \"#utility.yul\":496:516   */\n      calldataload\n        /* \"#utility.yul\":487:516   */\n      swap1\n      pop\n        /* \"#utility.yul\":525:558   */\n      tag_139\n        /* \"#utility.yul\":552:557   */\n      dup2\n        /* \"#utility.yul\":525:558   */\n      tag_140\n      jump\t// in\n    tag_139:\n        /* \"#utility.yul\":425:564   */\n      swap3\n      swap2\n      pop\n      pop\n      jump\t// out\n        /* \"#utility.yul\":584:924   */\n    tag_141:\n        /* \"#utility.yul\":640:645   */\n      0x00\n        /* \"#utility.yul\":689:692   */\n      dup3\n        /* \"#utility.yul\":682:686   */\n      0x1f\n        /* \"#utility.yul\":674:680   */\n      dup4\n        /* \"#utility.yul\":670:687   */\n      add\n        /* \"#utility.yul\":666:693   */\n      slt\n        /* \"#utility.yul\":656:778   */\n      tag_143\n      jumpi\n        /* \"#utility.yul\":697:776   */\n      tag_144\n      tag_145\n      jump\t// in\n    tag_144:\n        /* \"#utility.yul\":656:778   */\n    tag_143:\n        /* \"#utility.yul\":814:820   */\n      dup2\n        /* \"#utility.yul\":801:821   */\n      calldataload\n        /* \"#utility.yul\":839:918   */\n      tag_146\n        /* \"#utility.yul\":914:917   */\n      dup5\n        /* \"#utility.yul\":906:912   */\n      dup3\n        /* \"#utility.yul\":899:903   */\n      0x20\n        /* \"#utility.yul\":891:897   */\n      dup7\n        /* \"#utility.yul\":887:904   */\n      add\n        /* \"#utility.yul\":839:918   */\n      tag_126\n      jump\t// in\n    tag_146:\n        /* \"#utility.yul\":830:918   */\n      swap2\n      pop\n        /* \"#utility.yul\":646:924   */\n      pop\n        /* \"#utility.yul\":584:924   */\n      swap3\n      swap2\n      pop\n      pop\n      jump\t// out\n        /* \"#utility.yul\":930:1259   */\n    tag_33:\n        /* \"#utility.yul\":989:995   */\n      0x00\n        /* \"#utility.yul\":1038:1040   */\n      0x20\n        /* \"#utility.yul\":1026:1035   */\n      dup3\n        /* \"#utility.yul\":1017:1024   */\n      dup5\n        /* \"#utility.yul\":1013:1036   */\n      sub\n        /* \"#utility.yul\":1009:1041   */\n      slt\n        /* \"#utility.yul\":1006:1125   */\n      iszero\n      tag_148\n      jumpi\n        /* \"#utility.yul\":1044:1123   */\n      tag_149\n      tag_150\n      jump\t// in\n    tag_149:\n        /* \"#utility.yul\":1006:1125   */\n    tag_148:\n        /* \"#utility.yul\":1164:1165   */\n      0x00\n        /* \"#utility.yul\":1189:1242   */\n      tag_151\n        /* \"#utility.yul\":1234:1241   */\n      dup5\n        /* \"#utility.yul\":1225:1231   */\n      dup3\n        /* \"#utility.yul\":1214:1223   */\n      dup6\n        /* \"#utility.yul\":1210:1232   */\n      add\n        /* \"#utility.yul\":1189:1242   */\n      tag_137\n      jump\t// in\n    tag_151:\n        /* \"#utility.yul\":1179:1242   */\n      swap2\n      pop\n        /* \"#utility.yul\":1135:1252   */\n      pop\n        /* \"#utility.yul\":930:1259   */\n      swap3\n      swap2\n      pop\n      pop\n      jump\t// out\n        /* \"#utility.yul\":1265:1739   */\n    tag_27:\n        /* \"#utility.yul\":1333:1339   */\n      0x00\n        /* \"#utility.yul\":1341:1347   */\n      dup1\n        /* \"#utility.yul\":1390:1392   */\n      0x40\n        /* \"#utility.yul\":1378:1387   */\n      dup4\n        /* \"#utility.yul\":1369:1376   */\n      dup6\n        /* \"#utility.yul\":1365:1388   */\n      sub\n        /* \"#utility.yul\":1361:1393   */\n      slt\n        /* \"#utility.yul\":1358:1477   */\n      iszero\n      tag_153\n      jumpi\n        /* \"#utility.yul\":1396:1475   */\n      tag_154\n      tag_150\n      jump\t// in\n    tag_154:\n        /* \"#utility.yul\":1358:1477   */\n    tag_153:\n        /* \"#utility.yul\":1516:1517   */\n      0x00\n        /* \"#utility.yul\":1541:1594   */\n      tag_155\n        /* \"#utility.yul\":1586:1593   */\n      dup6\n        /* \"#utility.yul\":1577:1583   */\n      dup3\n        /* \"#utility.yul\":1566:1575   */\n      dup7\n        /* \"#utility.yul\":1562:1584   */\n      add\n        /* \"#utility.yul\":1541:1594   */\n      tag_137\n      jump\t// in\n    tag_155:\n        /* \"#utility.yul\":1531:1594   */\n      swap3\n      pop\n        /* \"#utility.yul\":1487:1604   */\n      pop\n        /* \"#utility.yul\":1643:1645   */\n      0x20\n        /* \"#utility.yul\":1669:1722   */\n      tag_156\n        /* \"#utility.yul\":1714:1721   */\n      dup6\n        /* \"#utility.yul\":1705:1711   */\n      dup3\n        /* \"#utility.yul\":1694:1703   */\n      dup7\n        /* \"#utility.yul\":1690:1712   */\n      add\n        /* \"#utility.yul\":1669:1722   */\n      tag_137\n      jump\t// in\n    tag_156:\n        /* \"#utility.yul\":1659:1722   */\n      swap2\n      pop\n        /* \"#utility.yul\":1614:1732   */\n      pop\n        /* \"#utility.yul\":1265:1739   */\n      swap3\n      pop\n      swap3\n      swap1\n      pop\n      jump\t// out\n        /* \"#utility.yul\":1745:2544   */\n    tag_23:\n        /* \"#utility.yul\":1832:1838   */\n      0x00\n        /* \"#utility.yul\":1840:1846   */\n      dup1\n        /* \"#utility.yul\":1848:1854   */\n      0x00\n        /* \"#utility.yul\":1897:1899   */\n      0x60\n        /* \"#utility.yul\":1885:1894   */\n      dup5\n        /* \"#utility.yul\":1876:1883   */\n      dup7\n        /* \"#utility.yul\":1872:1895   */\n      sub\n        /* \"#utility.yul\":1868:1900   */\n      slt\n        /* \"#utility.yul\":1865:1984   */\n      iszero\n      tag_158\n      jumpi\n        /* \"#utility.yul\":1903:1982   */\n      tag_159\n      tag_150\n      jump\t// in\n    tag_159:\n        /* \"#utility.yul\":1865:1984   */\n    tag_158:\n        /* \"#utility.yul\":2023:2024   */\n      0x00\n        /* \"#utility.yul\":2048:2101   */\n      tag_160\n        /* \"#utility.yul\":2093:2100   */\n      dup7\n        /* \"#utility.yul\":2084:2090   */\n      dup3\n        /* \"#utility.yul\":2073:2082   */\n      dup8\n        /* \"#utility.yul\":2069:2091   */\n      add\n        /* \"#utility.yul\":2048:2101   */\n      tag_137\n      jump\t// in\n    tag_160:\n        /* \"#utility.yul\":2038:2101   */\n      swap4\n      pop\n        /* \"#utility.yul\":1994:2111   */\n      pop\n        /* \"#utility.yul\":2150:2152   */\n      0x20\n        /* \"#utility.yul\":2176:2229   */\n      tag_161\n        /* \"#utility.yul\":2221:2228   */\n      dup7\n        /* \"#utility.yul\":2212:2218   */\n      dup3\n        /* \"#utility.yul\":2201:2210   */\n      dup8\n        /* \"#utility.yul\":2197:2219   */\n      add\n        /* \"#utility.yul\":2176:2229   */\n      tag_137\n      jump\t// in\n    tag_161:\n        /* \"#utility.yul\":2166:2229   */\n      swap3\n      pop\n        /* \"#utility.yul\":2121:2239   */\n      pop\n        /* \"#utility.yul\":2306:2308   */\n      0x40\n        /* \"#utility.yul\":2295:2304   */\n      dup5\n        /* \"#utility.yul\":2291:2309   */\n      add\n        /* \"#utility.yul\":2278:2310   */\n      calldataload\n        /* \"#utility.yul\":2337:2355   */\n      0xffffffffffffffff\n        /* \"#utility.yul\":2329:2335   */\n      dup2\n        /* \"#utility.yul\":2326:2356   */\n      gt\n        /* \"#utility.yul\":2323:2440   */\n      iszero\n      tag_162\n      jumpi\n        /* \"#utility.yul\":2359:2438   */\n      tag_163\n      tag_164\n      jump\t// in\n    tag_163:\n        /* \"#utility.yul\":2323:2440   */\n    tag_162:\n        /* \"#utility.yul\":2464:2527   */\n      tag_165\n        /* \"#utility.yul\":2519:2526   */\n      dup7\n        /* \"#utility.yul\":2510:2516   */\n      dup3\n        /* \"#utility.yul\":2499:2508   */\n      dup8\n        /* \"#utility.yul\":2495:2517   */\n      add\n        /* \"#utility.yul\":2464:2527   */\n      tag_141\n      jump\t// in\n    tag_165:\n        /* \"#utility.yul\":2454:2527   */\n      swap2\n      pop\n        /* \"#utility.yul\":2249:2537   */\n      pop\n        /* \"#utility.yul\":1745:2544   */\n      swap3\n      pop\n      swap3\n      pop\n      swap3\n      jump\t// out\n        /* \"#utility.yul\":2550:3204   */\n    tag_15:\n        /* \"#utility.yul\":2628:2634   */\n      0x00\n        /* \"#utility.yul\":2636:2642   */\n      dup1\n        /* \"#utility.yul\":2685:2687   */\n      0x40\n        /* \"#utility.yul\":2673:2682   */\n      dup4\n        /* \"#utility.yul\":2664:2671   */\n      dup6\n        /* \"#utility.yul\":2660:2683   */\n      sub\n        /* \"#utility.yul\":2656:2688   */\n      slt\n        /* \"#utility.yul\":2653:2772   */\n      iszero\n      tag_167\n      jumpi\n        /* \"#utility.yul\":2691:2770   */\n      tag_168\n      tag_150\n      jump\t// in\n    tag_168:\n        /* \"#utility.yul\":2653:2772   */\n    tag_167:\n        /* \"#utility.yul\":2811:2812   */\n      0x00\n        /* \"#utility.yul\":2836:2889   */\n      tag_169\n        /* \"#utility.yul\":2881:2888   */\n      dup6\n        /* \"#utility.yul\":2872:2878   */\n      dup3\n        /* \"#utility.yul\":2861:2870   */\n      dup7\n        /* \"#utility.yul\":2857:2879   */\n      add\n        /* \"#utility.yul\":2836:2889   */\n      tag_137\n      jump\t// in\n    tag_169:\n        /* \"#utility.yul\":2826:2889   */\n      swap3\n      pop\n        /* \"#utility.yul\":2782:2899   */\n      pop\n        /* \"#utility.yul\":2966:2968   */\n      0x20\n        /* \"#utility.yul\":2955:2964   */\n      dup4\n        /* \"#utility.yul\":2951:2969   */\n      add\n        /* \"#utility.yul\":2938:2970   */\n      calldataload\n        /* \"#utility.yul\":2997:3015   */\n      0xffffffffffffffff\n        /* \"#utility.yul\":2989:2995   */\n      dup2\n        /* \"#utility.yul\":2986:3016   */\n      gt\n        /* \"#utility.yul\":2983:3100   */\n      iszero\n      tag_170\n      jumpi\n        /* \"#utility.yul\":3019:3098   */\n      tag_171\n      tag_164\n      jump\t// in\n    tag_171:\n        /* \"#utility.yul\":2983:3100   */\n    tag_170:\n        /* \"#utility.yul\":3124:3187   */\n      tag_172\n        /* \"#utility.yul\":3179:3186   */\n      dup6\n        /* \"#utility.yul\":3170:3176   */\n      dup3\n        /* \"#utility.yul\":3159:3168   */\n      dup7\n        /* \"#utility.yul\":3155:3177   */\n      add\n        /* \"#utility.yul\":3124:3187   */\n      tag_141\n      jump\t// in\n    tag_172:\n        /* \"#utility.yul\":3114:3187   */\n      swap2\n      pop\n        /* \"#utility.yul\":2909:3197   */\n      pop\n        /* \"#utility.yul\":2550:3204   */\n      swap3\n      pop\n      swap3\n      swap1\n      pop\n      jump\t// out\n        /* \"#utility.yul\":3210:4515   */\n    tag_19:\n        /* \"#utility.yul\":3326:3332   */\n      0x00\n        /* \"#utility.yul\":3334:3340   */\n      dup1\n        /* \"#utility.yul\":3342:3348   */\n      0x00\n        /* \"#utility.yul\":3350:3356   */\n      dup1\n        /* \"#utility.yul\":3399:3402   */\n      0x80\n        /* \"#utility.yul\":3387:3396   */\n      dup6\n        /* \"#utility.yul\":3378:3385   */\n      dup8\n        /* \"#utility.yul\":3374:3397   */\n      sub\n        /* \"#utility.yul\":3370:3403   */\n      slt\n        /* \"#utility.yul\":3367:3487   */\n      iszero\n      tag_174\n      jumpi\n        /* \"#utility.yul\":3406:3485   */\n      tag_175\n      tag_150\n      jump\t// in\n    tag_175:\n        /* \"#utility.yul\":3367:3487   */\n    tag_174:\n        /* \"#utility.yul\":3526:3527   */\n      0x00\n        /* \"#utility.yul\":3551:3604   */\n      tag_176\n        /* \"#utility.yul\":3596:3603   */\n      dup8\n        /* \"#utility.yul\":3587:3593   */\n      dup3\n        /* \"#utility.yul\":3576:3585   */\n      dup9\n        /* \"#utility.yul\":3572:3594   */\n      add\n        /* \"#utility.yul\":3551:3604   */\n      tag_137\n      jump\t// in\n    tag_176:\n        /* \"#utility.yul\":3541:3604   */\n      swap5\n      pop\n        /* \"#utility.yul\":3497:3614   */\n      pop\n        /* \"#utility.yul\":3681:3683   */\n      0x20\n        /* \"#utility.yul\":3670:3679   */\n      dup6\n        /* \"#utility.yul\":3666:3684   */\n      add\n        /* \"#utility.yul\":3653:3685   */\n      calldataload\n        /* \"#utility.yul\":3712:3730   */\n      0xffffffffffffffff\n        /* \"#utility.yul\":3704:3710   */\n      dup2\n        /* \"#utility.yul\":3701:3731   */\n      gt\n        /* \"#utility.yul\":3698:3815   */\n      iszero\n      tag_177\n      jumpi\n        /* \"#utility.yul\":3734:3813   */\n      tag_178\n      tag_164\n      jump\t// in\n    tag_178:\n        /* \"#utility.yul\":3698:3815   */\n    tag_177:\n        /* \"#utility.yul\":3839:3902   */\n      tag_179\n        /* \"#utility.yul\":3894:3901   */\n      dup8\n        /* \"#utility.yul\":3885:3891   */\n      dup3\n        /* \"#utility.yul\":3874:3883   */\n      dup9\n        /* \"#utility.yul\":3870:3892   */\n      add\n        /* \"#utility.yul\":3839:3902   */\n      tag_141\n      jump\t// in\n    tag_179:\n        /* \"#utility.yul\":3829:3902   */\n      swap4\n      pop\n        /* \"#utility.yul\":3624:3912   */\n      pop\n        /* \"#utility.yul\":3979:3981   */\n      0x40\n        /* \"#utility.yul\":3968:3977   */\n      dup6\n        /* \"#utility.yul\":3964:3982   */\n      add\n        /* \"#utility.yul\":3951:3983   */\n      calldataload\n        /* \"#utility.yul\":4010:4028   */\n      0xffffffffffffffff\n        /* \"#utility.yul\":4002:4008   */\n      dup2\n        /* \"#utility.yul\":3999:4029   */\n      gt\n        /* \"#utility.yul\":3996:4113   */\n      iszero\n      tag_180\n      jumpi\n        /* \"#utility.yul\":4032:4111   */\n      tag_181\n      tag_164\n      jump\t// in\n    tag_181:\n        /* \"#utility.yul\":3996:4113   */\n    tag_180:\n        /* \"#utility.yul\":4137:4200   */\n      tag_182\n        /* \"#utility.yul\":4192:4199   */\n      dup8\n        /* \"#utility.yul\":4183:4189   */\n      dup3\n        /* \"#utility.yul\":4172:4181   */\n      dup9\n        /* \"#utility.yul\":4168:4190   */\n      add\n        /* \"#utility.yul\":4137:4200   */\n      tag_141\n      jump\t// in\n    tag_182:\n        /* \"#utility.yul\":4127:4200   */\n      swap3\n      pop\n        /* \"#utility.yul\":3922:4210   */\n      pop\n        /* \"#utility.yul\":4277:4279   */\n      0x60\n        /* \"#utility.yul\":4266:4275   */\n      dup6\n        /* \"#utility.yul\":4262:4280   */\n      add\n        /* \"#utility.yul\":4249:4281   */\n      calldataload\n        /* \"#utility.yul\":4308:4326   */\n      0xffffffffffffffff\n        /* \"#utility.yul\":4300:4306   */\n      dup2\n        /* \"#utility.yul\":4297:4327   */\n      gt\n        /* \"#utility.yul\":4294:4411   */\n      iszero\n      tag_183\n      jumpi\n        /* \"#utility.yul\":4330:4409   */\n      tag_184\n      tag_164\n      jump\t// in\n    tag_184:\n        /* \"#utility.yul\":4294:4411   */\n    tag_183:\n        /* \"#utility.yul\":4435:4498   */\n      tag_185\n        /* \"#utility.yul\":4490:4497   */\n      dup8\n        /* \"#utility.yul\":4481:4487   */\n      dup3\n        /* \"#utility.yul\":4470:4479   */\n      dup9\n        /* \"#utility.yul\":4466:4488   */\n      add\n        /* \"#utility.yul\":4435:4498   */\n      tag_141\n      jump\t// in\n    tag_185:\n        /* \"#utility.yul\":4425:4498   */\n      swap2\n      pop\n        /* \"#utility.yul\":4220:4508   */\n      pop\n        /* \"#utility.yul\":3210:4515   */\n      swap3\n      swap6\n      swap2\n      swap5\n      pop\n      swap3\n      pop\n      jump\t// out\n        /* \"#utility.yul\":4521:5355   */\n    tag_51:\n        /* \"#utility.yul\":4609:4615   */\n      0x00\n        /* \"#utility.yul\":4617:4623   */\n      dup1\n        /* \"#utility.yul\":4666:4668   */\n      0x40\n        /* \"#utility.yul\":4654:4663   */\n      dup4\n        /* \"#utility.yul\":4645:4652   */\n      dup6\n        /* \"#utility.yul\":4641:4664   */\n      sub\n        /* \"#utility.yul\":4637:4669   */\n      slt\n        /* \"#utility.yul\":4634:4753   */\n      iszero\n      tag_187\n      jumpi\n        /* \"#utility.yul\":4672:4751   */\n      tag_188\n      tag_150\n      jump\t// in\n    tag_188:\n        /* \"#utility.yul\":4634:4753   */\n    tag_187:\n        /* \"#utility.yul\":4820:4821   */\n      0x00\n        /* \"#utility.yul\":4809:4818   */\n      dup4\n        /* \"#utility.yul\":4805:4822   */\n      add\n        /* \"#utility.yul\":4792:4823   */\n      calldataload\n        /* \"#utility.yul\":4850:4868   */\n      0xffffffffffffffff\n        /* \"#utility.yul\":4842:4848   */\n      dup2\n        /* \"#utility.yul\":4839:4869   */\n      gt\n        /* \"#utility.yul\":4836:4953   */\n      iszero\n      tag_189\n      jumpi\n        /* \"#utility.yul\":4872:4951   */\n      tag_190\n      tag_164\n      jump\t// in\n    tag_190:\n        /* \"#utility.yul\":4836:4953   */\n    tag_189:\n        /* \"#utility.yul\":4977:5040   */\n      tag_191\n        /* \"#utility.yul\":5032:5039   */\n      dup6\n        /* \"#utility.yul\":5023:5029   */\n      dup3\n        /* \"#utility.yul\":5012:5021   */\n      dup7\n        /* \"#utility.yul\":5008:5030   */\n      add\n        /* \"#utility.yul\":4977:5040   */\n      tag_141\n      jump\t// in\n    tag_191:\n        /* \"#utility.yul\":4967:5040   */\n      swap3\n      pop\n        /* \"#utility.yul\":4763:5050   */\n      pop\n        /* \"#utility.yul\":5117:5119   */\n      0x20\n        /* \"#utility.yul\":5106:5115   */\n      dup4\n        /* \"#utility.yul\":5102:5120   */\n      add\n        /* \"#utility.yul\":5089:5121   */\n      calldataload\n        /* \"#utility.yul\":5148:5166   */\n      0xffffffffffffffff\n        /* \"#utility.yul\":5140:5146   */\n      dup2\n        /* \"#utility.yul\":5137:5167   */\n      gt\n        /* \"#utility.yul\":5134:5251   */\n      iszero\n      tag_192\n      jumpi\n        /* \"#utility.yul\":5170:5249   */\n      tag_193\n      tag_164\n      jump\t// in\n    tag_193:\n        /* \"#utility.yul\":5134:5251   */\n    tag_192:\n        /* \"#utility.yul\":5275:5338   */\n      tag_194\n        /* \"#utility.yul\":5330:5337   */\n      dup6\n        /* \"#utility.yul\":5321:5327   */\n      dup3\n        /* \"#utility.yul\":5310:5319   */\n      dup7\n        /* \"#utility.yul\":5306:5328   */\n      add\n        /* \"#utility.yul\":5275:5338   */\n      tag_141\n      jump\t// in\n    tag_194:\n        /* \"#utility.yul\":5265:5338   */\n      swap2\n      pop\n        /* \"#utility.yul\":5060:5348   */\n      pop\n        /* \"#utility.yul\":4521:5355   */\n      swap3\n      pop\n      swap3\n      swap1\n      pop\n      jump\t// out\n        /* \"#utility.yul\":5361:5469   */\n    tag_195:\n        /* \"#utility.yul\":5438:5462   */\n      tag_197\n        /* \"#utility.yul\":5456:5461   */\n      dup2\n        /* \"#utility.yul\":5438:5462   */\n      tag_198\n      jump\t// in\n    tag_197:\n        /* \"#utility.yul\":5433:5436   */\n      dup3\n        /* \"#utility.yul\":5426:5463   */\n      mstore\n        /* \"#utility.yul\":5361:5469   */\n      pop\n      pop\n      jump\t// out\n        /* \"#utility.yul\":5475:5593   */\n    tag_199:\n        /* \"#utility.yul\":5562:5586   */\n      tag_201\n        /* \"#utility.yul\":5580:5585   */\n      dup2\n        /* \"#utility.yul\":5562:5586   */\n      tag_198\n      jump\t// in\n    tag_201:\n        /* \"#utility.yul\":5557:5560   */\n      dup3\n        /* \"#utility.yul\":5550:5587   */\n      mstore\n        /* \"#utility.yul\":5475:5593   */\n      pop\n      pop\n      jump\t// out\n        /* \"#utility.yul\":5599:5943   */\n    tag_202:\n        /* \"#utility.yul\":5677:5680   */\n      0x00\n        /* \"#utility.yul\":5705:5744   */\n      tag_204\n        /* \"#utility.yul\":5738:5743   */\n      dup3\n        /* \"#utility.yul\":5705:5744   */\n      tag_205\n      jump\t// in\n    tag_204:\n        /* \"#utility.yul\":5760:5821   */\n      tag_206\n        /* \"#utility.yul\":5814:5820   */\n      dup2\n        /* \"#utility.yul\":5809:5812   */\n      dup6\n        /* \"#utility.yul\":5760:5821   */\n      tag_207\n      jump\t// in\n    tag_206:\n        /* \"#utility.yul\":5753:5821   */\n      swap4\n      pop\n        /* \"#utility.yul\":5830:5882   */\n      tag_208\n        /* \"#utility.yul\":5875:5881   */\n      dup2\n        /* \"#utility.yul\":5870:5873   */\n      dup6\n        /* \"#utility.yul\":5863:5867   */\n      0x20\n        /* \"#utility.yul\":5856:5861   */\n      dup7\n        /* \"#utility.yul\":5852:5868   */\n      add\n        /* \"#utility.yul\":5830:5882   */\n      tag_209\n      jump\t// in\n    tag_208:\n        /* \"#utility.yul\":5907:5936   */\n      tag_210\n        /* \"#utility.yul\":5929:5935   */\n      dup2\n        /* \"#utility.yul\":5907:5936   */\n      tag_211\n      jump\t// in\n    tag_210:\n        /* \"#utility.yul\":5902:5905   */\n      dup5\n        /* \"#utility.yul\":5898:5937   */\n      add\n        /* \"#utility.yul\":5891:5937   */\n      swap2\n      pop\n        /* \"#utility.yul\":5681:5943   */\n      pop\n        /* \"#utility.yul\":5599:5943   */\n      swap3\n      swap2\n      pop\n      pop\n      jump\t// out\n        /* \"#utility.yul\":5949:6313   */\n    tag_212:\n        /* \"#utility.yul\":6037:6040   */\n      0x00\n        /* \"#utility.yul\":6065:6104   */\n      tag_214\n        /* \"#utility.yul\":6098:6103   */\n      dup3\n        /* \"#utility.yul\":6065:6104   */\n      tag_205\n      jump\t// in\n    tag_214:\n        /* \"#utility.yul\":6120:6191   */\n      tag_215\n        /* \"#utility.yul\":6184:6190   */\n      dup2\n        /* \"#utility.yul\":6179:6182   */\n      dup6\n        /* \"#utility.yul\":6120:6191   */\n      tag_216\n      jump\t// in\n    tag_215:\n        /* \"#utility.yul\":6113:6191   */\n      swap4\n      pop\n        /* \"#utility.yul\":6200:6252   */\n      tag_217\n        /* \"#utility.yul\":6245:6251   */\n      dup2\n        /* \"#utility.yul\":6240:6243   */\n      dup6\n        /* \"#utility.yul\":6233:6237   */\n      0x20\n        /* \"#utility.yul\":6226:6231   */\n      dup7\n        /* \"#utility.yul\":6222:6238   */\n      add\n        /* \"#utility.yul\":6200:6252   */\n      tag_209\n      jump\t// in\n    tag_217:\n        /* \"#utility.yul\":6277:6306   */\n      tag_218\n        /* \"#utility.yul\":6299:6305   */\n      dup2\n        /* \"#utility.yul\":6277:6306   */\n      tag_211\n      jump\t// in\n    tag_218:\n        /* \"#utility.yul\":6272:6275   */\n      dup5\n        /* \"#utility.yul\":6268:6307   */\n      add\n        /* \"#utility.yul\":6261:6307   */\n      swap2\n      pop\n        /* \"#utility.yul\":6041:6313   */\n      pop\n        /* \"#utility.yul\":5949:6313   */\n      swap3\n      swap2\n      pop\n      pop\n      jump\t// out\n        /* \"#utility.yul\":6387:7505   */\n    tag_219:\n        /* \"#utility.yul\":6508:6511   */\n      0x00\n        /* \"#utility.yul\":6544:6548   */\n      0x80\n        /* \"#utility.yul\":6539:6542   */\n      dup4\n        /* \"#utility.yul\":6535:6549   */\n      add\n        /* \"#utility.yul\":6637:6641   */\n      0x00\n        /* \"#utility.yul\":6630:6635   */\n      dup4\n        /* \"#utility.yul\":6626:6642   */\n      add\n        /* \"#utility.yul\":6620:6643   */\n      mload\n        /* \"#utility.yul\":6656:6719   */\n      tag_221\n        /* \"#utility.yul\":6713:6717   */\n      0x00\n        /* \"#utility.yul\":6708:6711   */\n      dup7\n        /* \"#utility.yul\":6704:6718   */\n      add\n        /* \"#utility.yul\":6690:6702   */\n      dup3\n        /* \"#utility.yul\":6656:6719   */\n      tag_195\n      jump\t// in\n    tag_221:\n        /* \"#utility.yul\":6559:6729   */\n      pop\n        /* \"#utility.yul\":6817:6821   */\n      0x20\n        /* \"#utility.yul\":6810:6815   */\n      dup4\n        /* \"#utility.yul\":6806:6822   */\n      add\n        /* \"#utility.yul\":6800:6823   */\n      mload\n        /* \"#utility.yul\":6870:6873   */\n      dup5\n        /* \"#utility.yul\":6864:6868   */\n      dup3\n        /* \"#utility.yul\":6860:6874   */\n      sub\n        /* \"#utility.yul\":6853:6857   */\n      0x20\n        /* \"#utility.yul\":6848:6851   */\n      dup7\n        /* \"#utility.yul\":6844:6858   */\n      add\n        /* \"#utility.yul\":6837:6875   */\n      mstore\n        /* \"#utility.yul\":6896:6969   */\n      tag_222\n        /* \"#utility.yul\":6964:6968   */\n      dup3\n        /* \"#utility.yul\":6950:6962   */\n      dup3\n        /* \"#utility.yul\":6896:6969   */\n      tag_202\n      jump\t// in\n    tag_222:\n        /* \"#utility.yul\":6888:6969   */\n      swap2\n      pop\n        /* \"#utility.yul\":6739:6980   */\n      pop\n        /* \"#utility.yul\":7068:7072   */\n      0x40\n        /* \"#utility.yul\":7061:7066   */\n      dup4\n        /* \"#utility.yul\":7057:7073   */\n      add\n        /* \"#utility.yul\":7051:7074   */\n      mload\n        /* \"#utility.yul\":7121:7124   */\n      dup5\n        /* \"#utility.yul\":7115:7119   */\n      dup3\n        /* \"#utility.yul\":7111:7125   */\n      sub\n        /* \"#utility.yul\":7104:7108   */\n      0x40\n        /* \"#utility.yul\":7099:7102   */\n      dup7\n        /* \"#utility.yul\":7095:7109   */\n      add\n        /* \"#utility.yul\":7088:7126   */\n      mstore\n        /* \"#utility.yul\":7147:7220   */\n      tag_223\n        /* \"#utility.yul\":7215:7219   */\n      dup3\n        /* \"#utility.yul\":7201:7213   */\n      dup3\n        /* \"#utility.yul\":7147:7220   */\n      tag_202\n      jump\t// in\n    tag_223:\n        /* \"#utility.yul\":7139:7220   */\n      swap2\n      pop\n        /* \"#utility.yul\":6990:7231   */\n      pop\n        /* \"#utility.yul\":7315:7319   */\n      0x60\n        /* \"#utility.yul\":7308:7313   */\n      dup4\n        /* \"#utility.yul\":7304:7320   */\n      add\n        /* \"#utility.yul\":7298:7321   */\n      mload\n        /* \"#utility.yul\":7368:7371   */\n      dup5\n        /* \"#utility.yul\":7362:7366   */\n      dup3\n        /* \"#utility.yul\":7358:7372   */\n      sub\n        /* \"#utility.yul\":7351:7355   */\n      0x60\n        /* \"#utility.yul\":7346:7349   */\n      dup7\n        /* \"#utility.yul\":7342:7356   */\n      add\n        /* \"#utility.yul\":7335:7373   */\n      mstore\n        /* \"#utility.yul\":7394:7467   */\n      tag_224\n        /* \"#utility.yul\":7462:7466   */\n      dup3\n        /* \"#utility.yul\":7448:7460   */\n      dup3\n        /* \"#utility.yul\":7394:7467   */\n      tag_202\n      jump\t// in\n    tag_224:\n        /* \"#utility.yul\":7386:7467   */\n      swap2\n      pop\n        /* \"#utility.yul\":7241:7478   */\n      pop\n        /* \"#utility.yul\":7495:7499   */\n      dup1\n        /* \"#utility.yul\":7488:7499   */\n      swap2\n      pop\n        /* \"#utility.yul\":6513:7505   */\n      pop\n        /* \"#utility.yul\":6387:7505   */\n      swap3\n      swap2\n      pop\n      pop\n      jump\t// out\n        /* \"#utility.yul\":7511:8135   */\n    tag_41:\n        /* \"#utility.yul\":7700:7704   */\n      0x00\n        /* \"#utility.yul\":7738:7740   */\n      0x60\n        /* \"#utility.yul\":7727:7736   */\n      dup3\n        /* \"#utility.yul\":7723:7741   */\n      add\n        /* \"#utility.yul\":7715:7741   */\n      swap1\n      pop\n        /* \"#utility.yul\":7751:7822   */\n      tag_226\n        /* \"#utility.yul\":7819:7820   */\n      0x00\n        /* \"#utility.yul\":7808:7817   */\n      dup4\n        /* \"#utility.yul\":7804:7821   */\n      add\n        /* \"#utility.yul\":7795:7801   */\n      dup7\n        /* \"#utility.yul\":7751:7822   */\n      tag_199\n      jump\t// in\n    tag_226:\n        /* \"#utility.yul\":7869:7878   */\n      dup2\n        /* \"#utility.yul\":7863:7867   */\n      dup2\n        /* \"#utility.yul\":7859:7879   */\n      sub\n        /* \"#utility.yul\":7854:7856   */\n      0x20\n        /* \"#utility.yul\":7843:7852   */\n      dup4\n        /* \"#utility.yul\":7839:7857   */\n      add\n        /* \"#utility.yul\":7832:7880   */\n      mstore\n        /* \"#utility.yul\":7897:7975   */\n      tag_227\n        /* \"#utility.yul\":7970:7974   */\n      dup2\n        /* \"#utility.yul\":7961:7967   */\n      dup6\n        /* \"#utility.yul\":7897:7975   */\n      tag_212\n      jump\t// in\n    tag_227:\n        /* \"#utility.yul\":7889:7975   */\n      swap1\n      pop\n        /* \"#utility.yul\":8022:8031   */\n      dup2\n        /* \"#utility.yul\":8016:8020   */\n      dup2\n        /* \"#utility.yul\":8012:8032   */\n      sub\n        /* \"#utility.yul\":8007:8009   */\n      0x40\n        /* \"#utility.yul\":7996:8005   */\n      dup4\n        /* \"#utility.yul\":7992:8010   */\n      add\n        /* \"#utility.yul\":7985:8033   */\n      mstore\n        /* \"#utility.yul\":8050:8128   */\n      tag_228\n        /* \"#utility.yul\":8123:8127   */\n      dup2\n        /* \"#utility.yul\":8114:8120   */\n      dup5\n        /* \"#utility.yul\":8050:8128   */\n      tag_212\n      jump\t// in\n    tag_228:\n        /* \"#utility.yul\":8042:8128   */\n      swap1\n      pop\n        /* \"#utility.yul\":7511:8135   */\n      swap5\n      swap4\n      pop\n      pop\n      pop\n      pop\n      jump\t// out\n        /* \"#utility.yul\":8141:8454   */\n    tag_30:\n        /* \"#utility.yul\":8254:8258   */\n      0x00\n        /* \"#utility.yul\":8292:8294   */\n      0x20\n        /* \"#utility.yul\":8281:8290   */\n      dup3\n        /* \"#utility.yul\":8277:8295   */\n      add\n        /* \"#utility.yul\":8269:8295   */\n      swap1\n      pop\n        /* \"#utility.yul\":8341:8350   */\n      dup2\n        /* \"#utility.yul\":8335:8339   */\n      dup2\n        /* \"#utility.yul\":8331:8351   */\n      sub\n        /* \"#utility.yul\":8327:8328   */\n      0x00\n        /* \"#utility.yul\":8316:8325   */\n      dup4\n        /* \"#utility.yul\":8312:8329   */\n      add\n        /* \"#utility.yul\":8305:8352   */\n      mstore\n        /* \"#utility.yul\":8369:8447   */\n      tag_230\n        /* \"#utility.yul\":8442:8446   */\n      dup2\n        /* \"#utility.yul\":8433:8439   */\n      dup5\n        /* \"#utility.yul\":8369:8447   */\n      tag_212\n      jump\t// in\n    tag_230:\n        /* \"#utility.yul\":8361:8447   */\n      swap1\n      pop\n        /* \"#utility.yul\":8141:8454   */\n      swap3\n      swap2\n      pop\n      pop\n      jump\t// out\n        /* \"#utility.yul\":8460:8974   */\n    tag_36:\n        /* \"#utility.yul\":8621:8625   */\n      0x00\n        /* \"#utility.yul\":8659:8661   */\n      0x40\n        /* \"#utility.yul\":8648:8657   */\n      dup3\n        /* \"#utility.yul\":8644:8662   */\n      add\n        /* \"#utility.yul\":8636:8662   */\n      swap1\n      pop\n        /* \"#utility.yul\":8708:8717   */\n      dup2\n        /* \"#utility.yul\":8702:8706   */\n      dup2\n        /* \"#utility.yul\":8698:8718   */\n      sub\n        /* \"#utility.yul\":8694:8695   */\n      0x00\n        /* \"#utility.yul\":8683:8692   */\n      dup4\n        /* \"#utility.yul\":8679:8696   */\n      add\n        /* \"#utility.yul\":8672:8719   */\n      mstore\n        /* \"#utility.yul\":8736:8814   */\n      tag_232\n        /* \"#utility.yul\":8809:8813   */\n      dup2\n        /* \"#utility.yul\":8800:8806   */\n      dup6\n        /* \"#utility.yul\":8736:8814   */\n      tag_212\n      jump\t// in\n    tag_232:\n        /* \"#utility.yul\":8728:8814   */\n      swap1\n      pop\n        /* \"#utility.yul\":8861:8870   */\n      dup2\n        /* \"#utility.yul\":8855:8859   */\n      dup2\n        /* \"#utility.yul\":8851:8871   */\n      sub\n        /* \"#utility.yul\":8846:8848   */\n      0x20\n        /* \"#utility.yul\":8835:8844   */\n      dup4\n        /* \"#utility.yul\":8831:8849   */\n      add\n        /* \"#utility.yul\":8824:8872   */\n      mstore\n        /* \"#utility.yul\":8889:8967   */\n      tag_233\n        /* \"#utility.yul\":8962:8966   */\n      dup2\n        /* \"#utility.yul\":8953:8959   */\n      dup5\n        /* \"#utility.yul\":8889:8967   */\n      tag_212\n      jump\t// in\n    tag_233:\n        /* \"#utility.yul\":8881:8967   */\n      swap1\n      pop\n        /* \"#utility.yul\":8460:8974   */\n      swap4\n      swap3\n      pop\n      pop\n      pop\n      jump\t// out\n        /* \"#utility.yul\":8980:9357   */\n    tag_46:\n        /* \"#utility.yul\":9125:9129   */\n      0x00\n        /* \"#utility.yul\":9163:9165   */\n      0x20\n        /* \"#utility.yul\":9152:9161   */\n      dup3\n        /* \"#utility.yul\":9148:9166   */\n      add\n        /* \"#utility.yul\":9140:9166   */\n      swap1\n      pop\n        /* \"#utility.yul\":9212:9221   */\n      dup2\n        /* \"#utility.yul\":9206:9210   */\n      dup2\n        /* \"#utility.yul\":9202:9222   */\n      sub\n        /* \"#utility.yul\":9198:9199   */\n      0x00\n        /* \"#utility.yul\":9187:9196   */\n      dup4\n        /* \"#utility.yul\":9183:9200   */\n      add\n        /* \"#utility.yul\":9176:9223   */\n      mstore\n        /* \"#utility.yul\":9240:9350   */\n      tag_235\n        /* \"#utility.yul\":9345:9349   */\n      dup2\n        /* \"#utility.yul\":9336:9342   */\n      dup5\n        /* \"#utility.yul\":9240:9350   */\n      tag_219\n      jump\t// in\n    tag_235:\n        /* \"#utility.yul\":9232:9350   */\n      swap1\n      pop\n        /* \"#utility.yul\":8980:9357   */\n      swap3\n      swap2\n      pop\n      pop\n      jump\t// out\n        /* \"#utility.yul\":9363:9492   */\n    tag_131:\n        /* \"#utility.yul\":9397:9403   */\n      0x00\n        /* \"#utility.yul\":9424:9444   */\n      tag_237\n      tag_238\n      jump\t// in\n    tag_237:\n        /* \"#utility.yul\":9414:9444   */\n      swap1\n      pop\n        /* \"#utility.yul\":9453:9486   */\n      tag_239\n        /* \"#utility.yul\":9481:9485   */\n      dup3\n        /* \"#utility.yul\":9473:9479   */\n      dup3\n        /* \"#utility.yul\":9453:9486   */\n      tag_240\n      jump\t// in\n    tag_239:\n        /* \"#utility.yul\":9363:9492   */\n      swap2\n      swap1\n      pop\n      jump\t// out\n        /* \"#utility.yul\":9498:9573   */\n    tag_238:\n        /* \"#utility.yul\":9531:9537   */\n      0x00\n        /* \"#utility.yul\":9564:9566   */\n      0x40\n        /* \"#utility.yul\":9558:9567   */\n      mload\n        /* \"#utility.yul\":9548:9567   */\n      swap1\n      pop\n        /* \"#utility.yul\":9498:9573   */\n      swap1\n      jump\t// out\n        /* \"#utility.yul\":9579:9887   */\n    tag_130:\n        /* \"#utility.yul\":9641:9645   */\n      0x00\n        /* \"#utility.yul\":9731:9749   */\n      0xffffffffffffffff\n        /* \"#utility.yul\":9723:9729   */\n      dup3\n        /* \"#utility.yul\":9720:9750   */\n      gt\n        /* \"#utility.yul\":9717:9773   */\n      iszero\n      tag_243\n      jumpi\n        /* \"#utility.yul\":9753:9771   */\n      tag_244\n      tag_245\n      jump\t// in\n    tag_244:\n        /* \"#utility.yul\":9717:9773   */\n    tag_243:\n        /* \"#utility.yul\":9791:9820   */\n      tag_246\n        /* \"#utility.yul\":9813:9819   */\n      dup3\n        /* \"#utility.yul\":9791:9820   */\n      tag_211\n      jump\t// in\n    tag_246:\n        /* \"#utility.yul\":9783:9820   */\n      swap1\n      pop\n        /* \"#utility.yul\":9875:9879   */\n      0x20\n        /* \"#utility.yul\":9869:9873   */\n      dup2\n        /* \"#utility.yul\":9865:9880   */\n      add\n        /* \"#utility.yul\":9857:9880   */\n      swap1\n      pop\n        /* \"#utility.yul\":9579:9887   */\n      swap2\n      swap1\n      pop\n      jump\t// out\n        /* \"#utility.yul\":9893:9992   */\n    tag_205:\n        /* \"#utility.yul\":9945:9951   */\n      0x00\n        /* \"#utility.yul\":9979:9984   */\n      dup2\n        /* \"#utility.yul\":9973:9985   */\n      mload\n        /* \"#utility.yul\":9963:9985   */\n      swap1\n      pop\n        /* \"#utility.yul\":9893:9992   */\n      swap2\n      swap1\n      pop\n      jump\t// out\n        /* \"#utility.yul\":9998:10157   */\n    tag_207:\n        /* \"#utility.yul\":10072:10083   */\n      0x00\n        /* \"#utility.yul\":10106:10112   */\n      dup3\n        /* \"#utility.yul\":10101:10104   */\n      dup3\n        /* \"#utility.yul\":10094:10113   */\n      mstore\n        /* \"#utility.yul\":10146:10150   */\n      0x20\n        /* \"#utility.yul\":10141:10144   */\n      dup3\n        /* \"#utility.yul\":10137:10151   */\n      add\n        /* \"#utility.yul\":10122:10151   */\n      swap1\n      pop\n        /* \"#utility.yul\":9998:10157   */\n      swap3\n      swap2\n      pop\n      pop\n      jump\t// out\n        /* \"#utility.yul\":10163:10332   */\n    tag_216:\n        /* \"#utility.yul\":10247:10258   */\n      0x00\n        /* \"#utility.yul\":10281:10287   */\n      dup3\n        /* \"#utility.yul\":10276:10279   */\n      dup3\n        /* \"#utility.yul\":10269:10288   */\n      mstore\n        /* \"#utility.yul\":10321:10325   */\n      0x20\n        /* \"#utility.yul\":10316:10319   */\n      dup3\n        /* \"#utility.yul\":10312:10326   */\n      add\n        /* \"#utility.yul\":10297:10326   */\n      swap1\n      pop\n        /* \"#utility.yul\":10163:10332   */\n      swap3\n      swap2\n      pop\n      pop\n      jump\t// out\n        /* \"#utility.yul\":10338:10434   */\n    tag_198:\n        /* \"#utility.yul\":10375:10382   */\n      0x00\n        /* \"#utility.yul\":10404:10428   */\n      tag_251\n        /* \"#utility.yul\":10422:10427   */\n      dup3\n        /* \"#utility.yul\":10404:10428   */\n      tag_252\n      jump\t// in\n    tag_251:\n        /* \"#utility.yul\":10393:10428   */\n      swap1\n      pop\n        /* \"#utility.yul\":10338:10434   */\n      swap2\n      swap1\n      pop\n      jump\t// out\n        /* \"#utility.yul\":10440:10566   */\n    tag_252:\n        /* \"#utility.yul\":10477:10484   */\n      0x00\n        /* \"#utility.yul\":10517:10559   */\n      0xffffffffffffffffffffffffffffffffffffffff\n        /* \"#utility.yul\":10510:10515   */\n      dup3\n        /* \"#utility.yul\":10506:10560   */\n      and\n        /* \"#utility.yul\":10495:10560   */\n      swap1\n      pop\n        /* \"#utility.yul\":10440:10566   */\n      swap2\n      swap1\n      pop\n      jump\t// out\n        /* \"#utility.yul\":10572:10726   */\n    tag_136:\n        /* \"#utility.yul\":10656:10662   */\n      dup3\n        /* \"#utility.yul\":10651:10654   */\n      dup2\n        /* \"#utility.yul\":10646:10649   */\n      dup4\n        /* \"#utility.yul\":10633:10663   */\n      calldatacopy\n        /* \"#utility.yul\":10718:10719   */\n      0x00\n        /* \"#utility.yul\":10709:10715   */\n      dup4\n        /* \"#utility.yul\":10704:10707   */\n      dup4\n        /* \"#utility.yul\":10700:10716   */\n      add\n        /* \"#utility.yul\":10693:10720   */\n      mstore\n        /* \"#utility.yul\":10572:10726   */\n      pop\n      pop\n      pop\n      jump\t// out\n        /* \"#utility.yul\":10732:11039   */\n    tag_209:\n        /* \"#utility.yul\":10800:10801   */\n      0x00\n        /* \"#utility.yul\":10810:10923   */\n    tag_256:\n        /* \"#utility.yul\":10824:10830   */\n      dup4\n        /* \"#utility.yul\":10821:10822   */\n      dup2\n        /* \"#utility.yul\":10818:10831   */\n      lt\n        /* \"#utility.yul\":10810:10923   */\n      iszero\n      tag_258\n      jumpi\n        /* \"#utility.yul\":10909:10910   */\n      dup1\n        /* \"#utility.yul\":10904:10907   */\n      dup3\n        /* \"#utility.yul\":10900:10911   */\n      add\n        /* \"#utility.yul\":10894:10912   */\n      mload\n        /* \"#utility.yul\":10890:10891   */\n      dup2\n        /* \"#utility.yul\":10885:10888   */\n      dup5\n        /* \"#utility.yul\":10881:10892   */\n      add\n        /* \"#utility.yul\":10874:10913   */\n      mstore\n        /* \"#utility.yul\":10846:10848   */\n      0x20\n        /* \"#utility.yul\":10843:10844   */\n      dup2\n        /* \"#utility.yul\":10839:10849   */\n      add\n        /* \"#utility.yul\":10834:10849   */\n      swap1\n      pop\n        /* \"#utility.yul\":10810:10923   */\n      jump(tag_256)\n    tag_258:\n        /* \"#utility.yul\":10941:10947   */\n      dup4\n        /* \"#utility.yul\":10938:10939   */\n      dup2\n        /* \"#utility.yul\":10935:10948   */\n      gt\n        /* \"#utility.yul\":10932:11033   */\n      iszero\n      tag_259\n      jumpi\n        /* \"#utility.yul\":11021:11022   */\n      0x00\n        /* \"#utility.yul\":11012:11018   */\n      dup5\n        /* \"#utility.yul\":11007:11010   */\n      dup5\n        /* \"#utility.yul\":11003:11019   */\n      add\n        /* \"#utility.yul\":10996:11023   */\n      mstore\n        /* \"#utility.yul\":10932:11033   */\n    tag_259:\n        /* \"#utility.yul\":10781:11039   */\n      pop\n        /* \"#utility.yul\":10732:11039   */\n      pop\n      pop\n      pop\n      jump\t// out\n        /* \"#utility.yul\":11045:11365   */\n    tag_64:\n        /* \"#utility.yul\":11089:11095   */\n      0x00\n        /* \"#utility.yul\":11126:11127   */\n      0x02\n        /* \"#utility.yul\":11120:11124   */\n      dup3\n        /* \"#utility.yul\":11116:11128   */\n      div\n        /* \"#utility.yul\":11106:11128   */\n      swap1\n      pop\n        /* \"#utility.yul\":11173:11174   */\n      0x01\n        /* \"#utility.yul\":11167:11171   */\n      dup3\n        /* \"#utility.yul\":11163:11175   */\n      and\n        /* \"#utility.yul\":11194:11212   */\n      dup1\n        /* \"#utility.yul\":11184:11265   */\n      tag_261\n      jumpi\n        /* \"#utility.yul\":11250:11254   */\n      0x7f\n        /* \"#utility.yul\":11242:11248   */\n      dup3\n        /* \"#utility.yul\":11238:11255   */\n      and\n        /* \"#utility.yul\":11228:11255   */\n      swap2\n      pop\n        /* \"#utility.yul\":11184:11265   */\n    tag_261:\n        /* \"#utility.yul\":11312:11314   */\n      0x20\n        /* \"#utility.yul\":11304:11310   */\n      dup3\n        /* \"#utility.yul\":11301:11315   */\n      lt\n        /* \"#utility.yul\":11281:11299   */\n      dup2\n        /* \"#utility.yul\":11278:11316   */\n      eq\n        /* \"#utility.yul\":11275:11359   */\n      iszero\n      tag_262\n      jumpi\n        /* \"#utility.yul\":11331:11349   */\n      tag_263\n      tag_264\n      jump\t// in\n    tag_263:\n        /* \"#utility.yul\":11275:11359   */\n    tag_262:\n        /* \"#utility.yul\":11096:11365   */\n      pop\n        /* \"#utility.yul\":11045:11365   */\n      swap2\n      swap1\n      pop\n      jump\t// out\n        /* \"#utility.yul\":11371:11652   */\n    tag_240:\n        /* \"#utility.yul\":11454:11481   */\n      tag_266\n        /* \"#utility.yul\":11476:11480   */\n      dup3\n        /* \"#utility.yul\":11454:11481   */\n      tag_211\n      jump\t// in\n    tag_266:\n        /* \"#utility.yul\":11446:11452   */\n      dup2\n        /* \"#utility.yul\":11442:11482   */\n      add\n        /* \"#utility.yul\":11584:11590   */\n      dup2\n        /* \"#utility.yul\":11572:11582   */\n      dup2\n        /* \"#utility.yul\":11569:11591   */\n      lt\n        /* \"#utility.yul\":11548:11566   */\n      0xffffffffffffffff\n        /* \"#utility.yul\":11536:11546   */\n      dup3\n        /* \"#utility.yul\":11533:11567   */\n      gt\n        /* \"#utility.yul\":11530:11592   */\n      or\n        /* \"#utility.yul\":11527:11615   */\n      iszero\n      tag_267\n      jumpi\n        /* \"#utility.yul\":11595:11613   */\n      tag_268\n      tag_245\n      jump\t// in\n    tag_268:\n        /* \"#utility.yul\":11527:11615   */\n    tag_267:\n        /* \"#utility.yul\":11635:11645   */\n      dup1\n        /* \"#utility.yul\":11631:11633   */\n      0x40\n        /* \"#utility.yul\":11624:11646   */\n      mstore\n        /* \"#utility.yul\":11414:11652   */\n      pop\n        /* \"#utility.yul\":11371:11652   */\n      pop\n      pop\n      jump\t// out\n        /* \"#utility.yul\":11658:11838   */\n    tag_264:\n        /* \"#utility.yul\":11706:11783   */\n      0x4e487b7100000000000000000000000000000000000000000000000000000000\n        /* \"#utility.yul\":11703:11704   */\n      0x00\n        /* \"#utility.yul\":11696:11784   */\n      mstore\n        /* \"#utility.yul\":11803:11807   */\n      0x22\n        /* \"#utility.yul\":11800:11801   */\n      0x04\n        /* \"#utility.yul\":11793:11808   */\n      mstore\n        /* \"#utility.yul\":11827:11831   */\n      0x24\n        /* \"#utility.yul\":11824:11825   */\n      0x00\n        /* \"#utility.yul\":11817:11832   */\n      revert\n        /* \"#utility.yul\":11844:12024   */\n    tag_245:\n        /* \"#utility.yul\":11892:11969   */\n      0x4e487b7100000000000000000000000000000000000000000000000000000000\n        /* \"#utility.yul\":11889:11890   */\n      0x00\n        /* \"#utility.yul\":11882:11970   */\n      mstore\n        /* \"#utility.yul\":11989:11993   */\n      0x41\n        /* \"#utility.yul\":11986:11987   */\n      0x04\n        /* \"#utility.yul\":11979:11994   */\n      mstore\n        /* \"#utility.yul\":12013:12017   */\n      0x24\n        /* \"#utility.yul\":12010:12011   */\n      0x00\n        /* \"#utility.yul\":12003:12018   */\n      revert\n        /* \"#utility.yul\":12030:12147   */\n    tag_145:\n        /* \"#utility.yul\":12139:12140   */\n      0x00\n        /* \"#utility.yul\":12136:12137   */\n      dup1\n        /* \"#utility.yul\":12129:12141   */\n      revert\n        /* \"#utility.yul\":12153:12270   */\n    tag_134:\n        /* \"#utility.yul\":12262:12263   */\n      0x00\n        /* \"#utility.yul\":12259:12260   */\n      dup1\n        /* \"#utility.yul\":12252:12264   */\n      revert\n        /* \"#utility.yul\":12276:12393   */\n    tag_164:\n        /* \"#utility.yul\":12385:12386   */\n      0x00\n        /* \"#utility.yul\":12382:12383   */\n      dup1\n        /* \"#utility.yul\":12375:12387   */\n      revert\n        /* \"#utility.yul\":12399:12516   */\n    tag_150:\n        /* \"#utility.yul\":12508:12509   */\n      0x00\n        /* \"#utility.yul\":12505:12506   */\n      dup1\n        /* \"#utility.yul\":12498:12510   */\n      revert\n        /* \"#utility.yul\":12522:12624   */\n    tag_211:\n        /* \"#utility.yul\":12563:12569   */\n      0x00\n        /* \"#utility.yul\":12614:12616   */\n      0x1f\n        /* \"#utility.yul\":12610:12617   */\n      not\n        /* \"#utility.yul\":12605:12607   */\n      0x1f\n        /* \"#utility.yul\":12598:12603   */\n      dup4\n        /* \"#utility.yul\":12594:12608   */\n      add\n        /* \"#utility.yul\":12590:12618   */\n      and\n        /* \"#utility.yul\":12580:12618   */\n      swap1\n      pop\n        /* \"#utility.yul\":12522:12624   */\n      swap2\n      swap1\n      pop\n      jump\t// out\n        /* \"#utility.yul\":12630:12752   */\n    tag_140:\n        /* \"#utility.yul\":12703:12727   */\n      tag_277\n        /* \"#utility.yul\":12721:12726   */\n      dup2\n        /* \"#utility.yul\":12703:12727   */\n      tag_198\n      jump\t// in\n    tag_277:\n        /* \"#utility.yul\":12696:12701   */\n      dup2\n        /* \"#utility.yul\":12693:12728   */\n      eq\n        /* \"#utility.yul\":12683:12746   */\n      tag_278\n      jumpi\n        /* \"#utility.yul\":12742:12743   */\n      0x00\n        /* \"#utility.yul\":12739:12740   */\n      dup1\n        /* \"#utility.yul\":12732:12744   */\n      revert\n        /* \"#utility.yul\":12683:12746   */\n    tag_278:\n        /* \"#utility.yul\":12630:12752   */\n      pop\n      jump\t// out\n\n    auxdata: 0xa264697066735822122092ef94fde44f19e75074af2abbc8563d819dc2c0efec4584436887879c7810c364736f6c63430008070033\n}\n",
				"bytecode": {
					"linkReferences": {},
					"object": "608060405234801561001057600080fd5b5061164b806100206000396000f3fe608060405234801561001057600080fd5b50600436106100935760003560e01c80639f764d16116100665780639f764d161461011c578063b9e0ad101461014d578063de1e23b71461017f578063e1c7392a146101af578063f2c3c745146101b957610093565b806311ef4171146100985780634d2d701a146100b45780635062278f146100d05780638749774f146100ec575b600080fd5b6100b260048036038101906100ad91906110d1565b6101d5565b005b6100ce60048036038101906100c9919061112d565b61026d565b005b6100ea60048036038101906100e59190611062565b6103f5565b005b61010660048036038101906101019190611022565b61048e565b60405161011391906113a6565b60405180910390f35b61013660048036038101906101319190610ff5565b6105a0565b6040516101449291906113c8565b60405180910390f35b61016760048036038101906101629190610ff5565b610742565b60405161017693929190611361565b60405180910390f35b61019960048036038101906101949190610ff5565b61089c565b6040516101a691906113ff565b60405180910390f35b6101b7610b00565b005b6101d360048036038101906101ce91906111e8565b610d56565b005b80600160003373ffffffffffffffffffffffffffffffffffffffff1673ffffffffffffffffffffffffffffffffffffffff16815260200190815260200160002060020160008473ffffffffffffffffffffffffffffffffffffffff1673ffffffffffffffffffffffffffffffffffffffff1681526020019081526020016000209080519060200190610268929190610e8f565b505050565b836000808673ffffffffffffffffffffffffffffffffffffffff1673ffffffffffffffffffffffffffffffffffffffff16815260200190815260200160002060000160006101000a81548173ffffffffffffffffffffffffffffffffffffffff021916908373ffffffffffffffffffffffffffffffffffffffff160217905550826000808673ffffffffffffffffffffffffffffffffffffffff1673ffffffffffffffffffffffffffffffffffffffff1681526020019081526020016000206001019080519060200190610342929190610e8f565b50816000808673ffffffffffffffffffffffffffffffffffffffff1673ffffffffffffffffffffffffffffffffffffffff1681526020019081526020016000206002019080519060200190610398929190610e8f565b50806000808673ffffffffffffffffffffffffffffffffffffffff1673ffffffffffffffffffffffffffffffffffffffff16815260200190815260200160002060030190805190602001906103ee929190610e8f565b5050505050565b80600160008573ffffffffffffffffffffffffffffffffffffffff1673ffffffffffffffffffffffffffffffffffffffff16815260200190815260200160002060020160008473ffffffffffffffffffffffffffffffffffffffff1673ffffffffffffffffffffffffffffffffffffffff1681526020019081526020016000209080519060200190610488929190610e8f565b50505050565b6060600160008473ffffffffffffffffffffffffffffffffffffffff1673ffffffffffffffffffffffffffffffffffffffff16815260200190815260200160002060020160008373ffffffffffffffffffffffffffffffffffffffff1673ffffffffffffffffffffffffffffffffffffffff168152602001908152602001600020805461051a90611518565b80601f016020809104026020016040519081016040528092919081815260200182805461054690611518565b80156105935780601f1061056857610100808354040283529160200191610593565b820191906000526020600020905b81548152906001019060200180831161057657829003601f168201915b5050505050905092915050565b606080600160008473ffffffffffffffffffffffffffffffffffffffff1673ffffffffffffffffffffffffffffffffffffffff16815260200190815260200160002060010180546105f090611518565b80601f016020809104026020016040519081016040528092919081815260200182805461061c90611518565b80156106695780601f1061063e57610100808354040283529160200191610669565b820191906000526020600020905b81548152906001019060200180831161064c57829003601f168201915b50505050509150600160008473ffffffffffffffffffffffffffffffffffffffff1673ffffffffffffffffffffffffffffffffffffffff16815260200190815260200160002060030180546106bd90611518565b80601f01602080910402602001604051908101604052809291908181526020018280546106e990611518565b80156107365780601f1061070b57610100808354040283529160200191610736565b820191906000526020600020905b81548152906001019060200180831161071957829003601f168201915b50505050509050915091565b60016020528060005260406000206000915090508060000160009054906101000a900473ffffffffffffffffffffffffffffffffffffffff169080600101805461078b90611518565b80601f01602080910402602001604051908101604052809291908181526020018280546107b790611518565b80156108045780601f106107d957610100808354040283529160200191610804565b820191906000526020600020905b8154815290600101906020018083116107e757829003601f168201915b50505050509080600301805461081990611518565b80601f016020809104026020016040519081016040528092919081815260200182805461084590611518565b80156108925780601f1061086757610100808354040283529160200191610892565b820191906000526020600020905b81548152906001019060200180831161087557829003601f168201915b5050505050905083565b6108a4610f15565b6000808373ffffffffffffffffffffffffffffffffffffffff1673ffffffffffffffffffffffffffffffffffffffff1681526020019081526020016000206040518060800160405290816000820160009054906101000a900473ffffffffffffffffffffffffffffffffffffffff1673ffffffffffffffffffffffffffffffffffffffff1673ffffffffffffffffffffffffffffffffffffffff16815260200160018201805461095390611518565b80601f016020809104026020016040519081016040528092919081815260200182805461097f90611518565b80156109cc5780601f106109a1576101008083540402835291602001916109cc565b820191906000526020600020905b8154815290600101906020018083116109af57829003601f168201915b505050505081526020016002820180546109e590611518565b80601f0160208091040260200160405190810160405280929190818152602001828054610a1190611518565b8015610a5e5780601f10610a3357610100808354040283529160200191610a5e565b820191906000526020600020905b815481529060010190602001808311610a4157829003601f168201915b50505050508152602001600382018054610a7790611518565b80601f0160208091040260200160405190810160405280929190818152602001828054610aa390611518565b8015610af05780601f10610ac557610100808354040283529160200191610af0565b820191906000526020600020905b815481529060010190602001808311610ad357829003601f168201915b5050505050815250509050919050565b600080600073b4d18d483b641200aa096558c9ba63aeb243002b73ff5d2fe96548e05e49c67fcc36c7dbeca2f501f273be7186f383961cc24ad8012a2f2942667a72788f809350819450829550505050610bfb836040518060400160405280600281526020017f64310000000000000000000000000000000000000000000000000000000000008152506040518060400160405280600481526020017f42756c62000000000000000000000000000000000000000000000000000000008152506040518060400160405280600281526020017f6f6e00000000000000000000000000000000000000000000000000000000000081525061026d565b610ca6826040518060400160405280600281526020017f64320000000000000000000000000000000000000000000000000000000000008152506040518060400160405280600b81526020017f5472616e73666f726d65720000000000000000000000000000000000000000008152506040518060400160405280600381526020017f6f6666000000000000000000000000000000000000000000000000000000000081525061026d565b610d51816040518060400160405280600281526020017f64330000000000000000000000000000000000000000000000000000000000008152506040518060400160405280600681526020017f53656e736f7200000000000000000000000000000000000000000000000000008152506040518060400160405280600281526020017f6f6e00000000000000000000000000000000000000000000000000000000000081525061026d565b505050565b600033905080600160008373ffffffffffffffffffffffffffffffffffffffff1673ffffffffffffffffffffffffffffffffffffffff16815260200190815260200160002060000160006101000a81548173ffffffffffffffffffffffffffffffffffffffff021916908373ffffffffffffffffffffffffffffffffffffffff16021790555082600160008373ffffffffffffffffffffffffffffffffffffffff1673ffffffffffffffffffffffffffffffffffffffff1681526020019081526020016000206001019080519060200190610e32929190610e8f565b5081600160008373ffffffffffffffffffffffffffffffffffffffff1673ffffffffffffffffffffffffffffffffffffffff1681526020019081526020016000206003019080519060200190610e89929190610e8f565b50505050565b828054610e9b90611518565b90600052602060002090601f016020900481019282610ebd5760008555610f04565b82601f10610ed657805160ff1916838001178555610f04565b82800160010185558215610f04579182015b82811115610f03578251825591602001919060010190610ee8565b5b509050610f119190610f53565b5090565b6040518060800160405280600073ffffffffffffffffffffffffffffffffffffffff1681526020016060815260200160608152602001606081525090565b5b80821115610f6c576000816000905550600101610f54565b5090565b6000610f83610f7e84611446565b611421565b905082815260208101848484011115610f9f57610f9e6115de565b5b610faa8482856114d6565b509392505050565b600081359050610fc1816115fe565b92915050565b600082601f830112610fdc57610fdb6115d9565b5b8135610fec848260208601610f70565b91505092915050565b60006020828403121561100b5761100a6115e8565b5b600061101984828501610fb2565b91505092915050565b60008060408385031215611039576110386115e8565b5b600061104785828601610fb2565b925050602061105885828601610fb2565b9150509250929050565b60008060006060848603121561107b5761107a6115e8565b5b600061108986828701610fb2565b935050602061109a86828701610fb2565b925050604084013567ffffffffffffffff8111156110bb576110ba6115e3565b5b6110c786828701610fc7565b9150509250925092565b600080604083850312156110e8576110e76115e8565b5b60006110f685828601610fb2565b925050602083013567ffffffffffffffff811115611117576111166115e3565b5b61112385828601610fc7565b9150509250929050565b60008060008060808587031215611147576111466115e8565b5b600061115587828801610fb2565b945050602085013567ffffffffffffffff811115611176576111756115e3565b5b61118287828801610fc7565b935050604085013567ffffffffffffffff8111156111a3576111a26115e3565b5b6111af87828801610fc7565b925050606085013567ffffffffffffffff8111156111d0576111cf6115e3565b5b6111dc87828801610fc7565b91505092959194509250565b600080604083850312156111ff576111fe6115e8565b5b600083013567ffffffffffffffff81111561121d5761121c6115e3565b5b61122985828601610fc7565b925050602083013567ffffffffffffffff81111561124a576112496115e3565b5b61125685828601610fc7565b9150509250929050565b611269816114a4565b82525050565b611278816114a4565b82525050565b600061128982611477565b6112938185611482565b93506112a38185602086016114e5565b6112ac816115ed565b840191505092915050565b60006112c282611477565b6112cc8185611493565b93506112dc8185602086016114e5565b6112e5816115ed565b840191505092915050565b60006080830160008301516113086000860182611260565b5060208301518482036020860152611320828261127e565b9150506040830151848203604086015261133a828261127e565b91505060608301518482036060860152611354828261127e565b9150508091505092915050565b6000606082019050611376600083018661126f565b818103602083015261138881856112b7565b9050818103604083015261139c81846112b7565b9050949350505050565b600060208201905081810360008301526113c081846112b7565b905092915050565b600060408201905081810360008301526113e281856112b7565b905081810360208301526113f681846112b7565b90509392505050565b6000602082019050818103600083015261141981846112f0565b905092915050565b600061142b61143c565b9050611437828261154a565b919050565b6000604051905090565b600067ffffffffffffffff821115611461576114606115aa565b5b61146a826115ed565b9050602081019050919050565b600081519050919050565b600082825260208201905092915050565b600082825260208201905092915050565b60006114af826114b6565b9050919050565b600073ffffffffffffffffffffffffffffffffffffffff82169050919050565b82818337600083830152505050565b60005b838110156115035780820151818401526020810190506114e8565b83811115611512576000848401525b50505050565b6000600282049050600182168061153057607f821691505b602082108114156115445761154361157b565b5b50919050565b611553826115ed565b810181811067ffffffffffffffff82111715611572576115716115aa565b5b80604052505050565b7f4e487b7100000000000000000000000000000000000000000000000000000000600052602260045260246000fd5b7f4e487b7100000000000000000000000000000000000000000000000000000000600052604160045260246000fd5b600080fd5b600080fd5b600080fd5b600080fd5b6000601f19601f8301169050919050565b611607816114a4565b811461161257600080fd5b5056fea264697066735822122092ef94fde44f19e75074af2abbc8563d819dc2c0efec4584436887879c7810c364736f6c63430008070033",
					"opcodes": "PUSH1 0x80 PUSH1 0x40 MSTORE CALLVALUE DUP1 ISZERO PUSH2 0x10 JUMPI PUSH1 0x0 DUP1 REVERT JUMPDEST POP PUSH2 0x164B DUP1 PUSH2 0x20 PUSH1 0x0 CODECOPY PUSH1 0x0 RETURN INVALID PUSH1 0x80 PUSH1 0x40 MSTORE CALLVALUE DUP1 ISZERO PUSH2 0x10 JUMPI PUSH1 0x0 DUP1 REVERT JUMPDEST POP PUSH1 0x4 CALLDATASIZE LT PUSH2 0x93 JUMPI PUSH1 0x0 CALLDATALOAD PUSH1 0xE0 SHR DUP1 PUSH4 0x9F764D16 GT PUSH2 0x66 JUMPI DUP1 PUSH4 0x9F764D16 EQ PUSH2 0x11C JUMPI DUP1 PUSH4 0xB9E0AD10 EQ PUSH2 0x14D JUMPI DUP1 PUSH4 0xDE1E23B7 EQ PUSH2 0x17F JUMPI DUP1 PUSH4 0xE1C7392A EQ PUSH2 0x1AF JUMPI DUP1 PUSH4 0xF2C3C745 EQ PUSH2 0x1B9 JUMPI PUSH2 0x93 JUMP JUMPDEST DUP1 PUSH4 0x11EF4171 EQ PUSH2 0x98 JUMPI DUP1 PUSH4 0x4D2D701A EQ PUSH2 0xB4 JUMPI DUP1 PUSH4 0x5062278F EQ PUSH2 0xD0 JUMPI DUP1 PUSH4 0x8749774F EQ PUSH2 0xEC JUMPI JUMPDEST PUSH1 0x0 DUP1 REVERT JUMPDEST PUSH2 0xB2 PUSH1 0x4 DUP1 CALLDATASIZE SUB DUP2 ADD SWAP1 PUSH2 0xAD SWAP2 SWAP1 PUSH2 0x10D1 JUMP JUMPDEST PUSH2 0x1D5 JUMP JUMPDEST STOP JUMPDEST PUSH2 0xCE PUSH1 0x4 DUP1 CALLDATASIZE SUB DUP2 ADD SWAP1 PUSH2 0xC9 SWAP2 SWAP1 PUSH2 0x112D JUMP JUMPDEST PUSH2 0x26D JUMP JUMPDEST STOP JUMPDEST PUSH2 0xEA PUSH1 0x4 DUP1 CALLDATASIZE SUB DUP2 ADD SWAP1 PUSH2 0xE5 SWAP2 SWAP1 PUSH2 0x1062 JUMP JUMPDEST PUSH2 0x3F5 JUMP JUMPDEST STOP JUMPDEST PUSH2 0x106 PUSH1 0x4 DUP1 CALLDATASIZE SUB DUP2 ADD SWAP1 PUSH2 0x101 SWAP2 SWAP1 PUSH2 0x1022 JUMP JUMPDEST PUSH2 0x48E JUMP JUMPDEST PUSH1 0x40 MLOAD PUSH2 0x113 SWAP2 SWAP1 PUSH2 0x13A6 JUMP JUMPDEST PUSH1 0x40 MLOAD DUP1 SWAP2 SUB SWAP1 RETURN JUMPDEST PUSH2 0x136 PUSH1 0x4 DUP1 CALLDATASIZE SUB DUP2 ADD SWAP1 PUSH2 0x131 SWAP2 SWAP1 PUSH2 0xFF5 JUMP JUMPDEST PUSH2 0x5A0 JUMP JUMPDEST PUSH1 0x40 MLOAD PUSH2 0x144 SWAP3 SWAP2 SWAP1 PUSH2 0x13C8 JUMP JUMPDEST PUSH1 0x40 MLOAD DUP1 SWAP2 SUB SWAP1 RETURN JUMPDEST PUSH2 0x167 PUSH1 0x4 DUP1 CALLDATASIZE SUB DUP2 ADD SWAP1 PUSH2 0x162 SWAP2 SWAP1 PUSH2 0xFF5 JUMP JUMPDEST PUSH2 0x742 JUMP JUMPDEST PUSH1 0x40 MLOAD PUSH2 0x176 SWAP4 SWAP3 SWAP2 SWAP1 PUSH2 0x1361 JUMP JUMPDEST PUSH1 0x40 MLOAD DUP1 SWAP2 SUB SWAP1 RETURN JUMPDEST PUSH2 0x199 PUSH1 0x4 DUP1 CALLDATASIZE SUB DUP2 ADD SWAP1 PUSH2 0x194 SWAP2 SWAP1 PUSH2 0xFF5 JUMP JUMPDEST PUSH2 0x89C JUMP JUMPDEST PUSH1 0x40 MLOAD PUSH2 0x1A6 SWAP2 SWAP1 PUSH2 0x13FF JUMP JUMPDEST PUSH1 0x40 MLOAD DUP1 SWAP2 SUB SWAP1 RETURN JUMPDEST PUSH2 0x1B7 PUSH2 0xB00 JUMP JUMPDEST STOP JUMPDEST PUSH2 0x1D3 PUSH1 0x4 DUP1 CALLDATASIZE SUB DUP2 ADD SWAP1 PUSH2 0x1CE SWAP2 SWAP1 PUSH2 0x11E8 JUMP JUMPDEST PUSH2 0xD56 JUMP JUMPDEST STOP JUMPDEST DUP1 PUSH1 0x1 PUSH1 0x0 CALLER PUSH20 0xFFFFFFFFFFFFFFFFFFFFFFFFFFFFFFFFFFFFFFFF AND PUSH20 0xFFFFFFFFFFFFFFFFFFFFFFFFFFFFFFFFFFFFFFFF AND DUP2 MSTORE PUSH1 0x20 ADD SWAP1 DUP2 MSTORE PUSH1 0x20 ADD PUSH1 0x0 KECCAK256 PUSH1 0x2 ADD PUSH1 0x0 DUP5 PUSH20 0xFFFFFFFFFFFFFFFFFFFFFFFFFFFFFFFFFFFFFFFF AND PUSH20 0xFFFFFFFFFFFFFFFFFFFFFFFFFFFFFFFFFFFFFFFF AND DUP2 MSTORE PUSH1 0x20 ADD SWAP1 DUP2 MSTORE PUSH1 0x20 ADD PUSH1 0x0 KECCAK256 SWAP1 DUP1 MLOAD SWAP1 PUSH1 0x20 ADD SWAP1 PUSH2 0x268 SWAP3 SWAP2 SWAP1 PUSH2 0xE8F JUMP JUMPDEST POP POP POP JUMP JUMPDEST DUP4 PUSH1 0x0 DUP1 DUP7 PUSH20 0xFFFFFFFFFFFFFFFFFFFFFFFFFFFFFFFFFFFFFFFF AND PUSH20 0xFFFFFFFFFFFFFFFFFFFFFFFFFFFFFFFFFFFFFFFF AND DUP2 MSTORE PUSH1 0x20 ADD SWAP1 DUP2 MSTORE PUSH1 0x20 ADD PUSH1 0x0 KECCAK256 PUSH1 0x0 ADD PUSH1 0x0 PUSH2 0x100 EXP DUP2 SLOAD DUP2 PUSH20 0xFFFFFFFFFFFFFFFFFFFFFFFFFFFFFFFFFFFFFFFF MUL NOT AND SWAP1 DUP4 PUSH20 0xFFFFFFFFFFFFFFFFFFFFFFFFFFFFFFFFFFFFFFFF AND MUL OR SWAP1 SSTORE POP DUP3 PUSH1 0x0 DUP1 DUP7 PUSH20 0xFFFFFFFFFFFFFFFFFFFFFFFFFFFFFFFFFFFFFFFF AND PUSH20 0xFFFFFFFFFFFFFFFFFFFFFFFFFFFFFFFFFFFFFFFF AND DUP2 MSTORE PUSH1 0x20 ADD SWAP1 DUP2 MSTORE PUSH1 0x20 ADD PUSH1 0x0 KECCAK256 PUSH1 0x1 ADD SWAP1 DUP1 MLOAD SWAP1 PUSH1 0x20 ADD SWAP1 PUSH2 0x342 SWAP3 SWAP2 SWAP1 PUSH2 0xE8F JUMP JUMPDEST POP DUP2 PUSH1 0x0 DUP1 DUP7 PUSH20 0xFFFFFFFFFFFFFFFFFFFFFFFFFFFFFFFFFFFFFFFF AND PUSH20 0xFFFFFFFFFFFFFFFFFFFFFFFFFFFFFFFFFFFFFFFF AND DUP2 MSTORE PUSH1 0x20 ADD SWAP1 DUP2 MSTORE PUSH1 0x20 ADD PUSH1 0x0 KECCAK256 PUSH1 0x2 ADD SWAP1 DUP1 MLOAD SWAP1 PUSH1 0x20 ADD SWAP1 PUSH2 0x398 SWAP3 SWAP2 SWAP1 PUSH2 0xE8F JUMP JUMPDEST POP DUP1 PUSH1 0x0 DUP1 DUP7 PUSH20 0xFFFFFFFFFFFFFFFFFFFFFFFFFFFFFFFFFFFFFFFF AND PUSH20 0xFFFFFFFFFFFFFFFFFFFFFFFFFFFFFFFFFFFFFFFF AND DUP2 MSTORE PUSH1 0x20 ADD SWAP1 DUP2 MSTORE PUSH1 0x20 ADD PUSH1 0x0 KECCAK256 PUSH1 0x3 ADD SWAP1 DUP1 MLOAD SWAP1 PUSH1 0x20 ADD SWAP1 PUSH2 0x3EE SWAP3 SWAP2 SWAP1 PUSH2 0xE8F JUMP JUMPDEST POP POP POP POP POP JUMP JUMPDEST DUP1 PUSH1 0x1 PUSH1 0x0 DUP6 PUSH20 0xFFFFFFFFFFFFFFFFFFFFFFFFFFFFFFFFFFFFFFFF AND PUSH20 0xFFFFFFFFFFFFFFFFFFFFFFFFFFFFFFFFFFFFFFFF AND DUP2 MSTORE PUSH1 0x20 ADD SWAP1 DUP2 MSTORE PUSH1 0x20 ADD PUSH1 0x0 KECCAK256 PUSH1 0x2 ADD PUSH1 0x0 DUP5 PUSH20 0xFFFFFFFFFFFFFFFFFFFFFFFFFFFFFFFFFFFFFFFF AND PUSH20 0xFFFFFFFFFFFFFFFFFFFFFFFFFFFFFFFFFFFFFFFF AND DUP2 MSTORE PUSH1 0x20 ADD SWAP1 DUP2 MSTORE PUSH1 0x20 ADD PUSH1 0x0 KECCAK256 SWAP1 DUP1 MLOAD SWAP1 PUSH1 0x20 ADD SWAP1 PUSH2 0x488 SWAP3 SWAP2 SWAP1 PUSH2 0xE8F JUMP JUMPDEST POP POP POP POP JUMP JUMPDEST PUSH1 0x60 PUSH1 0x1 PUSH1 0x0 DUP5 PUSH20 0xFFFFFFFFFFFFFFFFFFFFFFFFFFFFFFFFFFFFFFFF AND PUSH20 0xFFFFFFFFFFFFFFFFFFFFFFFFFFFFFFFFFFFFFFFF AND DUP2 MSTORE PUSH1 0x20 ADD SWAP1 DUP2 MSTORE PUSH1 0x20 ADD PUSH1 0x0 KECCAK256 PUSH1 0x2 ADD PUSH1 0x0 DUP4 PUSH20 0xFFFFFFFFFFFFFFFFFFFFFFFFFFFFFFFFFFFFFFFF AND PUSH20 0xFFFFFFFFFFFFFFFFFFFFFFFFFFFFFFFFFFFFFFFF AND DUP2 MSTORE PUSH1 0x20 ADD SWAP1 DUP2 MSTORE PUSH1 0x20 ADD PUSH1 0x0 KECCAK256 DUP1 SLOAD PUSH2 0x51A SWAP1 PUSH2 0x1518 JUMP JUMPDEST DUP1 PUSH1 0x1F ADD PUSH1 0x20 DUP1 SWAP2 DIV MUL PUSH1 0x20 ADD PUSH1 0x40 MLOAD SWAP1 DUP2 ADD PUSH1 0x40 MSTORE DUP1 SWAP3 SWAP2 SWAP1 DUP2 DUP2 MSTORE PUSH1 0x20 ADD DUP3 DUP1 SLOAD PUSH2 0x546 SWAP1 PUSH2 0x1518 JUMP JUMPDEST DUP1 ISZERO PUSH2 0x593 JUMPI DUP1 PUSH1 0x1F LT PUSH2 0x568 JUMPI PUSH2 0x100 DUP1 DUP4 SLOAD DIV MUL DUP4 MSTORE SWAP2 PUSH1 0x20 ADD SWAP2 PUSH2 0x593 JUMP JUMPDEST DUP3 ADD SWAP2 SWAP1 PUSH1 0x0 MSTORE PUSH1 0x20 PUSH1 0x0 KECCAK256 SWAP1 JUMPDEST DUP2 SLOAD DUP2 MSTORE SWAP1 PUSH1 0x1 ADD SWAP1 PUSH1 0x20 ADD DUP1 DUP4 GT PUSH2 0x576 JUMPI DUP3 SWAP1 SUB PUSH1 0x1F AND DUP3 ADD SWAP2 JUMPDEST POP POP POP POP POP SWAP1 POP SWAP3 SWAP2 POP POP JUMP JUMPDEST PUSH1 0x60 DUP1 PUSH1 0x1 PUSH1 0x0 DUP5 PUSH20 0xFFFFFFFFFFFFFFFFFFFFFFFFFFFFFFFFFFFFFFFF AND PUSH20 0xFFFFFFFFFFFFFFFFFFFFFFFFFFFFFFFFFFFFFFFF AND DUP2 MSTORE PUSH1 0x20 ADD SWAP1 DUP2 MSTORE PUSH1 0x20 ADD PUSH1 0x0 KECCAK256 PUSH1 0x1 ADD DUP1 SLOAD PUSH2 0x5F0 SWAP1 PUSH2 0x1518 JUMP JUMPDEST DUP1 PUSH1 0x1F ADD PUSH1 0x20 DUP1 SWAP2 DIV MUL PUSH1 0x20 ADD PUSH1 0x40 MLOAD SWAP1 DUP2 ADD PUSH1 0x40 MSTORE DUP1 SWAP3 SWAP2 SWAP1 DUP2 DUP2 MSTORE PUSH1 0x20 ADD DUP3 DUP1 SLOAD PUSH2 0x61C SWAP1 PUSH2 0x1518 JUMP JUMPDEST DUP1 ISZERO PUSH2 0x669 JUMPI DUP1 PUSH1 0x1F LT PUSH2 0x63E JUMPI PUSH2 0x100 DUP1 DUP4 SLOAD DIV MUL DUP4 MSTORE SWAP2 PUSH1 0x20 ADD SWAP2 PUSH2 0x669 JUMP JUMPDEST DUP3 ADD SWAP2 SWAP1 PUSH1 0x0 MSTORE PUSH1 0x20 PUSH1 0x0 KECCAK256 SWAP1 JUMPDEST DUP2 SLOAD DUP2 MSTORE SWAP1 PUSH1 0x1 ADD SWAP1 PUSH1 0x20 ADD DUP1 DUP4 GT PUSH2 0x64C JUMPI DUP3 SWAP1 SUB PUSH1 0x1F AND DUP3 ADD SWAP2 JUMPDEST POP POP POP POP POP SWAP2 POP PUSH1 0x1 PUSH1 0x0 DUP5 PUSH20 0xFFFFFFFFFFFFFFFFFFFFFFFFFFFFFFFFFFFFFFFF AND PUSH20 0xFFFFFFFFFFFFFFFFFFFFFFFFFFFFFFFFFFFFFFFF AND DUP2 MSTORE PUSH1 0x20 ADD SWAP1 DUP2 MSTORE PUSH1 0x20 ADD PUSH1 0x0 KECCAK256 PUSH1 0x3 ADD DUP1 SLOAD PUSH2 0x6BD SWAP1 PUSH2 0x1518 JUMP JUMPDEST DUP1 PUSH1 0x1F ADD PUSH1 0x20 DUP1 SWAP2 DIV MUL PUSH1 0x20 ADD PUSH1 0x40 MLOAD SWAP1 DUP2 ADD PUSH1 0x40 MSTORE DUP1 SWAP3 SWAP2 SWAP1 DUP2 DUP2 MSTORE PUSH1 0x20 ADD DUP3 DUP1 SLOAD PUSH2 0x6E9 SWAP1 PUSH2 0x1518 JUMP JUMPDEST DUP1 ISZERO PUSH2 0x736 JUMPI DUP1 PUSH1 0x1F LT PUSH2 0x70B JUMPI PUSH2 0x100 DUP1 DUP4 SLOAD DIV MUL DUP4 MSTORE SWAP2 PUSH1 0x20 ADD SWAP2 PUSH2 0x736 JUMP JUMPDEST DUP3 ADD SWAP2 SWAP1 PUSH1 0x0 MSTORE PUSH1 0x20 PUSH1 0x0 KECCAK256 SWAP1 JUMPDEST DUP2 SLOAD DUP2 MSTORE SWAP1 PUSH1 0x1 ADD SWAP1 PUSH1 0x20 ADD DUP1 DUP4 GT PUSH2 0x719 JUMPI DUP3 SWAP1 SUB PUSH1 0x1F AND DUP3 ADD SWAP2 JUMPDEST POP POP POP POP POP SWAP1 POP SWAP2 POP SWAP2 JUMP JUMPDEST PUSH1 0x1 PUSH1 0x20 MSTORE DUP1 PUSH1 0x0 MSTORE PUSH1 0x40 PUSH1 0x0 KECCAK256 PUSH1 0x0 SWAP2 POP SWAP1 POP DUP1 PUSH1 0x0 ADD PUSH1 0x0 SWAP1 SLOAD SWAP1 PUSH2 0x100 EXP SWAP1 DIV PUSH20 0xFFFFFFFFFFFFFFFFFFFFFFFFFFFFFFFFFFFFFFFF AND SWAP1 DUP1 PUSH1 0x1 ADD DUP1 SLOAD PUSH2 0x78B SWAP1 PUSH2 0x1518 JUMP JUMPDEST DUP1 PUSH1 0x1F ADD PUSH1 0x20 DUP1 SWAP2 DIV MUL PUSH1 0x20 ADD PUSH1 0x40 MLOAD SWAP1 DUP2 ADD PUSH1 0x40 MSTORE DUP1 SWAP3 SWAP2 SWAP1 DUP2 DUP2 MSTORE PUSH1 0x20 ADD DUP3 DUP1 SLOAD PUSH2 0x7B7 SWAP1 PUSH2 0x1518 JUMP JUMPDEST DUP1 ISZERO PUSH2 0x804 JUMPI DUP1 PUSH1 0x1F LT PUSH2 0x7D9 JUMPI PUSH2 0x100 DUP1 DUP4 SLOAD DIV MUL DUP4 MSTORE SWAP2 PUSH1 0x20 ADD SWAP2 PUSH2 0x804 JUMP JUMPDEST DUP3 ADD SWAP2 SWAP1 PUSH1 0x0 MSTORE PUSH1 0x20 PUSH1 0x0 KECCAK256 SWAP1 JUMPDEST DUP2 SLOAD DUP2 MSTORE SWAP1 PUSH1 0x1 ADD SWAP1 PUSH1 0x20 ADD DUP1 DUP4 GT PUSH2 0x7E7 JUMPI DUP3 SWAP1 SUB PUSH1 0x1F AND DUP3 ADD SWAP2 JUMPDEST POP POP POP POP POP SWAP1 DUP1 PUSH1 0x3 ADD DUP1 SLOAD PUSH2 0x819 SWAP1 PUSH2 0x1518 JUMP JUMPDEST DUP1 PUSH1 0x1F ADD PUSH1 0x20 DUP1 SWAP2 DIV MUL PUSH1 0x20 ADD PUSH1 0x40 MLOAD SWAP1 DUP2 ADD PUSH1 0x40 MSTORE DUP1 SWAP3 SWAP2 SWAP1 DUP2 DUP2 MSTORE PUSH1 0x20 ADD DUP3 DUP1 SLOAD PUSH2 0x845 SWAP1 PUSH2 0x1518 JUMP JUMPDEST DUP1 ISZERO PUSH2 0x892 JUMPI DUP1 PUSH1 0x1F LT PUSH2 0x867 JUMPI PUSH2 0x100 DUP1 DUP4 SLOAD DIV MUL DUP4 MSTORE SWAP2 PUSH1 0x20 ADD SWAP2 PUSH2 0x892 JUMP JUMPDEST DUP3 ADD SWAP2 SWAP1 PUSH1 0x0 MSTORE PUSH1 0x20 PUSH1 0x0 KECCAK256 SWAP1 JUMPDEST DUP2 SLOAD DUP2 MSTORE SWAP1 PUSH1 0x1 ADD SWAP1 PUSH1 0x20 ADD DUP1 DUP4 GT PUSH2 0x875 JUMPI DUP3 SWAP1 SUB PUSH1 0x1F AND DUP3 ADD SWAP2 JUMPDEST POP POP POP POP POP SWAP1 POP DUP4 JUMP JUMPDEST PUSH2 0x8A4 PUSH2 0xF15 JUMP JUMPDEST PUSH1 0x0 DUP1 DUP4 PUSH20 0xFFFFFFFFFFFFFFFFFFFFFFFFFFFFFFFFFFFFFFFF AND PUSH20 0xFFFFFFFFFFFFFFFFFFFFFFFFFFFFFFFFFFFFFFFF AND DUP2 MSTORE PUSH1 0x20 ADD SWAP1 DUP2 MSTORE PUSH1 0x20 ADD PUSH1 0x0 KECCAK256 PUSH1 0x40 MLOAD DUP1 PUSH1 0x80 ADD PUSH1 0x40 MSTORE SWAP1 DUP2 PUSH1 0x0 DUP3 ADD PUSH1 0x0 SWAP1 SLOAD SWAP1 PUSH2 0x100 EXP SWAP1 DIV PUSH20 0xFFFFFFFFFFFFFFFFFFFFFFFFFFFFFFFFFFFFFFFF AND PUSH20 0xFFFFFFFFFFFFFFFFFFFFFFFFFFFFFFFFFFFFFFFF AND PUSH20 0xFFFFFFFFFFFFFFFFFFFFFFFFFFFFFFFFFFFFFFFF AND DUP2 MSTORE PUSH1 0x20 ADD PUSH1 0x1 DUP3 ADD DUP1 SLOAD PUSH2 0x953 SWAP1 PUSH2 0x1518 JUMP JUMPDEST DUP1 PUSH1 0x1F ADD PUSH1 0x20 DUP1 SWAP2 DIV MUL PUSH1 0x20 ADD PUSH1 0x40 MLOAD SWAP1 DUP2 ADD PUSH1 0x40 MSTORE DUP1 SWAP3 SWAP2 SWAP1 DUP2 DUP2 MSTORE PUSH1 0x20 ADD DUP3 DUP1 SLOAD PUSH2 0x97F SWAP1 PUSH2 0x1518 JUMP JUMPDEST DUP1 ISZERO PUSH2 0x9CC JUMPI DUP1 PUSH1 0x1F LT PUSH2 0x9A1 JUMPI PUSH2 0x100 DUP1 DUP4 SLOAD DIV MUL DUP4 MSTORE SWAP2 PUSH1 0x20 ADD SWAP2 PUSH2 0x9CC JUMP JUMPDEST DUP3 ADD SWAP2 SWAP1 PUSH1 0x0 MSTORE PUSH1 0x20 PUSH1 0x0 KECCAK256 SWAP1 JUMPDEST DUP2 SLOAD DUP2 MSTORE SWAP1 PUSH1 0x1 ADD SWAP1 PUSH1 0x20 ADD DUP1 DUP4 GT PUSH2 0x9AF JUMPI DUP3 SWAP1 SUB PUSH1 0x1F AND DUP3 ADD SWAP2 JUMPDEST POP POP POP POP POP DUP2 MSTORE PUSH1 0x20 ADD PUSH1 0x2 DUP3 ADD DUP1 SLOAD PUSH2 0x9E5 SWAP1 PUSH2 0x1518 JUMP JUMPDEST DUP1 PUSH1 0x1F ADD PUSH1 0x20 DUP1 SWAP2 DIV MUL PUSH1 0x20 ADD PUSH1 0x40 MLOAD SWAP1 DUP2 ADD PUSH1 0x40 MSTORE DUP1 SWAP3 SWAP2 SWAP1 DUP2 DUP2 MSTORE PUSH1 0x20 ADD DUP3 DUP1 SLOAD PUSH2 0xA11 SWAP1 PUSH2 0x1518 JUMP JUMPDEST DUP1 ISZERO PUSH2 0xA5E JUMPI DUP1 PUSH1 0x1F LT PUSH2 0xA33 JUMPI PUSH2 0x100 DUP1 DUP4 SLOAD DIV MUL DUP4 MSTORE SWAP2 PUSH1 0x20 ADD SWAP2 PUSH2 0xA5E JUMP JUMPDEST DUP3 ADD SWAP2 SWAP1 PUSH1 0x0 MSTORE PUSH1 0x20 PUSH1 0x0 KECCAK256 SWAP1 JUMPDEST DUP2 SLOAD DUP2 MSTORE SWAP1 PUSH1 0x1 ADD SWAP1 PUSH1 0x20 ADD DUP1 DUP4 GT PUSH2 0xA41 JUMPI DUP3 SWAP1 SUB PUSH1 0x1F AND DUP3 ADD SWAP2 JUMPDEST POP POP POP POP POP DUP2 MSTORE PUSH1 0x20 ADD PUSH1 0x3 DUP3 ADD DUP1 SLOAD PUSH2 0xA77 SWAP1 PUSH2 0x1518 JUMP JUMPDEST DUP1 PUSH1 0x1F ADD PUSH1 0x20 DUP1 SWAP2 DIV MUL PUSH1 0x20 ADD PUSH1 0x40 MLOAD SWAP1 DUP2 ADD PUSH1 0x40 MSTORE DUP1 SWAP3 SWAP2 SWAP1 DUP2 DUP2 MSTORE PUSH1 0x20 ADD DUP3 DUP1 SLOAD PUSH2 0xAA3 SWAP1 PUSH2 0x1518 JUMP JUMPDEST DUP1 ISZERO PUSH2 0xAF0 JUMPI DUP1 PUSH1 0x1F LT PUSH2 0xAC5 JUMPI PUSH2 0x100 DUP1 DUP4 SLOAD DIV MUL DUP4 MSTORE SWAP2 PUSH1 0x20 ADD SWAP2 PUSH2 0xAF0 JUMP JUMPDEST DUP3 ADD SWAP2 SWAP1 PUSH1 0x0 MSTORE PUSH1 0x20 PUSH1 0x0 KECCAK256 SWAP1 JUMPDEST DUP2 SLOAD DUP2 MSTORE SWAP1 PUSH1 0x1 ADD SWAP1 PUSH1 0x20 ADD DUP1 DUP4 GT PUSH2 0xAD3 JUMPI DUP3 SWAP1 SUB PUSH1 0x1F AND DUP3 ADD SWAP2 JUMPDEST POP POP POP POP POP DUP2 MSTORE POP POP SWAP1 POP SWAP2 SWAP1 POP JUMP JUMPDEST PUSH1 0x0 DUP1 PUSH1 0x0 PUSH20 0xB4D18D483B641200AA096558C9BA63AEB243002B PUSH20 0xFF5D2FE96548E05E49C67FCC36C7DBECA2F501F2 PUSH20 0xBE7186F383961CC24AD8012A2F2942667A72788F DUP1 SWAP4 POP DUP2 SWAP5 POP DUP3 SWAP6 POP POP POP POP PUSH2 0xBFB DUP4 PUSH1 0x40 MLOAD DUP1 PUSH1 0x40 ADD PUSH1 0x40 MSTORE DUP1 PUSH1 0x2 DUP2 MSTORE PUSH1 0x20 ADD PUSH32 0x6431000000000000000000000000000000000000000000000000000000000000 DUP2 MSTORE POP PUSH1 0x40 MLOAD DUP1 PUSH1 0x40 ADD PUSH1 0x40 MSTORE DUP1 PUSH1 0x4 DUP2 MSTORE PUSH1 0x20 ADD PUSH32 0x42756C6200000000000000000000000000000000000000000000000000000000 DUP2 MSTORE POP PUSH1 0x40 MLOAD DUP1 PUSH1 0x40 ADD PUSH1 0x40 MSTORE DUP1 PUSH1 0x2 DUP2 MSTORE PUSH1 0x20 ADD PUSH32 0x6F6E000000000000000000000000000000000000000000000000000000000000 DUP2 MSTORE POP PUSH2 0x26D JUMP JUMPDEST PUSH2 0xCA6 DUP3 PUSH1 0x40 MLOAD DUP1 PUSH1 0x40 ADD PUSH1 0x40 MSTORE DUP1 PUSH1 0x2 DUP2 MSTORE PUSH1 0x20 ADD PUSH32 0x6432000000000000000000000000000000000000000000000000000000000000 DUP2 MSTORE POP PUSH1 0x40 MLOAD DUP1 PUSH1 0x40 ADD PUSH1 0x40 MSTORE DUP1 PUSH1 0xB DUP2 MSTORE PUSH1 0x20 ADD PUSH32 0x5472616E73666F726D6572000000000000000000000000000000000000000000 DUP2 MSTORE POP PUSH1 0x40 MLOAD DUP1 PUSH1 0x40 ADD PUSH1 0x40 MSTORE DUP1 PUSH1 0x3 DUP2 MSTORE PUSH1 0x20 ADD PUSH32 0x6F66660000000000000000000000000000000000000000000000000000000000 DUP2 MSTORE POP PUSH2 0x26D JUMP JUMPDEST PUSH2 0xD51 DUP2 PUSH1 0x40 MLOAD DUP1 PUSH1 0x40 ADD PUSH1 0x40 MSTORE DUP1 PUSH1 0x2 DUP2 MSTORE PUSH1 0x20 ADD PUSH32 0x6433000000000000000000000000000000000000000000000000000000000000 DUP2 MSTORE POP PUSH1 0x40 MLOAD DUP1 PUSH1 0x40 ADD PUSH1 0x40 MSTORE DUP1 PUSH1 0x6 DUP2 MSTORE PUSH1 0x20 ADD PUSH32 0x53656E736F720000000000000000000000000000000000000000000000000000 DUP2 MSTORE POP PUSH1 0x40 MLOAD DUP1 PUSH1 0x40 ADD PUSH1 0x40 MSTORE DUP1 PUSH1 0x2 DUP2 MSTORE PUSH1 0x20 ADD PUSH32 0x6F6E000000000000000000000000000000000000000000000000000000000000 DUP2 MSTORE POP PUSH2 0x26D JUMP JUMPDEST POP POP POP JUMP JUMPDEST PUSH1 0x0 CALLER SWAP1 POP DUP1 PUSH1 0x1 PUSH1 0x0 DUP4 PUSH20 0xFFFFFFFFFFFFFFFFFFFFFFFFFFFFFFFFFFFFFFFF AND PUSH20 0xFFFFFFFFFFFFFFFFFFFFFFFFFFFFFFFFFFFFFFFF AND DUP2 MSTORE PUSH1 0x20 ADD SWAP1 DUP2 MSTORE PUSH1 0x20 ADD PUSH1 0x0 KECCAK256 PUSH1 0x0 ADD PUSH1 0x0 PUSH2 0x100 EXP DUP2 SLOAD DUP2 PUSH20 0xFFFFFFFFFFFFFFFFFFFFFFFFFFFFFFFFFFFFFFFF MUL NOT AND SWAP1 DUP4 PUSH20 0xFFFFFFFFFFFFFFFFFFFFFFFFFFFFFFFFFFFFFFFF AND MUL OR SWAP1 SSTORE POP DUP3 PUSH1 0x1 PUSH1 0x0 DUP4 PUSH20 0xFFFFFFFFFFFFFFFFFFFFFFFFFFFFFFFFFFFFFFFF AND PUSH20 0xFFFFFFFFFFFFFFFFFFFFFFFFFFFFFFFFFFFFFFFF AND DUP2 MSTORE PUSH1 0x20 ADD SWAP1 DUP2 MSTORE PUSH1 0x20 ADD PUSH1 0x0 KECCAK256 PUSH1 0x1 ADD SWAP1 DUP1 MLOAD SWAP1 PUSH1 0x20 ADD SWAP1 PUSH2 0xE32 SWAP3 SWAP2 SWAP1 PUSH2 0xE8F JUMP JUMPDEST POP DUP2 PUSH1 0x1 PUSH1 0x0 DUP4 PUSH20 0xFFFFFFFFFFFFFFFFFFFFFFFFFFFFFFFFFFFFFFFF AND PUSH20 0xFFFFFFFFFFFFFFFFFFFFFFFFFFFFFFFFFFFFFFFF AND DUP2 MSTORE PUSH1 0x20 ADD SWAP1 DUP2 MSTORE PUSH1 0x20 ADD PUSH1 0x0 KECCAK256 PUSH1 0x3 ADD SWAP1 DUP1 MLOAD SWAP1 PUSH1 0x20 ADD SWAP1 PUSH2 0xE89 SWAP3 SWAP2 SWAP1 PUSH2 0xE8F JUMP JUMPDEST POP POP POP POP JUMP JUMPDEST DUP3 DUP1 SLOAD PUSH2 0xE9B SWAP1 PUSH2 0x1518 JUMP JUMPDEST SWAP1 PUSH1 0x0 MSTORE PUSH1 0x20 PUSH1 0x0 KECCAK256 SWAP1 PUSH1 0x1F ADD PUSH1 0x20 SWAP1 DIV DUP2 ADD SWAP3 DUP3 PUSH2 0xEBD JUMPI PUSH1 0x0 DUP6 SSTORE PUSH2 0xF04 JUMP JUMPDEST DUP3 PUSH1 0x1F LT PUSH2 0xED6 JUMPI DUP1 MLOAD PUSH1 0xFF NOT AND DUP4 DUP1 ADD OR DUP6 SSTORE PUSH2 0xF04 JUMP JUMPDEST DUP3 DUP1 ADD PUSH1 0x1 ADD DUP6 SSTORE DUP3 ISZERO PUSH2 0xF04 JUMPI SWAP2 DUP3 ADD JUMPDEST DUP3 DUP2 GT ISZERO PUSH2 0xF03 JUMPI DUP3 MLOAD DUP3 SSTORE SWAP2 PUSH1 0x20 ADD SWAP2 SWAP1 PUSH1 0x1 ADD SWAP1 PUSH2 0xEE8 JUMP JUMPDEST JUMPDEST POP SWAP1 POP PUSH2 0xF11 SWAP2 SWAP1 PUSH2 0xF53 JUMP JUMPDEST POP SWAP1 JUMP JUMPDEST PUSH1 0x40 MLOAD DUP1 PUSH1 0x80 ADD PUSH1 0x40 MSTORE DUP1 PUSH1 0x0 PUSH20 0xFFFFFFFFFFFFFFFFFFFFFFFFFFFFFFFFFFFFFFFF AND DUP2 MSTORE PUSH1 0x20 ADD PUSH1 0x60 DUP2 MSTORE PUSH1 0x20 ADD PUSH1 0x60 DUP2 MSTORE PUSH1 0x20 ADD PUSH1 0x60 DUP2 MSTORE POP SWAP1 JUMP JUMPDEST JUMPDEST DUP1 DUP3 GT ISZERO PUSH2 0xF6C JUMPI PUSH1 0x0 DUP2 PUSH1 0x0 SWAP1 SSTORE POP PUSH1 0x1 ADD PUSH2 0xF54 JUMP JUMPDEST POP SWAP1 JUMP JUMPDEST PUSH1 0x0 PUSH2 0xF83 PUSH2 0xF7E DUP5 PUSH2 0x1446 JUMP JUMPDEST PUSH2 0x1421 JUMP JUMPDEST SWAP1 POP DUP3 DUP2 MSTORE PUSH1 0x20 DUP2 ADD DUP5 DUP5 DUP5 ADD GT ISZERO PUSH2 0xF9F JUMPI PUSH2 0xF9E PUSH2 0x15DE JUMP JUMPDEST JUMPDEST PUSH2 0xFAA DUP5 DUP3 DUP6 PUSH2 0x14D6 JUMP JUMPDEST POP SWAP4 SWAP3 POP POP POP JUMP JUMPDEST PUSH1 0x0 DUP2 CALLDATALOAD SWAP1 POP PUSH2 0xFC1 DUP2 PUSH2 0x15FE JUMP JUMPDEST SWAP3 SWAP2 POP POP JUMP JUMPDEST PUSH1 0x0 DUP3 PUSH1 0x1F DUP4 ADD SLT PUSH2 0xFDC JUMPI PUSH2 0xFDB PUSH2 0x15D9 JUMP JUMPDEST JUMPDEST DUP2 CALLDATALOAD PUSH2 0xFEC DUP5 DUP3 PUSH1 0x20 DUP7 ADD PUSH2 0xF70 JUMP JUMPDEST SWAP2 POP POP SWAP3 SWAP2 POP POP JUMP JUMPDEST PUSH1 0x0 PUSH1 0x20 DUP3 DUP5 SUB SLT ISZERO PUSH2 0x100B JUMPI PUSH2 0x100A PUSH2 0x15E8 JUMP JUMPDEST JUMPDEST PUSH1 0x0 PUSH2 0x1019 DUP5 DUP3 DUP6 ADD PUSH2 0xFB2 JUMP JUMPDEST SWAP2 POP POP SWAP3 SWAP2 POP POP JUMP JUMPDEST PUSH1 0x0 DUP1 PUSH1 0x40 DUP4 DUP6 SUB SLT ISZERO PUSH2 0x1039 JUMPI PUSH2 0x1038 PUSH2 0x15E8 JUMP JUMPDEST JUMPDEST PUSH1 0x0 PUSH2 0x1047 DUP6 DUP3 DUP7 ADD PUSH2 0xFB2 JUMP JUMPDEST SWAP3 POP POP PUSH1 0x20 PUSH2 0x1058 DUP6 DUP3 DUP7 ADD PUSH2 0xFB2 JUMP JUMPDEST SWAP2 POP POP SWAP3 POP SWAP3 SWAP1 POP JUMP JUMPDEST PUSH1 0x0 DUP1 PUSH1 0x0 PUSH1 0x60 DUP5 DUP7 SUB SLT ISZERO PUSH2 0x107B JUMPI PUSH2 0x107A PUSH2 0x15E8 JUMP JUMPDEST JUMPDEST PUSH1 0x0 PUSH2 0x1089 DUP7 DUP3 DUP8 ADD PUSH2 0xFB2 JUMP JUMPDEST SWAP4 POP POP PUSH1 0x20 PUSH2 0x109A DUP7 DUP3 DUP8 ADD PUSH2 0xFB2 JUMP JUMPDEST SWAP3 POP POP PUSH1 0x40 DUP5 ADD CALLDATALOAD PUSH8 0xFFFFFFFFFFFFFFFF DUP2 GT ISZERO PUSH2 0x10BB JUMPI PUSH2 0x10BA PUSH2 0x15E3 JUMP JUMPDEST JUMPDEST PUSH2 0x10C7 DUP7 DUP3 DUP8 ADD PUSH2 0xFC7 JUMP JUMPDEST SWAP2 POP POP SWAP3 POP SWAP3 POP SWAP3 JUMP JUMPDEST PUSH1 0x0 DUP1 PUSH1 0x40 DUP4 DUP6 SUB SLT ISZERO PUSH2 0x10E8 JUMPI PUSH2 0x10E7 PUSH2 0x15E8 JUMP JUMPDEST JUMPDEST PUSH1 0x0 PUSH2 0x10F6 DUP6 DUP3 DUP7 ADD PUSH2 0xFB2 JUMP JUMPDEST SWAP3 POP POP PUSH1 0x20 DUP4 ADD CALLDATALOAD PUSH8 0xFFFFFFFFFFFFFFFF DUP2 GT ISZERO PUSH2 0x1117 JUMPI PUSH2 0x1116 PUSH2 0x15E3 JUMP JUMPDEST JUMPDEST PUSH2 0x1123 DUP6 DUP3 DUP7 ADD PUSH2 0xFC7 JUMP JUMPDEST SWAP2 POP POP SWAP3 POP SWAP3 SWAP1 POP JUMP JUMPDEST PUSH1 0x0 DUP1 PUSH1 0x0 DUP1 PUSH1 0x80 DUP6 DUP8 SUB SLT ISZERO PUSH2 0x1147 JUMPI PUSH2 0x1146 PUSH2 0x15E8 JUMP JUMPDEST JUMPDEST PUSH1 0x0 PUSH2 0x1155 DUP8 DUP3 DUP9 ADD PUSH2 0xFB2 JUMP JUMPDEST SWAP5 POP POP PUSH1 0x20 DUP6 ADD CALLDATALOAD PUSH8 0xFFFFFFFFFFFFFFFF DUP2 GT ISZERO PUSH2 0x1176 JUMPI PUSH2 0x1175 PUSH2 0x15E3 JUMP JUMPDEST JUMPDEST PUSH2 0x1182 DUP8 DUP3 DUP9 ADD PUSH2 0xFC7 JUMP JUMPDEST SWAP4 POP POP PUSH1 0x40 DUP6 ADD CALLDATALOAD PUSH8 0xFFFFFFFFFFFFFFFF DUP2 GT ISZERO PUSH2 0x11A3 JUMPI PUSH2 0x11A2 PUSH2 0x15E3 JUMP JUMPDEST JUMPDEST PUSH2 0x11AF DUP8 DUP3 DUP9 ADD PUSH2 0xFC7 JUMP JUMPDEST SWAP3 POP POP PUSH1 0x60 DUP6 ADD CALLDATALOAD PUSH8 0xFFFFFFFFFFFFFFFF DUP2 GT ISZERO PUSH2 0x11D0 JUMPI PUSH2 0x11CF PUSH2 0x15E3 JUMP JUMPDEST JUMPDEST PUSH2 0x11DC DUP8 DUP3 DUP9 ADD PUSH2 0xFC7 JUMP JUMPDEST SWAP2 POP POP SWAP3 SWAP6 SWAP2 SWAP5 POP SWAP3 POP JUMP JUMPDEST PUSH1 0x0 DUP1 PUSH1 0x40 DUP4 DUP6 SUB SLT ISZERO PUSH2 0x11FF JUMPI PUSH2 0x11FE PUSH2 0x15E8 JUMP JUMPDEST JUMPDEST PUSH1 0x0 DUP4 ADD CALLDATALOAD PUSH8 0xFFFFFFFFFFFFFFFF DUP2 GT ISZERO PUSH2 0x121D JUMPI PUSH2 0x121C PUSH2 0x15E3 JUMP JUMPDEST JUMPDEST PUSH2 0x1229 DUP6 DUP3 DUP7 ADD PUSH2 0xFC7 JUMP JUMPDEST SWAP3 POP POP PUSH1 0x20 DUP4 ADD CALLDATALOAD PUSH8 0xFFFFFFFFFFFFFFFF DUP2 GT ISZERO PUSH2 0x124A JUMPI PUSH2 0x1249 PUSH2 0x15E3 JUMP JUMPDEST JUMPDEST PUSH2 0x1256 DUP6 DUP3 DUP7 ADD PUSH2 0xFC7 JUMP JUMPDEST SWAP2 POP POP SWAP3 POP SWAP3 SWAP1 POP JUMP JUMPDEST PUSH2 0x1269 DUP2 PUSH2 0x14A4 JUMP JUMPDEST DUP3 MSTORE POP POP JUMP JUMPDEST PUSH2 0x1278 DUP2 PUSH2 0x14A4 JUMP JUMPDEST DUP3 MSTORE POP POP JUMP JUMPDEST PUSH1 0x0 PUSH2 0x1289 DUP3 PUSH2 0x1477 JUMP JUMPDEST PUSH2 0x1293 DUP2 DUP6 PUSH2 0x1482 JUMP JUMPDEST SWAP4 POP PUSH2 0x12A3 DUP2 DUP6 PUSH1 0x20 DUP7 ADD PUSH2 0x14E5 JUMP JUMPDEST PUSH2 0x12AC DUP2 PUSH2 0x15ED JUMP JUMPDEST DUP5 ADD SWAP2 POP POP SWAP3 SWAP2 POP POP JUMP JUMPDEST PUSH1 0x0 PUSH2 0x12C2 DUP3 PUSH2 0x1477 JUMP JUMPDEST PUSH2 0x12CC DUP2 DUP6 PUSH2 0x1493 JUMP JUMPDEST SWAP4 POP PUSH2 0x12DC DUP2 DUP6 PUSH1 0x20 DUP7 ADD PUSH2 0x14E5 JUMP JUMPDEST PUSH2 0x12E5 DUP2 PUSH2 0x15ED JUMP JUMPDEST DUP5 ADD SWAP2 POP POP SWAP3 SWAP2 POP POP JUMP JUMPDEST PUSH1 0x0 PUSH1 0x80 DUP4 ADD PUSH1 0x0 DUP4 ADD MLOAD PUSH2 0x1308 PUSH1 0x0 DUP7 ADD DUP3 PUSH2 0x1260 JUMP JUMPDEST POP PUSH1 0x20 DUP4 ADD MLOAD DUP5 DUP3 SUB PUSH1 0x20 DUP7 ADD MSTORE PUSH2 0x1320 DUP3 DUP3 PUSH2 0x127E JUMP JUMPDEST SWAP2 POP POP PUSH1 0x40 DUP4 ADD MLOAD DUP5 DUP3 SUB PUSH1 0x40 DUP7 ADD MSTORE PUSH2 0x133A DUP3 DUP3 PUSH2 0x127E JUMP JUMPDEST SWAP2 POP POP PUSH1 0x60 DUP4 ADD MLOAD DUP5 DUP3 SUB PUSH1 0x60 DUP7 ADD MSTORE PUSH2 0x1354 DUP3 DUP3 PUSH2 0x127E JUMP JUMPDEST SWAP2 POP POP DUP1 SWAP2 POP POP SWAP3 SWAP2 POP POP JUMP JUMPDEST PUSH1 0x0 PUSH1 0x60 DUP3 ADD SWAP1 POP PUSH2 0x1376 PUSH1 0x0 DUP4 ADD DUP7 PUSH2 0x126F JUMP JUMPDEST DUP2 DUP2 SUB PUSH1 0x20 DUP4 ADD MSTORE PUSH2 0x1388 DUP2 DUP6 PUSH2 0x12B7 JUMP JUMPDEST SWAP1 POP DUP2 DUP2 SUB PUSH1 0x40 DUP4 ADD MSTORE PUSH2 0x139C DUP2 DUP5 PUSH2 0x12B7 JUMP JUMPDEST SWAP1 POP SWAP5 SWAP4 POP POP POP POP JUMP JUMPDEST PUSH1 0x0 PUSH1 0x20 DUP3 ADD SWAP1 POP DUP2 DUP2 SUB PUSH1 0x0 DUP4 ADD MSTORE PUSH2 0x13C0 DUP2 DUP5 PUSH2 0x12B7 JUMP JUMPDEST SWAP1 POP SWAP3 SWAP2 POP POP JUMP JUMPDEST PUSH1 0x0 PUSH1 0x40 DUP3 ADD SWAP1 POP DUP2 DUP2 SUB PUSH1 0x0 DUP4 ADD MSTORE PUSH2 0x13E2 DUP2 DUP6 PUSH2 0x12B7 JUMP JUMPDEST SWAP1 POP DUP2 DUP2 SUB PUSH1 0x20 DUP4 ADD MSTORE PUSH2 0x13F6 DUP2 DUP5 PUSH2 0x12B7 JUMP JUMPDEST SWAP1 POP SWAP4 SWAP3 POP POP POP JUMP JUMPDEST PUSH1 0x0 PUSH1 0x20 DUP3 ADD SWAP1 POP DUP2 DUP2 SUB PUSH1 0x0 DUP4 ADD MSTORE PUSH2 0x1419 DUP2 DUP5 PUSH2 0x12F0 JUMP JUMPDEST SWAP1 POP SWAP3 SWAP2 POP POP JUMP JUMPDEST PUSH1 0x0 PUSH2 0x142B PUSH2 0x143C JUMP JUMPDEST SWAP1 POP PUSH2 0x1437 DUP3 DUP3 PUSH2 0x154A JUMP JUMPDEST SWAP2 SWAP1 POP JUMP JUMPDEST PUSH1 0x0 PUSH1 0x40 MLOAD SWAP1 POP SWAP1 JUMP JUMPDEST PUSH1 0x0 PUSH8 0xFFFFFFFFFFFFFFFF DUP3 GT ISZERO PUSH2 0x1461 JUMPI PUSH2 0x1460 PUSH2 0x15AA JUMP JUMPDEST JUMPDEST PUSH2 0x146A DUP3 PUSH2 0x15ED JUMP JUMPDEST SWAP1 POP PUSH1 0x20 DUP2 ADD SWAP1 POP SWAP2 SWAP1 POP JUMP JUMPDEST PUSH1 0x0 DUP2 MLOAD SWAP1 POP SWAP2 SWAP1 POP JUMP JUMPDEST PUSH1 0x0 DUP3 DUP3 MSTORE PUSH1 0x20 DUP3 ADD SWAP1 POP SWAP3 SWAP2 POP POP JUMP JUMPDEST PUSH1 0x0 DUP3 DUP3 MSTORE PUSH1 0x20 DUP3 ADD SWAP1 POP SWAP3 SWAP2 POP POP JUMP JUMPDEST PUSH1 0x0 PUSH2 0x14AF DUP3 PUSH2 0x14B6 JUMP JUMPDEST SWAP1 POP SWAP2 SWAP1 POP JUMP JUMPDEST PUSH1 0x0 PUSH20 0xFFFFFFFFFFFFFFFFFFFFFFFFFFFFFFFFFFFFFFFF DUP3 AND SWAP1 POP SWAP2 SWAP1 POP JUMP JUMPDEST DUP3 DUP2 DUP4 CALLDATACOPY PUSH1 0x0 DUP4 DUP4 ADD MSTORE POP POP POP JUMP JUMPDEST PUSH1 0x0 JUMPDEST DUP4 DUP2 LT ISZERO PUSH2 0x1503 JUMPI DUP1 DUP3 ADD MLOAD DUP2 DUP5 ADD MSTORE PUSH1 0x20 DUP2 ADD SWAP1 POP PUSH2 0x14E8 JUMP JUMPDEST DUP4 DUP2 GT ISZERO PUSH2 0x1512 JUMPI PUSH1 0x0 DUP5 DUP5 ADD MSTORE JUMPDEST POP POP POP POP JUMP JUMPDEST PUSH1 0x0 PUSH1 0x2 DUP3 DIV SWAP1 POP PUSH1 0x1 DUP3 AND DUP1 PUSH2 0x1530 JUMPI PUSH1 0x7F DUP3 AND SWAP2 POP JUMPDEST PUSH1 0x20 DUP3 LT DUP2 EQ ISZERO PUSH2 0x1544 JUMPI PUSH2 0x1543 PUSH2 0x157B JUMP JUMPDEST JUMPDEST POP SWAP2 SWAP1 POP JUMP JUMPDEST PUSH2 0x1553 DUP3 PUSH2 0x15ED JUMP JUMPDEST DUP2 ADD DUP2 DUP2 LT PUSH8 0xFFFFFFFFFFFFFFFF DUP3 GT OR ISZERO PUSH2 0x1572 JUMPI PUSH2 0x1571 PUSH2 0x15AA JUMP JUMPDEST JUMPDEST DUP1 PUSH1 0x40 MSTORE POP POP POP JUMP JUMPDEST PUSH32 0x4E487B7100000000000000000000000000000000000000000000000000000000 PUSH1 0x0 MSTORE PUSH1 0x22 PUSH1 0x4 MSTORE PUSH1 0x24 PUSH1 0x0 REVERT JUMPDEST PUSH32 0x4E487B7100000000000000000000000000000000000000000000000000000000 PUSH1 0x0 MSTORE PUSH1 0x41 PUSH1 0x4 MSTORE PUSH1 0x24 PUSH1 0x0 REVERT JUMPDEST PUSH1 0x0 DUP1 REVERT JUMPDEST PUSH1 0x0 DUP1 REVERT JUMPDEST PUSH1 0x0 DUP1 REVERT JUMPDEST PUSH1 0x0 DUP1 REVERT JUMPDEST PUSH1 0x0 PUSH1 0x1F NOT PUSH1 0x1F DUP4 ADD AND SWAP1 POP SWAP2 SWAP1 POP JUMP JUMPDEST PUSH2 0x1607 DUP2 PUSH2 0x14A4 JUMP JUMPDEST DUP2 EQ PUSH2 0x1612 JUMPI PUSH1 0x0 DUP1 REVERT JUMPDEST POP JUMP INVALID LOG2 PUSH5 0x6970667358 0x22 SLT KECCAK256 SWAP3 0xEF SWAP5 REVERT 0xE4 0x4F NOT 0xE7 POP PUSH21 0xAF2ABBC8563D819DC2C0EFEC4584436887879C7810 0xC3 PUSH5 0x736F6C6343 STOP ADDMOD SMOD STOP CALLER "
				},
				"gasEstimates": {
					"creation": {
						"codeDepositCost": "1141400",
						"executionCost": "1187",
						"totalCost": "1142587"
					},
					"external": {
						"getDeviceInfoByAddr(address)": "infinite",
						"getRight(address,address)": "infinite",
						"getSubjInfo(address)": "infinite",
						"init()": "infinite",
						"register4Right(address,string)": "infinite",
						"setDeviceInfo(address,string,string,string)": "infinite",
						"setSubjInfo(string,string)": "infinite",
						"subjInfoMap(address)": "infinite",
						"testRegister(address,address,string)": "infinite"
					}
				},
				"methodIdentifiers": {
					"getDeviceInfoByAddr(address)": "de1e23b7",
					"getRight(address,address)": "8749774f",
					"getSubjInfo(address)": "9f764d16",
					"init()": "e1c7392a",
					"register4Right(address,string)": "11ef4171",
					"setDeviceInfo(address,string,string,string)": "4d2d701a",
					"setSubjInfo(string,string)": "f2c3c745",
					"subjInfoMap(address)": "b9e0ad10",
					"testRegister(address,address,string)": "5062278f"
				}
			},
			"storageLayout": {
				"storage": [
					{
						"astId": 26,
						"contract": "contracts/Management.sol:Management",
						"label": "deviceInfoMap",
						"offset": 0,
						"slot": "0",
						"type": "t_mapping(t_address,t_struct(DeviceInfo)10_storage)"
					},
					{
						"astId": 31,
						"contract": "contracts/Management.sol:Management",
						"label": "subjInfoMap",
						"offset": 0,
						"slot": "1",
						"type": "t_mapping(t_address,t_struct(SubjInfo)21_storage)"
					}
				],
				"types": {
					"t_address": {
						"encoding": "inplace",
						"label": "address",
						"numberOfBytes": "20"
					},
					"t_mapping(t_address,t_string_storage)": {
						"encoding": "mapping",
						"key": "t_address",
						"label": "mapping(address => string)",
						"numberOfBytes": "32",
						"value": "t_string_storage"
					},
					"t_mapping(t_address,t_struct(DeviceInfo)10_storage)": {
						"encoding": "mapping",
						"key": "t_address",
						"label": "mapping(address => struct Management.DeviceInfo)",
						"numberOfBytes": "32",
						"value": "t_struct(DeviceInfo)10_storage"
					},
					"t_mapping(t_address,t_struct(SubjInfo)21_storage)": {
						"encoding": "mapping",
						"key": "t_address",
						"label": "mapping(address => struct Management.SubjInfo)",
						"numberOfBytes": "32",
						"value": "t_struct(SubjInfo)21_storage"
					},
					"t_string_storage": {
						"encoding": "bytes",
						"label": "string",
						"numberOfBytes": "32"
					},
					"t_struct(DeviceInfo)10_storage": {
						"encoding": "inplace",
						"label": "struct Management.DeviceInfo",
						"members": [
							{
								"astId": 3,
								"contract": "contracts/Management.sol:Management",
								"label": "deviceAddr",
								"offset": 0,
								"slot": "0",
								"type": "t_address"
							},
							{
								"astId": 5,
								"contract": "contracts/Management.sol:Management",
								"label": "deviceName",
								"offset": 0,
								"slot": "1",
								"type": "t_string_storage"
							},
							{
								"astId": 7,
								"contract": "contracts/Management.sol:Management",
								"label": "deviceType",
								"offset": 0,
								"slot": "2",
								"type": "t_string_storage"
							},
							{
								"astId": 9,
								"contract": "contracts/Management.sol:Management",
								"label": "status",
								"offset": 0,
								"slot": "3",
								"type": "t_string_storage"
							}
						],
						"numberOfBytes": "128"
					},
					"t_struct(SubjInfo)21_storage": {
						"encoding": "inplace",
						"label": "struct Management.SubjInfo",
						"members": [
							{
								"astId": 12,
								"contract": "contracts/Management.sol:Management",
								"label": "subjectAddr",
								"offset": 0,
								"slot": "0",
								"type": "t_address"
							},
							{
								"astId": 14,
								"contract": "contracts/Management.sol:Management",
								"label": "subjectName",
								"offset": 0,
								"slot": "1",
								"type": "t_string_storage"
							},
							{
								"astId": 18,
								"contract": "contracts/Management.sol:Management",
								"label": "rightTable",
								"offset": 0,
								"slot": "2",
								"type": "t_mapping(t_address,t_string_storage)"
							},
							{
								"astId": 20,
								"contract": "contracts/Management.sol:Management",
								"label": "ipAddr",
								"offset": 0,
								"slot": "3",
								"type": "t_string_storage"
							}
						],
						"numberOfBytes": "128"
					}
				}
			},
			"userdoc": {
				"kind": "user",
				"methods": {},
				"version": 1
			}
		}
	}
}