{
	"contracts/Judge.sol": {
		"Judge": {
			"abi": [
				{
					"inputs": [
						{
							"internalType": "address",
							"name": "_userAddr",
							"type": "address"
						}
					],
					"name": "getBLUByAddr",
					"outputs": [
						{
							"internalType": "uint256",
							"name": "_EToB",
							"type": "uint256"
						},
						{
							"internalType": "bool",
							"name": "_blocked",
							"type": "bool"
						}
					],
					"stateMutability": "view",
					"type": "function"
				},
				{
					"inputs": [
						{
							"internalType": "address",
							"name": "_userAddr",
							"type": "address"
						}
					],
					"name": "setBlackList",
					"outputs": [],
					"stateMutability": "nonpayable",
					"type": "function"
				}
			],
			"devdoc": {
				"kind": "dev",
				"methods": {},
				"version": 1
			},
			"evm": {
				"assembly": "    /* \"contracts/Judge.sol\":68:975  contract Judge {\r... */\n  mstore(0x40, 0x80)\n  callvalue\n  dup1\n  iszero\n  tag_1\n  jumpi\n  0x00\n  dup1\n  revert\ntag_1:\n  pop\n  dataSize(sub_0)\n  dup1\n  dataOffset(sub_0)\n  0x00\n  codecopy\n  0x00\n  return\nstop\n\nsub_0: assembly {\n        /* \"contracts/Judge.sol\":68:975  contract Judge {\r... */\n      mstore(0x40, 0x80)\n      callvalue\n      dup1\n      iszero\n      tag_1\n      jumpi\n      0x00\n      dup1\n      revert\n    tag_1:\n      pop\n      jumpi(tag_2, lt(calldatasize, 0x04))\n      shr(0xe0, calldataload(0x00))\n      dup1\n      0x169c9de0\n      eq\n      tag_3\n      jumpi\n      dup1\n      0x72700241\n      eq\n      tag_4\n      jumpi\n    tag_2:\n      0x00\n      dup1\n      revert\n        /* \"contracts/Judge.sol\":776:970  function getBLUByAddr(address _userAddr) public view returns (uint256 _EToB, bool _blocked) {\r... */\n    tag_3:\n      tag_5\n      0x04\n      dup1\n      calldatasize\n      sub\n      dup2\n      add\n      swap1\n      tag_6\n      swap2\n      swap1\n      tag_7\n      jump\t// in\n    tag_6:\n      tag_8\n      jump\t// in\n    tag_5:\n      mload(0x40)\n      tag_9\n      swap3\n      swap2\n      swap1\n      tag_10\n      jump\t// in\n    tag_9:\n      mload(0x40)\n      dup1\n      swap2\n      sub\n      swap1\n      return\n        /* \"contracts/Judge.sol\":495:737  function setBlackList(address _userAddr) public {\r... */\n    tag_4:\n      tag_11\n      0x04\n      dup1\n      calldatasize\n      sub\n      dup2\n      add\n      swap1\n      tag_12\n      swap2\n      swap1\n      tag_7\n      jump\t// in\n    tag_12:\n      tag_13\n      jump\t// in\n    tag_11:\n      stop\n        /* \"contracts/Judge.sol\":776:970  function getBLUByAddr(address _userAddr) public view returns (uint256 _EToB, bool _blocked) {\r... */\n    tag_8:\n        /* \"contracts/Judge.sol\":838:851  uint256 _EToB */\n      0x00\n        /* \"contracts/Judge.sol\":853:866  bool _blocked */\n      dup1\n        /* \"contracts/Judge.sol\":887:896  blackList */\n      0x00\n        /* \"contracts/Judge.sol\":887:907  blackList[_userAddr] */\n      dup1\n        /* \"contracts/Judge.sol\":897:906  _userAddr */\n      dup5\n        /* \"contracts/Judge.sol\":887:907  blackList[_userAddr] */\n      0xffffffffffffffffffffffffffffffffffffffff\n      and\n      0xffffffffffffffffffffffffffffffffffffffff\n      and\n      dup2\n      mstore\n      0x20\n      add\n      swap1\n      dup2\n      mstore\n      0x20\n      add\n      0x00\n      keccak256\n        /* \"contracts/Judge.sol\":887:912  blackList[_userAddr].EToB */\n      0x01\n      add\n      sload\n        /* \"contracts/Judge.sol\":879:912  _EToB = blackList[_userAddr].EToB */\n      swap2\n      pop\n        /* \"contracts/Judge.sol\":934:943  blackList */\n      0x00\n        /* \"contracts/Judge.sol\":934:954  blackList[_userAddr] */\n      dup1\n        /* \"contracts/Judge.sol\":944:953  _userAddr */\n      dup5\n        /* \"contracts/Judge.sol\":934:954  blackList[_userAddr] */\n      0xffffffffffffffffffffffffffffffffffffffff\n      and\n      0xffffffffffffffffffffffffffffffffffffffff\n      and\n      dup2\n      mstore\n      0x20\n      add\n      swap1\n      dup2\n      mstore\n      0x20\n      add\n      0x00\n      keccak256\n        /* \"contracts/Judge.sol\":934:962  blackList[_userAddr].blocked */\n      0x02\n      add\n      0x00\n      swap1\n      sload\n      swap1\n      0x0100\n      exp\n      swap1\n      div\n      0xff\n      and\n        /* \"contracts/Judge.sol\":923:962  _blocked = blackList[_userAddr].blocked */\n      swap1\n      pop\n        /* \"contracts/Judge.sol\":776:970  function getBLUByAddr(address _userAddr) public view returns (uint256 _EToB, bool _blocked) {\r... */\n      swap2\n      pop\n      swap2\n      jump\t// out\n        /* \"contracts/Judge.sol\":495:737  function setBlackList(address _userAddr) public {\r... */\n    tag_13:\n        /* \"contracts/Judge.sol\":582:591  _userAddr */\n      dup1\n        /* \"contracts/Judge.sol\":554:563  blackList */\n      0x00\n        /* \"contracts/Judge.sol\":554:574  blackList[_userAddr] */\n      dup1\n        /* \"contracts/Judge.sol\":564:573  _userAddr */\n      dup4\n        /* \"contracts/Judge.sol\":554:574  blackList[_userAddr] */\n      0xffffffffffffffffffffffffffffffffffffffff\n      and\n      0xffffffffffffffffffffffffffffffffffffffff\n      and\n      dup2\n      mstore\n      0x20\n      add\n      swap1\n      dup2\n      mstore\n      0x20\n      add\n      0x00\n      keccak256\n        /* \"contracts/Judge.sol\":554:579  blackList[_userAddr].addr */\n      0x00\n      add\n      0x00\n        /* \"contracts/Judge.sol\":554:591  blackList[_userAddr].addr = _userAddr */\n      0x0100\n      exp\n      dup2\n      sload\n      dup2\n      0xffffffffffffffffffffffffffffffffffffffff\n      mul\n      not\n      and\n      swap1\n      dup4\n      0xffffffffffffffffffffffffffffffffffffffff\n      and\n      mul\n      or\n      swap1\n      sstore\n      pop\n        /* \"contracts/Judge.sol\":681:683  10 */\n      0x0a\n        /* \"contracts/Judge.sol\":663:678  block.timestamp */\n      timestamp\n        /* \"contracts/Judge.sol\":663:683  block.timestamp + 10 */\n      tag_16\n      swap2\n      swap1\n      tag_17\n      jump\t// in\n    tag_16:\n        /* \"contracts/Judge.sol\":635:644  blackList */\n      0x00\n        /* \"contracts/Judge.sol\":635:655  blackList[_userAddr] */\n      dup1\n        /* \"contracts/Judge.sol\":645:654  _userAddr */\n      dup4\n        /* \"contracts/Judge.sol\":635:655  blackList[_userAddr] */\n      0xffffffffffffffffffffffffffffffffffffffff\n      and\n      0xffffffffffffffffffffffffffffffffffffffff\n      and\n      dup2\n      mstore\n      0x20\n      add\n      swap1\n      dup2\n      mstore\n      0x20\n      add\n      0x00\n      keccak256\n        /* \"contracts/Judge.sol\":635:660  blackList[_userAddr].EToB */\n      0x01\n      add\n        /* \"contracts/Judge.sol\":635:683  blackList[_userAddr].EToB = block.timestamp + 10 */\n      dup2\n      swap1\n      sstore\n      pop\n        /* \"contracts/Judge.sol\":725:729  true */\n      0x01\n        /* \"contracts/Judge.sol\":694:703  blackList */\n      0x00\n        /* \"contracts/Judge.sol\":694:714  blackList[_userAddr] */\n      dup1\n        /* \"contracts/Judge.sol\":704:713  _userAddr */\n      dup4\n        /* \"contracts/Judge.sol\":694:714  blackList[_userAddr] */\n      0xffffffffffffffffffffffffffffffffffffffff\n      and\n      0xffffffffffffffffffffffffffffffffffffffff\n      and\n      dup2\n      mstore\n      0x20\n      add\n      swap1\n      dup2\n      mstore\n      0x20\n      add\n      0x00\n      keccak256\n        /* \"contracts/Judge.sol\":694:722  blackList[_userAddr].blocked */\n      0x02\n      add\n      0x00\n        /* \"contracts/Judge.sol\":694:729  blackList[_userAddr].blocked = true */\n      0x0100\n      exp\n      dup2\n      sload\n      dup2\n      0xff\n      mul\n      not\n      and\n      swap1\n      dup4\n      iszero\n      iszero\n      mul\n      or\n      swap1\n      sstore\n      pop\n        /* \"contracts/Judge.sol\":495:737  function setBlackList(address _userAddr) public {\r... */\n      pop\n      jump\t// out\n        /* \"#utility.yul\":7:146   */\n    tag_19:\n        /* \"#utility.yul\":53:58   */\n      0x00\n        /* \"#utility.yul\":91:97   */\n      dup2\n        /* \"#utility.yul\":78:98   */\n      calldataload\n        /* \"#utility.yul\":69:98   */\n      swap1\n      pop\n        /* \"#utility.yul\":107:140   */\n      tag_21\n        /* \"#utility.yul\":134:139   */\n      dup2\n        /* \"#utility.yul\":107:140   */\n      tag_22\n      jump\t// in\n    tag_21:\n        /* \"#utility.yul\":7:146   */\n      swap3\n      swap2\n      pop\n      pop\n      jump\t// out\n        /* \"#utility.yul\":152:481   */\n    tag_7:\n        /* \"#utility.yul\":211:217   */\n      0x00\n        /* \"#utility.yul\":260:262   */\n      0x20\n        /* \"#utility.yul\":248:257   */\n      dup3\n        /* \"#utility.yul\":239:246   */\n      dup5\n        /* \"#utility.yul\":235:258   */\n      sub\n        /* \"#utility.yul\":231:263   */\n      slt\n        /* \"#utility.yul\":228:347   */\n      iszero\n      tag_24\n      jumpi\n        /* \"#utility.yul\":266:345   */\n      tag_25\n      tag_26\n      jump\t// in\n    tag_25:\n        /* \"#utility.yul\":228:347   */\n    tag_24:\n        /* \"#utility.yul\":386:387   */\n      0x00\n        /* \"#utility.yul\":411:464   */\n      tag_27\n        /* \"#utility.yul\":456:463   */\n      dup5\n        /* \"#utility.yul\":447:453   */\n      dup3\n        /* \"#utility.yul\":436:445   */\n      dup6\n        /* \"#utility.yul\":432:454   */\n      add\n        /* \"#utility.yul\":411:464   */\n      tag_19\n      jump\t// in\n    tag_27:\n        /* \"#utility.yul\":401:464   */\n      swap2\n      pop\n        /* \"#utility.yul\":357:474   */\n      pop\n        /* \"#utility.yul\":152:481   */\n      swap3\n      swap2\n      pop\n      pop\n      jump\t// out\n        /* \"#utility.yul\":487:596   */\n    tag_28:\n        /* \"#utility.yul\":568:589   */\n      tag_30\n        /* \"#utility.yul\":583:588   */\n      dup2\n        /* \"#utility.yul\":568:589   */\n      tag_31\n      jump\t// in\n    tag_30:\n        /* \"#utility.yul\":563:566   */\n      dup3\n        /* \"#utility.yul\":556:590   */\n      mstore\n        /* \"#utility.yul\":487:596   */\n      pop\n      pop\n      jump\t// out\n        /* \"#utility.yul\":602:720   */\n    tag_32:\n        /* \"#utility.yul\":689:713   */\n      tag_34\n        /* \"#utility.yul\":707:712   */\n      dup2\n        /* \"#utility.yul\":689:713   */\n      tag_35\n      jump\t// in\n    tag_34:\n        /* \"#utility.yul\":684:687   */\n      dup3\n        /* \"#utility.yul\":677:714   */\n      mstore\n        /* \"#utility.yul\":602:720   */\n      pop\n      pop\n      jump\t// out\n        /* \"#utility.yul\":726:1046   */\n    tag_10:\n        /* \"#utility.yul\":841:845   */\n      0x00\n        /* \"#utility.yul\":879:881   */\n      0x40\n        /* \"#utility.yul\":868:877   */\n      dup3\n        /* \"#utility.yul\":864:882   */\n      add\n        /* \"#utility.yul\":856:882   */\n      swap1\n      pop\n        /* \"#utility.yul\":892:963   */\n      tag_37\n        /* \"#utility.yul\":960:961   */\n      0x00\n        /* \"#utility.yul\":949:958   */\n      dup4\n        /* \"#utility.yul\":945:962   */\n      add\n        /* \"#utility.yul\":936:942   */\n      dup6\n        /* \"#utility.yul\":892:963   */\n      tag_32\n      jump\t// in\n    tag_37:\n        /* \"#utility.yul\":973:1039   */\n      tag_38\n        /* \"#utility.yul\":1035:1037   */\n      0x20\n        /* \"#utility.yul\":1024:1033   */\n      dup4\n        /* \"#utility.yul\":1020:1038   */\n      add\n        /* \"#utility.yul\":1011:1017   */\n      dup5\n        /* \"#utility.yul\":973:1039   */\n      tag_28\n      jump\t// in\n    tag_38:\n        /* \"#utility.yul\":726:1046   */\n      swap4\n      swap3\n      pop\n      pop\n      pop\n      jump\t// out\n        /* \"#utility.yul\":1133:1438   */\n    tag_17:\n        /* \"#utility.yul\":1173:1176   */\n      0x00\n        /* \"#utility.yul\":1192:1212   */\n      tag_42\n        /* \"#utility.yul\":1210:1211   */\n      dup3\n        /* \"#utility.yul\":1192:1212   */\n      tag_35\n      jump\t// in\n    tag_42:\n        /* \"#utility.yul\":1187:1212   */\n      swap2\n      pop\n        /* \"#utility.yul\":1226:1246   */\n      tag_43\n        /* \"#utility.yul\":1244:1245   */\n      dup4\n        /* \"#utility.yul\":1226:1246   */\n      tag_35\n      jump\t// in\n    tag_43:\n        /* \"#utility.yul\":1221:1246   */\n      swap3\n      pop\n        /* \"#utility.yul\":1380:1381   */\n      dup3\n        /* \"#utility.yul\":1312:1378   */\n      0xffffffffffffffffffffffffffffffffffffffffffffffffffffffffffffffff\n        /* \"#utility.yul\":1308:1382   */\n      sub\n        /* \"#utility.yul\":1305:1306   */\n      dup3\n        /* \"#utility.yul\":1302:1383   */\n      gt\n        /* \"#utility.yul\":1299:1406   */\n      iszero\n      tag_44\n      jumpi\n        /* \"#utility.yul\":1386:1404   */\n      tag_45\n      tag_46\n      jump\t// in\n    tag_45:\n        /* \"#utility.yul\":1299:1406   */\n    tag_44:\n        /* \"#utility.yul\":1430:1431   */\n      dup3\n        /* \"#utility.yul\":1427:1428   */\n      dup3\n        /* \"#utility.yul\":1423:1432   */\n      add\n        /* \"#utility.yul\":1416:1432   */\n      swap1\n      pop\n        /* \"#utility.yul\":1133:1438   */\n      swap3\n      swap2\n      pop\n      pop\n      jump\t// out\n        /* \"#utility.yul\":1444:1540   */\n    tag_47:\n        /* \"#utility.yul\":1481:1488   */\n      0x00\n        /* \"#utility.yul\":1510:1534   */\n      tag_49\n        /* \"#utility.yul\":1528:1533   */\n      dup3\n        /* \"#utility.yul\":1510:1534   */\n      tag_50\n      jump\t// in\n    tag_49:\n        /* \"#utility.yul\":1499:1534   */\n      swap1\n      pop\n        /* \"#utility.yul\":1444:1540   */\n      swap2\n      swap1\n      pop\n      jump\t// out\n        /* \"#utility.yul\":1546:1636   */\n    tag_31:\n        /* \"#utility.yul\":1580:1587   */\n      0x00\n        /* \"#utility.yul\":1623:1628   */\n      dup2\n        /* \"#utility.yul\":1616:1629   */\n      iszero\n        /* \"#utility.yul\":1609:1630   */\n      iszero\n        /* \"#utility.yul\":1598:1630   */\n      swap1\n      pop\n        /* \"#utility.yul\":1546:1636   */\n      swap2\n      swap1\n      pop\n      jump\t// out\n        /* \"#utility.yul\":1642:1768   */\n    tag_50:\n        /* \"#utility.yul\":1679:1686   */\n      0x00\n        /* \"#utility.yul\":1719:1761   */\n      0xffffffffffffffffffffffffffffffffffffffff\n        /* \"#utility.yul\":1712:1717   */\n      dup3\n        /* \"#utility.yul\":1708:1762   */\n      and\n        /* \"#utility.yul\":1697:1762   */\n      swap1\n      pop\n        /* \"#utility.yul\":1642:1768   */\n      swap2\n      swap1\n      pop\n      jump\t// out\n        /* \"#utility.yul\":1774:1851   */\n    tag_35:\n        /* \"#utility.yul\":1811:1818   */\n      0x00\n        /* \"#utility.yul\":1840:1845   */\n      dup2\n        /* \"#utility.yul\":1829:1845   */\n      swap1\n      pop\n        /* \"#utility.yul\":1774:1851   */\n      swap2\n      swap1\n      pop\n      jump\t// out\n        /* \"#utility.yul\":1857:2037   */\n    tag_46:\n        /* \"#utility.yul\":1905:1982   */\n      0x4e487b7100000000000000000000000000000000000000000000000000000000\n        /* \"#utility.yul\":1902:1903   */\n      0x00\n        /* \"#utility.yul\":1895:1983   */\n      mstore\n        /* \"#utility.yul\":2002:2006   */\n      0x11\n        /* \"#utility.yul\":1999:2000   */\n      0x04\n        /* \"#utility.yul\":1992:2007   */\n      mstore\n        /* \"#utility.yul\":2026:2030   */\n      0x24\n        /* \"#utility.yul\":2023:2024   */\n      0x00\n        /* \"#utility.yul\":2016:2031   */\n      revert\n        /* \"#utility.yul\":2166:2283   */\n    tag_26:\n        /* \"#utility.yul\":2275:2276   */\n      0x00\n        /* \"#utility.yul\":2272:2273   */\n      dup1\n        /* \"#utility.yul\":2265:2277   */\n      revert\n        /* \"#utility.yul\":2289:2411   */\n    tag_22:\n        /* \"#utility.yul\":2362:2386   */\n      tag_59\n        /* \"#utility.yul\":2380:2385   */\n      dup2\n        /* \"#utility.yul\":2362:2386   */\n      tag_47\n      jump\t// in\n    tag_59:\n        /* \"#utility.yul\":2355:2360   */\n      dup2\n        /* \"#utility.yul\":2352:2387   */\n      eq\n        /* \"#utility.yul\":2342:2405   */\n      tag_60\n      jumpi\n        /* \"#utility.yul\":2401:2402   */\n      0x00\n        /* \"#utility.yul\":2398:2399   */\n      dup1\n        /* \"#utility.yul\":2391:2403   */\n      revert\n        /* \"#utility.yul\":2342:2405   */\n    tag_60:\n        /* \"#utility.yul\":2289:2411   */\n      pop\n      jump\t// out\n\n    auxdata: 0xa264697066735822122018906a4ade890183fb52353b9d75ef962c37ed95bd9ab64b5e84e344f6bb3bcf64736f6c63430008070033\n}\n",
				"bytecode": {
					"linkReferences": {},
					"object": "608060405234801561001057600080fd5b506103fc806100206000396000f3fe608060405234801561001057600080fd5b50600436106100365760003560e01c8063169c9de01461003b578063727002411461006c575b600080fd5b61005560048036038101906100509190610269565b610088565b6040516100639291906102b4565b60405180910390f35b61008660048036038101906100819190610269565b610125565b005b6000806000808473ffffffffffffffffffffffffffffffffffffffff1673ffffffffffffffffffffffffffffffffffffffff1681526020019081526020016000206001015491506000808473ffffffffffffffffffffffffffffffffffffffff1673ffffffffffffffffffffffffffffffffffffffff16815260200190815260200160002060020160009054906101000a900460ff169050915091565b806000808373ffffffffffffffffffffffffffffffffffffffff1673ffffffffffffffffffffffffffffffffffffffff16815260200190815260200160002060000160006101000a81548173ffffffffffffffffffffffffffffffffffffffff021916908373ffffffffffffffffffffffffffffffffffffffff160217905550600a426101b291906102dd565b6000808373ffffffffffffffffffffffffffffffffffffffff1673ffffffffffffffffffffffffffffffffffffffff1681526020019081526020016000206001018190555060016000808373ffffffffffffffffffffffffffffffffffffffff1673ffffffffffffffffffffffffffffffffffffffff16815260200190815260200160002060020160006101000a81548160ff02191690831515021790555050565b600081359050610263816103af565b92915050565b60006020828403121561027f5761027e6103aa565b5b600061028d84828501610254565b91505092915050565b61029f81610345565b82525050565b6102ae81610371565b82525050565b60006040820190506102c960008301856102a5565b6102d66020830184610296565b9392505050565b60006102e882610371565b91506102f383610371565b9250827fffffffffffffffffffffffffffffffffffffffffffffffffffffffffffffffff038211156103285761032761037b565b5b828201905092915050565b600061033e82610351565b9050919050565b60008115159050919050565b600073ffffffffffffffffffffffffffffffffffffffff82169050919050565b6000819050919050565b7f4e487b7100000000000000000000000000000000000000000000000000000000600052601160045260246000fd5b600080fd5b6103b881610333565b81146103c357600080fd5b5056fea264697066735822122018906a4ade890183fb52353b9d75ef962c37ed95bd9ab64b5e84e344f6bb3bcf64736f6c63430008070033",
					"opcodes": "PUSH1 0x80 PUSH1 0x40 MSTORE CALLVALUE DUP1 ISZERO PUSH2 0x10 JUMPI PUSH1 0x0 DUP1 REVERT JUMPDEST POP PUSH2 0x3FC DUP1 PUSH2 0x20 PUSH1 0x0 CODECOPY PUSH1 0x0 RETURN INVALID PUSH1 0x80 PUSH1 0x40 MSTORE CALLVALUE DUP1 ISZERO PUSH2 0x10 JUMPI PUSH1 0x0 DUP1 REVERT JUMPDEST POP PUSH1 0x4 CALLDATASIZE LT PUSH2 0x36 JUMPI PUSH1 0x0 CALLDATALOAD PUSH1 0xE0 SHR DUP1 PUSH4 0x169C9DE0 EQ PUSH2 0x3B JUMPI DUP1 PUSH4 0x72700241 EQ PUSH2 0x6C JUMPI JUMPDEST PUSH1 0x0 DUP1 REVERT JUMPDEST PUSH2 0x55 PUSH1 0x4 DUP1 CALLDATASIZE SUB DUP2 ADD SWAP1 PUSH2 0x50 SWAP2 SWAP1 PUSH2 0x269 JUMP JUMPDEST PUSH2 0x88 JUMP JUMPDEST PUSH1 0x40 MLOAD PUSH2 0x63 SWAP3 SWAP2 SWAP1 PUSH2 0x2B4 JUMP JUMPDEST PUSH1 0x40 MLOAD DUP1 SWAP2 SUB SWAP1 RETURN JUMPDEST PUSH2 0x86 PUSH1 0x4 DUP1 CALLDATASIZE SUB DUP2 ADD SWAP1 PUSH2 0x81 SWAP2 SWAP1 PUSH2 0x269 JUMP JUMPDEST PUSH2 0x125 JUMP JUMPDEST STOP JUMPDEST PUSH1 0x0 DUP1 PUSH1 0x0 DUP1 DUP5 PUSH20 0xFFFFFFFFFFFFFFFFFFFFFFFFFFFFFFFFFFFFFFFF AND PUSH20 0xFFFFFFFFFFFFFFFFFFFFFFFFFFFFFFFFFFFFFFFF AND DUP2 MSTORE PUSH1 0x20 ADD SWAP1 DUP2 MSTORE PUSH1 0x20 ADD PUSH1 0x0 KECCAK256 PUSH1 0x1 ADD SLOAD SWAP2 POP PUSH1 0x0 DUP1 DUP5 PUSH20 0xFFFFFFFFFFFFFFFFFFFFFFFFFFFFFFFFFFFFFFFF AND PUSH20 0xFFFFFFFFFFFFFFFFFFFFFFFFFFFFFFFFFFFFFFFF AND DUP2 MSTORE PUSH1 0x20 ADD SWAP1 DUP2 MSTORE PUSH1 0x20 ADD PUSH1 0x0 KECCAK256 PUSH1 0x2 ADD PUSH1 0x0 SWAP1 SLOAD SWAP1 PUSH2 0x100 EXP SWAP1 DIV PUSH1 0xFF AND SWAP1 POP SWAP2 POP SWAP2 JUMP JUMPDEST DUP1 PUSH1 0x0 DUP1 DUP4 PUSH20 0xFFFFFFFFFFFFFFFFFFFFFFFFFFFFFFFFFFFFFFFF AND PUSH20 0xFFFFFFFFFFFFFFFFFFFFFFFFFFFFFFFFFFFFFFFF AND DUP2 MSTORE PUSH1 0x20 ADD SWAP1 DUP2 MSTORE PUSH1 0x20 ADD PUSH1 0x0 KECCAK256 PUSH1 0x0 ADD PUSH1 0x0 PUSH2 0x100 EXP DUP2 SLOAD DUP2 PUSH20 0xFFFFFFFFFFFFFFFFFFFFFFFFFFFFFFFFFFFFFFFF MUL NOT AND SWAP1 DUP4 PUSH20 0xFFFFFFFFFFFFFFFFFFFFFFFFFFFFFFFFFFFFFFFF AND MUL OR SWAP1 SSTORE POP PUSH1 0xA TIMESTAMP PUSH2 0x1B2 SWAP2 SWAP1 PUSH2 0x2DD JUMP JUMPDEST PUSH1 0x0 DUP1 DUP4 PUSH20 0xFFFFFFFFFFFFFFFFFFFFFFFFFFFFFFFFFFFFFFFF AND PUSH20 0xFFFFFFFFFFFFFFFFFFFFFFFFFFFFFFFFFFFFFFFF AND DUP2 MSTORE PUSH1 0x20 ADD SWAP1 DUP2 MSTORE PUSH1 0x20 ADD PUSH1 0x0 KECCAK256 PUSH1 0x1 ADD DUP2 SWAP1 SSTORE POP PUSH1 0x1 PUSH1 0x0 DUP1 DUP4 PUSH20 0xFFFFFFFFFFFFFFFFFFFFFFFFFFFFFFFFFFFFFFFF AND PUSH20 0xFFFFFFFFFFFFFFFFFFFFFFFFFFFFFFFFFFFFFFFF AND DUP2 MSTORE PUSH1 0x20 ADD SWAP1 DUP2 MSTORE PUSH1 0x20 ADD PUSH1 0x0 KECCAK256 PUSH1 0x2 ADD PUSH1 0x0 PUSH2 0x100 EXP DUP2 SLOAD DUP2 PUSH1 0xFF MUL NOT AND SWAP1 DUP4 ISZERO ISZERO MUL OR SWAP1 SSTORE POP POP JUMP JUMPDEST PUSH1 0x0 DUP2 CALLDATALOAD SWAP1 POP PUSH2 0x263 DUP2 PUSH2 0x3AF JUMP JUMPDEST SWAP3 SWAP2 POP POP JUMP JUMPDEST PUSH1 0x0 PUSH1 0x20 DUP3 DUP5 SUB SLT ISZERO PUSH2 0x27F JUMPI PUSH2 0x27E PUSH2 0x3AA JUMP JUMPDEST JUMPDEST PUSH1 0x0 PUSH2 0x28D DUP5 DUP3 DUP6 ADD PUSH2 0x254 JUMP JUMPDEST SWAP2 POP POP SWAP3 SWAP2 POP POP JUMP JUMPDEST PUSH2 0x29F DUP2 PUSH2 0x345 JUMP JUMPDEST DUP3 MSTORE POP POP JUMP JUMPDEST PUSH2 0x2AE DUP2 PUSH2 0x371 JUMP JUMPDEST DUP3 MSTORE POP POP JUMP JUMPDEST PUSH1 0x0 PUSH1 0x40 DUP3 ADD SWAP1 POP PUSH2 0x2C9 PUSH1 0x0 DUP4 ADD DUP6 PUSH2 0x2A5 JUMP JUMPDEST PUSH2 0x2D6 PUSH1 0x20 DUP4 ADD DUP5 PUSH2 0x296 JUMP JUMPDEST SWAP4 SWAP3 POP POP POP JUMP JUMPDEST PUSH1 0x0 PUSH2 0x2E8 DUP3 PUSH2 0x371 JUMP JUMPDEST SWAP2 POP PUSH2 0x2F3 DUP4 PUSH2 0x371 JUMP JUMPDEST SWAP3 POP DUP3 PUSH32 0xFFFFFFFFFFFFFFFFFFFFFFFFFFFFFFFFFFFFFFFFFFFFFFFFFFFFFFFFFFFFFFFF SUB DUP3 GT ISZERO PUSH2 0x328 JUMPI PUSH2 0x327 PUSH2 0x37B JUMP JUMPDEST JUMPDEST DUP3 DUP3 ADD SWAP1 POP SWAP3 SWAP2 POP POP JUMP JUMPDEST PUSH1 0x0 PUSH2 0x33E DUP3 PUSH2 0x351 JUMP JUMPDEST SWAP1 POP SWAP2 SWAP1 POP JUMP JUMPDEST PUSH1 0x0 DUP2 ISZERO ISZERO SWAP1 POP SWAP2 SWAP1 POP JUMP JUMPDEST PUSH1 0x0 PUSH20 0xFFFFFFFFFFFFFFFFFFFFFFFFFFFFFFFFFFFFFFFF DUP3 AND SWAP1 POP SWAP2 SWAP1 POP JUMP JUMPDEST PUSH1 0x0 DUP2 SWAP1 POP SWAP2 SWAP1 POP JUMP JUMPDEST PUSH32 0x4E487B7100000000000000000000000000000000000000000000000000000000 PUSH1 0x0 MSTORE PUSH1 0x11 PUSH1 0x4 MSTORE PUSH1 0x24 PUSH1 0x0 REVERT JUMPDEST PUSH1 0x0 DUP1 REVERT JUMPDEST PUSH2 0x3B8 DUP2 PUSH2 0x333 JUMP JUMPDEST DUP2 EQ PUSH2 0x3C3 JUMPI PUSH1 0x0 DUP1 REVERT JUMPDEST POP JUMP INVALID LOG2 PUSH5 0x6970667358 0x22 SLT KECCAK256 XOR SWAP1 PUSH11 0x4ADE890183FB52353B9D75 0xEF SWAP7 0x2C CALLDATACOPY 0xED SWAP6 0xBD SWAP11 0xB6 0x4B 0x5E DUP5 0xE3 DIFFICULTY 0xF6 0xBB EXTCODESIZE 0xCF PUSH5 0x736F6C6343 STOP ADDMOD SMOD STOP CALLER "
				},
				"gasEstimates": {
					"creation": {
						"codeDepositCost": "204000",
						"executionCost": "245",
						"totalCost": "204245"
					},
					"external": {
						"getBLUByAddr(address)": "5174",
						"setBlackList(address)": "infinite"
					}
				},
				"methodIdentifiers": {
					"getBLUByAddr(address)": "169c9de0",
					"setBlackList(address)": "72700241"
				}
			},
			"storageLayout": {
				"storage": [
					{
						"astId": 13,
						"contract": "contracts/Judge.sol:Judge",
						"label": "blackList",
						"offset": 0,
						"slot": "0",
						"type": "t_mapping(t_address,t_struct(BlackListUser)8_storage)"
					}
				],
				"types": {
					"t_address": {
						"encoding": "inplace",
						"label": "address",
						"numberOfBytes": "20"
					},
					"t_bool": {
						"encoding": "inplace",
						"label": "bool",
						"numberOfBytes": "1"
					},
					"t_mapping(t_address,t_struct(BlackListUser)8_storage)": {
						"encoding": "mapping",
						"key": "t_address",
						"label": "mapping(address => struct Judge.BlackListUser)",
						"numberOfBytes": "32",
						"value": "t_struct(BlackListUser)8_storage"
					},
					"t_struct(BlackListUser)8_storage": {
						"encoding": "inplace",
						"label": "struct Judge.BlackListUser",
						"members": [
							{
								"astId": 3,
								"contract": "contracts/Judge.sol:Judge",
								"label": "addr",
								"offset": 0,
								"slot": "0",
								"type": "t_address"
							},
							{
								"astId": 5,
								"contract": "contracts/Judge.sol:Judge",
								"label": "EToB",
								"offset": 0,
								"slot": "1",
								"type": "t_uint256"
							},
							{
								"astId": 7,
								"contract": "contracts/Judge.sol:Judge",
								"label": "blocked",
								"offset": 0,
								"slot": "2",
								"type": "t_bool"
							}
						],
						"numberOfBytes": "96"
					},
					"t_uint256": {
						"encoding": "inplace",
						"label": "uint256",
						"numberOfBytes": "32"
					}
				}
			},
			"userdoc": {
				"kind": "user",
				"methods": {},
				"version": 1
			}
		}
	}
}