{
	"contracts/Management.sol": {
		"Management": {
			"abi": [
				{
					"inputs": [
						{
							"internalType": "address",
							"name": "_addr",
							"type": "address"
						}
					],
					"name": "getDeviceInfoByAddr",
					"outputs": [
						{
							"components": [
								{
									"internalType": "address",
									"name": "deviceAddr",
									"type": "address"
								},
								{
									"internalType": "string",
									"name": "deviceName",
									"type": "string"
								}
							],
							"internalType": "struct Management.DeviceInfo",
							"name": "",
							"type": "tuple"
						}
					],
					"stateMutability": "view",
					"type": "function"
				},
				{
					"inputs": [
						{
							"internalType": "string",
							"name": "_deviceName",
							"type": "string"
						}
					],
					"name": "setDeviceInfo",
					"outputs": [],
					"stateMutability": "nonpayable",
					"type": "function"
				}
			],
			"devdoc": {
				"kind": "dev",
				"methods": {},
				"version": 1
			},
			"evm": {
				"assembly": "    /* \"contracts/Management.sol\":68:658  contract Management {\r... */\n  mstore(0x40, 0x80)\n  callvalue\n  dup1\n  iszero\n  tag_1\n  jumpi\n  0x00\n  dup1\n  revert\ntag_1:\n  pop\n  dataSize(sub_0)\n  dup1\n  dataOffset(sub_0)\n  0x00\n  codecopy\n  0x00\n  return\nstop\n\nsub_0: assembly {\n        /* \"contracts/Management.sol\":68:658  contract Management {\r... */\n      mstore(0x40, 0x80)\n      callvalue\n      dup1\n      iszero\n      tag_1\n      jumpi\n      0x00\n      dup1\n      revert\n    tag_1:\n      pop\n      jumpi(tag_2, lt(calldatasize, 0x04))\n      shr(0xe0, calldataload(0x00))\n      dup1\n      0x556598ea\n      eq\n      tag_3\n      jumpi\n      dup1\n      0xde1e23b7\n      eq\n      tag_4\n      jumpi\n    tag_2:\n      0x00\n      dup1\n      revert\n        /* \"contracts/Management.sol\":285:517  function setDeviceInfo(string memory _deviceName) public {\r... */\n    tag_3:\n      tag_5\n      0x04\n      dup1\n      calldatasize\n      sub\n      dup2\n      add\n      swap1\n      tag_6\n      swap2\n      swap1\n      tag_7\n      jump\t// in\n    tag_6:\n      tag_8\n      jump\t// in\n    tag_5:\n      stop\n        /* \"contracts/Management.sol\":525:655  function getDeviceInfoByAddr(address _addr) public view returns (DeviceInfo memory) {\r... */\n    tag_4:\n      tag_9\n      0x04\n      dup1\n      calldatasize\n      sub\n      dup2\n      add\n      swap1\n      tag_10\n      swap2\n      swap1\n      tag_11\n      jump\t// in\n    tag_10:\n      tag_12\n      jump\t// in\n    tag_9:\n      mload(0x40)\n      tag_13\n      swap2\n      swap1\n      tag_14\n      jump\t// in\n    tag_13:\n      mload(0x40)\n      dup1\n      swap2\n      sub\n      swap1\n      return\n        /* \"contracts/Management.sol\":285:517  function setDeviceInfo(string memory _deviceName) public {\r... */\n    tag_8:\n        /* \"contracts/Management.sol\":353:372  address _deviceAddr */\n      0x00\n        /* \"contracts/Management.sol\":375:385  msg.sender */\n      caller\n        /* \"contracts/Management.sol\":353:385  address _deviceAddr = msg.sender */\n      swap1\n      pop\n        /* \"contracts/Management.sol\":436:447  _deviceAddr */\n      dup1\n        /* \"contracts/Management.sol\":396:409  deviceInfoMap */\n      0x00\n        /* \"contracts/Management.sol\":396:422  deviceInfoMap[_deviceAddr] */\n      dup1\n        /* \"contracts/Management.sol\":410:421  _deviceAddr */\n      dup4\n        /* \"contracts/Management.sol\":396:422  deviceInfoMap[_deviceAddr] */\n      0xffffffffffffffffffffffffffffffffffffffff\n      and\n      0xffffffffffffffffffffffffffffffffffffffff\n      and\n      dup2\n      mstore\n      0x20\n      add\n      swap1\n      dup2\n      mstore\n      0x20\n      add\n      0x00\n      keccak256\n        /* \"contracts/Management.sol\":396:433  deviceInfoMap[_deviceAddr].deviceAddr */\n      0x00\n      add\n      0x00\n        /* \"contracts/Management.sol\":396:447  deviceInfoMap[_deviceAddr].deviceAddr = _deviceAddr */\n      0x0100\n      exp\n      dup2\n      sload\n      dup2\n      0xffffffffffffffffffffffffffffffffffffffff\n      mul\n      not\n      and\n      swap1\n      dup4\n      0xffffffffffffffffffffffffffffffffffffffff\n      and\n      mul\n      or\n      swap1\n      sstore\n      pop\n        /* \"contracts/Management.sol\":498:509  _deviceName */\n      dup2\n        /* \"contracts/Management.sol\":458:471  deviceInfoMap */\n      0x00\n        /* \"contracts/Management.sol\":458:484  deviceInfoMap[_deviceAddr] */\n      dup1\n        /* \"contracts/Management.sol\":472:483  _deviceAddr */\n      dup4\n        /* \"contracts/Management.sol\":458:484  deviceInfoMap[_deviceAddr] */\n      0xffffffffffffffffffffffffffffffffffffffff\n      and\n      0xffffffffffffffffffffffffffffffffffffffff\n      and\n      dup2\n      mstore\n      0x20\n      add\n      swap1\n      dup2\n      mstore\n      0x20\n      add\n      0x00\n      keccak256\n        /* \"contracts/Management.sol\":458:495  deviceInfoMap[_deviceAddr].deviceName */\n      0x01\n      add\n        /* \"contracts/Management.sol\":458:509  deviceInfoMap[_deviceAddr].deviceName = _deviceName */\n      swap1\n      dup1\n      mload\n      swap1\n      0x20\n      add\n      swap1\n      tag_16\n      swap3\n      swap2\n      swap1\n      tag_17\n      jump\t// in\n    tag_16:\n      pop\n        /* \"contracts/Management.sol\":342:517  {\r... */\n      pop\n        /* \"contracts/Management.sol\":285:517  function setDeviceInfo(string memory _deviceName) public {\r... */\n      pop\n      jump\t// out\n        /* \"contracts/Management.sol\":525:655  function getDeviceInfoByAddr(address _addr) public view returns (DeviceInfo memory) {\r... */\n    tag_12:\n        /* \"contracts/Management.sol\":590:607  DeviceInfo memory */\n      tag_18\n      tag_19\n      jump\t// in\n    tag_18:\n        /* \"contracts/Management.sol\":627:640  deviceInfoMap */\n      0x00\n        /* \"contracts/Management.sol\":627:647  deviceInfoMap[_addr] */\n      dup1\n        /* \"contracts/Management.sol\":641:646  _addr */\n      dup4\n        /* \"contracts/Management.sol\":627:647  deviceInfoMap[_addr] */\n      0xffffffffffffffffffffffffffffffffffffffff\n      and\n      0xffffffffffffffffffffffffffffffffffffffff\n      and\n      dup2\n      mstore\n      0x20\n      add\n      swap1\n      dup2\n      mstore\n      0x20\n      add\n      0x00\n      keccak256\n        /* \"contracts/Management.sol\":620:647  return deviceInfoMap[_addr] */\n      mload(0x40)\n      dup1\n      0x40\n      add\n      0x40\n      mstore\n      swap1\n      dup2\n      0x00\n      dup3\n      add\n      0x00\n      swap1\n      sload\n      swap1\n      0x0100\n      exp\n      swap1\n      div\n      0xffffffffffffffffffffffffffffffffffffffff\n      and\n      0xffffffffffffffffffffffffffffffffffffffff\n      and\n      0xffffffffffffffffffffffffffffffffffffffff\n      and\n      dup2\n      mstore\n      0x20\n      add\n      0x01\n      dup3\n      add\n      dup1\n      sload\n      tag_21\n      swap1\n      tag_22\n      jump\t// in\n    tag_21:\n      dup1\n      0x1f\n      add\n      0x20\n      dup1\n      swap2\n      div\n      mul\n      0x20\n      add\n      mload(0x40)\n      swap1\n      dup2\n      add\n      0x40\n      mstore\n      dup1\n      swap3\n      swap2\n      swap1\n      dup2\n      dup2\n      mstore\n      0x20\n      add\n      dup3\n      dup1\n      sload\n      tag_23\n      swap1\n      tag_22\n      jump\t// in\n    tag_23:\n      dup1\n      iszero\n      tag_24\n      jumpi\n      dup1\n      0x1f\n      lt\n      tag_25\n      jumpi\n      0x0100\n      dup1\n      dup4\n      sload\n      div\n      mul\n      dup4\n      mstore\n      swap2\n      0x20\n      add\n      swap2\n      jump(tag_24)\n    tag_25:\n      dup3\n      add\n      swap2\n      swap1\n      0x00\n      mstore\n      keccak256(0x00, 0x20)\n      swap1\n    tag_26:\n      dup2\n      sload\n      dup2\n      mstore\n      swap1\n      0x01\n      add\n      swap1\n      0x20\n      add\n      dup1\n      dup4\n      gt\n      tag_26\n      jumpi\n      dup3\n      swap1\n      sub\n      0x1f\n      and\n      dup3\n      add\n      swap2\n    tag_24:\n      pop\n      pop\n      pop\n      pop\n      pop\n      dup2\n      mstore\n      pop\n      pop\n      swap1\n      pop\n        /* \"contracts/Management.sol\":525:655  function getDeviceInfoByAddr(address _addr) public view returns (DeviceInfo memory) {\r... */\n      swap2\n      swap1\n      pop\n      jump\t// out\n    tag_17:\n      dup3\n      dup1\n      sload\n      tag_27\n      swap1\n      tag_22\n      jump\t// in\n    tag_27:\n      swap1\n      0x00\n      mstore\n      keccak256(0x00, 0x20)\n      swap1\n      0x1f\n      add\n      0x20\n      swap1\n      div\n      dup2\n      add\n      swap3\n      dup3\n      tag_29\n      jumpi\n      0x00\n      dup6\n      sstore\n      jump(tag_28)\n    tag_29:\n      dup3\n      0x1f\n      lt\n      tag_30\n      jumpi\n      dup1\n      mload\n      not(0xff)\n      and\n      dup4\n      dup1\n      add\n      or\n      dup6\n      sstore\n      jump(tag_28)\n    tag_30:\n      dup3\n      dup1\n      add\n      0x01\n      add\n      dup6\n      sstore\n      dup3\n      iszero\n      tag_28\n      jumpi\n      swap2\n      dup3\n      add\n    tag_31:\n      dup3\n      dup2\n      gt\n      iszero\n      tag_32\n      jumpi\n      dup3\n      mload\n      dup3\n      sstore\n      swap2\n      0x20\n      add\n      swap2\n      swap1\n      0x01\n      add\n      swap1\n      jump(tag_31)\n    tag_32:\n    tag_28:\n      pop\n      swap1\n      pop\n      tag_33\n      swap2\n      swap1\n      tag_34\n      jump\t// in\n    tag_33:\n      pop\n      swap1\n      jump\t// out\n    tag_19:\n      mload(0x40)\n      dup1\n      0x40\n      add\n      0x40\n      mstore\n      dup1\n      and(0xffffffffffffffffffffffffffffffffffffffff, 0x00)\n      dup2\n      mstore\n      0x20\n      add\n      0x60\n      dup2\n      mstore\n      pop\n      swap1\n      jump\t// out\n    tag_34:\n    tag_35:\n      dup1\n      dup3\n      gt\n      iszero\n      tag_36\n      jumpi\n      0x00\n      dup2\n      0x00\n      swap1\n      sstore\n      pop\n      0x01\n      add\n      jump(tag_35)\n    tag_36:\n      pop\n      swap1\n      jump\t// out\n        /* \"#utility.yul\":7:419   */\n    tag_38:\n        /* \"#utility.yul\":85:90   */\n      0x00\n        /* \"#utility.yul\":110:176   */\n      tag_40\n        /* \"#utility.yul\":126:175   */\n      tag_41\n        /* \"#utility.yul\":168:174   */\n      dup5\n        /* \"#utility.yul\":126:175   */\n      tag_42\n      jump\t// in\n    tag_41:\n        /* \"#utility.yul\":110:176   */\n      tag_43\n      jump\t// in\n    tag_40:\n        /* \"#utility.yul\":101:176   */\n      swap1\n      pop\n        /* \"#utility.yul\":199:205   */\n      dup3\n        /* \"#utility.yul\":192:197   */\n      dup2\n        /* \"#utility.yul\":185:206   */\n      mstore\n        /* \"#utility.yul\":237:241   */\n      0x20\n        /* \"#utility.yul\":230:235   */\n      dup2\n        /* \"#utility.yul\":226:242   */\n      add\n        /* \"#utility.yul\":275:278   */\n      dup5\n        /* \"#utility.yul\":266:272   */\n      dup5\n        /* \"#utility.yul\":261:264   */\n      dup5\n        /* \"#utility.yul\":257:273   */\n      add\n        /* \"#utility.yul\":254:279   */\n      gt\n        /* \"#utility.yul\":251:363   */\n      iszero\n      tag_44\n      jumpi\n        /* \"#utility.yul\":282:361   */\n      tag_45\n      tag_46\n      jump\t// in\n    tag_45:\n        /* \"#utility.yul\":251:363   */\n    tag_44:\n        /* \"#utility.yul\":372:413   */\n      tag_47\n        /* \"#utility.yul\":406:412   */\n      dup5\n        /* \"#utility.yul\":401:404   */\n      dup3\n        /* \"#utility.yul\":396:399   */\n      dup6\n        /* \"#utility.yul\":372:413   */\n      tag_48\n      jump\t// in\n    tag_47:\n        /* \"#utility.yul\":91:419   */\n      pop\n        /* \"#utility.yul\":7:419   */\n      swap4\n      swap3\n      pop\n      pop\n      pop\n      jump\t// out\n        /* \"#utility.yul\":425:564   */\n    tag_49:\n        /* \"#utility.yul\":471:476   */\n      0x00\n        /* \"#utility.yul\":509:515   */\n      dup2\n        /* \"#utility.yul\":496:516   */\n      calldataload\n        /* \"#utility.yul\":487:516   */\n      swap1\n      pop\n        /* \"#utility.yul\":525:558   */\n      tag_51\n        /* \"#utility.yul\":552:557   */\n      dup2\n        /* \"#utility.yul\":525:558   */\n      tag_52\n      jump\t// in\n    tag_51:\n        /* \"#utility.yul\":425:564   */\n      swap3\n      swap2\n      pop\n      pop\n      jump\t// out\n        /* \"#utility.yul\":584:924   */\n    tag_53:\n        /* \"#utility.yul\":640:645   */\n      0x00\n        /* \"#utility.yul\":689:692   */\n      dup3\n        /* \"#utility.yul\":682:686   */\n      0x1f\n        /* \"#utility.yul\":674:680   */\n      dup4\n        /* \"#utility.yul\":670:687   */\n      add\n        /* \"#utility.yul\":666:693   */\n      slt\n        /* \"#utility.yul\":656:778   */\n      tag_55\n      jumpi\n        /* \"#utility.yul\":697:776   */\n      tag_56\n      tag_57\n      jump\t// in\n    tag_56:\n        /* \"#utility.yul\":656:778   */\n    tag_55:\n        /* \"#utility.yul\":814:820   */\n      dup2\n        /* \"#utility.yul\":801:821   */\n      calldataload\n        /* \"#utility.yul\":839:918   */\n      tag_58\n        /* \"#utility.yul\":914:917   */\n      dup5\n        /* \"#utility.yul\":906:912   */\n      dup3\n        /* \"#utility.yul\":899:903   */\n      0x20\n        /* \"#utility.yul\":891:897   */\n      dup7\n        /* \"#utility.yul\":887:904   */\n      add\n        /* \"#utility.yul\":839:918   */\n      tag_38\n      jump\t// in\n    tag_58:\n        /* \"#utility.yul\":830:918   */\n      swap2\n      pop\n        /* \"#utility.yul\":646:924   */\n      pop\n        /* \"#utility.yul\":584:924   */\n      swap3\n      swap2\n      pop\n      pop\n      jump\t// out\n        /* \"#utility.yul\":930:1259   */\n    tag_11:\n        /* \"#utility.yul\":989:995   */\n      0x00\n        /* \"#utility.yul\":1038:1040   */\n      0x20\n        /* \"#utility.yul\":1026:1035   */\n      dup3\n        /* \"#utility.yul\":1017:1024   */\n      dup5\n        /* \"#utility.yul\":1013:1036   */\n      sub\n        /* \"#utility.yul\":1009:1041   */\n      slt\n        /* \"#utility.yul\":1006:1125   */\n      iszero\n      tag_60\n      jumpi\n        /* \"#utility.yul\":1044:1123   */\n      tag_61\n      tag_62\n      jump\t// in\n    tag_61:\n        /* \"#utility.yul\":1006:1125   */\n    tag_60:\n        /* \"#utility.yul\":1164:1165   */\n      0x00\n        /* \"#utility.yul\":1189:1242   */\n      tag_63\n        /* \"#utility.yul\":1234:1241   */\n      dup5\n        /* \"#utility.yul\":1225:1231   */\n      dup3\n        /* \"#utility.yul\":1214:1223   */\n      dup6\n        /* \"#utility.yul\":1210:1232   */\n      add\n        /* \"#utility.yul\":1189:1242   */\n      tag_49\n      jump\t// in\n    tag_63:\n        /* \"#utility.yul\":1179:1242   */\n      swap2\n      pop\n        /* \"#utility.yul\":1135:1252   */\n      pop\n        /* \"#utility.yul\":930:1259   */\n      swap3\n      swap2\n      pop\n      pop\n      jump\t// out\n        /* \"#utility.yul\":1265:1774   */\n    tag_7:\n        /* \"#utility.yul\":1334:1340   */\n      0x00\n        /* \"#utility.yul\":1383:1385   */\n      0x20\n        /* \"#utility.yul\":1371:1380   */\n      dup3\n        /* \"#utility.yul\":1362:1369   */\n      dup5\n        /* \"#utility.yul\":1358:1381   */\n      sub\n        /* \"#utility.yul\":1354:1386   */\n      slt\n        /* \"#utility.yul\":1351:1470   */\n      iszero\n      tag_65\n      jumpi\n        /* \"#utility.yul\":1389:1468   */\n      tag_66\n      tag_62\n      jump\t// in\n    tag_66:\n        /* \"#utility.yul\":1351:1470   */\n    tag_65:\n        /* \"#utility.yul\":1537:1538   */\n      0x00\n        /* \"#utility.yul\":1526:1535   */\n      dup3\n        /* \"#utility.yul\":1522:1539   */\n      add\n        /* \"#utility.yul\":1509:1540   */\n      calldataload\n        /* \"#utility.yul\":1567:1585   */\n      0xffffffffffffffff\n        /* \"#utility.yul\":1559:1565   */\n      dup2\n        /* \"#utility.yul\":1556:1586   */\n      gt\n        /* \"#utility.yul\":1553:1670   */\n      iszero\n      tag_67\n      jumpi\n        /* \"#utility.yul\":1589:1668   */\n      tag_68\n      tag_69\n      jump\t// in\n    tag_68:\n        /* \"#utility.yul\":1553:1670   */\n    tag_67:\n        /* \"#utility.yul\":1694:1757   */\n      tag_70\n        /* \"#utility.yul\":1749:1756   */\n      dup5\n        /* \"#utility.yul\":1740:1746   */\n      dup3\n        /* \"#utility.yul\":1729:1738   */\n      dup6\n        /* \"#utility.yul\":1725:1747   */\n      add\n        /* \"#utility.yul\":1694:1757   */\n      tag_53\n      jump\t// in\n    tag_70:\n        /* \"#utility.yul\":1684:1757   */\n      swap2\n      pop\n        /* \"#utility.yul\":1480:1767   */\n      pop\n        /* \"#utility.yul\":1265:1774   */\n      swap3\n      swap2\n      pop\n      pop\n      jump\t// out\n        /* \"#utility.yul\":1780:1888   */\n    tag_71:\n        /* \"#utility.yul\":1857:1881   */\n      tag_73\n        /* \"#utility.yul\":1875:1880   */\n      dup2\n        /* \"#utility.yul\":1857:1881   */\n      tag_74\n      jump\t// in\n    tag_73:\n        /* \"#utility.yul\":1852:1855   */\n      dup3\n        /* \"#utility.yul\":1845:1882   */\n      mstore\n        /* \"#utility.yul\":1780:1888   */\n      pop\n      pop\n      jump\t// out\n        /* \"#utility.yul\":1894:2238   */\n    tag_75:\n        /* \"#utility.yul\":1972:1975   */\n      0x00\n        /* \"#utility.yul\":2000:2039   */\n      tag_77\n        /* \"#utility.yul\":2033:2038   */\n      dup3\n        /* \"#utility.yul\":2000:2039   */\n      tag_78\n      jump\t// in\n    tag_77:\n        /* \"#utility.yul\":2055:2116   */\n      tag_79\n        /* \"#utility.yul\":2109:2115   */\n      dup2\n        /* \"#utility.yul\":2104:2107   */\n      dup6\n        /* \"#utility.yul\":2055:2116   */\n      tag_80\n      jump\t// in\n    tag_79:\n        /* \"#utility.yul\":2048:2116   */\n      swap4\n      pop\n        /* \"#utility.yul\":2125:2177   */\n      tag_81\n        /* \"#utility.yul\":2170:2176   */\n      dup2\n        /* \"#utility.yul\":2165:2168   */\n      dup6\n        /* \"#utility.yul\":2158:2162   */\n      0x20\n        /* \"#utility.yul\":2151:2156   */\n      dup7\n        /* \"#utility.yul\":2147:2163   */\n      add\n        /* \"#utility.yul\":2125:2177   */\n      tag_82\n      jump\t// in\n    tag_81:\n        /* \"#utility.yul\":2202:2231   */\n      tag_83\n        /* \"#utility.yul\":2224:2230   */\n      dup2\n        /* \"#utility.yul\":2202:2231   */\n      tag_84\n      jump\t// in\n    tag_83:\n        /* \"#utility.yul\":2197:2200   */\n      dup5\n        /* \"#utility.yul\":2193:2232   */\n      add\n        /* \"#utility.yul\":2186:2232   */\n      swap2\n      pop\n        /* \"#utility.yul\":1976:2238   */\n      pop\n        /* \"#utility.yul\":1894:2238   */\n      swap3\n      swap2\n      pop\n      pop\n      jump\t// out\n        /* \"#utility.yul\":2312:2930   */\n    tag_85:\n        /* \"#utility.yul\":2431:2434   */\n      0x00\n        /* \"#utility.yul\":2467:2471   */\n      0x40\n        /* \"#utility.yul\":2462:2465   */\n      dup4\n        /* \"#utility.yul\":2458:2472   */\n      add\n        /* \"#utility.yul\":2560:2564   */\n      0x00\n        /* \"#utility.yul\":2553:2558   */\n      dup4\n        /* \"#utility.yul\":2549:2565   */\n      add\n        /* \"#utility.yul\":2543:2566   */\n      mload\n        /* \"#utility.yul\":2579:2642   */\n      tag_87\n        /* \"#utility.yul\":2636:2640   */\n      0x00\n        /* \"#utility.yul\":2631:2634   */\n      dup7\n        /* \"#utility.yul\":2627:2641   */\n      add\n        /* \"#utility.yul\":2613:2625   */\n      dup3\n        /* \"#utility.yul\":2579:2642   */\n      tag_71\n      jump\t// in\n    tag_87:\n        /* \"#utility.yul\":2482:2652   */\n      pop\n        /* \"#utility.yul\":2740:2744   */\n      0x20\n        /* \"#utility.yul\":2733:2738   */\n      dup4\n        /* \"#utility.yul\":2729:2745   */\n      add\n        /* \"#utility.yul\":2723:2746   */\n      mload\n        /* \"#utility.yul\":2793:2796   */\n      dup5\n        /* \"#utility.yul\":2787:2791   */\n      dup3\n        /* \"#utility.yul\":2783:2797   */\n      sub\n        /* \"#utility.yul\":2776:2780   */\n      0x20\n        /* \"#utility.yul\":2771:2774   */\n      dup7\n        /* \"#utility.yul\":2767:2781   */\n      add\n        /* \"#utility.yul\":2760:2798   */\n      mstore\n        /* \"#utility.yul\":2819:2892   */\n      tag_88\n        /* \"#utility.yul\":2887:2891   */\n      dup3\n        /* \"#utility.yul\":2873:2885   */\n      dup3\n        /* \"#utility.yul\":2819:2892   */\n      tag_75\n      jump\t// in\n    tag_88:\n        /* \"#utility.yul\":2811:2892   */\n      swap2\n      pop\n        /* \"#utility.yul\":2662:2903   */\n      pop\n        /* \"#utility.yul\":2920:2924   */\n      dup1\n        /* \"#utility.yul\":2913:2924   */\n      swap2\n      pop\n        /* \"#utility.yul\":2436:2930   */\n      pop\n        /* \"#utility.yul\":2312:2930   */\n      swap3\n      swap2\n      pop\n      pop\n      jump\t// out\n        /* \"#utility.yul\":2936:3309   */\n    tag_14:\n        /* \"#utility.yul\":3079:3083   */\n      0x00\n        /* \"#utility.yul\":3117:3119   */\n      0x20\n        /* \"#utility.yul\":3106:3115   */\n      dup3\n        /* \"#utility.yul\":3102:3120   */\n      add\n        /* \"#utility.yul\":3094:3120   */\n      swap1\n      pop\n        /* \"#utility.yul\":3166:3175   */\n      dup2\n        /* \"#utility.yul\":3160:3164   */\n      dup2\n        /* \"#utility.yul\":3156:3176   */\n      sub\n        /* \"#utility.yul\":3152:3153   */\n      0x00\n        /* \"#utility.yul\":3141:3150   */\n      dup4\n        /* \"#utility.yul\":3137:3154   */\n      add\n        /* \"#utility.yul\":3130:3177   */\n      mstore\n        /* \"#utility.yul\":3194:3302   */\n      tag_90\n        /* \"#utility.yul\":3297:3301   */\n      dup2\n        /* \"#utility.yul\":3288:3294   */\n      dup5\n        /* \"#utility.yul\":3194:3302   */\n      tag_85\n      jump\t// in\n    tag_90:\n        /* \"#utility.yul\":3186:3302   */\n      swap1\n      pop\n        /* \"#utility.yul\":2936:3309   */\n      swap3\n      swap2\n      pop\n      pop\n      jump\t// out\n        /* \"#utility.yul\":3315:3444   */\n    tag_43:\n        /* \"#utility.yul\":3349:3355   */\n      0x00\n        /* \"#utility.yul\":3376:3396   */\n      tag_92\n      tag_93\n      jump\t// in\n    tag_92:\n        /* \"#utility.yul\":3366:3396   */\n      swap1\n      pop\n        /* \"#utility.yul\":3405:3438   */\n      tag_94\n        /* \"#utility.yul\":3433:3437   */\n      dup3\n        /* \"#utility.yul\":3425:3431   */\n      dup3\n        /* \"#utility.yul\":3405:3438   */\n      tag_95\n      jump\t// in\n    tag_94:\n        /* \"#utility.yul\":3315:3444   */\n      swap2\n      swap1\n      pop\n      jump\t// out\n        /* \"#utility.yul\":3450:3525   */\n    tag_93:\n        /* \"#utility.yul\":3483:3489   */\n      0x00\n        /* \"#utility.yul\":3516:3518   */\n      0x40\n        /* \"#utility.yul\":3510:3519   */\n      mload\n        /* \"#utility.yul\":3500:3519   */\n      swap1\n      pop\n        /* \"#utility.yul\":3450:3525   */\n      swap1\n      jump\t// out\n        /* \"#utility.yul\":3531:3839   */\n    tag_42:\n        /* \"#utility.yul\":3593:3597   */\n      0x00\n        /* \"#utility.yul\":3683:3701   */\n      0xffffffffffffffff\n        /* \"#utility.yul\":3675:3681   */\n      dup3\n        /* \"#utility.yul\":3672:3702   */\n      gt\n        /* \"#utility.yul\":3669:3725   */\n      iszero\n      tag_98\n      jumpi\n        /* \"#utility.yul\":3705:3723   */\n      tag_99\n      tag_100\n      jump\t// in\n    tag_99:\n        /* \"#utility.yul\":3669:3725   */\n    tag_98:\n        /* \"#utility.yul\":3743:3772   */\n      tag_101\n        /* \"#utility.yul\":3765:3771   */\n      dup3\n        /* \"#utility.yul\":3743:3772   */\n      tag_84\n      jump\t// in\n    tag_101:\n        /* \"#utility.yul\":3735:3772   */\n      swap1\n      pop\n        /* \"#utility.yul\":3827:3831   */\n      0x20\n        /* \"#utility.yul\":3821:3825   */\n      dup2\n        /* \"#utility.yul\":3817:3832   */\n      add\n        /* \"#utility.yul\":3809:3832   */\n      swap1\n      pop\n        /* \"#utility.yul\":3531:3839   */\n      swap2\n      swap1\n      pop\n      jump\t// out\n        /* \"#utility.yul\":3845:3944   */\n    tag_78:\n        /* \"#utility.yul\":3897:3903   */\n      0x00\n        /* \"#utility.yul\":3931:3936   */\n      dup2\n        /* \"#utility.yul\":3925:3937   */\n      mload\n        /* \"#utility.yul\":3915:3937   */\n      swap1\n      pop\n        /* \"#utility.yul\":3845:3944   */\n      swap2\n      swap1\n      pop\n      jump\t// out\n        /* \"#utility.yul\":3950:4109   */\n    tag_80:\n        /* \"#utility.yul\":4024:4035   */\n      0x00\n        /* \"#utility.yul\":4058:4064   */\n      dup3\n        /* \"#utility.yul\":4053:4056   */\n      dup3\n        /* \"#utility.yul\":4046:4065   */\n      mstore\n        /* \"#utility.yul\":4098:4102   */\n      0x20\n        /* \"#utility.yul\":4093:4096   */\n      dup3\n        /* \"#utility.yul\":4089:4103   */\n      add\n        /* \"#utility.yul\":4074:4103   */\n      swap1\n      pop\n        /* \"#utility.yul\":3950:4109   */\n      swap3\n      swap2\n      pop\n      pop\n      jump\t// out\n        /* \"#utility.yul\":4115:4211   */\n    tag_74:\n        /* \"#utility.yul\":4152:4159   */\n      0x00\n        /* \"#utility.yul\":4181:4205   */\n      tag_105\n        /* \"#utility.yul\":4199:4204   */\n      dup3\n        /* \"#utility.yul\":4181:4205   */\n      tag_106\n      jump\t// in\n    tag_105:\n        /* \"#utility.yul\":4170:4205   */\n      swap1\n      pop\n        /* \"#utility.yul\":4115:4211   */\n      swap2\n      swap1\n      pop\n      jump\t// out\n        /* \"#utility.yul\":4217:4343   */\n    tag_106:\n        /* \"#utility.yul\":4254:4261   */\n      0x00\n        /* \"#utility.yul\":4294:4336   */\n      0xffffffffffffffffffffffffffffffffffffffff\n        /* \"#utility.yul\":4287:4292   */\n      dup3\n        /* \"#utility.yul\":4283:4337   */\n      and\n        /* \"#utility.yul\":4272:4337   */\n      swap1\n      pop\n        /* \"#utility.yul\":4217:4343   */\n      swap2\n      swap1\n      pop\n      jump\t// out\n        /* \"#utility.yul\":4349:4503   */\n    tag_48:\n        /* \"#utility.yul\":4433:4439   */\n      dup3\n        /* \"#utility.yul\":4428:4431   */\n      dup2\n        /* \"#utility.yul\":4423:4426   */\n      dup4\n        /* \"#utility.yul\":4410:4440   */\n      calldatacopy\n        /* \"#utility.yul\":4495:4496   */\n      0x00\n        /* \"#utility.yul\":4486:4492   */\n      dup4\n        /* \"#utility.yul\":4481:4484   */\n      dup4\n        /* \"#utility.yul\":4477:4493   */\n      add\n        /* \"#utility.yul\":4470:4497   */\n      mstore\n        /* \"#utility.yul\":4349:4503   */\n      pop\n      pop\n      pop\n      jump\t// out\n        /* \"#utility.yul\":4509:4816   */\n    tag_82:\n        /* \"#utility.yul\":4577:4578   */\n      0x00\n        /* \"#utility.yul\":4587:4700   */\n    tag_110:\n        /* \"#utility.yul\":4601:4607   */\n      dup4\n        /* \"#utility.yul\":4598:4599   */\n      dup2\n        /* \"#utility.yul\":4595:4608   */\n      lt\n        /* \"#utility.yul\":4587:4700   */\n      iszero\n      tag_112\n      jumpi\n        /* \"#utility.yul\":4686:4687   */\n      dup1\n        /* \"#utility.yul\":4681:4684   */\n      dup3\n        /* \"#utility.yul\":4677:4688   */\n      add\n        /* \"#utility.yul\":4671:4689   */\n      mload\n        /* \"#utility.yul\":4667:4668   */\n      dup2\n        /* \"#utility.yul\":4662:4665   */\n      dup5\n        /* \"#utility.yul\":4658:4669   */\n      add\n        /* \"#utility.yul\":4651:4690   */\n      mstore\n        /* \"#utility.yul\":4623:4625   */\n      0x20\n        /* \"#utility.yul\":4620:4621   */\n      dup2\n        /* \"#utility.yul\":4616:4626   */\n      add\n        /* \"#utility.yul\":4611:4626   */\n      swap1\n      pop\n        /* \"#utility.yul\":4587:4700   */\n      jump(tag_110)\n    tag_112:\n        /* \"#utility.yul\":4718:4724   */\n      dup4\n        /* \"#utility.yul\":4715:4716   */\n      dup2\n        /* \"#utility.yul\":4712:4725   */\n      gt\n        /* \"#utility.yul\":4709:4810   */\n      iszero\n      tag_113\n      jumpi\n        /* \"#utility.yul\":4798:4799   */\n      0x00\n        /* \"#utility.yul\":4789:4795   */\n      dup5\n        /* \"#utility.yul\":4784:4787   */\n      dup5\n        /* \"#utility.yul\":4780:4796   */\n      add\n        /* \"#utility.yul\":4773:4800   */\n      mstore\n        /* \"#utility.yul\":4709:4810   */\n    tag_113:\n        /* \"#utility.yul\":4558:4816   */\n      pop\n        /* \"#utility.yul\":4509:4816   */\n      pop\n      pop\n      pop\n      jump\t// out\n        /* \"#utility.yul\":4822:5142   */\n    tag_22:\n        /* \"#utility.yul\":4866:4872   */\n      0x00\n        /* \"#utility.yul\":4903:4904   */\n      0x02\n        /* \"#utility.yul\":4897:4901   */\n      dup3\n        /* \"#utility.yul\":4893:4905   */\n      div\n        /* \"#utility.yul\":4883:4905   */\n      swap1\n      pop\n        /* \"#utility.yul\":4950:4951   */\n      0x01\n        /* \"#utility.yul\":4944:4948   */\n      dup3\n        /* \"#utility.yul\":4940:4952   */\n      and\n        /* \"#utility.yul\":4971:4989   */\n      dup1\n        /* \"#utility.yul\":4961:5042   */\n      tag_115\n      jumpi\n        /* \"#utility.yul\":5027:5031   */\n      0x7f\n        /* \"#utility.yul\":5019:5025   */\n      dup3\n        /* \"#utility.yul\":5015:5032   */\n      and\n        /* \"#utility.yul\":5005:5032   */\n      swap2\n      pop\n        /* \"#utility.yul\":4961:5042   */\n    tag_115:\n        /* \"#utility.yul\":5089:5091   */\n      0x20\n        /* \"#utility.yul\":5081:5087   */\n      dup3\n        /* \"#utility.yul\":5078:5092   */\n      lt\n        /* \"#utility.yul\":5058:5076   */\n      dup2\n        /* \"#utility.yul\":5055:5093   */\n      eq\n        /* \"#utility.yul\":5052:5136   */\n      iszero\n      tag_116\n      jumpi\n        /* \"#utility.yul\":5108:5126   */\n      tag_117\n      tag_118\n      jump\t// in\n    tag_117:\n        /* \"#utility.yul\":5052:5136   */\n    tag_116:\n        /* \"#utility.yul\":4873:5142   */\n      pop\n        /* \"#utility.yul\":4822:5142   */\n      swap2\n      swap1\n      pop\n      jump\t// out\n        /* \"#utility.yul\":5148:5429   */\n    tag_95:\n        /* \"#utility.yul\":5231:5258   */\n      tag_120\n        /* \"#utility.yul\":5253:5257   */\n      dup3\n        /* \"#utility.yul\":5231:5258   */\n      tag_84\n      jump\t// in\n    tag_120:\n        /* \"#utility.yul\":5223:5229   */\n      dup2\n        /* \"#utility.yul\":5219:5259   */\n      add\n        /* \"#utility.yul\":5361:5367   */\n      dup2\n        /* \"#utility.yul\":5349:5359   */\n      dup2\n        /* \"#utility.yul\":5346:5368   */\n      lt\n        /* \"#utility.yul\":5325:5343   */\n      0xffffffffffffffff\n        /* \"#utility.yul\":5313:5323   */\n      dup3\n        /* \"#utility.yul\":5310:5344   */\n      gt\n        /* \"#utility.yul\":5307:5369   */\n      or\n        /* \"#utility.yul\":5304:5392   */\n      iszero\n      tag_121\n      jumpi\n        /* \"#utility.yul\":5372:5390   */\n      tag_122\n      tag_100\n      jump\t// in\n    tag_122:\n        /* \"#utility.yul\":5304:5392   */\n    tag_121:\n        /* \"#utility.yul\":5412:5422   */\n      dup1\n        /* \"#utility.yul\":5408:5410   */\n      0x40\n        /* \"#utility.yul\":5401:5423   */\n      mstore\n        /* \"#utility.yul\":5191:5429   */\n      pop\n        /* \"#utility.yul\":5148:5429   */\n      pop\n      pop\n      jump\t// out\n        /* \"#utility.yul\":5435:5615   */\n    tag_118:\n        /* \"#utility.yul\":5483:5560   */\n      0x4e487b7100000000000000000000000000000000000000000000000000000000\n        /* \"#utility.yul\":5480:5481   */\n      0x00\n        /* \"#utility.yul\":5473:5561   */\n      mstore\n        /* \"#utility.yul\":5580:5584   */\n      0x22\n        /* \"#utility.yul\":5577:5578   */\n      0x04\n        /* \"#utility.yul\":5570:5585   */\n      mstore\n        /* \"#utility.yul\":5604:5608   */\n      0x24\n        /* \"#utility.yul\":5601:5602   */\n      0x00\n        /* \"#utility.yul\":5594:5609   */\n      revert\n        /* \"#utility.yul\":5621:5801   */\n    tag_100:\n        /* \"#utility.yul\":5669:5746   */\n      0x4e487b7100000000000000000000000000000000000000000000000000000000\n        /* \"#utility.yul\":5666:5667   */\n      0x00\n        /* \"#utility.yul\":5659:5747   */\n      mstore\n        /* \"#utility.yul\":5766:5770   */\n      0x41\n        /* \"#utility.yul\":5763:5764   */\n      0x04\n        /* \"#utility.yul\":5756:5771   */\n      mstore\n        /* \"#utility.yul\":5790:5794   */\n      0x24\n        /* \"#utility.yul\":5787:5788   */\n      0x00\n        /* \"#utility.yul\":5780:5795   */\n      revert\n        /* \"#utility.yul\":5807:5924   */\n    tag_57:\n        /* \"#utility.yul\":5916:5917   */\n      0x00\n        /* \"#utility.yul\":5913:5914   */\n      dup1\n        /* \"#utility.yul\":5906:5918   */\n      revert\n        /* \"#utility.yul\":5930:6047   */\n    tag_46:\n        /* \"#utility.yul\":6039:6040   */\n      0x00\n        /* \"#utility.yul\":6036:6037   */\n      dup1\n        /* \"#utility.yul\":6029:6041   */\n      revert\n        /* \"#utility.yul\":6053:6170   */\n    tag_69:\n        /* \"#utility.yul\":6162:6163   */\n      0x00\n        /* \"#utility.yul\":6159:6160   */\n      dup1\n        /* \"#utility.yul\":6152:6164   */\n      revert\n        /* \"#utility.yul\":6176:6293   */\n    tag_62:\n        /* \"#utility.yul\":6285:6286   */\n      0x00\n        /* \"#utility.yul\":6282:6283   */\n      dup1\n        /* \"#utility.yul\":6275:6287   */\n      revert\n        /* \"#utility.yul\":6299:6401   */\n    tag_84:\n        /* \"#utility.yul\":6340:6346   */\n      0x00\n        /* \"#utility.yul\":6391:6393   */\n      0x1f\n        /* \"#utility.yul\":6387:6394   */\n      not\n        /* \"#utility.yul\":6382:6384   */\n      0x1f\n        /* \"#utility.yul\":6375:6380   */\n      dup4\n        /* \"#utility.yul\":6371:6385   */\n      add\n        /* \"#utility.yul\":6367:6395   */\n      and\n        /* \"#utility.yul\":6357:6395   */\n      swap1\n      pop\n        /* \"#utility.yul\":6299:6401   */\n      swap2\n      swap1\n      pop\n      jump\t// out\n        /* \"#utility.yul\":6407:6529   */\n    tag_52:\n        /* \"#utility.yul\":6480:6504   */\n      tag_131\n        /* \"#utility.yul\":6498:6503   */\n      dup2\n        /* \"#utility.yul\":6480:6504   */\n      tag_74\n      jump\t// in\n    tag_131:\n        /* \"#utility.yul\":6473:6478   */\n      dup2\n        /* \"#utility.yul\":6470:6505   */\n      eq\n        /* \"#utility.yul\":6460:6523   */\n      tag_132\n      jumpi\n        /* \"#utility.yul\":6519:6520   */\n      0x00\n        /* \"#utility.yul\":6516:6517   */\n      dup1\n        /* \"#utility.yul\":6509:6521   */\n      revert\n        /* \"#utility.yul\":6460:6523   */\n    tag_132:\n        /* \"#utility.yul\":6407:6529   */\n      pop\n      jump\t// out\n\n    auxdata: 0xa26469706673582212204bba163668fcae0b1df218f4a454336b9135160baac349e1870716099a68c1f364736f6c63430008070033\n}\n",
				"bytecode": {
					"linkReferences": {},
					"object": "608060405234801561001057600080fd5b50610734806100206000396000f3fe608060405234801561001057600080fd5b50600436106100365760003560e01c8063556598ea1461003b578063de1e23b714610057575b600080fd5b6100556004803603810190610050919061042b565b610087565b005b610071600480360381019061006c91906103fe565b610166565b60405161007e91906104f9565b60405180910390f35b6000339050806000808373ffffffffffffffffffffffffffffffffffffffff1673ffffffffffffffffffffffffffffffffffffffff16815260200190815260200160002060000160006101000a81548173ffffffffffffffffffffffffffffffffffffffff021916908373ffffffffffffffffffffffffffffffffffffffff160217905550816000808373ffffffffffffffffffffffffffffffffffffffff1673ffffffffffffffffffffffffffffffffffffffff16815260200190815260200160002060010190805190602001906101619291906102a6565b505050565b61016e61032c565b6000808373ffffffffffffffffffffffffffffffffffffffff1673ffffffffffffffffffffffffffffffffffffffff1681526020019081526020016000206040518060400160405290816000820160009054906101000a900473ffffffffffffffffffffffffffffffffffffffff1673ffffffffffffffffffffffffffffffffffffffff1673ffffffffffffffffffffffffffffffffffffffff16815260200160018201805461021d90610601565b80601f016020809104026020016040519081016040528092919081815260200182805461024990610601565b80156102965780601f1061026b57610100808354040283529160200191610296565b820191906000526020600020905b81548152906001019060200180831161027957829003601f168201915b5050505050815250509050919050565b8280546102b290610601565b90600052602060002090601f0160209004810192826102d4576000855561031b565b82601f106102ed57805160ff191683800117855561031b565b8280016001018555821561031b579182015b8281111561031a5782518255916020019190600101906102ff565b5b509050610328919061035c565b5090565b6040518060400160405280600073ffffffffffffffffffffffffffffffffffffffff168152602001606081525090565b5b8082111561037557600081600090555060010161035d565b5090565b600061038c61038784610540565b61051b565b9050828152602081018484840111156103a8576103a76106c7565b5b6103b38482856105bf565b509392505050565b6000813590506103ca816106e7565b92915050565b600082601f8301126103e5576103e46106c2565b5b81356103f5848260208601610379565b91505092915050565b600060208284031215610414576104136106d1565b5b6000610422848285016103bb565b91505092915050565b600060208284031215610441576104406106d1565b5b600082013567ffffffffffffffff81111561045f5761045e6106cc565b5b61046b848285016103d0565b91505092915050565b61047d8161058d565b82525050565b600061048e82610571565b610498818561057c565b93506104a88185602086016105ce565b6104b1816106d6565b840191505092915050565b60006040830160008301516104d46000860182610474565b50602083015184820360208601526104ec8282610483565b9150508091505092915050565b6000602082019050818103600083015261051381846104bc565b905092915050565b6000610525610536565b90506105318282610633565b919050565b6000604051905090565b600067ffffffffffffffff82111561055b5761055a610693565b5b610564826106d6565b9050602081019050919050565b600081519050919050565b600082825260208201905092915050565b60006105988261059f565b9050919050565b600073ffffffffffffffffffffffffffffffffffffffff82169050919050565b82818337600083830152505050565b60005b838110156105ec5780820151818401526020810190506105d1565b838111156105fb576000848401525b50505050565b6000600282049050600182168061061957607f821691505b6020821081141561062d5761062c610664565b5b50919050565b61063c826106d6565b810181811067ffffffffffffffff8211171561065b5761065a610693565b5b80604052505050565b7f4e487b7100000000000000000000000000000000000000000000000000000000600052602260045260246000fd5b7f4e487b7100000000000000000000000000000000000000000000000000000000600052604160045260246000fd5b600080fd5b600080fd5b600080fd5b600080fd5b6000601f19601f8301169050919050565b6106f08161058d565b81146106fb57600080fd5b5056fea26469706673582212204bba163668fcae0b1df218f4a454336b9135160baac349e1870716099a68c1f364736f6c63430008070033",
					"opcodes": "PUSH1 0x80 PUSH1 0x40 MSTORE CALLVALUE DUP1 ISZERO PUSH2 0x10 JUMPI PUSH1 0x0 DUP1 REVERT JUMPDEST POP PUSH2 0x734 DUP1 PUSH2 0x20 PUSH1 0x0 CODECOPY PUSH1 0x0 RETURN INVALID PUSH1 0x80 PUSH1 0x40 MSTORE CALLVALUE DUP1 ISZERO PUSH2 0x10 JUMPI PUSH1 0x0 DUP1 REVERT JUMPDEST POP PUSH1 0x4 CALLDATASIZE LT PUSH2 0x36 JUMPI PUSH1 0x0 CALLDATALOAD PUSH1 0xE0 SHR DUP1 PUSH4 0x556598EA EQ PUSH2 0x3B JUMPI DUP1 PUSH4 0xDE1E23B7 EQ PUSH2 0x57 JUMPI JUMPDEST PUSH1 0x0 DUP1 REVERT JUMPDEST PUSH2 0x55 PUSH1 0x4 DUP1 CALLDATASIZE SUB DUP2 ADD SWAP1 PUSH2 0x50 SWAP2 SWAP1 PUSH2 0x42B JUMP JUMPDEST PUSH2 0x87 JUMP JUMPDEST STOP JUMPDEST PUSH2 0x71 PUSH1 0x4 DUP1 CALLDATASIZE SUB DUP2 ADD SWAP1 PUSH2 0x6C SWAP2 SWAP1 PUSH2 0x3FE JUMP JUMPDEST PUSH2 0x166 JUMP JUMPDEST PUSH1 0x40 MLOAD PUSH2 0x7E SWAP2 SWAP1 PUSH2 0x4F9 JUMP JUMPDEST PUSH1 0x40 MLOAD DUP1 SWAP2 SUB SWAP1 RETURN JUMPDEST PUSH1 0x0 CALLER SWAP1 POP DUP1 PUSH1 0x0 DUP1 DUP4 PUSH20 0xFFFFFFFFFFFFFFFFFFFFFFFFFFFFFFFFFFFFFFFF AND PUSH20 0xFFFFFFFFFFFFFFFFFFFFFFFFFFFFFFFFFFFFFFFF AND DUP2 MSTORE PUSH1 0x20 ADD SWAP1 DUP2 MSTORE PUSH1 0x20 ADD PUSH1 0x0 KECCAK256 PUSH1 0x0 ADD PUSH1 0x0 PUSH2 0x100 EXP DUP2 SLOAD DUP2 PUSH20 0xFFFFFFFFFFFFFFFFFFFFFFFFFFFFFFFFFFFFFFFF MUL NOT AND SWAP1 DUP4 PUSH20 0xFFFFFFFFFFFFFFFFFFFFFFFFFFFFFFFFFFFFFFFF AND MUL OR SWAP1 SSTORE POP DUP2 PUSH1 0x0 DUP1 DUP4 PUSH20 0xFFFFFFFFFFFFFFFFFFFFFFFFFFFFFFFFFFFFFFFF AND PUSH20 0xFFFFFFFFFFFFFFFFFFFFFFFFFFFFFFFFFFFFFFFF AND DUP2 MSTORE PUSH1 0x20 ADD SWAP1 DUP2 MSTORE PUSH1 0x20 ADD PUSH1 0x0 KECCAK256 PUSH1 0x1 ADD SWAP1 DUP1 MLOAD SWAP1 PUSH1 0x20 ADD SWAP1 PUSH2 0x161 SWAP3 SWAP2 SWAP1 PUSH2 0x2A6 JUMP JUMPDEST POP POP POP JUMP JUMPDEST PUSH2 0x16E PUSH2 0x32C JUMP JUMPDEST PUSH1 0x0 DUP1 DUP4 PUSH20 0xFFFFFFFFFFFFFFFFFFFFFFFFFFFFFFFFFFFFFFFF AND PUSH20 0xFFFFFFFFFFFFFFFFFFFFFFFFFFFFFFFFFFFFFFFF AND DUP2 MSTORE PUSH1 0x20 ADD SWAP1 DUP2 MSTORE PUSH1 0x20 ADD PUSH1 0x0 KECCAK256 PUSH1 0x40 MLOAD DUP1 PUSH1 0x40 ADD PUSH1 0x40 MSTORE SWAP1 DUP2 PUSH1 0x0 DUP3 ADD PUSH1 0x0 SWAP1 SLOAD SWAP1 PUSH2 0x100 EXP SWAP1 DIV PUSH20 0xFFFFFFFFFFFFFFFFFFFFFFFFFFFFFFFFFFFFFFFF AND PUSH20 0xFFFFFFFFFFFFFFFFFFFFFFFFFFFFFFFFFFFFFFFF AND PUSH20 0xFFFFFFFFFFFFFFFFFFFFFFFFFFFFFFFFFFFFFFFF AND DUP2 MSTORE PUSH1 0x20 ADD PUSH1 0x1 DUP3 ADD DUP1 SLOAD PUSH2 0x21D SWAP1 PUSH2 0x601 JUMP JUMPDEST DUP1 PUSH1 0x1F ADD PUSH1 0x20 DUP1 SWAP2 DIV MUL PUSH1 0x20 ADD PUSH1 0x40 MLOAD SWAP1 DUP2 ADD PUSH1 0x40 MSTORE DUP1 SWAP3 SWAP2 SWAP1 DUP2 DUP2 MSTORE PUSH1 0x20 ADD DUP3 DUP1 SLOAD PUSH2 0x249 SWAP1 PUSH2 0x601 JUMP JUMPDEST DUP1 ISZERO PUSH2 0x296 JUMPI DUP1 PUSH1 0x1F LT PUSH2 0x26B JUMPI PUSH2 0x100 DUP1 DUP4 SLOAD DIV MUL DUP4 MSTORE SWAP2 PUSH1 0x20 ADD SWAP2 PUSH2 0x296 JUMP JUMPDEST DUP3 ADD SWAP2 SWAP1 PUSH1 0x0 MSTORE PUSH1 0x20 PUSH1 0x0 KECCAK256 SWAP1 JUMPDEST DUP2 SLOAD DUP2 MSTORE SWAP1 PUSH1 0x1 ADD SWAP1 PUSH1 0x20 ADD DUP1 DUP4 GT PUSH2 0x279 JUMPI DUP3 SWAP1 SUB PUSH1 0x1F AND DUP3 ADD SWAP2 JUMPDEST POP POP POP POP POP DUP2 MSTORE POP POP SWAP1 POP SWAP2 SWAP1 POP JUMP JUMPDEST DUP3 DUP1 SLOAD PUSH2 0x2B2 SWAP1 PUSH2 0x601 JUMP JUMPDEST SWAP1 PUSH1 0x0 MSTORE PUSH1 0x20 PUSH1 0x0 KECCAK256 SWAP1 PUSH1 0x1F ADD PUSH1 0x20 SWAP1 DIV DUP2 ADD SWAP3 DUP3 PUSH2 0x2D4 JUMPI PUSH1 0x0 DUP6 SSTORE PUSH2 0x31B JUMP JUMPDEST DUP3 PUSH1 0x1F LT PUSH2 0x2ED JUMPI DUP1 MLOAD PUSH1 0xFF NOT AND DUP4 DUP1 ADD OR DUP6 SSTORE PUSH2 0x31B JUMP JUMPDEST DUP3 DUP1 ADD PUSH1 0x1 ADD DUP6 SSTORE DUP3 ISZERO PUSH2 0x31B JUMPI SWAP2 DUP3 ADD JUMPDEST DUP3 DUP2 GT ISZERO PUSH2 0x31A JUMPI DUP3 MLOAD DUP3 SSTORE SWAP2 PUSH1 0x20 ADD SWAP2 SWAP1 PUSH1 0x1 ADD SWAP1 PUSH2 0x2FF JUMP JUMPDEST JUMPDEST POP SWAP1 POP PUSH2 0x328 SWAP2 SWAP1 PUSH2 0x35C JUMP JUMPDEST POP SWAP1 JUMP JUMPDEST PUSH1 0x40 MLOAD DUP1 PUSH1 0x40 ADD PUSH1 0x40 MSTORE DUP1 PUSH1 0x0 PUSH20 0xFFFFFFFFFFFFFFFFFFFFFFFFFFFFFFFFFFFFFFFF AND DUP2 MSTORE PUSH1 0x20 ADD PUSH1 0x60 DUP2 MSTORE POP SWAP1 JUMP JUMPDEST JUMPDEST DUP1 DUP3 GT ISZERO PUSH2 0x375 JUMPI PUSH1 0x0 DUP2 PUSH1 0x0 SWAP1 SSTORE POP PUSH1 0x1 ADD PUSH2 0x35D JUMP JUMPDEST POP SWAP1 JUMP JUMPDEST PUSH1 0x0 PUSH2 0x38C PUSH2 0x387 DUP5 PUSH2 0x540 JUMP JUMPDEST PUSH2 0x51B JUMP JUMPDEST SWAP1 POP DUP3 DUP2 MSTORE PUSH1 0x20 DUP2 ADD DUP5 DUP5 DUP5 ADD GT ISZERO PUSH2 0x3A8 JUMPI PUSH2 0x3A7 PUSH2 0x6C7 JUMP JUMPDEST JUMPDEST PUSH2 0x3B3 DUP5 DUP3 DUP6 PUSH2 0x5BF JUMP JUMPDEST POP SWAP4 SWAP3 POP POP POP JUMP JUMPDEST PUSH1 0x0 DUP2 CALLDATALOAD SWAP1 POP PUSH2 0x3CA DUP2 PUSH2 0x6E7 JUMP JUMPDEST SWAP3 SWAP2 POP POP JUMP JUMPDEST PUSH1 0x0 DUP3 PUSH1 0x1F DUP4 ADD SLT PUSH2 0x3E5 JUMPI PUSH2 0x3E4 PUSH2 0x6C2 JUMP JUMPDEST JUMPDEST DUP2 CALLDATALOAD PUSH2 0x3F5 DUP5 DUP3 PUSH1 0x20 DUP7 ADD PUSH2 0x379 JUMP JUMPDEST SWAP2 POP POP SWAP3 SWAP2 POP POP JUMP JUMPDEST PUSH1 0x0 PUSH1 0x20 DUP3 DUP5 SUB SLT ISZERO PUSH2 0x414 JUMPI PUSH2 0x413 PUSH2 0x6D1 JUMP JUMPDEST JUMPDEST PUSH1 0x0 PUSH2 0x422 DUP5 DUP3 DUP6 ADD PUSH2 0x3BB JUMP JUMPDEST SWAP2 POP POP SWAP3 SWAP2 POP POP JUMP JUMPDEST PUSH1 0x0 PUSH1 0x20 DUP3 DUP5 SUB SLT ISZERO PUSH2 0x441 JUMPI PUSH2 0x440 PUSH2 0x6D1 JUMP JUMPDEST JUMPDEST PUSH1 0x0 DUP3 ADD CALLDATALOAD PUSH8 0xFFFFFFFFFFFFFFFF DUP2 GT ISZERO PUSH2 0x45F JUMPI PUSH2 0x45E PUSH2 0x6CC JUMP JUMPDEST JUMPDEST PUSH2 0x46B DUP5 DUP3 DUP6 ADD PUSH2 0x3D0 JUMP JUMPDEST SWAP2 POP POP SWAP3 SWAP2 POP POP JUMP JUMPDEST PUSH2 0x47D DUP2 PUSH2 0x58D JUMP JUMPDEST DUP3 MSTORE POP POP JUMP JUMPDEST PUSH1 0x0 PUSH2 0x48E DUP3 PUSH2 0x571 JUMP JUMPDEST PUSH2 0x498 DUP2 DUP6 PUSH2 0x57C JUMP JUMPDEST SWAP4 POP PUSH2 0x4A8 DUP2 DUP6 PUSH1 0x20 DUP7 ADD PUSH2 0x5CE JUMP JUMPDEST PUSH2 0x4B1 DUP2 PUSH2 0x6D6 JUMP JUMPDEST DUP5 ADD SWAP2 POP POP SWAP3 SWAP2 POP POP JUMP JUMPDEST PUSH1 0x0 PUSH1 0x40 DUP4 ADD PUSH1 0x0 DUP4 ADD MLOAD PUSH2 0x4D4 PUSH1 0x0 DUP7 ADD DUP3 PUSH2 0x474 JUMP JUMPDEST POP PUSH1 0x20 DUP4 ADD MLOAD DUP5 DUP3 SUB PUSH1 0x20 DUP7 ADD MSTORE PUSH2 0x4EC DUP3 DUP3 PUSH2 0x483 JUMP JUMPDEST SWAP2 POP POP DUP1 SWAP2 POP POP SWAP3 SWAP2 POP POP JUMP JUMPDEST PUSH1 0x0 PUSH1 0x20 DUP3 ADD SWAP1 POP DUP2 DUP2 SUB PUSH1 0x0 DUP4 ADD MSTORE PUSH2 0x513 DUP2 DUP5 PUSH2 0x4BC JUMP JUMPDEST SWAP1 POP SWAP3 SWAP2 POP POP JUMP JUMPDEST PUSH1 0x0 PUSH2 0x525 PUSH2 0x536 JUMP JUMPDEST SWAP1 POP PUSH2 0x531 DUP3 DUP3 PUSH2 0x633 JUMP JUMPDEST SWAP2 SWAP1 POP JUMP JUMPDEST PUSH1 0x0 PUSH1 0x40 MLOAD SWAP1 POP SWAP1 JUMP JUMPDEST PUSH1 0x0 PUSH8 0xFFFFFFFFFFFFFFFF DUP3 GT ISZERO PUSH2 0x55B JUMPI PUSH2 0x55A PUSH2 0x693 JUMP JUMPDEST JUMPDEST PUSH2 0x564 DUP3 PUSH2 0x6D6 JUMP JUMPDEST SWAP1 POP PUSH1 0x20 DUP2 ADD SWAP1 POP SWAP2 SWAP1 POP JUMP JUMPDEST PUSH1 0x0 DUP2 MLOAD SWAP1 POP SWAP2 SWAP1 POP JUMP JUMPDEST PUSH1 0x0 DUP3 DUP3 MSTORE PUSH1 0x20 DUP3 ADD SWAP1 POP SWAP3 SWAP2 POP POP JUMP JUMPDEST PUSH1 0x0 PUSH2 0x598 DUP3 PUSH2 0x59F JUMP JUMPDEST SWAP1 POP SWAP2 SWAP1 POP JUMP JUMPDEST PUSH1 0x0 PUSH20 0xFFFFFFFFFFFFFFFFFFFFFFFFFFFFFFFFFFFFFFFF DUP3 AND SWAP1 POP SWAP2 SWAP1 POP JUMP JUMPDEST DUP3 DUP2 DUP4 CALLDATACOPY PUSH1 0x0 DUP4 DUP4 ADD MSTORE POP POP POP JUMP JUMPDEST PUSH1 0x0 JUMPDEST DUP4 DUP2 LT ISZERO PUSH2 0x5EC JUMPI DUP1 DUP3 ADD MLOAD DUP2 DUP5 ADD MSTORE PUSH1 0x20 DUP2 ADD SWAP1 POP PUSH2 0x5D1 JUMP JUMPDEST DUP4 DUP2 GT ISZERO PUSH2 0x5FB JUMPI PUSH1 0x0 DUP5 DUP5 ADD MSTORE JUMPDEST POP POP POP POP JUMP JUMPDEST PUSH1 0x0 PUSH1 0x2 DUP3 DIV SWAP1 POP PUSH1 0x1 DUP3 AND DUP1 PUSH2 0x619 JUMPI PUSH1 0x7F DUP3 AND SWAP2 POP JUMPDEST PUSH1 0x20 DUP3 LT DUP2 EQ ISZERO PUSH2 0x62D JUMPI PUSH2 0x62C PUSH2 0x664 JUMP JUMPDEST JUMPDEST POP SWAP2 SWAP1 POP JUMP JUMPDEST PUSH2 0x63C DUP3 PUSH2 0x6D6 JUMP JUMPDEST DUP2 ADD DUP2 DUP2 LT PUSH8 0xFFFFFFFFFFFFFFFF DUP3 GT OR ISZERO PUSH2 0x65B JUMPI PUSH2 0x65A PUSH2 0x693 JUMP JUMPDEST JUMPDEST DUP1 PUSH1 0x40 MSTORE POP POP POP JUMP JUMPDEST PUSH32 0x4E487B7100000000000000000000000000000000000000000000000000000000 PUSH1 0x0 MSTORE PUSH1 0x22 PUSH1 0x4 MSTORE PUSH1 0x24 PUSH1 0x0 REVERT JUMPDEST PUSH32 0x4E487B7100000000000000000000000000000000000000000000000000000000 PUSH1 0x0 MSTORE PUSH1 0x41 PUSH1 0x4 MSTORE PUSH1 0x24 PUSH1 0x0 REVERT JUMPDEST PUSH1 0x0 DUP1 REVERT JUMPDEST PUSH1 0x0 DUP1 REVERT JUMPDEST PUSH1 0x0 DUP1 REVERT JUMPDEST PUSH1 0x0 DUP1 REVERT JUMPDEST PUSH1 0x0 PUSH1 0x1F NOT PUSH1 0x1F DUP4 ADD AND SWAP1 POP SWAP2 SWAP1 POP JUMP JUMPDEST PUSH2 0x6F0 DUP2 PUSH2 0x58D JUMP JUMPDEST DUP2 EQ PUSH2 0x6FB JUMPI PUSH1 0x0 DUP1 REVERT JUMPDEST POP JUMP INVALID LOG2 PUSH5 0x6970667358 0x22 SLT KECCAK256 0x4B 0xBA AND CALLDATASIZE PUSH9 0xFCAE0B1DF218F4A454 CALLER PUSH12 0x9135160BAAC349E187071609 SWAP11 PUSH9 0xC1F364736F6C634300 ADDMOD SMOD STOP CALLER "
				},
				"gasEstimates": {
					"creation": {
						"codeDepositCost": "368800",
						"executionCost": "405",
						"totalCost": "369205"
					},
					"external": {
						"getDeviceInfoByAddr(address)": "infinite",
						"setDeviceInfo(string)": "infinite"
					}
				},
				"methodIdentifiers": {
					"getDeviceInfoByAddr(address)": "de1e23b7",
					"setDeviceInfo(string)": "556598ea"
				}
			},
			"userdoc": {
				"kind": "user",
				"methods": {},
				"version": 1
			}
		}
	}
}