{
	"contracts/AccessControl.sol": {
		"AccessControl": {
			"abi": [
				{
					"anonymous": false,
					"inputs": [
						{
							"indexed": false,
							"internalType": "address",
							"name": "from",
							"type": "address"
						},
						{
							"indexed": false,
							"internalType": "address",
							"name": "to",
							"type": "address"
						},
						{
							"indexed": false,
							"internalType": "string",
							"name": "action",
							"type": "string"
						},
						{
							"indexed": false,
							"internalType": "string",
							"name": "result",
							"type": "string"
						}
					],
					"name": "AccessControlRet",
					"type": "event"
				},
				{
					"inputs": [
						{
							"internalType": "address",
							"name": "_objectAddr",
							"type": "address"
						},
						{
							"internalType": "string",
							"name": "action",
							"type": "string"
						}
					],
					"name": "accessControl",
					"outputs": [
						{
							"internalType": "bool",
							"name": "res",
							"type": "bool"
						}
					],
					"stateMutability": "nonpayable",
					"type": "function"
				},
				{
					"inputs": [],
					"name": "getCurTime",
					"outputs": [
						{
							"internalType": "uint256",
							"name": "",
							"type": "uint256"
						}
					],
					"stateMutability": "view",
					"type": "function"
				},
				{
					"inputs": [
						{
							"internalType": "address",
							"name": "_sender",
							"type": "address"
						}
					],
					"name": "getTimeOfLastRequest",
					"outputs": [
						{
							"internalType": "uint256",
							"name": "time",
							"type": "uint256"
						}
					],
					"stateMutability": "view",
					"type": "function"
				},
				{
					"inputs": [
						{
							"internalType": "address",
							"name": "_MCAddr",
							"type": "address"
						},
						{
							"internalType": "address",
							"name": "_JCAddr",
							"type": "address"
						}
					],
					"name": "init",
					"outputs": [],
					"stateMutability": "nonpayable",
					"type": "function"
				}
			],
			"devdoc": {
				"kind": "dev",
				"methods": {},
				"version": 1
			},
			"evm": {
				"assembly": "    /* \"contracts/AccessControl.sol\":121:2298  contract AccessControl {\r... */\n  mstore(0x40, 0x80)\n  callvalue\n  dup1\n  iszero\n  tag_1\n  jumpi\n  0x00\n  dup1\n  revert\ntag_1:\n  pop\n  dataSize(sub_0)\n  dup1\n  dataOffset(sub_0)\n  0x00\n  codecopy\n  0x00\n  return\nstop\n\nsub_0: assembly {\n        /* \"contracts/AccessControl.sol\":121:2298  contract AccessControl {\r... */\n      mstore(0x40, 0x80)\n      callvalue\n      dup1\n      iszero\n      tag_1\n      jumpi\n      0x00\n      dup1\n      revert\n    tag_1:\n      pop\n      jumpi(tag_2, lt(calldatasize, 0x04))\n      shr(0xe0, calldataload(0x00))\n      dup1\n      0x32076e77\n      eq\n      tag_3\n      jumpi\n      dup1\n      0x9c6f188e\n      eq\n      tag_4\n      jumpi\n      dup1\n      0xc0821da3\n      eq\n      tag_5\n      jumpi\n      dup1\n      0xf09a4016\n      eq\n      tag_6\n      jumpi\n    tag_2:\n      0x00\n      dup1\n      revert\n        /* \"contracts/AccessControl.sol\":1075:2054  function accessControl(address _objectAddr, string memory action) public returns (bool res) {\r... */\n    tag_3:\n      tag_7\n      0x04\n      dup1\n      calldatasize\n      sub\n      dup2\n      add\n      swap1\n      tag_8\n      swap2\n      swap1\n      tag_9\n      jump\t// in\n    tag_8:\n      tag_10\n      jump\t// in\n    tag_7:\n      mload(0x40)\n      tag_11\n      swap2\n      swap1\n      tag_12\n      jump\t// in\n    tag_11:\n      mload(0x40)\n      dup1\n      swap2\n      sub\n      swap1\n      return\n        /* \"contracts/AccessControl.sol\":2166:2293  function getTimeOfLastRequest(address _sender) public view returns (uint256 time) {\r... */\n    tag_4:\n      tag_13\n      0x04\n      dup1\n      calldatasize\n      sub\n      dup2\n      add\n      swap1\n      tag_14\n      swap2\n      swap1\n      tag_15\n      jump\t// in\n    tag_14:\n      tag_16\n      jump\t// in\n    tag_13:\n      mload(0x40)\n      tag_17\n      swap2\n      swap1\n      tag_18\n      jump\t// in\n    tag_17:\n      mload(0x40)\n      dup1\n      swap2\n      sub\n      swap1\n      return\n        /* \"contracts/AccessControl.sol\":2066:2158  function getCurTime() public view returns(uint256) {\r... */\n    tag_5:\n      tag_19\n      tag_20\n      jump\t// in\n    tag_19:\n      mload(0x40)\n      tag_21\n      swap2\n      swap1\n      tag_18\n      jump\t// in\n    tag_21:\n      mload(0x40)\n      dup1\n      swap2\n      sub\n      swap1\n      return\n        /* \"contracts/AccessControl.sol\":649:1067  function init(address _MCAddr, address _JCAddr) public {\r... */\n    tag_6:\n      tag_22\n      0x04\n      dup1\n      calldatasize\n      sub\n      dup2\n      add\n      swap1\n      tag_23\n      swap2\n      swap1\n      tag_24\n      jump\t// in\n    tag_23:\n      tag_25\n      jump\t// in\n    tag_22:\n      stop\n        /* \"contracts/AccessControl.sol\":1075:2054  function accessControl(address _objectAddr, string memory action) public returns (bool res) {\r... */\n    tag_10:\n        /* \"contracts/AccessControl.sol\":1157:1165  bool res */\n      0x00\n        /* \"contracts/AccessControl.sol\":1224:1239  block.timestamp */\n      timestamp\n        /* \"contracts/AccessControl.sol\":1199:1209  requestMap */\n      0x04\n        /* \"contracts/AccessControl.sol\":1199:1221  requestMap[msg.sender] */\n      0x00\n        /* \"contracts/AccessControl.sol\":1210:1220  msg.sender */\n      caller\n        /* \"contracts/AccessControl.sol\":1199:1221  requestMap[msg.sender] */\n      0xffffffffffffffffffffffffffffffffffffffff\n      and\n      0xffffffffffffffffffffffffffffffffffffffff\n      and\n      dup2\n      mstore\n      0x20\n      add\n      swap1\n      dup2\n      mstore\n      0x20\n      add\n      0x00\n      keccak256\n        /* \"contracts/AccessControl.sol\":1199:1239  requestMap[msg.sender] = block.timestamp */\n      dup2\n      swap1\n      sstore\n      pop\n        /* \"contracts/AccessControl.sol\":1252:1271  string memory right */\n      0x00\n        /* \"contracts/AccessControl.sol\":1274:1281  manager */\n      dup1\n      0x00\n      swap1\n      sload\n      swap1\n      0x0100\n      exp\n      swap1\n      div\n      0xffffffffffffffffffffffffffffffffffffffff\n      and\n        /* \"contracts/AccessControl.sol\":1274:1290  manager.getRight */\n      0xffffffffffffffffffffffffffffffffffffffff\n      and\n      0x8749774f\n        /* \"contracts/AccessControl.sol\":1291:1301  msg.sender */\n      caller\n        /* \"contracts/AccessControl.sol\":1303:1314  _objectAddr */\n      dup7\n        /* \"contracts/AccessControl.sol\":1274:1315  manager.getRight(msg.sender, _objectAddr) */\n      mload(0x40)\n      dup4\n      0xffffffff\n      and\n      0xe0\n      shl\n      dup2\n      mstore\n      0x04\n      add\n      tag_27\n      swap3\n      swap2\n      swap1\n      tag_28\n      jump\t// in\n    tag_27:\n      0x00\n      mload(0x40)\n      dup1\n      dup4\n      sub\n      dup2\n      dup7\n      dup1\n      extcodesize\n      iszero\n      dup1\n      iszero\n      tag_29\n      jumpi\n      0x00\n      dup1\n      revert\n    tag_29:\n      pop\n      gas\n      staticcall\n      iszero\n      dup1\n      iszero\n      tag_31\n      jumpi\n      returndatasize\n      0x00\n      dup1\n      returndatacopy\n      revert(0x00, returndatasize)\n    tag_31:\n      pop\n      pop\n      pop\n      pop\n      mload(0x40)\n      returndatasize\n      0x00\n      dup3\n      returndatacopy\n      returndatasize\n      not(0x1f)\n      0x1f\n      dup3\n      add\n      and\n      dup3\n      add\n      dup1\n      0x40\n      mstore\n      pop\n      dup2\n      add\n      swap1\n      tag_32\n      swap2\n      swap1\n      tag_33\n      jump\t// in\n    tag_32:\n        /* \"contracts/AccessControl.sol\":1252:1315  string memory right = manager.getRight(msg.sender, _objectAddr) */\n      swap1\n      pop\n        /* \"contracts/AccessControl.sol\":1385:1395  rightTable */\n      0x02\n        /* \"contracts/AccessControl.sol\":1396:1401  right */\n      dup2\n        /* \"contracts/AccessControl.sol\":1385:1402  rightTable[right] */\n      mload(0x40)\n      tag_34\n      swap2\n      swap1\n      tag_35\n      jump\t// in\n    tag_34:\n      swap1\n      dup2\n      mstore\n      0x20\n      add\n      mload(0x40)\n      dup1\n      swap2\n      sub\n      swap1\n      keccak256\n      sload\n        /* \"contracts/AccessControl.sol\":1364:1374  rightTable */\n      0x02\n        /* \"contracts/AccessControl.sol\":1375:1381  action */\n      dup5\n        /* \"contracts/AccessControl.sol\":1364:1382  rightTable[action] */\n      mload(0x40)\n      tag_36\n      swap2\n      swap1\n      tag_35\n      jump\t// in\n    tag_36:\n      swap1\n      dup2\n      mstore\n      0x20\n      add\n      mload(0x40)\n      dup1\n      swap2\n      sub\n      swap1\n      keccak256\n      sload\n        /* \"contracts/AccessControl.sol\":1364:1402  rightTable[action] < rightTable[right] */\n      slt\n        /* \"contracts/AccessControl.sol\":1361:1560  if(rightTable[action] < rightTable[right]) {\r... */\n      iszero\n      tag_37\n      jumpi\n        /* \"contracts/AccessControl.sol\":1424:1497  AccessControlRet(msg.sender, _objectAddr, action, \"Unauthorized access!\") */\n      0x4393de65ee68a32d7987583b1f2c6e6aa80df7d9ad5c0661660d70dff18b9d6d\n        /* \"contracts/AccessControl.sol\":1441:1451  msg.sender */\n      caller\n        /* \"contracts/AccessControl.sol\":1453:1464  _objectAddr */\n      dup6\n        /* \"contracts/AccessControl.sol\":1466:1472  action */\n      dup6\n        /* \"contracts/AccessControl.sol\":1424:1497  AccessControlRet(msg.sender, _objectAddr, action, \"Unauthorized access!\") */\n      mload(0x40)\n      tag_38\n      swap4\n      swap3\n      swap2\n      swap1\n      tag_39\n      jump\t// in\n    tag_38:\n      mload(0x40)\n      dup1\n      swap2\n      sub\n      swap1\n      log1\n        /* \"contracts/AccessControl.sol\":1518:1523  false */\n      0x00\n        /* \"contracts/AccessControl.sol\":1512:1523  res = false */\n      swap2\n      pop\n        /* \"contracts/AccessControl.sol\":1538:1548  return res */\n      pop\n      jump(tag_26)\n        /* \"contracts/AccessControl.sol\":1361:1560  if(rightTable[action] < rightTable[right]) {\r... */\n    tag_37:\n        /* \"contracts/AccessControl.sol\":1572:1594  string memory subjName */\n      0x60\n        /* \"contracts/AccessControl.sol\":1605:1625  string memory subjIP */\n      dup1\n        /* \"contracts/AccessControl.sol\":1657:1664  manager */\n      0x00\n      dup1\n      sload\n      swap1\n      0x0100\n      exp\n      swap1\n      div\n      0xffffffffffffffffffffffffffffffffffffffff\n      and\n        /* \"contracts/AccessControl.sol\":1657:1676  manager.getSubjInfo */\n      0xffffffffffffffffffffffffffffffffffffffff\n      and\n      0x9f764d16\n        /* \"contracts/AccessControl.sol\":1677:1687  msg.sender */\n      caller\n        /* \"contracts/AccessControl.sol\":1657:1688  manager.getSubjInfo(msg.sender) */\n      mload(0x40)\n      dup3\n      0xffffffff\n      and\n      0xe0\n      shl\n      dup2\n      mstore\n      0x04\n      add\n      tag_40\n      swap2\n      swap1\n      tag_41\n      jump\t// in\n    tag_40:\n      0x00\n      mload(0x40)\n      dup1\n      dup4\n      sub\n      dup2\n      dup7\n      dup1\n      extcodesize\n      iszero\n      dup1\n      iszero\n      tag_42\n      jumpi\n      0x00\n      dup1\n      revert\n    tag_42:\n      pop\n      gas\n      staticcall\n      iszero\n      dup1\n      iszero\n      tag_44\n      jumpi\n      returndatasize\n      0x00\n      dup1\n      returndatacopy\n      revert(0x00, returndatasize)\n    tag_44:\n      pop\n      pop\n      pop\n      pop\n      mload(0x40)\n      returndatasize\n      0x00\n      dup3\n      returndatacopy\n      returndatasize\n      not(0x1f)\n      0x1f\n      dup3\n      add\n      and\n      dup3\n      add\n      dup1\n      0x40\n      mstore\n      pop\n      dup2\n      add\n      swap1\n      tag_45\n      swap2\n      swap1\n      tag_46\n      jump\t// in\n    tag_45:\n        /* \"contracts/AccessControl.sol\":1636:1688  (subjName, subjIP) = manager.getSubjInfo(msg.sender) */\n      dup1\n      swap3\n      pop\n      dup2\n      swap4\n      pop\n      pop\n      pop\n        /* \"contracts/AccessControl.sol\":1733:1747  blackListIpMap */\n      0x03\n        /* \"contracts/AccessControl.sol\":1748:1754  subjIP */\n      dup2\n        /* \"contracts/AccessControl.sol\":1733:1755  blackListIpMap[subjIP] */\n      mload(0x40)\n      tag_47\n      swap2\n      swap1\n      tag_35\n      jump\t// in\n    tag_47:\n      swap1\n      dup2\n      mstore\n      0x20\n      add\n      mload(0x40)\n      dup1\n      swap2\n      sub\n      swap1\n      keccak256\n      0x00\n      swap1\n      sload\n      swap1\n      0x0100\n      exp\n      swap1\n      div\n      0xff\n      and\n        /* \"contracts/AccessControl.sol\":1730:1912  if(blackListIpMap[subjIP]) {\r... */\n      iszero\n      tag_48\n      jumpi\n        /* \"contracts/AccessControl.sol\":1777:1849  AccessControlRet(msg.sender, _objectAddr, action, \"Illegal IP address!\") */\n      0x4393de65ee68a32d7987583b1f2c6e6aa80df7d9ad5c0661660d70dff18b9d6d\n        /* \"contracts/AccessControl.sol\":1794:1804  msg.sender */\n      caller\n        /* \"contracts/AccessControl.sol\":1806:1817  _objectAddr */\n      dup8\n        /* \"contracts/AccessControl.sol\":1819:1825  action */\n      dup8\n        /* \"contracts/AccessControl.sol\":1777:1849  AccessControlRet(msg.sender, _objectAddr, action, \"Illegal IP address!\") */\n      mload(0x40)\n      tag_49\n      swap4\n      swap3\n      swap2\n      swap1\n      tag_50\n      jump\t// in\n    tag_49:\n      mload(0x40)\n      dup1\n      swap2\n      sub\n      swap1\n      log1\n        /* \"contracts/AccessControl.sol\":1870:1875  false */\n      0x00\n        /* \"contracts/AccessControl.sol\":1864:1875  res = false */\n      swap4\n      pop\n        /* \"contracts/AccessControl.sol\":1890:1900  return res */\n      pop\n      pop\n      pop\n      jump(tag_26)\n        /* \"contracts/AccessControl.sol\":1730:1912  if(blackListIpMap[subjIP]) {\r... */\n    tag_48:\n        /* \"contracts/AccessControl.sol\":1960:2025  AccessControlRet(msg.sender, _objectAddr, action, \"Access pass!\") */\n      0x4393de65ee68a32d7987583b1f2c6e6aa80df7d9ad5c0661660d70dff18b9d6d\n        /* \"contracts/AccessControl.sol\":1977:1987  msg.sender */\n      caller\n        /* \"contracts/AccessControl.sol\":1989:2000  _objectAddr */\n      dup8\n        /* \"contracts/AccessControl.sol\":2002:2008  action */\n      dup8\n        /* \"contracts/AccessControl.sol\":1960:2025  AccessControlRet(msg.sender, _objectAddr, action, \"Access pass!\") */\n      mload(0x40)\n      tag_51\n      swap4\n      swap3\n      swap2\n      swap1\n      tag_52\n      jump\t// in\n    tag_51:\n      mload(0x40)\n      dup1\n      swap2\n      sub\n      swap1\n      log1\n        /* \"contracts/AccessControl.sol\":2042:2046  true */\n      0x01\n        /* \"contracts/AccessControl.sol\":2036:2046  res = true */\n      swap4\n      pop\n        /* \"contracts/AccessControl.sol\":1167:2054  {\r... */\n      pop\n      pop\n      pop\n        /* \"contracts/AccessControl.sol\":1075:2054  function accessControl(address _objectAddr, string memory action) public returns (bool res) {\r... */\n    tag_26:\n      swap3\n      swap2\n      pop\n      pop\n      jump\t// out\n        /* \"contracts/AccessControl.sol\":2166:2293  function getTimeOfLastRequest(address _sender) public view returns (uint256 time) {\r... */\n    tag_16:\n        /* \"contracts/AccessControl.sol\":2234:2246  uint256 time */\n      0x00\n        /* \"contracts/AccessControl.sol\":2266:2276  requestMap */\n      0x04\n        /* \"contracts/AccessControl.sol\":2266:2285  requestMap[_sender] */\n      0x00\n        /* \"contracts/AccessControl.sol\":2277:2284  _sender */\n      dup4\n        /* \"contracts/AccessControl.sol\":2266:2285  requestMap[_sender] */\n      0xffffffffffffffffffffffffffffffffffffffff\n      and\n      0xffffffffffffffffffffffffffffffffffffffff\n      and\n      dup2\n      mstore\n      0x20\n      add\n      swap1\n      dup2\n      mstore\n      0x20\n      add\n      0x00\n      keccak256\n      sload\n        /* \"contracts/AccessControl.sol\":2259:2285  time = requestMap[_sender] */\n      swap1\n      pop\n        /* \"contracts/AccessControl.sol\":2166:2293  function getTimeOfLastRequest(address _sender) public view returns (uint256 time) {\r... */\n      swap2\n      swap1\n      pop\n      jump\t// out\n        /* \"contracts/AccessControl.sol\":2066:2158  function getCurTime() public view returns(uint256) {\r... */\n    tag_20:\n        /* \"contracts/AccessControl.sol\":2108:2115  uint256 */\n      0x00\n        /* \"contracts/AccessControl.sol\":2135:2150  block.timestamp */\n      timestamp\n        /* \"contracts/AccessControl.sol\":2128:2150  return block.timestamp */\n      swap1\n      pop\n        /* \"contracts/AccessControl.sol\":2066:2158  function getCurTime() public view returns(uint256) {\r... */\n      swap1\n      jump\t// out\n        /* \"contracts/AccessControl.sol\":649:1067  function init(address _MCAddr, address _JCAddr) public {\r... */\n    tag_25:\n        /* \"contracts/AccessControl.sol\":736:743  _MCAddr */\n      dup2\n        /* \"contracts/AccessControl.sol\":715:722  manager */\n      0x00\n      dup1\n        /* \"contracts/AccessControl.sol\":715:744  manager = Management(_MCAddr) */\n      0x0100\n      exp\n      dup2\n      sload\n      dup2\n      0xffffffffffffffffffffffffffffffffffffffff\n      mul\n      not\n      and\n      swap1\n      dup4\n      0xffffffffffffffffffffffffffffffffffffffff\n      and\n      mul\n      or\n      swap1\n      sstore\n      pop\n        /* \"contracts/AccessControl.sol\":769:776  _JCAddr */\n      dup1\n        /* \"contracts/AccessControl.sol\":755:760  judge */\n      0x01\n      0x00\n        /* \"contracts/AccessControl.sol\":755:777  judge = Judge(_JCAddr) */\n      0x0100\n      exp\n      dup2\n      sload\n      dup2\n      0xffffffffffffffffffffffffffffffffffffffff\n      mul\n      not\n      and\n      swap1\n      dup4\n      0xffffffffffffffffffffffffffffffffffffffff\n      and\n      mul\n      or\n      swap1\n      sstore\n      pop\n        /* \"contracts/AccessControl.sol\":879:880  0 */\n      0x00\n        /* \"contracts/AccessControl.sol\":858:868  rightTable */\n      0x02\n        /* \"contracts/AccessControl.sol\":858:876  rightTable[\"read\"] */\n      mload(0x40)\n      tag_56\n      swap1\n      tag_57\n      jump\t// in\n    tag_56:\n      swap1\n      dup2\n      mstore\n      0x20\n      add\n      mload(0x40)\n      dup1\n      swap2\n      sub\n      swap1\n      keccak256\n        /* \"contracts/AccessControl.sol\":858:880  rightTable[\"read\"] = 0 */\n      dup2\n      swap1\n      sstore\n      pop\n        /* \"contracts/AccessControl.sol\":912:913  1 */\n      0x01\n        /* \"contracts/AccessControl.sol\":891:901  rightTable */\n      0x02\n        /* \"contracts/AccessControl.sol\":891:909  rightTable[\"open\"] */\n      mload(0x40)\n      tag_58\n      swap1\n      tag_59\n      jump\t// in\n    tag_58:\n      swap1\n      dup2\n      mstore\n      0x20\n      add\n      mload(0x40)\n      dup1\n      swap2\n      sub\n      swap1\n      keccak256\n        /* \"contracts/AccessControl.sol\":891:913  rightTable[\"open\"] = 1 */\n      dup2\n      swap1\n      sstore\n      pop\n        /* \"contracts/AccessControl.sol\":946:947  1 */\n      0x01\n        /* \"contracts/AccessControl.sol\":924:934  rightTable */\n      0x02\n        /* \"contracts/AccessControl.sol\":924:943  rightTable[\"close\"] */\n      mload(0x40)\n      tag_60\n      swap1\n      tag_61\n      jump\t// in\n    tag_60:\n      swap1\n      dup2\n      mstore\n      0x20\n      add\n      mload(0x40)\n      dup1\n      swap2\n      sub\n      swap1\n      keccak256\n        /* \"contracts/AccessControl.sol\":924:947  rightTable[\"close\"] = 1 */\n      dup2\n      swap1\n      sstore\n      pop\n        /* \"contracts/AccessControl.sol\":982:983  2 */\n      0x02\n        /* \"contracts/AccessControl.sol\":958:968  rightTable */\n      dup1\n        /* \"contracts/AccessControl.sol\":958:979  rightTable[\"restart\"] */\n      mload(0x40)\n      tag_62\n      swap1\n      tag_63\n      jump\t// in\n    tag_62:\n      swap1\n      dup2\n      mstore\n      0x20\n      add\n      mload(0x40)\n      dup1\n      swap2\n      sub\n      swap1\n      keccak256\n        /* \"contracts/AccessControl.sol\":958:983  rightTable[\"restart\"] = 2 */\n      dup2\n      swap1\n      sstore\n      pop\n        /* \"contracts/AccessControl.sol\":1015:1016  2 */\n      0x02\n        /* \"contracts/AccessControl.sol\":994:1004  rightTable */\n      dup1\n        /* \"contracts/AccessControl.sol\":994:1012  rightTable[\"kill\"] */\n      mload(0x40)\n      tag_64\n      swap1\n      tag_65\n      jump\t// in\n    tag_64:\n      swap1\n      dup2\n      mstore\n      0x20\n      add\n      mload(0x40)\n      dup1\n      swap2\n      sub\n      swap1\n      keccak256\n        /* \"contracts/AccessControl.sol\":994:1016  rightTable[\"kill\"] = 2 */\n      dup2\n      swap1\n      sstore\n      pop\n        /* \"contracts/AccessControl.sol\":1055:1059  true */\n      0x01\n        /* \"contracts/AccessControl.sol\":1027:1041  blackListIpMap */\n      0x03\n        /* \"contracts/AccessControl.sol\":1027:1052  blackListIpMap['2.2.2.2'] */\n      mload(0x40)\n      tag_66\n      swap1\n      tag_67\n      jump\t// in\n    tag_66:\n      swap1\n      dup2\n      mstore\n      0x20\n      add\n      mload(0x40)\n      dup1\n      swap2\n      sub\n      swap1\n      keccak256\n      0x00\n        /* \"contracts/AccessControl.sol\":1027:1059  blackListIpMap['2.2.2.2'] = true */\n      0x0100\n      exp\n      dup2\n      sload\n      dup2\n      0xff\n      mul\n      not\n      and\n      swap1\n      dup4\n      iszero\n      iszero\n      mul\n      or\n      swap1\n      sstore\n      pop\n        /* \"contracts/AccessControl.sol\":649:1067  function init(address _MCAddr, address _JCAddr) public {\r... */\n      pop\n      pop\n      jump\t// out\n        /* \"#utility.yul\":7:419   */\n    tag_69:\n        /* \"#utility.yul\":85:90   */\n      0x00\n        /* \"#utility.yul\":110:176   */\n      tag_71\n        /* \"#utility.yul\":126:175   */\n      tag_72\n        /* \"#utility.yul\":168:174   */\n      dup5\n        /* \"#utility.yul\":126:175   */\n      tag_73\n      jump\t// in\n    tag_72:\n        /* \"#utility.yul\":110:176   */\n      tag_74\n      jump\t// in\n    tag_71:\n        /* \"#utility.yul\":101:176   */\n      swap1\n      pop\n        /* \"#utility.yul\":199:205   */\n      dup3\n        /* \"#utility.yul\":192:197   */\n      dup2\n        /* \"#utility.yul\":185:206   */\n      mstore\n        /* \"#utility.yul\":237:241   */\n      0x20\n        /* \"#utility.yul\":230:235   */\n      dup2\n        /* \"#utility.yul\":226:242   */\n      add\n        /* \"#utility.yul\":275:278   */\n      dup5\n        /* \"#utility.yul\":266:272   */\n      dup5\n        /* \"#utility.yul\":261:264   */\n      dup5\n        /* \"#utility.yul\":257:273   */\n      add\n        /* \"#utility.yul\":254:279   */\n      gt\n        /* \"#utility.yul\":251:363   */\n      iszero\n      tag_75\n      jumpi\n        /* \"#utility.yul\":282:361   */\n      tag_76\n      tag_77\n      jump\t// in\n    tag_76:\n        /* \"#utility.yul\":251:363   */\n    tag_75:\n        /* \"#utility.yul\":372:413   */\n      tag_78\n        /* \"#utility.yul\":406:412   */\n      dup5\n        /* \"#utility.yul\":401:404   */\n      dup3\n        /* \"#utility.yul\":396:399   */\n      dup6\n        /* \"#utility.yul\":372:413   */\n      tag_79\n      jump\t// in\n    tag_78:\n        /* \"#utility.yul\":91:419   */\n      pop\n        /* \"#utility.yul\":7:419   */\n      swap4\n      swap3\n      pop\n      pop\n      pop\n      jump\t// out\n        /* \"#utility.yul\":425:846   */\n    tag_80:\n        /* \"#utility.yul\":514:519   */\n      0x00\n        /* \"#utility.yul\":539:605   */\n      tag_82\n        /* \"#utility.yul\":555:604   */\n      tag_83\n        /* \"#utility.yul\":597:603   */\n      dup5\n        /* \"#utility.yul\":555:604   */\n      tag_73\n      jump\t// in\n    tag_83:\n        /* \"#utility.yul\":539:605   */\n      tag_74\n      jump\t// in\n    tag_82:\n        /* \"#utility.yul\":530:605   */\n      swap1\n      pop\n        /* \"#utility.yul\":628:634   */\n      dup3\n        /* \"#utility.yul\":621:626   */\n      dup2\n        /* \"#utility.yul\":614:635   */\n      mstore\n        /* \"#utility.yul\":666:670   */\n      0x20\n        /* \"#utility.yul\":659:664   */\n      dup2\n        /* \"#utility.yul\":655:671   */\n      add\n        /* \"#utility.yul\":704:707   */\n      dup5\n        /* \"#utility.yul\":695:701   */\n      dup5\n        /* \"#utility.yul\":690:693   */\n      dup5\n        /* \"#utility.yul\":686:702   */\n      add\n        /* \"#utility.yul\":683:708   */\n      gt\n        /* \"#utility.yul\":680:792   */\n      iszero\n      tag_84\n      jumpi\n        /* \"#utility.yul\":711:790   */\n      tag_85\n      tag_77\n      jump\t// in\n    tag_85:\n        /* \"#utility.yul\":680:792   */\n    tag_84:\n        /* \"#utility.yul\":801:840   */\n      tag_86\n        /* \"#utility.yul\":833:839   */\n      dup5\n        /* \"#utility.yul\":828:831   */\n      dup3\n        /* \"#utility.yul\":823:826   */\n      dup6\n        /* \"#utility.yul\":801:840   */\n      tag_87\n      jump\t// in\n    tag_86:\n        /* \"#utility.yul\":520:846   */\n      pop\n        /* \"#utility.yul\":425:846   */\n      swap4\n      swap3\n      pop\n      pop\n      pop\n      jump\t// out\n        /* \"#utility.yul\":852:991   */\n    tag_88:\n        /* \"#utility.yul\":898:903   */\n      0x00\n        /* \"#utility.yul\":936:942   */\n      dup2\n        /* \"#utility.yul\":923:943   */\n      calldataload\n        /* \"#utility.yul\":914:943   */\n      swap1\n      pop\n        /* \"#utility.yul\":952:985   */\n      tag_90\n        /* \"#utility.yul\":979:984   */\n      dup2\n        /* \"#utility.yul\":952:985   */\n      tag_91\n      jump\t// in\n    tag_90:\n        /* \"#utility.yul\":852:991   */\n      swap3\n      swap2\n      pop\n      pop\n      jump\t// out\n        /* \"#utility.yul\":1011:1351   */\n    tag_92:\n        /* \"#utility.yul\":1067:1072   */\n      0x00\n        /* \"#utility.yul\":1116:1119   */\n      dup3\n        /* \"#utility.yul\":1109:1113   */\n      0x1f\n        /* \"#utility.yul\":1101:1107   */\n      dup4\n        /* \"#utility.yul\":1097:1114   */\n      add\n        /* \"#utility.yul\":1093:1120   */\n      slt\n        /* \"#utility.yul\":1083:1205   */\n      tag_94\n      jumpi\n        /* \"#utility.yul\":1124:1203   */\n      tag_95\n      tag_96\n      jump\t// in\n    tag_95:\n        /* \"#utility.yul\":1083:1205   */\n    tag_94:\n        /* \"#utility.yul\":1241:1247   */\n      dup2\n        /* \"#utility.yul\":1228:1248   */\n      calldataload\n        /* \"#utility.yul\":1266:1345   */\n      tag_97\n        /* \"#utility.yul\":1341:1344   */\n      dup5\n        /* \"#utility.yul\":1333:1339   */\n      dup3\n        /* \"#utility.yul\":1326:1330   */\n      0x20\n        /* \"#utility.yul\":1318:1324   */\n      dup7\n        /* \"#utility.yul\":1314:1331   */\n      add\n        /* \"#utility.yul\":1266:1345   */\n      tag_69\n      jump\t// in\n    tag_97:\n        /* \"#utility.yul\":1257:1345   */\n      swap2\n      pop\n        /* \"#utility.yul\":1073:1351   */\n      pop\n        /* \"#utility.yul\":1011:1351   */\n      swap3\n      swap2\n      pop\n      pop\n      jump\t// out\n        /* \"#utility.yul\":1371:1726   */\n    tag_98:\n        /* \"#utility.yul\":1438:1443   */\n      0x00\n        /* \"#utility.yul\":1487:1490   */\n      dup3\n        /* \"#utility.yul\":1480:1484   */\n      0x1f\n        /* \"#utility.yul\":1472:1478   */\n      dup4\n        /* \"#utility.yul\":1468:1485   */\n      add\n        /* \"#utility.yul\":1464:1491   */\n      slt\n        /* \"#utility.yul\":1454:1576   */\n      tag_100\n      jumpi\n        /* \"#utility.yul\":1495:1574   */\n      tag_101\n      tag_96\n      jump\t// in\n    tag_101:\n        /* \"#utility.yul\":1454:1576   */\n    tag_100:\n        /* \"#utility.yul\":1605:1611   */\n      dup2\n        /* \"#utility.yul\":1599:1612   */\n      mload\n        /* \"#utility.yul\":1630:1720   */\n      tag_102\n        /* \"#utility.yul\":1716:1719   */\n      dup5\n        /* \"#utility.yul\":1708:1714   */\n      dup3\n        /* \"#utility.yul\":1701:1705   */\n      0x20\n        /* \"#utility.yul\":1693:1699   */\n      dup7\n        /* \"#utility.yul\":1689:1706   */\n      add\n        /* \"#utility.yul\":1630:1720   */\n      tag_80\n      jump\t// in\n    tag_102:\n        /* \"#utility.yul\":1621:1720   */\n      swap2\n      pop\n        /* \"#utility.yul\":1444:1726   */\n      pop\n        /* \"#utility.yul\":1371:1726   */\n      swap3\n      swap2\n      pop\n      pop\n      jump\t// out\n        /* \"#utility.yul\":1732:2061   */\n    tag_15:\n        /* \"#utility.yul\":1791:1797   */\n      0x00\n        /* \"#utility.yul\":1840:1842   */\n      0x20\n        /* \"#utility.yul\":1828:1837   */\n      dup3\n        /* \"#utility.yul\":1819:1826   */\n      dup5\n        /* \"#utility.yul\":1815:1838   */\n      sub\n        /* \"#utility.yul\":1811:1843   */\n      slt\n        /* \"#utility.yul\":1808:1927   */\n      iszero\n      tag_104\n      jumpi\n        /* \"#utility.yul\":1846:1925   */\n      tag_105\n      tag_106\n      jump\t// in\n    tag_105:\n        /* \"#utility.yul\":1808:1927   */\n    tag_104:\n        /* \"#utility.yul\":1966:1967   */\n      0x00\n        /* \"#utility.yul\":1991:2044   */\n      tag_107\n        /* \"#utility.yul\":2036:2043   */\n      dup5\n        /* \"#utility.yul\":2027:2033   */\n      dup3\n        /* \"#utility.yul\":2016:2025   */\n      dup6\n        /* \"#utility.yul\":2012:2034   */\n      add\n        /* \"#utility.yul\":1991:2044   */\n      tag_88\n      jump\t// in\n    tag_107:\n        /* \"#utility.yul\":1981:2044   */\n      swap2\n      pop\n        /* \"#utility.yul\":1937:2054   */\n      pop\n        /* \"#utility.yul\":1732:2061   */\n      swap3\n      swap2\n      pop\n      pop\n      jump\t// out\n        /* \"#utility.yul\":2067:2541   */\n    tag_24:\n        /* \"#utility.yul\":2135:2141   */\n      0x00\n        /* \"#utility.yul\":2143:2149   */\n      dup1\n        /* \"#utility.yul\":2192:2194   */\n      0x40\n        /* \"#utility.yul\":2180:2189   */\n      dup4\n        /* \"#utility.yul\":2171:2178   */\n      dup6\n        /* \"#utility.yul\":2167:2190   */\n      sub\n        /* \"#utility.yul\":2163:2195   */\n      slt\n        /* \"#utility.yul\":2160:2279   */\n      iszero\n      tag_109\n      jumpi\n        /* \"#utility.yul\":2198:2277   */\n      tag_110\n      tag_106\n      jump\t// in\n    tag_110:\n        /* \"#utility.yul\":2160:2279   */\n    tag_109:\n        /* \"#utility.yul\":2318:2319   */\n      0x00\n        /* \"#utility.yul\":2343:2396   */\n      tag_111\n        /* \"#utility.yul\":2388:2395   */\n      dup6\n        /* \"#utility.yul\":2379:2385   */\n      dup3\n        /* \"#utility.yul\":2368:2377   */\n      dup7\n        /* \"#utility.yul\":2364:2386   */\n      add\n        /* \"#utility.yul\":2343:2396   */\n      tag_88\n      jump\t// in\n    tag_111:\n        /* \"#utility.yul\":2333:2396   */\n      swap3\n      pop\n        /* \"#utility.yul\":2289:2406   */\n      pop\n        /* \"#utility.yul\":2445:2447   */\n      0x20\n        /* \"#utility.yul\":2471:2524   */\n      tag_112\n        /* \"#utility.yul\":2516:2523   */\n      dup6\n        /* \"#utility.yul\":2507:2513   */\n      dup3\n        /* \"#utility.yul\":2496:2505   */\n      dup7\n        /* \"#utility.yul\":2492:2514   */\n      add\n        /* \"#utility.yul\":2471:2524   */\n      tag_88\n      jump\t// in\n    tag_112:\n        /* \"#utility.yul\":2461:2524   */\n      swap2\n      pop\n        /* \"#utility.yul\":2416:2534   */\n      pop\n        /* \"#utility.yul\":2067:2541   */\n      swap3\n      pop\n      swap3\n      swap1\n      pop\n      jump\t// out\n        /* \"#utility.yul\":2547:3201   */\n    tag_9:\n        /* \"#utility.yul\":2625:2631   */\n      0x00\n        /* \"#utility.yul\":2633:2639   */\n      dup1\n        /* \"#utility.yul\":2682:2684   */\n      0x40\n        /* \"#utility.yul\":2670:2679   */\n      dup4\n        /* \"#utility.yul\":2661:2668   */\n      dup6\n        /* \"#utility.yul\":2657:2680   */\n      sub\n        /* \"#utility.yul\":2653:2685   */\n      slt\n        /* \"#utility.yul\":2650:2769   */\n      iszero\n      tag_114\n      jumpi\n        /* \"#utility.yul\":2688:2767   */\n      tag_115\n      tag_106\n      jump\t// in\n    tag_115:\n        /* \"#utility.yul\":2650:2769   */\n    tag_114:\n        /* \"#utility.yul\":2808:2809   */\n      0x00\n        /* \"#utility.yul\":2833:2886   */\n      tag_116\n        /* \"#utility.yul\":2878:2885   */\n      dup6\n        /* \"#utility.yul\":2869:2875   */\n      dup3\n        /* \"#utility.yul\":2858:2867   */\n      dup7\n        /* \"#utility.yul\":2854:2876   */\n      add\n        /* \"#utility.yul\":2833:2886   */\n      tag_88\n      jump\t// in\n    tag_116:\n        /* \"#utility.yul\":2823:2886   */\n      swap3\n      pop\n        /* \"#utility.yul\":2779:2896   */\n      pop\n        /* \"#utility.yul\":2963:2965   */\n      0x20\n        /* \"#utility.yul\":2952:2961   */\n      dup4\n        /* \"#utility.yul\":2948:2966   */\n      add\n        /* \"#utility.yul\":2935:2967   */\n      calldataload\n        /* \"#utility.yul\":2994:3012   */\n      0xffffffffffffffff\n        /* \"#utility.yul\":2986:2992   */\n      dup2\n        /* \"#utility.yul\":2983:3013   */\n      gt\n        /* \"#utility.yul\":2980:3097   */\n      iszero\n      tag_117\n      jumpi\n        /* \"#utility.yul\":3016:3095   */\n      tag_118\n      tag_119\n      jump\t// in\n    tag_118:\n        /* \"#utility.yul\":2980:3097   */\n    tag_117:\n        /* \"#utility.yul\":3121:3184   */\n      tag_120\n        /* \"#utility.yul\":3176:3183   */\n      dup6\n        /* \"#utility.yul\":3167:3173   */\n      dup3\n        /* \"#utility.yul\":3156:3165   */\n      dup7\n        /* \"#utility.yul\":3152:3174   */\n      add\n        /* \"#utility.yul\":3121:3184   */\n      tag_92\n      jump\t// in\n    tag_120:\n        /* \"#utility.yul\":3111:3184   */\n      swap2\n      pop\n        /* \"#utility.yul\":2906:3194   */\n      pop\n        /* \"#utility.yul\":2547:3201   */\n      swap3\n      pop\n      swap3\n      swap1\n      pop\n      jump\t// out\n        /* \"#utility.yul\":3207:3731   */\n    tag_33:\n        /* \"#utility.yul\":3287:3293   */\n      0x00\n        /* \"#utility.yul\":3336:3338   */\n      0x20\n        /* \"#utility.yul\":3324:3333   */\n      dup3\n        /* \"#utility.yul\":3315:3322   */\n      dup5\n        /* \"#utility.yul\":3311:3334   */\n      sub\n        /* \"#utility.yul\":3307:3339   */\n      slt\n        /* \"#utility.yul\":3304:3423   */\n      iszero\n      tag_122\n      jumpi\n        /* \"#utility.yul\":3342:3421   */\n      tag_123\n      tag_106\n      jump\t// in\n    tag_123:\n        /* \"#utility.yul\":3304:3423   */\n    tag_122:\n        /* \"#utility.yul\":3483:3484   */\n      0x00\n        /* \"#utility.yul\":3472:3481   */\n      dup3\n        /* \"#utility.yul\":3468:3485   */\n      add\n        /* \"#utility.yul\":3462:3486   */\n      mload\n        /* \"#utility.yul\":3513:3531   */\n      0xffffffffffffffff\n        /* \"#utility.yul\":3505:3511   */\n      dup2\n        /* \"#utility.yul\":3502:3532   */\n      gt\n        /* \"#utility.yul\":3499:3616   */\n      iszero\n      tag_124\n      jumpi\n        /* \"#utility.yul\":3535:3614   */\n      tag_125\n      tag_119\n      jump\t// in\n    tag_125:\n        /* \"#utility.yul\":3499:3616   */\n    tag_124:\n        /* \"#utility.yul\":3640:3714   */\n      tag_126\n        /* \"#utility.yul\":3706:3713   */\n      dup5\n        /* \"#utility.yul\":3697:3703   */\n      dup3\n        /* \"#utility.yul\":3686:3695   */\n      dup6\n        /* \"#utility.yul\":3682:3704   */\n      add\n        /* \"#utility.yul\":3640:3714   */\n      tag_98\n      jump\t// in\n    tag_126:\n        /* \"#utility.yul\":3630:3714   */\n      swap2\n      pop\n        /* \"#utility.yul\":3433:3724   */\n      pop\n        /* \"#utility.yul\":3207:3731   */\n      swap3\n      swap2\n      pop\n      pop\n      jump\t// out\n        /* \"#utility.yul\":3737:4590   */\n    tag_46:\n        /* \"#utility.yul\":3836:3842   */\n      0x00\n        /* \"#utility.yul\":3844:3850   */\n      dup1\n        /* \"#utility.yul\":3893:3895   */\n      0x40\n        /* \"#utility.yul\":3881:3890   */\n      dup4\n        /* \"#utility.yul\":3872:3879   */\n      dup6\n        /* \"#utility.yul\":3868:3891   */\n      sub\n        /* \"#utility.yul\":3864:3896   */\n      slt\n        /* \"#utility.yul\":3861:3980   */\n      iszero\n      tag_128\n      jumpi\n        /* \"#utility.yul\":3899:3978   */\n      tag_129\n      tag_106\n      jump\t// in\n    tag_129:\n        /* \"#utility.yul\":3861:3980   */\n    tag_128:\n        /* \"#utility.yul\":4040:4041   */\n      0x00\n        /* \"#utility.yul\":4029:4038   */\n      dup4\n        /* \"#utility.yul\":4025:4042   */\n      add\n        /* \"#utility.yul\":4019:4043   */\n      mload\n        /* \"#utility.yul\":4070:4088   */\n      0xffffffffffffffff\n        /* \"#utility.yul\":4062:4068   */\n      dup2\n        /* \"#utility.yul\":4059:4089   */\n      gt\n        /* \"#utility.yul\":4056:4173   */\n      iszero\n      tag_130\n      jumpi\n        /* \"#utility.yul\":4092:4171   */\n      tag_131\n      tag_119\n      jump\t// in\n    tag_131:\n        /* \"#utility.yul\":4056:4173   */\n    tag_130:\n        /* \"#utility.yul\":4197:4271   */\n      tag_132\n        /* \"#utility.yul\":4263:4270   */\n      dup6\n        /* \"#utility.yul\":4254:4260   */\n      dup3\n        /* \"#utility.yul\":4243:4252   */\n      dup7\n        /* \"#utility.yul\":4239:4261   */\n      add\n        /* \"#utility.yul\":4197:4271   */\n      tag_98\n      jump\t// in\n    tag_132:\n        /* \"#utility.yul\":4187:4271   */\n      swap3\n      pop\n        /* \"#utility.yul\":3990:4281   */\n      pop\n        /* \"#utility.yul\":4341:4343   */\n      0x20\n        /* \"#utility.yul\":4330:4339   */\n      dup4\n        /* \"#utility.yul\":4326:4344   */\n      add\n        /* \"#utility.yul\":4320:4345   */\n      mload\n        /* \"#utility.yul\":4372:4390   */\n      0xffffffffffffffff\n        /* \"#utility.yul\":4364:4370   */\n      dup2\n        /* \"#utility.yul\":4361:4391   */\n      gt\n        /* \"#utility.yul\":4358:4475   */\n      iszero\n      tag_133\n      jumpi\n        /* \"#utility.yul\":4394:4473   */\n      tag_134\n      tag_119\n      jump\t// in\n    tag_134:\n        /* \"#utility.yul\":4358:4475   */\n    tag_133:\n        /* \"#utility.yul\":4499:4573   */\n      tag_135\n        /* \"#utility.yul\":4565:4572   */\n      dup6\n        /* \"#utility.yul\":4556:4562   */\n      dup3\n        /* \"#utility.yul\":4545:4554   */\n      dup7\n        /* \"#utility.yul\":4541:4563   */\n      add\n        /* \"#utility.yul\":4499:4573   */\n      tag_98\n      jump\t// in\n    tag_135:\n        /* \"#utility.yul\":4489:4573   */\n      swap2\n      pop\n        /* \"#utility.yul\":4291:4583   */\n      pop\n        /* \"#utility.yul\":3737:4590   */\n      swap3\n      pop\n      swap3\n      swap1\n      pop\n      jump\t// out\n        /* \"#utility.yul\":4596:4714   */\n    tag_136:\n        /* \"#utility.yul\":4683:4707   */\n      tag_138\n        /* \"#utility.yul\":4701:4706   */\n      dup2\n        /* \"#utility.yul\":4683:4707   */\n      tag_139\n      jump\t// in\n    tag_138:\n        /* \"#utility.yul\":4678:4681   */\n      dup3\n        /* \"#utility.yul\":4671:4708   */\n      mstore\n        /* \"#utility.yul\":4596:4714   */\n      pop\n      pop\n      jump\t// out\n        /* \"#utility.yul\":4720:4829   */\n    tag_140:\n        /* \"#utility.yul\":4801:4822   */\n      tag_142\n        /* \"#utility.yul\":4816:4821   */\n      dup2\n        /* \"#utility.yul\":4801:4822   */\n      tag_143\n      jump\t// in\n    tag_142:\n        /* \"#utility.yul\":4796:4799   */\n      dup3\n        /* \"#utility.yul\":4789:4823   */\n      mstore\n        /* \"#utility.yul\":4720:4829   */\n      pop\n      pop\n      jump\t// out\n        /* \"#utility.yul\":4835:5199   */\n    tag_144:\n        /* \"#utility.yul\":4923:4926   */\n      0x00\n        /* \"#utility.yul\":4951:4990   */\n      tag_146\n        /* \"#utility.yul\":4984:4989   */\n      dup3\n        /* \"#utility.yul\":4951:4990   */\n      tag_147\n      jump\t// in\n    tag_146:\n        /* \"#utility.yul\":5006:5077   */\n      tag_148\n        /* \"#utility.yul\":5070:5076   */\n      dup2\n        /* \"#utility.yul\":5065:5068   */\n      dup6\n        /* \"#utility.yul\":5006:5077   */\n      tag_149\n      jump\t// in\n    tag_148:\n        /* \"#utility.yul\":4999:5077   */\n      swap4\n      pop\n        /* \"#utility.yul\":5086:5138   */\n      tag_150\n        /* \"#utility.yul\":5131:5137   */\n      dup2\n        /* \"#utility.yul\":5126:5129   */\n      dup6\n        /* \"#utility.yul\":5119:5123   */\n      0x20\n        /* \"#utility.yul\":5112:5117   */\n      dup7\n        /* \"#utility.yul\":5108:5124   */\n      add\n        /* \"#utility.yul\":5086:5138   */\n      tag_87\n      jump\t// in\n    tag_150:\n        /* \"#utility.yul\":5163:5192   */\n      tag_151\n        /* \"#utility.yul\":5185:5191   */\n      dup2\n        /* \"#utility.yul\":5163:5192   */\n      tag_152\n      jump\t// in\n    tag_151:\n        /* \"#utility.yul\":5158:5161   */\n      dup5\n        /* \"#utility.yul\":5154:5193   */\n      add\n        /* \"#utility.yul\":5147:5193   */\n      swap2\n      pop\n        /* \"#utility.yul\":4927:5199   */\n      pop\n        /* \"#utility.yul\":4835:5199   */\n      swap3\n      swap2\n      pop\n      pop\n      jump\t// out\n        /* \"#utility.yul\":5205:5582   */\n    tag_153:\n        /* \"#utility.yul\":5311:5314   */\n      0x00\n        /* \"#utility.yul\":5339:5378   */\n      tag_155\n        /* \"#utility.yul\":5372:5377   */\n      dup3\n        /* \"#utility.yul\":5339:5378   */\n      tag_147\n      jump\t// in\n    tag_155:\n        /* \"#utility.yul\":5394:5483   */\n      tag_156\n        /* \"#utility.yul\":5476:5482   */\n      dup2\n        /* \"#utility.yul\":5471:5474   */\n      dup6\n        /* \"#utility.yul\":5394:5483   */\n      tag_157\n      jump\t// in\n    tag_156:\n        /* \"#utility.yul\":5387:5483   */\n      swap4\n      pop\n        /* \"#utility.yul\":5492:5544   */\n      tag_158\n        /* \"#utility.yul\":5537:5543   */\n      dup2\n        /* \"#utility.yul\":5532:5535   */\n      dup6\n        /* \"#utility.yul\":5525:5529   */\n      0x20\n        /* \"#utility.yul\":5518:5523   */\n      dup7\n        /* \"#utility.yul\":5514:5530   */\n      add\n        /* \"#utility.yul\":5492:5544   */\n      tag_87\n      jump\t// in\n    tag_158:\n        /* \"#utility.yul\":5569:5575   */\n      dup1\n        /* \"#utility.yul\":5564:5567   */\n      dup5\n        /* \"#utility.yul\":5560:5576   */\n      add\n        /* \"#utility.yul\":5553:5576   */\n      swap2\n      pop\n        /* \"#utility.yul\":5315:5582   */\n      pop\n        /* \"#utility.yul\":5205:5582   */\n      swap3\n      swap2\n      pop\n      pop\n      jump\t// out\n        /* \"#utility.yul\":5588:5988   */\n    tag_159:\n        /* \"#utility.yul\":5748:5751   */\n      0x00\n        /* \"#utility.yul\":5769:5853   */\n      tag_161\n        /* \"#utility.yul\":5851:5852   */\n      0x05\n        /* \"#utility.yul\":5846:5849   */\n      dup4\n        /* \"#utility.yul\":5769:5853   */\n      tag_157\n      jump\t// in\n    tag_161:\n        /* \"#utility.yul\":5762:5853   */\n      swap2\n      pop\n        /* \"#utility.yul\":5862:5955   */\n      tag_162\n        /* \"#utility.yul\":5951:5954   */\n      dup3\n        /* \"#utility.yul\":5862:5955   */\n      tag_163\n      jump\t// in\n    tag_162:\n        /* \"#utility.yul\":5980:5981   */\n      0x05\n        /* \"#utility.yul\":5975:5978   */\n      dup3\n        /* \"#utility.yul\":5971:5982   */\n      add\n        /* \"#utility.yul\":5964:5982   */\n      swap1\n      pop\n        /* \"#utility.yul\":5588:5988   */\n      swap2\n      swap1\n      pop\n      jump\t// out\n        /* \"#utility.yul\":5994:6394   */\n    tag_164:\n        /* \"#utility.yul\":6154:6157   */\n      0x00\n        /* \"#utility.yul\":6175:6259   */\n      tag_166\n        /* \"#utility.yul\":6257:6258   */\n      0x07\n        /* \"#utility.yul\":6252:6255   */\n      dup4\n        /* \"#utility.yul\":6175:6259   */\n      tag_157\n      jump\t// in\n    tag_166:\n        /* \"#utility.yul\":6168:6259   */\n      swap2\n      pop\n        /* \"#utility.yul\":6268:6361   */\n      tag_167\n        /* \"#utility.yul\":6357:6360   */\n      dup3\n        /* \"#utility.yul\":6268:6361   */\n      tag_168\n      jump\t// in\n    tag_167:\n        /* \"#utility.yul\":6386:6387   */\n      0x07\n        /* \"#utility.yul\":6381:6384   */\n      dup3\n        /* \"#utility.yul\":6377:6388   */\n      add\n        /* \"#utility.yul\":6370:6388   */\n      swap1\n      pop\n        /* \"#utility.yul\":5994:6394   */\n      swap2\n      swap1\n      pop\n      jump\t// out\n        /* \"#utility.yul\":6400:6766   */\n    tag_169:\n        /* \"#utility.yul\":6542:6545   */\n      0x00\n        /* \"#utility.yul\":6563:6630   */\n      tag_171\n        /* \"#utility.yul\":6627:6629   */\n      0x0c\n        /* \"#utility.yul\":6622:6625   */\n      dup4\n        /* \"#utility.yul\":6563:6630   */\n      tag_149\n      jump\t// in\n    tag_171:\n        /* \"#utility.yul\":6556:6630   */\n      swap2\n      pop\n        /* \"#utility.yul\":6639:6732   */\n      tag_172\n        /* \"#utility.yul\":6728:6731   */\n      dup3\n        /* \"#utility.yul\":6639:6732   */\n      tag_173\n      jump\t// in\n    tag_172:\n        /* \"#utility.yul\":6757:6759   */\n      0x20\n        /* \"#utility.yul\":6752:6755   */\n      dup3\n        /* \"#utility.yul\":6748:6760   */\n      add\n        /* \"#utility.yul\":6741:6760   */\n      swap1\n      pop\n        /* \"#utility.yul\":6400:6766   */\n      swap2\n      swap1\n      pop\n      jump\t// out\n        /* \"#utility.yul\":6772:7172   */\n    tag_174:\n        /* \"#utility.yul\":6932:6935   */\n      0x00\n        /* \"#utility.yul\":6953:7037   */\n      tag_176\n        /* \"#utility.yul\":7035:7036   */\n      0x07\n        /* \"#utility.yul\":7030:7033   */\n      dup4\n        /* \"#utility.yul\":6953:7037   */\n      tag_157\n      jump\t// in\n    tag_176:\n        /* \"#utility.yul\":6946:7037   */\n      swap2\n      pop\n        /* \"#utility.yul\":7046:7139   */\n      tag_177\n        /* \"#utility.yul\":7135:7138   */\n      dup3\n        /* \"#utility.yul\":7046:7139   */\n      tag_178\n      jump\t// in\n    tag_177:\n        /* \"#utility.yul\":7164:7165   */\n      0x07\n        /* \"#utility.yul\":7159:7162   */\n      dup3\n        /* \"#utility.yul\":7155:7166   */\n      add\n        /* \"#utility.yul\":7148:7166   */\n      swap1\n      pop\n        /* \"#utility.yul\":6772:7172   */\n      swap2\n      swap1\n      pop\n      jump\t// out\n        /* \"#utility.yul\":7178:7544   */\n    tag_179:\n        /* \"#utility.yul\":7320:7323   */\n      0x00\n        /* \"#utility.yul\":7341:7408   */\n      tag_181\n        /* \"#utility.yul\":7405:7407   */\n      0x13\n        /* \"#utility.yul\":7400:7403   */\n      dup4\n        /* \"#utility.yul\":7341:7408   */\n      tag_149\n      jump\t// in\n    tag_181:\n        /* \"#utility.yul\":7334:7408   */\n      swap2\n      pop\n        /* \"#utility.yul\":7417:7510   */\n      tag_182\n        /* \"#utility.yul\":7506:7509   */\n      dup3\n        /* \"#utility.yul\":7417:7510   */\n      tag_183\n      jump\t// in\n    tag_182:\n        /* \"#utility.yul\":7535:7537   */\n      0x20\n        /* \"#utility.yul\":7530:7533   */\n      dup3\n        /* \"#utility.yul\":7526:7538   */\n      add\n        /* \"#utility.yul\":7519:7538   */\n      swap1\n      pop\n        /* \"#utility.yul\":7178:7544   */\n      swap2\n      swap1\n      pop\n      jump\t// out\n        /* \"#utility.yul\":7550:7950   */\n    tag_184:\n        /* \"#utility.yul\":7710:7713   */\n      0x00\n        /* \"#utility.yul\":7731:7815   */\n      tag_186\n        /* \"#utility.yul\":7813:7814   */\n      0x04\n        /* \"#utility.yul\":7808:7811   */\n      dup4\n        /* \"#utility.yul\":7731:7815   */\n      tag_157\n      jump\t// in\n    tag_186:\n        /* \"#utility.yul\":7724:7815   */\n      swap2\n      pop\n        /* \"#utility.yul\":7824:7917   */\n      tag_187\n        /* \"#utility.yul\":7913:7916   */\n      dup3\n        /* \"#utility.yul\":7824:7917   */\n      tag_188\n      jump\t// in\n    tag_187:\n        /* \"#utility.yul\":7942:7943   */\n      0x04\n        /* \"#utility.yul\":7937:7940   */\n      dup3\n        /* \"#utility.yul\":7933:7944   */\n      add\n        /* \"#utility.yul\":7926:7944   */\n      swap1\n      pop\n        /* \"#utility.yul\":7550:7950   */\n      swap2\n      swap1\n      pop\n      jump\t// out\n        /* \"#utility.yul\":7956:8356   */\n    tag_189:\n        /* \"#utility.yul\":8116:8119   */\n      0x00\n        /* \"#utility.yul\":8137:8221   */\n      tag_191\n        /* \"#utility.yul\":8219:8220   */\n      0x04\n        /* \"#utility.yul\":8214:8217   */\n      dup4\n        /* \"#utility.yul\":8137:8221   */\n      tag_157\n      jump\t// in\n    tag_191:\n        /* \"#utility.yul\":8130:8221   */\n      swap2\n      pop\n        /* \"#utility.yul\":8230:8323   */\n      tag_192\n        /* \"#utility.yul\":8319:8322   */\n      dup3\n        /* \"#utility.yul\":8230:8323   */\n      tag_193\n      jump\t// in\n    tag_192:\n        /* \"#utility.yul\":8348:8349   */\n      0x04\n        /* \"#utility.yul\":8343:8346   */\n      dup3\n        /* \"#utility.yul\":8339:8350   */\n      add\n        /* \"#utility.yul\":8332:8350   */\n      swap1\n      pop\n        /* \"#utility.yul\":7956:8356   */\n      swap2\n      swap1\n      pop\n      jump\t// out\n        /* \"#utility.yul\":8362:8728   */\n    tag_194:\n        /* \"#utility.yul\":8504:8507   */\n      0x00\n        /* \"#utility.yul\":8525:8592   */\n      tag_196\n        /* \"#utility.yul\":8589:8591   */\n      0x14\n        /* \"#utility.yul\":8584:8587   */\n      dup4\n        /* \"#utility.yul\":8525:8592   */\n      tag_149\n      jump\t// in\n    tag_196:\n        /* \"#utility.yul\":8518:8592   */\n      swap2\n      pop\n        /* \"#utility.yul\":8601:8694   */\n      tag_197\n        /* \"#utility.yul\":8690:8693   */\n      dup3\n        /* \"#utility.yul\":8601:8694   */\n      tag_198\n      jump\t// in\n    tag_197:\n        /* \"#utility.yul\":8719:8721   */\n      0x20\n        /* \"#utility.yul\":8714:8717   */\n      dup3\n        /* \"#utility.yul\":8710:8722   */\n      add\n        /* \"#utility.yul\":8703:8722   */\n      swap1\n      pop\n        /* \"#utility.yul\":8362:8728   */\n      swap2\n      swap1\n      pop\n      jump\t// out\n        /* \"#utility.yul\":8734:9134   */\n    tag_199:\n        /* \"#utility.yul\":8894:8897   */\n      0x00\n        /* \"#utility.yul\":8915:8999   */\n      tag_201\n        /* \"#utility.yul\":8997:8998   */\n      0x04\n        /* \"#utility.yul\":8992:8995   */\n      dup4\n        /* \"#utility.yul\":8915:8999   */\n      tag_157\n      jump\t// in\n    tag_201:\n        /* \"#utility.yul\":8908:8999   */\n      swap2\n      pop\n        /* \"#utility.yul\":9008:9101   */\n      tag_202\n        /* \"#utility.yul\":9097:9100   */\n      dup3\n        /* \"#utility.yul\":9008:9101   */\n      tag_203\n      jump\t// in\n    tag_202:\n        /* \"#utility.yul\":9126:9127   */\n      0x04\n        /* \"#utility.yul\":9121:9124   */\n      dup3\n        /* \"#utility.yul\":9117:9128   */\n      add\n        /* \"#utility.yul\":9110:9128   */\n      swap1\n      pop\n        /* \"#utility.yul\":8734:9134   */\n      swap2\n      swap1\n      pop\n      jump\t// out\n        /* \"#utility.yul\":9140:9258   */\n    tag_204:\n        /* \"#utility.yul\":9227:9251   */\n      tag_206\n        /* \"#utility.yul\":9245:9250   */\n      dup2\n        /* \"#utility.yul\":9227:9251   */\n      tag_207\n      jump\t// in\n    tag_206:\n        /* \"#utility.yul\":9222:9225   */\n      dup3\n        /* \"#utility.yul\":9215:9252   */\n      mstore\n        /* \"#utility.yul\":9140:9258   */\n      pop\n      pop\n      jump\t// out\n        /* \"#utility.yul\":9264:9539   */\n    tag_35:\n        /* \"#utility.yul\":9396:9399   */\n      0x00\n        /* \"#utility.yul\":9418:9513   */\n      tag_209\n        /* \"#utility.yul\":9509:9512   */\n      dup3\n        /* \"#utility.yul\":9500:9506   */\n      dup5\n        /* \"#utility.yul\":9418:9513   */\n      tag_153\n      jump\t// in\n    tag_209:\n        /* \"#utility.yul\":9411:9513   */\n      swap2\n      pop\n        /* \"#utility.yul\":9530:9533   */\n      dup2\n        /* \"#utility.yul\":9523:9533   */\n      swap1\n      pop\n        /* \"#utility.yul\":9264:9539   */\n      swap3\n      swap2\n      pop\n      pop\n      jump\t// out\n        /* \"#utility.yul\":9545:9926   */\n    tag_61:\n        /* \"#utility.yul\":9730:9733   */\n      0x00\n        /* \"#utility.yul\":9752:9900   */\n      tag_211\n        /* \"#utility.yul\":9896:9899   */\n      dup3\n        /* \"#utility.yul\":9752:9900   */\n      tag_159\n      jump\t// in\n    tag_211:\n        /* \"#utility.yul\":9745:9900   */\n      swap2\n      pop\n        /* \"#utility.yul\":9917:9920   */\n      dup2\n        /* \"#utility.yul\":9910:9920   */\n      swap1\n      pop\n        /* \"#utility.yul\":9545:9926   */\n      swap2\n      swap1\n      pop\n      jump\t// out\n        /* \"#utility.yul\":9932:10313   */\n    tag_67:\n        /* \"#utility.yul\":10117:10120   */\n      0x00\n        /* \"#utility.yul\":10139:10287   */\n      tag_213\n        /* \"#utility.yul\":10283:10286   */\n      dup3\n        /* \"#utility.yul\":10139:10287   */\n      tag_164\n      jump\t// in\n    tag_213:\n        /* \"#utility.yul\":10132:10287   */\n      swap2\n      pop\n        /* \"#utility.yul\":10304:10307   */\n      dup2\n        /* \"#utility.yul\":10297:10307   */\n      swap1\n      pop\n        /* \"#utility.yul\":9932:10313   */\n      swap2\n      swap1\n      pop\n      jump\t// out\n        /* \"#utility.yul\":10319:10700   */\n    tag_63:\n        /* \"#utility.yul\":10504:10507   */\n      0x00\n        /* \"#utility.yul\":10526:10674   */\n      tag_215\n        /* \"#utility.yul\":10670:10673   */\n      dup3\n        /* \"#utility.yul\":10526:10674   */\n      tag_174\n      jump\t// in\n    tag_215:\n        /* \"#utility.yul\":10519:10674   */\n      swap2\n      pop\n        /* \"#utility.yul\":10691:10694   */\n      dup2\n        /* \"#utility.yul\":10684:10694   */\n      swap1\n      pop\n        /* \"#utility.yul\":10319:10700   */\n      swap2\n      swap1\n      pop\n      jump\t// out\n        /* \"#utility.yul\":10706:11087   */\n    tag_65:\n        /* \"#utility.yul\":10891:10894   */\n      0x00\n        /* \"#utility.yul\":10913:11061   */\n      tag_217\n        /* \"#utility.yul\":11057:11060   */\n      dup3\n        /* \"#utility.yul\":10913:11061   */\n      tag_184\n      jump\t// in\n    tag_217:\n        /* \"#utility.yul\":10906:11061   */\n      swap2\n      pop\n        /* \"#utility.yul\":11078:11081   */\n      dup2\n        /* \"#utility.yul\":11071:11081   */\n      swap1\n      pop\n        /* \"#utility.yul\":10706:11087   */\n      swap2\n      swap1\n      pop\n      jump\t// out\n        /* \"#utility.yul\":11093:11474   */\n    tag_59:\n        /* \"#utility.yul\":11278:11281   */\n      0x00\n        /* \"#utility.yul\":11300:11448   */\n      tag_219\n        /* \"#utility.yul\":11444:11447   */\n      dup3\n        /* \"#utility.yul\":11300:11448   */\n      tag_189\n      jump\t// in\n    tag_219:\n        /* \"#utility.yul\":11293:11448   */\n      swap2\n      pop\n        /* \"#utility.yul\":11465:11468   */\n      dup2\n        /* \"#utility.yul\":11458:11468   */\n      swap1\n      pop\n        /* \"#utility.yul\":11093:11474   */\n      swap2\n      swap1\n      pop\n      jump\t// out\n        /* \"#utility.yul\":11480:11861   */\n    tag_57:\n        /* \"#utility.yul\":11665:11668   */\n      0x00\n        /* \"#utility.yul\":11687:11835   */\n      tag_221\n        /* \"#utility.yul\":11831:11834   */\n      dup3\n        /* \"#utility.yul\":11687:11835   */\n      tag_199\n      jump\t// in\n    tag_221:\n        /* \"#utility.yul\":11680:11835   */\n      swap2\n      pop\n        /* \"#utility.yul\":11852:11855   */\n      dup2\n        /* \"#utility.yul\":11845:11855   */\n      swap1\n      pop\n        /* \"#utility.yul\":11480:11861   */\n      swap2\n      swap1\n      pop\n      jump\t// out\n        /* \"#utility.yul\":11867:12089   */\n    tag_41:\n        /* \"#utility.yul\":11960:11964   */\n      0x00\n        /* \"#utility.yul\":11998:12000   */\n      0x20\n        /* \"#utility.yul\":11987:11996   */\n      dup3\n        /* \"#utility.yul\":11983:12001   */\n      add\n        /* \"#utility.yul\":11975:12001   */\n      swap1\n      pop\n        /* \"#utility.yul\":12011:12082   */\n      tag_223\n        /* \"#utility.yul\":12079:12080   */\n      0x00\n        /* \"#utility.yul\":12068:12077   */\n      dup4\n        /* \"#utility.yul\":12064:12081   */\n      add\n        /* \"#utility.yul\":12055:12061   */\n      dup5\n        /* \"#utility.yul\":12011:12082   */\n      tag_136\n      jump\t// in\n    tag_223:\n        /* \"#utility.yul\":11867:12089   */\n      swap3\n      swap2\n      pop\n      pop\n      jump\t// out\n        /* \"#utility.yul\":12095:12427   */\n    tag_28:\n        /* \"#utility.yul\":12216:12220   */\n      0x00\n        /* \"#utility.yul\":12254:12256   */\n      0x40\n        /* \"#utility.yul\":12243:12252   */\n      dup3\n        /* \"#utility.yul\":12239:12257   */\n      add\n        /* \"#utility.yul\":12231:12257   */\n      swap1\n      pop\n        /* \"#utility.yul\":12267:12338   */\n      tag_225\n        /* \"#utility.yul\":12335:12336   */\n      0x00\n        /* \"#utility.yul\":12324:12333   */\n      dup4\n        /* \"#utility.yul\":12320:12337   */\n      add\n        /* \"#utility.yul\":12311:12317   */\n      dup6\n        /* \"#utility.yul\":12267:12338   */\n      tag_136\n      jump\t// in\n    tag_225:\n        /* \"#utility.yul\":12348:12420   */\n      tag_226\n        /* \"#utility.yul\":12416:12418   */\n      0x20\n        /* \"#utility.yul\":12405:12414   */\n      dup4\n        /* \"#utility.yul\":12401:12419   */\n      add\n        /* \"#utility.yul\":12392:12398   */\n      dup5\n        /* \"#utility.yul\":12348:12420   */\n      tag_136\n      jump\t// in\n    tag_226:\n        /* \"#utility.yul\":12095:12427   */\n      swap4\n      swap3\n      pop\n      pop\n      pop\n      jump\t// out\n        /* \"#utility.yul\":12433:13274   */\n    tag_52:\n        /* \"#utility.yul\":12703:12707   */\n      0x00\n        /* \"#utility.yul\":12741:12744   */\n      0x80\n        /* \"#utility.yul\":12730:12739   */\n      dup3\n        /* \"#utility.yul\":12726:12745   */\n      add\n        /* \"#utility.yul\":12718:12745   */\n      swap1\n      pop\n        /* \"#utility.yul\":12755:12826   */\n      tag_228\n        /* \"#utility.yul\":12823:12824   */\n      0x00\n        /* \"#utility.yul\":12812:12821   */\n      dup4\n        /* \"#utility.yul\":12808:12825   */\n      add\n        /* \"#utility.yul\":12799:12805   */\n      dup7\n        /* \"#utility.yul\":12755:12826   */\n      tag_136\n      jump\t// in\n    tag_228:\n        /* \"#utility.yul\":12836:12908   */\n      tag_229\n        /* \"#utility.yul\":12904:12906   */\n      0x20\n        /* \"#utility.yul\":12893:12902   */\n      dup4\n        /* \"#utility.yul\":12889:12907   */\n      add\n        /* \"#utility.yul\":12880:12886   */\n      dup6\n        /* \"#utility.yul\":12836:12908   */\n      tag_136\n      jump\t// in\n    tag_229:\n        /* \"#utility.yul\":12955:12964   */\n      dup2\n        /* \"#utility.yul\":12949:12953   */\n      dup2\n        /* \"#utility.yul\":12945:12965   */\n      sub\n        /* \"#utility.yul\":12940:12942   */\n      0x40\n        /* \"#utility.yul\":12929:12938   */\n      dup4\n        /* \"#utility.yul\":12925:12943   */\n      add\n        /* \"#utility.yul\":12918:12966   */\n      mstore\n        /* \"#utility.yul\":12983:13061   */\n      tag_230\n        /* \"#utility.yul\":13056:13060   */\n      dup2\n        /* \"#utility.yul\":13047:13053   */\n      dup5\n        /* \"#utility.yul\":12983:13061   */\n      tag_144\n      jump\t// in\n    tag_230:\n        /* \"#utility.yul\":12975:13061   */\n      swap1\n      pop\n        /* \"#utility.yul\":13108:13117   */\n      dup2\n        /* \"#utility.yul\":13102:13106   */\n      dup2\n        /* \"#utility.yul\":13098:13118   */\n      sub\n        /* \"#utility.yul\":13093:13095   */\n      0x60\n        /* \"#utility.yul\":13082:13091   */\n      dup4\n        /* \"#utility.yul\":13078:13096   */\n      add\n        /* \"#utility.yul\":13071:13119   */\n      mstore\n        /* \"#utility.yul\":13136:13267   */\n      tag_231\n        /* \"#utility.yul\":13262:13266   */\n      dup2\n        /* \"#utility.yul\":13136:13267   */\n      tag_169\n      jump\t// in\n    tag_231:\n        /* \"#utility.yul\":13128:13267   */\n      swap1\n      pop\n        /* \"#utility.yul\":12433:13274   */\n      swap5\n      swap4\n      pop\n      pop\n      pop\n      pop\n      jump\t// out\n        /* \"#utility.yul\":13280:14121   */\n    tag_50:\n        /* \"#utility.yul\":13550:13554   */\n      0x00\n        /* \"#utility.yul\":13588:13591   */\n      0x80\n        /* \"#utility.yul\":13577:13586   */\n      dup3\n        /* \"#utility.yul\":13573:13592   */\n      add\n        /* \"#utility.yul\":13565:13592   */\n      swap1\n      pop\n        /* \"#utility.yul\":13602:13673   */\n      tag_233\n        /* \"#utility.yul\":13670:13671   */\n      0x00\n        /* \"#utility.yul\":13659:13668   */\n      dup4\n        /* \"#utility.yul\":13655:13672   */\n      add\n        /* \"#utility.yul\":13646:13652   */\n      dup7\n        /* \"#utility.yul\":13602:13673   */\n      tag_136\n      jump\t// in\n    tag_233:\n        /* \"#utility.yul\":13683:13755   */\n      tag_234\n        /* \"#utility.yul\":13751:13753   */\n      0x20\n        /* \"#utility.yul\":13740:13749   */\n      dup4\n        /* \"#utility.yul\":13736:13754   */\n      add\n        /* \"#utility.yul\":13727:13733   */\n      dup6\n        /* \"#utility.yul\":13683:13755   */\n      tag_136\n      jump\t// in\n    tag_234:\n        /* \"#utility.yul\":13802:13811   */\n      dup2\n        /* \"#utility.yul\":13796:13800   */\n      dup2\n        /* \"#utility.yul\":13792:13812   */\n      sub\n        /* \"#utility.yul\":13787:13789   */\n      0x40\n        /* \"#utility.yul\":13776:13785   */\n      dup4\n        /* \"#utility.yul\":13772:13790   */\n      add\n        /* \"#utility.yul\":13765:13813   */\n      mstore\n        /* \"#utility.yul\":13830:13908   */\n      tag_235\n        /* \"#utility.yul\":13903:13907   */\n      dup2\n        /* \"#utility.yul\":13894:13900   */\n      dup5\n        /* \"#utility.yul\":13830:13908   */\n      tag_144\n      jump\t// in\n    tag_235:\n        /* \"#utility.yul\":13822:13908   */\n      swap1\n      pop\n        /* \"#utility.yul\":13955:13964   */\n      dup2\n        /* \"#utility.yul\":13949:13953   */\n      dup2\n        /* \"#utility.yul\":13945:13965   */\n      sub\n        /* \"#utility.yul\":13940:13942   */\n      0x60\n        /* \"#utility.yul\":13929:13938   */\n      dup4\n        /* \"#utility.yul\":13925:13943   */\n      add\n        /* \"#utility.yul\":13918:13966   */\n      mstore\n        /* \"#utility.yul\":13983:14114   */\n      tag_236\n        /* \"#utility.yul\":14109:14113   */\n      dup2\n        /* \"#utility.yul\":13983:14114   */\n      tag_179\n      jump\t// in\n    tag_236:\n        /* \"#utility.yul\":13975:14114   */\n      swap1\n      pop\n        /* \"#utility.yul\":13280:14121   */\n      swap5\n      swap4\n      pop\n      pop\n      pop\n      pop\n      jump\t// out\n        /* \"#utility.yul\":14127:14968   */\n    tag_39:\n        /* \"#utility.yul\":14397:14401   */\n      0x00\n        /* \"#utility.yul\":14435:14438   */\n      0x80\n        /* \"#utility.yul\":14424:14433   */\n      dup3\n        /* \"#utility.yul\":14420:14439   */\n      add\n        /* \"#utility.yul\":14412:14439   */\n      swap1\n      pop\n        /* \"#utility.yul\":14449:14520   */\n      tag_238\n        /* \"#utility.yul\":14517:14518   */\n      0x00\n        /* \"#utility.yul\":14506:14515   */\n      dup4\n        /* \"#utility.yul\":14502:14519   */\n      add\n        /* \"#utility.yul\":14493:14499   */\n      dup7\n        /* \"#utility.yul\":14449:14520   */\n      tag_136\n      jump\t// in\n    tag_238:\n        /* \"#utility.yul\":14530:14602   */\n      tag_239\n        /* \"#utility.yul\":14598:14600   */\n      0x20\n        /* \"#utility.yul\":14587:14596   */\n      dup4\n        /* \"#utility.yul\":14583:14601   */\n      add\n        /* \"#utility.yul\":14574:14580   */\n      dup6\n        /* \"#utility.yul\":14530:14602   */\n      tag_136\n      jump\t// in\n    tag_239:\n        /* \"#utility.yul\":14649:14658   */\n      dup2\n        /* \"#utility.yul\":14643:14647   */\n      dup2\n        /* \"#utility.yul\":14639:14659   */\n      sub\n        /* \"#utility.yul\":14634:14636   */\n      0x40\n        /* \"#utility.yul\":14623:14632   */\n      dup4\n        /* \"#utility.yul\":14619:14637   */\n      add\n        /* \"#utility.yul\":14612:14660   */\n      mstore\n        /* \"#utility.yul\":14677:14755   */\n      tag_240\n        /* \"#utility.yul\":14750:14754   */\n      dup2\n        /* \"#utility.yul\":14741:14747   */\n      dup5\n        /* \"#utility.yul\":14677:14755   */\n      tag_144\n      jump\t// in\n    tag_240:\n        /* \"#utility.yul\":14669:14755   */\n      swap1\n      pop\n        /* \"#utility.yul\":14802:14811   */\n      dup2\n        /* \"#utility.yul\":14796:14800   */\n      dup2\n        /* \"#utility.yul\":14792:14812   */\n      sub\n        /* \"#utility.yul\":14787:14789   */\n      0x60\n        /* \"#utility.yul\":14776:14785   */\n      dup4\n        /* \"#utility.yul\":14772:14790   */\n      add\n        /* \"#utility.yul\":14765:14813   */\n      mstore\n        /* \"#utility.yul\":14830:14961   */\n      tag_241\n        /* \"#utility.yul\":14956:14960   */\n      dup2\n        /* \"#utility.yul\":14830:14961   */\n      tag_194\n      jump\t// in\n    tag_241:\n        /* \"#utility.yul\":14822:14961   */\n      swap1\n      pop\n        /* \"#utility.yul\":14127:14968   */\n      swap5\n      swap4\n      pop\n      pop\n      pop\n      pop\n      jump\t// out\n        /* \"#utility.yul\":14974:15184   */\n    tag_12:\n        /* \"#utility.yul\":15061:15065   */\n      0x00\n        /* \"#utility.yul\":15099:15101   */\n      0x20\n        /* \"#utility.yul\":15088:15097   */\n      dup3\n        /* \"#utility.yul\":15084:15102   */\n      add\n        /* \"#utility.yul\":15076:15102   */\n      swap1\n      pop\n        /* \"#utility.yul\":15112:15177   */\n      tag_243\n        /* \"#utility.yul\":15174:15175   */\n      0x00\n        /* \"#utility.yul\":15163:15172   */\n      dup4\n        /* \"#utility.yul\":15159:15176   */\n      add\n        /* \"#utility.yul\":15150:15156   */\n      dup5\n        /* \"#utility.yul\":15112:15177   */\n      tag_140\n      jump\t// in\n    tag_243:\n        /* \"#utility.yul\":14974:15184   */\n      swap3\n      swap2\n      pop\n      pop\n      jump\t// out\n        /* \"#utility.yul\":15190:15412   */\n    tag_18:\n        /* \"#utility.yul\":15283:15287   */\n      0x00\n        /* \"#utility.yul\":15321:15323   */\n      0x20\n        /* \"#utility.yul\":15310:15319   */\n      dup3\n        /* \"#utility.yul\":15306:15324   */\n      add\n        /* \"#utility.yul\":15298:15324   */\n      swap1\n      pop\n        /* \"#utility.yul\":15334:15405   */\n      tag_245\n        /* \"#utility.yul\":15402:15403   */\n      0x00\n        /* \"#utility.yul\":15391:15400   */\n      dup4\n        /* \"#utility.yul\":15387:15404   */\n      add\n        /* \"#utility.yul\":15378:15384   */\n      dup5\n        /* \"#utility.yul\":15334:15405   */\n      tag_204\n      jump\t// in\n    tag_245:\n        /* \"#utility.yul\":15190:15412   */\n      swap3\n      swap2\n      pop\n      pop\n      jump\t// out\n        /* \"#utility.yul\":15418:15547   */\n    tag_74:\n        /* \"#utility.yul\":15452:15458   */\n      0x00\n        /* \"#utility.yul\":15479:15499   */\n      tag_247\n      tag_248\n      jump\t// in\n    tag_247:\n        /* \"#utility.yul\":15469:15499   */\n      swap1\n      pop\n        /* \"#utility.yul\":15508:15541   */\n      tag_249\n        /* \"#utility.yul\":15536:15540   */\n      dup3\n        /* \"#utility.yul\":15528:15534   */\n      dup3\n        /* \"#utility.yul\":15508:15541   */\n      tag_250\n      jump\t// in\n    tag_249:\n        /* \"#utility.yul\":15418:15547   */\n      swap2\n      swap1\n      pop\n      jump\t// out\n        /* \"#utility.yul\":15553:15628   */\n    tag_248:\n        /* \"#utility.yul\":15586:15592   */\n      0x00\n        /* \"#utility.yul\":15619:15621   */\n      0x40\n        /* \"#utility.yul\":15613:15622   */\n      mload\n        /* \"#utility.yul\":15603:15622   */\n      swap1\n      pop\n        /* \"#utility.yul\":15553:15628   */\n      swap1\n      jump\t// out\n        /* \"#utility.yul\":15634:15942   */\n    tag_73:\n        /* \"#utility.yul\":15696:15700   */\n      0x00\n        /* \"#utility.yul\":15786:15804   */\n      0xffffffffffffffff\n        /* \"#utility.yul\":15778:15784   */\n      dup3\n        /* \"#utility.yul\":15775:15805   */\n      gt\n        /* \"#utility.yul\":15772:15828   */\n      iszero\n      tag_253\n      jumpi\n        /* \"#utility.yul\":15808:15826   */\n      tag_254\n      tag_255\n      jump\t// in\n    tag_254:\n        /* \"#utility.yul\":15772:15828   */\n    tag_253:\n        /* \"#utility.yul\":15846:15875   */\n      tag_256\n        /* \"#utility.yul\":15868:15874   */\n      dup3\n        /* \"#utility.yul\":15846:15875   */\n      tag_152\n      jump\t// in\n    tag_256:\n        /* \"#utility.yul\":15838:15875   */\n      swap1\n      pop\n        /* \"#utility.yul\":15930:15934   */\n      0x20\n        /* \"#utility.yul\":15924:15928   */\n      dup2\n        /* \"#utility.yul\":15920:15935   */\n      add\n        /* \"#utility.yul\":15912:15935   */\n      swap1\n      pop\n        /* \"#utility.yul\":15634:15942   */\n      swap2\n      swap1\n      pop\n      jump\t// out\n        /* \"#utility.yul\":15948:16047   */\n    tag_147:\n        /* \"#utility.yul\":16000:16006   */\n      0x00\n        /* \"#utility.yul\":16034:16039   */\n      dup2\n        /* \"#utility.yul\":16028:16040   */\n      mload\n        /* \"#utility.yul\":16018:16040   */\n      swap1\n      pop\n        /* \"#utility.yul\":15948:16047   */\n      swap2\n      swap1\n      pop\n      jump\t// out\n        /* \"#utility.yul\":16053:16222   */\n    tag_149:\n        /* \"#utility.yul\":16137:16148   */\n      0x00\n        /* \"#utility.yul\":16171:16177   */\n      dup3\n        /* \"#utility.yul\":16166:16169   */\n      dup3\n        /* \"#utility.yul\":16159:16178   */\n      mstore\n        /* \"#utility.yul\":16211:16215   */\n      0x20\n        /* \"#utility.yul\":16206:16209   */\n      dup3\n        /* \"#utility.yul\":16202:16216   */\n      add\n        /* \"#utility.yul\":16187:16216   */\n      swap1\n      pop\n        /* \"#utility.yul\":16053:16222   */\n      swap3\n      swap2\n      pop\n      pop\n      jump\t// out\n        /* \"#utility.yul\":16228:16376   */\n    tag_157:\n        /* \"#utility.yul\":16330:16341   */\n      0x00\n        /* \"#utility.yul\":16367:16370   */\n      dup2\n        /* \"#utility.yul\":16352:16370   */\n      swap1\n      pop\n        /* \"#utility.yul\":16228:16376   */\n      swap3\n      swap2\n      pop\n      pop\n      jump\t// out\n        /* \"#utility.yul\":16382:16478   */\n    tag_139:\n        /* \"#utility.yul\":16419:16426   */\n      0x00\n        /* \"#utility.yul\":16448:16472   */\n      tag_261\n        /* \"#utility.yul\":16466:16471   */\n      dup3\n        /* \"#utility.yul\":16448:16472   */\n      tag_262\n      jump\t// in\n    tag_261:\n        /* \"#utility.yul\":16437:16472   */\n      swap1\n      pop\n        /* \"#utility.yul\":16382:16478   */\n      swap2\n      swap1\n      pop\n      jump\t// out\n        /* \"#utility.yul\":16484:16574   */\n    tag_143:\n        /* \"#utility.yul\":16518:16525   */\n      0x00\n        /* \"#utility.yul\":16561:16566   */\n      dup2\n        /* \"#utility.yul\":16554:16567   */\n      iszero\n        /* \"#utility.yul\":16547:16568   */\n      iszero\n        /* \"#utility.yul\":16536:16568   */\n      swap1\n      pop\n        /* \"#utility.yul\":16484:16574   */\n      swap2\n      swap1\n      pop\n      jump\t// out\n        /* \"#utility.yul\":16580:16706   */\n    tag_262:\n        /* \"#utility.yul\":16617:16624   */\n      0x00\n        /* \"#utility.yul\":16657:16699   */\n      0xffffffffffffffffffffffffffffffffffffffff\n        /* \"#utility.yul\":16650:16655   */\n      dup3\n        /* \"#utility.yul\":16646:16700   */\n      and\n        /* \"#utility.yul\":16635:16700   */\n      swap1\n      pop\n        /* \"#utility.yul\":16580:16706   */\n      swap2\n      swap1\n      pop\n      jump\t// out\n        /* \"#utility.yul\":16712:16789   */\n    tag_207:\n        /* \"#utility.yul\":16749:16756   */\n      0x00\n        /* \"#utility.yul\":16778:16783   */\n      dup2\n        /* \"#utility.yul\":16767:16783   */\n      swap1\n      pop\n        /* \"#utility.yul\":16712:16789   */\n      swap2\n      swap1\n      pop\n      jump\t// out\n        /* \"#utility.yul\":16795:16949   */\n    tag_79:\n        /* \"#utility.yul\":16879:16885   */\n      dup3\n        /* \"#utility.yul\":16874:16877   */\n      dup2\n        /* \"#utility.yul\":16869:16872   */\n      dup4\n        /* \"#utility.yul\":16856:16886   */\n      calldatacopy\n        /* \"#utility.yul\":16941:16942   */\n      0x00\n        /* \"#utility.yul\":16932:16938   */\n      dup4\n        /* \"#utility.yul\":16927:16930   */\n      dup4\n        /* \"#utility.yul\":16923:16939   */\n      add\n        /* \"#utility.yul\":16916:16943   */\n      mstore\n        /* \"#utility.yul\":16795:16949   */\n      pop\n      pop\n      pop\n      jump\t// out\n        /* \"#utility.yul\":16955:17262   */\n    tag_87:\n        /* \"#utility.yul\":17023:17024   */\n      0x00\n        /* \"#utility.yul\":17033:17146   */\n    tag_268:\n        /* \"#utility.yul\":17047:17053   */\n      dup4\n        /* \"#utility.yul\":17044:17045   */\n      dup2\n        /* \"#utility.yul\":17041:17054   */\n      lt\n        /* \"#utility.yul\":17033:17146   */\n      iszero\n      tag_270\n      jumpi\n        /* \"#utility.yul\":17132:17133   */\n      dup1\n        /* \"#utility.yul\":17127:17130   */\n      dup3\n        /* \"#utility.yul\":17123:17134   */\n      add\n        /* \"#utility.yul\":17117:17135   */\n      mload\n        /* \"#utility.yul\":17113:17114   */\n      dup2\n        /* \"#utility.yul\":17108:17111   */\n      dup5\n        /* \"#utility.yul\":17104:17115   */\n      add\n        /* \"#utility.yul\":17097:17136   */\n      mstore\n        /* \"#utility.yul\":17069:17071   */\n      0x20\n        /* \"#utility.yul\":17066:17067   */\n      dup2\n        /* \"#utility.yul\":17062:17072   */\n      add\n        /* \"#utility.yul\":17057:17072   */\n      swap1\n      pop\n        /* \"#utility.yul\":17033:17146   */\n      jump(tag_268)\n    tag_270:\n        /* \"#utility.yul\":17164:17170   */\n      dup4\n        /* \"#utility.yul\":17161:17162   */\n      dup2\n        /* \"#utility.yul\":17158:17171   */\n      gt\n        /* \"#utility.yul\":17155:17256   */\n      iszero\n      tag_271\n      jumpi\n        /* \"#utility.yul\":17244:17245   */\n      0x00\n        /* \"#utility.yul\":17235:17241   */\n      dup5\n        /* \"#utility.yul\":17230:17233   */\n      dup5\n        /* \"#utility.yul\":17226:17242   */\n      add\n        /* \"#utility.yul\":17219:17246   */\n      mstore\n        /* \"#utility.yul\":17155:17256   */\n    tag_271:\n        /* \"#utility.yul\":17004:17262   */\n      pop\n        /* \"#utility.yul\":16955:17262   */\n      pop\n      pop\n      pop\n      jump\t// out\n        /* \"#utility.yul\":17268:17549   */\n    tag_250:\n        /* \"#utility.yul\":17351:17378   */\n      tag_273\n        /* \"#utility.yul\":17373:17377   */\n      dup3\n        /* \"#utility.yul\":17351:17378   */\n      tag_152\n      jump\t// in\n    tag_273:\n        /* \"#utility.yul\":17343:17349   */\n      dup2\n        /* \"#utility.yul\":17339:17379   */\n      add\n        /* \"#utility.yul\":17481:17487   */\n      dup2\n        /* \"#utility.yul\":17469:17479   */\n      dup2\n        /* \"#utility.yul\":17466:17488   */\n      lt\n        /* \"#utility.yul\":17445:17463   */\n      0xffffffffffffffff\n        /* \"#utility.yul\":17433:17443   */\n      dup3\n        /* \"#utility.yul\":17430:17464   */\n      gt\n        /* \"#utility.yul\":17427:17489   */\n      or\n        /* \"#utility.yul\":17424:17512   */\n      iszero\n      tag_274\n      jumpi\n        /* \"#utility.yul\":17492:17510   */\n      tag_275\n      tag_255\n      jump\t// in\n    tag_275:\n        /* \"#utility.yul\":17424:17512   */\n    tag_274:\n        /* \"#utility.yul\":17532:17542   */\n      dup1\n        /* \"#utility.yul\":17528:17530   */\n      0x40\n        /* \"#utility.yul\":17521:17543   */\n      mstore\n        /* \"#utility.yul\":17311:17549   */\n      pop\n        /* \"#utility.yul\":17268:17549   */\n      pop\n      pop\n      jump\t// out\n        /* \"#utility.yul\":17555:17735   */\n    tag_255:\n        /* \"#utility.yul\":17603:17680   */\n      0x4e487b7100000000000000000000000000000000000000000000000000000000\n        /* \"#utility.yul\":17600:17601   */\n      0x00\n        /* \"#utility.yul\":17593:17681   */\n      mstore\n        /* \"#utility.yul\":17700:17704   */\n      0x41\n        /* \"#utility.yul\":17697:17698   */\n      0x04\n        /* \"#utility.yul\":17690:17705   */\n      mstore\n        /* \"#utility.yul\":17724:17728   */\n      0x24\n        /* \"#utility.yul\":17721:17722   */\n      0x00\n        /* \"#utility.yul\":17714:17729   */\n      revert\n        /* \"#utility.yul\":17741:17858   */\n    tag_96:\n        /* \"#utility.yul\":17850:17851   */\n      0x00\n        /* \"#utility.yul\":17847:17848   */\n      dup1\n        /* \"#utility.yul\":17840:17852   */\n      revert\n        /* \"#utility.yul\":17864:17981   */\n    tag_77:\n        /* \"#utility.yul\":17973:17974   */\n      0x00\n        /* \"#utility.yul\":17970:17971   */\n      dup1\n        /* \"#utility.yul\":17963:17975   */\n      revert\n        /* \"#utility.yul\":17987:18104   */\n    tag_119:\n        /* \"#utility.yul\":18096:18097   */\n      0x00\n        /* \"#utility.yul\":18093:18094   */\n      dup1\n        /* \"#utility.yul\":18086:18098   */\n      revert\n        /* \"#utility.yul\":18110:18227   */\n    tag_106:\n        /* \"#utility.yul\":18219:18220   */\n      0x00\n        /* \"#utility.yul\":18216:18217   */\n      dup1\n        /* \"#utility.yul\":18209:18221   */\n      revert\n        /* \"#utility.yul\":18233:18335   */\n    tag_152:\n        /* \"#utility.yul\":18274:18280   */\n      0x00\n        /* \"#utility.yul\":18325:18327   */\n      0x1f\n        /* \"#utility.yul\":18321:18328   */\n      not\n        /* \"#utility.yul\":18316:18318   */\n      0x1f\n        /* \"#utility.yul\":18309:18314   */\n      dup4\n        /* \"#utility.yul\":18305:18319   */\n      add\n        /* \"#utility.yul\":18301:18329   */\n      and\n        /* \"#utility.yul\":18291:18329   */\n      swap1\n      pop\n        /* \"#utility.yul\":18233:18335   */\n      swap2\n      swap1\n      pop\n      jump\t// out\n        /* \"#utility.yul\":18341:18496   */\n    tag_163:\n        /* \"#utility.yul\":18481:18488   */\n      0x636c6f7365000000000000000000000000000000000000000000000000000000\n        /* \"#utility.yul\":18477:18478   */\n      0x00\n        /* \"#utility.yul\":18469:18475   */\n      dup3\n        /* \"#utility.yul\":18465:18479   */\n      add\n        /* \"#utility.yul\":18458:18489   */\n      mstore\n        /* \"#utility.yul\":18341:18496   */\n      pop\n      jump\t// out\n        /* \"#utility.yul\":18502:18659   */\n    tag_168:\n        /* \"#utility.yul\":18642:18651   */\n      0x322e322e322e3200000000000000000000000000000000000000000000000000\n        /* \"#utility.yul\":18638:18639   */\n      0x00\n        /* \"#utility.yul\":18630:18636   */\n      dup3\n        /* \"#utility.yul\":18626:18640   */\n      add\n        /* \"#utility.yul\":18619:18652   */\n      mstore\n        /* \"#utility.yul\":18502:18659   */\n      pop\n      jump\t// out\n        /* \"#utility.yul\":18665:18827   */\n    tag_173:\n        /* \"#utility.yul\":18805:18819   */\n      0x4163636573732070617373210000000000000000000000000000000000000000\n        /* \"#utility.yul\":18801:18802   */\n      0x00\n        /* \"#utility.yul\":18793:18799   */\n      dup3\n        /* \"#utility.yul\":18789:18803   */\n      add\n        /* \"#utility.yul\":18782:18820   */\n      mstore\n        /* \"#utility.yul\":18665:18827   */\n      pop\n      jump\t// out\n        /* \"#utility.yul\":18833:18990   */\n    tag_178:\n        /* \"#utility.yul\":18973:18982   */\n      0x7265737461727400000000000000000000000000000000000000000000000000\n        /* \"#utility.yul\":18969:18970   */\n      0x00\n        /* \"#utility.yul\":18961:18967   */\n      dup3\n        /* \"#utility.yul\":18957:18971   */\n      add\n        /* \"#utility.yul\":18950:18983   */\n      mstore\n        /* \"#utility.yul\":18833:18990   */\n      pop\n      jump\t// out\n        /* \"#utility.yul\":18996:19165   */\n    tag_183:\n        /* \"#utility.yul\":19136:19157   */\n      0x496c6c6567616c20495020616464726573732100000000000000000000000000\n        /* \"#utility.yul\":19132:19133   */\n      0x00\n        /* \"#utility.yul\":19124:19130   */\n      dup3\n        /* \"#utility.yul\":19120:19134   */\n      add\n        /* \"#utility.yul\":19113:19158   */\n      mstore\n        /* \"#utility.yul\":18996:19165   */\n      pop\n      jump\t// out\n        /* \"#utility.yul\":19171:19325   */\n    tag_188:\n        /* \"#utility.yul\":19311:19317   */\n      0x6b696c6c00000000000000000000000000000000000000000000000000000000\n        /* \"#utility.yul\":19307:19308   */\n      0x00\n        /* \"#utility.yul\":19299:19305   */\n      dup3\n        /* \"#utility.yul\":19295:19309   */\n      add\n        /* \"#utility.yul\":19288:19318   */\n      mstore\n        /* \"#utility.yul\":19171:19325   */\n      pop\n      jump\t// out\n        /* \"#utility.yul\":19331:19485   */\n    tag_193:\n        /* \"#utility.yul\":19471:19477   */\n      0x6f70656e00000000000000000000000000000000000000000000000000000000\n        /* \"#utility.yul\":19467:19468   */\n      0x00\n        /* \"#utility.yul\":19459:19465   */\n      dup3\n        /* \"#utility.yul\":19455:19469   */\n      add\n        /* \"#utility.yul\":19448:19478   */\n      mstore\n        /* \"#utility.yul\":19331:19485   */\n      pop\n      jump\t// out\n        /* \"#utility.yul\":19491:19661   */\n    tag_198:\n        /* \"#utility.yul\":19631:19653   */\n      0x556e617574686f72697a65642061636365737321000000000000000000000000\n        /* \"#utility.yul\":19627:19628   */\n      0x00\n        /* \"#utility.yul\":19619:19625   */\n      dup3\n        /* \"#utility.yul\":19615:19629   */\n      add\n        /* \"#utility.yul\":19608:19654   */\n      mstore\n        /* \"#utility.yul\":19491:19661   */\n      pop\n      jump\t// out\n        /* \"#utility.yul\":19667:19821   */\n    tag_203:\n        /* \"#utility.yul\":19807:19813   */\n      0x7265616400000000000000000000000000000000000000000000000000000000\n        /* \"#utility.yul\":19803:19804   */\n      0x00\n        /* \"#utility.yul\":19795:19801   */\n      dup3\n        /* \"#utility.yul\":19791:19805   */\n      add\n        /* \"#utility.yul\":19784:19814   */\n      mstore\n        /* \"#utility.yul\":19667:19821   */\n      pop\n      jump\t// out\n        /* \"#utility.yul\":19827:19949   */\n    tag_91:\n        /* \"#utility.yul\":19900:19924   */\n      tag_292\n        /* \"#utility.yul\":19918:19923   */\n      dup2\n        /* \"#utility.yul\":19900:19924   */\n      tag_139\n      jump\t// in\n    tag_292:\n        /* \"#utility.yul\":19893:19898   */\n      dup2\n        /* \"#utility.yul\":19890:19925   */\n      eq\n        /* \"#utility.yul\":19880:19943   */\n      tag_293\n      jumpi\n        /* \"#utility.yul\":19939:19940   */\n      0x00\n        /* \"#utility.yul\":19936:19937   */\n      dup1\n        /* \"#utility.yul\":19929:19941   */\n      revert\n        /* \"#utility.yul\":19880:19943   */\n    tag_293:\n        /* \"#utility.yul\":19827:19949   */\n      pop\n      jump\t// out\n\n    auxdata: 0xa264697066735822122092676ecc8b0561c35f5c90dbb8000028a4354c5de9a5edcc99cf4ab848ee116164736f6c63430008070033\n}\n",
				"bytecode": {
					"linkReferences": {},
					"object": "608060405234801561001057600080fd5b50610f39806100206000396000f3fe608060405234801561001057600080fd5b506004361061004c5760003560e01c806332076e77146100515780639c6f188e14610081578063c0821da3146100b1578063f09a4016146100cf575b600080fd5b61006b600480360381019061006691906106fe565b6100eb565b6040516100789190610bb9565b60405180910390f35b61009b60048036038101906100969190610691565b6103e9565b6040516100a89190610bd4565b60405180910390f35b6100b9610432565b6040516100c69190610bd4565b60405180910390f35b6100e960048036038101906100e491906106be565b61043a565b005b600042600460003373ffffffffffffffffffffffffffffffffffffffff1673ffffffffffffffffffffffffffffffffffffffff1681526020019081526020016000208190555060008060009054906101000a900473ffffffffffffffffffffffffffffffffffffffff1673ffffffffffffffffffffffffffffffffffffffff16638749774f33866040518363ffffffff1660e01b815260040161018f929190610a9d565b60006040518083038186803b1580156101a757600080fd5b505afa1580156101bb573d6000803e3d6000fd5b505050506040513d6000823e3d601f19601f820116820180604052508101906101e4919061075a565b90506002816040516101f691906109ed565b90815260200160405180910390205460028460405161021591906109ed565b908152602001604051809103902054121561026f577f4393de65ee68a32d7987583b1f2c6e6aa80df7d9ad5c0661660d70dff18b9d6d33858560405161025d93929190610b68565b60405180910390a160009150506103e3565b60608060008054906101000a900473ffffffffffffffffffffffffffffffffffffffff1673ffffffffffffffffffffffffffffffffffffffff16639f764d16336040518263ffffffff1660e01b81526004016102cb9190610a82565b60006040518083038186803b1580156102e357600080fd5b505afa1580156102f7573d6000803e3d6000fd5b505050506040513d6000823e3d601f19601f8201168201806040525081019061032091906107a3565b809250819350505060038160405161033891906109ed565b908152602001604051809103902060009054906101000a900460ff16156103a0577f4393de65ee68a32d7987583b1f2c6e6aa80df7d9ad5c0661660d70dff18b9d6d33878760405161038c93929190610b17565b60405180910390a1600093505050506103e3565b7f4393de65ee68a32d7987583b1f2c6e6aa80df7d9ad5c0661660d70dff18b9d6d3387876040516103d393929190610ac6565b60405180910390a1600193505050505b92915050565b6000600460008373ffffffffffffffffffffffffffffffffffffffff1673ffffffffffffffffffffffffffffffffffffffff168152602001908152602001600020549050919050565b600042905090565b816000806101000a81548173ffffffffffffffffffffffffffffffffffffffff021916908373ffffffffffffffffffffffffffffffffffffffff16021790555080600160006101000a81548173ffffffffffffffffffffffffffffffffffffffff021916908373ffffffffffffffffffffffffffffffffffffffff160217905550600060026040516104cb90610a6d565b908152602001604051809103902081905550600160026040516104ed90610a58565b9081526020016040518091039020819055506001600260405161050f90610a04565b90815260200160405180910390208190555060028060405161053090610a2e565b90815260200160405180910390208190555060028060405161055190610a43565b9081526020016040518091039020819055506001600360405161057390610a19565b908152602001604051809103902060006101000a81548160ff0219169083151502179055505050565b60006105af6105aa84610c14565b610bef565b9050828152602081018484840111156105cb576105ca610d5b565b5b6105d6848285610cb4565b509392505050565b60006105f16105ec84610c14565b610bef565b90508281526020810184848401111561060d5761060c610d5b565b5b610618848285610cc3565b509392505050565b60008135905061062f81610eec565b92915050565b600082601f83011261064a57610649610d56565b5b813561065a84826020860161059c565b91505092915050565b600082601f83011261067857610677610d56565b5b81516106888482602086016105de565b91505092915050565b6000602082840312156106a7576106a6610d65565b5b60006106b584828501610620565b91505092915050565b600080604083850312156106d5576106d4610d65565b5b60006106e385828601610620565b92505060206106f485828601610620565b9150509250929050565b6000806040838503121561071557610714610d65565b5b600061072385828601610620565b925050602083013567ffffffffffffffff81111561074457610743610d60565b5b61075085828601610635565b9150509250929050565b6000602082840312156107705761076f610d65565b5b600082015167ffffffffffffffff81111561078e5761078d610d60565b5b61079a84828501610663565b91505092915050565b600080604083850312156107ba576107b9610d65565b5b600083015167ffffffffffffffff8111156107d8576107d7610d60565b5b6107e485828601610663565b925050602083015167ffffffffffffffff81111561080557610804610d60565b5b61081185828601610663565b9150509250929050565b61082481610c6c565b82525050565b61083381610c7e565b82525050565b600061084482610c45565b61084e8185610c50565b935061085e818560208601610cc3565b61086781610d6a565b840191505092915050565b600061087d82610c45565b6108878185610c61565b9350610897818560208601610cc3565b80840191505092915050565b60006108b0600583610c61565b91506108bb82610d7b565b600582019050919050565b60006108d3600783610c61565b91506108de82610da4565b600782019050919050565b60006108f6600c83610c50565b915061090182610dcd565b602082019050919050565b6000610919600783610c61565b915061092482610df6565b600782019050919050565b600061093c601383610c50565b915061094782610e1f565b602082019050919050565b600061095f600483610c61565b915061096a82610e48565b600482019050919050565b6000610982600483610c61565b915061098d82610e71565b600482019050919050565b60006109a5601483610c50565b91506109b082610e9a565b602082019050919050565b60006109c8600483610c61565b91506109d382610ec3565b600482019050919050565b6109e781610caa565b82525050565b60006109f98284610872565b915081905092915050565b6000610a0f826108a3565b9150819050919050565b6000610a24826108c6565b9150819050919050565b6000610a398261090c565b9150819050919050565b6000610a4e82610952565b9150819050919050565b6000610a6382610975565b9150819050919050565b6000610a78826109bb565b9150819050919050565b6000602082019050610a97600083018461081b565b92915050565b6000604082019050610ab2600083018561081b565b610abf602083018461081b565b9392505050565b6000608082019050610adb600083018661081b565b610ae8602083018561081b565b8181036040830152610afa8184610839565b90508181036060830152610b0d816108e9565b9050949350505050565b6000608082019050610b2c600083018661081b565b610b39602083018561081b565b8181036040830152610b4b8184610839565b90508181036060830152610b5e8161092f565b9050949350505050565b6000608082019050610b7d600083018661081b565b610b8a602083018561081b565b8181036040830152610b9c8184610839565b90508181036060830152610baf81610998565b9050949350505050565b6000602082019050610bce600083018461082a565b92915050565b6000602082019050610be960008301846109de565b92915050565b6000610bf9610c0a565b9050610c058282610cf6565b919050565b6000604051905090565b600067ffffffffffffffff821115610c2f57610c2e610d27565b5b610c3882610d6a565b9050602081019050919050565b600081519050919050565b600082825260208201905092915050565b600081905092915050565b6000610c7782610c8a565b9050919050565b60008115159050919050565b600073ffffffffffffffffffffffffffffffffffffffff82169050919050565b6000819050919050565b82818337600083830152505050565b60005b83811015610ce1578082015181840152602081019050610cc6565b83811115610cf0576000848401525b50505050565b610cff82610d6a565b810181811067ffffffffffffffff82111715610d1e57610d1d610d27565b5b80604052505050565b7f4e487b7100000000000000000000000000000000000000000000000000000000600052604160045260246000fd5b600080fd5b600080fd5b600080fd5b600080fd5b6000601f19601f8301169050919050565b7f636c6f7365000000000000000000000000000000000000000000000000000000600082015250565b7f322e322e322e3200000000000000000000000000000000000000000000000000600082015250565b7f4163636573732070617373210000000000000000000000000000000000000000600082015250565b7f7265737461727400000000000000000000000000000000000000000000000000600082015250565b7f496c6c6567616c20495020616464726573732100000000000000000000000000600082015250565b7f6b696c6c00000000000000000000000000000000000000000000000000000000600082015250565b7f6f70656e00000000000000000000000000000000000000000000000000000000600082015250565b7f556e617574686f72697a65642061636365737321000000000000000000000000600082015250565b7f7265616400000000000000000000000000000000000000000000000000000000600082015250565b610ef581610c6c565b8114610f0057600080fd5b5056fea264697066735822122092676ecc8b0561c35f5c90dbb8000028a4354c5de9a5edcc99cf4ab848ee116164736f6c63430008070033",
					"opcodes": "PUSH1 0x80 PUSH1 0x40 MSTORE CALLVALUE DUP1 ISZERO PUSH2 0x10 JUMPI PUSH1 0x0 DUP1 REVERT JUMPDEST POP PUSH2 0xF39 DUP1 PUSH2 0x20 PUSH1 0x0 CODECOPY PUSH1 0x0 RETURN INVALID PUSH1 0x80 PUSH1 0x40 MSTORE CALLVALUE DUP1 ISZERO PUSH2 0x10 JUMPI PUSH1 0x0 DUP1 REVERT JUMPDEST POP PUSH1 0x4 CALLDATASIZE LT PUSH2 0x4C JUMPI PUSH1 0x0 CALLDATALOAD PUSH1 0xE0 SHR DUP1 PUSH4 0x32076E77 EQ PUSH2 0x51 JUMPI DUP1 PUSH4 0x9C6F188E EQ PUSH2 0x81 JUMPI DUP1 PUSH4 0xC0821DA3 EQ PUSH2 0xB1 JUMPI DUP1 PUSH4 0xF09A4016 EQ PUSH2 0xCF JUMPI JUMPDEST PUSH1 0x0 DUP1 REVERT JUMPDEST PUSH2 0x6B PUSH1 0x4 DUP1 CALLDATASIZE SUB DUP2 ADD SWAP1 PUSH2 0x66 SWAP2 SWAP1 PUSH2 0x6FE JUMP JUMPDEST PUSH2 0xEB JUMP JUMPDEST PUSH1 0x40 MLOAD PUSH2 0x78 SWAP2 SWAP1 PUSH2 0xBB9 JUMP JUMPDEST PUSH1 0x40 MLOAD DUP1 SWAP2 SUB SWAP1 RETURN JUMPDEST PUSH2 0x9B PUSH1 0x4 DUP1 CALLDATASIZE SUB DUP2 ADD SWAP1 PUSH2 0x96 SWAP2 SWAP1 PUSH2 0x691 JUMP JUMPDEST PUSH2 0x3E9 JUMP JUMPDEST PUSH1 0x40 MLOAD PUSH2 0xA8 SWAP2 SWAP1 PUSH2 0xBD4 JUMP JUMPDEST PUSH1 0x40 MLOAD DUP1 SWAP2 SUB SWAP1 RETURN JUMPDEST PUSH2 0xB9 PUSH2 0x432 JUMP JUMPDEST PUSH1 0x40 MLOAD PUSH2 0xC6 SWAP2 SWAP1 PUSH2 0xBD4 JUMP JUMPDEST PUSH1 0x40 MLOAD DUP1 SWAP2 SUB SWAP1 RETURN JUMPDEST PUSH2 0xE9 PUSH1 0x4 DUP1 CALLDATASIZE SUB DUP2 ADD SWAP1 PUSH2 0xE4 SWAP2 SWAP1 PUSH2 0x6BE JUMP JUMPDEST PUSH2 0x43A JUMP JUMPDEST STOP JUMPDEST PUSH1 0x0 TIMESTAMP PUSH1 0x4 PUSH1 0x0 CALLER PUSH20 0xFFFFFFFFFFFFFFFFFFFFFFFFFFFFFFFFFFFFFFFF AND PUSH20 0xFFFFFFFFFFFFFFFFFFFFFFFFFFFFFFFFFFFFFFFF AND DUP2 MSTORE PUSH1 0x20 ADD SWAP1 DUP2 MSTORE PUSH1 0x20 ADD PUSH1 0x0 KECCAK256 DUP2 SWAP1 SSTORE POP PUSH1 0x0 DUP1 PUSH1 0x0 SWAP1 SLOAD SWAP1 PUSH2 0x100 EXP SWAP1 DIV PUSH20 0xFFFFFFFFFFFFFFFFFFFFFFFFFFFFFFFFFFFFFFFF AND PUSH20 0xFFFFFFFFFFFFFFFFFFFFFFFFFFFFFFFFFFFFFFFF AND PUSH4 0x8749774F CALLER DUP7 PUSH1 0x40 MLOAD DUP4 PUSH4 0xFFFFFFFF AND PUSH1 0xE0 SHL DUP2 MSTORE PUSH1 0x4 ADD PUSH2 0x18F SWAP3 SWAP2 SWAP1 PUSH2 0xA9D JUMP JUMPDEST PUSH1 0x0 PUSH1 0x40 MLOAD DUP1 DUP4 SUB DUP2 DUP7 DUP1 EXTCODESIZE ISZERO DUP1 ISZERO PUSH2 0x1A7 JUMPI PUSH1 0x0 DUP1 REVERT JUMPDEST POP GAS STATICCALL ISZERO DUP1 ISZERO PUSH2 0x1BB JUMPI RETURNDATASIZE PUSH1 0x0 DUP1 RETURNDATACOPY RETURNDATASIZE PUSH1 0x0 REVERT JUMPDEST POP POP POP POP PUSH1 0x40 MLOAD RETURNDATASIZE PUSH1 0x0 DUP3 RETURNDATACOPY RETURNDATASIZE PUSH1 0x1F NOT PUSH1 0x1F DUP3 ADD AND DUP3 ADD DUP1 PUSH1 0x40 MSTORE POP DUP2 ADD SWAP1 PUSH2 0x1E4 SWAP2 SWAP1 PUSH2 0x75A JUMP JUMPDEST SWAP1 POP PUSH1 0x2 DUP2 PUSH1 0x40 MLOAD PUSH2 0x1F6 SWAP2 SWAP1 PUSH2 0x9ED JUMP JUMPDEST SWAP1 DUP2 MSTORE PUSH1 0x20 ADD PUSH1 0x40 MLOAD DUP1 SWAP2 SUB SWAP1 KECCAK256 SLOAD PUSH1 0x2 DUP5 PUSH1 0x40 MLOAD PUSH2 0x215 SWAP2 SWAP1 PUSH2 0x9ED JUMP JUMPDEST SWAP1 DUP2 MSTORE PUSH1 0x20 ADD PUSH1 0x40 MLOAD DUP1 SWAP2 SUB SWAP1 KECCAK256 SLOAD SLT ISZERO PUSH2 0x26F JUMPI PUSH32 0x4393DE65EE68A32D7987583B1F2C6E6AA80DF7D9AD5C0661660D70DFF18B9D6D CALLER DUP6 DUP6 PUSH1 0x40 MLOAD PUSH2 0x25D SWAP4 SWAP3 SWAP2 SWAP1 PUSH2 0xB68 JUMP JUMPDEST PUSH1 0x40 MLOAD DUP1 SWAP2 SUB SWAP1 LOG1 PUSH1 0x0 SWAP2 POP POP PUSH2 0x3E3 JUMP JUMPDEST PUSH1 0x60 DUP1 PUSH1 0x0 DUP1 SLOAD SWAP1 PUSH2 0x100 EXP SWAP1 DIV PUSH20 0xFFFFFFFFFFFFFFFFFFFFFFFFFFFFFFFFFFFFFFFF AND PUSH20 0xFFFFFFFFFFFFFFFFFFFFFFFFFFFFFFFFFFFFFFFF AND PUSH4 0x9F764D16 CALLER PUSH1 0x40 MLOAD DUP3 PUSH4 0xFFFFFFFF AND PUSH1 0xE0 SHL DUP2 MSTORE PUSH1 0x4 ADD PUSH2 0x2CB SWAP2 SWAP1 PUSH2 0xA82 JUMP JUMPDEST PUSH1 0x0 PUSH1 0x40 MLOAD DUP1 DUP4 SUB DUP2 DUP7 DUP1 EXTCODESIZE ISZERO DUP1 ISZERO PUSH2 0x2E3 JUMPI PUSH1 0x0 DUP1 REVERT JUMPDEST POP GAS STATICCALL ISZERO DUP1 ISZERO PUSH2 0x2F7 JUMPI RETURNDATASIZE PUSH1 0x0 DUP1 RETURNDATACOPY RETURNDATASIZE PUSH1 0x0 REVERT JUMPDEST POP POP POP POP PUSH1 0x40 MLOAD RETURNDATASIZE PUSH1 0x0 DUP3 RETURNDATACOPY RETURNDATASIZE PUSH1 0x1F NOT PUSH1 0x1F DUP3 ADD AND DUP3 ADD DUP1 PUSH1 0x40 MSTORE POP DUP2 ADD SWAP1 PUSH2 0x320 SWAP2 SWAP1 PUSH2 0x7A3 JUMP JUMPDEST DUP1 SWAP3 POP DUP2 SWAP4 POP POP POP PUSH1 0x3 DUP2 PUSH1 0x40 MLOAD PUSH2 0x338 SWAP2 SWAP1 PUSH2 0x9ED JUMP JUMPDEST SWAP1 DUP2 MSTORE PUSH1 0x20 ADD PUSH1 0x40 MLOAD DUP1 SWAP2 SUB SWAP1 KECCAK256 PUSH1 0x0 SWAP1 SLOAD SWAP1 PUSH2 0x100 EXP SWAP1 DIV PUSH1 0xFF AND ISZERO PUSH2 0x3A0 JUMPI PUSH32 0x4393DE65EE68A32D7987583B1F2C6E6AA80DF7D9AD5C0661660D70DFF18B9D6D CALLER DUP8 DUP8 PUSH1 0x40 MLOAD PUSH2 0x38C SWAP4 SWAP3 SWAP2 SWAP1 PUSH2 0xB17 JUMP JUMPDEST PUSH1 0x40 MLOAD DUP1 SWAP2 SUB SWAP1 LOG1 PUSH1 0x0 SWAP4 POP POP POP POP PUSH2 0x3E3 JUMP JUMPDEST PUSH32 0x4393DE65EE68A32D7987583B1F2C6E6AA80DF7D9AD5C0661660D70DFF18B9D6D CALLER DUP8 DUP8 PUSH1 0x40 MLOAD PUSH2 0x3D3 SWAP4 SWAP3 SWAP2 SWAP1 PUSH2 0xAC6 JUMP JUMPDEST PUSH1 0x40 MLOAD DUP1 SWAP2 SUB SWAP1 LOG1 PUSH1 0x1 SWAP4 POP POP POP POP JUMPDEST SWAP3 SWAP2 POP POP JUMP JUMPDEST PUSH1 0x0 PUSH1 0x4 PUSH1 0x0 DUP4 PUSH20 0xFFFFFFFFFFFFFFFFFFFFFFFFFFFFFFFFFFFFFFFF AND PUSH20 0xFFFFFFFFFFFFFFFFFFFFFFFFFFFFFFFFFFFFFFFF AND DUP2 MSTORE PUSH1 0x20 ADD SWAP1 DUP2 MSTORE PUSH1 0x20 ADD PUSH1 0x0 KECCAK256 SLOAD SWAP1 POP SWAP2 SWAP1 POP JUMP JUMPDEST PUSH1 0x0 TIMESTAMP SWAP1 POP SWAP1 JUMP JUMPDEST DUP2 PUSH1 0x0 DUP1 PUSH2 0x100 EXP DUP2 SLOAD DUP2 PUSH20 0xFFFFFFFFFFFFFFFFFFFFFFFFFFFFFFFFFFFFFFFF MUL NOT AND SWAP1 DUP4 PUSH20 0xFFFFFFFFFFFFFFFFFFFFFFFFFFFFFFFFFFFFFFFF AND MUL OR SWAP1 SSTORE POP DUP1 PUSH1 0x1 PUSH1 0x0 PUSH2 0x100 EXP DUP2 SLOAD DUP2 PUSH20 0xFFFFFFFFFFFFFFFFFFFFFFFFFFFFFFFFFFFFFFFF MUL NOT AND SWAP1 DUP4 PUSH20 0xFFFFFFFFFFFFFFFFFFFFFFFFFFFFFFFFFFFFFFFF AND MUL OR SWAP1 SSTORE POP PUSH1 0x0 PUSH1 0x2 PUSH1 0x40 MLOAD PUSH2 0x4CB SWAP1 PUSH2 0xA6D JUMP JUMPDEST SWAP1 DUP2 MSTORE PUSH1 0x20 ADD PUSH1 0x40 MLOAD DUP1 SWAP2 SUB SWAP1 KECCAK256 DUP2 SWAP1 SSTORE POP PUSH1 0x1 PUSH1 0x2 PUSH1 0x40 MLOAD PUSH2 0x4ED SWAP1 PUSH2 0xA58 JUMP JUMPDEST SWAP1 DUP2 MSTORE PUSH1 0x20 ADD PUSH1 0x40 MLOAD DUP1 SWAP2 SUB SWAP1 KECCAK256 DUP2 SWAP1 SSTORE POP PUSH1 0x1 PUSH1 0x2 PUSH1 0x40 MLOAD PUSH2 0x50F SWAP1 PUSH2 0xA04 JUMP JUMPDEST SWAP1 DUP2 MSTORE PUSH1 0x20 ADD PUSH1 0x40 MLOAD DUP1 SWAP2 SUB SWAP1 KECCAK256 DUP2 SWAP1 SSTORE POP PUSH1 0x2 DUP1 PUSH1 0x40 MLOAD PUSH2 0x530 SWAP1 PUSH2 0xA2E JUMP JUMPDEST SWAP1 DUP2 MSTORE PUSH1 0x20 ADD PUSH1 0x40 MLOAD DUP1 SWAP2 SUB SWAP1 KECCAK256 DUP2 SWAP1 SSTORE POP PUSH1 0x2 DUP1 PUSH1 0x40 MLOAD PUSH2 0x551 SWAP1 PUSH2 0xA43 JUMP JUMPDEST SWAP1 DUP2 MSTORE PUSH1 0x20 ADD PUSH1 0x40 MLOAD DUP1 SWAP2 SUB SWAP1 KECCAK256 DUP2 SWAP1 SSTORE POP PUSH1 0x1 PUSH1 0x3 PUSH1 0x40 MLOAD PUSH2 0x573 SWAP1 PUSH2 0xA19 JUMP JUMPDEST SWAP1 DUP2 MSTORE PUSH1 0x20 ADD PUSH1 0x40 MLOAD DUP1 SWAP2 SUB SWAP1 KECCAK256 PUSH1 0x0 PUSH2 0x100 EXP DUP2 SLOAD DUP2 PUSH1 0xFF MUL NOT AND SWAP1 DUP4 ISZERO ISZERO MUL OR SWAP1 SSTORE POP POP POP JUMP JUMPDEST PUSH1 0x0 PUSH2 0x5AF PUSH2 0x5AA DUP5 PUSH2 0xC14 JUMP JUMPDEST PUSH2 0xBEF JUMP JUMPDEST SWAP1 POP DUP3 DUP2 MSTORE PUSH1 0x20 DUP2 ADD DUP5 DUP5 DUP5 ADD GT ISZERO PUSH2 0x5CB JUMPI PUSH2 0x5CA PUSH2 0xD5B JUMP JUMPDEST JUMPDEST PUSH2 0x5D6 DUP5 DUP3 DUP6 PUSH2 0xCB4 JUMP JUMPDEST POP SWAP4 SWAP3 POP POP POP JUMP JUMPDEST PUSH1 0x0 PUSH2 0x5F1 PUSH2 0x5EC DUP5 PUSH2 0xC14 JUMP JUMPDEST PUSH2 0xBEF JUMP JUMPDEST SWAP1 POP DUP3 DUP2 MSTORE PUSH1 0x20 DUP2 ADD DUP5 DUP5 DUP5 ADD GT ISZERO PUSH2 0x60D JUMPI PUSH2 0x60C PUSH2 0xD5B JUMP JUMPDEST JUMPDEST PUSH2 0x618 DUP5 DUP3 DUP6 PUSH2 0xCC3 JUMP JUMPDEST POP SWAP4 SWAP3 POP POP POP JUMP JUMPDEST PUSH1 0x0 DUP2 CALLDATALOAD SWAP1 POP PUSH2 0x62F DUP2 PUSH2 0xEEC JUMP JUMPDEST SWAP3 SWAP2 POP POP JUMP JUMPDEST PUSH1 0x0 DUP3 PUSH1 0x1F DUP4 ADD SLT PUSH2 0x64A JUMPI PUSH2 0x649 PUSH2 0xD56 JUMP JUMPDEST JUMPDEST DUP2 CALLDATALOAD PUSH2 0x65A DUP5 DUP3 PUSH1 0x20 DUP7 ADD PUSH2 0x59C JUMP JUMPDEST SWAP2 POP POP SWAP3 SWAP2 POP POP JUMP JUMPDEST PUSH1 0x0 DUP3 PUSH1 0x1F DUP4 ADD SLT PUSH2 0x678 JUMPI PUSH2 0x677 PUSH2 0xD56 JUMP JUMPDEST JUMPDEST DUP2 MLOAD PUSH2 0x688 DUP5 DUP3 PUSH1 0x20 DUP7 ADD PUSH2 0x5DE JUMP JUMPDEST SWAP2 POP POP SWAP3 SWAP2 POP POP JUMP JUMPDEST PUSH1 0x0 PUSH1 0x20 DUP3 DUP5 SUB SLT ISZERO PUSH2 0x6A7 JUMPI PUSH2 0x6A6 PUSH2 0xD65 JUMP JUMPDEST JUMPDEST PUSH1 0x0 PUSH2 0x6B5 DUP5 DUP3 DUP6 ADD PUSH2 0x620 JUMP JUMPDEST SWAP2 POP POP SWAP3 SWAP2 POP POP JUMP JUMPDEST PUSH1 0x0 DUP1 PUSH1 0x40 DUP4 DUP6 SUB SLT ISZERO PUSH2 0x6D5 JUMPI PUSH2 0x6D4 PUSH2 0xD65 JUMP JUMPDEST JUMPDEST PUSH1 0x0 PUSH2 0x6E3 DUP6 DUP3 DUP7 ADD PUSH2 0x620 JUMP JUMPDEST SWAP3 POP POP PUSH1 0x20 PUSH2 0x6F4 DUP6 DUP3 DUP7 ADD PUSH2 0x620 JUMP JUMPDEST SWAP2 POP POP SWAP3 POP SWAP3 SWAP1 POP JUMP JUMPDEST PUSH1 0x0 DUP1 PUSH1 0x40 DUP4 DUP6 SUB SLT ISZERO PUSH2 0x715 JUMPI PUSH2 0x714 PUSH2 0xD65 JUMP JUMPDEST JUMPDEST PUSH1 0x0 PUSH2 0x723 DUP6 DUP3 DUP7 ADD PUSH2 0x620 JUMP JUMPDEST SWAP3 POP POP PUSH1 0x20 DUP4 ADD CALLDATALOAD PUSH8 0xFFFFFFFFFFFFFFFF DUP2 GT ISZERO PUSH2 0x744 JUMPI PUSH2 0x743 PUSH2 0xD60 JUMP JUMPDEST JUMPDEST PUSH2 0x750 DUP6 DUP3 DUP7 ADD PUSH2 0x635 JUMP JUMPDEST SWAP2 POP POP SWAP3 POP SWAP3 SWAP1 POP JUMP JUMPDEST PUSH1 0x0 PUSH1 0x20 DUP3 DUP5 SUB SLT ISZERO PUSH2 0x770 JUMPI PUSH2 0x76F PUSH2 0xD65 JUMP JUMPDEST JUMPDEST PUSH1 0x0 DUP3 ADD MLOAD PUSH8 0xFFFFFFFFFFFFFFFF DUP2 GT ISZERO PUSH2 0x78E JUMPI PUSH2 0x78D PUSH2 0xD60 JUMP JUMPDEST JUMPDEST PUSH2 0x79A DUP5 DUP3 DUP6 ADD PUSH2 0x663 JUMP JUMPDEST SWAP2 POP POP SWAP3 SWAP2 POP POP JUMP JUMPDEST PUSH1 0x0 DUP1 PUSH1 0x40 DUP4 DUP6 SUB SLT ISZERO PUSH2 0x7BA JUMPI PUSH2 0x7B9 PUSH2 0xD65 JUMP JUMPDEST JUMPDEST PUSH1 0x0 DUP4 ADD MLOAD PUSH8 0xFFFFFFFFFFFFFFFF DUP2 GT ISZERO PUSH2 0x7D8 JUMPI PUSH2 0x7D7 PUSH2 0xD60 JUMP JUMPDEST JUMPDEST PUSH2 0x7E4 DUP6 DUP3 DUP7 ADD PUSH2 0x663 JUMP JUMPDEST SWAP3 POP POP PUSH1 0x20 DUP4 ADD MLOAD PUSH8 0xFFFFFFFFFFFFFFFF DUP2 GT ISZERO PUSH2 0x805 JUMPI PUSH2 0x804 PUSH2 0xD60 JUMP JUMPDEST JUMPDEST PUSH2 0x811 DUP6 DUP3 DUP7 ADD PUSH2 0x663 JUMP JUMPDEST SWAP2 POP POP SWAP3 POP SWAP3 SWAP1 POP JUMP JUMPDEST PUSH2 0x824 DUP2 PUSH2 0xC6C JUMP JUMPDEST DUP3 MSTORE POP POP JUMP JUMPDEST PUSH2 0x833 DUP2 PUSH2 0xC7E JUMP JUMPDEST DUP3 MSTORE POP POP JUMP JUMPDEST PUSH1 0x0 PUSH2 0x844 DUP3 PUSH2 0xC45 JUMP JUMPDEST PUSH2 0x84E DUP2 DUP6 PUSH2 0xC50 JUMP JUMPDEST SWAP4 POP PUSH2 0x85E DUP2 DUP6 PUSH1 0x20 DUP7 ADD PUSH2 0xCC3 JUMP JUMPDEST PUSH2 0x867 DUP2 PUSH2 0xD6A JUMP JUMPDEST DUP5 ADD SWAP2 POP POP SWAP3 SWAP2 POP POP JUMP JUMPDEST PUSH1 0x0 PUSH2 0x87D DUP3 PUSH2 0xC45 JUMP JUMPDEST PUSH2 0x887 DUP2 DUP6 PUSH2 0xC61 JUMP JUMPDEST SWAP4 POP PUSH2 0x897 DUP2 DUP6 PUSH1 0x20 DUP7 ADD PUSH2 0xCC3 JUMP JUMPDEST DUP1 DUP5 ADD SWAP2 POP POP SWAP3 SWAP2 POP POP JUMP JUMPDEST PUSH1 0x0 PUSH2 0x8B0 PUSH1 0x5 DUP4 PUSH2 0xC61 JUMP JUMPDEST SWAP2 POP PUSH2 0x8BB DUP3 PUSH2 0xD7B JUMP JUMPDEST PUSH1 0x5 DUP3 ADD SWAP1 POP SWAP2 SWAP1 POP JUMP JUMPDEST PUSH1 0x0 PUSH2 0x8D3 PUSH1 0x7 DUP4 PUSH2 0xC61 JUMP JUMPDEST SWAP2 POP PUSH2 0x8DE DUP3 PUSH2 0xDA4 JUMP JUMPDEST PUSH1 0x7 DUP3 ADD SWAP1 POP SWAP2 SWAP1 POP JUMP JUMPDEST PUSH1 0x0 PUSH2 0x8F6 PUSH1 0xC DUP4 PUSH2 0xC50 JUMP JUMPDEST SWAP2 POP PUSH2 0x901 DUP3 PUSH2 0xDCD JUMP JUMPDEST PUSH1 0x20 DUP3 ADD SWAP1 POP SWAP2 SWAP1 POP JUMP JUMPDEST PUSH1 0x0 PUSH2 0x919 PUSH1 0x7 DUP4 PUSH2 0xC61 JUMP JUMPDEST SWAP2 POP PUSH2 0x924 DUP3 PUSH2 0xDF6 JUMP JUMPDEST PUSH1 0x7 DUP3 ADD SWAP1 POP SWAP2 SWAP1 POP JUMP JUMPDEST PUSH1 0x0 PUSH2 0x93C PUSH1 0x13 DUP4 PUSH2 0xC50 JUMP JUMPDEST SWAP2 POP PUSH2 0x947 DUP3 PUSH2 0xE1F JUMP JUMPDEST PUSH1 0x20 DUP3 ADD SWAP1 POP SWAP2 SWAP1 POP JUMP JUMPDEST PUSH1 0x0 PUSH2 0x95F PUSH1 0x4 DUP4 PUSH2 0xC61 JUMP JUMPDEST SWAP2 POP PUSH2 0x96A DUP3 PUSH2 0xE48 JUMP JUMPDEST PUSH1 0x4 DUP3 ADD SWAP1 POP SWAP2 SWAP1 POP JUMP JUMPDEST PUSH1 0x0 PUSH2 0x982 PUSH1 0x4 DUP4 PUSH2 0xC61 JUMP JUMPDEST SWAP2 POP PUSH2 0x98D DUP3 PUSH2 0xE71 JUMP JUMPDEST PUSH1 0x4 DUP3 ADD SWAP1 POP SWAP2 SWAP1 POP JUMP JUMPDEST PUSH1 0x0 PUSH2 0x9A5 PUSH1 0x14 DUP4 PUSH2 0xC50 JUMP JUMPDEST SWAP2 POP PUSH2 0x9B0 DUP3 PUSH2 0xE9A JUMP JUMPDEST PUSH1 0x20 DUP3 ADD SWAP1 POP SWAP2 SWAP1 POP JUMP JUMPDEST PUSH1 0x0 PUSH2 0x9C8 PUSH1 0x4 DUP4 PUSH2 0xC61 JUMP JUMPDEST SWAP2 POP PUSH2 0x9D3 DUP3 PUSH2 0xEC3 JUMP JUMPDEST PUSH1 0x4 DUP3 ADD SWAP1 POP SWAP2 SWAP1 POP JUMP JUMPDEST PUSH2 0x9E7 DUP2 PUSH2 0xCAA JUMP JUMPDEST DUP3 MSTORE POP POP JUMP JUMPDEST PUSH1 0x0 PUSH2 0x9F9 DUP3 DUP5 PUSH2 0x872 JUMP JUMPDEST SWAP2 POP DUP2 SWAP1 POP SWAP3 SWAP2 POP POP JUMP JUMPDEST PUSH1 0x0 PUSH2 0xA0F DUP3 PUSH2 0x8A3 JUMP JUMPDEST SWAP2 POP DUP2 SWAP1 POP SWAP2 SWAP1 POP JUMP JUMPDEST PUSH1 0x0 PUSH2 0xA24 DUP3 PUSH2 0x8C6 JUMP JUMPDEST SWAP2 POP DUP2 SWAP1 POP SWAP2 SWAP1 POP JUMP JUMPDEST PUSH1 0x0 PUSH2 0xA39 DUP3 PUSH2 0x90C JUMP JUMPDEST SWAP2 POP DUP2 SWAP1 POP SWAP2 SWAP1 POP JUMP JUMPDEST PUSH1 0x0 PUSH2 0xA4E DUP3 PUSH2 0x952 JUMP JUMPDEST SWAP2 POP DUP2 SWAP1 POP SWAP2 SWAP1 POP JUMP JUMPDEST PUSH1 0x0 PUSH2 0xA63 DUP3 PUSH2 0x975 JUMP JUMPDEST SWAP2 POP DUP2 SWAP1 POP SWAP2 SWAP1 POP JUMP JUMPDEST PUSH1 0x0 PUSH2 0xA78 DUP3 PUSH2 0x9BB JUMP JUMPDEST SWAP2 POP DUP2 SWAP1 POP SWAP2 SWAP1 POP JUMP JUMPDEST PUSH1 0x0 PUSH1 0x20 DUP3 ADD SWAP1 POP PUSH2 0xA97 PUSH1 0x0 DUP4 ADD DUP5 PUSH2 0x81B JUMP JUMPDEST SWAP3 SWAP2 POP POP JUMP JUMPDEST PUSH1 0x0 PUSH1 0x40 DUP3 ADD SWAP1 POP PUSH2 0xAB2 PUSH1 0x0 DUP4 ADD DUP6 PUSH2 0x81B JUMP JUMPDEST PUSH2 0xABF PUSH1 0x20 DUP4 ADD DUP5 PUSH2 0x81B JUMP JUMPDEST SWAP4 SWAP3 POP POP POP JUMP JUMPDEST PUSH1 0x0 PUSH1 0x80 DUP3 ADD SWAP1 POP PUSH2 0xADB PUSH1 0x0 DUP4 ADD DUP7 PUSH2 0x81B JUMP JUMPDEST PUSH2 0xAE8 PUSH1 0x20 DUP4 ADD DUP6 PUSH2 0x81B JUMP JUMPDEST DUP2 DUP2 SUB PUSH1 0x40 DUP4 ADD MSTORE PUSH2 0xAFA DUP2 DUP5 PUSH2 0x839 JUMP JUMPDEST SWAP1 POP DUP2 DUP2 SUB PUSH1 0x60 DUP4 ADD MSTORE PUSH2 0xB0D DUP2 PUSH2 0x8E9 JUMP JUMPDEST SWAP1 POP SWAP5 SWAP4 POP POP POP POP JUMP JUMPDEST PUSH1 0x0 PUSH1 0x80 DUP3 ADD SWAP1 POP PUSH2 0xB2C PUSH1 0x0 DUP4 ADD DUP7 PUSH2 0x81B JUMP JUMPDEST PUSH2 0xB39 PUSH1 0x20 DUP4 ADD DUP6 PUSH2 0x81B JUMP JUMPDEST DUP2 DUP2 SUB PUSH1 0x40 DUP4 ADD MSTORE PUSH2 0xB4B DUP2 DUP5 PUSH2 0x839 JUMP JUMPDEST SWAP1 POP DUP2 DUP2 SUB PUSH1 0x60 DUP4 ADD MSTORE PUSH2 0xB5E DUP2 PUSH2 0x92F JUMP JUMPDEST SWAP1 POP SWAP5 SWAP4 POP POP POP POP JUMP JUMPDEST PUSH1 0x0 PUSH1 0x80 DUP3 ADD SWAP1 POP PUSH2 0xB7D PUSH1 0x0 DUP4 ADD DUP7 PUSH2 0x81B JUMP JUMPDEST PUSH2 0xB8A PUSH1 0x20 DUP4 ADD DUP6 PUSH2 0x81B JUMP JUMPDEST DUP2 DUP2 SUB PUSH1 0x40 DUP4 ADD MSTORE PUSH2 0xB9C DUP2 DUP5 PUSH2 0x839 JUMP JUMPDEST SWAP1 POP DUP2 DUP2 SUB PUSH1 0x60 DUP4 ADD MSTORE PUSH2 0xBAF DUP2 PUSH2 0x998 JUMP JUMPDEST SWAP1 POP SWAP5 SWAP4 POP POP POP POP JUMP JUMPDEST PUSH1 0x0 PUSH1 0x20 DUP3 ADD SWAP1 POP PUSH2 0xBCE PUSH1 0x0 DUP4 ADD DUP5 PUSH2 0x82A JUMP JUMPDEST SWAP3 SWAP2 POP POP JUMP JUMPDEST PUSH1 0x0 PUSH1 0x20 DUP3 ADD SWAP1 POP PUSH2 0xBE9 PUSH1 0x0 DUP4 ADD DUP5 PUSH2 0x9DE JUMP JUMPDEST SWAP3 SWAP2 POP POP JUMP JUMPDEST PUSH1 0x0 PUSH2 0xBF9 PUSH2 0xC0A JUMP JUMPDEST SWAP1 POP PUSH2 0xC05 DUP3 DUP3 PUSH2 0xCF6 JUMP JUMPDEST SWAP2 SWAP1 POP JUMP JUMPDEST PUSH1 0x0 PUSH1 0x40 MLOAD SWAP1 POP SWAP1 JUMP JUMPDEST PUSH1 0x0 PUSH8 0xFFFFFFFFFFFFFFFF DUP3 GT ISZERO PUSH2 0xC2F JUMPI PUSH2 0xC2E PUSH2 0xD27 JUMP JUMPDEST JUMPDEST PUSH2 0xC38 DUP3 PUSH2 0xD6A JUMP JUMPDEST SWAP1 POP PUSH1 0x20 DUP2 ADD SWAP1 POP SWAP2 SWAP1 POP JUMP JUMPDEST PUSH1 0x0 DUP2 MLOAD SWAP1 POP SWAP2 SWAP1 POP JUMP JUMPDEST PUSH1 0x0 DUP3 DUP3 MSTORE PUSH1 0x20 DUP3 ADD SWAP1 POP SWAP3 SWAP2 POP POP JUMP JUMPDEST PUSH1 0x0 DUP2 SWAP1 POP SWAP3 SWAP2 POP POP JUMP JUMPDEST PUSH1 0x0 PUSH2 0xC77 DUP3 PUSH2 0xC8A JUMP JUMPDEST SWAP1 POP SWAP2 SWAP1 POP JUMP JUMPDEST PUSH1 0x0 DUP2 ISZERO ISZERO SWAP1 POP SWAP2 SWAP1 POP JUMP JUMPDEST PUSH1 0x0 PUSH20 0xFFFFFFFFFFFFFFFFFFFFFFFFFFFFFFFFFFFFFFFF DUP3 AND SWAP1 POP SWAP2 SWAP1 POP JUMP JUMPDEST PUSH1 0x0 DUP2 SWAP1 POP SWAP2 SWAP1 POP JUMP JUMPDEST DUP3 DUP2 DUP4 CALLDATACOPY PUSH1 0x0 DUP4 DUP4 ADD MSTORE POP POP POP JUMP JUMPDEST PUSH1 0x0 JUMPDEST DUP4 DUP2 LT ISZERO PUSH2 0xCE1 JUMPI DUP1 DUP3 ADD MLOAD DUP2 DUP5 ADD MSTORE PUSH1 0x20 DUP2 ADD SWAP1 POP PUSH2 0xCC6 JUMP JUMPDEST DUP4 DUP2 GT ISZERO PUSH2 0xCF0 JUMPI PUSH1 0x0 DUP5 DUP5 ADD MSTORE JUMPDEST POP POP POP POP JUMP JUMPDEST PUSH2 0xCFF DUP3 PUSH2 0xD6A JUMP JUMPDEST DUP2 ADD DUP2 DUP2 LT PUSH8 0xFFFFFFFFFFFFFFFF DUP3 GT OR ISZERO PUSH2 0xD1E JUMPI PUSH2 0xD1D PUSH2 0xD27 JUMP JUMPDEST JUMPDEST DUP1 PUSH1 0x40 MSTORE POP POP POP JUMP JUMPDEST PUSH32 0x4E487B7100000000000000000000000000000000000000000000000000000000 PUSH1 0x0 MSTORE PUSH1 0x41 PUSH1 0x4 MSTORE PUSH1 0x24 PUSH1 0x0 REVERT JUMPDEST PUSH1 0x0 DUP1 REVERT JUMPDEST PUSH1 0x0 DUP1 REVERT JUMPDEST PUSH1 0x0 DUP1 REVERT JUMPDEST PUSH1 0x0 DUP1 REVERT JUMPDEST PUSH1 0x0 PUSH1 0x1F NOT PUSH1 0x1F DUP4 ADD AND SWAP1 POP SWAP2 SWAP1 POP JUMP JUMPDEST PUSH32 0x636C6F7365000000000000000000000000000000000000000000000000000000 PUSH1 0x0 DUP3 ADD MSTORE POP JUMP JUMPDEST PUSH32 0x322E322E322E3200000000000000000000000000000000000000000000000000 PUSH1 0x0 DUP3 ADD MSTORE POP JUMP JUMPDEST PUSH32 0x4163636573732070617373210000000000000000000000000000000000000000 PUSH1 0x0 DUP3 ADD MSTORE POP JUMP JUMPDEST PUSH32 0x7265737461727400000000000000000000000000000000000000000000000000 PUSH1 0x0 DUP3 ADD MSTORE POP JUMP JUMPDEST PUSH32 0x496C6C6567616C20495020616464726573732100000000000000000000000000 PUSH1 0x0 DUP3 ADD MSTORE POP JUMP JUMPDEST PUSH32 0x6B696C6C00000000000000000000000000000000000000000000000000000000 PUSH1 0x0 DUP3 ADD MSTORE POP JUMP JUMPDEST PUSH32 0x6F70656E00000000000000000000000000000000000000000000000000000000 PUSH1 0x0 DUP3 ADD MSTORE POP JUMP JUMPDEST PUSH32 0x556E617574686F72697A65642061636365737321000000000000000000000000 PUSH1 0x0 DUP3 ADD MSTORE POP JUMP JUMPDEST PUSH32 0x7265616400000000000000000000000000000000000000000000000000000000 PUSH1 0x0 DUP3 ADD MSTORE POP JUMP JUMPDEST PUSH2 0xEF5 DUP2 PUSH2 0xC6C JUMP JUMPDEST DUP2 EQ PUSH2 0xF00 JUMPI PUSH1 0x0 DUP1 REVERT JUMPDEST POP JUMP INVALID LOG2 PUSH5 0x6970667358 0x22 SLT KECCAK256 SWAP3 PUSH8 0x6ECC8B0561C35F5C SWAP1 0xDB 0xB8 STOP STOP 0x28 LOG4 CALLDATALOAD 0x4C 0x5D 0xE9 0xA5 0xED 0xCC SWAP10 0xCF 0x4A 0xB8 BASEFEE 0xEE GT PUSH2 0x6473 PUSH16 0x6C634300080700330000000000000000 "
				},
				"gasEstimates": {
					"creation": {
						"codeDepositCost": "779400",
						"executionCost": "812",
						"totalCost": "780212"
					},
					"external": {
						"accessControl(address,string)": "infinite",
						"getCurTime()": "358",
						"getTimeOfLastRequest(address)": "2841",
						"init(address,address)": "infinite"
					}
				},
				"methodIdentifiers": {
					"accessControl(address,string)": "32076e77",
					"getCurTime()": "c0821da3",
					"getTimeOfLastRequest(address)": "9c6f188e",
					"init(address,address)": "f09a4016"
				}
			},
			"storageLayout": {
				"storage": [
					{
						"astId": 6,
						"contract": "contracts/AccessControl.sol:AccessControl",
						"label": "manager",
						"offset": 0,
						"slot": "0",
						"type": "t_contract(Management)497"
					},
					{
						"astId": 9,
						"contract": "contracts/AccessControl.sol:AccessControl",
						"label": "judge",
						"offset": 0,
						"slot": "1",
						"type": "t_contract(Judge)307"
					},
					{
						"astId": 18,
						"contract": "contracts/AccessControl.sol:AccessControl",
						"label": "rightTable",
						"offset": 0,
						"slot": "2",
						"type": "t_mapping(t_string_memory_ptr,t_int256)"
					},
					{
						"astId": 22,
						"contract": "contracts/AccessControl.sol:AccessControl",
						"label": "blackListIpMap",
						"offset": 0,
						"slot": "3",
						"type": "t_mapping(t_string_memory_ptr,t_bool)"
					},
					{
						"astId": 26,
						"contract": "contracts/AccessControl.sol:AccessControl",
						"label": "requestMap",
						"offset": 0,
						"slot": "4",
						"type": "t_mapping(t_address,t_uint256)"
					}
				],
				"types": {
					"t_address": {
						"encoding": "inplace",
						"label": "address",
						"numberOfBytes": "20"
					},
					"t_bool": {
						"encoding": "inplace",
						"label": "bool",
						"numberOfBytes": "1"
					},
					"t_contract(Judge)307": {
						"encoding": "inplace",
						"label": "contract Judge",
						"numberOfBytes": "20"
					},
					"t_contract(Management)497": {
						"encoding": "inplace",
						"label": "contract Management",
						"numberOfBytes": "20"
					},
					"t_int256": {
						"encoding": "inplace",
						"label": "int256",
						"numberOfBytes": "32"
					},
					"t_mapping(t_address,t_uint256)": {
						"encoding": "mapping",
						"key": "t_address",
						"label": "mapping(address => uint256)",
						"numberOfBytes": "32",
						"value": "t_uint256"
					},
					"t_mapping(t_string_memory_ptr,t_bool)": {
						"encoding": "mapping",
						"key": "t_string_memory_ptr",
						"label": "mapping(string => bool)",
						"numberOfBytes": "32",
						"value": "t_bool"
					},
					"t_mapping(t_string_memory_ptr,t_int256)": {
						"encoding": "mapping",
						"key": "t_string_memory_ptr",
						"label": "mapping(string => int256)",
						"numberOfBytes": "32",
						"value": "t_int256"
					},
					"t_string_memory_ptr": {
						"encoding": "bytes",
						"label": "string",
						"numberOfBytes": "32"
					},
					"t_uint256": {
						"encoding": "inplace",
						"label": "uint256",
						"numberOfBytes": "32"
					}
				}
			},
			"userdoc": {
				"kind": "user",
				"methods": {},
				"version": 1
			}
		}
	}
}