{
	"contracts/Judge.sol": {
		"Judge": {
			"abi": [
				{
					"anonymous": false,
					"inputs": [
						{
							"indexed": false,
							"internalType": "address",
							"name": "blockedUser",
							"type": "address"
						},
						{
							"indexed": false,
							"internalType": "uint256",
							"name": "ToLB",
							"type": "uint256"
						}
					],
					"name": "BlockUserInfo",
					"type": "event"
				},
				{
					"inputs": [
						{
							"internalType": "address",
							"name": "_userAddr",
							"type": "address"
						}
					],
					"name": "getBLUByAddr",
					"outputs": [
						{
							"internalType": "uint256",
							"name": "_ToLB",
							"type": "uint256"
						},
						{
							"internalType": "bool",
							"name": "_blocked",
							"type": "bool"
						}
					],
					"stateMutability": "view",
					"type": "function"
				},
				{
					"inputs": [],
					"name": "getCurTime",
					"outputs": [
						{
							"internalType": "uint256",
							"name": "curTime",
							"type": "uint256"
						}
					],
					"stateMutability": "view",
					"type": "function"
				},
				{
					"inputs": [
						{
							"internalType": "address",
							"name": "_userAddr",
							"type": "address"
						}
					],
					"name": "setBlackList",
					"outputs": [],
					"stateMutability": "nonpayable",
					"type": "function"
				}
			],
			"devdoc": {
				"kind": "dev",
				"methods": {},
				"version": 1
			},
			"evm": {
				"assembly": "    /* \"contracts/Judge.sol\":68:1236  contract Judge {\r... */\n  mstore(0x40, 0x80)\n  callvalue\n  dup1\n  iszero\n  tag_1\n  jumpi\n  0x00\n  dup1\n  revert\ntag_1:\n  pop\n  dataSize(sub_0)\n  dup1\n  dataOffset(sub_0)\n  0x00\n  codecopy\n  0x00\n  return\nstop\n\nsub_0: assembly {\n        /* \"contracts/Judge.sol\":68:1236  contract Judge {\r... */\n      mstore(0x40, 0x80)\n      callvalue\n      dup1\n      iszero\n      tag_1\n      jumpi\n      0x00\n      dup1\n      revert\n    tag_1:\n      pop\n      jumpi(tag_2, lt(calldatasize, 0x04))\n      shr(0xe0, calldataload(0x00))\n      dup1\n      0x169c9de0\n      eq\n      tag_3\n      jumpi\n      dup1\n      0x72700241\n      eq\n      tag_4\n      jumpi\n      dup1\n      0xc0821da3\n      eq\n      tag_5\n      jumpi\n    tag_2:\n      0x00\n      dup1\n      revert\n        /* \"contracts/Judge.sol\":925:1119  function getBLUByAddr(address _userAddr) public view returns (uint256 _ToLB, bool _blocked) {\r... */\n    tag_3:\n      tag_6\n      0x04\n      dup1\n      calldatasize\n      sub\n      dup2\n      add\n      swap1\n      tag_7\n      swap2\n      swap1\n      tag_8\n      jump\t// in\n    tag_7:\n      tag_9\n      jump\t// in\n    tag_6:\n      mload(0x40)\n      tag_10\n      swap3\n      swap2\n      swap1\n      tag_11\n      jump\t// in\n    tag_10:\n      mload(0x40)\n      dup1\n      swap2\n      sub\n      swap1\n      return\n        /* \"contracts/Judge.sol\":575:886  function setBlackList(address _userAddr) public {\r... */\n    tag_4:\n      tag_12\n      0x04\n      dup1\n      calldatasize\n      sub\n      dup2\n      add\n      swap1\n      tag_13\n      swap2\n      swap1\n      tag_8\n      jump\t// in\n    tag_13:\n      tag_14\n      jump\t// in\n    tag_12:\n      stop\n        /* \"contracts/Judge.sol\":1127:1231  function getCurTime() public view returns (uint256 curTime) {\r... */\n    tag_5:\n      tag_15\n      tag_16\n      jump\t// in\n    tag_15:\n      mload(0x40)\n      tag_17\n      swap2\n      swap1\n      tag_18\n      jump\t// in\n    tag_17:\n      mload(0x40)\n      dup1\n      swap2\n      sub\n      swap1\n      return\n        /* \"contracts/Judge.sol\":925:1119  function getBLUByAddr(address _userAddr) public view returns (uint256 _ToLB, bool _blocked) {\r... */\n    tag_9:\n        /* \"contracts/Judge.sol\":987:1000  uint256 _ToLB */\n      0x00\n        /* \"contracts/Judge.sol\":1002:1015  bool _blocked */\n      dup1\n        /* \"contracts/Judge.sol\":1036:1045  blackList */\n      0x00\n        /* \"contracts/Judge.sol\":1036:1056  blackList[_userAddr] */\n      dup1\n        /* \"contracts/Judge.sol\":1046:1055  _userAddr */\n      dup5\n        /* \"contracts/Judge.sol\":1036:1056  blackList[_userAddr] */\n      0xffffffffffffffffffffffffffffffffffffffff\n      and\n      0xffffffffffffffffffffffffffffffffffffffff\n      and\n      dup2\n      mstore\n      0x20\n      add\n      swap1\n      dup2\n      mstore\n      0x20\n      add\n      0x00\n      keccak256\n        /* \"contracts/Judge.sol\":1036:1061  blackList[_userAddr].ToLB */\n      0x01\n      add\n      sload\n        /* \"contracts/Judge.sol\":1028:1061  _ToLB = blackList[_userAddr].ToLB */\n      swap2\n      pop\n        /* \"contracts/Judge.sol\":1083:1092  blackList */\n      0x00\n        /* \"contracts/Judge.sol\":1083:1103  blackList[_userAddr] */\n      dup1\n        /* \"contracts/Judge.sol\":1093:1102  _userAddr */\n      dup5\n        /* \"contracts/Judge.sol\":1083:1103  blackList[_userAddr] */\n      0xffffffffffffffffffffffffffffffffffffffff\n      and\n      0xffffffffffffffffffffffffffffffffffffffff\n      and\n      dup2\n      mstore\n      0x20\n      add\n      swap1\n      dup2\n      mstore\n      0x20\n      add\n      0x00\n      keccak256\n        /* \"contracts/Judge.sol\":1083:1111  blackList[_userAddr].blocked */\n      0x02\n      add\n      0x00\n      swap1\n      sload\n      swap1\n      0x0100\n      exp\n      swap1\n      div\n      0xff\n      and\n        /* \"contracts/Judge.sol\":1072:1111  _blocked = blackList[_userAddr].blocked */\n      swap1\n      pop\n        /* \"contracts/Judge.sol\":925:1119  function getBLUByAddr(address _userAddr) public view returns (uint256 _ToLB, bool _blocked) {\r... */\n      swap2\n      pop\n      swap2\n      jump\t// out\n        /* \"contracts/Judge.sol\":575:886  function setBlackList(address _userAddr) public {\r... */\n    tag_14:\n        /* \"contracts/Judge.sol\":662:671  _userAddr */\n      dup1\n        /* \"contracts/Judge.sol\":634:643  blackList */\n      0x00\n        /* \"contracts/Judge.sol\":634:654  blackList[_userAddr] */\n      dup1\n        /* \"contracts/Judge.sol\":644:653  _userAddr */\n      dup4\n        /* \"contracts/Judge.sol\":634:654  blackList[_userAddr] */\n      0xffffffffffffffffffffffffffffffffffffffff\n      and\n      0xffffffffffffffffffffffffffffffffffffffff\n      and\n      dup2\n      mstore\n      0x20\n      add\n      swap1\n      dup2\n      mstore\n      0x20\n      add\n      0x00\n      keccak256\n        /* \"contracts/Judge.sol\":634:659  blackList[_userAddr].addr */\n      0x00\n      add\n      0x00\n        /* \"contracts/Judge.sol\":634:671  blackList[_userAddr].addr = _userAddr */\n      0x0100\n      exp\n      dup2\n      sload\n      dup2\n      0xffffffffffffffffffffffffffffffffffffffff\n      mul\n      not\n      and\n      swap1\n      dup4\n      0xffffffffffffffffffffffffffffffffffffffff\n      and\n      mul\n      or\n      swap1\n      sstore\n      pop\n        /* \"contracts/Judge.sol\":761:763  10 */\n      0x0a\n        /* \"contracts/Judge.sol\":743:758  block.timestamp */\n      timestamp\n        /* \"contracts/Judge.sol\":743:763  block.timestamp + 10 */\n      tag_21\n      swap2\n      swap1\n      tag_22\n      jump\t// in\n    tag_21:\n        /* \"contracts/Judge.sol\":715:724  blackList */\n      0x00\n        /* \"contracts/Judge.sol\":715:735  blackList[_userAddr] */\n      dup1\n        /* \"contracts/Judge.sol\":725:734  _userAddr */\n      dup4\n        /* \"contracts/Judge.sol\":715:735  blackList[_userAddr] */\n      0xffffffffffffffffffffffffffffffffffffffff\n      and\n      0xffffffffffffffffffffffffffffffffffffffff\n      and\n      dup2\n      mstore\n      0x20\n      add\n      swap1\n      dup2\n      mstore\n      0x20\n      add\n      0x00\n      keccak256\n        /* \"contracts/Judge.sol\":715:740  blackList[_userAddr].ToLB */\n      0x01\n      add\n        /* \"contracts/Judge.sol\":715:763  blackList[_userAddr].ToLB = block.timestamp + 10 */\n      dup2\n      swap1\n      sstore\n      pop\n        /* \"contracts/Judge.sol\":805:809  true */\n      0x01\n        /* \"contracts/Judge.sol\":774:783  blackList */\n      0x00\n        /* \"contracts/Judge.sol\":774:794  blackList[_userAddr] */\n      dup1\n        /* \"contracts/Judge.sol\":784:793  _userAddr */\n      dup4\n        /* \"contracts/Judge.sol\":774:794  blackList[_userAddr] */\n      0xffffffffffffffffffffffffffffffffffffffff\n      and\n      0xffffffffffffffffffffffffffffffffffffffff\n      and\n      dup2\n      mstore\n      0x20\n      add\n      swap1\n      dup2\n      mstore\n      0x20\n      add\n      0x00\n      keccak256\n        /* \"contracts/Judge.sol\":774:802  blackList[_userAddr].blocked */\n      0x02\n      add\n      0x00\n        /* \"contracts/Judge.sol\":774:809  blackList[_userAddr].blocked = true */\n      0x0100\n      exp\n      dup2\n      sload\n      dup2\n      0xff\n      mul\n      not\n      and\n      swap1\n      dup4\n      iszero\n      iszero\n      mul\n      or\n      swap1\n      sstore\n      pop\n        /* \"contracts/Judge.sol\":827:878  BlockUserInfo(_userAddr, blackList[_userAddr].ToLB) */\n      0xff4258f29aa7a78befd6a7ca5a3f3287a86ba46d68bdd9af2a091d117ba0ab68\n        /* \"contracts/Judge.sol\":841:850  _userAddr */\n      dup2\n        /* \"contracts/Judge.sol\":852:861  blackList */\n      0x00\n        /* \"contracts/Judge.sol\":852:872  blackList[_userAddr] */\n      dup1\n        /* \"contracts/Judge.sol\":862:871  _userAddr */\n      dup5\n        /* \"contracts/Judge.sol\":852:872  blackList[_userAddr] */\n      0xffffffffffffffffffffffffffffffffffffffff\n      and\n      0xffffffffffffffffffffffffffffffffffffffff\n      and\n      dup2\n      mstore\n      0x20\n      add\n      swap1\n      dup2\n      mstore\n      0x20\n      add\n      0x00\n      keccak256\n        /* \"contracts/Judge.sol\":852:877  blackList[_userAddr].ToLB */\n      0x01\n      add\n      sload\n        /* \"contracts/Judge.sol\":827:878  BlockUserInfo(_userAddr, blackList[_userAddr].ToLB) */\n      mload(0x40)\n      tag_23\n      swap3\n      swap2\n      swap1\n      tag_24\n      jump\t// in\n    tag_23:\n      mload(0x40)\n      dup1\n      swap2\n      sub\n      swap1\n      log1\n        /* \"contracts/Judge.sol\":575:886  function setBlackList(address _userAddr) public {\r... */\n      pop\n      jump\t// out\n        /* \"contracts/Judge.sol\":1127:1231  function getCurTime() public view returns (uint256 curTime) {\r... */\n    tag_16:\n        /* \"contracts/Judge.sol\":1170:1185  uint256 curTime */\n      0x00\n        /* \"contracts/Judge.sol\":1208:1223  block.timestamp */\n      timestamp\n        /* \"contracts/Judge.sol\":1198:1223  curTime = block.timestamp */\n      swap1\n      pop\n        /* \"contracts/Judge.sol\":1127:1231  function getCurTime() public view returns (uint256 curTime) {\r... */\n      swap1\n      jump\t// out\n        /* \"#utility.yul\":7:146   */\n    tag_27:\n        /* \"#utility.yul\":53:58   */\n      0x00\n        /* \"#utility.yul\":91:97   */\n      dup2\n        /* \"#utility.yul\":78:98   */\n      calldataload\n        /* \"#utility.yul\":69:98   */\n      swap1\n      pop\n        /* \"#utility.yul\":107:140   */\n      tag_29\n        /* \"#utility.yul\":134:139   */\n      dup2\n        /* \"#utility.yul\":107:140   */\n      tag_30\n      jump\t// in\n    tag_29:\n        /* \"#utility.yul\":7:146   */\n      swap3\n      swap2\n      pop\n      pop\n      jump\t// out\n        /* \"#utility.yul\":152:481   */\n    tag_8:\n        /* \"#utility.yul\":211:217   */\n      0x00\n        /* \"#utility.yul\":260:262   */\n      0x20\n        /* \"#utility.yul\":248:257   */\n      dup3\n        /* \"#utility.yul\":239:246   */\n      dup5\n        /* \"#utility.yul\":235:258   */\n      sub\n        /* \"#utility.yul\":231:263   */\n      slt\n        /* \"#utility.yul\":228:347   */\n      iszero\n      tag_32\n      jumpi\n        /* \"#utility.yul\":266:345   */\n      tag_33\n      tag_34\n      jump\t// in\n    tag_33:\n        /* \"#utility.yul\":228:347   */\n    tag_32:\n        /* \"#utility.yul\":386:387   */\n      0x00\n        /* \"#utility.yul\":411:464   */\n      tag_35\n        /* \"#utility.yul\":456:463   */\n      dup5\n        /* \"#utility.yul\":447:453   */\n      dup3\n        /* \"#utility.yul\":436:445   */\n      dup6\n        /* \"#utility.yul\":432:454   */\n      add\n        /* \"#utility.yul\":411:464   */\n      tag_27\n      jump\t// in\n    tag_35:\n        /* \"#utility.yul\":401:464   */\n      swap2\n      pop\n        /* \"#utility.yul\":357:474   */\n      pop\n        /* \"#utility.yul\":152:481   */\n      swap3\n      swap2\n      pop\n      pop\n      jump\t// out\n        /* \"#utility.yul\":487:605   */\n    tag_36:\n        /* \"#utility.yul\":574:598   */\n      tag_38\n        /* \"#utility.yul\":592:597   */\n      dup2\n        /* \"#utility.yul\":574:598   */\n      tag_39\n      jump\t// in\n    tag_38:\n        /* \"#utility.yul\":569:572   */\n      dup3\n        /* \"#utility.yul\":562:599   */\n      mstore\n        /* \"#utility.yul\":487:605   */\n      pop\n      pop\n      jump\t// out\n        /* \"#utility.yul\":611:720   */\n    tag_40:\n        /* \"#utility.yul\":692:713   */\n      tag_42\n        /* \"#utility.yul\":707:712   */\n      dup2\n        /* \"#utility.yul\":692:713   */\n      tag_43\n      jump\t// in\n    tag_42:\n        /* \"#utility.yul\":687:690   */\n      dup3\n        /* \"#utility.yul\":680:714   */\n      mstore\n        /* \"#utility.yul\":611:720   */\n      pop\n      pop\n      jump\t// out\n        /* \"#utility.yul\":726:844   */\n    tag_44:\n        /* \"#utility.yul\":813:837   */\n      tag_46\n        /* \"#utility.yul\":831:836   */\n      dup2\n        /* \"#utility.yul\":813:837   */\n      tag_47\n      jump\t// in\n    tag_46:\n        /* \"#utility.yul\":808:811   */\n      dup3\n        /* \"#utility.yul\":801:838   */\n      mstore\n        /* \"#utility.yul\":726:844   */\n      pop\n      pop\n      jump\t// out\n        /* \"#utility.yul\":850:1182   */\n    tag_24:\n        /* \"#utility.yul\":971:975   */\n      0x00\n        /* \"#utility.yul\":1009:1011   */\n      0x40\n        /* \"#utility.yul\":998:1007   */\n      dup3\n        /* \"#utility.yul\":994:1012   */\n      add\n        /* \"#utility.yul\":986:1012   */\n      swap1\n      pop\n        /* \"#utility.yul\":1022:1093   */\n      tag_49\n        /* \"#utility.yul\":1090:1091   */\n      0x00\n        /* \"#utility.yul\":1079:1088   */\n      dup4\n        /* \"#utility.yul\":1075:1092   */\n      add\n        /* \"#utility.yul\":1066:1072   */\n      dup6\n        /* \"#utility.yul\":1022:1093   */\n      tag_36\n      jump\t// in\n    tag_49:\n        /* \"#utility.yul\":1103:1175   */\n      tag_50\n        /* \"#utility.yul\":1171:1173   */\n      0x20\n        /* \"#utility.yul\":1160:1169   */\n      dup4\n        /* \"#utility.yul\":1156:1174   */\n      add\n        /* \"#utility.yul\":1147:1153   */\n      dup5\n        /* \"#utility.yul\":1103:1175   */\n      tag_44\n      jump\t// in\n    tag_50:\n        /* \"#utility.yul\":850:1182   */\n      swap4\n      swap3\n      pop\n      pop\n      pop\n      jump\t// out\n        /* \"#utility.yul\":1188:1410   */\n    tag_18:\n        /* \"#utility.yul\":1281:1285   */\n      0x00\n        /* \"#utility.yul\":1319:1321   */\n      0x20\n        /* \"#utility.yul\":1308:1317   */\n      dup3\n        /* \"#utility.yul\":1304:1322   */\n      add\n        /* \"#utility.yul\":1296:1322   */\n      swap1\n      pop\n        /* \"#utility.yul\":1332:1403   */\n      tag_52\n        /* \"#utility.yul\":1400:1401   */\n      0x00\n        /* \"#utility.yul\":1389:1398   */\n      dup4\n        /* \"#utility.yul\":1385:1402   */\n      add\n        /* \"#utility.yul\":1376:1382   */\n      dup5\n        /* \"#utility.yul\":1332:1403   */\n      tag_44\n      jump\t// in\n    tag_52:\n        /* \"#utility.yul\":1188:1410   */\n      swap3\n      swap2\n      pop\n      pop\n      jump\t// out\n        /* \"#utility.yul\":1416:1736   */\n    tag_11:\n        /* \"#utility.yul\":1531:1535   */\n      0x00\n        /* \"#utility.yul\":1569:1571   */\n      0x40\n        /* \"#utility.yul\":1558:1567   */\n      dup3\n        /* \"#utility.yul\":1554:1572   */\n      add\n        /* \"#utility.yul\":1546:1572   */\n      swap1\n      pop\n        /* \"#utility.yul\":1582:1653   */\n      tag_54\n        /* \"#utility.yul\":1650:1651   */\n      0x00\n        /* \"#utility.yul\":1639:1648   */\n      dup4\n        /* \"#utility.yul\":1635:1652   */\n      add\n        /* \"#utility.yul\":1626:1632   */\n      dup6\n        /* \"#utility.yul\":1582:1653   */\n      tag_44\n      jump\t// in\n    tag_54:\n        /* \"#utility.yul\":1663:1729   */\n      tag_55\n        /* \"#utility.yul\":1725:1727   */\n      0x20\n        /* \"#utility.yul\":1714:1723   */\n      dup4\n        /* \"#utility.yul\":1710:1728   */\n      add\n        /* \"#utility.yul\":1701:1707   */\n      dup5\n        /* \"#utility.yul\":1663:1729   */\n      tag_40\n      jump\t// in\n    tag_55:\n        /* \"#utility.yul\":1416:1736   */\n      swap4\n      swap3\n      pop\n      pop\n      pop\n      jump\t// out\n        /* \"#utility.yul\":1823:2128   */\n    tag_22:\n        /* \"#utility.yul\":1863:1866   */\n      0x00\n        /* \"#utility.yul\":1882:1902   */\n      tag_59\n        /* \"#utility.yul\":1900:1901   */\n      dup3\n        /* \"#utility.yul\":1882:1902   */\n      tag_47\n      jump\t// in\n    tag_59:\n        /* \"#utility.yul\":1877:1902   */\n      swap2\n      pop\n        /* \"#utility.yul\":1916:1936   */\n      tag_60\n        /* \"#utility.yul\":1934:1935   */\n      dup4\n        /* \"#utility.yul\":1916:1936   */\n      tag_47\n      jump\t// in\n    tag_60:\n        /* \"#utility.yul\":1911:1936   */\n      swap3\n      pop\n        /* \"#utility.yul\":2070:2071   */\n      dup3\n        /* \"#utility.yul\":2002:2068   */\n      0xffffffffffffffffffffffffffffffffffffffffffffffffffffffffffffffff\n        /* \"#utility.yul\":1998:2072   */\n      sub\n        /* \"#utility.yul\":1995:1996   */\n      dup3\n        /* \"#utility.yul\":1992:2073   */\n      gt\n        /* \"#utility.yul\":1989:2096   */\n      iszero\n      tag_61\n      jumpi\n        /* \"#utility.yul\":2076:2094   */\n      tag_62\n      tag_63\n      jump\t// in\n    tag_62:\n        /* \"#utility.yul\":1989:2096   */\n    tag_61:\n        /* \"#utility.yul\":2120:2121   */\n      dup3\n        /* \"#utility.yul\":2117:2118   */\n      dup3\n        /* \"#utility.yul\":2113:2122   */\n      add\n        /* \"#utility.yul\":2106:2122   */\n      swap1\n      pop\n        /* \"#utility.yul\":1823:2128   */\n      swap3\n      swap2\n      pop\n      pop\n      jump\t// out\n        /* \"#utility.yul\":2134:2230   */\n    tag_39:\n        /* \"#utility.yul\":2171:2178   */\n      0x00\n        /* \"#utility.yul\":2200:2224   */\n      tag_65\n        /* \"#utility.yul\":2218:2223   */\n      dup3\n        /* \"#utility.yul\":2200:2224   */\n      tag_66\n      jump\t// in\n    tag_65:\n        /* \"#utility.yul\":2189:2224   */\n      swap1\n      pop\n        /* \"#utility.yul\":2134:2230   */\n      swap2\n      swap1\n      pop\n      jump\t// out\n        /* \"#utility.yul\":2236:2326   */\n    tag_43:\n        /* \"#utility.yul\":2270:2277   */\n      0x00\n        /* \"#utility.yul\":2313:2318   */\n      dup2\n        /* \"#utility.yul\":2306:2319   */\n      iszero\n        /* \"#utility.yul\":2299:2320   */\n      iszero\n        /* \"#utility.yul\":2288:2320   */\n      swap1\n      pop\n        /* \"#utility.yul\":2236:2326   */\n      swap2\n      swap1\n      pop\n      jump\t// out\n        /* \"#utility.yul\":2332:2458   */\n    tag_66:\n        /* \"#utility.yul\":2369:2376   */\n      0x00\n        /* \"#utility.yul\":2409:2451   */\n      0xffffffffffffffffffffffffffffffffffffffff\n        /* \"#utility.yul\":2402:2407   */\n      dup3\n        /* \"#utility.yul\":2398:2452   */\n      and\n        /* \"#utility.yul\":2387:2452   */\n      swap1\n      pop\n        /* \"#utility.yul\":2332:2458   */\n      swap2\n      swap1\n      pop\n      jump\t// out\n        /* \"#utility.yul\":2464:2541   */\n    tag_47:\n        /* \"#utility.yul\":2501:2508   */\n      0x00\n        /* \"#utility.yul\":2530:2535   */\n      dup2\n        /* \"#utility.yul\":2519:2535   */\n      swap1\n      pop\n        /* \"#utility.yul\":2464:2541   */\n      swap2\n      swap1\n      pop\n      jump\t// out\n        /* \"#utility.yul\":2547:2727   */\n    tag_63:\n        /* \"#utility.yul\":2595:2672   */\n      0x4e487b7100000000000000000000000000000000000000000000000000000000\n        /* \"#utility.yul\":2592:2593   */\n      0x00\n        /* \"#utility.yul\":2585:2673   */\n      mstore\n        /* \"#utility.yul\":2692:2696   */\n      0x11\n        /* \"#utility.yul\":2689:2690   */\n      0x04\n        /* \"#utility.yul\":2682:2697   */\n      mstore\n        /* \"#utility.yul\":2716:2720   */\n      0x24\n        /* \"#utility.yul\":2713:2714   */\n      0x00\n        /* \"#utility.yul\":2706:2721   */\n      revert\n        /* \"#utility.yul\":2856:2973   */\n    tag_34:\n        /* \"#utility.yul\":2965:2966   */\n      0x00\n        /* \"#utility.yul\":2962:2963   */\n      dup1\n        /* \"#utility.yul\":2955:2967   */\n      revert\n        /* \"#utility.yul\":2979:3101   */\n    tag_30:\n        /* \"#utility.yul\":3052:3076   */\n      tag_75\n        /* \"#utility.yul\":3070:3075   */\n      dup2\n        /* \"#utility.yul\":3052:3076   */\n      tag_39\n      jump\t// in\n    tag_75:\n        /* \"#utility.yul\":3045:3050   */\n      dup2\n        /* \"#utility.yul\":3042:3077   */\n      eq\n        /* \"#utility.yul\":3032:3095   */\n      tag_76\n      jumpi\n        /* \"#utility.yul\":3091:3092   */\n      0x00\n        /* \"#utility.yul\":3088:3089   */\n      dup1\n        /* \"#utility.yul\":3081:3093   */\n      revert\n        /* \"#utility.yul\":3032:3095   */\n    tag_76:\n        /* \"#utility.yul\":2979:3101   */\n      pop\n      jump\t// out\n\n    auxdata: 0xa26469706673582212201afc3c33422836ce3bec895b0bc845694aff09029d0c53ea90783ae0036b684e64736f6c63430008070033\n}\n",
				"bytecode": {
					"linkReferences": {},
					"object": "608060405234801561001057600080fd5b506104fa806100206000396000f3fe608060405234801561001057600080fd5b50600436106100415760003560e01c8063169c9de0146100465780637270024114610077578063c0821da314610093575b600080fd5b610060600480360381019061005b9190610314565b6100b1565b60405161006e9291906103b2565b60405180910390f35b610091600480360381019061008c9190610314565b61014e565b005b61009b6102f7565b6040516100a89190610397565b60405180910390f35b6000806000808473ffffffffffffffffffffffffffffffffffffffff1673ffffffffffffffffffffffffffffffffffffffff1681526020019081526020016000206001015491506000808473ffffffffffffffffffffffffffffffffffffffff1673ffffffffffffffffffffffffffffffffffffffff16815260200190815260200160002060020160009054906101000a900460ff169050915091565b806000808373ffffffffffffffffffffffffffffffffffffffff1673ffffffffffffffffffffffffffffffffffffffff16815260200190815260200160002060000160006101000a81548173ffffffffffffffffffffffffffffffffffffffff021916908373ffffffffffffffffffffffffffffffffffffffff160217905550600a426101db91906103db565b6000808373ffffffffffffffffffffffffffffffffffffffff1673ffffffffffffffffffffffffffffffffffffffff1681526020019081526020016000206001018190555060016000808373ffffffffffffffffffffffffffffffffffffffff1673ffffffffffffffffffffffffffffffffffffffff16815260200190815260200160002060020160006101000a81548160ff0219169083151502179055507fff4258f29aa7a78befd6a7ca5a3f3287a86ba46d68bdd9af2a091d117ba0ab68816000808473ffffffffffffffffffffffffffffffffffffffff1673ffffffffffffffffffffffffffffffffffffffff168152602001908152602001600020600101546040516102ec92919061036e565b60405180910390a150565b600042905090565b60008135905061030e816104ad565b92915050565b60006020828403121561032a576103296104a8565b5b6000610338848285016102ff565b91505092915050565b61034a81610431565b82525050565b61035981610443565b82525050565b6103688161046f565b82525050565b60006040820190506103836000830185610341565b610390602083018461035f565b9392505050565b60006020820190506103ac600083018461035f565b92915050565b60006040820190506103c7600083018561035f565b6103d46020830184610350565b9392505050565b60006103e68261046f565b91506103f18361046f565b9250827fffffffffffffffffffffffffffffffffffffffffffffffffffffffffffffffff0382111561042657610425610479565b5b828201905092915050565b600061043c8261044f565b9050919050565b60008115159050919050565b600073ffffffffffffffffffffffffffffffffffffffff82169050919050565b6000819050919050565b7f4e487b7100000000000000000000000000000000000000000000000000000000600052601160045260246000fd5b600080fd5b6104b681610431565b81146104c157600080fd5b5056fea26469706673582212201afc3c33422836ce3bec895b0bc845694aff09029d0c53ea90783ae0036b684e64736f6c63430008070033",
					"opcodes": "PUSH1 0x80 PUSH1 0x40 MSTORE CALLVALUE DUP1 ISZERO PUSH2 0x10 JUMPI PUSH1 0x0 DUP1 REVERT JUMPDEST POP PUSH2 0x4FA DUP1 PUSH2 0x20 PUSH1 0x0 CODECOPY PUSH1 0x0 RETURN INVALID PUSH1 0x80 PUSH1 0x40 MSTORE CALLVALUE DUP1 ISZERO PUSH2 0x10 JUMPI PUSH1 0x0 DUP1 REVERT JUMPDEST POP PUSH1 0x4 CALLDATASIZE LT PUSH2 0x41 JUMPI PUSH1 0x0 CALLDATALOAD PUSH1 0xE0 SHR DUP1 PUSH4 0x169C9DE0 EQ PUSH2 0x46 JUMPI DUP1 PUSH4 0x72700241 EQ PUSH2 0x77 JUMPI DUP1 PUSH4 0xC0821DA3 EQ PUSH2 0x93 JUMPI JUMPDEST PUSH1 0x0 DUP1 REVERT JUMPDEST PUSH2 0x60 PUSH1 0x4 DUP1 CALLDATASIZE SUB DUP2 ADD SWAP1 PUSH2 0x5B SWAP2 SWAP1 PUSH2 0x314 JUMP JUMPDEST PUSH2 0xB1 JUMP JUMPDEST PUSH1 0x40 MLOAD PUSH2 0x6E SWAP3 SWAP2 SWAP1 PUSH2 0x3B2 JUMP JUMPDEST PUSH1 0x40 MLOAD DUP1 SWAP2 SUB SWAP1 RETURN JUMPDEST PUSH2 0x91 PUSH1 0x4 DUP1 CALLDATASIZE SUB DUP2 ADD SWAP1 PUSH2 0x8C SWAP2 SWAP1 PUSH2 0x314 JUMP JUMPDEST PUSH2 0x14E JUMP JUMPDEST STOP JUMPDEST PUSH2 0x9B PUSH2 0x2F7 JUMP JUMPDEST PUSH1 0x40 MLOAD PUSH2 0xA8 SWAP2 SWAP1 PUSH2 0x397 JUMP JUMPDEST PUSH1 0x40 MLOAD DUP1 SWAP2 SUB SWAP1 RETURN JUMPDEST PUSH1 0x0 DUP1 PUSH1 0x0 DUP1 DUP5 PUSH20 0xFFFFFFFFFFFFFFFFFFFFFFFFFFFFFFFFFFFFFFFF AND PUSH20 0xFFFFFFFFFFFFFFFFFFFFFFFFFFFFFFFFFFFFFFFF AND DUP2 MSTORE PUSH1 0x20 ADD SWAP1 DUP2 MSTORE PUSH1 0x20 ADD PUSH1 0x0 KECCAK256 PUSH1 0x1 ADD SLOAD SWAP2 POP PUSH1 0x0 DUP1 DUP5 PUSH20 0xFFFFFFFFFFFFFFFFFFFFFFFFFFFFFFFFFFFFFFFF AND PUSH20 0xFFFFFFFFFFFFFFFFFFFFFFFFFFFFFFFFFFFFFFFF AND DUP2 MSTORE PUSH1 0x20 ADD SWAP1 DUP2 MSTORE PUSH1 0x20 ADD PUSH1 0x0 KECCAK256 PUSH1 0x2 ADD PUSH1 0x0 SWAP1 SLOAD SWAP1 PUSH2 0x100 EXP SWAP1 DIV PUSH1 0xFF AND SWAP1 POP SWAP2 POP SWAP2 JUMP JUMPDEST DUP1 PUSH1 0x0 DUP1 DUP4 PUSH20 0xFFFFFFFFFFFFFFFFFFFFFFFFFFFFFFFFFFFFFFFF AND PUSH20 0xFFFFFFFFFFFFFFFFFFFFFFFFFFFFFFFFFFFFFFFF AND DUP2 MSTORE PUSH1 0x20 ADD SWAP1 DUP2 MSTORE PUSH1 0x20 ADD PUSH1 0x0 KECCAK256 PUSH1 0x0 ADD PUSH1 0x0 PUSH2 0x100 EXP DUP2 SLOAD DUP2 PUSH20 0xFFFFFFFFFFFFFFFFFFFFFFFFFFFFFFFFFFFFFFFF MUL NOT AND SWAP1 DUP4 PUSH20 0xFFFFFFFFFFFFFFFFFFFFFFFFFFFFFFFFFFFFFFFF AND MUL OR SWAP1 SSTORE POP PUSH1 0xA TIMESTAMP PUSH2 0x1DB SWAP2 SWAP1 PUSH2 0x3DB JUMP JUMPDEST PUSH1 0x0 DUP1 DUP4 PUSH20 0xFFFFFFFFFFFFFFFFFFFFFFFFFFFFFFFFFFFFFFFF AND PUSH20 0xFFFFFFFFFFFFFFFFFFFFFFFFFFFFFFFFFFFFFFFF AND DUP2 MSTORE PUSH1 0x20 ADD SWAP1 DUP2 MSTORE PUSH1 0x20 ADD PUSH1 0x0 KECCAK256 PUSH1 0x1 ADD DUP2 SWAP1 SSTORE POP PUSH1 0x1 PUSH1 0x0 DUP1 DUP4 PUSH20 0xFFFFFFFFFFFFFFFFFFFFFFFFFFFFFFFFFFFFFFFF AND PUSH20 0xFFFFFFFFFFFFFFFFFFFFFFFFFFFFFFFFFFFFFFFF AND DUP2 MSTORE PUSH1 0x20 ADD SWAP1 DUP2 MSTORE PUSH1 0x20 ADD PUSH1 0x0 KECCAK256 PUSH1 0x2 ADD PUSH1 0x0 PUSH2 0x100 EXP DUP2 SLOAD DUP2 PUSH1 0xFF MUL NOT AND SWAP1 DUP4 ISZERO ISZERO MUL OR SWAP1 SSTORE POP PUSH32 0xFF4258F29AA7A78BEFD6A7CA5A3F3287A86BA46D68BDD9AF2A091D117BA0AB68 DUP2 PUSH1 0x0 DUP1 DUP5 PUSH20 0xFFFFFFFFFFFFFFFFFFFFFFFFFFFFFFFFFFFFFFFF AND PUSH20 0xFFFFFFFFFFFFFFFFFFFFFFFFFFFFFFFFFFFFFFFF AND DUP2 MSTORE PUSH1 0x20 ADD SWAP1 DUP2 MSTORE PUSH1 0x20 ADD PUSH1 0x0 KECCAK256 PUSH1 0x1 ADD SLOAD PUSH1 0x40 MLOAD PUSH2 0x2EC SWAP3 SWAP2 SWAP1 PUSH2 0x36E JUMP JUMPDEST PUSH1 0x40 MLOAD DUP1 SWAP2 SUB SWAP1 LOG1 POP JUMP JUMPDEST PUSH1 0x0 TIMESTAMP SWAP1 POP SWAP1 JUMP JUMPDEST PUSH1 0x0 DUP2 CALLDATALOAD SWAP1 POP PUSH2 0x30E DUP2 PUSH2 0x4AD JUMP JUMPDEST SWAP3 SWAP2 POP POP JUMP JUMPDEST PUSH1 0x0 PUSH1 0x20 DUP3 DUP5 SUB SLT ISZERO PUSH2 0x32A JUMPI PUSH2 0x329 PUSH2 0x4A8 JUMP JUMPDEST JUMPDEST PUSH1 0x0 PUSH2 0x338 DUP5 DUP3 DUP6 ADD PUSH2 0x2FF JUMP JUMPDEST SWAP2 POP POP SWAP3 SWAP2 POP POP JUMP JUMPDEST PUSH2 0x34A DUP2 PUSH2 0x431 JUMP JUMPDEST DUP3 MSTORE POP POP JUMP JUMPDEST PUSH2 0x359 DUP2 PUSH2 0x443 JUMP JUMPDEST DUP3 MSTORE POP POP JUMP JUMPDEST PUSH2 0x368 DUP2 PUSH2 0x46F JUMP JUMPDEST DUP3 MSTORE POP POP JUMP JUMPDEST PUSH1 0x0 PUSH1 0x40 DUP3 ADD SWAP1 POP PUSH2 0x383 PUSH1 0x0 DUP4 ADD DUP6 PUSH2 0x341 JUMP JUMPDEST PUSH2 0x390 PUSH1 0x20 DUP4 ADD DUP5 PUSH2 0x35F JUMP JUMPDEST SWAP4 SWAP3 POP POP POP JUMP JUMPDEST PUSH1 0x0 PUSH1 0x20 DUP3 ADD SWAP1 POP PUSH2 0x3AC PUSH1 0x0 DUP4 ADD DUP5 PUSH2 0x35F JUMP JUMPDEST SWAP3 SWAP2 POP POP JUMP JUMPDEST PUSH1 0x0 PUSH1 0x40 DUP3 ADD SWAP1 POP PUSH2 0x3C7 PUSH1 0x0 DUP4 ADD DUP6 PUSH2 0x35F JUMP JUMPDEST PUSH2 0x3D4 PUSH1 0x20 DUP4 ADD DUP5 PUSH2 0x350 JUMP JUMPDEST SWAP4 SWAP3 POP POP POP JUMP JUMPDEST PUSH1 0x0 PUSH2 0x3E6 DUP3 PUSH2 0x46F JUMP JUMPDEST SWAP2 POP PUSH2 0x3F1 DUP4 PUSH2 0x46F JUMP JUMPDEST SWAP3 POP DUP3 PUSH32 0xFFFFFFFFFFFFFFFFFFFFFFFFFFFFFFFFFFFFFFFFFFFFFFFFFFFFFFFFFFFFFFFF SUB DUP3 GT ISZERO PUSH2 0x426 JUMPI PUSH2 0x425 PUSH2 0x479 JUMP JUMPDEST JUMPDEST DUP3 DUP3 ADD SWAP1 POP SWAP3 SWAP2 POP POP JUMP JUMPDEST PUSH1 0x0 PUSH2 0x43C DUP3 PUSH2 0x44F JUMP JUMPDEST SWAP1 POP SWAP2 SWAP1 POP JUMP JUMPDEST PUSH1 0x0 DUP2 ISZERO ISZERO SWAP1 POP SWAP2 SWAP1 POP JUMP JUMPDEST PUSH1 0x0 PUSH20 0xFFFFFFFFFFFFFFFFFFFFFFFFFFFFFFFFFFFFFFFF DUP3 AND SWAP1 POP SWAP2 SWAP1 POP JUMP JUMPDEST PUSH1 0x0 DUP2 SWAP1 POP SWAP2 SWAP1 POP JUMP JUMPDEST PUSH32 0x4E487B7100000000000000000000000000000000000000000000000000000000 PUSH1 0x0 MSTORE PUSH1 0x11 PUSH1 0x4 MSTORE PUSH1 0x24 PUSH1 0x0 REVERT JUMPDEST PUSH1 0x0 DUP1 REVERT JUMPDEST PUSH2 0x4B6 DUP2 PUSH2 0x431 JUMP JUMPDEST DUP2 EQ PUSH2 0x4C1 JUMPI PUSH1 0x0 DUP1 REVERT JUMPDEST POP JUMP INVALID LOG2 PUSH5 0x6970667358 0x22 SLT KECCAK256 BYTE 0xFC EXTCODECOPY CALLER TIMESTAMP 0x28 CALLDATASIZE 0xCE EXTCODESIZE 0xEC DUP10 JUMPDEST SIGNEXTEND 0xC8 GASLIMIT PUSH10 0x4AFF09029D0C53EA9078 GASPRICE 0xE0 SUB PUSH12 0x684E64736F6C634300080700 CALLER "
				},
				"gasEstimates": {
					"creation": {
						"codeDepositCost": "254800",
						"executionCost": "294",
						"totalCost": "255094"
					},
					"external": {
						"getBLUByAddr(address)": "5174",
						"getCurTime()": "358",
						"setBlackList(address)": "infinite"
					}
				},
				"methodIdentifiers": {
					"getBLUByAddr(address)": "169c9de0",
					"getCurTime()": "c0821da3",
					"setBlackList(address)": "72700241"
				}
			},
			"storageLayout": {
				"storage": [
					{
						"astId": 227,
						"contract": "contracts/Judge.sol:Judge",
						"label": "blackList",
						"offset": 0,
						"slot": "0",
						"type": "t_mapping(t_address,t_struct(BlackListUser)222_storage)"
					}
				],
				"types": {
					"t_address": {
						"encoding": "inplace",
						"label": "address",
						"numberOfBytes": "20"
					},
					"t_bool": {
						"encoding": "inplace",
						"label": "bool",
						"numberOfBytes": "1"
					},
					"t_mapping(t_address,t_struct(BlackListUser)222_storage)": {
						"encoding": "mapping",
						"key": "t_address",
						"label": "mapping(address => struct Judge.BlackListUser)",
						"numberOfBytes": "32",
						"value": "t_struct(BlackListUser)222_storage"
					},
					"t_struct(BlackListUser)222_storage": {
						"encoding": "inplace",
						"label": "struct Judge.BlackListUser",
						"members": [
							{
								"astId": 217,
								"contract": "contracts/Judge.sol:Judge",
								"label": "addr",
								"offset": 0,
								"slot": "0",
								"type": "t_address"
							},
							{
								"astId": 219,
								"contract": "contracts/Judge.sol:Judge",
								"label": "ToLB",
								"offset": 0,
								"slot": "1",
								"type": "t_uint256"
							},
							{
								"astId": 221,
								"contract": "contracts/Judge.sol:Judge",
								"label": "blocked",
								"offset": 0,
								"slot": "2",
								"type": "t_bool"
							}
						],
						"numberOfBytes": "96"
					},
					"t_uint256": {
						"encoding": "inplace",
						"label": "uint256",
						"numberOfBytes": "32"
					}
				}
			},
			"userdoc": {
				"kind": "user",
				"methods": {},
				"version": 1
			}
		}
	}
}