{
	"contracts/Management.sol": {
		"Management": {
			"abi": [
				{
					"inputs": [
						{
							"internalType": "address",
							"name": "_addr",
							"type": "address"
						}
					],
					"name": "getDeviceInfoByAddr",
					"outputs": [
						{
							"components": [
								{
									"internalType": "address",
									"name": "deviceAddr",
									"type": "address"
								},
								{
									"internalType": "string",
									"name": "deviceName",
									"type": "string"
								},
								{
									"internalType": "string",
									"name": "deviceType",
									"type": "string"
								},
								{
									"internalType": "string",
									"name": "status",
									"type": "string"
								}
							],
							"internalType": "struct Management.DeviceInfo",
							"name": "",
							"type": "tuple"
						}
					],
					"stateMutability": "view",
					"type": "function"
				},
				{
					"inputs": [
						{
							"internalType": "address",
							"name": "_subjectAddr",
							"type": "address"
						},
						{
							"internalType": "address",
							"name": "_objectAddr",
							"type": "address"
						}
					],
					"name": "getRight",
					"outputs": [
						{
							"internalType": "string",
							"name": "",
							"type": "string"
						}
					],
					"stateMutability": "view",
					"type": "function"
				},
				{
					"inputs": [
						{
							"internalType": "address",
							"name": "_subjectAddr",
							"type": "address"
						}
					],
					"name": "getSubjInfo",
					"outputs": [
						{
							"internalType": "string",
							"name": "subjName",
							"type": "string"
						},
						{
							"internalType": "string",
							"name": "ipAddr",
							"type": "string"
						}
					],
					"stateMutability": "view",
					"type": "function"
				},
				{
					"inputs": [],
					"name": "init",
					"outputs": [],
					"stateMutability": "nonpayable",
					"type": "function"
				},
				{
					"inputs": [
						{
							"internalType": "address",
							"name": "_deviceAddr",
							"type": "address"
						},
						{
							"internalType": "string",
							"name": "right",
							"type": "string"
						}
					],
					"name": "register4Right",
					"outputs": [],
					"stateMutability": "nonpayable",
					"type": "function"
				},
				{
					"inputs": [
						{
							"internalType": "address",
							"name": "_deviceAddr",
							"type": "address"
						},
						{
							"internalType": "string",
							"name": "_deviceName",
							"type": "string"
						},
						{
							"internalType": "string",
							"name": "_deviceType",
							"type": "string"
						},
						{
							"internalType": "string",
							"name": "_status",
							"type": "string"
						}
					],
					"name": "setDeviceInfo",
					"outputs": [],
					"stateMutability": "nonpayable",
					"type": "function"
				},
				{
					"inputs": [
						{
							"internalType": "string",
							"name": "_subjectName",
							"type": "string"
						},
						{
							"internalType": "string",
							"name": "_ipAddr",
							"type": "string"
						}
					],
					"name": "setSubjInfo",
					"outputs": [],
					"stateMutability": "nonpayable",
					"type": "function"
				},
				{
					"inputs": [
						{
							"internalType": "address",
							"name": "",
							"type": "address"
						}
					],
					"name": "subjInfoMap",
					"outputs": [
						{
							"internalType": "address",
							"name": "subjectAddr",
							"type": "address"
						},
						{
							"internalType": "string",
							"name": "subjectName",
							"type": "string"
						},
						{
							"internalType": "string",
							"name": "ipAddr",
							"type": "string"
						}
					],
					"stateMutability": "view",
					"type": "function"
				}
			],
			"devdoc": {
				"kind": "dev",
				"methods": {},
				"version": 1
			},
			"evm": {
				"assembly": "    /* \"contracts/Management.sol\":68:2663  contract Management {\r... */\n  mstore(0x40, 0x80)\n  callvalue\n  dup1\n  iszero\n  tag_1\n  jumpi\n  0x00\n  dup1\n  revert\ntag_1:\n  pop\n  dataSize(sub_0)\n  dup1\n  dataOffset(sub_0)\n  0x00\n  codecopy\n  0x00\n  return\nstop\n\nsub_0: assembly {\n        /* \"contracts/Management.sol\":68:2663  contract Management {\r... */\n      mstore(0x40, 0x80)\n      callvalue\n      dup1\n      iszero\n      tag_1\n      jumpi\n      0x00\n      dup1\n      revert\n    tag_1:\n      pop\n      jumpi(tag_2, lt(calldatasize, 0x04))\n      shr(0xe0, calldataload(0x00))\n      dup1\n      0xb9e0ad10\n      gt\n      tag_11\n      jumpi\n      dup1\n      0xb9e0ad10\n      eq\n      tag_7\n      jumpi\n      dup1\n      0xde1e23b7\n      eq\n      tag_8\n      jumpi\n      dup1\n      0xe1c7392a\n      eq\n      tag_9\n      jumpi\n      dup1\n      0xf2c3c745\n      eq\n      tag_10\n      jumpi\n      jump(tag_2)\n    tag_11:\n      dup1\n      0x11ef4171\n      eq\n      tag_3\n      jumpi\n      dup1\n      0x4d2d701a\n      eq\n      tag_4\n      jumpi\n      dup1\n      0x8749774f\n      eq\n      tag_5\n      jumpi\n      dup1\n      0x9f764d16\n      eq\n      tag_6\n      jumpi\n    tag_2:\n      0x00\n      dup1\n      revert\n        /* \"contracts/Management.sol\":1350:1578  function register4Right(address _deviceAddr, string memory right) public {\r... */\n    tag_3:\n      tag_12\n      0x04\n      dup1\n      calldatasize\n      sub\n      dup2\n      add\n      swap1\n      tag_13\n      swap2\n      swap1\n      tag_14\n      jump\t// in\n    tag_13:\n      tag_15\n      jump\t// in\n    tag_12:\n      stop\n        /* \"contracts/Management.sol\":607:983  function setDeviceInfo(address _deviceAddr, string memory _deviceName, string memory _deviceType, string memory _status) public {\r... */\n    tag_4:\n      tag_16\n      0x04\n      dup1\n      calldatasize\n      sub\n      dup2\n      add\n      swap1\n      tag_17\n      swap2\n      swap1\n      tag_18\n      jump\t// in\n    tag_17:\n      tag_19\n      jump\t// in\n    tag_16:\n      stop\n        /* \"contracts/Management.sol\":1725:1897  function getRight(address _subjectAddr, address _objectAddr) public view returns (string memory) {\r... */\n    tag_5:\n      tag_20\n      0x04\n      dup1\n      calldatasize\n      sub\n      dup2\n      add\n      swap1\n      tag_21\n      swap2\n      swap1\n      tag_22\n      jump\t// in\n    tag_21:\n      tag_23\n      jump\t// in\n    tag_20:\n      mload(0x40)\n      tag_24\n      swap2\n      swap1\n      tag_25\n      jump\t// in\n    tag_24:\n      mload(0x40)\n      dup1\n      swap2\n      sub\n      swap1\n      return\n        /* \"contracts/Management.sol\":1905:2134  function getSubjInfo(address _subjectAddr) public view returns (string memory subjName, string memory ipAddr) {\r... */\n    tag_6:\n      tag_26\n      0x04\n      dup1\n      calldatasize\n      sub\n      dup2\n      add\n      swap1\n      tag_27\n      swap2\n      swap1\n      tag_28\n      jump\t// in\n    tag_27:\n      tag_29\n      jump\t// in\n    tag_26:\n      mload(0x40)\n      tag_30\n      swap3\n      swap2\n      swap1\n      tag_31\n      jump\t// in\n    tag_30:\n      mload(0x40)\n      dup1\n      swap2\n      sub\n      swap1\n      return\n        /* \"contracts/Management.sol\":551:598  mapping(address => SubjInfo) public subjInfoMap */\n    tag_7:\n      tag_32\n      0x04\n      dup1\n      calldatasize\n      sub\n      dup2\n      add\n      swap1\n      tag_33\n      swap2\n      swap1\n      tag_28\n      jump\t// in\n    tag_33:\n      tag_34\n      jump\t// in\n    tag_32:\n      mload(0x40)\n      tag_35\n      swap4\n      swap3\n      swap2\n      swap1\n      tag_36\n      jump\t// in\n    tag_35:\n      mload(0x40)\n      dup1\n      swap2\n      sub\n      swap1\n      return\n        /* \"contracts/Management.sol\":1587:1717  function getDeviceInfoByAddr(address _addr) public view returns (DeviceInfo memory) {\r... */\n    tag_8:\n      tag_37\n      0x04\n      dup1\n      calldatasize\n      sub\n      dup2\n      add\n      swap1\n      tag_38\n      swap2\n      swap1\n      tag_28\n      jump\t// in\n    tag_38:\n      tag_39\n      jump\t// in\n    tag_37:\n      mload(0x40)\n      tag_40\n      swap2\n      swap1\n      tag_41\n      jump\t// in\n    tag_40:\n      mload(0x40)\n      dup1\n      swap2\n      sub\n      swap1\n      return\n        /* \"contracts/Management.sol\":2169:2658  function init() public {\r... */\n    tag_9:\n      tag_42\n      tag_43\n      jump\t// in\n    tag_42:\n      stop\n        /* \"contracts/Management.sol\":991:1301  function setSubjInfo(string memory _subjectName, string memory _ipAddr) public {\r... */\n    tag_10:\n      tag_44\n      0x04\n      dup1\n      calldatasize\n      sub\n      dup2\n      add\n      swap1\n      tag_45\n      swap2\n      swap1\n      tag_46\n      jump\t// in\n    tag_45:\n      tag_47\n      jump\t// in\n    tag_44:\n      stop\n        /* \"contracts/Management.sol\":1350:1578  function register4Right(address _deviceAddr, string memory right) public {\r... */\n    tag_15:\n        /* \"contracts/Management.sol\":1565:1570  right */\n      dup1\n        /* \"contracts/Management.sol\":1515:1526  subjInfoMap */\n      0x01\n        /* \"contracts/Management.sol\":1515:1538  subjInfoMap[msg.sender] */\n      0x00\n        /* \"contracts/Management.sol\":1527:1537  msg.sender */\n      caller\n        /* \"contracts/Management.sol\":1515:1538  subjInfoMap[msg.sender] */\n      0xffffffffffffffffffffffffffffffffffffffff\n      and\n      0xffffffffffffffffffffffffffffffffffffffff\n      and\n      dup2\n      mstore\n      0x20\n      add\n      swap1\n      dup2\n      mstore\n      0x20\n      add\n      0x00\n      keccak256\n        /* \"contracts/Management.sol\":1515:1549  subjInfoMap[msg.sender].rightTable */\n      0x02\n      add\n        /* \"contracts/Management.sol\":1515:1562  subjInfoMap[msg.sender].rightTable[_deviceAddr] */\n      0x00\n        /* \"contracts/Management.sol\":1550:1561  _deviceAddr */\n      dup5\n        /* \"contracts/Management.sol\":1515:1562  subjInfoMap[msg.sender].rightTable[_deviceAddr] */\n      0xffffffffffffffffffffffffffffffffffffffff\n      and\n      0xffffffffffffffffffffffffffffffffffffffff\n      and\n      dup2\n      mstore\n      0x20\n      add\n      swap1\n      dup2\n      mstore\n      0x20\n      add\n      0x00\n      keccak256\n        /* \"contracts/Management.sol\":1515:1570  subjInfoMap[msg.sender].rightTable[_deviceAddr] = right */\n      swap1\n      dup1\n      mload\n      swap1\n      0x20\n      add\n      swap1\n      tag_49\n      swap3\n      swap2\n      swap1\n      tag_50\n      jump\t// in\n    tag_49:\n      pop\n        /* \"contracts/Management.sol\":1350:1578  function register4Right(address _deviceAddr, string memory right) public {\r... */\n      pop\n      pop\n      jump\t// out\n        /* \"contracts/Management.sol\":607:983  function setDeviceInfo(address _deviceAddr, string memory _deviceName, string memory _deviceType, string memory _status) public {\r... */\n    tag_19:\n        /* \"contracts/Management.sol\":786:797  _deviceAddr */\n      dup4\n        /* \"contracts/Management.sol\":746:759  deviceInfoMap */\n      0x00\n        /* \"contracts/Management.sol\":746:772  deviceInfoMap[_deviceAddr] */\n      dup1\n        /* \"contracts/Management.sol\":760:771  _deviceAddr */\n      dup7\n        /* \"contracts/Management.sol\":746:772  deviceInfoMap[_deviceAddr] */\n      0xffffffffffffffffffffffffffffffffffffffff\n      and\n      0xffffffffffffffffffffffffffffffffffffffff\n      and\n      dup2\n      mstore\n      0x20\n      add\n      swap1\n      dup2\n      mstore\n      0x20\n      add\n      0x00\n      keccak256\n        /* \"contracts/Management.sol\":746:783  deviceInfoMap[_deviceAddr].deviceAddr */\n      0x00\n      add\n      0x00\n        /* \"contracts/Management.sol\":746:797  deviceInfoMap[_deviceAddr].deviceAddr = _deviceAddr */\n      0x0100\n      exp\n      dup2\n      sload\n      dup2\n      0xffffffffffffffffffffffffffffffffffffffff\n      mul\n      not\n      and\n      swap1\n      dup4\n      0xffffffffffffffffffffffffffffffffffffffff\n      and\n      mul\n      or\n      swap1\n      sstore\n      pop\n        /* \"contracts/Management.sol\":848:859  _deviceName */\n      dup3\n        /* \"contracts/Management.sol\":808:821  deviceInfoMap */\n      0x00\n        /* \"contracts/Management.sol\":808:834  deviceInfoMap[_deviceAddr] */\n      dup1\n        /* \"contracts/Management.sol\":822:833  _deviceAddr */\n      dup7\n        /* \"contracts/Management.sol\":808:834  deviceInfoMap[_deviceAddr] */\n      0xffffffffffffffffffffffffffffffffffffffff\n      and\n      0xffffffffffffffffffffffffffffffffffffffff\n      and\n      dup2\n      mstore\n      0x20\n      add\n      swap1\n      dup2\n      mstore\n      0x20\n      add\n      0x00\n      keccak256\n        /* \"contracts/Management.sol\":808:845  deviceInfoMap[_deviceAddr].deviceName */\n      0x01\n      add\n        /* \"contracts/Management.sol\":808:859  deviceInfoMap[_deviceAddr].deviceName = _deviceName */\n      swap1\n      dup1\n      mload\n      swap1\n      0x20\n      add\n      swap1\n      tag_52\n      swap3\n      swap2\n      swap1\n      tag_50\n      jump\t// in\n    tag_52:\n      pop\n        /* \"contracts/Management.sol\":910:921  _deviceType */\n      dup2\n        /* \"contracts/Management.sol\":870:883  deviceInfoMap */\n      0x00\n        /* \"contracts/Management.sol\":870:896  deviceInfoMap[_deviceAddr] */\n      dup1\n        /* \"contracts/Management.sol\":884:895  _deviceAddr */\n      dup7\n        /* \"contracts/Management.sol\":870:896  deviceInfoMap[_deviceAddr] */\n      0xffffffffffffffffffffffffffffffffffffffff\n      and\n      0xffffffffffffffffffffffffffffffffffffffff\n      and\n      dup2\n      mstore\n      0x20\n      add\n      swap1\n      dup2\n      mstore\n      0x20\n      add\n      0x00\n      keccak256\n        /* \"contracts/Management.sol\":870:907  deviceInfoMap[_deviceAddr].deviceType */\n      0x02\n      add\n        /* \"contracts/Management.sol\":870:921  deviceInfoMap[_deviceAddr].deviceType = _deviceType */\n      swap1\n      dup1\n      mload\n      swap1\n      0x20\n      add\n      swap1\n      tag_53\n      swap3\n      swap2\n      swap1\n      tag_50\n      jump\t// in\n    tag_53:\n      pop\n        /* \"contracts/Management.sol\":968:975  _status */\n      dup1\n        /* \"contracts/Management.sol\":932:945  deviceInfoMap */\n      0x00\n        /* \"contracts/Management.sol\":932:958  deviceInfoMap[_deviceAddr] */\n      dup1\n        /* \"contracts/Management.sol\":946:957  _deviceAddr */\n      dup7\n        /* \"contracts/Management.sol\":932:958  deviceInfoMap[_deviceAddr] */\n      0xffffffffffffffffffffffffffffffffffffffff\n      and\n      0xffffffffffffffffffffffffffffffffffffffff\n      and\n      dup2\n      mstore\n      0x20\n      add\n      swap1\n      dup2\n      mstore\n      0x20\n      add\n      0x00\n      keccak256\n        /* \"contracts/Management.sol\":932:965  deviceInfoMap[_deviceAddr].status */\n      0x03\n      add\n        /* \"contracts/Management.sol\":932:975  deviceInfoMap[_deviceAddr].status = _status */\n      swap1\n      dup1\n      mload\n      swap1\n      0x20\n      add\n      swap1\n      tag_54\n      swap3\n      swap2\n      swap1\n      tag_50\n      jump\t// in\n    tag_54:\n      pop\n        /* \"contracts/Management.sol\":607:983  function setDeviceInfo(address _deviceAddr, string memory _deviceName, string memory _deviceType, string memory _status) public {\r... */\n      pop\n      pop\n      pop\n      pop\n      jump\t// out\n        /* \"contracts/Management.sol\":1725:1897  function getRight(address _subjectAddr, address _objectAddr) public view returns (string memory) {\r... */\n    tag_23:\n        /* \"contracts/Management.sol\":1807:1820  string memory */\n      0x60\n        /* \"contracts/Management.sol\":1840:1851  subjInfoMap */\n      0x01\n        /* \"contracts/Management.sol\":1840:1865  subjInfoMap[_subjectAddr] */\n      0x00\n        /* \"contracts/Management.sol\":1852:1864  _subjectAddr */\n      dup5\n        /* \"contracts/Management.sol\":1840:1865  subjInfoMap[_subjectAddr] */\n      0xffffffffffffffffffffffffffffffffffffffff\n      and\n      0xffffffffffffffffffffffffffffffffffffffff\n      and\n      dup2\n      mstore\n      0x20\n      add\n      swap1\n      dup2\n      mstore\n      0x20\n      add\n      0x00\n      keccak256\n        /* \"contracts/Management.sol\":1840:1876  subjInfoMap[_subjectAddr].rightTable */\n      0x02\n      add\n        /* \"contracts/Management.sol\":1840:1889  subjInfoMap[_subjectAddr].rightTable[_objectAddr] */\n      0x00\n        /* \"contracts/Management.sol\":1877:1888  _objectAddr */\n      dup4\n        /* \"contracts/Management.sol\":1840:1889  subjInfoMap[_subjectAddr].rightTable[_objectAddr] */\n      0xffffffffffffffffffffffffffffffffffffffff\n      and\n      0xffffffffffffffffffffffffffffffffffffffff\n      and\n      dup2\n      mstore\n      0x20\n      add\n      swap1\n      dup2\n      mstore\n      0x20\n      add\n      0x00\n      keccak256\n        /* \"contracts/Management.sol\":1833:1889  return subjInfoMap[_subjectAddr].rightTable[_objectAddr] */\n      dup1\n      sload\n      tag_56\n      swap1\n      tag_57\n      jump\t// in\n    tag_56:\n      dup1\n      0x1f\n      add\n      0x20\n      dup1\n      swap2\n      div\n      mul\n      0x20\n      add\n      mload(0x40)\n      swap1\n      dup2\n      add\n      0x40\n      mstore\n      dup1\n      swap3\n      swap2\n      swap1\n      dup2\n      dup2\n      mstore\n      0x20\n      add\n      dup3\n      dup1\n      sload\n      tag_58\n      swap1\n      tag_57\n      jump\t// in\n    tag_58:\n      dup1\n      iszero\n      tag_59\n      jumpi\n      dup1\n      0x1f\n      lt\n      tag_60\n      jumpi\n      0x0100\n      dup1\n      dup4\n      sload\n      div\n      mul\n      dup4\n      mstore\n      swap2\n      0x20\n      add\n      swap2\n      jump(tag_59)\n    tag_60:\n      dup3\n      add\n      swap2\n      swap1\n      0x00\n      mstore\n      keccak256(0x00, 0x20)\n      swap1\n    tag_61:\n      dup2\n      sload\n      dup2\n      mstore\n      swap1\n      0x01\n      add\n      swap1\n      0x20\n      add\n      dup1\n      dup4\n      gt\n      tag_61\n      jumpi\n      dup3\n      swap1\n      sub\n      0x1f\n      and\n      dup3\n      add\n      swap2\n    tag_59:\n      pop\n      pop\n      pop\n      pop\n      pop\n      swap1\n      pop\n        /* \"contracts/Management.sol\":1725:1897  function getRight(address _subjectAddr, address _objectAddr) public view returns (string memory) {\r... */\n      swap3\n      swap2\n      pop\n      pop\n      jump\t// out\n        /* \"contracts/Management.sol\":1905:2134  function getSubjInfo(address _subjectAddr) public view returns (string memory subjName, string memory ipAddr) {\r... */\n    tag_29:\n        /* \"contracts/Management.sol\":1969:1991  string memory subjName */\n      0x60\n        /* \"contracts/Management.sol\":1993:2013  string memory ipAddr */\n      dup1\n        /* \"contracts/Management.sol\":2037:2048  subjInfoMap */\n      0x01\n        /* \"contracts/Management.sol\":2037:2062  subjInfoMap[_subjectAddr] */\n      0x00\n        /* \"contracts/Management.sol\":2049:2061  _subjectAddr */\n      dup5\n        /* \"contracts/Management.sol\":2037:2062  subjInfoMap[_subjectAddr] */\n      0xffffffffffffffffffffffffffffffffffffffff\n      and\n      0xffffffffffffffffffffffffffffffffffffffff\n      and\n      dup2\n      mstore\n      0x20\n      add\n      swap1\n      dup2\n      mstore\n      0x20\n      add\n      0x00\n      keccak256\n        /* \"contracts/Management.sol\":2037:2074  subjInfoMap[_subjectAddr].subjectName */\n      0x01\n      add\n        /* \"contracts/Management.sol\":2026:2074  subjName = subjInfoMap[_subjectAddr].subjectName */\n      dup1\n      sload\n      tag_63\n      swap1\n      tag_57\n      jump\t// in\n    tag_63:\n      dup1\n      0x1f\n      add\n      0x20\n      dup1\n      swap2\n      div\n      mul\n      0x20\n      add\n      mload(0x40)\n      swap1\n      dup2\n      add\n      0x40\n      mstore\n      dup1\n      swap3\n      swap2\n      swap1\n      dup2\n      dup2\n      mstore\n      0x20\n      add\n      dup3\n      dup1\n      sload\n      tag_64\n      swap1\n      tag_57\n      jump\t// in\n    tag_64:\n      dup1\n      iszero\n      tag_65\n      jumpi\n      dup1\n      0x1f\n      lt\n      tag_66\n      jumpi\n      0x0100\n      dup1\n      dup4\n      sload\n      div\n      mul\n      dup4\n      mstore\n      swap2\n      0x20\n      add\n      swap2\n      jump(tag_65)\n    tag_66:\n      dup3\n      add\n      swap2\n      swap1\n      0x00\n      mstore\n      keccak256(0x00, 0x20)\n      swap1\n    tag_67:\n      dup2\n      sload\n      dup2\n      mstore\n      swap1\n      0x01\n      add\n      swap1\n      0x20\n      add\n      dup1\n      dup4\n      gt\n      tag_67\n      jumpi\n      dup3\n      swap1\n      sub\n      0x1f\n      and\n      dup3\n      add\n      swap2\n    tag_65:\n      pop\n      pop\n      pop\n      pop\n      pop\n      swap2\n      pop\n        /* \"contracts/Management.sol\":2094:2105  subjInfoMap */\n      0x01\n        /* \"contracts/Management.sol\":2094:2119  subjInfoMap[_subjectAddr] */\n      0x00\n        /* \"contracts/Management.sol\":2106:2118  _subjectAddr */\n      dup5\n        /* \"contracts/Management.sol\":2094:2119  subjInfoMap[_subjectAddr] */\n      0xffffffffffffffffffffffffffffffffffffffff\n      and\n      0xffffffffffffffffffffffffffffffffffffffff\n      and\n      dup2\n      mstore\n      0x20\n      add\n      swap1\n      dup2\n      mstore\n      0x20\n      add\n      0x00\n      keccak256\n        /* \"contracts/Management.sol\":2094:2126  subjInfoMap[_subjectAddr].ipAddr */\n      0x03\n      add\n        /* \"contracts/Management.sol\":2085:2126  ipAddr = subjInfoMap[_subjectAddr].ipAddr */\n      dup1\n      sload\n      tag_68\n      swap1\n      tag_57\n      jump\t// in\n    tag_68:\n      dup1\n      0x1f\n      add\n      0x20\n      dup1\n      swap2\n      div\n      mul\n      0x20\n      add\n      mload(0x40)\n      swap1\n      dup2\n      add\n      0x40\n      mstore\n      dup1\n      swap3\n      swap2\n      swap1\n      dup2\n      dup2\n      mstore\n      0x20\n      add\n      dup3\n      dup1\n      sload\n      tag_69\n      swap1\n      tag_57\n      jump\t// in\n    tag_69:\n      dup1\n      iszero\n      tag_70\n      jumpi\n      dup1\n      0x1f\n      lt\n      tag_71\n      jumpi\n      0x0100\n      dup1\n      dup4\n      sload\n      div\n      mul\n      dup4\n      mstore\n      swap2\n      0x20\n      add\n      swap2\n      jump(tag_70)\n    tag_71:\n      dup3\n      add\n      swap2\n      swap1\n      0x00\n      mstore\n      keccak256(0x00, 0x20)\n      swap1\n    tag_72:\n      dup2\n      sload\n      dup2\n      mstore\n      swap1\n      0x01\n      add\n      swap1\n      0x20\n      add\n      dup1\n      dup4\n      gt\n      tag_72\n      jumpi\n      dup3\n      swap1\n      sub\n      0x1f\n      and\n      dup3\n      add\n      swap2\n    tag_70:\n      pop\n      pop\n      pop\n      pop\n      pop\n      swap1\n      pop\n        /* \"contracts/Management.sol\":1905:2134  function getSubjInfo(address _subjectAddr) public view returns (string memory subjName, string memory ipAddr) {\r... */\n      swap2\n      pop\n      swap2\n      jump\t// out\n        /* \"contracts/Management.sol\":551:598  mapping(address => SubjInfo) public subjInfoMap */\n    tag_34:\n      mstore(0x20, 0x01)\n      dup1\n      0x00\n      mstore\n      keccak256(0x00, 0x40)\n      0x00\n      swap2\n      pop\n      swap1\n      pop\n      dup1\n      0x00\n      add\n      0x00\n      swap1\n      sload\n      swap1\n      0x0100\n      exp\n      swap1\n      div\n      0xffffffffffffffffffffffffffffffffffffffff\n      and\n      swap1\n      dup1\n      0x01\n      add\n      dup1\n      sload\n      tag_73\n      swap1\n      tag_57\n      jump\t// in\n    tag_73:\n      dup1\n      0x1f\n      add\n      0x20\n      dup1\n      swap2\n      div\n      mul\n      0x20\n      add\n      mload(0x40)\n      swap1\n      dup2\n      add\n      0x40\n      mstore\n      dup1\n      swap3\n      swap2\n      swap1\n      dup2\n      dup2\n      mstore\n      0x20\n      add\n      dup3\n      dup1\n      sload\n      tag_74\n      swap1\n      tag_57\n      jump\t// in\n    tag_74:\n      dup1\n      iszero\n      tag_75\n      jumpi\n      dup1\n      0x1f\n      lt\n      tag_76\n      jumpi\n      0x0100\n      dup1\n      dup4\n      sload\n      div\n      mul\n      dup4\n      mstore\n      swap2\n      0x20\n      add\n      swap2\n      jump(tag_75)\n    tag_76:\n      dup3\n      add\n      swap2\n      swap1\n      0x00\n      mstore\n      keccak256(0x00, 0x20)\n      swap1\n    tag_77:\n      dup2\n      sload\n      dup2\n      mstore\n      swap1\n      0x01\n      add\n      swap1\n      0x20\n      add\n      dup1\n      dup4\n      gt\n      tag_77\n      jumpi\n      dup3\n      swap1\n      sub\n      0x1f\n      and\n      dup3\n      add\n      swap2\n    tag_75:\n      pop\n      pop\n      pop\n      pop\n      pop\n      swap1\n      dup1\n      0x03\n      add\n      dup1\n      sload\n      tag_78\n      swap1\n      tag_57\n      jump\t// in\n    tag_78:\n      dup1\n      0x1f\n      add\n      0x20\n      dup1\n      swap2\n      div\n      mul\n      0x20\n      add\n      mload(0x40)\n      swap1\n      dup2\n      add\n      0x40\n      mstore\n      dup1\n      swap3\n      swap2\n      swap1\n      dup2\n      dup2\n      mstore\n      0x20\n      add\n      dup3\n      dup1\n      sload\n      tag_79\n      swap1\n      tag_57\n      jump\t// in\n    tag_79:\n      dup1\n      iszero\n      tag_80\n      jumpi\n      dup1\n      0x1f\n      lt\n      tag_81\n      jumpi\n      0x0100\n      dup1\n      dup4\n      sload\n      div\n      mul\n      dup4\n      mstore\n      swap2\n      0x20\n      add\n      swap2\n      jump(tag_80)\n    tag_81:\n      dup3\n      add\n      swap2\n      swap1\n      0x00\n      mstore\n      keccak256(0x00, 0x20)\n      swap1\n    tag_82:\n      dup2\n      sload\n      dup2\n      mstore\n      swap1\n      0x01\n      add\n      swap1\n      0x20\n      add\n      dup1\n      dup4\n      gt\n      tag_82\n      jumpi\n      dup3\n      swap1\n      sub\n      0x1f\n      and\n      dup3\n      add\n      swap2\n    tag_80:\n      pop\n      pop\n      pop\n      pop\n      pop\n      swap1\n      pop\n      dup4\n      jump\t// out\n        /* \"contracts/Management.sol\":1587:1717  function getDeviceInfoByAddr(address _addr) public view returns (DeviceInfo memory) {\r... */\n    tag_39:\n        /* \"contracts/Management.sol\":1652:1669  DeviceInfo memory */\n      tag_83\n      tag_84\n      jump\t// in\n    tag_83:\n        /* \"contracts/Management.sol\":1689:1702  deviceInfoMap */\n      0x00\n        /* \"contracts/Management.sol\":1689:1709  deviceInfoMap[_addr] */\n      dup1\n        /* \"contracts/Management.sol\":1703:1708  _addr */\n      dup4\n        /* \"contracts/Management.sol\":1689:1709  deviceInfoMap[_addr] */\n      0xffffffffffffffffffffffffffffffffffffffff\n      and\n      0xffffffffffffffffffffffffffffffffffffffff\n      and\n      dup2\n      mstore\n      0x20\n      add\n      swap1\n      dup2\n      mstore\n      0x20\n      add\n      0x00\n      keccak256\n        /* \"contracts/Management.sol\":1682:1709  return deviceInfoMap[_addr] */\n      mload(0x40)\n      dup1\n      0x80\n      add\n      0x40\n      mstore\n      swap1\n      dup2\n      0x00\n      dup3\n      add\n      0x00\n      swap1\n      sload\n      swap1\n      0x0100\n      exp\n      swap1\n      div\n      0xffffffffffffffffffffffffffffffffffffffff\n      and\n      0xffffffffffffffffffffffffffffffffffffffff\n      and\n      0xffffffffffffffffffffffffffffffffffffffff\n      and\n      dup2\n      mstore\n      0x20\n      add\n      0x01\n      dup3\n      add\n      dup1\n      sload\n      tag_86\n      swap1\n      tag_57\n      jump\t// in\n    tag_86:\n      dup1\n      0x1f\n      add\n      0x20\n      dup1\n      swap2\n      div\n      mul\n      0x20\n      add\n      mload(0x40)\n      swap1\n      dup2\n      add\n      0x40\n      mstore\n      dup1\n      swap3\n      swap2\n      swap1\n      dup2\n      dup2\n      mstore\n      0x20\n      add\n      dup3\n      dup1\n      sload\n      tag_87\n      swap1\n      tag_57\n      jump\t// in\n    tag_87:\n      dup1\n      iszero\n      tag_88\n      jumpi\n      dup1\n      0x1f\n      lt\n      tag_89\n      jumpi\n      0x0100\n      dup1\n      dup4\n      sload\n      div\n      mul\n      dup4\n      mstore\n      swap2\n      0x20\n      add\n      swap2\n      jump(tag_88)\n    tag_89:\n      dup3\n      add\n      swap2\n      swap1\n      0x00\n      mstore\n      keccak256(0x00, 0x20)\n      swap1\n    tag_90:\n      dup2\n      sload\n      dup2\n      mstore\n      swap1\n      0x01\n      add\n      swap1\n      0x20\n      add\n      dup1\n      dup4\n      gt\n      tag_90\n      jumpi\n      dup3\n      swap1\n      sub\n      0x1f\n      and\n      dup3\n      add\n      swap2\n    tag_88:\n      pop\n      pop\n      pop\n      pop\n      pop\n      dup2\n      mstore\n      0x20\n      add\n      0x02\n      dup3\n      add\n      dup1\n      sload\n      tag_91\n      swap1\n      tag_57\n      jump\t// in\n    tag_91:\n      dup1\n      0x1f\n      add\n      0x20\n      dup1\n      swap2\n      div\n      mul\n      0x20\n      add\n      mload(0x40)\n      swap1\n      dup2\n      add\n      0x40\n      mstore\n      dup1\n      swap3\n      swap2\n      swap1\n      dup2\n      dup2\n      mstore\n      0x20\n      add\n      dup3\n      dup1\n      sload\n      tag_92\n      swap1\n      tag_57\n      jump\t// in\n    tag_92:\n      dup1\n      iszero\n      tag_93\n      jumpi\n      dup1\n      0x1f\n      lt\n      tag_94\n      jumpi\n      0x0100\n      dup1\n      dup4\n      sload\n      div\n      mul\n      dup4\n      mstore\n      swap2\n      0x20\n      add\n      swap2\n      jump(tag_93)\n    tag_94:\n      dup3\n      add\n      swap2\n      swap1\n      0x00\n      mstore\n      keccak256(0x00, 0x20)\n      swap1\n    tag_95:\n      dup2\n      sload\n      dup2\n      mstore\n      swap1\n      0x01\n      add\n      swap1\n      0x20\n      add\n      dup1\n      dup4\n      gt\n      tag_95\n      jumpi\n      dup3\n      swap1\n      sub\n      0x1f\n      and\n      dup3\n      add\n      swap2\n    tag_93:\n      pop\n      pop\n      pop\n      pop\n      pop\n      dup2\n      mstore\n      0x20\n      add\n      0x03\n      dup3\n      add\n      dup1\n      sload\n      tag_96\n      swap1\n      tag_57\n      jump\t// in\n    tag_96:\n      dup1\n      0x1f\n      add\n      0x20\n      dup1\n      swap2\n      div\n      mul\n      0x20\n      add\n      mload(0x40)\n      swap1\n      dup2\n      add\n      0x40\n      mstore\n      dup1\n      swap3\n      swap2\n      swap1\n      dup2\n      dup2\n      mstore\n      0x20\n      add\n      dup3\n      dup1\n      sload\n      tag_97\n      swap1\n      tag_57\n      jump\t// in\n    tag_97:\n      dup1\n      iszero\n      tag_98\n      jumpi\n      dup1\n      0x1f\n      lt\n      tag_99\n      jumpi\n      0x0100\n      dup1\n      dup4\n      sload\n      div\n      mul\n      dup4\n      mstore\n      swap2\n      0x20\n      add\n      swap2\n      jump(tag_98)\n    tag_99:\n      dup3\n      add\n      swap2\n      swap1\n      0x00\n      mstore\n      keccak256(0x00, 0x20)\n      swap1\n    tag_100:\n      dup2\n      sload\n      dup2\n      mstore\n      swap1\n      0x01\n      add\n      swap1\n      0x20\n      add\n      dup1\n      dup4\n      gt\n      tag_100\n      jumpi\n      dup3\n      swap1\n      sub\n      0x1f\n      and\n      dup3\n      add\n      swap2\n    tag_98:\n      pop\n      pop\n      pop\n      pop\n      pop\n      dup2\n      mstore\n      pop\n      pop\n      swap1\n      pop\n        /* \"contracts/Management.sol\":1587:1717  function getDeviceInfoByAddr(address _addr) public view returns (DeviceInfo memory) {\r... */\n      swap2\n      swap1\n      pop\n      jump\t// out\n        /* \"contracts/Management.sol\":2169:2658  function init() public {\r... */\n    tag_43:\n        /* \"contracts/Management.sol\":2227:2242  address device1 */\n      0x00\n        /* \"contracts/Management.sol\":2253:2268  address device2 */\n      dup1\n        /* \"contracts/Management.sol\":2279:2294  address device3 */\n      0x00\n        /* \"contracts/Management.sol\":2336:2378  0xb4d18d483b641200Aa096558C9bA63aeb243002b */\n      0xb4d18d483b641200aa096558c9ba63aeb243002b\n        /* \"contracts/Management.sol\":2390:2432  0xfF5d2fe96548E05E49C67FcC36C7dBecA2f501f2 */\n      0xff5d2fe96548e05e49c67fcc36c7dbeca2f501f2\n        /* \"contracts/Management.sol\":2434:2476  0xbE7186f383961Cc24Ad8012A2F2942667a72788F */\n      0xbe7186f383961cc24ad8012a2f2942667a72788f\n        /* \"contracts/Management.sol\":2305:2477  (device1, device2, device3) = (0xb4d18d483b641200Aa096558C9bA63aeb243002b, \r... */\n      dup1\n      swap4\n      pop\n      dup2\n      swap5\n      pop\n      dup3\n      swap6\n      pop\n      pop\n      pop\n      pop\n        /* \"contracts/Management.sol\":2488:2530  setDeviceInfo(device1, \"d1\", \"Bulb\", \"on\") */\n      tag_102\n        /* \"contracts/Management.sol\":2502:2509  device1 */\n      dup4\n        /* \"contracts/Management.sol\":2488:2530  setDeviceInfo(device1, \"d1\", \"Bulb\", \"on\") */\n      mload(0x40)\n      dup1\n      0x40\n      add\n      0x40\n      mstore\n      dup1\n      0x02\n      dup2\n      mstore\n      0x20\n      add\n      0x6431000000000000000000000000000000000000000000000000000000000000\n      dup2\n      mstore\n      pop\n      mload(0x40)\n      dup1\n      0x40\n      add\n      0x40\n      mstore\n      dup1\n      0x04\n      dup2\n      mstore\n      0x20\n      add\n      0x42756c6200000000000000000000000000000000000000000000000000000000\n      dup2\n      mstore\n      pop\n      mload(0x40)\n      dup1\n      0x40\n      add\n      0x40\n      mstore\n      dup1\n      0x02\n      dup2\n      mstore\n      0x20\n      add\n      0x6f6e000000000000000000000000000000000000000000000000000000000000\n      dup2\n      mstore\n      pop\n        /* \"contracts/Management.sol\":2488:2501  setDeviceInfo */\n      tag_19\n        /* \"contracts/Management.sol\":2488:2530  setDeviceInfo(device1, \"d1\", \"Bulb\", \"on\") */\n      jump\t// in\n    tag_102:\n        /* \"contracts/Management.sol\":2541:2591  setDeviceInfo(device2, \"d2\", \"Transformer\", \"off\") */\n      tag_103\n        /* \"contracts/Management.sol\":2555:2562  device2 */\n      dup3\n        /* \"contracts/Management.sol\":2541:2591  setDeviceInfo(device2, \"d2\", \"Transformer\", \"off\") */\n      mload(0x40)\n      dup1\n      0x40\n      add\n      0x40\n      mstore\n      dup1\n      0x02\n      dup2\n      mstore\n      0x20\n      add\n      0x6432000000000000000000000000000000000000000000000000000000000000\n      dup2\n      mstore\n      pop\n      mload(0x40)\n      dup1\n      0x40\n      add\n      0x40\n      mstore\n      dup1\n      0x0b\n      dup2\n      mstore\n      0x20\n      add\n      0x5472616e73666f726d6572000000000000000000000000000000000000000000\n      dup2\n      mstore\n      pop\n      mload(0x40)\n      dup1\n      0x40\n      add\n      0x40\n      mstore\n      dup1\n      0x03\n      dup2\n      mstore\n      0x20\n      add\n      0x6f66660000000000000000000000000000000000000000000000000000000000\n      dup2\n      mstore\n      pop\n        /* \"contracts/Management.sol\":2541:2554  setDeviceInfo */\n      tag_19\n        /* \"contracts/Management.sol\":2541:2591  setDeviceInfo(device2, \"d2\", \"Transformer\", \"off\") */\n      jump\t// in\n    tag_103:\n        /* \"contracts/Management.sol\":2602:2646  setDeviceInfo(device3, \"d3\", \"Sensor\", \"on\") */\n      tag_104\n        /* \"contracts/Management.sol\":2616:2623  device3 */\n      dup2\n        /* \"contracts/Management.sol\":2602:2646  setDeviceInfo(device3, \"d3\", \"Sensor\", \"on\") */\n      mload(0x40)\n      dup1\n      0x40\n      add\n      0x40\n      mstore\n      dup1\n      0x02\n      dup2\n      mstore\n      0x20\n      add\n      0x6433000000000000000000000000000000000000000000000000000000000000\n      dup2\n      mstore\n      pop\n      mload(0x40)\n      dup1\n      0x40\n      add\n      0x40\n      mstore\n      dup1\n      0x06\n      dup2\n      mstore\n      0x20\n      add\n      0x53656e736f720000000000000000000000000000000000000000000000000000\n      dup2\n      mstore\n      pop\n      mload(0x40)\n      dup1\n      0x40\n      add\n      0x40\n      mstore\n      dup1\n      0x02\n      dup2\n      mstore\n      0x20\n      add\n      0x6f6e000000000000000000000000000000000000000000000000000000000000\n      dup2\n      mstore\n      pop\n        /* \"contracts/Management.sol\":2602:2615  setDeviceInfo */\n      tag_19\n        /* \"contracts/Management.sol\":2602:2646  setDeviceInfo(device3, \"d3\", \"Sensor\", \"on\") */\n      jump\t// in\n    tag_104:\n        /* \"contracts/Management.sol\":2192:2658  {\r... */\n      pop\n      pop\n      pop\n        /* \"contracts/Management.sol\":2169:2658  function init() public {\r... */\n      jump\t// out\n        /* \"contracts/Management.sol\":991:1301  function setSubjInfo(string memory _subjectName, string memory _ipAddr) public {\r... */\n    tag_47:\n        /* \"contracts/Management.sol\":1081:1101  address _subjectAddr */\n      0x00\n        /* \"contracts/Management.sol\":1104:1114  msg.sender */\n      caller\n        /* \"contracts/Management.sol\":1081:1114  address _subjectAddr = msg.sender */\n      swap1\n      pop\n        /* \"contracts/Management.sol\":1165:1177  _subjectAddr */\n      dup1\n        /* \"contracts/Management.sol\":1125:1136  subjInfoMap */\n      0x01\n        /* \"contracts/Management.sol\":1125:1150  subjInfoMap[_subjectAddr] */\n      0x00\n        /* \"contracts/Management.sol\":1137:1149  _subjectAddr */\n      dup4\n        /* \"contracts/Management.sol\":1125:1150  subjInfoMap[_subjectAddr] */\n      0xffffffffffffffffffffffffffffffffffffffff\n      and\n      0xffffffffffffffffffffffffffffffffffffffff\n      and\n      dup2\n      mstore\n      0x20\n      add\n      swap1\n      dup2\n      mstore\n      0x20\n      add\n      0x00\n      keccak256\n        /* \"contracts/Management.sol\":1125:1162  subjInfoMap[_subjectAddr].subjectAddr */\n      0x00\n      add\n      0x00\n        /* \"contracts/Management.sol\":1125:1177  subjInfoMap[_subjectAddr].subjectAddr = _subjectAddr */\n      0x0100\n      exp\n      dup2\n      sload\n      dup2\n      0xffffffffffffffffffffffffffffffffffffffff\n      mul\n      not\n      and\n      swap1\n      dup4\n      0xffffffffffffffffffffffffffffffffffffffff\n      and\n      mul\n      or\n      swap1\n      sstore\n      pop\n        /* \"contracts/Management.sol\":1228:1240  _subjectName */\n      dup3\n        /* \"contracts/Management.sol\":1188:1199  subjInfoMap */\n      0x01\n        /* \"contracts/Management.sol\":1188:1213  subjInfoMap[_subjectAddr] */\n      0x00\n        /* \"contracts/Management.sol\":1200:1212  _subjectAddr */\n      dup4\n        /* \"contracts/Management.sol\":1188:1213  subjInfoMap[_subjectAddr] */\n      0xffffffffffffffffffffffffffffffffffffffff\n      and\n      0xffffffffffffffffffffffffffffffffffffffff\n      and\n      dup2\n      mstore\n      0x20\n      add\n      swap1\n      dup2\n      mstore\n      0x20\n      add\n      0x00\n      keccak256\n        /* \"contracts/Management.sol\":1188:1225  subjInfoMap[_subjectAddr].subjectName */\n      0x01\n      add\n        /* \"contracts/Management.sol\":1188:1240  subjInfoMap[_subjectAddr].subjectName = _subjectName */\n      swap1\n      dup1\n      mload\n      swap1\n      0x20\n      add\n      swap1\n      tag_106\n      swap3\n      swap2\n      swap1\n      tag_50\n      jump\t// in\n    tag_106:\n      pop\n        /* \"contracts/Management.sol\":1286:1293  _ipAddr */\n      dup2\n        /* \"contracts/Management.sol\":1251:1262  subjInfoMap */\n      0x01\n        /* \"contracts/Management.sol\":1251:1276  subjInfoMap[_subjectAddr] */\n      0x00\n        /* \"contracts/Management.sol\":1263:1275  _subjectAddr */\n      dup4\n        /* \"contracts/Management.sol\":1251:1276  subjInfoMap[_subjectAddr] */\n      0xffffffffffffffffffffffffffffffffffffffff\n      and\n      0xffffffffffffffffffffffffffffffffffffffff\n      and\n      dup2\n      mstore\n      0x20\n      add\n      swap1\n      dup2\n      mstore\n      0x20\n      add\n      0x00\n      keccak256\n        /* \"contracts/Management.sol\":1251:1283  subjInfoMap[_subjectAddr].ipAddr */\n      0x03\n      add\n        /* \"contracts/Management.sol\":1251:1293  subjInfoMap[_subjectAddr].ipAddr = _ipAddr */\n      swap1\n      dup1\n      mload\n      swap1\n      0x20\n      add\n      swap1\n      tag_107\n      swap3\n      swap2\n      swap1\n      tag_50\n      jump\t// in\n    tag_107:\n      pop\n        /* \"contracts/Management.sol\":1070:1301  {\r... */\n      pop\n        /* \"contracts/Management.sol\":991:1301  function setSubjInfo(string memory _subjectName, string memory _ipAddr) public {\r... */\n      pop\n      pop\n      jump\t// out\n    tag_50:\n      dup3\n      dup1\n      sload\n      tag_108\n      swap1\n      tag_57\n      jump\t// in\n    tag_108:\n      swap1\n      0x00\n      mstore\n      keccak256(0x00, 0x20)\n      swap1\n      0x1f\n      add\n      0x20\n      swap1\n      div\n      dup2\n      add\n      swap3\n      dup3\n      tag_110\n      jumpi\n      0x00\n      dup6\n      sstore\n      jump(tag_109)\n    tag_110:\n      dup3\n      0x1f\n      lt\n      tag_111\n      jumpi\n      dup1\n      mload\n      not(0xff)\n      and\n      dup4\n      dup1\n      add\n      or\n      dup6\n      sstore\n      jump(tag_109)\n    tag_111:\n      dup3\n      dup1\n      add\n      0x01\n      add\n      dup6\n      sstore\n      dup3\n      iszero\n      tag_109\n      jumpi\n      swap2\n      dup3\n      add\n    tag_112:\n      dup3\n      dup2\n      gt\n      iszero\n      tag_113\n      jumpi\n      dup3\n      mload\n      dup3\n      sstore\n      swap2\n      0x20\n      add\n      swap2\n      swap1\n      0x01\n      add\n      swap1\n      jump(tag_112)\n    tag_113:\n    tag_109:\n      pop\n      swap1\n      pop\n      tag_114\n      swap2\n      swap1\n      tag_115\n      jump\t// in\n    tag_114:\n      pop\n      swap1\n      jump\t// out\n    tag_84:\n      mload(0x40)\n      dup1\n      0x80\n      add\n      0x40\n      mstore\n      dup1\n      and(0xffffffffffffffffffffffffffffffffffffffff, 0x00)\n      dup2\n      mstore\n      0x20\n      add\n      0x60\n      dup2\n      mstore\n      0x20\n      add\n      0x60\n      dup2\n      mstore\n      0x20\n      add\n      0x60\n      dup2\n      mstore\n      pop\n      swap1\n      jump\t// out\n    tag_115:\n    tag_116:\n      dup1\n      dup3\n      gt\n      iszero\n      tag_117\n      jumpi\n      0x00\n      dup2\n      0x00\n      swap1\n      sstore\n      pop\n      0x01\n      add\n      jump(tag_116)\n    tag_117:\n      pop\n      swap1\n      jump\t// out\n        /* \"#utility.yul\":7:419   */\n    tag_119:\n        /* \"#utility.yul\":85:90   */\n      0x00\n        /* \"#utility.yul\":110:176   */\n      tag_121\n        /* \"#utility.yul\":126:175   */\n      tag_122\n        /* \"#utility.yul\":168:174   */\n      dup5\n        /* \"#utility.yul\":126:175   */\n      tag_123\n      jump\t// in\n    tag_122:\n        /* \"#utility.yul\":110:176   */\n      tag_124\n      jump\t// in\n    tag_121:\n        /* \"#utility.yul\":101:176   */\n      swap1\n      pop\n        /* \"#utility.yul\":199:205   */\n      dup3\n        /* \"#utility.yul\":192:197   */\n      dup2\n        /* \"#utility.yul\":185:206   */\n      mstore\n        /* \"#utility.yul\":237:241   */\n      0x20\n        /* \"#utility.yul\":230:235   */\n      dup2\n        /* \"#utility.yul\":226:242   */\n      add\n        /* \"#utility.yul\":275:278   */\n      dup5\n        /* \"#utility.yul\":266:272   */\n      dup5\n        /* \"#utility.yul\":261:264   */\n      dup5\n        /* \"#utility.yul\":257:273   */\n      add\n        /* \"#utility.yul\":254:279   */\n      gt\n        /* \"#utility.yul\":251:363   */\n      iszero\n      tag_125\n      jumpi\n        /* \"#utility.yul\":282:361   */\n      tag_126\n      tag_127\n      jump\t// in\n    tag_126:\n        /* \"#utility.yul\":251:363   */\n    tag_125:\n        /* \"#utility.yul\":372:413   */\n      tag_128\n        /* \"#utility.yul\":406:412   */\n      dup5\n        /* \"#utility.yul\":401:404   */\n      dup3\n        /* \"#utility.yul\":396:399   */\n      dup6\n        /* \"#utility.yul\":372:413   */\n      tag_129\n      jump\t// in\n    tag_128:\n        /* \"#utility.yul\":91:419   */\n      pop\n        /* \"#utility.yul\":7:419   */\n      swap4\n      swap3\n      pop\n      pop\n      pop\n      jump\t// out\n        /* \"#utility.yul\":425:564   */\n    tag_130:\n        /* \"#utility.yul\":471:476   */\n      0x00\n        /* \"#utility.yul\":509:515   */\n      dup2\n        /* \"#utility.yul\":496:516   */\n      calldataload\n        /* \"#utility.yul\":487:516   */\n      swap1\n      pop\n        /* \"#utility.yul\":525:558   */\n      tag_132\n        /* \"#utility.yul\":552:557   */\n      dup2\n        /* \"#utility.yul\":525:558   */\n      tag_133\n      jump\t// in\n    tag_132:\n        /* \"#utility.yul\":425:564   */\n      swap3\n      swap2\n      pop\n      pop\n      jump\t// out\n        /* \"#utility.yul\":584:924   */\n    tag_134:\n        /* \"#utility.yul\":640:645   */\n      0x00\n        /* \"#utility.yul\":689:692   */\n      dup3\n        /* \"#utility.yul\":682:686   */\n      0x1f\n        /* \"#utility.yul\":674:680   */\n      dup4\n        /* \"#utility.yul\":670:687   */\n      add\n        /* \"#utility.yul\":666:693   */\n      slt\n        /* \"#utility.yul\":656:778   */\n      tag_136\n      jumpi\n        /* \"#utility.yul\":697:776   */\n      tag_137\n      tag_138\n      jump\t// in\n    tag_137:\n        /* \"#utility.yul\":656:778   */\n    tag_136:\n        /* \"#utility.yul\":814:820   */\n      dup2\n        /* \"#utility.yul\":801:821   */\n      calldataload\n        /* \"#utility.yul\":839:918   */\n      tag_139\n        /* \"#utility.yul\":914:917   */\n      dup5\n        /* \"#utility.yul\":906:912   */\n      dup3\n        /* \"#utility.yul\":899:903   */\n      0x20\n        /* \"#utility.yul\":891:897   */\n      dup7\n        /* \"#utility.yul\":887:904   */\n      add\n        /* \"#utility.yul\":839:918   */\n      tag_119\n      jump\t// in\n    tag_139:\n        /* \"#utility.yul\":830:918   */\n      swap2\n      pop\n        /* \"#utility.yul\":646:924   */\n      pop\n        /* \"#utility.yul\":584:924   */\n      swap3\n      swap2\n      pop\n      pop\n      jump\t// out\n        /* \"#utility.yul\":930:1259   */\n    tag_28:\n        /* \"#utility.yul\":989:995   */\n      0x00\n        /* \"#utility.yul\":1038:1040   */\n      0x20\n        /* \"#utility.yul\":1026:1035   */\n      dup3\n        /* \"#utility.yul\":1017:1024   */\n      dup5\n        /* \"#utility.yul\":1013:1036   */\n      sub\n        /* \"#utility.yul\":1009:1041   */\n      slt\n        /* \"#utility.yul\":1006:1125   */\n      iszero\n      tag_141\n      jumpi\n        /* \"#utility.yul\":1044:1123   */\n      tag_142\n      tag_143\n      jump\t// in\n    tag_142:\n        /* \"#utility.yul\":1006:1125   */\n    tag_141:\n        /* \"#utility.yul\":1164:1165   */\n      0x00\n        /* \"#utility.yul\":1189:1242   */\n      tag_144\n        /* \"#utility.yul\":1234:1241   */\n      dup5\n        /* \"#utility.yul\":1225:1231   */\n      dup3\n        /* \"#utility.yul\":1214:1223   */\n      dup6\n        /* \"#utility.yul\":1210:1232   */\n      add\n        /* \"#utility.yul\":1189:1242   */\n      tag_130\n      jump\t// in\n    tag_144:\n        /* \"#utility.yul\":1179:1242   */\n      swap2\n      pop\n        /* \"#utility.yul\":1135:1252   */\n      pop\n        /* \"#utility.yul\":930:1259   */\n      swap3\n      swap2\n      pop\n      pop\n      jump\t// out\n        /* \"#utility.yul\":1265:1739   */\n    tag_22:\n        /* \"#utility.yul\":1333:1339   */\n      0x00\n        /* \"#utility.yul\":1341:1347   */\n      dup1\n        /* \"#utility.yul\":1390:1392   */\n      0x40\n        /* \"#utility.yul\":1378:1387   */\n      dup4\n        /* \"#utility.yul\":1369:1376   */\n      dup6\n        /* \"#utility.yul\":1365:1388   */\n      sub\n        /* \"#utility.yul\":1361:1393   */\n      slt\n        /* \"#utility.yul\":1358:1477   */\n      iszero\n      tag_146\n      jumpi\n        /* \"#utility.yul\":1396:1475   */\n      tag_147\n      tag_143\n      jump\t// in\n    tag_147:\n        /* \"#utility.yul\":1358:1477   */\n    tag_146:\n        /* \"#utility.yul\":1516:1517   */\n      0x00\n        /* \"#utility.yul\":1541:1594   */\n      tag_148\n        /* \"#utility.yul\":1586:1593   */\n      dup6\n        /* \"#utility.yul\":1577:1583   */\n      dup3\n        /* \"#utility.yul\":1566:1575   */\n      dup7\n        /* \"#utility.yul\":1562:1584   */\n      add\n        /* \"#utility.yul\":1541:1594   */\n      tag_130\n      jump\t// in\n    tag_148:\n        /* \"#utility.yul\":1531:1594   */\n      swap3\n      pop\n        /* \"#utility.yul\":1487:1604   */\n      pop\n        /* \"#utility.yul\":1643:1645   */\n      0x20\n        /* \"#utility.yul\":1669:1722   */\n      tag_149\n        /* \"#utility.yul\":1714:1721   */\n      dup6\n        /* \"#utility.yul\":1705:1711   */\n      dup3\n        /* \"#utility.yul\":1694:1703   */\n      dup7\n        /* \"#utility.yul\":1690:1712   */\n      add\n        /* \"#utility.yul\":1669:1722   */\n      tag_130\n      jump\t// in\n    tag_149:\n        /* \"#utility.yul\":1659:1722   */\n      swap2\n      pop\n        /* \"#utility.yul\":1614:1732   */\n      pop\n        /* \"#utility.yul\":1265:1739   */\n      swap3\n      pop\n      swap3\n      swap1\n      pop\n      jump\t// out\n        /* \"#utility.yul\":1745:2399   */\n    tag_14:\n        /* \"#utility.yul\":1823:1829   */\n      0x00\n        /* \"#utility.yul\":1831:1837   */\n      dup1\n        /* \"#utility.yul\":1880:1882   */\n      0x40\n        /* \"#utility.yul\":1868:1877   */\n      dup4\n        /* \"#utility.yul\":1859:1866   */\n      dup6\n        /* \"#utility.yul\":1855:1878   */\n      sub\n        /* \"#utility.yul\":1851:1883   */\n      slt\n        /* \"#utility.yul\":1848:1967   */\n      iszero\n      tag_151\n      jumpi\n        /* \"#utility.yul\":1886:1965   */\n      tag_152\n      tag_143\n      jump\t// in\n    tag_152:\n        /* \"#utility.yul\":1848:1967   */\n    tag_151:\n        /* \"#utility.yul\":2006:2007   */\n      0x00\n        /* \"#utility.yul\":2031:2084   */\n      tag_153\n        /* \"#utility.yul\":2076:2083   */\n      dup6\n        /* \"#utility.yul\":2067:2073   */\n      dup3\n        /* \"#utility.yul\":2056:2065   */\n      dup7\n        /* \"#utility.yul\":2052:2074   */\n      add\n        /* \"#utility.yul\":2031:2084   */\n      tag_130\n      jump\t// in\n    tag_153:\n        /* \"#utility.yul\":2021:2084   */\n      swap3\n      pop\n        /* \"#utility.yul\":1977:2094   */\n      pop\n        /* \"#utility.yul\":2161:2163   */\n      0x20\n        /* \"#utility.yul\":2150:2159   */\n      dup4\n        /* \"#utility.yul\":2146:2164   */\n      add\n        /* \"#utility.yul\":2133:2165   */\n      calldataload\n        /* \"#utility.yul\":2192:2210   */\n      0xffffffffffffffff\n        /* \"#utility.yul\":2184:2190   */\n      dup2\n        /* \"#utility.yul\":2181:2211   */\n      gt\n        /* \"#utility.yul\":2178:2295   */\n      iszero\n      tag_154\n      jumpi\n        /* \"#utility.yul\":2214:2293   */\n      tag_155\n      tag_156\n      jump\t// in\n    tag_155:\n        /* \"#utility.yul\":2178:2295   */\n    tag_154:\n        /* \"#utility.yul\":2319:2382   */\n      tag_157\n        /* \"#utility.yul\":2374:2381   */\n      dup6\n        /* \"#utility.yul\":2365:2371   */\n      dup3\n        /* \"#utility.yul\":2354:2363   */\n      dup7\n        /* \"#utility.yul\":2350:2372   */\n      add\n        /* \"#utility.yul\":2319:2382   */\n      tag_134\n      jump\t// in\n    tag_157:\n        /* \"#utility.yul\":2309:2382   */\n      swap2\n      pop\n        /* \"#utility.yul\":2104:2392   */\n      pop\n        /* \"#utility.yul\":1745:2399   */\n      swap3\n      pop\n      swap3\n      swap1\n      pop\n      jump\t// out\n        /* \"#utility.yul\":2405:3710   */\n    tag_18:\n        /* \"#utility.yul\":2521:2527   */\n      0x00\n        /* \"#utility.yul\":2529:2535   */\n      dup1\n        /* \"#utility.yul\":2537:2543   */\n      0x00\n        /* \"#utility.yul\":2545:2551   */\n      dup1\n        /* \"#utility.yul\":2594:2597   */\n      0x80\n        /* \"#utility.yul\":2582:2591   */\n      dup6\n        /* \"#utility.yul\":2573:2580   */\n      dup8\n        /* \"#utility.yul\":2569:2592   */\n      sub\n        /* \"#utility.yul\":2565:2598   */\n      slt\n        /* \"#utility.yul\":2562:2682   */\n      iszero\n      tag_159\n      jumpi\n        /* \"#utility.yul\":2601:2680   */\n      tag_160\n      tag_143\n      jump\t// in\n    tag_160:\n        /* \"#utility.yul\":2562:2682   */\n    tag_159:\n        /* \"#utility.yul\":2721:2722   */\n      0x00\n        /* \"#utility.yul\":2746:2799   */\n      tag_161\n        /* \"#utility.yul\":2791:2798   */\n      dup8\n        /* \"#utility.yul\":2782:2788   */\n      dup3\n        /* \"#utility.yul\":2771:2780   */\n      dup9\n        /* \"#utility.yul\":2767:2789   */\n      add\n        /* \"#utility.yul\":2746:2799   */\n      tag_130\n      jump\t// in\n    tag_161:\n        /* \"#utility.yul\":2736:2799   */\n      swap5\n      pop\n        /* \"#utility.yul\":2692:2809   */\n      pop\n        /* \"#utility.yul\":2876:2878   */\n      0x20\n        /* \"#utility.yul\":2865:2874   */\n      dup6\n        /* \"#utility.yul\":2861:2879   */\n      add\n        /* \"#utility.yul\":2848:2880   */\n      calldataload\n        /* \"#utility.yul\":2907:2925   */\n      0xffffffffffffffff\n        /* \"#utility.yul\":2899:2905   */\n      dup2\n        /* \"#utility.yul\":2896:2926   */\n      gt\n        /* \"#utility.yul\":2893:3010   */\n      iszero\n      tag_162\n      jumpi\n        /* \"#utility.yul\":2929:3008   */\n      tag_163\n      tag_156\n      jump\t// in\n    tag_163:\n        /* \"#utility.yul\":2893:3010   */\n    tag_162:\n        /* \"#utility.yul\":3034:3097   */\n      tag_164\n        /* \"#utility.yul\":3089:3096   */\n      dup8\n        /* \"#utility.yul\":3080:3086   */\n      dup3\n        /* \"#utility.yul\":3069:3078   */\n      dup9\n        /* \"#utility.yul\":3065:3087   */\n      add\n        /* \"#utility.yul\":3034:3097   */\n      tag_134\n      jump\t// in\n    tag_164:\n        /* \"#utility.yul\":3024:3097   */\n      swap4\n      pop\n        /* \"#utility.yul\":2819:3107   */\n      pop\n        /* \"#utility.yul\":3174:3176   */\n      0x40\n        /* \"#utility.yul\":3163:3172   */\n      dup6\n        /* \"#utility.yul\":3159:3177   */\n      add\n        /* \"#utility.yul\":3146:3178   */\n      calldataload\n        /* \"#utility.yul\":3205:3223   */\n      0xffffffffffffffff\n        /* \"#utility.yul\":3197:3203   */\n      dup2\n        /* \"#utility.yul\":3194:3224   */\n      gt\n        /* \"#utility.yul\":3191:3308   */\n      iszero\n      tag_165\n      jumpi\n        /* \"#utility.yul\":3227:3306   */\n      tag_166\n      tag_156\n      jump\t// in\n    tag_166:\n        /* \"#utility.yul\":3191:3308   */\n    tag_165:\n        /* \"#utility.yul\":3332:3395   */\n      tag_167\n        /* \"#utility.yul\":3387:3394   */\n      dup8\n        /* \"#utility.yul\":3378:3384   */\n      dup3\n        /* \"#utility.yul\":3367:3376   */\n      dup9\n        /* \"#utility.yul\":3363:3385   */\n      add\n        /* \"#utility.yul\":3332:3395   */\n      tag_134\n      jump\t// in\n    tag_167:\n        /* \"#utility.yul\":3322:3395   */\n      swap3\n      pop\n        /* \"#utility.yul\":3117:3405   */\n      pop\n        /* \"#utility.yul\":3472:3474   */\n      0x60\n        /* \"#utility.yul\":3461:3470   */\n      dup6\n        /* \"#utility.yul\":3457:3475   */\n      add\n        /* \"#utility.yul\":3444:3476   */\n      calldataload\n        /* \"#utility.yul\":3503:3521   */\n      0xffffffffffffffff\n        /* \"#utility.yul\":3495:3501   */\n      dup2\n        /* \"#utility.yul\":3492:3522   */\n      gt\n        /* \"#utility.yul\":3489:3606   */\n      iszero\n      tag_168\n      jumpi\n        /* \"#utility.yul\":3525:3604   */\n      tag_169\n      tag_156\n      jump\t// in\n    tag_169:\n        /* \"#utility.yul\":3489:3606   */\n    tag_168:\n        /* \"#utility.yul\":3630:3693   */\n      tag_170\n        /* \"#utility.yul\":3685:3692   */\n      dup8\n        /* \"#utility.yul\":3676:3682   */\n      dup3\n        /* \"#utility.yul\":3665:3674   */\n      dup9\n        /* \"#utility.yul\":3661:3683   */\n      add\n        /* \"#utility.yul\":3630:3693   */\n      tag_134\n      jump\t// in\n    tag_170:\n        /* \"#utility.yul\":3620:3693   */\n      swap2\n      pop\n        /* \"#utility.yul\":3415:3703   */\n      pop\n        /* \"#utility.yul\":2405:3710   */\n      swap3\n      swap6\n      swap2\n      swap5\n      pop\n      swap3\n      pop\n      jump\t// out\n        /* \"#utility.yul\":3716:4550   */\n    tag_46:\n        /* \"#utility.yul\":3804:3810   */\n      0x00\n        /* \"#utility.yul\":3812:3818   */\n      dup1\n        /* \"#utility.yul\":3861:3863   */\n      0x40\n        /* \"#utility.yul\":3849:3858   */\n      dup4\n        /* \"#utility.yul\":3840:3847   */\n      dup6\n        /* \"#utility.yul\":3836:3859   */\n      sub\n        /* \"#utility.yul\":3832:3864   */\n      slt\n        /* \"#utility.yul\":3829:3948   */\n      iszero\n      tag_172\n      jumpi\n        /* \"#utility.yul\":3867:3946   */\n      tag_173\n      tag_143\n      jump\t// in\n    tag_173:\n        /* \"#utility.yul\":3829:3948   */\n    tag_172:\n        /* \"#utility.yul\":4015:4016   */\n      0x00\n        /* \"#utility.yul\":4004:4013   */\n      dup4\n        /* \"#utility.yul\":4000:4017   */\n      add\n        /* \"#utility.yul\":3987:4018   */\n      calldataload\n        /* \"#utility.yul\":4045:4063   */\n      0xffffffffffffffff\n        /* \"#utility.yul\":4037:4043   */\n      dup2\n        /* \"#utility.yul\":4034:4064   */\n      gt\n        /* \"#utility.yul\":4031:4148   */\n      iszero\n      tag_174\n      jumpi\n        /* \"#utility.yul\":4067:4146   */\n      tag_175\n      tag_156\n      jump\t// in\n    tag_175:\n        /* \"#utility.yul\":4031:4148   */\n    tag_174:\n        /* \"#utility.yul\":4172:4235   */\n      tag_176\n        /* \"#utility.yul\":4227:4234   */\n      dup6\n        /* \"#utility.yul\":4218:4224   */\n      dup3\n        /* \"#utility.yul\":4207:4216   */\n      dup7\n        /* \"#utility.yul\":4203:4225   */\n      add\n        /* \"#utility.yul\":4172:4235   */\n      tag_134\n      jump\t// in\n    tag_176:\n        /* \"#utility.yul\":4162:4235   */\n      swap3\n      pop\n        /* \"#utility.yul\":3958:4245   */\n      pop\n        /* \"#utility.yul\":4312:4314   */\n      0x20\n        /* \"#utility.yul\":4301:4310   */\n      dup4\n        /* \"#utility.yul\":4297:4315   */\n      add\n        /* \"#utility.yul\":4284:4316   */\n      calldataload\n        /* \"#utility.yul\":4343:4361   */\n      0xffffffffffffffff\n        /* \"#utility.yul\":4335:4341   */\n      dup2\n        /* \"#utility.yul\":4332:4362   */\n      gt\n        /* \"#utility.yul\":4329:4446   */\n      iszero\n      tag_177\n      jumpi\n        /* \"#utility.yul\":4365:4444   */\n      tag_178\n      tag_156\n      jump\t// in\n    tag_178:\n        /* \"#utility.yul\":4329:4446   */\n    tag_177:\n        /* \"#utility.yul\":4470:4533   */\n      tag_179\n        /* \"#utility.yul\":4525:4532   */\n      dup6\n        /* \"#utility.yul\":4516:4522   */\n      dup3\n        /* \"#utility.yul\":4505:4514   */\n      dup7\n        /* \"#utility.yul\":4501:4523   */\n      add\n        /* \"#utility.yul\":4470:4533   */\n      tag_134\n      jump\t// in\n    tag_179:\n        /* \"#utility.yul\":4460:4533   */\n      swap2\n      pop\n        /* \"#utility.yul\":4255:4543   */\n      pop\n        /* \"#utility.yul\":3716:4550   */\n      swap3\n      pop\n      swap3\n      swap1\n      pop\n      jump\t// out\n        /* \"#utility.yul\":4556:4664   */\n    tag_180:\n        /* \"#utility.yul\":4633:4657   */\n      tag_182\n        /* \"#utility.yul\":4651:4656   */\n      dup2\n        /* \"#utility.yul\":4633:4657   */\n      tag_183\n      jump\t// in\n    tag_182:\n        /* \"#utility.yul\":4628:4631   */\n      dup3\n        /* \"#utility.yul\":4621:4658   */\n      mstore\n        /* \"#utility.yul\":4556:4664   */\n      pop\n      pop\n      jump\t// out\n        /* \"#utility.yul\":4670:4788   */\n    tag_184:\n        /* \"#utility.yul\":4757:4781   */\n      tag_186\n        /* \"#utility.yul\":4775:4780   */\n      dup2\n        /* \"#utility.yul\":4757:4781   */\n      tag_183\n      jump\t// in\n    tag_186:\n        /* \"#utility.yul\":4752:4755   */\n      dup3\n        /* \"#utility.yul\":4745:4782   */\n      mstore\n        /* \"#utility.yul\":4670:4788   */\n      pop\n      pop\n      jump\t// out\n        /* \"#utility.yul\":4794:5138   */\n    tag_187:\n        /* \"#utility.yul\":4872:4875   */\n      0x00\n        /* \"#utility.yul\":4900:4939   */\n      tag_189\n        /* \"#utility.yul\":4933:4938   */\n      dup3\n        /* \"#utility.yul\":4900:4939   */\n      tag_190\n      jump\t// in\n    tag_189:\n        /* \"#utility.yul\":4955:5016   */\n      tag_191\n        /* \"#utility.yul\":5009:5015   */\n      dup2\n        /* \"#utility.yul\":5004:5007   */\n      dup6\n        /* \"#utility.yul\":4955:5016   */\n      tag_192\n      jump\t// in\n    tag_191:\n        /* \"#utility.yul\":4948:5016   */\n      swap4\n      pop\n        /* \"#utility.yul\":5025:5077   */\n      tag_193\n        /* \"#utility.yul\":5070:5076   */\n      dup2\n        /* \"#utility.yul\":5065:5068   */\n      dup6\n        /* \"#utility.yul\":5058:5062   */\n      0x20\n        /* \"#utility.yul\":5051:5056   */\n      dup7\n        /* \"#utility.yul\":5047:5063   */\n      add\n        /* \"#utility.yul\":5025:5077   */\n      tag_194\n      jump\t// in\n    tag_193:\n        /* \"#utility.yul\":5102:5131   */\n      tag_195\n        /* \"#utility.yul\":5124:5130   */\n      dup2\n        /* \"#utility.yul\":5102:5131   */\n      tag_196\n      jump\t// in\n    tag_195:\n        /* \"#utility.yul\":5097:5100   */\n      dup5\n        /* \"#utility.yul\":5093:5132   */\n      add\n        /* \"#utility.yul\":5086:5132   */\n      swap2\n      pop\n        /* \"#utility.yul\":4876:5138   */\n      pop\n        /* \"#utility.yul\":4794:5138   */\n      swap3\n      swap2\n      pop\n      pop\n      jump\t// out\n        /* \"#utility.yul\":5144:5508   */\n    tag_197:\n        /* \"#utility.yul\":5232:5235   */\n      0x00\n        /* \"#utility.yul\":5260:5299   */\n      tag_199\n        /* \"#utility.yul\":5293:5298   */\n      dup3\n        /* \"#utility.yul\":5260:5299   */\n      tag_190\n      jump\t// in\n    tag_199:\n        /* \"#utility.yul\":5315:5386   */\n      tag_200\n        /* \"#utility.yul\":5379:5385   */\n      dup2\n        /* \"#utility.yul\":5374:5377   */\n      dup6\n        /* \"#utility.yul\":5315:5386   */\n      tag_201\n      jump\t// in\n    tag_200:\n        /* \"#utility.yul\":5308:5386   */\n      swap4\n      pop\n        /* \"#utility.yul\":5395:5447   */\n      tag_202\n        /* \"#utility.yul\":5440:5446   */\n      dup2\n        /* \"#utility.yul\":5435:5438   */\n      dup6\n        /* \"#utility.yul\":5428:5432   */\n      0x20\n        /* \"#utility.yul\":5421:5426   */\n      dup7\n        /* \"#utility.yul\":5417:5433   */\n      add\n        /* \"#utility.yul\":5395:5447   */\n      tag_194\n      jump\t// in\n    tag_202:\n        /* \"#utility.yul\":5472:5501   */\n      tag_203\n        /* \"#utility.yul\":5494:5500   */\n      dup2\n        /* \"#utility.yul\":5472:5501   */\n      tag_196\n      jump\t// in\n    tag_203:\n        /* \"#utility.yul\":5467:5470   */\n      dup5\n        /* \"#utility.yul\":5463:5502   */\n      add\n        /* \"#utility.yul\":5456:5502   */\n      swap2\n      pop\n        /* \"#utility.yul\":5236:5508   */\n      pop\n        /* \"#utility.yul\":5144:5508   */\n      swap3\n      swap2\n      pop\n      pop\n      jump\t// out\n        /* \"#utility.yul\":5582:6702   */\n    tag_204:\n        /* \"#utility.yul\":5705:5708   */\n      0x00\n        /* \"#utility.yul\":5741:5745   */\n      0x80\n        /* \"#utility.yul\":5736:5739   */\n      dup4\n        /* \"#utility.yul\":5732:5746   */\n      add\n        /* \"#utility.yul\":5834:5838   */\n      0x00\n        /* \"#utility.yul\":5827:5832   */\n      dup4\n        /* \"#utility.yul\":5823:5839   */\n      add\n        /* \"#utility.yul\":5817:5840   */\n      mload\n        /* \"#utility.yul\":5853:5916   */\n      tag_206\n        /* \"#utility.yul\":5910:5914   */\n      0x00\n        /* \"#utility.yul\":5905:5908   */\n      dup7\n        /* \"#utility.yul\":5901:5915   */\n      add\n        /* \"#utility.yul\":5887:5899   */\n      dup3\n        /* \"#utility.yul\":5853:5916   */\n      tag_180\n      jump\t// in\n    tag_206:\n        /* \"#utility.yul\":5756:5926   */\n      pop\n        /* \"#utility.yul\":6014:6018   */\n      0x20\n        /* \"#utility.yul\":6007:6012   */\n      dup4\n        /* \"#utility.yul\":6003:6019   */\n      add\n        /* \"#utility.yul\":5997:6020   */\n      mload\n        /* \"#utility.yul\":6067:6070   */\n      dup5\n        /* \"#utility.yul\":6061:6065   */\n      dup3\n        /* \"#utility.yul\":6057:6071   */\n      sub\n        /* \"#utility.yul\":6050:6054   */\n      0x20\n        /* \"#utility.yul\":6045:6048   */\n      dup7\n        /* \"#utility.yul\":6041:6055   */\n      add\n        /* \"#utility.yul\":6034:6072   */\n      mstore\n        /* \"#utility.yul\":6093:6166   */\n      tag_207\n        /* \"#utility.yul\":6161:6165   */\n      dup3\n        /* \"#utility.yul\":6147:6159   */\n      dup3\n        /* \"#utility.yul\":6093:6166   */\n      tag_187\n      jump\t// in\n    tag_207:\n        /* \"#utility.yul\":6085:6166   */\n      swap2\n      pop\n        /* \"#utility.yul\":5936:6177   */\n      pop\n        /* \"#utility.yul\":6265:6269   */\n      0x40\n        /* \"#utility.yul\":6258:6263   */\n      dup4\n        /* \"#utility.yul\":6254:6270   */\n      add\n        /* \"#utility.yul\":6248:6271   */\n      mload\n        /* \"#utility.yul\":6318:6321   */\n      dup5\n        /* \"#utility.yul\":6312:6316   */\n      dup3\n        /* \"#utility.yul\":6308:6322   */\n      sub\n        /* \"#utility.yul\":6301:6305   */\n      0x40\n        /* \"#utility.yul\":6296:6299   */\n      dup7\n        /* \"#utility.yul\":6292:6306   */\n      add\n        /* \"#utility.yul\":6285:6323   */\n      mstore\n        /* \"#utility.yul\":6344:6417   */\n      tag_208\n        /* \"#utility.yul\":6412:6416   */\n      dup3\n        /* \"#utility.yul\":6398:6410   */\n      dup3\n        /* \"#utility.yul\":6344:6417   */\n      tag_187\n      jump\t// in\n    tag_208:\n        /* \"#utility.yul\":6336:6417   */\n      swap2\n      pop\n        /* \"#utility.yul\":6187:6428   */\n      pop\n        /* \"#utility.yul\":6512:6516   */\n      0x60\n        /* \"#utility.yul\":6505:6510   */\n      dup4\n        /* \"#utility.yul\":6501:6517   */\n      add\n        /* \"#utility.yul\":6495:6518   */\n      mload\n        /* \"#utility.yul\":6565:6568   */\n      dup5\n        /* \"#utility.yul\":6559:6563   */\n      dup3\n        /* \"#utility.yul\":6555:6569   */\n      sub\n        /* \"#utility.yul\":6548:6552   */\n      0x60\n        /* \"#utility.yul\":6543:6546   */\n      dup7\n        /* \"#utility.yul\":6539:6553   */\n      add\n        /* \"#utility.yul\":6532:6570   */\n      mstore\n        /* \"#utility.yul\":6591:6664   */\n      tag_209\n        /* \"#utility.yul\":6659:6663   */\n      dup3\n        /* \"#utility.yul\":6645:6657   */\n      dup3\n        /* \"#utility.yul\":6591:6664   */\n      tag_187\n      jump\t// in\n    tag_209:\n        /* \"#utility.yul\":6583:6664   */\n      swap2\n      pop\n        /* \"#utility.yul\":6438:6675   */\n      pop\n        /* \"#utility.yul\":6692:6696   */\n      dup1\n        /* \"#utility.yul\":6685:6696   */\n      swap2\n      pop\n        /* \"#utility.yul\":5710:6702   */\n      pop\n        /* \"#utility.yul\":5582:6702   */\n      swap3\n      swap2\n      pop\n      pop\n      jump\t// out\n        /* \"#utility.yul\":6708:7332   */\n    tag_36:\n        /* \"#utility.yul\":6897:6901   */\n      0x00\n        /* \"#utility.yul\":6935:6937   */\n      0x60\n        /* \"#utility.yul\":6924:6933   */\n      dup3\n        /* \"#utility.yul\":6920:6938   */\n      add\n        /* \"#utility.yul\":6912:6938   */\n      swap1\n      pop\n        /* \"#utility.yul\":6948:7019   */\n      tag_211\n        /* \"#utility.yul\":7016:7017   */\n      0x00\n        /* \"#utility.yul\":7005:7014   */\n      dup4\n        /* \"#utility.yul\":7001:7018   */\n      add\n        /* \"#utility.yul\":6992:6998   */\n      dup7\n        /* \"#utility.yul\":6948:7019   */\n      tag_184\n      jump\t// in\n    tag_211:\n        /* \"#utility.yul\":7066:7075   */\n      dup2\n        /* \"#utility.yul\":7060:7064   */\n      dup2\n        /* \"#utility.yul\":7056:7076   */\n      sub\n        /* \"#utility.yul\":7051:7053   */\n      0x20\n        /* \"#utility.yul\":7040:7049   */\n      dup4\n        /* \"#utility.yul\":7036:7054   */\n      add\n        /* \"#utility.yul\":7029:7077   */\n      mstore\n        /* \"#utility.yul\":7094:7172   */\n      tag_212\n        /* \"#utility.yul\":7167:7171   */\n      dup2\n        /* \"#utility.yul\":7158:7164   */\n      dup6\n        /* \"#utility.yul\":7094:7172   */\n      tag_197\n      jump\t// in\n    tag_212:\n        /* \"#utility.yul\":7086:7172   */\n      swap1\n      pop\n        /* \"#utility.yul\":7219:7228   */\n      dup2\n        /* \"#utility.yul\":7213:7217   */\n      dup2\n        /* \"#utility.yul\":7209:7229   */\n      sub\n        /* \"#utility.yul\":7204:7206   */\n      0x40\n        /* \"#utility.yul\":7193:7202   */\n      dup4\n        /* \"#utility.yul\":7189:7207   */\n      add\n        /* \"#utility.yul\":7182:7230   */\n      mstore\n        /* \"#utility.yul\":7247:7325   */\n      tag_213\n        /* \"#utility.yul\":7320:7324   */\n      dup2\n        /* \"#utility.yul\":7311:7317   */\n      dup5\n        /* \"#utility.yul\":7247:7325   */\n      tag_197\n      jump\t// in\n    tag_213:\n        /* \"#utility.yul\":7239:7325   */\n      swap1\n      pop\n        /* \"#utility.yul\":6708:7332   */\n      swap5\n      swap4\n      pop\n      pop\n      pop\n      pop\n      jump\t// out\n        /* \"#utility.yul\":7338:7651   */\n    tag_25:\n        /* \"#utility.yul\":7451:7455   */\n      0x00\n        /* \"#utility.yul\":7489:7491   */\n      0x20\n        /* \"#utility.yul\":7478:7487   */\n      dup3\n        /* \"#utility.yul\":7474:7492   */\n      add\n        /* \"#utility.yul\":7466:7492   */\n      swap1\n      pop\n        /* \"#utility.yul\":7538:7547   */\n      dup2\n        /* \"#utility.yul\":7532:7536   */\n      dup2\n        /* \"#utility.yul\":7528:7548   */\n      sub\n        /* \"#utility.yul\":7524:7525   */\n      0x00\n        /* \"#utility.yul\":7513:7522   */\n      dup4\n        /* \"#utility.yul\":7509:7526   */\n      add\n        /* \"#utility.yul\":7502:7549   */\n      mstore\n        /* \"#utility.yul\":7566:7644   */\n      tag_215\n        /* \"#utility.yul\":7639:7643   */\n      dup2\n        /* \"#utility.yul\":7630:7636   */\n      dup5\n        /* \"#utility.yul\":7566:7644   */\n      tag_197\n      jump\t// in\n    tag_215:\n        /* \"#utility.yul\":7558:7644   */\n      swap1\n      pop\n        /* \"#utility.yul\":7338:7651   */\n      swap3\n      swap2\n      pop\n      pop\n      jump\t// out\n        /* \"#utility.yul\":7657:8171   */\n    tag_31:\n        /* \"#utility.yul\":7818:7822   */\n      0x00\n        /* \"#utility.yul\":7856:7858   */\n      0x40\n        /* \"#utility.yul\":7845:7854   */\n      dup3\n        /* \"#utility.yul\":7841:7859   */\n      add\n        /* \"#utility.yul\":7833:7859   */\n      swap1\n      pop\n        /* \"#utility.yul\":7905:7914   */\n      dup2\n        /* \"#utility.yul\":7899:7903   */\n      dup2\n        /* \"#utility.yul\":7895:7915   */\n      sub\n        /* \"#utility.yul\":7891:7892   */\n      0x00\n        /* \"#utility.yul\":7880:7889   */\n      dup4\n        /* \"#utility.yul\":7876:7893   */\n      add\n        /* \"#utility.yul\":7869:7916   */\n      mstore\n        /* \"#utility.yul\":7933:8011   */\n      tag_217\n        /* \"#utility.yul\":8006:8010   */\n      dup2\n        /* \"#utility.yul\":7997:8003   */\n      dup6\n        /* \"#utility.yul\":7933:8011   */\n      tag_197\n      jump\t// in\n    tag_217:\n        /* \"#utility.yul\":7925:8011   */\n      swap1\n      pop\n        /* \"#utility.yul\":8058:8067   */\n      dup2\n        /* \"#utility.yul\":8052:8056   */\n      dup2\n        /* \"#utility.yul\":8048:8068   */\n      sub\n        /* \"#utility.yul\":8043:8045   */\n      0x20\n        /* \"#utility.yul\":8032:8041   */\n      dup4\n        /* \"#utility.yul\":8028:8046   */\n      add\n        /* \"#utility.yul\":8021:8069   */\n      mstore\n        /* \"#utility.yul\":8086:8164   */\n      tag_218\n        /* \"#utility.yul\":8159:8163   */\n      dup2\n        /* \"#utility.yul\":8150:8156   */\n      dup5\n        /* \"#utility.yul\":8086:8164   */\n      tag_197\n      jump\t// in\n    tag_218:\n        /* \"#utility.yul\":8078:8164   */\n      swap1\n      pop\n        /* \"#utility.yul\":7657:8171   */\n      swap4\n      swap3\n      pop\n      pop\n      pop\n      jump\t// out\n        /* \"#utility.yul\":8177:8558   */\n    tag_41:\n        /* \"#utility.yul\":8324:8328   */\n      0x00\n        /* \"#utility.yul\":8362:8364   */\n      0x20\n        /* \"#utility.yul\":8351:8360   */\n      dup3\n        /* \"#utility.yul\":8347:8365   */\n      add\n        /* \"#utility.yul\":8339:8365   */\n      swap1\n      pop\n        /* \"#utility.yul\":8411:8420   */\n      dup2\n        /* \"#utility.yul\":8405:8409   */\n      dup2\n        /* \"#utility.yul\":8401:8421   */\n      sub\n        /* \"#utility.yul\":8397:8398   */\n      0x00\n        /* \"#utility.yul\":8386:8395   */\n      dup4\n        /* \"#utility.yul\":8382:8399   */\n      add\n        /* \"#utility.yul\":8375:8422   */\n      mstore\n        /* \"#utility.yul\":8439:8551   */\n      tag_220\n        /* \"#utility.yul\":8546:8550   */\n      dup2\n        /* \"#utility.yul\":8537:8543   */\n      dup5\n        /* \"#utility.yul\":8439:8551   */\n      tag_204\n      jump\t// in\n    tag_220:\n        /* \"#utility.yul\":8431:8551   */\n      swap1\n      pop\n        /* \"#utility.yul\":8177:8558   */\n      swap3\n      swap2\n      pop\n      pop\n      jump\t// out\n        /* \"#utility.yul\":8564:8693   */\n    tag_124:\n        /* \"#utility.yul\":8598:8604   */\n      0x00\n        /* \"#utility.yul\":8625:8645   */\n      tag_222\n      tag_223\n      jump\t// in\n    tag_222:\n        /* \"#utility.yul\":8615:8645   */\n      swap1\n      pop\n        /* \"#utility.yul\":8654:8687   */\n      tag_224\n        /* \"#utility.yul\":8682:8686   */\n      dup3\n        /* \"#utility.yul\":8674:8680   */\n      dup3\n        /* \"#utility.yul\":8654:8687   */\n      tag_225\n      jump\t// in\n    tag_224:\n        /* \"#utility.yul\":8564:8693   */\n      swap2\n      swap1\n      pop\n      jump\t// out\n        /* \"#utility.yul\":8699:8774   */\n    tag_223:\n        /* \"#utility.yul\":8732:8738   */\n      0x00\n        /* \"#utility.yul\":8765:8767   */\n      0x40\n        /* \"#utility.yul\":8759:8768   */\n      mload\n        /* \"#utility.yul\":8749:8768   */\n      swap1\n      pop\n        /* \"#utility.yul\":8699:8774   */\n      swap1\n      jump\t// out\n        /* \"#utility.yul\":8780:9088   */\n    tag_123:\n        /* \"#utility.yul\":8842:8846   */\n      0x00\n        /* \"#utility.yul\":8932:8950   */\n      0xffffffffffffffff\n        /* \"#utility.yul\":8924:8930   */\n      dup3\n        /* \"#utility.yul\":8921:8951   */\n      gt\n        /* \"#utility.yul\":8918:8974   */\n      iszero\n      tag_228\n      jumpi\n        /* \"#utility.yul\":8954:8972   */\n      tag_229\n      tag_230\n      jump\t// in\n    tag_229:\n        /* \"#utility.yul\":8918:8974   */\n    tag_228:\n        /* \"#utility.yul\":8992:9021   */\n      tag_231\n        /* \"#utility.yul\":9014:9020   */\n      dup3\n        /* \"#utility.yul\":8992:9021   */\n      tag_196\n      jump\t// in\n    tag_231:\n        /* \"#utility.yul\":8984:9021   */\n      swap1\n      pop\n        /* \"#utility.yul\":9076:9080   */\n      0x20\n        /* \"#utility.yul\":9070:9074   */\n      dup2\n        /* \"#utility.yul\":9066:9081   */\n      add\n        /* \"#utility.yul\":9058:9081   */\n      swap1\n      pop\n        /* \"#utility.yul\":8780:9088   */\n      swap2\n      swap1\n      pop\n      jump\t// out\n        /* \"#utility.yul\":9094:9193   */\n    tag_190:\n        /* \"#utility.yul\":9146:9152   */\n      0x00\n        /* \"#utility.yul\":9180:9185   */\n      dup2\n        /* \"#utility.yul\":9174:9186   */\n      mload\n        /* \"#utility.yul\":9164:9186   */\n      swap1\n      pop\n        /* \"#utility.yul\":9094:9193   */\n      swap2\n      swap1\n      pop\n      jump\t// out\n        /* \"#utility.yul\":9199:9358   */\n    tag_192:\n        /* \"#utility.yul\":9273:9284   */\n      0x00\n        /* \"#utility.yul\":9307:9313   */\n      dup3\n        /* \"#utility.yul\":9302:9305   */\n      dup3\n        /* \"#utility.yul\":9295:9314   */\n      mstore\n        /* \"#utility.yul\":9347:9351   */\n      0x20\n        /* \"#utility.yul\":9342:9345   */\n      dup3\n        /* \"#utility.yul\":9338:9352   */\n      add\n        /* \"#utility.yul\":9323:9352   */\n      swap1\n      pop\n        /* \"#utility.yul\":9199:9358   */\n      swap3\n      swap2\n      pop\n      pop\n      jump\t// out\n        /* \"#utility.yul\":9364:9533   */\n    tag_201:\n        /* \"#utility.yul\":9448:9459   */\n      0x00\n        /* \"#utility.yul\":9482:9488   */\n      dup3\n        /* \"#utility.yul\":9477:9480   */\n      dup3\n        /* \"#utility.yul\":9470:9489   */\n      mstore\n        /* \"#utility.yul\":9522:9526   */\n      0x20\n        /* \"#utility.yul\":9517:9520   */\n      dup3\n        /* \"#utility.yul\":9513:9527   */\n      add\n        /* \"#utility.yul\":9498:9527   */\n      swap1\n      pop\n        /* \"#utility.yul\":9364:9533   */\n      swap3\n      swap2\n      pop\n      pop\n      jump\t// out\n        /* \"#utility.yul\":9539:9635   */\n    tag_183:\n        /* \"#utility.yul\":9576:9583   */\n      0x00\n        /* \"#utility.yul\":9605:9629   */\n      tag_236\n        /* \"#utility.yul\":9623:9628   */\n      dup3\n        /* \"#utility.yul\":9605:9629   */\n      tag_237\n      jump\t// in\n    tag_236:\n        /* \"#utility.yul\":9594:9629   */\n      swap1\n      pop\n        /* \"#utility.yul\":9539:9635   */\n      swap2\n      swap1\n      pop\n      jump\t// out\n        /* \"#utility.yul\":9641:9767   */\n    tag_237:\n        /* \"#utility.yul\":9678:9685   */\n      0x00\n        /* \"#utility.yul\":9718:9760   */\n      0xffffffffffffffffffffffffffffffffffffffff\n        /* \"#utility.yul\":9711:9716   */\n      dup3\n        /* \"#utility.yul\":9707:9761   */\n      and\n        /* \"#utility.yul\":9696:9761   */\n      swap1\n      pop\n        /* \"#utility.yul\":9641:9767   */\n      swap2\n      swap1\n      pop\n      jump\t// out\n        /* \"#utility.yul\":9773:9927   */\n    tag_129:\n        /* \"#utility.yul\":9857:9863   */\n      dup3\n        /* \"#utility.yul\":9852:9855   */\n      dup2\n        /* \"#utility.yul\":9847:9850   */\n      dup4\n        /* \"#utility.yul\":9834:9864   */\n      calldatacopy\n        /* \"#utility.yul\":9919:9920   */\n      0x00\n        /* \"#utility.yul\":9910:9916   */\n      dup4\n        /* \"#utility.yul\":9905:9908   */\n      dup4\n        /* \"#utility.yul\":9901:9917   */\n      add\n        /* \"#utility.yul\":9894:9921   */\n      mstore\n        /* \"#utility.yul\":9773:9927   */\n      pop\n      pop\n      pop\n      jump\t// out\n        /* \"#utility.yul\":9933:10240   */\n    tag_194:\n        /* \"#utility.yul\":10001:10002   */\n      0x00\n        /* \"#utility.yul\":10011:10124   */\n    tag_241:\n        /* \"#utility.yul\":10025:10031   */\n      dup4\n        /* \"#utility.yul\":10022:10023   */\n      dup2\n        /* \"#utility.yul\":10019:10032   */\n      lt\n        /* \"#utility.yul\":10011:10124   */\n      iszero\n      tag_243\n      jumpi\n        /* \"#utility.yul\":10110:10111   */\n      dup1\n        /* \"#utility.yul\":10105:10108   */\n      dup3\n        /* \"#utility.yul\":10101:10112   */\n      add\n        /* \"#utility.yul\":10095:10113   */\n      mload\n        /* \"#utility.yul\":10091:10092   */\n      dup2\n        /* \"#utility.yul\":10086:10089   */\n      dup5\n        /* \"#utility.yul\":10082:10093   */\n      add\n        /* \"#utility.yul\":10075:10114   */\n      mstore\n        /* \"#utility.yul\":10047:10049   */\n      0x20\n        /* \"#utility.yul\":10044:10045   */\n      dup2\n        /* \"#utility.yul\":10040:10050   */\n      add\n        /* \"#utility.yul\":10035:10050   */\n      swap1\n      pop\n        /* \"#utility.yul\":10011:10124   */\n      jump(tag_241)\n    tag_243:\n        /* \"#utility.yul\":10142:10148   */\n      dup4\n        /* \"#utility.yul\":10139:10140   */\n      dup2\n        /* \"#utility.yul\":10136:10149   */\n      gt\n        /* \"#utility.yul\":10133:10234   */\n      iszero\n      tag_244\n      jumpi\n        /* \"#utility.yul\":10222:10223   */\n      0x00\n        /* \"#utility.yul\":10213:10219   */\n      dup5\n        /* \"#utility.yul\":10208:10211   */\n      dup5\n        /* \"#utility.yul\":10204:10220   */\n      add\n        /* \"#utility.yul\":10197:10224   */\n      mstore\n        /* \"#utility.yul\":10133:10234   */\n    tag_244:\n        /* \"#utility.yul\":9982:10240   */\n      pop\n        /* \"#utility.yul\":9933:10240   */\n      pop\n      pop\n      pop\n      jump\t// out\n        /* \"#utility.yul\":10246:10566   */\n    tag_57:\n        /* \"#utility.yul\":10290:10296   */\n      0x00\n        /* \"#utility.yul\":10327:10328   */\n      0x02\n        /* \"#utility.yul\":10321:10325   */\n      dup3\n        /* \"#utility.yul\":10317:10329   */\n      div\n        /* \"#utility.yul\":10307:10329   */\n      swap1\n      pop\n        /* \"#utility.yul\":10374:10375   */\n      0x01\n        /* \"#utility.yul\":10368:10372   */\n      dup3\n        /* \"#utility.yul\":10364:10376   */\n      and\n        /* \"#utility.yul\":10395:10413   */\n      dup1\n        /* \"#utility.yul\":10385:10466   */\n      tag_246\n      jumpi\n        /* \"#utility.yul\":10451:10455   */\n      0x7f\n        /* \"#utility.yul\":10443:10449   */\n      dup3\n        /* \"#utility.yul\":10439:10456   */\n      and\n        /* \"#utility.yul\":10429:10456   */\n      swap2\n      pop\n        /* \"#utility.yul\":10385:10466   */\n    tag_246:\n        /* \"#utility.yul\":10513:10515   */\n      0x20\n        /* \"#utility.yul\":10505:10511   */\n      dup3\n        /* \"#utility.yul\":10502:10516   */\n      lt\n        /* \"#utility.yul\":10482:10500   */\n      dup2\n        /* \"#utility.yul\":10479:10517   */\n      eq\n        /* \"#utility.yul\":10476:10560   */\n      iszero\n      tag_247\n      jumpi\n        /* \"#utility.yul\":10532:10550   */\n      tag_248\n      tag_249\n      jump\t// in\n    tag_248:\n        /* \"#utility.yul\":10476:10560   */\n    tag_247:\n        /* \"#utility.yul\":10297:10566   */\n      pop\n        /* \"#utility.yul\":10246:10566   */\n      swap2\n      swap1\n      pop\n      jump\t// out\n        /* \"#utility.yul\":10572:10853   */\n    tag_225:\n        /* \"#utility.yul\":10655:10682   */\n      tag_251\n        /* \"#utility.yul\":10677:10681   */\n      dup3\n        /* \"#utility.yul\":10655:10682   */\n      tag_196\n      jump\t// in\n    tag_251:\n        /* \"#utility.yul\":10647:10653   */\n      dup2\n        /* \"#utility.yul\":10643:10683   */\n      add\n        /* \"#utility.yul\":10785:10791   */\n      dup2\n        /* \"#utility.yul\":10773:10783   */\n      dup2\n        /* \"#utility.yul\":10770:10792   */\n      lt\n        /* \"#utility.yul\":10749:10767   */\n      0xffffffffffffffff\n        /* \"#utility.yul\":10737:10747   */\n      dup3\n        /* \"#utility.yul\":10734:10768   */\n      gt\n        /* \"#utility.yul\":10731:10793   */\n      or\n        /* \"#utility.yul\":10728:10816   */\n      iszero\n      tag_252\n      jumpi\n        /* \"#utility.yul\":10796:10814   */\n      tag_253\n      tag_230\n      jump\t// in\n    tag_253:\n        /* \"#utility.yul\":10728:10816   */\n    tag_252:\n        /* \"#utility.yul\":10836:10846   */\n      dup1\n        /* \"#utility.yul\":10832:10834   */\n      0x40\n        /* \"#utility.yul\":10825:10847   */\n      mstore\n        /* \"#utility.yul\":10615:10853   */\n      pop\n        /* \"#utility.yul\":10572:10853   */\n      pop\n      pop\n      jump\t// out\n        /* \"#utility.yul\":10859:11039   */\n    tag_249:\n        /* \"#utility.yul\":10907:10984   */\n      0x4e487b7100000000000000000000000000000000000000000000000000000000\n        /* \"#utility.yul\":10904:10905   */\n      0x00\n        /* \"#utility.yul\":10897:10985   */\n      mstore\n        /* \"#utility.yul\":11004:11008   */\n      0x22\n        /* \"#utility.yul\":11001:11002   */\n      0x04\n        /* \"#utility.yul\":10994:11009   */\n      mstore\n        /* \"#utility.yul\":11028:11032   */\n      0x24\n        /* \"#utility.yul\":11025:11026   */\n      0x00\n        /* \"#utility.yul\":11018:11033   */\n      revert\n        /* \"#utility.yul\":11045:11225   */\n    tag_230:\n        /* \"#utility.yul\":11093:11170   */\n      0x4e487b7100000000000000000000000000000000000000000000000000000000\n        /* \"#utility.yul\":11090:11091   */\n      0x00\n        /* \"#utility.yul\":11083:11171   */\n      mstore\n        /* \"#utility.yul\":11190:11194   */\n      0x41\n        /* \"#utility.yul\":11187:11188   */\n      0x04\n        /* \"#utility.yul\":11180:11195   */\n      mstore\n        /* \"#utility.yul\":11214:11218   */\n      0x24\n        /* \"#utility.yul\":11211:11212   */\n      0x00\n        /* \"#utility.yul\":11204:11219   */\n      revert\n        /* \"#utility.yul\":11231:11348   */\n    tag_138:\n        /* \"#utility.yul\":11340:11341   */\n      0x00\n        /* \"#utility.yul\":11337:11338   */\n      dup1\n        /* \"#utility.yul\":11330:11342   */\n      revert\n        /* \"#utility.yul\":11354:11471   */\n    tag_127:\n        /* \"#utility.yul\":11463:11464   */\n      0x00\n        /* \"#utility.yul\":11460:11461   */\n      dup1\n        /* \"#utility.yul\":11453:11465   */\n      revert\n        /* \"#utility.yul\":11477:11594   */\n    tag_156:\n        /* \"#utility.yul\":11586:11587   */\n      0x00\n        /* \"#utility.yul\":11583:11584   */\n      dup1\n        /* \"#utility.yul\":11576:11588   */\n      revert\n        /* \"#utility.yul\":11600:11717   */\n    tag_143:\n        /* \"#utility.yul\":11709:11710   */\n      0x00\n        /* \"#utility.yul\":11706:11707   */\n      dup1\n        /* \"#utility.yul\":11699:11711   */\n      revert\n        /* \"#utility.yul\":11723:11825   */\n    tag_196:\n        /* \"#utility.yul\":11764:11770   */\n      0x00\n        /* \"#utility.yul\":11815:11817   */\n      0x1f\n        /* \"#utility.yul\":11811:11818   */\n      not\n        /* \"#utility.yul\":11806:11808   */\n      0x1f\n        /* \"#utility.yul\":11799:11804   */\n      dup4\n        /* \"#utility.yul\":11795:11809   */\n      add\n        /* \"#utility.yul\":11791:11819   */\n      and\n        /* \"#utility.yul\":11781:11819   */\n      swap1\n      pop\n        /* \"#utility.yul\":11723:11825   */\n      swap2\n      swap1\n      pop\n      jump\t// out\n        /* \"#utility.yul\":11831:11953   */\n    tag_133:\n        /* \"#utility.yul\":11904:11928   */\n      tag_262\n        /* \"#utility.yul\":11922:11927   */\n      dup2\n        /* \"#utility.yul\":11904:11928   */\n      tag_183\n      jump\t// in\n    tag_262:\n        /* \"#utility.yul\":11897:11902   */\n      dup2\n        /* \"#utility.yul\":11894:11929   */\n      eq\n        /* \"#utility.yul\":11884:11947   */\n      tag_263\n      jumpi\n        /* \"#utility.yul\":11943:11944   */\n      0x00\n        /* \"#utility.yul\":11940:11941   */\n      dup1\n        /* \"#utility.yul\":11933:11945   */\n      revert\n        /* \"#utility.yul\":11884:11947   */\n    tag_263:\n        /* \"#utility.yul\":11831:11953   */\n      pop\n      jump\t// out\n\n    auxdata: 0xa2646970667358221220b76c4fd3b571afadd03213852057c4e804b25c7551b7a9280a4dc5f296ae4f4b64736f6c63430008070033\n}\n",
				"bytecode": {
					"linkReferences": {},
					"object": "608060405234801561001057600080fd5b5061151c806100206000396000f3fe608060405234801561001057600080fd5b50600436106100885760003560e01c8063b9e0ad101161005b578063b9e0ad1014610126578063de1e23b714610158578063e1c7392a14610188578063f2c3c7451461019257610088565b806311ef41711461008d5780634d2d701a146100a95780638749774f146100c55780639f764d16146100f5575b600080fd5b6100a760048036038101906100a29190610fa2565b6101ae565b005b6100c360048036038101906100be9190610ffe565b610246565b005b6100df60048036038101906100da9190610f62565b6103ce565b6040516100ec9190611277565b60405180910390f35b61010f600480360381019061010a9190610f35565b6104e0565b60405161011d929190611299565b60405180910390f35b610140600480360381019061013b9190610f35565b610682565b60405161014f93929190611232565b60405180910390f35b610172600480360381019061016d9190610f35565b6107dc565b60405161017f91906112d0565b60405180910390f35b610190610a40565b005b6101ac60048036038101906101a791906110b9565b610c96565b005b80600160003373ffffffffffffffffffffffffffffffffffffffff1673ffffffffffffffffffffffffffffffffffffffff16815260200190815260200160002060020160008473ffffffffffffffffffffffffffffffffffffffff1673ffffffffffffffffffffffffffffffffffffffff1681526020019081526020016000209080519060200190610241929190610dcf565b505050565b836000808673ffffffffffffffffffffffffffffffffffffffff1673ffffffffffffffffffffffffffffffffffffffff16815260200190815260200160002060000160006101000a81548173ffffffffffffffffffffffffffffffffffffffff021916908373ffffffffffffffffffffffffffffffffffffffff160217905550826000808673ffffffffffffffffffffffffffffffffffffffff1673ffffffffffffffffffffffffffffffffffffffff168152602001908152602001600020600101908051906020019061031b929190610dcf565b50816000808673ffffffffffffffffffffffffffffffffffffffff1673ffffffffffffffffffffffffffffffffffffffff1681526020019081526020016000206002019080519060200190610371929190610dcf565b50806000808673ffffffffffffffffffffffffffffffffffffffff1673ffffffffffffffffffffffffffffffffffffffff16815260200190815260200160002060030190805190602001906103c7929190610dcf565b5050505050565b6060600160008473ffffffffffffffffffffffffffffffffffffffff1673ffffffffffffffffffffffffffffffffffffffff16815260200190815260200160002060020160008373ffffffffffffffffffffffffffffffffffffffff1673ffffffffffffffffffffffffffffffffffffffff168152602001908152602001600020805461045a906113e9565b80601f0160208091040260200160405190810160405280929190818152602001828054610486906113e9565b80156104d35780601f106104a8576101008083540402835291602001916104d3565b820191906000526020600020905b8154815290600101906020018083116104b657829003601f168201915b5050505050905092915050565b606080600160008473ffffffffffffffffffffffffffffffffffffffff1673ffffffffffffffffffffffffffffffffffffffff1681526020019081526020016000206001018054610530906113e9565b80601f016020809104026020016040519081016040528092919081815260200182805461055c906113e9565b80156105a95780601f1061057e576101008083540402835291602001916105a9565b820191906000526020600020905b81548152906001019060200180831161058c57829003601f168201915b50505050509150600160008473ffffffffffffffffffffffffffffffffffffffff1673ffffffffffffffffffffffffffffffffffffffff16815260200190815260200160002060030180546105fd906113e9565b80601f0160208091040260200160405190810160405280929190818152602001828054610629906113e9565b80156106765780601f1061064b57610100808354040283529160200191610676565b820191906000526020600020905b81548152906001019060200180831161065957829003601f168201915b50505050509050915091565b60016020528060005260406000206000915090508060000160009054906101000a900473ffffffffffffffffffffffffffffffffffffffff16908060010180546106cb906113e9565b80601f01602080910402602001604051908101604052809291908181526020018280546106f7906113e9565b80156107445780601f1061071957610100808354040283529160200191610744565b820191906000526020600020905b81548152906001019060200180831161072757829003601f168201915b505050505090806003018054610759906113e9565b80601f0160208091040260200160405190810160405280929190818152602001828054610785906113e9565b80156107d25780601f106107a7576101008083540402835291602001916107d2565b820191906000526020600020905b8154815290600101906020018083116107b557829003601f168201915b5050505050905083565b6107e4610e55565b6000808373ffffffffffffffffffffffffffffffffffffffff1673ffffffffffffffffffffffffffffffffffffffff1681526020019081526020016000206040518060800160405290816000820160009054906101000a900473ffffffffffffffffffffffffffffffffffffffff1673ffffffffffffffffffffffffffffffffffffffff1673ffffffffffffffffffffffffffffffffffffffff168152602001600182018054610893906113e9565b80601f01602080910402602001604051908101604052809291908181526020018280546108bf906113e9565b801561090c5780601f106108e15761010080835404028352916020019161090c565b820191906000526020600020905b8154815290600101906020018083116108ef57829003601f168201915b50505050508152602001600282018054610925906113e9565b80601f0160208091040260200160405190810160405280929190818152602001828054610951906113e9565b801561099e5780601f106109735761010080835404028352916020019161099e565b820191906000526020600020905b81548152906001019060200180831161098157829003601f168201915b505050505081526020016003820180546109b7906113e9565b80601f01602080910402602001604051908101604052809291908181526020018280546109e3906113e9565b8015610a305780601f10610a0557610100808354040283529160200191610a30565b820191906000526020600020905b815481529060010190602001808311610a1357829003601f168201915b5050505050815250509050919050565b600080600073b4d18d483b641200aa096558c9ba63aeb243002b73ff5d2fe96548e05e49c67fcc36c7dbeca2f501f273be7186f383961cc24ad8012a2f2942667a72788f809350819450829550505050610b3b836040518060400160405280600281526020017f64310000000000000000000000000000000000000000000000000000000000008152506040518060400160405280600481526020017f42756c62000000000000000000000000000000000000000000000000000000008152506040518060400160405280600281526020017f6f6e000000000000000000000000000000000000000000000000000000000000815250610246565b610be6826040518060400160405280600281526020017f64320000000000000000000000000000000000000000000000000000000000008152506040518060400160405280600b81526020017f5472616e73666f726d65720000000000000000000000000000000000000000008152506040518060400160405280600381526020017f6f66660000000000000000000000000000000000000000000000000000000000815250610246565b610c91816040518060400160405280600281526020017f64330000000000000000000000000000000000000000000000000000000000008152506040518060400160405280600681526020017f53656e736f7200000000000000000000000000000000000000000000000000008152506040518060400160405280600281526020017f6f6e000000000000000000000000000000000000000000000000000000000000815250610246565b505050565b600033905080600160008373ffffffffffffffffffffffffffffffffffffffff1673ffffffffffffffffffffffffffffffffffffffff16815260200190815260200160002060000160006101000a81548173ffffffffffffffffffffffffffffffffffffffff021916908373ffffffffffffffffffffffffffffffffffffffff16021790555082600160008373ffffffffffffffffffffffffffffffffffffffff1673ffffffffffffffffffffffffffffffffffffffff1681526020019081526020016000206001019080519060200190610d72929190610dcf565b5081600160008373ffffffffffffffffffffffffffffffffffffffff1673ffffffffffffffffffffffffffffffffffffffff1681526020019081526020016000206003019080519060200190610dc9929190610dcf565b50505050565b828054610ddb906113e9565b90600052602060002090601f016020900481019282610dfd5760008555610e44565b82601f10610e1657805160ff1916838001178555610e44565b82800160010185558215610e44579182015b82811115610e43578251825591602001919060010190610e28565b5b509050610e519190610e93565b5090565b6040518060800160405280600073ffffffffffffffffffffffffffffffffffffffff1681526020016060815260200160608152602001606081525090565b5b80821115610eac576000816000905550600101610e94565b5090565b6000610ec3610ebe84611317565b6112f2565b905082815260208101848484011115610edf57610ede6114af565b5b610eea8482856113a7565b509392505050565b600081359050610f01816114cf565b92915050565b600082601f830112610f1c57610f1b6114aa565b5b8135610f2c848260208601610eb0565b91505092915050565b600060208284031215610f4b57610f4a6114b9565b5b6000610f5984828501610ef2565b91505092915050565b60008060408385031215610f7957610f786114b9565b5b6000610f8785828601610ef2565b9250506020610f9885828601610ef2565b9150509250929050565b60008060408385031215610fb957610fb86114b9565b5b6000610fc785828601610ef2565b925050602083013567ffffffffffffffff811115610fe857610fe76114b4565b5b610ff485828601610f07565b9150509250929050565b60008060008060808587031215611018576110176114b9565b5b600061102687828801610ef2565b945050602085013567ffffffffffffffff811115611047576110466114b4565b5b61105387828801610f07565b935050604085013567ffffffffffffffff811115611074576110736114b4565b5b61108087828801610f07565b925050606085013567ffffffffffffffff8111156110a1576110a06114b4565b5b6110ad87828801610f07565b91505092959194509250565b600080604083850312156110d0576110cf6114b9565b5b600083013567ffffffffffffffff8111156110ee576110ed6114b4565b5b6110fa85828601610f07565b925050602083013567ffffffffffffffff81111561111b5761111a6114b4565b5b61112785828601610f07565b9150509250929050565b61113a81611375565b82525050565b61114981611375565b82525050565b600061115a82611348565b6111648185611353565b93506111748185602086016113b6565b61117d816114be565b840191505092915050565b600061119382611348565b61119d8185611364565b93506111ad8185602086016113b6565b6111b6816114be565b840191505092915050565b60006080830160008301516111d96000860182611131565b50602083015184820360208601526111f1828261114f565b9150506040830151848203604086015261120b828261114f565b91505060608301518482036060860152611225828261114f565b9150508091505092915050565b60006060820190506112476000830186611140565b81810360208301526112598185611188565b9050818103604083015261126d8184611188565b9050949350505050565b600060208201905081810360008301526112918184611188565b905092915050565b600060408201905081810360008301526112b38185611188565b905081810360208301526112c78184611188565b90509392505050565b600060208201905081810360008301526112ea81846111c1565b905092915050565b60006112fc61130d565b9050611308828261141b565b919050565b6000604051905090565b600067ffffffffffffffff8211156113325761133161147b565b5b61133b826114be565b9050602081019050919050565b600081519050919050565b600082825260208201905092915050565b600082825260208201905092915050565b600061138082611387565b9050919050565b600073ffffffffffffffffffffffffffffffffffffffff82169050919050565b82818337600083830152505050565b60005b838110156113d45780820151818401526020810190506113b9565b838111156113e3576000848401525b50505050565b6000600282049050600182168061140157607f821691505b602082108114156114155761141461144c565b5b50919050565b611424826114be565b810181811067ffffffffffffffff821117156114435761144261147b565b5b80604052505050565b7f4e487b7100000000000000000000000000000000000000000000000000000000600052602260045260246000fd5b7f4e487b7100000000000000000000000000000000000000000000000000000000600052604160045260246000fd5b600080fd5b600080fd5b600080fd5b600080fd5b6000601f19601f8301169050919050565b6114d881611375565b81146114e357600080fd5b5056fea2646970667358221220b76c4fd3b571afadd03213852057c4e804b25c7551b7a9280a4dc5f296ae4f4b64736f6c63430008070033",
					"opcodes": "PUSH1 0x80 PUSH1 0x40 MSTORE CALLVALUE DUP1 ISZERO PUSH2 0x10 JUMPI PUSH1 0x0 DUP1 REVERT JUMPDEST POP PUSH2 0x151C DUP1 PUSH2 0x20 PUSH1 0x0 CODECOPY PUSH1 0x0 RETURN INVALID PUSH1 0x80 PUSH1 0x40 MSTORE CALLVALUE DUP1 ISZERO PUSH2 0x10 JUMPI PUSH1 0x0 DUP1 REVERT JUMPDEST POP PUSH1 0x4 CALLDATASIZE LT PUSH2 0x88 JUMPI PUSH1 0x0 CALLDATALOAD PUSH1 0xE0 SHR DUP1 PUSH4 0xB9E0AD10 GT PUSH2 0x5B JUMPI DUP1 PUSH4 0xB9E0AD10 EQ PUSH2 0x126 JUMPI DUP1 PUSH4 0xDE1E23B7 EQ PUSH2 0x158 JUMPI DUP1 PUSH4 0xE1C7392A EQ PUSH2 0x188 JUMPI DUP1 PUSH4 0xF2C3C745 EQ PUSH2 0x192 JUMPI PUSH2 0x88 JUMP JUMPDEST DUP1 PUSH4 0x11EF4171 EQ PUSH2 0x8D JUMPI DUP1 PUSH4 0x4D2D701A EQ PUSH2 0xA9 JUMPI DUP1 PUSH4 0x8749774F EQ PUSH2 0xC5 JUMPI DUP1 PUSH4 0x9F764D16 EQ PUSH2 0xF5 JUMPI JUMPDEST PUSH1 0x0 DUP1 REVERT JUMPDEST PUSH2 0xA7 PUSH1 0x4 DUP1 CALLDATASIZE SUB DUP2 ADD SWAP1 PUSH2 0xA2 SWAP2 SWAP1 PUSH2 0xFA2 JUMP JUMPDEST PUSH2 0x1AE JUMP JUMPDEST STOP JUMPDEST PUSH2 0xC3 PUSH1 0x4 DUP1 CALLDATASIZE SUB DUP2 ADD SWAP1 PUSH2 0xBE SWAP2 SWAP1 PUSH2 0xFFE JUMP JUMPDEST PUSH2 0x246 JUMP JUMPDEST STOP JUMPDEST PUSH2 0xDF PUSH1 0x4 DUP1 CALLDATASIZE SUB DUP2 ADD SWAP1 PUSH2 0xDA SWAP2 SWAP1 PUSH2 0xF62 JUMP JUMPDEST PUSH2 0x3CE JUMP JUMPDEST PUSH1 0x40 MLOAD PUSH2 0xEC SWAP2 SWAP1 PUSH2 0x1277 JUMP JUMPDEST PUSH1 0x40 MLOAD DUP1 SWAP2 SUB SWAP1 RETURN JUMPDEST PUSH2 0x10F PUSH1 0x4 DUP1 CALLDATASIZE SUB DUP2 ADD SWAP1 PUSH2 0x10A SWAP2 SWAP1 PUSH2 0xF35 JUMP JUMPDEST PUSH2 0x4E0 JUMP JUMPDEST PUSH1 0x40 MLOAD PUSH2 0x11D SWAP3 SWAP2 SWAP1 PUSH2 0x1299 JUMP JUMPDEST PUSH1 0x40 MLOAD DUP1 SWAP2 SUB SWAP1 RETURN JUMPDEST PUSH2 0x140 PUSH1 0x4 DUP1 CALLDATASIZE SUB DUP2 ADD SWAP1 PUSH2 0x13B SWAP2 SWAP1 PUSH2 0xF35 JUMP JUMPDEST PUSH2 0x682 JUMP JUMPDEST PUSH1 0x40 MLOAD PUSH2 0x14F SWAP4 SWAP3 SWAP2 SWAP1 PUSH2 0x1232 JUMP JUMPDEST PUSH1 0x40 MLOAD DUP1 SWAP2 SUB SWAP1 RETURN JUMPDEST PUSH2 0x172 PUSH1 0x4 DUP1 CALLDATASIZE SUB DUP2 ADD SWAP1 PUSH2 0x16D SWAP2 SWAP1 PUSH2 0xF35 JUMP JUMPDEST PUSH2 0x7DC JUMP JUMPDEST PUSH1 0x40 MLOAD PUSH2 0x17F SWAP2 SWAP1 PUSH2 0x12D0 JUMP JUMPDEST PUSH1 0x40 MLOAD DUP1 SWAP2 SUB SWAP1 RETURN JUMPDEST PUSH2 0x190 PUSH2 0xA40 JUMP JUMPDEST STOP JUMPDEST PUSH2 0x1AC PUSH1 0x4 DUP1 CALLDATASIZE SUB DUP2 ADD SWAP1 PUSH2 0x1A7 SWAP2 SWAP1 PUSH2 0x10B9 JUMP JUMPDEST PUSH2 0xC96 JUMP JUMPDEST STOP JUMPDEST DUP1 PUSH1 0x1 PUSH1 0x0 CALLER PUSH20 0xFFFFFFFFFFFFFFFFFFFFFFFFFFFFFFFFFFFFFFFF AND PUSH20 0xFFFFFFFFFFFFFFFFFFFFFFFFFFFFFFFFFFFFFFFF AND DUP2 MSTORE PUSH1 0x20 ADD SWAP1 DUP2 MSTORE PUSH1 0x20 ADD PUSH1 0x0 KECCAK256 PUSH1 0x2 ADD PUSH1 0x0 DUP5 PUSH20 0xFFFFFFFFFFFFFFFFFFFFFFFFFFFFFFFFFFFFFFFF AND PUSH20 0xFFFFFFFFFFFFFFFFFFFFFFFFFFFFFFFFFFFFFFFF AND DUP2 MSTORE PUSH1 0x20 ADD SWAP1 DUP2 MSTORE PUSH1 0x20 ADD PUSH1 0x0 KECCAK256 SWAP1 DUP1 MLOAD SWAP1 PUSH1 0x20 ADD SWAP1 PUSH2 0x241 SWAP3 SWAP2 SWAP1 PUSH2 0xDCF JUMP JUMPDEST POP POP POP JUMP JUMPDEST DUP4 PUSH1 0x0 DUP1 DUP7 PUSH20 0xFFFFFFFFFFFFFFFFFFFFFFFFFFFFFFFFFFFFFFFF AND PUSH20 0xFFFFFFFFFFFFFFFFFFFFFFFFFFFFFFFFFFFFFFFF AND DUP2 MSTORE PUSH1 0x20 ADD SWAP1 DUP2 MSTORE PUSH1 0x20 ADD PUSH1 0x0 KECCAK256 PUSH1 0x0 ADD PUSH1 0x0 PUSH2 0x100 EXP DUP2 SLOAD DUP2 PUSH20 0xFFFFFFFFFFFFFFFFFFFFFFFFFFFFFFFFFFFFFFFF MUL NOT AND SWAP1 DUP4 PUSH20 0xFFFFFFFFFFFFFFFFFFFFFFFFFFFFFFFFFFFFFFFF AND MUL OR SWAP1 SSTORE POP DUP3 PUSH1 0x0 DUP1 DUP7 PUSH20 0xFFFFFFFFFFFFFFFFFFFFFFFFFFFFFFFFFFFFFFFF AND PUSH20 0xFFFFFFFFFFFFFFFFFFFFFFFFFFFFFFFFFFFFFFFF AND DUP2 MSTORE PUSH1 0x20 ADD SWAP1 DUP2 MSTORE PUSH1 0x20 ADD PUSH1 0x0 KECCAK256 PUSH1 0x1 ADD SWAP1 DUP1 MLOAD SWAP1 PUSH1 0x20 ADD SWAP1 PUSH2 0x31B SWAP3 SWAP2 SWAP1 PUSH2 0xDCF JUMP JUMPDEST POP DUP2 PUSH1 0x0 DUP1 DUP7 PUSH20 0xFFFFFFFFFFFFFFFFFFFFFFFFFFFFFFFFFFFFFFFF AND PUSH20 0xFFFFFFFFFFFFFFFFFFFFFFFFFFFFFFFFFFFFFFFF AND DUP2 MSTORE PUSH1 0x20 ADD SWAP1 DUP2 MSTORE PUSH1 0x20 ADD PUSH1 0x0 KECCAK256 PUSH1 0x2 ADD SWAP1 DUP1 MLOAD SWAP1 PUSH1 0x20 ADD SWAP1 PUSH2 0x371 SWAP3 SWAP2 SWAP1 PUSH2 0xDCF JUMP JUMPDEST POP DUP1 PUSH1 0x0 DUP1 DUP7 PUSH20 0xFFFFFFFFFFFFFFFFFFFFFFFFFFFFFFFFFFFFFFFF AND PUSH20 0xFFFFFFFFFFFFFFFFFFFFFFFFFFFFFFFFFFFFFFFF AND DUP2 MSTORE PUSH1 0x20 ADD SWAP1 DUP2 MSTORE PUSH1 0x20 ADD PUSH1 0x0 KECCAK256 PUSH1 0x3 ADD SWAP1 DUP1 MLOAD SWAP1 PUSH1 0x20 ADD SWAP1 PUSH2 0x3C7 SWAP3 SWAP2 SWAP1 PUSH2 0xDCF JUMP JUMPDEST POP POP POP POP POP JUMP JUMPDEST PUSH1 0x60 PUSH1 0x1 PUSH1 0x0 DUP5 PUSH20 0xFFFFFFFFFFFFFFFFFFFFFFFFFFFFFFFFFFFFFFFF AND PUSH20 0xFFFFFFFFFFFFFFFFFFFFFFFFFFFFFFFFFFFFFFFF AND DUP2 MSTORE PUSH1 0x20 ADD SWAP1 DUP2 MSTORE PUSH1 0x20 ADD PUSH1 0x0 KECCAK256 PUSH1 0x2 ADD PUSH1 0x0 DUP4 PUSH20 0xFFFFFFFFFFFFFFFFFFFFFFFFFFFFFFFFFFFFFFFF AND PUSH20 0xFFFFFFFFFFFFFFFFFFFFFFFFFFFFFFFFFFFFFFFF AND DUP2 MSTORE PUSH1 0x20 ADD SWAP1 DUP2 MSTORE PUSH1 0x20 ADD PUSH1 0x0 KECCAK256 DUP1 SLOAD PUSH2 0x45A SWAP1 PUSH2 0x13E9 JUMP JUMPDEST DUP1 PUSH1 0x1F ADD PUSH1 0x20 DUP1 SWAP2 DIV MUL PUSH1 0x20 ADD PUSH1 0x40 MLOAD SWAP1 DUP2 ADD PUSH1 0x40 MSTORE DUP1 SWAP3 SWAP2 SWAP1 DUP2 DUP2 MSTORE PUSH1 0x20 ADD DUP3 DUP1 SLOAD PUSH2 0x486 SWAP1 PUSH2 0x13E9 JUMP JUMPDEST DUP1 ISZERO PUSH2 0x4D3 JUMPI DUP1 PUSH1 0x1F LT PUSH2 0x4A8 JUMPI PUSH2 0x100 DUP1 DUP4 SLOAD DIV MUL DUP4 MSTORE SWAP2 PUSH1 0x20 ADD SWAP2 PUSH2 0x4D3 JUMP JUMPDEST DUP3 ADD SWAP2 SWAP1 PUSH1 0x0 MSTORE PUSH1 0x20 PUSH1 0x0 KECCAK256 SWAP1 JUMPDEST DUP2 SLOAD DUP2 MSTORE SWAP1 PUSH1 0x1 ADD SWAP1 PUSH1 0x20 ADD DUP1 DUP4 GT PUSH2 0x4B6 JUMPI DUP3 SWAP1 SUB PUSH1 0x1F AND DUP3 ADD SWAP2 JUMPDEST POP POP POP POP POP SWAP1 POP SWAP3 SWAP2 POP POP JUMP JUMPDEST PUSH1 0x60 DUP1 PUSH1 0x1 PUSH1 0x0 DUP5 PUSH20 0xFFFFFFFFFFFFFFFFFFFFFFFFFFFFFFFFFFFFFFFF AND PUSH20 0xFFFFFFFFFFFFFFFFFFFFFFFFFFFFFFFFFFFFFFFF AND DUP2 MSTORE PUSH1 0x20 ADD SWAP1 DUP2 MSTORE PUSH1 0x20 ADD PUSH1 0x0 KECCAK256 PUSH1 0x1 ADD DUP1 SLOAD PUSH2 0x530 SWAP1 PUSH2 0x13E9 JUMP JUMPDEST DUP1 PUSH1 0x1F ADD PUSH1 0x20 DUP1 SWAP2 DIV MUL PUSH1 0x20 ADD PUSH1 0x40 MLOAD SWAP1 DUP2 ADD PUSH1 0x40 MSTORE DUP1 SWAP3 SWAP2 SWAP1 DUP2 DUP2 MSTORE PUSH1 0x20 ADD DUP3 DUP1 SLOAD PUSH2 0x55C SWAP1 PUSH2 0x13E9 JUMP JUMPDEST DUP1 ISZERO PUSH2 0x5A9 JUMPI DUP1 PUSH1 0x1F LT PUSH2 0x57E JUMPI PUSH2 0x100 DUP1 DUP4 SLOAD DIV MUL DUP4 MSTORE SWAP2 PUSH1 0x20 ADD SWAP2 PUSH2 0x5A9 JUMP JUMPDEST DUP3 ADD SWAP2 SWAP1 PUSH1 0x0 MSTORE PUSH1 0x20 PUSH1 0x0 KECCAK256 SWAP1 JUMPDEST DUP2 SLOAD DUP2 MSTORE SWAP1 PUSH1 0x1 ADD SWAP1 PUSH1 0x20 ADD DUP1 DUP4 GT PUSH2 0x58C JUMPI DUP3 SWAP1 SUB PUSH1 0x1F AND DUP3 ADD SWAP2 JUMPDEST POP POP POP POP POP SWAP2 POP PUSH1 0x1 PUSH1 0x0 DUP5 PUSH20 0xFFFFFFFFFFFFFFFFFFFFFFFFFFFFFFFFFFFFFFFF AND PUSH20 0xFFFFFFFFFFFFFFFFFFFFFFFFFFFFFFFFFFFFFFFF AND DUP2 MSTORE PUSH1 0x20 ADD SWAP1 DUP2 MSTORE PUSH1 0x20 ADD PUSH1 0x0 KECCAK256 PUSH1 0x3 ADD DUP1 SLOAD PUSH2 0x5FD SWAP1 PUSH2 0x13E9 JUMP JUMPDEST DUP1 PUSH1 0x1F ADD PUSH1 0x20 DUP1 SWAP2 DIV MUL PUSH1 0x20 ADD PUSH1 0x40 MLOAD SWAP1 DUP2 ADD PUSH1 0x40 MSTORE DUP1 SWAP3 SWAP2 SWAP1 DUP2 DUP2 MSTORE PUSH1 0x20 ADD DUP3 DUP1 SLOAD PUSH2 0x629 SWAP1 PUSH2 0x13E9 JUMP JUMPDEST DUP1 ISZERO PUSH2 0x676 JUMPI DUP1 PUSH1 0x1F LT PUSH2 0x64B JUMPI PUSH2 0x100 DUP1 DUP4 SLOAD DIV MUL DUP4 MSTORE SWAP2 PUSH1 0x20 ADD SWAP2 PUSH2 0x676 JUMP JUMPDEST DUP3 ADD SWAP2 SWAP1 PUSH1 0x0 MSTORE PUSH1 0x20 PUSH1 0x0 KECCAK256 SWAP1 JUMPDEST DUP2 SLOAD DUP2 MSTORE SWAP1 PUSH1 0x1 ADD SWAP1 PUSH1 0x20 ADD DUP1 DUP4 GT PUSH2 0x659 JUMPI DUP3 SWAP1 SUB PUSH1 0x1F AND DUP3 ADD SWAP2 JUMPDEST POP POP POP POP POP SWAP1 POP SWAP2 POP SWAP2 JUMP JUMPDEST PUSH1 0x1 PUSH1 0x20 MSTORE DUP1 PUSH1 0x0 MSTORE PUSH1 0x40 PUSH1 0x0 KECCAK256 PUSH1 0x0 SWAP2 POP SWAP1 POP DUP1 PUSH1 0x0 ADD PUSH1 0x0 SWAP1 SLOAD SWAP1 PUSH2 0x100 EXP SWAP1 DIV PUSH20 0xFFFFFFFFFFFFFFFFFFFFFFFFFFFFFFFFFFFFFFFF AND SWAP1 DUP1 PUSH1 0x1 ADD DUP1 SLOAD PUSH2 0x6CB SWAP1 PUSH2 0x13E9 JUMP JUMPDEST DUP1 PUSH1 0x1F ADD PUSH1 0x20 DUP1 SWAP2 DIV MUL PUSH1 0x20 ADD PUSH1 0x40 MLOAD SWAP1 DUP2 ADD PUSH1 0x40 MSTORE DUP1 SWAP3 SWAP2 SWAP1 DUP2 DUP2 MSTORE PUSH1 0x20 ADD DUP3 DUP1 SLOAD PUSH2 0x6F7 SWAP1 PUSH2 0x13E9 JUMP JUMPDEST DUP1 ISZERO PUSH2 0x744 JUMPI DUP1 PUSH1 0x1F LT PUSH2 0x719 JUMPI PUSH2 0x100 DUP1 DUP4 SLOAD DIV MUL DUP4 MSTORE SWAP2 PUSH1 0x20 ADD SWAP2 PUSH2 0x744 JUMP JUMPDEST DUP3 ADD SWAP2 SWAP1 PUSH1 0x0 MSTORE PUSH1 0x20 PUSH1 0x0 KECCAK256 SWAP1 JUMPDEST DUP2 SLOAD DUP2 MSTORE SWAP1 PUSH1 0x1 ADD SWAP1 PUSH1 0x20 ADD DUP1 DUP4 GT PUSH2 0x727 JUMPI DUP3 SWAP1 SUB PUSH1 0x1F AND DUP3 ADD SWAP2 JUMPDEST POP POP POP POP POP SWAP1 DUP1 PUSH1 0x3 ADD DUP1 SLOAD PUSH2 0x759 SWAP1 PUSH2 0x13E9 JUMP JUMPDEST DUP1 PUSH1 0x1F ADD PUSH1 0x20 DUP1 SWAP2 DIV MUL PUSH1 0x20 ADD PUSH1 0x40 MLOAD SWAP1 DUP2 ADD PUSH1 0x40 MSTORE DUP1 SWAP3 SWAP2 SWAP1 DUP2 DUP2 MSTORE PUSH1 0x20 ADD DUP3 DUP1 SLOAD PUSH2 0x785 SWAP1 PUSH2 0x13E9 JUMP JUMPDEST DUP1 ISZERO PUSH2 0x7D2 JUMPI DUP1 PUSH1 0x1F LT PUSH2 0x7A7 JUMPI PUSH2 0x100 DUP1 DUP4 SLOAD DIV MUL DUP4 MSTORE SWAP2 PUSH1 0x20 ADD SWAP2 PUSH2 0x7D2 JUMP JUMPDEST DUP3 ADD SWAP2 SWAP1 PUSH1 0x0 MSTORE PUSH1 0x20 PUSH1 0x0 KECCAK256 SWAP1 JUMPDEST DUP2 SLOAD DUP2 MSTORE SWAP1 PUSH1 0x1 ADD SWAP1 PUSH1 0x20 ADD DUP1 DUP4 GT PUSH2 0x7B5 JUMPI DUP3 SWAP1 SUB PUSH1 0x1F AND DUP3 ADD SWAP2 JUMPDEST POP POP POP POP POP SWAP1 POP DUP4 JUMP JUMPDEST PUSH2 0x7E4 PUSH2 0xE55 JUMP JUMPDEST PUSH1 0x0 DUP1 DUP4 PUSH20 0xFFFFFFFFFFFFFFFFFFFFFFFFFFFFFFFFFFFFFFFF AND PUSH20 0xFFFFFFFFFFFFFFFFFFFFFFFFFFFFFFFFFFFFFFFF AND DUP2 MSTORE PUSH1 0x20 ADD SWAP1 DUP2 MSTORE PUSH1 0x20 ADD PUSH1 0x0 KECCAK256 PUSH1 0x40 MLOAD DUP1 PUSH1 0x80 ADD PUSH1 0x40 MSTORE SWAP1 DUP2 PUSH1 0x0 DUP3 ADD PUSH1 0x0 SWAP1 SLOAD SWAP1 PUSH2 0x100 EXP SWAP1 DIV PUSH20 0xFFFFFFFFFFFFFFFFFFFFFFFFFFFFFFFFFFFFFFFF AND PUSH20 0xFFFFFFFFFFFFFFFFFFFFFFFFFFFFFFFFFFFFFFFF AND PUSH20 0xFFFFFFFFFFFFFFFFFFFFFFFFFFFFFFFFFFFFFFFF AND DUP2 MSTORE PUSH1 0x20 ADD PUSH1 0x1 DUP3 ADD DUP1 SLOAD PUSH2 0x893 SWAP1 PUSH2 0x13E9 JUMP JUMPDEST DUP1 PUSH1 0x1F ADD PUSH1 0x20 DUP1 SWAP2 DIV MUL PUSH1 0x20 ADD PUSH1 0x40 MLOAD SWAP1 DUP2 ADD PUSH1 0x40 MSTORE DUP1 SWAP3 SWAP2 SWAP1 DUP2 DUP2 MSTORE PUSH1 0x20 ADD DUP3 DUP1 SLOAD PUSH2 0x8BF SWAP1 PUSH2 0x13E9 JUMP JUMPDEST DUP1 ISZERO PUSH2 0x90C JUMPI DUP1 PUSH1 0x1F LT PUSH2 0x8E1 JUMPI PUSH2 0x100 DUP1 DUP4 SLOAD DIV MUL DUP4 MSTORE SWAP2 PUSH1 0x20 ADD SWAP2 PUSH2 0x90C JUMP JUMPDEST DUP3 ADD SWAP2 SWAP1 PUSH1 0x0 MSTORE PUSH1 0x20 PUSH1 0x0 KECCAK256 SWAP1 JUMPDEST DUP2 SLOAD DUP2 MSTORE SWAP1 PUSH1 0x1 ADD SWAP1 PUSH1 0x20 ADD DUP1 DUP4 GT PUSH2 0x8EF JUMPI DUP3 SWAP1 SUB PUSH1 0x1F AND DUP3 ADD SWAP2 JUMPDEST POP POP POP POP POP DUP2 MSTORE PUSH1 0x20 ADD PUSH1 0x2 DUP3 ADD DUP1 SLOAD PUSH2 0x925 SWAP1 PUSH2 0x13E9 JUMP JUMPDEST DUP1 PUSH1 0x1F ADD PUSH1 0x20 DUP1 SWAP2 DIV MUL PUSH1 0x20 ADD PUSH1 0x40 MLOAD SWAP1 DUP2 ADD PUSH1 0x40 MSTORE DUP1 SWAP3 SWAP2 SWAP1 DUP2 DUP2 MSTORE PUSH1 0x20 ADD DUP3 DUP1 SLOAD PUSH2 0x951 SWAP1 PUSH2 0x13E9 JUMP JUMPDEST DUP1 ISZERO PUSH2 0x99E JUMPI DUP1 PUSH1 0x1F LT PUSH2 0x973 JUMPI PUSH2 0x100 DUP1 DUP4 SLOAD DIV MUL DUP4 MSTORE SWAP2 PUSH1 0x20 ADD SWAP2 PUSH2 0x99E JUMP JUMPDEST DUP3 ADD SWAP2 SWAP1 PUSH1 0x0 MSTORE PUSH1 0x20 PUSH1 0x0 KECCAK256 SWAP1 JUMPDEST DUP2 SLOAD DUP2 MSTORE SWAP1 PUSH1 0x1 ADD SWAP1 PUSH1 0x20 ADD DUP1 DUP4 GT PUSH2 0x981 JUMPI DUP3 SWAP1 SUB PUSH1 0x1F AND DUP3 ADD SWAP2 JUMPDEST POP POP POP POP POP DUP2 MSTORE PUSH1 0x20 ADD PUSH1 0x3 DUP3 ADD DUP1 SLOAD PUSH2 0x9B7 SWAP1 PUSH2 0x13E9 JUMP JUMPDEST DUP1 PUSH1 0x1F ADD PUSH1 0x20 DUP1 SWAP2 DIV MUL PUSH1 0x20 ADD PUSH1 0x40 MLOAD SWAP1 DUP2 ADD PUSH1 0x40 MSTORE DUP1 SWAP3 SWAP2 SWAP1 DUP2 DUP2 MSTORE PUSH1 0x20 ADD DUP3 DUP1 SLOAD PUSH2 0x9E3 SWAP1 PUSH2 0x13E9 JUMP JUMPDEST DUP1 ISZERO PUSH2 0xA30 JUMPI DUP1 PUSH1 0x1F LT PUSH2 0xA05 JUMPI PUSH2 0x100 DUP1 DUP4 SLOAD DIV MUL DUP4 MSTORE SWAP2 PUSH1 0x20 ADD SWAP2 PUSH2 0xA30 JUMP JUMPDEST DUP3 ADD SWAP2 SWAP1 PUSH1 0x0 MSTORE PUSH1 0x20 PUSH1 0x0 KECCAK256 SWAP1 JUMPDEST DUP2 SLOAD DUP2 MSTORE SWAP1 PUSH1 0x1 ADD SWAP1 PUSH1 0x20 ADD DUP1 DUP4 GT PUSH2 0xA13 JUMPI DUP3 SWAP1 SUB PUSH1 0x1F AND DUP3 ADD SWAP2 JUMPDEST POP POP POP POP POP DUP2 MSTORE POP POP SWAP1 POP SWAP2 SWAP1 POP JUMP JUMPDEST PUSH1 0x0 DUP1 PUSH1 0x0 PUSH20 0xB4D18D483B641200AA096558C9BA63AEB243002B PUSH20 0xFF5D2FE96548E05E49C67FCC36C7DBECA2F501F2 PUSH20 0xBE7186F383961CC24AD8012A2F2942667A72788F DUP1 SWAP4 POP DUP2 SWAP5 POP DUP3 SWAP6 POP POP POP POP PUSH2 0xB3B DUP4 PUSH1 0x40 MLOAD DUP1 PUSH1 0x40 ADD PUSH1 0x40 MSTORE DUP1 PUSH1 0x2 DUP2 MSTORE PUSH1 0x20 ADD PUSH32 0x6431000000000000000000000000000000000000000000000000000000000000 DUP2 MSTORE POP PUSH1 0x40 MLOAD DUP1 PUSH1 0x40 ADD PUSH1 0x40 MSTORE DUP1 PUSH1 0x4 DUP2 MSTORE PUSH1 0x20 ADD PUSH32 0x42756C6200000000000000000000000000000000000000000000000000000000 DUP2 MSTORE POP PUSH1 0x40 MLOAD DUP1 PUSH1 0x40 ADD PUSH1 0x40 MSTORE DUP1 PUSH1 0x2 DUP2 MSTORE PUSH1 0x20 ADD PUSH32 0x6F6E000000000000000000000000000000000000000000000000000000000000 DUP2 MSTORE POP PUSH2 0x246 JUMP JUMPDEST PUSH2 0xBE6 DUP3 PUSH1 0x40 MLOAD DUP1 PUSH1 0x40 ADD PUSH1 0x40 MSTORE DUP1 PUSH1 0x2 DUP2 MSTORE PUSH1 0x20 ADD PUSH32 0x6432000000000000000000000000000000000000000000000000000000000000 DUP2 MSTORE POP PUSH1 0x40 MLOAD DUP1 PUSH1 0x40 ADD PUSH1 0x40 MSTORE DUP1 PUSH1 0xB DUP2 MSTORE PUSH1 0x20 ADD PUSH32 0x5472616E73666F726D6572000000000000000000000000000000000000000000 DUP2 MSTORE POP PUSH1 0x40 MLOAD DUP1 PUSH1 0x40 ADD PUSH1 0x40 MSTORE DUP1 PUSH1 0x3 DUP2 MSTORE PUSH1 0x20 ADD PUSH32 0x6F66660000000000000000000000000000000000000000000000000000000000 DUP2 MSTORE POP PUSH2 0x246 JUMP JUMPDEST PUSH2 0xC91 DUP2 PUSH1 0x40 MLOAD DUP1 PUSH1 0x40 ADD PUSH1 0x40 MSTORE DUP1 PUSH1 0x2 DUP2 MSTORE PUSH1 0x20 ADD PUSH32 0x6433000000000000000000000000000000000000000000000000000000000000 DUP2 MSTORE POP PUSH1 0x40 MLOAD DUP1 PUSH1 0x40 ADD PUSH1 0x40 MSTORE DUP1 PUSH1 0x6 DUP2 MSTORE PUSH1 0x20 ADD PUSH32 0x53656E736F720000000000000000000000000000000000000000000000000000 DUP2 MSTORE POP PUSH1 0x40 MLOAD DUP1 PUSH1 0x40 ADD PUSH1 0x40 MSTORE DUP1 PUSH1 0x2 DUP2 MSTORE PUSH1 0x20 ADD PUSH32 0x6F6E000000000000000000000000000000000000000000000000000000000000 DUP2 MSTORE POP PUSH2 0x246 JUMP JUMPDEST POP POP POP JUMP JUMPDEST PUSH1 0x0 CALLER SWAP1 POP DUP1 PUSH1 0x1 PUSH1 0x0 DUP4 PUSH20 0xFFFFFFFFFFFFFFFFFFFFFFFFFFFFFFFFFFFFFFFF AND PUSH20 0xFFFFFFFFFFFFFFFFFFFFFFFFFFFFFFFFFFFFFFFF AND DUP2 MSTORE PUSH1 0x20 ADD SWAP1 DUP2 MSTORE PUSH1 0x20 ADD PUSH1 0x0 KECCAK256 PUSH1 0x0 ADD PUSH1 0x0 PUSH2 0x100 EXP DUP2 SLOAD DUP2 PUSH20 0xFFFFFFFFFFFFFFFFFFFFFFFFFFFFFFFFFFFFFFFF MUL NOT AND SWAP1 DUP4 PUSH20 0xFFFFFFFFFFFFFFFFFFFFFFFFFFFFFFFFFFFFFFFF AND MUL OR SWAP1 SSTORE POP DUP3 PUSH1 0x1 PUSH1 0x0 DUP4 PUSH20 0xFFFFFFFFFFFFFFFFFFFFFFFFFFFFFFFFFFFFFFFF AND PUSH20 0xFFFFFFFFFFFFFFFFFFFFFFFFFFFFFFFFFFFFFFFF AND DUP2 MSTORE PUSH1 0x20 ADD SWAP1 DUP2 MSTORE PUSH1 0x20 ADD PUSH1 0x0 KECCAK256 PUSH1 0x1 ADD SWAP1 DUP1 MLOAD SWAP1 PUSH1 0x20 ADD SWAP1 PUSH2 0xD72 SWAP3 SWAP2 SWAP1 PUSH2 0xDCF JUMP JUMPDEST POP DUP2 PUSH1 0x1 PUSH1 0x0 DUP4 PUSH20 0xFFFFFFFFFFFFFFFFFFFFFFFFFFFFFFFFFFFFFFFF AND PUSH20 0xFFFFFFFFFFFFFFFFFFFFFFFFFFFFFFFFFFFFFFFF AND DUP2 MSTORE PUSH1 0x20 ADD SWAP1 DUP2 MSTORE PUSH1 0x20 ADD PUSH1 0x0 KECCAK256 PUSH1 0x3 ADD SWAP1 DUP1 MLOAD SWAP1 PUSH1 0x20 ADD SWAP1 PUSH2 0xDC9 SWAP3 SWAP2 SWAP1 PUSH2 0xDCF JUMP JUMPDEST POP POP POP POP JUMP JUMPDEST DUP3 DUP1 SLOAD PUSH2 0xDDB SWAP1 PUSH2 0x13E9 JUMP JUMPDEST SWAP1 PUSH1 0x0 MSTORE PUSH1 0x20 PUSH1 0x0 KECCAK256 SWAP1 PUSH1 0x1F ADD PUSH1 0x20 SWAP1 DIV DUP2 ADD SWAP3 DUP3 PUSH2 0xDFD JUMPI PUSH1 0x0 DUP6 SSTORE PUSH2 0xE44 JUMP JUMPDEST DUP3 PUSH1 0x1F LT PUSH2 0xE16 JUMPI DUP1 MLOAD PUSH1 0xFF NOT AND DUP4 DUP1 ADD OR DUP6 SSTORE PUSH2 0xE44 JUMP JUMPDEST DUP3 DUP1 ADD PUSH1 0x1 ADD DUP6 SSTORE DUP3 ISZERO PUSH2 0xE44 JUMPI SWAP2 DUP3 ADD JUMPDEST DUP3 DUP2 GT ISZERO PUSH2 0xE43 JUMPI DUP3 MLOAD DUP3 SSTORE SWAP2 PUSH1 0x20 ADD SWAP2 SWAP1 PUSH1 0x1 ADD SWAP1 PUSH2 0xE28 JUMP JUMPDEST JUMPDEST POP SWAP1 POP PUSH2 0xE51 SWAP2 SWAP1 PUSH2 0xE93 JUMP JUMPDEST POP SWAP1 JUMP JUMPDEST PUSH1 0x40 MLOAD DUP1 PUSH1 0x80 ADD PUSH1 0x40 MSTORE DUP1 PUSH1 0x0 PUSH20 0xFFFFFFFFFFFFFFFFFFFFFFFFFFFFFFFFFFFFFFFF AND DUP2 MSTORE PUSH1 0x20 ADD PUSH1 0x60 DUP2 MSTORE PUSH1 0x20 ADD PUSH1 0x60 DUP2 MSTORE PUSH1 0x20 ADD PUSH1 0x60 DUP2 MSTORE POP SWAP1 JUMP JUMPDEST JUMPDEST DUP1 DUP3 GT ISZERO PUSH2 0xEAC JUMPI PUSH1 0x0 DUP2 PUSH1 0x0 SWAP1 SSTORE POP PUSH1 0x1 ADD PUSH2 0xE94 JUMP JUMPDEST POP SWAP1 JUMP JUMPDEST PUSH1 0x0 PUSH2 0xEC3 PUSH2 0xEBE DUP5 PUSH2 0x1317 JUMP JUMPDEST PUSH2 0x12F2 JUMP JUMPDEST SWAP1 POP DUP3 DUP2 MSTORE PUSH1 0x20 DUP2 ADD DUP5 DUP5 DUP5 ADD GT ISZERO PUSH2 0xEDF JUMPI PUSH2 0xEDE PUSH2 0x14AF JUMP JUMPDEST JUMPDEST PUSH2 0xEEA DUP5 DUP3 DUP6 PUSH2 0x13A7 JUMP JUMPDEST POP SWAP4 SWAP3 POP POP POP JUMP JUMPDEST PUSH1 0x0 DUP2 CALLDATALOAD SWAP1 POP PUSH2 0xF01 DUP2 PUSH2 0x14CF JUMP JUMPDEST SWAP3 SWAP2 POP POP JUMP JUMPDEST PUSH1 0x0 DUP3 PUSH1 0x1F DUP4 ADD SLT PUSH2 0xF1C JUMPI PUSH2 0xF1B PUSH2 0x14AA JUMP JUMPDEST JUMPDEST DUP2 CALLDATALOAD PUSH2 0xF2C DUP5 DUP3 PUSH1 0x20 DUP7 ADD PUSH2 0xEB0 JUMP JUMPDEST SWAP2 POP POP SWAP3 SWAP2 POP POP JUMP JUMPDEST PUSH1 0x0 PUSH1 0x20 DUP3 DUP5 SUB SLT ISZERO PUSH2 0xF4B JUMPI PUSH2 0xF4A PUSH2 0x14B9 JUMP JUMPDEST JUMPDEST PUSH1 0x0 PUSH2 0xF59 DUP5 DUP3 DUP6 ADD PUSH2 0xEF2 JUMP JUMPDEST SWAP2 POP POP SWAP3 SWAP2 POP POP JUMP JUMPDEST PUSH1 0x0 DUP1 PUSH1 0x40 DUP4 DUP6 SUB SLT ISZERO PUSH2 0xF79 JUMPI PUSH2 0xF78 PUSH2 0x14B9 JUMP JUMPDEST JUMPDEST PUSH1 0x0 PUSH2 0xF87 DUP6 DUP3 DUP7 ADD PUSH2 0xEF2 JUMP JUMPDEST SWAP3 POP POP PUSH1 0x20 PUSH2 0xF98 DUP6 DUP3 DUP7 ADD PUSH2 0xEF2 JUMP JUMPDEST SWAP2 POP POP SWAP3 POP SWAP3 SWAP1 POP JUMP JUMPDEST PUSH1 0x0 DUP1 PUSH1 0x40 DUP4 DUP6 SUB SLT ISZERO PUSH2 0xFB9 JUMPI PUSH2 0xFB8 PUSH2 0x14B9 JUMP JUMPDEST JUMPDEST PUSH1 0x0 PUSH2 0xFC7 DUP6 DUP3 DUP7 ADD PUSH2 0xEF2 JUMP JUMPDEST SWAP3 POP POP PUSH1 0x20 DUP4 ADD CALLDATALOAD PUSH8 0xFFFFFFFFFFFFFFFF DUP2 GT ISZERO PUSH2 0xFE8 JUMPI PUSH2 0xFE7 PUSH2 0x14B4 JUMP JUMPDEST JUMPDEST PUSH2 0xFF4 DUP6 DUP3 DUP7 ADD PUSH2 0xF07 JUMP JUMPDEST SWAP2 POP POP SWAP3 POP SWAP3 SWAP1 POP JUMP JUMPDEST PUSH1 0x0 DUP1 PUSH1 0x0 DUP1 PUSH1 0x80 DUP6 DUP8 SUB SLT ISZERO PUSH2 0x1018 JUMPI PUSH2 0x1017 PUSH2 0x14B9 JUMP JUMPDEST JUMPDEST PUSH1 0x0 PUSH2 0x1026 DUP8 DUP3 DUP9 ADD PUSH2 0xEF2 JUMP JUMPDEST SWAP5 POP POP PUSH1 0x20 DUP6 ADD CALLDATALOAD PUSH8 0xFFFFFFFFFFFFFFFF DUP2 GT ISZERO PUSH2 0x1047 JUMPI PUSH2 0x1046 PUSH2 0x14B4 JUMP JUMPDEST JUMPDEST PUSH2 0x1053 DUP8 DUP3 DUP9 ADD PUSH2 0xF07 JUMP JUMPDEST SWAP4 POP POP PUSH1 0x40 DUP6 ADD CALLDATALOAD PUSH8 0xFFFFFFFFFFFFFFFF DUP2 GT ISZERO PUSH2 0x1074 JUMPI PUSH2 0x1073 PUSH2 0x14B4 JUMP JUMPDEST JUMPDEST PUSH2 0x1080 DUP8 DUP3 DUP9 ADD PUSH2 0xF07 JUMP JUMPDEST SWAP3 POP POP PUSH1 0x60 DUP6 ADD CALLDATALOAD PUSH8 0xFFFFFFFFFFFFFFFF DUP2 GT ISZERO PUSH2 0x10A1 JUMPI PUSH2 0x10A0 PUSH2 0x14B4 JUMP JUMPDEST JUMPDEST PUSH2 0x10AD DUP8 DUP3 DUP9 ADD PUSH2 0xF07 JUMP JUMPDEST SWAP2 POP POP SWAP3 SWAP6 SWAP2 SWAP5 POP SWAP3 POP JUMP JUMPDEST PUSH1 0x0 DUP1 PUSH1 0x40 DUP4 DUP6 SUB SLT ISZERO PUSH2 0x10D0 JUMPI PUSH2 0x10CF PUSH2 0x14B9 JUMP JUMPDEST JUMPDEST PUSH1 0x0 DUP4 ADD CALLDATALOAD PUSH8 0xFFFFFFFFFFFFFFFF DUP2 GT ISZERO PUSH2 0x10EE JUMPI PUSH2 0x10ED PUSH2 0x14B4 JUMP JUMPDEST JUMPDEST PUSH2 0x10FA DUP6 DUP3 DUP7 ADD PUSH2 0xF07 JUMP JUMPDEST SWAP3 POP POP PUSH1 0x20 DUP4 ADD CALLDATALOAD PUSH8 0xFFFFFFFFFFFFFFFF DUP2 GT ISZERO PUSH2 0x111B JUMPI PUSH2 0x111A PUSH2 0x14B4 JUMP JUMPDEST JUMPDEST PUSH2 0x1127 DUP6 DUP3 DUP7 ADD PUSH2 0xF07 JUMP JUMPDEST SWAP2 POP POP SWAP3 POP SWAP3 SWAP1 POP JUMP JUMPDEST PUSH2 0x113A DUP2 PUSH2 0x1375 JUMP JUMPDEST DUP3 MSTORE POP POP JUMP JUMPDEST PUSH2 0x1149 DUP2 PUSH2 0x1375 JUMP JUMPDEST DUP3 MSTORE POP POP JUMP JUMPDEST PUSH1 0x0 PUSH2 0x115A DUP3 PUSH2 0x1348 JUMP JUMPDEST PUSH2 0x1164 DUP2 DUP6 PUSH2 0x1353 JUMP JUMPDEST SWAP4 POP PUSH2 0x1174 DUP2 DUP6 PUSH1 0x20 DUP7 ADD PUSH2 0x13B6 JUMP JUMPDEST PUSH2 0x117D DUP2 PUSH2 0x14BE JUMP JUMPDEST DUP5 ADD SWAP2 POP POP SWAP3 SWAP2 POP POP JUMP JUMPDEST PUSH1 0x0 PUSH2 0x1193 DUP3 PUSH2 0x1348 JUMP JUMPDEST PUSH2 0x119D DUP2 DUP6 PUSH2 0x1364 JUMP JUMPDEST SWAP4 POP PUSH2 0x11AD DUP2 DUP6 PUSH1 0x20 DUP7 ADD PUSH2 0x13B6 JUMP JUMPDEST PUSH2 0x11B6 DUP2 PUSH2 0x14BE JUMP JUMPDEST DUP5 ADD SWAP2 POP POP SWAP3 SWAP2 POP POP JUMP JUMPDEST PUSH1 0x0 PUSH1 0x80 DUP4 ADD PUSH1 0x0 DUP4 ADD MLOAD PUSH2 0x11D9 PUSH1 0x0 DUP7 ADD DUP3 PUSH2 0x1131 JUMP JUMPDEST POP PUSH1 0x20 DUP4 ADD MLOAD DUP5 DUP3 SUB PUSH1 0x20 DUP7 ADD MSTORE PUSH2 0x11F1 DUP3 DUP3 PUSH2 0x114F JUMP JUMPDEST SWAP2 POP POP PUSH1 0x40 DUP4 ADD MLOAD DUP5 DUP3 SUB PUSH1 0x40 DUP7 ADD MSTORE PUSH2 0x120B DUP3 DUP3 PUSH2 0x114F JUMP JUMPDEST SWAP2 POP POP PUSH1 0x60 DUP4 ADD MLOAD DUP5 DUP3 SUB PUSH1 0x60 DUP7 ADD MSTORE PUSH2 0x1225 DUP3 DUP3 PUSH2 0x114F JUMP JUMPDEST SWAP2 POP POP DUP1 SWAP2 POP POP SWAP3 SWAP2 POP POP JUMP JUMPDEST PUSH1 0x0 PUSH1 0x60 DUP3 ADD SWAP1 POP PUSH2 0x1247 PUSH1 0x0 DUP4 ADD DUP7 PUSH2 0x1140 JUMP JUMPDEST DUP2 DUP2 SUB PUSH1 0x20 DUP4 ADD MSTORE PUSH2 0x1259 DUP2 DUP6 PUSH2 0x1188 JUMP JUMPDEST SWAP1 POP DUP2 DUP2 SUB PUSH1 0x40 DUP4 ADD MSTORE PUSH2 0x126D DUP2 DUP5 PUSH2 0x1188 JUMP JUMPDEST SWAP1 POP SWAP5 SWAP4 POP POP POP POP JUMP JUMPDEST PUSH1 0x0 PUSH1 0x20 DUP3 ADD SWAP1 POP DUP2 DUP2 SUB PUSH1 0x0 DUP4 ADD MSTORE PUSH2 0x1291 DUP2 DUP5 PUSH2 0x1188 JUMP JUMPDEST SWAP1 POP SWAP3 SWAP2 POP POP JUMP JUMPDEST PUSH1 0x0 PUSH1 0x40 DUP3 ADD SWAP1 POP DUP2 DUP2 SUB PUSH1 0x0 DUP4 ADD MSTORE PUSH2 0x12B3 DUP2 DUP6 PUSH2 0x1188 JUMP JUMPDEST SWAP1 POP DUP2 DUP2 SUB PUSH1 0x20 DUP4 ADD MSTORE PUSH2 0x12C7 DUP2 DUP5 PUSH2 0x1188 JUMP JUMPDEST SWAP1 POP SWAP4 SWAP3 POP POP POP JUMP JUMPDEST PUSH1 0x0 PUSH1 0x20 DUP3 ADD SWAP1 POP DUP2 DUP2 SUB PUSH1 0x0 DUP4 ADD MSTORE PUSH2 0x12EA DUP2 DUP5 PUSH2 0x11C1 JUMP JUMPDEST SWAP1 POP SWAP3 SWAP2 POP POP JUMP JUMPDEST PUSH1 0x0 PUSH2 0x12FC PUSH2 0x130D JUMP JUMPDEST SWAP1 POP PUSH2 0x1308 DUP3 DUP3 PUSH2 0x141B JUMP JUMPDEST SWAP2 SWAP1 POP JUMP JUMPDEST PUSH1 0x0 PUSH1 0x40 MLOAD SWAP1 POP SWAP1 JUMP JUMPDEST PUSH1 0x0 PUSH8 0xFFFFFFFFFFFFFFFF DUP3 GT ISZERO PUSH2 0x1332 JUMPI PUSH2 0x1331 PUSH2 0x147B JUMP JUMPDEST JUMPDEST PUSH2 0x133B DUP3 PUSH2 0x14BE JUMP JUMPDEST SWAP1 POP PUSH1 0x20 DUP2 ADD SWAP1 POP SWAP2 SWAP1 POP JUMP JUMPDEST PUSH1 0x0 DUP2 MLOAD SWAP1 POP SWAP2 SWAP1 POP JUMP JUMPDEST PUSH1 0x0 DUP3 DUP3 MSTORE PUSH1 0x20 DUP3 ADD SWAP1 POP SWAP3 SWAP2 POP POP JUMP JUMPDEST PUSH1 0x0 DUP3 DUP3 MSTORE PUSH1 0x20 DUP3 ADD SWAP1 POP SWAP3 SWAP2 POP POP JUMP JUMPDEST PUSH1 0x0 PUSH2 0x1380 DUP3 PUSH2 0x1387 JUMP JUMPDEST SWAP1 POP SWAP2 SWAP1 POP JUMP JUMPDEST PUSH1 0x0 PUSH20 0xFFFFFFFFFFFFFFFFFFFFFFFFFFFFFFFFFFFFFFFF DUP3 AND SWAP1 POP SWAP2 SWAP1 POP JUMP JUMPDEST DUP3 DUP2 DUP4 CALLDATACOPY PUSH1 0x0 DUP4 DUP4 ADD MSTORE POP POP POP JUMP JUMPDEST PUSH1 0x0 JUMPDEST DUP4 DUP2 LT ISZERO PUSH2 0x13D4 JUMPI DUP1 DUP3 ADD MLOAD DUP2 DUP5 ADD MSTORE PUSH1 0x20 DUP2 ADD SWAP1 POP PUSH2 0x13B9 JUMP JUMPDEST DUP4 DUP2 GT ISZERO PUSH2 0x13E3 JUMPI PUSH1 0x0 DUP5 DUP5 ADD MSTORE JUMPDEST POP POP POP POP JUMP JUMPDEST PUSH1 0x0 PUSH1 0x2 DUP3 DIV SWAP1 POP PUSH1 0x1 DUP3 AND DUP1 PUSH2 0x1401 JUMPI PUSH1 0x7F DUP3 AND SWAP2 POP JUMPDEST PUSH1 0x20 DUP3 LT DUP2 EQ ISZERO PUSH2 0x1415 JUMPI PUSH2 0x1414 PUSH2 0x144C JUMP JUMPDEST JUMPDEST POP SWAP2 SWAP1 POP JUMP JUMPDEST PUSH2 0x1424 DUP3 PUSH2 0x14BE JUMP JUMPDEST DUP2 ADD DUP2 DUP2 LT PUSH8 0xFFFFFFFFFFFFFFFF DUP3 GT OR ISZERO PUSH2 0x1443 JUMPI PUSH2 0x1442 PUSH2 0x147B JUMP JUMPDEST JUMPDEST DUP1 PUSH1 0x40 MSTORE POP POP POP JUMP JUMPDEST PUSH32 0x4E487B7100000000000000000000000000000000000000000000000000000000 PUSH1 0x0 MSTORE PUSH1 0x22 PUSH1 0x4 MSTORE PUSH1 0x24 PUSH1 0x0 REVERT JUMPDEST PUSH32 0x4E487B7100000000000000000000000000000000000000000000000000000000 PUSH1 0x0 MSTORE PUSH1 0x41 PUSH1 0x4 MSTORE PUSH1 0x24 PUSH1 0x0 REVERT JUMPDEST PUSH1 0x0 DUP1 REVERT JUMPDEST PUSH1 0x0 DUP1 REVERT JUMPDEST PUSH1 0x0 DUP1 REVERT JUMPDEST PUSH1 0x0 DUP1 REVERT JUMPDEST PUSH1 0x0 PUSH1 0x1F NOT PUSH1 0x1F DUP4 ADD AND SWAP1 POP SWAP2 SWAP1 POP JUMP JUMPDEST PUSH2 0x14D8 DUP2 PUSH2 0x1375 JUMP JUMPDEST DUP2 EQ PUSH2 0x14E3 JUMPI PUSH1 0x0 DUP1 REVERT JUMPDEST POP JUMP INVALID LOG2 PUSH5 0x6970667358 0x22 SLT KECCAK256 0xB7 PUSH13 0x4FD3B571AFADD03213852057C4 0xE8 DIV 0xB2 0x5C PUSH22 0x51B7A9280A4DC5F296AE4F4B64736F6C634300080700 CALLER "
				},
				"gasEstimates": {
					"creation": {
						"codeDepositCost": "1080800",
						"executionCost": "1120",
						"totalCost": "1081920"
					},
					"external": {
						"getDeviceInfoByAddr(address)": "infinite",
						"getRight(address,address)": "infinite",
						"getSubjInfo(address)": "infinite",
						"init()": "infinite",
						"register4Right(address,string)": "infinite",
						"setDeviceInfo(address,string,string,string)": "infinite",
						"setSubjInfo(string,string)": "infinite",
						"subjInfoMap(address)": "infinite"
					}
				},
				"methodIdentifiers": {
					"getDeviceInfoByAddr(address)": "de1e23b7",
					"getRight(address,address)": "8749774f",
					"getSubjInfo(address)": "9f764d16",
					"init()": "e1c7392a",
					"register4Right(address,string)": "11ef4171",
					"setDeviceInfo(address,string,string,string)": "4d2d701a",
					"setSubjInfo(string,string)": "f2c3c745",
					"subjInfoMap(address)": "b9e0ad10"
				}
			},
			"storageLayout": {
				"storage": [
					{
						"astId": 461,
						"contract": "contracts/Management.sol:Management",
						"label": "deviceInfoMap",
						"offset": 0,
						"slot": "0",
						"type": "t_mapping(t_address,t_struct(DeviceInfo)445_storage)"
					},
					{
						"astId": 466,
						"contract": "contracts/Management.sol:Management",
						"label": "subjInfoMap",
						"offset": 0,
						"slot": "1",
						"type": "t_mapping(t_address,t_struct(SubjInfo)456_storage)"
					}
				],
				"types": {
					"t_address": {
						"encoding": "inplace",
						"label": "address",
						"numberOfBytes": "20"
					},
					"t_mapping(t_address,t_string_storage)": {
						"encoding": "mapping",
						"key": "t_address",
						"label": "mapping(address => string)",
						"numberOfBytes": "32",
						"value": "t_string_storage"
					},
					"t_mapping(t_address,t_struct(DeviceInfo)445_storage)": {
						"encoding": "mapping",
						"key": "t_address",
						"label": "mapping(address => struct Management.DeviceInfo)",
						"numberOfBytes": "32",
						"value": "t_struct(DeviceInfo)445_storage"
					},
					"t_mapping(t_address,t_struct(SubjInfo)456_storage)": {
						"encoding": "mapping",
						"key": "t_address",
						"label": "mapping(address => struct Management.SubjInfo)",
						"numberOfBytes": "32",
						"value": "t_struct(SubjInfo)456_storage"
					},
					"t_string_storage": {
						"encoding": "bytes",
						"label": "string",
						"numberOfBytes": "32"
					},
					"t_struct(DeviceInfo)445_storage": {
						"encoding": "inplace",
						"label": "struct Management.DeviceInfo",
						"members": [
							{
								"astId": 438,
								"contract": "contracts/Management.sol:Management",
								"label": "deviceAddr",
								"offset": 0,
								"slot": "0",
								"type": "t_address"
							},
							{
								"astId": 440,
								"contract": "contracts/Management.sol:Management",
								"label": "deviceName",
								"offset": 0,
								"slot": "1",
								"type": "t_string_storage"
							},
							{
								"astId": 442,
								"contract": "contracts/Management.sol:Management",
								"label": "deviceType",
								"offset": 0,
								"slot": "2",
								"type": "t_string_storage"
							},
							{
								"astId": 444,
								"contract": "contracts/Management.sol:Management",
								"label": "status",
								"offset": 0,
								"slot": "3",
								"type": "t_string_storage"
							}
						],
						"numberOfBytes": "128"
					},
					"t_struct(SubjInfo)456_storage": {
						"encoding": "inplace",
						"label": "struct Management.SubjInfo",
						"members": [
							{
								"astId": 447,
								"contract": "contracts/Management.sol:Management",
								"label": "subjectAddr",
								"offset": 0,
								"slot": "0",
								"type": "t_address"
							},
							{
								"astId": 449,
								"contract": "contracts/Management.sol:Management",
								"label": "subjectName",
								"offset": 0,
								"slot": "1",
								"type": "t_string_storage"
							},
							{
								"astId": 453,
								"contract": "contracts/Management.sol:Management",
								"label": "rightTable",
								"offset": 0,
								"slot": "2",
								"type": "t_mapping(t_address,t_string_storage)"
							},
							{
								"astId": 455,
								"contract": "contracts/Management.sol:Management",
								"label": "ipAddr",
								"offset": 0,
								"slot": "3",
								"type": "t_string_storage"
							}
						],
						"numberOfBytes": "128"
					}
				}
			},
			"userdoc": {
				"kind": "user",
				"methods": {},
				"version": 1
			}
		}
	}
}