{
	"contracts/Management.sol": {
		"Management": {
			"abi": [
				{
					"inputs": [
						{
							"internalType": "address",
							"name": "_addr",
							"type": "address"
						}
					],
					"name": "getDeviceInfoByAddr",
					"outputs": [
						{
							"components": [
								{
									"internalType": "address",
									"name": "deviceAddr",
									"type": "address"
								},
								{
									"internalType": "string",
									"name": "deviceName",
									"type": "string"
								},
								{
									"internalType": "string",
									"name": "deviceType",
									"type": "string"
								}
							],
							"internalType": "struct Management.DeviceInfo",
							"name": "",
							"type": "tuple"
						}
					],
					"stateMutability": "view",
					"type": "function"
				},
				{
					"inputs": [
						{
							"internalType": "address",
							"name": "_subjectAddr",
							"type": "address"
						},
						{
							"internalType": "address",
							"name": "_objectAddr",
							"type": "address"
						}
					],
					"name": "getRight",
					"outputs": [
						{
							"internalType": "string",
							"name": "",
							"type": "string"
						}
					],
					"stateMutability": "view",
					"type": "function"
				},
				{
					"inputs": [
						{
							"internalType": "address",
							"name": "_subjectAddr",
							"type": "address"
						}
					],
					"name": "getSubjInfo",
					"outputs": [
						{
							"internalType": "string",
							"name": "subjName",
							"type": "string"
						},
						{
							"internalType": "string",
							"name": "ipAddr",
							"type": "string"
						}
					],
					"stateMutability": "view",
					"type": "function"
				},
				{
					"inputs": [],
					"name": "init",
					"outputs": [],
					"stateMutability": "nonpayable",
					"type": "function"
				},
				{
					"inputs": [
						{
							"internalType": "address",
							"name": "_deviceAddr",
							"type": "address"
						},
						{
							"internalType": "string",
							"name": "right",
							"type": "string"
						}
					],
					"name": "register4Right",
					"outputs": [],
					"stateMutability": "nonpayable",
					"type": "function"
				},
				{
					"inputs": [
						{
							"internalType": "address",
							"name": "_deviceAddr",
							"type": "address"
						},
						{
							"internalType": "string",
							"name": "_deviceName",
							"type": "string"
						},
						{
							"internalType": "string",
							"name": "_deviceType",
							"type": "string"
						}
					],
					"name": "setDeviceInfo",
					"outputs": [],
					"stateMutability": "nonpayable",
					"type": "function"
				},
				{
					"inputs": [
						{
							"internalType": "string",
							"name": "_subjectName",
							"type": "string"
						},
						{
							"internalType": "string",
							"name": "_ipAddr",
							"type": "string"
						}
					],
					"name": "setSubjInfo",
					"outputs": [],
					"stateMutability": "nonpayable",
					"type": "function"
				},
				{
					"inputs": [
						{
							"internalType": "address",
							"name": "",
							"type": "address"
						}
					],
					"name": "subjInfoMap",
					"outputs": [
						{
							"internalType": "address",
							"name": "subjectAddr",
							"type": "address"
						},
						{
							"internalType": "string",
							"name": "subjectName",
							"type": "string"
						},
						{
							"internalType": "string",
							"name": "ipAddr",
							"type": "string"
						}
					],
					"stateMutability": "view",
					"type": "function"
				},
				{
					"inputs": [
						{
							"internalType": "address",
							"name": "_sender",
							"type": "address"
						},
						{
							"internalType": "address",
							"name": "_deviceAddr",
							"type": "address"
						},
						{
							"internalType": "string",
							"name": "right",
							"type": "string"
						}
					],
					"name": "testRegister",
					"outputs": [],
					"stateMutability": "nonpayable",
					"type": "function"
				}
			],
			"devdoc": {
				"kind": "dev",
				"methods": {},
				"version": 1
			},
			"evm": {
				"assembly": "    /* \"contracts/Management.sol\":68:2982  contract Management {\r... */\n  mstore(0x40, 0x80)\n  callvalue\n  dup1\n  iszero\n  tag_1\n  jumpi\n  0x00\n  dup1\n  revert\ntag_1:\n  pop\n  dataSize(sub_0)\n  dup1\n  dataOffset(sub_0)\n  0x00\n  codecopy\n  0x00\n  return\nstop\n\nsub_0: assembly {\n        /* \"contracts/Management.sol\":68:2982  contract Management {\r... */\n      mstore(0x40, 0x80)\n      callvalue\n      dup1\n      iszero\n      tag_1\n      jumpi\n      0x00\n      dup1\n      revert\n    tag_1:\n      pop\n      jumpi(tag_2, lt(calldatasize, 0x04))\n      shr(0xe0, calldataload(0x00))\n      dup1\n      0x9f764d16\n      gt\n      tag_12\n      jumpi\n      dup1\n      0x9f764d16\n      eq\n      tag_7\n      jumpi\n      dup1\n      0xb9e0ad10\n      eq\n      tag_8\n      jumpi\n      dup1\n      0xde1e23b7\n      eq\n      tag_9\n      jumpi\n      dup1\n      0xe1c7392a\n      eq\n      tag_10\n      jumpi\n      dup1\n      0xf2c3c745\n      eq\n      tag_11\n      jumpi\n      jump(tag_2)\n    tag_12:\n      dup1\n      0x11ef4171\n      eq\n      tag_3\n      jumpi\n      dup1\n      0x5062278f\n      eq\n      tag_4\n      jumpi\n      dup1\n      0x6c477035\n      eq\n      tag_5\n      jumpi\n      dup1\n      0x8749774f\n      eq\n      tag_6\n      jumpi\n    tag_2:\n      0x00\n      dup1\n      revert\n        /* \"contracts/Management.sol\":1249:1477  function register4Right(address _deviceAddr, string memory right) public {\r... */\n    tag_3:\n      tag_13\n      0x04\n      dup1\n      calldatasize\n      sub\n      dup2\n      add\n      swap1\n      tag_14\n      swap2\n      swap1\n      tag_15\n      jump\t// in\n    tag_14:\n      tag_16\n      jump\t// in\n    tag_13:\n      stop\n        /* \"contracts/Management.sol\":2818:2977  function testRegister(address _sender, address _deviceAddr, string memory right) public {\r... */\n    tag_4:\n      tag_17\n      0x04\n      dup1\n      calldatasize\n      sub\n      dup2\n      add\n      swap1\n      tag_18\n      swap2\n      swap1\n      tag_19\n      jump\t// in\n    tag_18:\n      tag_20\n      jump\t// in\n    tag_17:\n      stop\n        /* \"contracts/Management.sol\":583:882  function setDeviceInfo(address _deviceAddr, string memory _deviceName, string memory _deviceType) public {\r... */\n    tag_5:\n      tag_21\n      0x04\n      dup1\n      calldatasize\n      sub\n      dup2\n      add\n      swap1\n      tag_22\n      swap2\n      swap1\n      tag_23\n      jump\t// in\n    tag_22:\n      tag_24\n      jump\t// in\n    tag_21:\n      stop\n        /* \"contracts/Management.sol\":1624:1796  function getRight(address _subjectAddr, address _objectAddr) public view returns (string memory) {\r... */\n    tag_6:\n      tag_25\n      0x04\n      dup1\n      calldatasize\n      sub\n      dup2\n      add\n      swap1\n      tag_26\n      swap2\n      swap1\n      tag_27\n      jump\t// in\n    tag_26:\n      tag_28\n      jump\t// in\n    tag_25:\n      mload(0x40)\n      tag_29\n      swap2\n      swap1\n      tag_30\n      jump\t// in\n    tag_29:\n      mload(0x40)\n      dup1\n      swap2\n      sub\n      swap1\n      return\n        /* \"contracts/Management.sol\":1804:2033  function getSubjInfo(address _subjectAddr) public view returns (string memory subjName, string memory ipAddr) {\r... */\n    tag_7:\n      tag_31\n      0x04\n      dup1\n      calldatasize\n      sub\n      dup2\n      add\n      swap1\n      tag_32\n      swap2\n      swap1\n      tag_33\n      jump\t// in\n    tag_32:\n      tag_34\n      jump\t// in\n    tag_31:\n      mload(0x40)\n      tag_35\n      swap3\n      swap2\n      swap1\n      tag_36\n      jump\t// in\n    tag_35:\n      mload(0x40)\n      dup1\n      swap2\n      sub\n      swap1\n      return\n        /* \"contracts/Management.sol\":527:574  mapping(address => SubjInfo) public subjInfoMap */\n    tag_8:\n      tag_37\n      0x04\n      dup1\n      calldatasize\n      sub\n      dup2\n      add\n      swap1\n      tag_38\n      swap2\n      swap1\n      tag_33\n      jump\t// in\n    tag_38:\n      tag_39\n      jump\t// in\n    tag_37:\n      mload(0x40)\n      tag_40\n      swap4\n      swap3\n      swap2\n      swap1\n      tag_41\n      jump\t// in\n    tag_40:\n      mload(0x40)\n      dup1\n      swap2\n      sub\n      swap1\n      return\n        /* \"contracts/Management.sol\":1486:1616  function getDeviceInfoByAddr(address _addr) public view returns (DeviceInfo memory) {\r... */\n    tag_9:\n      tag_42\n      0x04\n      dup1\n      calldatasize\n      sub\n      dup2\n      add\n      swap1\n      tag_43\n      swap2\n      swap1\n      tag_33\n      jump\t// in\n    tag_43:\n      tag_44\n      jump\t// in\n    tag_42:\n      mload(0x40)\n      tag_45\n      swap2\n      swap1\n      tag_46\n      jump\t// in\n    tag_45:\n      mload(0x40)\n      dup1\n      swap2\n      sub\n      swap1\n      return\n        /* \"contracts/Management.sol\":2068:2810  function init() public {\r... */\n    tag_10:\n      tag_47\n      tag_48\n      jump\t// in\n    tag_47:\n      stop\n        /* \"contracts/Management.sol\":890:1200  function setSubjInfo(string memory _subjectName, string memory _ipAddr) public {\r... */\n    tag_11:\n      tag_49\n      0x04\n      dup1\n      calldatasize\n      sub\n      dup2\n      add\n      swap1\n      tag_50\n      swap2\n      swap1\n      tag_51\n      jump\t// in\n    tag_50:\n      tag_52\n      jump\t// in\n    tag_49:\n      stop\n        /* \"contracts/Management.sol\":1249:1477  function register4Right(address _deviceAddr, string memory right) public {\r... */\n    tag_16:\n        /* \"contracts/Management.sol\":1464:1469  right */\n      dup1\n        /* \"contracts/Management.sol\":1414:1425  subjInfoMap */\n      0x01\n        /* \"contracts/Management.sol\":1414:1437  subjInfoMap[msg.sender] */\n      0x00\n        /* \"contracts/Management.sol\":1426:1436  msg.sender */\n      caller\n        /* \"contracts/Management.sol\":1414:1437  subjInfoMap[msg.sender] */\n      0xffffffffffffffffffffffffffffffffffffffff\n      and\n      0xffffffffffffffffffffffffffffffffffffffff\n      and\n      dup2\n      mstore\n      0x20\n      add\n      swap1\n      dup2\n      mstore\n      0x20\n      add\n      0x00\n      keccak256\n        /* \"contracts/Management.sol\":1414:1448  subjInfoMap[msg.sender].rightTable */\n      0x02\n      add\n        /* \"contracts/Management.sol\":1414:1461  subjInfoMap[msg.sender].rightTable[_deviceAddr] */\n      0x00\n        /* \"contracts/Management.sol\":1449:1460  _deviceAddr */\n      dup5\n        /* \"contracts/Management.sol\":1414:1461  subjInfoMap[msg.sender].rightTable[_deviceAddr] */\n      0xffffffffffffffffffffffffffffffffffffffff\n      and\n      0xffffffffffffffffffffffffffffffffffffffff\n      and\n      dup2\n      mstore\n      0x20\n      add\n      swap1\n      dup2\n      mstore\n      0x20\n      add\n      0x00\n      keccak256\n        /* \"contracts/Management.sol\":1414:1469  subjInfoMap[msg.sender].rightTable[_deviceAddr] = right */\n      swap1\n      dup1\n      mload\n      swap1\n      0x20\n      add\n      swap1\n      tag_54\n      swap3\n      swap2\n      swap1\n      tag_55\n      jump\t// in\n    tag_54:\n      pop\n        /* \"contracts/Management.sol\":1249:1477  function register4Right(address _deviceAddr, string memory right) public {\r... */\n      pop\n      pop\n      jump\t// out\n        /* \"contracts/Management.sol\":2818:2977  function testRegister(address _sender, address _deviceAddr, string memory right) public {\r... */\n    tag_20:\n        /* \"contracts/Management.sol\":2964:2969  right */\n      dup1\n        /* \"contracts/Management.sol\":2917:2928  subjInfoMap */\n      0x01\n        /* \"contracts/Management.sol\":2917:2937  subjInfoMap[_sender] */\n      0x00\n        /* \"contracts/Management.sol\":2929:2936  _sender */\n      dup6\n        /* \"contracts/Management.sol\":2917:2937  subjInfoMap[_sender] */\n      0xffffffffffffffffffffffffffffffffffffffff\n      and\n      0xffffffffffffffffffffffffffffffffffffffff\n      and\n      dup2\n      mstore\n      0x20\n      add\n      swap1\n      dup2\n      mstore\n      0x20\n      add\n      0x00\n      keccak256\n        /* \"contracts/Management.sol\":2917:2948  subjInfoMap[_sender].rightTable */\n      0x02\n      add\n        /* \"contracts/Management.sol\":2917:2961  subjInfoMap[_sender].rightTable[_deviceAddr] */\n      0x00\n        /* \"contracts/Management.sol\":2949:2960  _deviceAddr */\n      dup5\n        /* \"contracts/Management.sol\":2917:2961  subjInfoMap[_sender].rightTable[_deviceAddr] */\n      0xffffffffffffffffffffffffffffffffffffffff\n      and\n      0xffffffffffffffffffffffffffffffffffffffff\n      and\n      dup2\n      mstore\n      0x20\n      add\n      swap1\n      dup2\n      mstore\n      0x20\n      add\n      0x00\n      keccak256\n        /* \"contracts/Management.sol\":2917:2969  subjInfoMap[_sender].rightTable[_deviceAddr] = right */\n      swap1\n      dup1\n      mload\n      swap1\n      0x20\n      add\n      swap1\n      tag_57\n      swap3\n      swap2\n      swap1\n      tag_55\n      jump\t// in\n    tag_57:\n      pop\n        /* \"contracts/Management.sol\":2818:2977  function testRegister(address _sender, address _deviceAddr, string memory right) public {\r... */\n      pop\n      pop\n      pop\n      jump\t// out\n        /* \"contracts/Management.sol\":583:882  function setDeviceInfo(address _deviceAddr, string memory _deviceName, string memory _deviceType) public {\r... */\n    tag_24:\n        /* \"contracts/Management.sol\":739:750  _deviceAddr */\n      dup3\n        /* \"contracts/Management.sol\":699:712  deviceInfoMap */\n      0x00\n        /* \"contracts/Management.sol\":699:725  deviceInfoMap[_deviceAddr] */\n      dup1\n        /* \"contracts/Management.sol\":713:724  _deviceAddr */\n      dup6\n        /* \"contracts/Management.sol\":699:725  deviceInfoMap[_deviceAddr] */\n      0xffffffffffffffffffffffffffffffffffffffff\n      and\n      0xffffffffffffffffffffffffffffffffffffffff\n      and\n      dup2\n      mstore\n      0x20\n      add\n      swap1\n      dup2\n      mstore\n      0x20\n      add\n      0x00\n      keccak256\n        /* \"contracts/Management.sol\":699:736  deviceInfoMap[_deviceAddr].deviceAddr */\n      0x00\n      add\n      0x00\n        /* \"contracts/Management.sol\":699:750  deviceInfoMap[_deviceAddr].deviceAddr = _deviceAddr */\n      0x0100\n      exp\n      dup2\n      sload\n      dup2\n      0xffffffffffffffffffffffffffffffffffffffff\n      mul\n      not\n      and\n      swap1\n      dup4\n      0xffffffffffffffffffffffffffffffffffffffff\n      and\n      mul\n      or\n      swap1\n      sstore\n      pop\n        /* \"contracts/Management.sol\":801:812  _deviceName */\n      dup2\n        /* \"contracts/Management.sol\":761:774  deviceInfoMap */\n      0x00\n        /* \"contracts/Management.sol\":761:787  deviceInfoMap[_deviceAddr] */\n      dup1\n        /* \"contracts/Management.sol\":775:786  _deviceAddr */\n      dup6\n        /* \"contracts/Management.sol\":761:787  deviceInfoMap[_deviceAddr] */\n      0xffffffffffffffffffffffffffffffffffffffff\n      and\n      0xffffffffffffffffffffffffffffffffffffffff\n      and\n      dup2\n      mstore\n      0x20\n      add\n      swap1\n      dup2\n      mstore\n      0x20\n      add\n      0x00\n      keccak256\n        /* \"contracts/Management.sol\":761:798  deviceInfoMap[_deviceAddr].deviceName */\n      0x01\n      add\n        /* \"contracts/Management.sol\":761:812  deviceInfoMap[_deviceAddr].deviceName = _deviceName */\n      swap1\n      dup1\n      mload\n      swap1\n      0x20\n      add\n      swap1\n      tag_59\n      swap3\n      swap2\n      swap1\n      tag_55\n      jump\t// in\n    tag_59:\n      pop\n        /* \"contracts/Management.sol\":863:874  _deviceType */\n      dup1\n        /* \"contracts/Management.sol\":823:836  deviceInfoMap */\n      0x00\n        /* \"contracts/Management.sol\":823:849  deviceInfoMap[_deviceAddr] */\n      dup1\n        /* \"contracts/Management.sol\":837:848  _deviceAddr */\n      dup6\n        /* \"contracts/Management.sol\":823:849  deviceInfoMap[_deviceAddr] */\n      0xffffffffffffffffffffffffffffffffffffffff\n      and\n      0xffffffffffffffffffffffffffffffffffffffff\n      and\n      dup2\n      mstore\n      0x20\n      add\n      swap1\n      dup2\n      mstore\n      0x20\n      add\n      0x00\n      keccak256\n        /* \"contracts/Management.sol\":823:860  deviceInfoMap[_deviceAddr].deviceType */\n      0x02\n      add\n        /* \"contracts/Management.sol\":823:874  deviceInfoMap[_deviceAddr].deviceType = _deviceType */\n      swap1\n      dup1\n      mload\n      swap1\n      0x20\n      add\n      swap1\n      tag_60\n      swap3\n      swap2\n      swap1\n      tag_55\n      jump\t// in\n    tag_60:\n      pop\n        /* \"contracts/Management.sol\":583:882  function setDeviceInfo(address _deviceAddr, string memory _deviceName, string memory _deviceType) public {\r... */\n      pop\n      pop\n      pop\n      jump\t// out\n        /* \"contracts/Management.sol\":1624:1796  function getRight(address _subjectAddr, address _objectAddr) public view returns (string memory) {\r... */\n    tag_28:\n        /* \"contracts/Management.sol\":1706:1719  string memory */\n      0x60\n        /* \"contracts/Management.sol\":1739:1750  subjInfoMap */\n      0x01\n        /* \"contracts/Management.sol\":1739:1764  subjInfoMap[_subjectAddr] */\n      0x00\n        /* \"contracts/Management.sol\":1751:1763  _subjectAddr */\n      dup5\n        /* \"contracts/Management.sol\":1739:1764  subjInfoMap[_subjectAddr] */\n      0xffffffffffffffffffffffffffffffffffffffff\n      and\n      0xffffffffffffffffffffffffffffffffffffffff\n      and\n      dup2\n      mstore\n      0x20\n      add\n      swap1\n      dup2\n      mstore\n      0x20\n      add\n      0x00\n      keccak256\n        /* \"contracts/Management.sol\":1739:1775  subjInfoMap[_subjectAddr].rightTable */\n      0x02\n      add\n        /* \"contracts/Management.sol\":1739:1788  subjInfoMap[_subjectAddr].rightTable[_objectAddr] */\n      0x00\n        /* \"contracts/Management.sol\":1776:1787  _objectAddr */\n      dup4\n        /* \"contracts/Management.sol\":1739:1788  subjInfoMap[_subjectAddr].rightTable[_objectAddr] */\n      0xffffffffffffffffffffffffffffffffffffffff\n      and\n      0xffffffffffffffffffffffffffffffffffffffff\n      and\n      dup2\n      mstore\n      0x20\n      add\n      swap1\n      dup2\n      mstore\n      0x20\n      add\n      0x00\n      keccak256\n        /* \"contracts/Management.sol\":1732:1788  return subjInfoMap[_subjectAddr].rightTable[_objectAddr] */\n      dup1\n      sload\n      tag_62\n      swap1\n      tag_63\n      jump\t// in\n    tag_62:\n      dup1\n      0x1f\n      add\n      0x20\n      dup1\n      swap2\n      div\n      mul\n      0x20\n      add\n      mload(0x40)\n      swap1\n      dup2\n      add\n      0x40\n      mstore\n      dup1\n      swap3\n      swap2\n      swap1\n      dup2\n      dup2\n      mstore\n      0x20\n      add\n      dup3\n      dup1\n      sload\n      tag_64\n      swap1\n      tag_63\n      jump\t// in\n    tag_64:\n      dup1\n      iszero\n      tag_65\n      jumpi\n      dup1\n      0x1f\n      lt\n      tag_66\n      jumpi\n      0x0100\n      dup1\n      dup4\n      sload\n      div\n      mul\n      dup4\n      mstore\n      swap2\n      0x20\n      add\n      swap2\n      jump(tag_65)\n    tag_66:\n      dup3\n      add\n      swap2\n      swap1\n      0x00\n      mstore\n      keccak256(0x00, 0x20)\n      swap1\n    tag_67:\n      dup2\n      sload\n      dup2\n      mstore\n      swap1\n      0x01\n      add\n      swap1\n      0x20\n      add\n      dup1\n      dup4\n      gt\n      tag_67\n      jumpi\n      dup3\n      swap1\n      sub\n      0x1f\n      and\n      dup3\n      add\n      swap2\n    tag_65:\n      pop\n      pop\n      pop\n      pop\n      pop\n      swap1\n      pop\n        /* \"contracts/Management.sol\":1624:1796  function getRight(address _subjectAddr, address _objectAddr) public view returns (string memory) {\r... */\n      swap3\n      swap2\n      pop\n      pop\n      jump\t// out\n        /* \"contracts/Management.sol\":1804:2033  function getSubjInfo(address _subjectAddr) public view returns (string memory subjName, string memory ipAddr) {\r... */\n    tag_34:\n        /* \"contracts/Management.sol\":1868:1890  string memory subjName */\n      0x60\n        /* \"contracts/Management.sol\":1892:1912  string memory ipAddr */\n      dup1\n        /* \"contracts/Management.sol\":1936:1947  subjInfoMap */\n      0x01\n        /* \"contracts/Management.sol\":1936:1961  subjInfoMap[_subjectAddr] */\n      0x00\n        /* \"contracts/Management.sol\":1948:1960  _subjectAddr */\n      dup5\n        /* \"contracts/Management.sol\":1936:1961  subjInfoMap[_subjectAddr] */\n      0xffffffffffffffffffffffffffffffffffffffff\n      and\n      0xffffffffffffffffffffffffffffffffffffffff\n      and\n      dup2\n      mstore\n      0x20\n      add\n      swap1\n      dup2\n      mstore\n      0x20\n      add\n      0x00\n      keccak256\n        /* \"contracts/Management.sol\":1936:1973  subjInfoMap[_subjectAddr].subjectName */\n      0x01\n      add\n        /* \"contracts/Management.sol\":1925:1973  subjName = subjInfoMap[_subjectAddr].subjectName */\n      dup1\n      sload\n      tag_69\n      swap1\n      tag_63\n      jump\t// in\n    tag_69:\n      dup1\n      0x1f\n      add\n      0x20\n      dup1\n      swap2\n      div\n      mul\n      0x20\n      add\n      mload(0x40)\n      swap1\n      dup2\n      add\n      0x40\n      mstore\n      dup1\n      swap3\n      swap2\n      swap1\n      dup2\n      dup2\n      mstore\n      0x20\n      add\n      dup3\n      dup1\n      sload\n      tag_70\n      swap1\n      tag_63\n      jump\t// in\n    tag_70:\n      dup1\n      iszero\n      tag_71\n      jumpi\n      dup1\n      0x1f\n      lt\n      tag_72\n      jumpi\n      0x0100\n      dup1\n      dup4\n      sload\n      div\n      mul\n      dup4\n      mstore\n      swap2\n      0x20\n      add\n      swap2\n      jump(tag_71)\n    tag_72:\n      dup3\n      add\n      swap2\n      swap1\n      0x00\n      mstore\n      keccak256(0x00, 0x20)\n      swap1\n    tag_73:\n      dup2\n      sload\n      dup2\n      mstore\n      swap1\n      0x01\n      add\n      swap1\n      0x20\n      add\n      dup1\n      dup4\n      gt\n      tag_73\n      jumpi\n      dup3\n      swap1\n      sub\n      0x1f\n      and\n      dup3\n      add\n      swap2\n    tag_71:\n      pop\n      pop\n      pop\n      pop\n      pop\n      swap2\n      pop\n        /* \"contracts/Management.sol\":1993:2004  subjInfoMap */\n      0x01\n        /* \"contracts/Management.sol\":1993:2018  subjInfoMap[_subjectAddr] */\n      0x00\n        /* \"contracts/Management.sol\":2005:2017  _subjectAddr */\n      dup5\n        /* \"contracts/Management.sol\":1993:2018  subjInfoMap[_subjectAddr] */\n      0xffffffffffffffffffffffffffffffffffffffff\n      and\n      0xffffffffffffffffffffffffffffffffffffffff\n      and\n      dup2\n      mstore\n      0x20\n      add\n      swap1\n      dup2\n      mstore\n      0x20\n      add\n      0x00\n      keccak256\n        /* \"contracts/Management.sol\":1993:2025  subjInfoMap[_subjectAddr].ipAddr */\n      0x03\n      add\n        /* \"contracts/Management.sol\":1984:2025  ipAddr = subjInfoMap[_subjectAddr].ipAddr */\n      dup1\n      sload\n      tag_74\n      swap1\n      tag_63\n      jump\t// in\n    tag_74:\n      dup1\n      0x1f\n      add\n      0x20\n      dup1\n      swap2\n      div\n      mul\n      0x20\n      add\n      mload(0x40)\n      swap1\n      dup2\n      add\n      0x40\n      mstore\n      dup1\n      swap3\n      swap2\n      swap1\n      dup2\n      dup2\n      mstore\n      0x20\n      add\n      dup3\n      dup1\n      sload\n      tag_75\n      swap1\n      tag_63\n      jump\t// in\n    tag_75:\n      dup1\n      iszero\n      tag_76\n      jumpi\n      dup1\n      0x1f\n      lt\n      tag_77\n      jumpi\n      0x0100\n      dup1\n      dup4\n      sload\n      div\n      mul\n      dup4\n      mstore\n      swap2\n      0x20\n      add\n      swap2\n      jump(tag_76)\n    tag_77:\n      dup3\n      add\n      swap2\n      swap1\n      0x00\n      mstore\n      keccak256(0x00, 0x20)\n      swap1\n    tag_78:\n      dup2\n      sload\n      dup2\n      mstore\n      swap1\n      0x01\n      add\n      swap1\n      0x20\n      add\n      dup1\n      dup4\n      gt\n      tag_78\n      jumpi\n      dup3\n      swap1\n      sub\n      0x1f\n      and\n      dup3\n      add\n      swap2\n    tag_76:\n      pop\n      pop\n      pop\n      pop\n      pop\n      swap1\n      pop\n        /* \"contracts/Management.sol\":1804:2033  function getSubjInfo(address _subjectAddr) public view returns (string memory subjName, string memory ipAddr) {\r... */\n      swap2\n      pop\n      swap2\n      jump\t// out\n        /* \"contracts/Management.sol\":527:574  mapping(address => SubjInfo) public subjInfoMap */\n    tag_39:\n      mstore(0x20, 0x01)\n      dup1\n      0x00\n      mstore\n      keccak256(0x00, 0x40)\n      0x00\n      swap2\n      pop\n      swap1\n      pop\n      dup1\n      0x00\n      add\n      0x00\n      swap1\n      sload\n      swap1\n      0x0100\n      exp\n      swap1\n      div\n      0xffffffffffffffffffffffffffffffffffffffff\n      and\n      swap1\n      dup1\n      0x01\n      add\n      dup1\n      sload\n      tag_79\n      swap1\n      tag_63\n      jump\t// in\n    tag_79:\n      dup1\n      0x1f\n      add\n      0x20\n      dup1\n      swap2\n      div\n      mul\n      0x20\n      add\n      mload(0x40)\n      swap1\n      dup2\n      add\n      0x40\n      mstore\n      dup1\n      swap3\n      swap2\n      swap1\n      dup2\n      dup2\n      mstore\n      0x20\n      add\n      dup3\n      dup1\n      sload\n      tag_80\n      swap1\n      tag_63\n      jump\t// in\n    tag_80:\n      dup1\n      iszero\n      tag_81\n      jumpi\n      dup1\n      0x1f\n      lt\n      tag_82\n      jumpi\n      0x0100\n      dup1\n      dup4\n      sload\n      div\n      mul\n      dup4\n      mstore\n      swap2\n      0x20\n      add\n      swap2\n      jump(tag_81)\n    tag_82:\n      dup3\n      add\n      swap2\n      swap1\n      0x00\n      mstore\n      keccak256(0x00, 0x20)\n      swap1\n    tag_83:\n      dup2\n      sload\n      dup2\n      mstore\n      swap1\n      0x01\n      add\n      swap1\n      0x20\n      add\n      dup1\n      dup4\n      gt\n      tag_83\n      jumpi\n      dup3\n      swap1\n      sub\n      0x1f\n      and\n      dup3\n      add\n      swap2\n    tag_81:\n      pop\n      pop\n      pop\n      pop\n      pop\n      swap1\n      dup1\n      0x03\n      add\n      dup1\n      sload\n      tag_84\n      swap1\n      tag_63\n      jump\t// in\n    tag_84:\n      dup1\n      0x1f\n      add\n      0x20\n      dup1\n      swap2\n      div\n      mul\n      0x20\n      add\n      mload(0x40)\n      swap1\n      dup2\n      add\n      0x40\n      mstore\n      dup1\n      swap3\n      swap2\n      swap1\n      dup2\n      dup2\n      mstore\n      0x20\n      add\n      dup3\n      dup1\n      sload\n      tag_85\n      swap1\n      tag_63\n      jump\t// in\n    tag_85:\n      dup1\n      iszero\n      tag_86\n      jumpi\n      dup1\n      0x1f\n      lt\n      tag_87\n      jumpi\n      0x0100\n      dup1\n      dup4\n      sload\n      div\n      mul\n      dup4\n      mstore\n      swap2\n      0x20\n      add\n      swap2\n      jump(tag_86)\n    tag_87:\n      dup3\n      add\n      swap2\n      swap1\n      0x00\n      mstore\n      keccak256(0x00, 0x20)\n      swap1\n    tag_88:\n      dup2\n      sload\n      dup2\n      mstore\n      swap1\n      0x01\n      add\n      swap1\n      0x20\n      add\n      dup1\n      dup4\n      gt\n      tag_88\n      jumpi\n      dup3\n      swap1\n      sub\n      0x1f\n      and\n      dup3\n      add\n      swap2\n    tag_86:\n      pop\n      pop\n      pop\n      pop\n      pop\n      swap1\n      pop\n      dup4\n      jump\t// out\n        /* \"contracts/Management.sol\":1486:1616  function getDeviceInfoByAddr(address _addr) public view returns (DeviceInfo memory) {\r... */\n    tag_44:\n        /* \"contracts/Management.sol\":1551:1568  DeviceInfo memory */\n      tag_89\n      tag_90\n      jump\t// in\n    tag_89:\n        /* \"contracts/Management.sol\":1588:1601  deviceInfoMap */\n      0x00\n        /* \"contracts/Management.sol\":1588:1608  deviceInfoMap[_addr] */\n      dup1\n        /* \"contracts/Management.sol\":1602:1607  _addr */\n      dup4\n        /* \"contracts/Management.sol\":1588:1608  deviceInfoMap[_addr] */\n      0xffffffffffffffffffffffffffffffffffffffff\n      and\n      0xffffffffffffffffffffffffffffffffffffffff\n      and\n      dup2\n      mstore\n      0x20\n      add\n      swap1\n      dup2\n      mstore\n      0x20\n      add\n      0x00\n      keccak256\n        /* \"contracts/Management.sol\":1581:1608  return deviceInfoMap[_addr] */\n      mload(0x40)\n      dup1\n      0x60\n      add\n      0x40\n      mstore\n      swap1\n      dup2\n      0x00\n      dup3\n      add\n      0x00\n      swap1\n      sload\n      swap1\n      0x0100\n      exp\n      swap1\n      div\n      0xffffffffffffffffffffffffffffffffffffffff\n      and\n      0xffffffffffffffffffffffffffffffffffffffff\n      and\n      0xffffffffffffffffffffffffffffffffffffffff\n      and\n      dup2\n      mstore\n      0x20\n      add\n      0x01\n      dup3\n      add\n      dup1\n      sload\n      tag_92\n      swap1\n      tag_63\n      jump\t// in\n    tag_92:\n      dup1\n      0x1f\n      add\n      0x20\n      dup1\n      swap2\n      div\n      mul\n      0x20\n      add\n      mload(0x40)\n      swap1\n      dup2\n      add\n      0x40\n      mstore\n      dup1\n      swap3\n      swap2\n      swap1\n      dup2\n      dup2\n      mstore\n      0x20\n      add\n      dup3\n      dup1\n      sload\n      tag_93\n      swap1\n      tag_63\n      jump\t// in\n    tag_93:\n      dup1\n      iszero\n      tag_94\n      jumpi\n      dup1\n      0x1f\n      lt\n      tag_95\n      jumpi\n      0x0100\n      dup1\n      dup4\n      sload\n      div\n      mul\n      dup4\n      mstore\n      swap2\n      0x20\n      add\n      swap2\n      jump(tag_94)\n    tag_95:\n      dup3\n      add\n      swap2\n      swap1\n      0x00\n      mstore\n      keccak256(0x00, 0x20)\n      swap1\n    tag_96:\n      dup2\n      sload\n      dup2\n      mstore\n      swap1\n      0x01\n      add\n      swap1\n      0x20\n      add\n      dup1\n      dup4\n      gt\n      tag_96\n      jumpi\n      dup3\n      swap1\n      sub\n      0x1f\n      and\n      dup3\n      add\n      swap2\n    tag_94:\n      pop\n      pop\n      pop\n      pop\n      pop\n      dup2\n      mstore\n      0x20\n      add\n      0x02\n      dup3\n      add\n      dup1\n      sload\n      tag_97\n      swap1\n      tag_63\n      jump\t// in\n    tag_97:\n      dup1\n      0x1f\n      add\n      0x20\n      dup1\n      swap2\n      div\n      mul\n      0x20\n      add\n      mload(0x40)\n      swap1\n      dup2\n      add\n      0x40\n      mstore\n      dup1\n      swap3\n      swap2\n      swap1\n      dup2\n      dup2\n      mstore\n      0x20\n      add\n      dup3\n      dup1\n      sload\n      tag_98\n      swap1\n      tag_63\n      jump\t// in\n    tag_98:\n      dup1\n      iszero\n      tag_99\n      jumpi\n      dup1\n      0x1f\n      lt\n      tag_100\n      jumpi\n      0x0100\n      dup1\n      dup4\n      sload\n      div\n      mul\n      dup4\n      mstore\n      swap2\n      0x20\n      add\n      swap2\n      jump(tag_99)\n    tag_100:\n      dup3\n      add\n      swap2\n      swap1\n      0x00\n      mstore\n      keccak256(0x00, 0x20)\n      swap1\n    tag_101:\n      dup2\n      sload\n      dup2\n      mstore\n      swap1\n      0x01\n      add\n      swap1\n      0x20\n      add\n      dup1\n      dup4\n      gt\n      tag_101\n      jumpi\n      dup3\n      swap1\n      sub\n      0x1f\n      and\n      dup3\n      add\n      swap2\n    tag_99:\n      pop\n      pop\n      pop\n      pop\n      pop\n      dup2\n      mstore\n      pop\n      pop\n      swap1\n      pop\n        /* \"contracts/Management.sol\":1486:1616  function getDeviceInfoByAddr(address _addr) public view returns (DeviceInfo memory) {\r... */\n      swap2\n      swap1\n      pop\n      jump\t// out\n        /* \"contracts/Management.sol\":2068:2810  function init() public {\r... */\n    tag_48:\n        /* \"contracts/Management.sol\":2126:2141  address device1 */\n      0x00\n        /* \"contracts/Management.sol\":2152:2167  address device2 */\n      dup1\n        /* \"contracts/Management.sol\":2178:2193  address device3 */\n      0x00\n        /* \"contracts/Management.sol\":2235:2277  0xb4d18d483b641200Aa096558C9bA63aeb243002b */\n      0xb4d18d483b641200aa096558c9ba63aeb243002b\n        /* \"contracts/Management.sol\":2289:2331  0xfF5d2fe96548E05E49C67FcC36C7dBecA2f501f2 */\n      0xff5d2fe96548e05e49c67fcc36c7dbeca2f501f2\n        /* \"contracts/Management.sol\":2333:2375  0xbE7186f383961Cc24Ad8012A2F2942667a72788F */\n      0xbe7186f383961cc24ad8012a2f2942667a72788f\n        /* \"contracts/Management.sol\":2204:2376  (device1, device2, device3) = (0xb4d18d483b641200Aa096558C9bA63aeb243002b, \r... */\n      dup1\n      swap4\n      pop\n      dup2\n      swap5\n      pop\n      dup3\n      swap6\n      pop\n      pop\n      pop\n      pop\n        /* \"contracts/Management.sol\":2387:2428  setDeviceInfo(device1, \"d1\", \"lightning\") */\n      tag_103\n        /* \"contracts/Management.sol\":2401:2408  device1 */\n      dup4\n        /* \"contracts/Management.sol\":2387:2428  setDeviceInfo(device1, \"d1\", \"lightning\") */\n      mload(0x40)\n      dup1\n      0x40\n      add\n      0x40\n      mstore\n      dup1\n      0x02\n      dup2\n      mstore\n      0x20\n      add\n      0x6431000000000000000000000000000000000000000000000000000000000000\n      dup2\n      mstore\n      pop\n      mload(0x40)\n      dup1\n      0x40\n      add\n      0x40\n      mstore\n      dup1\n      0x09\n      dup2\n      mstore\n      0x20\n      add\n      0x6c696768746e696e670000000000000000000000000000000000000000000000\n      dup2\n      mstore\n      pop\n        /* \"contracts/Management.sol\":2387:2400  setDeviceInfo */\n      tag_24\n        /* \"contracts/Management.sol\":2387:2428  setDeviceInfo(device1, \"d1\", \"lightning\") */\n      jump\t// in\n    tag_103:\n        /* \"contracts/Management.sol\":2439:2475  setDeviceInfo(device2, \"d2\", \"grid\") */\n      tag_104\n        /* \"contracts/Management.sol\":2453:2460  device2 */\n      dup3\n        /* \"contracts/Management.sol\":2439:2475  setDeviceInfo(device2, \"d2\", \"grid\") */\n      mload(0x40)\n      dup1\n      0x40\n      add\n      0x40\n      mstore\n      dup1\n      0x02\n      dup2\n      mstore\n      0x20\n      add\n      0x6432000000000000000000000000000000000000000000000000000000000000\n      dup2\n      mstore\n      pop\n      mload(0x40)\n      dup1\n      0x40\n      add\n      0x40\n      mstore\n      dup1\n      0x04\n      dup2\n      mstore\n      0x20\n      add\n      0x6772696400000000000000000000000000000000000000000000000000000000\n      dup2\n      mstore\n      pop\n        /* \"contracts/Management.sol\":2439:2452  setDeviceInfo */\n      tag_24\n        /* \"contracts/Management.sol\":2439:2475  setDeviceInfo(device2, \"d2\", \"grid\") */\n      jump\t// in\n    tag_104:\n        /* \"contracts/Management.sol\":2486:2524  setDeviceInfo(device3, \"d3\", \"router\") */\n      tag_105\n        /* \"contracts/Management.sol\":2500:2507  device3 */\n      dup2\n        /* \"contracts/Management.sol\":2486:2524  setDeviceInfo(device3, \"d3\", \"router\") */\n      mload(0x40)\n      dup1\n      0x40\n      add\n      0x40\n      mstore\n      dup1\n      0x02\n      dup2\n      mstore\n      0x20\n      add\n      0x6433000000000000000000000000000000000000000000000000000000000000\n      dup2\n      mstore\n      pop\n      mload(0x40)\n      dup1\n      0x40\n      add\n      0x40\n      mstore\n      dup1\n      0x06\n      dup2\n      mstore\n      0x20\n      add\n      0x726f757465720000000000000000000000000000000000000000000000000000\n      dup2\n      mstore\n      pop\n        /* \"contracts/Management.sol\":2486:2499  setDeviceInfo */\n      tag_24\n        /* \"contracts/Management.sol\":2486:2524  setDeviceInfo(device3, \"d3\", \"router\") */\n      jump\t// in\n    tag_105:\n        /* \"contracts/Management.sol\":2562:2575  address subj1 */\n      0x00\n        /* \"contracts/Management.sol\":2586:2599  address subj2 */\n      dup1\n        /* \"contracts/Management.sol\":2610:2623  address subj3 */\n      0x00\n        /* \"contracts/Management.sol\":2659:2701  0x5B38Da6a701c568545dCfcB03FcB875f56beddC4 */\n      0x5b38da6a701c568545dcfcb03fcb875f56beddc4\n        /* \"contracts/Management.sol\":2713:2755  0xAb8483F64d9C6d1EcF9b849Ae677dD3315835cb2 */\n      0xab8483f64d9c6d1ecf9b849ae677dd3315835cb2\n        /* \"contracts/Management.sol\":2757:2799  0x4B20993Bc481177ec7E8f571ceCaE8A9e22C02db */\n      0x4b20993bc481177ec7e8f571cecae8a9e22c02db\n        /* \"contracts/Management.sol\":2634:2800  (subj1, subj2, subj3) = (0x5B38Da6a701c568545dCfcB03FcB875f56beddC4, \r... */\n      dup1\n      swap4\n      pop\n      dup2\n      swap5\n      pop\n      dup3\n      swap6\n      pop\n      pop\n      pop\n      pop\n        /* \"contracts/Management.sol\":2091:2810  {\r... */\n      pop\n      pop\n      pop\n      pop\n      pop\n      pop\n        /* \"contracts/Management.sol\":2068:2810  function init() public {\r... */\n      jump\t// out\n        /* \"contracts/Management.sol\":890:1200  function setSubjInfo(string memory _subjectName, string memory _ipAddr) public {\r... */\n    tag_52:\n        /* \"contracts/Management.sol\":980:1000  address _subjectAddr */\n      0x00\n        /* \"contracts/Management.sol\":1003:1013  msg.sender */\n      caller\n        /* \"contracts/Management.sol\":980:1013  address _subjectAddr = msg.sender */\n      swap1\n      pop\n        /* \"contracts/Management.sol\":1064:1076  _subjectAddr */\n      dup1\n        /* \"contracts/Management.sol\":1024:1035  subjInfoMap */\n      0x01\n        /* \"contracts/Management.sol\":1024:1049  subjInfoMap[_subjectAddr] */\n      0x00\n        /* \"contracts/Management.sol\":1036:1048  _subjectAddr */\n      dup4\n        /* \"contracts/Management.sol\":1024:1049  subjInfoMap[_subjectAddr] */\n      0xffffffffffffffffffffffffffffffffffffffff\n      and\n      0xffffffffffffffffffffffffffffffffffffffff\n      and\n      dup2\n      mstore\n      0x20\n      add\n      swap1\n      dup2\n      mstore\n      0x20\n      add\n      0x00\n      keccak256\n        /* \"contracts/Management.sol\":1024:1061  subjInfoMap[_subjectAddr].subjectAddr */\n      0x00\n      add\n      0x00\n        /* \"contracts/Management.sol\":1024:1076  subjInfoMap[_subjectAddr].subjectAddr = _subjectAddr */\n      0x0100\n      exp\n      dup2\n      sload\n      dup2\n      0xffffffffffffffffffffffffffffffffffffffff\n      mul\n      not\n      and\n      swap1\n      dup4\n      0xffffffffffffffffffffffffffffffffffffffff\n      and\n      mul\n      or\n      swap1\n      sstore\n      pop\n        /* \"contracts/Management.sol\":1127:1139  _subjectName */\n      dup3\n        /* \"contracts/Management.sol\":1087:1098  subjInfoMap */\n      0x01\n        /* \"contracts/Management.sol\":1087:1112  subjInfoMap[_subjectAddr] */\n      0x00\n        /* \"contracts/Management.sol\":1099:1111  _subjectAddr */\n      dup4\n        /* \"contracts/Management.sol\":1087:1112  subjInfoMap[_subjectAddr] */\n      0xffffffffffffffffffffffffffffffffffffffff\n      and\n      0xffffffffffffffffffffffffffffffffffffffff\n      and\n      dup2\n      mstore\n      0x20\n      add\n      swap1\n      dup2\n      mstore\n      0x20\n      add\n      0x00\n      keccak256\n        /* \"contracts/Management.sol\":1087:1124  subjInfoMap[_subjectAddr].subjectName */\n      0x01\n      add\n        /* \"contracts/Management.sol\":1087:1139  subjInfoMap[_subjectAddr].subjectName = _subjectName */\n      swap1\n      dup1\n      mload\n      swap1\n      0x20\n      add\n      swap1\n      tag_107\n      swap3\n      swap2\n      swap1\n      tag_55\n      jump\t// in\n    tag_107:\n      pop\n        /* \"contracts/Management.sol\":1185:1192  _ipAddr */\n      dup2\n        /* \"contracts/Management.sol\":1150:1161  subjInfoMap */\n      0x01\n        /* \"contracts/Management.sol\":1150:1175  subjInfoMap[_subjectAddr] */\n      0x00\n        /* \"contracts/Management.sol\":1162:1174  _subjectAddr */\n      dup4\n        /* \"contracts/Management.sol\":1150:1175  subjInfoMap[_subjectAddr] */\n      0xffffffffffffffffffffffffffffffffffffffff\n      and\n      0xffffffffffffffffffffffffffffffffffffffff\n      and\n      dup2\n      mstore\n      0x20\n      add\n      swap1\n      dup2\n      mstore\n      0x20\n      add\n      0x00\n      keccak256\n        /* \"contracts/Management.sol\":1150:1182  subjInfoMap[_subjectAddr].ipAddr */\n      0x03\n      add\n        /* \"contracts/Management.sol\":1150:1192  subjInfoMap[_subjectAddr].ipAddr = _ipAddr */\n      swap1\n      dup1\n      mload\n      swap1\n      0x20\n      add\n      swap1\n      tag_108\n      swap3\n      swap2\n      swap1\n      tag_55\n      jump\t// in\n    tag_108:\n      pop\n        /* \"contracts/Management.sol\":969:1200  {\r... */\n      pop\n        /* \"contracts/Management.sol\":890:1200  function setSubjInfo(string memory _subjectName, string memory _ipAddr) public {\r... */\n      pop\n      pop\n      jump\t// out\n    tag_55:\n      dup3\n      dup1\n      sload\n      tag_109\n      swap1\n      tag_63\n      jump\t// in\n    tag_109:\n      swap1\n      0x00\n      mstore\n      keccak256(0x00, 0x20)\n      swap1\n      0x1f\n      add\n      0x20\n      swap1\n      div\n      dup2\n      add\n      swap3\n      dup3\n      tag_111\n      jumpi\n      0x00\n      dup6\n      sstore\n      jump(tag_110)\n    tag_111:\n      dup3\n      0x1f\n      lt\n      tag_112\n      jumpi\n      dup1\n      mload\n      not(0xff)\n      and\n      dup4\n      dup1\n      add\n      or\n      dup6\n      sstore\n      jump(tag_110)\n    tag_112:\n      dup3\n      dup1\n      add\n      0x01\n      add\n      dup6\n      sstore\n      dup3\n      iszero\n      tag_110\n      jumpi\n      swap2\n      dup3\n      add\n    tag_113:\n      dup3\n      dup2\n      gt\n      iszero\n      tag_114\n      jumpi\n      dup3\n      mload\n      dup3\n      sstore\n      swap2\n      0x20\n      add\n      swap2\n      swap1\n      0x01\n      add\n      swap1\n      jump(tag_113)\n    tag_114:\n    tag_110:\n      pop\n      swap1\n      pop\n      tag_115\n      swap2\n      swap1\n      tag_116\n      jump\t// in\n    tag_115:\n      pop\n      swap1\n      jump\t// out\n    tag_90:\n      mload(0x40)\n      dup1\n      0x60\n      add\n      0x40\n      mstore\n      dup1\n      and(0xffffffffffffffffffffffffffffffffffffffff, 0x00)\n      dup2\n      mstore\n      0x20\n      add\n      0x60\n      dup2\n      mstore\n      0x20\n      add\n      0x60\n      dup2\n      mstore\n      pop\n      swap1\n      jump\t// out\n    tag_116:\n    tag_117:\n      dup1\n      dup3\n      gt\n      iszero\n      tag_118\n      jumpi\n      0x00\n      dup2\n      0x00\n      swap1\n      sstore\n      pop\n      0x01\n      add\n      jump(tag_117)\n    tag_118:\n      pop\n      swap1\n      jump\t// out\n        /* \"#utility.yul\":7:419   */\n    tag_120:\n        /* \"#utility.yul\":85:90   */\n      0x00\n        /* \"#utility.yul\":110:176   */\n      tag_122\n        /* \"#utility.yul\":126:175   */\n      tag_123\n        /* \"#utility.yul\":168:174   */\n      dup5\n        /* \"#utility.yul\":126:175   */\n      tag_124\n      jump\t// in\n    tag_123:\n        /* \"#utility.yul\":110:176   */\n      tag_125\n      jump\t// in\n    tag_122:\n        /* \"#utility.yul\":101:176   */\n      swap1\n      pop\n        /* \"#utility.yul\":199:205   */\n      dup3\n        /* \"#utility.yul\":192:197   */\n      dup2\n        /* \"#utility.yul\":185:206   */\n      mstore\n        /* \"#utility.yul\":237:241   */\n      0x20\n        /* \"#utility.yul\":230:235   */\n      dup2\n        /* \"#utility.yul\":226:242   */\n      add\n        /* \"#utility.yul\":275:278   */\n      dup5\n        /* \"#utility.yul\":266:272   */\n      dup5\n        /* \"#utility.yul\":261:264   */\n      dup5\n        /* \"#utility.yul\":257:273   */\n      add\n        /* \"#utility.yul\":254:279   */\n      gt\n        /* \"#utility.yul\":251:363   */\n      iszero\n      tag_126\n      jumpi\n        /* \"#utility.yul\":282:361   */\n      tag_127\n      tag_128\n      jump\t// in\n    tag_127:\n        /* \"#utility.yul\":251:363   */\n    tag_126:\n        /* \"#utility.yul\":372:413   */\n      tag_129\n        /* \"#utility.yul\":406:412   */\n      dup5\n        /* \"#utility.yul\":401:404   */\n      dup3\n        /* \"#utility.yul\":396:399   */\n      dup6\n        /* \"#utility.yul\":372:413   */\n      tag_130\n      jump\t// in\n    tag_129:\n        /* \"#utility.yul\":91:419   */\n      pop\n        /* \"#utility.yul\":7:419   */\n      swap4\n      swap3\n      pop\n      pop\n      pop\n      jump\t// out\n        /* \"#utility.yul\":425:564   */\n    tag_131:\n        /* \"#utility.yul\":471:476   */\n      0x00\n        /* \"#utility.yul\":509:515   */\n      dup2\n        /* \"#utility.yul\":496:516   */\n      calldataload\n        /* \"#utility.yul\":487:516   */\n      swap1\n      pop\n        /* \"#utility.yul\":525:558   */\n      tag_133\n        /* \"#utility.yul\":552:557   */\n      dup2\n        /* \"#utility.yul\":525:558   */\n      tag_134\n      jump\t// in\n    tag_133:\n        /* \"#utility.yul\":425:564   */\n      swap3\n      swap2\n      pop\n      pop\n      jump\t// out\n        /* \"#utility.yul\":584:924   */\n    tag_135:\n        /* \"#utility.yul\":640:645   */\n      0x00\n        /* \"#utility.yul\":689:692   */\n      dup3\n        /* \"#utility.yul\":682:686   */\n      0x1f\n        /* \"#utility.yul\":674:680   */\n      dup4\n        /* \"#utility.yul\":670:687   */\n      add\n        /* \"#utility.yul\":666:693   */\n      slt\n        /* \"#utility.yul\":656:778   */\n      tag_137\n      jumpi\n        /* \"#utility.yul\":697:776   */\n      tag_138\n      tag_139\n      jump\t// in\n    tag_138:\n        /* \"#utility.yul\":656:778   */\n    tag_137:\n        /* \"#utility.yul\":814:820   */\n      dup2\n        /* \"#utility.yul\":801:821   */\n      calldataload\n        /* \"#utility.yul\":839:918   */\n      tag_140\n        /* \"#utility.yul\":914:917   */\n      dup5\n        /* \"#utility.yul\":906:912   */\n      dup3\n        /* \"#utility.yul\":899:903   */\n      0x20\n        /* \"#utility.yul\":891:897   */\n      dup7\n        /* \"#utility.yul\":887:904   */\n      add\n        /* \"#utility.yul\":839:918   */\n      tag_120\n      jump\t// in\n    tag_140:\n        /* \"#utility.yul\":830:918   */\n      swap2\n      pop\n        /* \"#utility.yul\":646:924   */\n      pop\n        /* \"#utility.yul\":584:924   */\n      swap3\n      swap2\n      pop\n      pop\n      jump\t// out\n        /* \"#utility.yul\":930:1259   */\n    tag_33:\n        /* \"#utility.yul\":989:995   */\n      0x00\n        /* \"#utility.yul\":1038:1040   */\n      0x20\n        /* \"#utility.yul\":1026:1035   */\n      dup3\n        /* \"#utility.yul\":1017:1024   */\n      dup5\n        /* \"#utility.yul\":1013:1036   */\n      sub\n        /* \"#utility.yul\":1009:1041   */\n      slt\n        /* \"#utility.yul\":1006:1125   */\n      iszero\n      tag_142\n      jumpi\n        /* \"#utility.yul\":1044:1123   */\n      tag_143\n      tag_144\n      jump\t// in\n    tag_143:\n        /* \"#utility.yul\":1006:1125   */\n    tag_142:\n        /* \"#utility.yul\":1164:1165   */\n      0x00\n        /* \"#utility.yul\":1189:1242   */\n      tag_145\n        /* \"#utility.yul\":1234:1241   */\n      dup5\n        /* \"#utility.yul\":1225:1231   */\n      dup3\n        /* \"#utility.yul\":1214:1223   */\n      dup6\n        /* \"#utility.yul\":1210:1232   */\n      add\n        /* \"#utility.yul\":1189:1242   */\n      tag_131\n      jump\t// in\n    tag_145:\n        /* \"#utility.yul\":1179:1242   */\n      swap2\n      pop\n        /* \"#utility.yul\":1135:1252   */\n      pop\n        /* \"#utility.yul\":930:1259   */\n      swap3\n      swap2\n      pop\n      pop\n      jump\t// out\n        /* \"#utility.yul\":1265:1739   */\n    tag_27:\n        /* \"#utility.yul\":1333:1339   */\n      0x00\n        /* \"#utility.yul\":1341:1347   */\n      dup1\n        /* \"#utility.yul\":1390:1392   */\n      0x40\n        /* \"#utility.yul\":1378:1387   */\n      dup4\n        /* \"#utility.yul\":1369:1376   */\n      dup6\n        /* \"#utility.yul\":1365:1388   */\n      sub\n        /* \"#utility.yul\":1361:1393   */\n      slt\n        /* \"#utility.yul\":1358:1477   */\n      iszero\n      tag_147\n      jumpi\n        /* \"#utility.yul\":1396:1475   */\n      tag_148\n      tag_144\n      jump\t// in\n    tag_148:\n        /* \"#utility.yul\":1358:1477   */\n    tag_147:\n        /* \"#utility.yul\":1516:1517   */\n      0x00\n        /* \"#utility.yul\":1541:1594   */\n      tag_149\n        /* \"#utility.yul\":1586:1593   */\n      dup6\n        /* \"#utility.yul\":1577:1583   */\n      dup3\n        /* \"#utility.yul\":1566:1575   */\n      dup7\n        /* \"#utility.yul\":1562:1584   */\n      add\n        /* \"#utility.yul\":1541:1594   */\n      tag_131\n      jump\t// in\n    tag_149:\n        /* \"#utility.yul\":1531:1594   */\n      swap3\n      pop\n        /* \"#utility.yul\":1487:1604   */\n      pop\n        /* \"#utility.yul\":1643:1645   */\n      0x20\n        /* \"#utility.yul\":1669:1722   */\n      tag_150\n        /* \"#utility.yul\":1714:1721   */\n      dup6\n        /* \"#utility.yul\":1705:1711   */\n      dup3\n        /* \"#utility.yul\":1694:1703   */\n      dup7\n        /* \"#utility.yul\":1690:1712   */\n      add\n        /* \"#utility.yul\":1669:1722   */\n      tag_131\n      jump\t// in\n    tag_150:\n        /* \"#utility.yul\":1659:1722   */\n      swap2\n      pop\n        /* \"#utility.yul\":1614:1732   */\n      pop\n        /* \"#utility.yul\":1265:1739   */\n      swap3\n      pop\n      swap3\n      swap1\n      pop\n      jump\t// out\n        /* \"#utility.yul\":1745:2544   */\n    tag_19:\n        /* \"#utility.yul\":1832:1838   */\n      0x00\n        /* \"#utility.yul\":1840:1846   */\n      dup1\n        /* \"#utility.yul\":1848:1854   */\n      0x00\n        /* \"#utility.yul\":1897:1899   */\n      0x60\n        /* \"#utility.yul\":1885:1894   */\n      dup5\n        /* \"#utility.yul\":1876:1883   */\n      dup7\n        /* \"#utility.yul\":1872:1895   */\n      sub\n        /* \"#utility.yul\":1868:1900   */\n      slt\n        /* \"#utility.yul\":1865:1984   */\n      iszero\n      tag_152\n      jumpi\n        /* \"#utility.yul\":1903:1982   */\n      tag_153\n      tag_144\n      jump\t// in\n    tag_153:\n        /* \"#utility.yul\":1865:1984   */\n    tag_152:\n        /* \"#utility.yul\":2023:2024   */\n      0x00\n        /* \"#utility.yul\":2048:2101   */\n      tag_154\n        /* \"#utility.yul\":2093:2100   */\n      dup7\n        /* \"#utility.yul\":2084:2090   */\n      dup3\n        /* \"#utility.yul\":2073:2082   */\n      dup8\n        /* \"#utility.yul\":2069:2091   */\n      add\n        /* \"#utility.yul\":2048:2101   */\n      tag_131\n      jump\t// in\n    tag_154:\n        /* \"#utility.yul\":2038:2101   */\n      swap4\n      pop\n        /* \"#utility.yul\":1994:2111   */\n      pop\n        /* \"#utility.yul\":2150:2152   */\n      0x20\n        /* \"#utility.yul\":2176:2229   */\n      tag_155\n        /* \"#utility.yul\":2221:2228   */\n      dup7\n        /* \"#utility.yul\":2212:2218   */\n      dup3\n        /* \"#utility.yul\":2201:2210   */\n      dup8\n        /* \"#utility.yul\":2197:2219   */\n      add\n        /* \"#utility.yul\":2176:2229   */\n      tag_131\n      jump\t// in\n    tag_155:\n        /* \"#utility.yul\":2166:2229   */\n      swap3\n      pop\n        /* \"#utility.yul\":2121:2239   */\n      pop\n        /* \"#utility.yul\":2306:2308   */\n      0x40\n        /* \"#utility.yul\":2295:2304   */\n      dup5\n        /* \"#utility.yul\":2291:2309   */\n      add\n        /* \"#utility.yul\":2278:2310   */\n      calldataload\n        /* \"#utility.yul\":2337:2355   */\n      0xffffffffffffffff\n        /* \"#utility.yul\":2329:2335   */\n      dup2\n        /* \"#utility.yul\":2326:2356   */\n      gt\n        /* \"#utility.yul\":2323:2440   */\n      iszero\n      tag_156\n      jumpi\n        /* \"#utility.yul\":2359:2438   */\n      tag_157\n      tag_158\n      jump\t// in\n    tag_157:\n        /* \"#utility.yul\":2323:2440   */\n    tag_156:\n        /* \"#utility.yul\":2464:2527   */\n      tag_159\n        /* \"#utility.yul\":2519:2526   */\n      dup7\n        /* \"#utility.yul\":2510:2516   */\n      dup3\n        /* \"#utility.yul\":2499:2508   */\n      dup8\n        /* \"#utility.yul\":2495:2517   */\n      add\n        /* \"#utility.yul\":2464:2527   */\n      tag_135\n      jump\t// in\n    tag_159:\n        /* \"#utility.yul\":2454:2527   */\n      swap2\n      pop\n        /* \"#utility.yul\":2249:2537   */\n      pop\n        /* \"#utility.yul\":1745:2544   */\n      swap3\n      pop\n      swap3\n      pop\n      swap3\n      jump\t// out\n        /* \"#utility.yul\":2550:3204   */\n    tag_15:\n        /* \"#utility.yul\":2628:2634   */\n      0x00\n        /* \"#utility.yul\":2636:2642   */\n      dup1\n        /* \"#utility.yul\":2685:2687   */\n      0x40\n        /* \"#utility.yul\":2673:2682   */\n      dup4\n        /* \"#utility.yul\":2664:2671   */\n      dup6\n        /* \"#utility.yul\":2660:2683   */\n      sub\n        /* \"#utility.yul\":2656:2688   */\n      slt\n        /* \"#utility.yul\":2653:2772   */\n      iszero\n      tag_161\n      jumpi\n        /* \"#utility.yul\":2691:2770   */\n      tag_162\n      tag_144\n      jump\t// in\n    tag_162:\n        /* \"#utility.yul\":2653:2772   */\n    tag_161:\n        /* \"#utility.yul\":2811:2812   */\n      0x00\n        /* \"#utility.yul\":2836:2889   */\n      tag_163\n        /* \"#utility.yul\":2881:2888   */\n      dup6\n        /* \"#utility.yul\":2872:2878   */\n      dup3\n        /* \"#utility.yul\":2861:2870   */\n      dup7\n        /* \"#utility.yul\":2857:2879   */\n      add\n        /* \"#utility.yul\":2836:2889   */\n      tag_131\n      jump\t// in\n    tag_163:\n        /* \"#utility.yul\":2826:2889   */\n      swap3\n      pop\n        /* \"#utility.yul\":2782:2899   */\n      pop\n        /* \"#utility.yul\":2966:2968   */\n      0x20\n        /* \"#utility.yul\":2955:2964   */\n      dup4\n        /* \"#utility.yul\":2951:2969   */\n      add\n        /* \"#utility.yul\":2938:2970   */\n      calldataload\n        /* \"#utility.yul\":2997:3015   */\n      0xffffffffffffffff\n        /* \"#utility.yul\":2989:2995   */\n      dup2\n        /* \"#utility.yul\":2986:3016   */\n      gt\n        /* \"#utility.yul\":2983:3100   */\n      iszero\n      tag_164\n      jumpi\n        /* \"#utility.yul\":3019:3098   */\n      tag_165\n      tag_158\n      jump\t// in\n    tag_165:\n        /* \"#utility.yul\":2983:3100   */\n    tag_164:\n        /* \"#utility.yul\":3124:3187   */\n      tag_166\n        /* \"#utility.yul\":3179:3186   */\n      dup6\n        /* \"#utility.yul\":3170:3176   */\n      dup3\n        /* \"#utility.yul\":3159:3168   */\n      dup7\n        /* \"#utility.yul\":3155:3177   */\n      add\n        /* \"#utility.yul\":3124:3187   */\n      tag_135\n      jump\t// in\n    tag_166:\n        /* \"#utility.yul\":3114:3187   */\n      swap2\n      pop\n        /* \"#utility.yul\":2909:3197   */\n      pop\n        /* \"#utility.yul\":2550:3204   */\n      swap3\n      pop\n      swap3\n      swap1\n      pop\n      jump\t// out\n        /* \"#utility.yul\":3210:4189   */\n    tag_23:\n        /* \"#utility.yul\":3307:3313   */\n      0x00\n        /* \"#utility.yul\":3315:3321   */\n      dup1\n        /* \"#utility.yul\":3323:3329   */\n      0x00\n        /* \"#utility.yul\":3372:3374   */\n      0x60\n        /* \"#utility.yul\":3360:3369   */\n      dup5\n        /* \"#utility.yul\":3351:3358   */\n      dup7\n        /* \"#utility.yul\":3347:3370   */\n      sub\n        /* \"#utility.yul\":3343:3375   */\n      slt\n        /* \"#utility.yul\":3340:3459   */\n      iszero\n      tag_168\n      jumpi\n        /* \"#utility.yul\":3378:3457   */\n      tag_169\n      tag_144\n      jump\t// in\n    tag_169:\n        /* \"#utility.yul\":3340:3459   */\n    tag_168:\n        /* \"#utility.yul\":3498:3499   */\n      0x00\n        /* \"#utility.yul\":3523:3576   */\n      tag_170\n        /* \"#utility.yul\":3568:3575   */\n      dup7\n        /* \"#utility.yul\":3559:3565   */\n      dup3\n        /* \"#utility.yul\":3548:3557   */\n      dup8\n        /* \"#utility.yul\":3544:3566   */\n      add\n        /* \"#utility.yul\":3523:3576   */\n      tag_131\n      jump\t// in\n    tag_170:\n        /* \"#utility.yul\":3513:3576   */\n      swap4\n      pop\n        /* \"#utility.yul\":3469:3586   */\n      pop\n        /* \"#utility.yul\":3653:3655   */\n      0x20\n        /* \"#utility.yul\":3642:3651   */\n      dup5\n        /* \"#utility.yul\":3638:3656   */\n      add\n        /* \"#utility.yul\":3625:3657   */\n      calldataload\n        /* \"#utility.yul\":3684:3702   */\n      0xffffffffffffffff\n        /* \"#utility.yul\":3676:3682   */\n      dup2\n        /* \"#utility.yul\":3673:3703   */\n      gt\n        /* \"#utility.yul\":3670:3787   */\n      iszero\n      tag_171\n      jumpi\n        /* \"#utility.yul\":3706:3785   */\n      tag_172\n      tag_158\n      jump\t// in\n    tag_172:\n        /* \"#utility.yul\":3670:3787   */\n    tag_171:\n        /* \"#utility.yul\":3811:3874   */\n      tag_173\n        /* \"#utility.yul\":3866:3873   */\n      dup7\n        /* \"#utility.yul\":3857:3863   */\n      dup3\n        /* \"#utility.yul\":3846:3855   */\n      dup8\n        /* \"#utility.yul\":3842:3864   */\n      add\n        /* \"#utility.yul\":3811:3874   */\n      tag_135\n      jump\t// in\n    tag_173:\n        /* \"#utility.yul\":3801:3874   */\n      swap3\n      pop\n        /* \"#utility.yul\":3596:3884   */\n      pop\n        /* \"#utility.yul\":3951:3953   */\n      0x40\n        /* \"#utility.yul\":3940:3949   */\n      dup5\n        /* \"#utility.yul\":3936:3954   */\n      add\n        /* \"#utility.yul\":3923:3955   */\n      calldataload\n        /* \"#utility.yul\":3982:4000   */\n      0xffffffffffffffff\n        /* \"#utility.yul\":3974:3980   */\n      dup2\n        /* \"#utility.yul\":3971:4001   */\n      gt\n        /* \"#utility.yul\":3968:4085   */\n      iszero\n      tag_174\n      jumpi\n        /* \"#utility.yul\":4004:4083   */\n      tag_175\n      tag_158\n      jump\t// in\n    tag_175:\n        /* \"#utility.yul\":3968:4085   */\n    tag_174:\n        /* \"#utility.yul\":4109:4172   */\n      tag_176\n        /* \"#utility.yul\":4164:4171   */\n      dup7\n        /* \"#utility.yul\":4155:4161   */\n      dup3\n        /* \"#utility.yul\":4144:4153   */\n      dup8\n        /* \"#utility.yul\":4140:4162   */\n      add\n        /* \"#utility.yul\":4109:4172   */\n      tag_135\n      jump\t// in\n    tag_176:\n        /* \"#utility.yul\":4099:4172   */\n      swap2\n      pop\n        /* \"#utility.yul\":3894:4182   */\n      pop\n        /* \"#utility.yul\":3210:4189   */\n      swap3\n      pop\n      swap3\n      pop\n      swap3\n      jump\t// out\n        /* \"#utility.yul\":4195:5029   */\n    tag_51:\n        /* \"#utility.yul\":4283:4289   */\n      0x00\n        /* \"#utility.yul\":4291:4297   */\n      dup1\n        /* \"#utility.yul\":4340:4342   */\n      0x40\n        /* \"#utility.yul\":4328:4337   */\n      dup4\n        /* \"#utility.yul\":4319:4326   */\n      dup6\n        /* \"#utility.yul\":4315:4338   */\n      sub\n        /* \"#utility.yul\":4311:4343   */\n      slt\n        /* \"#utility.yul\":4308:4427   */\n      iszero\n      tag_178\n      jumpi\n        /* \"#utility.yul\":4346:4425   */\n      tag_179\n      tag_144\n      jump\t// in\n    tag_179:\n        /* \"#utility.yul\":4308:4427   */\n    tag_178:\n        /* \"#utility.yul\":4494:4495   */\n      0x00\n        /* \"#utility.yul\":4483:4492   */\n      dup4\n        /* \"#utility.yul\":4479:4496   */\n      add\n        /* \"#utility.yul\":4466:4497   */\n      calldataload\n        /* \"#utility.yul\":4524:4542   */\n      0xffffffffffffffff\n        /* \"#utility.yul\":4516:4522   */\n      dup2\n        /* \"#utility.yul\":4513:4543   */\n      gt\n        /* \"#utility.yul\":4510:4627   */\n      iszero\n      tag_180\n      jumpi\n        /* \"#utility.yul\":4546:4625   */\n      tag_181\n      tag_158\n      jump\t// in\n    tag_181:\n        /* \"#utility.yul\":4510:4627   */\n    tag_180:\n        /* \"#utility.yul\":4651:4714   */\n      tag_182\n        /* \"#utility.yul\":4706:4713   */\n      dup6\n        /* \"#utility.yul\":4697:4703   */\n      dup3\n        /* \"#utility.yul\":4686:4695   */\n      dup7\n        /* \"#utility.yul\":4682:4704   */\n      add\n        /* \"#utility.yul\":4651:4714   */\n      tag_135\n      jump\t// in\n    tag_182:\n        /* \"#utility.yul\":4641:4714   */\n      swap3\n      pop\n        /* \"#utility.yul\":4437:4724   */\n      pop\n        /* \"#utility.yul\":4791:4793   */\n      0x20\n        /* \"#utility.yul\":4780:4789   */\n      dup4\n        /* \"#utility.yul\":4776:4794   */\n      add\n        /* \"#utility.yul\":4763:4795   */\n      calldataload\n        /* \"#utility.yul\":4822:4840   */\n      0xffffffffffffffff\n        /* \"#utility.yul\":4814:4820   */\n      dup2\n        /* \"#utility.yul\":4811:4841   */\n      gt\n        /* \"#utility.yul\":4808:4925   */\n      iszero\n      tag_183\n      jumpi\n        /* \"#utility.yul\":4844:4923   */\n      tag_184\n      tag_158\n      jump\t// in\n    tag_184:\n        /* \"#utility.yul\":4808:4925   */\n    tag_183:\n        /* \"#utility.yul\":4949:5012   */\n      tag_185\n        /* \"#utility.yul\":5004:5011   */\n      dup6\n        /* \"#utility.yul\":4995:5001   */\n      dup3\n        /* \"#utility.yul\":4984:4993   */\n      dup7\n        /* \"#utility.yul\":4980:5002   */\n      add\n        /* \"#utility.yul\":4949:5012   */\n      tag_135\n      jump\t// in\n    tag_185:\n        /* \"#utility.yul\":4939:5012   */\n      swap2\n      pop\n        /* \"#utility.yul\":4734:5022   */\n      pop\n        /* \"#utility.yul\":4195:5029   */\n      swap3\n      pop\n      swap3\n      swap1\n      pop\n      jump\t// out\n        /* \"#utility.yul\":5035:5143   */\n    tag_186:\n        /* \"#utility.yul\":5112:5136   */\n      tag_188\n        /* \"#utility.yul\":5130:5135   */\n      dup2\n        /* \"#utility.yul\":5112:5136   */\n      tag_189\n      jump\t// in\n    tag_188:\n        /* \"#utility.yul\":5107:5110   */\n      dup3\n        /* \"#utility.yul\":5100:5137   */\n      mstore\n        /* \"#utility.yul\":5035:5143   */\n      pop\n      pop\n      jump\t// out\n        /* \"#utility.yul\":5149:5267   */\n    tag_190:\n        /* \"#utility.yul\":5236:5260   */\n      tag_192\n        /* \"#utility.yul\":5254:5259   */\n      dup2\n        /* \"#utility.yul\":5236:5260   */\n      tag_189\n      jump\t// in\n    tag_192:\n        /* \"#utility.yul\":5231:5234   */\n      dup3\n        /* \"#utility.yul\":5224:5261   */\n      mstore\n        /* \"#utility.yul\":5149:5267   */\n      pop\n      pop\n      jump\t// out\n        /* \"#utility.yul\":5273:5617   */\n    tag_193:\n        /* \"#utility.yul\":5351:5354   */\n      0x00\n        /* \"#utility.yul\":5379:5418   */\n      tag_195\n        /* \"#utility.yul\":5412:5417   */\n      dup3\n        /* \"#utility.yul\":5379:5418   */\n      tag_196\n      jump\t// in\n    tag_195:\n        /* \"#utility.yul\":5434:5495   */\n      tag_197\n        /* \"#utility.yul\":5488:5494   */\n      dup2\n        /* \"#utility.yul\":5483:5486   */\n      dup6\n        /* \"#utility.yul\":5434:5495   */\n      tag_198\n      jump\t// in\n    tag_197:\n        /* \"#utility.yul\":5427:5495   */\n      swap4\n      pop\n        /* \"#utility.yul\":5504:5556   */\n      tag_199\n        /* \"#utility.yul\":5549:5555   */\n      dup2\n        /* \"#utility.yul\":5544:5547   */\n      dup6\n        /* \"#utility.yul\":5537:5541   */\n      0x20\n        /* \"#utility.yul\":5530:5535   */\n      dup7\n        /* \"#utility.yul\":5526:5542   */\n      add\n        /* \"#utility.yul\":5504:5556   */\n      tag_200\n      jump\t// in\n    tag_199:\n        /* \"#utility.yul\":5581:5610   */\n      tag_201\n        /* \"#utility.yul\":5603:5609   */\n      dup2\n        /* \"#utility.yul\":5581:5610   */\n      tag_202\n      jump\t// in\n    tag_201:\n        /* \"#utility.yul\":5576:5579   */\n      dup5\n        /* \"#utility.yul\":5572:5611   */\n      add\n        /* \"#utility.yul\":5565:5611   */\n      swap2\n      pop\n        /* \"#utility.yul\":5355:5617   */\n      pop\n        /* \"#utility.yul\":5273:5617   */\n      swap3\n      swap2\n      pop\n      pop\n      jump\t// out\n        /* \"#utility.yul\":5623:5987   */\n    tag_203:\n        /* \"#utility.yul\":5711:5714   */\n      0x00\n        /* \"#utility.yul\":5739:5778   */\n      tag_205\n        /* \"#utility.yul\":5772:5777   */\n      dup3\n        /* \"#utility.yul\":5739:5778   */\n      tag_196\n      jump\t// in\n    tag_205:\n        /* \"#utility.yul\":5794:5865   */\n      tag_206\n        /* \"#utility.yul\":5858:5864   */\n      dup2\n        /* \"#utility.yul\":5853:5856   */\n      dup6\n        /* \"#utility.yul\":5794:5865   */\n      tag_207\n      jump\t// in\n    tag_206:\n        /* \"#utility.yul\":5787:5865   */\n      swap4\n      pop\n        /* \"#utility.yul\":5874:5926   */\n      tag_208\n        /* \"#utility.yul\":5919:5925   */\n      dup2\n        /* \"#utility.yul\":5914:5917   */\n      dup6\n        /* \"#utility.yul\":5907:5911   */\n      0x20\n        /* \"#utility.yul\":5900:5905   */\n      dup7\n        /* \"#utility.yul\":5896:5912   */\n      add\n        /* \"#utility.yul\":5874:5926   */\n      tag_200\n      jump\t// in\n    tag_208:\n        /* \"#utility.yul\":5951:5980   */\n      tag_209\n        /* \"#utility.yul\":5973:5979   */\n      dup2\n        /* \"#utility.yul\":5951:5980   */\n      tag_202\n      jump\t// in\n    tag_209:\n        /* \"#utility.yul\":5946:5949   */\n      dup5\n        /* \"#utility.yul\":5942:5981   */\n      add\n        /* \"#utility.yul\":5935:5981   */\n      swap2\n      pop\n        /* \"#utility.yul\":5715:5987   */\n      pop\n        /* \"#utility.yul\":5623:5987   */\n      swap3\n      swap2\n      pop\n      pop\n      jump\t// out\n        /* \"#utility.yul\":6061:6930   */\n    tag_210:\n        /* \"#utility.yul\":6180:6183   */\n      0x00\n        /* \"#utility.yul\":6216:6220   */\n      0x60\n        /* \"#utility.yul\":6211:6214   */\n      dup4\n        /* \"#utility.yul\":6207:6221   */\n      add\n        /* \"#utility.yul\":6309:6313   */\n      0x00\n        /* \"#utility.yul\":6302:6307   */\n      dup4\n        /* \"#utility.yul\":6298:6314   */\n      add\n        /* \"#utility.yul\":6292:6315   */\n      mload\n        /* \"#utility.yul\":6328:6391   */\n      tag_212\n        /* \"#utility.yul\":6385:6389   */\n      0x00\n        /* \"#utility.yul\":6380:6383   */\n      dup7\n        /* \"#utility.yul\":6376:6390   */\n      add\n        /* \"#utility.yul\":6362:6374   */\n      dup3\n        /* \"#utility.yul\":6328:6391   */\n      tag_186\n      jump\t// in\n    tag_212:\n        /* \"#utility.yul\":6231:6401   */\n      pop\n        /* \"#utility.yul\":6489:6493   */\n      0x20\n        /* \"#utility.yul\":6482:6487   */\n      dup4\n        /* \"#utility.yul\":6478:6494   */\n      add\n        /* \"#utility.yul\":6472:6495   */\n      mload\n        /* \"#utility.yul\":6542:6545   */\n      dup5\n        /* \"#utility.yul\":6536:6540   */\n      dup3\n        /* \"#utility.yul\":6532:6546   */\n      sub\n        /* \"#utility.yul\":6525:6529   */\n      0x20\n        /* \"#utility.yul\":6520:6523   */\n      dup7\n        /* \"#utility.yul\":6516:6530   */\n      add\n        /* \"#utility.yul\":6509:6547   */\n      mstore\n        /* \"#utility.yul\":6568:6641   */\n      tag_213\n        /* \"#utility.yul\":6636:6640   */\n      dup3\n        /* \"#utility.yul\":6622:6634   */\n      dup3\n        /* \"#utility.yul\":6568:6641   */\n      tag_193\n      jump\t// in\n    tag_213:\n        /* \"#utility.yul\":6560:6641   */\n      swap2\n      pop\n        /* \"#utility.yul\":6411:6652   */\n      pop\n        /* \"#utility.yul\":6740:6744   */\n      0x40\n        /* \"#utility.yul\":6733:6738   */\n      dup4\n        /* \"#utility.yul\":6729:6745   */\n      add\n        /* \"#utility.yul\":6723:6746   */\n      mload\n        /* \"#utility.yul\":6793:6796   */\n      dup5\n        /* \"#utility.yul\":6787:6791   */\n      dup3\n        /* \"#utility.yul\":6783:6797   */\n      sub\n        /* \"#utility.yul\":6776:6780   */\n      0x40\n        /* \"#utility.yul\":6771:6774   */\n      dup7\n        /* \"#utility.yul\":6767:6781   */\n      add\n        /* \"#utility.yul\":6760:6798   */\n      mstore\n        /* \"#utility.yul\":6819:6892   */\n      tag_214\n        /* \"#utility.yul\":6887:6891   */\n      dup3\n        /* \"#utility.yul\":6873:6885   */\n      dup3\n        /* \"#utility.yul\":6819:6892   */\n      tag_193\n      jump\t// in\n    tag_214:\n        /* \"#utility.yul\":6811:6892   */\n      swap2\n      pop\n        /* \"#utility.yul\":6662:6903   */\n      pop\n        /* \"#utility.yul\":6920:6924   */\n      dup1\n        /* \"#utility.yul\":6913:6924   */\n      swap2\n      pop\n        /* \"#utility.yul\":6185:6930   */\n      pop\n        /* \"#utility.yul\":6061:6930   */\n      swap3\n      swap2\n      pop\n      pop\n      jump\t// out\n        /* \"#utility.yul\":6936:7560   */\n    tag_41:\n        /* \"#utility.yul\":7125:7129   */\n      0x00\n        /* \"#utility.yul\":7163:7165   */\n      0x60\n        /* \"#utility.yul\":7152:7161   */\n      dup3\n        /* \"#utility.yul\":7148:7166   */\n      add\n        /* \"#utility.yul\":7140:7166   */\n      swap1\n      pop\n        /* \"#utility.yul\":7176:7247   */\n      tag_216\n        /* \"#utility.yul\":7244:7245   */\n      0x00\n        /* \"#utility.yul\":7233:7242   */\n      dup4\n        /* \"#utility.yul\":7229:7246   */\n      add\n        /* \"#utility.yul\":7220:7226   */\n      dup7\n        /* \"#utility.yul\":7176:7247   */\n      tag_190\n      jump\t// in\n    tag_216:\n        /* \"#utility.yul\":7294:7303   */\n      dup2\n        /* \"#utility.yul\":7288:7292   */\n      dup2\n        /* \"#utility.yul\":7284:7304   */\n      sub\n        /* \"#utility.yul\":7279:7281   */\n      0x20\n        /* \"#utility.yul\":7268:7277   */\n      dup4\n        /* \"#utility.yul\":7264:7282   */\n      add\n        /* \"#utility.yul\":7257:7305   */\n      mstore\n        /* \"#utility.yul\":7322:7400   */\n      tag_217\n        /* \"#utility.yul\":7395:7399   */\n      dup2\n        /* \"#utility.yul\":7386:7392   */\n      dup6\n        /* \"#utility.yul\":7322:7400   */\n      tag_203\n      jump\t// in\n    tag_217:\n        /* \"#utility.yul\":7314:7400   */\n      swap1\n      pop\n        /* \"#utility.yul\":7447:7456   */\n      dup2\n        /* \"#utility.yul\":7441:7445   */\n      dup2\n        /* \"#utility.yul\":7437:7457   */\n      sub\n        /* \"#utility.yul\":7432:7434   */\n      0x40\n        /* \"#utility.yul\":7421:7430   */\n      dup4\n        /* \"#utility.yul\":7417:7435   */\n      add\n        /* \"#utility.yul\":7410:7458   */\n      mstore\n        /* \"#utility.yul\":7475:7553   */\n      tag_218\n        /* \"#utility.yul\":7548:7552   */\n      dup2\n        /* \"#utility.yul\":7539:7545   */\n      dup5\n        /* \"#utility.yul\":7475:7553   */\n      tag_203\n      jump\t// in\n    tag_218:\n        /* \"#utility.yul\":7467:7553   */\n      swap1\n      pop\n        /* \"#utility.yul\":6936:7560   */\n      swap5\n      swap4\n      pop\n      pop\n      pop\n      pop\n      jump\t// out\n        /* \"#utility.yul\":7566:7879   */\n    tag_30:\n        /* \"#utility.yul\":7679:7683   */\n      0x00\n        /* \"#utility.yul\":7717:7719   */\n      0x20\n        /* \"#utility.yul\":7706:7715   */\n      dup3\n        /* \"#utility.yul\":7702:7720   */\n      add\n        /* \"#utility.yul\":7694:7720   */\n      swap1\n      pop\n        /* \"#utility.yul\":7766:7775   */\n      dup2\n        /* \"#utility.yul\":7760:7764   */\n      dup2\n        /* \"#utility.yul\":7756:7776   */\n      sub\n        /* \"#utility.yul\":7752:7753   */\n      0x00\n        /* \"#utility.yul\":7741:7750   */\n      dup4\n        /* \"#utility.yul\":7737:7754   */\n      add\n        /* \"#utility.yul\":7730:7777   */\n      mstore\n        /* \"#utility.yul\":7794:7872   */\n      tag_220\n        /* \"#utility.yul\":7867:7871   */\n      dup2\n        /* \"#utility.yul\":7858:7864   */\n      dup5\n        /* \"#utility.yul\":7794:7872   */\n      tag_203\n      jump\t// in\n    tag_220:\n        /* \"#utility.yul\":7786:7872   */\n      swap1\n      pop\n        /* \"#utility.yul\":7566:7879   */\n      swap3\n      swap2\n      pop\n      pop\n      jump\t// out\n        /* \"#utility.yul\":7885:8399   */\n    tag_36:\n        /* \"#utility.yul\":8046:8050   */\n      0x00\n        /* \"#utility.yul\":8084:8086   */\n      0x40\n        /* \"#utility.yul\":8073:8082   */\n      dup3\n        /* \"#utility.yul\":8069:8087   */\n      add\n        /* \"#utility.yul\":8061:8087   */\n      swap1\n      pop\n        /* \"#utility.yul\":8133:8142   */\n      dup2\n        /* \"#utility.yul\":8127:8131   */\n      dup2\n        /* \"#utility.yul\":8123:8143   */\n      sub\n        /* \"#utility.yul\":8119:8120   */\n      0x00\n        /* \"#utility.yul\":8108:8117   */\n      dup4\n        /* \"#utility.yul\":8104:8121   */\n      add\n        /* \"#utility.yul\":8097:8144   */\n      mstore\n        /* \"#utility.yul\":8161:8239   */\n      tag_222\n        /* \"#utility.yul\":8234:8238   */\n      dup2\n        /* \"#utility.yul\":8225:8231   */\n      dup6\n        /* \"#utility.yul\":8161:8239   */\n      tag_203\n      jump\t// in\n    tag_222:\n        /* \"#utility.yul\":8153:8239   */\n      swap1\n      pop\n        /* \"#utility.yul\":8286:8295   */\n      dup2\n        /* \"#utility.yul\":8280:8284   */\n      dup2\n        /* \"#utility.yul\":8276:8296   */\n      sub\n        /* \"#utility.yul\":8271:8273   */\n      0x20\n        /* \"#utility.yul\":8260:8269   */\n      dup4\n        /* \"#utility.yul\":8256:8274   */\n      add\n        /* \"#utility.yul\":8249:8297   */\n      mstore\n        /* \"#utility.yul\":8314:8392   */\n      tag_223\n        /* \"#utility.yul\":8387:8391   */\n      dup2\n        /* \"#utility.yul\":8378:8384   */\n      dup5\n        /* \"#utility.yul\":8314:8392   */\n      tag_203\n      jump\t// in\n    tag_223:\n        /* \"#utility.yul\":8306:8392   */\n      swap1\n      pop\n        /* \"#utility.yul\":7885:8399   */\n      swap4\n      swap3\n      pop\n      pop\n      pop\n      jump\t// out\n        /* \"#utility.yul\":8405:8778   */\n    tag_46:\n        /* \"#utility.yul\":8548:8552   */\n      0x00\n        /* \"#utility.yul\":8586:8588   */\n      0x20\n        /* \"#utility.yul\":8575:8584   */\n      dup3\n        /* \"#utility.yul\":8571:8589   */\n      add\n        /* \"#utility.yul\":8563:8589   */\n      swap1\n      pop\n        /* \"#utility.yul\":8635:8644   */\n      dup2\n        /* \"#utility.yul\":8629:8633   */\n      dup2\n        /* \"#utility.yul\":8625:8645   */\n      sub\n        /* \"#utility.yul\":8621:8622   */\n      0x00\n        /* \"#utility.yul\":8610:8619   */\n      dup4\n        /* \"#utility.yul\":8606:8623   */\n      add\n        /* \"#utility.yul\":8599:8646   */\n      mstore\n        /* \"#utility.yul\":8663:8771   */\n      tag_225\n        /* \"#utility.yul\":8766:8770   */\n      dup2\n        /* \"#utility.yul\":8757:8763   */\n      dup5\n        /* \"#utility.yul\":8663:8771   */\n      tag_210\n      jump\t// in\n    tag_225:\n        /* \"#utility.yul\":8655:8771   */\n      swap1\n      pop\n        /* \"#utility.yul\":8405:8778   */\n      swap3\n      swap2\n      pop\n      pop\n      jump\t// out\n        /* \"#utility.yul\":8784:8913   */\n    tag_125:\n        /* \"#utility.yul\":8818:8824   */\n      0x00\n        /* \"#utility.yul\":8845:8865   */\n      tag_227\n      tag_228\n      jump\t// in\n    tag_227:\n        /* \"#utility.yul\":8835:8865   */\n      swap1\n      pop\n        /* \"#utility.yul\":8874:8907   */\n      tag_229\n        /* \"#utility.yul\":8902:8906   */\n      dup3\n        /* \"#utility.yul\":8894:8900   */\n      dup3\n        /* \"#utility.yul\":8874:8907   */\n      tag_230\n      jump\t// in\n    tag_229:\n        /* \"#utility.yul\":8784:8913   */\n      swap2\n      swap1\n      pop\n      jump\t// out\n        /* \"#utility.yul\":8919:8994   */\n    tag_228:\n        /* \"#utility.yul\":8952:8958   */\n      0x00\n        /* \"#utility.yul\":8985:8987   */\n      0x40\n        /* \"#utility.yul\":8979:8988   */\n      mload\n        /* \"#utility.yul\":8969:8988   */\n      swap1\n      pop\n        /* \"#utility.yul\":8919:8994   */\n      swap1\n      jump\t// out\n        /* \"#utility.yul\":9000:9308   */\n    tag_124:\n        /* \"#utility.yul\":9062:9066   */\n      0x00\n        /* \"#utility.yul\":9152:9170   */\n      0xffffffffffffffff\n        /* \"#utility.yul\":9144:9150   */\n      dup3\n        /* \"#utility.yul\":9141:9171   */\n      gt\n        /* \"#utility.yul\":9138:9194   */\n      iszero\n      tag_233\n      jumpi\n        /* \"#utility.yul\":9174:9192   */\n      tag_234\n      tag_235\n      jump\t// in\n    tag_234:\n        /* \"#utility.yul\":9138:9194   */\n    tag_233:\n        /* \"#utility.yul\":9212:9241   */\n      tag_236\n        /* \"#utility.yul\":9234:9240   */\n      dup3\n        /* \"#utility.yul\":9212:9241   */\n      tag_202\n      jump\t// in\n    tag_236:\n        /* \"#utility.yul\":9204:9241   */\n      swap1\n      pop\n        /* \"#utility.yul\":9296:9300   */\n      0x20\n        /* \"#utility.yul\":9290:9294   */\n      dup2\n        /* \"#utility.yul\":9286:9301   */\n      add\n        /* \"#utility.yul\":9278:9301   */\n      swap1\n      pop\n        /* \"#utility.yul\":9000:9308   */\n      swap2\n      swap1\n      pop\n      jump\t// out\n        /* \"#utility.yul\":9314:9413   */\n    tag_196:\n        /* \"#utility.yul\":9366:9372   */\n      0x00\n        /* \"#utility.yul\":9400:9405   */\n      dup2\n        /* \"#utility.yul\":9394:9406   */\n      mload\n        /* \"#utility.yul\":9384:9406   */\n      swap1\n      pop\n        /* \"#utility.yul\":9314:9413   */\n      swap2\n      swap1\n      pop\n      jump\t// out\n        /* \"#utility.yul\":9419:9578   */\n    tag_198:\n        /* \"#utility.yul\":9493:9504   */\n      0x00\n        /* \"#utility.yul\":9527:9533   */\n      dup3\n        /* \"#utility.yul\":9522:9525   */\n      dup3\n        /* \"#utility.yul\":9515:9534   */\n      mstore\n        /* \"#utility.yul\":9567:9571   */\n      0x20\n        /* \"#utility.yul\":9562:9565   */\n      dup3\n        /* \"#utility.yul\":9558:9572   */\n      add\n        /* \"#utility.yul\":9543:9572   */\n      swap1\n      pop\n        /* \"#utility.yul\":9419:9578   */\n      swap3\n      swap2\n      pop\n      pop\n      jump\t// out\n        /* \"#utility.yul\":9584:9753   */\n    tag_207:\n        /* \"#utility.yul\":9668:9679   */\n      0x00\n        /* \"#utility.yul\":9702:9708   */\n      dup3\n        /* \"#utility.yul\":9697:9700   */\n      dup3\n        /* \"#utility.yul\":9690:9709   */\n      mstore\n        /* \"#utility.yul\":9742:9746   */\n      0x20\n        /* \"#utility.yul\":9737:9740   */\n      dup3\n        /* \"#utility.yul\":9733:9747   */\n      add\n        /* \"#utility.yul\":9718:9747   */\n      swap1\n      pop\n        /* \"#utility.yul\":9584:9753   */\n      swap3\n      swap2\n      pop\n      pop\n      jump\t// out\n        /* \"#utility.yul\":9759:9855   */\n    tag_189:\n        /* \"#utility.yul\":9796:9803   */\n      0x00\n        /* \"#utility.yul\":9825:9849   */\n      tag_241\n        /* \"#utility.yul\":9843:9848   */\n      dup3\n        /* \"#utility.yul\":9825:9849   */\n      tag_242\n      jump\t// in\n    tag_241:\n        /* \"#utility.yul\":9814:9849   */\n      swap1\n      pop\n        /* \"#utility.yul\":9759:9855   */\n      swap2\n      swap1\n      pop\n      jump\t// out\n        /* \"#utility.yul\":9861:9987   */\n    tag_242:\n        /* \"#utility.yul\":9898:9905   */\n      0x00\n        /* \"#utility.yul\":9938:9980   */\n      0xffffffffffffffffffffffffffffffffffffffff\n        /* \"#utility.yul\":9931:9936   */\n      dup3\n        /* \"#utility.yul\":9927:9981   */\n      and\n        /* \"#utility.yul\":9916:9981   */\n      swap1\n      pop\n        /* \"#utility.yul\":9861:9987   */\n      swap2\n      swap1\n      pop\n      jump\t// out\n        /* \"#utility.yul\":9993:10147   */\n    tag_130:\n        /* \"#utility.yul\":10077:10083   */\n      dup3\n        /* \"#utility.yul\":10072:10075   */\n      dup2\n        /* \"#utility.yul\":10067:10070   */\n      dup4\n        /* \"#utility.yul\":10054:10084   */\n      calldatacopy\n        /* \"#utility.yul\":10139:10140   */\n      0x00\n        /* \"#utility.yul\":10130:10136   */\n      dup4\n        /* \"#utility.yul\":10125:10128   */\n      dup4\n        /* \"#utility.yul\":10121:10137   */\n      add\n        /* \"#utility.yul\":10114:10141   */\n      mstore\n        /* \"#utility.yul\":9993:10147   */\n      pop\n      pop\n      pop\n      jump\t// out\n        /* \"#utility.yul\":10153:10460   */\n    tag_200:\n        /* \"#utility.yul\":10221:10222   */\n      0x00\n        /* \"#utility.yul\":10231:10344   */\n    tag_246:\n        /* \"#utility.yul\":10245:10251   */\n      dup4\n        /* \"#utility.yul\":10242:10243   */\n      dup2\n        /* \"#utility.yul\":10239:10252   */\n      lt\n        /* \"#utility.yul\":10231:10344   */\n      iszero\n      tag_248\n      jumpi\n        /* \"#utility.yul\":10330:10331   */\n      dup1\n        /* \"#utility.yul\":10325:10328   */\n      dup3\n        /* \"#utility.yul\":10321:10332   */\n      add\n        /* \"#utility.yul\":10315:10333   */\n      mload\n        /* \"#utility.yul\":10311:10312   */\n      dup2\n        /* \"#utility.yul\":10306:10309   */\n      dup5\n        /* \"#utility.yul\":10302:10313   */\n      add\n        /* \"#utility.yul\":10295:10334   */\n      mstore\n        /* \"#utility.yul\":10267:10269   */\n      0x20\n        /* \"#utility.yul\":10264:10265   */\n      dup2\n        /* \"#utility.yul\":10260:10270   */\n      add\n        /* \"#utility.yul\":10255:10270   */\n      swap1\n      pop\n        /* \"#utility.yul\":10231:10344   */\n      jump(tag_246)\n    tag_248:\n        /* \"#utility.yul\":10362:10368   */\n      dup4\n        /* \"#utility.yul\":10359:10360   */\n      dup2\n        /* \"#utility.yul\":10356:10369   */\n      gt\n        /* \"#utility.yul\":10353:10454   */\n      iszero\n      tag_249\n      jumpi\n        /* \"#utility.yul\":10442:10443   */\n      0x00\n        /* \"#utility.yul\":10433:10439   */\n      dup5\n        /* \"#utility.yul\":10428:10431   */\n      dup5\n        /* \"#utility.yul\":10424:10440   */\n      add\n        /* \"#utility.yul\":10417:10444   */\n      mstore\n        /* \"#utility.yul\":10353:10454   */\n    tag_249:\n        /* \"#utility.yul\":10202:10460   */\n      pop\n        /* \"#utility.yul\":10153:10460   */\n      pop\n      pop\n      pop\n      jump\t// out\n        /* \"#utility.yul\":10466:10786   */\n    tag_63:\n        /* \"#utility.yul\":10510:10516   */\n      0x00\n        /* \"#utility.yul\":10547:10548   */\n      0x02\n        /* \"#utility.yul\":10541:10545   */\n      dup3\n        /* \"#utility.yul\":10537:10549   */\n      div\n        /* \"#utility.yul\":10527:10549   */\n      swap1\n      pop\n        /* \"#utility.yul\":10594:10595   */\n      0x01\n        /* \"#utility.yul\":10588:10592   */\n      dup3\n        /* \"#utility.yul\":10584:10596   */\n      and\n        /* \"#utility.yul\":10615:10633   */\n      dup1\n        /* \"#utility.yul\":10605:10686   */\n      tag_251\n      jumpi\n        /* \"#utility.yul\":10671:10675   */\n      0x7f\n        /* \"#utility.yul\":10663:10669   */\n      dup3\n        /* \"#utility.yul\":10659:10676   */\n      and\n        /* \"#utility.yul\":10649:10676   */\n      swap2\n      pop\n        /* \"#utility.yul\":10605:10686   */\n    tag_251:\n        /* \"#utility.yul\":10733:10735   */\n      0x20\n        /* \"#utility.yul\":10725:10731   */\n      dup3\n        /* \"#utility.yul\":10722:10736   */\n      lt\n        /* \"#utility.yul\":10702:10720   */\n      dup2\n        /* \"#utility.yul\":10699:10737   */\n      eq\n        /* \"#utility.yul\":10696:10780   */\n      iszero\n      tag_252\n      jumpi\n        /* \"#utility.yul\":10752:10770   */\n      tag_253\n      tag_254\n      jump\t// in\n    tag_253:\n        /* \"#utility.yul\":10696:10780   */\n    tag_252:\n        /* \"#utility.yul\":10517:10786   */\n      pop\n        /* \"#utility.yul\":10466:10786   */\n      swap2\n      swap1\n      pop\n      jump\t// out\n        /* \"#utility.yul\":10792:11073   */\n    tag_230:\n        /* \"#utility.yul\":10875:10902   */\n      tag_256\n        /* \"#utility.yul\":10897:10901   */\n      dup3\n        /* \"#utility.yul\":10875:10902   */\n      tag_202\n      jump\t// in\n    tag_256:\n        /* \"#utility.yul\":10867:10873   */\n      dup2\n        /* \"#utility.yul\":10863:10903   */\n      add\n        /* \"#utility.yul\":11005:11011   */\n      dup2\n        /* \"#utility.yul\":10993:11003   */\n      dup2\n        /* \"#utility.yul\":10990:11012   */\n      lt\n        /* \"#utility.yul\":10969:10987   */\n      0xffffffffffffffff\n        /* \"#utility.yul\":10957:10967   */\n      dup3\n        /* \"#utility.yul\":10954:10988   */\n      gt\n        /* \"#utility.yul\":10951:11013   */\n      or\n        /* \"#utility.yul\":10948:11036   */\n      iszero\n      tag_257\n      jumpi\n        /* \"#utility.yul\":11016:11034   */\n      tag_258\n      tag_235\n      jump\t// in\n    tag_258:\n        /* \"#utility.yul\":10948:11036   */\n    tag_257:\n        /* \"#utility.yul\":11056:11066   */\n      dup1\n        /* \"#utility.yul\":11052:11054   */\n      0x40\n        /* \"#utility.yul\":11045:11067   */\n      mstore\n        /* \"#utility.yul\":10835:11073   */\n      pop\n        /* \"#utility.yul\":10792:11073   */\n      pop\n      pop\n      jump\t// out\n        /* \"#utility.yul\":11079:11259   */\n    tag_254:\n        /* \"#utility.yul\":11127:11204   */\n      0x4e487b7100000000000000000000000000000000000000000000000000000000\n        /* \"#utility.yul\":11124:11125   */\n      0x00\n        /* \"#utility.yul\":11117:11205   */\n      mstore\n        /* \"#utility.yul\":11224:11228   */\n      0x22\n        /* \"#utility.yul\":11221:11222   */\n      0x04\n        /* \"#utility.yul\":11214:11229   */\n      mstore\n        /* \"#utility.yul\":11248:11252   */\n      0x24\n        /* \"#utility.yul\":11245:11246   */\n      0x00\n        /* \"#utility.yul\":11238:11253   */\n      revert\n        /* \"#utility.yul\":11265:11445   */\n    tag_235:\n        /* \"#utility.yul\":11313:11390   */\n      0x4e487b7100000000000000000000000000000000000000000000000000000000\n        /* \"#utility.yul\":11310:11311   */\n      0x00\n        /* \"#utility.yul\":11303:11391   */\n      mstore\n        /* \"#utility.yul\":11410:11414   */\n      0x41\n        /* \"#utility.yul\":11407:11408   */\n      0x04\n        /* \"#utility.yul\":11400:11415   */\n      mstore\n        /* \"#utility.yul\":11434:11438   */\n      0x24\n        /* \"#utility.yul\":11431:11432   */\n      0x00\n        /* \"#utility.yul\":11424:11439   */\n      revert\n        /* \"#utility.yul\":11451:11568   */\n    tag_139:\n        /* \"#utility.yul\":11560:11561   */\n      0x00\n        /* \"#utility.yul\":11557:11558   */\n      dup1\n        /* \"#utility.yul\":11550:11562   */\n      revert\n        /* \"#utility.yul\":11574:11691   */\n    tag_128:\n        /* \"#utility.yul\":11683:11684   */\n      0x00\n        /* \"#utility.yul\":11680:11681   */\n      dup1\n        /* \"#utility.yul\":11673:11685   */\n      revert\n        /* \"#utility.yul\":11697:11814   */\n    tag_158:\n        /* \"#utility.yul\":11806:11807   */\n      0x00\n        /* \"#utility.yul\":11803:11804   */\n      dup1\n        /* \"#utility.yul\":11796:11808   */\n      revert\n        /* \"#utility.yul\":11820:11937   */\n    tag_144:\n        /* \"#utility.yul\":11929:11930   */\n      0x00\n        /* \"#utility.yul\":11926:11927   */\n      dup1\n        /* \"#utility.yul\":11919:11931   */\n      revert\n        /* \"#utility.yul\":11943:12045   */\n    tag_202:\n        /* \"#utility.yul\":11984:11990   */\n      0x00\n        /* \"#utility.yul\":12035:12037   */\n      0x1f\n        /* \"#utility.yul\":12031:12038   */\n      not\n        /* \"#utility.yul\":12026:12028   */\n      0x1f\n        /* \"#utility.yul\":12019:12024   */\n      dup4\n        /* \"#utility.yul\":12015:12029   */\n      add\n        /* \"#utility.yul\":12011:12039   */\n      and\n        /* \"#utility.yul\":12001:12039   */\n      swap1\n      pop\n        /* \"#utility.yul\":11943:12045   */\n      swap2\n      swap1\n      pop\n      jump\t// out\n        /* \"#utility.yul\":12051:12173   */\n    tag_134:\n        /* \"#utility.yul\":12124:12148   */\n      tag_267\n        /* \"#utility.yul\":12142:12147   */\n      dup2\n        /* \"#utility.yul\":12124:12148   */\n      tag_189\n      jump\t// in\n    tag_267:\n        /* \"#utility.yul\":12117:12122   */\n      dup2\n        /* \"#utility.yul\":12114:12149   */\n      eq\n        /* \"#utility.yul\":12104:12167   */\n      tag_268\n      jumpi\n        /* \"#utility.yul\":12163:12164   */\n      0x00\n        /* \"#utility.yul\":12160:12161   */\n      dup1\n        /* \"#utility.yul\":12153:12165   */\n      revert\n        /* \"#utility.yul\":12104:12167   */\n    tag_268:\n        /* \"#utility.yul\":12051:12173   */\n      pop\n      jump\t// out\n\n    auxdata: 0xa264697066735822122059f7a3b5cc04ef096868939cd2e0587ecc99fd699b405fbc47da5cfe1cc5cf3664736f6c63430008070033\n}\n",
				"bytecode": {
					"linkReferences": {},
					"object": "608060405234801561001057600080fd5b506114c2806100206000396000f3fe608060405234801561001057600080fd5b50600436106100935760003560e01c80639f764d16116100665780639f764d161461011c578063b9e0ad101461014d578063de1e23b71461017f578063e1c7392a146101af578063f2c3c745146101b957610093565b806311ef4171146100985780635062278f146100b45780636c477035146100d05780638749774f146100ec575b600080fd5b6100b260048036038101906100ad9190610f92565b6101d5565b005b6100ce60048036038101906100c99190610f23565b61026d565b005b6100ea60048036038101906100e59190610fee565b610306565b005b61010660048036038101906101019190610ee3565b610437565b604051610113919061121d565b60405180910390f35b61013660048036038101906101319190610eb6565b610549565b60405161014492919061123f565b60405180910390f35b61016760048036038101906101629190610eb6565b6106eb565b604051610176939291906111d8565b60405180910390f35b61019960048036038101906101949190610eb6565b610845565b6040516101a69190611276565b60405180910390f35b6101b7610a17565b005b6101d360048036038101906101ce9190611079565b610c1e565b005b80600160003373ffffffffffffffffffffffffffffffffffffffff1673ffffffffffffffffffffffffffffffffffffffff16815260200190815260200160002060020160008473ffffffffffffffffffffffffffffffffffffffff1673ffffffffffffffffffffffffffffffffffffffff1681526020019081526020016000209080519060200190610268929190610d57565b505050565b80600160008573ffffffffffffffffffffffffffffffffffffffff1673ffffffffffffffffffffffffffffffffffffffff16815260200190815260200160002060020160008473ffffffffffffffffffffffffffffffffffffffff1673ffffffffffffffffffffffffffffffffffffffff1681526020019081526020016000209080519060200190610300929190610d57565b50505050565b826000808573ffffffffffffffffffffffffffffffffffffffff1673ffffffffffffffffffffffffffffffffffffffff16815260200190815260200160002060000160006101000a81548173ffffffffffffffffffffffffffffffffffffffff021916908373ffffffffffffffffffffffffffffffffffffffff160217905550816000808573ffffffffffffffffffffffffffffffffffffffff1673ffffffffffffffffffffffffffffffffffffffff16815260200190815260200160002060010190805190602001906103db929190610d57565b50806000808573ffffffffffffffffffffffffffffffffffffffff1673ffffffffffffffffffffffffffffffffffffffff1681526020019081526020016000206002019080519060200190610431929190610d57565b50505050565b6060600160008473ffffffffffffffffffffffffffffffffffffffff1673ffffffffffffffffffffffffffffffffffffffff16815260200190815260200160002060020160008373ffffffffffffffffffffffffffffffffffffffff1673ffffffffffffffffffffffffffffffffffffffff16815260200190815260200160002080546104c39061138f565b80601f01602080910402602001604051908101604052809291908181526020018280546104ef9061138f565b801561053c5780601f106105115761010080835404028352916020019161053c565b820191906000526020600020905b81548152906001019060200180831161051f57829003601f168201915b5050505050905092915050565b606080600160008473ffffffffffffffffffffffffffffffffffffffff1673ffffffffffffffffffffffffffffffffffffffff16815260200190815260200160002060010180546105999061138f565b80601f01602080910402602001604051908101604052809291908181526020018280546105c59061138f565b80156106125780601f106105e757610100808354040283529160200191610612565b820191906000526020600020905b8154815290600101906020018083116105f557829003601f168201915b50505050509150600160008473ffffffffffffffffffffffffffffffffffffffff1673ffffffffffffffffffffffffffffffffffffffff16815260200190815260200160002060030180546106669061138f565b80601f01602080910402602001604051908101604052809291908181526020018280546106929061138f565b80156106df5780601f106106b4576101008083540402835291602001916106df565b820191906000526020600020905b8154815290600101906020018083116106c257829003601f168201915b50505050509050915091565b60016020528060005260406000206000915090508060000160009054906101000a900473ffffffffffffffffffffffffffffffffffffffff16908060010180546107349061138f565b80601f01602080910402602001604051908101604052809291908181526020018280546107609061138f565b80156107ad5780601f10610782576101008083540402835291602001916107ad565b820191906000526020600020905b81548152906001019060200180831161079057829003601f168201915b5050505050908060030180546107c29061138f565b80601f01602080910402602001604051908101604052809291908181526020018280546107ee9061138f565b801561083b5780601f106108105761010080835404028352916020019161083b565b820191906000526020600020905b81548152906001019060200180831161081e57829003601f168201915b5050505050905083565b61084d610ddd565b6000808373ffffffffffffffffffffffffffffffffffffffff1673ffffffffffffffffffffffffffffffffffffffff1681526020019081526020016000206040518060600160405290816000820160009054906101000a900473ffffffffffffffffffffffffffffffffffffffff1673ffffffffffffffffffffffffffffffffffffffff1673ffffffffffffffffffffffffffffffffffffffff1681526020016001820180546108fc9061138f565b80601f01602080910402602001604051908101604052809291908181526020018280546109289061138f565b80156109755780601f1061094a57610100808354040283529160200191610975565b820191906000526020600020905b81548152906001019060200180831161095857829003601f168201915b5050505050815260200160028201805461098e9061138f565b80601f01602080910402602001604051908101604052809291908181526020018280546109ba9061138f565b8015610a075780601f106109dc57610100808354040283529160200191610a07565b820191906000526020600020905b8154815290600101906020018083116109ea57829003601f168201915b5050505050815250509050919050565b600080600073b4d18d483b641200aa096558c9ba63aeb243002b73ff5d2fe96548e05e49c67fcc36c7dbeca2f501f273be7186f383961cc24ad8012a2f2942667a72788f809350819450829550505050610adc836040518060400160405280600281526020017f64310000000000000000000000000000000000000000000000000000000000008152506040518060400160405280600981526020017f6c696768746e696e670000000000000000000000000000000000000000000000815250610306565b610b51826040518060400160405280600281526020017f64320000000000000000000000000000000000000000000000000000000000008152506040518060400160405280600481526020017f6772696400000000000000000000000000000000000000000000000000000000815250610306565b610bc6816040518060400160405280600281526020017f64330000000000000000000000000000000000000000000000000000000000008152506040518060400160405280600681526020017f726f757465720000000000000000000000000000000000000000000000000000815250610306565b6000806000735b38da6a701c568545dcfcb03fcb875f56beddc473ab8483f64d9c6d1ecf9b849ae677dd3315835cb2734b20993bc481177ec7e8f571cecae8a9e22c02db809350819450829550505050505050505050565b600033905080600160008373ffffffffffffffffffffffffffffffffffffffff1673ffffffffffffffffffffffffffffffffffffffff16815260200190815260200160002060000160006101000a81548173ffffffffffffffffffffffffffffffffffffffff021916908373ffffffffffffffffffffffffffffffffffffffff16021790555082600160008373ffffffffffffffffffffffffffffffffffffffff1673ffffffffffffffffffffffffffffffffffffffff1681526020019081526020016000206001019080519060200190610cfa929190610d57565b5081600160008373ffffffffffffffffffffffffffffffffffffffff1673ffffffffffffffffffffffffffffffffffffffff1681526020019081526020016000206003019080519060200190610d51929190610d57565b50505050565b828054610d639061138f565b90600052602060002090601f016020900481019282610d855760008555610dcc565b82601f10610d9e57805160ff1916838001178555610dcc565b82800160010185558215610dcc579182015b82811115610dcb578251825591602001919060010190610db0565b5b509050610dd99190610e14565b5090565b6040518060600160405280600073ffffffffffffffffffffffffffffffffffffffff16815260200160608152602001606081525090565b5b80821115610e2d576000816000905550600101610e15565b5090565b6000610e44610e3f846112bd565b611298565b905082815260208101848484011115610e6057610e5f611455565b5b610e6b84828561134d565b509392505050565b600081359050610e8281611475565b92915050565b600082601f830112610e9d57610e9c611450565b5b8135610ead848260208601610e31565b91505092915050565b600060208284031215610ecc57610ecb61145f565b5b6000610eda84828501610e73565b91505092915050565b60008060408385031215610efa57610ef961145f565b5b6000610f0885828601610e73565b9250506020610f1985828601610e73565b9150509250929050565b600080600060608486031215610f3c57610f3b61145f565b5b6000610f4a86828701610e73565b9350506020610f5b86828701610e73565b925050604084013567ffffffffffffffff811115610f7c57610f7b61145a565b5b610f8886828701610e88565b9150509250925092565b60008060408385031215610fa957610fa861145f565b5b6000610fb785828601610e73565b925050602083013567ffffffffffffffff811115610fd857610fd761145a565b5b610fe485828601610e88565b9150509250929050565b6000806000606084860312156110075761100661145f565b5b600061101586828701610e73565b935050602084013567ffffffffffffffff8111156110365761103561145a565b5b61104286828701610e88565b925050604084013567ffffffffffffffff8111156110635761106261145a565b5b61106f86828701610e88565b9150509250925092565b600080604083850312156110905761108f61145f565b5b600083013567ffffffffffffffff8111156110ae576110ad61145a565b5b6110ba85828601610e88565b925050602083013567ffffffffffffffff8111156110db576110da61145a565b5b6110e785828601610e88565b9150509250929050565b6110fa8161131b565b82525050565b6111098161131b565b82525050565b600061111a826112ee565b61112481856112f9565b935061113481856020860161135c565b61113d81611464565b840191505092915050565b6000611153826112ee565b61115d818561130a565b935061116d81856020860161135c565b61117681611464565b840191505092915050565b600060608301600083015161119960008601826110f1565b50602083015184820360208601526111b1828261110f565b915050604083015184820360408601526111cb828261110f565b9150508091505092915050565b60006060820190506111ed6000830186611100565b81810360208301526111ff8185611148565b905081810360408301526112138184611148565b9050949350505050565b600060208201905081810360008301526112378184611148565b905092915050565b600060408201905081810360008301526112598185611148565b9050818103602083015261126d8184611148565b90509392505050565b600060208201905081810360008301526112908184611181565b905092915050565b60006112a26112b3565b90506112ae82826113c1565b919050565b6000604051905090565b600067ffffffffffffffff8211156112d8576112d7611421565b5b6112e182611464565b9050602081019050919050565b600081519050919050565b600082825260208201905092915050565b600082825260208201905092915050565b60006113268261132d565b9050919050565b600073ffffffffffffffffffffffffffffffffffffffff82169050919050565b82818337600083830152505050565b60005b8381101561137a57808201518184015260208101905061135f565b83811115611389576000848401525b50505050565b600060028204905060018216806113a757607f821691505b602082108114156113bb576113ba6113f2565b5b50919050565b6113ca82611464565b810181811067ffffffffffffffff821117156113e9576113e8611421565b5b80604052505050565b7f4e487b7100000000000000000000000000000000000000000000000000000000600052602260045260246000fd5b7f4e487b7100000000000000000000000000000000000000000000000000000000600052604160045260246000fd5b600080fd5b600080fd5b600080fd5b600080fd5b6000601f19601f8301169050919050565b61147e8161131b565b811461148957600080fd5b5056fea264697066735822122059f7a3b5cc04ef096868939cd2e0587ecc99fd699b405fbc47da5cfe1cc5cf3664736f6c63430008070033",
					"opcodes": "PUSH1 0x80 PUSH1 0x40 MSTORE CALLVALUE DUP1 ISZERO PUSH2 0x10 JUMPI PUSH1 0x0 DUP1 REVERT JUMPDEST POP PUSH2 0x14C2 DUP1 PUSH2 0x20 PUSH1 0x0 CODECOPY PUSH1 0x0 RETURN INVALID PUSH1 0x80 PUSH1 0x40 MSTORE CALLVALUE DUP1 ISZERO PUSH2 0x10 JUMPI PUSH1 0x0 DUP1 REVERT JUMPDEST POP PUSH1 0x4 CALLDATASIZE LT PUSH2 0x93 JUMPI PUSH1 0x0 CALLDATALOAD PUSH1 0xE0 SHR DUP1 PUSH4 0x9F764D16 GT PUSH2 0x66 JUMPI DUP1 PUSH4 0x9F764D16 EQ PUSH2 0x11C JUMPI DUP1 PUSH4 0xB9E0AD10 EQ PUSH2 0x14D JUMPI DUP1 PUSH4 0xDE1E23B7 EQ PUSH2 0x17F JUMPI DUP1 PUSH4 0xE1C7392A EQ PUSH2 0x1AF JUMPI DUP1 PUSH4 0xF2C3C745 EQ PUSH2 0x1B9 JUMPI PUSH2 0x93 JUMP JUMPDEST DUP1 PUSH4 0x11EF4171 EQ PUSH2 0x98 JUMPI DUP1 PUSH4 0x5062278F EQ PUSH2 0xB4 JUMPI DUP1 PUSH4 0x6C477035 EQ PUSH2 0xD0 JUMPI DUP1 PUSH4 0x8749774F EQ PUSH2 0xEC JUMPI JUMPDEST PUSH1 0x0 DUP1 REVERT JUMPDEST PUSH2 0xB2 PUSH1 0x4 DUP1 CALLDATASIZE SUB DUP2 ADD SWAP1 PUSH2 0xAD SWAP2 SWAP1 PUSH2 0xF92 JUMP JUMPDEST PUSH2 0x1D5 JUMP JUMPDEST STOP JUMPDEST PUSH2 0xCE PUSH1 0x4 DUP1 CALLDATASIZE SUB DUP2 ADD SWAP1 PUSH2 0xC9 SWAP2 SWAP1 PUSH2 0xF23 JUMP JUMPDEST PUSH2 0x26D JUMP JUMPDEST STOP JUMPDEST PUSH2 0xEA PUSH1 0x4 DUP1 CALLDATASIZE SUB DUP2 ADD SWAP1 PUSH2 0xE5 SWAP2 SWAP1 PUSH2 0xFEE JUMP JUMPDEST PUSH2 0x306 JUMP JUMPDEST STOP JUMPDEST PUSH2 0x106 PUSH1 0x4 DUP1 CALLDATASIZE SUB DUP2 ADD SWAP1 PUSH2 0x101 SWAP2 SWAP1 PUSH2 0xEE3 JUMP JUMPDEST PUSH2 0x437 JUMP JUMPDEST PUSH1 0x40 MLOAD PUSH2 0x113 SWAP2 SWAP1 PUSH2 0x121D JUMP JUMPDEST PUSH1 0x40 MLOAD DUP1 SWAP2 SUB SWAP1 RETURN JUMPDEST PUSH2 0x136 PUSH1 0x4 DUP1 CALLDATASIZE SUB DUP2 ADD SWAP1 PUSH2 0x131 SWAP2 SWAP1 PUSH2 0xEB6 JUMP JUMPDEST PUSH2 0x549 JUMP JUMPDEST PUSH1 0x40 MLOAD PUSH2 0x144 SWAP3 SWAP2 SWAP1 PUSH2 0x123F JUMP JUMPDEST PUSH1 0x40 MLOAD DUP1 SWAP2 SUB SWAP1 RETURN JUMPDEST PUSH2 0x167 PUSH1 0x4 DUP1 CALLDATASIZE SUB DUP2 ADD SWAP1 PUSH2 0x162 SWAP2 SWAP1 PUSH2 0xEB6 JUMP JUMPDEST PUSH2 0x6EB JUMP JUMPDEST PUSH1 0x40 MLOAD PUSH2 0x176 SWAP4 SWAP3 SWAP2 SWAP1 PUSH2 0x11D8 JUMP JUMPDEST PUSH1 0x40 MLOAD DUP1 SWAP2 SUB SWAP1 RETURN JUMPDEST PUSH2 0x199 PUSH1 0x4 DUP1 CALLDATASIZE SUB DUP2 ADD SWAP1 PUSH2 0x194 SWAP2 SWAP1 PUSH2 0xEB6 JUMP JUMPDEST PUSH2 0x845 JUMP JUMPDEST PUSH1 0x40 MLOAD PUSH2 0x1A6 SWAP2 SWAP1 PUSH2 0x1276 JUMP JUMPDEST PUSH1 0x40 MLOAD DUP1 SWAP2 SUB SWAP1 RETURN JUMPDEST PUSH2 0x1B7 PUSH2 0xA17 JUMP JUMPDEST STOP JUMPDEST PUSH2 0x1D3 PUSH1 0x4 DUP1 CALLDATASIZE SUB DUP2 ADD SWAP1 PUSH2 0x1CE SWAP2 SWAP1 PUSH2 0x1079 JUMP JUMPDEST PUSH2 0xC1E JUMP JUMPDEST STOP JUMPDEST DUP1 PUSH1 0x1 PUSH1 0x0 CALLER PUSH20 0xFFFFFFFFFFFFFFFFFFFFFFFFFFFFFFFFFFFFFFFF AND PUSH20 0xFFFFFFFFFFFFFFFFFFFFFFFFFFFFFFFFFFFFFFFF AND DUP2 MSTORE PUSH1 0x20 ADD SWAP1 DUP2 MSTORE PUSH1 0x20 ADD PUSH1 0x0 KECCAK256 PUSH1 0x2 ADD PUSH1 0x0 DUP5 PUSH20 0xFFFFFFFFFFFFFFFFFFFFFFFFFFFFFFFFFFFFFFFF AND PUSH20 0xFFFFFFFFFFFFFFFFFFFFFFFFFFFFFFFFFFFFFFFF AND DUP2 MSTORE PUSH1 0x20 ADD SWAP1 DUP2 MSTORE PUSH1 0x20 ADD PUSH1 0x0 KECCAK256 SWAP1 DUP1 MLOAD SWAP1 PUSH1 0x20 ADD SWAP1 PUSH2 0x268 SWAP3 SWAP2 SWAP1 PUSH2 0xD57 JUMP JUMPDEST POP POP POP JUMP JUMPDEST DUP1 PUSH1 0x1 PUSH1 0x0 DUP6 PUSH20 0xFFFFFFFFFFFFFFFFFFFFFFFFFFFFFFFFFFFFFFFF AND PUSH20 0xFFFFFFFFFFFFFFFFFFFFFFFFFFFFFFFFFFFFFFFF AND DUP2 MSTORE PUSH1 0x20 ADD SWAP1 DUP2 MSTORE PUSH1 0x20 ADD PUSH1 0x0 KECCAK256 PUSH1 0x2 ADD PUSH1 0x0 DUP5 PUSH20 0xFFFFFFFFFFFFFFFFFFFFFFFFFFFFFFFFFFFFFFFF AND PUSH20 0xFFFFFFFFFFFFFFFFFFFFFFFFFFFFFFFFFFFFFFFF AND DUP2 MSTORE PUSH1 0x20 ADD SWAP1 DUP2 MSTORE PUSH1 0x20 ADD PUSH1 0x0 KECCAK256 SWAP1 DUP1 MLOAD SWAP1 PUSH1 0x20 ADD SWAP1 PUSH2 0x300 SWAP3 SWAP2 SWAP1 PUSH2 0xD57 JUMP JUMPDEST POP POP POP POP JUMP JUMPDEST DUP3 PUSH1 0x0 DUP1 DUP6 PUSH20 0xFFFFFFFFFFFFFFFFFFFFFFFFFFFFFFFFFFFFFFFF AND PUSH20 0xFFFFFFFFFFFFFFFFFFFFFFFFFFFFFFFFFFFFFFFF AND DUP2 MSTORE PUSH1 0x20 ADD SWAP1 DUP2 MSTORE PUSH1 0x20 ADD PUSH1 0x0 KECCAK256 PUSH1 0x0 ADD PUSH1 0x0 PUSH2 0x100 EXP DUP2 SLOAD DUP2 PUSH20 0xFFFFFFFFFFFFFFFFFFFFFFFFFFFFFFFFFFFFFFFF MUL NOT AND SWAP1 DUP4 PUSH20 0xFFFFFFFFFFFFFFFFFFFFFFFFFFFFFFFFFFFFFFFF AND MUL OR SWAP1 SSTORE POP DUP2 PUSH1 0x0 DUP1 DUP6 PUSH20 0xFFFFFFFFFFFFFFFFFFFFFFFFFFFFFFFFFFFFFFFF AND PUSH20 0xFFFFFFFFFFFFFFFFFFFFFFFFFFFFFFFFFFFFFFFF AND DUP2 MSTORE PUSH1 0x20 ADD SWAP1 DUP2 MSTORE PUSH1 0x20 ADD PUSH1 0x0 KECCAK256 PUSH1 0x1 ADD SWAP1 DUP1 MLOAD SWAP1 PUSH1 0x20 ADD SWAP1 PUSH2 0x3DB SWAP3 SWAP2 SWAP1 PUSH2 0xD57 JUMP JUMPDEST POP DUP1 PUSH1 0x0 DUP1 DUP6 PUSH20 0xFFFFFFFFFFFFFFFFFFFFFFFFFFFFFFFFFFFFFFFF AND PUSH20 0xFFFFFFFFFFFFFFFFFFFFFFFFFFFFFFFFFFFFFFFF AND DUP2 MSTORE PUSH1 0x20 ADD SWAP1 DUP2 MSTORE PUSH1 0x20 ADD PUSH1 0x0 KECCAK256 PUSH1 0x2 ADD SWAP1 DUP1 MLOAD SWAP1 PUSH1 0x20 ADD SWAP1 PUSH2 0x431 SWAP3 SWAP2 SWAP1 PUSH2 0xD57 JUMP JUMPDEST POP POP POP POP JUMP JUMPDEST PUSH1 0x60 PUSH1 0x1 PUSH1 0x0 DUP5 PUSH20 0xFFFFFFFFFFFFFFFFFFFFFFFFFFFFFFFFFFFFFFFF AND PUSH20 0xFFFFFFFFFFFFFFFFFFFFFFFFFFFFFFFFFFFFFFFF AND DUP2 MSTORE PUSH1 0x20 ADD SWAP1 DUP2 MSTORE PUSH1 0x20 ADD PUSH1 0x0 KECCAK256 PUSH1 0x2 ADD PUSH1 0x0 DUP4 PUSH20 0xFFFFFFFFFFFFFFFFFFFFFFFFFFFFFFFFFFFFFFFF AND PUSH20 0xFFFFFFFFFFFFFFFFFFFFFFFFFFFFFFFFFFFFFFFF AND DUP2 MSTORE PUSH1 0x20 ADD SWAP1 DUP2 MSTORE PUSH1 0x20 ADD PUSH1 0x0 KECCAK256 DUP1 SLOAD PUSH2 0x4C3 SWAP1 PUSH2 0x138F JUMP JUMPDEST DUP1 PUSH1 0x1F ADD PUSH1 0x20 DUP1 SWAP2 DIV MUL PUSH1 0x20 ADD PUSH1 0x40 MLOAD SWAP1 DUP2 ADD PUSH1 0x40 MSTORE DUP1 SWAP3 SWAP2 SWAP1 DUP2 DUP2 MSTORE PUSH1 0x20 ADD DUP3 DUP1 SLOAD PUSH2 0x4EF SWAP1 PUSH2 0x138F JUMP JUMPDEST DUP1 ISZERO PUSH2 0x53C JUMPI DUP1 PUSH1 0x1F LT PUSH2 0x511 JUMPI PUSH2 0x100 DUP1 DUP4 SLOAD DIV MUL DUP4 MSTORE SWAP2 PUSH1 0x20 ADD SWAP2 PUSH2 0x53C JUMP JUMPDEST DUP3 ADD SWAP2 SWAP1 PUSH1 0x0 MSTORE PUSH1 0x20 PUSH1 0x0 KECCAK256 SWAP1 JUMPDEST DUP2 SLOAD DUP2 MSTORE SWAP1 PUSH1 0x1 ADD SWAP1 PUSH1 0x20 ADD DUP1 DUP4 GT PUSH2 0x51F JUMPI DUP3 SWAP1 SUB PUSH1 0x1F AND DUP3 ADD SWAP2 JUMPDEST POP POP POP POP POP SWAP1 POP SWAP3 SWAP2 POP POP JUMP JUMPDEST PUSH1 0x60 DUP1 PUSH1 0x1 PUSH1 0x0 DUP5 PUSH20 0xFFFFFFFFFFFFFFFFFFFFFFFFFFFFFFFFFFFFFFFF AND PUSH20 0xFFFFFFFFFFFFFFFFFFFFFFFFFFFFFFFFFFFFFFFF AND DUP2 MSTORE PUSH1 0x20 ADD SWAP1 DUP2 MSTORE PUSH1 0x20 ADD PUSH1 0x0 KECCAK256 PUSH1 0x1 ADD DUP1 SLOAD PUSH2 0x599 SWAP1 PUSH2 0x138F JUMP JUMPDEST DUP1 PUSH1 0x1F ADD PUSH1 0x20 DUP1 SWAP2 DIV MUL PUSH1 0x20 ADD PUSH1 0x40 MLOAD SWAP1 DUP2 ADD PUSH1 0x40 MSTORE DUP1 SWAP3 SWAP2 SWAP1 DUP2 DUP2 MSTORE PUSH1 0x20 ADD DUP3 DUP1 SLOAD PUSH2 0x5C5 SWAP1 PUSH2 0x138F JUMP JUMPDEST DUP1 ISZERO PUSH2 0x612 JUMPI DUP1 PUSH1 0x1F LT PUSH2 0x5E7 JUMPI PUSH2 0x100 DUP1 DUP4 SLOAD DIV MUL DUP4 MSTORE SWAP2 PUSH1 0x20 ADD SWAP2 PUSH2 0x612 JUMP JUMPDEST DUP3 ADD SWAP2 SWAP1 PUSH1 0x0 MSTORE PUSH1 0x20 PUSH1 0x0 KECCAK256 SWAP1 JUMPDEST DUP2 SLOAD DUP2 MSTORE SWAP1 PUSH1 0x1 ADD SWAP1 PUSH1 0x20 ADD DUP1 DUP4 GT PUSH2 0x5F5 JUMPI DUP3 SWAP1 SUB PUSH1 0x1F AND DUP3 ADD SWAP2 JUMPDEST POP POP POP POP POP SWAP2 POP PUSH1 0x1 PUSH1 0x0 DUP5 PUSH20 0xFFFFFFFFFFFFFFFFFFFFFFFFFFFFFFFFFFFFFFFF AND PUSH20 0xFFFFFFFFFFFFFFFFFFFFFFFFFFFFFFFFFFFFFFFF AND DUP2 MSTORE PUSH1 0x20 ADD SWAP1 DUP2 MSTORE PUSH1 0x20 ADD PUSH1 0x0 KECCAK256 PUSH1 0x3 ADD DUP1 SLOAD PUSH2 0x666 SWAP1 PUSH2 0x138F JUMP JUMPDEST DUP1 PUSH1 0x1F ADD PUSH1 0x20 DUP1 SWAP2 DIV MUL PUSH1 0x20 ADD PUSH1 0x40 MLOAD SWAP1 DUP2 ADD PUSH1 0x40 MSTORE DUP1 SWAP3 SWAP2 SWAP1 DUP2 DUP2 MSTORE PUSH1 0x20 ADD DUP3 DUP1 SLOAD PUSH2 0x692 SWAP1 PUSH2 0x138F JUMP JUMPDEST DUP1 ISZERO PUSH2 0x6DF JUMPI DUP1 PUSH1 0x1F LT PUSH2 0x6B4 JUMPI PUSH2 0x100 DUP1 DUP4 SLOAD DIV MUL DUP4 MSTORE SWAP2 PUSH1 0x20 ADD SWAP2 PUSH2 0x6DF JUMP JUMPDEST DUP3 ADD SWAP2 SWAP1 PUSH1 0x0 MSTORE PUSH1 0x20 PUSH1 0x0 KECCAK256 SWAP1 JUMPDEST DUP2 SLOAD DUP2 MSTORE SWAP1 PUSH1 0x1 ADD SWAP1 PUSH1 0x20 ADD DUP1 DUP4 GT PUSH2 0x6C2 JUMPI DUP3 SWAP1 SUB PUSH1 0x1F AND DUP3 ADD SWAP2 JUMPDEST POP POP POP POP POP SWAP1 POP SWAP2 POP SWAP2 JUMP JUMPDEST PUSH1 0x1 PUSH1 0x20 MSTORE DUP1 PUSH1 0x0 MSTORE PUSH1 0x40 PUSH1 0x0 KECCAK256 PUSH1 0x0 SWAP2 POP SWAP1 POP DUP1 PUSH1 0x0 ADD PUSH1 0x0 SWAP1 SLOAD SWAP1 PUSH2 0x100 EXP SWAP1 DIV PUSH20 0xFFFFFFFFFFFFFFFFFFFFFFFFFFFFFFFFFFFFFFFF AND SWAP1 DUP1 PUSH1 0x1 ADD DUP1 SLOAD PUSH2 0x734 SWAP1 PUSH2 0x138F JUMP JUMPDEST DUP1 PUSH1 0x1F ADD PUSH1 0x20 DUP1 SWAP2 DIV MUL PUSH1 0x20 ADD PUSH1 0x40 MLOAD SWAP1 DUP2 ADD PUSH1 0x40 MSTORE DUP1 SWAP3 SWAP2 SWAP1 DUP2 DUP2 MSTORE PUSH1 0x20 ADD DUP3 DUP1 SLOAD PUSH2 0x760 SWAP1 PUSH2 0x138F JUMP JUMPDEST DUP1 ISZERO PUSH2 0x7AD JUMPI DUP1 PUSH1 0x1F LT PUSH2 0x782 JUMPI PUSH2 0x100 DUP1 DUP4 SLOAD DIV MUL DUP4 MSTORE SWAP2 PUSH1 0x20 ADD SWAP2 PUSH2 0x7AD JUMP JUMPDEST DUP3 ADD SWAP2 SWAP1 PUSH1 0x0 MSTORE PUSH1 0x20 PUSH1 0x0 KECCAK256 SWAP1 JUMPDEST DUP2 SLOAD DUP2 MSTORE SWAP1 PUSH1 0x1 ADD SWAP1 PUSH1 0x20 ADD DUP1 DUP4 GT PUSH2 0x790 JUMPI DUP3 SWAP1 SUB PUSH1 0x1F AND DUP3 ADD SWAP2 JUMPDEST POP POP POP POP POP SWAP1 DUP1 PUSH1 0x3 ADD DUP1 SLOAD PUSH2 0x7C2 SWAP1 PUSH2 0x138F JUMP JUMPDEST DUP1 PUSH1 0x1F ADD PUSH1 0x20 DUP1 SWAP2 DIV MUL PUSH1 0x20 ADD PUSH1 0x40 MLOAD SWAP1 DUP2 ADD PUSH1 0x40 MSTORE DUP1 SWAP3 SWAP2 SWAP1 DUP2 DUP2 MSTORE PUSH1 0x20 ADD DUP3 DUP1 SLOAD PUSH2 0x7EE SWAP1 PUSH2 0x138F JUMP JUMPDEST DUP1 ISZERO PUSH2 0x83B JUMPI DUP1 PUSH1 0x1F LT PUSH2 0x810 JUMPI PUSH2 0x100 DUP1 DUP4 SLOAD DIV MUL DUP4 MSTORE SWAP2 PUSH1 0x20 ADD SWAP2 PUSH2 0x83B JUMP JUMPDEST DUP3 ADD SWAP2 SWAP1 PUSH1 0x0 MSTORE PUSH1 0x20 PUSH1 0x0 KECCAK256 SWAP1 JUMPDEST DUP2 SLOAD DUP2 MSTORE SWAP1 PUSH1 0x1 ADD SWAP1 PUSH1 0x20 ADD DUP1 DUP4 GT PUSH2 0x81E JUMPI DUP3 SWAP1 SUB PUSH1 0x1F AND DUP3 ADD SWAP2 JUMPDEST POP POP POP POP POP SWAP1 POP DUP4 JUMP JUMPDEST PUSH2 0x84D PUSH2 0xDDD JUMP JUMPDEST PUSH1 0x0 DUP1 DUP4 PUSH20 0xFFFFFFFFFFFFFFFFFFFFFFFFFFFFFFFFFFFFFFFF AND PUSH20 0xFFFFFFFFFFFFFFFFFFFFFFFFFFFFFFFFFFFFFFFF AND DUP2 MSTORE PUSH1 0x20 ADD SWAP1 DUP2 MSTORE PUSH1 0x20 ADD PUSH1 0x0 KECCAK256 PUSH1 0x40 MLOAD DUP1 PUSH1 0x60 ADD PUSH1 0x40 MSTORE SWAP1 DUP2 PUSH1 0x0 DUP3 ADD PUSH1 0x0 SWAP1 SLOAD SWAP1 PUSH2 0x100 EXP SWAP1 DIV PUSH20 0xFFFFFFFFFFFFFFFFFFFFFFFFFFFFFFFFFFFFFFFF AND PUSH20 0xFFFFFFFFFFFFFFFFFFFFFFFFFFFFFFFFFFFFFFFF AND PUSH20 0xFFFFFFFFFFFFFFFFFFFFFFFFFFFFFFFFFFFFFFFF AND DUP2 MSTORE PUSH1 0x20 ADD PUSH1 0x1 DUP3 ADD DUP1 SLOAD PUSH2 0x8FC SWAP1 PUSH2 0x138F JUMP JUMPDEST DUP1 PUSH1 0x1F ADD PUSH1 0x20 DUP1 SWAP2 DIV MUL PUSH1 0x20 ADD PUSH1 0x40 MLOAD SWAP1 DUP2 ADD PUSH1 0x40 MSTORE DUP1 SWAP3 SWAP2 SWAP1 DUP2 DUP2 MSTORE PUSH1 0x20 ADD DUP3 DUP1 SLOAD PUSH2 0x928 SWAP1 PUSH2 0x138F JUMP JUMPDEST DUP1 ISZERO PUSH2 0x975 JUMPI DUP1 PUSH1 0x1F LT PUSH2 0x94A JUMPI PUSH2 0x100 DUP1 DUP4 SLOAD DIV MUL DUP4 MSTORE SWAP2 PUSH1 0x20 ADD SWAP2 PUSH2 0x975 JUMP JUMPDEST DUP3 ADD SWAP2 SWAP1 PUSH1 0x0 MSTORE PUSH1 0x20 PUSH1 0x0 KECCAK256 SWAP1 JUMPDEST DUP2 SLOAD DUP2 MSTORE SWAP1 PUSH1 0x1 ADD SWAP1 PUSH1 0x20 ADD DUP1 DUP4 GT PUSH2 0x958 JUMPI DUP3 SWAP1 SUB PUSH1 0x1F AND DUP3 ADD SWAP2 JUMPDEST POP POP POP POP POP DUP2 MSTORE PUSH1 0x20 ADD PUSH1 0x2 DUP3 ADD DUP1 SLOAD PUSH2 0x98E SWAP1 PUSH2 0x138F JUMP JUMPDEST DUP1 PUSH1 0x1F ADD PUSH1 0x20 DUP1 SWAP2 DIV MUL PUSH1 0x20 ADD PUSH1 0x40 MLOAD SWAP1 DUP2 ADD PUSH1 0x40 MSTORE DUP1 SWAP3 SWAP2 SWAP1 DUP2 DUP2 MSTORE PUSH1 0x20 ADD DUP3 DUP1 SLOAD PUSH2 0x9BA SWAP1 PUSH2 0x138F JUMP JUMPDEST DUP1 ISZERO PUSH2 0xA07 JUMPI DUP1 PUSH1 0x1F LT PUSH2 0x9DC JUMPI PUSH2 0x100 DUP1 DUP4 SLOAD DIV MUL DUP4 MSTORE SWAP2 PUSH1 0x20 ADD SWAP2 PUSH2 0xA07 JUMP JUMPDEST DUP3 ADD SWAP2 SWAP1 PUSH1 0x0 MSTORE PUSH1 0x20 PUSH1 0x0 KECCAK256 SWAP1 JUMPDEST DUP2 SLOAD DUP2 MSTORE SWAP1 PUSH1 0x1 ADD SWAP1 PUSH1 0x20 ADD DUP1 DUP4 GT PUSH2 0x9EA JUMPI DUP3 SWAP1 SUB PUSH1 0x1F AND DUP3 ADD SWAP2 JUMPDEST POP POP POP POP POP DUP2 MSTORE POP POP SWAP1 POP SWAP2 SWAP1 POP JUMP JUMPDEST PUSH1 0x0 DUP1 PUSH1 0x0 PUSH20 0xB4D18D483B641200AA096558C9BA63AEB243002B PUSH20 0xFF5D2FE96548E05E49C67FCC36C7DBECA2F501F2 PUSH20 0xBE7186F383961CC24AD8012A2F2942667A72788F DUP1 SWAP4 POP DUP2 SWAP5 POP DUP3 SWAP6 POP POP POP POP PUSH2 0xADC DUP4 PUSH1 0x40 MLOAD DUP1 PUSH1 0x40 ADD PUSH1 0x40 MSTORE DUP1 PUSH1 0x2 DUP2 MSTORE PUSH1 0x20 ADD PUSH32 0x6431000000000000000000000000000000000000000000000000000000000000 DUP2 MSTORE POP PUSH1 0x40 MLOAD DUP1 PUSH1 0x40 ADD PUSH1 0x40 MSTORE DUP1 PUSH1 0x9 DUP2 MSTORE PUSH1 0x20 ADD PUSH32 0x6C696768746E696E670000000000000000000000000000000000000000000000 DUP2 MSTORE POP PUSH2 0x306 JUMP JUMPDEST PUSH2 0xB51 DUP3 PUSH1 0x40 MLOAD DUP1 PUSH1 0x40 ADD PUSH1 0x40 MSTORE DUP1 PUSH1 0x2 DUP2 MSTORE PUSH1 0x20 ADD PUSH32 0x6432000000000000000000000000000000000000000000000000000000000000 DUP2 MSTORE POP PUSH1 0x40 MLOAD DUP1 PUSH1 0x40 ADD PUSH1 0x40 MSTORE DUP1 PUSH1 0x4 DUP2 MSTORE PUSH1 0x20 ADD PUSH32 0x6772696400000000000000000000000000000000000000000000000000000000 DUP2 MSTORE POP PUSH2 0x306 JUMP JUMPDEST PUSH2 0xBC6 DUP2 PUSH1 0x40 MLOAD DUP1 PUSH1 0x40 ADD PUSH1 0x40 MSTORE DUP1 PUSH1 0x2 DUP2 MSTORE PUSH1 0x20 ADD PUSH32 0x6433000000000000000000000000000000000000000000000000000000000000 DUP2 MSTORE POP PUSH1 0x40 MLOAD DUP1 PUSH1 0x40 ADD PUSH1 0x40 MSTORE DUP1 PUSH1 0x6 DUP2 MSTORE PUSH1 0x20 ADD PUSH32 0x726F757465720000000000000000000000000000000000000000000000000000 DUP2 MSTORE POP PUSH2 0x306 JUMP JUMPDEST PUSH1 0x0 DUP1 PUSH1 0x0 PUSH20 0x5B38DA6A701C568545DCFCB03FCB875F56BEDDC4 PUSH20 0xAB8483F64D9C6D1ECF9B849AE677DD3315835CB2 PUSH20 0x4B20993BC481177EC7E8F571CECAE8A9E22C02DB DUP1 SWAP4 POP DUP2 SWAP5 POP DUP3 SWAP6 POP POP POP POP POP POP POP POP POP POP JUMP JUMPDEST PUSH1 0x0 CALLER SWAP1 POP DUP1 PUSH1 0x1 PUSH1 0x0 DUP4 PUSH20 0xFFFFFFFFFFFFFFFFFFFFFFFFFFFFFFFFFFFFFFFF AND PUSH20 0xFFFFFFFFFFFFFFFFFFFFFFFFFFFFFFFFFFFFFFFF AND DUP2 MSTORE PUSH1 0x20 ADD SWAP1 DUP2 MSTORE PUSH1 0x20 ADD PUSH1 0x0 KECCAK256 PUSH1 0x0 ADD PUSH1 0x0 PUSH2 0x100 EXP DUP2 SLOAD DUP2 PUSH20 0xFFFFFFFFFFFFFFFFFFFFFFFFFFFFFFFFFFFFFFFF MUL NOT AND SWAP1 DUP4 PUSH20 0xFFFFFFFFFFFFFFFFFFFFFFFFFFFFFFFFFFFFFFFF AND MUL OR SWAP1 SSTORE POP DUP3 PUSH1 0x1 PUSH1 0x0 DUP4 PUSH20 0xFFFFFFFFFFFFFFFFFFFFFFFFFFFFFFFFFFFFFFFF AND PUSH20 0xFFFFFFFFFFFFFFFFFFFFFFFFFFFFFFFFFFFFFFFF AND DUP2 MSTORE PUSH1 0x20 ADD SWAP1 DUP2 MSTORE PUSH1 0x20 ADD PUSH1 0x0 KECCAK256 PUSH1 0x1 ADD SWAP1 DUP1 MLOAD SWAP1 PUSH1 0x20 ADD SWAP1 PUSH2 0xCFA SWAP3 SWAP2 SWAP1 PUSH2 0xD57 JUMP JUMPDEST POP DUP2 PUSH1 0x1 PUSH1 0x0 DUP4 PUSH20 0xFFFFFFFFFFFFFFFFFFFFFFFFFFFFFFFFFFFFFFFF AND PUSH20 0xFFFFFFFFFFFFFFFFFFFFFFFFFFFFFFFFFFFFFFFF AND DUP2 MSTORE PUSH1 0x20 ADD SWAP1 DUP2 MSTORE PUSH1 0x20 ADD PUSH1 0x0 KECCAK256 PUSH1 0x3 ADD SWAP1 DUP1 MLOAD SWAP1 PUSH1 0x20 ADD SWAP1 PUSH2 0xD51 SWAP3 SWAP2 SWAP1 PUSH2 0xD57 JUMP JUMPDEST POP POP POP POP JUMP JUMPDEST DUP3 DUP1 SLOAD PUSH2 0xD63 SWAP1 PUSH2 0x138F JUMP JUMPDEST SWAP1 PUSH1 0x0 MSTORE PUSH1 0x20 PUSH1 0x0 KECCAK256 SWAP1 PUSH1 0x1F ADD PUSH1 0x20 SWAP1 DIV DUP2 ADD SWAP3 DUP3 PUSH2 0xD85 JUMPI PUSH1 0x0 DUP6 SSTORE PUSH2 0xDCC JUMP JUMPDEST DUP3 PUSH1 0x1F LT PUSH2 0xD9E JUMPI DUP1 MLOAD PUSH1 0xFF NOT AND DUP4 DUP1 ADD OR DUP6 SSTORE PUSH2 0xDCC JUMP JUMPDEST DUP3 DUP1 ADD PUSH1 0x1 ADD DUP6 SSTORE DUP3 ISZERO PUSH2 0xDCC JUMPI SWAP2 DUP3 ADD JUMPDEST DUP3 DUP2 GT ISZERO PUSH2 0xDCB JUMPI DUP3 MLOAD DUP3 SSTORE SWAP2 PUSH1 0x20 ADD SWAP2 SWAP1 PUSH1 0x1 ADD SWAP1 PUSH2 0xDB0 JUMP JUMPDEST JUMPDEST POP SWAP1 POP PUSH2 0xDD9 SWAP2 SWAP1 PUSH2 0xE14 JUMP JUMPDEST POP SWAP1 JUMP JUMPDEST PUSH1 0x40 MLOAD DUP1 PUSH1 0x60 ADD PUSH1 0x40 MSTORE DUP1 PUSH1 0x0 PUSH20 0xFFFFFFFFFFFFFFFFFFFFFFFFFFFFFFFFFFFFFFFF AND DUP2 MSTORE PUSH1 0x20 ADD PUSH1 0x60 DUP2 MSTORE PUSH1 0x20 ADD PUSH1 0x60 DUP2 MSTORE POP SWAP1 JUMP JUMPDEST JUMPDEST DUP1 DUP3 GT ISZERO PUSH2 0xE2D JUMPI PUSH1 0x0 DUP2 PUSH1 0x0 SWAP1 SSTORE POP PUSH1 0x1 ADD PUSH2 0xE15 JUMP JUMPDEST POP SWAP1 JUMP JUMPDEST PUSH1 0x0 PUSH2 0xE44 PUSH2 0xE3F DUP5 PUSH2 0x12BD JUMP JUMPDEST PUSH2 0x1298 JUMP JUMPDEST SWAP1 POP DUP3 DUP2 MSTORE PUSH1 0x20 DUP2 ADD DUP5 DUP5 DUP5 ADD GT ISZERO PUSH2 0xE60 JUMPI PUSH2 0xE5F PUSH2 0x1455 JUMP JUMPDEST JUMPDEST PUSH2 0xE6B DUP5 DUP3 DUP6 PUSH2 0x134D JUMP JUMPDEST POP SWAP4 SWAP3 POP POP POP JUMP JUMPDEST PUSH1 0x0 DUP2 CALLDATALOAD SWAP1 POP PUSH2 0xE82 DUP2 PUSH2 0x1475 JUMP JUMPDEST SWAP3 SWAP2 POP POP JUMP JUMPDEST PUSH1 0x0 DUP3 PUSH1 0x1F DUP4 ADD SLT PUSH2 0xE9D JUMPI PUSH2 0xE9C PUSH2 0x1450 JUMP JUMPDEST JUMPDEST DUP2 CALLDATALOAD PUSH2 0xEAD DUP5 DUP3 PUSH1 0x20 DUP7 ADD PUSH2 0xE31 JUMP JUMPDEST SWAP2 POP POP SWAP3 SWAP2 POP POP JUMP JUMPDEST PUSH1 0x0 PUSH1 0x20 DUP3 DUP5 SUB SLT ISZERO PUSH2 0xECC JUMPI PUSH2 0xECB PUSH2 0x145F JUMP JUMPDEST JUMPDEST PUSH1 0x0 PUSH2 0xEDA DUP5 DUP3 DUP6 ADD PUSH2 0xE73 JUMP JUMPDEST SWAP2 POP POP SWAP3 SWAP2 POP POP JUMP JUMPDEST PUSH1 0x0 DUP1 PUSH1 0x40 DUP4 DUP6 SUB SLT ISZERO PUSH2 0xEFA JUMPI PUSH2 0xEF9 PUSH2 0x145F JUMP JUMPDEST JUMPDEST PUSH1 0x0 PUSH2 0xF08 DUP6 DUP3 DUP7 ADD PUSH2 0xE73 JUMP JUMPDEST SWAP3 POP POP PUSH1 0x20 PUSH2 0xF19 DUP6 DUP3 DUP7 ADD PUSH2 0xE73 JUMP JUMPDEST SWAP2 POP POP SWAP3 POP SWAP3 SWAP1 POP JUMP JUMPDEST PUSH1 0x0 DUP1 PUSH1 0x0 PUSH1 0x60 DUP5 DUP7 SUB SLT ISZERO PUSH2 0xF3C JUMPI PUSH2 0xF3B PUSH2 0x145F JUMP JUMPDEST JUMPDEST PUSH1 0x0 PUSH2 0xF4A DUP7 DUP3 DUP8 ADD PUSH2 0xE73 JUMP JUMPDEST SWAP4 POP POP PUSH1 0x20 PUSH2 0xF5B DUP7 DUP3 DUP8 ADD PUSH2 0xE73 JUMP JUMPDEST SWAP3 POP POP PUSH1 0x40 DUP5 ADD CALLDATALOAD PUSH8 0xFFFFFFFFFFFFFFFF DUP2 GT ISZERO PUSH2 0xF7C JUMPI PUSH2 0xF7B PUSH2 0x145A JUMP JUMPDEST JUMPDEST PUSH2 0xF88 DUP7 DUP3 DUP8 ADD PUSH2 0xE88 JUMP JUMPDEST SWAP2 POP POP SWAP3 POP SWAP3 POP SWAP3 JUMP JUMPDEST PUSH1 0x0 DUP1 PUSH1 0x40 DUP4 DUP6 SUB SLT ISZERO PUSH2 0xFA9 JUMPI PUSH2 0xFA8 PUSH2 0x145F JUMP JUMPDEST JUMPDEST PUSH1 0x0 PUSH2 0xFB7 DUP6 DUP3 DUP7 ADD PUSH2 0xE73 JUMP JUMPDEST SWAP3 POP POP PUSH1 0x20 DUP4 ADD CALLDATALOAD PUSH8 0xFFFFFFFFFFFFFFFF DUP2 GT ISZERO PUSH2 0xFD8 JUMPI PUSH2 0xFD7 PUSH2 0x145A JUMP JUMPDEST JUMPDEST PUSH2 0xFE4 DUP6 DUP3 DUP7 ADD PUSH2 0xE88 JUMP JUMPDEST SWAP2 POP POP SWAP3 POP SWAP3 SWAP1 POP JUMP JUMPDEST PUSH1 0x0 DUP1 PUSH1 0x0 PUSH1 0x60 DUP5 DUP7 SUB SLT ISZERO PUSH2 0x1007 JUMPI PUSH2 0x1006 PUSH2 0x145F JUMP JUMPDEST JUMPDEST PUSH1 0x0 PUSH2 0x1015 DUP7 DUP3 DUP8 ADD PUSH2 0xE73 JUMP JUMPDEST SWAP4 POP POP PUSH1 0x20 DUP5 ADD CALLDATALOAD PUSH8 0xFFFFFFFFFFFFFFFF DUP2 GT ISZERO PUSH2 0x1036 JUMPI PUSH2 0x1035 PUSH2 0x145A JUMP JUMPDEST JUMPDEST PUSH2 0x1042 DUP7 DUP3 DUP8 ADD PUSH2 0xE88 JUMP JUMPDEST SWAP3 POP POP PUSH1 0x40 DUP5 ADD CALLDATALOAD PUSH8 0xFFFFFFFFFFFFFFFF DUP2 GT ISZERO PUSH2 0x1063 JUMPI PUSH2 0x1062 PUSH2 0x145A JUMP JUMPDEST JUMPDEST PUSH2 0x106F DUP7 DUP3 DUP8 ADD PUSH2 0xE88 JUMP JUMPDEST SWAP2 POP POP SWAP3 POP SWAP3 POP SWAP3 JUMP JUMPDEST PUSH1 0x0 DUP1 PUSH1 0x40 DUP4 DUP6 SUB SLT ISZERO PUSH2 0x1090 JUMPI PUSH2 0x108F PUSH2 0x145F JUMP JUMPDEST JUMPDEST PUSH1 0x0 DUP4 ADD CALLDATALOAD PUSH8 0xFFFFFFFFFFFFFFFF DUP2 GT ISZERO PUSH2 0x10AE JUMPI PUSH2 0x10AD PUSH2 0x145A JUMP JUMPDEST JUMPDEST PUSH2 0x10BA DUP6 DUP3 DUP7 ADD PUSH2 0xE88 JUMP JUMPDEST SWAP3 POP POP PUSH1 0x20 DUP4 ADD CALLDATALOAD PUSH8 0xFFFFFFFFFFFFFFFF DUP2 GT ISZERO PUSH2 0x10DB JUMPI PUSH2 0x10DA PUSH2 0x145A JUMP JUMPDEST JUMPDEST PUSH2 0x10E7 DUP6 DUP3 DUP7 ADD PUSH2 0xE88 JUMP JUMPDEST SWAP2 POP POP SWAP3 POP SWAP3 SWAP1 POP JUMP JUMPDEST PUSH2 0x10FA DUP2 PUSH2 0x131B JUMP JUMPDEST DUP3 MSTORE POP POP JUMP JUMPDEST PUSH2 0x1109 DUP2 PUSH2 0x131B JUMP JUMPDEST DUP3 MSTORE POP POP JUMP JUMPDEST PUSH1 0x0 PUSH2 0x111A DUP3 PUSH2 0x12EE JUMP JUMPDEST PUSH2 0x1124 DUP2 DUP6 PUSH2 0x12F9 JUMP JUMPDEST SWAP4 POP PUSH2 0x1134 DUP2 DUP6 PUSH1 0x20 DUP7 ADD PUSH2 0x135C JUMP JUMPDEST PUSH2 0x113D DUP2 PUSH2 0x1464 JUMP JUMPDEST DUP5 ADD SWAP2 POP POP SWAP3 SWAP2 POP POP JUMP JUMPDEST PUSH1 0x0 PUSH2 0x1153 DUP3 PUSH2 0x12EE JUMP JUMPDEST PUSH2 0x115D DUP2 DUP6 PUSH2 0x130A JUMP JUMPDEST SWAP4 POP PUSH2 0x116D DUP2 DUP6 PUSH1 0x20 DUP7 ADD PUSH2 0x135C JUMP JUMPDEST PUSH2 0x1176 DUP2 PUSH2 0x1464 JUMP JUMPDEST DUP5 ADD SWAP2 POP POP SWAP3 SWAP2 POP POP JUMP JUMPDEST PUSH1 0x0 PUSH1 0x60 DUP4 ADD PUSH1 0x0 DUP4 ADD MLOAD PUSH2 0x1199 PUSH1 0x0 DUP7 ADD DUP3 PUSH2 0x10F1 JUMP JUMPDEST POP PUSH1 0x20 DUP4 ADD MLOAD DUP5 DUP3 SUB PUSH1 0x20 DUP7 ADD MSTORE PUSH2 0x11B1 DUP3 DUP3 PUSH2 0x110F JUMP JUMPDEST SWAP2 POP POP PUSH1 0x40 DUP4 ADD MLOAD DUP5 DUP3 SUB PUSH1 0x40 DUP7 ADD MSTORE PUSH2 0x11CB DUP3 DUP3 PUSH2 0x110F JUMP JUMPDEST SWAP2 POP POP DUP1 SWAP2 POP POP SWAP3 SWAP2 POP POP JUMP JUMPDEST PUSH1 0x0 PUSH1 0x60 DUP3 ADD SWAP1 POP PUSH2 0x11ED PUSH1 0x0 DUP4 ADD DUP7 PUSH2 0x1100 JUMP JUMPDEST DUP2 DUP2 SUB PUSH1 0x20 DUP4 ADD MSTORE PUSH2 0x11FF DUP2 DUP6 PUSH2 0x1148 JUMP JUMPDEST SWAP1 POP DUP2 DUP2 SUB PUSH1 0x40 DUP4 ADD MSTORE PUSH2 0x1213 DUP2 DUP5 PUSH2 0x1148 JUMP JUMPDEST SWAP1 POP SWAP5 SWAP4 POP POP POP POP JUMP JUMPDEST PUSH1 0x0 PUSH1 0x20 DUP3 ADD SWAP1 POP DUP2 DUP2 SUB PUSH1 0x0 DUP4 ADD MSTORE PUSH2 0x1237 DUP2 DUP5 PUSH2 0x1148 JUMP JUMPDEST SWAP1 POP SWAP3 SWAP2 POP POP JUMP JUMPDEST PUSH1 0x0 PUSH1 0x40 DUP3 ADD SWAP1 POP DUP2 DUP2 SUB PUSH1 0x0 DUP4 ADD MSTORE PUSH2 0x1259 DUP2 DUP6 PUSH2 0x1148 JUMP JUMPDEST SWAP1 POP DUP2 DUP2 SUB PUSH1 0x20 DUP4 ADD MSTORE PUSH2 0x126D DUP2 DUP5 PUSH2 0x1148 JUMP JUMPDEST SWAP1 POP SWAP4 SWAP3 POP POP POP JUMP JUMPDEST PUSH1 0x0 PUSH1 0x20 DUP3 ADD SWAP1 POP DUP2 DUP2 SUB PUSH1 0x0 DUP4 ADD MSTORE PUSH2 0x1290 DUP2 DUP5 PUSH2 0x1181 JUMP JUMPDEST SWAP1 POP SWAP3 SWAP2 POP POP JUMP JUMPDEST PUSH1 0x0 PUSH2 0x12A2 PUSH2 0x12B3 JUMP JUMPDEST SWAP1 POP PUSH2 0x12AE DUP3 DUP3 PUSH2 0x13C1 JUMP JUMPDEST SWAP2 SWAP1 POP JUMP JUMPDEST PUSH1 0x0 PUSH1 0x40 MLOAD SWAP1 POP SWAP1 JUMP JUMPDEST PUSH1 0x0 PUSH8 0xFFFFFFFFFFFFFFFF DUP3 GT ISZERO PUSH2 0x12D8 JUMPI PUSH2 0x12D7 PUSH2 0x1421 JUMP JUMPDEST JUMPDEST PUSH2 0x12E1 DUP3 PUSH2 0x1464 JUMP JUMPDEST SWAP1 POP PUSH1 0x20 DUP2 ADD SWAP1 POP SWAP2 SWAP1 POP JUMP JUMPDEST PUSH1 0x0 DUP2 MLOAD SWAP1 POP SWAP2 SWAP1 POP JUMP JUMPDEST PUSH1 0x0 DUP3 DUP3 MSTORE PUSH1 0x20 DUP3 ADD SWAP1 POP SWAP3 SWAP2 POP POP JUMP JUMPDEST PUSH1 0x0 DUP3 DUP3 MSTORE PUSH1 0x20 DUP3 ADD SWAP1 POP SWAP3 SWAP2 POP POP JUMP JUMPDEST PUSH1 0x0 PUSH2 0x1326 DUP3 PUSH2 0x132D JUMP JUMPDEST SWAP1 POP SWAP2 SWAP1 POP JUMP JUMPDEST PUSH1 0x0 PUSH20 0xFFFFFFFFFFFFFFFFFFFFFFFFFFFFFFFFFFFFFFFF DUP3 AND SWAP1 POP SWAP2 SWAP1 POP JUMP JUMPDEST DUP3 DUP2 DUP4 CALLDATACOPY PUSH1 0x0 DUP4 DUP4 ADD MSTORE POP POP POP JUMP JUMPDEST PUSH1 0x0 JUMPDEST DUP4 DUP2 LT ISZERO PUSH2 0x137A JUMPI DUP1 DUP3 ADD MLOAD DUP2 DUP5 ADD MSTORE PUSH1 0x20 DUP2 ADD SWAP1 POP PUSH2 0x135F JUMP JUMPDEST DUP4 DUP2 GT ISZERO PUSH2 0x1389 JUMPI PUSH1 0x0 DUP5 DUP5 ADD MSTORE JUMPDEST POP POP POP POP JUMP JUMPDEST PUSH1 0x0 PUSH1 0x2 DUP3 DIV SWAP1 POP PUSH1 0x1 DUP3 AND DUP1 PUSH2 0x13A7 JUMPI PUSH1 0x7F DUP3 AND SWAP2 POP JUMPDEST PUSH1 0x20 DUP3 LT DUP2 EQ ISZERO PUSH2 0x13BB JUMPI PUSH2 0x13BA PUSH2 0x13F2 JUMP JUMPDEST JUMPDEST POP SWAP2 SWAP1 POP JUMP JUMPDEST PUSH2 0x13CA DUP3 PUSH2 0x1464 JUMP JUMPDEST DUP2 ADD DUP2 DUP2 LT PUSH8 0xFFFFFFFFFFFFFFFF DUP3 GT OR ISZERO PUSH2 0x13E9 JUMPI PUSH2 0x13E8 PUSH2 0x1421 JUMP JUMPDEST JUMPDEST DUP1 PUSH1 0x40 MSTORE POP POP POP JUMP JUMPDEST PUSH32 0x4E487B7100000000000000000000000000000000000000000000000000000000 PUSH1 0x0 MSTORE PUSH1 0x22 PUSH1 0x4 MSTORE PUSH1 0x24 PUSH1 0x0 REVERT JUMPDEST PUSH32 0x4E487B7100000000000000000000000000000000000000000000000000000000 PUSH1 0x0 MSTORE PUSH1 0x41 PUSH1 0x4 MSTORE PUSH1 0x24 PUSH1 0x0 REVERT JUMPDEST PUSH1 0x0 DUP1 REVERT JUMPDEST PUSH1 0x0 DUP1 REVERT JUMPDEST PUSH1 0x0 DUP1 REVERT JUMPDEST PUSH1 0x0 DUP1 REVERT JUMPDEST PUSH1 0x0 PUSH1 0x1F NOT PUSH1 0x1F DUP4 ADD AND SWAP1 POP SWAP2 SWAP1 POP JUMP JUMPDEST PUSH2 0x147E DUP2 PUSH2 0x131B JUMP JUMPDEST DUP2 EQ PUSH2 0x1489 JUMPI PUSH1 0x0 DUP1 REVERT JUMPDEST POP JUMP INVALID LOG2 PUSH5 0x6970667358 0x22 SLT KECCAK256 MSIZE 0xF7 LOG3 0xB5 0xCC DIV 0xEF MULMOD PUSH9 0x68939CD2E0587ECC99 REVERT PUSH10 0x9B405FBC47DA5CFE1CC5 0xCF CALLDATASIZE PUSH5 0x736F6C6343 STOP ADDMOD SMOD STOP CALLER "
				},
				"gasEstimates": {
					"creation": {
						"codeDepositCost": "1062800",
						"executionCost": "1107",
						"totalCost": "1063907"
					},
					"external": {
						"getDeviceInfoByAddr(address)": "infinite",
						"getRight(address,address)": "infinite",
						"getSubjInfo(address)": "infinite",
						"init()": "infinite",
						"register4Right(address,string)": "infinite",
						"setDeviceInfo(address,string,string)": "infinite",
						"setSubjInfo(string,string)": "infinite",
						"subjInfoMap(address)": "infinite",
						"testRegister(address,address,string)": "infinite"
					}
				},
				"methodIdentifiers": {
					"getDeviceInfoByAddr(address)": "de1e23b7",
					"getRight(address,address)": "8749774f",
					"getSubjInfo(address)": "9f764d16",
					"init()": "e1c7392a",
					"register4Right(address,string)": "11ef4171",
					"setDeviceInfo(address,string,string)": "6c477035",
					"setSubjInfo(string,string)": "f2c3c745",
					"subjInfoMap(address)": "b9e0ad10",
					"testRegister(address,address,string)": "5062278f"
				}
			},
			"storageLayout": {
				"storage": [
					{
						"astId": 24,
						"contract": "contracts/Management.sol:Management",
						"label": "deviceInfoMap",
						"offset": 0,
						"slot": "0",
						"type": "t_mapping(t_address,t_struct(DeviceInfo)8_storage)"
					},
					{
						"astId": 29,
						"contract": "contracts/Management.sol:Management",
						"label": "subjInfoMap",
						"offset": 0,
						"slot": "1",
						"type": "t_mapping(t_address,t_struct(SubjInfo)19_storage)"
					}
				],
				"types": {
					"t_address": {
						"encoding": "inplace",
						"label": "address",
						"numberOfBytes": "20"
					},
					"t_mapping(t_address,t_string_storage)": {
						"encoding": "mapping",
						"key": "t_address",
						"label": "mapping(address => string)",
						"numberOfBytes": "32",
						"value": "t_string_storage"
					},
					"t_mapping(t_address,t_struct(DeviceInfo)8_storage)": {
						"encoding": "mapping",
						"key": "t_address",
						"label": "mapping(address => struct Management.DeviceInfo)",
						"numberOfBytes": "32",
						"value": "t_struct(DeviceInfo)8_storage"
					},
					"t_mapping(t_address,t_struct(SubjInfo)19_storage)": {
						"encoding": "mapping",
						"key": "t_address",
						"label": "mapping(address => struct Management.SubjInfo)",
						"numberOfBytes": "32",
						"value": "t_struct(SubjInfo)19_storage"
					},
					"t_string_storage": {
						"encoding": "bytes",
						"label": "string",
						"numberOfBytes": "32"
					},
					"t_struct(DeviceInfo)8_storage": {
						"encoding": "inplace",
						"label": "struct Management.DeviceInfo",
						"members": [
							{
								"astId": 3,
								"contract": "contracts/Management.sol:Management",
								"label": "deviceAddr",
								"offset": 0,
								"slot": "0",
								"type": "t_address"
							},
							{
								"astId": 5,
								"contract": "contracts/Management.sol:Management",
								"label": "deviceName",
								"offset": 0,
								"slot": "1",
								"type": "t_string_storage"
							},
							{
								"astId": 7,
								"contract": "contracts/Management.sol:Management",
								"label": "deviceType",
								"offset": 0,
								"slot": "2",
								"type": "t_string_storage"
							}
						],
						"numberOfBytes": "96"
					},
					"t_struct(SubjInfo)19_storage": {
						"encoding": "inplace",
						"label": "struct Management.SubjInfo",
						"members": [
							{
								"astId": 10,
								"contract": "contracts/Management.sol:Management",
								"label": "subjectAddr",
								"offset": 0,
								"slot": "0",
								"type": "t_address"
							},
							{
								"astId": 12,
								"contract": "contracts/Management.sol:Management",
								"label": "subjectName",
								"offset": 0,
								"slot": "1",
								"type": "t_string_storage"
							},
							{
								"astId": 16,
								"contract": "contracts/Management.sol:Management",
								"label": "rightTable",
								"offset": 0,
								"slot": "2",
								"type": "t_mapping(t_address,t_string_storage)"
							},
							{
								"astId": 18,
								"contract": "contracts/Management.sol:Management",
								"label": "ipAddr",
								"offset": 0,
								"slot": "3",
								"type": "t_string_storage"
							}
						],
						"numberOfBytes": "128"
					}
				}
			},
			"userdoc": {
				"kind": "user",
				"methods": {},
				"version": 1
			}
		}
	}
}