{
	"contracts/AccessControl.sol": {
		"AccessControl": {
			"abi": [
				{
					"anonymous": false,
					"inputs": [
						{
							"indexed": false,
							"internalType": "address",
							"name": "from",
							"type": "address"
						},
						{
							"indexed": false,
							"internalType": "address",
							"name": "to",
							"type": "address"
						},
						{
							"indexed": false,
							"internalType": "string",
							"name": "action",
							"type": "string"
						},
						{
							"indexed": false,
							"internalType": "string",
							"name": "result",
							"type": "string"
						}
					],
					"name": "AccessControlRet",
					"type": "event"
				},
				{
					"inputs": [
						{
							"internalType": "address",
							"name": "_objectAddr",
							"type": "address"
						},
						{
							"internalType": "string",
							"name": "action",
							"type": "string"
						}
					],
					"name": "accessControl",
					"outputs": [
						{
							"internalType": "bool",
							"name": "res",
							"type": "bool"
						}
					],
					"stateMutability": "nonpayable",
					"type": "function"
				},
				{
					"inputs": [],
					"name": "getCurTime",
					"outputs": [
						{
							"internalType": "uint256",
							"name": "",
							"type": "uint256"
						}
					],
					"stateMutability": "view",
					"type": "function"
				},
				{
					"inputs": [
						{
							"internalType": "address",
							"name": "_MCAddr",
							"type": "address"
						},
						{
							"internalType": "address",
							"name": "_JCAddr",
							"type": "address"
						}
					],
					"name": "init",
					"outputs": [],
					"stateMutability": "nonpayable",
					"type": "function"
				}
			],
			"devdoc": {
				"kind": "dev",
				"methods": {},
				"version": 1
			},
			"evm": {
				"assembly": "    /* \"contracts/AccessControl.sol\":121:3483  contract AccessControl {\r... */\n  mstore(0x40, 0x80)\n  callvalue\n  dup1\n  iszero\n  tag_1\n  jumpi\n  0x00\n  dup1\n  revert\ntag_1:\n  pop\n  dataSize(sub_0)\n  dup1\n  dataOffset(sub_0)\n  0x00\n  codecopy\n  0x00\n  return\nstop\n\nsub_0: assembly {\n        /* \"contracts/AccessControl.sol\":121:3483  contract AccessControl {\r... */\n      mstore(0x40, 0x80)\n      callvalue\n      dup1\n      iszero\n      tag_1\n      jumpi\n      0x00\n      dup1\n      revert\n    tag_1:\n      pop\n      jumpi(tag_2, lt(calldatasize, 0x04))\n      shr(0xe0, calldataload(0x00))\n      dup1\n      0x32076e77\n      eq\n      tag_3\n      jumpi\n      dup1\n      0xc0821da3\n      eq\n      tag_4\n      jumpi\n      dup1\n      0xf09a4016\n      eq\n      tag_5\n      jumpi\n    tag_2:\n      0x00\n      dup1\n      revert\n        /* \"contracts/AccessControl.sol\":1730:3230  function accessControl(address _objectAddr, string memory action) public returns (bool res) {\r... */\n    tag_3:\n      tag_6\n      0x04\n      dup1\n      calldatasize\n      sub\n      dup2\n      add\n      swap1\n      tag_7\n      swap2\n      swap1\n      tag_8\n      jump\t// in\n    tag_7:\n      tag_9\n      jump\t// in\n    tag_6:\n      mload(0x40)\n      tag_10\n      swap2\n      swap1\n      tag_11\n      jump\t// in\n    tag_10:\n      mload(0x40)\n      dup1\n      swap2\n      sub\n      swap1\n      return\n        /* \"contracts/AccessControl.sol\":3242:3334  function getCurTime() public view returns(uint256) {\r... */\n    tag_4:\n      tag_12\n      tag_13\n      jump\t// in\n    tag_12:\n      mload(0x40)\n      tag_14\n      swap2\n      swap1\n      tag_15\n      jump\t// in\n    tag_14:\n      mload(0x40)\n      dup1\n      swap2\n      sub\n      swap1\n      return\n        /* \"contracts/AccessControl.sol\":680:1098  function init(address _MCAddr, address _JCAddr) public {\r... */\n    tag_5:\n      tag_16\n      0x04\n      dup1\n      calldatasize\n      sub\n      dup2\n      add\n      swap1\n      tag_17\n      swap2\n      swap1\n      tag_18\n      jump\t// in\n    tag_17:\n      tag_19\n      jump\t// in\n    tag_16:\n      stop\n        /* \"contracts/AccessControl.sol\":1730:3230  function accessControl(address _objectAddr, string memory action) public returns (bool res) {\r... */\n    tag_9:\n        /* \"contracts/AccessControl.sol\":1812:1820  bool res */\n      0x00\n        /* \"contracts/AccessControl.sol\":1879:1901  checkRequesterStatus() */\n      tag_21\n        /* \"contracts/AccessControl.sol\":1879:1899  checkRequesterStatus */\n      tag_22\n        /* \"contracts/AccessControl.sol\":1879:1901  checkRequesterStatus() */\n      jump\t// in\n    tag_21:\n        /* \"contracts/AccessControl.sol\":1914:1928  bool isBlocked */\n      0x00\n        /* \"contracts/AccessControl.sol\":1939:1951  uint256 ToLB */\n      dup1\n        /* \"contracts/AccessControl.sol\":1982:1987  judge */\n      0x01\n      0x00\n      swap1\n      sload\n      swap1\n      0x0100\n      exp\n      swap1\n      div\n      0xffffffffffffffffffffffffffffffffffffffff\n      and\n        /* \"contracts/AccessControl.sol\":1982:2000  judge.getBLUByAddr */\n      0xffffffffffffffffffffffffffffffffffffffff\n      and\n      0x169c9de0\n        /* \"contracts/AccessControl.sol\":2001:2011  msg.sender */\n      caller\n        /* \"contracts/AccessControl.sol\":1982:2012  judge.getBLUByAddr(msg.sender) */\n      mload(0x40)\n      dup3\n      0xffffffff\n      and\n      0xe0\n      shl\n      dup2\n      mstore\n      0x04\n      add\n      tag_23\n      swap2\n      swap1\n      tag_24\n      jump\t// in\n    tag_23:\n      0x40\n      dup1\n      mload\n      dup1\n      dup4\n      sub\n      dup2\n      dup7\n      dup1\n      extcodesize\n      iszero\n      dup1\n      iszero\n      tag_25\n      jumpi\n      0x00\n      dup1\n      revert\n    tag_25:\n      pop\n      gas\n      staticcall\n      iszero\n      dup1\n      iszero\n      tag_27\n      jumpi\n      returndatasize\n      0x00\n      dup1\n      returndatacopy\n      revert(0x00, returndatasize)\n    tag_27:\n      pop\n      pop\n      pop\n      pop\n      mload(0x40)\n      returndatasize\n      not(0x1f)\n      0x1f\n      dup3\n      add\n      and\n      dup3\n      add\n      dup1\n      0x40\n      mstore\n      pop\n      dup2\n      add\n      swap1\n      tag_28\n      swap2\n      swap1\n      tag_29\n      jump\t// in\n    tag_28:\n        /* \"contracts/AccessControl.sol\":1962:2012  (ToLB, isBlocked) = judge.getBLUByAddr(msg.sender) */\n      dup1\n      swap4\n      pop\n      dup2\n      swap3\n      pop\n      pop\n      pop\n        /* \"contracts/AccessControl.sol\":2065:2080  uint256 curTime */\n      0x00\n        /* \"contracts/AccessControl.sol\":2083:2095  getCurTime() */\n      tag_30\n        /* \"contracts/AccessControl.sol\":2083:2093  getCurTime */\n      tag_13\n        /* \"contracts/AccessControl.sol\":2083:2095  getCurTime() */\n      jump\t// in\n    tag_30:\n        /* \"contracts/AccessControl.sol\":2065:2095  uint256 curTime = getCurTime() */\n      swap1\n      pop\n        /* \"contracts/AccessControl.sol\":2120:2124  ToLB */\n      dup2\n        /* \"contracts/AccessControl.sol\":2109:2116  curTime */\n      dup2\n        /* \"contracts/AccessControl.sol\":2109:2124  curTime <= ToLB */\n      gt\n      iszero\n        /* \"contracts/AccessControl.sol\":2109:2137  curTime <= ToLB && isBlocked */\n      dup1\n      iszero\n      tag_31\n      jumpi\n      pop\n        /* \"contracts/AccessControl.sol\":2128:2137  isBlocked */\n      dup3\n        /* \"contracts/AccessControl.sol\":2109:2137  curTime <= ToLB && isBlocked */\n    tag_31:\n        /* \"contracts/AccessControl.sol\":2106:2416  if(curTime <= ToLB && isBlocked) {\r... */\n      iszero\n      tag_32\n      jumpi\n        /* \"contracts/AccessControl.sol\":2159:2244  AccessControlRet(msg.sender, _objectAddr, action, \"Still blocked, unable to access!\") */\n      0x4393de65ee68a32d7987583b1f2c6e6aa80df7d9ad5c0661660d70dff18b9d6d\n        /* \"contracts/AccessControl.sol\":2176:2186  msg.sender */\n      caller\n        /* \"contracts/AccessControl.sol\":2188:2199  _objectAddr */\n      dup8\n        /* \"contracts/AccessControl.sol\":2201:2207  action */\n      dup8\n        /* \"contracts/AccessControl.sol\":2159:2244  AccessControlRet(msg.sender, _objectAddr, action, \"Still blocked, unable to access!\") */\n      mload(0x40)\n      tag_33\n      swap4\n      swap3\n      swap2\n      swap1\n      tag_34\n      jump\t// in\n    tag_33:\n      mload(0x40)\n      dup1\n      swap2\n      sub\n      swap1\n      log1\n        /* \"contracts/AccessControl.sol\":2265:2270  false */\n      0x00\n        /* \"contracts/AccessControl.sol\":2259:2270  res = false */\n      swap4\n      pop\n        /* \"contracts/AccessControl.sol\":2285:2295  return res */\n      pop\n      pop\n      pop\n      jump(tag_20)\n        /* \"contracts/AccessControl.sol\":2106:2416  if(curTime <= ToLB && isBlocked) {\r... */\n    tag_32:\n        /* \"contracts/AccessControl.sol\":2375:2380  judge */\n      0x01\n      0x00\n      swap1\n      sload\n      swap1\n      0x0100\n      exp\n      swap1\n      div\n      0xffffffffffffffffffffffffffffffffffffffff\n      and\n        /* \"contracts/AccessControl.sol\":2375:2392  judge.unblockUser */\n      0xffffffffffffffffffffffffffffffffffffffff\n      and\n      0x39d319e5\n        /* \"contracts/AccessControl.sol\":2393:2403  msg.sender */\n      caller\n        /* \"contracts/AccessControl.sol\":2375:2404  judge.unblockUser(msg.sender) */\n      mload(0x40)\n      dup3\n      0xffffffff\n      and\n      0xe0\n      shl\n      dup2\n      mstore\n      0x04\n      add\n      tag_36\n      swap2\n      swap1\n      tag_24\n      jump\t// in\n    tag_36:\n      0x00\n      mload(0x40)\n      dup1\n      dup4\n      sub\n      dup2\n      0x00\n      dup8\n      dup1\n      extcodesize\n      iszero\n      dup1\n      iszero\n      tag_37\n      jumpi\n      0x00\n      dup1\n      revert\n    tag_37:\n      pop\n      gas\n      call\n      iszero\n      dup1\n      iszero\n      tag_39\n      jumpi\n      returndatasize\n      0x00\n      dup1\n      returndatacopy\n      revert(0x00, returndatasize)\n    tag_39:\n      pop\n      pop\n      pop\n      pop\n        /* \"contracts/AccessControl.sol\":2428:2447  string memory right */\n      0x00\n        /* \"contracts/AccessControl.sol\":2450:2457  manager */\n      dup1\n      0x00\n      swap1\n      sload\n      swap1\n      0x0100\n      exp\n      swap1\n      div\n      0xffffffffffffffffffffffffffffffffffffffff\n      and\n        /* \"contracts/AccessControl.sol\":2450:2466  manager.getRight */\n      0xffffffffffffffffffffffffffffffffffffffff\n      and\n      0x8749774f\n        /* \"contracts/AccessControl.sol\":2467:2477  msg.sender */\n      caller\n        /* \"contracts/AccessControl.sol\":2479:2490  _objectAddr */\n      dup10\n        /* \"contracts/AccessControl.sol\":2450:2491  manager.getRight(msg.sender, _objectAddr) */\n      mload(0x40)\n      dup4\n      0xffffffff\n      and\n      0xe0\n      shl\n      dup2\n      mstore\n      0x04\n      add\n      tag_40\n      swap3\n      swap2\n      swap1\n      tag_41\n      jump\t// in\n    tag_40:\n      0x00\n      mload(0x40)\n      dup1\n      dup4\n      sub\n      dup2\n      dup7\n      dup1\n      extcodesize\n      iszero\n      dup1\n      iszero\n      tag_42\n      jumpi\n      0x00\n      dup1\n      revert\n    tag_42:\n      pop\n      gas\n      staticcall\n      iszero\n      dup1\n      iszero\n      tag_44\n      jumpi\n      returndatasize\n      0x00\n      dup1\n      returndatacopy\n      revert(0x00, returndatasize)\n    tag_44:\n      pop\n      pop\n      pop\n      pop\n      mload(0x40)\n      returndatasize\n      0x00\n      dup3\n      returndatacopy\n      returndatasize\n      not(0x1f)\n      0x1f\n      dup3\n      add\n      and\n      dup3\n      add\n      dup1\n      0x40\n      mstore\n      pop\n      dup2\n      add\n      swap1\n      tag_45\n      swap2\n      swap1\n      tag_46\n      jump\t// in\n    tag_45:\n        /* \"contracts/AccessControl.sol\":2428:2491  string memory right = manager.getRight(msg.sender, _objectAddr) */\n      swap1\n      pop\n        /* \"contracts/AccessControl.sol\":2561:2571  rightTable */\n      0x02\n        /* \"contracts/AccessControl.sol\":2572:2577  right */\n      dup2\n        /* \"contracts/AccessControl.sol\":2561:2578  rightTable[right] */\n      mload(0x40)\n      tag_47\n      swap2\n      swap1\n      tag_48\n      jump\t// in\n    tag_47:\n      swap1\n      dup2\n      mstore\n      0x20\n      add\n      mload(0x40)\n      dup1\n      swap2\n      sub\n      swap1\n      keccak256\n      sload\n        /* \"contracts/AccessControl.sol\":2540:2550  rightTable */\n      0x02\n        /* \"contracts/AccessControl.sol\":2551:2557  action */\n      dup8\n        /* \"contracts/AccessControl.sol\":2540:2558  rightTable[action] */\n      mload(0x40)\n      tag_49\n      swap2\n      swap1\n      tag_48\n      jump\t// in\n    tag_49:\n      swap1\n      dup2\n      mstore\n      0x20\n      add\n      mload(0x40)\n      dup1\n      swap2\n      sub\n      swap1\n      keccak256\n      sload\n        /* \"contracts/AccessControl.sol\":2540:2578  rightTable[action] < rightTable[right] */\n      slt\n        /* \"contracts/AccessControl.sol\":2537:2736  if(rightTable[action] < rightTable[right]) {\r... */\n      iszero\n      tag_50\n      jumpi\n        /* \"contracts/AccessControl.sol\":2600:2673  AccessControlRet(msg.sender, _objectAddr, action, \"Unauthorized access!\") */\n      0x4393de65ee68a32d7987583b1f2c6e6aa80df7d9ad5c0661660d70dff18b9d6d\n        /* \"contracts/AccessControl.sol\":2617:2627  msg.sender */\n      caller\n        /* \"contracts/AccessControl.sol\":2629:2640  _objectAddr */\n      dup9\n        /* \"contracts/AccessControl.sol\":2642:2648  action */\n      dup9\n        /* \"contracts/AccessControl.sol\":2600:2673  AccessControlRet(msg.sender, _objectAddr, action, \"Unauthorized access!\") */\n      mload(0x40)\n      tag_51\n      swap4\n      swap3\n      swap2\n      swap1\n      tag_52\n      jump\t// in\n    tag_51:\n      mload(0x40)\n      dup1\n      swap2\n      sub\n      swap1\n      log1\n        /* \"contracts/AccessControl.sol\":2694:2699  false */\n      0x00\n        /* \"contracts/AccessControl.sol\":2688:2699  res = false */\n      swap5\n      pop\n        /* \"contracts/AccessControl.sol\":2714:2724  return res */\n      pop\n      pop\n      pop\n      pop\n      jump(tag_20)\n        /* \"contracts/AccessControl.sol\":2537:2736  if(rightTable[action] < rightTable[right]) {\r... */\n    tag_50:\n        /* \"contracts/AccessControl.sol\":2748:2770  string memory subjName */\n      0x60\n        /* \"contracts/AccessControl.sol\":2781:2801  string memory subjIP */\n      dup1\n        /* \"contracts/AccessControl.sol\":2833:2840  manager */\n      0x00\n      dup1\n      sload\n      swap1\n      0x0100\n      exp\n      swap1\n      div\n      0xffffffffffffffffffffffffffffffffffffffff\n      and\n        /* \"contracts/AccessControl.sol\":2833:2852  manager.getSubjInfo */\n      0xffffffffffffffffffffffffffffffffffffffff\n      and\n      0x9f764d16\n        /* \"contracts/AccessControl.sol\":2853:2863  msg.sender */\n      caller\n        /* \"contracts/AccessControl.sol\":2833:2864  manager.getSubjInfo(msg.sender) */\n      mload(0x40)\n      dup3\n      0xffffffff\n      and\n      0xe0\n      shl\n      dup2\n      mstore\n      0x04\n      add\n      tag_53\n      swap2\n      swap1\n      tag_24\n      jump\t// in\n    tag_53:\n      0x00\n      mload(0x40)\n      dup1\n      dup4\n      sub\n      dup2\n      dup7\n      dup1\n      extcodesize\n      iszero\n      dup1\n      iszero\n      tag_54\n      jumpi\n      0x00\n      dup1\n      revert\n    tag_54:\n      pop\n      gas\n      staticcall\n      iszero\n      dup1\n      iszero\n      tag_56\n      jumpi\n      returndatasize\n      0x00\n      dup1\n      returndatacopy\n      revert(0x00, returndatasize)\n    tag_56:\n      pop\n      pop\n      pop\n      pop\n      mload(0x40)\n      returndatasize\n      0x00\n      dup3\n      returndatacopy\n      returndatasize\n      not(0x1f)\n      0x1f\n      dup3\n      add\n      and\n      dup3\n      add\n      dup1\n      0x40\n      mstore\n      pop\n      dup2\n      add\n      swap1\n      tag_57\n      swap2\n      swap1\n      tag_58\n      jump\t// in\n    tag_57:\n        /* \"contracts/AccessControl.sol\":2812:2864  (subjName, subjIP) = manager.getSubjInfo(msg.sender) */\n      dup1\n      swap3\n      pop\n      dup2\n      swap4\n      pop\n      pop\n      pop\n        /* \"contracts/AccessControl.sol\":2909:2923  blackListIpMap */\n      0x03\n        /* \"contracts/AccessControl.sol\":2924:2930  subjIP */\n      dup2\n        /* \"contracts/AccessControl.sol\":2909:2931  blackListIpMap[subjIP] */\n      mload(0x40)\n      tag_59\n      swap2\n      swap1\n      tag_48\n      jump\t// in\n    tag_59:\n      swap1\n      dup2\n      mstore\n      0x20\n      add\n      mload(0x40)\n      dup1\n      swap2\n      sub\n      swap1\n      keccak256\n      0x00\n      swap1\n      sload\n      swap1\n      0x0100\n      exp\n      swap1\n      div\n      0xff\n      and\n        /* \"contracts/AccessControl.sol\":2906:3088  if(blackListIpMap[subjIP]) {\r... */\n      iszero\n      tag_60\n      jumpi\n        /* \"contracts/AccessControl.sol\":2953:3025  AccessControlRet(msg.sender, _objectAddr, action, \"Illegal IP address!\") */\n      0x4393de65ee68a32d7987583b1f2c6e6aa80df7d9ad5c0661660d70dff18b9d6d\n        /* \"contracts/AccessControl.sol\":2970:2980  msg.sender */\n      caller\n        /* \"contracts/AccessControl.sol\":2982:2993  _objectAddr */\n      dup11\n        /* \"contracts/AccessControl.sol\":2995:3001  action */\n      dup11\n        /* \"contracts/AccessControl.sol\":2953:3025  AccessControlRet(msg.sender, _objectAddr, action, \"Illegal IP address!\") */\n      mload(0x40)\n      tag_61\n      swap4\n      swap3\n      swap2\n      swap1\n      tag_62\n      jump\t// in\n    tag_61:\n      mload(0x40)\n      dup1\n      swap2\n      sub\n      swap1\n      log1\n        /* \"contracts/AccessControl.sol\":3046:3051  false */\n      0x00\n        /* \"contracts/AccessControl.sol\":3040:3051  res = false */\n      swap7\n      pop\n        /* \"contracts/AccessControl.sol\":3066:3076  return res */\n      pop\n      pop\n      pop\n      pop\n      pop\n      pop\n      jump(tag_20)\n        /* \"contracts/AccessControl.sol\":2906:3088  if(blackListIpMap[subjIP]) {\r... */\n    tag_60:\n        /* \"contracts/AccessControl.sol\":3136:3201  AccessControlRet(msg.sender, _objectAddr, action, \"Access pass!\") */\n      0x4393de65ee68a32d7987583b1f2c6e6aa80df7d9ad5c0661660d70dff18b9d6d\n        /* \"contracts/AccessControl.sol\":3153:3163  msg.sender */\n      caller\n        /* \"contracts/AccessControl.sol\":3165:3176  _objectAddr */\n      dup11\n        /* \"contracts/AccessControl.sol\":3178:3184  action */\n      dup11\n        /* \"contracts/AccessControl.sol\":3136:3201  AccessControlRet(msg.sender, _objectAddr, action, \"Access pass!\") */\n      mload(0x40)\n      tag_63\n      swap4\n      swap3\n      swap2\n      swap1\n      tag_64\n      jump\t// in\n    tag_63:\n      mload(0x40)\n      dup1\n      swap2\n      sub\n      swap1\n      log1\n        /* \"contracts/AccessControl.sol\":3218:3222  true */\n      0x01\n        /* \"contracts/AccessControl.sol\":3212:3222  res = true */\n      swap7\n      pop\n        /* \"contracts/AccessControl.sol\":1822:3230  {\r... */\n      pop\n      pop\n      pop\n      pop\n      pop\n      pop\n        /* \"contracts/AccessControl.sol\":1730:3230  function accessControl(address _objectAddr, string memory action) public returns (bool res) {\r... */\n    tag_20:\n      swap3\n      swap2\n      pop\n      pop\n      jump\t// out\n        /* \"contracts/AccessControl.sol\":3242:3334  function getCurTime() public view returns(uint256) {\r... */\n    tag_13:\n        /* \"contracts/AccessControl.sol\":3284:3291  uint256 */\n      0x00\n        /* \"contracts/AccessControl.sol\":3311:3326  block.timestamp */\n      timestamp\n        /* \"contracts/AccessControl.sol\":3304:3326  return block.timestamp */\n      swap1\n      pop\n        /* \"contracts/AccessControl.sol\":3242:3334  function getCurTime() public view returns(uint256) {\r... */\n      swap1\n      jump\t// out\n        /* \"contracts/AccessControl.sol\":680:1098  function init(address _MCAddr, address _JCAddr) public {\r... */\n    tag_19:\n        /* \"contracts/AccessControl.sol\":767:774  _MCAddr */\n      dup2\n        /* \"contracts/AccessControl.sol\":746:753  manager */\n      0x00\n      dup1\n        /* \"contracts/AccessControl.sol\":746:775  manager = Management(_MCAddr) */\n      0x0100\n      exp\n      dup2\n      sload\n      dup2\n      0xffffffffffffffffffffffffffffffffffffffff\n      mul\n      not\n      and\n      swap1\n      dup4\n      0xffffffffffffffffffffffffffffffffffffffff\n      and\n      mul\n      or\n      swap1\n      sstore\n      pop\n        /* \"contracts/AccessControl.sol\":800:807  _JCAddr */\n      dup1\n        /* \"contracts/AccessControl.sol\":786:791  judge */\n      0x01\n      0x00\n        /* \"contracts/AccessControl.sol\":786:808  judge = Judge(_JCAddr) */\n      0x0100\n      exp\n      dup2\n      sload\n      dup2\n      0xffffffffffffffffffffffffffffffffffffffff\n      mul\n      not\n      and\n      swap1\n      dup4\n      0xffffffffffffffffffffffffffffffffffffffff\n      and\n      mul\n      or\n      swap1\n      sstore\n      pop\n        /* \"contracts/AccessControl.sol\":910:911  1 */\n      0x01\n        /* \"contracts/AccessControl.sol\":889:899  rightTable */\n      0x02\n        /* \"contracts/AccessControl.sol\":889:907  rightTable[\"read\"] */\n      mload(0x40)\n      tag_67\n      swap1\n      tag_68\n      jump\t// in\n    tag_67:\n      swap1\n      dup2\n      mstore\n      0x20\n      add\n      mload(0x40)\n      dup1\n      swap2\n      sub\n      swap1\n      keccak256\n        /* \"contracts/AccessControl.sol\":889:911  rightTable[\"read\"] = 1 */\n      dup2\n      swap1\n      sstore\n      pop\n        /* \"contracts/AccessControl.sol\":943:944  2 */\n      0x02\n        /* \"contracts/AccessControl.sol\":922:932  rightTable */\n      dup1\n        /* \"contracts/AccessControl.sol\":922:940  rightTable[\"open\"] */\n      mload(0x40)\n      tag_69\n      swap1\n      tag_70\n      jump\t// in\n    tag_69:\n      swap1\n      dup2\n      mstore\n      0x20\n      add\n      mload(0x40)\n      dup1\n      swap2\n      sub\n      swap1\n      keccak256\n        /* \"contracts/AccessControl.sol\":922:944  rightTable[\"open\"] = 2 */\n      dup2\n      swap1\n      sstore\n      pop\n        /* \"contracts/AccessControl.sol\":977:978  2 */\n      0x02\n        /* \"contracts/AccessControl.sol\":955:965  rightTable */\n      dup1\n        /* \"contracts/AccessControl.sol\":955:974  rightTable[\"close\"] */\n      mload(0x40)\n      tag_71\n      swap1\n      tag_72\n      jump\t// in\n    tag_71:\n      swap1\n      dup2\n      mstore\n      0x20\n      add\n      mload(0x40)\n      dup1\n      swap2\n      sub\n      swap1\n      keccak256\n        /* \"contracts/AccessControl.sol\":955:978  rightTable[\"close\"] = 2 */\n      dup2\n      swap1\n      sstore\n      pop\n        /* \"contracts/AccessControl.sol\":1013:1014  3 */\n      0x03\n        /* \"contracts/AccessControl.sol\":989:999  rightTable */\n      0x02\n        /* \"contracts/AccessControl.sol\":989:1010  rightTable[\"restart\"] */\n      mload(0x40)\n      tag_73\n      swap1\n      tag_74\n      jump\t// in\n    tag_73:\n      swap1\n      dup2\n      mstore\n      0x20\n      add\n      mload(0x40)\n      dup1\n      swap2\n      sub\n      swap1\n      keccak256\n        /* \"contracts/AccessControl.sol\":989:1014  rightTable[\"restart\"] = 3 */\n      dup2\n      swap1\n      sstore\n      pop\n        /* \"contracts/AccessControl.sol\":1046:1047  3 */\n      0x03\n        /* \"contracts/AccessControl.sol\":1025:1035  rightTable */\n      0x02\n        /* \"contracts/AccessControl.sol\":1025:1043  rightTable[\"kill\"] */\n      mload(0x40)\n      tag_75\n      swap1\n      tag_76\n      jump\t// in\n    tag_75:\n      swap1\n      dup2\n      mstore\n      0x20\n      add\n      mload(0x40)\n      dup1\n      swap2\n      sub\n      swap1\n      keccak256\n        /* \"contracts/AccessControl.sol\":1025:1047  rightTable[\"kill\"] = 3 */\n      dup2\n      swap1\n      sstore\n      pop\n        /* \"contracts/AccessControl.sol\":1086:1090  true */\n      0x01\n        /* \"contracts/AccessControl.sol\":1058:1072  blackListIpMap */\n      0x03\n        /* \"contracts/AccessControl.sol\":1058:1083  blackListIpMap['2.2.2.2'] */\n      mload(0x40)\n      tag_77\n      swap1\n      tag_78\n      jump\t// in\n    tag_77:\n      swap1\n      dup2\n      mstore\n      0x20\n      add\n      mload(0x40)\n      dup1\n      swap2\n      sub\n      swap1\n      keccak256\n      0x00\n        /* \"contracts/AccessControl.sol\":1058:1090  blackListIpMap['2.2.2.2'] = true */\n      0x0100\n      exp\n      dup2\n      sload\n      dup2\n      0xff\n      mul\n      not\n      and\n      swap1\n      dup4\n      iszero\n      iszero\n      mul\n      or\n      swap1\n      sstore\n      pop\n        /* \"contracts/AccessControl.sol\":680:1098  function init(address _MCAddr, address _JCAddr) public {\r... */\n      pop\n      pop\n      jump\t// out\n        /* \"contracts/AccessControl.sol\":1148:1682  function checkRequesterStatus() private {\r... */\n    tag_22:\n        /* \"contracts/AccessControl.sol\":1240:1245  false */\n      0x00\n        /* \"contracts/AccessControl.sol\":1202:1245  requestMap[msg.sender].isRequested == false */\n      iszero\n      iszero\n        /* \"contracts/AccessControl.sol\":1202:1212  requestMap */\n      0x04\n        /* \"contracts/AccessControl.sol\":1202:1224  requestMap[msg.sender] */\n      0x00\n        /* \"contracts/AccessControl.sol\":1213:1223  msg.sender */\n      caller\n        /* \"contracts/AccessControl.sol\":1202:1224  requestMap[msg.sender] */\n      0xffffffffffffffffffffffffffffffffffffffff\n      and\n      0xffffffffffffffffffffffffffffffffffffffff\n      and\n      dup2\n      mstore\n      0x20\n      add\n      swap1\n      dup2\n      mstore\n      0x20\n      add\n      0x00\n      keccak256\n        /* \"contracts/AccessControl.sol\":1202:1236  requestMap[msg.sender].isRequested */\n      0x00\n      add\n      0x00\n      swap1\n      sload\n      swap1\n      0x0100\n      exp\n      swap1\n      div\n      0xff\n      and\n        /* \"contracts/AccessControl.sol\":1202:1245  requestMap[msg.sender].isRequested == false */\n      iszero\n      iszero\n      eq\n        /* \"contracts/AccessControl.sol\":1199:1675  if(requestMap[msg.sender].isRequested == false) {\r... */\n      iszero\n      tag_80\n      jumpi\n        /* \"contracts/AccessControl.sol\":1299:1303  true */\n      0x01\n        /* \"contracts/AccessControl.sol\":1262:1272  requestMap */\n      0x04\n        /* \"contracts/AccessControl.sol\":1262:1284  requestMap[msg.sender] */\n      0x00\n        /* \"contracts/AccessControl.sol\":1273:1283  msg.sender */\n      caller\n        /* \"contracts/AccessControl.sol\":1262:1284  requestMap[msg.sender] */\n      0xffffffffffffffffffffffffffffffffffffffff\n      and\n      0xffffffffffffffffffffffffffffffffffffffff\n      and\n      dup2\n      mstore\n      0x20\n      add\n      swap1\n      dup2\n      mstore\n      0x20\n      add\n      0x00\n      keccak256\n        /* \"contracts/AccessControl.sol\":1262:1296  requestMap[msg.sender].isRequested */\n      0x00\n      add\n      0x00\n        /* \"contracts/AccessControl.sol\":1262:1303  requestMap[msg.sender].isRequested = true */\n      0x0100\n      exp\n      dup2\n      sload\n      dup2\n      0xff\n      mul\n      not\n      and\n      swap1\n      dup4\n      iszero\n      iszero\n      mul\n      or\n      swap1\n      sstore\n      pop\n        /* \"contracts/AccessControl.sol\":1348:1363  block.timestamp */\n      timestamp\n        /* \"contracts/AccessControl.sol\":1318:1328  requestMap */\n      0x04\n        /* \"contracts/AccessControl.sol\":1318:1340  requestMap[msg.sender] */\n      0x00\n        /* \"contracts/AccessControl.sol\":1329:1339  msg.sender */\n      caller\n        /* \"contracts/AccessControl.sol\":1318:1340  requestMap[msg.sender] */\n      0xffffffffffffffffffffffffffffffffffffffff\n      and\n      0xffffffffffffffffffffffffffffffffffffffff\n      and\n      dup2\n      mstore\n      0x20\n      add\n      swap1\n      dup2\n      mstore\n      0x20\n      add\n      0x00\n      keccak256\n        /* \"contracts/AccessControl.sol\":1318:1345  requestMap[msg.sender].ToLR */\n      0x01\n      add\n        /* \"contracts/AccessControl.sol\":1318:1363  requestMap[msg.sender].ToLR = block.timestamp */\n      dup2\n      swap1\n      sstore\n      pop\n        /* \"contracts/AccessControl.sol\":1199:1675  if(requestMap[msg.sender].isRequested == false) {\r... */\n      jump(tag_81)\n    tag_80:\n        /* \"contracts/AccessControl.sol\":1396:1411  uint256 timeGap */\n      0x00\n        /* \"contracts/AccessControl.sol\":1432:1442  requestMap */\n      0x04\n        /* \"contracts/AccessControl.sol\":1432:1454  requestMap[msg.sender] */\n      0x00\n        /* \"contracts/AccessControl.sol\":1443:1453  msg.sender */\n      caller\n        /* \"contracts/AccessControl.sol\":1432:1454  requestMap[msg.sender] */\n      0xffffffffffffffffffffffffffffffffffffffff\n      and\n      0xffffffffffffffffffffffffffffffffffffffff\n      and\n      dup2\n      mstore\n      0x20\n      add\n      swap1\n      dup2\n      mstore\n      0x20\n      add\n      0x00\n      keccak256\n        /* \"contracts/AccessControl.sol\":1432:1459  requestMap[msg.sender].ToLR */\n      0x01\n      add\n      sload\n        /* \"contracts/AccessControl.sol\":1414:1429  block.timestamp */\n      timestamp\n        /* \"contracts/AccessControl.sol\":1414:1459  block.timestamp - requestMap[msg.sender].ToLR */\n      tag_82\n      swap2\n      swap1\n      tag_83\n      jump\t// in\n    tag_82:\n        /* \"contracts/AccessControl.sol\":1396:1459  uint256 timeGap = block.timestamp - requestMap[msg.sender].ToLR */\n      swap1\n      pop\n        /* \"contracts/AccessControl.sol\":1531:1532  3 */\n      0x03\n        /* \"contracts/AccessControl.sol\":1520:1527  timeGap */\n      dup2\n        /* \"contracts/AccessControl.sol\":1520:1532  timeGap <= 3 */\n      gt\n        /* \"contracts/AccessControl.sol\":1517:1664  if(timeGap <= 3) {\r... */\n      tag_84\n      jumpi\n        /* \"contracts/AccessControl.sol\":1618:1623  judge */\n      0x01\n      0x00\n      swap1\n      sload\n      swap1\n      0x0100\n      exp\n      swap1\n      div\n      0xffffffffffffffffffffffffffffffffffffffff\n      and\n        /* \"contracts/AccessControl.sol\":1618:1636  judge.setBlackList */\n      0xffffffffffffffffffffffffffffffffffffffff\n      and\n      0x72700241\n        /* \"contracts/AccessControl.sol\":1637:1647  msg.sender */\n      caller\n        /* \"contracts/AccessControl.sol\":1618:1648  judge.setBlackList(msg.sender) */\n      mload(0x40)\n      dup3\n      0xffffffff\n      and\n      0xe0\n      shl\n      dup2\n      mstore\n      0x04\n      add\n      tag_85\n      swap2\n      swap1\n      tag_24\n      jump\t// in\n    tag_85:\n      0x00\n      mload(0x40)\n      dup1\n      dup4\n      sub\n      dup2\n      0x00\n      dup8\n      dup1\n      extcodesize\n      iszero\n      dup1\n      iszero\n      tag_86\n      jumpi\n      0x00\n      dup1\n      revert\n    tag_86:\n      pop\n      gas\n      call\n      iszero\n      dup1\n      iszero\n      tag_88\n      jumpi\n      returndatasize\n      0x00\n      dup1\n      returndatacopy\n      revert(0x00, returndatasize)\n    tag_88:\n      pop\n      pop\n      pop\n      pop\n        /* \"contracts/AccessControl.sol\":1517:1664  if(timeGap <= 3) {\r... */\n    tag_84:\n        /* \"contracts/AccessControl.sol\":1381:1675  {\r... */\n      pop\n        /* \"contracts/AccessControl.sol\":1199:1675  if(requestMap[msg.sender].isRequested == false) {\r... */\n    tag_81:\n        /* \"contracts/AccessControl.sol\":1148:1682  function checkRequesterStatus() private {\r... */\n      jump\t// out\n        /* \"#utility.yul\":7:419   */\n    tag_90:\n        /* \"#utility.yul\":85:90   */\n      0x00\n        /* \"#utility.yul\":110:176   */\n      tag_92\n        /* \"#utility.yul\":126:175   */\n      tag_93\n        /* \"#utility.yul\":168:174   */\n      dup5\n        /* \"#utility.yul\":126:175   */\n      tag_94\n      jump\t// in\n    tag_93:\n        /* \"#utility.yul\":110:176   */\n      tag_95\n      jump\t// in\n    tag_92:\n        /* \"#utility.yul\":101:176   */\n      swap1\n      pop\n        /* \"#utility.yul\":199:205   */\n      dup3\n        /* \"#utility.yul\":192:197   */\n      dup2\n        /* \"#utility.yul\":185:206   */\n      mstore\n        /* \"#utility.yul\":237:241   */\n      0x20\n        /* \"#utility.yul\":230:235   */\n      dup2\n        /* \"#utility.yul\":226:242   */\n      add\n        /* \"#utility.yul\":275:278   */\n      dup5\n        /* \"#utility.yul\":266:272   */\n      dup5\n        /* \"#utility.yul\":261:264   */\n      dup5\n        /* \"#utility.yul\":257:273   */\n      add\n        /* \"#utility.yul\":254:279   */\n      gt\n        /* \"#utility.yul\":251:363   */\n      iszero\n      tag_96\n      jumpi\n        /* \"#utility.yul\":282:361   */\n      tag_97\n      tag_98\n      jump\t// in\n    tag_97:\n        /* \"#utility.yul\":251:363   */\n    tag_96:\n        /* \"#utility.yul\":372:413   */\n      tag_99\n        /* \"#utility.yul\":406:412   */\n      dup5\n        /* \"#utility.yul\":401:404   */\n      dup3\n        /* \"#utility.yul\":396:399   */\n      dup6\n        /* \"#utility.yul\":372:413   */\n      tag_100\n      jump\t// in\n    tag_99:\n        /* \"#utility.yul\":91:419   */\n      pop\n        /* \"#utility.yul\":7:419   */\n      swap4\n      swap3\n      pop\n      pop\n      pop\n      jump\t// out\n        /* \"#utility.yul\":425:846   */\n    tag_101:\n        /* \"#utility.yul\":514:519   */\n      0x00\n        /* \"#utility.yul\":539:605   */\n      tag_103\n        /* \"#utility.yul\":555:604   */\n      tag_104\n        /* \"#utility.yul\":597:603   */\n      dup5\n        /* \"#utility.yul\":555:604   */\n      tag_94\n      jump\t// in\n    tag_104:\n        /* \"#utility.yul\":539:605   */\n      tag_95\n      jump\t// in\n    tag_103:\n        /* \"#utility.yul\":530:605   */\n      swap1\n      pop\n        /* \"#utility.yul\":628:634   */\n      dup3\n        /* \"#utility.yul\":621:626   */\n      dup2\n        /* \"#utility.yul\":614:635   */\n      mstore\n        /* \"#utility.yul\":666:670   */\n      0x20\n        /* \"#utility.yul\":659:664   */\n      dup2\n        /* \"#utility.yul\":655:671   */\n      add\n        /* \"#utility.yul\":704:707   */\n      dup5\n        /* \"#utility.yul\":695:701   */\n      dup5\n        /* \"#utility.yul\":690:693   */\n      dup5\n        /* \"#utility.yul\":686:702   */\n      add\n        /* \"#utility.yul\":683:708   */\n      gt\n        /* \"#utility.yul\":680:792   */\n      iszero\n      tag_105\n      jumpi\n        /* \"#utility.yul\":711:790   */\n      tag_106\n      tag_98\n      jump\t// in\n    tag_106:\n        /* \"#utility.yul\":680:792   */\n    tag_105:\n        /* \"#utility.yul\":801:840   */\n      tag_107\n        /* \"#utility.yul\":833:839   */\n      dup5\n        /* \"#utility.yul\":828:831   */\n      dup3\n        /* \"#utility.yul\":823:826   */\n      dup6\n        /* \"#utility.yul\":801:840   */\n      tag_108\n      jump\t// in\n    tag_107:\n        /* \"#utility.yul\":520:846   */\n      pop\n        /* \"#utility.yul\":425:846   */\n      swap4\n      swap3\n      pop\n      pop\n      pop\n      jump\t// out\n        /* \"#utility.yul\":852:991   */\n    tag_109:\n        /* \"#utility.yul\":898:903   */\n      0x00\n        /* \"#utility.yul\":936:942   */\n      dup2\n        /* \"#utility.yul\":923:943   */\n      calldataload\n        /* \"#utility.yul\":914:943   */\n      swap1\n      pop\n        /* \"#utility.yul\":952:985   */\n      tag_111\n        /* \"#utility.yul\":979:984   */\n      dup2\n        /* \"#utility.yul\":952:985   */\n      tag_112\n      jump\t// in\n    tag_111:\n        /* \"#utility.yul\":852:991   */\n      swap3\n      swap2\n      pop\n      pop\n      jump\t// out\n        /* \"#utility.yul\":997:1134   */\n    tag_113:\n        /* \"#utility.yul\":1051:1056   */\n      0x00\n        /* \"#utility.yul\":1082:1088   */\n      dup2\n        /* \"#utility.yul\":1076:1089   */\n      mload\n        /* \"#utility.yul\":1067:1089   */\n      swap1\n      pop\n        /* \"#utility.yul\":1098:1128   */\n      tag_115\n        /* \"#utility.yul\":1122:1127   */\n      dup2\n        /* \"#utility.yul\":1098:1128   */\n      tag_116\n      jump\t// in\n    tag_115:\n        /* \"#utility.yul\":997:1134   */\n      swap3\n      swap2\n      pop\n      pop\n      jump\t// out\n        /* \"#utility.yul\":1154:1494   */\n    tag_117:\n        /* \"#utility.yul\":1210:1215   */\n      0x00\n        /* \"#utility.yul\":1259:1262   */\n      dup3\n        /* \"#utility.yul\":1252:1256   */\n      0x1f\n        /* \"#utility.yul\":1244:1250   */\n      dup4\n        /* \"#utility.yul\":1240:1257   */\n      add\n        /* \"#utility.yul\":1236:1263   */\n      slt\n        /* \"#utility.yul\":1226:1348   */\n      tag_119\n      jumpi\n        /* \"#utility.yul\":1267:1346   */\n      tag_120\n      tag_121\n      jump\t// in\n    tag_120:\n        /* \"#utility.yul\":1226:1348   */\n    tag_119:\n        /* \"#utility.yul\":1384:1390   */\n      dup2\n        /* \"#utility.yul\":1371:1391   */\n      calldataload\n        /* \"#utility.yul\":1409:1488   */\n      tag_122\n        /* \"#utility.yul\":1484:1487   */\n      dup5\n        /* \"#utility.yul\":1476:1482   */\n      dup3\n        /* \"#utility.yul\":1469:1473   */\n      0x20\n        /* \"#utility.yul\":1461:1467   */\n      dup7\n        /* \"#utility.yul\":1457:1474   */\n      add\n        /* \"#utility.yul\":1409:1488   */\n      tag_90\n      jump\t// in\n    tag_122:\n        /* \"#utility.yul\":1400:1488   */\n      swap2\n      pop\n        /* \"#utility.yul\":1216:1494   */\n      pop\n        /* \"#utility.yul\":1154:1494   */\n      swap3\n      swap2\n      pop\n      pop\n      jump\t// out\n        /* \"#utility.yul\":1514:1869   */\n    tag_123:\n        /* \"#utility.yul\":1581:1586   */\n      0x00\n        /* \"#utility.yul\":1630:1633   */\n      dup3\n        /* \"#utility.yul\":1623:1627   */\n      0x1f\n        /* \"#utility.yul\":1615:1621   */\n      dup4\n        /* \"#utility.yul\":1611:1628   */\n      add\n        /* \"#utility.yul\":1607:1634   */\n      slt\n        /* \"#utility.yul\":1597:1719   */\n      tag_125\n      jumpi\n        /* \"#utility.yul\":1638:1717   */\n      tag_126\n      tag_121\n      jump\t// in\n    tag_126:\n        /* \"#utility.yul\":1597:1719   */\n    tag_125:\n        /* \"#utility.yul\":1748:1754   */\n      dup2\n        /* \"#utility.yul\":1742:1755   */\n      mload\n        /* \"#utility.yul\":1773:1863   */\n      tag_127\n        /* \"#utility.yul\":1859:1862   */\n      dup5\n        /* \"#utility.yul\":1851:1857   */\n      dup3\n        /* \"#utility.yul\":1844:1848   */\n      0x20\n        /* \"#utility.yul\":1836:1842   */\n      dup7\n        /* \"#utility.yul\":1832:1849   */\n      add\n        /* \"#utility.yul\":1773:1863   */\n      tag_101\n      jump\t// in\n    tag_127:\n        /* \"#utility.yul\":1764:1863   */\n      swap2\n      pop\n        /* \"#utility.yul\":1587:1869   */\n      pop\n        /* \"#utility.yul\":1514:1869   */\n      swap3\n      swap2\n      pop\n      pop\n      jump\t// out\n        /* \"#utility.yul\":1875:2018   */\n    tag_128:\n        /* \"#utility.yul\":1932:1937   */\n      0x00\n        /* \"#utility.yul\":1963:1969   */\n      dup2\n        /* \"#utility.yul\":1957:1970   */\n      mload\n        /* \"#utility.yul\":1948:1970   */\n      swap1\n      pop\n        /* \"#utility.yul\":1979:2012   */\n      tag_130\n        /* \"#utility.yul\":2006:2011   */\n      dup2\n        /* \"#utility.yul\":1979:2012   */\n      tag_131\n      jump\t// in\n    tag_130:\n        /* \"#utility.yul\":1875:2018   */\n      swap3\n      swap2\n      pop\n      pop\n      jump\t// out\n        /* \"#utility.yul\":2024:2498   */\n    tag_18:\n        /* \"#utility.yul\":2092:2098   */\n      0x00\n        /* \"#utility.yul\":2100:2106   */\n      dup1\n        /* \"#utility.yul\":2149:2151   */\n      0x40\n        /* \"#utility.yul\":2137:2146   */\n      dup4\n        /* \"#utility.yul\":2128:2135   */\n      dup6\n        /* \"#utility.yul\":2124:2147   */\n      sub\n        /* \"#utility.yul\":2120:2152   */\n      slt\n        /* \"#utility.yul\":2117:2236   */\n      iszero\n      tag_133\n      jumpi\n        /* \"#utility.yul\":2155:2234   */\n      tag_134\n      tag_135\n      jump\t// in\n    tag_134:\n        /* \"#utility.yul\":2117:2236   */\n    tag_133:\n        /* \"#utility.yul\":2275:2276   */\n      0x00\n        /* \"#utility.yul\":2300:2353   */\n      tag_136\n        /* \"#utility.yul\":2345:2352   */\n      dup6\n        /* \"#utility.yul\":2336:2342   */\n      dup3\n        /* \"#utility.yul\":2325:2334   */\n      dup7\n        /* \"#utility.yul\":2321:2343   */\n      add\n        /* \"#utility.yul\":2300:2353   */\n      tag_109\n      jump\t// in\n    tag_136:\n        /* \"#utility.yul\":2290:2353   */\n      swap3\n      pop\n        /* \"#utility.yul\":2246:2363   */\n      pop\n        /* \"#utility.yul\":2402:2404   */\n      0x20\n        /* \"#utility.yul\":2428:2481   */\n      tag_137\n        /* \"#utility.yul\":2473:2480   */\n      dup6\n        /* \"#utility.yul\":2464:2470   */\n      dup3\n        /* \"#utility.yul\":2453:2462   */\n      dup7\n        /* \"#utility.yul\":2449:2471   */\n      add\n        /* \"#utility.yul\":2428:2481   */\n      tag_109\n      jump\t// in\n    tag_137:\n        /* \"#utility.yul\":2418:2481   */\n      swap2\n      pop\n        /* \"#utility.yul\":2373:2491   */\n      pop\n        /* \"#utility.yul\":2024:2498   */\n      swap3\n      pop\n      swap3\n      swap1\n      pop\n      jump\t// out\n        /* \"#utility.yul\":2504:3158   */\n    tag_8:\n        /* \"#utility.yul\":2582:2588   */\n      0x00\n        /* \"#utility.yul\":2590:2596   */\n      dup1\n        /* \"#utility.yul\":2639:2641   */\n      0x40\n        /* \"#utility.yul\":2627:2636   */\n      dup4\n        /* \"#utility.yul\":2618:2625   */\n      dup6\n        /* \"#utility.yul\":2614:2637   */\n      sub\n        /* \"#utility.yul\":2610:2642   */\n      slt\n        /* \"#utility.yul\":2607:2726   */\n      iszero\n      tag_139\n      jumpi\n        /* \"#utility.yul\":2645:2724   */\n      tag_140\n      tag_135\n      jump\t// in\n    tag_140:\n        /* \"#utility.yul\":2607:2726   */\n    tag_139:\n        /* \"#utility.yul\":2765:2766   */\n      0x00\n        /* \"#utility.yul\":2790:2843   */\n      tag_141\n        /* \"#utility.yul\":2835:2842   */\n      dup6\n        /* \"#utility.yul\":2826:2832   */\n      dup3\n        /* \"#utility.yul\":2815:2824   */\n      dup7\n        /* \"#utility.yul\":2811:2833   */\n      add\n        /* \"#utility.yul\":2790:2843   */\n      tag_109\n      jump\t// in\n    tag_141:\n        /* \"#utility.yul\":2780:2843   */\n      swap3\n      pop\n        /* \"#utility.yul\":2736:2853   */\n      pop\n        /* \"#utility.yul\":2920:2922   */\n      0x20\n        /* \"#utility.yul\":2909:2918   */\n      dup4\n        /* \"#utility.yul\":2905:2923   */\n      add\n        /* \"#utility.yul\":2892:2924   */\n      calldataload\n        /* \"#utility.yul\":2951:2969   */\n      0xffffffffffffffff\n        /* \"#utility.yul\":2943:2949   */\n      dup2\n        /* \"#utility.yul\":2940:2970   */\n      gt\n        /* \"#utility.yul\":2937:3054   */\n      iszero\n      tag_142\n      jumpi\n        /* \"#utility.yul\":2973:3052   */\n      tag_143\n      tag_144\n      jump\t// in\n    tag_143:\n        /* \"#utility.yul\":2937:3054   */\n    tag_142:\n        /* \"#utility.yul\":3078:3141   */\n      tag_145\n        /* \"#utility.yul\":3133:3140   */\n      dup6\n        /* \"#utility.yul\":3124:3130   */\n      dup3\n        /* \"#utility.yul\":3113:3122   */\n      dup7\n        /* \"#utility.yul\":3109:3131   */\n      add\n        /* \"#utility.yul\":3078:3141   */\n      tag_117\n      jump\t// in\n    tag_145:\n        /* \"#utility.yul\":3068:3141   */\n      swap2\n      pop\n        /* \"#utility.yul\":2863:3151   */\n      pop\n        /* \"#utility.yul\":2504:3158   */\n      swap3\n      pop\n      swap3\n      swap1\n      pop\n      jump\t// out\n        /* \"#utility.yul\":3164:3688   */\n    tag_46:\n        /* \"#utility.yul\":3244:3250   */\n      0x00\n        /* \"#utility.yul\":3293:3295   */\n      0x20\n        /* \"#utility.yul\":3281:3290   */\n      dup3\n        /* \"#utility.yul\":3272:3279   */\n      dup5\n        /* \"#utility.yul\":3268:3291   */\n      sub\n        /* \"#utility.yul\":3264:3296   */\n      slt\n        /* \"#utility.yul\":3261:3380   */\n      iszero\n      tag_147\n      jumpi\n        /* \"#utility.yul\":3299:3378   */\n      tag_148\n      tag_135\n      jump\t// in\n    tag_148:\n        /* \"#utility.yul\":3261:3380   */\n    tag_147:\n        /* \"#utility.yul\":3440:3441   */\n      0x00\n        /* \"#utility.yul\":3429:3438   */\n      dup3\n        /* \"#utility.yul\":3425:3442   */\n      add\n        /* \"#utility.yul\":3419:3443   */\n      mload\n        /* \"#utility.yul\":3470:3488   */\n      0xffffffffffffffff\n        /* \"#utility.yul\":3462:3468   */\n      dup2\n        /* \"#utility.yul\":3459:3489   */\n      gt\n        /* \"#utility.yul\":3456:3573   */\n      iszero\n      tag_149\n      jumpi\n        /* \"#utility.yul\":3492:3571   */\n      tag_150\n      tag_144\n      jump\t// in\n    tag_150:\n        /* \"#utility.yul\":3456:3573   */\n    tag_149:\n        /* \"#utility.yul\":3597:3671   */\n      tag_151\n        /* \"#utility.yul\":3663:3670   */\n      dup5\n        /* \"#utility.yul\":3654:3660   */\n      dup3\n        /* \"#utility.yul\":3643:3652   */\n      dup6\n        /* \"#utility.yul\":3639:3661   */\n      add\n        /* \"#utility.yul\":3597:3671   */\n      tag_123\n      jump\t// in\n    tag_151:\n        /* \"#utility.yul\":3587:3671   */\n      swap2\n      pop\n        /* \"#utility.yul\":3390:3681   */\n      pop\n        /* \"#utility.yul\":3164:3688   */\n      swap3\n      swap2\n      pop\n      pop\n      jump\t// out\n        /* \"#utility.yul\":3694:4547   */\n    tag_58:\n        /* \"#utility.yul\":3793:3799   */\n      0x00\n        /* \"#utility.yul\":3801:3807   */\n      dup1\n        /* \"#utility.yul\":3850:3852   */\n      0x40\n        /* \"#utility.yul\":3838:3847   */\n      dup4\n        /* \"#utility.yul\":3829:3836   */\n      dup6\n        /* \"#utility.yul\":3825:3848   */\n      sub\n        /* \"#utility.yul\":3821:3853   */\n      slt\n        /* \"#utility.yul\":3818:3937   */\n      iszero\n      tag_153\n      jumpi\n        /* \"#utility.yul\":3856:3935   */\n      tag_154\n      tag_135\n      jump\t// in\n    tag_154:\n        /* \"#utility.yul\":3818:3937   */\n    tag_153:\n        /* \"#utility.yul\":3997:3998   */\n      0x00\n        /* \"#utility.yul\":3986:3995   */\n      dup4\n        /* \"#utility.yul\":3982:3999   */\n      add\n        /* \"#utility.yul\":3976:4000   */\n      mload\n        /* \"#utility.yul\":4027:4045   */\n      0xffffffffffffffff\n        /* \"#utility.yul\":4019:4025   */\n      dup2\n        /* \"#utility.yul\":4016:4046   */\n      gt\n        /* \"#utility.yul\":4013:4130   */\n      iszero\n      tag_155\n      jumpi\n        /* \"#utility.yul\":4049:4128   */\n      tag_156\n      tag_144\n      jump\t// in\n    tag_156:\n        /* \"#utility.yul\":4013:4130   */\n    tag_155:\n        /* \"#utility.yul\":4154:4228   */\n      tag_157\n        /* \"#utility.yul\":4220:4227   */\n      dup6\n        /* \"#utility.yul\":4211:4217   */\n      dup3\n        /* \"#utility.yul\":4200:4209   */\n      dup7\n        /* \"#utility.yul\":4196:4218   */\n      add\n        /* \"#utility.yul\":4154:4228   */\n      tag_123\n      jump\t// in\n    tag_157:\n        /* \"#utility.yul\":4144:4228   */\n      swap3\n      pop\n        /* \"#utility.yul\":3947:4238   */\n      pop\n        /* \"#utility.yul\":4298:4300   */\n      0x20\n        /* \"#utility.yul\":4287:4296   */\n      dup4\n        /* \"#utility.yul\":4283:4301   */\n      add\n        /* \"#utility.yul\":4277:4302   */\n      mload\n        /* \"#utility.yul\":4329:4347   */\n      0xffffffffffffffff\n        /* \"#utility.yul\":4321:4327   */\n      dup2\n        /* \"#utility.yul\":4318:4348   */\n      gt\n        /* \"#utility.yul\":4315:4432   */\n      iszero\n      tag_158\n      jumpi\n        /* \"#utility.yul\":4351:4430   */\n      tag_159\n      tag_144\n      jump\t// in\n    tag_159:\n        /* \"#utility.yul\":4315:4432   */\n    tag_158:\n        /* \"#utility.yul\":4456:4530   */\n      tag_160\n        /* \"#utility.yul\":4522:4529   */\n      dup6\n        /* \"#utility.yul\":4513:4519   */\n      dup3\n        /* \"#utility.yul\":4502:4511   */\n      dup7\n        /* \"#utility.yul\":4498:4520   */\n      add\n        /* \"#utility.yul\":4456:4530   */\n      tag_123\n      jump\t// in\n    tag_160:\n        /* \"#utility.yul\":4446:4530   */\n      swap2\n      pop\n        /* \"#utility.yul\":4248:4540   */\n      pop\n        /* \"#utility.yul\":3694:4547   */\n      swap3\n      pop\n      swap3\n      swap1\n      pop\n      jump\t// out\n        /* \"#utility.yul\":4553:5054   */\n    tag_29:\n        /* \"#utility.yul\":4629:4635   */\n      0x00\n        /* \"#utility.yul\":4637:4643   */\n      dup1\n        /* \"#utility.yul\":4686:4688   */\n      0x40\n        /* \"#utility.yul\":4674:4683   */\n      dup4\n        /* \"#utility.yul\":4665:4672   */\n      dup6\n        /* \"#utility.yul\":4661:4684   */\n      sub\n        /* \"#utility.yul\":4657:4689   */\n      slt\n        /* \"#utility.yul\":4654:4773   */\n      iszero\n      tag_162\n      jumpi\n        /* \"#utility.yul\":4692:4771   */\n      tag_163\n      tag_135\n      jump\t// in\n    tag_163:\n        /* \"#utility.yul\":4654:4773   */\n    tag_162:\n        /* \"#utility.yul\":4812:4813   */\n      0x00\n        /* \"#utility.yul\":4837:4901   */\n      tag_164\n        /* \"#utility.yul\":4893:4900   */\n      dup6\n        /* \"#utility.yul\":4884:4890   */\n      dup3\n        /* \"#utility.yul\":4873:4882   */\n      dup7\n        /* \"#utility.yul\":4869:4891   */\n      add\n        /* \"#utility.yul\":4837:4901   */\n      tag_128\n      jump\t// in\n    tag_164:\n        /* \"#utility.yul\":4827:4901   */\n      swap3\n      pop\n        /* \"#utility.yul\":4783:4911   */\n      pop\n        /* \"#utility.yul\":4950:4952   */\n      0x20\n        /* \"#utility.yul\":4976:5037   */\n      tag_165\n        /* \"#utility.yul\":5029:5036   */\n      dup6\n        /* \"#utility.yul\":5020:5026   */\n      dup3\n        /* \"#utility.yul\":5009:5018   */\n      dup7\n        /* \"#utility.yul\":5005:5027   */\n      add\n        /* \"#utility.yul\":4976:5037   */\n      tag_113\n      jump\t// in\n    tag_165:\n        /* \"#utility.yul\":4966:5037   */\n      swap2\n      pop\n        /* \"#utility.yul\":4921:5047   */\n      pop\n        /* \"#utility.yul\":4553:5054   */\n      swap3\n      pop\n      swap3\n      swap1\n      pop\n      jump\t// out\n        /* \"#utility.yul\":5060:5178   */\n    tag_166:\n        /* \"#utility.yul\":5147:5171   */\n      tag_168\n        /* \"#utility.yul\":5165:5170   */\n      dup2\n        /* \"#utility.yul\":5147:5171   */\n      tag_169\n      jump\t// in\n    tag_168:\n        /* \"#utility.yul\":5142:5145   */\n      dup3\n        /* \"#utility.yul\":5135:5172   */\n      mstore\n        /* \"#utility.yul\":5060:5178   */\n      pop\n      pop\n      jump\t// out\n        /* \"#utility.yul\":5184:5293   */\n    tag_170:\n        /* \"#utility.yul\":5265:5286   */\n      tag_172\n        /* \"#utility.yul\":5280:5285   */\n      dup2\n        /* \"#utility.yul\":5265:5286   */\n      tag_173\n      jump\t// in\n    tag_172:\n        /* \"#utility.yul\":5260:5263   */\n      dup3\n        /* \"#utility.yul\":5253:5287   */\n      mstore\n        /* \"#utility.yul\":5184:5293   */\n      pop\n      pop\n      jump\t// out\n        /* \"#utility.yul\":5299:5663   */\n    tag_174:\n        /* \"#utility.yul\":5387:5390   */\n      0x00\n        /* \"#utility.yul\":5415:5454   */\n      tag_176\n        /* \"#utility.yul\":5448:5453   */\n      dup3\n        /* \"#utility.yul\":5415:5454   */\n      tag_177\n      jump\t// in\n    tag_176:\n        /* \"#utility.yul\":5470:5541   */\n      tag_178\n        /* \"#utility.yul\":5534:5540   */\n      dup2\n        /* \"#utility.yul\":5529:5532   */\n      dup6\n        /* \"#utility.yul\":5470:5541   */\n      tag_179\n      jump\t// in\n    tag_178:\n        /* \"#utility.yul\":5463:5541   */\n      swap4\n      pop\n        /* \"#utility.yul\":5550:5602   */\n      tag_180\n        /* \"#utility.yul\":5595:5601   */\n      dup2\n        /* \"#utility.yul\":5590:5593   */\n      dup6\n        /* \"#utility.yul\":5583:5587   */\n      0x20\n        /* \"#utility.yul\":5576:5581   */\n      dup7\n        /* \"#utility.yul\":5572:5588   */\n      add\n        /* \"#utility.yul\":5550:5602   */\n      tag_108\n      jump\t// in\n    tag_180:\n        /* \"#utility.yul\":5627:5656   */\n      tag_181\n        /* \"#utility.yul\":5649:5655   */\n      dup2\n        /* \"#utility.yul\":5627:5656   */\n      tag_182\n      jump\t// in\n    tag_181:\n        /* \"#utility.yul\":5622:5625   */\n      dup5\n        /* \"#utility.yul\":5618:5657   */\n      add\n        /* \"#utility.yul\":5611:5657   */\n      swap2\n      pop\n        /* \"#utility.yul\":5391:5663   */\n      pop\n        /* \"#utility.yul\":5299:5663   */\n      swap3\n      swap2\n      pop\n      pop\n      jump\t// out\n        /* \"#utility.yul\":5669:6046   */\n    tag_183:\n        /* \"#utility.yul\":5775:5778   */\n      0x00\n        /* \"#utility.yul\":5803:5842   */\n      tag_185\n        /* \"#utility.yul\":5836:5841   */\n      dup3\n        /* \"#utility.yul\":5803:5842   */\n      tag_177\n      jump\t// in\n    tag_185:\n        /* \"#utility.yul\":5858:5947   */\n      tag_186\n        /* \"#utility.yul\":5940:5946   */\n      dup2\n        /* \"#utility.yul\":5935:5938   */\n      dup6\n        /* \"#utility.yul\":5858:5947   */\n      tag_187\n      jump\t// in\n    tag_186:\n        /* \"#utility.yul\":5851:5947   */\n      swap4\n      pop\n        /* \"#utility.yul\":5956:6008   */\n      tag_188\n        /* \"#utility.yul\":6001:6007   */\n      dup2\n        /* \"#utility.yul\":5996:5999   */\n      dup6\n        /* \"#utility.yul\":5989:5993   */\n      0x20\n        /* \"#utility.yul\":5982:5987   */\n      dup7\n        /* \"#utility.yul\":5978:5994   */\n      add\n        /* \"#utility.yul\":5956:6008   */\n      tag_108\n      jump\t// in\n    tag_188:\n        /* \"#utility.yul\":6033:6039   */\n      dup1\n        /* \"#utility.yul\":6028:6031   */\n      dup5\n        /* \"#utility.yul\":6024:6040   */\n      add\n        /* \"#utility.yul\":6017:6040   */\n      swap2\n      pop\n        /* \"#utility.yul\":5779:6046   */\n      pop\n        /* \"#utility.yul\":5669:6046   */\n      swap3\n      swap2\n      pop\n      pop\n      jump\t// out\n        /* \"#utility.yul\":6052:6452   */\n    tag_189:\n        /* \"#utility.yul\":6212:6215   */\n      0x00\n        /* \"#utility.yul\":6233:6317   */\n      tag_191\n        /* \"#utility.yul\":6315:6316   */\n      0x05\n        /* \"#utility.yul\":6310:6313   */\n      dup4\n        /* \"#utility.yul\":6233:6317   */\n      tag_187\n      jump\t// in\n    tag_191:\n        /* \"#utility.yul\":6226:6317   */\n      swap2\n      pop\n        /* \"#utility.yul\":6326:6419   */\n      tag_192\n        /* \"#utility.yul\":6415:6418   */\n      dup3\n        /* \"#utility.yul\":6326:6419   */\n      tag_193\n      jump\t// in\n    tag_192:\n        /* \"#utility.yul\":6444:6445   */\n      0x05\n        /* \"#utility.yul\":6439:6442   */\n      dup3\n        /* \"#utility.yul\":6435:6446   */\n      add\n        /* \"#utility.yul\":6428:6446   */\n      swap1\n      pop\n        /* \"#utility.yul\":6052:6452   */\n      swap2\n      swap1\n      pop\n      jump\t// out\n        /* \"#utility.yul\":6458:6858   */\n    tag_194:\n        /* \"#utility.yul\":6618:6621   */\n      0x00\n        /* \"#utility.yul\":6639:6723   */\n      tag_196\n        /* \"#utility.yul\":6721:6722   */\n      0x07\n        /* \"#utility.yul\":6716:6719   */\n      dup4\n        /* \"#utility.yul\":6639:6723   */\n      tag_187\n      jump\t// in\n    tag_196:\n        /* \"#utility.yul\":6632:6723   */\n      swap2\n      pop\n        /* \"#utility.yul\":6732:6825   */\n      tag_197\n        /* \"#utility.yul\":6821:6824   */\n      dup3\n        /* \"#utility.yul\":6732:6825   */\n      tag_198\n      jump\t// in\n    tag_197:\n        /* \"#utility.yul\":6850:6851   */\n      0x07\n        /* \"#utility.yul\":6845:6848   */\n      dup3\n        /* \"#utility.yul\":6841:6852   */\n      add\n        /* \"#utility.yul\":6834:6852   */\n      swap1\n      pop\n        /* \"#utility.yul\":6458:6858   */\n      swap2\n      swap1\n      pop\n      jump\t// out\n        /* \"#utility.yul\":6864:7230   */\n    tag_199:\n        /* \"#utility.yul\":7006:7009   */\n      0x00\n        /* \"#utility.yul\":7027:7094   */\n      tag_201\n        /* \"#utility.yul\":7091:7093   */\n      0x0c\n        /* \"#utility.yul\":7086:7089   */\n      dup4\n        /* \"#utility.yul\":7027:7094   */\n      tag_179\n      jump\t// in\n    tag_201:\n        /* \"#utility.yul\":7020:7094   */\n      swap2\n      pop\n        /* \"#utility.yul\":7103:7196   */\n      tag_202\n        /* \"#utility.yul\":7192:7195   */\n      dup3\n        /* \"#utility.yul\":7103:7196   */\n      tag_203\n      jump\t// in\n    tag_202:\n        /* \"#utility.yul\":7221:7223   */\n      0x20\n        /* \"#utility.yul\":7216:7219   */\n      dup3\n        /* \"#utility.yul\":7212:7224   */\n      add\n        /* \"#utility.yul\":7205:7224   */\n      swap1\n      pop\n        /* \"#utility.yul\":6864:7230   */\n      swap2\n      swap1\n      pop\n      jump\t// out\n        /* \"#utility.yul\":7236:7636   */\n    tag_204:\n        /* \"#utility.yul\":7396:7399   */\n      0x00\n        /* \"#utility.yul\":7417:7501   */\n      tag_206\n        /* \"#utility.yul\":7499:7500   */\n      0x07\n        /* \"#utility.yul\":7494:7497   */\n      dup4\n        /* \"#utility.yul\":7417:7501   */\n      tag_187\n      jump\t// in\n    tag_206:\n        /* \"#utility.yul\":7410:7501   */\n      swap2\n      pop\n        /* \"#utility.yul\":7510:7603   */\n      tag_207\n        /* \"#utility.yul\":7599:7602   */\n      dup3\n        /* \"#utility.yul\":7510:7603   */\n      tag_208\n      jump\t// in\n    tag_207:\n        /* \"#utility.yul\":7628:7629   */\n      0x07\n        /* \"#utility.yul\":7623:7626   */\n      dup3\n        /* \"#utility.yul\":7619:7630   */\n      add\n        /* \"#utility.yul\":7612:7630   */\n      swap1\n      pop\n        /* \"#utility.yul\":7236:7636   */\n      swap2\n      swap1\n      pop\n      jump\t// out\n        /* \"#utility.yul\":7642:8008   */\n    tag_209:\n        /* \"#utility.yul\":7784:7787   */\n      0x00\n        /* \"#utility.yul\":7805:7872   */\n      tag_211\n        /* \"#utility.yul\":7869:7871   */\n      0x13\n        /* \"#utility.yul\":7864:7867   */\n      dup4\n        /* \"#utility.yul\":7805:7872   */\n      tag_179\n      jump\t// in\n    tag_211:\n        /* \"#utility.yul\":7798:7872   */\n      swap2\n      pop\n        /* \"#utility.yul\":7881:7974   */\n      tag_212\n        /* \"#utility.yul\":7970:7973   */\n      dup3\n        /* \"#utility.yul\":7881:7974   */\n      tag_213\n      jump\t// in\n    tag_212:\n        /* \"#utility.yul\":7999:8001   */\n      0x20\n        /* \"#utility.yul\":7994:7997   */\n      dup3\n        /* \"#utility.yul\":7990:8002   */\n      add\n        /* \"#utility.yul\":7983:8002   */\n      swap1\n      pop\n        /* \"#utility.yul\":7642:8008   */\n      swap2\n      swap1\n      pop\n      jump\t// out\n        /* \"#utility.yul\":8014:8414   */\n    tag_214:\n        /* \"#utility.yul\":8174:8177   */\n      0x00\n        /* \"#utility.yul\":8195:8279   */\n      tag_216\n        /* \"#utility.yul\":8277:8278   */\n      0x04\n        /* \"#utility.yul\":8272:8275   */\n      dup4\n        /* \"#utility.yul\":8195:8279   */\n      tag_187\n      jump\t// in\n    tag_216:\n        /* \"#utility.yul\":8188:8279   */\n      swap2\n      pop\n        /* \"#utility.yul\":8288:8381   */\n      tag_217\n        /* \"#utility.yul\":8377:8380   */\n      dup3\n        /* \"#utility.yul\":8288:8381   */\n      tag_218\n      jump\t// in\n    tag_217:\n        /* \"#utility.yul\":8406:8407   */\n      0x04\n        /* \"#utility.yul\":8401:8404   */\n      dup3\n        /* \"#utility.yul\":8397:8408   */\n      add\n        /* \"#utility.yul\":8390:8408   */\n      swap1\n      pop\n        /* \"#utility.yul\":8014:8414   */\n      swap2\n      swap1\n      pop\n      jump\t// out\n        /* \"#utility.yul\":8420:8820   */\n    tag_219:\n        /* \"#utility.yul\":8580:8583   */\n      0x00\n        /* \"#utility.yul\":8601:8685   */\n      tag_221\n        /* \"#utility.yul\":8683:8684   */\n      0x04\n        /* \"#utility.yul\":8678:8681   */\n      dup4\n        /* \"#utility.yul\":8601:8685   */\n      tag_187\n      jump\t// in\n    tag_221:\n        /* \"#utility.yul\":8594:8685   */\n      swap2\n      pop\n        /* \"#utility.yul\":8694:8787   */\n      tag_222\n        /* \"#utility.yul\":8783:8786   */\n      dup3\n        /* \"#utility.yul\":8694:8787   */\n      tag_223\n      jump\t// in\n    tag_222:\n        /* \"#utility.yul\":8812:8813   */\n      0x04\n        /* \"#utility.yul\":8807:8810   */\n      dup3\n        /* \"#utility.yul\":8803:8814   */\n      add\n        /* \"#utility.yul\":8796:8814   */\n      swap1\n      pop\n        /* \"#utility.yul\":8420:8820   */\n      swap2\n      swap1\n      pop\n      jump\t// out\n        /* \"#utility.yul\":8826:9192   */\n    tag_224:\n        /* \"#utility.yul\":8968:8971   */\n      0x00\n        /* \"#utility.yul\":8989:9056   */\n      tag_226\n        /* \"#utility.yul\":9053:9055   */\n      0x14\n        /* \"#utility.yul\":9048:9051   */\n      dup4\n        /* \"#utility.yul\":8989:9056   */\n      tag_179\n      jump\t// in\n    tag_226:\n        /* \"#utility.yul\":8982:9056   */\n      swap2\n      pop\n        /* \"#utility.yul\":9065:9158   */\n      tag_227\n        /* \"#utility.yul\":9154:9157   */\n      dup3\n        /* \"#utility.yul\":9065:9158   */\n      tag_228\n      jump\t// in\n    tag_227:\n        /* \"#utility.yul\":9183:9185   */\n      0x20\n        /* \"#utility.yul\":9178:9181   */\n      dup3\n        /* \"#utility.yul\":9174:9186   */\n      add\n        /* \"#utility.yul\":9167:9186   */\n      swap1\n      pop\n        /* \"#utility.yul\":8826:9192   */\n      swap2\n      swap1\n      pop\n      jump\t// out\n        /* \"#utility.yul\":9198:9564   */\n    tag_229:\n        /* \"#utility.yul\":9340:9343   */\n      0x00\n        /* \"#utility.yul\":9361:9428   */\n      tag_231\n        /* \"#utility.yul\":9425:9427   */\n      0x20\n        /* \"#utility.yul\":9420:9423   */\n      dup4\n        /* \"#utility.yul\":9361:9428   */\n      tag_179\n      jump\t// in\n    tag_231:\n        /* \"#utility.yul\":9354:9428   */\n      swap2\n      pop\n        /* \"#utility.yul\":9437:9530   */\n      tag_232\n        /* \"#utility.yul\":9526:9529   */\n      dup3\n        /* \"#utility.yul\":9437:9530   */\n      tag_233\n      jump\t// in\n    tag_232:\n        /* \"#utility.yul\":9555:9557   */\n      0x20\n        /* \"#utility.yul\":9550:9553   */\n      dup3\n        /* \"#utility.yul\":9546:9558   */\n      add\n        /* \"#utility.yul\":9539:9558   */\n      swap1\n      pop\n        /* \"#utility.yul\":9198:9564   */\n      swap2\n      swap1\n      pop\n      jump\t// out\n        /* \"#utility.yul\":9570:9970   */\n    tag_234:\n        /* \"#utility.yul\":9730:9733   */\n      0x00\n        /* \"#utility.yul\":9751:9835   */\n      tag_236\n        /* \"#utility.yul\":9833:9834   */\n      0x04\n        /* \"#utility.yul\":9828:9831   */\n      dup4\n        /* \"#utility.yul\":9751:9835   */\n      tag_187\n      jump\t// in\n    tag_236:\n        /* \"#utility.yul\":9744:9835   */\n      swap2\n      pop\n        /* \"#utility.yul\":9844:9937   */\n      tag_237\n        /* \"#utility.yul\":9933:9936   */\n      dup3\n        /* \"#utility.yul\":9844:9937   */\n      tag_238\n      jump\t// in\n    tag_237:\n        /* \"#utility.yul\":9962:9963   */\n      0x04\n        /* \"#utility.yul\":9957:9960   */\n      dup3\n        /* \"#utility.yul\":9953:9964   */\n      add\n        /* \"#utility.yul\":9946:9964   */\n      swap1\n      pop\n        /* \"#utility.yul\":9570:9970   */\n      swap2\n      swap1\n      pop\n      jump\t// out\n        /* \"#utility.yul\":9976:10094   */\n    tag_239:\n        /* \"#utility.yul\":10063:10087   */\n      tag_241\n        /* \"#utility.yul\":10081:10086   */\n      dup2\n        /* \"#utility.yul\":10063:10087   */\n      tag_242\n      jump\t// in\n    tag_241:\n        /* \"#utility.yul\":10058:10061   */\n      dup3\n        /* \"#utility.yul\":10051:10088   */\n      mstore\n        /* \"#utility.yul\":9976:10094   */\n      pop\n      pop\n      jump\t// out\n        /* \"#utility.yul\":10100:10375   */\n    tag_48:\n        /* \"#utility.yul\":10232:10235   */\n      0x00\n        /* \"#utility.yul\":10254:10349   */\n      tag_244\n        /* \"#utility.yul\":10345:10348   */\n      dup3\n        /* \"#utility.yul\":10336:10342   */\n      dup5\n        /* \"#utility.yul\":10254:10349   */\n      tag_183\n      jump\t// in\n    tag_244:\n        /* \"#utility.yul\":10247:10349   */\n      swap2\n      pop\n        /* \"#utility.yul\":10366:10369   */\n      dup2\n        /* \"#utility.yul\":10359:10369   */\n      swap1\n      pop\n        /* \"#utility.yul\":10100:10375   */\n      swap3\n      swap2\n      pop\n      pop\n      jump\t// out\n        /* \"#utility.yul\":10381:10762   */\n    tag_72:\n        /* \"#utility.yul\":10566:10569   */\n      0x00\n        /* \"#utility.yul\":10588:10736   */\n      tag_246\n        /* \"#utility.yul\":10732:10735   */\n      dup3\n        /* \"#utility.yul\":10588:10736   */\n      tag_189\n      jump\t// in\n    tag_246:\n        /* \"#utility.yul\":10581:10736   */\n      swap2\n      pop\n        /* \"#utility.yul\":10753:10756   */\n      dup2\n        /* \"#utility.yul\":10746:10756   */\n      swap1\n      pop\n        /* \"#utility.yul\":10381:10762   */\n      swap2\n      swap1\n      pop\n      jump\t// out\n        /* \"#utility.yul\":10768:11149   */\n    tag_78:\n        /* \"#utility.yul\":10953:10956   */\n      0x00\n        /* \"#utility.yul\":10975:11123   */\n      tag_248\n        /* \"#utility.yul\":11119:11122   */\n      dup3\n        /* \"#utility.yul\":10975:11123   */\n      tag_194\n      jump\t// in\n    tag_248:\n        /* \"#utility.yul\":10968:11123   */\n      swap2\n      pop\n        /* \"#utility.yul\":11140:11143   */\n      dup2\n        /* \"#utility.yul\":11133:11143   */\n      swap1\n      pop\n        /* \"#utility.yul\":10768:11149   */\n      swap2\n      swap1\n      pop\n      jump\t// out\n        /* \"#utility.yul\":11155:11536   */\n    tag_74:\n        /* \"#utility.yul\":11340:11343   */\n      0x00\n        /* \"#utility.yul\":11362:11510   */\n      tag_250\n        /* \"#utility.yul\":11506:11509   */\n      dup3\n        /* \"#utility.yul\":11362:11510   */\n      tag_204\n      jump\t// in\n    tag_250:\n        /* \"#utility.yul\":11355:11510   */\n      swap2\n      pop\n        /* \"#utility.yul\":11527:11530   */\n      dup2\n        /* \"#utility.yul\":11520:11530   */\n      swap1\n      pop\n        /* \"#utility.yul\":11155:11536   */\n      swap2\n      swap1\n      pop\n      jump\t// out\n        /* \"#utility.yul\":11542:11923   */\n    tag_76:\n        /* \"#utility.yul\":11727:11730   */\n      0x00\n        /* \"#utility.yul\":11749:11897   */\n      tag_252\n        /* \"#utility.yul\":11893:11896   */\n      dup3\n        /* \"#utility.yul\":11749:11897   */\n      tag_214\n      jump\t// in\n    tag_252:\n        /* \"#utility.yul\":11742:11897   */\n      swap2\n      pop\n        /* \"#utility.yul\":11914:11917   */\n      dup2\n        /* \"#utility.yul\":11907:11917   */\n      swap1\n      pop\n        /* \"#utility.yul\":11542:11923   */\n      swap2\n      swap1\n      pop\n      jump\t// out\n        /* \"#utility.yul\":11929:12310   */\n    tag_70:\n        /* \"#utility.yul\":12114:12117   */\n      0x00\n        /* \"#utility.yul\":12136:12284   */\n      tag_254\n        /* \"#utility.yul\":12280:12283   */\n      dup3\n        /* \"#utility.yul\":12136:12284   */\n      tag_219\n      jump\t// in\n    tag_254:\n        /* \"#utility.yul\":12129:12284   */\n      swap2\n      pop\n        /* \"#utility.yul\":12301:12304   */\n      dup2\n        /* \"#utility.yul\":12294:12304   */\n      swap1\n      pop\n        /* \"#utility.yul\":11929:12310   */\n      swap2\n      swap1\n      pop\n      jump\t// out\n        /* \"#utility.yul\":12316:12697   */\n    tag_68:\n        /* \"#utility.yul\":12501:12504   */\n      0x00\n        /* \"#utility.yul\":12523:12671   */\n      tag_256\n        /* \"#utility.yul\":12667:12670   */\n      dup3\n        /* \"#utility.yul\":12523:12671   */\n      tag_234\n      jump\t// in\n    tag_256:\n        /* \"#utility.yul\":12516:12671   */\n      swap2\n      pop\n        /* \"#utility.yul\":12688:12691   */\n      dup2\n        /* \"#utility.yul\":12681:12691   */\n      swap1\n      pop\n        /* \"#utility.yul\":12316:12697   */\n      swap2\n      swap1\n      pop\n      jump\t// out\n        /* \"#utility.yul\":12703:12925   */\n    tag_24:\n        /* \"#utility.yul\":12796:12800   */\n      0x00\n        /* \"#utility.yul\":12834:12836   */\n      0x20\n        /* \"#utility.yul\":12823:12832   */\n      dup3\n        /* \"#utility.yul\":12819:12837   */\n      add\n        /* \"#utility.yul\":12811:12837   */\n      swap1\n      pop\n        /* \"#utility.yul\":12847:12918   */\n      tag_258\n        /* \"#utility.yul\":12915:12916   */\n      0x00\n        /* \"#utility.yul\":12904:12913   */\n      dup4\n        /* \"#utility.yul\":12900:12917   */\n      add\n        /* \"#utility.yul\":12891:12897   */\n      dup5\n        /* \"#utility.yul\":12847:12918   */\n      tag_166\n      jump\t// in\n    tag_258:\n        /* \"#utility.yul\":12703:12925   */\n      swap3\n      swap2\n      pop\n      pop\n      jump\t// out\n        /* \"#utility.yul\":12931:13263   */\n    tag_41:\n        /* \"#utility.yul\":13052:13056   */\n      0x00\n        /* \"#utility.yul\":13090:13092   */\n      0x40\n        /* \"#utility.yul\":13079:13088   */\n      dup3\n        /* \"#utility.yul\":13075:13093   */\n      add\n        /* \"#utility.yul\":13067:13093   */\n      swap1\n      pop\n        /* \"#utility.yul\":13103:13174   */\n      tag_260\n        /* \"#utility.yul\":13171:13172   */\n      0x00\n        /* \"#utility.yul\":13160:13169   */\n      dup4\n        /* \"#utility.yul\":13156:13173   */\n      add\n        /* \"#utility.yul\":13147:13153   */\n      dup6\n        /* \"#utility.yul\":13103:13174   */\n      tag_166\n      jump\t// in\n    tag_260:\n        /* \"#utility.yul\":13184:13256   */\n      tag_261\n        /* \"#utility.yul\":13252:13254   */\n      0x20\n        /* \"#utility.yul\":13241:13250   */\n      dup4\n        /* \"#utility.yul\":13237:13255   */\n      add\n        /* \"#utility.yul\":13228:13234   */\n      dup5\n        /* \"#utility.yul\":13184:13256   */\n      tag_166\n      jump\t// in\n    tag_261:\n        /* \"#utility.yul\":12931:13263   */\n      swap4\n      swap3\n      pop\n      pop\n      pop\n      jump\t// out\n        /* \"#utility.yul\":13269:14110   */\n    tag_64:\n        /* \"#utility.yul\":13539:13543   */\n      0x00\n        /* \"#utility.yul\":13577:13580   */\n      0x80\n        /* \"#utility.yul\":13566:13575   */\n      dup3\n        /* \"#utility.yul\":13562:13581   */\n      add\n        /* \"#utility.yul\":13554:13581   */\n      swap1\n      pop\n        /* \"#utility.yul\":13591:13662   */\n      tag_263\n        /* \"#utility.yul\":13659:13660   */\n      0x00\n        /* \"#utility.yul\":13648:13657   */\n      dup4\n        /* \"#utility.yul\":13644:13661   */\n      add\n        /* \"#utility.yul\":13635:13641   */\n      dup7\n        /* \"#utility.yul\":13591:13662   */\n      tag_166\n      jump\t// in\n    tag_263:\n        /* \"#utility.yul\":13672:13744   */\n      tag_264\n        /* \"#utility.yul\":13740:13742   */\n      0x20\n        /* \"#utility.yul\":13729:13738   */\n      dup4\n        /* \"#utility.yul\":13725:13743   */\n      add\n        /* \"#utility.yul\":13716:13722   */\n      dup6\n        /* \"#utility.yul\":13672:13744   */\n      tag_166\n      jump\t// in\n    tag_264:\n        /* \"#utility.yul\":13791:13800   */\n      dup2\n        /* \"#utility.yul\":13785:13789   */\n      dup2\n        /* \"#utility.yul\":13781:13801   */\n      sub\n        /* \"#utility.yul\":13776:13778   */\n      0x40\n        /* \"#utility.yul\":13765:13774   */\n      dup4\n        /* \"#utility.yul\":13761:13779   */\n      add\n        /* \"#utility.yul\":13754:13802   */\n      mstore\n        /* \"#utility.yul\":13819:13897   */\n      tag_265\n        /* \"#utility.yul\":13892:13896   */\n      dup2\n        /* \"#utility.yul\":13883:13889   */\n      dup5\n        /* \"#utility.yul\":13819:13897   */\n      tag_174\n      jump\t// in\n    tag_265:\n        /* \"#utility.yul\":13811:13897   */\n      swap1\n      pop\n        /* \"#utility.yul\":13944:13953   */\n      dup2\n        /* \"#utility.yul\":13938:13942   */\n      dup2\n        /* \"#utility.yul\":13934:13954   */\n      sub\n        /* \"#utility.yul\":13929:13931   */\n      0x60\n        /* \"#utility.yul\":13918:13927   */\n      dup4\n        /* \"#utility.yul\":13914:13932   */\n      add\n        /* \"#utility.yul\":13907:13955   */\n      mstore\n        /* \"#utility.yul\":13972:14103   */\n      tag_266\n        /* \"#utility.yul\":14098:14102   */\n      dup2\n        /* \"#utility.yul\":13972:14103   */\n      tag_199\n      jump\t// in\n    tag_266:\n        /* \"#utility.yul\":13964:14103   */\n      swap1\n      pop\n        /* \"#utility.yul\":13269:14110   */\n      swap5\n      swap4\n      pop\n      pop\n      pop\n      pop\n      jump\t// out\n        /* \"#utility.yul\":14116:14957   */\n    tag_62:\n        /* \"#utility.yul\":14386:14390   */\n      0x00\n        /* \"#utility.yul\":14424:14427   */\n      0x80\n        /* \"#utility.yul\":14413:14422   */\n      dup3\n        /* \"#utility.yul\":14409:14428   */\n      add\n        /* \"#utility.yul\":14401:14428   */\n      swap1\n      pop\n        /* \"#utility.yul\":14438:14509   */\n      tag_268\n        /* \"#utility.yul\":14506:14507   */\n      0x00\n        /* \"#utility.yul\":14495:14504   */\n      dup4\n        /* \"#utility.yul\":14491:14508   */\n      add\n        /* \"#utility.yul\":14482:14488   */\n      dup7\n        /* \"#utility.yul\":14438:14509   */\n      tag_166\n      jump\t// in\n    tag_268:\n        /* \"#utility.yul\":14519:14591   */\n      tag_269\n        /* \"#utility.yul\":14587:14589   */\n      0x20\n        /* \"#utility.yul\":14576:14585   */\n      dup4\n        /* \"#utility.yul\":14572:14590   */\n      add\n        /* \"#utility.yul\":14563:14569   */\n      dup6\n        /* \"#utility.yul\":14519:14591   */\n      tag_166\n      jump\t// in\n    tag_269:\n        /* \"#utility.yul\":14638:14647   */\n      dup2\n        /* \"#utility.yul\":14632:14636   */\n      dup2\n        /* \"#utility.yul\":14628:14648   */\n      sub\n        /* \"#utility.yul\":14623:14625   */\n      0x40\n        /* \"#utility.yul\":14612:14621   */\n      dup4\n        /* \"#utility.yul\":14608:14626   */\n      add\n        /* \"#utility.yul\":14601:14649   */\n      mstore\n        /* \"#utility.yul\":14666:14744   */\n      tag_270\n        /* \"#utility.yul\":14739:14743   */\n      dup2\n        /* \"#utility.yul\":14730:14736   */\n      dup5\n        /* \"#utility.yul\":14666:14744   */\n      tag_174\n      jump\t// in\n    tag_270:\n        /* \"#utility.yul\":14658:14744   */\n      swap1\n      pop\n        /* \"#utility.yul\":14791:14800   */\n      dup2\n        /* \"#utility.yul\":14785:14789   */\n      dup2\n        /* \"#utility.yul\":14781:14801   */\n      sub\n        /* \"#utility.yul\":14776:14778   */\n      0x60\n        /* \"#utility.yul\":14765:14774   */\n      dup4\n        /* \"#utility.yul\":14761:14779   */\n      add\n        /* \"#utility.yul\":14754:14802   */\n      mstore\n        /* \"#utility.yul\":14819:14950   */\n      tag_271\n        /* \"#utility.yul\":14945:14949   */\n      dup2\n        /* \"#utility.yul\":14819:14950   */\n      tag_209\n      jump\t// in\n    tag_271:\n        /* \"#utility.yul\":14811:14950   */\n      swap1\n      pop\n        /* \"#utility.yul\":14116:14957   */\n      swap5\n      swap4\n      pop\n      pop\n      pop\n      pop\n      jump\t// out\n        /* \"#utility.yul\":14963:15804   */\n    tag_52:\n        /* \"#utility.yul\":15233:15237   */\n      0x00\n        /* \"#utility.yul\":15271:15274   */\n      0x80\n        /* \"#utility.yul\":15260:15269   */\n      dup3\n        /* \"#utility.yul\":15256:15275   */\n      add\n        /* \"#utility.yul\":15248:15275   */\n      swap1\n      pop\n        /* \"#utility.yul\":15285:15356   */\n      tag_273\n        /* \"#utility.yul\":15353:15354   */\n      0x00\n        /* \"#utility.yul\":15342:15351   */\n      dup4\n        /* \"#utility.yul\":15338:15355   */\n      add\n        /* \"#utility.yul\":15329:15335   */\n      dup7\n        /* \"#utility.yul\":15285:15356   */\n      tag_166\n      jump\t// in\n    tag_273:\n        /* \"#utility.yul\":15366:15438   */\n      tag_274\n        /* \"#utility.yul\":15434:15436   */\n      0x20\n        /* \"#utility.yul\":15423:15432   */\n      dup4\n        /* \"#utility.yul\":15419:15437   */\n      add\n        /* \"#utility.yul\":15410:15416   */\n      dup6\n        /* \"#utility.yul\":15366:15438   */\n      tag_166\n      jump\t// in\n    tag_274:\n        /* \"#utility.yul\":15485:15494   */\n      dup2\n        /* \"#utility.yul\":15479:15483   */\n      dup2\n        /* \"#utility.yul\":15475:15495   */\n      sub\n        /* \"#utility.yul\":15470:15472   */\n      0x40\n        /* \"#utility.yul\":15459:15468   */\n      dup4\n        /* \"#utility.yul\":15455:15473   */\n      add\n        /* \"#utility.yul\":15448:15496   */\n      mstore\n        /* \"#utility.yul\":15513:15591   */\n      tag_275\n        /* \"#utility.yul\":15586:15590   */\n      dup2\n        /* \"#utility.yul\":15577:15583   */\n      dup5\n        /* \"#utility.yul\":15513:15591   */\n      tag_174\n      jump\t// in\n    tag_275:\n        /* \"#utility.yul\":15505:15591   */\n      swap1\n      pop\n        /* \"#utility.yul\":15638:15647   */\n      dup2\n        /* \"#utility.yul\":15632:15636   */\n      dup2\n        /* \"#utility.yul\":15628:15648   */\n      sub\n        /* \"#utility.yul\":15623:15625   */\n      0x60\n        /* \"#utility.yul\":15612:15621   */\n      dup4\n        /* \"#utility.yul\":15608:15626   */\n      add\n        /* \"#utility.yul\":15601:15649   */\n      mstore\n        /* \"#utility.yul\":15666:15797   */\n      tag_276\n        /* \"#utility.yul\":15792:15796   */\n      dup2\n        /* \"#utility.yul\":15666:15797   */\n      tag_224\n      jump\t// in\n    tag_276:\n        /* \"#utility.yul\":15658:15797   */\n      swap1\n      pop\n        /* \"#utility.yul\":14963:15804   */\n      swap5\n      swap4\n      pop\n      pop\n      pop\n      pop\n      jump\t// out\n        /* \"#utility.yul\":15810:16651   */\n    tag_34:\n        /* \"#utility.yul\":16080:16084   */\n      0x00\n        /* \"#utility.yul\":16118:16121   */\n      0x80\n        /* \"#utility.yul\":16107:16116   */\n      dup3\n        /* \"#utility.yul\":16103:16122   */\n      add\n        /* \"#utility.yul\":16095:16122   */\n      swap1\n      pop\n        /* \"#utility.yul\":16132:16203   */\n      tag_278\n        /* \"#utility.yul\":16200:16201   */\n      0x00\n        /* \"#utility.yul\":16189:16198   */\n      dup4\n        /* \"#utility.yul\":16185:16202   */\n      add\n        /* \"#utility.yul\":16176:16182   */\n      dup7\n        /* \"#utility.yul\":16132:16203   */\n      tag_166\n      jump\t// in\n    tag_278:\n        /* \"#utility.yul\":16213:16285   */\n      tag_279\n        /* \"#utility.yul\":16281:16283   */\n      0x20\n        /* \"#utility.yul\":16270:16279   */\n      dup4\n        /* \"#utility.yul\":16266:16284   */\n      add\n        /* \"#utility.yul\":16257:16263   */\n      dup6\n        /* \"#utility.yul\":16213:16285   */\n      tag_166\n      jump\t// in\n    tag_279:\n        /* \"#utility.yul\":16332:16341   */\n      dup2\n        /* \"#utility.yul\":16326:16330   */\n      dup2\n        /* \"#utility.yul\":16322:16342   */\n      sub\n        /* \"#utility.yul\":16317:16319   */\n      0x40\n        /* \"#utility.yul\":16306:16315   */\n      dup4\n        /* \"#utility.yul\":16302:16320   */\n      add\n        /* \"#utility.yul\":16295:16343   */\n      mstore\n        /* \"#utility.yul\":16360:16438   */\n      tag_280\n        /* \"#utility.yul\":16433:16437   */\n      dup2\n        /* \"#utility.yul\":16424:16430   */\n      dup5\n        /* \"#utility.yul\":16360:16438   */\n      tag_174\n      jump\t// in\n    tag_280:\n        /* \"#utility.yul\":16352:16438   */\n      swap1\n      pop\n        /* \"#utility.yul\":16485:16494   */\n      dup2\n        /* \"#utility.yul\":16479:16483   */\n      dup2\n        /* \"#utility.yul\":16475:16495   */\n      sub\n        /* \"#utility.yul\":16470:16472   */\n      0x60\n        /* \"#utility.yul\":16459:16468   */\n      dup4\n        /* \"#utility.yul\":16455:16473   */\n      add\n        /* \"#utility.yul\":16448:16496   */\n      mstore\n        /* \"#utility.yul\":16513:16644   */\n      tag_281\n        /* \"#utility.yul\":16639:16643   */\n      dup2\n        /* \"#utility.yul\":16513:16644   */\n      tag_229\n      jump\t// in\n    tag_281:\n        /* \"#utility.yul\":16505:16644   */\n      swap1\n      pop\n        /* \"#utility.yul\":15810:16651   */\n      swap5\n      swap4\n      pop\n      pop\n      pop\n      pop\n      jump\t// out\n        /* \"#utility.yul\":16657:16867   */\n    tag_11:\n        /* \"#utility.yul\":16744:16748   */\n      0x00\n        /* \"#utility.yul\":16782:16784   */\n      0x20\n        /* \"#utility.yul\":16771:16780   */\n      dup3\n        /* \"#utility.yul\":16767:16785   */\n      add\n        /* \"#utility.yul\":16759:16785   */\n      swap1\n      pop\n        /* \"#utility.yul\":16795:16860   */\n      tag_283\n        /* \"#utility.yul\":16857:16858   */\n      0x00\n        /* \"#utility.yul\":16846:16855   */\n      dup4\n        /* \"#utility.yul\":16842:16859   */\n      add\n        /* \"#utility.yul\":16833:16839   */\n      dup5\n        /* \"#utility.yul\":16795:16860   */\n      tag_170\n      jump\t// in\n    tag_283:\n        /* \"#utility.yul\":16657:16867   */\n      swap3\n      swap2\n      pop\n      pop\n      jump\t// out\n        /* \"#utility.yul\":16873:17095   */\n    tag_15:\n        /* \"#utility.yul\":16966:16970   */\n      0x00\n        /* \"#utility.yul\":17004:17006   */\n      0x20\n        /* \"#utility.yul\":16993:17002   */\n      dup3\n        /* \"#utility.yul\":16989:17007   */\n      add\n        /* \"#utility.yul\":16981:17007   */\n      swap1\n      pop\n        /* \"#utility.yul\":17017:17088   */\n      tag_285\n        /* \"#utility.yul\":17085:17086   */\n      0x00\n        /* \"#utility.yul\":17074:17083   */\n      dup4\n        /* \"#utility.yul\":17070:17087   */\n      add\n        /* \"#utility.yul\":17061:17067   */\n      dup5\n        /* \"#utility.yul\":17017:17088   */\n      tag_239\n      jump\t// in\n    tag_285:\n        /* \"#utility.yul\":16873:17095   */\n      swap3\n      swap2\n      pop\n      pop\n      jump\t// out\n        /* \"#utility.yul\":17101:17230   */\n    tag_95:\n        /* \"#utility.yul\":17135:17141   */\n      0x00\n        /* \"#utility.yul\":17162:17182   */\n      tag_287\n      tag_288\n      jump\t// in\n    tag_287:\n        /* \"#utility.yul\":17152:17182   */\n      swap1\n      pop\n        /* \"#utility.yul\":17191:17224   */\n      tag_289\n        /* \"#utility.yul\":17219:17223   */\n      dup3\n        /* \"#utility.yul\":17211:17217   */\n      dup3\n        /* \"#utility.yul\":17191:17224   */\n      tag_290\n      jump\t// in\n    tag_289:\n        /* \"#utility.yul\":17101:17230   */\n      swap2\n      swap1\n      pop\n      jump\t// out\n        /* \"#utility.yul\":17236:17311   */\n    tag_288:\n        /* \"#utility.yul\":17269:17275   */\n      0x00\n        /* \"#utility.yul\":17302:17304   */\n      0x40\n        /* \"#utility.yul\":17296:17305   */\n      mload\n        /* \"#utility.yul\":17286:17305   */\n      swap1\n      pop\n        /* \"#utility.yul\":17236:17311   */\n      swap1\n      jump\t// out\n        /* \"#utility.yul\":17317:17625   */\n    tag_94:\n        /* \"#utility.yul\":17379:17383   */\n      0x00\n        /* \"#utility.yul\":17469:17487   */\n      0xffffffffffffffff\n        /* \"#utility.yul\":17461:17467   */\n      dup3\n        /* \"#utility.yul\":17458:17488   */\n      gt\n        /* \"#utility.yul\":17455:17511   */\n      iszero\n      tag_293\n      jumpi\n        /* \"#utility.yul\":17491:17509   */\n      tag_294\n      tag_295\n      jump\t// in\n    tag_294:\n        /* \"#utility.yul\":17455:17511   */\n    tag_293:\n        /* \"#utility.yul\":17529:17558   */\n      tag_296\n        /* \"#utility.yul\":17551:17557   */\n      dup3\n        /* \"#utility.yul\":17529:17558   */\n      tag_182\n      jump\t// in\n    tag_296:\n        /* \"#utility.yul\":17521:17558   */\n      swap1\n      pop\n        /* \"#utility.yul\":17613:17617   */\n      0x20\n        /* \"#utility.yul\":17607:17611   */\n      dup2\n        /* \"#utility.yul\":17603:17618   */\n      add\n        /* \"#utility.yul\":17595:17618   */\n      swap1\n      pop\n        /* \"#utility.yul\":17317:17625   */\n      swap2\n      swap1\n      pop\n      jump\t// out\n        /* \"#utility.yul\":17631:17730   */\n    tag_177:\n        /* \"#utility.yul\":17683:17689   */\n      0x00\n        /* \"#utility.yul\":17717:17722   */\n      dup2\n        /* \"#utility.yul\":17711:17723   */\n      mload\n        /* \"#utility.yul\":17701:17723   */\n      swap1\n      pop\n        /* \"#utility.yul\":17631:17730   */\n      swap2\n      swap1\n      pop\n      jump\t// out\n        /* \"#utility.yul\":17736:17905   */\n    tag_179:\n        /* \"#utility.yul\":17820:17831   */\n      0x00\n        /* \"#utility.yul\":17854:17860   */\n      dup3\n        /* \"#utility.yul\":17849:17852   */\n      dup3\n        /* \"#utility.yul\":17842:17861   */\n      mstore\n        /* \"#utility.yul\":17894:17898   */\n      0x20\n        /* \"#utility.yul\":17889:17892   */\n      dup3\n        /* \"#utility.yul\":17885:17899   */\n      add\n        /* \"#utility.yul\":17870:17899   */\n      swap1\n      pop\n        /* \"#utility.yul\":17736:17905   */\n      swap3\n      swap2\n      pop\n      pop\n      jump\t// out\n        /* \"#utility.yul\":17911:18059   */\n    tag_187:\n        /* \"#utility.yul\":18013:18024   */\n      0x00\n        /* \"#utility.yul\":18050:18053   */\n      dup2\n        /* \"#utility.yul\":18035:18053   */\n      swap1\n      pop\n        /* \"#utility.yul\":17911:18059   */\n      swap3\n      swap2\n      pop\n      pop\n      jump\t// out\n        /* \"#utility.yul\":18065:18256   */\n    tag_83:\n        /* \"#utility.yul\":18105:18109   */\n      0x00\n        /* \"#utility.yul\":18125:18145   */\n      tag_301\n        /* \"#utility.yul\":18143:18144   */\n      dup3\n        /* \"#utility.yul\":18125:18145   */\n      tag_242\n      jump\t// in\n    tag_301:\n        /* \"#utility.yul\":18120:18145   */\n      swap2\n      pop\n        /* \"#utility.yul\":18159:18179   */\n      tag_302\n        /* \"#utility.yul\":18177:18178   */\n      dup4\n        /* \"#utility.yul\":18159:18179   */\n      tag_242\n      jump\t// in\n    tag_302:\n        /* \"#utility.yul\":18154:18179   */\n      swap3\n      pop\n        /* \"#utility.yul\":18198:18199   */\n      dup3\n        /* \"#utility.yul\":18195:18196   */\n      dup3\n        /* \"#utility.yul\":18192:18200   */\n      lt\n        /* \"#utility.yul\":18189:18223   */\n      iszero\n      tag_303\n      jumpi\n        /* \"#utility.yul\":18203:18221   */\n      tag_304\n      tag_305\n      jump\t// in\n    tag_304:\n        /* \"#utility.yul\":18189:18223   */\n    tag_303:\n        /* \"#utility.yul\":18248:18249   */\n      dup3\n        /* \"#utility.yul\":18245:18246   */\n      dup3\n        /* \"#utility.yul\":18241:18250   */\n      sub\n        /* \"#utility.yul\":18233:18250   */\n      swap1\n      pop\n        /* \"#utility.yul\":18065:18256   */\n      swap3\n      swap2\n      pop\n      pop\n      jump\t// out\n        /* \"#utility.yul\":18262:18358   */\n    tag_169:\n        /* \"#utility.yul\":18299:18306   */\n      0x00\n        /* \"#utility.yul\":18328:18352   */\n      tag_307\n        /* \"#utility.yul\":18346:18351   */\n      dup3\n        /* \"#utility.yul\":18328:18352   */\n      tag_308\n      jump\t// in\n    tag_307:\n        /* \"#utility.yul\":18317:18352   */\n      swap1\n      pop\n        /* \"#utility.yul\":18262:18358   */\n      swap2\n      swap1\n      pop\n      jump\t// out\n        /* \"#utility.yul\":18364:18454   */\n    tag_173:\n        /* \"#utility.yul\":18398:18405   */\n      0x00\n        /* \"#utility.yul\":18441:18446   */\n      dup2\n        /* \"#utility.yul\":18434:18447   */\n      iszero\n        /* \"#utility.yul\":18427:18448   */\n      iszero\n        /* \"#utility.yul\":18416:18448   */\n      swap1\n      pop\n        /* \"#utility.yul\":18364:18454   */\n      swap2\n      swap1\n      pop\n      jump\t// out\n        /* \"#utility.yul\":18460:18586   */\n    tag_308:\n        /* \"#utility.yul\":18497:18504   */\n      0x00\n        /* \"#utility.yul\":18537:18579   */\n      0xffffffffffffffffffffffffffffffffffffffff\n        /* \"#utility.yul\":18530:18535   */\n      dup3\n        /* \"#utility.yul\":18526:18580   */\n      and\n        /* \"#utility.yul\":18515:18580   */\n      swap1\n      pop\n        /* \"#utility.yul\":18460:18586   */\n      swap2\n      swap1\n      pop\n      jump\t// out\n        /* \"#utility.yul\":18592:18669   */\n    tag_242:\n        /* \"#utility.yul\":18629:18636   */\n      0x00\n        /* \"#utility.yul\":18658:18663   */\n      dup2\n        /* \"#utility.yul\":18647:18663   */\n      swap1\n      pop\n        /* \"#utility.yul\":18592:18669   */\n      swap2\n      swap1\n      pop\n      jump\t// out\n        /* \"#utility.yul\":18675:18829   */\n    tag_100:\n        /* \"#utility.yul\":18759:18765   */\n      dup3\n        /* \"#utility.yul\":18754:18757   */\n      dup2\n        /* \"#utility.yul\":18749:18752   */\n      dup4\n        /* \"#utility.yul\":18736:18766   */\n      calldatacopy\n        /* \"#utility.yul\":18821:18822   */\n      0x00\n        /* \"#utility.yul\":18812:18818   */\n      dup4\n        /* \"#utility.yul\":18807:18810   */\n      dup4\n        /* \"#utility.yul\":18803:18819   */\n      add\n        /* \"#utility.yul\":18796:18823   */\n      mstore\n        /* \"#utility.yul\":18675:18829   */\n      pop\n      pop\n      pop\n      jump\t// out\n        /* \"#utility.yul\":18835:19142   */\n    tag_108:\n        /* \"#utility.yul\":18903:18904   */\n      0x00\n        /* \"#utility.yul\":18913:19026   */\n    tag_314:\n        /* \"#utility.yul\":18927:18933   */\n      dup4\n        /* \"#utility.yul\":18924:18925   */\n      dup2\n        /* \"#utility.yul\":18921:18934   */\n      lt\n        /* \"#utility.yul\":18913:19026   */\n      iszero\n      tag_316\n      jumpi\n        /* \"#utility.yul\":19012:19013   */\n      dup1\n        /* \"#utility.yul\":19007:19010   */\n      dup3\n        /* \"#utility.yul\":19003:19014   */\n      add\n        /* \"#utility.yul\":18997:19015   */\n      mload\n        /* \"#utility.yul\":18993:18994   */\n      dup2\n        /* \"#utility.yul\":18988:18991   */\n      dup5\n        /* \"#utility.yul\":18984:18995   */\n      add\n        /* \"#utility.yul\":18977:19016   */\n      mstore\n        /* \"#utility.yul\":18949:18951   */\n      0x20\n        /* \"#utility.yul\":18946:18947   */\n      dup2\n        /* \"#utility.yul\":18942:18952   */\n      add\n        /* \"#utility.yul\":18937:18952   */\n      swap1\n      pop\n        /* \"#utility.yul\":18913:19026   */\n      jump(tag_314)\n    tag_316:\n        /* \"#utility.yul\":19044:19050   */\n      dup4\n        /* \"#utility.yul\":19041:19042   */\n      dup2\n        /* \"#utility.yul\":19038:19051   */\n      gt\n        /* \"#utility.yul\":19035:19136   */\n      iszero\n      tag_317\n      jumpi\n        /* \"#utility.yul\":19124:19125   */\n      0x00\n        /* \"#utility.yul\":19115:19121   */\n      dup5\n        /* \"#utility.yul\":19110:19113   */\n      dup5\n        /* \"#utility.yul\":19106:19122   */\n      add\n        /* \"#utility.yul\":19099:19126   */\n      mstore\n        /* \"#utility.yul\":19035:19136   */\n    tag_317:\n        /* \"#utility.yul\":18884:19142   */\n      pop\n        /* \"#utility.yul\":18835:19142   */\n      pop\n      pop\n      pop\n      jump\t// out\n        /* \"#utility.yul\":19148:19429   */\n    tag_290:\n        /* \"#utility.yul\":19231:19258   */\n      tag_319\n        /* \"#utility.yul\":19253:19257   */\n      dup3\n        /* \"#utility.yul\":19231:19258   */\n      tag_182\n      jump\t// in\n    tag_319:\n        /* \"#utility.yul\":19223:19229   */\n      dup2\n        /* \"#utility.yul\":19219:19259   */\n      add\n        /* \"#utility.yul\":19361:19367   */\n      dup2\n        /* \"#utility.yul\":19349:19359   */\n      dup2\n        /* \"#utility.yul\":19346:19368   */\n      lt\n        /* \"#utility.yul\":19325:19343   */\n      0xffffffffffffffff\n        /* \"#utility.yul\":19313:19323   */\n      dup3\n        /* \"#utility.yul\":19310:19344   */\n      gt\n        /* \"#utility.yul\":19307:19369   */\n      or\n        /* \"#utility.yul\":19304:19392   */\n      iszero\n      tag_320\n      jumpi\n        /* \"#utility.yul\":19372:19390   */\n      tag_321\n      tag_295\n      jump\t// in\n    tag_321:\n        /* \"#utility.yul\":19304:19392   */\n    tag_320:\n        /* \"#utility.yul\":19412:19422   */\n      dup1\n        /* \"#utility.yul\":19408:19410   */\n      0x40\n        /* \"#utility.yul\":19401:19423   */\n      mstore\n        /* \"#utility.yul\":19191:19429   */\n      pop\n        /* \"#utility.yul\":19148:19429   */\n      pop\n      pop\n      jump\t// out\n        /* \"#utility.yul\":19435:19615   */\n    tag_305:\n        /* \"#utility.yul\":19483:19560   */\n      0x4e487b7100000000000000000000000000000000000000000000000000000000\n        /* \"#utility.yul\":19480:19481   */\n      0x00\n        /* \"#utility.yul\":19473:19561   */\n      mstore\n        /* \"#utility.yul\":19580:19584   */\n      0x11\n        /* \"#utility.yul\":19577:19578   */\n      0x04\n        /* \"#utility.yul\":19570:19585   */\n      mstore\n        /* \"#utility.yul\":19604:19608   */\n      0x24\n        /* \"#utility.yul\":19601:19602   */\n      0x00\n        /* \"#utility.yul\":19594:19609   */\n      revert\n        /* \"#utility.yul\":19621:19801   */\n    tag_295:\n        /* \"#utility.yul\":19669:19746   */\n      0x4e487b7100000000000000000000000000000000000000000000000000000000\n        /* \"#utility.yul\":19666:19667   */\n      0x00\n        /* \"#utility.yul\":19659:19747   */\n      mstore\n        /* \"#utility.yul\":19766:19770   */\n      0x41\n        /* \"#utility.yul\":19763:19764   */\n      0x04\n        /* \"#utility.yul\":19756:19771   */\n      mstore\n        /* \"#utility.yul\":19790:19794   */\n      0x24\n        /* \"#utility.yul\":19787:19788   */\n      0x00\n        /* \"#utility.yul\":19780:19795   */\n      revert\n        /* \"#utility.yul\":19807:19924   */\n    tag_121:\n        /* \"#utility.yul\":19916:19917   */\n      0x00\n        /* \"#utility.yul\":19913:19914   */\n      dup1\n        /* \"#utility.yul\":19906:19918   */\n      revert\n        /* \"#utility.yul\":19930:20047   */\n    tag_98:\n        /* \"#utility.yul\":20039:20040   */\n      0x00\n        /* \"#utility.yul\":20036:20037   */\n      dup1\n        /* \"#utility.yul\":20029:20041   */\n      revert\n        /* \"#utility.yul\":20053:20170   */\n    tag_144:\n        /* \"#utility.yul\":20162:20163   */\n      0x00\n        /* \"#utility.yul\":20159:20160   */\n      dup1\n        /* \"#utility.yul\":20152:20164   */\n      revert\n        /* \"#utility.yul\":20176:20293   */\n    tag_135:\n        /* \"#utility.yul\":20285:20286   */\n      0x00\n        /* \"#utility.yul\":20282:20283   */\n      dup1\n        /* \"#utility.yul\":20275:20287   */\n      revert\n        /* \"#utility.yul\":20299:20401   */\n    tag_182:\n        /* \"#utility.yul\":20340:20346   */\n      0x00\n        /* \"#utility.yul\":20391:20393   */\n      0x1f\n        /* \"#utility.yul\":20387:20394   */\n      not\n        /* \"#utility.yul\":20382:20384   */\n      0x1f\n        /* \"#utility.yul\":20375:20380   */\n      dup4\n        /* \"#utility.yul\":20371:20385   */\n      add\n        /* \"#utility.yul\":20367:20395   */\n      and\n        /* \"#utility.yul\":20357:20395   */\n      swap1\n      pop\n        /* \"#utility.yul\":20299:20401   */\n      swap2\n      swap1\n      pop\n      jump\t// out\n        /* \"#utility.yul\":20407:20562   */\n    tag_193:\n        /* \"#utility.yul\":20547:20554   */\n      0x636c6f7365000000000000000000000000000000000000000000000000000000\n        /* \"#utility.yul\":20543:20544   */\n      0x00\n        /* \"#utility.yul\":20535:20541   */\n      dup3\n        /* \"#utility.yul\":20531:20545   */\n      add\n        /* \"#utility.yul\":20524:20555   */\n      mstore\n        /* \"#utility.yul\":20407:20562   */\n      pop\n      jump\t// out\n        /* \"#utility.yul\":20568:20725   */\n    tag_198:\n        /* \"#utility.yul\":20708:20717   */\n      0x322e322e322e3200000000000000000000000000000000000000000000000000\n        /* \"#utility.yul\":20704:20705   */\n      0x00\n        /* \"#utility.yul\":20696:20702   */\n      dup3\n        /* \"#utility.yul\":20692:20706   */\n      add\n        /* \"#utility.yul\":20685:20718   */\n      mstore\n        /* \"#utility.yul\":20568:20725   */\n      pop\n      jump\t// out\n        /* \"#utility.yul\":20731:20893   */\n    tag_203:\n        /* \"#utility.yul\":20871:20885   */\n      0x4163636573732070617373210000000000000000000000000000000000000000\n        /* \"#utility.yul\":20867:20868   */\n      0x00\n        /* \"#utility.yul\":20859:20865   */\n      dup3\n        /* \"#utility.yul\":20855:20869   */\n      add\n        /* \"#utility.yul\":20848:20886   */\n      mstore\n        /* \"#utility.yul\":20731:20893   */\n      pop\n      jump\t// out\n        /* \"#utility.yul\":20899:21056   */\n    tag_208:\n        /* \"#utility.yul\":21039:21048   */\n      0x7265737461727400000000000000000000000000000000000000000000000000\n        /* \"#utility.yul\":21035:21036   */\n      0x00\n        /* \"#utility.yul\":21027:21033   */\n      dup3\n        /* \"#utility.yul\":21023:21037   */\n      add\n        /* \"#utility.yul\":21016:21049   */\n      mstore\n        /* \"#utility.yul\":20899:21056   */\n      pop\n      jump\t// out\n        /* \"#utility.yul\":21062:21231   */\n    tag_213:\n        /* \"#utility.yul\":21202:21223   */\n      0x496c6c6567616c20495020616464726573732100000000000000000000000000\n        /* \"#utility.yul\":21198:21199   */\n      0x00\n        /* \"#utility.yul\":21190:21196   */\n      dup3\n        /* \"#utility.yul\":21186:21200   */\n      add\n        /* \"#utility.yul\":21179:21224   */\n      mstore\n        /* \"#utility.yul\":21062:21231   */\n      pop\n      jump\t// out\n        /* \"#utility.yul\":21237:21391   */\n    tag_218:\n        /* \"#utility.yul\":21377:21383   */\n      0x6b696c6c00000000000000000000000000000000000000000000000000000000\n        /* \"#utility.yul\":21373:21374   */\n      0x00\n        /* \"#utility.yul\":21365:21371   */\n      dup3\n        /* \"#utility.yul\":21361:21375   */\n      add\n        /* \"#utility.yul\":21354:21384   */\n      mstore\n        /* \"#utility.yul\":21237:21391   */\n      pop\n      jump\t// out\n        /* \"#utility.yul\":21397:21551   */\n    tag_223:\n        /* \"#utility.yul\":21537:21543   */\n      0x6f70656e00000000000000000000000000000000000000000000000000000000\n        /* \"#utility.yul\":21533:21534   */\n      0x00\n        /* \"#utility.yul\":21525:21531   */\n      dup3\n        /* \"#utility.yul\":21521:21535   */\n      add\n        /* \"#utility.yul\":21514:21544   */\n      mstore\n        /* \"#utility.yul\":21397:21551   */\n      pop\n      jump\t// out\n        /* \"#utility.yul\":21557:21727   */\n    tag_228:\n        /* \"#utility.yul\":21697:21719   */\n      0x556e617574686f72697a65642061636365737321000000000000000000000000\n        /* \"#utility.yul\":21693:21694   */\n      0x00\n        /* \"#utility.yul\":21685:21691   */\n      dup3\n        /* \"#utility.yul\":21681:21695   */\n      add\n        /* \"#utility.yul\":21674:21720   */\n      mstore\n        /* \"#utility.yul\":21557:21727   */\n      pop\n      jump\t// out\n        /* \"#utility.yul\":21733:21915   */\n    tag_233:\n        /* \"#utility.yul\":21873:21907   */\n      0x5374696c6c20626c6f636b65642c20756e61626c6520746f2061636365737321\n        /* \"#utility.yul\":21869:21870   */\n      0x00\n        /* \"#utility.yul\":21861:21867   */\n      dup3\n        /* \"#utility.yul\":21857:21871   */\n      add\n        /* \"#utility.yul\":21850:21908   */\n      mstore\n        /* \"#utility.yul\":21733:21915   */\n      pop\n      jump\t// out\n        /* \"#utility.yul\":21921:22075   */\n    tag_238:\n        /* \"#utility.yul\":22061:22067   */\n      0x7265616400000000000000000000000000000000000000000000000000000000\n        /* \"#utility.yul\":22057:22058   */\n      0x00\n        /* \"#utility.yul\":22049:22055   */\n      dup3\n        /* \"#utility.yul\":22045:22059   */\n      add\n        /* \"#utility.yul\":22038:22068   */\n      mstore\n        /* \"#utility.yul\":21921:22075   */\n      pop\n      jump\t// out\n        /* \"#utility.yul\":22081:22203   */\n    tag_112:\n        /* \"#utility.yul\":22154:22178   */\n      tag_340\n        /* \"#utility.yul\":22172:22177   */\n      dup2\n        /* \"#utility.yul\":22154:22178   */\n      tag_169\n      jump\t// in\n    tag_340:\n        /* \"#utility.yul\":22147:22152   */\n      dup2\n        /* \"#utility.yul\":22144:22179   */\n      eq\n        /* \"#utility.yul\":22134:22197   */\n      tag_341\n      jumpi\n        /* \"#utility.yul\":22193:22194   */\n      0x00\n        /* \"#utility.yul\":22190:22191   */\n      dup1\n        /* \"#utility.yul\":22183:22195   */\n      revert\n        /* \"#utility.yul\":22134:22197   */\n    tag_341:\n        /* \"#utility.yul\":22081:22203   */\n      pop\n      jump\t// out\n        /* \"#utility.yul\":22209:22325   */\n    tag_116:\n        /* \"#utility.yul\":22279:22300   */\n      tag_343\n        /* \"#utility.yul\":22294:22299   */\n      dup2\n        /* \"#utility.yul\":22279:22300   */\n      tag_173\n      jump\t// in\n    tag_343:\n        /* \"#utility.yul\":22272:22277   */\n      dup2\n        /* \"#utility.yul\":22269:22301   */\n      eq\n        /* \"#utility.yul\":22259:22319   */\n      tag_344\n      jumpi\n        /* \"#utility.yul\":22315:22316   */\n      0x00\n        /* \"#utility.yul\":22312:22313   */\n      dup1\n        /* \"#utility.yul\":22305:22317   */\n      revert\n        /* \"#utility.yul\":22259:22319   */\n    tag_344:\n        /* \"#utility.yul\":22209:22325   */\n      pop\n      jump\t// out\n        /* \"#utility.yul\":22331:22453   */\n    tag_131:\n        /* \"#utility.yul\":22404:22428   */\n      tag_346\n        /* \"#utility.yul\":22422:22427   */\n      dup2\n        /* \"#utility.yul\":22404:22428   */\n      tag_242\n      jump\t// in\n    tag_346:\n        /* \"#utility.yul\":22397:22402   */\n      dup2\n        /* \"#utility.yul\":22394:22429   */\n      eq\n        /* \"#utility.yul\":22384:22447   */\n      tag_347\n      jumpi\n        /* \"#utility.yul\":22443:22444   */\n      0x00\n        /* \"#utility.yul\":22440:22441   */\n      dup1\n        /* \"#utility.yul\":22433:22445   */\n      revert\n        /* \"#utility.yul\":22384:22447   */\n    tag_347:\n        /* \"#utility.yul\":22331:22453   */\n      pop\n      jump\t// out\n\n    auxdata: 0xa2646970667358221220dfb6e43330f8090b70657a4a3c592394437f92b35e66051f40e74ade7a61ff8664736f6c63430008070033\n}\n",
				"bytecode": {
					"linkReferences": {},
					"object": "608060405234801561001057600080fd5b50611383806100206000396000f3fe608060405234801561001057600080fd5b50600436106100415760003560e01c806332076e7714610046578063c0821da314610076578063f09a401614610094575b600080fd5b610060600480360381019061005b91906109da565b6100b0565b60405161006d9190610f49565b60405180910390f35b61007e610522565b60405161008b9190610f64565b60405180910390f35b6100ae60048036038101906100a9919061099a565b61052a565b005b60006100ba61068c565b600080600160009054906101000a900473ffffffffffffffffffffffffffffffffffffffff1673ffffffffffffffffffffffffffffffffffffffff1663169c9de0336040518263ffffffff1660e01b81526004016101189190610dc1565b604080518083038186803b15801561012f57600080fd5b505afa158015610143573d6000803e3d6000fd5b505050506040513d601f19601f820116820180604052508101906101679190610af7565b80935081925050506000610179610522565b90508181111580156101885750825b156101d4577f4393de65ee68a32d7987583b1f2c6e6aa80df7d9ad5c0661660d70dff18b9d6d3387876040516101c093929190610ef8565b60405180910390a16000935050505061051c565b600160009054906101000a900473ffffffffffffffffffffffffffffffffffffffff1673ffffffffffffffffffffffffffffffffffffffff166339d319e5336040518263ffffffff1660e01b815260040161022f9190610dc1565b600060405180830381600087803b15801561024957600080fd5b505af115801561025d573d6000803e3d6000fd5b5050505060008060009054906101000a900473ffffffffffffffffffffffffffffffffffffffff1673ffffffffffffffffffffffffffffffffffffffff16638749774f33896040518363ffffffff1660e01b81526004016102bf929190610ddc565b60006040518083038186803b1580156102d757600080fd5b505afa1580156102eb573d6000803e3d6000fd5b505050506040513d6000823e3d601f19601f820116820180604052508101906103149190610a36565b90506002816040516103269190610d2c565b9081526020016040518091039020546002876040516103459190610d2c565b90815260200160405180910390205412156103a2577f4393de65ee68a32d7987583b1f2c6e6aa80df7d9ad5c0661660d70dff18b9d6d33888860405161038d93929190610ea7565b60405180910390a1600094505050505061051c565b60608060008054906101000a900473ffffffffffffffffffffffffffffffffffffffff1673ffffffffffffffffffffffffffffffffffffffff16639f764d16336040518263ffffffff1660e01b81526004016103fe9190610dc1565b60006040518083038186803b15801561041657600080fd5b505afa15801561042a573d6000803e3d6000fd5b505050506040513d6000823e3d601f19601f820116820180604052508101906104539190610a7f565b809250819350505060038160405161046b9190610d2c565b908152602001604051809103902060009054906101000a900460ff16156104d6577f4393de65ee68a32d7987583b1f2c6e6aa80df7d9ad5c0661660d70dff18b9d6d338a8a6040516104bf93929190610e56565b60405180910390a16000965050505050505061051c565b7f4393de65ee68a32d7987583b1f2c6e6aa80df7d9ad5c0661660d70dff18b9d6d338a8a60405161050993929190610e05565b60405180910390a1600196505050505050505b92915050565b600042905090565b816000806101000a81548173ffffffffffffffffffffffffffffffffffffffff021916908373ffffffffffffffffffffffffffffffffffffffff16021790555080600160006101000a81548173ffffffffffffffffffffffffffffffffffffffff021916908373ffffffffffffffffffffffffffffffffffffffff160217905550600160026040516105bb90610dac565b9081526020016040518091039020819055506002806040516105dc90610d97565b9081526020016040518091039020819055506002806040516105fd90610d43565b9081526020016040518091039020819055506003600260405161061f90610d6d565b9081526020016040518091039020819055506003600260405161064190610d82565b9081526020016040518091039020819055506001600360405161066390610d58565b908152602001604051809103902060006101000a81548160ff0219169083151502179055505050565b60001515600460003373ffffffffffffffffffffffffffffffffffffffff1673ffffffffffffffffffffffffffffffffffffffff16815260200190815260200160002060000160009054906101000a900460ff161515141561078f576001600460003373ffffffffffffffffffffffffffffffffffffffff1673ffffffffffffffffffffffffffffffffffffffff16815260200190815260200160002060000160006101000a81548160ff02191690831515021790555042600460003373ffffffffffffffffffffffffffffffffffffffff1673ffffffffffffffffffffffffffffffffffffffff16815260200190815260200160002060010181905550610879565b6000600460003373ffffffffffffffffffffffffffffffffffffffff1673ffffffffffffffffffffffffffffffffffffffff16815260200190815260200160002060010154426107df9190610ffc565b90506003811161087757600160009054906101000a900473ffffffffffffffffffffffffffffffffffffffff1673ffffffffffffffffffffffffffffffffffffffff166372700241336040518263ffffffff1660e01b81526004016108449190610dc1565b600060405180830381600087803b15801561085e57600080fd5b505af1158015610872573d6000803e3d6000fd5b505050505b505b565b600061088e61088984610fa4565b610f7f565b9050828152602081018484840111156108aa576108a961114e565b5b6108b5848285611078565b509392505050565b60006108d06108cb84610fa4565b610f7f565b9050828152602081018484840111156108ec576108eb61114e565b5b6108f7848285611087565b509392505050565b60008135905061090e81611308565b92915050565b6000815190506109238161131f565b92915050565b600082601f83011261093e5761093d611149565b5b813561094e84826020860161087b565b91505092915050565b600082601f83011261096c5761096b611149565b5b815161097c8482602086016108bd565b91505092915050565b60008151905061099481611336565b92915050565b600080604083850312156109b1576109b0611158565b5b60006109bf858286016108ff565b92505060206109d0858286016108ff565b9150509250929050565b600080604083850312156109f1576109f0611158565b5b60006109ff858286016108ff565b925050602083013567ffffffffffffffff811115610a2057610a1f611153565b5b610a2c85828601610929565b9150509250929050565b600060208284031215610a4c57610a4b611158565b5b600082015167ffffffffffffffff811115610a6a57610a69611153565b5b610a7684828501610957565b91505092915050565b60008060408385031215610a9657610a95611158565b5b600083015167ffffffffffffffff811115610ab457610ab3611153565b5b610ac085828601610957565b925050602083015167ffffffffffffffff811115610ae157610ae0611153565b5b610aed85828601610957565b9150509250929050565b60008060408385031215610b0e57610b0d611158565b5b6000610b1c85828601610985565b9250506020610b2d85828601610914565b9150509250929050565b610b4081611030565b82525050565b610b4f81611042565b82525050565b6000610b6082610fd5565b610b6a8185610fe0565b9350610b7a818560208601611087565b610b838161115d565b840191505092915050565b6000610b9982610fd5565b610ba38185610ff1565b9350610bb3818560208601611087565b80840191505092915050565b6000610bcc600583610ff1565b9150610bd78261116e565b600582019050919050565b6000610bef600783610ff1565b9150610bfa82611197565b600782019050919050565b6000610c12600c83610fe0565b9150610c1d826111c0565b602082019050919050565b6000610c35600783610ff1565b9150610c40826111e9565b600782019050919050565b6000610c58601383610fe0565b9150610c6382611212565b602082019050919050565b6000610c7b600483610ff1565b9150610c868261123b565b600482019050919050565b6000610c9e600483610ff1565b9150610ca982611264565b600482019050919050565b6000610cc1601483610fe0565b9150610ccc8261128d565b602082019050919050565b6000610ce4602083610fe0565b9150610cef826112b6565b602082019050919050565b6000610d07600483610ff1565b9150610d12826112df565b600482019050919050565b610d268161106e565b82525050565b6000610d388284610b8e565b915081905092915050565b6000610d4e82610bbf565b9150819050919050565b6000610d6382610be2565b9150819050919050565b6000610d7882610c28565b9150819050919050565b6000610d8d82610c6e565b9150819050919050565b6000610da282610c91565b9150819050919050565b6000610db782610cfa565b9150819050919050565b6000602082019050610dd66000830184610b37565b92915050565b6000604082019050610df16000830185610b37565b610dfe6020830184610b37565b9392505050565b6000608082019050610e1a6000830186610b37565b610e276020830185610b37565b8181036040830152610e398184610b55565b90508181036060830152610e4c81610c05565b9050949350505050565b6000608082019050610e6b6000830186610b37565b610e786020830185610b37565b8181036040830152610e8a8184610b55565b90508181036060830152610e9d81610c4b565b9050949350505050565b6000608082019050610ebc6000830186610b37565b610ec96020830185610b37565b8181036040830152610edb8184610b55565b90508181036060830152610eee81610cb4565b9050949350505050565b6000608082019050610f0d6000830186610b37565b610f1a6020830185610b37565b8181036040830152610f2c8184610b55565b90508181036060830152610f3f81610cd7565b9050949350505050565b6000602082019050610f5e6000830184610b46565b92915050565b6000602082019050610f796000830184610d1d565b92915050565b6000610f89610f9a565b9050610f9582826110ba565b919050565b6000604051905090565b600067ffffffffffffffff821115610fbf57610fbe61111a565b5b610fc88261115d565b9050602081019050919050565b600081519050919050565b600082825260208201905092915050565b600081905092915050565b60006110078261106e565b91506110128361106e565b925082821015611025576110246110eb565b5b828203905092915050565b600061103b8261104e565b9050919050565b60008115159050919050565b600073ffffffffffffffffffffffffffffffffffffffff82169050919050565b6000819050919050565b82818337600083830152505050565b60005b838110156110a557808201518184015260208101905061108a565b838111156110b4576000848401525b50505050565b6110c38261115d565b810181811067ffffffffffffffff821117156110e2576110e161111a565b5b80604052505050565b7f4e487b7100000000000000000000000000000000000000000000000000000000600052601160045260246000fd5b7f4e487b7100000000000000000000000000000000000000000000000000000000600052604160045260246000fd5b600080fd5b600080fd5b600080fd5b600080fd5b6000601f19601f8301169050919050565b7f636c6f7365000000000000000000000000000000000000000000000000000000600082015250565b7f322e322e322e3200000000000000000000000000000000000000000000000000600082015250565b7f4163636573732070617373210000000000000000000000000000000000000000600082015250565b7f7265737461727400000000000000000000000000000000000000000000000000600082015250565b7f496c6c6567616c20495020616464726573732100000000000000000000000000600082015250565b7f6b696c6c00000000000000000000000000000000000000000000000000000000600082015250565b7f6f70656e00000000000000000000000000000000000000000000000000000000600082015250565b7f556e617574686f72697a65642061636365737321000000000000000000000000600082015250565b7f5374696c6c20626c6f636b65642c20756e61626c6520746f2061636365737321600082015250565b7f7265616400000000000000000000000000000000000000000000000000000000600082015250565b61131181611030565b811461131c57600080fd5b50565b61132881611042565b811461133357600080fd5b50565b61133f8161106e565b811461134a57600080fd5b5056fea2646970667358221220dfb6e43330f8090b70657a4a3c592394437f92b35e66051f40e74ade7a61ff8664736f6c63430008070033",
					"opcodes": "PUSH1 0x80 PUSH1 0x40 MSTORE CALLVALUE DUP1 ISZERO PUSH2 0x10 JUMPI PUSH1 0x0 DUP1 REVERT JUMPDEST POP PUSH2 0x1383 DUP1 PUSH2 0x20 PUSH1 0x0 CODECOPY PUSH1 0x0 RETURN INVALID PUSH1 0x80 PUSH1 0x40 MSTORE CALLVALUE DUP1 ISZERO PUSH2 0x10 JUMPI PUSH1 0x0 DUP1 REVERT JUMPDEST POP PUSH1 0x4 CALLDATASIZE LT PUSH2 0x41 JUMPI PUSH1 0x0 CALLDATALOAD PUSH1 0xE0 SHR DUP1 PUSH4 0x32076E77 EQ PUSH2 0x46 JUMPI DUP1 PUSH4 0xC0821DA3 EQ PUSH2 0x76 JUMPI DUP1 PUSH4 0xF09A4016 EQ PUSH2 0x94 JUMPI JUMPDEST PUSH1 0x0 DUP1 REVERT JUMPDEST PUSH2 0x60 PUSH1 0x4 DUP1 CALLDATASIZE SUB DUP2 ADD SWAP1 PUSH2 0x5B SWAP2 SWAP1 PUSH2 0x9DA JUMP JUMPDEST PUSH2 0xB0 JUMP JUMPDEST PUSH1 0x40 MLOAD PUSH2 0x6D SWAP2 SWAP1 PUSH2 0xF49 JUMP JUMPDEST PUSH1 0x40 MLOAD DUP1 SWAP2 SUB SWAP1 RETURN JUMPDEST PUSH2 0x7E PUSH2 0x522 JUMP JUMPDEST PUSH1 0x40 MLOAD PUSH2 0x8B SWAP2 SWAP1 PUSH2 0xF64 JUMP JUMPDEST PUSH1 0x40 MLOAD DUP1 SWAP2 SUB SWAP1 RETURN JUMPDEST PUSH2 0xAE PUSH1 0x4 DUP1 CALLDATASIZE SUB DUP2 ADD SWAP1 PUSH2 0xA9 SWAP2 SWAP1 PUSH2 0x99A JUMP JUMPDEST PUSH2 0x52A JUMP JUMPDEST STOP JUMPDEST PUSH1 0x0 PUSH2 0xBA PUSH2 0x68C JUMP JUMPDEST PUSH1 0x0 DUP1 PUSH1 0x1 PUSH1 0x0 SWAP1 SLOAD SWAP1 PUSH2 0x100 EXP SWAP1 DIV PUSH20 0xFFFFFFFFFFFFFFFFFFFFFFFFFFFFFFFFFFFFFFFF AND PUSH20 0xFFFFFFFFFFFFFFFFFFFFFFFFFFFFFFFFFFFFFFFF AND PUSH4 0x169C9DE0 CALLER PUSH1 0x40 MLOAD DUP3 PUSH4 0xFFFFFFFF AND PUSH1 0xE0 SHL DUP2 MSTORE PUSH1 0x4 ADD PUSH2 0x118 SWAP2 SWAP1 PUSH2 0xDC1 JUMP JUMPDEST PUSH1 0x40 DUP1 MLOAD DUP1 DUP4 SUB DUP2 DUP7 DUP1 EXTCODESIZE ISZERO DUP1 ISZERO PUSH2 0x12F JUMPI PUSH1 0x0 DUP1 REVERT JUMPDEST POP GAS STATICCALL ISZERO DUP1 ISZERO PUSH2 0x143 JUMPI RETURNDATASIZE PUSH1 0x0 DUP1 RETURNDATACOPY RETURNDATASIZE PUSH1 0x0 REVERT JUMPDEST POP POP POP POP PUSH1 0x40 MLOAD RETURNDATASIZE PUSH1 0x1F NOT PUSH1 0x1F DUP3 ADD AND DUP3 ADD DUP1 PUSH1 0x40 MSTORE POP DUP2 ADD SWAP1 PUSH2 0x167 SWAP2 SWAP1 PUSH2 0xAF7 JUMP JUMPDEST DUP1 SWAP4 POP DUP2 SWAP3 POP POP POP PUSH1 0x0 PUSH2 0x179 PUSH2 0x522 JUMP JUMPDEST SWAP1 POP DUP2 DUP2 GT ISZERO DUP1 ISZERO PUSH2 0x188 JUMPI POP DUP3 JUMPDEST ISZERO PUSH2 0x1D4 JUMPI PUSH32 0x4393DE65EE68A32D7987583B1F2C6E6AA80DF7D9AD5C0661660D70DFF18B9D6D CALLER DUP8 DUP8 PUSH1 0x40 MLOAD PUSH2 0x1C0 SWAP4 SWAP3 SWAP2 SWAP1 PUSH2 0xEF8 JUMP JUMPDEST PUSH1 0x40 MLOAD DUP1 SWAP2 SUB SWAP1 LOG1 PUSH1 0x0 SWAP4 POP POP POP POP PUSH2 0x51C JUMP JUMPDEST PUSH1 0x1 PUSH1 0x0 SWAP1 SLOAD SWAP1 PUSH2 0x100 EXP SWAP1 DIV PUSH20 0xFFFFFFFFFFFFFFFFFFFFFFFFFFFFFFFFFFFFFFFF AND PUSH20 0xFFFFFFFFFFFFFFFFFFFFFFFFFFFFFFFFFFFFFFFF AND PUSH4 0x39D319E5 CALLER PUSH1 0x40 MLOAD DUP3 PUSH4 0xFFFFFFFF AND PUSH1 0xE0 SHL DUP2 MSTORE PUSH1 0x4 ADD PUSH2 0x22F SWAP2 SWAP1 PUSH2 0xDC1 JUMP JUMPDEST PUSH1 0x0 PUSH1 0x40 MLOAD DUP1 DUP4 SUB DUP2 PUSH1 0x0 DUP8 DUP1 EXTCODESIZE ISZERO DUP1 ISZERO PUSH2 0x249 JUMPI PUSH1 0x0 DUP1 REVERT JUMPDEST POP GAS CALL ISZERO DUP1 ISZERO PUSH2 0x25D JUMPI RETURNDATASIZE PUSH1 0x0 DUP1 RETURNDATACOPY RETURNDATASIZE PUSH1 0x0 REVERT JUMPDEST POP POP POP POP PUSH1 0x0 DUP1 PUSH1 0x0 SWAP1 SLOAD SWAP1 PUSH2 0x100 EXP SWAP1 DIV PUSH20 0xFFFFFFFFFFFFFFFFFFFFFFFFFFFFFFFFFFFFFFFF AND PUSH20 0xFFFFFFFFFFFFFFFFFFFFFFFFFFFFFFFFFFFFFFFF AND PUSH4 0x8749774F CALLER DUP10 PUSH1 0x40 MLOAD DUP4 PUSH4 0xFFFFFFFF AND PUSH1 0xE0 SHL DUP2 MSTORE PUSH1 0x4 ADD PUSH2 0x2BF SWAP3 SWAP2 SWAP1 PUSH2 0xDDC JUMP JUMPDEST PUSH1 0x0 PUSH1 0x40 MLOAD DUP1 DUP4 SUB DUP2 DUP7 DUP1 EXTCODESIZE ISZERO DUP1 ISZERO PUSH2 0x2D7 JUMPI PUSH1 0x0 DUP1 REVERT JUMPDEST POP GAS STATICCALL ISZERO DUP1 ISZERO PUSH2 0x2EB JUMPI RETURNDATASIZE PUSH1 0x0 DUP1 RETURNDATACOPY RETURNDATASIZE PUSH1 0x0 REVERT JUMPDEST POP POP POP POP PUSH1 0x40 MLOAD RETURNDATASIZE PUSH1 0x0 DUP3 RETURNDATACOPY RETURNDATASIZE PUSH1 0x1F NOT PUSH1 0x1F DUP3 ADD AND DUP3 ADD DUP1 PUSH1 0x40 MSTORE POP DUP2 ADD SWAP1 PUSH2 0x314 SWAP2 SWAP1 PUSH2 0xA36 JUMP JUMPDEST SWAP1 POP PUSH1 0x2 DUP2 PUSH1 0x40 MLOAD PUSH2 0x326 SWAP2 SWAP1 PUSH2 0xD2C JUMP JUMPDEST SWAP1 DUP2 MSTORE PUSH1 0x20 ADD PUSH1 0x40 MLOAD DUP1 SWAP2 SUB SWAP1 KECCAK256 SLOAD PUSH1 0x2 DUP8 PUSH1 0x40 MLOAD PUSH2 0x345 SWAP2 SWAP1 PUSH2 0xD2C JUMP JUMPDEST SWAP1 DUP2 MSTORE PUSH1 0x20 ADD PUSH1 0x40 MLOAD DUP1 SWAP2 SUB SWAP1 KECCAK256 SLOAD SLT ISZERO PUSH2 0x3A2 JUMPI PUSH32 0x4393DE65EE68A32D7987583B1F2C6E6AA80DF7D9AD5C0661660D70DFF18B9D6D CALLER DUP9 DUP9 PUSH1 0x40 MLOAD PUSH2 0x38D SWAP4 SWAP3 SWAP2 SWAP1 PUSH2 0xEA7 JUMP JUMPDEST PUSH1 0x40 MLOAD DUP1 SWAP2 SUB SWAP1 LOG1 PUSH1 0x0 SWAP5 POP POP POP POP POP PUSH2 0x51C JUMP JUMPDEST PUSH1 0x60 DUP1 PUSH1 0x0 DUP1 SLOAD SWAP1 PUSH2 0x100 EXP SWAP1 DIV PUSH20 0xFFFFFFFFFFFFFFFFFFFFFFFFFFFFFFFFFFFFFFFF AND PUSH20 0xFFFFFFFFFFFFFFFFFFFFFFFFFFFFFFFFFFFFFFFF AND PUSH4 0x9F764D16 CALLER PUSH1 0x40 MLOAD DUP3 PUSH4 0xFFFFFFFF AND PUSH1 0xE0 SHL DUP2 MSTORE PUSH1 0x4 ADD PUSH2 0x3FE SWAP2 SWAP1 PUSH2 0xDC1 JUMP JUMPDEST PUSH1 0x0 PUSH1 0x40 MLOAD DUP1 DUP4 SUB DUP2 DUP7 DUP1 EXTCODESIZE ISZERO DUP1 ISZERO PUSH2 0x416 JUMPI PUSH1 0x0 DUP1 REVERT JUMPDEST POP GAS STATICCALL ISZERO DUP1 ISZERO PUSH2 0x42A JUMPI RETURNDATASIZE PUSH1 0x0 DUP1 RETURNDATACOPY RETURNDATASIZE PUSH1 0x0 REVERT JUMPDEST POP POP POP POP PUSH1 0x40 MLOAD RETURNDATASIZE PUSH1 0x0 DUP3 RETURNDATACOPY RETURNDATASIZE PUSH1 0x1F NOT PUSH1 0x1F DUP3 ADD AND DUP3 ADD DUP1 PUSH1 0x40 MSTORE POP DUP2 ADD SWAP1 PUSH2 0x453 SWAP2 SWAP1 PUSH2 0xA7F JUMP JUMPDEST DUP1 SWAP3 POP DUP2 SWAP4 POP POP POP PUSH1 0x3 DUP2 PUSH1 0x40 MLOAD PUSH2 0x46B SWAP2 SWAP1 PUSH2 0xD2C JUMP JUMPDEST SWAP1 DUP2 MSTORE PUSH1 0x20 ADD PUSH1 0x40 MLOAD DUP1 SWAP2 SUB SWAP1 KECCAK256 PUSH1 0x0 SWAP1 SLOAD SWAP1 PUSH2 0x100 EXP SWAP1 DIV PUSH1 0xFF AND ISZERO PUSH2 0x4D6 JUMPI PUSH32 0x4393DE65EE68A32D7987583B1F2C6E6AA80DF7D9AD5C0661660D70DFF18B9D6D CALLER DUP11 DUP11 PUSH1 0x40 MLOAD PUSH2 0x4BF SWAP4 SWAP3 SWAP2 SWAP1 PUSH2 0xE56 JUMP JUMPDEST PUSH1 0x40 MLOAD DUP1 SWAP2 SUB SWAP1 LOG1 PUSH1 0x0 SWAP7 POP POP POP POP POP POP POP PUSH2 0x51C JUMP JUMPDEST PUSH32 0x4393DE65EE68A32D7987583B1F2C6E6AA80DF7D9AD5C0661660D70DFF18B9D6D CALLER DUP11 DUP11 PUSH1 0x40 MLOAD PUSH2 0x509 SWAP4 SWAP3 SWAP2 SWAP1 PUSH2 0xE05 JUMP JUMPDEST PUSH1 0x40 MLOAD DUP1 SWAP2 SUB SWAP1 LOG1 PUSH1 0x1 SWAP7 POP POP POP POP POP POP POP JUMPDEST SWAP3 SWAP2 POP POP JUMP JUMPDEST PUSH1 0x0 TIMESTAMP SWAP1 POP SWAP1 JUMP JUMPDEST DUP2 PUSH1 0x0 DUP1 PUSH2 0x100 EXP DUP2 SLOAD DUP2 PUSH20 0xFFFFFFFFFFFFFFFFFFFFFFFFFFFFFFFFFFFFFFFF MUL NOT AND SWAP1 DUP4 PUSH20 0xFFFFFFFFFFFFFFFFFFFFFFFFFFFFFFFFFFFFFFFF AND MUL OR SWAP1 SSTORE POP DUP1 PUSH1 0x1 PUSH1 0x0 PUSH2 0x100 EXP DUP2 SLOAD DUP2 PUSH20 0xFFFFFFFFFFFFFFFFFFFFFFFFFFFFFFFFFFFFFFFF MUL NOT AND SWAP1 DUP4 PUSH20 0xFFFFFFFFFFFFFFFFFFFFFFFFFFFFFFFFFFFFFFFF AND MUL OR SWAP1 SSTORE POP PUSH1 0x1 PUSH1 0x2 PUSH1 0x40 MLOAD PUSH2 0x5BB SWAP1 PUSH2 0xDAC JUMP JUMPDEST SWAP1 DUP2 MSTORE PUSH1 0x20 ADD PUSH1 0x40 MLOAD DUP1 SWAP2 SUB SWAP1 KECCAK256 DUP2 SWAP1 SSTORE POP PUSH1 0x2 DUP1 PUSH1 0x40 MLOAD PUSH2 0x5DC SWAP1 PUSH2 0xD97 JUMP JUMPDEST SWAP1 DUP2 MSTORE PUSH1 0x20 ADD PUSH1 0x40 MLOAD DUP1 SWAP2 SUB SWAP1 KECCAK256 DUP2 SWAP1 SSTORE POP PUSH1 0x2 DUP1 PUSH1 0x40 MLOAD PUSH2 0x5FD SWAP1 PUSH2 0xD43 JUMP JUMPDEST SWAP1 DUP2 MSTORE PUSH1 0x20 ADD PUSH1 0x40 MLOAD DUP1 SWAP2 SUB SWAP1 KECCAK256 DUP2 SWAP1 SSTORE POP PUSH1 0x3 PUSH1 0x2 PUSH1 0x40 MLOAD PUSH2 0x61F SWAP1 PUSH2 0xD6D JUMP JUMPDEST SWAP1 DUP2 MSTORE PUSH1 0x20 ADD PUSH1 0x40 MLOAD DUP1 SWAP2 SUB SWAP1 KECCAK256 DUP2 SWAP1 SSTORE POP PUSH1 0x3 PUSH1 0x2 PUSH1 0x40 MLOAD PUSH2 0x641 SWAP1 PUSH2 0xD82 JUMP JUMPDEST SWAP1 DUP2 MSTORE PUSH1 0x20 ADD PUSH1 0x40 MLOAD DUP1 SWAP2 SUB SWAP1 KECCAK256 DUP2 SWAP1 SSTORE POP PUSH1 0x1 PUSH1 0x3 PUSH1 0x40 MLOAD PUSH2 0x663 SWAP1 PUSH2 0xD58 JUMP JUMPDEST SWAP1 DUP2 MSTORE PUSH1 0x20 ADD PUSH1 0x40 MLOAD DUP1 SWAP2 SUB SWAP1 KECCAK256 PUSH1 0x0 PUSH2 0x100 EXP DUP2 SLOAD DUP2 PUSH1 0xFF MUL NOT AND SWAP1 DUP4 ISZERO ISZERO MUL OR SWAP1 SSTORE POP POP POP JUMP JUMPDEST PUSH1 0x0 ISZERO ISZERO PUSH1 0x4 PUSH1 0x0 CALLER PUSH20 0xFFFFFFFFFFFFFFFFFFFFFFFFFFFFFFFFFFFFFFFF AND PUSH20 0xFFFFFFFFFFFFFFFFFFFFFFFFFFFFFFFFFFFFFFFF AND DUP2 MSTORE PUSH1 0x20 ADD SWAP1 DUP2 MSTORE PUSH1 0x20 ADD PUSH1 0x0 KECCAK256 PUSH1 0x0 ADD PUSH1 0x0 SWAP1 SLOAD SWAP1 PUSH2 0x100 EXP SWAP1 DIV PUSH1 0xFF AND ISZERO ISZERO EQ ISZERO PUSH2 0x78F JUMPI PUSH1 0x1 PUSH1 0x4 PUSH1 0x0 CALLER PUSH20 0xFFFFFFFFFFFFFFFFFFFFFFFFFFFFFFFFFFFFFFFF AND PUSH20 0xFFFFFFFFFFFFFFFFFFFFFFFFFFFFFFFFFFFFFFFF AND DUP2 MSTORE PUSH1 0x20 ADD SWAP1 DUP2 MSTORE PUSH1 0x20 ADD PUSH1 0x0 KECCAK256 PUSH1 0x0 ADD PUSH1 0x0 PUSH2 0x100 EXP DUP2 SLOAD DUP2 PUSH1 0xFF MUL NOT AND SWAP1 DUP4 ISZERO ISZERO MUL OR SWAP1 SSTORE POP TIMESTAMP PUSH1 0x4 PUSH1 0x0 CALLER PUSH20 0xFFFFFFFFFFFFFFFFFFFFFFFFFFFFFFFFFFFFFFFF AND PUSH20 0xFFFFFFFFFFFFFFFFFFFFFFFFFFFFFFFFFFFFFFFF AND DUP2 MSTORE PUSH1 0x20 ADD SWAP1 DUP2 MSTORE PUSH1 0x20 ADD PUSH1 0x0 KECCAK256 PUSH1 0x1 ADD DUP2 SWAP1 SSTORE POP PUSH2 0x879 JUMP JUMPDEST PUSH1 0x0 PUSH1 0x4 PUSH1 0x0 CALLER PUSH20 0xFFFFFFFFFFFFFFFFFFFFFFFFFFFFFFFFFFFFFFFF AND PUSH20 0xFFFFFFFFFFFFFFFFFFFFFFFFFFFFFFFFFFFFFFFF AND DUP2 MSTORE PUSH1 0x20 ADD SWAP1 DUP2 MSTORE PUSH1 0x20 ADD PUSH1 0x0 KECCAK256 PUSH1 0x1 ADD SLOAD TIMESTAMP PUSH2 0x7DF SWAP2 SWAP1 PUSH2 0xFFC JUMP JUMPDEST SWAP1 POP PUSH1 0x3 DUP2 GT PUSH2 0x877 JUMPI PUSH1 0x1 PUSH1 0x0 SWAP1 SLOAD SWAP1 PUSH2 0x100 EXP SWAP1 DIV PUSH20 0xFFFFFFFFFFFFFFFFFFFFFFFFFFFFFFFFFFFFFFFF AND PUSH20 0xFFFFFFFFFFFFFFFFFFFFFFFFFFFFFFFFFFFFFFFF AND PUSH4 0x72700241 CALLER PUSH1 0x40 MLOAD DUP3 PUSH4 0xFFFFFFFF AND PUSH1 0xE0 SHL DUP2 MSTORE PUSH1 0x4 ADD PUSH2 0x844 SWAP2 SWAP1 PUSH2 0xDC1 JUMP JUMPDEST PUSH1 0x0 PUSH1 0x40 MLOAD DUP1 DUP4 SUB DUP2 PUSH1 0x0 DUP8 DUP1 EXTCODESIZE ISZERO DUP1 ISZERO PUSH2 0x85E JUMPI PUSH1 0x0 DUP1 REVERT JUMPDEST POP GAS CALL ISZERO DUP1 ISZERO PUSH2 0x872 JUMPI RETURNDATASIZE PUSH1 0x0 DUP1 RETURNDATACOPY RETURNDATASIZE PUSH1 0x0 REVERT JUMPDEST POP POP POP POP JUMPDEST POP JUMPDEST JUMP JUMPDEST PUSH1 0x0 PUSH2 0x88E PUSH2 0x889 DUP5 PUSH2 0xFA4 JUMP JUMPDEST PUSH2 0xF7F JUMP JUMPDEST SWAP1 POP DUP3 DUP2 MSTORE PUSH1 0x20 DUP2 ADD DUP5 DUP5 DUP5 ADD GT ISZERO PUSH2 0x8AA JUMPI PUSH2 0x8A9 PUSH2 0x114E JUMP JUMPDEST JUMPDEST PUSH2 0x8B5 DUP5 DUP3 DUP6 PUSH2 0x1078 JUMP JUMPDEST POP SWAP4 SWAP3 POP POP POP JUMP JUMPDEST PUSH1 0x0 PUSH2 0x8D0 PUSH2 0x8CB DUP5 PUSH2 0xFA4 JUMP JUMPDEST PUSH2 0xF7F JUMP JUMPDEST SWAP1 POP DUP3 DUP2 MSTORE PUSH1 0x20 DUP2 ADD DUP5 DUP5 DUP5 ADD GT ISZERO PUSH2 0x8EC JUMPI PUSH2 0x8EB PUSH2 0x114E JUMP JUMPDEST JUMPDEST PUSH2 0x8F7 DUP5 DUP3 DUP6 PUSH2 0x1087 JUMP JUMPDEST POP SWAP4 SWAP3 POP POP POP JUMP JUMPDEST PUSH1 0x0 DUP2 CALLDATALOAD SWAP1 POP PUSH2 0x90E DUP2 PUSH2 0x1308 JUMP JUMPDEST SWAP3 SWAP2 POP POP JUMP JUMPDEST PUSH1 0x0 DUP2 MLOAD SWAP1 POP PUSH2 0x923 DUP2 PUSH2 0x131F JUMP JUMPDEST SWAP3 SWAP2 POP POP JUMP JUMPDEST PUSH1 0x0 DUP3 PUSH1 0x1F DUP4 ADD SLT PUSH2 0x93E JUMPI PUSH2 0x93D PUSH2 0x1149 JUMP JUMPDEST JUMPDEST DUP2 CALLDATALOAD PUSH2 0x94E DUP5 DUP3 PUSH1 0x20 DUP7 ADD PUSH2 0x87B JUMP JUMPDEST SWAP2 POP POP SWAP3 SWAP2 POP POP JUMP JUMPDEST PUSH1 0x0 DUP3 PUSH1 0x1F DUP4 ADD SLT PUSH2 0x96C JUMPI PUSH2 0x96B PUSH2 0x1149 JUMP JUMPDEST JUMPDEST DUP2 MLOAD PUSH2 0x97C DUP5 DUP3 PUSH1 0x20 DUP7 ADD PUSH2 0x8BD JUMP JUMPDEST SWAP2 POP POP SWAP3 SWAP2 POP POP JUMP JUMPDEST PUSH1 0x0 DUP2 MLOAD SWAP1 POP PUSH2 0x994 DUP2 PUSH2 0x1336 JUMP JUMPDEST SWAP3 SWAP2 POP POP JUMP JUMPDEST PUSH1 0x0 DUP1 PUSH1 0x40 DUP4 DUP6 SUB SLT ISZERO PUSH2 0x9B1 JUMPI PUSH2 0x9B0 PUSH2 0x1158 JUMP JUMPDEST JUMPDEST PUSH1 0x0 PUSH2 0x9BF DUP6 DUP3 DUP7 ADD PUSH2 0x8FF JUMP JUMPDEST SWAP3 POP POP PUSH1 0x20 PUSH2 0x9D0 DUP6 DUP3 DUP7 ADD PUSH2 0x8FF JUMP JUMPDEST SWAP2 POP POP SWAP3 POP SWAP3 SWAP1 POP JUMP JUMPDEST PUSH1 0x0 DUP1 PUSH1 0x40 DUP4 DUP6 SUB SLT ISZERO PUSH2 0x9F1 JUMPI PUSH2 0x9F0 PUSH2 0x1158 JUMP JUMPDEST JUMPDEST PUSH1 0x0 PUSH2 0x9FF DUP6 DUP3 DUP7 ADD PUSH2 0x8FF JUMP JUMPDEST SWAP3 POP POP PUSH1 0x20 DUP4 ADD CALLDATALOAD PUSH8 0xFFFFFFFFFFFFFFFF DUP2 GT ISZERO PUSH2 0xA20 JUMPI PUSH2 0xA1F PUSH2 0x1153 JUMP JUMPDEST JUMPDEST PUSH2 0xA2C DUP6 DUP3 DUP7 ADD PUSH2 0x929 JUMP JUMPDEST SWAP2 POP POP SWAP3 POP SWAP3 SWAP1 POP JUMP JUMPDEST PUSH1 0x0 PUSH1 0x20 DUP3 DUP5 SUB SLT ISZERO PUSH2 0xA4C JUMPI PUSH2 0xA4B PUSH2 0x1158 JUMP JUMPDEST JUMPDEST PUSH1 0x0 DUP3 ADD MLOAD PUSH8 0xFFFFFFFFFFFFFFFF DUP2 GT ISZERO PUSH2 0xA6A JUMPI PUSH2 0xA69 PUSH2 0x1153 JUMP JUMPDEST JUMPDEST PUSH2 0xA76 DUP5 DUP3 DUP6 ADD PUSH2 0x957 JUMP JUMPDEST SWAP2 POP POP SWAP3 SWAP2 POP POP JUMP JUMPDEST PUSH1 0x0 DUP1 PUSH1 0x40 DUP4 DUP6 SUB SLT ISZERO PUSH2 0xA96 JUMPI PUSH2 0xA95 PUSH2 0x1158 JUMP JUMPDEST JUMPDEST PUSH1 0x0 DUP4 ADD MLOAD PUSH8 0xFFFFFFFFFFFFFFFF DUP2 GT ISZERO PUSH2 0xAB4 JUMPI PUSH2 0xAB3 PUSH2 0x1153 JUMP JUMPDEST JUMPDEST PUSH2 0xAC0 DUP6 DUP3 DUP7 ADD PUSH2 0x957 JUMP JUMPDEST SWAP3 POP POP PUSH1 0x20 DUP4 ADD MLOAD PUSH8 0xFFFFFFFFFFFFFFFF DUP2 GT ISZERO PUSH2 0xAE1 JUMPI PUSH2 0xAE0 PUSH2 0x1153 JUMP JUMPDEST JUMPDEST PUSH2 0xAED DUP6 DUP3 DUP7 ADD PUSH2 0x957 JUMP JUMPDEST SWAP2 POP POP SWAP3 POP SWAP3 SWAP1 POP JUMP JUMPDEST PUSH1 0x0 DUP1 PUSH1 0x40 DUP4 DUP6 SUB SLT ISZERO PUSH2 0xB0E JUMPI PUSH2 0xB0D PUSH2 0x1158 JUMP JUMPDEST JUMPDEST PUSH1 0x0 PUSH2 0xB1C DUP6 DUP3 DUP7 ADD PUSH2 0x985 JUMP JUMPDEST SWAP3 POP POP PUSH1 0x20 PUSH2 0xB2D DUP6 DUP3 DUP7 ADD PUSH2 0x914 JUMP JUMPDEST SWAP2 POP POP SWAP3 POP SWAP3 SWAP1 POP JUMP JUMPDEST PUSH2 0xB40 DUP2 PUSH2 0x1030 JUMP JUMPDEST DUP3 MSTORE POP POP JUMP JUMPDEST PUSH2 0xB4F DUP2 PUSH2 0x1042 JUMP JUMPDEST DUP3 MSTORE POP POP JUMP JUMPDEST PUSH1 0x0 PUSH2 0xB60 DUP3 PUSH2 0xFD5 JUMP JUMPDEST PUSH2 0xB6A DUP2 DUP6 PUSH2 0xFE0 JUMP JUMPDEST SWAP4 POP PUSH2 0xB7A DUP2 DUP6 PUSH1 0x20 DUP7 ADD PUSH2 0x1087 JUMP JUMPDEST PUSH2 0xB83 DUP2 PUSH2 0x115D JUMP JUMPDEST DUP5 ADD SWAP2 POP POP SWAP3 SWAP2 POP POP JUMP JUMPDEST PUSH1 0x0 PUSH2 0xB99 DUP3 PUSH2 0xFD5 JUMP JUMPDEST PUSH2 0xBA3 DUP2 DUP6 PUSH2 0xFF1 JUMP JUMPDEST SWAP4 POP PUSH2 0xBB3 DUP2 DUP6 PUSH1 0x20 DUP7 ADD PUSH2 0x1087 JUMP JUMPDEST DUP1 DUP5 ADD SWAP2 POP POP SWAP3 SWAP2 POP POP JUMP JUMPDEST PUSH1 0x0 PUSH2 0xBCC PUSH1 0x5 DUP4 PUSH2 0xFF1 JUMP JUMPDEST SWAP2 POP PUSH2 0xBD7 DUP3 PUSH2 0x116E JUMP JUMPDEST PUSH1 0x5 DUP3 ADD SWAP1 POP SWAP2 SWAP1 POP JUMP JUMPDEST PUSH1 0x0 PUSH2 0xBEF PUSH1 0x7 DUP4 PUSH2 0xFF1 JUMP JUMPDEST SWAP2 POP PUSH2 0xBFA DUP3 PUSH2 0x1197 JUMP JUMPDEST PUSH1 0x7 DUP3 ADD SWAP1 POP SWAP2 SWAP1 POP JUMP JUMPDEST PUSH1 0x0 PUSH2 0xC12 PUSH1 0xC DUP4 PUSH2 0xFE0 JUMP JUMPDEST SWAP2 POP PUSH2 0xC1D DUP3 PUSH2 0x11C0 JUMP JUMPDEST PUSH1 0x20 DUP3 ADD SWAP1 POP SWAP2 SWAP1 POP JUMP JUMPDEST PUSH1 0x0 PUSH2 0xC35 PUSH1 0x7 DUP4 PUSH2 0xFF1 JUMP JUMPDEST SWAP2 POP PUSH2 0xC40 DUP3 PUSH2 0x11E9 JUMP JUMPDEST PUSH1 0x7 DUP3 ADD SWAP1 POP SWAP2 SWAP1 POP JUMP JUMPDEST PUSH1 0x0 PUSH2 0xC58 PUSH1 0x13 DUP4 PUSH2 0xFE0 JUMP JUMPDEST SWAP2 POP PUSH2 0xC63 DUP3 PUSH2 0x1212 JUMP JUMPDEST PUSH1 0x20 DUP3 ADD SWAP1 POP SWAP2 SWAP1 POP JUMP JUMPDEST PUSH1 0x0 PUSH2 0xC7B PUSH1 0x4 DUP4 PUSH2 0xFF1 JUMP JUMPDEST SWAP2 POP PUSH2 0xC86 DUP3 PUSH2 0x123B JUMP JUMPDEST PUSH1 0x4 DUP3 ADD SWAP1 POP SWAP2 SWAP1 POP JUMP JUMPDEST PUSH1 0x0 PUSH2 0xC9E PUSH1 0x4 DUP4 PUSH2 0xFF1 JUMP JUMPDEST SWAP2 POP PUSH2 0xCA9 DUP3 PUSH2 0x1264 JUMP JUMPDEST PUSH1 0x4 DUP3 ADD SWAP1 POP SWAP2 SWAP1 POP JUMP JUMPDEST PUSH1 0x0 PUSH2 0xCC1 PUSH1 0x14 DUP4 PUSH2 0xFE0 JUMP JUMPDEST SWAP2 POP PUSH2 0xCCC DUP3 PUSH2 0x128D JUMP JUMPDEST PUSH1 0x20 DUP3 ADD SWAP1 POP SWAP2 SWAP1 POP JUMP JUMPDEST PUSH1 0x0 PUSH2 0xCE4 PUSH1 0x20 DUP4 PUSH2 0xFE0 JUMP JUMPDEST SWAP2 POP PUSH2 0xCEF DUP3 PUSH2 0x12B6 JUMP JUMPDEST PUSH1 0x20 DUP3 ADD SWAP1 POP SWAP2 SWAP1 POP JUMP JUMPDEST PUSH1 0x0 PUSH2 0xD07 PUSH1 0x4 DUP4 PUSH2 0xFF1 JUMP JUMPDEST SWAP2 POP PUSH2 0xD12 DUP3 PUSH2 0x12DF JUMP JUMPDEST PUSH1 0x4 DUP3 ADD SWAP1 POP SWAP2 SWAP1 POP JUMP JUMPDEST PUSH2 0xD26 DUP2 PUSH2 0x106E JUMP JUMPDEST DUP3 MSTORE POP POP JUMP JUMPDEST PUSH1 0x0 PUSH2 0xD38 DUP3 DUP5 PUSH2 0xB8E JUMP JUMPDEST SWAP2 POP DUP2 SWAP1 POP SWAP3 SWAP2 POP POP JUMP JUMPDEST PUSH1 0x0 PUSH2 0xD4E DUP3 PUSH2 0xBBF JUMP JUMPDEST SWAP2 POP DUP2 SWAP1 POP SWAP2 SWAP1 POP JUMP JUMPDEST PUSH1 0x0 PUSH2 0xD63 DUP3 PUSH2 0xBE2 JUMP JUMPDEST SWAP2 POP DUP2 SWAP1 POP SWAP2 SWAP1 POP JUMP JUMPDEST PUSH1 0x0 PUSH2 0xD78 DUP3 PUSH2 0xC28 JUMP JUMPDEST SWAP2 POP DUP2 SWAP1 POP SWAP2 SWAP1 POP JUMP JUMPDEST PUSH1 0x0 PUSH2 0xD8D DUP3 PUSH2 0xC6E JUMP JUMPDEST SWAP2 POP DUP2 SWAP1 POP SWAP2 SWAP1 POP JUMP JUMPDEST PUSH1 0x0 PUSH2 0xDA2 DUP3 PUSH2 0xC91 JUMP JUMPDEST SWAP2 POP DUP2 SWAP1 POP SWAP2 SWAP1 POP JUMP JUMPDEST PUSH1 0x0 PUSH2 0xDB7 DUP3 PUSH2 0xCFA JUMP JUMPDEST SWAP2 POP DUP2 SWAP1 POP SWAP2 SWAP1 POP JUMP JUMPDEST PUSH1 0x0 PUSH1 0x20 DUP3 ADD SWAP1 POP PUSH2 0xDD6 PUSH1 0x0 DUP4 ADD DUP5 PUSH2 0xB37 JUMP JUMPDEST SWAP3 SWAP2 POP POP JUMP JUMPDEST PUSH1 0x0 PUSH1 0x40 DUP3 ADD SWAP1 POP PUSH2 0xDF1 PUSH1 0x0 DUP4 ADD DUP6 PUSH2 0xB37 JUMP JUMPDEST PUSH2 0xDFE PUSH1 0x20 DUP4 ADD DUP5 PUSH2 0xB37 JUMP JUMPDEST SWAP4 SWAP3 POP POP POP JUMP JUMPDEST PUSH1 0x0 PUSH1 0x80 DUP3 ADD SWAP1 POP PUSH2 0xE1A PUSH1 0x0 DUP4 ADD DUP7 PUSH2 0xB37 JUMP JUMPDEST PUSH2 0xE27 PUSH1 0x20 DUP4 ADD DUP6 PUSH2 0xB37 JUMP JUMPDEST DUP2 DUP2 SUB PUSH1 0x40 DUP4 ADD MSTORE PUSH2 0xE39 DUP2 DUP5 PUSH2 0xB55 JUMP JUMPDEST SWAP1 POP DUP2 DUP2 SUB PUSH1 0x60 DUP4 ADD MSTORE PUSH2 0xE4C DUP2 PUSH2 0xC05 JUMP JUMPDEST SWAP1 POP SWAP5 SWAP4 POP POP POP POP JUMP JUMPDEST PUSH1 0x0 PUSH1 0x80 DUP3 ADD SWAP1 POP PUSH2 0xE6B PUSH1 0x0 DUP4 ADD DUP7 PUSH2 0xB37 JUMP JUMPDEST PUSH2 0xE78 PUSH1 0x20 DUP4 ADD DUP6 PUSH2 0xB37 JUMP JUMPDEST DUP2 DUP2 SUB PUSH1 0x40 DUP4 ADD MSTORE PUSH2 0xE8A DUP2 DUP5 PUSH2 0xB55 JUMP JUMPDEST SWAP1 POP DUP2 DUP2 SUB PUSH1 0x60 DUP4 ADD MSTORE PUSH2 0xE9D DUP2 PUSH2 0xC4B JUMP JUMPDEST SWAP1 POP SWAP5 SWAP4 POP POP POP POP JUMP JUMPDEST PUSH1 0x0 PUSH1 0x80 DUP3 ADD SWAP1 POP PUSH2 0xEBC PUSH1 0x0 DUP4 ADD DUP7 PUSH2 0xB37 JUMP JUMPDEST PUSH2 0xEC9 PUSH1 0x20 DUP4 ADD DUP6 PUSH2 0xB37 JUMP JUMPDEST DUP2 DUP2 SUB PUSH1 0x40 DUP4 ADD MSTORE PUSH2 0xEDB DUP2 DUP5 PUSH2 0xB55 JUMP JUMPDEST SWAP1 POP DUP2 DUP2 SUB PUSH1 0x60 DUP4 ADD MSTORE PUSH2 0xEEE DUP2 PUSH2 0xCB4 JUMP JUMPDEST SWAP1 POP SWAP5 SWAP4 POP POP POP POP JUMP JUMPDEST PUSH1 0x0 PUSH1 0x80 DUP3 ADD SWAP1 POP PUSH2 0xF0D PUSH1 0x0 DUP4 ADD DUP7 PUSH2 0xB37 JUMP JUMPDEST PUSH2 0xF1A PUSH1 0x20 DUP4 ADD DUP6 PUSH2 0xB37 JUMP JUMPDEST DUP2 DUP2 SUB PUSH1 0x40 DUP4 ADD MSTORE PUSH2 0xF2C DUP2 DUP5 PUSH2 0xB55 JUMP JUMPDEST SWAP1 POP DUP2 DUP2 SUB PUSH1 0x60 DUP4 ADD MSTORE PUSH2 0xF3F DUP2 PUSH2 0xCD7 JUMP JUMPDEST SWAP1 POP SWAP5 SWAP4 POP POP POP POP JUMP JUMPDEST PUSH1 0x0 PUSH1 0x20 DUP3 ADD SWAP1 POP PUSH2 0xF5E PUSH1 0x0 DUP4 ADD DUP5 PUSH2 0xB46 JUMP JUMPDEST SWAP3 SWAP2 POP POP JUMP JUMPDEST PUSH1 0x0 PUSH1 0x20 DUP3 ADD SWAP1 POP PUSH2 0xF79 PUSH1 0x0 DUP4 ADD DUP5 PUSH2 0xD1D JUMP JUMPDEST SWAP3 SWAP2 POP POP JUMP JUMPDEST PUSH1 0x0 PUSH2 0xF89 PUSH2 0xF9A JUMP JUMPDEST SWAP1 POP PUSH2 0xF95 DUP3 DUP3 PUSH2 0x10BA JUMP JUMPDEST SWAP2 SWAP1 POP JUMP JUMPDEST PUSH1 0x0 PUSH1 0x40 MLOAD SWAP1 POP SWAP1 JUMP JUMPDEST PUSH1 0x0 PUSH8 0xFFFFFFFFFFFFFFFF DUP3 GT ISZERO PUSH2 0xFBF JUMPI PUSH2 0xFBE PUSH2 0x111A JUMP JUMPDEST JUMPDEST PUSH2 0xFC8 DUP3 PUSH2 0x115D JUMP JUMPDEST SWAP1 POP PUSH1 0x20 DUP2 ADD SWAP1 POP SWAP2 SWAP1 POP JUMP JUMPDEST PUSH1 0x0 DUP2 MLOAD SWAP1 POP SWAP2 SWAP1 POP JUMP JUMPDEST PUSH1 0x0 DUP3 DUP3 MSTORE PUSH1 0x20 DUP3 ADD SWAP1 POP SWAP3 SWAP2 POP POP JUMP JUMPDEST PUSH1 0x0 DUP2 SWAP1 POP SWAP3 SWAP2 POP POP JUMP JUMPDEST PUSH1 0x0 PUSH2 0x1007 DUP3 PUSH2 0x106E JUMP JUMPDEST SWAP2 POP PUSH2 0x1012 DUP4 PUSH2 0x106E JUMP JUMPDEST SWAP3 POP DUP3 DUP3 LT ISZERO PUSH2 0x1025 JUMPI PUSH2 0x1024 PUSH2 0x10EB JUMP JUMPDEST JUMPDEST DUP3 DUP3 SUB SWAP1 POP SWAP3 SWAP2 POP POP JUMP JUMPDEST PUSH1 0x0 PUSH2 0x103B DUP3 PUSH2 0x104E JUMP JUMPDEST SWAP1 POP SWAP2 SWAP1 POP JUMP JUMPDEST PUSH1 0x0 DUP2 ISZERO ISZERO SWAP1 POP SWAP2 SWAP1 POP JUMP JUMPDEST PUSH1 0x0 PUSH20 0xFFFFFFFFFFFFFFFFFFFFFFFFFFFFFFFFFFFFFFFF DUP3 AND SWAP1 POP SWAP2 SWAP1 POP JUMP JUMPDEST PUSH1 0x0 DUP2 SWAP1 POP SWAP2 SWAP1 POP JUMP JUMPDEST DUP3 DUP2 DUP4 CALLDATACOPY PUSH1 0x0 DUP4 DUP4 ADD MSTORE POP POP POP JUMP JUMPDEST PUSH1 0x0 JUMPDEST DUP4 DUP2 LT ISZERO PUSH2 0x10A5 JUMPI DUP1 DUP3 ADD MLOAD DUP2 DUP5 ADD MSTORE PUSH1 0x20 DUP2 ADD SWAP1 POP PUSH2 0x108A JUMP JUMPDEST DUP4 DUP2 GT ISZERO PUSH2 0x10B4 JUMPI PUSH1 0x0 DUP5 DUP5 ADD MSTORE JUMPDEST POP POP POP POP JUMP JUMPDEST PUSH2 0x10C3 DUP3 PUSH2 0x115D JUMP JUMPDEST DUP2 ADD DUP2 DUP2 LT PUSH8 0xFFFFFFFFFFFFFFFF DUP3 GT OR ISZERO PUSH2 0x10E2 JUMPI PUSH2 0x10E1 PUSH2 0x111A JUMP JUMPDEST JUMPDEST DUP1 PUSH1 0x40 MSTORE POP POP POP JUMP JUMPDEST PUSH32 0x4E487B7100000000000000000000000000000000000000000000000000000000 PUSH1 0x0 MSTORE PUSH1 0x11 PUSH1 0x4 MSTORE PUSH1 0x24 PUSH1 0x0 REVERT JUMPDEST PUSH32 0x4E487B7100000000000000000000000000000000000000000000000000000000 PUSH1 0x0 MSTORE PUSH1 0x41 PUSH1 0x4 MSTORE PUSH1 0x24 PUSH1 0x0 REVERT JUMPDEST PUSH1 0x0 DUP1 REVERT JUMPDEST PUSH1 0x0 DUP1 REVERT JUMPDEST PUSH1 0x0 DUP1 REVERT JUMPDEST PUSH1 0x0 DUP1 REVERT JUMPDEST PUSH1 0x0 PUSH1 0x1F NOT PUSH1 0x1F DUP4 ADD AND SWAP1 POP SWAP2 SWAP1 POP JUMP JUMPDEST PUSH32 0x636C6F7365000000000000000000000000000000000000000000000000000000 PUSH1 0x0 DUP3 ADD MSTORE POP JUMP JUMPDEST PUSH32 0x322E322E322E3200000000000000000000000000000000000000000000000000 PUSH1 0x0 DUP3 ADD MSTORE POP JUMP JUMPDEST PUSH32 0x4163636573732070617373210000000000000000000000000000000000000000 PUSH1 0x0 DUP3 ADD MSTORE POP JUMP JUMPDEST PUSH32 0x7265737461727400000000000000000000000000000000000000000000000000 PUSH1 0x0 DUP3 ADD MSTORE POP JUMP JUMPDEST PUSH32 0x496C6C6567616C20495020616464726573732100000000000000000000000000 PUSH1 0x0 DUP3 ADD MSTORE POP JUMP JUMPDEST PUSH32 0x6B696C6C00000000000000000000000000000000000000000000000000000000 PUSH1 0x0 DUP3 ADD MSTORE POP JUMP JUMPDEST PUSH32 0x6F70656E00000000000000000000000000000000000000000000000000000000 PUSH1 0x0 DUP3 ADD MSTORE POP JUMP JUMPDEST PUSH32 0x556E617574686F72697A65642061636365737321000000000000000000000000 PUSH1 0x0 DUP3 ADD MSTORE POP JUMP JUMPDEST PUSH32 0x5374696C6C20626C6F636B65642C20756E61626C6520746F2061636365737321 PUSH1 0x0 DUP3 ADD MSTORE POP JUMP JUMPDEST PUSH32 0x7265616400000000000000000000000000000000000000000000000000000000 PUSH1 0x0 DUP3 ADD MSTORE POP JUMP JUMPDEST PUSH2 0x1311 DUP2 PUSH2 0x1030 JUMP JUMPDEST DUP2 EQ PUSH2 0x131C JUMPI PUSH1 0x0 DUP1 REVERT JUMPDEST POP JUMP JUMPDEST PUSH2 0x1328 DUP2 PUSH2 0x1042 JUMP JUMPDEST DUP2 EQ PUSH2 0x1333 JUMPI PUSH1 0x0 DUP1 REVERT JUMPDEST POP JUMP JUMPDEST PUSH2 0x133F DUP2 PUSH2 0x106E JUMP JUMPDEST DUP2 EQ PUSH2 0x134A JUMPI PUSH1 0x0 DUP1 REVERT JUMPDEST POP JUMP INVALID LOG2 PUSH5 0x6970667358 0x22 SLT KECCAK256 0xDF 0xB6 0xE4 CALLER ADDRESS 0xF8 MULMOD SIGNEXTEND PUSH17 0x657A4A3C592394437F92B35E66051F40E7 0x4A 0xDE PUSH27 0x61FF8664736F6C6343000807003300000000000000000000000000 "
				},
				"gasEstimates": {
					"creation": {
						"codeDepositCost": "999000",
						"executionCost": "1041",
						"totalCost": "1000041"
					},
					"external": {
						"accessControl(address,string)": "infinite",
						"getCurTime()": "336",
						"init(address,address)": "infinite"
					},
					"internal": {
						"checkRequesterStatus()": "infinite"
					}
				},
				"methodIdentifiers": {
					"accessControl(address,string)": "32076e77",
					"getCurTime()": "c0821da3",
					"init(address,address)": "f09a4016"
				}
			},
			"storageLayout": {
				"storage": [
					{
						"astId": 6,
						"contract": "contracts/AccessControl.sol:AccessControl",
						"label": "manager",
						"offset": 0,
						"slot": "0",
						"type": "t_contract(Management)596"
					},
					{
						"astId": 9,
						"contract": "contracts/AccessControl.sol:AccessControl",
						"label": "judge",
						"offset": 0,
						"slot": "1",
						"type": "t_contract(Judge)406"
					},
					{
						"astId": 18,
						"contract": "contracts/AccessControl.sol:AccessControl",
						"label": "rightTable",
						"offset": 0,
						"slot": "2",
						"type": "t_mapping(t_string_memory_ptr,t_int256)"
					},
					{
						"astId": 22,
						"contract": "contracts/AccessControl.sol:AccessControl",
						"label": "blackListIpMap",
						"offset": 0,
						"slot": "3",
						"type": "t_mapping(t_string_memory_ptr,t_bool)"
					},
					{
						"astId": 27,
						"contract": "contracts/AccessControl.sol:AccessControl",
						"label": "requestMap",
						"offset": 0,
						"slot": "4",
						"type": "t_mapping(t_address,t_struct(Requester)14_storage)"
					}
				],
				"types": {
					"t_address": {
						"encoding": "inplace",
						"label": "address",
						"numberOfBytes": "20"
					},
					"t_bool": {
						"encoding": "inplace",
						"label": "bool",
						"numberOfBytes": "1"
					},
					"t_contract(Judge)406": {
						"encoding": "inplace",
						"label": "contract Judge",
						"numberOfBytes": "20"
					},
					"t_contract(Management)596": {
						"encoding": "inplace",
						"label": "contract Management",
						"numberOfBytes": "20"
					},
					"t_int256": {
						"encoding": "inplace",
						"label": "int256",
						"numberOfBytes": "32"
					},
					"t_mapping(t_address,t_struct(Requester)14_storage)": {
						"encoding": "mapping",
						"key": "t_address",
						"label": "mapping(address => struct AccessControl.Requester)",
						"numberOfBytes": "32",
						"value": "t_struct(Requester)14_storage"
					},
					"t_mapping(t_string_memory_ptr,t_bool)": {
						"encoding": "mapping",
						"key": "t_string_memory_ptr",
						"label": "mapping(string => bool)",
						"numberOfBytes": "32",
						"value": "t_bool"
					},
					"t_mapping(t_string_memory_ptr,t_int256)": {
						"encoding": "mapping",
						"key": "t_string_memory_ptr",
						"label": "mapping(string => int256)",
						"numberOfBytes": "32",
						"value": "t_int256"
					},
					"t_string_memory_ptr": {
						"encoding": "bytes",
						"label": "string",
						"numberOfBytes": "32"
					},
					"t_struct(Requester)14_storage": {
						"encoding": "inplace",
						"label": "struct AccessControl.Requester",
						"members": [
							{
								"astId": 11,
								"contract": "contracts/AccessControl.sol:AccessControl",
								"label": "isRequested",
								"offset": 0,
								"slot": "0",
								"type": "t_bool"
							},
							{
								"astId": 13,
								"contract": "contracts/AccessControl.sol:AccessControl",
								"label": "ToLR",
								"offset": 0,
								"slot": "1",
								"type": "t_uint256"
							}
						],
						"numberOfBytes": "64"
					},
					"t_uint256": {
						"encoding": "inplace",
						"label": "uint256",
						"numberOfBytes": "32"
					}
				}
			},
			"userdoc": {
				"kind": "user",
				"methods": {},
				"version": 1
			}
		}
	}
}