{
	"contracts/Judge.sol": {
		"Judge": {
			"abi": [
				{
					"inputs": [
						{
							"internalType": "address",
							"name": "_userAddr",
							"type": "address"
						}
					],
					"name": "getBLUByAddr",
					"outputs": [
						{
							"internalType": "uint256",
							"name": "_EToB",
							"type": "uint256"
						},
						{
							"internalType": "bool",
							"name": "_blocked",
							"type": "bool"
						}
					],
					"stateMutability": "view",
					"type": "function"
				},
				{
					"inputs": [],
					"name": "getCurTime",
					"outputs": [
						{
							"internalType": "uint256",
							"name": "curTime",
							"type": "uint256"
						}
					],
					"stateMutability": "view",
					"type": "function"
				},
				{
					"inputs": [
						{
							"internalType": "address",
							"name": "_userAddr",
							"type": "address"
						}
					],
					"name": "setBlackList",
					"outputs": [],
					"stateMutability": "nonpayable",
					"type": "function"
				}
			],
			"devdoc": {
				"kind": "dev",
				"methods": {},
				"version": 1
			},
			"evm": {
				"assembly": "    /* \"contracts/Judge.sol\":68:1087  contract Judge {\r... */\n  mstore(0x40, 0x80)\n  callvalue\n  dup1\n  iszero\n  tag_1\n  jumpi\n  0x00\n  dup1\n  revert\ntag_1:\n  pop\n  dataSize(sub_0)\n  dup1\n  dataOffset(sub_0)\n  0x00\n  codecopy\n  0x00\n  return\nstop\n\nsub_0: assembly {\n        /* \"contracts/Judge.sol\":68:1087  contract Judge {\r... */\n      mstore(0x40, 0x80)\n      callvalue\n      dup1\n      iszero\n      tag_1\n      jumpi\n      0x00\n      dup1\n      revert\n    tag_1:\n      pop\n      jumpi(tag_2, lt(calldatasize, 0x04))\n      shr(0xe0, calldataload(0x00))\n      dup1\n      0x169c9de0\n      eq\n      tag_3\n      jumpi\n      dup1\n      0x72700241\n      eq\n      tag_4\n      jumpi\n      dup1\n      0xc0821da3\n      eq\n      tag_5\n      jumpi\n    tag_2:\n      0x00\n      dup1\n      revert\n        /* \"contracts/Judge.sol\":776:970  function getBLUByAddr(address _userAddr) public view returns (uint256 _EToB, bool _blocked) {\r... */\n    tag_3:\n      tag_6\n      0x04\n      dup1\n      calldatasize\n      sub\n      dup2\n      add\n      swap1\n      tag_7\n      swap2\n      swap1\n      tag_8\n      jump\t// in\n    tag_7:\n      tag_9\n      jump\t// in\n    tag_6:\n      mload(0x40)\n      tag_10\n      swap3\n      swap2\n      swap1\n      tag_11\n      jump\t// in\n    tag_10:\n      mload(0x40)\n      dup1\n      swap2\n      sub\n      swap1\n      return\n        /* \"contracts/Judge.sol\":495:737  function setBlackList(address _userAddr) public {\r... */\n    tag_4:\n      tag_12\n      0x04\n      dup1\n      calldatasize\n      sub\n      dup2\n      add\n      swap1\n      tag_13\n      swap2\n      swap1\n      tag_8\n      jump\t// in\n    tag_13:\n      tag_14\n      jump\t// in\n    tag_12:\n      stop\n        /* \"contracts/Judge.sol\":978:1082  function getCurTime() public view returns (uint256 curTime) {\r... */\n    tag_5:\n      tag_15\n      tag_16\n      jump\t// in\n    tag_15:\n      mload(0x40)\n      tag_17\n      swap2\n      swap1\n      tag_18\n      jump\t// in\n    tag_17:\n      mload(0x40)\n      dup1\n      swap2\n      sub\n      swap1\n      return\n        /* \"contracts/Judge.sol\":776:970  function getBLUByAddr(address _userAddr) public view returns (uint256 _EToB, bool _blocked) {\r... */\n    tag_9:\n        /* \"contracts/Judge.sol\":838:851  uint256 _EToB */\n      0x00\n        /* \"contracts/Judge.sol\":853:866  bool _blocked */\n      dup1\n        /* \"contracts/Judge.sol\":887:896  blackList */\n      0x00\n        /* \"contracts/Judge.sol\":887:907  blackList[_userAddr] */\n      dup1\n        /* \"contracts/Judge.sol\":897:906  _userAddr */\n      dup5\n        /* \"contracts/Judge.sol\":887:907  blackList[_userAddr] */\n      0xffffffffffffffffffffffffffffffffffffffff\n      and\n      0xffffffffffffffffffffffffffffffffffffffff\n      and\n      dup2\n      mstore\n      0x20\n      add\n      swap1\n      dup2\n      mstore\n      0x20\n      add\n      0x00\n      keccak256\n        /* \"contracts/Judge.sol\":887:912  blackList[_userAddr].EToB */\n      0x01\n      add\n      sload\n        /* \"contracts/Judge.sol\":879:912  _EToB = blackList[_userAddr].EToB */\n      swap2\n      pop\n        /* \"contracts/Judge.sol\":934:943  blackList */\n      0x00\n        /* \"contracts/Judge.sol\":934:954  blackList[_userAddr] */\n      dup1\n        /* \"contracts/Judge.sol\":944:953  _userAddr */\n      dup5\n        /* \"contracts/Judge.sol\":934:954  blackList[_userAddr] */\n      0xffffffffffffffffffffffffffffffffffffffff\n      and\n      0xffffffffffffffffffffffffffffffffffffffff\n      and\n      dup2\n      mstore\n      0x20\n      add\n      swap1\n      dup2\n      mstore\n      0x20\n      add\n      0x00\n      keccak256\n        /* \"contracts/Judge.sol\":934:962  blackList[_userAddr].blocked */\n      0x02\n      add\n      0x00\n      swap1\n      sload\n      swap1\n      0x0100\n      exp\n      swap1\n      div\n      0xff\n      and\n        /* \"contracts/Judge.sol\":923:962  _blocked = blackList[_userAddr].blocked */\n      swap1\n      pop\n        /* \"contracts/Judge.sol\":776:970  function getBLUByAddr(address _userAddr) public view returns (uint256 _EToB, bool _blocked) {\r... */\n      swap2\n      pop\n      swap2\n      jump\t// out\n        /* \"contracts/Judge.sol\":495:737  function setBlackList(address _userAddr) public {\r... */\n    tag_14:\n        /* \"contracts/Judge.sol\":582:591  _userAddr */\n      dup1\n        /* \"contracts/Judge.sol\":554:563  blackList */\n      0x00\n        /* \"contracts/Judge.sol\":554:574  blackList[_userAddr] */\n      dup1\n        /* \"contracts/Judge.sol\":564:573  _userAddr */\n      dup4\n        /* \"contracts/Judge.sol\":554:574  blackList[_userAddr] */\n      0xffffffffffffffffffffffffffffffffffffffff\n      and\n      0xffffffffffffffffffffffffffffffffffffffff\n      and\n      dup2\n      mstore\n      0x20\n      add\n      swap1\n      dup2\n      mstore\n      0x20\n      add\n      0x00\n      keccak256\n        /* \"contracts/Judge.sol\":554:579  blackList[_userAddr].addr */\n      0x00\n      add\n      0x00\n        /* \"contracts/Judge.sol\":554:591  blackList[_userAddr].addr = _userAddr */\n      0x0100\n      exp\n      dup2\n      sload\n      dup2\n      0xffffffffffffffffffffffffffffffffffffffff\n      mul\n      not\n      and\n      swap1\n      dup4\n      0xffffffffffffffffffffffffffffffffffffffff\n      and\n      mul\n      or\n      swap1\n      sstore\n      pop\n        /* \"contracts/Judge.sol\":681:683  10 */\n      0x0a\n        /* \"contracts/Judge.sol\":663:678  block.timestamp */\n      timestamp\n        /* \"contracts/Judge.sol\":663:683  block.timestamp + 10 */\n      tag_21\n      swap2\n      swap1\n      tag_22\n      jump\t// in\n    tag_21:\n        /* \"contracts/Judge.sol\":635:644  blackList */\n      0x00\n        /* \"contracts/Judge.sol\":635:655  blackList[_userAddr] */\n      dup1\n        /* \"contracts/Judge.sol\":645:654  _userAddr */\n      dup4\n        /* \"contracts/Judge.sol\":635:655  blackList[_userAddr] */\n      0xffffffffffffffffffffffffffffffffffffffff\n      and\n      0xffffffffffffffffffffffffffffffffffffffff\n      and\n      dup2\n      mstore\n      0x20\n      add\n      swap1\n      dup2\n      mstore\n      0x20\n      add\n      0x00\n      keccak256\n        /* \"contracts/Judge.sol\":635:660  blackList[_userAddr].EToB */\n      0x01\n      add\n        /* \"contracts/Judge.sol\":635:683  blackList[_userAddr].EToB = block.timestamp + 10 */\n      dup2\n      swap1\n      sstore\n      pop\n        /* \"contracts/Judge.sol\":725:729  true */\n      0x01\n        /* \"contracts/Judge.sol\":694:703  blackList */\n      0x00\n        /* \"contracts/Judge.sol\":694:714  blackList[_userAddr] */\n      dup1\n        /* \"contracts/Judge.sol\":704:713  _userAddr */\n      dup4\n        /* \"contracts/Judge.sol\":694:714  blackList[_userAddr] */\n      0xffffffffffffffffffffffffffffffffffffffff\n      and\n      0xffffffffffffffffffffffffffffffffffffffff\n      and\n      dup2\n      mstore\n      0x20\n      add\n      swap1\n      dup2\n      mstore\n      0x20\n      add\n      0x00\n      keccak256\n        /* \"contracts/Judge.sol\":694:722  blackList[_userAddr].blocked */\n      0x02\n      add\n      0x00\n        /* \"contracts/Judge.sol\":694:729  blackList[_userAddr].blocked = true */\n      0x0100\n      exp\n      dup2\n      sload\n      dup2\n      0xff\n      mul\n      not\n      and\n      swap1\n      dup4\n      iszero\n      iszero\n      mul\n      or\n      swap1\n      sstore\n      pop\n        /* \"contracts/Judge.sol\":495:737  function setBlackList(address _userAddr) public {\r... */\n      pop\n      jump\t// out\n        /* \"contracts/Judge.sol\":978:1082  function getCurTime() public view returns (uint256 curTime) {\r... */\n    tag_16:\n        /* \"contracts/Judge.sol\":1021:1036  uint256 curTime */\n      0x00\n        /* \"contracts/Judge.sol\":1059:1074  block.timestamp */\n      timestamp\n        /* \"contracts/Judge.sol\":1049:1074  curTime = block.timestamp */\n      swap1\n      pop\n        /* \"contracts/Judge.sol\":978:1082  function getCurTime() public view returns (uint256 curTime) {\r... */\n      swap1\n      jump\t// out\n        /* \"#utility.yul\":7:146   */\n    tag_25:\n        /* \"#utility.yul\":53:58   */\n      0x00\n        /* \"#utility.yul\":91:97   */\n      dup2\n        /* \"#utility.yul\":78:98   */\n      calldataload\n        /* \"#utility.yul\":69:98   */\n      swap1\n      pop\n        /* \"#utility.yul\":107:140   */\n      tag_27\n        /* \"#utility.yul\":134:139   */\n      dup2\n        /* \"#utility.yul\":107:140   */\n      tag_28\n      jump\t// in\n    tag_27:\n        /* \"#utility.yul\":7:146   */\n      swap3\n      swap2\n      pop\n      pop\n      jump\t// out\n        /* \"#utility.yul\":152:481   */\n    tag_8:\n        /* \"#utility.yul\":211:217   */\n      0x00\n        /* \"#utility.yul\":260:262   */\n      0x20\n        /* \"#utility.yul\":248:257   */\n      dup3\n        /* \"#utility.yul\":239:246   */\n      dup5\n        /* \"#utility.yul\":235:258   */\n      sub\n        /* \"#utility.yul\":231:263   */\n      slt\n        /* \"#utility.yul\":228:347   */\n      iszero\n      tag_30\n      jumpi\n        /* \"#utility.yul\":266:345   */\n      tag_31\n      tag_32\n      jump\t// in\n    tag_31:\n        /* \"#utility.yul\":228:347   */\n    tag_30:\n        /* \"#utility.yul\":386:387   */\n      0x00\n        /* \"#utility.yul\":411:464   */\n      tag_33\n        /* \"#utility.yul\":456:463   */\n      dup5\n        /* \"#utility.yul\":447:453   */\n      dup3\n        /* \"#utility.yul\":436:445   */\n      dup6\n        /* \"#utility.yul\":432:454   */\n      add\n        /* \"#utility.yul\":411:464   */\n      tag_25\n      jump\t// in\n    tag_33:\n        /* \"#utility.yul\":401:464   */\n      swap2\n      pop\n        /* \"#utility.yul\":357:474   */\n      pop\n        /* \"#utility.yul\":152:481   */\n      swap3\n      swap2\n      pop\n      pop\n      jump\t// out\n        /* \"#utility.yul\":487:596   */\n    tag_34:\n        /* \"#utility.yul\":568:589   */\n      tag_36\n        /* \"#utility.yul\":583:588   */\n      dup2\n        /* \"#utility.yul\":568:589   */\n      tag_37\n      jump\t// in\n    tag_36:\n        /* \"#utility.yul\":563:566   */\n      dup3\n        /* \"#utility.yul\":556:590   */\n      mstore\n        /* \"#utility.yul\":487:596   */\n      pop\n      pop\n      jump\t// out\n        /* \"#utility.yul\":602:720   */\n    tag_38:\n        /* \"#utility.yul\":689:713   */\n      tag_40\n        /* \"#utility.yul\":707:712   */\n      dup2\n        /* \"#utility.yul\":689:713   */\n      tag_41\n      jump\t// in\n    tag_40:\n        /* \"#utility.yul\":684:687   */\n      dup3\n        /* \"#utility.yul\":677:714   */\n      mstore\n        /* \"#utility.yul\":602:720   */\n      pop\n      pop\n      jump\t// out\n        /* \"#utility.yul\":726:948   */\n    tag_18:\n        /* \"#utility.yul\":819:823   */\n      0x00\n        /* \"#utility.yul\":857:859   */\n      0x20\n        /* \"#utility.yul\":846:855   */\n      dup3\n        /* \"#utility.yul\":842:860   */\n      add\n        /* \"#utility.yul\":834:860   */\n      swap1\n      pop\n        /* \"#utility.yul\":870:941   */\n      tag_43\n        /* \"#utility.yul\":938:939   */\n      0x00\n        /* \"#utility.yul\":927:936   */\n      dup4\n        /* \"#utility.yul\":923:940   */\n      add\n        /* \"#utility.yul\":914:920   */\n      dup5\n        /* \"#utility.yul\":870:941   */\n      tag_38\n      jump\t// in\n    tag_43:\n        /* \"#utility.yul\":726:948   */\n      swap3\n      swap2\n      pop\n      pop\n      jump\t// out\n        /* \"#utility.yul\":954:1274   */\n    tag_11:\n        /* \"#utility.yul\":1069:1073   */\n      0x00\n        /* \"#utility.yul\":1107:1109   */\n      0x40\n        /* \"#utility.yul\":1096:1105   */\n      dup3\n        /* \"#utility.yul\":1092:1110   */\n      add\n        /* \"#utility.yul\":1084:1110   */\n      swap1\n      pop\n        /* \"#utility.yul\":1120:1191   */\n      tag_45\n        /* \"#utility.yul\":1188:1189   */\n      0x00\n        /* \"#utility.yul\":1177:1186   */\n      dup4\n        /* \"#utility.yul\":1173:1190   */\n      add\n        /* \"#utility.yul\":1164:1170   */\n      dup6\n        /* \"#utility.yul\":1120:1191   */\n      tag_38\n      jump\t// in\n    tag_45:\n        /* \"#utility.yul\":1201:1267   */\n      tag_46\n        /* \"#utility.yul\":1263:1265   */\n      0x20\n        /* \"#utility.yul\":1252:1261   */\n      dup4\n        /* \"#utility.yul\":1248:1266   */\n      add\n        /* \"#utility.yul\":1239:1245   */\n      dup5\n        /* \"#utility.yul\":1201:1267   */\n      tag_34\n      jump\t// in\n    tag_46:\n        /* \"#utility.yul\":954:1274   */\n      swap4\n      swap3\n      pop\n      pop\n      pop\n      jump\t// out\n        /* \"#utility.yul\":1361:1666   */\n    tag_22:\n        /* \"#utility.yul\":1401:1404   */\n      0x00\n        /* \"#utility.yul\":1420:1440   */\n      tag_50\n        /* \"#utility.yul\":1438:1439   */\n      dup3\n        /* \"#utility.yul\":1420:1440   */\n      tag_41\n      jump\t// in\n    tag_50:\n        /* \"#utility.yul\":1415:1440   */\n      swap2\n      pop\n        /* \"#utility.yul\":1454:1474   */\n      tag_51\n        /* \"#utility.yul\":1472:1473   */\n      dup4\n        /* \"#utility.yul\":1454:1474   */\n      tag_41\n      jump\t// in\n    tag_51:\n        /* \"#utility.yul\":1449:1474   */\n      swap3\n      pop\n        /* \"#utility.yul\":1608:1609   */\n      dup3\n        /* \"#utility.yul\":1540:1606   */\n      0xffffffffffffffffffffffffffffffffffffffffffffffffffffffffffffffff\n        /* \"#utility.yul\":1536:1610   */\n      sub\n        /* \"#utility.yul\":1533:1534   */\n      dup3\n        /* \"#utility.yul\":1530:1611   */\n      gt\n        /* \"#utility.yul\":1527:1634   */\n      iszero\n      tag_52\n      jumpi\n        /* \"#utility.yul\":1614:1632   */\n      tag_53\n      tag_54\n      jump\t// in\n    tag_53:\n        /* \"#utility.yul\":1527:1634   */\n    tag_52:\n        /* \"#utility.yul\":1658:1659   */\n      dup3\n        /* \"#utility.yul\":1655:1656   */\n      dup3\n        /* \"#utility.yul\":1651:1660   */\n      add\n        /* \"#utility.yul\":1644:1660   */\n      swap1\n      pop\n        /* \"#utility.yul\":1361:1666   */\n      swap3\n      swap2\n      pop\n      pop\n      jump\t// out\n        /* \"#utility.yul\":1672:1768   */\n    tag_55:\n        /* \"#utility.yul\":1709:1716   */\n      0x00\n        /* \"#utility.yul\":1738:1762   */\n      tag_57\n        /* \"#utility.yul\":1756:1761   */\n      dup3\n        /* \"#utility.yul\":1738:1762   */\n      tag_58\n      jump\t// in\n    tag_57:\n        /* \"#utility.yul\":1727:1762   */\n      swap1\n      pop\n        /* \"#utility.yul\":1672:1768   */\n      swap2\n      swap1\n      pop\n      jump\t// out\n        /* \"#utility.yul\":1774:1864   */\n    tag_37:\n        /* \"#utility.yul\":1808:1815   */\n      0x00\n        /* \"#utility.yul\":1851:1856   */\n      dup2\n        /* \"#utility.yul\":1844:1857   */\n      iszero\n        /* \"#utility.yul\":1837:1858   */\n      iszero\n        /* \"#utility.yul\":1826:1858   */\n      swap1\n      pop\n        /* \"#utility.yul\":1774:1864   */\n      swap2\n      swap1\n      pop\n      jump\t// out\n        /* \"#utility.yul\":1870:1996   */\n    tag_58:\n        /* \"#utility.yul\":1907:1914   */\n      0x00\n        /* \"#utility.yul\":1947:1989   */\n      0xffffffffffffffffffffffffffffffffffffffff\n        /* \"#utility.yul\":1940:1945   */\n      dup3\n        /* \"#utility.yul\":1936:1990   */\n      and\n        /* \"#utility.yul\":1925:1990   */\n      swap1\n      pop\n        /* \"#utility.yul\":1870:1996   */\n      swap2\n      swap1\n      pop\n      jump\t// out\n        /* \"#utility.yul\":2002:2079   */\n    tag_41:\n        /* \"#utility.yul\":2039:2046   */\n      0x00\n        /* \"#utility.yul\":2068:2073   */\n      dup2\n        /* \"#utility.yul\":2057:2073   */\n      swap1\n      pop\n        /* \"#utility.yul\":2002:2079   */\n      swap2\n      swap1\n      pop\n      jump\t// out\n        /* \"#utility.yul\":2085:2265   */\n    tag_54:\n        /* \"#utility.yul\":2133:2210   */\n      0x4e487b7100000000000000000000000000000000000000000000000000000000\n        /* \"#utility.yul\":2130:2131   */\n      0x00\n        /* \"#utility.yul\":2123:2211   */\n      mstore\n        /* \"#utility.yul\":2230:2234   */\n      0x11\n        /* \"#utility.yul\":2227:2228   */\n      0x04\n        /* \"#utility.yul\":2220:2235   */\n      mstore\n        /* \"#utility.yul\":2254:2258   */\n      0x24\n        /* \"#utility.yul\":2251:2252   */\n      0x00\n        /* \"#utility.yul\":2244:2259   */\n      revert\n        /* \"#utility.yul\":2394:2511   */\n    tag_32:\n        /* \"#utility.yul\":2503:2504   */\n      0x00\n        /* \"#utility.yul\":2500:2501   */\n      dup1\n        /* \"#utility.yul\":2493:2505   */\n      revert\n        /* \"#utility.yul\":2517:2639   */\n    tag_28:\n        /* \"#utility.yul\":2590:2614   */\n      tag_67\n        /* \"#utility.yul\":2608:2613   */\n      dup2\n        /* \"#utility.yul\":2590:2614   */\n      tag_55\n      jump\t// in\n    tag_67:\n        /* \"#utility.yul\":2583:2588   */\n      dup2\n        /* \"#utility.yul\":2580:2615   */\n      eq\n        /* \"#utility.yul\":2570:2633   */\n      tag_68\n      jumpi\n        /* \"#utility.yul\":2629:2630   */\n      0x00\n        /* \"#utility.yul\":2626:2627   */\n      dup1\n        /* \"#utility.yul\":2619:2631   */\n      revert\n        /* \"#utility.yul\":2570:2633   */\n    tag_68:\n        /* \"#utility.yul\":2517:2639   */\n      pop\n      jump\t// out\n\n    auxdata: 0xa26469706673582212201338e765df95d7b4a88d3df7c7c19d3bf5ab2969fe6d95156158530507e926d764736f6c63430008070033\n}\n",
				"bytecode": {
					"linkReferences": {},
					"object": "608060405234801561001057600080fd5b50610448806100206000396000f3fe608060405234801561001057600080fd5b50600436106100415760003560e01c8063169c9de0146100465780637270024114610077578063c0821da314610093575b600080fd5b610060600480360381019061005b919061029a565b6100b1565b60405161006e929190610300565b60405180910390f35b610091600480360381019061008c919061029a565b61014e565b005b61009b61027d565b6040516100a891906102e5565b60405180910390f35b6000806000808473ffffffffffffffffffffffffffffffffffffffff1673ffffffffffffffffffffffffffffffffffffffff1681526020019081526020016000206001015491506000808473ffffffffffffffffffffffffffffffffffffffff1673ffffffffffffffffffffffffffffffffffffffff16815260200190815260200160002060020160009054906101000a900460ff169050915091565b806000808373ffffffffffffffffffffffffffffffffffffffff1673ffffffffffffffffffffffffffffffffffffffff16815260200190815260200160002060000160006101000a81548173ffffffffffffffffffffffffffffffffffffffff021916908373ffffffffffffffffffffffffffffffffffffffff160217905550600a426101db9190610329565b6000808373ffffffffffffffffffffffffffffffffffffffff1673ffffffffffffffffffffffffffffffffffffffff1681526020019081526020016000206001018190555060016000808373ffffffffffffffffffffffffffffffffffffffff1673ffffffffffffffffffffffffffffffffffffffff16815260200190815260200160002060020160006101000a81548160ff02191690831515021790555050565b600042905090565b600081359050610294816103fb565b92915050565b6000602082840312156102b0576102af6103f6565b5b60006102be84828501610285565b91505092915050565b6102d081610391565b82525050565b6102df816103bd565b82525050565b60006020820190506102fa60008301846102d6565b92915050565b600060408201905061031560008301856102d6565b61032260208301846102c7565b9392505050565b6000610334826103bd565b915061033f836103bd565b9250827fffffffffffffffffffffffffffffffffffffffffffffffffffffffffffffffff03821115610374576103736103c7565b5b828201905092915050565b600061038a8261039d565b9050919050565b60008115159050919050565b600073ffffffffffffffffffffffffffffffffffffffff82169050919050565b6000819050919050565b7f4e487b7100000000000000000000000000000000000000000000000000000000600052601160045260246000fd5b600080fd5b6104048161037f565b811461040f57600080fd5b5056fea26469706673582212201338e765df95d7b4a88d3df7c7c19d3bf5ab2969fe6d95156158530507e926d764736f6c63430008070033",
					"opcodes": "PUSH1 0x80 PUSH1 0x40 MSTORE CALLVALUE DUP1 ISZERO PUSH2 0x10 JUMPI PUSH1 0x0 DUP1 REVERT JUMPDEST POP PUSH2 0x448 DUP1 PUSH2 0x20 PUSH1 0x0 CODECOPY PUSH1 0x0 RETURN INVALID PUSH1 0x80 PUSH1 0x40 MSTORE CALLVALUE DUP1 ISZERO PUSH2 0x10 JUMPI PUSH1 0x0 DUP1 REVERT JUMPDEST POP PUSH1 0x4 CALLDATASIZE LT PUSH2 0x41 JUMPI PUSH1 0x0 CALLDATALOAD PUSH1 0xE0 SHR DUP1 PUSH4 0x169C9DE0 EQ PUSH2 0x46 JUMPI DUP1 PUSH4 0x72700241 EQ PUSH2 0x77 JUMPI DUP1 PUSH4 0xC0821DA3 EQ PUSH2 0x93 JUMPI JUMPDEST PUSH1 0x0 DUP1 REVERT JUMPDEST PUSH2 0x60 PUSH1 0x4 DUP1 CALLDATASIZE SUB DUP2 ADD SWAP1 PUSH2 0x5B SWAP2 SWAP1 PUSH2 0x29A JUMP JUMPDEST PUSH2 0xB1 JUMP JUMPDEST PUSH1 0x40 MLOAD PUSH2 0x6E SWAP3 SWAP2 SWAP1 PUSH2 0x300 JUMP JUMPDEST PUSH1 0x40 MLOAD DUP1 SWAP2 SUB SWAP1 RETURN JUMPDEST PUSH2 0x91 PUSH1 0x4 DUP1 CALLDATASIZE SUB DUP2 ADD SWAP1 PUSH2 0x8C SWAP2 SWAP1 PUSH2 0x29A JUMP JUMPDEST PUSH2 0x14E JUMP JUMPDEST STOP JUMPDEST PUSH2 0x9B PUSH2 0x27D JUMP JUMPDEST PUSH1 0x40 MLOAD PUSH2 0xA8 SWAP2 SWAP1 PUSH2 0x2E5 JUMP JUMPDEST PUSH1 0x40 MLOAD DUP1 SWAP2 SUB SWAP1 RETURN JUMPDEST PUSH1 0x0 DUP1 PUSH1 0x0 DUP1 DUP5 PUSH20 0xFFFFFFFFFFFFFFFFFFFFFFFFFFFFFFFFFFFFFFFF AND PUSH20 0xFFFFFFFFFFFFFFFFFFFFFFFFFFFFFFFFFFFFFFFF AND DUP2 MSTORE PUSH1 0x20 ADD SWAP1 DUP2 MSTORE PUSH1 0x20 ADD PUSH1 0x0 KECCAK256 PUSH1 0x1 ADD SLOAD SWAP2 POP PUSH1 0x0 DUP1 DUP5 PUSH20 0xFFFFFFFFFFFFFFFFFFFFFFFFFFFFFFFFFFFFFFFF AND PUSH20 0xFFFFFFFFFFFFFFFFFFFFFFFFFFFFFFFFFFFFFFFF AND DUP2 MSTORE PUSH1 0x20 ADD SWAP1 DUP2 MSTORE PUSH1 0x20 ADD PUSH1 0x0 KECCAK256 PUSH1 0x2 ADD PUSH1 0x0 SWAP1 SLOAD SWAP1 PUSH2 0x100 EXP SWAP1 DIV PUSH1 0xFF AND SWAP1 POP SWAP2 POP SWAP2 JUMP JUMPDEST DUP1 PUSH1 0x0 DUP1 DUP4 PUSH20 0xFFFFFFFFFFFFFFFFFFFFFFFFFFFFFFFFFFFFFFFF AND PUSH20 0xFFFFFFFFFFFFFFFFFFFFFFFFFFFFFFFFFFFFFFFF AND DUP2 MSTORE PUSH1 0x20 ADD SWAP1 DUP2 MSTORE PUSH1 0x20 ADD PUSH1 0x0 KECCAK256 PUSH1 0x0 ADD PUSH1 0x0 PUSH2 0x100 EXP DUP2 SLOAD DUP2 PUSH20 0xFFFFFFFFFFFFFFFFFFFFFFFFFFFFFFFFFFFFFFFF MUL NOT AND SWAP1 DUP4 PUSH20 0xFFFFFFFFFFFFFFFFFFFFFFFFFFFFFFFFFFFFFFFF AND MUL OR SWAP1 SSTORE POP PUSH1 0xA TIMESTAMP PUSH2 0x1DB SWAP2 SWAP1 PUSH2 0x329 JUMP JUMPDEST PUSH1 0x0 DUP1 DUP4 PUSH20 0xFFFFFFFFFFFFFFFFFFFFFFFFFFFFFFFFFFFFFFFF AND PUSH20 0xFFFFFFFFFFFFFFFFFFFFFFFFFFFFFFFFFFFFFFFF AND DUP2 MSTORE PUSH1 0x20 ADD SWAP1 DUP2 MSTORE PUSH1 0x20 ADD PUSH1 0x0 KECCAK256 PUSH1 0x1 ADD DUP2 SWAP1 SSTORE POP PUSH1 0x1 PUSH1 0x0 DUP1 DUP4 PUSH20 0xFFFFFFFFFFFFFFFFFFFFFFFFFFFFFFFFFFFFFFFF AND PUSH20 0xFFFFFFFFFFFFFFFFFFFFFFFFFFFFFFFFFFFFFFFF AND DUP2 MSTORE PUSH1 0x20 ADD SWAP1 DUP2 MSTORE PUSH1 0x20 ADD PUSH1 0x0 KECCAK256 PUSH1 0x2 ADD PUSH1 0x0 PUSH2 0x100 EXP DUP2 SLOAD DUP2 PUSH1 0xFF MUL NOT AND SWAP1 DUP4 ISZERO ISZERO MUL OR SWAP1 SSTORE POP POP JUMP JUMPDEST PUSH1 0x0 TIMESTAMP SWAP1 POP SWAP1 JUMP JUMPDEST PUSH1 0x0 DUP2 CALLDATALOAD SWAP1 POP PUSH2 0x294 DUP2 PUSH2 0x3FB JUMP JUMPDEST SWAP3 SWAP2 POP POP JUMP JUMPDEST PUSH1 0x0 PUSH1 0x20 DUP3 DUP5 SUB SLT ISZERO PUSH2 0x2B0 JUMPI PUSH2 0x2AF PUSH2 0x3F6 JUMP JUMPDEST JUMPDEST PUSH1 0x0 PUSH2 0x2BE DUP5 DUP3 DUP6 ADD PUSH2 0x285 JUMP JUMPDEST SWAP2 POP POP SWAP3 SWAP2 POP POP JUMP JUMPDEST PUSH2 0x2D0 DUP2 PUSH2 0x391 JUMP JUMPDEST DUP3 MSTORE POP POP JUMP JUMPDEST PUSH2 0x2DF DUP2 PUSH2 0x3BD JUMP JUMPDEST DUP3 MSTORE POP POP JUMP JUMPDEST PUSH1 0x0 PUSH1 0x20 DUP3 ADD SWAP1 POP PUSH2 0x2FA PUSH1 0x0 DUP4 ADD DUP5 PUSH2 0x2D6 JUMP JUMPDEST SWAP3 SWAP2 POP POP JUMP JUMPDEST PUSH1 0x0 PUSH1 0x40 DUP3 ADD SWAP1 POP PUSH2 0x315 PUSH1 0x0 DUP4 ADD DUP6 PUSH2 0x2D6 JUMP JUMPDEST PUSH2 0x322 PUSH1 0x20 DUP4 ADD DUP5 PUSH2 0x2C7 JUMP JUMPDEST SWAP4 SWAP3 POP POP POP JUMP JUMPDEST PUSH1 0x0 PUSH2 0x334 DUP3 PUSH2 0x3BD JUMP JUMPDEST SWAP2 POP PUSH2 0x33F DUP4 PUSH2 0x3BD JUMP JUMPDEST SWAP3 POP DUP3 PUSH32 0xFFFFFFFFFFFFFFFFFFFFFFFFFFFFFFFFFFFFFFFFFFFFFFFFFFFFFFFFFFFFFFFF SUB DUP3 GT ISZERO PUSH2 0x374 JUMPI PUSH2 0x373 PUSH2 0x3C7 JUMP JUMPDEST JUMPDEST DUP3 DUP3 ADD SWAP1 POP SWAP3 SWAP2 POP POP JUMP JUMPDEST PUSH1 0x0 PUSH2 0x38A DUP3 PUSH2 0x39D JUMP JUMPDEST SWAP1 POP SWAP2 SWAP1 POP JUMP JUMPDEST PUSH1 0x0 DUP2 ISZERO ISZERO SWAP1 POP SWAP2 SWAP1 POP JUMP JUMPDEST PUSH1 0x0 PUSH20 0xFFFFFFFFFFFFFFFFFFFFFFFFFFFFFFFFFFFFFFFF DUP3 AND SWAP1 POP SWAP2 SWAP1 POP JUMP JUMPDEST PUSH1 0x0 DUP2 SWAP1 POP SWAP2 SWAP1 POP JUMP JUMPDEST PUSH32 0x4E487B7100000000000000000000000000000000000000000000000000000000 PUSH1 0x0 MSTORE PUSH1 0x11 PUSH1 0x4 MSTORE PUSH1 0x24 PUSH1 0x0 REVERT JUMPDEST PUSH1 0x0 DUP1 REVERT JUMPDEST PUSH2 0x404 DUP2 PUSH2 0x37F JUMP JUMPDEST DUP2 EQ PUSH2 0x40F JUMPI PUSH1 0x0 DUP1 REVERT JUMPDEST POP JUMP INVALID LOG2 PUSH5 0x6970667358 0x22 SLT KECCAK256 SGT CODESIZE 0xE7 PUSH6 0xDF95D7B4A88D RETURNDATASIZE 0xF7 0xC7 0xC1 SWAP14 EXTCODESIZE CREATE2 0xAB 0x29 PUSH10 0xFE6D95156158530507E9 0x26 0xD7 PUSH5 0x736F6C6343 STOP ADDMOD SMOD STOP CALLER "
				},
				"gasEstimates": {
					"creation": {
						"codeDepositCost": "219200",
						"executionCost": "263",
						"totalCost": "219463"
					},
					"external": {
						"getBLUByAddr(address)": "5174",
						"getCurTime()": "358",
						"setBlackList(address)": "infinite"
					}
				},
				"methodIdentifiers": {
					"getBLUByAddr(address)": "169c9de0",
					"getCurTime()": "c0821da3",
					"setBlackList(address)": "72700241"
				}
			},
			"storageLayout": {
				"storage": [
					{
						"astId": 13,
						"contract": "contracts/Judge.sol:Judge",
						"label": "blackList",
						"offset": 0,
						"slot": "0",
						"type": "t_mapping(t_address,t_struct(BlackListUser)8_storage)"
					}
				],
				"types": {
					"t_address": {
						"encoding": "inplace",
						"label": "address",
						"numberOfBytes": "20"
					},
					"t_bool": {
						"encoding": "inplace",
						"label": "bool",
						"numberOfBytes": "1"
					},
					"t_mapping(t_address,t_struct(BlackListUser)8_storage)": {
						"encoding": "mapping",
						"key": "t_address",
						"label": "mapping(address => struct Judge.BlackListUser)",
						"numberOfBytes": "32",
						"value": "t_struct(BlackListUser)8_storage"
					},
					"t_struct(BlackListUser)8_storage": {
						"encoding": "inplace",
						"label": "struct Judge.BlackListUser",
						"members": [
							{
								"astId": 3,
								"contract": "contracts/Judge.sol:Judge",
								"label": "addr",
								"offset": 0,
								"slot": "0",
								"type": "t_address"
							},
							{
								"astId": 5,
								"contract": "contracts/Judge.sol:Judge",
								"label": "EToB",
								"offset": 0,
								"slot": "1",
								"type": "t_uint256"
							},
							{
								"astId": 7,
								"contract": "contracts/Judge.sol:Judge",
								"label": "blocked",
								"offset": 0,
								"slot": "2",
								"type": "t_bool"
							}
						],
						"numberOfBytes": "96"
					},
					"t_uint256": {
						"encoding": "inplace",
						"label": "uint256",
						"numberOfBytes": "32"
					}
				}
			},
			"userdoc": {
				"kind": "user",
				"methods": {},
				"version": 1
			}
		}
	}
}