{
	"contracts/AccessControl.sol": {
		"AccessControl": {
			"abi": [
				{
					"anonymous": false,
					"inputs": [
						{
							"indexed": false,
							"internalType": "address",
							"name": "from",
							"type": "address"
						},
						{
							"indexed": false,
							"internalType": "address",
							"name": "to",
							"type": "address"
						},
						{
							"indexed": false,
							"internalType": "string",
							"name": "action",
							"type": "string"
						},
						{
							"indexed": false,
							"internalType": "string",
							"name": "result",
							"type": "string"
						}
					],
					"name": "AccessControlRet",
					"type": "event"
				},
				{
					"inputs": [
						{
							"internalType": "address",
							"name": "_objectAddr",
							"type": "address"
						},
						{
							"internalType": "string",
							"name": "action",
							"type": "string"
						}
					],
					"name": "accessControl",
					"outputs": [
						{
							"internalType": "bool",
							"name": "res",
							"type": "bool"
						}
					],
					"stateMutability": "nonpayable",
					"type": "function"
				},
				{
					"inputs": [
						{
							"internalType": "address",
							"name": "_contractAddr",
							"type": "address"
						}
					],
					"name": "init",
					"outputs": [],
					"stateMutability": "nonpayable",
					"type": "function"
				}
			],
			"devdoc": {
				"kind": "dev",
				"methods": {},
				"version": 1
			},
			"evm": {
				"assembly": "    /* \"contracts/AccessControl.sol\":98:1625  contract AccessControl {\r... */\n  mstore(0x40, 0x80)\n  callvalue\n  dup1\n  iszero\n  tag_1\n  jumpi\n  0x00\n  dup1\n  revert\ntag_1:\n  pop\n  dataSize(sub_0)\n  dup1\n  dataOffset(sub_0)\n  0x00\n  codecopy\n  0x00\n  return\nstop\n\nsub_0: assembly {\n        /* \"contracts/AccessControl.sol\":98:1625  contract AccessControl {\r... */\n      mstore(0x40, 0x80)\n      callvalue\n      dup1\n      iszero\n      tag_1\n      jumpi\n      0x00\n      dup1\n      revert\n    tag_1:\n      pop\n      jumpi(tag_2, lt(calldatasize, 0x04))\n      shr(0xe0, calldataload(0x00))\n      dup1\n      0x19ab453c\n      eq\n      tag_3\n      jumpi\n      dup1\n      0x32076e77\n      eq\n      tag_4\n      jumpi\n    tag_2:\n      0x00\n      dup1\n      revert\n        /* \"contracts/AccessControl.sol\":354:733  function init(address _contractAddr) public {\r... */\n    tag_3:\n      tag_5\n      0x04\n      dup1\n      calldatasize\n      sub\n      dup2\n      add\n      swap1\n      tag_6\n      swap2\n      swap1\n      tag_7\n      jump\t// in\n    tag_6:\n      tag_8\n      jump\t// in\n    tag_5:\n      stop\n        /* \"contracts/AccessControl.sol\":741:1616  function accessControl(address _objectAddr, string memory action) public returns (bool res) {\r... */\n    tag_4:\n      tag_9\n      0x04\n      dup1\n      calldatasize\n      sub\n      dup2\n      add\n      swap1\n      tag_10\n      swap2\n      swap1\n      tag_11\n      jump\t// in\n    tag_10:\n      tag_12\n      jump\t// in\n    tag_9:\n      mload(0x40)\n      tag_13\n      swap2\n      swap1\n      tag_14\n      jump\t// in\n    tag_13:\n      mload(0x40)\n      dup1\n      swap2\n      sub\n      swap1\n      return\n        /* \"contracts/AccessControl.sol\":354:733  function init(address _contractAddr) public {\r... */\n    tag_8:\n        /* \"contracts/AccessControl.sol\":430:443  _contractAddr */\n      dup1\n        /* \"contracts/AccessControl.sol\":409:416  manager */\n      0x00\n      dup1\n        /* \"contracts/AccessControl.sol\":409:444  manager = Management(_contractAddr) */\n      0x0100\n      exp\n      dup2\n      sload\n      dup2\n      0xffffffffffffffffffffffffffffffffffffffff\n      mul\n      not\n      and\n      swap1\n      dup4\n      0xffffffffffffffffffffffffffffffffffffffff\n      and\n      mul\n      or\n      swap1\n      sstore\n      pop\n        /* \"contracts/AccessControl.sol\":544:545  0 */\n      0x00\n        /* \"contracts/AccessControl.sol\":523:533  rightTable */\n      0x01\n        /* \"contracts/AccessControl.sol\":523:541  rightTable[\"read\"] */\n      mload(0x40)\n      tag_16\n      swap1\n      tag_17\n      jump\t// in\n    tag_16:\n      swap1\n      dup2\n      mstore\n      0x20\n      add\n      mload(0x40)\n      dup1\n      swap2\n      sub\n      swap1\n      keccak256\n        /* \"contracts/AccessControl.sol\":523:545  rightTable[\"read\"] = 0 */\n      dup2\n      swap1\n      sstore\n      pop\n        /* \"contracts/AccessControl.sol\":577:578  1 */\n      0x01\n        /* \"contracts/AccessControl.sol\":556:566  rightTable */\n      dup1\n        /* \"contracts/AccessControl.sol\":556:574  rightTable[\"open\"] */\n      mload(0x40)\n      tag_18\n      swap1\n      tag_19\n      jump\t// in\n    tag_18:\n      swap1\n      dup2\n      mstore\n      0x20\n      add\n      mload(0x40)\n      dup1\n      swap2\n      sub\n      swap1\n      keccak256\n        /* \"contracts/AccessControl.sol\":556:578  rightTable[\"open\"] = 1 */\n      dup2\n      swap1\n      sstore\n      pop\n        /* \"contracts/AccessControl.sol\":611:612  1 */\n      0x01\n        /* \"contracts/AccessControl.sol\":589:599  rightTable */\n      dup1\n        /* \"contracts/AccessControl.sol\":589:608  rightTable[\"close\"] */\n      mload(0x40)\n      tag_20\n      swap1\n      tag_21\n      jump\t// in\n    tag_20:\n      swap1\n      dup2\n      mstore\n      0x20\n      add\n      mload(0x40)\n      dup1\n      swap2\n      sub\n      swap1\n      keccak256\n        /* \"contracts/AccessControl.sol\":589:612  rightTable[\"close\"] = 1 */\n      dup2\n      swap1\n      sstore\n      pop\n        /* \"contracts/AccessControl.sol\":647:648  2 */\n      0x02\n        /* \"contracts/AccessControl.sol\":623:633  rightTable */\n      0x01\n        /* \"contracts/AccessControl.sol\":623:644  rightTable[\"restart\"] */\n      mload(0x40)\n      tag_22\n      swap1\n      tag_23\n      jump\t// in\n    tag_22:\n      swap1\n      dup2\n      mstore\n      0x20\n      add\n      mload(0x40)\n      dup1\n      swap2\n      sub\n      swap1\n      keccak256\n        /* \"contracts/AccessControl.sol\":623:648  rightTable[\"restart\"] = 2 */\n      dup2\n      swap1\n      sstore\n      pop\n        /* \"contracts/AccessControl.sol\":680:681  2 */\n      0x02\n        /* \"contracts/AccessControl.sol\":659:669  rightTable */\n      0x01\n        /* \"contracts/AccessControl.sol\":659:677  rightTable[\"kill\"] */\n      mload(0x40)\n      tag_24\n      swap1\n      tag_25\n      jump\t// in\n    tag_24:\n      swap1\n      dup2\n      mstore\n      0x20\n      add\n      mload(0x40)\n      dup1\n      swap2\n      sub\n      swap1\n      keccak256\n        /* \"contracts/AccessControl.sol\":659:681  rightTable[\"kill\"] = 2 */\n      dup2\n      swap1\n      sstore\n      pop\n        /* \"contracts/AccessControl.sol\":721:725  true */\n      0x01\n        /* \"contracts/AccessControl.sol\":692:707  blackListIpPool */\n      0x02\n        /* \"contracts/AccessControl.sol\":692:718  blackListIpPool['2.2.2.2'] */\n      mload(0x40)\n      tag_26\n      swap1\n      tag_27\n      jump\t// in\n    tag_26:\n      swap1\n      dup2\n      mstore\n      0x20\n      add\n      mload(0x40)\n      dup1\n      swap2\n      sub\n      swap1\n      keccak256\n      0x00\n        /* \"contracts/AccessControl.sol\":692:725  blackListIpPool['2.2.2.2'] = true */\n      0x0100\n      exp\n      dup2\n      sload\n      dup2\n      0xff\n      mul\n      not\n      and\n      swap1\n      dup4\n      iszero\n      iszero\n      mul\n      or\n      swap1\n      sstore\n      pop\n        /* \"contracts/AccessControl.sol\":354:733  function init(address _contractAddr) public {\r... */\n      pop\n      jump\t// out\n        /* \"contracts/AccessControl.sol\":741:1616  function accessControl(address _objectAddr, string memory action) public returns (bool res) {\r... */\n    tag_12:\n        /* \"contracts/AccessControl.sol\":823:831  bool res */\n      0x00\n        /* \"contracts/AccessControl.sol\":844:863  string memory right */\n      dup1\n        /* \"contracts/AccessControl.sol\":866:873  manager */\n      0x00\n      dup1\n      sload\n      swap1\n      0x0100\n      exp\n      swap1\n      div\n      0xffffffffffffffffffffffffffffffffffffffff\n      and\n        /* \"contracts/AccessControl.sol\":866:882  manager.getRight */\n      0xffffffffffffffffffffffffffffffffffffffff\n      and\n      0x8749774f\n        /* \"contracts/AccessControl.sol\":883:893  msg.sender */\n      caller\n        /* \"contracts/AccessControl.sol\":895:906  _objectAddr */\n      dup7\n        /* \"contracts/AccessControl.sol\":866:907  manager.getRight(msg.sender, _objectAddr) */\n      mload(0x40)\n      dup4\n      0xffffffff\n      and\n      0xe0\n      shl\n      dup2\n      mstore\n      0x04\n      add\n      tag_29\n      swap3\n      swap2\n      swap1\n      tag_30\n      jump\t// in\n    tag_29:\n      0x00\n      mload(0x40)\n      dup1\n      dup4\n      sub\n      dup2\n      dup7\n      dup1\n      extcodesize\n      iszero\n      dup1\n      iszero\n      tag_31\n      jumpi\n      0x00\n      dup1\n      revert\n    tag_31:\n      pop\n      gas\n      staticcall\n      iszero\n      dup1\n      iszero\n      tag_33\n      jumpi\n      returndatasize\n      0x00\n      dup1\n      returndatacopy\n      revert(0x00, returndatasize)\n    tag_33:\n      pop\n      pop\n      pop\n      pop\n      mload(0x40)\n      returndatasize\n      0x00\n      dup3\n      returndatacopy\n      returndatasize\n      not(0x1f)\n      0x1f\n      dup3\n      add\n      and\n      dup3\n      add\n      dup1\n      0x40\n      mstore\n      pop\n      dup2\n      add\n      swap1\n      tag_34\n      swap2\n      swap1\n      tag_35\n      jump\t// in\n    tag_34:\n        /* \"contracts/AccessControl.sol\":844:907  string memory right = manager.getRight(msg.sender, _objectAddr) */\n      swap1\n      pop\n        /* \"contracts/AccessControl.sol\":977:987  rightTable */\n      0x01\n        /* \"contracts/AccessControl.sol\":988:993  right */\n      dup2\n        /* \"contracts/AccessControl.sol\":977:994  rightTable[right] */\n      mload(0x40)\n      tag_36\n      swap2\n      swap1\n      tag_37\n      jump\t// in\n    tag_36:\n      swap1\n      dup2\n      mstore\n      0x20\n      add\n      mload(0x40)\n      dup1\n      swap2\n      sub\n      swap1\n      keccak256\n      sload\n        /* \"contracts/AccessControl.sol\":956:966  rightTable */\n      0x01\n        /* \"contracts/AccessControl.sol\":967:973  action */\n      dup5\n        /* \"contracts/AccessControl.sol\":956:974  rightTable[action] */\n      mload(0x40)\n      tag_38\n      swap2\n      swap1\n      tag_37\n      jump\t// in\n    tag_38:\n      swap1\n      dup2\n      mstore\n      0x20\n      add\n      mload(0x40)\n      dup1\n      swap2\n      sub\n      swap1\n      keccak256\n      sload\n        /* \"contracts/AccessControl.sol\":956:994  rightTable[action] < rightTable[right] */\n      slt\n        /* \"contracts/AccessControl.sol\":953:1152  if(rightTable[action] < rightTable[right]) {\r... */\n      iszero\n      tag_39\n      jumpi\n        /* \"contracts/AccessControl.sol\":1016:1089  AccessControlRet(msg.sender, _objectAddr, action, \"Unauthorized access!\") */\n      0x4393de65ee68a32d7987583b1f2c6e6aa80df7d9ad5c0661660d70dff18b9d6d\n        /* \"contracts/AccessControl.sol\":1033:1043  msg.sender */\n      caller\n        /* \"contracts/AccessControl.sol\":1045:1056  _objectAddr */\n      dup6\n        /* \"contracts/AccessControl.sol\":1058:1064  action */\n      dup6\n        /* \"contracts/AccessControl.sol\":1016:1089  AccessControlRet(msg.sender, _objectAddr, action, \"Unauthorized access!\") */\n      mload(0x40)\n      tag_40\n      swap4\n      swap3\n      swap2\n      swap1\n      tag_41\n      jump\t// in\n    tag_40:\n      mload(0x40)\n      dup1\n      swap2\n      sub\n      swap1\n      log1\n        /* \"contracts/AccessControl.sol\":1110:1115  false */\n      0x00\n        /* \"contracts/AccessControl.sol\":1104:1115  res = false */\n      swap2\n      pop\n        /* \"contracts/AccessControl.sol\":1130:1140  return res */\n      pop\n      jump(tag_28)\n        /* \"contracts/AccessControl.sol\":953:1152  if(rightTable[action] < rightTable[right]) {\r... */\n    tag_39:\n        /* \"contracts/AccessControl.sol\":1164:1186  string memory subjName */\n      0x60\n        /* \"contracts/AccessControl.sol\":1197:1217  string memory subjIP */\n      dup1\n        /* \"contracts/AccessControl.sol\":1249:1256  manager */\n      0x00\n      dup1\n      sload\n      swap1\n      0x0100\n      exp\n      swap1\n      div\n      0xffffffffffffffffffffffffffffffffffffffff\n      and\n        /* \"contracts/AccessControl.sol\":1249:1268  manager.getSubjInfo */\n      0xffffffffffffffffffffffffffffffffffffffff\n      and\n      0x9f764d16\n        /* \"contracts/AccessControl.sol\":1269:1279  msg.sender */\n      caller\n        /* \"contracts/AccessControl.sol\":1249:1280  manager.getSubjInfo(msg.sender) */\n      mload(0x40)\n      dup3\n      0xffffffff\n      and\n      0xe0\n      shl\n      dup2\n      mstore\n      0x04\n      add\n      tag_42\n      swap2\n      swap1\n      tag_43\n      jump\t// in\n    tag_42:\n      0x00\n      mload(0x40)\n      dup1\n      dup4\n      sub\n      dup2\n      dup7\n      dup1\n      extcodesize\n      iszero\n      dup1\n      iszero\n      tag_44\n      jumpi\n      0x00\n      dup1\n      revert\n    tag_44:\n      pop\n      gas\n      staticcall\n      iszero\n      dup1\n      iszero\n      tag_46\n      jumpi\n      returndatasize\n      0x00\n      dup1\n      returndatacopy\n      revert(0x00, returndatasize)\n    tag_46:\n      pop\n      pop\n      pop\n      pop\n      mload(0x40)\n      returndatasize\n      0x00\n      dup3\n      returndatacopy\n      returndatasize\n      not(0x1f)\n      0x1f\n      dup3\n      add\n      and\n      dup3\n      add\n      dup1\n      0x40\n      mstore\n      pop\n      dup2\n      add\n      swap1\n      tag_47\n      swap2\n      swap1\n      tag_48\n      jump\t// in\n    tag_47:\n        /* \"contracts/AccessControl.sol\":1228:1280  (subjName, subjIP) = manager.getSubjInfo(msg.sender) */\n      dup1\n      swap3\n      pop\n      dup2\n      swap4\n      pop\n      pop\n      pop\n        /* \"contracts/AccessControl.sol\":1325:1340  blackListIpPool */\n      0x02\n        /* \"contracts/AccessControl.sol\":1341:1347  subjIP */\n      dup2\n        /* \"contracts/AccessControl.sol\":1325:1348  blackListIpPool[subjIP] */\n      mload(0x40)\n      tag_49\n      swap2\n      swap1\n      tag_37\n      jump\t// in\n    tag_49:\n      swap1\n      dup2\n      mstore\n      0x20\n      add\n      mload(0x40)\n      dup1\n      swap2\n      sub\n      swap1\n      keccak256\n      0x00\n      swap1\n      sload\n      swap1\n      0x0100\n      exp\n      swap1\n      div\n      0xff\n      and\n        /* \"contracts/AccessControl.sol\":1322:1505  if(blackListIpPool[subjIP]) {\r... */\n      iszero\n      tag_50\n      jumpi\n        /* \"contracts/AccessControl.sol\":1370:1442  AccessControlRet(msg.sender, _objectAddr, action, \"Illegal IP address!\") */\n      0x4393de65ee68a32d7987583b1f2c6e6aa80df7d9ad5c0661660d70dff18b9d6d\n        /* \"contracts/AccessControl.sol\":1387:1397  msg.sender */\n      caller\n        /* \"contracts/AccessControl.sol\":1399:1410  _objectAddr */\n      dup8\n        /* \"contracts/AccessControl.sol\":1412:1418  action */\n      dup8\n        /* \"contracts/AccessControl.sol\":1370:1442  AccessControlRet(msg.sender, _objectAddr, action, \"Illegal IP address!\") */\n      mload(0x40)\n      tag_51\n      swap4\n      swap3\n      swap2\n      swap1\n      tag_52\n      jump\t// in\n    tag_51:\n      mload(0x40)\n      dup1\n      swap2\n      sub\n      swap1\n      log1\n        /* \"contracts/AccessControl.sol\":1463:1468  false */\n      0x00\n        /* \"contracts/AccessControl.sol\":1457:1468  res = false */\n      swap4\n      pop\n        /* \"contracts/AccessControl.sol\":1483:1493  return res */\n      pop\n      pop\n      pop\n      jump(tag_28)\n        /* \"contracts/AccessControl.sol\":1322:1505  if(blackListIpPool[subjIP]) {\r... */\n    tag_50:\n        /* \"contracts/AccessControl.sol\":1522:1587  AccessControlRet(msg.sender, _objectAddr, action, \"Access pass!\") */\n      0x4393de65ee68a32d7987583b1f2c6e6aa80df7d9ad5c0661660d70dff18b9d6d\n        /* \"contracts/AccessControl.sol\":1539:1549  msg.sender */\n      caller\n        /* \"contracts/AccessControl.sol\":1551:1562  _objectAddr */\n      dup8\n        /* \"contracts/AccessControl.sol\":1564:1570  action */\n      dup8\n        /* \"contracts/AccessControl.sol\":1522:1587  AccessControlRet(msg.sender, _objectAddr, action, \"Access pass!\") */\n      mload(0x40)\n      tag_53\n      swap4\n      swap3\n      swap2\n      swap1\n      tag_54\n      jump\t// in\n    tag_53:\n      mload(0x40)\n      dup1\n      swap2\n      sub\n      swap1\n      log1\n        /* \"contracts/AccessControl.sol\":1604:1608  true */\n      0x01\n        /* \"contracts/AccessControl.sol\":1598:1608  res = true */\n      swap4\n      pop\n        /* \"contracts/AccessControl.sol\":833:1616  {\r... */\n      pop\n      pop\n      pop\n        /* \"contracts/AccessControl.sol\":741:1616  function accessControl(address _objectAddr, string memory action) public returns (bool res) {\r... */\n    tag_28:\n      swap3\n      swap2\n      pop\n      pop\n      jump\t// out\n        /* \"#utility.yul\":7:419   */\n    tag_56:\n        /* \"#utility.yul\":85:90   */\n      0x00\n        /* \"#utility.yul\":110:176   */\n      tag_58\n        /* \"#utility.yul\":126:175   */\n      tag_59\n        /* \"#utility.yul\":168:174   */\n      dup5\n        /* \"#utility.yul\":126:175   */\n      tag_60\n      jump\t// in\n    tag_59:\n        /* \"#utility.yul\":110:176   */\n      tag_61\n      jump\t// in\n    tag_58:\n        /* \"#utility.yul\":101:176   */\n      swap1\n      pop\n        /* \"#utility.yul\":199:205   */\n      dup3\n        /* \"#utility.yul\":192:197   */\n      dup2\n        /* \"#utility.yul\":185:206   */\n      mstore\n        /* \"#utility.yul\":237:241   */\n      0x20\n        /* \"#utility.yul\":230:235   */\n      dup2\n        /* \"#utility.yul\":226:242   */\n      add\n        /* \"#utility.yul\":275:278   */\n      dup5\n        /* \"#utility.yul\":266:272   */\n      dup5\n        /* \"#utility.yul\":261:264   */\n      dup5\n        /* \"#utility.yul\":257:273   */\n      add\n        /* \"#utility.yul\":254:279   */\n      gt\n        /* \"#utility.yul\":251:363   */\n      iszero\n      tag_62\n      jumpi\n        /* \"#utility.yul\":282:361   */\n      tag_63\n      tag_64\n      jump\t// in\n    tag_63:\n        /* \"#utility.yul\":251:363   */\n    tag_62:\n        /* \"#utility.yul\":372:413   */\n      tag_65\n        /* \"#utility.yul\":406:412   */\n      dup5\n        /* \"#utility.yul\":401:404   */\n      dup3\n        /* \"#utility.yul\":396:399   */\n      dup6\n        /* \"#utility.yul\":372:413   */\n      tag_66\n      jump\t// in\n    tag_65:\n        /* \"#utility.yul\":91:419   */\n      pop\n        /* \"#utility.yul\":7:419   */\n      swap4\n      swap3\n      pop\n      pop\n      pop\n      jump\t// out\n        /* \"#utility.yul\":425:846   */\n    tag_67:\n        /* \"#utility.yul\":514:519   */\n      0x00\n        /* \"#utility.yul\":539:605   */\n      tag_69\n        /* \"#utility.yul\":555:604   */\n      tag_70\n        /* \"#utility.yul\":597:603   */\n      dup5\n        /* \"#utility.yul\":555:604   */\n      tag_60\n      jump\t// in\n    tag_70:\n        /* \"#utility.yul\":539:605   */\n      tag_61\n      jump\t// in\n    tag_69:\n        /* \"#utility.yul\":530:605   */\n      swap1\n      pop\n        /* \"#utility.yul\":628:634   */\n      dup3\n        /* \"#utility.yul\":621:626   */\n      dup2\n        /* \"#utility.yul\":614:635   */\n      mstore\n        /* \"#utility.yul\":666:670   */\n      0x20\n        /* \"#utility.yul\":659:664   */\n      dup2\n        /* \"#utility.yul\":655:671   */\n      add\n        /* \"#utility.yul\":704:707   */\n      dup5\n        /* \"#utility.yul\":695:701   */\n      dup5\n        /* \"#utility.yul\":690:693   */\n      dup5\n        /* \"#utility.yul\":686:702   */\n      add\n        /* \"#utility.yul\":683:708   */\n      gt\n        /* \"#utility.yul\":680:792   */\n      iszero\n      tag_71\n      jumpi\n        /* \"#utility.yul\":711:790   */\n      tag_72\n      tag_64\n      jump\t// in\n    tag_72:\n        /* \"#utility.yul\":680:792   */\n    tag_71:\n        /* \"#utility.yul\":801:840   */\n      tag_73\n        /* \"#utility.yul\":833:839   */\n      dup5\n        /* \"#utility.yul\":828:831   */\n      dup3\n        /* \"#utility.yul\":823:826   */\n      dup6\n        /* \"#utility.yul\":801:840   */\n      tag_74\n      jump\t// in\n    tag_73:\n        /* \"#utility.yul\":520:846   */\n      pop\n        /* \"#utility.yul\":425:846   */\n      swap4\n      swap3\n      pop\n      pop\n      pop\n      jump\t// out\n        /* \"#utility.yul\":852:991   */\n    tag_75:\n        /* \"#utility.yul\":898:903   */\n      0x00\n        /* \"#utility.yul\":936:942   */\n      dup2\n        /* \"#utility.yul\":923:943   */\n      calldataload\n        /* \"#utility.yul\":914:943   */\n      swap1\n      pop\n        /* \"#utility.yul\":952:985   */\n      tag_77\n        /* \"#utility.yul\":979:984   */\n      dup2\n        /* \"#utility.yul\":952:985   */\n      tag_78\n      jump\t// in\n    tag_77:\n        /* \"#utility.yul\":852:991   */\n      swap3\n      swap2\n      pop\n      pop\n      jump\t// out\n        /* \"#utility.yul\":1011:1351   */\n    tag_79:\n        /* \"#utility.yul\":1067:1072   */\n      0x00\n        /* \"#utility.yul\":1116:1119   */\n      dup3\n        /* \"#utility.yul\":1109:1113   */\n      0x1f\n        /* \"#utility.yul\":1101:1107   */\n      dup4\n        /* \"#utility.yul\":1097:1114   */\n      add\n        /* \"#utility.yul\":1093:1120   */\n      slt\n        /* \"#utility.yul\":1083:1205   */\n      tag_81\n      jumpi\n        /* \"#utility.yul\":1124:1203   */\n      tag_82\n      tag_83\n      jump\t// in\n    tag_82:\n        /* \"#utility.yul\":1083:1205   */\n    tag_81:\n        /* \"#utility.yul\":1241:1247   */\n      dup2\n        /* \"#utility.yul\":1228:1248   */\n      calldataload\n        /* \"#utility.yul\":1266:1345   */\n      tag_84\n        /* \"#utility.yul\":1341:1344   */\n      dup5\n        /* \"#utility.yul\":1333:1339   */\n      dup3\n        /* \"#utility.yul\":1326:1330   */\n      0x20\n        /* \"#utility.yul\":1318:1324   */\n      dup7\n        /* \"#utility.yul\":1314:1331   */\n      add\n        /* \"#utility.yul\":1266:1345   */\n      tag_56\n      jump\t// in\n    tag_84:\n        /* \"#utility.yul\":1257:1345   */\n      swap2\n      pop\n        /* \"#utility.yul\":1073:1351   */\n      pop\n        /* \"#utility.yul\":1011:1351   */\n      swap3\n      swap2\n      pop\n      pop\n      jump\t// out\n        /* \"#utility.yul\":1371:1726   */\n    tag_85:\n        /* \"#utility.yul\":1438:1443   */\n      0x00\n        /* \"#utility.yul\":1487:1490   */\n      dup3\n        /* \"#utility.yul\":1480:1484   */\n      0x1f\n        /* \"#utility.yul\":1472:1478   */\n      dup4\n        /* \"#utility.yul\":1468:1485   */\n      add\n        /* \"#utility.yul\":1464:1491   */\n      slt\n        /* \"#utility.yul\":1454:1576   */\n      tag_87\n      jumpi\n        /* \"#utility.yul\":1495:1574   */\n      tag_88\n      tag_83\n      jump\t// in\n    tag_88:\n        /* \"#utility.yul\":1454:1576   */\n    tag_87:\n        /* \"#utility.yul\":1605:1611   */\n      dup2\n        /* \"#utility.yul\":1599:1612   */\n      mload\n        /* \"#utility.yul\":1630:1720   */\n      tag_89\n        /* \"#utility.yul\":1716:1719   */\n      dup5\n        /* \"#utility.yul\":1708:1714   */\n      dup3\n        /* \"#utility.yul\":1701:1705   */\n      0x20\n        /* \"#utility.yul\":1693:1699   */\n      dup7\n        /* \"#utility.yul\":1689:1706   */\n      add\n        /* \"#utility.yul\":1630:1720   */\n      tag_67\n      jump\t// in\n    tag_89:\n        /* \"#utility.yul\":1621:1720   */\n      swap2\n      pop\n        /* \"#utility.yul\":1444:1726   */\n      pop\n        /* \"#utility.yul\":1371:1726   */\n      swap3\n      swap2\n      pop\n      pop\n      jump\t// out\n        /* \"#utility.yul\":1732:2061   */\n    tag_7:\n        /* \"#utility.yul\":1791:1797   */\n      0x00\n        /* \"#utility.yul\":1840:1842   */\n      0x20\n        /* \"#utility.yul\":1828:1837   */\n      dup3\n        /* \"#utility.yul\":1819:1826   */\n      dup5\n        /* \"#utility.yul\":1815:1838   */\n      sub\n        /* \"#utility.yul\":1811:1843   */\n      slt\n        /* \"#utility.yul\":1808:1927   */\n      iszero\n      tag_91\n      jumpi\n        /* \"#utility.yul\":1846:1925   */\n      tag_92\n      tag_93\n      jump\t// in\n    tag_92:\n        /* \"#utility.yul\":1808:1927   */\n    tag_91:\n        /* \"#utility.yul\":1966:1967   */\n      0x00\n        /* \"#utility.yul\":1991:2044   */\n      tag_94\n        /* \"#utility.yul\":2036:2043   */\n      dup5\n        /* \"#utility.yul\":2027:2033   */\n      dup3\n        /* \"#utility.yul\":2016:2025   */\n      dup6\n        /* \"#utility.yul\":2012:2034   */\n      add\n        /* \"#utility.yul\":1991:2044   */\n      tag_75\n      jump\t// in\n    tag_94:\n        /* \"#utility.yul\":1981:2044   */\n      swap2\n      pop\n        /* \"#utility.yul\":1937:2054   */\n      pop\n        /* \"#utility.yul\":1732:2061   */\n      swap3\n      swap2\n      pop\n      pop\n      jump\t// out\n        /* \"#utility.yul\":2067:2721   */\n    tag_11:\n        /* \"#utility.yul\":2145:2151   */\n      0x00\n        /* \"#utility.yul\":2153:2159   */\n      dup1\n        /* \"#utility.yul\":2202:2204   */\n      0x40\n        /* \"#utility.yul\":2190:2199   */\n      dup4\n        /* \"#utility.yul\":2181:2188   */\n      dup6\n        /* \"#utility.yul\":2177:2200   */\n      sub\n        /* \"#utility.yul\":2173:2205   */\n      slt\n        /* \"#utility.yul\":2170:2289   */\n      iszero\n      tag_96\n      jumpi\n        /* \"#utility.yul\":2208:2287   */\n      tag_97\n      tag_93\n      jump\t// in\n    tag_97:\n        /* \"#utility.yul\":2170:2289   */\n    tag_96:\n        /* \"#utility.yul\":2328:2329   */\n      0x00\n        /* \"#utility.yul\":2353:2406   */\n      tag_98\n        /* \"#utility.yul\":2398:2405   */\n      dup6\n        /* \"#utility.yul\":2389:2395   */\n      dup3\n        /* \"#utility.yul\":2378:2387   */\n      dup7\n        /* \"#utility.yul\":2374:2396   */\n      add\n        /* \"#utility.yul\":2353:2406   */\n      tag_75\n      jump\t// in\n    tag_98:\n        /* \"#utility.yul\":2343:2406   */\n      swap3\n      pop\n        /* \"#utility.yul\":2299:2416   */\n      pop\n        /* \"#utility.yul\":2483:2485   */\n      0x20\n        /* \"#utility.yul\":2472:2481   */\n      dup4\n        /* \"#utility.yul\":2468:2486   */\n      add\n        /* \"#utility.yul\":2455:2487   */\n      calldataload\n        /* \"#utility.yul\":2514:2532   */\n      0xffffffffffffffff\n        /* \"#utility.yul\":2506:2512   */\n      dup2\n        /* \"#utility.yul\":2503:2533   */\n      gt\n        /* \"#utility.yul\":2500:2617   */\n      iszero\n      tag_99\n      jumpi\n        /* \"#utility.yul\":2536:2615   */\n      tag_100\n      tag_101\n      jump\t// in\n    tag_100:\n        /* \"#utility.yul\":2500:2617   */\n    tag_99:\n        /* \"#utility.yul\":2641:2704   */\n      tag_102\n        /* \"#utility.yul\":2696:2703   */\n      dup6\n        /* \"#utility.yul\":2687:2693   */\n      dup3\n        /* \"#utility.yul\":2676:2685   */\n      dup7\n        /* \"#utility.yul\":2672:2694   */\n      add\n        /* \"#utility.yul\":2641:2704   */\n      tag_79\n      jump\t// in\n    tag_102:\n        /* \"#utility.yul\":2631:2704   */\n      swap2\n      pop\n        /* \"#utility.yul\":2426:2714   */\n      pop\n        /* \"#utility.yul\":2067:2721   */\n      swap3\n      pop\n      swap3\n      swap1\n      pop\n      jump\t// out\n        /* \"#utility.yul\":2727:3251   */\n    tag_35:\n        /* \"#utility.yul\":2807:2813   */\n      0x00\n        /* \"#utility.yul\":2856:2858   */\n      0x20\n        /* \"#utility.yul\":2844:2853   */\n      dup3\n        /* \"#utility.yul\":2835:2842   */\n      dup5\n        /* \"#utility.yul\":2831:2854   */\n      sub\n        /* \"#utility.yul\":2827:2859   */\n      slt\n        /* \"#utility.yul\":2824:2943   */\n      iszero\n      tag_104\n      jumpi\n        /* \"#utility.yul\":2862:2941   */\n      tag_105\n      tag_93\n      jump\t// in\n    tag_105:\n        /* \"#utility.yul\":2824:2943   */\n    tag_104:\n        /* \"#utility.yul\":3003:3004   */\n      0x00\n        /* \"#utility.yul\":2992:3001   */\n      dup3\n        /* \"#utility.yul\":2988:3005   */\n      add\n        /* \"#utility.yul\":2982:3006   */\n      mload\n        /* \"#utility.yul\":3033:3051   */\n      0xffffffffffffffff\n        /* \"#utility.yul\":3025:3031   */\n      dup2\n        /* \"#utility.yul\":3022:3052   */\n      gt\n        /* \"#utility.yul\":3019:3136   */\n      iszero\n      tag_106\n      jumpi\n        /* \"#utility.yul\":3055:3134   */\n      tag_107\n      tag_101\n      jump\t// in\n    tag_107:\n        /* \"#utility.yul\":3019:3136   */\n    tag_106:\n        /* \"#utility.yul\":3160:3234   */\n      tag_108\n        /* \"#utility.yul\":3226:3233   */\n      dup5\n        /* \"#utility.yul\":3217:3223   */\n      dup3\n        /* \"#utility.yul\":3206:3215   */\n      dup6\n        /* \"#utility.yul\":3202:3224   */\n      add\n        /* \"#utility.yul\":3160:3234   */\n      tag_85\n      jump\t// in\n    tag_108:\n        /* \"#utility.yul\":3150:3234   */\n      swap2\n      pop\n        /* \"#utility.yul\":2953:3244   */\n      pop\n        /* \"#utility.yul\":2727:3251   */\n      swap3\n      swap2\n      pop\n      pop\n      jump\t// out\n        /* \"#utility.yul\":3257:4110   */\n    tag_48:\n        /* \"#utility.yul\":3356:3362   */\n      0x00\n        /* \"#utility.yul\":3364:3370   */\n      dup1\n        /* \"#utility.yul\":3413:3415   */\n      0x40\n        /* \"#utility.yul\":3401:3410   */\n      dup4\n        /* \"#utility.yul\":3392:3399   */\n      dup6\n        /* \"#utility.yul\":3388:3411   */\n      sub\n        /* \"#utility.yul\":3384:3416   */\n      slt\n        /* \"#utility.yul\":3381:3500   */\n      iszero\n      tag_110\n      jumpi\n        /* \"#utility.yul\":3419:3498   */\n      tag_111\n      tag_93\n      jump\t// in\n    tag_111:\n        /* \"#utility.yul\":3381:3500   */\n    tag_110:\n        /* \"#utility.yul\":3560:3561   */\n      0x00\n        /* \"#utility.yul\":3549:3558   */\n      dup4\n        /* \"#utility.yul\":3545:3562   */\n      add\n        /* \"#utility.yul\":3539:3563   */\n      mload\n        /* \"#utility.yul\":3590:3608   */\n      0xffffffffffffffff\n        /* \"#utility.yul\":3582:3588   */\n      dup2\n        /* \"#utility.yul\":3579:3609   */\n      gt\n        /* \"#utility.yul\":3576:3693   */\n      iszero\n      tag_112\n      jumpi\n        /* \"#utility.yul\":3612:3691   */\n      tag_113\n      tag_101\n      jump\t// in\n    tag_113:\n        /* \"#utility.yul\":3576:3693   */\n    tag_112:\n        /* \"#utility.yul\":3717:3791   */\n      tag_114\n        /* \"#utility.yul\":3783:3790   */\n      dup6\n        /* \"#utility.yul\":3774:3780   */\n      dup3\n        /* \"#utility.yul\":3763:3772   */\n      dup7\n        /* \"#utility.yul\":3759:3781   */\n      add\n        /* \"#utility.yul\":3717:3791   */\n      tag_85\n      jump\t// in\n    tag_114:\n        /* \"#utility.yul\":3707:3791   */\n      swap3\n      pop\n        /* \"#utility.yul\":3510:3801   */\n      pop\n        /* \"#utility.yul\":3861:3863   */\n      0x20\n        /* \"#utility.yul\":3850:3859   */\n      dup4\n        /* \"#utility.yul\":3846:3864   */\n      add\n        /* \"#utility.yul\":3840:3865   */\n      mload\n        /* \"#utility.yul\":3892:3910   */\n      0xffffffffffffffff\n        /* \"#utility.yul\":3884:3890   */\n      dup2\n        /* \"#utility.yul\":3881:3911   */\n      gt\n        /* \"#utility.yul\":3878:3995   */\n      iszero\n      tag_115\n      jumpi\n        /* \"#utility.yul\":3914:3993   */\n      tag_116\n      tag_101\n      jump\t// in\n    tag_116:\n        /* \"#utility.yul\":3878:3995   */\n    tag_115:\n        /* \"#utility.yul\":4019:4093   */\n      tag_117\n        /* \"#utility.yul\":4085:4092   */\n      dup6\n        /* \"#utility.yul\":4076:4082   */\n      dup3\n        /* \"#utility.yul\":4065:4074   */\n      dup7\n        /* \"#utility.yul\":4061:4083   */\n      add\n        /* \"#utility.yul\":4019:4093   */\n      tag_85\n      jump\t// in\n    tag_117:\n        /* \"#utility.yul\":4009:4093   */\n      swap2\n      pop\n        /* \"#utility.yul\":3811:4103   */\n      pop\n        /* \"#utility.yul\":3257:4110   */\n      swap3\n      pop\n      swap3\n      swap1\n      pop\n      jump\t// out\n        /* \"#utility.yul\":4116:4234   */\n    tag_118:\n        /* \"#utility.yul\":4203:4227   */\n      tag_120\n        /* \"#utility.yul\":4221:4226   */\n      dup2\n        /* \"#utility.yul\":4203:4227   */\n      tag_121\n      jump\t// in\n    tag_120:\n        /* \"#utility.yul\":4198:4201   */\n      dup3\n        /* \"#utility.yul\":4191:4228   */\n      mstore\n        /* \"#utility.yul\":4116:4234   */\n      pop\n      pop\n      jump\t// out\n        /* \"#utility.yul\":4240:4349   */\n    tag_122:\n        /* \"#utility.yul\":4321:4342   */\n      tag_124\n        /* \"#utility.yul\":4336:4341   */\n      dup2\n        /* \"#utility.yul\":4321:4342   */\n      tag_125\n      jump\t// in\n    tag_124:\n        /* \"#utility.yul\":4316:4319   */\n      dup3\n        /* \"#utility.yul\":4309:4343   */\n      mstore\n        /* \"#utility.yul\":4240:4349   */\n      pop\n      pop\n      jump\t// out\n        /* \"#utility.yul\":4355:4719   */\n    tag_126:\n        /* \"#utility.yul\":4443:4446   */\n      0x00\n        /* \"#utility.yul\":4471:4510   */\n      tag_128\n        /* \"#utility.yul\":4504:4509   */\n      dup3\n        /* \"#utility.yul\":4471:4510   */\n      tag_129\n      jump\t// in\n    tag_128:\n        /* \"#utility.yul\":4526:4597   */\n      tag_130\n        /* \"#utility.yul\":4590:4596   */\n      dup2\n        /* \"#utility.yul\":4585:4588   */\n      dup6\n        /* \"#utility.yul\":4526:4597   */\n      tag_131\n      jump\t// in\n    tag_130:\n        /* \"#utility.yul\":4519:4597   */\n      swap4\n      pop\n        /* \"#utility.yul\":4606:4658   */\n      tag_132\n        /* \"#utility.yul\":4651:4657   */\n      dup2\n        /* \"#utility.yul\":4646:4649   */\n      dup6\n        /* \"#utility.yul\":4639:4643   */\n      0x20\n        /* \"#utility.yul\":4632:4637   */\n      dup7\n        /* \"#utility.yul\":4628:4644   */\n      add\n        /* \"#utility.yul\":4606:4658   */\n      tag_74\n      jump\t// in\n    tag_132:\n        /* \"#utility.yul\":4683:4712   */\n      tag_133\n        /* \"#utility.yul\":4705:4711   */\n      dup2\n        /* \"#utility.yul\":4683:4712   */\n      tag_134\n      jump\t// in\n    tag_133:\n        /* \"#utility.yul\":4678:4681   */\n      dup5\n        /* \"#utility.yul\":4674:4713   */\n      add\n        /* \"#utility.yul\":4667:4713   */\n      swap2\n      pop\n        /* \"#utility.yul\":4447:4719   */\n      pop\n        /* \"#utility.yul\":4355:4719   */\n      swap3\n      swap2\n      pop\n      pop\n      jump\t// out\n        /* \"#utility.yul\":4725:5102   */\n    tag_135:\n        /* \"#utility.yul\":4831:4834   */\n      0x00\n        /* \"#utility.yul\":4859:4898   */\n      tag_137\n        /* \"#utility.yul\":4892:4897   */\n      dup3\n        /* \"#utility.yul\":4859:4898   */\n      tag_129\n      jump\t// in\n    tag_137:\n        /* \"#utility.yul\":4914:5003   */\n      tag_138\n        /* \"#utility.yul\":4996:5002   */\n      dup2\n        /* \"#utility.yul\":4991:4994   */\n      dup6\n        /* \"#utility.yul\":4914:5003   */\n      tag_139\n      jump\t// in\n    tag_138:\n        /* \"#utility.yul\":4907:5003   */\n      swap4\n      pop\n        /* \"#utility.yul\":5012:5064   */\n      tag_140\n        /* \"#utility.yul\":5057:5063   */\n      dup2\n        /* \"#utility.yul\":5052:5055   */\n      dup6\n        /* \"#utility.yul\":5045:5049   */\n      0x20\n        /* \"#utility.yul\":5038:5043   */\n      dup7\n        /* \"#utility.yul\":5034:5050   */\n      add\n        /* \"#utility.yul\":5012:5064   */\n      tag_74\n      jump\t// in\n    tag_140:\n        /* \"#utility.yul\":5089:5095   */\n      dup1\n        /* \"#utility.yul\":5084:5087   */\n      dup5\n        /* \"#utility.yul\":5080:5096   */\n      add\n        /* \"#utility.yul\":5073:5096   */\n      swap2\n      pop\n        /* \"#utility.yul\":4835:5102   */\n      pop\n        /* \"#utility.yul\":4725:5102   */\n      swap3\n      swap2\n      pop\n      pop\n      jump\t// out\n        /* \"#utility.yul\":5108:5508   */\n    tag_141:\n        /* \"#utility.yul\":5268:5271   */\n      0x00\n        /* \"#utility.yul\":5289:5373   */\n      tag_143\n        /* \"#utility.yul\":5371:5372   */\n      0x05\n        /* \"#utility.yul\":5366:5369   */\n      dup4\n        /* \"#utility.yul\":5289:5373   */\n      tag_139\n      jump\t// in\n    tag_143:\n        /* \"#utility.yul\":5282:5373   */\n      swap2\n      pop\n        /* \"#utility.yul\":5382:5475   */\n      tag_144\n        /* \"#utility.yul\":5471:5474   */\n      dup3\n        /* \"#utility.yul\":5382:5475   */\n      tag_145\n      jump\t// in\n    tag_144:\n        /* \"#utility.yul\":5500:5501   */\n      0x05\n        /* \"#utility.yul\":5495:5498   */\n      dup3\n        /* \"#utility.yul\":5491:5502   */\n      add\n        /* \"#utility.yul\":5484:5502   */\n      swap1\n      pop\n        /* \"#utility.yul\":5108:5508   */\n      swap2\n      swap1\n      pop\n      jump\t// out\n        /* \"#utility.yul\":5514:5914   */\n    tag_146:\n        /* \"#utility.yul\":5674:5677   */\n      0x00\n        /* \"#utility.yul\":5695:5779   */\n      tag_148\n        /* \"#utility.yul\":5777:5778   */\n      0x07\n        /* \"#utility.yul\":5772:5775   */\n      dup4\n        /* \"#utility.yul\":5695:5779   */\n      tag_139\n      jump\t// in\n    tag_148:\n        /* \"#utility.yul\":5688:5779   */\n      swap2\n      pop\n        /* \"#utility.yul\":5788:5881   */\n      tag_149\n        /* \"#utility.yul\":5877:5880   */\n      dup3\n        /* \"#utility.yul\":5788:5881   */\n      tag_150\n      jump\t// in\n    tag_149:\n        /* \"#utility.yul\":5906:5907   */\n      0x07\n        /* \"#utility.yul\":5901:5904   */\n      dup3\n        /* \"#utility.yul\":5897:5908   */\n      add\n        /* \"#utility.yul\":5890:5908   */\n      swap1\n      pop\n        /* \"#utility.yul\":5514:5914   */\n      swap2\n      swap1\n      pop\n      jump\t// out\n        /* \"#utility.yul\":5920:6286   */\n    tag_151:\n        /* \"#utility.yul\":6062:6065   */\n      0x00\n        /* \"#utility.yul\":6083:6150   */\n      tag_153\n        /* \"#utility.yul\":6147:6149   */\n      0x0c\n        /* \"#utility.yul\":6142:6145   */\n      dup4\n        /* \"#utility.yul\":6083:6150   */\n      tag_131\n      jump\t// in\n    tag_153:\n        /* \"#utility.yul\":6076:6150   */\n      swap2\n      pop\n        /* \"#utility.yul\":6159:6252   */\n      tag_154\n        /* \"#utility.yul\":6248:6251   */\n      dup3\n        /* \"#utility.yul\":6159:6252   */\n      tag_155\n      jump\t// in\n    tag_154:\n        /* \"#utility.yul\":6277:6279   */\n      0x20\n        /* \"#utility.yul\":6272:6275   */\n      dup3\n        /* \"#utility.yul\":6268:6280   */\n      add\n        /* \"#utility.yul\":6261:6280   */\n      swap1\n      pop\n        /* \"#utility.yul\":5920:6286   */\n      swap2\n      swap1\n      pop\n      jump\t// out\n        /* \"#utility.yul\":6292:6692   */\n    tag_156:\n        /* \"#utility.yul\":6452:6455   */\n      0x00\n        /* \"#utility.yul\":6473:6557   */\n      tag_158\n        /* \"#utility.yul\":6555:6556   */\n      0x07\n        /* \"#utility.yul\":6550:6553   */\n      dup4\n        /* \"#utility.yul\":6473:6557   */\n      tag_139\n      jump\t// in\n    tag_158:\n        /* \"#utility.yul\":6466:6557   */\n      swap2\n      pop\n        /* \"#utility.yul\":6566:6659   */\n      tag_159\n        /* \"#utility.yul\":6655:6658   */\n      dup3\n        /* \"#utility.yul\":6566:6659   */\n      tag_160\n      jump\t// in\n    tag_159:\n        /* \"#utility.yul\":6684:6685   */\n      0x07\n        /* \"#utility.yul\":6679:6682   */\n      dup3\n        /* \"#utility.yul\":6675:6686   */\n      add\n        /* \"#utility.yul\":6668:6686   */\n      swap1\n      pop\n        /* \"#utility.yul\":6292:6692   */\n      swap2\n      swap1\n      pop\n      jump\t// out\n        /* \"#utility.yul\":6698:7064   */\n    tag_161:\n        /* \"#utility.yul\":6840:6843   */\n      0x00\n        /* \"#utility.yul\":6861:6928   */\n      tag_163\n        /* \"#utility.yul\":6925:6927   */\n      0x13\n        /* \"#utility.yul\":6920:6923   */\n      dup4\n        /* \"#utility.yul\":6861:6928   */\n      tag_131\n      jump\t// in\n    tag_163:\n        /* \"#utility.yul\":6854:6928   */\n      swap2\n      pop\n        /* \"#utility.yul\":6937:7030   */\n      tag_164\n        /* \"#utility.yul\":7026:7029   */\n      dup3\n        /* \"#utility.yul\":6937:7030   */\n      tag_165\n      jump\t// in\n    tag_164:\n        /* \"#utility.yul\":7055:7057   */\n      0x20\n        /* \"#utility.yul\":7050:7053   */\n      dup3\n        /* \"#utility.yul\":7046:7058   */\n      add\n        /* \"#utility.yul\":7039:7058   */\n      swap1\n      pop\n        /* \"#utility.yul\":6698:7064   */\n      swap2\n      swap1\n      pop\n      jump\t// out\n        /* \"#utility.yul\":7070:7470   */\n    tag_166:\n        /* \"#utility.yul\":7230:7233   */\n      0x00\n        /* \"#utility.yul\":7251:7335   */\n      tag_168\n        /* \"#utility.yul\":7333:7334   */\n      0x04\n        /* \"#utility.yul\":7328:7331   */\n      dup4\n        /* \"#utility.yul\":7251:7335   */\n      tag_139\n      jump\t// in\n    tag_168:\n        /* \"#utility.yul\":7244:7335   */\n      swap2\n      pop\n        /* \"#utility.yul\":7344:7437   */\n      tag_169\n        /* \"#utility.yul\":7433:7436   */\n      dup3\n        /* \"#utility.yul\":7344:7437   */\n      tag_170\n      jump\t// in\n    tag_169:\n        /* \"#utility.yul\":7462:7463   */\n      0x04\n        /* \"#utility.yul\":7457:7460   */\n      dup3\n        /* \"#utility.yul\":7453:7464   */\n      add\n        /* \"#utility.yul\":7446:7464   */\n      swap1\n      pop\n        /* \"#utility.yul\":7070:7470   */\n      swap2\n      swap1\n      pop\n      jump\t// out\n        /* \"#utility.yul\":7476:7876   */\n    tag_171:\n        /* \"#utility.yul\":7636:7639   */\n      0x00\n        /* \"#utility.yul\":7657:7741   */\n      tag_173\n        /* \"#utility.yul\":7739:7740   */\n      0x04\n        /* \"#utility.yul\":7734:7737   */\n      dup4\n        /* \"#utility.yul\":7657:7741   */\n      tag_139\n      jump\t// in\n    tag_173:\n        /* \"#utility.yul\":7650:7741   */\n      swap2\n      pop\n        /* \"#utility.yul\":7750:7843   */\n      tag_174\n        /* \"#utility.yul\":7839:7842   */\n      dup3\n        /* \"#utility.yul\":7750:7843   */\n      tag_175\n      jump\t// in\n    tag_174:\n        /* \"#utility.yul\":7868:7869   */\n      0x04\n        /* \"#utility.yul\":7863:7866   */\n      dup3\n        /* \"#utility.yul\":7859:7870   */\n      add\n        /* \"#utility.yul\":7852:7870   */\n      swap1\n      pop\n        /* \"#utility.yul\":7476:7876   */\n      swap2\n      swap1\n      pop\n      jump\t// out\n        /* \"#utility.yul\":7882:8248   */\n    tag_176:\n        /* \"#utility.yul\":8024:8027   */\n      0x00\n        /* \"#utility.yul\":8045:8112   */\n      tag_178\n        /* \"#utility.yul\":8109:8111   */\n      0x14\n        /* \"#utility.yul\":8104:8107   */\n      dup4\n        /* \"#utility.yul\":8045:8112   */\n      tag_131\n      jump\t// in\n    tag_178:\n        /* \"#utility.yul\":8038:8112   */\n      swap2\n      pop\n        /* \"#utility.yul\":8121:8214   */\n      tag_179\n        /* \"#utility.yul\":8210:8213   */\n      dup3\n        /* \"#utility.yul\":8121:8214   */\n      tag_180\n      jump\t// in\n    tag_179:\n        /* \"#utility.yul\":8239:8241   */\n      0x20\n        /* \"#utility.yul\":8234:8237   */\n      dup3\n        /* \"#utility.yul\":8230:8242   */\n      add\n        /* \"#utility.yul\":8223:8242   */\n      swap1\n      pop\n        /* \"#utility.yul\":7882:8248   */\n      swap2\n      swap1\n      pop\n      jump\t// out\n        /* \"#utility.yul\":8254:8654   */\n    tag_181:\n        /* \"#utility.yul\":8414:8417   */\n      0x00\n        /* \"#utility.yul\":8435:8519   */\n      tag_183\n        /* \"#utility.yul\":8517:8518   */\n      0x04\n        /* \"#utility.yul\":8512:8515   */\n      dup4\n        /* \"#utility.yul\":8435:8519   */\n      tag_139\n      jump\t// in\n    tag_183:\n        /* \"#utility.yul\":8428:8519   */\n      swap2\n      pop\n        /* \"#utility.yul\":8528:8621   */\n      tag_184\n        /* \"#utility.yul\":8617:8620   */\n      dup3\n        /* \"#utility.yul\":8528:8621   */\n      tag_185\n      jump\t// in\n    tag_184:\n        /* \"#utility.yul\":8646:8647   */\n      0x04\n        /* \"#utility.yul\":8641:8644   */\n      dup3\n        /* \"#utility.yul\":8637:8648   */\n      add\n        /* \"#utility.yul\":8630:8648   */\n      swap1\n      pop\n        /* \"#utility.yul\":8254:8654   */\n      swap2\n      swap1\n      pop\n      jump\t// out\n        /* \"#utility.yul\":8660:8935   */\n    tag_37:\n        /* \"#utility.yul\":8792:8795   */\n      0x00\n        /* \"#utility.yul\":8814:8909   */\n      tag_187\n        /* \"#utility.yul\":8905:8908   */\n      dup3\n        /* \"#utility.yul\":8896:8902   */\n      dup5\n        /* \"#utility.yul\":8814:8909   */\n      tag_135\n      jump\t// in\n    tag_187:\n        /* \"#utility.yul\":8807:8909   */\n      swap2\n      pop\n        /* \"#utility.yul\":8926:8929   */\n      dup2\n        /* \"#utility.yul\":8919:8929   */\n      swap1\n      pop\n        /* \"#utility.yul\":8660:8935   */\n      swap3\n      swap2\n      pop\n      pop\n      jump\t// out\n        /* \"#utility.yul\":8941:9322   */\n    tag_21:\n        /* \"#utility.yul\":9126:9129   */\n      0x00\n        /* \"#utility.yul\":9148:9296   */\n      tag_189\n        /* \"#utility.yul\":9292:9295   */\n      dup3\n        /* \"#utility.yul\":9148:9296   */\n      tag_141\n      jump\t// in\n    tag_189:\n        /* \"#utility.yul\":9141:9296   */\n      swap2\n      pop\n        /* \"#utility.yul\":9313:9316   */\n      dup2\n        /* \"#utility.yul\":9306:9316   */\n      swap1\n      pop\n        /* \"#utility.yul\":8941:9322   */\n      swap2\n      swap1\n      pop\n      jump\t// out\n        /* \"#utility.yul\":9328:9709   */\n    tag_27:\n        /* \"#utility.yul\":9513:9516   */\n      0x00\n        /* \"#utility.yul\":9535:9683   */\n      tag_191\n        /* \"#utility.yul\":9679:9682   */\n      dup3\n        /* \"#utility.yul\":9535:9683   */\n      tag_146\n      jump\t// in\n    tag_191:\n        /* \"#utility.yul\":9528:9683   */\n      swap2\n      pop\n        /* \"#utility.yul\":9700:9703   */\n      dup2\n        /* \"#utility.yul\":9693:9703   */\n      swap1\n      pop\n        /* \"#utility.yul\":9328:9709   */\n      swap2\n      swap1\n      pop\n      jump\t// out\n        /* \"#utility.yul\":9715:10096   */\n    tag_23:\n        /* \"#utility.yul\":9900:9903   */\n      0x00\n        /* \"#utility.yul\":9922:10070   */\n      tag_193\n        /* \"#utility.yul\":10066:10069   */\n      dup3\n        /* \"#utility.yul\":9922:10070   */\n      tag_156\n      jump\t// in\n    tag_193:\n        /* \"#utility.yul\":9915:10070   */\n      swap2\n      pop\n        /* \"#utility.yul\":10087:10090   */\n      dup2\n        /* \"#utility.yul\":10080:10090   */\n      swap1\n      pop\n        /* \"#utility.yul\":9715:10096   */\n      swap2\n      swap1\n      pop\n      jump\t// out\n        /* \"#utility.yul\":10102:10483   */\n    tag_25:\n        /* \"#utility.yul\":10287:10290   */\n      0x00\n        /* \"#utility.yul\":10309:10457   */\n      tag_195\n        /* \"#utility.yul\":10453:10456   */\n      dup3\n        /* \"#utility.yul\":10309:10457   */\n      tag_166\n      jump\t// in\n    tag_195:\n        /* \"#utility.yul\":10302:10457   */\n      swap2\n      pop\n        /* \"#utility.yul\":10474:10477   */\n      dup2\n        /* \"#utility.yul\":10467:10477   */\n      swap1\n      pop\n        /* \"#utility.yul\":10102:10483   */\n      swap2\n      swap1\n      pop\n      jump\t// out\n        /* \"#utility.yul\":10489:10870   */\n    tag_19:\n        /* \"#utility.yul\":10674:10677   */\n      0x00\n        /* \"#utility.yul\":10696:10844   */\n      tag_197\n        /* \"#utility.yul\":10840:10843   */\n      dup3\n        /* \"#utility.yul\":10696:10844   */\n      tag_171\n      jump\t// in\n    tag_197:\n        /* \"#utility.yul\":10689:10844   */\n      swap2\n      pop\n        /* \"#utility.yul\":10861:10864   */\n      dup2\n        /* \"#utility.yul\":10854:10864   */\n      swap1\n      pop\n        /* \"#utility.yul\":10489:10870   */\n      swap2\n      swap1\n      pop\n      jump\t// out\n        /* \"#utility.yul\":10876:11257   */\n    tag_17:\n        /* \"#utility.yul\":11061:11064   */\n      0x00\n        /* \"#utility.yul\":11083:11231   */\n      tag_199\n        /* \"#utility.yul\":11227:11230   */\n      dup3\n        /* \"#utility.yul\":11083:11231   */\n      tag_181\n      jump\t// in\n    tag_199:\n        /* \"#utility.yul\":11076:11231   */\n      swap2\n      pop\n        /* \"#utility.yul\":11248:11251   */\n      dup2\n        /* \"#utility.yul\":11241:11251   */\n      swap1\n      pop\n        /* \"#utility.yul\":10876:11257   */\n      swap2\n      swap1\n      pop\n      jump\t// out\n        /* \"#utility.yul\":11263:11485   */\n    tag_43:\n        /* \"#utility.yul\":11356:11360   */\n      0x00\n        /* \"#utility.yul\":11394:11396   */\n      0x20\n        /* \"#utility.yul\":11383:11392   */\n      dup3\n        /* \"#utility.yul\":11379:11397   */\n      add\n        /* \"#utility.yul\":11371:11397   */\n      swap1\n      pop\n        /* \"#utility.yul\":11407:11478   */\n      tag_201\n        /* \"#utility.yul\":11475:11476   */\n      0x00\n        /* \"#utility.yul\":11464:11473   */\n      dup4\n        /* \"#utility.yul\":11460:11477   */\n      add\n        /* \"#utility.yul\":11451:11457   */\n      dup5\n        /* \"#utility.yul\":11407:11478   */\n      tag_118\n      jump\t// in\n    tag_201:\n        /* \"#utility.yul\":11263:11485   */\n      swap3\n      swap2\n      pop\n      pop\n      jump\t// out\n        /* \"#utility.yul\":11491:11823   */\n    tag_30:\n        /* \"#utility.yul\":11612:11616   */\n      0x00\n        /* \"#utility.yul\":11650:11652   */\n      0x40\n        /* \"#utility.yul\":11639:11648   */\n      dup3\n        /* \"#utility.yul\":11635:11653   */\n      add\n        /* \"#utility.yul\":11627:11653   */\n      swap1\n      pop\n        /* \"#utility.yul\":11663:11734   */\n      tag_203\n        /* \"#utility.yul\":11731:11732   */\n      0x00\n        /* \"#utility.yul\":11720:11729   */\n      dup4\n        /* \"#utility.yul\":11716:11733   */\n      add\n        /* \"#utility.yul\":11707:11713   */\n      dup6\n        /* \"#utility.yul\":11663:11734   */\n      tag_118\n      jump\t// in\n    tag_203:\n        /* \"#utility.yul\":11744:11816   */\n      tag_204\n        /* \"#utility.yul\":11812:11814   */\n      0x20\n        /* \"#utility.yul\":11801:11810   */\n      dup4\n        /* \"#utility.yul\":11797:11815   */\n      add\n        /* \"#utility.yul\":11788:11794   */\n      dup5\n        /* \"#utility.yul\":11744:11816   */\n      tag_118\n      jump\t// in\n    tag_204:\n        /* \"#utility.yul\":11491:11823   */\n      swap4\n      swap3\n      pop\n      pop\n      pop\n      jump\t// out\n        /* \"#utility.yul\":11829:12670   */\n    tag_54:\n        /* \"#utility.yul\":12099:12103   */\n      0x00\n        /* \"#utility.yul\":12137:12140   */\n      0x80\n        /* \"#utility.yul\":12126:12135   */\n      dup3\n        /* \"#utility.yul\":12122:12141   */\n      add\n        /* \"#utility.yul\":12114:12141   */\n      swap1\n      pop\n        /* \"#utility.yul\":12151:12222   */\n      tag_206\n        /* \"#utility.yul\":12219:12220   */\n      0x00\n        /* \"#utility.yul\":12208:12217   */\n      dup4\n        /* \"#utility.yul\":12204:12221   */\n      add\n        /* \"#utility.yul\":12195:12201   */\n      dup7\n        /* \"#utility.yul\":12151:12222   */\n      tag_118\n      jump\t// in\n    tag_206:\n        /* \"#utility.yul\":12232:12304   */\n      tag_207\n        /* \"#utility.yul\":12300:12302   */\n      0x20\n        /* \"#utility.yul\":12289:12298   */\n      dup4\n        /* \"#utility.yul\":12285:12303   */\n      add\n        /* \"#utility.yul\":12276:12282   */\n      dup6\n        /* \"#utility.yul\":12232:12304   */\n      tag_118\n      jump\t// in\n    tag_207:\n        /* \"#utility.yul\":12351:12360   */\n      dup2\n        /* \"#utility.yul\":12345:12349   */\n      dup2\n        /* \"#utility.yul\":12341:12361   */\n      sub\n        /* \"#utility.yul\":12336:12338   */\n      0x40\n        /* \"#utility.yul\":12325:12334   */\n      dup4\n        /* \"#utility.yul\":12321:12339   */\n      add\n        /* \"#utility.yul\":12314:12362   */\n      mstore\n        /* \"#utility.yul\":12379:12457   */\n      tag_208\n        /* \"#utility.yul\":12452:12456   */\n      dup2\n        /* \"#utility.yul\":12443:12449   */\n      dup5\n        /* \"#utility.yul\":12379:12457   */\n      tag_126\n      jump\t// in\n    tag_208:\n        /* \"#utility.yul\":12371:12457   */\n      swap1\n      pop\n        /* \"#utility.yul\":12504:12513   */\n      dup2\n        /* \"#utility.yul\":12498:12502   */\n      dup2\n        /* \"#utility.yul\":12494:12514   */\n      sub\n        /* \"#utility.yul\":12489:12491   */\n      0x60\n        /* \"#utility.yul\":12478:12487   */\n      dup4\n        /* \"#utility.yul\":12474:12492   */\n      add\n        /* \"#utility.yul\":12467:12515   */\n      mstore\n        /* \"#utility.yul\":12532:12663   */\n      tag_209\n        /* \"#utility.yul\":12658:12662   */\n      dup2\n        /* \"#utility.yul\":12532:12663   */\n      tag_151\n      jump\t// in\n    tag_209:\n        /* \"#utility.yul\":12524:12663   */\n      swap1\n      pop\n        /* \"#utility.yul\":11829:12670   */\n      swap5\n      swap4\n      pop\n      pop\n      pop\n      pop\n      jump\t// out\n        /* \"#utility.yul\":12676:13517   */\n    tag_52:\n        /* \"#utility.yul\":12946:12950   */\n      0x00\n        /* \"#utility.yul\":12984:12987   */\n      0x80\n        /* \"#utility.yul\":12973:12982   */\n      dup3\n        /* \"#utility.yul\":12969:12988   */\n      add\n        /* \"#utility.yul\":12961:12988   */\n      swap1\n      pop\n        /* \"#utility.yul\":12998:13069   */\n      tag_211\n        /* \"#utility.yul\":13066:13067   */\n      0x00\n        /* \"#utility.yul\":13055:13064   */\n      dup4\n        /* \"#utility.yul\":13051:13068   */\n      add\n        /* \"#utility.yul\":13042:13048   */\n      dup7\n        /* \"#utility.yul\":12998:13069   */\n      tag_118\n      jump\t// in\n    tag_211:\n        /* \"#utility.yul\":13079:13151   */\n      tag_212\n        /* \"#utility.yul\":13147:13149   */\n      0x20\n        /* \"#utility.yul\":13136:13145   */\n      dup4\n        /* \"#utility.yul\":13132:13150   */\n      add\n        /* \"#utility.yul\":13123:13129   */\n      dup6\n        /* \"#utility.yul\":13079:13151   */\n      tag_118\n      jump\t// in\n    tag_212:\n        /* \"#utility.yul\":13198:13207   */\n      dup2\n        /* \"#utility.yul\":13192:13196   */\n      dup2\n        /* \"#utility.yul\":13188:13208   */\n      sub\n        /* \"#utility.yul\":13183:13185   */\n      0x40\n        /* \"#utility.yul\":13172:13181   */\n      dup4\n        /* \"#utility.yul\":13168:13186   */\n      add\n        /* \"#utility.yul\":13161:13209   */\n      mstore\n        /* \"#utility.yul\":13226:13304   */\n      tag_213\n        /* \"#utility.yul\":13299:13303   */\n      dup2\n        /* \"#utility.yul\":13290:13296   */\n      dup5\n        /* \"#utility.yul\":13226:13304   */\n      tag_126\n      jump\t// in\n    tag_213:\n        /* \"#utility.yul\":13218:13304   */\n      swap1\n      pop\n        /* \"#utility.yul\":13351:13360   */\n      dup2\n        /* \"#utility.yul\":13345:13349   */\n      dup2\n        /* \"#utility.yul\":13341:13361   */\n      sub\n        /* \"#utility.yul\":13336:13338   */\n      0x60\n        /* \"#utility.yul\":13325:13334   */\n      dup4\n        /* \"#utility.yul\":13321:13339   */\n      add\n        /* \"#utility.yul\":13314:13362   */\n      mstore\n        /* \"#utility.yul\":13379:13510   */\n      tag_214\n        /* \"#utility.yul\":13505:13509   */\n      dup2\n        /* \"#utility.yul\":13379:13510   */\n      tag_161\n      jump\t// in\n    tag_214:\n        /* \"#utility.yul\":13371:13510   */\n      swap1\n      pop\n        /* \"#utility.yul\":12676:13517   */\n      swap5\n      swap4\n      pop\n      pop\n      pop\n      pop\n      jump\t// out\n        /* \"#utility.yul\":13523:14364   */\n    tag_41:\n        /* \"#utility.yul\":13793:13797   */\n      0x00\n        /* \"#utility.yul\":13831:13834   */\n      0x80\n        /* \"#utility.yul\":13820:13829   */\n      dup3\n        /* \"#utility.yul\":13816:13835   */\n      add\n        /* \"#utility.yul\":13808:13835   */\n      swap1\n      pop\n        /* \"#utility.yul\":13845:13916   */\n      tag_216\n        /* \"#utility.yul\":13913:13914   */\n      0x00\n        /* \"#utility.yul\":13902:13911   */\n      dup4\n        /* \"#utility.yul\":13898:13915   */\n      add\n        /* \"#utility.yul\":13889:13895   */\n      dup7\n        /* \"#utility.yul\":13845:13916   */\n      tag_118\n      jump\t// in\n    tag_216:\n        /* \"#utility.yul\":13926:13998   */\n      tag_217\n        /* \"#utility.yul\":13994:13996   */\n      0x20\n        /* \"#utility.yul\":13983:13992   */\n      dup4\n        /* \"#utility.yul\":13979:13997   */\n      add\n        /* \"#utility.yul\":13970:13976   */\n      dup6\n        /* \"#utility.yul\":13926:13998   */\n      tag_118\n      jump\t// in\n    tag_217:\n        /* \"#utility.yul\":14045:14054   */\n      dup2\n        /* \"#utility.yul\":14039:14043   */\n      dup2\n        /* \"#utility.yul\":14035:14055   */\n      sub\n        /* \"#utility.yul\":14030:14032   */\n      0x40\n        /* \"#utility.yul\":14019:14028   */\n      dup4\n        /* \"#utility.yul\":14015:14033   */\n      add\n        /* \"#utility.yul\":14008:14056   */\n      mstore\n        /* \"#utility.yul\":14073:14151   */\n      tag_218\n        /* \"#utility.yul\":14146:14150   */\n      dup2\n        /* \"#utility.yul\":14137:14143   */\n      dup5\n        /* \"#utility.yul\":14073:14151   */\n      tag_126\n      jump\t// in\n    tag_218:\n        /* \"#utility.yul\":14065:14151   */\n      swap1\n      pop\n        /* \"#utility.yul\":14198:14207   */\n      dup2\n        /* \"#utility.yul\":14192:14196   */\n      dup2\n        /* \"#utility.yul\":14188:14208   */\n      sub\n        /* \"#utility.yul\":14183:14185   */\n      0x60\n        /* \"#utility.yul\":14172:14181   */\n      dup4\n        /* \"#utility.yul\":14168:14186   */\n      add\n        /* \"#utility.yul\":14161:14209   */\n      mstore\n        /* \"#utility.yul\":14226:14357   */\n      tag_219\n        /* \"#utility.yul\":14352:14356   */\n      dup2\n        /* \"#utility.yul\":14226:14357   */\n      tag_176\n      jump\t// in\n    tag_219:\n        /* \"#utility.yul\":14218:14357   */\n      swap1\n      pop\n        /* \"#utility.yul\":13523:14364   */\n      swap5\n      swap4\n      pop\n      pop\n      pop\n      pop\n      jump\t// out\n        /* \"#utility.yul\":14370:14580   */\n    tag_14:\n        /* \"#utility.yul\":14457:14461   */\n      0x00\n        /* \"#utility.yul\":14495:14497   */\n      0x20\n        /* \"#utility.yul\":14484:14493   */\n      dup3\n        /* \"#utility.yul\":14480:14498   */\n      add\n        /* \"#utility.yul\":14472:14498   */\n      swap1\n      pop\n        /* \"#utility.yul\":14508:14573   */\n      tag_221\n        /* \"#utility.yul\":14570:14571   */\n      0x00\n        /* \"#utility.yul\":14559:14568   */\n      dup4\n        /* \"#utility.yul\":14555:14572   */\n      add\n        /* \"#utility.yul\":14546:14552   */\n      dup5\n        /* \"#utility.yul\":14508:14573   */\n      tag_122\n      jump\t// in\n    tag_221:\n        /* \"#utility.yul\":14370:14580   */\n      swap3\n      swap2\n      pop\n      pop\n      jump\t// out\n        /* \"#utility.yul\":14586:14715   */\n    tag_61:\n        /* \"#utility.yul\":14620:14626   */\n      0x00\n        /* \"#utility.yul\":14647:14667   */\n      tag_223\n      tag_224\n      jump\t// in\n    tag_223:\n        /* \"#utility.yul\":14637:14667   */\n      swap1\n      pop\n        /* \"#utility.yul\":14676:14709   */\n      tag_225\n        /* \"#utility.yul\":14704:14708   */\n      dup3\n        /* \"#utility.yul\":14696:14702   */\n      dup3\n        /* \"#utility.yul\":14676:14709   */\n      tag_226\n      jump\t// in\n    tag_225:\n        /* \"#utility.yul\":14586:14715   */\n      swap2\n      swap1\n      pop\n      jump\t// out\n        /* \"#utility.yul\":14721:14796   */\n    tag_224:\n        /* \"#utility.yul\":14754:14760   */\n      0x00\n        /* \"#utility.yul\":14787:14789   */\n      0x40\n        /* \"#utility.yul\":14781:14790   */\n      mload\n        /* \"#utility.yul\":14771:14790   */\n      swap1\n      pop\n        /* \"#utility.yul\":14721:14796   */\n      swap1\n      jump\t// out\n        /* \"#utility.yul\":14802:15110   */\n    tag_60:\n        /* \"#utility.yul\":14864:14868   */\n      0x00\n        /* \"#utility.yul\":14954:14972   */\n      0xffffffffffffffff\n        /* \"#utility.yul\":14946:14952   */\n      dup3\n        /* \"#utility.yul\":14943:14973   */\n      gt\n        /* \"#utility.yul\":14940:14996   */\n      iszero\n      tag_229\n      jumpi\n        /* \"#utility.yul\":14976:14994   */\n      tag_230\n      tag_231\n      jump\t// in\n    tag_230:\n        /* \"#utility.yul\":14940:14996   */\n    tag_229:\n        /* \"#utility.yul\":15014:15043   */\n      tag_232\n        /* \"#utility.yul\":15036:15042   */\n      dup3\n        /* \"#utility.yul\":15014:15043   */\n      tag_134\n      jump\t// in\n    tag_232:\n        /* \"#utility.yul\":15006:15043   */\n      swap1\n      pop\n        /* \"#utility.yul\":15098:15102   */\n      0x20\n        /* \"#utility.yul\":15092:15096   */\n      dup2\n        /* \"#utility.yul\":15088:15103   */\n      add\n        /* \"#utility.yul\":15080:15103   */\n      swap1\n      pop\n        /* \"#utility.yul\":14802:15110   */\n      swap2\n      swap1\n      pop\n      jump\t// out\n        /* \"#utility.yul\":15116:15215   */\n    tag_129:\n        /* \"#utility.yul\":15168:15174   */\n      0x00\n        /* \"#utility.yul\":15202:15207   */\n      dup2\n        /* \"#utility.yul\":15196:15208   */\n      mload\n        /* \"#utility.yul\":15186:15208   */\n      swap1\n      pop\n        /* \"#utility.yul\":15116:15215   */\n      swap2\n      swap1\n      pop\n      jump\t// out\n        /* \"#utility.yul\":15221:15390   */\n    tag_131:\n        /* \"#utility.yul\":15305:15316   */\n      0x00\n        /* \"#utility.yul\":15339:15345   */\n      dup3\n        /* \"#utility.yul\":15334:15337   */\n      dup3\n        /* \"#utility.yul\":15327:15346   */\n      mstore\n        /* \"#utility.yul\":15379:15383   */\n      0x20\n        /* \"#utility.yul\":15374:15377   */\n      dup3\n        /* \"#utility.yul\":15370:15384   */\n      add\n        /* \"#utility.yul\":15355:15384   */\n      swap1\n      pop\n        /* \"#utility.yul\":15221:15390   */\n      swap3\n      swap2\n      pop\n      pop\n      jump\t// out\n        /* \"#utility.yul\":15396:15544   */\n    tag_139:\n        /* \"#utility.yul\":15498:15509   */\n      0x00\n        /* \"#utility.yul\":15535:15538   */\n      dup2\n        /* \"#utility.yul\":15520:15538   */\n      swap1\n      pop\n        /* \"#utility.yul\":15396:15544   */\n      swap3\n      swap2\n      pop\n      pop\n      jump\t// out\n        /* \"#utility.yul\":15550:15646   */\n    tag_121:\n        /* \"#utility.yul\":15587:15594   */\n      0x00\n        /* \"#utility.yul\":15616:15640   */\n      tag_237\n        /* \"#utility.yul\":15634:15639   */\n      dup3\n        /* \"#utility.yul\":15616:15640   */\n      tag_238\n      jump\t// in\n    tag_237:\n        /* \"#utility.yul\":15605:15640   */\n      swap1\n      pop\n        /* \"#utility.yul\":15550:15646   */\n      swap2\n      swap1\n      pop\n      jump\t// out\n        /* \"#utility.yul\":15652:15742   */\n    tag_125:\n        /* \"#utility.yul\":15686:15693   */\n      0x00\n        /* \"#utility.yul\":15729:15734   */\n      dup2\n        /* \"#utility.yul\":15722:15735   */\n      iszero\n        /* \"#utility.yul\":15715:15736   */\n      iszero\n        /* \"#utility.yul\":15704:15736   */\n      swap1\n      pop\n        /* \"#utility.yul\":15652:15742   */\n      swap2\n      swap1\n      pop\n      jump\t// out\n        /* \"#utility.yul\":15748:15874   */\n    tag_238:\n        /* \"#utility.yul\":15785:15792   */\n      0x00\n        /* \"#utility.yul\":15825:15867   */\n      0xffffffffffffffffffffffffffffffffffffffff\n        /* \"#utility.yul\":15818:15823   */\n      dup3\n        /* \"#utility.yul\":15814:15868   */\n      and\n        /* \"#utility.yul\":15803:15868   */\n      swap1\n      pop\n        /* \"#utility.yul\":15748:15874   */\n      swap2\n      swap1\n      pop\n      jump\t// out\n        /* \"#utility.yul\":15880:16034   */\n    tag_66:\n        /* \"#utility.yul\":15964:15970   */\n      dup3\n        /* \"#utility.yul\":15959:15962   */\n      dup2\n        /* \"#utility.yul\":15954:15957   */\n      dup4\n        /* \"#utility.yul\":15941:15971   */\n      calldatacopy\n        /* \"#utility.yul\":16026:16027   */\n      0x00\n        /* \"#utility.yul\":16017:16023   */\n      dup4\n        /* \"#utility.yul\":16012:16015   */\n      dup4\n        /* \"#utility.yul\":16008:16024   */\n      add\n        /* \"#utility.yul\":16001:16028   */\n      mstore\n        /* \"#utility.yul\":15880:16034   */\n      pop\n      pop\n      pop\n      jump\t// out\n        /* \"#utility.yul\":16040:16347   */\n    tag_74:\n        /* \"#utility.yul\":16108:16109   */\n      0x00\n        /* \"#utility.yul\":16118:16231   */\n    tag_243:\n        /* \"#utility.yul\":16132:16138   */\n      dup4\n        /* \"#utility.yul\":16129:16130   */\n      dup2\n        /* \"#utility.yul\":16126:16139   */\n      lt\n        /* \"#utility.yul\":16118:16231   */\n      iszero\n      tag_245\n      jumpi\n        /* \"#utility.yul\":16217:16218   */\n      dup1\n        /* \"#utility.yul\":16212:16215   */\n      dup3\n        /* \"#utility.yul\":16208:16219   */\n      add\n        /* \"#utility.yul\":16202:16220   */\n      mload\n        /* \"#utility.yul\":16198:16199   */\n      dup2\n        /* \"#utility.yul\":16193:16196   */\n      dup5\n        /* \"#utility.yul\":16189:16200   */\n      add\n        /* \"#utility.yul\":16182:16221   */\n      mstore\n        /* \"#utility.yul\":16154:16156   */\n      0x20\n        /* \"#utility.yul\":16151:16152   */\n      dup2\n        /* \"#utility.yul\":16147:16157   */\n      add\n        /* \"#utility.yul\":16142:16157   */\n      swap1\n      pop\n        /* \"#utility.yul\":16118:16231   */\n      jump(tag_243)\n    tag_245:\n        /* \"#utility.yul\":16249:16255   */\n      dup4\n        /* \"#utility.yul\":16246:16247   */\n      dup2\n        /* \"#utility.yul\":16243:16256   */\n      gt\n        /* \"#utility.yul\":16240:16341   */\n      iszero\n      tag_246\n      jumpi\n        /* \"#utility.yul\":16329:16330   */\n      0x00\n        /* \"#utility.yul\":16320:16326   */\n      dup5\n        /* \"#utility.yul\":16315:16318   */\n      dup5\n        /* \"#utility.yul\":16311:16327   */\n      add\n        /* \"#utility.yul\":16304:16331   */\n      mstore\n        /* \"#utility.yul\":16240:16341   */\n    tag_246:\n        /* \"#utility.yul\":16089:16347   */\n      pop\n        /* \"#utility.yul\":16040:16347   */\n      pop\n      pop\n      pop\n      jump\t// out\n        /* \"#utility.yul\":16353:16634   */\n    tag_226:\n        /* \"#utility.yul\":16436:16463   */\n      tag_248\n        /* \"#utility.yul\":16458:16462   */\n      dup3\n        /* \"#utility.yul\":16436:16463   */\n      tag_134\n      jump\t// in\n    tag_248:\n        /* \"#utility.yul\":16428:16434   */\n      dup2\n        /* \"#utility.yul\":16424:16464   */\n      add\n        /* \"#utility.yul\":16566:16572   */\n      dup2\n        /* \"#utility.yul\":16554:16564   */\n      dup2\n        /* \"#utility.yul\":16551:16573   */\n      lt\n        /* \"#utility.yul\":16530:16548   */\n      0xffffffffffffffff\n        /* \"#utility.yul\":16518:16528   */\n      dup3\n        /* \"#utility.yul\":16515:16549   */\n      gt\n        /* \"#utility.yul\":16512:16574   */\n      or\n        /* \"#utility.yul\":16509:16597   */\n      iszero\n      tag_249\n      jumpi\n        /* \"#utility.yul\":16577:16595   */\n      tag_250\n      tag_231\n      jump\t// in\n    tag_250:\n        /* \"#utility.yul\":16509:16597   */\n    tag_249:\n        /* \"#utility.yul\":16617:16627   */\n      dup1\n        /* \"#utility.yul\":16613:16615   */\n      0x40\n        /* \"#utility.yul\":16606:16628   */\n      mstore\n        /* \"#utility.yul\":16396:16634   */\n      pop\n        /* \"#utility.yul\":16353:16634   */\n      pop\n      pop\n      jump\t// out\n        /* \"#utility.yul\":16640:16820   */\n    tag_231:\n        /* \"#utility.yul\":16688:16765   */\n      0x4e487b7100000000000000000000000000000000000000000000000000000000\n        /* \"#utility.yul\":16685:16686   */\n      0x00\n        /* \"#utility.yul\":16678:16766   */\n      mstore\n        /* \"#utility.yul\":16785:16789   */\n      0x41\n        /* \"#utility.yul\":16782:16783   */\n      0x04\n        /* \"#utility.yul\":16775:16790   */\n      mstore\n        /* \"#utility.yul\":16809:16813   */\n      0x24\n        /* \"#utility.yul\":16806:16807   */\n      0x00\n        /* \"#utility.yul\":16799:16814   */\n      revert\n        /* \"#utility.yul\":16826:16943   */\n    tag_83:\n        /* \"#utility.yul\":16935:16936   */\n      0x00\n        /* \"#utility.yul\":16932:16933   */\n      dup1\n        /* \"#utility.yul\":16925:16937   */\n      revert\n        /* \"#utility.yul\":16949:17066   */\n    tag_64:\n        /* \"#utility.yul\":17058:17059   */\n      0x00\n        /* \"#utility.yul\":17055:17056   */\n      dup1\n        /* \"#utility.yul\":17048:17060   */\n      revert\n        /* \"#utility.yul\":17072:17189   */\n    tag_101:\n        /* \"#utility.yul\":17181:17182   */\n      0x00\n        /* \"#utility.yul\":17178:17179   */\n      dup1\n        /* \"#utility.yul\":17171:17183   */\n      revert\n        /* \"#utility.yul\":17195:17312   */\n    tag_93:\n        /* \"#utility.yul\":17304:17305   */\n      0x00\n        /* \"#utility.yul\":17301:17302   */\n      dup1\n        /* \"#utility.yul\":17294:17306   */\n      revert\n        /* \"#utility.yul\":17318:17420   */\n    tag_134:\n        /* \"#utility.yul\":17359:17365   */\n      0x00\n        /* \"#utility.yul\":17410:17412   */\n      0x1f\n        /* \"#utility.yul\":17406:17413   */\n      not\n        /* \"#utility.yul\":17401:17403   */\n      0x1f\n        /* \"#utility.yul\":17394:17399   */\n      dup4\n        /* \"#utility.yul\":17390:17404   */\n      add\n        /* \"#utility.yul\":17386:17414   */\n      and\n        /* \"#utility.yul\":17376:17414   */\n      swap1\n      pop\n        /* \"#utility.yul\":17318:17420   */\n      swap2\n      swap1\n      pop\n      jump\t// out\n        /* \"#utility.yul\":17426:17581   */\n    tag_145:\n        /* \"#utility.yul\":17566:17573   */\n      0x636c6f7365000000000000000000000000000000000000000000000000000000\n        /* \"#utility.yul\":17562:17563   */\n      0x00\n        /* \"#utility.yul\":17554:17560   */\n      dup3\n        /* \"#utility.yul\":17550:17564   */\n      add\n        /* \"#utility.yul\":17543:17574   */\n      mstore\n        /* \"#utility.yul\":17426:17581   */\n      pop\n      jump\t// out\n        /* \"#utility.yul\":17587:17744   */\n    tag_150:\n        /* \"#utility.yul\":17727:17736   */\n      0x322e322e322e3200000000000000000000000000000000000000000000000000\n        /* \"#utility.yul\":17723:17724   */\n      0x00\n        /* \"#utility.yul\":17715:17721   */\n      dup3\n        /* \"#utility.yul\":17711:17725   */\n      add\n        /* \"#utility.yul\":17704:17737   */\n      mstore\n        /* \"#utility.yul\":17587:17744   */\n      pop\n      jump\t// out\n        /* \"#utility.yul\":17750:17912   */\n    tag_155:\n        /* \"#utility.yul\":17890:17904   */\n      0x4163636573732070617373210000000000000000000000000000000000000000\n        /* \"#utility.yul\":17886:17887   */\n      0x00\n        /* \"#utility.yul\":17878:17884   */\n      dup3\n        /* \"#utility.yul\":17874:17888   */\n      add\n        /* \"#utility.yul\":17867:17905   */\n      mstore\n        /* \"#utility.yul\":17750:17912   */\n      pop\n      jump\t// out\n        /* \"#utility.yul\":17918:18075   */\n    tag_160:\n        /* \"#utility.yul\":18058:18067   */\n      0x7265737461727400000000000000000000000000000000000000000000000000\n        /* \"#utility.yul\":18054:18055   */\n      0x00\n        /* \"#utility.yul\":18046:18052   */\n      dup3\n        /* \"#utility.yul\":18042:18056   */\n      add\n        /* \"#utility.yul\":18035:18068   */\n      mstore\n        /* \"#utility.yul\":17918:18075   */\n      pop\n      jump\t// out\n        /* \"#utility.yul\":18081:18250   */\n    tag_165:\n        /* \"#utility.yul\":18221:18242   */\n      0x496c6c6567616c20495020616464726573732100000000000000000000000000\n        /* \"#utility.yul\":18217:18218   */\n      0x00\n        /* \"#utility.yul\":18209:18215   */\n      dup3\n        /* \"#utility.yul\":18205:18219   */\n      add\n        /* \"#utility.yul\":18198:18243   */\n      mstore\n        /* \"#utility.yul\":18081:18250   */\n      pop\n      jump\t// out\n        /* \"#utility.yul\":18256:18410   */\n    tag_170:\n        /* \"#utility.yul\":18396:18402   */\n      0x6b696c6c00000000000000000000000000000000000000000000000000000000\n        /* \"#utility.yul\":18392:18393   */\n      0x00\n        /* \"#utility.yul\":18384:18390   */\n      dup3\n        /* \"#utility.yul\":18380:18394   */\n      add\n        /* \"#utility.yul\":18373:18403   */\n      mstore\n        /* \"#utility.yul\":18256:18410   */\n      pop\n      jump\t// out\n        /* \"#utility.yul\":18416:18570   */\n    tag_175:\n        /* \"#utility.yul\":18556:18562   */\n      0x6f70656e00000000000000000000000000000000000000000000000000000000\n        /* \"#utility.yul\":18552:18553   */\n      0x00\n        /* \"#utility.yul\":18544:18550   */\n      dup3\n        /* \"#utility.yul\":18540:18554   */\n      add\n        /* \"#utility.yul\":18533:18563   */\n      mstore\n        /* \"#utility.yul\":18416:18570   */\n      pop\n      jump\t// out\n        /* \"#utility.yul\":18576:18746   */\n    tag_180:\n        /* \"#utility.yul\":18716:18738   */\n      0x556e617574686f72697a65642061636365737321000000000000000000000000\n        /* \"#utility.yul\":18712:18713   */\n      0x00\n        /* \"#utility.yul\":18704:18710   */\n      dup3\n        /* \"#utility.yul\":18700:18714   */\n      add\n        /* \"#utility.yul\":18693:18739   */\n      mstore\n        /* \"#utility.yul\":18576:18746   */\n      pop\n      jump\t// out\n        /* \"#utility.yul\":18752:18906   */\n    tag_185:\n        /* \"#utility.yul\":18892:18898   */\n      0x7265616400000000000000000000000000000000000000000000000000000000\n        /* \"#utility.yul\":18888:18889   */\n      0x00\n        /* \"#utility.yul\":18880:18886   */\n      dup3\n        /* \"#utility.yul\":18876:18890   */\n      add\n        /* \"#utility.yul\":18869:18899   */\n      mstore\n        /* \"#utility.yul\":18752:18906   */\n      pop\n      jump\t// out\n        /* \"#utility.yul\":18912:19034   */\n    tag_78:\n        /* \"#utility.yul\":18985:19009   */\n      tag_267\n        /* \"#utility.yul\":19003:19008   */\n      dup2\n        /* \"#utility.yul\":18985:19009   */\n      tag_121\n      jump\t// in\n    tag_267:\n        /* \"#utility.yul\":18978:18983   */\n      dup2\n        /* \"#utility.yul\":18975:19010   */\n      eq\n        /* \"#utility.yul\":18965:19028   */\n      tag_268\n      jumpi\n        /* \"#utility.yul\":19024:19025   */\n      0x00\n        /* \"#utility.yul\":19021:19022   */\n      dup1\n        /* \"#utility.yul\":19014:19026   */\n      revert\n        /* \"#utility.yul\":18965:19028   */\n    tag_268:\n        /* \"#utility.yul\":18912:19034   */\n      pop\n      jump\t// out\n\n    auxdata: 0xa2646970667358221220b2a27a2b18d0d9867537867bc2064d06957525d887fd80d2bca8183d0fe8a3d464736f6c63430008070033\n}\n",
				"bytecode": {
					"linkReferences": {},
					"object": "608060405234801561001057600080fd5b50610d88806100206000396000f3fe608060405234801561001057600080fd5b50600436106100365760003560e01c806319ab453c1461003b57806332076e7714610057575b600080fd5b61005560048036038101906100509190610554565b610087565b005b610071600480360381019061006c9190610581565b6101a7565b60405161007e9190610a2d565b60405180910390f35b806000806101000a81548173ffffffffffffffffffffffffffffffffffffffff021916908373ffffffffffffffffffffffffffffffffffffffff160217905550600060016040516100d7906108e1565b9081526020016040518091039020819055506001806040516100f8906108cc565b90815260200160405180910390208190555060018060405161011990610878565b9081526020016040518091039020819055506002600160405161013b906108a2565b9081526020016040518091039020819055506002600160405161015d906108b7565b9081526020016040518091039020819055506001600260405161017f9061088d565b908152602001604051809103902060006101000a81548160ff02191690831515021790555050565b60008060008054906101000a900473ffffffffffffffffffffffffffffffffffffffff1673ffffffffffffffffffffffffffffffffffffffff16638749774f33866040518363ffffffff1660e01b8152600401610205929190610911565b60006040518083038186803b15801561021d57600080fd5b505afa158015610231573d6000803e3d6000fd5b505050506040513d6000823e3d601f19601f8201168201806040525081019061025a91906105dd565b905060018160405161026c9190610861565b90815260200160405180910390205460018460405161028b9190610861565b90815260200160405180910390205412156102e5577f4393de65ee68a32d7987583b1f2c6e6aa80df7d9ad5c0661660d70dff18b9d6d3385856040516102d3939291906109dc565b60405180910390a16000915050610459565b60608060008054906101000a900473ffffffffffffffffffffffffffffffffffffffff1673ffffffffffffffffffffffffffffffffffffffff16639f764d16336040518263ffffffff1660e01b815260040161034191906108f6565b60006040518083038186803b15801561035957600080fd5b505afa15801561036d573d6000803e3d6000fd5b505050506040513d6000823e3d601f19601f820116820180604052508101906103969190610626565b80925081935050506002816040516103ae9190610861565b908152602001604051809103902060009054906101000a900460ff1615610416577f4393de65ee68a32d7987583b1f2c6e6aa80df7d9ad5c0661660d70dff18b9d6d3387876040516104029392919061098b565b60405180910390a160009350505050610459565b7f4393de65ee68a32d7987583b1f2c6e6aa80df7d9ad5c0661660d70dff18b9d6d3387876040516104499392919061093a565b60405180910390a1600193505050505b92915050565b600061047261046d84610a6d565b610a48565b90508281526020810184848401111561048e5761048d610baa565b5b610499848285610b03565b509392505050565b60006104b46104af84610a6d565b610a48565b9050828152602081018484840111156104d0576104cf610baa565b5b6104db848285610b12565b509392505050565b6000813590506104f281610d3b565b92915050565b600082601f83011261050d5761050c610ba5565b5b813561051d84826020860161045f565b91505092915050565b600082601f83011261053b5761053a610ba5565b5b815161054b8482602086016104a1565b91505092915050565b60006020828403121561056a57610569610bb4565b5b6000610578848285016104e3565b91505092915050565b6000806040838503121561059857610597610bb4565b5b60006105a6858286016104e3565b925050602083013567ffffffffffffffff8111156105c7576105c6610baf565b5b6105d3858286016104f8565b9150509250929050565b6000602082840312156105f3576105f2610bb4565b5b600082015167ffffffffffffffff81111561061157610610610baf565b5b61061d84828501610526565b91505092915050565b6000806040838503121561063d5761063c610bb4565b5b600083015167ffffffffffffffff81111561065b5761065a610baf565b5b61066785828601610526565b925050602083015167ffffffffffffffff81111561068857610687610baf565b5b61069485828601610526565b9150509250929050565b6106a781610ac5565b82525050565b6106b681610ad7565b82525050565b60006106c782610a9e565b6106d18185610aa9565b93506106e1818560208601610b12565b6106ea81610bb9565b840191505092915050565b600061070082610a9e565b61070a8185610aba565b935061071a818560208601610b12565b80840191505092915050565b6000610733600583610aba565b915061073e82610bca565b600582019050919050565b6000610756600783610aba565b915061076182610bf3565b600782019050919050565b6000610779600c83610aa9565b915061078482610c1c565b602082019050919050565b600061079c600783610aba565b91506107a782610c45565b600782019050919050565b60006107bf601383610aa9565b91506107ca82610c6e565b602082019050919050565b60006107e2600483610aba565b91506107ed82610c97565b600482019050919050565b6000610805600483610aba565b915061081082610cc0565b600482019050919050565b6000610828601483610aa9565b915061083382610ce9565b602082019050919050565b600061084b600483610aba565b915061085682610d12565b600482019050919050565b600061086d82846106f5565b915081905092915050565b600061088382610726565b9150819050919050565b600061089882610749565b9150819050919050565b60006108ad8261078f565b9150819050919050565b60006108c2826107d5565b9150819050919050565b60006108d7826107f8565b9150819050919050565b60006108ec8261083e565b9150819050919050565b600060208201905061090b600083018461069e565b92915050565b6000604082019050610926600083018561069e565b610933602083018461069e565b9392505050565b600060808201905061094f600083018661069e565b61095c602083018561069e565b818103604083015261096e81846106bc565b905081810360608301526109818161076c565b9050949350505050565b60006080820190506109a0600083018661069e565b6109ad602083018561069e565b81810360408301526109bf81846106bc565b905081810360608301526109d2816107b2565b9050949350505050565b60006080820190506109f1600083018661069e565b6109fe602083018561069e565b8181036040830152610a1081846106bc565b90508181036060830152610a238161081b565b9050949350505050565b6000602082019050610a4260008301846106ad565b92915050565b6000610a52610a63565b9050610a5e8282610b45565b919050565b6000604051905090565b600067ffffffffffffffff821115610a8857610a87610b76565b5b610a9182610bb9565b9050602081019050919050565b600081519050919050565b600082825260208201905092915050565b600081905092915050565b6000610ad082610ae3565b9050919050565b60008115159050919050565b600073ffffffffffffffffffffffffffffffffffffffff82169050919050565b82818337600083830152505050565b60005b83811015610b30578082015181840152602081019050610b15565b83811115610b3f576000848401525b50505050565b610b4e82610bb9565b810181811067ffffffffffffffff82111715610b6d57610b6c610b76565b5b80604052505050565b7f4e487b7100000000000000000000000000000000000000000000000000000000600052604160045260246000fd5b600080fd5b600080fd5b600080fd5b600080fd5b6000601f19601f8301169050919050565b7f636c6f7365000000000000000000000000000000000000000000000000000000600082015250565b7f322e322e322e3200000000000000000000000000000000000000000000000000600082015250565b7f4163636573732070617373210000000000000000000000000000000000000000600082015250565b7f7265737461727400000000000000000000000000000000000000000000000000600082015250565b7f496c6c6567616c20495020616464726573732100000000000000000000000000600082015250565b7f6b696c6c00000000000000000000000000000000000000000000000000000000600082015250565b7f6f70656e00000000000000000000000000000000000000000000000000000000600082015250565b7f556e617574686f72697a65642061636365737321000000000000000000000000600082015250565b7f7265616400000000000000000000000000000000000000000000000000000000600082015250565b610d4481610ac5565b8114610d4f57600080fd5b5056fea2646970667358221220b2a27a2b18d0d9867537867bc2064d06957525d887fd80d2bca8183d0fe8a3d464736f6c63430008070033",
					"opcodes": "PUSH1 0x80 PUSH1 0x40 MSTORE CALLVALUE DUP1 ISZERO PUSH2 0x10 JUMPI PUSH1 0x0 DUP1 REVERT JUMPDEST POP PUSH2 0xD88 DUP1 PUSH2 0x20 PUSH1 0x0 CODECOPY PUSH1 0x0 RETURN INVALID PUSH1 0x80 PUSH1 0x40 MSTORE CALLVALUE DUP1 ISZERO PUSH2 0x10 JUMPI PUSH1 0x0 DUP1 REVERT JUMPDEST POP PUSH1 0x4 CALLDATASIZE LT PUSH2 0x36 JUMPI PUSH1 0x0 CALLDATALOAD PUSH1 0xE0 SHR DUP1 PUSH4 0x19AB453C EQ PUSH2 0x3B JUMPI DUP1 PUSH4 0x32076E77 EQ PUSH2 0x57 JUMPI JUMPDEST PUSH1 0x0 DUP1 REVERT JUMPDEST PUSH2 0x55 PUSH1 0x4 DUP1 CALLDATASIZE SUB DUP2 ADD SWAP1 PUSH2 0x50 SWAP2 SWAP1 PUSH2 0x554 JUMP JUMPDEST PUSH2 0x87 JUMP JUMPDEST STOP JUMPDEST PUSH2 0x71 PUSH1 0x4 DUP1 CALLDATASIZE SUB DUP2 ADD SWAP1 PUSH2 0x6C SWAP2 SWAP1 PUSH2 0x581 JUMP JUMPDEST PUSH2 0x1A7 JUMP JUMPDEST PUSH1 0x40 MLOAD PUSH2 0x7E SWAP2 SWAP1 PUSH2 0xA2D JUMP JUMPDEST PUSH1 0x40 MLOAD DUP1 SWAP2 SUB SWAP1 RETURN JUMPDEST DUP1 PUSH1 0x0 DUP1 PUSH2 0x100 EXP DUP2 SLOAD DUP2 PUSH20 0xFFFFFFFFFFFFFFFFFFFFFFFFFFFFFFFFFFFFFFFF MUL NOT AND SWAP1 DUP4 PUSH20 0xFFFFFFFFFFFFFFFFFFFFFFFFFFFFFFFFFFFFFFFF AND MUL OR SWAP1 SSTORE POP PUSH1 0x0 PUSH1 0x1 PUSH1 0x40 MLOAD PUSH2 0xD7 SWAP1 PUSH2 0x8E1 JUMP JUMPDEST SWAP1 DUP2 MSTORE PUSH1 0x20 ADD PUSH1 0x40 MLOAD DUP1 SWAP2 SUB SWAP1 KECCAK256 DUP2 SWAP1 SSTORE POP PUSH1 0x1 DUP1 PUSH1 0x40 MLOAD PUSH2 0xF8 SWAP1 PUSH2 0x8CC JUMP JUMPDEST SWAP1 DUP2 MSTORE PUSH1 0x20 ADD PUSH1 0x40 MLOAD DUP1 SWAP2 SUB SWAP1 KECCAK256 DUP2 SWAP1 SSTORE POP PUSH1 0x1 DUP1 PUSH1 0x40 MLOAD PUSH2 0x119 SWAP1 PUSH2 0x878 JUMP JUMPDEST SWAP1 DUP2 MSTORE PUSH1 0x20 ADD PUSH1 0x40 MLOAD DUP1 SWAP2 SUB SWAP1 KECCAK256 DUP2 SWAP1 SSTORE POP PUSH1 0x2 PUSH1 0x1 PUSH1 0x40 MLOAD PUSH2 0x13B SWAP1 PUSH2 0x8A2 JUMP JUMPDEST SWAP1 DUP2 MSTORE PUSH1 0x20 ADD PUSH1 0x40 MLOAD DUP1 SWAP2 SUB SWAP1 KECCAK256 DUP2 SWAP1 SSTORE POP PUSH1 0x2 PUSH1 0x1 PUSH1 0x40 MLOAD PUSH2 0x15D SWAP1 PUSH2 0x8B7 JUMP JUMPDEST SWAP1 DUP2 MSTORE PUSH1 0x20 ADD PUSH1 0x40 MLOAD DUP1 SWAP2 SUB SWAP1 KECCAK256 DUP2 SWAP1 SSTORE POP PUSH1 0x1 PUSH1 0x2 PUSH1 0x40 MLOAD PUSH2 0x17F SWAP1 PUSH2 0x88D JUMP JUMPDEST SWAP1 DUP2 MSTORE PUSH1 0x20 ADD PUSH1 0x40 MLOAD DUP1 SWAP2 SUB SWAP1 KECCAK256 PUSH1 0x0 PUSH2 0x100 EXP DUP2 SLOAD DUP2 PUSH1 0xFF MUL NOT AND SWAP1 DUP4 ISZERO ISZERO MUL OR SWAP1 SSTORE POP POP JUMP JUMPDEST PUSH1 0x0 DUP1 PUSH1 0x0 DUP1 SLOAD SWAP1 PUSH2 0x100 EXP SWAP1 DIV PUSH20 0xFFFFFFFFFFFFFFFFFFFFFFFFFFFFFFFFFFFFFFFF AND PUSH20 0xFFFFFFFFFFFFFFFFFFFFFFFFFFFFFFFFFFFFFFFF AND PUSH4 0x8749774F CALLER DUP7 PUSH1 0x40 MLOAD DUP4 PUSH4 0xFFFFFFFF AND PUSH1 0xE0 SHL DUP2 MSTORE PUSH1 0x4 ADD PUSH2 0x205 SWAP3 SWAP2 SWAP1 PUSH2 0x911 JUMP JUMPDEST PUSH1 0x0 PUSH1 0x40 MLOAD DUP1 DUP4 SUB DUP2 DUP7 DUP1 EXTCODESIZE ISZERO DUP1 ISZERO PUSH2 0x21D JUMPI PUSH1 0x0 DUP1 REVERT JUMPDEST POP GAS STATICCALL ISZERO DUP1 ISZERO PUSH2 0x231 JUMPI RETURNDATASIZE PUSH1 0x0 DUP1 RETURNDATACOPY RETURNDATASIZE PUSH1 0x0 REVERT JUMPDEST POP POP POP POP PUSH1 0x40 MLOAD RETURNDATASIZE PUSH1 0x0 DUP3 RETURNDATACOPY RETURNDATASIZE PUSH1 0x1F NOT PUSH1 0x1F DUP3 ADD AND DUP3 ADD DUP1 PUSH1 0x40 MSTORE POP DUP2 ADD SWAP1 PUSH2 0x25A SWAP2 SWAP1 PUSH2 0x5DD JUMP JUMPDEST SWAP1 POP PUSH1 0x1 DUP2 PUSH1 0x40 MLOAD PUSH2 0x26C SWAP2 SWAP1 PUSH2 0x861 JUMP JUMPDEST SWAP1 DUP2 MSTORE PUSH1 0x20 ADD PUSH1 0x40 MLOAD DUP1 SWAP2 SUB SWAP1 KECCAK256 SLOAD PUSH1 0x1 DUP5 PUSH1 0x40 MLOAD PUSH2 0x28B SWAP2 SWAP1 PUSH2 0x861 JUMP JUMPDEST SWAP1 DUP2 MSTORE PUSH1 0x20 ADD PUSH1 0x40 MLOAD DUP1 SWAP2 SUB SWAP1 KECCAK256 SLOAD SLT ISZERO PUSH2 0x2E5 JUMPI PUSH32 0x4393DE65EE68A32D7987583B1F2C6E6AA80DF7D9AD5C0661660D70DFF18B9D6D CALLER DUP6 DUP6 PUSH1 0x40 MLOAD PUSH2 0x2D3 SWAP4 SWAP3 SWAP2 SWAP1 PUSH2 0x9DC JUMP JUMPDEST PUSH1 0x40 MLOAD DUP1 SWAP2 SUB SWAP1 LOG1 PUSH1 0x0 SWAP2 POP POP PUSH2 0x459 JUMP JUMPDEST PUSH1 0x60 DUP1 PUSH1 0x0 DUP1 SLOAD SWAP1 PUSH2 0x100 EXP SWAP1 DIV PUSH20 0xFFFFFFFFFFFFFFFFFFFFFFFFFFFFFFFFFFFFFFFF AND PUSH20 0xFFFFFFFFFFFFFFFFFFFFFFFFFFFFFFFFFFFFFFFF AND PUSH4 0x9F764D16 CALLER PUSH1 0x40 MLOAD DUP3 PUSH4 0xFFFFFFFF AND PUSH1 0xE0 SHL DUP2 MSTORE PUSH1 0x4 ADD PUSH2 0x341 SWAP2 SWAP1 PUSH2 0x8F6 JUMP JUMPDEST PUSH1 0x0 PUSH1 0x40 MLOAD DUP1 DUP4 SUB DUP2 DUP7 DUP1 EXTCODESIZE ISZERO DUP1 ISZERO PUSH2 0x359 JUMPI PUSH1 0x0 DUP1 REVERT JUMPDEST POP GAS STATICCALL ISZERO DUP1 ISZERO PUSH2 0x36D JUMPI RETURNDATASIZE PUSH1 0x0 DUP1 RETURNDATACOPY RETURNDATASIZE PUSH1 0x0 REVERT JUMPDEST POP POP POP POP PUSH1 0x40 MLOAD RETURNDATASIZE PUSH1 0x0 DUP3 RETURNDATACOPY RETURNDATASIZE PUSH1 0x1F NOT PUSH1 0x1F DUP3 ADD AND DUP3 ADD DUP1 PUSH1 0x40 MSTORE POP DUP2 ADD SWAP1 PUSH2 0x396 SWAP2 SWAP1 PUSH2 0x626 JUMP JUMPDEST DUP1 SWAP3 POP DUP2 SWAP4 POP POP POP PUSH1 0x2 DUP2 PUSH1 0x40 MLOAD PUSH2 0x3AE SWAP2 SWAP1 PUSH2 0x861 JUMP JUMPDEST SWAP1 DUP2 MSTORE PUSH1 0x20 ADD PUSH1 0x40 MLOAD DUP1 SWAP2 SUB SWAP1 KECCAK256 PUSH1 0x0 SWAP1 SLOAD SWAP1 PUSH2 0x100 EXP SWAP1 DIV PUSH1 0xFF AND ISZERO PUSH2 0x416 JUMPI PUSH32 0x4393DE65EE68A32D7987583B1F2C6E6AA80DF7D9AD5C0661660D70DFF18B9D6D CALLER DUP8 DUP8 PUSH1 0x40 MLOAD PUSH2 0x402 SWAP4 SWAP3 SWAP2 SWAP1 PUSH2 0x98B JUMP JUMPDEST PUSH1 0x40 MLOAD DUP1 SWAP2 SUB SWAP1 LOG1 PUSH1 0x0 SWAP4 POP POP POP POP PUSH2 0x459 JUMP JUMPDEST PUSH32 0x4393DE65EE68A32D7987583B1F2C6E6AA80DF7D9AD5C0661660D70DFF18B9D6D CALLER DUP8 DUP8 PUSH1 0x40 MLOAD PUSH2 0x449 SWAP4 SWAP3 SWAP2 SWAP1 PUSH2 0x93A JUMP JUMPDEST PUSH1 0x40 MLOAD DUP1 SWAP2 SUB SWAP1 LOG1 PUSH1 0x1 SWAP4 POP POP POP POP JUMPDEST SWAP3 SWAP2 POP POP JUMP JUMPDEST PUSH1 0x0 PUSH2 0x472 PUSH2 0x46D DUP5 PUSH2 0xA6D JUMP JUMPDEST PUSH2 0xA48 JUMP JUMPDEST SWAP1 POP DUP3 DUP2 MSTORE PUSH1 0x20 DUP2 ADD DUP5 DUP5 DUP5 ADD GT ISZERO PUSH2 0x48E JUMPI PUSH2 0x48D PUSH2 0xBAA JUMP JUMPDEST JUMPDEST PUSH2 0x499 DUP5 DUP3 DUP6 PUSH2 0xB03 JUMP JUMPDEST POP SWAP4 SWAP3 POP POP POP JUMP JUMPDEST PUSH1 0x0 PUSH2 0x4B4 PUSH2 0x4AF DUP5 PUSH2 0xA6D JUMP JUMPDEST PUSH2 0xA48 JUMP JUMPDEST SWAP1 POP DUP3 DUP2 MSTORE PUSH1 0x20 DUP2 ADD DUP5 DUP5 DUP5 ADD GT ISZERO PUSH2 0x4D0 JUMPI PUSH2 0x4CF PUSH2 0xBAA JUMP JUMPDEST JUMPDEST PUSH2 0x4DB DUP5 DUP3 DUP6 PUSH2 0xB12 JUMP JUMPDEST POP SWAP4 SWAP3 POP POP POP JUMP JUMPDEST PUSH1 0x0 DUP2 CALLDATALOAD SWAP1 POP PUSH2 0x4F2 DUP2 PUSH2 0xD3B JUMP JUMPDEST SWAP3 SWAP2 POP POP JUMP JUMPDEST PUSH1 0x0 DUP3 PUSH1 0x1F DUP4 ADD SLT PUSH2 0x50D JUMPI PUSH2 0x50C PUSH2 0xBA5 JUMP JUMPDEST JUMPDEST DUP2 CALLDATALOAD PUSH2 0x51D DUP5 DUP3 PUSH1 0x20 DUP7 ADD PUSH2 0x45F JUMP JUMPDEST SWAP2 POP POP SWAP3 SWAP2 POP POP JUMP JUMPDEST PUSH1 0x0 DUP3 PUSH1 0x1F DUP4 ADD SLT PUSH2 0x53B JUMPI PUSH2 0x53A PUSH2 0xBA5 JUMP JUMPDEST JUMPDEST DUP2 MLOAD PUSH2 0x54B DUP5 DUP3 PUSH1 0x20 DUP7 ADD PUSH2 0x4A1 JUMP JUMPDEST SWAP2 POP POP SWAP3 SWAP2 POP POP JUMP JUMPDEST PUSH1 0x0 PUSH1 0x20 DUP3 DUP5 SUB SLT ISZERO PUSH2 0x56A JUMPI PUSH2 0x569 PUSH2 0xBB4 JUMP JUMPDEST JUMPDEST PUSH1 0x0 PUSH2 0x578 DUP5 DUP3 DUP6 ADD PUSH2 0x4E3 JUMP JUMPDEST SWAP2 POP POP SWAP3 SWAP2 POP POP JUMP JUMPDEST PUSH1 0x0 DUP1 PUSH1 0x40 DUP4 DUP6 SUB SLT ISZERO PUSH2 0x598 JUMPI PUSH2 0x597 PUSH2 0xBB4 JUMP JUMPDEST JUMPDEST PUSH1 0x0 PUSH2 0x5A6 DUP6 DUP3 DUP7 ADD PUSH2 0x4E3 JUMP JUMPDEST SWAP3 POP POP PUSH1 0x20 DUP4 ADD CALLDATALOAD PUSH8 0xFFFFFFFFFFFFFFFF DUP2 GT ISZERO PUSH2 0x5C7 JUMPI PUSH2 0x5C6 PUSH2 0xBAF JUMP JUMPDEST JUMPDEST PUSH2 0x5D3 DUP6 DUP3 DUP7 ADD PUSH2 0x4F8 JUMP JUMPDEST SWAP2 POP POP SWAP3 POP SWAP3 SWAP1 POP JUMP JUMPDEST PUSH1 0x0 PUSH1 0x20 DUP3 DUP5 SUB SLT ISZERO PUSH2 0x5F3 JUMPI PUSH2 0x5F2 PUSH2 0xBB4 JUMP JUMPDEST JUMPDEST PUSH1 0x0 DUP3 ADD MLOAD PUSH8 0xFFFFFFFFFFFFFFFF DUP2 GT ISZERO PUSH2 0x611 JUMPI PUSH2 0x610 PUSH2 0xBAF JUMP JUMPDEST JUMPDEST PUSH2 0x61D DUP5 DUP3 DUP6 ADD PUSH2 0x526 JUMP JUMPDEST SWAP2 POP POP SWAP3 SWAP2 POP POP JUMP JUMPDEST PUSH1 0x0 DUP1 PUSH1 0x40 DUP4 DUP6 SUB SLT ISZERO PUSH2 0x63D JUMPI PUSH2 0x63C PUSH2 0xBB4 JUMP JUMPDEST JUMPDEST PUSH1 0x0 DUP4 ADD MLOAD PUSH8 0xFFFFFFFFFFFFFFFF DUP2 GT ISZERO PUSH2 0x65B JUMPI PUSH2 0x65A PUSH2 0xBAF JUMP JUMPDEST JUMPDEST PUSH2 0x667 DUP6 DUP3 DUP7 ADD PUSH2 0x526 JUMP JUMPDEST SWAP3 POP POP PUSH1 0x20 DUP4 ADD MLOAD PUSH8 0xFFFFFFFFFFFFFFFF DUP2 GT ISZERO PUSH2 0x688 JUMPI PUSH2 0x687 PUSH2 0xBAF JUMP JUMPDEST JUMPDEST PUSH2 0x694 DUP6 DUP3 DUP7 ADD PUSH2 0x526 JUMP JUMPDEST SWAP2 POP POP SWAP3 POP SWAP3 SWAP1 POP JUMP JUMPDEST PUSH2 0x6A7 DUP2 PUSH2 0xAC5 JUMP JUMPDEST DUP3 MSTORE POP POP JUMP JUMPDEST PUSH2 0x6B6 DUP2 PUSH2 0xAD7 JUMP JUMPDEST DUP3 MSTORE POP POP JUMP JUMPDEST PUSH1 0x0 PUSH2 0x6C7 DUP3 PUSH2 0xA9E JUMP JUMPDEST PUSH2 0x6D1 DUP2 DUP6 PUSH2 0xAA9 JUMP JUMPDEST SWAP4 POP PUSH2 0x6E1 DUP2 DUP6 PUSH1 0x20 DUP7 ADD PUSH2 0xB12 JUMP JUMPDEST PUSH2 0x6EA DUP2 PUSH2 0xBB9 JUMP JUMPDEST DUP5 ADD SWAP2 POP POP SWAP3 SWAP2 POP POP JUMP JUMPDEST PUSH1 0x0 PUSH2 0x700 DUP3 PUSH2 0xA9E JUMP JUMPDEST PUSH2 0x70A DUP2 DUP6 PUSH2 0xABA JUMP JUMPDEST SWAP4 POP PUSH2 0x71A DUP2 DUP6 PUSH1 0x20 DUP7 ADD PUSH2 0xB12 JUMP JUMPDEST DUP1 DUP5 ADD SWAP2 POP POP SWAP3 SWAP2 POP POP JUMP JUMPDEST PUSH1 0x0 PUSH2 0x733 PUSH1 0x5 DUP4 PUSH2 0xABA JUMP JUMPDEST SWAP2 POP PUSH2 0x73E DUP3 PUSH2 0xBCA JUMP JUMPDEST PUSH1 0x5 DUP3 ADD SWAP1 POP SWAP2 SWAP1 POP JUMP JUMPDEST PUSH1 0x0 PUSH2 0x756 PUSH1 0x7 DUP4 PUSH2 0xABA JUMP JUMPDEST SWAP2 POP PUSH2 0x761 DUP3 PUSH2 0xBF3 JUMP JUMPDEST PUSH1 0x7 DUP3 ADD SWAP1 POP SWAP2 SWAP1 POP JUMP JUMPDEST PUSH1 0x0 PUSH2 0x779 PUSH1 0xC DUP4 PUSH2 0xAA9 JUMP JUMPDEST SWAP2 POP PUSH2 0x784 DUP3 PUSH2 0xC1C JUMP JUMPDEST PUSH1 0x20 DUP3 ADD SWAP1 POP SWAP2 SWAP1 POP JUMP JUMPDEST PUSH1 0x0 PUSH2 0x79C PUSH1 0x7 DUP4 PUSH2 0xABA JUMP JUMPDEST SWAP2 POP PUSH2 0x7A7 DUP3 PUSH2 0xC45 JUMP JUMPDEST PUSH1 0x7 DUP3 ADD SWAP1 POP SWAP2 SWAP1 POP JUMP JUMPDEST PUSH1 0x0 PUSH2 0x7BF PUSH1 0x13 DUP4 PUSH2 0xAA9 JUMP JUMPDEST SWAP2 POP PUSH2 0x7CA DUP3 PUSH2 0xC6E JUMP JUMPDEST PUSH1 0x20 DUP3 ADD SWAP1 POP SWAP2 SWAP1 POP JUMP JUMPDEST PUSH1 0x0 PUSH2 0x7E2 PUSH1 0x4 DUP4 PUSH2 0xABA JUMP JUMPDEST SWAP2 POP PUSH2 0x7ED DUP3 PUSH2 0xC97 JUMP JUMPDEST PUSH1 0x4 DUP3 ADD SWAP1 POP SWAP2 SWAP1 POP JUMP JUMPDEST PUSH1 0x0 PUSH2 0x805 PUSH1 0x4 DUP4 PUSH2 0xABA JUMP JUMPDEST SWAP2 POP PUSH2 0x810 DUP3 PUSH2 0xCC0 JUMP JUMPDEST PUSH1 0x4 DUP3 ADD SWAP1 POP SWAP2 SWAP1 POP JUMP JUMPDEST PUSH1 0x0 PUSH2 0x828 PUSH1 0x14 DUP4 PUSH2 0xAA9 JUMP JUMPDEST SWAP2 POP PUSH2 0x833 DUP3 PUSH2 0xCE9 JUMP JUMPDEST PUSH1 0x20 DUP3 ADD SWAP1 POP SWAP2 SWAP1 POP JUMP JUMPDEST PUSH1 0x0 PUSH2 0x84B PUSH1 0x4 DUP4 PUSH2 0xABA JUMP JUMPDEST SWAP2 POP PUSH2 0x856 DUP3 PUSH2 0xD12 JUMP JUMPDEST PUSH1 0x4 DUP3 ADD SWAP1 POP SWAP2 SWAP1 POP JUMP JUMPDEST PUSH1 0x0 PUSH2 0x86D DUP3 DUP5 PUSH2 0x6F5 JUMP JUMPDEST SWAP2 POP DUP2 SWAP1 POP SWAP3 SWAP2 POP POP JUMP JUMPDEST PUSH1 0x0 PUSH2 0x883 DUP3 PUSH2 0x726 JUMP JUMPDEST SWAP2 POP DUP2 SWAP1 POP SWAP2 SWAP1 POP JUMP JUMPDEST PUSH1 0x0 PUSH2 0x898 DUP3 PUSH2 0x749 JUMP JUMPDEST SWAP2 POP DUP2 SWAP1 POP SWAP2 SWAP1 POP JUMP JUMPDEST PUSH1 0x0 PUSH2 0x8AD DUP3 PUSH2 0x78F JUMP JUMPDEST SWAP2 POP DUP2 SWAP1 POP SWAP2 SWAP1 POP JUMP JUMPDEST PUSH1 0x0 PUSH2 0x8C2 DUP3 PUSH2 0x7D5 JUMP JUMPDEST SWAP2 POP DUP2 SWAP1 POP SWAP2 SWAP1 POP JUMP JUMPDEST PUSH1 0x0 PUSH2 0x8D7 DUP3 PUSH2 0x7F8 JUMP JUMPDEST SWAP2 POP DUP2 SWAP1 POP SWAP2 SWAP1 POP JUMP JUMPDEST PUSH1 0x0 PUSH2 0x8EC DUP3 PUSH2 0x83E JUMP JUMPDEST SWAP2 POP DUP2 SWAP1 POP SWAP2 SWAP1 POP JUMP JUMPDEST PUSH1 0x0 PUSH1 0x20 DUP3 ADD SWAP1 POP PUSH2 0x90B PUSH1 0x0 DUP4 ADD DUP5 PUSH2 0x69E JUMP JUMPDEST SWAP3 SWAP2 POP POP JUMP JUMPDEST PUSH1 0x0 PUSH1 0x40 DUP3 ADD SWAP1 POP PUSH2 0x926 PUSH1 0x0 DUP4 ADD DUP6 PUSH2 0x69E JUMP JUMPDEST PUSH2 0x933 PUSH1 0x20 DUP4 ADD DUP5 PUSH2 0x69E JUMP JUMPDEST SWAP4 SWAP3 POP POP POP JUMP JUMPDEST PUSH1 0x0 PUSH1 0x80 DUP3 ADD SWAP1 POP PUSH2 0x94F PUSH1 0x0 DUP4 ADD DUP7 PUSH2 0x69E JUMP JUMPDEST PUSH2 0x95C PUSH1 0x20 DUP4 ADD DUP6 PUSH2 0x69E JUMP JUMPDEST DUP2 DUP2 SUB PUSH1 0x40 DUP4 ADD MSTORE PUSH2 0x96E DUP2 DUP5 PUSH2 0x6BC JUMP JUMPDEST SWAP1 POP DUP2 DUP2 SUB PUSH1 0x60 DUP4 ADD MSTORE PUSH2 0x981 DUP2 PUSH2 0x76C JUMP JUMPDEST SWAP1 POP SWAP5 SWAP4 POP POP POP POP JUMP JUMPDEST PUSH1 0x0 PUSH1 0x80 DUP3 ADD SWAP1 POP PUSH2 0x9A0 PUSH1 0x0 DUP4 ADD DUP7 PUSH2 0x69E JUMP JUMPDEST PUSH2 0x9AD PUSH1 0x20 DUP4 ADD DUP6 PUSH2 0x69E JUMP JUMPDEST DUP2 DUP2 SUB PUSH1 0x40 DUP4 ADD MSTORE PUSH2 0x9BF DUP2 DUP5 PUSH2 0x6BC JUMP JUMPDEST SWAP1 POP DUP2 DUP2 SUB PUSH1 0x60 DUP4 ADD MSTORE PUSH2 0x9D2 DUP2 PUSH2 0x7B2 JUMP JUMPDEST SWAP1 POP SWAP5 SWAP4 POP POP POP POP JUMP JUMPDEST PUSH1 0x0 PUSH1 0x80 DUP3 ADD SWAP1 POP PUSH2 0x9F1 PUSH1 0x0 DUP4 ADD DUP7 PUSH2 0x69E JUMP JUMPDEST PUSH2 0x9FE PUSH1 0x20 DUP4 ADD DUP6 PUSH2 0x69E JUMP JUMPDEST DUP2 DUP2 SUB PUSH1 0x40 DUP4 ADD MSTORE PUSH2 0xA10 DUP2 DUP5 PUSH2 0x6BC JUMP JUMPDEST SWAP1 POP DUP2 DUP2 SUB PUSH1 0x60 DUP4 ADD MSTORE PUSH2 0xA23 DUP2 PUSH2 0x81B JUMP JUMPDEST SWAP1 POP SWAP5 SWAP4 POP POP POP POP JUMP JUMPDEST PUSH1 0x0 PUSH1 0x20 DUP3 ADD SWAP1 POP PUSH2 0xA42 PUSH1 0x0 DUP4 ADD DUP5 PUSH2 0x6AD JUMP JUMPDEST SWAP3 SWAP2 POP POP JUMP JUMPDEST PUSH1 0x0 PUSH2 0xA52 PUSH2 0xA63 JUMP JUMPDEST SWAP1 POP PUSH2 0xA5E DUP3 DUP3 PUSH2 0xB45 JUMP JUMPDEST SWAP2 SWAP1 POP JUMP JUMPDEST PUSH1 0x0 PUSH1 0x40 MLOAD SWAP1 POP SWAP1 JUMP JUMPDEST PUSH1 0x0 PUSH8 0xFFFFFFFFFFFFFFFF DUP3 GT ISZERO PUSH2 0xA88 JUMPI PUSH2 0xA87 PUSH2 0xB76 JUMP JUMPDEST JUMPDEST PUSH2 0xA91 DUP3 PUSH2 0xBB9 JUMP JUMPDEST SWAP1 POP PUSH1 0x20 DUP2 ADD SWAP1 POP SWAP2 SWAP1 POP JUMP JUMPDEST PUSH1 0x0 DUP2 MLOAD SWAP1 POP SWAP2 SWAP1 POP JUMP JUMPDEST PUSH1 0x0 DUP3 DUP3 MSTORE PUSH1 0x20 DUP3 ADD SWAP1 POP SWAP3 SWAP2 POP POP JUMP JUMPDEST PUSH1 0x0 DUP2 SWAP1 POP SWAP3 SWAP2 POP POP JUMP JUMPDEST PUSH1 0x0 PUSH2 0xAD0 DUP3 PUSH2 0xAE3 JUMP JUMPDEST SWAP1 POP SWAP2 SWAP1 POP JUMP JUMPDEST PUSH1 0x0 DUP2 ISZERO ISZERO SWAP1 POP SWAP2 SWAP1 POP JUMP JUMPDEST PUSH1 0x0 PUSH20 0xFFFFFFFFFFFFFFFFFFFFFFFFFFFFFFFFFFFFFFFF DUP3 AND SWAP1 POP SWAP2 SWAP1 POP JUMP JUMPDEST DUP3 DUP2 DUP4 CALLDATACOPY PUSH1 0x0 DUP4 DUP4 ADD MSTORE POP POP POP JUMP JUMPDEST PUSH1 0x0 JUMPDEST DUP4 DUP2 LT ISZERO PUSH2 0xB30 JUMPI DUP1 DUP3 ADD MLOAD DUP2 DUP5 ADD MSTORE PUSH1 0x20 DUP2 ADD SWAP1 POP PUSH2 0xB15 JUMP JUMPDEST DUP4 DUP2 GT ISZERO PUSH2 0xB3F JUMPI PUSH1 0x0 DUP5 DUP5 ADD MSTORE JUMPDEST POP POP POP POP JUMP JUMPDEST PUSH2 0xB4E DUP3 PUSH2 0xBB9 JUMP JUMPDEST DUP2 ADD DUP2 DUP2 LT PUSH8 0xFFFFFFFFFFFFFFFF DUP3 GT OR ISZERO PUSH2 0xB6D JUMPI PUSH2 0xB6C PUSH2 0xB76 JUMP JUMPDEST JUMPDEST DUP1 PUSH1 0x40 MSTORE POP POP POP JUMP JUMPDEST PUSH32 0x4E487B7100000000000000000000000000000000000000000000000000000000 PUSH1 0x0 MSTORE PUSH1 0x41 PUSH1 0x4 MSTORE PUSH1 0x24 PUSH1 0x0 REVERT JUMPDEST PUSH1 0x0 DUP1 REVERT JUMPDEST PUSH1 0x0 DUP1 REVERT JUMPDEST PUSH1 0x0 DUP1 REVERT JUMPDEST PUSH1 0x0 DUP1 REVERT JUMPDEST PUSH1 0x0 PUSH1 0x1F NOT PUSH1 0x1F DUP4 ADD AND SWAP1 POP SWAP2 SWAP1 POP JUMP JUMPDEST PUSH32 0x636C6F7365000000000000000000000000000000000000000000000000000000 PUSH1 0x0 DUP3 ADD MSTORE POP JUMP JUMPDEST PUSH32 0x322E322E322E3200000000000000000000000000000000000000000000000000 PUSH1 0x0 DUP3 ADD MSTORE POP JUMP JUMPDEST PUSH32 0x4163636573732070617373210000000000000000000000000000000000000000 PUSH1 0x0 DUP3 ADD MSTORE POP JUMP JUMPDEST PUSH32 0x7265737461727400000000000000000000000000000000000000000000000000 PUSH1 0x0 DUP3 ADD MSTORE POP JUMP JUMPDEST PUSH32 0x496C6C6567616C20495020616464726573732100000000000000000000000000 PUSH1 0x0 DUP3 ADD MSTORE POP JUMP JUMPDEST PUSH32 0x6B696C6C00000000000000000000000000000000000000000000000000000000 PUSH1 0x0 DUP3 ADD MSTORE POP JUMP JUMPDEST PUSH32 0x6F70656E00000000000000000000000000000000000000000000000000000000 PUSH1 0x0 DUP3 ADD MSTORE POP JUMP JUMPDEST PUSH32 0x556E617574686F72697A65642061636365737321000000000000000000000000 PUSH1 0x0 DUP3 ADD MSTORE POP JUMP JUMPDEST PUSH32 0x7265616400000000000000000000000000000000000000000000000000000000 PUSH1 0x0 DUP3 ADD MSTORE POP JUMP JUMPDEST PUSH2 0xD44 DUP2 PUSH2 0xAC5 JUMP JUMPDEST DUP2 EQ PUSH2 0xD4F JUMPI PUSH1 0x0 DUP1 REVERT JUMPDEST POP JUMP INVALID LOG2 PUSH5 0x6970667358 0x22 SLT KECCAK256 0xB2 LOG2 PUSH27 0x2B18D0D9867537867BC2064D06957525D887FD80D2BCA8183D0FE8 LOG3 0xD4 PUSH5 0x736F6C6343 STOP ADDMOD SMOD STOP CALLER "
				},
				"gasEstimates": {
					"creation": {
						"codeDepositCost": "692800",
						"executionCost": "728",
						"totalCost": "693528"
					},
					"external": {
						"accessControl(address,string)": "infinite",
						"init(address)": "infinite"
					}
				},
				"methodIdentifiers": {
					"accessControl(address,string)": "32076e77",
					"init(address)": "19ab453c"
				}
			},
			"storageLayout": {
				"storage": [
					{
						"astId": 5,
						"contract": "contracts/AccessControl.sol:AccessControl",
						"label": "manager",
						"offset": 0,
						"slot": "0",
						"type": "t_contract(Management)351"
					},
					{
						"astId": 9,
						"contract": "contracts/AccessControl.sol:AccessControl",
						"label": "rightTable",
						"offset": 0,
						"slot": "1",
						"type": "t_mapping(t_string_memory_ptr,t_int256)"
					},
					{
						"astId": 13,
						"contract": "contracts/AccessControl.sol:AccessControl",
						"label": "blackListIpPool",
						"offset": 0,
						"slot": "2",
						"type": "t_mapping(t_string_memory_ptr,t_bool)"
					}
				],
				"types": {
					"t_bool": {
						"encoding": "inplace",
						"label": "bool",
						"numberOfBytes": "1"
					},
					"t_contract(Management)351": {
						"encoding": "inplace",
						"label": "contract Management",
						"numberOfBytes": "20"
					},
					"t_int256": {
						"encoding": "inplace",
						"label": "int256",
						"numberOfBytes": "32"
					},
					"t_mapping(t_string_memory_ptr,t_bool)": {
						"encoding": "mapping",
						"key": "t_string_memory_ptr",
						"label": "mapping(string => bool)",
						"numberOfBytes": "32",
						"value": "t_bool"
					},
					"t_mapping(t_string_memory_ptr,t_int256)": {
						"encoding": "mapping",
						"key": "t_string_memory_ptr",
						"label": "mapping(string => int256)",
						"numberOfBytes": "32",
						"value": "t_int256"
					},
					"t_string_memory_ptr": {
						"encoding": "bytes",
						"label": "string",
						"numberOfBytes": "32"
					}
				}
			},
			"userdoc": {
				"kind": "user",
				"methods": {},
				"version": 1
			}
		}
	}
}