{
	"data": {
		"bytecode": {
			"linkReferences": {},
			"object": "608060405234801561001057600080fd5b506115ce806100206000396000f3fe608060405234801561001057600080fd5b506004361061004c5760003560e01c806332076e7714610051578063a352ff6414610081578063c0821da3146100b1578063f09a4016146100cf575b600080fd5b61006b60048036038101906100669190610af9565b6100eb565b604051610078919061116b565b60405180910390f35b61009b60048036038101906100969190610b55565b6105cf565b6040516100a8919061116b565b60405180910390f35b6100b96105fa565b6040516100c69190611186565b60405180910390f35b6100e960048036038101906100e49190610ab9565b610602565b005b60006100f5610764565b60006100ff6105fa565b9050600080600160009054906101000a900473ffffffffffffffffffffffffffffffffffffffff1673ffffffffffffffffffffffffffffffffffffffff1663169c9de0336040518263ffffffff1660e01b815260040161015f9190610f4c565b604080518083038186803b15801561017657600080fd5b505afa15801561018a573d6000803e3d6000fd5b505050506040513d601f19601f820116820180604052508101906101ae9190610c5f565b80935081925050508180156101c35750808311155b15610211577f365c8ddb6c298b196e110ce4bc267d2ed1319736bd9d74e983f0e9cf3202f697338787426040516101fd949392919061110c565b60405180910390a1600093505050506105c9565b600160009054906101000a900473ffffffffffffffffffffffffffffffffffffffff1673ffffffffffffffffffffffffffffffffffffffff166339d319e5336040518263ffffffff1660e01b815260040161026c9190610f4c565b600060405180830381600087803b15801561028657600080fd5b505af115801561029a573d6000803e3d6000fd5b5050505060008060009054906101000a900473ffffffffffffffffffffffffffffffffffffffff1673ffffffffffffffffffffffffffffffffffffffff16638749774f33896040518363ffffffff1660e01b81526004016102fc929190610f67565b60006040518083038186803b15801561031457600080fd5b505afa158015610328573d6000803e3d6000fd5b505050506040513d6000823e3d601f19601f820116820180604052508101906103519190610b9e565b9050600061035e876105cf565b905080156103fa576002826040516103769190610eb7565b9081526020016040518091039020546002886040516103959190610eb7565b90815260200160405180910390205413156103f5577f365c8ddb6c298b196e110ce4bc267d2ed1319736bd9d74e983f0e9cf3202f697338989426040516103df94939291906110ad565b60405180910390a16000955050505050506105c9565b610449565b7f365c8ddb6c298b196e110ce4bc267d2ed1319736bd9d74e983f0e9cf3202f6973389894260405161042f9493929190610fef565b60405180910390a1600095506000955050505050506105c9565b60608060008054906101000a900473ffffffffffffffffffffffffffffffffffffffff1673ffffffffffffffffffffffffffffffffffffffff16639f764d16336040518263ffffffff1660e01b81526004016104a59190610f4c565b60006040518083038186803b1580156104bd57600080fd5b505afa1580156104d1573d6000803e3d6000fd5b505050506040513d6000823e3d601f19601f820116820180604052508101906104fa9190610be7565b80925081935050506003816040516105129190610eb7565b908152602001604051809103902060009054906101000a900460ff1615610580577f365c8ddb6c298b196e110ce4bc267d2ed1319736bd9d74e983f0e9cf3202f697338b8b42604051610568949392919061104e565b60405180910390a160009750505050505050506105c9565b7f365c8ddb6c298b196e110ce4bc267d2ed1319736bd9d74e983f0e9cf3202f697338b8b426040516105b59493929190610f90565b60405180910390a160019750505050505050505b92915050565b6000806002836040516105e29190610eb7565b90815260200160405180910390205414159050919050565b600042905090565b816000806101000a81548173ffffffffffffffffffffffffffffffffffffffff021916908373ffffffffffffffffffffffffffffffffffffffff16021790555080600160006101000a81548173ffffffffffffffffffffffffffffffffffffffff021916908373ffffffffffffffffffffffffffffffffffffffff1602179055506001600260405161069390610f37565b9081526020016040518091039020819055506002806040516106b490610f22565b9081526020016040518091039020819055506002806040516106d590610ece565b908152602001604051809103902081905550600360026040516106f790610ef8565b9081526020016040518091039020819055506003600260405161071990610f0d565b9081526020016040518091039020819055506001600360405161073b90610ee3565b908152602001604051809103902060006101000a81548160ff0219169083151502179055505050565b60011515600460003373ffffffffffffffffffffffffffffffffffffffff1673ffffffffffffffffffffffffffffffffffffffff16815260200190815260200160002060000160009054906101000a900460ff16151514156108f5576000600460003373ffffffffffffffffffffffffffffffffffffffff1673ffffffffffffffffffffffffffffffffffffffff1681526020019081526020016000206001015442610810919061121e565b905042600460003373ffffffffffffffffffffffffffffffffffffffff1673ffffffffffffffffffffffffffffffffffffffff16815260200190815260200160002060010181905550600681116108ef57600160009054906101000a900473ffffffffffffffffffffffffffffffffffffffff1673ffffffffffffffffffffffffffffffffffffffff166372700241336040518263ffffffff1660e01b81526004016108bc9190610f4c565b600060405180830381600087803b1580156108d657600080fd5b505af11580156108ea573d6000803e3d6000fd5b505050505b50610998565b6001600460003373ffffffffffffffffffffffffffffffffffffffff1673ffffffffffffffffffffffffffffffffffffffff16815260200190815260200160002060000160006101000a81548160ff02191690831515021790555042600460003373ffffffffffffffffffffffffffffffffffffffff1673ffffffffffffffffffffffffffffffffffffffff168152602001908152602001600020600101819055505b565b60006109ad6109a8846111c6565b6111a1565b9050828152602081018484840111156109c9576109c8611370565b5b6109d484828561129a565b509392505050565b60006109ef6109ea846111c6565b6111a1565b905082815260208101848484011115610a0b57610a0a611370565b5b610a168482856112a9565b509392505050565b600081359050610a2d81611553565b92915050565b600081519050610a428161156a565b92915050565b600082601f830112610a5d57610a5c61136b565b5b8135610a6d84826020860161099a565b91505092915050565b600082601f830112610a8b57610a8a61136b565b5b8151610a9b8482602086016109dc565b91505092915050565b600081519050610ab381611581565b92915050565b60008060408385031215610ad057610acf61137a565b5b6000610ade85828601610a1e565b9250506020610aef85828601610a1e565b9150509250929050565b60008060408385031215610b1057610b0f61137a565b5b6000610b1e85828601610a1e565b925050602083013567ffffffffffffffff811115610b3f57610b3e611375565b5b610b4b85828601610a48565b9150509250929050565b600060208284031215610b6b57610b6a61137a565b5b600082013567ffffffffffffffff811115610b8957610b88611375565b5b610b9584828501610a48565b91505092915050565b600060208284031215610bb457610bb361137a565b5b600082015167ffffffffffffffff811115610bd257610bd1611375565b5b610bde84828501610a76565b91505092915050565b60008060408385031215610bfe57610bfd61137a565b5b600083015167ffffffffffffffff811115610c1c57610c1b611375565b5b610c2885828601610a76565b925050602083015167ffffffffffffffff811115610c4957610c48611375565b5b610c5585828601610a76565b9150509250929050565b60008060408385031215610c7657610c7561137a565b5b6000610c8485828601610aa4565b9250506020610c9585828601610a33565b9150509250929050565b610ca881611252565b82525050565b610cb781611264565b82525050565b6000610cc8826111f7565b610cd28185611202565b9350610ce28185602086016112a9565b610ceb8161137f565b840191505092915050565b6000610d01826111f7565b610d0b8185611213565b9350610d1b8185602086016112a9565b80840191505092915050565b6000610d34600583611213565b9150610d3f82611390565b600582019050919050565b6000610d57600783611213565b9150610d62826113b9565b600782019050919050565b6000610d7a600c83611202565b9150610d85826113e2565b602082019050919050565b6000610d9d600f83611202565b9150610da88261140b565b602082019050919050565b6000610dc0600783611213565b9150610dcb82611434565b600782019050919050565b6000610de3601383611202565b9150610dee8261145d565b602082019050919050565b6000610e06600483611213565b9150610e1182611486565b600482019050919050565b6000610e29600483611213565b9150610e34826114af565b600482019050919050565b6000610e4c601483611202565b9150610e57826114d8565b602082019050919050565b6000610e6f602083611202565b9150610e7a82611501565b602082019050919050565b6000610e92600483611213565b9150610e9d8261152a565b600482019050919050565b610eb181611290565b82525050565b6000610ec38284610cf6565b915081905092915050565b6000610ed982610d27565b9150819050919050565b6000610eee82610d4a565b9150819050919050565b6000610f0382610db3565b9150819050919050565b6000610f1882610df9565b9150819050919050565b6000610f2d82610e1c565b9150819050919050565b6000610f4282610e85565b9150819050919050565b6000602082019050610f616000830184610c9f565b92915050565b6000604082019050610f7c6000830185610c9f565b610f896020830184610c9f565b9392505050565b600060a082019050610fa56000830187610c9f565b610fb26020830186610c9f565b8181036040830152610fc48185610cbd565b90508181036060830152610fd781610d6d565b9050610fe66080830184610ea8565b95945050505050565b600060a0820190506110046000830187610c9f565b6110116020830186610c9f565b81810360408301526110238185610cbd565b9050818103606083015261103681610d90565b90506110456080830184610ea8565b95945050505050565b600060a0820190506110636000830187610c9f565b6110706020830186610c9f565b81810360408301526110828185610cbd565b9050818103606083015261109581610dd6565b90506110a46080830184610ea8565b95945050505050565b600060a0820190506110c26000830187610c9f565b6110cf6020830186610c9f565b81810360408301526110e18185610cbd565b905081810360608301526110f481610e3f565b90506111036080830184610ea8565b95945050505050565b600060a0820190506111216000830187610c9f565b61112e6020830186610c9f565b81810360408301526111408185610cbd565b9050818103606083015261115381610e62565b90506111626080830184610ea8565b95945050505050565b60006020820190506111806000830184610cae565b92915050565b600060208201905061119b6000830184610ea8565b92915050565b60006111ab6111bc565b90506111b782826112dc565b919050565b6000604051905090565b600067ffffffffffffffff8211156111e1576111e061133c565b5b6111ea8261137f565b9050602081019050919050565b600081519050919050565b600082825260208201905092915050565b600081905092915050565b600061122982611290565b915061123483611290565b9250828210156112475761124661130d565b5b828203905092915050565b600061125d82611270565b9050919050565b60008115159050919050565b600073ffffffffffffffffffffffffffffffffffffffff82169050919050565b6000819050919050565b82818337600083830152505050565b60005b838110156112c75780820151818401526020810190506112ac565b838111156112d6576000848401525b50505050565b6112e58261137f565b810181811067ffffffffffffffff821117156113045761130361133c565b5b80604052505050565b7f4e487b7100000000000000000000000000000000000000000000000000000000600052601160045260246000fd5b7f4e487b7100000000000000000000000000000000000000000000000000000000600052604160045260246000fd5b600080fd5b600080fd5b600080fd5b600080fd5b6000601f19601f8301169050919050565b7f636c6f7365000000000000000000000000000000000000000000000000000000600082015250565b7f322e322e322e3200000000000000000000000000000000000000000000000000600082015250565b7f4163636573732070617373210000000000000000000000000000000000000000600082015250565b7f496c6c6567616c20616374696f6e210000000000000000000000000000000000600082015250565b7f7265737461727400000000000000000000000000000000000000000000000000600082015250565b7f496c6c6567616c20495020616464726573732100000000000000000000000000600082015250565b7f6b696c6c00000000000000000000000000000000000000000000000000000000600082015250565b7f6f70656e00000000000000000000000000000000000000000000000000000000600082015250565b7f556e617574686f72697a65642061636365737321000000000000000000000000600082015250565b7f5374696c6c20626c6f636b65642c20756e61626c6520746f2061636365737321600082015250565b7f7265616400000000000000000000000000000000000000000000000000000000600082015250565b61155c81611252565b811461156757600080fd5b50565b61157381611264565b811461157e57600080fd5b50565b61158a81611290565b811461159557600080fd5b5056fea2646970667358221220143edd411b452bca822b2337cc2fafc4e6b138e57772dbcab714a299f08e181c64736f6c63430008070033",
			"opcodes": "PUSH1 0x80 PUSH1 0x40 MSTORE CALLVALUE DUP1 ISZERO PUSH2 0x10 JUMPI PUSH1 0x0 DUP1 REVERT JUMPDEST POP PUSH2 0x15CE DUP1 PUSH2 0x20 PUSH1 0x0 CODECOPY PUSH1 0x0 RETURN INVALID PUSH1 0x80 PUSH1 0x40 MSTORE CALLVALUE DUP1 ISZERO PUSH2 0x10 JUMPI PUSH1 0x0 DUP1 REVERT JUMPDEST POP PUSH1 0x4 CALLDATASIZE LT PUSH2 0x4C JUMPI PUSH1 0x0 CALLDATALOAD PUSH1 0xE0 SHR DUP1 PUSH4 0x32076E77 EQ PUSH2 0x51 JUMPI DUP1 PUSH4 0xA352FF64 EQ PUSH2 0x81 JUMPI DUP1 PUSH4 0xC0821DA3 EQ PUSH2 0xB1 JUMPI DUP1 PUSH4 0xF09A4016 EQ PUSH2 0xCF JUMPI JUMPDEST PUSH1 0x0 DUP1 REVERT JUMPDEST PUSH2 0x6B PUSH1 0x4 DUP1 CALLDATASIZE SUB DUP2 ADD SWAP1 PUSH2 0x66 SWAP2 SWAP1 PUSH2 0xAF9 JUMP JUMPDEST PUSH2 0xEB JUMP JUMPDEST PUSH1 0x40 MLOAD PUSH2 0x78 SWAP2 SWAP1 PUSH2 0x116B JUMP JUMPDEST PUSH1 0x40 MLOAD DUP1 SWAP2 SUB SWAP1 RETURN JUMPDEST PUSH2 0x9B PUSH1 0x4 DUP1 CALLDATASIZE SUB DUP2 ADD SWAP1 PUSH2 0x96 SWAP2 SWAP1 PUSH2 0xB55 JUMP JUMPDEST PUSH2 0x5CF JUMP JUMPDEST PUSH1 0x40 MLOAD PUSH2 0xA8 SWAP2 SWAP1 PUSH2 0x116B JUMP JUMPDEST PUSH1 0x40 MLOAD DUP1 SWAP2 SUB SWAP1 RETURN JUMPDEST PUSH2 0xB9 PUSH2 0x5FA JUMP JUMPDEST PUSH1 0x40 MLOAD PUSH2 0xC6 SWAP2 SWAP1 PUSH2 0x1186 JUMP JUMPDEST PUSH1 0x40 MLOAD DUP1 SWAP2 SUB SWAP1 RETURN JUMPDEST PUSH2 0xE9 PUSH1 0x4 DUP1 CALLDATASIZE SUB DUP2 ADD SWAP1 PUSH2 0xE4 SWAP2 SWAP1 PUSH2 0xAB9 JUMP JUMPDEST PUSH2 0x602 JUMP JUMPDEST STOP JUMPDEST PUSH1 0x0 PUSH2 0xF5 PUSH2 0x764 JUMP JUMPDEST PUSH1 0x0 PUSH2 0xFF PUSH2 0x5FA JUMP JUMPDEST SWAP1 POP PUSH1 0x0 DUP1 PUSH1 0x1 PUSH1 0x0 SWAP1 SLOAD SWAP1 PUSH2 0x100 EXP SWAP1 DIV PUSH20 0xFFFFFFFFFFFFFFFFFFFFFFFFFFFFFFFFFFFFFFFF AND PUSH20 0xFFFFFFFFFFFFFFFFFFFFFFFFFFFFFFFFFFFFFFFF AND PUSH4 0x169C9DE0 CALLER PUSH1 0x40 MLOAD DUP3 PUSH4 0xFFFFFFFF AND PUSH1 0xE0 SHL DUP2 MSTORE PUSH1 0x4 ADD PUSH2 0x15F SWAP2 SWAP1 PUSH2 0xF4C JUMP JUMPDEST PUSH1 0x40 DUP1 MLOAD DUP1 DUP4 SUB DUP2 DUP7 DUP1 EXTCODESIZE ISZERO DUP1 ISZERO PUSH2 0x176 JUMPI PUSH1 0x0 DUP1 REVERT JUMPDEST POP GAS STATICCALL ISZERO DUP1 ISZERO PUSH2 0x18A JUMPI RETURNDATASIZE PUSH1 0x0 DUP1 RETURNDATACOPY RETURNDATASIZE PUSH1 0x0 REVERT JUMPDEST POP POP POP POP PUSH1 0x40 MLOAD RETURNDATASIZE PUSH1 0x1F NOT PUSH1 0x1F DUP3 ADD AND DUP3 ADD DUP1 PUSH1 0x40 MSTORE POP DUP2 ADD SWAP1 PUSH2 0x1AE SWAP2 SWAP1 PUSH2 0xC5F JUMP JUMPDEST DUP1 SWAP4 POP DUP2 SWAP3 POP POP POP DUP2 DUP1 ISZERO PUSH2 0x1C3 JUMPI POP DUP1 DUP4 GT ISZERO JUMPDEST ISZERO PUSH2 0x211 JUMPI PUSH32 0x365C8DDB6C298B196E110CE4BC267D2ED1319736BD9D74E983F0E9CF3202F697 CALLER DUP8 DUP8 TIMESTAMP PUSH1 0x40 MLOAD PUSH2 0x1FD SWAP5 SWAP4 SWAP3 SWAP2 SWAP1 PUSH2 0x110C JUMP JUMPDEST PUSH1 0x40 MLOAD DUP1 SWAP2 SUB SWAP1 LOG1 PUSH1 0x0 SWAP4 POP POP POP POP PUSH2 0x5C9 JUMP JUMPDEST PUSH1 0x1 PUSH1 0x0 SWAP1 SLOAD SWAP1 PUSH2 0x100 EXP SWAP1 DIV PUSH20 0xFFFFFFFFFFFFFFFFFFFFFFFFFFFFFFFFFFFFFFFF AND PUSH20 0xFFFFFFFFFFFFFFFFFFFFFFFFFFFFFFFFFFFFFFFF AND PUSH4 0x39D319E5 CALLER PUSH1 0x40 MLOAD DUP3 PUSH4 0xFFFFFFFF AND PUSH1 0xE0 SHL DUP2 MSTORE PUSH1 0x4 ADD PUSH2 0x26C SWAP2 SWAP1 PUSH2 0xF4C JUMP JUMPDEST PUSH1 0x0 PUSH1 0x40 MLOAD DUP1 DUP4 SUB DUP2 PUSH1 0x0 DUP8 DUP1 EXTCODESIZE ISZERO DUP1 ISZERO PUSH2 0x286 JUMPI PUSH1 0x0 DUP1 REVERT JUMPDEST POP GAS CALL ISZERO DUP1 ISZERO PUSH2 0x29A JUMPI RETURNDATASIZE PUSH1 0x0 DUP1 RETURNDATACOPY RETURNDATASIZE PUSH1 0x0 REVERT JUMPDEST POP POP POP POP PUSH1 0x0 DUP1 PUSH1 0x0 SWAP1 SLOAD SWAP1 PUSH2 0x100 EXP SWAP1 DIV PUSH20 0xFFFFFFFFFFFFFFFFFFFFFFFFFFFFFFFFFFFFFFFF AND PUSH20 0xFFFFFFFFFFFFFFFFFFFFFFFFFFFFFFFFFFFFFFFF AND PUSH4 0x8749774F CALLER DUP10 PUSH1 0x40 MLOAD DUP4 PUSH4 0xFFFFFFFF AND PUSH1 0xE0 SHL DUP2 MSTORE PUSH1 0x4 ADD PUSH2 0x2FC SWAP3 SWAP2 SWAP1 PUSH2 0xF67 JUMP JUMPDEST PUSH1 0x0 PUSH1 0x40 MLOAD DUP1 DUP4 SUB DUP2 DUP7 DUP1 EXTCODESIZE ISZERO DUP1 ISZERO PUSH2 0x314 JUMPI PUSH1 0x0 DUP1 REVERT JUMPDEST POP GAS STATICCALL ISZERO DUP1 ISZERO PUSH2 0x328 JUMPI RETURNDATASIZE PUSH1 0x0 DUP1 RETURNDATACOPY RETURNDATASIZE PUSH1 0x0 REVERT JUMPDEST POP POP POP POP PUSH1 0x40 MLOAD RETURNDATASIZE PUSH1 0x0 DUP3 RETURNDATACOPY RETURNDATASIZE PUSH1 0x1F NOT PUSH1 0x1F DUP3 ADD AND DUP3 ADD DUP1 PUSH1 0x40 MSTORE POP DUP2 ADD SWAP1 PUSH2 0x351 SWAP2 SWAP1 PUSH2 0xB9E JUMP JUMPDEST SWAP1 POP PUSH1 0x0 PUSH2 0x35E DUP8 PUSH2 0x5CF JUMP JUMPDEST SWAP1 POP DUP1 ISZERO PUSH2 0x3FA JUMPI PUSH1 0x2 DUP3 PUSH1 0x40 MLOAD PUSH2 0x376 SWAP2 SWAP1 PUSH2 0xEB7 JUMP JUMPDEST SWAP1 DUP2 MSTORE PUSH1 0x20 ADD PUSH1 0x40 MLOAD DUP1 SWAP2 SUB SWAP1 KECCAK256 SLOAD PUSH1 0x2 DUP9 PUSH1 0x40 MLOAD PUSH2 0x395 SWAP2 SWAP1 PUSH2 0xEB7 JUMP JUMPDEST SWAP1 DUP2 MSTORE PUSH1 0x20 ADD PUSH1 0x40 MLOAD DUP1 SWAP2 SUB SWAP1 KECCAK256 SLOAD SGT ISZERO PUSH2 0x3F5 JUMPI PUSH32 0x365C8DDB6C298B196E110CE4BC267D2ED1319736BD9D74E983F0E9CF3202F697 CALLER DUP10 DUP10 TIMESTAMP PUSH1 0x40 MLOAD PUSH2 0x3DF SWAP5 SWAP4 SWAP3 SWAP2 SWAP1 PUSH2 0x10AD JUMP JUMPDEST PUSH1 0x40 MLOAD DUP1 SWAP2 SUB SWAP1 LOG1 PUSH1 0x0 SWAP6 POP POP POP POP POP POP PUSH2 0x5C9 JUMP JUMPDEST PUSH2 0x449 JUMP JUMPDEST PUSH32 0x365C8DDB6C298B196E110CE4BC267D2ED1319736BD9D74E983F0E9CF3202F697 CALLER DUP10 DUP10 TIMESTAMP PUSH1 0x40 MLOAD PUSH2 0x42F SWAP5 SWAP4 SWAP3 SWAP2 SWAP1 PUSH2 0xFEF JUMP JUMPDEST PUSH1 0x40 MLOAD DUP1 SWAP2 SUB SWAP1 LOG1 PUSH1 0x0 SWAP6 POP PUSH1 0x0 SWAP6 POP POP POP POP POP POP PUSH2 0x5C9 JUMP JUMPDEST PUSH1 0x60 DUP1 PUSH1 0x0 DUP1 SLOAD SWAP1 PUSH2 0x100 EXP SWAP1 DIV PUSH20 0xFFFFFFFFFFFFFFFFFFFFFFFFFFFFFFFFFFFFFFFF AND PUSH20 0xFFFFFFFFFFFFFFFFFFFFFFFFFFFFFFFFFFFFFFFF AND PUSH4 0x9F764D16 CALLER PUSH1 0x40 MLOAD DUP3 PUSH4 0xFFFFFFFF AND PUSH1 0xE0 SHL DUP2 MSTORE PUSH1 0x4 ADD PUSH2 0x4A5 SWAP2 SWAP1 PUSH2 0xF4C JUMP JUMPDEST PUSH1 0x0 PUSH1 0x40 MLOAD DUP1 DUP4 SUB DUP2 DUP7 DUP1 EXTCODESIZE ISZERO DUP1 ISZERO PUSH2 0x4BD JUMPI PUSH1 0x0 DUP1 REVERT JUMPDEST POP GAS STATICCALL ISZERO DUP1 ISZERO PUSH2 0x4D1 JUMPI RETURNDATASIZE PUSH1 0x0 DUP1 RETURNDATACOPY RETURNDATASIZE PUSH1 0x0 REVERT JUMPDEST POP POP POP POP PUSH1 0x40 MLOAD RETURNDATASIZE PUSH1 0x0 DUP3 RETURNDATACOPY RETURNDATASIZE PUSH1 0x1F NOT PUSH1 0x1F DUP3 ADD AND DUP3 ADD DUP1 PUSH1 0x40 MSTORE POP DUP2 ADD SWAP1 PUSH2 0x4FA SWAP2 SWAP1 PUSH2 0xBE7 JUMP JUMPDEST DUP1 SWAP3 POP DUP2 SWAP4 POP POP POP PUSH1 0x3 DUP2 PUSH1 0x40 MLOAD PUSH2 0x512 SWAP2 SWAP1 PUSH2 0xEB7 JUMP JUMPDEST SWAP1 DUP2 MSTORE PUSH1 0x20 ADD PUSH1 0x40 MLOAD DUP1 SWAP2 SUB SWAP1 KECCAK256 PUSH1 0x0 SWAP1 SLOAD SWAP1 PUSH2 0x100 EXP SWAP1 DIV PUSH1 0xFF AND ISZERO PUSH2 0x580 JUMPI PUSH32 0x365C8DDB6C298B196E110CE4BC267D2ED1319736BD9D74E983F0E9CF3202F697 CALLER DUP12 DUP12 TIMESTAMP PUSH1 0x40 MLOAD PUSH2 0x568 SWAP5 SWAP4 SWAP3 SWAP2 SWAP1 PUSH2 0x104E JUMP JUMPDEST PUSH1 0x40 MLOAD DUP1 SWAP2 SUB SWAP1 LOG1 PUSH1 0x0 SWAP8 POP POP POP POP POP POP POP POP PUSH2 0x5C9 JUMP JUMPDEST PUSH32 0x365C8DDB6C298B196E110CE4BC267D2ED1319736BD9D74E983F0E9CF3202F697 CALLER DUP12 DUP12 TIMESTAMP PUSH1 0x40 MLOAD PUSH2 0x5B5 SWAP5 SWAP4 SWAP3 SWAP2 SWAP1 PUSH2 0xF90 JUMP JUMPDEST PUSH1 0x40 MLOAD DUP1 SWAP2 SUB SWAP1 LOG1 PUSH1 0x1 SWAP8 POP POP POP POP POP POP POP POP JUMPDEST SWAP3 SWAP2 POP POP JUMP JUMPDEST PUSH1 0x0 DUP1 PUSH1 0x2 DUP4 PUSH1 0x40 MLOAD PUSH2 0x5E2 SWAP2 SWAP1 PUSH2 0xEB7 JUMP JUMPDEST SWAP1 DUP2 MSTORE PUSH1 0x20 ADD PUSH1 0x40 MLOAD DUP1 SWAP2 SUB SWAP1 KECCAK256 SLOAD EQ ISZERO SWAP1 POP SWAP2 SWAP1 POP JUMP JUMPDEST PUSH1 0x0 TIMESTAMP SWAP1 POP SWAP1 JUMP JUMPDEST DUP2 PUSH1 0x0 DUP1 PUSH2 0x100 EXP DUP2 SLOAD DUP2 PUSH20 0xFFFFFFFFFFFFFFFFFFFFFFFFFFFFFFFFFFFFFFFF MUL NOT AND SWAP1 DUP4 PUSH20 0xFFFFFFFFFFFFFFFFFFFFFFFFFFFFFFFFFFFFFFFF AND MUL OR SWAP1 SSTORE POP DUP1 PUSH1 0x1 PUSH1 0x0 PUSH2 0x100 EXP DUP2 SLOAD DUP2 PUSH20 0xFFFFFFFFFFFFFFFFFFFFFFFFFFFFFFFFFFFFFFFF MUL NOT AND SWAP1 DUP4 PUSH20 0xFFFFFFFFFFFFFFFFFFFFFFFFFFFFFFFFFFFFFFFF AND MUL OR SWAP1 SSTORE POP PUSH1 0x1 PUSH1 0x2 PUSH1 0x40 MLOAD PUSH2 0x693 SWAP1 PUSH2 0xF37 JUMP JUMPDEST SWAP1 DUP2 MSTORE PUSH1 0x20 ADD PUSH1 0x40 MLOAD DUP1 SWAP2 SUB SWAP1 KECCAK256 DUP2 SWAP1 SSTORE POP PUSH1 0x2 DUP1 PUSH1 0x40 MLOAD PUSH2 0x6B4 SWAP1 PUSH2 0xF22 JUMP JUMPDEST SWAP1 DUP2 MSTORE PUSH1 0x20 ADD PUSH1 0x40 MLOAD DUP1 SWAP2 SUB SWAP1 KECCAK256 DUP2 SWAP1 SSTORE POP PUSH1 0x2 DUP1 PUSH1 0x40 MLOAD PUSH2 0x6D5 SWAP1 PUSH2 0xECE JUMP JUMPDEST SWAP1 DUP2 MSTORE PUSH1 0x20 ADD PUSH1 0x40 MLOAD DUP1 SWAP2 SUB SWAP1 KECCAK256 DUP2 SWAP1 SSTORE POP PUSH1 0x3 PUSH1 0x2 PUSH1 0x40 MLOAD PUSH2 0x6F7 SWAP1 PUSH2 0xEF8 JUMP JUMPDEST SWAP1 DUP2 MSTORE PUSH1 0x20 ADD PUSH1 0x40 MLOAD DUP1 SWAP2 SUB SWAP1 KECCAK256 DUP2 SWAP1 SSTORE POP PUSH1 0x3 PUSH1 0x2 PUSH1 0x40 MLOAD PUSH2 0x719 SWAP1 PUSH2 0xF0D JUMP JUMPDEST SWAP1 DUP2 MSTORE PUSH1 0x20 ADD PUSH1 0x40 MLOAD DUP1 SWAP2 SUB SWAP1 KECCAK256 DUP2 SWAP1 SSTORE POP PUSH1 0x1 PUSH1 0x3 PUSH1 0x40 MLOAD PUSH2 0x73B SWAP1 PUSH2 0xEE3 JUMP JUMPDEST SWAP1 DUP2 MSTORE PUSH1 0x20 ADD PUSH1 0x40 MLOAD DUP1 SWAP2 SUB SWAP1 KECCAK256 PUSH1 0x0 PUSH2 0x100 EXP DUP2 SLOAD DUP2 PUSH1 0xFF MUL NOT AND SWAP1 DUP4 ISZERO ISZERO MUL OR SWAP1 SSTORE POP POP POP JUMP JUMPDEST PUSH1 0x1 ISZERO ISZERO PUSH1 0x4 PUSH1 0x0 CALLER PUSH20 0xFFFFFFFFFFFFFFFFFFFFFFFFFFFFFFFFFFFFFFFF AND PUSH20 0xFFFFFFFFFFFFFFFFFFFFFFFFFFFFFFFFFFFFFFFF AND DUP2 MSTORE PUSH1 0x20 ADD SWAP1 DUP2 MSTORE PUSH1 0x20 ADD PUSH1 0x0 KECCAK256 PUSH1 0x0 ADD PUSH1 0x0 SWAP1 SLOAD SWAP1 PUSH2 0x100 EXP SWAP1 DIV PUSH1 0xFF AND ISZERO ISZERO EQ ISZERO PUSH2 0x8F5 JUMPI PUSH1 0x0 PUSH1 0x4 PUSH1 0x0 CALLER PUSH20 0xFFFFFFFFFFFFFFFFFFFFFFFFFFFFFFFFFFFFFFFF AND PUSH20 0xFFFFFFFFFFFFFFFFFFFFFFFFFFFFFFFFFFFFFFFF AND DUP2 MSTORE PUSH1 0x20 ADD SWAP1 DUP2 MSTORE PUSH1 0x20 ADD PUSH1 0x0 KECCAK256 PUSH1 0x1 ADD SLOAD TIMESTAMP PUSH2 0x810 SWAP2 SWAP1 PUSH2 0x121E JUMP JUMPDEST SWAP1 POP TIMESTAMP PUSH1 0x4 PUSH1 0x0 CALLER PUSH20 0xFFFFFFFFFFFFFFFFFFFFFFFFFFFFFFFFFFFFFFFF AND PUSH20 0xFFFFFFFFFFFFFFFFFFFFFFFFFFFFFFFFFFFFFFFF AND DUP2 MSTORE PUSH1 0x20 ADD SWAP1 DUP2 MSTORE PUSH1 0x20 ADD PUSH1 0x0 KECCAK256 PUSH1 0x1 ADD DUP2 SWAP1 SSTORE POP PUSH1 0x6 DUP2 GT PUSH2 0x8EF JUMPI PUSH1 0x1 PUSH1 0x0 SWAP1 SLOAD SWAP1 PUSH2 0x100 EXP SWAP1 DIV PUSH20 0xFFFFFFFFFFFFFFFFFFFFFFFFFFFFFFFFFFFFFFFF AND PUSH20 0xFFFFFFFFFFFFFFFFFFFFFFFFFFFFFFFFFFFFFFFF AND PUSH4 0x72700241 CALLER PUSH1 0x40 MLOAD DUP3 PUSH4 0xFFFFFFFF AND PUSH1 0xE0 SHL DUP2 MSTORE PUSH1 0x4 ADD PUSH2 0x8BC SWAP2 SWAP1 PUSH2 0xF4C JUMP JUMPDEST PUSH1 0x0 PUSH1 0x40 MLOAD DUP1 DUP4 SUB DUP2 PUSH1 0x0 DUP8 DUP1 EXTCODESIZE ISZERO DUP1 ISZERO PUSH2 0x8D6 JUMPI PUSH1 0x0 DUP1 REVERT JUMPDEST POP GAS CALL ISZERO DUP1 ISZERO PUSH2 0x8EA JUMPI RETURNDATASIZE PUSH1 0x0 DUP1 RETURNDATACOPY RETURNDATASIZE PUSH1 0x0 REVERT JUMPDEST POP POP POP POP JUMPDEST POP PUSH2 0x998 JUMP JUMPDEST PUSH1 0x1 PUSH1 0x4 PUSH1 0x0 CALLER PUSH20 0xFFFFFFFFFFFFFFFFFFFFFFFFFFFFFFFFFFFFFFFF AND PUSH20 0xFFFFFFFFFFFFFFFFFFFFFFFFFFFFFFFFFFFFFFFF AND DUP2 MSTORE PUSH1 0x20 ADD SWAP1 DUP2 MSTORE PUSH1 0x20 ADD PUSH1 0x0 KECCAK256 PUSH1 0x0 ADD PUSH1 0x0 PUSH2 0x100 EXP DUP2 SLOAD DUP2 PUSH1 0xFF MUL NOT AND SWAP1 DUP4 ISZERO ISZERO MUL OR SWAP1 SSTORE POP TIMESTAMP PUSH1 0x4 PUSH1 0x0 CALLER PUSH20 0xFFFFFFFFFFFFFFFFFFFFFFFFFFFFFFFFFFFFFFFF AND PUSH20 0xFFFFFFFFFFFFFFFFFFFFFFFFFFFFFFFFFFFFFFFF AND DUP2 MSTORE PUSH1 0x20 ADD SWAP1 DUP2 MSTORE PUSH1 0x20 ADD PUSH1 0x0 KECCAK256 PUSH1 0x1 ADD DUP2 SWAP1 SSTORE POP JUMPDEST JUMP JUMPDEST PUSH1 0x0 PUSH2 0x9AD PUSH2 0x9A8 DUP5 PUSH2 0x11C6 JUMP JUMPDEST PUSH2 0x11A1 JUMP JUMPDEST SWAP1 POP DUP3 DUP2 MSTORE PUSH1 0x20 DUP2 ADD DUP5 DUP5 DUP5 ADD GT ISZERO PUSH2 0x9C9 JUMPI PUSH2 0x9C8 PUSH2 0x1370 JUMP JUMPDEST JUMPDEST PUSH2 0x9D4 DUP5 DUP3 DUP6 PUSH2 0x129A JUMP JUMPDEST POP SWAP4 SWAP3 POP POP POP JUMP JUMPDEST PUSH1 0x0 PUSH2 0x9EF PUSH2 0x9EA DUP5 PUSH2 0x11C6 JUMP JUMPDEST PUSH2 0x11A1 JUMP JUMPDEST SWAP1 POP DUP3 DUP2 MSTORE PUSH1 0x20 DUP2 ADD DUP5 DUP5 DUP5 ADD GT ISZERO PUSH2 0xA0B JUMPI PUSH2 0xA0A PUSH2 0x1370 JUMP JUMPDEST JUMPDEST PUSH2 0xA16 DUP5 DUP3 DUP6 PUSH2 0x12A9 JUMP JUMPDEST POP SWAP4 SWAP3 POP POP POP JUMP JUMPDEST PUSH1 0x0 DUP2 CALLDATALOAD SWAP1 POP PUSH2 0xA2D DUP2 PUSH2 0x1553 JUMP JUMPDEST SWAP3 SWAP2 POP POP JUMP JUMPDEST PUSH1 0x0 DUP2 MLOAD SWAP1 POP PUSH2 0xA42 DUP2 PUSH2 0x156A JUMP JUMPDEST SWAP3 SWAP2 POP POP JUMP JUMPDEST PUSH1 0x0 DUP3 PUSH1 0x1F DUP4 ADD SLT PUSH2 0xA5D JUMPI PUSH2 0xA5C PUSH2 0x136B JUMP JUMPDEST JUMPDEST DUP2 CALLDATALOAD PUSH2 0xA6D DUP5 DUP3 PUSH1 0x20 DUP7 ADD PUSH2 0x99A JUMP JUMPDEST SWAP2 POP POP SWAP3 SWAP2 POP POP JUMP JUMPDEST PUSH1 0x0 DUP3 PUSH1 0x1F DUP4 ADD SLT PUSH2 0xA8B JUMPI PUSH2 0xA8A PUSH2 0x136B JUMP JUMPDEST JUMPDEST DUP2 MLOAD PUSH2 0xA9B DUP5 DUP3 PUSH1 0x20 DUP7 ADD PUSH2 0x9DC JUMP JUMPDEST SWAP2 POP POP SWAP3 SWAP2 POP POP JUMP JUMPDEST PUSH1 0x0 DUP2 MLOAD SWAP1 POP PUSH2 0xAB3 DUP2 PUSH2 0x1581 JUMP JUMPDEST SWAP3 SWAP2 POP POP JUMP JUMPDEST PUSH1 0x0 DUP1 PUSH1 0x40 DUP4 DUP6 SUB SLT ISZERO PUSH2 0xAD0 JUMPI PUSH2 0xACF PUSH2 0x137A JUMP JUMPDEST JUMPDEST PUSH1 0x0 PUSH2 0xADE DUP6 DUP3 DUP7 ADD PUSH2 0xA1E JUMP JUMPDEST SWAP3 POP POP PUSH1 0x20 PUSH2 0xAEF DUP6 DUP3 DUP7 ADD PUSH2 0xA1E JUMP JUMPDEST SWAP2 POP POP SWAP3 POP SWAP3 SWAP1 POP JUMP JUMPDEST PUSH1 0x0 DUP1 PUSH1 0x40 DUP4 DUP6 SUB SLT ISZERO PUSH2 0xB10 JUMPI PUSH2 0xB0F PUSH2 0x137A JUMP JUMPDEST JUMPDEST PUSH1 0x0 PUSH2 0xB1E DUP6 DUP3 DUP7 ADD PUSH2 0xA1E JUMP JUMPDEST SWAP3 POP POP PUSH1 0x20 DUP4 ADD CALLDATALOAD PUSH8 0xFFFFFFFFFFFFFFFF DUP2 GT ISZERO PUSH2 0xB3F JUMPI PUSH2 0xB3E PUSH2 0x1375 JUMP JUMPDEST JUMPDEST PUSH2 0xB4B DUP6 DUP3 DUP7 ADD PUSH2 0xA48 JUMP JUMPDEST SWAP2 POP POP SWAP3 POP SWAP3 SWAP1 POP JUMP JUMPDEST PUSH1 0x0 PUSH1 0x20 DUP3 DUP5 SUB SLT ISZERO PUSH2 0xB6B JUMPI PUSH2 0xB6A PUSH2 0x137A JUMP JUMPDEST JUMPDEST PUSH1 0x0 DUP3 ADD CALLDATALOAD PUSH8 0xFFFFFFFFFFFFFFFF DUP2 GT ISZERO PUSH2 0xB89 JUMPI PUSH2 0xB88 PUSH2 0x1375 JUMP JUMPDEST JUMPDEST PUSH2 0xB95 DUP5 DUP3 DUP6 ADD PUSH2 0xA48 JUMP JUMPDEST SWAP2 POP POP SWAP3 SWAP2 POP POP JUMP JUMPDEST PUSH1 0x0 PUSH1 0x20 DUP3 DUP5 SUB SLT ISZERO PUSH2 0xBB4 JUMPI PUSH2 0xBB3 PUSH2 0x137A JUMP JUMPDEST JUMPDEST PUSH1 0x0 DUP3 ADD MLOAD PUSH8 0xFFFFFFFFFFFFFFFF DUP2 GT ISZERO PUSH2 0xBD2 JUMPI PUSH2 0xBD1 PUSH2 0x1375 JUMP JUMPDEST JUMPDEST PUSH2 0xBDE DUP5 DUP3 DUP6 ADD PUSH2 0xA76 JUMP JUMPDEST SWAP2 POP POP SWAP3 SWAP2 POP POP JUMP JUMPDEST PUSH1 0x0 DUP1 PUSH1 0x40 DUP4 DUP6 SUB SLT ISZERO PUSH2 0xBFE JUMPI PUSH2 0xBFD PUSH2 0x137A JUMP JUMPDEST JUMPDEST PUSH1 0x0 DUP4 ADD MLOAD PUSH8 0xFFFFFFFFFFFFFFFF DUP2 GT ISZERO PUSH2 0xC1C JUMPI PUSH2 0xC1B PUSH2 0x1375 JUMP JUMPDEST JUMPDEST PUSH2 0xC28 DUP6 DUP3 DUP7 ADD PUSH2 0xA76 JUMP JUMPDEST SWAP3 POP POP PUSH1 0x20 DUP4 ADD MLOAD PUSH8 0xFFFFFFFFFFFFFFFF DUP2 GT ISZERO PUSH2 0xC49 JUMPI PUSH2 0xC48 PUSH2 0x1375 JUMP JUMPDEST JUMPDEST PUSH2 0xC55 DUP6 DUP3 DUP7 ADD PUSH2 0xA76 JUMP JUMPDEST SWAP2 POP POP SWAP3 POP SWAP3 SWAP1 POP JUMP JUMPDEST PUSH1 0x0 DUP1 PUSH1 0x40 DUP4 DUP6 SUB SLT ISZERO PUSH2 0xC76 JUMPI PUSH2 0xC75 PUSH2 0x137A JUMP JUMPDEST JUMPDEST PUSH1 0x0 PUSH2 0xC84 DUP6 DUP3 DUP7 ADD PUSH2 0xAA4 JUMP JUMPDEST SWAP3 POP POP PUSH1 0x20 PUSH2 0xC95 DUP6 DUP3 DUP7 ADD PUSH2 0xA33 JUMP JUMPDEST SWAP2 POP POP SWAP3 POP SWAP3 SWAP1 POP JUMP JUMPDEST PUSH2 0xCA8 DUP2 PUSH2 0x1252 JUMP JUMPDEST DUP3 MSTORE POP POP JUMP JUMPDEST PUSH2 0xCB7 DUP2 PUSH2 0x1264 JUMP JUMPDEST DUP3 MSTORE POP POP JUMP JUMPDEST PUSH1 0x0 PUSH2 0xCC8 DUP3 PUSH2 0x11F7 JUMP JUMPDEST PUSH2 0xCD2 DUP2 DUP6 PUSH2 0x1202 JUMP JUMPDEST SWAP4 POP PUSH2 0xCE2 DUP2 DUP6 PUSH1 0x20 DUP7 ADD PUSH2 0x12A9 JUMP JUMPDEST PUSH2 0xCEB DUP2 PUSH2 0x137F JUMP JUMPDEST DUP5 ADD SWAP2 POP POP SWAP3 SWAP2 POP POP JUMP JUMPDEST PUSH1 0x0 PUSH2 0xD01 DUP3 PUSH2 0x11F7 JUMP JUMPDEST PUSH2 0xD0B DUP2 DUP6 PUSH2 0x1213 JUMP JUMPDEST SWAP4 POP PUSH2 0xD1B DUP2 DUP6 PUSH1 0x20 DUP7 ADD PUSH2 0x12A9 JUMP JUMPDEST DUP1 DUP5 ADD SWAP2 POP POP SWAP3 SWAP2 POP POP JUMP JUMPDEST PUSH1 0x0 PUSH2 0xD34 PUSH1 0x5 DUP4 PUSH2 0x1213 JUMP JUMPDEST SWAP2 POP PUSH2 0xD3F DUP3 PUSH2 0x1390 JUMP JUMPDEST PUSH1 0x5 DUP3 ADD SWAP1 POP SWAP2 SWAP1 POP JUMP JUMPDEST PUSH1 0x0 PUSH2 0xD57 PUSH1 0x7 DUP4 PUSH2 0x1213 JUMP JUMPDEST SWAP2 POP PUSH2 0xD62 DUP3 PUSH2 0x13B9 JUMP JUMPDEST PUSH1 0x7 DUP3 ADD SWAP1 POP SWAP2 SWAP1 POP JUMP JUMPDEST PUSH1 0x0 PUSH2 0xD7A PUSH1 0xC DUP4 PUSH2 0x1202 JUMP JUMPDEST SWAP2 POP PUSH2 0xD85 DUP3 PUSH2 0x13E2 JUMP JUMPDEST PUSH1 0x20 DUP3 ADD SWAP1 POP SWAP2 SWAP1 POP JUMP JUMPDEST PUSH1 0x0 PUSH2 0xD9D PUSH1 0xF DUP4 PUSH2 0x1202 JUMP JUMPDEST SWAP2 POP PUSH2 0xDA8 DUP3 PUSH2 0x140B JUMP JUMPDEST PUSH1 0x20 DUP3 ADD SWAP1 POP SWAP2 SWAP1 POP JUMP JUMPDEST PUSH1 0x0 PUSH2 0xDC0 PUSH1 0x7 DUP4 PUSH2 0x1213 JUMP JUMPDEST SWAP2 POP PUSH2 0xDCB DUP3 PUSH2 0x1434 JUMP JUMPDEST PUSH1 0x7 DUP3 ADD SWAP1 POP SWAP2 SWAP1 POP JUMP JUMPDEST PUSH1 0x0 PUSH2 0xDE3 PUSH1 0x13 DUP4 PUSH2 0x1202 JUMP JUMPDEST SWAP2 POP PUSH2 0xDEE DUP3 PUSH2 0x145D JUMP JUMPDEST PUSH1 0x20 DUP3 ADD SWAP1 POP SWAP2 SWAP1 POP JUMP JUMPDEST PUSH1 0x0 PUSH2 0xE06 PUSH1 0x4 DUP4 PUSH2 0x1213 JUMP JUMPDEST SWAP2 POP PUSH2 0xE11 DUP3 PUSH2 0x1486 JUMP JUMPDEST PUSH1 0x4 DUP3 ADD SWAP1 POP SWAP2 SWAP1 POP JUMP JUMPDEST PUSH1 0x0 PUSH2 0xE29 PUSH1 0x4 DUP4 PUSH2 0x1213 JUMP JUMPDEST SWAP2 POP PUSH2 0xE34 DUP3 PUSH2 0x14AF JUMP JUMPDEST PUSH1 0x4 DUP3 ADD SWAP1 POP SWAP2 SWAP1 POP JUMP JUMPDEST PUSH1 0x0 PUSH2 0xE4C PUSH1 0x14 DUP4 PUSH2 0x1202 JUMP JUMPDEST SWAP2 POP PUSH2 0xE57 DUP3 PUSH2 0x14D8 JUMP JUMPDEST PUSH1 0x20 DUP3 ADD SWAP1 POP SWAP2 SWAP1 POP JUMP JUMPDEST PUSH1 0x0 PUSH2 0xE6F PUSH1 0x20 DUP4 PUSH2 0x1202 JUMP JUMPDEST SWAP2 POP PUSH2 0xE7A DUP3 PUSH2 0x1501 JUMP JUMPDEST PUSH1 0x20 DUP3 ADD SWAP1 POP SWAP2 SWAP1 POP JUMP JUMPDEST PUSH1 0x0 PUSH2 0xE92 PUSH1 0x4 DUP4 PUSH2 0x1213 JUMP JUMPDEST SWAP2 POP PUSH2 0xE9D DUP3 PUSH2 0x152A JUMP JUMPDEST PUSH1 0x4 DUP3 ADD SWAP1 POP SWAP2 SWAP1 POP JUMP JUMPDEST PUSH2 0xEB1 DUP2 PUSH2 0x1290 JUMP JUMPDEST DUP3 MSTORE POP POP JUMP JUMPDEST PUSH1 0x0 PUSH2 0xEC3 DUP3 DUP5 PUSH2 0xCF6 JUMP JUMPDEST SWAP2 POP DUP2 SWAP1 POP SWAP3 SWAP2 POP POP JUMP JUMPDEST PUSH1 0x0 PUSH2 0xED9 DUP3 PUSH2 0xD27 JUMP JUMPDEST SWAP2 POP DUP2 SWAP1 POP SWAP2 SWAP1 POP JUMP JUMPDEST PUSH1 0x0 PUSH2 0xEEE DUP3 PUSH2 0xD4A JUMP JUMPDEST SWAP2 POP DUP2 SWAP1 POP SWAP2 SWAP1 POP JUMP JUMPDEST PUSH1 0x0 PUSH2 0xF03 DUP3 PUSH2 0xDB3 JUMP JUMPDEST SWAP2 POP DUP2 SWAP1 POP SWAP2 SWAP1 POP JUMP JUMPDEST PUSH1 0x0 PUSH2 0xF18 DUP3 PUSH2 0xDF9 JUMP JUMPDEST SWAP2 POP DUP2 SWAP1 POP SWAP2 SWAP1 POP JUMP JUMPDEST PUSH1 0x0 PUSH2 0xF2D DUP3 PUSH2 0xE1C JUMP JUMPDEST SWAP2 POP DUP2 SWAP1 POP SWAP2 SWAP1 POP JUMP JUMPDEST PUSH1 0x0 PUSH2 0xF42 DUP3 PUSH2 0xE85 JUMP JUMPDEST SWAP2 POP DUP2 SWAP1 POP SWAP2 SWAP1 POP JUMP JUMPDEST PUSH1 0x0 PUSH1 0x20 DUP3 ADD SWAP1 POP PUSH2 0xF61 PUSH1 0x0 DUP4 ADD DUP5 PUSH2 0xC9F JUMP JUMPDEST SWAP3 SWAP2 POP POP JUMP JUMPDEST PUSH1 0x0 PUSH1 0x40 DUP3 ADD SWAP1 POP PUSH2 0xF7C PUSH1 0x0 DUP4 ADD DUP6 PUSH2 0xC9F JUMP JUMPDEST PUSH2 0xF89 PUSH1 0x20 DUP4 ADD DUP5 PUSH2 0xC9F JUMP JUMPDEST SWAP4 SWAP3 POP POP POP JUMP JUMPDEST PUSH1 0x0 PUSH1 0xA0 DUP3 ADD SWAP1 POP PUSH2 0xFA5 PUSH1 0x0 DUP4 ADD DUP8 PUSH2 0xC9F JUMP JUMPDEST PUSH2 0xFB2 PUSH1 0x20 DUP4 ADD DUP7 PUSH2 0xC9F JUMP JUMPDEST DUP2 DUP2 SUB PUSH1 0x40 DUP4 ADD MSTORE PUSH2 0xFC4 DUP2 DUP6 PUSH2 0xCBD JUMP JUMPDEST SWAP1 POP DUP2 DUP2 SUB PUSH1 0x60 DUP4 ADD MSTORE PUSH2 0xFD7 DUP2 PUSH2 0xD6D JUMP JUMPDEST SWAP1 POP PUSH2 0xFE6 PUSH1 0x80 DUP4 ADD DUP5 PUSH2 0xEA8 JUMP JUMPDEST SWAP6 SWAP5 POP POP POP POP POP JUMP JUMPDEST PUSH1 0x0 PUSH1 0xA0 DUP3 ADD SWAP1 POP PUSH2 0x1004 PUSH1 0x0 DUP4 ADD DUP8 PUSH2 0xC9F JUMP JUMPDEST PUSH2 0x1011 PUSH1 0x20 DUP4 ADD DUP7 PUSH2 0xC9F JUMP JUMPDEST DUP2 DUP2 SUB PUSH1 0x40 DUP4 ADD MSTORE PUSH2 0x1023 DUP2 DUP6 PUSH2 0xCBD JUMP JUMPDEST SWAP1 POP DUP2 DUP2 SUB PUSH1 0x60 DUP4 ADD MSTORE PUSH2 0x1036 DUP2 PUSH2 0xD90 JUMP JUMPDEST SWAP1 POP PUSH2 0x1045 PUSH1 0x80 DUP4 ADD DUP5 PUSH2 0xEA8 JUMP JUMPDEST SWAP6 SWAP5 POP POP POP POP POP JUMP JUMPDEST PUSH1 0x0 PUSH1 0xA0 DUP3 ADD SWAP1 POP PUSH2 0x1063 PUSH1 0x0 DUP4 ADD DUP8 PUSH2 0xC9F JUMP JUMPDEST PUSH2 0x1070 PUSH1 0x20 DUP4 ADD DUP7 PUSH2 0xC9F JUMP JUMPDEST DUP2 DUP2 SUB PUSH1 0x40 DUP4 ADD MSTORE PUSH2 0x1082 DUP2 DUP6 PUSH2 0xCBD JUMP JUMPDEST SWAP1 POP DUP2 DUP2 SUB PUSH1 0x60 DUP4 ADD MSTORE PUSH2 0x1095 DUP2 PUSH2 0xDD6 JUMP JUMPDEST SWAP1 POP PUSH2 0x10A4 PUSH1 0x80 DUP4 ADD DUP5 PUSH2 0xEA8 JUMP JUMPDEST SWAP6 SWAP5 POP POP POP POP POP JUMP JUMPDEST PUSH1 0x0 PUSH1 0xA0 DUP3 ADD SWAP1 POP PUSH2 0x10C2 PUSH1 0x0 DUP4 ADD DUP8 PUSH2 0xC9F JUMP JUMPDEST PUSH2 0x10CF PUSH1 0x20 DUP4 ADD DUP7 PUSH2 0xC9F JUMP JUMPDEST DUP2 DUP2 SUB PUSH1 0x40 DUP4 ADD MSTORE PUSH2 0x10E1 DUP2 DUP6 PUSH2 0xCBD JUMP JUMPDEST SWAP1 POP DUP2 DUP2 SUB PUSH1 0x60 DUP4 ADD MSTORE PUSH2 0x10F4 DUP2 PUSH2 0xE3F JUMP JUMPDEST SWAP1 POP PUSH2 0x1103 PUSH1 0x80 DUP4 ADD DUP5 PUSH2 0xEA8 JUMP JUMPDEST SWAP6 SWAP5 POP POP POP POP POP JUMP JUMPDEST PUSH1 0x0 PUSH1 0xA0 DUP3 ADD SWAP1 POP PUSH2 0x1121 PUSH1 0x0 DUP4 ADD DUP8 PUSH2 0xC9F JUMP JUMPDEST PUSH2 0x112E PUSH1 0x20 DUP4 ADD DUP7 PUSH2 0xC9F JUMP JUMPDEST DUP2 DUP2 SUB PUSH1 0x40 DUP4 ADD MSTORE PUSH2 0x1140 DUP2 DUP6 PUSH2 0xCBD JUMP JUMPDEST SWAP1 POP DUP2 DUP2 SUB PUSH1 0x60 DUP4 ADD MSTORE PUSH2 0x1153 DUP2 PUSH2 0xE62 JUMP JUMPDEST SWAP1 POP PUSH2 0x1162 PUSH1 0x80 DUP4 ADD DUP5 PUSH2 0xEA8 JUMP JUMPDEST SWAP6 SWAP5 POP POP POP POP POP JUMP JUMPDEST PUSH1 0x0 PUSH1 0x20 DUP3 ADD SWAP1 POP PUSH2 0x1180 PUSH1 0x0 DUP4 ADD DUP5 PUSH2 0xCAE JUMP JUMPDEST SWAP3 SWAP2 POP POP JUMP JUMPDEST PUSH1 0x0 PUSH1 0x20 DUP3 ADD SWAP1 POP PUSH2 0x119B PUSH1 0x0 DUP4 ADD DUP5 PUSH2 0xEA8 JUMP JUMPDEST SWAP3 SWAP2 POP POP JUMP JUMPDEST PUSH1 0x0 PUSH2 0x11AB PUSH2 0x11BC JUMP JUMPDEST SWAP1 POP PUSH2 0x11B7 DUP3 DUP3 PUSH2 0x12DC JUMP JUMPDEST SWAP2 SWAP1 POP JUMP JUMPDEST PUSH1 0x0 PUSH1 0x40 MLOAD SWAP1 POP SWAP1 JUMP JUMPDEST PUSH1 0x0 PUSH8 0xFFFFFFFFFFFFFFFF DUP3 GT ISZERO PUSH2 0x11E1 JUMPI PUSH2 0x11E0 PUSH2 0x133C JUMP JUMPDEST JUMPDEST PUSH2 0x11EA DUP3 PUSH2 0x137F JUMP JUMPDEST SWAP1 POP PUSH1 0x20 DUP2 ADD SWAP1 POP SWAP2 SWAP1 POP JUMP JUMPDEST PUSH1 0x0 DUP2 MLOAD SWAP1 POP SWAP2 SWAP1 POP JUMP JUMPDEST PUSH1 0x0 DUP3 DUP3 MSTORE PUSH1 0x20 DUP3 ADD SWAP1 POP SWAP3 SWAP2 POP POP JUMP JUMPDEST PUSH1 0x0 DUP2 SWAP1 POP SWAP3 SWAP2 POP POP JUMP JUMPDEST PUSH1 0x0 PUSH2 0x1229 DUP3 PUSH2 0x1290 JUMP JUMPDEST SWAP2 POP PUSH2 0x1234 DUP4 PUSH2 0x1290 JUMP JUMPDEST SWAP3 POP DUP3 DUP3 LT ISZERO PUSH2 0x1247 JUMPI PUSH2 0x1246 PUSH2 0x130D JUMP JUMPDEST JUMPDEST DUP3 DUP3 SUB SWAP1 POP SWAP3 SWAP2 POP POP JUMP JUMPDEST PUSH1 0x0 PUSH2 0x125D DUP3 PUSH2 0x1270 JUMP JUMPDEST SWAP1 POP SWAP2 SWAP1 POP JUMP JUMPDEST PUSH1 0x0 DUP2 ISZERO ISZERO SWAP1 POP SWAP2 SWAP1 POP JUMP JUMPDEST PUSH1 0x0 PUSH20 0xFFFFFFFFFFFFFFFFFFFFFFFFFFFFFFFFFFFFFFFF DUP3 AND SWAP1 POP SWAP2 SWAP1 POP JUMP JUMPDEST PUSH1 0x0 DUP2 SWAP1 POP SWAP2 SWAP1 POP JUMP JUMPDEST DUP3 DUP2 DUP4 CALLDATACOPY PUSH1 0x0 DUP4 DUP4 ADD MSTORE POP POP POP JUMP JUMPDEST PUSH1 0x0 JUMPDEST DUP4 DUP2 LT ISZERO PUSH2 0x12C7 JUMPI DUP1 DUP3 ADD MLOAD DUP2 DUP5 ADD MSTORE PUSH1 0x20 DUP2 ADD SWAP1 POP PUSH2 0x12AC JUMP JUMPDEST DUP4 DUP2 GT ISZERO PUSH2 0x12D6 JUMPI PUSH1 0x0 DUP5 DUP5 ADD MSTORE JUMPDEST POP POP POP POP JUMP JUMPDEST PUSH2 0x12E5 DUP3 PUSH2 0x137F JUMP JUMPDEST DUP2 ADD DUP2 DUP2 LT PUSH8 0xFFFFFFFFFFFFFFFF DUP3 GT OR ISZERO PUSH2 0x1304 JUMPI PUSH2 0x1303 PUSH2 0x133C JUMP JUMPDEST JUMPDEST DUP1 PUSH1 0x40 MSTORE POP POP POP JUMP JUMPDEST PUSH32 0x4E487B7100000000000000000000000000000000000000000000000000000000 PUSH1 0x0 MSTORE PUSH1 0x11 PUSH1 0x4 MSTORE PUSH1 0x24 PUSH1 0x0 REVERT JUMPDEST PUSH32 0x4E487B7100000000000000000000000000000000000000000000000000000000 PUSH1 0x0 MSTORE PUSH1 0x41 PUSH1 0x4 MSTORE PUSH1 0x24 PUSH1 0x0 REVERT JUMPDEST PUSH1 0x0 DUP1 REVERT JUMPDEST PUSH1 0x0 DUP1 REVERT JUMPDEST PUSH1 0x0 DUP1 REVERT JUMPDEST PUSH1 0x0 DUP1 REVERT JUMPDEST PUSH1 0x0 PUSH1 0x1F NOT PUSH1 0x1F DUP4 ADD AND SWAP1 POP SWAP2 SWAP1 POP JUMP JUMPDEST PUSH32 0x636C6F7365000000000000000000000000000000000000000000000000000000 PUSH1 0x0 DUP3 ADD MSTORE POP JUMP JUMPDEST PUSH32 0x322E322E322E3200000000000000000000000000000000000000000000000000 PUSH1 0x0 DUP3 ADD MSTORE POP JUMP JUMPDEST PUSH32 0x4163636573732070617373210000000000000000000000000000000000000000 PUSH1 0x0 DUP3 ADD MSTORE POP JUMP JUMPDEST PUSH32 0x496C6C6567616C20616374696F6E210000000000000000000000000000000000 PUSH1 0x0 DUP3 ADD MSTORE POP JUMP JUMPDEST PUSH32 0x7265737461727400000000000000000000000000000000000000000000000000 PUSH1 0x0 DUP3 ADD MSTORE POP JUMP JUMPDEST PUSH32 0x496C6C6567616C20495020616464726573732100000000000000000000000000 PUSH1 0x0 DUP3 ADD MSTORE POP JUMP JUMPDEST PUSH32 0x6B696C6C00000000000000000000000000000000000000000000000000000000 PUSH1 0x0 DUP3 ADD MSTORE POP JUMP JUMPDEST PUSH32 0x6F70656E00000000000000000000000000000000000000000000000000000000 PUSH1 0x0 DUP3 ADD MSTORE POP JUMP JUMPDEST PUSH32 0x556E617574686F72697A65642061636365737321000000000000000000000000 PUSH1 0x0 DUP3 ADD MSTORE POP JUMP JUMPDEST PUSH32 0x5374696C6C20626C6F636B65642C20756E61626C6520746F2061636365737321 PUSH1 0x0 DUP3 ADD MSTORE POP JUMP JUMPDEST PUSH32 0x7265616400000000000000000000000000000000000000000000000000000000 PUSH1 0x0 DUP3 ADD MSTORE POP JUMP JUMPDEST PUSH2 0x155C DUP2 PUSH2 0x1252 JUMP JUMPDEST DUP2 EQ PUSH2 0x1567 JUMPI PUSH1 0x0 DUP1 REVERT JUMPDEST POP JUMP JUMPDEST PUSH2 0x1573 DUP2 PUSH2 0x1264 JUMP JUMPDEST DUP2 EQ PUSH2 0x157E JUMPI PUSH1 0x0 DUP1 REVERT JUMPDEST POP JUMP JUMPDEST PUSH2 0x158A DUP2 PUSH2 0x1290 JUMP JUMPDEST DUP2 EQ PUSH2 0x1595 JUMPI PUSH1 0x0 DUP1 REVERT JUMPDEST POP JUMP INVALID LOG2 PUSH5 0x6970667358 0x22 SLT KECCAK256 EQ RETURNDATACOPY 0xDD COINBASE SHL GASLIMIT 0x2B 0xCA DUP3 0x2B 0x23 CALLDATACOPY 0xCC 0x2F 0xAF 0xC4 0xE6 0xB1 CODESIZE 0xE5 PUSH24 0x72DBCAB714A299F08E181C64736F6C634300080700330000 "
		},
		"gasEstimates": {
			"creation": {
				"codeDepositCost": "1116400",
				"executionCost": "1160",
				"totalCost": "1117560"
			},
			"external": {
				"accessControl(address,string)": "infinite",
				"getCurTime()": "358",
				"init(address,address)": "infinite",
				"isLegalAction(string)": "infinite"
			},
			"internal": {
				"checkRequesterStatus()": "infinite"
			}
		},
		"methodIdentifiers": {
			"accessControl(address,string)": "32076e77",
			"getCurTime()": "c0821da3",
			"init(address,address)": "f09a4016",
			"isLegalAction(string)": "a352ff64"
		}
	},
	"abi": [
		{
			"anonymous": false,
			"inputs": [
				{
					"indexed": false,
					"internalType": "address",
					"name": "from",
					"type": "address"
				},
				{
					"indexed": false,
					"internalType": "address",
					"name": "to",
					"type": "address"
				},
				{
					"indexed": false,
					"internalType": "string",
					"name": "action",
					"type": "string"
				},
				{
					"indexed": false,
					"internalType": "string",
					"name": "result",
					"type": "string"
				},
				{
					"indexed": false,
					"internalType": "uint256",
					"name": "accessTime",
					"type": "uint256"
				}
			],
			"name": "AccessControlRet",
			"type": "event"
		},
		{
			"inputs": [
				{
					"internalType": "address",
					"name": "_objectAddr",
					"type": "address"
				},
				{
					"internalType": "string",
					"name": "action",
					"type": "string"
				}
			],
			"name": "accessControl",
			"outputs": [
				{
					"internalType": "bool",
					"name": "res",
					"type": "bool"
				}
			],
			"stateMutability": "nonpayable",
			"type": "function"
		},
		{
			"inputs": [],
			"name": "getCurTime",
			"outputs": [
				{
					"internalType": "uint256",
					"name": "",
					"type": "uint256"
				}
			],
			"stateMutability": "view",
			"type": "function"
		},
		{
			"inputs": [
				{
					"internalType": "address",
					"name": "_MCAddr",
					"type": "address"
				},
				{
					"internalType": "address",
					"name": "_JCAddr",
					"type": "address"
				}
			],
			"name": "init",
			"outputs": [],
			"stateMutability": "nonpayable",
			"type": "function"
		},
		{
			"inputs": [
				{
					"internalType": "string",
					"name": "_action",
					"type": "string"
				}
			],
			"name": "isLegalAction",
			"outputs": [
				{
					"internalType": "bool",
					"name": "res",
					"type": "bool"
				}
			],
			"stateMutability": "view",
			"type": "function"
		}
	]
}